{
	"practise/practise 3.sol": {
		"Auction": {
			"abi": [
				{
					"inputs": [],
					"stateMutability": "nonpayable",
					"type": "constructor"
				},
				{
					"anonymous": false,
					"inputs": [
						{
							"indexed": false,
							"internalType": "address",
							"name": "winner",
							"type": "address"
						},
						{
							"indexed": false,
							"internalType": "uint256",
							"name": "amount",
							"type": "uint256"
						}
					],
					"name": "AuctionEnded",
					"type": "event"
				},
				{
					"anonymous": false,
					"inputs": [
						{
							"indexed": false,
							"internalType": "address",
							"name": "bidder",
							"type": "address"
						},
						{
							"indexed": false,
							"internalType": "uint256",
							"name": "amount",
							"type": "uint256"
						}
					],
					"name": "HighestBidIncrease",
					"type": "event"
				},
				{
					"inputs": [],
					"name": "bid",
					"outputs": [],
					"stateMutability": "payable",
					"type": "function"
				},
				{
					"inputs": [
						{
							"internalType": "address",
							"name": "",
							"type": "address"
						}
					],
					"name": "bids",
					"outputs": [
						{
							"internalType": "uint256",
							"name": "",
							"type": "uint256"
						}
					],
					"stateMutability": "view",
					"type": "function"
				},
				{
					"inputs": [],
					"name": "endAuction",
					"outputs": [],
					"stateMutability": "nonpayable",
					"type": "function"
				},
				{
					"inputs": [],
					"name": "ended",
					"outputs": [
						{
							"internalType": "bool",
							"name": "",
							"type": "bool"
						}
					],
					"stateMutability": "view",
					"type": "function"
				},
				{
					"inputs": [],
					"name": "highestBid",
					"outputs": [
						{
							"internalType": "uint256",
							"name": "",
							"type": "uint256"
						}
					],
					"stateMutability": "view",
					"type": "function"
				},
				{
					"inputs": [],
					"name": "highestBidder",
					"outputs": [
						{
							"internalType": "address",
							"name": "",
							"type": "address"
						}
					],
					"stateMutability": "view",
					"type": "function"
				}
			],
			"devdoc": {
				"kind": "dev",
				"methods": {},
				"version": 1
			},
			"evm": {
				"assembly": "    /* \"practise/practise 3.sol\":63:1115  contract Auction {... */\n  mstore(0x40, 0x80)\n    /* \"practise/practise 3.sol\":338:442  constructor() {... */\n  callvalue\n  dup1\n  iszero\n  tag_1\n  jumpi\n  0x00\n  dup1\n  revert\ntag_1:\n  pop\n    /* \"practise/practise 3.sol\":378:388  msg.sender */\n  caller\n    /* \"practise/practise 3.sol\":362:375  highestBidder */\n  0x00\n  dup1\n    /* \"practise/practise 3.sol\":362:388  highestBidder = msg.sender */\n  0x0100\n  exp\n  dup2\n  sload\n  dup2\n  0xffffffffffffffffffffffffffffffffffffffff\n  mul\n  not\n  and\n  swap1\n  dup4\n  0xffffffffffffffffffffffffffffffffffffffff\n  and\n  mul\n  or\n  swap1\n  sstore\n  pop\n    /* \"practise/practise 3.sol\":411:412  0 */\n  0x00\n    /* \"practise/practise 3.sol\":398:408  highestBid */\n  0x01\n    /* \"practise/practise 3.sol\":398:412  highestBid = 0 */\n  dup2\n  swap1\n  sstore\n  pop\n    /* \"practise/practise 3.sol\":430:435  false */\n  0x00\n    /* \"practise/practise 3.sol\":422:427  ended */\n  0x03\n  0x00\n    /* \"practise/practise 3.sol\":422:435  ended = false */\n  0x0100\n  exp\n  dup2\n  sload\n  dup2\n  0xff\n  mul\n  not\n  and\n  swap1\n  dup4\n  iszero\n  iszero\n  mul\n  or\n  swap1\n  sstore\n  pop\n    /* \"practise/practise 3.sol\":63:1115  contract Auction {... */\n  dataSize(sub_0)\n  dup1\n  dataOffset(sub_0)\n  0x00\n  codecopy\n  0x00\n  return\nstop\n\nsub_0: assembly {\n        /* \"practise/practise 3.sol\":63:1115  contract Auction {... */\n      mstore(0x40, 0x80)\n      jumpi(tag_1, lt(calldatasize, 0x04))\n      shr(0xe0, calldataload(0x00))\n      dup1\n      0x12fa6feb\n      eq\n      tag_2\n      jumpi\n      dup1\n      0x1998aeef\n      eq\n      tag_3\n      jumpi\n      dup1\n      0x62ea82db\n      eq\n      tag_4\n      jumpi\n      dup1\n      0x91f90157\n      eq\n      tag_5\n      jumpi\n      dup1\n      0xd57bde79\n      eq\n      tag_6\n      jumpi\n      dup1\n      0xfe67a54b\n      eq\n      tag_7\n      jumpi\n    tag_1:\n      0x00\n      dup1\n      revert\n        /* \"practise/practise 3.sol\":196:213  bool public ended */\n    tag_2:\n      callvalue\n      dup1\n      iszero\n      tag_8\n      jumpi\n      0x00\n      dup1\n      revert\n    tag_8:\n      pop\n      tag_9\n      tag_10\n      jump\t// in\n    tag_9:\n      mload(0x40)\n      tag_11\n      swap2\n      swap1\n      tag_12\n      jump\t// in\n    tag_11:\n      mload(0x40)\n      dup1\n      swap2\n      sub\n      swap1\n      return\n        /* \"practise/practise 3.sol\":448:808  function bid() external payable {... */\n    tag_3:\n      tag_13\n      tag_14\n      jump\t// in\n    tag_13:\n      stop\n        /* \"practise/practise 3.sol\":151:190  mapping(address => uint256) public bids */\n    tag_4:\n      callvalue\n      dup1\n      iszero\n      tag_15\n      jumpi\n      0x00\n      dup1\n      revert\n    tag_15:\n      pop\n      tag_16\n      0x04\n      dup1\n      calldatasize\n      sub\n      dup2\n      add\n      swap1\n      tag_17\n      swap2\n      swap1\n      tag_18\n      jump\t// in\n    tag_17:\n      tag_19\n      jump\t// in\n    tag_16:\n      mload(0x40)\n      tag_20\n      swap2\n      swap1\n      tag_21\n      jump\t// in\n    tag_20:\n      mload(0x40)\n      dup1\n      swap2\n      sub\n      swap1\n      return\n        /* \"practise/practise 3.sol\":86:114  address public highestBidder */\n    tag_5:\n      callvalue\n      dup1\n      iszero\n      tag_22\n      jumpi\n      0x00\n      dup1\n      revert\n    tag_22:\n      pop\n      tag_23\n      tag_24\n      jump\t// in\n    tag_23:\n      mload(0x40)\n      tag_25\n      swap2\n      swap1\n      tag_26\n      jump\t// in\n    tag_25:\n      mload(0x40)\n      dup1\n      swap2\n      sub\n      swap1\n      return\n        /* \"practise/practise 3.sol\":120:145  uint256 public highestBid */\n    tag_6:\n      callvalue\n      dup1\n      iszero\n      tag_27\n      jumpi\n      0x00\n      dup1\n      revert\n    tag_27:\n      pop\n      tag_28\n      tag_29\n      jump\t// in\n    tag_28:\n      mload(0x40)\n      tag_30\n      swap2\n      swap1\n      tag_21\n      jump\t// in\n    tag_30:\n      mload(0x40)\n      dup1\n      swap2\n      sub\n      swap1\n      return\n        /* \"practise/practise 3.sol\":814:1113  function endAuction() external {... */\n    tag_7:\n      callvalue\n      dup1\n      iszero\n      tag_31\n      jumpi\n      0x00\n      dup1\n      revert\n    tag_31:\n      pop\n      tag_32\n      tag_33\n      jump\t// in\n    tag_32:\n      stop\n        /* \"practise/practise 3.sol\":196:213  bool public ended */\n    tag_10:\n      0x03\n      0x00\n      swap1\n      sload\n      swap1\n      0x0100\n      exp\n      swap1\n      div\n      0xff\n      and\n      dup2\n      jump\t// out\n        /* \"practise/practise 3.sol\":448:808  function bid() external payable {... */\n    tag_14:\n        /* \"practise/practise 3.sol\":499:504  ended */\n      0x03\n      0x00\n      swap1\n      sload\n      swap1\n      0x0100\n      exp\n      swap1\n      div\n      0xff\n      and\n        /* \"practise/practise 3.sol\":498:504  !ended */\n      iszero\n        /* \"practise/practise 3.sol\":490:522  require(!ended, \"Auction ended\") */\n      tag_35\n      jumpi\n      mload(0x40)\n      0x08c379a000000000000000000000000000000000000000000000000000000000\n      dup2\n      mstore\n      0x04\n      add\n      tag_36\n      swap1\n      tag_37\n      jump\t// in\n    tag_36:\n      mload(0x40)\n      dup1\n      swap2\n      sub\n      swap1\n      revert\n    tag_35:\n        /* \"practise/practise 3.sol\":552:562  highestBid */\n      sload(0x01)\n        /* \"practise/practise 3.sol\":540:549  msg.value */\n      callvalue\n        /* \"practise/practise 3.sol\":540:562  msg.value > highestBid */\n      gt\n        /* \"practise/practise 3.sol\":532:586  require(msg.value > highestBid, \"Bid not high enough\") */\n      tag_38\n      jumpi\n      mload(0x40)\n      0x08c379a000000000000000000000000000000000000000000000000000000000\n      dup2\n      mstore\n      0x04\n      add\n      tag_39\n      swap1\n      tag_40\n      jump\t// in\n    tag_39:\n      mload(0x40)\n      dup1\n      swap2\n      sub\n      swap1\n      revert\n    tag_38:\n        /* \"practise/practise 3.sol\":615:616  0 */\n      0x00\n        /* \"practise/practise 3.sol\":601:611  highestBid */\n      sload(0x01)\n        /* \"practise/practise 3.sol\":601:616  highestBid != 0 */\n      eq\n        /* \"practise/practise 3.sol\":597:676  if (highestBid != 0) {... */\n      tag_41\n      jumpi\n        /* \"practise/practise 3.sol\":655:665  highestBid */\n      sload(0x01)\n        /* \"practise/practise 3.sol\":632:636  bids */\n      0x02\n        /* \"practise/practise 3.sol\":632:651  bids[highestBidder] */\n      0x00\n        /* \"practise/practise 3.sol\":637:650  highestBidder */\n      dup1\n      0x00\n      swap1\n      sload\n      swap1\n      0x0100\n      exp\n      swap1\n      div\n      0xffffffffffffffffffffffffffffffffffffffff\n      and\n        /* \"practise/practise 3.sol\":632:651  bids[highestBidder] */\n      0xffffffffffffffffffffffffffffffffffffffff\n      and\n      0xffffffffffffffffffffffffffffffffffffffff\n      and\n      dup2\n      mstore\n      0x20\n      add\n      swap1\n      dup2\n      mstore\n      0x20\n      add\n      0x00\n      keccak256\n      0x00\n        /* \"practise/practise 3.sol\":632:665  bids[highestBidder] += highestBid */\n      dup3\n      dup3\n      sload\n      tag_42\n      swap2\n      swap1\n      tag_43\n      jump\t// in\n    tag_42:\n      swap3\n      pop\n      pop\n      dup2\n      swap1\n      sstore\n      pop\n        /* \"practise/practise 3.sol\":597:676  if (highestBid != 0) {... */\n    tag_41:\n        /* \"practise/practise 3.sol\":702:712  msg.sender */\n      caller\n        /* \"practise/practise 3.sol\":686:699  highestBidder */\n      0x00\n      dup1\n        /* \"practise/practise 3.sol\":686:712  highestBidder = msg.sender */\n      0x0100\n      exp\n      dup2\n      sload\n      dup2\n      0xffffffffffffffffffffffffffffffffffffffff\n      mul\n      not\n      and\n      swap1\n      dup4\n      0xffffffffffffffffffffffffffffffffffffffff\n      and\n      mul\n      or\n      swap1\n      sstore\n      pop\n        /* \"practise/practise 3.sol\":735:744  msg.value */\n      callvalue\n        /* \"practise/practise 3.sol\":722:732  highestBid */\n      0x01\n        /* \"practise/practise 3.sol\":722:744  highestBid = msg.value */\n      dup2\n      swap1\n      sstore\n      pop\n        /* \"practise/practise 3.sol\":760:801  HighestBidIncrease(msg.sender, msg.value) */\n      0xdfea07ab8527bd08519bfa633240757a7bb0a7f3c7adc98e30604ba73c70f429\n        /* \"practise/practise 3.sol\":779:789  msg.sender */\n      caller\n        /* \"practise/practise 3.sol\":791:800  msg.value */\n      callvalue\n        /* \"practise/practise 3.sol\":760:801  HighestBidIncrease(msg.sender, msg.value) */\n      mload(0x40)\n      tag_44\n      swap3\n      swap2\n      swap1\n      tag_45\n      jump\t// in\n    tag_44:\n      mload(0x40)\n      dup1\n      swap2\n      sub\n      swap1\n      log1\n        /* \"practise/practise 3.sol\":448:808  function bid() external payable {... */\n      jump\t// out\n        /* \"practise/practise 3.sol\":151:190  mapping(address => uint256) public bids */\n    tag_19:\n      mstore(0x20, 0x02)\n      dup1\n      0x00\n      mstore\n      keccak256(0x00, 0x40)\n      0x00\n      swap2\n      pop\n      swap1\n      pop\n      sload\n      dup2\n      jump\t// out\n        /* \"practise/practise 3.sol\":86:114  address public highestBidder */\n    tag_24:\n      0x00\n      dup1\n      sload\n      swap1\n      0x0100\n      exp\n      swap1\n      div\n      0xffffffffffffffffffffffffffffffffffffffff\n      and\n      dup2\n      jump\t// out\n        /* \"practise/practise 3.sol\":120:145  uint256 public highestBid */\n    tag_29:\n      sload(0x01)\n      dup2\n      jump\t// out\n        /* \"practise/practise 3.sol\":814:1113  function endAuction() external {... */\n    tag_33:\n        /* \"practise/practise 3.sol\":864:869  ended */\n      0x03\n      0x00\n      swap1\n      sload\n      swap1\n      0x0100\n      exp\n      swap1\n      div\n      0xff\n      and\n        /* \"practise/practise 3.sol\":863:869  !ended */\n      iszero\n        /* \"practise/practise 3.sol\":855:895  require(!ended, \"Auction already ended\") */\n      tag_47\n      jumpi\n      mload(0x40)\n      0x08c379a000000000000000000000000000000000000000000000000000000000\n      dup2\n      mstore\n      0x04\n      add\n      tag_48\n      swap1\n      tag_49\n      jump\t// in\n    tag_48:\n      mload(0x40)\n      dup1\n      swap2\n      sub\n      swap1\n      revert\n    tag_47:\n        /* \"practise/practise 3.sol\":927:940  highestBidder */\n      0x00\n      dup1\n      sload\n      swap1\n      0x0100\n      exp\n      swap1\n      div\n      0xffffffffffffffffffffffffffffffffffffffff\n      and\n        /* \"practise/practise 3.sol\":913:940  msg.sender == highestBidder */\n      0xffffffffffffffffffffffffffffffffffffffff\n      and\n        /* \"practise/practise 3.sol\":913:923  msg.sender */\n      caller\n        /* \"practise/practise 3.sol\":913:940  msg.sender == highestBidder */\n      0xffffffffffffffffffffffffffffffffffffffff\n      and\n      eq\n        /* \"practise/practise 3.sol\":905:975  require(msg.sender == highestBidder, \"You are not the highest bidder\") */\n      tag_50\n      jumpi\n      mload(0x40)\n      0x08c379a000000000000000000000000000000000000000000000000000000000\n      dup2\n      mstore\n      0x04\n      add\n      tag_51\n      swap1\n      tag_52\n      jump\t// in\n    tag_51:\n      mload(0x40)\n      dup1\n      swap2\n      sub\n      swap1\n      revert\n    tag_50:\n        /* \"practise/practise 3.sol\":994:998  true */\n      0x01\n        /* \"practise/practise 3.sol\":986:991  ended */\n      0x03\n      0x00\n        /* \"practise/practise 3.sol\":986:998  ended = true */\n      0x0100\n      exp\n      dup2\n      sload\n      dup2\n      0xff\n      mul\n      not\n      and\n      swap1\n      dup4\n      iszero\n      iszero\n      mul\n      or\n      swap1\n      sstore\n      pop\n        /* \"practise/practise 3.sol\":1013:1052  AuctionEnded(highestBidder, highestBid) */\n      0xdaec4582d5d9595688c8c98545fdd1c696d41c6aeaeb636737e84ed2f5c00eda\n        /* \"practise/practise 3.sol\":1026:1039  highestBidder */\n      0x00\n      dup1\n      sload\n      swap1\n      0x0100\n      exp\n      swap1\n      div\n      0xffffffffffffffffffffffffffffffffffffffff\n      and\n        /* \"practise/practise 3.sol\":1041:1051  highestBid */\n      sload(0x01)\n        /* \"practise/practise 3.sol\":1013:1052  AuctionEnded(highestBidder, highestBid) */\n      mload(0x40)\n      tag_53\n      swap3\n      swap2\n      swap1\n      tag_45\n      jump\t// in\n    tag_53:\n      mload(0x40)\n      dup1\n      swap2\n      sub\n      swap1\n      log1\n        /* \"practise/practise 3.sol\":1071:1084  highestBidder */\n      0x00\n      dup1\n      sload\n      swap1\n      0x0100\n      exp\n      swap1\n      div\n      0xffffffffffffffffffffffffffffffffffffffff\n      and\n        /* \"practise/practise 3.sol\":1063:1094  payable(highestBidder).transfer */\n      0xffffffffffffffffffffffffffffffffffffffff\n      and\n        /* \"practise/practise 3.sol\":1063:1106  payable(highestBidder).transfer(highestBid) */\n      0x08fc\n        /* \"practise/practise 3.sol\":1095:1105  highestBid */\n      sload(0x01)\n        /* \"practise/practise 3.sol\":1063:1106  payable(highestBidder).transfer(highestBid) */\n      swap1\n      dup2\n      iszero\n      mul\n      swap1\n      mload(0x40)\n      0x00\n      mload(0x40)\n      dup1\n      dup4\n      sub\n      dup2\n      dup6\n      dup9\n      dup9\n      call\n      swap4\n      pop\n      pop\n      pop\n      pop\n      iszero\n      dup1\n      iszero\n      tag_55\n      jumpi\n      returndatasize\n      0x00\n      dup1\n      returndatacopy\n      revert(0x00, returndatasize)\n    tag_55:\n      pop\n        /* \"practise/practise 3.sol\":814:1113  function endAuction() external {... */\n      jump\t// out\n        /* \"#utility.yul\":7:97   */\n    tag_56:\n        /* \"#utility.yul\":41:48   */\n      0x00\n        /* \"#utility.yul\":84:89   */\n      dup2\n        /* \"#utility.yul\":77:90   */\n      iszero\n        /* \"#utility.yul\":70:91   */\n      iszero\n        /* \"#utility.yul\":59:91   */\n      swap1\n      pop\n        /* \"#utility.yul\":7:97   */\n      swap2\n      swap1\n      pop\n      jump\t// out\n        /* \"#utility.yul\":103:212   */\n    tag_57:\n        /* \"#utility.yul\":184:205   */\n      tag_81\n        /* \"#utility.yul\":199:204   */\n      dup2\n        /* \"#utility.yul\":184:205   */\n      tag_56\n      jump\t// in\n    tag_81:\n        /* \"#utility.yul\":179:182   */\n      dup3\n        /* \"#utility.yul\":172:206   */\n      mstore\n        /* \"#utility.yul\":103:212   */\n      pop\n      pop\n      jump\t// out\n        /* \"#utility.yul\":218:428   */\n    tag_12:\n        /* \"#utility.yul\":305:309   */\n      0x00\n        /* \"#utility.yul\":343:345   */\n      0x20\n        /* \"#utility.yul\":332:341   */\n      dup3\n        /* \"#utility.yul\":328:346   */\n      add\n        /* \"#utility.yul\":320:346   */\n      swap1\n      pop\n        /* \"#utility.yul\":356:421   */\n      tag_83\n        /* \"#utility.yul\":418:419   */\n      0x00\n        /* \"#utility.yul\":407:416   */\n      dup4\n        /* \"#utility.yul\":403:420   */\n      add\n        /* \"#utility.yul\":394:400   */\n      dup5\n        /* \"#utility.yul\":356:421   */\n      tag_57\n      jump\t// in\n    tag_83:\n        /* \"#utility.yul\":218:428   */\n      swap3\n      swap2\n      pop\n      pop\n      jump\t// out\n        /* \"#utility.yul\":515:632   */\n    tag_59:\n        /* \"#utility.yul\":624:625   */\n      0x00\n        /* \"#utility.yul\":621:622   */\n      dup1\n        /* \"#utility.yul\":614:626   */\n      revert\n        /* \"#utility.yul\":761:887   */\n    tag_61:\n        /* \"#utility.yul\":798:805   */\n      0x00\n        /* \"#utility.yul\":838:880   */\n      0xffffffffffffffffffffffffffffffffffffffff\n        /* \"#utility.yul\":831:836   */\n      dup3\n        /* \"#utility.yul\":827:881   */\n      and\n        /* \"#utility.yul\":816:881   */\n      swap1\n      pop\n        /* \"#utility.yul\":761:887   */\n      swap2\n      swap1\n      pop\n      jump\t// out\n        /* \"#utility.yul\":893:989   */\n    tag_62:\n        /* \"#utility.yul\":930:937   */\n      0x00\n        /* \"#utility.yul\":959:983   */\n      tag_89\n        /* \"#utility.yul\":977:982   */\n      dup3\n        /* \"#utility.yul\":959:983   */\n      tag_61\n      jump\t// in\n    tag_89:\n        /* \"#utility.yul\":948:983   */\n      swap1\n      pop\n        /* \"#utility.yul\":893:989   */\n      swap2\n      swap1\n      pop\n      jump\t// out\n        /* \"#utility.yul\":995:1117   */\n    tag_63:\n        /* \"#utility.yul\":1068:1092   */\n      tag_91\n        /* \"#utility.yul\":1086:1091   */\n      dup2\n        /* \"#utility.yul\":1068:1092   */\n      tag_62\n      jump\t// in\n    tag_91:\n        /* \"#utility.yul\":1061:1066   */\n      dup2\n        /* \"#utility.yul\":1058:1093   */\n      eq\n        /* \"#utility.yul\":1048:1111   */\n      tag_92\n      jumpi\n        /* \"#utility.yul\":1107:1108   */\n      0x00\n        /* \"#utility.yul\":1104:1105   */\n      dup1\n        /* \"#utility.yul\":1097:1109   */\n      revert\n        /* \"#utility.yul\":1048:1111   */\n    tag_92:\n        /* \"#utility.yul\":995:1117   */\n      pop\n      jump\t// out\n        /* \"#utility.yul\":1123:1262   */\n    tag_64:\n        /* \"#utility.yul\":1169:1174   */\n      0x00\n        /* \"#utility.yul\":1207:1213   */\n      dup2\n        /* \"#utility.yul\":1194:1214   */\n      calldataload\n        /* \"#utility.yul\":1185:1214   */\n      swap1\n      pop\n        /* \"#utility.yul\":1223:1256   */\n      tag_94\n        /* \"#utility.yul\":1250:1255   */\n      dup2\n        /* \"#utility.yul\":1223:1256   */\n      tag_63\n      jump\t// in\n    tag_94:\n        /* \"#utility.yul\":1123:1262   */\n      swap3\n      swap2\n      pop\n      pop\n      jump\t// out\n        /* \"#utility.yul\":1268:1597   */\n    tag_18:\n        /* \"#utility.yul\":1327:1333   */\n      0x00\n        /* \"#utility.yul\":1376:1378   */\n      0x20\n        /* \"#utility.yul\":1364:1373   */\n      dup3\n        /* \"#utility.yul\":1355:1362   */\n      dup5\n        /* \"#utility.yul\":1351:1374   */\n      sub\n        /* \"#utility.yul\":1347:1379   */\n      slt\n        /* \"#utility.yul\":1344:1463   */\n      iszero\n      tag_96\n      jumpi\n        /* \"#utility.yul\":1382:1461   */\n      tag_97\n      tag_59\n      jump\t// in\n    tag_97:\n        /* \"#utility.yul\":1344:1463   */\n    tag_96:\n        /* \"#utility.yul\":1502:1503   */\n      0x00\n        /* \"#utility.yul\":1527:1580   */\n      tag_98\n        /* \"#utility.yul\":1572:1579   */\n      dup5\n        /* \"#utility.yul\":1563:1569   */\n      dup3\n        /* \"#utility.yul\":1552:1561   */\n      dup6\n        /* \"#utility.yul\":1548:1570   */\n      add\n        /* \"#utility.yul\":1527:1580   */\n      tag_64\n      jump\t// in\n    tag_98:\n        /* \"#utility.yul\":1517:1580   */\n      swap2\n      pop\n        /* \"#utility.yul\":1473:1590   */\n      pop\n        /* \"#utility.yul\":1268:1597   */\n      swap3\n      swap2\n      pop\n      pop\n      jump\t// out\n        /* \"#utility.yul\":1603:1680   */\n    tag_65:\n        /* \"#utility.yul\":1640:1647   */\n      0x00\n        /* \"#utility.yul\":1669:1674   */\n      dup2\n        /* \"#utility.yul\":1658:1674   */\n      swap1\n      pop\n        /* \"#utility.yul\":1603:1680   */\n      swap2\n      swap1\n      pop\n      jump\t// out\n        /* \"#utility.yul\":1686:1804   */\n    tag_66:\n        /* \"#utility.yul\":1773:1797   */\n      tag_101\n        /* \"#utility.yul\":1791:1796   */\n      dup2\n        /* \"#utility.yul\":1773:1797   */\n      tag_65\n      jump\t// in\n    tag_101:\n        /* \"#utility.yul\":1768:1771   */\n      dup3\n        /* \"#utility.yul\":1761:1798   */\n      mstore\n        /* \"#utility.yul\":1686:1804   */\n      pop\n      pop\n      jump\t// out\n        /* \"#utility.yul\":1810:2032   */\n    tag_21:\n        /* \"#utility.yul\":1903:1907   */\n      0x00\n        /* \"#utility.yul\":1941:1943   */\n      0x20\n        /* \"#utility.yul\":1930:1939   */\n      dup3\n        /* \"#utility.yul\":1926:1944   */\n      add\n        /* \"#utility.yul\":1918:1944   */\n      swap1\n      pop\n        /* \"#utility.yul\":1954:2025   */\n      tag_103\n        /* \"#utility.yul\":2022:2023   */\n      0x00\n        /* \"#utility.yul\":2011:2020   */\n      dup4\n        /* \"#utility.yul\":2007:2024   */\n      add\n        /* \"#utility.yul\":1998:2004   */\n      dup5\n        /* \"#utility.yul\":1954:2025   */\n      tag_66\n      jump\t// in\n    tag_103:\n        /* \"#utility.yul\":1810:2032   */\n      swap3\n      swap2\n      pop\n      pop\n      jump\t// out\n        /* \"#utility.yul\":2038:2156   */\n    tag_67:\n        /* \"#utility.yul\":2125:2149   */\n      tag_105\n        /* \"#utility.yul\":2143:2148   */\n      dup2\n        /* \"#utility.yul\":2125:2149   */\n      tag_62\n      jump\t// in\n    tag_105:\n        /* \"#utility.yul\":2120:2123   */\n      dup3\n        /* \"#utility.yul\":2113:2150   */\n      mstore\n        /* \"#utility.yul\":2038:2156   */\n      pop\n      pop\n      jump\t// out\n        /* \"#utility.yul\":2162:2384   */\n    tag_26:\n        /* \"#utility.yul\":2255:2259   */\n      0x00\n        /* \"#utility.yul\":2293:2295   */\n      0x20\n        /* \"#utility.yul\":2282:2291   */\n      dup3\n        /* \"#utility.yul\":2278:2296   */\n      add\n        /* \"#utility.yul\":2270:2296   */\n      swap1\n      pop\n        /* \"#utility.yul\":2306:2377   */\n      tag_107\n        /* \"#utility.yul\":2374:2375   */\n      0x00\n        /* \"#utility.yul\":2363:2372   */\n      dup4\n        /* \"#utility.yul\":2359:2376   */\n      add\n        /* \"#utility.yul\":2350:2356   */\n      dup5\n        /* \"#utility.yul\":2306:2377   */\n      tag_67\n      jump\t// in\n    tag_107:\n        /* \"#utility.yul\":2162:2384   */\n      swap3\n      swap2\n      pop\n      pop\n      jump\t// out\n        /* \"#utility.yul\":2390:2559   */\n    tag_68:\n        /* \"#utility.yul\":2474:2485   */\n      0x00\n        /* \"#utility.yul\":2508:2514   */\n      dup3\n        /* \"#utility.yul\":2503:2506   */\n      dup3\n        /* \"#utility.yul\":2496:2515   */\n      mstore\n        /* \"#utility.yul\":2548:2552   */\n      0x20\n        /* \"#utility.yul\":2543:2546   */\n      dup3\n        /* \"#utility.yul\":2539:2553   */\n      add\n        /* \"#utility.yul\":2524:2553   */\n      swap1\n      pop\n        /* \"#utility.yul\":2390:2559   */\n      swap3\n      swap2\n      pop\n      pop\n      jump\t// out\n        /* \"#utility.yul\":2565:2728   */\n    tag_69:\n        /* \"#utility.yul\":2705:2720   */\n      0x41756374696f6e20656e64656400000000000000000000000000000000000000\n        /* \"#utility.yul\":2701:2702   */\n      0x00\n        /* \"#utility.yul\":2693:2699   */\n      dup3\n        /* \"#utility.yul\":2689:2703   */\n      add\n        /* \"#utility.yul\":2682:2721   */\n      mstore\n        /* \"#utility.yul\":2565:2728   */\n      pop\n      jump\t// out\n        /* \"#utility.yul\":2734:3100   */\n    tag_70:\n        /* \"#utility.yul\":2876:2879   */\n      0x00\n        /* \"#utility.yul\":2897:2964   */\n      tag_111\n        /* \"#utility.yul\":2961:2963   */\n      0x0d\n        /* \"#utility.yul\":2956:2959   */\n      dup4\n        /* \"#utility.yul\":2897:2964   */\n      tag_68\n      jump\t// in\n    tag_111:\n        /* \"#utility.yul\":2890:2964   */\n      swap2\n      pop\n        /* \"#utility.yul\":2973:3066   */\n      tag_112\n        /* \"#utility.yul\":3062:3065   */\n      dup3\n        /* \"#utility.yul\":2973:3066   */\n      tag_69\n      jump\t// in\n    tag_112:\n        /* \"#utility.yul\":3091:3093   */\n      0x20\n        /* \"#utility.yul\":3086:3089   */\n      dup3\n        /* \"#utility.yul\":3082:3094   */\n      add\n        /* \"#utility.yul\":3075:3094   */\n      swap1\n      pop\n        /* \"#utility.yul\":2734:3100   */\n      swap2\n      swap1\n      pop\n      jump\t// out\n        /* \"#utility.yul\":3106:3525   */\n    tag_37:\n        /* \"#utility.yul\":3272:3276   */\n      0x00\n        /* \"#utility.yul\":3310:3312   */\n      0x20\n        /* \"#utility.yul\":3299:3308   */\n      dup3\n        /* \"#utility.yul\":3295:3313   */\n      add\n        /* \"#utility.yul\":3287:3313   */\n      swap1\n      pop\n        /* \"#utility.yul\":3359:3368   */\n      dup2\n        /* \"#utility.yul\":3353:3357   */\n      dup2\n        /* \"#utility.yul\":3349:3369   */\n      sub\n        /* \"#utility.yul\":3345:3346   */\n      0x00\n        /* \"#utility.yul\":3334:3343   */\n      dup4\n        /* \"#utility.yul\":3330:3347   */\n      add\n        /* \"#utility.yul\":3323:3370   */\n      mstore\n        /* \"#utility.yul\":3387:3518   */\n      tag_114\n        /* \"#utility.yul\":3513:3517   */\n      dup2\n        /* \"#utility.yul\":3387:3518   */\n      tag_70\n      jump\t// in\n    tag_114:\n        /* \"#utility.yul\":3379:3518   */\n      swap1\n      pop\n        /* \"#utility.yul\":3106:3525   */\n      swap2\n      swap1\n      pop\n      jump\t// out\n        /* \"#utility.yul\":3531:3700   */\n    tag_71:\n        /* \"#utility.yul\":3671:3692   */\n      0x426964206e6f74206869676820656e6f75676800000000000000000000000000\n        /* \"#utility.yul\":3667:3668   */\n      0x00\n        /* \"#utility.yul\":3659:3665   */\n      dup3\n        /* \"#utility.yul\":3655:3669   */\n      add\n        /* \"#utility.yul\":3648:3693   */\n      mstore\n        /* \"#utility.yul\":3531:3700   */\n      pop\n      jump\t// out\n        /* \"#utility.yul\":3706:4072   */\n    tag_72:\n        /* \"#utility.yul\":3848:3851   */\n      0x00\n        /* \"#utility.yul\":3869:3936   */\n      tag_117\n        /* \"#utility.yul\":3933:3935   */\n      0x13\n        /* \"#utility.yul\":3928:3931   */\n      dup4\n        /* \"#utility.yul\":3869:3936   */\n      tag_68\n      jump\t// in\n    tag_117:\n        /* \"#utility.yul\":3862:3936   */\n      swap2\n      pop\n        /* \"#utility.yul\":3945:4038   */\n      tag_118\n        /* \"#utility.yul\":4034:4037   */\n      dup3\n        /* \"#utility.yul\":3945:4038   */\n      tag_71\n      jump\t// in\n    tag_118:\n        /* \"#utility.yul\":4063:4065   */\n      0x20\n        /* \"#utility.yul\":4058:4061   */\n      dup3\n        /* \"#utility.yul\":4054:4066   */\n      add\n        /* \"#utility.yul\":4047:4066   */\n      swap1\n      pop\n        /* \"#utility.yul\":3706:4072   */\n      swap2\n      swap1\n      pop\n      jump\t// out\n        /* \"#utility.yul\":4078:4497   */\n    tag_40:\n        /* \"#utility.yul\":4244:4248   */\n      0x00\n        /* \"#utility.yul\":4282:4284   */\n      0x20\n        /* \"#utility.yul\":4271:4280   */\n      dup3\n        /* \"#utility.yul\":4267:4285   */\n      add\n        /* \"#utility.yul\":4259:4285   */\n      swap1\n      pop\n        /* \"#utility.yul\":4331:4340   */\n      dup2\n        /* \"#utility.yul\":4325:4329   */\n      dup2\n        /* \"#utility.yul\":4321:4341   */\n      sub\n        /* \"#utility.yul\":4317:4318   */\n      0x00\n        /* \"#utility.yul\":4306:4315   */\n      dup4\n        /* \"#utility.yul\":4302:4319   */\n      add\n        /* \"#utility.yul\":4295:4342   */\n      mstore\n        /* \"#utility.yul\":4359:4490   */\n      tag_120\n        /* \"#utility.yul\":4485:4489   */\n      dup2\n        /* \"#utility.yul\":4359:4490   */\n      tag_72\n      jump\t// in\n    tag_120:\n        /* \"#utility.yul\":4351:4490   */\n      swap1\n      pop\n        /* \"#utility.yul\":4078:4497   */\n      swap2\n      swap1\n      pop\n      jump\t// out\n        /* \"#utility.yul\":4503:4683   */\n    tag_73:\n        /* \"#utility.yul\":4551:4628   */\n      0x4e487b7100000000000000000000000000000000000000000000000000000000\n        /* \"#utility.yul\":4548:4549   */\n      0x00\n        /* \"#utility.yul\":4541:4629   */\n      mstore\n        /* \"#utility.yul\":4648:4652   */\n      0x11\n        /* \"#utility.yul\":4645:4646   */\n      0x04\n        /* \"#utility.yul\":4638:4653   */\n      mstore\n        /* \"#utility.yul\":4672:4676   */\n      0x24\n        /* \"#utility.yul\":4669:4670   */\n      0x00\n        /* \"#utility.yul\":4662:4677   */\n      revert\n        /* \"#utility.yul\":4689:4880   */\n    tag_43:\n        /* \"#utility.yul\":4729:4732   */\n      0x00\n        /* \"#utility.yul\":4748:4768   */\n      tag_123\n        /* \"#utility.yul\":4766:4767   */\n      dup3\n        /* \"#utility.yul\":4748:4768   */\n      tag_65\n      jump\t// in\n    tag_123:\n        /* \"#utility.yul\":4743:4768   */\n      swap2\n      pop\n        /* \"#utility.yul\":4782:4802   */\n      tag_124\n        /* \"#utility.yul\":4800:4801   */\n      dup4\n        /* \"#utility.yul\":4782:4802   */\n      tag_65\n      jump\t// in\n    tag_124:\n        /* \"#utility.yul\":4777:4802   */\n      swap3\n      pop\n        /* \"#utility.yul\":4825:4826   */\n      dup3\n        /* \"#utility.yul\":4822:4823   */\n      dup3\n        /* \"#utility.yul\":4818:4827   */\n      add\n        /* \"#utility.yul\":4811:4827   */\n      swap1\n      pop\n        /* \"#utility.yul\":4846:4849   */\n      dup1\n        /* \"#utility.yul\":4843:4844   */\n      dup3\n        /* \"#utility.yul\":4840:4850   */\n      gt\n        /* \"#utility.yul\":4837:4873   */\n      iszero\n      tag_125\n      jumpi\n        /* \"#utility.yul\":4853:4871   */\n      tag_126\n      tag_73\n      jump\t// in\n    tag_126:\n        /* \"#utility.yul\":4837:4873   */\n    tag_125:\n        /* \"#utility.yul\":4689:4880   */\n      swap3\n      swap2\n      pop\n      pop\n      jump\t// out\n        /* \"#utility.yul\":4886:5218   */\n    tag_45:\n        /* \"#utility.yul\":5007:5011   */\n      0x00\n        /* \"#utility.yul\":5045:5047   */\n      0x40\n        /* \"#utility.yul\":5034:5043   */\n      dup3\n        /* \"#utility.yul\":5030:5048   */\n      add\n        /* \"#utility.yul\":5022:5048   */\n      swap1\n      pop\n        /* \"#utility.yul\":5058:5129   */\n      tag_128\n        /* \"#utility.yul\":5126:5127   */\n      0x00\n        /* \"#utility.yul\":5115:5124   */\n      dup4\n        /* \"#utility.yul\":5111:5128   */\n      add\n        /* \"#utility.yul\":5102:5108   */\n      dup6\n        /* \"#utility.yul\":5058:5129   */\n      tag_67\n      jump\t// in\n    tag_128:\n        /* \"#utility.yul\":5139:5211   */\n      tag_129\n        /* \"#utility.yul\":5207:5209   */\n      0x20\n        /* \"#utility.yul\":5196:5205   */\n      dup4\n        /* \"#utility.yul\":5192:5210   */\n      add\n        /* \"#utility.yul\":5183:5189   */\n      dup5\n        /* \"#utility.yul\":5139:5211   */\n      tag_66\n      jump\t// in\n    tag_129:\n        /* \"#utility.yul\":4886:5218   */\n      swap4\n      swap3\n      pop\n      pop\n      pop\n      jump\t// out\n        /* \"#utility.yul\":5224:5395   */\n    tag_74:\n        /* \"#utility.yul\":5364:5387   */\n      0x41756374696f6e20616c726561647920656e6465640000000000000000000000\n        /* \"#utility.yul\":5360:5361   */\n      0x00\n        /* \"#utility.yul\":5352:5358   */\n      dup3\n        /* \"#utility.yul\":5348:5362   */\n      add\n        /* \"#utility.yul\":5341:5388   */\n      mstore\n        /* \"#utility.yul\":5224:5395   */\n      pop\n      jump\t// out\n        /* \"#utility.yul\":5401:5767   */\n    tag_75:\n        /* \"#utility.yul\":5543:5546   */\n      0x00\n        /* \"#utility.yul\":5564:5631   */\n      tag_132\n        /* \"#utility.yul\":5628:5630   */\n      0x15\n        /* \"#utility.yul\":5623:5626   */\n      dup4\n        /* \"#utility.yul\":5564:5631   */\n      tag_68\n      jump\t// in\n    tag_132:\n        /* \"#utility.yul\":5557:5631   */\n      swap2\n      pop\n        /* \"#utility.yul\":5640:5733   */\n      tag_133\n        /* \"#utility.yul\":5729:5732   */\n      dup3\n        /* \"#utility.yul\":5640:5733   */\n      tag_74\n      jump\t// in\n    tag_133:\n        /* \"#utility.yul\":5758:5760   */\n      0x20\n        /* \"#utility.yul\":5753:5756   */\n      dup3\n        /* \"#utility.yul\":5749:5761   */\n      add\n        /* \"#utility.yul\":5742:5761   */\n      swap1\n      pop\n        /* \"#utility.yul\":5401:5767   */\n      swap2\n      swap1\n      pop\n      jump\t// out\n        /* \"#utility.yul\":5773:6192   */\n    tag_49:\n        /* \"#utility.yul\":5939:5943   */\n      0x00\n        /* \"#utility.yul\":5977:5979   */\n      0x20\n        /* \"#utility.yul\":5966:5975   */\n      dup3\n        /* \"#utility.yul\":5962:5980   */\n      add\n        /* \"#utility.yul\":5954:5980   */\n      swap1\n      pop\n        /* \"#utility.yul\":6026:6035   */\n      dup2\n        /* \"#utility.yul\":6020:6024   */\n      dup2\n        /* \"#utility.yul\":6016:6036   */\n      sub\n        /* \"#utility.yul\":6012:6013   */\n      0x00\n        /* \"#utility.yul\":6001:6010   */\n      dup4\n        /* \"#utility.yul\":5997:6014   */\n      add\n        /* \"#utility.yul\":5990:6037   */\n      mstore\n        /* \"#utility.yul\":6054:6185   */\n      tag_135\n        /* \"#utility.yul\":6180:6184   */\n      dup2\n        /* \"#utility.yul\":6054:6185   */\n      tag_75\n      jump\t// in\n    tag_135:\n        /* \"#utility.yul\":6046:6185   */\n      swap1\n      pop\n        /* \"#utility.yul\":5773:6192   */\n      swap2\n      swap1\n      pop\n      jump\t// out\n        /* \"#utility.yul\":6198:6378   */\n    tag_76:\n        /* \"#utility.yul\":6338:6370   */\n      0x596f7520617265206e6f74207468652068696768657374206269646465720000\n        /* \"#utility.yul\":6334:6335   */\n      0x00\n        /* \"#utility.yul\":6326:6332   */\n      dup3\n        /* \"#utility.yul\":6322:6336   */\n      add\n        /* \"#utility.yul\":6315:6371   */\n      mstore\n        /* \"#utility.yul\":6198:6378   */\n      pop\n      jump\t// out\n        /* \"#utility.yul\":6384:6750   */\n    tag_77:\n        /* \"#utility.yul\":6526:6529   */\n      0x00\n        /* \"#utility.yul\":6547:6614   */\n      tag_138\n        /* \"#utility.yul\":6611:6613   */\n      0x1e\n        /* \"#utility.yul\":6606:6609   */\n      dup4\n        /* \"#utility.yul\":6547:6614   */\n      tag_68\n      jump\t// in\n    tag_138:\n        /* \"#utility.yul\":6540:6614   */\n      swap2\n      pop\n        /* \"#utility.yul\":6623:6716   */\n      tag_139\n        /* \"#utility.yul\":6712:6715   */\n      dup3\n        /* \"#utility.yul\":6623:6716   */\n      tag_76\n      jump\t// in\n    tag_139:\n        /* \"#utility.yul\":6741:6743   */\n      0x20\n        /* \"#utility.yul\":6736:6739   */\n      dup3\n        /* \"#utility.yul\":6732:6744   */\n      add\n        /* \"#utility.yul\":6725:6744   */\n      swap1\n      pop\n        /* \"#utility.yul\":6384:6750   */\n      swap2\n      swap1\n      pop\n      jump\t// out\n        /* \"#utility.yul\":6756:7175   */\n    tag_52:\n        /* \"#utility.yul\":6922:6926   */\n      0x00\n        /* \"#utility.yul\":6960:6962   */\n      0x20\n        /* \"#utility.yul\":6949:6958   */\n      dup3\n        /* \"#utility.yul\":6945:6963   */\n      add\n        /* \"#utility.yul\":6937:6963   */\n      swap1\n      pop\n        /* \"#utility.yul\":7009:7018   */\n      dup2\n        /* \"#utility.yul\":7003:7007   */\n      dup2\n        /* \"#utility.yul\":6999:7019   */\n      sub\n        /* \"#utility.yul\":6995:6996   */\n      0x00\n        /* \"#utility.yul\":6984:6993   */\n      dup4\n        /* \"#utility.yul\":6980:6997   */\n      add\n        /* \"#utility.yul\":6973:7020   */\n      mstore\n        /* \"#utility.yul\":7037:7168   */\n      tag_141\n        /* \"#utility.yul\":7163:7167   */\n      dup2\n        /* \"#utility.yul\":7037:7168   */\n      tag_77\n      jump\t// in\n    tag_141:\n        /* \"#utility.yul\":7029:7168   */\n      swap1\n      pop\n        /* \"#utility.yul\":6756:7175   */\n      swap2\n      swap1\n      pop\n      jump\t// out\n\n    auxdata: 0xa2646970667358221220cace24b10eeda2f97669ba3b9b1185207d52709a63c714adb33282dc6c38ef7d64736f6c63430008190033\n}\n",
				"bytecode": {
					"linkReferences": {},
					"object": "6080604052348015600e575f80fd5b50335f806101000a81548173ffffffffffffffffffffffffffffffffffffffff021916908373ffffffffffffffffffffffffffffffffffffffff1602179055505f6001819055505f60035f6101000a81548160ff02191690831515021790555061084e8061007b5f395ff3fe608060405260043610610054575f3560e01c806312fa6feb146100585780631998aeef1461008257806362ea82db1461008c57806391f90157146100c8578063d57bde79146100f2578063fe67a54b1461011c575b5f80fd5b348015610063575f80fd5b5061006c610132565b60405161007991906104e6565b60405180910390f35b61008a610144565b005b348015610097575f80fd5b506100b260048036038101906100ad919061055d565b6102d7565b6040516100bf91906105a0565b60405180910390f35b3480156100d3575f80fd5b506100dc6102ec565b6040516100e991906105c8565b60405180910390f35b3480156100fd575f80fd5b5061010661030f565b60405161011391906105a0565b60405180910390f35b348015610127575f80fd5b50610130610315565b005b60035f9054906101000a900460ff1681565b60035f9054906101000a900460ff1615610193576040517f08c379a000000000000000000000000000000000000000000000000000000000815260040161018a9061063b565b60405180910390fd5b60015434116101d7576040517f08c379a00000000000000000000000000000000000000000000000000000000081526004016101ce906106a3565b60405180910390fd5b5f600154146102565760015460025f805f9054906101000a900473ffffffffffffffffffffffffffffffffffffffff1673ffffffffffffffffffffffffffffffffffffffff1673ffffffffffffffffffffffffffffffffffffffff1681526020019081526020015f205f82825461024e91906106ee565b925050819055505b335f806101000a81548173ffffffffffffffffffffffffffffffffffffffff021916908373ffffffffffffffffffffffffffffffffffffffff160217905550346001819055507fdfea07ab8527bd08519bfa633240757a7bb0a7f3c7adc98e30604ba73c70f42933346040516102cd929190610721565b60405180910390a1565b6002602052805f5260405f205f915090505481565b5f8054906101000a900473ffffffffffffffffffffffffffffffffffffffff1681565b60015481565b60035f9054906101000a900460ff1615610364576040517f08c379a000000000000000000000000000000000000000000000000000000000815260040161035b90610792565b60405180910390fd5b5f8054906101000a900473ffffffffffffffffffffffffffffffffffffffff1673ffffffffffffffffffffffffffffffffffffffff163373ffffffffffffffffffffffffffffffffffffffff16146103f1576040517f08c379a00000000000000000000000000000000000000000000000000000000081526004016103e8906107fa565b60405180910390fd5b600160035f6101000a81548160ff0219169083151502179055507fdaec4582d5d9595688c8c98545fdd1c696d41c6aeaeb636737e84ed2f5c00eda5f8054906101000a900473ffffffffffffffffffffffffffffffffffffffff1660015460405161045d929190610721565b60405180910390a15f8054906101000a900473ffffffffffffffffffffffffffffffffffffffff1673ffffffffffffffffffffffffffffffffffffffff166108fc60015490811502906040515f60405180830381858888f193505050501580156104c9573d5f803e3d5ffd5b50565b5f8115159050919050565b6104e0816104cc565b82525050565b5f6020820190506104f95f8301846104d7565b92915050565b5f80fd5b5f73ffffffffffffffffffffffffffffffffffffffff82169050919050565b5f61052c82610503565b9050919050565b61053c81610522565b8114610546575f80fd5b50565b5f8135905061055781610533565b92915050565b5f60208284031215610572576105716104ff565b5b5f61057f84828501610549565b91505092915050565b5f819050919050565b61059a81610588565b82525050565b5f6020820190506105b35f830184610591565b92915050565b6105c281610522565b82525050565b5f6020820190506105db5f8301846105b9565b92915050565b5f82825260208201905092915050565b7f41756374696f6e20656e646564000000000000000000000000000000000000005f82015250565b5f610625600d836105e1565b9150610630826105f1565b602082019050919050565b5f6020820190508181035f83015261065281610619565b9050919050565b7f426964206e6f74206869676820656e6f756768000000000000000000000000005f82015250565b5f61068d6013836105e1565b915061069882610659565b602082019050919050565b5f6020820190508181035f8301526106ba81610681565b9050919050565b7f4e487b71000000000000000000000000000000000000000000000000000000005f52601160045260245ffd5b5f6106f882610588565b915061070383610588565b925082820190508082111561071b5761071a6106c1565b5b92915050565b5f6040820190506107345f8301856105b9565b6107416020830184610591565b9392505050565b7f41756374696f6e20616c726561647920656e64656400000000000000000000005f82015250565b5f61077c6015836105e1565b915061078782610748565b602082019050919050565b5f6020820190508181035f8301526107a981610770565b9050919050565b7f596f7520617265206e6f742074686520686967686573742062696464657200005f82015250565b5f6107e4601e836105e1565b91506107ef826107b0565b602082019050919050565b5f6020820190508181035f830152610811816107d8565b905091905056fea2646970667358221220cace24b10eeda2f97669ba3b9b1185207d52709a63c714adb33282dc6c38ef7d64736f6c63430008190033",
					"opcodes": "PUSH1 0x80 PUSH1 0x40 MSTORE CALLVALUE DUP1 ISZERO PUSH1 0xE JUMPI PUSH0 DUP1 REVERT JUMPDEST POP CALLER PUSH0 DUP1 PUSH2 0x100 EXP DUP2 SLOAD DUP2 PUSH20 0xFFFFFFFFFFFFFFFFFFFFFFFFFFFFFFFFFFFFFFFF MUL NOT AND SWAP1 DUP4 PUSH20 0xFFFFFFFFFFFFFFFFFFFFFFFFFFFFFFFFFFFFFFFF AND MUL OR SWAP1 SSTORE POP PUSH0 PUSH1 0x1 DUP2 SWAP1 SSTORE POP PUSH0 PUSH1 0x3 PUSH0 PUSH2 0x100 EXP DUP2 SLOAD DUP2 PUSH1 0xFF MUL NOT AND SWAP1 DUP4 ISZERO ISZERO MUL OR SWAP1 SSTORE POP PUSH2 0x84E DUP1 PUSH2 0x7B PUSH0 CODECOPY PUSH0 RETURN INVALID PUSH1 0x80 PUSH1 0x40 MSTORE PUSH1 0x4 CALLDATASIZE LT PUSH2 0x54 JUMPI PUSH0 CALLDATALOAD PUSH1 0xE0 SHR DUP1 PUSH4 0x12FA6FEB EQ PUSH2 0x58 JUMPI DUP1 PUSH4 0x1998AEEF EQ PUSH2 0x82 JUMPI DUP1 PUSH4 0x62EA82DB EQ PUSH2 0x8C JUMPI DUP1 PUSH4 0x91F90157 EQ PUSH2 0xC8 JUMPI DUP1 PUSH4 0xD57BDE79 EQ PUSH2 0xF2 JUMPI DUP1 PUSH4 0xFE67A54B EQ PUSH2 0x11C JUMPI JUMPDEST PUSH0 DUP1 REVERT JUMPDEST CALLVALUE DUP1 ISZERO PUSH2 0x63 JUMPI PUSH0 DUP1 REVERT JUMPDEST POP PUSH2 0x6C PUSH2 0x132 JUMP JUMPDEST PUSH1 0x40 MLOAD PUSH2 0x79 SWAP2 SWAP1 PUSH2 0x4E6 JUMP JUMPDEST PUSH1 0x40 MLOAD DUP1 SWAP2 SUB SWAP1 RETURN JUMPDEST PUSH2 0x8A PUSH2 0x144 JUMP JUMPDEST STOP JUMPDEST CALLVALUE DUP1 ISZERO PUSH2 0x97 JUMPI PUSH0 DUP1 REVERT JUMPDEST POP PUSH2 0xB2 PUSH1 0x4 DUP1 CALLDATASIZE SUB DUP2 ADD SWAP1 PUSH2 0xAD SWAP2 SWAP1 PUSH2 0x55D JUMP JUMPDEST PUSH2 0x2D7 JUMP JUMPDEST PUSH1 0x40 MLOAD PUSH2 0xBF SWAP2 SWAP1 PUSH2 0x5A0 JUMP JUMPDEST PUSH1 0x40 MLOAD DUP1 SWAP2 SUB SWAP1 RETURN JUMPDEST CALLVALUE DUP1 ISZERO PUSH2 0xD3 JUMPI PUSH0 DUP1 REVERT JUMPDEST POP PUSH2 0xDC PUSH2 0x2EC JUMP JUMPDEST PUSH1 0x40 MLOAD PUSH2 0xE9 SWAP2 SWAP1 PUSH2 0x5C8 JUMP JUMPDEST PUSH1 0x40 MLOAD DUP1 SWAP2 SUB SWAP1 RETURN JUMPDEST CALLVALUE DUP1 ISZERO PUSH2 0xFD JUMPI PUSH0 DUP1 REVERT JUMPDEST POP PUSH2 0x106 PUSH2 0x30F JUMP JUMPDEST PUSH1 0x40 MLOAD PUSH2 0x113 SWAP2 SWAP1 PUSH2 0x5A0 JUMP JUMPDEST PUSH1 0x40 MLOAD DUP1 SWAP2 SUB SWAP1 RETURN JUMPDEST CALLVALUE DUP1 ISZERO PUSH2 0x127 JUMPI PUSH0 DUP1 REVERT JUMPDEST POP PUSH2 0x130 PUSH2 0x315 JUMP JUMPDEST STOP JUMPDEST PUSH1 0x3 PUSH0 SWAP1 SLOAD SWAP1 PUSH2 0x100 EXP SWAP1 DIV PUSH1 0xFF AND DUP2 JUMP JUMPDEST PUSH1 0x3 PUSH0 SWAP1 SLOAD SWAP1 PUSH2 0x100 EXP SWAP1 DIV PUSH1 0xFF AND ISZERO PUSH2 0x193 JUMPI PUSH1 0x40 MLOAD PUSH32 0x8C379A000000000000000000000000000000000000000000000000000000000 DUP2 MSTORE PUSH1 0x4 ADD PUSH2 0x18A SWAP1 PUSH2 0x63B JUMP JUMPDEST PUSH1 0x40 MLOAD DUP1 SWAP2 SUB SWAP1 REVERT JUMPDEST PUSH1 0x1 SLOAD CALLVALUE GT PUSH2 0x1D7 JUMPI PUSH1 0x40 MLOAD PUSH32 0x8C379A000000000000000000000000000000000000000000000000000000000 DUP2 MSTORE PUSH1 0x4 ADD PUSH2 0x1CE SWAP1 PUSH2 0x6A3 JUMP JUMPDEST PUSH1 0x40 MLOAD DUP1 SWAP2 SUB SWAP1 REVERT JUMPDEST PUSH0 PUSH1 0x1 SLOAD EQ PUSH2 0x256 JUMPI PUSH1 0x1 SLOAD PUSH1 0x2 PUSH0 DUP1 PUSH0 SWAP1 SLOAD SWAP1 PUSH2 0x100 EXP SWAP1 DIV PUSH20 0xFFFFFFFFFFFFFFFFFFFFFFFFFFFFFFFFFFFFFFFF AND PUSH20 0xFFFFFFFFFFFFFFFFFFFFFFFFFFFFFFFFFFFFFFFF AND PUSH20 0xFFFFFFFFFFFFFFFFFFFFFFFFFFFFFFFFFFFFFFFF AND DUP2 MSTORE PUSH1 0x20 ADD SWAP1 DUP2 MSTORE PUSH1 0x20 ADD PUSH0 KECCAK256 PUSH0 DUP3 DUP3 SLOAD PUSH2 0x24E SWAP2 SWAP1 PUSH2 0x6EE JUMP JUMPDEST SWAP3 POP POP DUP2 SWAP1 SSTORE POP JUMPDEST CALLER PUSH0 DUP1 PUSH2 0x100 EXP DUP2 SLOAD DUP2 PUSH20 0xFFFFFFFFFFFFFFFFFFFFFFFFFFFFFFFFFFFFFFFF MUL NOT AND SWAP1 DUP4 PUSH20 0xFFFFFFFFFFFFFFFFFFFFFFFFFFFFFFFFFFFFFFFF AND MUL OR SWAP1 SSTORE POP CALLVALUE PUSH1 0x1 DUP2 SWAP1 SSTORE POP PUSH32 0xDFEA07AB8527BD08519BFA633240757A7BB0A7F3C7ADC98E30604BA73C70F429 CALLER CALLVALUE PUSH1 0x40 MLOAD PUSH2 0x2CD SWAP3 SWAP2 SWAP1 PUSH2 0x721 JUMP JUMPDEST PUSH1 0x40 MLOAD DUP1 SWAP2 SUB SWAP1 LOG1 JUMP JUMPDEST PUSH1 0x2 PUSH1 0x20 MSTORE DUP1 PUSH0 MSTORE PUSH1 0x40 PUSH0 KECCAK256 PUSH0 SWAP2 POP SWAP1 POP SLOAD DUP2 JUMP JUMPDEST PUSH0 DUP1 SLOAD SWAP1 PUSH2 0x100 EXP SWAP1 DIV PUSH20 0xFFFFFFFFFFFFFFFFFFFFFFFFFFFFFFFFFFFFFFFF AND DUP2 JUMP JUMPDEST PUSH1 0x1 SLOAD DUP2 JUMP JUMPDEST PUSH1 0x3 PUSH0 SWAP1 SLOAD SWAP1 PUSH2 0x100 EXP SWAP1 DIV PUSH1 0xFF AND ISZERO PUSH2 0x364 JUMPI PUSH1 0x40 MLOAD PUSH32 0x8C379A000000000000000000000000000000000000000000000000000000000 DUP2 MSTORE PUSH1 0x4 ADD PUSH2 0x35B SWAP1 PUSH2 0x792 JUMP JUMPDEST PUSH1 0x40 MLOAD DUP1 SWAP2 SUB SWAP1 REVERT JUMPDEST PUSH0 DUP1 SLOAD SWAP1 PUSH2 0x100 EXP SWAP1 DIV PUSH20 0xFFFFFFFFFFFFFFFFFFFFFFFFFFFFFFFFFFFFFFFF AND PUSH20 0xFFFFFFFFFFFFFFFFFFFFFFFFFFFFFFFFFFFFFFFF AND CALLER PUSH20 0xFFFFFFFFFFFFFFFFFFFFFFFFFFFFFFFFFFFFFFFF AND EQ PUSH2 0x3F1 JUMPI PUSH1 0x40 MLOAD PUSH32 0x8C379A000000000000000000000000000000000000000000000000000000000 DUP2 MSTORE PUSH1 0x4 ADD PUSH2 0x3E8 SWAP1 PUSH2 0x7FA JUMP JUMPDEST PUSH1 0x40 MLOAD DUP1 SWAP2 SUB SWAP1 REVERT JUMPDEST PUSH1 0x1 PUSH1 0x3 PUSH0 PUSH2 0x100 EXP DUP2 SLOAD DUP2 PUSH1 0xFF MUL NOT AND SWAP1 DUP4 ISZERO ISZERO MUL OR SWAP1 SSTORE POP PUSH32 0xDAEC4582D5D9595688C8C98545FDD1C696D41C6AEAEB636737E84ED2F5C00EDA PUSH0 DUP1 SLOAD SWAP1 PUSH2 0x100 EXP SWAP1 DIV PUSH20 0xFFFFFFFFFFFFFFFFFFFFFFFFFFFFFFFFFFFFFFFF AND PUSH1 0x1 SLOAD PUSH1 0x40 MLOAD PUSH2 0x45D SWAP3 SWAP2 SWAP1 PUSH2 0x721 JUMP JUMPDEST PUSH1 0x40 MLOAD DUP1 SWAP2 SUB SWAP1 LOG1 PUSH0 DUP1 SLOAD SWAP1 PUSH2 0x100 EXP SWAP1 DIV PUSH20 0xFFFFFFFFFFFFFFFFFFFFFFFFFFFFFFFFFFFFFFFF AND PUSH20 0xFFFFFFFFFFFFFFFFFFFFFFFFFFFFFFFFFFFFFFFF AND PUSH2 0x8FC PUSH1 0x1 SLOAD SWAP1 DUP2 ISZERO MUL SWAP1 PUSH1 0x40 MLOAD PUSH0 PUSH1 0x40 MLOAD DUP1 DUP4 SUB DUP2 DUP6 DUP9 DUP9 CALL SWAP4 POP POP POP POP ISZERO DUP1 ISZERO PUSH2 0x4C9 JUMPI RETURNDATASIZE PUSH0 DUP1 RETURNDATACOPY RETURNDATASIZE PUSH0 REVERT JUMPDEST POP JUMP JUMPDEST PUSH0 DUP2 ISZERO ISZERO SWAP1 POP SWAP2 SWAP1 POP JUMP JUMPDEST PUSH2 0x4E0 DUP2 PUSH2 0x4CC JUMP JUMPDEST DUP3 MSTORE POP POP JUMP JUMPDEST PUSH0 PUSH1 0x20 DUP3 ADD SWAP1 POP PUSH2 0x4F9 PUSH0 DUP4 ADD DUP5 PUSH2 0x4D7 JUMP JUMPDEST SWAP3 SWAP2 POP POP JUMP JUMPDEST PUSH0 DUP1 REVERT JUMPDEST PUSH0 PUSH20 0xFFFFFFFFFFFFFFFFFFFFFFFFFFFFFFFFFFFFFFFF DUP3 AND SWAP1 POP SWAP2 SWAP1 POP JUMP JUMPDEST PUSH0 PUSH2 0x52C DUP3 PUSH2 0x503 JUMP JUMPDEST SWAP1 POP SWAP2 SWAP1 POP JUMP JUMPDEST PUSH2 0x53C DUP2 PUSH2 0x522 JUMP JUMPDEST DUP2 EQ PUSH2 0x546 JUMPI PUSH0 DUP1 REVERT JUMPDEST POP JUMP JUMPDEST PUSH0 DUP2 CALLDATALOAD SWAP1 POP PUSH2 0x557 DUP2 PUSH2 0x533 JUMP JUMPDEST SWAP3 SWAP2 POP POP JUMP JUMPDEST PUSH0 PUSH1 0x20 DUP3 DUP5 SUB SLT ISZERO PUSH2 0x572 JUMPI PUSH2 0x571 PUSH2 0x4FF JUMP JUMPDEST JUMPDEST PUSH0 PUSH2 0x57F DUP5 DUP3 DUP6 ADD PUSH2 0x549 JUMP JUMPDEST SWAP2 POP POP SWAP3 SWAP2 POP POP JUMP JUMPDEST PUSH0 DUP2 SWAP1 POP SWAP2 SWAP1 POP JUMP JUMPDEST PUSH2 0x59A DUP2 PUSH2 0x588 JUMP JUMPDEST DUP3 MSTORE POP POP JUMP JUMPDEST PUSH0 PUSH1 0x20 DUP3 ADD SWAP1 POP PUSH2 0x5B3 PUSH0 DUP4 ADD DUP5 PUSH2 0x591 JUMP JUMPDEST SWAP3 SWAP2 POP POP JUMP JUMPDEST PUSH2 0x5C2 DUP2 PUSH2 0x522 JUMP JUMPDEST DUP3 MSTORE POP POP JUMP JUMPDEST PUSH0 PUSH1 0x20 DUP3 ADD SWAP1 POP PUSH2 0x5DB PUSH0 DUP4 ADD DUP5 PUSH2 0x5B9 JUMP JUMPDEST SWAP3 SWAP2 POP POP JUMP JUMPDEST PUSH0 DUP3 DUP3 MSTORE PUSH1 0x20 DUP3 ADD SWAP1 POP SWAP3 SWAP2 POP POP JUMP JUMPDEST PUSH32 0x41756374696F6E20656E64656400000000000000000000000000000000000000 PUSH0 DUP3 ADD MSTORE POP JUMP JUMPDEST PUSH0 PUSH2 0x625 PUSH1 0xD DUP4 PUSH2 0x5E1 JUMP JUMPDEST SWAP2 POP PUSH2 0x630 DUP3 PUSH2 0x5F1 JUMP JUMPDEST PUSH1 0x20 DUP3 ADD SWAP1 POP SWAP2 SWAP1 POP JUMP JUMPDEST PUSH0 PUSH1 0x20 DUP3 ADD SWAP1 POP DUP2 DUP2 SUB PUSH0 DUP4 ADD MSTORE PUSH2 0x652 DUP2 PUSH2 0x619 JUMP JUMPDEST SWAP1 POP SWAP2 SWAP1 POP JUMP JUMPDEST PUSH32 0x426964206E6F74206869676820656E6F75676800000000000000000000000000 PUSH0 DUP3 ADD MSTORE POP JUMP JUMPDEST PUSH0 PUSH2 0x68D PUSH1 0x13 DUP4 PUSH2 0x5E1 JUMP JUMPDEST SWAP2 POP PUSH2 0x698 DUP3 PUSH2 0x659 JUMP JUMPDEST PUSH1 0x20 DUP3 ADD SWAP1 POP SWAP2 SWAP1 POP JUMP JUMPDEST PUSH0 PUSH1 0x20 DUP3 ADD SWAP1 POP DUP2 DUP2 SUB PUSH0 DUP4 ADD MSTORE PUSH2 0x6BA DUP2 PUSH2 0x681 JUMP JUMPDEST SWAP1 POP SWAP2 SWAP1 POP JUMP JUMPDEST PUSH32 0x4E487B7100000000000000000000000000000000000000000000000000000000 PUSH0 MSTORE PUSH1 0x11 PUSH1 0x4 MSTORE PUSH1 0x24 PUSH0 REVERT JUMPDEST PUSH0 PUSH2 0x6F8 DUP3 PUSH2 0x588 JUMP JUMPDEST SWAP2 POP PUSH2 0x703 DUP4 PUSH2 0x588 JUMP JUMPDEST SWAP3 POP DUP3 DUP3 ADD SWAP1 POP DUP1 DUP3 GT ISZERO PUSH2 0x71B JUMPI PUSH2 0x71A PUSH2 0x6C1 JUMP JUMPDEST JUMPDEST SWAP3 SWAP2 POP POP JUMP JUMPDEST PUSH0 PUSH1 0x40 DUP3 ADD SWAP1 POP PUSH2 0x734 PUSH0 DUP4 ADD DUP6 PUSH2 0x5B9 JUMP JUMPDEST PUSH2 0x741 PUSH1 0x20 DUP4 ADD DUP5 PUSH2 0x591 JUMP JUMPDEST SWAP4 SWAP3 POP POP POP JUMP JUMPDEST PUSH32 0x41756374696F6E20616C726561647920656E6465640000000000000000000000 PUSH0 DUP3 ADD MSTORE POP JUMP JUMPDEST PUSH0 PUSH2 0x77C PUSH1 0x15 DUP4 PUSH2 0x5E1 JUMP JUMPDEST SWAP2 POP PUSH2 0x787 DUP3 PUSH2 0x748 JUMP JUMPDEST PUSH1 0x20 DUP3 ADD SWAP1 POP SWAP2 SWAP1 POP JUMP JUMPDEST PUSH0 PUSH1 0x20 DUP3 ADD SWAP1 POP DUP2 DUP2 SUB PUSH0 DUP4 ADD MSTORE PUSH2 0x7A9 DUP2 PUSH2 0x770 JUMP JUMPDEST SWAP1 POP SWAP2 SWAP1 POP JUMP JUMPDEST PUSH32 0x596F7520617265206E6F74207468652068696768657374206269646465720000 PUSH0 DUP3 ADD MSTORE POP JUMP JUMPDEST PUSH0 PUSH2 0x7E4 PUSH1 0x1E DUP4 PUSH2 0x5E1 JUMP JUMPDEST SWAP2 POP PUSH2 0x7EF DUP3 PUSH2 0x7B0 JUMP JUMPDEST PUSH1 0x20 DUP3 ADD SWAP1 POP SWAP2 SWAP1 POP JUMP JUMPDEST PUSH0 PUSH1 0x20 DUP3 ADD SWAP1 POP DUP2 DUP2 SUB PUSH0 DUP4 ADD MSTORE PUSH2 0x811 DUP2 PUSH2 0x7D8 JUMP JUMPDEST SWAP1 POP SWAP2 SWAP1 POP JUMP INVALID LOG2 PUSH5 0x6970667358 0x22 SLT KECCAK256 0xCA 0xCE 0x24 0xB1 0xE 0xED LOG2 0xF9 PUSH23 0x69BA3B9B1185207D52709A63C714ADB33282DC6C38EF7D PUSH5 0x736F6C6343 STOP ADDMOD NOT STOP CALLER "
				},
				"gasEstimates": {
					"creation": {
						"codeDepositCost": "425200",
						"executionCost": "54002",
						"totalCost": "479202"
					},
					"external": {
						"bid()": "infinite",
						"bids(address)": "2824",
						"endAuction()": "infinite",
						"ended()": "2444",
						"highestBid()": "2491",
						"highestBidder()": "2549"
					}
				},
				"methodIdentifiers": {
					"bid()": "1998aeef",
					"bids(address)": "62ea82db",
					"endAuction()": "fe67a54b",
					"ended()": "12fa6feb",
					"highestBid()": "d57bde79",
					"highestBidder()": "91f90157"
				}
			},
			"storageLayout": {
				"storage": [
					{
						"astId": 3,
						"contract": "practise/practise 3.sol:Auction",
						"label": "highestBidder",
						"offset": 0,
						"slot": "0",
						"type": "t_address"
					},
					{
						"astId": 5,
						"contract": "practise/practise 3.sol:Auction",
						"label": "highestBid",
						"offset": 0,
						"slot": "1",
						"type": "t_uint256"
					},
					{
						"astId": 9,
						"contract": "practise/practise 3.sol:Auction",
						"label": "bids",
						"offset": 0,
						"slot": "2",
						"type": "t_mapping(t_address,t_uint256)"
					},
					{
						"astId": 11,
						"contract": "practise/practise 3.sol:Auction",
						"label": "ended",
						"offset": 0,
						"slot": "3",
						"type": "t_bool"
					}
				],
				"types": {
					"t_address": {
						"encoding": "inplace",
						"label": "address",
						"numberOfBytes": "20"
					},
					"t_bool": {
						"encoding": "inplace",
						"label": "bool",
						"numberOfBytes": "1"
					},
					"t_mapping(t_address,t_uint256)": {
						"encoding": "mapping",
						"key": "t_address",
						"label": "mapping(address => uint256)",
						"numberOfBytes": "32",
						"value": "t_uint256"
					},
					"t_uint256": {
						"encoding": "inplace",
						"label": "uint256",
						"numberOfBytes": "32"
					}
				}
			},
			"userdoc": {
				"kind": "user",
				"methods": {},
				"version": 1
			}
		}
	}
}