{
	"NFT Tokens/Tk3.sol": {
		"EvenTicket": {
			"abi": [
				{
					"inputs": [
						{
							"internalType": "string",
							"name": "name",
							"type": "string"
						},
						{
							"internalType": "string",
							"name": "symbol",
							"type": "string"
						}
					],
					"stateMutability": "nonpayable",
					"type": "constructor"
				},
				{
					"inputs": [
						{
							"internalType": "address",
							"name": "sender",
							"type": "address"
						},
						{
							"internalType": "uint256",
							"name": "tokenId",
							"type": "uint256"
						},
						{
							"internalType": "address",
							"name": "owner",
							"type": "address"
						}
					],
					"name": "ERC721IncorrectOwner",
					"type": "error"
				},
				{
					"inputs": [
						{
							"internalType": "address",
							"name": "operator",
							"type": "address"
						},
						{
							"internalType": "uint256",
							"name": "tokenId",
							"type": "uint256"
						}
					],
					"name": "ERC721InsufficientApproval",
					"type": "error"
				},
				{
					"inputs": [
						{
							"internalType": "address",
							"name": "approver",
							"type": "address"
						}
					],
					"name": "ERC721InvalidApprover",
					"type": "error"
				},
				{
					"inputs": [
						{
							"internalType": "address",
							"name": "operator",
							"type": "address"
						}
					],
					"name": "ERC721InvalidOperator",
					"type": "error"
				},
				{
					"inputs": [
						{
							"internalType": "address",
							"name": "owner",
							"type": "address"
						}
					],
					"name": "ERC721InvalidOwner",
					"type": "error"
				},
				{
					"inputs": [
						{
							"internalType": "address",
							"name": "receiver",
							"type": "address"
						}
					],
					"name": "ERC721InvalidReceiver",
					"type": "error"
				},
				{
					"inputs": [
						{
							"internalType": "address",
							"name": "sender",
							"type": "address"
						}
					],
					"name": "ERC721InvalidSender",
					"type": "error"
				},
				{
					"inputs": [
						{
							"internalType": "uint256",
							"name": "tokenId",
							"type": "uint256"
						}
					],
					"name": "ERC721NonexistentToken",
					"type": "error"
				},
				{
					"anonymous": false,
					"inputs": [
						{
							"indexed": true,
							"internalType": "address",
							"name": "owner",
							"type": "address"
						},
						{
							"indexed": true,
							"internalType": "address",
							"name": "approved",
							"type": "address"
						},
						{
							"indexed": true,
							"internalType": "uint256",
							"name": "tokenId",
							"type": "uint256"
						}
					],
					"name": "Approval",
					"type": "event"
				},
				{
					"anonymous": false,
					"inputs": [
						{
							"indexed": true,
							"internalType": "address",
							"name": "owner",
							"type": "address"
						},
						{
							"indexed": true,
							"internalType": "address",
							"name": "operator",
							"type": "address"
						},
						{
							"indexed": false,
							"internalType": "bool",
							"name": "approved",
							"type": "bool"
						}
					],
					"name": "ApprovalForAll",
					"type": "event"
				},
				{
					"anonymous": false,
					"inputs": [
						{
							"indexed": false,
							"internalType": "uint256",
							"name": "eventId",
							"type": "uint256"
						},
						{
							"indexed": false,
							"internalType": "uint256",
							"name": "tokenId",
							"type": "uint256"
						},
						{
							"indexed": false,
							"internalType": "address",
							"name": "owner",
							"type": "address"
						}
					],
					"name": "TicketMinted",
					"type": "event"
				},
				{
					"anonymous": false,
					"inputs": [
						{
							"indexed": true,
							"internalType": "address",
							"name": "from",
							"type": "address"
						},
						{
							"indexed": true,
							"internalType": "address",
							"name": "to",
							"type": "address"
						},
						{
							"indexed": true,
							"internalType": "uint256",
							"name": "tokenId",
							"type": "uint256"
						}
					],
					"name": "Transfer",
					"type": "event"
				},
				{
					"inputs": [
						{
							"internalType": "address",
							"name": "to",
							"type": "address"
						},
						{
							"internalType": "uint256",
							"name": "tokenId",
							"type": "uint256"
						}
					],
					"name": "approve",
					"outputs": [],
					"stateMutability": "nonpayable",
					"type": "function"
				},
				{
					"inputs": [
						{
							"internalType": "address",
							"name": "owner",
							"type": "address"
						}
					],
					"name": "balanceOf",
					"outputs": [
						{
							"internalType": "uint256",
							"name": "",
							"type": "uint256"
						}
					],
					"stateMutability": "view",
					"type": "function"
				},
				{
					"inputs": [
						{
							"internalType": "string",
							"name": "name",
							"type": "string"
						},
						{
							"internalType": "uint256",
							"name": "startTime",
							"type": "uint256"
						},
						{
							"internalType": "uint256",
							"name": "price",
							"type": "uint256"
						},
						{
							"internalType": "uint256",
							"name": "eventId",
							"type": "uint256"
						},
						{
							"internalType": "address",
							"name": "to",
							"type": "address"
						}
					],
					"name": "createEvent",
					"outputs": [],
					"stateMutability": "payable",
					"type": "function"
				},
				{
					"inputs": [
						{
							"internalType": "uint256",
							"name": "",
							"type": "uint256"
						}
					],
					"name": "events",
					"outputs": [
						{
							"internalType": "string",
							"name": "name",
							"type": "string"
						},
						{
							"internalType": "uint256",
							"name": "startTime",
							"type": "uint256"
						},
						{
							"internalType": "uint256",
							"name": "price",
							"type": "uint256"
						}
					],
					"stateMutability": "view",
					"type": "function"
				},
				{
					"inputs": [
						{
							"internalType": "uint256",
							"name": "tokenId",
							"type": "uint256"
						}
					],
					"name": "getApproved",
					"outputs": [
						{
							"internalType": "address",
							"name": "",
							"type": "address"
						}
					],
					"stateMutability": "view",
					"type": "function"
				},
				{
					"inputs": [
						{
							"internalType": "address",
							"name": "owner",
							"type": "address"
						},
						{
							"internalType": "address",
							"name": "operator",
							"type": "address"
						}
					],
					"name": "isApprovedForAll",
					"outputs": [
						{
							"internalType": "bool",
							"name": "",
							"type": "bool"
						}
					],
					"stateMutability": "view",
					"type": "function"
				},
				{
					"inputs": [],
					"name": "name",
					"outputs": [
						{
							"internalType": "string",
							"name": "",
							"type": "string"
						}
					],
					"stateMutability": "view",
					"type": "function"
				},
				{
					"inputs": [
						{
							"internalType": "uint256",
							"name": "tokenId",
							"type": "uint256"
						}
					],
					"name": "ownerOf",
					"outputs": [
						{
							"internalType": "address",
							"name": "",
							"type": "address"
						}
					],
					"stateMutability": "view",
					"type": "function"
				},
				{
					"inputs": [
						{
							"internalType": "address",
							"name": "from",
							"type": "address"
						},
						{
							"internalType": "address",
							"name": "to",
							"type": "address"
						},
						{
							"internalType": "uint256",
							"name": "tokenId",
							"type": "uint256"
						}
					],
					"name": "safeTransferFrom",
					"outputs": [],
					"stateMutability": "nonpayable",
					"type": "function"
				},
				{
					"inputs": [
						{
							"internalType": "address",
							"name": "from",
							"type": "address"
						},
						{
							"internalType": "address",
							"name": "to",
							"type": "address"
						},
						{
							"internalType": "uint256",
							"name": "tokenId",
							"type": "uint256"
						},
						{
							"internalType": "bytes",
							"name": "data",
							"type": "bytes"
						}
					],
					"name": "safeTransferFrom",
					"outputs": [],
					"stateMutability": "nonpayable",
					"type": "function"
				},
				{
					"inputs": [
						{
							"internalType": "address",
							"name": "operator",
							"type": "address"
						},
						{
							"internalType": "bool",
							"name": "approved",
							"type": "bool"
						}
					],
					"name": "setApprovalForAll",
					"outputs": [],
					"stateMutability": "nonpayable",
					"type": "function"
				},
				{
					"inputs": [
						{
							"internalType": "bytes4",
							"name": "interfaceId",
							"type": "bytes4"
						}
					],
					"name": "supportsInterface",
					"outputs": [
						{
							"internalType": "bool",
							"name": "",
							"type": "bool"
						}
					],
					"stateMutability": "view",
					"type": "function"
				},
				{
					"inputs": [],
					"name": "symbol",
					"outputs": [
						{
							"internalType": "string",
							"name": "",
							"type": "string"
						}
					],
					"stateMutability": "view",
					"type": "function"
				},
				{
					"inputs": [
						{
							"internalType": "uint256",
							"name": "tokenId",
							"type": "uint256"
						}
					],
					"name": "tokenURI",
					"outputs": [
						{
							"internalType": "string",
							"name": "",
							"type": "string"
						}
					],
					"stateMutability": "view",
					"type": "function"
				},
				{
					"inputs": [
						{
							"internalType": "address",
							"name": "from",
							"type": "address"
						},
						{
							"internalType": "address",
							"name": "to",
							"type": "address"
						},
						{
							"internalType": "uint256",
							"name": "tokenId",
							"type": "uint256"
						}
					],
					"name": "transferFrom",
					"outputs": [],
					"stateMutability": "nonpayable",
					"type": "function"
				},
				{
					"inputs": [
						{
							"internalType": "uint256",
							"name": "eventId",
							"type": "uint256"
						},
						{
							"internalType": "uint256",
							"name": "tokenId",
							"type": "uint256"
						},
						{
							"internalType": "address",
							"name": "owner",
							"type": "address"
						}
					],
					"name": "verifyTicket",
					"outputs": [
						{
							"internalType": "bool",
							"name": "",
							"type": "bool"
						}
					],
					"stateMutability": "view",
					"type": "function"
				}
			],
			"devdoc": {
				"errors": {
					"ERC721IncorrectOwner(address,uint256,address)": [
						{
							"details": "Indicates an error related to the ownership over a particular token. Used in transfers.",
							"params": {
								"owner": "Address of the current owner of a token.",
								"sender": "Address whose tokens are being transferred.",
								"tokenId": "Identifier number of a token."
							}
						}
					],
					"ERC721InsufficientApproval(address,uint256)": [
						{
							"details": "Indicates a failure with the `operator`’s approval. Used in transfers.",
							"params": {
								"operator": "Address that may be allowed to operate on tokens without being their owner.",
								"tokenId": "Identifier number of a token."
							}
						}
					],
					"ERC721InvalidApprover(address)": [
						{
							"details": "Indicates a failure with the `approver` of a token to be approved. Used in approvals.",
							"params": {
								"approver": "Address initiating an approval operation."
							}
						}
					],
					"ERC721InvalidOperator(address)": [
						{
							"details": "Indicates a failure with the `operator` to be approved. Used in approvals.",
							"params": {
								"operator": "Address that may be allowed to operate on tokens without being their owner."
							}
						}
					],
					"ERC721InvalidOwner(address)": [
						{
							"details": "Indicates that an address can't be an owner. For example, `address(0)` is a forbidden owner in EIP-20. Used in balance queries.",
							"params": {
								"owner": "Address of the current owner of a token."
							}
						}
					],
					"ERC721InvalidReceiver(address)": [
						{
							"details": "Indicates a failure with the token `receiver`. Used in transfers.",
							"params": {
								"receiver": "Address to which tokens are being transferred."
							}
						}
					],
					"ERC721InvalidSender(address)": [
						{
							"details": "Indicates a failure with the token `sender`. Used in transfers.",
							"params": {
								"sender": "Address whose tokens are being transferred."
							}
						}
					],
					"ERC721NonexistentToken(uint256)": [
						{
							"details": "Indicates a `tokenId` whose `owner` is the zero address.",
							"params": {
								"tokenId": "Identifier number of a token."
							}
						}
					]
				},
				"events": {
					"Approval(address,address,uint256)": {
						"details": "Emitted when `owner` enables `approved` to manage the `tokenId` token."
					},
					"ApprovalForAll(address,address,bool)": {
						"details": "Emitted when `owner` enables or disables (`approved`) `operator` to manage all of its assets."
					},
					"Transfer(address,address,uint256)": {
						"details": "Emitted when `tokenId` token is transferred from `from` to `to`."
					}
				},
				"kind": "dev",
				"methods": {
					"approve(address,uint256)": {
						"details": "See {IERC721-approve}."
					},
					"balanceOf(address)": {
						"details": "See {IERC721-balanceOf}."
					},
					"getApproved(uint256)": {
						"details": "See {IERC721-getApproved}."
					},
					"isApprovedForAll(address,address)": {
						"details": "See {IERC721-isApprovedForAll}."
					},
					"name()": {
						"details": "See {IERC721Metadata-name}."
					},
					"ownerOf(uint256)": {
						"details": "See {IERC721-ownerOf}."
					},
					"safeTransferFrom(address,address,uint256)": {
						"details": "See {IERC721-safeTransferFrom}."
					},
					"safeTransferFrom(address,address,uint256,bytes)": {
						"details": "See {IERC721-safeTransferFrom}."
					},
					"setApprovalForAll(address,bool)": {
						"details": "See {IERC721-setApprovalForAll}."
					},
					"supportsInterface(bytes4)": {
						"details": "See {IERC165-supportsInterface}."
					},
					"symbol()": {
						"details": "See {IERC721Metadata-symbol}."
					},
					"tokenURI(uint256)": {
						"details": "See {IERC721Metadata-tokenURI}."
					},
					"transferFrom(address,address,uint256)": {
						"details": "See {IERC721-transferFrom}."
					}
				},
				"version": 1
			},
			"evm": {
				"assembly": "    /* \"NFT Tokens/Tk3.sol\":170:1209  contract EvenTicket is ERC721 {... */\n  mstore(0x40, 0x80)\n    /* \"NFT Tokens/Tk3.sol\":517:599  constructor(string memory name, string memory symbol) ERC721(name, symbol) {... */\n  callvalue\n  dup1\n  iszero\n  tag_1\n  jumpi\n  0x00\n  dup1\n  revert\ntag_1:\n  pop\n  mload(0x40)\n  sub(codesize, bytecodeSize)\n  dup1\n  bytecodeSize\n  dup4\n  codecopy\n  dup2\n  add\n  0x40\n  dup2\n  swap1\n  mstore\n  tag_2\n  swap2\n  tag_3\n  jump\t// in\ntag_2:\n    /* \"NFT Tokens/Tk3.sol\":578:582  name */\n  dup2\n    /* \"NFT Tokens/Tk3.sol\":584:590  symbol */\n  dup2\n    /* \"@openzeppelin/contracts/token/ERC721/ERC721.sol\":1447:1452  _name */\n  0x00\n    /* \"@openzeppelin/contracts/token/ERC721/ERC721.sol\":1447:1460  _name = name_ */\n  tag_7\n    /* \"NFT Tokens/Tk3.sol\":578:582  name */\n  dup4\n    /* \"@openzeppelin/contracts/token/ERC721/ERC721.sol\":1447:1452  _name */\n  dup3\n    /* \"@openzeppelin/contracts/token/ERC721/ERC721.sol\":1447:1460  _name = name_ */\n  tag_8\n  jump\t// in\ntag_7:\n  pop\n    /* \"@openzeppelin/contracts/token/ERC721/ERC721.sol\":1470:1477  _symbol */\n  0x01\n    /* \"@openzeppelin/contracts/token/ERC721/ERC721.sol\":1470:1487  _symbol = symbol_ */\n  tag_9\n    /* \"@openzeppelin/contracts/token/ERC721/ERC721.sol\":1480:1487  symbol_ */\n  dup3\n    /* \"@openzeppelin/contracts/token/ERC721/ERC721.sol\":1470:1477  _symbol */\n  dup3\n    /* \"@openzeppelin/contracts/token/ERC721/ERC721.sol\":1470:1487  _symbol = symbol_ */\n  tag_8\n  jump\t// in\ntag_9:\n  pop\n    /* \"@openzeppelin/contracts/token/ERC721/ERC721.sol\":1381:1494  constructor(string memory name_, string memory symbol_) {... */\n  pop\n  pop\n    /* \"NFT Tokens/Tk3.sol\":517:599  constructor(string memory name, string memory symbol) ERC721(name, symbol) {... */\n  pop\n  pop\n    /* \"NFT Tokens/Tk3.sol\":170:1209  contract EvenTicket is ERC721 {... */\n  jump(tag_18)\n    /* \"#utility.yul\":14:141   */\ntag_12:\n    /* \"#utility.yul\":75:85   */\n  0x4e487b71\n    /* \"#utility.yul\":70:73   */\n  0xe0\n    /* \"#utility.yul\":66:86   */\n  shl\n    /* \"#utility.yul\":63:64   */\n  0x00\n    /* \"#utility.yul\":56:87   */\n  mstore\n    /* \"#utility.yul\":106:110   */\n  0x41\n    /* \"#utility.yul\":103:104   */\n  0x04\n    /* \"#utility.yul\":96:111   */\n  mstore\n    /* \"#utility.yul\":130:134   */\n  0x24\n    /* \"#utility.yul\":127:128   */\n  0x00\n    /* \"#utility.yul\":120:135   */\n  revert\n    /* \"#utility.yul\":146:869   */\ntag_13:\n    /* \"#utility.yul\":200:205   */\n  0x00\n    /* \"#utility.yul\":253:256   */\n  dup3\n    /* \"#utility.yul\":246:250   */\n  0x1f\n    /* \"#utility.yul\":238:244   */\n  dup4\n    /* \"#utility.yul\":234:251   */\n  add\n    /* \"#utility.yul\":230:257   */\n  slt\n    /* \"#utility.yul\":220:275   */\n  tag_21\n  jumpi\n    /* \"#utility.yul\":271:272   */\n  0x00\n    /* \"#utility.yul\":268:269   */\n  dup1\n    /* \"#utility.yul\":261:273   */\n  revert\n    /* \"#utility.yul\":220:275   */\ntag_21:\n    /* \"#utility.yul\":298:311   */\n  dup2\n  mload\n  sub(shl(0x40, 0x01), 0x01)\n    /* \"#utility.yul\":323:353   */\n  dup2\n  gt\n    /* \"#utility.yul\":320:376   */\n  iszero\n  tag_23\n  jumpi\n    /* \"#utility.yul\":356:374   */\n  tag_23\n  tag_12\n  jump\t// in\ntag_23:\n    /* \"#utility.yul\":405:407   */\n  0x40\n    /* \"#utility.yul\":399:408   */\n  mload\n    /* \"#utility.yul\":497:499   */\n  0x1f\n    /* \"#utility.yul\":459:476   */\n  dup3\n  add\n  not(0x1f)\n    /* \"#utility.yul\":455:486   */\n  swap1\n  dup2\n  and\n    /* \"#utility.yul\":488:490   */\n  0x3f\n    /* \"#utility.yul\":451:491   */\n  add\n    /* \"#utility.yul\":447:501   */\n  and\n    /* \"#utility.yul\":435:502   */\n  dup2\n  add\n  sub(shl(0x40, 0x01), 0x01)\n    /* \"#utility.yul\":517:551   */\n  dup2\n  gt\n    /* \"#utility.yul\":553:575   */\n  dup3\n  dup3\n  lt\n    /* \"#utility.yul\":514:576   */\n  or\n    /* \"#utility.yul\":511:599   */\n  iszero\n  tag_25\n  jumpi\n    /* \"#utility.yul\":579:597   */\n  tag_25\n  tag_12\n  jump\t// in\ntag_25:\n    /* \"#utility.yul\":615:617   */\n  0x40\n    /* \"#utility.yul\":608:630   */\n  mstore\n    /* \"#utility.yul\":639:661   */\n  dup2\n  dup2\n  mstore\n    /* \"#utility.yul\":680:699   */\n  dup4\n  dup3\n  add\n    /* \"#utility.yul\":701:705   */\n  0x20\n    /* \"#utility.yul\":676:706   */\n  add\n    /* \"#utility.yul\":673:712   */\n  dup6\n  lt\n    /* \"#utility.yul\":670:729   */\n  iszero\n  tag_26\n  jumpi\n    /* \"#utility.yul\":725:726   */\n  0x00\n    /* \"#utility.yul\":722:723   */\n  dup1\n    /* \"#utility.yul\":715:727   */\n  revert\n    /* \"#utility.yul\":670:729   */\ntag_26:\n    /* \"#utility.yul\":782:788   */\n  dup2\n    /* \"#utility.yul\":775:779   */\n  0x20\n    /* \"#utility.yul\":767:773   */\n  dup6\n    /* \"#utility.yul\":763:780   */\n  add\n    /* \"#utility.yul\":756:760   */\n  0x20\n    /* \"#utility.yul\":748:754   */\n  dup4\n    /* \"#utility.yul\":744:761   */\n  add\n    /* \"#utility.yul\":738:789   */\n  mcopy\n    /* \"#utility.yul\":837:838   */\n  0x00\n    /* \"#utility.yul\":809:828   */\n  swap2\n  dup2\n  add\n    /* \"#utility.yul\":830:834   */\n  0x20\n    /* \"#utility.yul\":805:835   */\n  add\n    /* \"#utility.yul\":798:839   */\n  swap2\n  swap1\n  swap2\n  mstore\n    /* \"#utility.yul\":813:819   */\n  swap4\n    /* \"#utility.yul\":146:869   */\n  swap3\n  pop\n  pop\n  pop\n  jump\t// out\n    /* \"#utility.yul\":874:1431   */\ntag_3:\n    /* \"#utility.yul\":973:979   */\n  0x00\n    /* \"#utility.yul\":981:987   */\n  dup1\n    /* \"#utility.yul\":1034:1036   */\n  0x40\n    /* \"#utility.yul\":1022:1031   */\n  dup4\n    /* \"#utility.yul\":1013:1020   */\n  dup6\n    /* \"#utility.yul\":1009:1032   */\n  sub\n    /* \"#utility.yul\":1005:1037   */\n  slt\n    /* \"#utility.yul\":1002:1054   */\n  iszero\n  tag_28\n  jumpi\n    /* \"#utility.yul\":1050:1051   */\n  0x00\n    /* \"#utility.yul\":1047:1048   */\n  dup1\n    /* \"#utility.yul\":1040:1052   */\n  revert\n    /* \"#utility.yul\":1002:1054   */\ntag_28:\n    /* \"#utility.yul\":1077:1093   */\n  dup3\n  mload\n  sub(shl(0x40, 0x01), 0x01)\n    /* \"#utility.yul\":1105:1135   */\n  dup2\n  gt\n    /* \"#utility.yul\":1102:1152   */\n  iszero\n  tag_29\n  jumpi\n    /* \"#utility.yul\":1148:1149   */\n  0x00\n    /* \"#utility.yul\":1145:1146   */\n  dup1\n    /* \"#utility.yul\":1138:1150   */\n  revert\n    /* \"#utility.yul\":1102:1152   */\ntag_29:\n    /* \"#utility.yul\":1171:1232   */\n  tag_30\n    /* \"#utility.yul\":1224:1231   */\n  dup6\n    /* \"#utility.yul\":1215:1221   */\n  dup3\n    /* \"#utility.yul\":1204:1213   */\n  dup7\n    /* \"#utility.yul\":1200:1222   */\n  add\n    /* \"#utility.yul\":1171:1232   */\n  tag_13\n  jump\t// in\ntag_30:\n    /* \"#utility.yul\":1278:1280   */\n  0x20\n    /* \"#utility.yul\":1263:1281   */\n  dup6\n  add\n    /* \"#utility.yul\":1257:1282   */\n  mload\n    /* \"#utility.yul\":1161:1232   */\n  swap1\n  swap4\n  pop\n    /* \"#utility.yul\":1257:1282   */\n  swap1\n  pop\n  sub(shl(0x40, 0x01), 0x01)\n    /* \"#utility.yul\":1294:1326   */\n  dup2\n  gt\n    /* \"#utility.yul\":1291:1343   */\n  iszero\n  tag_31\n  jumpi\n    /* \"#utility.yul\":1339:1340   */\n  0x00\n    /* \"#utility.yul\":1336:1337   */\n  dup1\n    /* \"#utility.yul\":1329:1341   */\n  revert\n    /* \"#utility.yul\":1291:1343   */\ntag_31:\n    /* \"#utility.yul\":1362:1425   */\n  tag_32\n    /* \"#utility.yul\":1417:1424   */\n  dup6\n    /* \"#utility.yul\":1406:1414   */\n  dup3\n    /* \"#utility.yul\":1395:1404   */\n  dup7\n    /* \"#utility.yul\":1391:1415   */\n  add\n    /* \"#utility.yul\":1362:1425   */\n  tag_13\n  jump\t// in\ntag_32:\n    /* \"#utility.yul\":1352:1425   */\n  swap2\n  pop\n  pop\n    /* \"#utility.yul\":874:1431   */\n  swap3\n  pop\n  swap3\n  swap1\n  pop\n  jump\t// out\n    /* \"#utility.yul\":1436:1816   */\ntag_14:\n    /* \"#utility.yul\":1515:1516   */\n  0x01\n    /* \"#utility.yul\":1511:1523   */\n  dup2\n  dup2\n  shr\n  swap1\n    /* \"#utility.yul\":1558:1570   */\n  dup3\n  and\n  dup1\n    /* \"#utility.yul\":1579:1640   */\n  tag_34\n  jumpi\n    /* \"#utility.yul\":1633:1637   */\n  0x7f\n    /* \"#utility.yul\":1625:1631   */\n  dup3\n    /* \"#utility.yul\":1621:1638   */\n  and\n    /* \"#utility.yul\":1611:1638   */\n  swap2\n  pop\n    /* \"#utility.yul\":1579:1640   */\ntag_34:\n    /* \"#utility.yul\":1686:1688   */\n  0x20\n    /* \"#utility.yul\":1678:1684   */\n  dup3\n    /* \"#utility.yul\":1675:1689   */\n  lt\n    /* \"#utility.yul\":1655:1673   */\n  dup2\n    /* \"#utility.yul\":1652:1690   */\n  sub\n    /* \"#utility.yul\":1649:1810   */\n  tag_35\n  jumpi\n    /* \"#utility.yul\":1732:1742   */\n  0x4e487b71\n    /* \"#utility.yul\":1727:1730   */\n  0xe0\n    /* \"#utility.yul\":1723:1743   */\n  shl\n    /* \"#utility.yul\":1720:1721   */\n  0x00\n    /* \"#utility.yul\":1713:1744   */\n  mstore\n    /* \"#utility.yul\":1767:1771   */\n  0x22\n    /* \"#utility.yul\":1764:1765   */\n  0x04\n    /* \"#utility.yul\":1757:1772   */\n  mstore\n    /* \"#utility.yul\":1795:1799   */\n  0x24\n    /* \"#utility.yul\":1792:1793   */\n  0x00\n    /* \"#utility.yul\":1785:1800   */\n  revert\n    /* \"#utility.yul\":1649:1810   */\ntag_35:\n  pop\n    /* \"#utility.yul\":1436:1816   */\n  swap2\n  swap1\n  pop\n  jump\t// out\n    /* \"#utility.yul\":1947:2465   */\ntag_16:\n    /* \"#utility.yul\":2049:2051   */\n  0x1f\n    /* \"#utility.yul\":2044:2047   */\n  dup3\n    /* \"#utility.yul\":2041:2052   */\n  gt\n    /* \"#utility.yul\":2038:2459   */\n  iszero\n  tag_38\n  jumpi\n    /* \"#utility.yul\":2085:2090   */\n  dup1\n    /* \"#utility.yul\":2082:2083   */\n  0x00\n    /* \"#utility.yul\":2075:2091   */\n  mstore\n    /* \"#utility.yul\":2129:2133   */\n  0x20\n    /* \"#utility.yul\":2126:2127   */\n  0x00\n    /* \"#utility.yul\":2116:2134   */\n  keccak256\n    /* \"#utility.yul\":2199:2201   */\n  0x1f\n    /* \"#utility.yul\":2187:2197   */\n  dup5\n    /* \"#utility.yul\":2183:2202   */\n  add\n    /* \"#utility.yul\":2180:2181   */\n  0x05\n    /* \"#utility.yul\":2176:2203   */\n  shr\n    /* \"#utility.yul\":2170:2174   */\n  dup2\n    /* \"#utility.yul\":2166:2204   */\n  add\n    /* \"#utility.yul\":2235:2239   */\n  0x20\n    /* \"#utility.yul\":2223:2233   */\n  dup6\n    /* \"#utility.yul\":2220:2240   */\n  lt\n    /* \"#utility.yul\":2217:2264   */\n  iszero\n  tag_39\n  jumpi\n  pop\n    /* \"#utility.yul\":2258:2262   */\n  dup1\n    /* \"#utility.yul\":2217:2264   */\ntag_39:\n    /* \"#utility.yul\":2313:2315   */\n  0x1f\n    /* \"#utility.yul\":2308:2311   */\n  dup5\n    /* \"#utility.yul\":2304:2316   */\n  add\n    /* \"#utility.yul\":2301:2302   */\n  0x05\n    /* \"#utility.yul\":2297:2317   */\n  shr\n    /* \"#utility.yul\":2291:2295   */\n  dup3\n    /* \"#utility.yul\":2287:2318   */\n  add\n    /* \"#utility.yul\":2277:2318   */\n  swap2\n  pop\n    /* \"#utility.yul\":2368:2449   */\ntag_40:\n    /* \"#utility.yul\":2386:2388   */\n  dup2\n    /* \"#utility.yul\":2379:2384   */\n  dup2\n    /* \"#utility.yul\":2376:2389   */\n  lt\n    /* \"#utility.yul\":2368:2449   */\n  iszero\n  tag_42\n  jumpi\n    /* \"#utility.yul\":2445:2446   */\n  0x00\n    /* \"#utility.yul\":2431:2447   */\n  dup2\n  sstore\n    /* \"#utility.yul\":2412:2413   */\n  0x01\n    /* \"#utility.yul\":2401:2414   */\n  add\n    /* \"#utility.yul\":2368:2449   */\n  jump(tag_40)\ntag_42:\n    /* \"#utility.yul\":2372:2375   */\n  pop\n  pop\n    /* \"#utility.yul\":2038:2459   */\ntag_38:\n    /* \"#utility.yul\":1947:2465   */\n  pop\n  pop\n  pop\n  jump\t// out\n    /* \"#utility.yul\":2641:3940   */\ntag_8:\n    /* \"#utility.yul\":2761:2771   */\n  dup2\n  mload\n  sub(shl(0x40, 0x01), 0x01)\n    /* \"#utility.yul\":2783:2813   */\n  dup2\n  gt\n    /* \"#utility.yul\":2780:2836   */\n  iszero\n  tag_46\n  jumpi\n    /* \"#utility.yul\":2816:2834   */\n  tag_46\n  tag_12\n  jump\t// in\ntag_46:\n    /* \"#utility.yul\":2845:2942   */\n  tag_47\n    /* \"#utility.yul\":2935:2941   */\n  dup2\n    /* \"#utility.yul\":2895:2933   */\n  tag_48\n    /* \"#utility.yul\":2927:2931   */\n  dup5\n    /* \"#utility.yul\":2921:2932   */\n  sload\n    /* \"#utility.yul\":2895:2933   */\n  tag_14\n  jump\t// in\ntag_48:\n    /* \"#utility.yul\":2889:2893   */\n  dup5\n    /* \"#utility.yul\":2845:2942   */\n  tag_16\n  jump\t// in\ntag_47:\n    /* \"#utility.yul\":2991:2995   */\n  0x20\n    /* \"#utility.yul\":3022:3024   */\n  0x1f\n    /* \"#utility.yul\":3011:3025   */\n  dup3\n  gt\n    /* \"#utility.yul\":3039:3040   */\n  0x01\n    /* \"#utility.yul\":3034:3683   */\n  dup2\n  eq\n  tag_50\n  jumpi\n    /* \"#utility.yul\":3727:3728   */\n  0x00\n    /* \"#utility.yul\":3744:3750   */\n  dup4\n    /* \"#utility.yul\":3741:3830   */\n  iszero\n  tag_51\n  jumpi\n  pop\n    /* \"#utility.yul\":3796:3815   */\n  dup5\n  dup3\n  add\n    /* \"#utility.yul\":3790:3816   */\n  mload\n    /* \"#utility.yul\":3741:3830   */\ntag_51:\n  not(0x00)\n    /* \"#utility.yul\":2598:2599   */\n  0x03\n    /* \"#utility.yul\":2594:2605   */\n  dup6\n  swap1\n  shl\n    /* \"#utility.yul\":2590:2614   */\n  shr\n    /* \"#utility.yul\":2586:2615   */\n  not\n    /* \"#utility.yul\":2576:2616   */\n  and\n    /* \"#utility.yul\":2622:2623   */\n  0x01\n    /* \"#utility.yul\":2618:2629   */\n  dup5\n  swap1\n  shl\n    /* \"#utility.yul\":2573:2630   */\n  or\n    /* \"#utility.yul\":3843:3924   */\n  dup5\n  sstore\n    /* \"#utility.yul\":3004:3934   */\n  jump(tag_42)\n    /* \"#utility.yul\":3034:3683   */\ntag_50:\n    /* \"#utility.yul\":1894:1895   */\n  0x00\n    /* \"#utility.yul\":1887:1901   */\n  dup5\n  dup2\n  mstore\n    /* \"#utility.yul\":1931:1935   */\n  0x20\n    /* \"#utility.yul\":1918:1936   */\n  dup2\n  keccak256\n  not(0x1f)\n    /* \"#utility.yul\":3070:3090   */\n  dup6\n  and\n  swap2\n    /* \"#utility.yul\":3188:3410   */\ntag_54:\n    /* \"#utility.yul\":3202:3209   */\n  dup3\n    /* \"#utility.yul\":3199:3200   */\n  dup2\n    /* \"#utility.yul\":3196:3210   */\n  lt\n    /* \"#utility.yul\":3188:3410   */\n  iszero\n  tag_56\n  jumpi\n    /* \"#utility.yul\":3284:3303   */\n  dup8\n  dup6\n  add\n    /* \"#utility.yul\":3278:3304   */\n  mload\n    /* \"#utility.yul\":3263:3305   */\n  dup3\n  sstore\n    /* \"#utility.yul\":3391:3395   */\n  0x20\n    /* \"#utility.yul\":3376:3396   */\n  swap5\n  dup6\n  add\n  swap5\n    /* \"#utility.yul\":3344:3345   */\n  0x01\n    /* \"#utility.yul\":3332:3346   */\n  swap1\n  swap3\n  add\n  swap2\n    /* \"#utility.yul\":3218:3230   */\n  add\n    /* \"#utility.yul\":3188:3410   */\n  jump(tag_54)\ntag_56:\n    /* \"#utility.yul\":3192:3195   */\n  pop\n    /* \"#utility.yul\":3438:3444   */\n  dup5\n    /* \"#utility.yul\":3429:3436   */\n  dup3\n    /* \"#utility.yul\":3426:3445   */\n  lt\n    /* \"#utility.yul\":3423:3624   */\n  iszero\n  tag_57\n  jumpi\n    /* \"#utility.yul\":3499:3518   */\n  dup7\n  dup5\n  add\n    /* \"#utility.yul\":3493:3519   */\n  mload\n  not(0x00)\n    /* \"#utility.yul\":3582:3583   */\n  0x03\n    /* \"#utility.yul\":3578:3592   */\n  dup8\n  swap1\n  shl\n    /* \"#utility.yul\":3594:3597   */\n  0xf8\n    /* \"#utility.yul\":3574:3598   */\n  and\n    /* \"#utility.yul\":3570:3607   */\n  shr\n    /* \"#utility.yul\":3566:3608   */\n  not\n    /* \"#utility.yul\":3551:3609   */\n  and\n    /* \"#utility.yul\":3536:3610   */\n  dup2\n  sstore\n    /* \"#utility.yul\":3423:3624   */\ntag_57:\n  pop\n  pop\n  pop\n  pop\n    /* \"#utility.yul\":3670:3671   */\n  0x01\n    /* \"#utility.yul\":3654:3668   */\n  swap1\n  dup2\n  shl\n    /* \"#utility.yul\":3650:3672   */\n  add\n    /* \"#utility.yul\":3637:3673   */\n  swap1\n  sstore\n  pop\n    /* \"#utility.yul\":2641:3940   */\n  jump\t// out\ntag_18:\n    /* \"NFT Tokens/Tk3.sol\":170:1209  contract EvenTicket is ERC721 {... */\n  dataSize(sub_0)\n  dup1\n  dataOffset(sub_0)\n  0x00\n  codecopy\n  0x00\n  return\nstop\n\nsub_0: assembly {\n        /* \"NFT Tokens/Tk3.sol\":170:1209  contract EvenTicket is ERC721 {... */\n      mstore(0x40, 0x80)\n      jumpi(tag_1, lt(calldatasize, 0x04))\n      shr(0xe0, calldataload(0x00))\n      dup1\n      0x42842e0e\n      gt\n      tag_18\n      jumpi\n      dup1\n      0xa22cb465\n      gt\n      tag_19\n      jumpi\n      dup1\n      0xa22cb465\n      eq\n      tag_14\n      jumpi\n      dup1\n      0xb88d4fde\n      eq\n      tag_15\n      jumpi\n      dup1\n      0xc87b56dd\n      eq\n      tag_16\n      jumpi\n      dup1\n      0xe985e9c5\n      eq\n      tag_17\n      jumpi\n      0x00\n      dup1\n      revert\n    tag_19:\n      dup1\n      0x42842e0e\n      eq\n      tag_10\n      jumpi\n      dup1\n      0x6352211e\n      eq\n      tag_11\n      jumpi\n      dup1\n      0x70a08231\n      eq\n      tag_12\n      jumpi\n      dup1\n      0x95d89b41\n      eq\n      tag_13\n      jumpi\n      0x00\n      dup1\n      revert\n    tag_18:\n      dup1\n      0x0b791430\n      gt\n      tag_20\n      jumpi\n      dup1\n      0x0b791430\n      eq\n      tag_6\n      jumpi\n      dup1\n      0x17c87252\n      eq\n      tag_7\n      jumpi\n      dup1\n      0x23b872dd\n      eq\n      tag_8\n      jumpi\n      dup1\n      0x3c7cad9b\n      eq\n      tag_9\n      jumpi\n      0x00\n      dup1\n      revert\n    tag_20:\n      dup1\n      0x01ffc9a7\n      eq\n      tag_2\n      jumpi\n      dup1\n      0x06fdde03\n      eq\n      tag_3\n      jumpi\n      dup1\n      0x081812fc\n      eq\n      tag_4\n      jumpi\n      dup1\n      0x095ea7b3\n      eq\n      tag_5\n      jumpi\n    tag_1:\n      0x00\n      dup1\n      revert\n        /* \"@openzeppelin/contracts/token/ERC721/ERC721.sol\":1561:1861  function supportsInterface(bytes4 interfaceId) public view virtual override(ERC165, IERC165) returns (bool) {... */\n    tag_2:\n      callvalue\n      dup1\n      iszero\n      tag_21\n      jumpi\n      0x00\n      dup1\n      revert\n    tag_21:\n      pop\n      tag_22\n      tag_23\n      calldatasize\n      0x04\n      tag_24\n      jump\t// in\n    tag_23:\n      tag_25\n      jump\t// in\n    tag_22:\n      mload(0x40)\n        /* \"#utility.yul\":565:579   */\n      swap1\n      iszero\n        /* \"#utility.yul\":558:580   */\n      iszero\n        /* \"#utility.yul\":540:581   */\n      dup2\n      mstore\n        /* \"#utility.yul\":528:530   */\n      0x20\n        /* \"#utility.yul\":513:531   */\n      add\n        /* \"@openzeppelin/contracts/token/ERC721/ERC721.sol\":1561:1861  function supportsInterface(bytes4 interfaceId) public view virtual override(ERC165, IERC165) returns (bool) {... */\n    tag_26:\n      mload(0x40)\n      dup1\n      swap2\n      sub\n      swap1\n      return\n        /* \"@openzeppelin/contracts/token/ERC721/ERC721.sol\":2365:2454  function name() public view virtual returns (string memory) {... */\n    tag_3:\n      callvalue\n      dup1\n      iszero\n      tag_28\n      jumpi\n      0x00\n      dup1\n      revert\n    tag_28:\n      pop\n      tag_29\n      tag_30\n      jump\t// in\n    tag_29:\n      mload(0x40)\n      tag_26\n      swap2\n      swap1\n      tag_32\n      jump\t// in\n        /* \"@openzeppelin/contracts/token/ERC721/ERC721.sol\":3497:3651  function getApproved(uint256 tokenId) public view virtual returns (address) {... */\n    tag_4:\n      callvalue\n      dup1\n      iszero\n      tag_33\n      jumpi\n      0x00\n      dup1\n      revert\n    tag_33:\n      pop\n      tag_34\n      tag_35\n      calldatasize\n      0x04\n      tag_36\n      jump\t// in\n    tag_35:\n      tag_37\n      jump\t// in\n    tag_34:\n      mload(0x40)\n      sub(shl(0xa0, 0x01), 0x01)\n        /* \"#utility.yul\":1528:1560   */\n      swap1\n      swap2\n      and\n        /* \"#utility.yul\":1510:1561   */\n      dup2\n      mstore\n        /* \"#utility.yul\":1498:1500   */\n      0x20\n        /* \"#utility.yul\":1483:1501   */\n      add\n        /* \"@openzeppelin/contracts/token/ERC721/ERC721.sol\":3497:3651  function getApproved(uint256 tokenId) public view virtual returns (address) {... */\n      tag_26\n        /* \"#utility.yul\":1364:1567   */\n      jump\n        /* \"@openzeppelin/contracts/token/ERC721/ERC721.sol\":3323:3436  function approve(address to, uint256 tokenId) public virtual {... */\n    tag_5:\n      callvalue\n      dup1\n      iszero\n      tag_40\n      jumpi\n      0x00\n      dup1\n      revert\n    tag_40:\n      pop\n      tag_41\n      tag_42\n      calldatasize\n      0x04\n      tag_43\n      jump\t// in\n    tag_42:\n      tag_44\n      jump\t// in\n    tag_41:\n      stop\n        /* \"NFT Tokens/Tk3.sol\":406:442  mapping(uint => Event) public events */\n    tag_6:\n      callvalue\n      dup1\n      iszero\n      tag_45\n      jumpi\n      0x00\n      dup1\n      revert\n    tag_45:\n      pop\n      tag_46\n      tag_47\n      calldatasize\n      0x04\n      tag_36\n      jump\t// in\n    tag_47:\n      tag_48\n      jump\t// in\n    tag_46:\n      mload(0x40)\n      tag_26\n      swap4\n      swap3\n      swap2\n      swap1\n      tag_50\n      jump\t// in\n        /* \"NFT Tokens/Tk3.sol\":605:1014  function createEvent(string memory name, uint startTime, uint price, uint eventId, address to) public payable {... */\n    tag_7:\n      tag_41\n      tag_52\n      calldatasize\n      0x04\n      tag_53\n      jump\t// in\n    tag_52:\n      tag_54\n      jump\t// in\n        /* \"@openzeppelin/contracts/token/ERC721/ERC721.sol\":4143:4721  function transferFrom(address from, address to, uint256 tokenId) public virtual {... */\n    tag_8:\n      callvalue\n      dup1\n      iszero\n      tag_55\n      jumpi\n      0x00\n      dup1\n      revert\n    tag_55:\n      pop\n      tag_41\n      tag_57\n      calldatasize\n      0x04\n      tag_58\n      jump\t// in\n    tag_57:\n      tag_59\n      jump\t// in\n        /* \"NFT Tokens/Tk3.sol\":1020:1207  function verifyTicket(uint eventId, uint tokenId, address owner) public view returns(bool) {... */\n    tag_9:\n      callvalue\n      dup1\n      iszero\n      tag_60\n      jumpi\n      0x00\n      dup1\n      revert\n    tag_60:\n      pop\n      tag_22\n      tag_62\n      calldatasize\n      0x04\n      tag_63\n      jump\t// in\n    tag_62:\n      tag_64\n      jump\t// in\n        /* \"@openzeppelin/contracts/token/ERC721/ERC721.sol\":4787:4919  function safeTransferFrom(address from, address to, uint256 tokenId) public {... */\n    tag_10:\n      callvalue\n      dup1\n      iszero\n      tag_66\n      jumpi\n      0x00\n      dup1\n      revert\n    tag_66:\n      pop\n      tag_41\n      tag_68\n      calldatasize\n      0x04\n      tag_58\n      jump\t// in\n    tag_68:\n      tag_69\n      jump\t// in\n        /* \"@openzeppelin/contracts/token/ERC721/ERC721.sol\":2185:2303  function ownerOf(uint256 tokenId) public view virtual returns (address) {... */\n    tag_11:\n      callvalue\n      dup1\n      iszero\n      tag_70\n      jumpi\n      0x00\n      dup1\n      revert\n    tag_70:\n      pop\n      tag_34\n      tag_72\n      calldatasize\n      0x04\n      tag_36\n      jump\t// in\n    tag_72:\n      tag_73\n      jump\t// in\n        /* \"@openzeppelin/contracts/token/ERC721/ERC721.sol\":1920:2128  function balanceOf(address owner) public view virtual returns (uint256) {... */\n    tag_12:\n      callvalue\n      dup1\n      iszero\n      tag_75\n      jumpi\n      0x00\n      dup1\n      revert\n    tag_75:\n      pop\n      tag_76\n      tag_77\n      calldatasize\n      0x04\n      tag_78\n      jump\t// in\n    tag_77:\n      tag_79\n      jump\t// in\n    tag_76:\n      mload(0x40)\n        /* \"#utility.yul\":5317:5342   */\n      swap1\n      dup2\n      mstore\n        /* \"#utility.yul\":5305:5307   */\n      0x20\n        /* \"#utility.yul\":5290:5308   */\n      add\n        /* \"@openzeppelin/contracts/token/ERC721/ERC721.sol\":1920:2128  function balanceOf(address owner) public view virtual returns (uint256) {... */\n      tag_26\n        /* \"#utility.yul\":5171:5348   */\n      jump\n        /* \"@openzeppelin/contracts/token/ERC721/ERC721.sol\":2518:2611  function symbol() public view virtual returns (string memory) {... */\n    tag_13:\n      callvalue\n      dup1\n      iszero\n      tag_82\n      jumpi\n      0x00\n      dup1\n      revert\n    tag_82:\n      pop\n      tag_29\n      tag_84\n      jump\t// in\n        /* \"@openzeppelin/contracts/token/ERC721/ERC721.sol\":3718:3862  function setApprovalForAll(address operator, bool approved) public virtual {... */\n    tag_14:\n      callvalue\n      dup1\n      iszero\n      tag_86\n      jumpi\n      0x00\n      dup1\n      revert\n    tag_86:\n      pop\n      tag_41\n      tag_88\n      calldatasize\n      0x04\n      tag_89\n      jump\t// in\n    tag_88:\n      tag_90\n      jump\t// in\n        /* \"@openzeppelin/contracts/token/ERC721/ERC721.sol\":4985:5193  function safeTransferFrom(address from, address to, uint256 tokenId, bytes memory data) public virtual {... */\n    tag_15:\n      callvalue\n      dup1\n      iszero\n      tag_91\n      jumpi\n      0x00\n      dup1\n      revert\n    tag_91:\n      pop\n      tag_41\n      tag_93\n      calldatasize\n      0x04\n      tag_94\n      jump\t// in\n    tag_93:\n      tag_95\n      jump\t// in\n        /* \"@openzeppelin/contracts/token/ERC721/ERC721.sol\":2677:2932  function tokenURI(uint256 tokenId) public view virtual returns (string memory) {... */\n    tag_16:\n      callvalue\n      dup1\n      iszero\n      tag_96\n      jumpi\n      0x00\n      dup1\n      revert\n    tag_96:\n      pop\n      tag_29\n      tag_98\n      calldatasize\n      0x04\n      tag_36\n      jump\t// in\n    tag_98:\n      tag_99\n      jump\t// in\n        /* \"@openzeppelin/contracts/token/ERC721/ERC721.sol\":3928:4081  function isApprovedForAll(address owner, address operator) public view virtual returns (bool) {... */\n    tag_17:\n      callvalue\n      dup1\n      iszero\n      tag_101\n      jumpi\n      0x00\n      dup1\n      revert\n    tag_101:\n      pop\n      tag_22\n      tag_103\n      calldatasize\n      0x04\n      tag_104\n      jump\t// in\n    tag_103:\n      tag_105\n      jump\t// in\n        /* \"@openzeppelin/contracts/token/ERC721/ERC721.sol\":1561:1861  function supportsInterface(bytes4 interfaceId) public view virtual override(ERC165, IERC165) returns (bool) {... */\n    tag_25:\n        /* \"@openzeppelin/contracts/token/ERC721/ERC721.sol\":1663:1667  bool */\n      0x00\n      not(sub(shl(0xe0, 0x01), 0x01))\n        /* \"@openzeppelin/contracts/token/ERC721/ERC721.sol\":1698:1738  interfaceId == type(IERC721).interfaceId */\n      dup3\n      and\n      shl(0xe0, 0x80ac58cd)\n      eq\n      dup1\n        /* \"@openzeppelin/contracts/token/ERC721/ERC721.sol\":1698:1802  interfaceId == type(IERC721).interfaceId ||... */\n      tag_108\n      jumpi\n      pop\n      not(sub(shl(0xe0, 0x01), 0x01))\n        /* \"@openzeppelin/contracts/token/ERC721/ERC721.sol\":1754:1802  interfaceId == type(IERC721Metadata).interfaceId */\n      dup3\n      and\n      shl(0xe0, 0x5b5e139f)\n      eq\n        /* \"@openzeppelin/contracts/token/ERC721/ERC721.sol\":1698:1802  interfaceId == type(IERC721).interfaceId ||... */\n    tag_108:\n        /* \"@openzeppelin/contracts/token/ERC721/ERC721.sol\":1698:1854  interfaceId == type(IERC721).interfaceId ||... */\n      dup1\n      tag_110\n      jumpi\n      pop\n      shl(0xe0, 0x01ffc9a7)\n      not(sub(shl(0xe0, 0x01), 0x01))\n        /* \"@openzeppelin/contracts/utils/introspection/ERC165.sol\":861:901  interfaceId == type(IERC165).interfaceId */\n      dup4\n      and\n      eq\n        /* \"@openzeppelin/contracts/token/ERC721/ERC721.sol\":1818:1854  super.supportsInterface(interfaceId) */\n    tag_110:\n        /* \"@openzeppelin/contracts/token/ERC721/ERC721.sol\":1679:1854  return... */\n      swap3\n        /* \"@openzeppelin/contracts/token/ERC721/ERC721.sol\":1561:1861  function supportsInterface(bytes4 interfaceId) public view virtual override(ERC165, IERC165) returns (bool) {... */\n      swap2\n      pop\n      pop\n      jump\t// out\n        /* \"@openzeppelin/contracts/token/ERC721/ERC721.sol\":2365:2454  function name() public view virtual returns (string memory) {... */\n    tag_30:\n        /* \"@openzeppelin/contracts/token/ERC721/ERC721.sol\":2410:2423  string memory */\n      0x60\n        /* \"@openzeppelin/contracts/token/ERC721/ERC721.sol\":2442:2447  _name */\n      0x00\n        /* \"@openzeppelin/contracts/token/ERC721/ERC721.sol\":2435:2447  return _name */\n      dup1\n      sload\n      tag_113\n      swap1\n      tag_114\n      jump\t// in\n    tag_113:\n      dup1\n      0x1f\n      add\n      0x20\n      dup1\n      swap2\n      div\n      mul\n      0x20\n      add\n      mload(0x40)\n      swap1\n      dup2\n      add\n      0x40\n      mstore\n      dup1\n      swap3\n      swap2\n      swap1\n      dup2\n      dup2\n      mstore\n      0x20\n      add\n      dup3\n      dup1\n      sload\n      tag_115\n      swap1\n      tag_114\n      jump\t// in\n    tag_115:\n      dup1\n      iszero\n      tag_116\n      jumpi\n      dup1\n      0x1f\n      lt\n      tag_117\n      jumpi\n      0x0100\n      dup1\n      dup4\n      sload\n      div\n      mul\n      dup4\n      mstore\n      swap2\n      0x20\n      add\n      swap2\n      jump(tag_116)\n    tag_117:\n      dup3\n      add\n      swap2\n      swap1\n      0x00\n      mstore\n      keccak256(0x00, 0x20)\n      swap1\n    tag_118:\n      dup2\n      sload\n      dup2\n      mstore\n      swap1\n      0x01\n      add\n      swap1\n      0x20\n      add\n      dup1\n      dup4\n      gt\n      tag_118\n      jumpi\n      dup3\n      swap1\n      sub\n      0x1f\n      and\n      dup3\n      add\n      swap2\n    tag_116:\n      pop\n      pop\n      pop\n      pop\n      pop\n      swap1\n      pop\n        /* \"@openzeppelin/contracts/token/ERC721/ERC721.sol\":2365:2454  function name() public view virtual returns (string memory) {... */\n      swap1\n      jump\t// out\n        /* \"@openzeppelin/contracts/token/ERC721/ERC721.sol\":3497:3651  function getApproved(uint256 tokenId) public view virtual returns (address) {... */\n    tag_37:\n        /* \"@openzeppelin/contracts/token/ERC721/ERC721.sol\":3564:3571  address */\n      0x00\n        /* \"@openzeppelin/contracts/token/ERC721/ERC721.sol\":3583:3605  _requireOwned(tokenId) */\n      tag_120\n        /* \"@openzeppelin/contracts/token/ERC721/ERC721.sol\":3597:3604  tokenId */\n      dup3\n        /* \"@openzeppelin/contracts/token/ERC721/ERC721.sol\":3583:3596  _requireOwned */\n      tag_121\n        /* \"@openzeppelin/contracts/token/ERC721/ERC721.sol\":3583:3605  _requireOwned(tokenId) */\n      jump\t// in\n    tag_120:\n      pop\n        /* \"@openzeppelin/contracts/token/ERC721/ERC721.sol\":6008:6015  address */\n      0x00\n        /* \"@openzeppelin/contracts/token/ERC721/ERC721.sol\":6034:6058  _tokenApprovals[tokenId] */\n      dup3\n      dup2\n      mstore\n        /* \"@openzeppelin/contracts/token/ERC721/ERC721.sol\":6034:6049  _tokenApprovals */\n      0x04\n        /* \"@openzeppelin/contracts/token/ERC721/ERC721.sol\":6034:6058  _tokenApprovals[tokenId] */\n      0x20\n      mstore\n      0x40\n      swap1\n      keccak256\n      sload\n      sub(shl(0xa0, 0x01), 0x01)\n      and\n        /* \"@openzeppelin/contracts/token/ERC721/ERC721.sol\":3623:3644  _getApproved(tokenId) */\n      tag_110\n        /* \"@openzeppelin/contracts/token/ERC721/ERC721.sol\":5938:6065  function _getApproved(uint256 tokenId) internal view virtual returns (address) {... */\n      jump\n        /* \"@openzeppelin/contracts/token/ERC721/ERC721.sol\":3323:3436  function approve(address to, uint256 tokenId) public virtual {... */\n    tag_44:\n        /* \"@openzeppelin/contracts/token/ERC721/ERC721.sol\":3394:3429  _approve(to, tokenId, _msgSender()) */\n      tag_125\n        /* \"@openzeppelin/contracts/token/ERC721/ERC721.sol\":3403:3405  to */\n      dup3\n        /* \"@openzeppelin/contracts/token/ERC721/ERC721.sol\":3407:3414  tokenId */\n      dup3\n        /* \"@openzeppelin/contracts/utils/Context.sol\":735:745  msg.sender */\n      caller\n        /* \"@openzeppelin/contracts/token/ERC721/ERC721.sol\":3394:3402  _approve */\n      tag_128\n        /* \"@openzeppelin/contracts/token/ERC721/ERC721.sol\":3394:3429  _approve(to, tokenId, _msgSender()) */\n      jump\t// in\n    tag_125:\n        /* \"@openzeppelin/contracts/token/ERC721/ERC721.sol\":3323:3436  function approve(address to, uint256 tokenId) public virtual {... */\n      pop\n      pop\n      jump\t// out\n        /* \"NFT Tokens/Tk3.sol\":406:442  mapping(uint => Event) public events */\n    tag_48:\n      mstore(0x20, 0x07)\n      0x00\n      swap1\n      dup2\n      mstore\n      0x40\n      swap1\n      keccak256\n      dup1\n      sload\n      dup2\n      swap1\n      tag_129\n      swap1\n      tag_114\n      jump\t// in\n    tag_129:\n      dup1\n      0x1f\n      add\n      0x20\n      dup1\n      swap2\n      div\n      mul\n      0x20\n      add\n      mload(0x40)\n      swap1\n      dup2\n      add\n      0x40\n      mstore\n      dup1\n      swap3\n      swap2\n      swap1\n      dup2\n      dup2\n      mstore\n      0x20\n      add\n      dup3\n      dup1\n      sload\n      tag_130\n      swap1\n      tag_114\n      jump\t// in\n    tag_130:\n      dup1\n      iszero\n      tag_131\n      jumpi\n      dup1\n      0x1f\n      lt\n      tag_132\n      jumpi\n      0x0100\n      dup1\n      dup4\n      sload\n      div\n      mul\n      dup4\n      mstore\n      swap2\n      0x20\n      add\n      swap2\n      jump(tag_131)\n    tag_132:\n      dup3\n      add\n      swap2\n      swap1\n      0x00\n      mstore\n      keccak256(0x00, 0x20)\n      swap1\n    tag_133:\n      dup2\n      sload\n      dup2\n      mstore\n      swap1\n      0x01\n      add\n      swap1\n      0x20\n      add\n      dup1\n      dup4\n      gt\n      tag_133\n      jumpi\n      dup3\n      swap1\n      sub\n      0x1f\n      and\n      dup3\n      add\n      swap2\n    tag_131:\n      pop\n      pop\n      pop\n      pop\n      pop\n      swap1\n      dup1\n      0x01\n      add\n      sload\n      swap1\n      dup1\n      0x02\n      add\n      sload\n      swap1\n      pop\n      dup4\n      jump\t// out\n        /* \"NFT Tokens/Tk3.sol\":605:1014  function createEvent(string memory name, uint startTime, uint price, uint eventId, address to) public payable {... */\n    tag_54:\n        /* \"NFT Tokens/Tk3.sol\":733:748  events[eventId] */\n      0x00\n      dup3\n      dup2\n      mstore\n        /* \"NFT Tokens/Tk3.sol\":733:739  events */\n      0x07\n        /* \"NFT Tokens/Tk3.sol\":733:748  events[eventId] */\n      0x20\n      mstore\n      0x40\n      swap1\n      keccak256\n        /* \"NFT Tokens/Tk3.sol\":733:754  events[eventId].price */\n      0x02\n      add\n      sload\n        /* \"NFT Tokens/Tk3.sol\":758:767  msg.value */\n      callvalue\n        /* \"NFT Tokens/Tk3.sol\":733:767  events[eventId].price == msg.value */\n      eq\n        /* \"NFT Tokens/Tk3.sol\":725:796  require(events[eventId].price == msg.value, \"Incorrect payment amount\") */\n      tag_135\n      jumpi\n      mload(0x40)\n      shl(0xe5, 0x461bcd)\n      dup2\n      mstore\n        /* \"#utility.yul\":7275:7277   */\n      0x20\n        /* \"NFT Tokens/Tk3.sol\":725:796  require(events[eventId].price == msg.value, \"Incorrect payment amount\") */\n      0x04\n      dup3\n      add\n        /* \"#utility.yul\":7257:7278   */\n      mstore\n        /* \"#utility.yul\":7314:7316   */\n      0x18\n        /* \"#utility.yul\":7294:7312   */\n      0x24\n      dup3\n      add\n        /* \"#utility.yul\":7287:7317   */\n      mstore\n        /* \"#utility.yul\":7353:7379   */\n      0x496e636f7272656374207061796d656e7420616d6f756e740000000000000000\n        /* \"#utility.yul\":7333:7351   */\n      0x44\n      dup3\n      add\n        /* \"#utility.yul\":7326:7380   */\n      mstore\n        /* \"#utility.yul\":7397:7415   */\n      0x64\n      add\n        /* \"NFT Tokens/Tk3.sol\":725:796  require(events[eventId].price == msg.value, \"Incorrect payment amount\") */\n    tag_136:\n      mload(0x40)\n      dup1\n      swap2\n      sub\n      swap1\n      revert\n    tag_135:\n        /* \"NFT Tokens/Tk3.sol\":832:841  startTime */\n      dup4\n        /* \"NFT Tokens/Tk3.sol\":814:829  block.timestamp */\n      timestamp\n        /* \"NFT Tokens/Tk3.sol\":814:841  block.timestamp < startTime */\n      lt\n        /* \"NFT Tokens/Tk3.sol\":806:871  require(block.timestamp < startTime, \"Event has already started\") */\n      tag_138\n      jumpi\n      mload(0x40)\n      shl(0xe5, 0x461bcd)\n      dup2\n      mstore\n        /* \"#utility.yul\":7628:7630   */\n      0x20\n        /* \"NFT Tokens/Tk3.sol\":806:871  require(block.timestamp < startTime, \"Event has already started\") */\n      0x04\n      dup3\n      add\n        /* \"#utility.yul\":7610:7631   */\n      mstore\n        /* \"#utility.yul\":7667:7669   */\n      0x19\n        /* \"#utility.yul\":7647:7665   */\n      0x24\n      dup3\n      add\n        /* \"#utility.yul\":7640:7670   */\n      mstore\n        /* \"#utility.yul\":7706:7733   */\n      0x4576656e742068617320616c7265616479207374617274656400000000000000\n        /* \"#utility.yul\":7686:7704   */\n      0x44\n      dup3\n      add\n        /* \"#utility.yul\":7679:7734   */\n      mstore\n        /* \"#utility.yul\":7751:7769   */\n      0x64\n      add\n        /* \"NFT Tokens/Tk3.sol\":806:871  require(block.timestamp < startTime, \"Event has already started\") */\n      tag_136\n        /* \"#utility.yul\":7426:7775   */\n      jump\n        /* \"NFT Tokens/Tk3.sol\":806:871  require(block.timestamp < startTime, \"Event has already started\") */\n    tag_138:\n        /* \"NFT Tokens/Tk3.sol\":881:893  uint tokenId */\n      0x00\n        /* \"NFT Tokens/Tk3.sol\":896:920  _ticketCounters[eventId] */\n      dup3\n      dup2\n      mstore\n        /* \"NFT Tokens/Tk3.sol\":896:911  _ticketCounters */\n      0x06\n        /* \"NFT Tokens/Tk3.sol\":896:920  _ticketCounters[eventId] */\n      0x20\n      mstore\n      0x40\n      swap1\n      keccak256\n        /* \"@openzeppelin/contracts/utils/Counters.sol\":918:932  counter._value */\n      sload\n        /* \"NFT Tokens/Tk3.sol\":940:958  _mint(to, tokenId) */\n      tag_143\n        /* \"NFT Tokens/Tk3.sol\":946:948  to */\n      dup3\n        /* \"@openzeppelin/contracts/utils/Counters.sol\":918:932  counter._value */\n      dup3\n        /* \"NFT Tokens/Tk3.sol\":940:945  _mint */\n      tag_144\n        /* \"NFT Tokens/Tk3.sol\":940:958  _mint(to, tokenId) */\n      jump\t// in\n    tag_143:\n        /* \"NFT Tokens/Tk3.sol\":973:1007  TicketMinted(eventId, tokenId, to) */\n      0x40\n      dup1\n      mload\n        /* \"#utility.yul\":7982:8007   */\n      dup5\n      dup2\n      mstore\n        /* \"#utility.yul\":8038:8040   */\n      0x20\n        /* \"#utility.yul\":8023:8041   */\n      dup2\n      add\n        /* \"#utility.yul\":8016:8050   */\n      dup4\n      swap1\n      mstore\n      sub(shl(0xa0, 0x01), 0x01)\n        /* \"#utility.yul\":8086:8118   */\n      dup5\n      and\n        /* \"#utility.yul\":8066:8084   */\n      dup2\n      dup4\n      add\n        /* \"#utility.yul\":8059:8119   */\n      mstore\n        /* \"NFT Tokens/Tk3.sol\":973:1007  TicketMinted(eventId, tokenId, to) */\n      swap1\n      mload\n      0x085ec0eff4bf526b0dd054adffcd8bd8da42126a1133ce302042973f32029fb0\n      swap2\n      dup2\n      swap1\n      sub\n        /* \"#utility.yul\":7970:7972   */\n      0x60\n        /* \"NFT Tokens/Tk3.sol\":973:1007  TicketMinted(eventId, tokenId, to) */\n      add\n      swap1\n      log1\n        /* \"NFT Tokens/Tk3.sol\":715:1014  {... */\n      pop\n        /* \"NFT Tokens/Tk3.sol\":605:1014  function createEvent(string memory name, uint startTime, uint price, uint eventId, address to) public payable {... */\n      pop\n      pop\n      pop\n      pop\n      pop\n      jump\t// out\n        /* \"@openzeppelin/contracts/token/ERC721/ERC721.sol\":4143:4721  function transferFrom(address from, address to, uint256 tokenId) public virtual {... */\n    tag_59:\n      sub(shl(0xa0, 0x01), 0x01)\n        /* \"@openzeppelin/contracts/token/ERC721/ERC721.sol\":4237:4253  to == address(0) */\n      dup3\n      and\n        /* \"@openzeppelin/contracts/token/ERC721/ERC721.sol\":4233:4320  if (to == address(0)) {... */\n      tag_148\n      jumpi\n        /* \"@openzeppelin/contracts/token/ERC721/ERC721.sol\":4276:4309  ERC721InvalidReceiver(address(0)) */\n      mload(0x40)\n      shl(0xe1, 0x32505749)\n      dup2\n      mstore\n        /* \"@openzeppelin/contracts/token/ERC721/ERC721.sol\":4306:4307  0 */\n      0x00\n        /* \"@openzeppelin/contracts/token/ERC721/ERC721.sol\":4276:4309  ERC721InvalidReceiver(address(0)) */\n      0x04\n      dup3\n      add\n        /* \"#utility.yul\":1510:1561   */\n      mstore\n        /* \"#utility.yul\":1483:1501   */\n      0x24\n      add\n        /* \"@openzeppelin/contracts/token/ERC721/ERC721.sol\":4276:4309  ERC721InvalidReceiver(address(0)) */\n      tag_136\n        /* \"#utility.yul\":1364:1567   */\n      jump\n        /* \"@openzeppelin/contracts/token/ERC721/ERC721.sol\":4233:4320  if (to == address(0)) {... */\n    tag_148:\n        /* \"@openzeppelin/contracts/token/ERC721/ERC721.sol\":4538:4559  address previousOwner */\n      0x00\n        /* \"@openzeppelin/contracts/token/ERC721/ERC721.sol\":4562:4596  _update(to, tokenId, _msgSender()) */\n      tag_150\n        /* \"@openzeppelin/contracts/token/ERC721/ERC721.sol\":4570:4572  to */\n      dup4\n        /* \"@openzeppelin/contracts/token/ERC721/ERC721.sol\":4574:4581  tokenId */\n      dup4\n        /* \"@openzeppelin/contracts/utils/Context.sol\":735:745  msg.sender */\n      caller\n        /* \"@openzeppelin/contracts/token/ERC721/ERC721.sol\":4562:4569  _update */\n      tag_152\n        /* \"@openzeppelin/contracts/token/ERC721/ERC721.sol\":4562:4596  _update(to, tokenId, _msgSender()) */\n      jump\t// in\n    tag_150:\n        /* \"@openzeppelin/contracts/token/ERC721/ERC721.sol\":4538:4596  address previousOwner = _update(to, tokenId, _msgSender()) */\n      swap1\n      pop\n        /* \"@openzeppelin/contracts/token/ERC721/ERC721.sol\":4627:4631  from */\n      dup4\n      sub(shl(0xa0, 0x01), 0x01)\n        /* \"@openzeppelin/contracts/token/ERC721/ERC721.sol\":4610:4631  previousOwner != from */\n      and\n        /* \"@openzeppelin/contracts/token/ERC721/ERC721.sol\":4610:4623  previousOwner */\n      dup2\n      sub(shl(0xa0, 0x01), 0x01)\n        /* \"@openzeppelin/contracts/token/ERC721/ERC721.sol\":4610:4631  previousOwner != from */\n      and\n      eq\n        /* \"@openzeppelin/contracts/token/ERC721/ERC721.sol\":4606:4715  if (previousOwner != from) {... */\n      tag_153\n      jumpi\n        /* \"@openzeppelin/contracts/token/ERC721/ERC721.sol\":4654:4704  ERC721IncorrectOwner(from, tokenId, previousOwner) */\n      mload(0x40)\n      shl(0xe0, 0x64283d7b)\n      dup2\n      mstore\n      sub(shl(0xa0, 0x01), 0x01)\n        /* \"#utility.yul\":8350:8382   */\n      dup1\n      dup7\n      and\n        /* \"@openzeppelin/contracts/token/ERC721/ERC721.sol\":4654:4704  ERC721IncorrectOwner(from, tokenId, previousOwner) */\n      0x04\n      dup4\n      add\n        /* \"#utility.yul\":8332:8383   */\n      mstore\n        /* \"#utility.yul\":8399:8417   */\n      0x24\n      dup3\n      add\n        /* \"#utility.yul\":8392:8426   */\n      dup5\n      swap1\n      mstore\n        /* \"#utility.yul\":8462:8494   */\n      dup3\n      and\n        /* \"#utility.yul\":8442:8460   */\n      0x44\n      dup3\n      add\n        /* \"#utility.yul\":8435:8495   */\n      mstore\n        /* \"#utility.yul\":8305:8323   */\n      0x64\n      add\n        /* \"@openzeppelin/contracts/token/ERC721/ERC721.sol\":4654:4704  ERC721IncorrectOwner(from, tokenId, previousOwner) */\n      tag_136\n        /* \"#utility.yul\":8130:8501   */\n      jump\n        /* \"@openzeppelin/contracts/token/ERC721/ERC721.sol\":4606:4715  if (previousOwner != from) {... */\n    tag_153:\n        /* \"@openzeppelin/contracts/token/ERC721/ERC721.sol\":4223:4721  {... */\n      pop\n        /* \"@openzeppelin/contracts/token/ERC721/ERC721.sol\":4143:4721  function transferFrom(address from, address to, uint256 tokenId) public virtual {... */\n      pop\n      pop\n      pop\n      jump\t// out\n        /* \"NFT Tokens/Tk3.sol\":1020:1207  function verifyTicket(uint eventId, uint tokenId, address owner) public view returns(bool) {... */\n    tag_64:\n        /* \"NFT Tokens/Tk3.sol\":1105:1109  bool */\n      0x00\n        /* \"NFT Tokens/Tk3.sol\":1148:1153  owner */\n      dup2\n      sub(shl(0xa0, 0x01), 0x01)\n        /* \"NFT Tokens/Tk3.sol\":1128:1153  ownerOf(tokenId) == owner */\n      and\n        /* \"NFT Tokens/Tk3.sol\":1128:1144  ownerOf(tokenId) */\n      tag_157\n        /* \"NFT Tokens/Tk3.sol\":1136:1143  tokenId */\n      dup5\n        /* \"NFT Tokens/Tk3.sol\":1128:1135  ownerOf */\n      tag_73\n        /* \"NFT Tokens/Tk3.sol\":1128:1144  ownerOf(tokenId) */\n      jump\t// in\n    tag_157:\n      sub(shl(0xa0, 0x01), 0x01)\n        /* \"NFT Tokens/Tk3.sol\":1128:1153  ownerOf(tokenId) == owner */\n      and\n      eq\n        /* \"NFT Tokens/Tk3.sol\":1128:1200  ownerOf(tokenId) == owner && events[eventId].startTime > block.timestamp */\n      dup1\n      iszero\n      tag_158\n      jumpi\n      pop\n        /* \"NFT Tokens/Tk3.sol\":1157:1172  events[eventId] */\n      0x00\n      dup5\n      dup2\n      mstore\n        /* \"NFT Tokens/Tk3.sol\":1157:1163  events */\n      0x07\n        /* \"NFT Tokens/Tk3.sol\":1157:1172  events[eventId] */\n      0x20\n      mstore\n      0x40\n      swap1\n      keccak256\n        /* \"NFT Tokens/Tk3.sol\":1157:1182  events[eventId].startTime */\n      0x01\n      add\n      sload\n        /* \"NFT Tokens/Tk3.sol\":1185:1200  block.timestamp */\n      timestamp\n      lt\n        /* \"NFT Tokens/Tk3.sol\":1128:1200  ownerOf(tokenId) == owner && events[eventId].startTime > block.timestamp */\n    tag_158:\n        /* \"NFT Tokens/Tk3.sol\":1121:1200  return ownerOf(tokenId) == owner && events[eventId].startTime > block.timestamp */\n      swap5\n        /* \"NFT Tokens/Tk3.sol\":1020:1207  function verifyTicket(uint eventId, uint tokenId, address owner) public view returns(bool) {... */\n      swap4\n      pop\n      pop\n      pop\n      pop\n      jump\t// out\n        /* \"@openzeppelin/contracts/token/ERC721/ERC721.sol\":4787:4919  function safeTransferFrom(address from, address to, uint256 tokenId) public {... */\n    tag_69:\n        /* \"@openzeppelin/contracts/token/ERC721/ERC721.sol\":4873:4912  safeTransferFrom(from, to, tokenId, \"\") */\n      tag_160\n        /* \"@openzeppelin/contracts/token/ERC721/ERC721.sol\":4890:4894  from */\n      dup4\n        /* \"@openzeppelin/contracts/token/ERC721/ERC721.sol\":4896:4898  to */\n      dup4\n        /* \"@openzeppelin/contracts/token/ERC721/ERC721.sol\":4900:4907  tokenId */\n      dup4\n        /* \"@openzeppelin/contracts/token/ERC721/ERC721.sol\":4873:4912  safeTransferFrom(from, to, tokenId, \"\") */\n      mload(0x40)\n      dup1\n      0x20\n      add\n      0x40\n      mstore\n      dup1\n      0x00\n      dup2\n      mstore\n      pop\n        /* \"@openzeppelin/contracts/token/ERC721/ERC721.sol\":4873:4889  safeTransferFrom */\n      tag_95\n        /* \"@openzeppelin/contracts/token/ERC721/ERC721.sol\":4873:4912  safeTransferFrom(from, to, tokenId, \"\") */\n      jump\t// in\n    tag_160:\n        /* \"@openzeppelin/contracts/token/ERC721/ERC721.sol\":4787:4919  function safeTransferFrom(address from, address to, uint256 tokenId) public {... */\n      pop\n      pop\n      pop\n      jump\t// out\n        /* \"@openzeppelin/contracts/token/ERC721/ERC721.sol\":2185:2303  function ownerOf(uint256 tokenId) public view virtual returns (address) {... */\n    tag_73:\n        /* \"@openzeppelin/contracts/token/ERC721/ERC721.sol\":2248:2255  address */\n      0x00\n        /* \"@openzeppelin/contracts/token/ERC721/ERC721.sol\":2274:2296  _requireOwned(tokenId) */\n      tag_110\n        /* \"@openzeppelin/contracts/token/ERC721/ERC721.sol\":2288:2295  tokenId */\n      dup3\n        /* \"@openzeppelin/contracts/token/ERC721/ERC721.sol\":2274:2287  _requireOwned */\n      tag_121\n        /* \"@openzeppelin/contracts/token/ERC721/ERC721.sol\":2274:2296  _requireOwned(tokenId) */\n      jump\t// in\n        /* \"@openzeppelin/contracts/token/ERC721/ERC721.sol\":1920:2128  function balanceOf(address owner) public view virtual returns (uint256) {... */\n    tag_79:\n        /* \"@openzeppelin/contracts/token/ERC721/ERC721.sol\":1983:1990  uint256 */\n      0x00\n      sub(shl(0xa0, 0x01), 0x01)\n        /* \"@openzeppelin/contracts/token/ERC721/ERC721.sol\":2006:2025  owner == address(0) */\n      dup3\n      and\n        /* \"@openzeppelin/contracts/token/ERC721/ERC721.sol\":2002:2089  if (owner == address(0)) {... */\n      tag_164\n      jumpi\n        /* \"@openzeppelin/contracts/token/ERC721/ERC721.sol\":2048:2078  ERC721InvalidOwner(address(0)) */\n      mload(0x40)\n      shl(0xe2, 0x22718ad9)\n      dup2\n      mstore\n        /* \"@openzeppelin/contracts/token/ERC721/ERC721.sol\":2075:2076  0 */\n      0x00\n        /* \"@openzeppelin/contracts/token/ERC721/ERC721.sol\":2048:2078  ERC721InvalidOwner(address(0)) */\n      0x04\n      dup3\n      add\n        /* \"#utility.yul\":1510:1561   */\n      mstore\n        /* \"#utility.yul\":1483:1501   */\n      0x24\n      add\n        /* \"@openzeppelin/contracts/token/ERC721/ERC721.sol\":2048:2078  ERC721InvalidOwner(address(0)) */\n      tag_136\n        /* \"#utility.yul\":1364:1567   */\n      jump\n        /* \"@openzeppelin/contracts/token/ERC721/ERC721.sol\":2002:2089  if (owner == address(0)) {... */\n    tag_164:\n      pop\n      sub(shl(0xa0, 0x01), 0x01)\n        /* \"@openzeppelin/contracts/token/ERC721/ERC721.sol\":2105:2121  _balances[owner] */\n      and\n      0x00\n      swap1\n      dup2\n      mstore\n        /* \"@openzeppelin/contracts/token/ERC721/ERC721.sol\":2105:2114  _balances */\n      0x03\n        /* \"@openzeppelin/contracts/token/ERC721/ERC721.sol\":2105:2121  _balances[owner] */\n      0x20\n      mstore\n      0x40\n      swap1\n      keccak256\n      sload\n      swap1\n        /* \"@openzeppelin/contracts/token/ERC721/ERC721.sol\":1920:2128  function balanceOf(address owner) public view virtual returns (uint256) {... */\n      jump\t// out\n        /* \"@openzeppelin/contracts/token/ERC721/ERC721.sol\":2518:2611  function symbol() public view virtual returns (string memory) {... */\n    tag_84:\n        /* \"@openzeppelin/contracts/token/ERC721/ERC721.sol\":2565:2578  string memory */\n      0x60\n        /* \"@openzeppelin/contracts/token/ERC721/ERC721.sol\":2597:2604  _symbol */\n      0x01\n        /* \"@openzeppelin/contracts/token/ERC721/ERC721.sol\":2590:2604  return _symbol */\n      dup1\n      sload\n      tag_113\n      swap1\n      tag_114\n      jump\t// in\n        /* \"@openzeppelin/contracts/token/ERC721/ERC721.sol\":3718:3862  function setApprovalForAll(address operator, bool approved) public virtual {... */\n    tag_90:\n        /* \"@openzeppelin/contracts/token/ERC721/ERC721.sol\":3803:3855  _setApprovalForAll(_msgSender(), operator, approved) */\n      tag_125\n        /* \"@openzeppelin/contracts/utils/Context.sol\":735:745  msg.sender */\n      caller\n        /* \"@openzeppelin/contracts/token/ERC721/ERC721.sol\":3836:3844  operator */\n      dup4\n        /* \"@openzeppelin/contracts/token/ERC721/ERC721.sol\":3846:3854  approved */\n      dup4\n        /* \"@openzeppelin/contracts/token/ERC721/ERC721.sol\":3803:3821  _setApprovalForAll */\n      tag_175\n        /* \"@openzeppelin/contracts/token/ERC721/ERC721.sol\":3803:3855  _setApprovalForAll(_msgSender(), operator, approved) */\n      jump\t// in\n        /* \"@openzeppelin/contracts/token/ERC721/ERC721.sol\":4985:5193  function safeTransferFrom(address from, address to, uint256 tokenId, bytes memory data) public virtual {... */\n    tag_95:\n        /* \"@openzeppelin/contracts/token/ERC721/ERC721.sol\":5098:5129  transferFrom(from, to, tokenId) */\n      tag_177\n        /* \"@openzeppelin/contracts/token/ERC721/ERC721.sol\":5111:5115  from */\n      dup5\n        /* \"@openzeppelin/contracts/token/ERC721/ERC721.sol\":5117:5119  to */\n      dup5\n        /* \"@openzeppelin/contracts/token/ERC721/ERC721.sol\":5121:5128  tokenId */\n      dup5\n        /* \"@openzeppelin/contracts/token/ERC721/ERC721.sol\":5098:5110  transferFrom */\n      tag_59\n        /* \"@openzeppelin/contracts/token/ERC721/ERC721.sol\":5098:5129  transferFrom(from, to, tokenId) */\n      jump\t// in\n    tag_177:\n        /* \"@openzeppelin/contracts/token/ERC721/ERC721.sol\":5139:5186  _checkOnERC721Received(from, to, tokenId, data) */\n      tag_153\n        /* \"@openzeppelin/contracts/token/ERC721/ERC721.sol\":5162:5166  from */\n      dup5\n        /* \"@openzeppelin/contracts/token/ERC721/ERC721.sol\":5168:5170  to */\n      dup5\n        /* \"@openzeppelin/contracts/token/ERC721/ERC721.sol\":5172:5179  tokenId */\n      dup5\n        /* \"@openzeppelin/contracts/token/ERC721/ERC721.sol\":5181:5185  data */\n      dup5\n        /* \"@openzeppelin/contracts/token/ERC721/ERC721.sol\":5139:5161  _checkOnERC721Received */\n      tag_179\n        /* \"@openzeppelin/contracts/token/ERC721/ERC721.sol\":5139:5186  _checkOnERC721Received(from, to, tokenId, data) */\n      jump\t// in\n        /* \"@openzeppelin/contracts/token/ERC721/ERC721.sol\":2677:2932  function tokenURI(uint256 tokenId) public view virtual returns (string memory) {... */\n    tag_99:\n        /* \"@openzeppelin/contracts/token/ERC721/ERC721.sol\":2741:2754  string memory */\n      0x60\n        /* \"@openzeppelin/contracts/token/ERC721/ERC721.sol\":2766:2788  _requireOwned(tokenId) */\n      tag_181\n        /* \"@openzeppelin/contracts/token/ERC721/ERC721.sol\":2780:2787  tokenId */\n      dup3\n        /* \"@openzeppelin/contracts/token/ERC721/ERC721.sol\":2766:2779  _requireOwned */\n      tag_121\n        /* \"@openzeppelin/contracts/token/ERC721/ERC721.sol\":2766:2788  _requireOwned(tokenId) */\n      jump\t// in\n    tag_181:\n      pop\n        /* \"@openzeppelin/contracts/token/ERC721/ERC721.sol\":2799:2820  string memory baseURI */\n      0x00\n        /* \"@openzeppelin/contracts/token/ERC721/ERC721.sol\":2823:2833  _baseURI() */\n      tag_182\n        /* \"@openzeppelin/contracts/token/ERC721/ERC721.sol\":3250:3259  return \"\" */\n      0x40\n      dup1\n      mload\n      0x20\n      dup2\n      add\n      swap1\n      swap2\n      mstore\n      0x00\n      dup2\n      mstore\n      swap1\n        /* \"@openzeppelin/contracts/token/ERC721/ERC721.sol\":3174:3266  function _baseURI() internal view virtual returns (string memory) {... */\n      jump\n        /* \"@openzeppelin/contracts/token/ERC721/ERC721.sol\":2823:2833  _baseURI() */\n    tag_182:\n        /* \"@openzeppelin/contracts/token/ERC721/ERC721.sol\":2799:2833  string memory baseURI = _baseURI() */\n      swap1\n      pop\n        /* \"@openzeppelin/contracts/token/ERC721/ERC721.sol\":2874:2875  0 */\n      0x00\n        /* \"@openzeppelin/contracts/token/ERC721/ERC721.sol\":2856:2863  baseURI */\n      dup2\n        /* \"@openzeppelin/contracts/token/ERC721/ERC721.sol\":2850:2871  bytes(baseURI).length */\n      mload\n        /* \"@openzeppelin/contracts/token/ERC721/ERC721.sol\":2850:2875  bytes(baseURI).length > 0 */\n      gt\n        /* \"@openzeppelin/contracts/token/ERC721/ERC721.sol\":2850:2925  bytes(baseURI).length > 0 ? string.concat(baseURI, tokenId.toString()) : \"\" */\n      tag_184\n      jumpi\n      mload(0x40)\n      dup1\n      0x20\n      add\n      0x40\n      mstore\n      dup1\n      0x00\n      dup2\n      mstore\n      pop\n      jump(tag_185)\n    tag_184:\n        /* \"@openzeppelin/contracts/token/ERC721/ERC721.sol\":2892:2899  baseURI */\n      dup1\n        /* \"@openzeppelin/contracts/token/ERC721/ERC721.sol\":2901:2919  tokenId.toString() */\n      tag_186\n        /* \"@openzeppelin/contracts/token/ERC721/ERC721.sol\":2901:2908  tokenId */\n      dup5\n        /* \"@openzeppelin/contracts/token/ERC721/ERC721.sol\":2901:2917  tokenId.toString */\n      tag_187\n        /* \"@openzeppelin/contracts/token/ERC721/ERC721.sol\":2901:2919  tokenId.toString() */\n      jump\t// in\n    tag_186:\n        /* \"@openzeppelin/contracts/token/ERC721/ERC721.sol\":2878:2920  string.concat(baseURI, tokenId.toString()) */\n      add(0x20, mload(0x40))\n      tag_188\n      swap3\n      swap2\n      swap1\n      tag_189\n      jump\t// in\n    tag_188:\n      mload(0x40)\n      0x20\n      dup2\n      dup4\n      sub\n      sub\n      dup2\n      mstore\n      swap1\n      0x40\n      mstore\n        /* \"@openzeppelin/contracts/token/ERC721/ERC721.sol\":2850:2925  bytes(baseURI).length > 0 ? string.concat(baseURI, tokenId.toString()) : \"\" */\n    tag_185:\n        /* \"@openzeppelin/contracts/token/ERC721/ERC721.sol\":2843:2925  return bytes(baseURI).length > 0 ? string.concat(baseURI, tokenId.toString()) : \"\" */\n      swap4\n        /* \"@openzeppelin/contracts/token/ERC721/ERC721.sol\":2677:2932  function tokenURI(uint256 tokenId) public view virtual returns (string memory) {... */\n      swap3\n      pop\n      pop\n      pop\n      jump\t// out\n        /* \"@openzeppelin/contracts/token/ERC721/ERC721.sol\":3928:4081  function isApprovedForAll(address owner, address operator) public view virtual returns (bool) {... */\n    tag_105:\n      sub(shl(0xa0, 0x01), 0x01)\n        /* \"@openzeppelin/contracts/token/ERC721/ERC721.sol\":4039:4064  _operatorApprovals[owner] */\n      swap2\n      dup3\n      and\n        /* \"@openzeppelin/contracts/token/ERC721/ERC721.sol\":4016:4020  bool */\n      0x00\n        /* \"@openzeppelin/contracts/token/ERC721/ERC721.sol\":4039:4064  _operatorApprovals[owner] */\n      swap1\n      dup2\n      mstore\n        /* \"@openzeppelin/contracts/token/ERC721/ERC721.sol\":4039:4057  _operatorApprovals */\n      0x05\n        /* \"@openzeppelin/contracts/token/ERC721/ERC721.sol\":4039:4064  _operatorApprovals[owner] */\n      0x20\n      swap1\n      dup2\n      mstore\n      0x40\n      dup1\n      dup4\n      keccak256\n        /* \"@openzeppelin/contracts/token/ERC721/ERC721.sol\":4039:4074  _operatorApprovals[owner][operator] */\n      swap4\n      swap1\n      swap5\n      and\n      dup3\n      mstore\n      swap2\n      swap1\n      swap2\n      mstore\n      keccak256\n      sload\n      0xff\n      and\n      swap1\n        /* \"@openzeppelin/contracts/token/ERC721/ERC721.sol\":3928:4081  function isApprovedForAll(address owner, address operator) public view virtual returns (bool) {... */\n      jump\t// out\n        /* \"@openzeppelin/contracts/token/ERC721/ERC721.sol\":16138:16379  function _requireOwned(uint256 tokenId) internal view returns (address) {... */\n    tag_121:\n        /* \"@openzeppelin/contracts/token/ERC721/ERC721.sol\":16201:16208  address */\n      0x00\n        /* \"@openzeppelin/contracts/token/ERC721/ERC721.sol\":5799:5815  _owners[tokenId] */\n      dup2\n      dup2\n      mstore\n        /* \"@openzeppelin/contracts/token/ERC721/ERC721.sol\":5799:5806  _owners */\n      0x02\n        /* \"@openzeppelin/contracts/token/ERC721/ERC721.sol\":5799:5815  _owners[tokenId] */\n      0x20\n      mstore\n      0x40\n      dup2\n      keccak256\n      sload\n      sub(shl(0xa0, 0x01), 0x01)\n      and\n      dup1\n        /* \"@openzeppelin/contracts/token/ERC721/ERC721.sol\":16263:16351  if (owner == address(0)) {... */\n      tag_110\n      jumpi\n        /* \"@openzeppelin/contracts/token/ERC721/ERC721.sol\":16309:16340  ERC721NonexistentToken(tokenId) */\n      mload(0x40)\n      shl(0xe0, 0x7e273289)\n      dup2\n      mstore\n      0x04\n      dup2\n      add\n        /* \"#utility.yul\":5317:5342   */\n      dup5\n      swap1\n      mstore\n        /* \"#utility.yul\":5290:5308   */\n      0x24\n      add\n        /* \"@openzeppelin/contracts/token/ERC721/ERC721.sol\":16309:16340  ERC721NonexistentToken(tokenId) */\n      tag_136\n        /* \"#utility.yul\":5171:5348   */\n      jump\n        /* \"@openzeppelin/contracts/token/ERC721/ERC721.sol\":14418:14538  function _approve(address to, uint256 tokenId, address auth) internal {... */\n    tag_128:\n        /* \"@openzeppelin/contracts/token/ERC721/ERC721.sol\":14498:14531  _approve(to, tokenId, auth, true) */\n      tag_160\n        /* \"@openzeppelin/contracts/token/ERC721/ERC721.sol\":14507:14509  to */\n      dup4\n        /* \"@openzeppelin/contracts/token/ERC721/ERC721.sol\":14511:14518  tokenId */\n      dup4\n        /* \"@openzeppelin/contracts/token/ERC721/ERC721.sol\":14520:14524  auth */\n      dup4\n        /* \"@openzeppelin/contracts/token/ERC721/ERC721.sol\":14526:14530  true */\n      0x01\n        /* \"@openzeppelin/contracts/token/ERC721/ERC721.sol\":14498:14506  _approve */\n      tag_201\n        /* \"@openzeppelin/contracts/token/ERC721/ERC721.sol\":14498:14531  _approve(to, tokenId, auth, true) */\n      jump\t// in\n        /* \"@openzeppelin/contracts/token/ERC721/ERC721.sol\":9955:10282  function _mint(address to, uint256 tokenId) internal {... */\n    tag_144:\n      sub(shl(0xa0, 0x01), 0x01)\n        /* \"@openzeppelin/contracts/token/ERC721/ERC721.sol\":10022:10038  to == address(0) */\n      dup3\n      and\n        /* \"@openzeppelin/contracts/token/ERC721/ERC721.sol\":10018:10105  if (to == address(0)) {... */\n      tag_204\n      jumpi\n        /* \"@openzeppelin/contracts/token/ERC721/ERC721.sol\":10061:10094  ERC721InvalidReceiver(address(0)) */\n      mload(0x40)\n      shl(0xe1, 0x32505749)\n      dup2\n      mstore\n        /* \"@openzeppelin/contracts/token/ERC721/ERC721.sol\":10091:10092  0 */\n      0x00\n        /* \"@openzeppelin/contracts/token/ERC721/ERC721.sol\":10061:10094  ERC721InvalidReceiver(address(0)) */\n      0x04\n      dup3\n      add\n        /* \"#utility.yul\":1510:1561   */\n      mstore\n        /* \"#utility.yul\":1483:1501   */\n      0x24\n      add\n        /* \"@openzeppelin/contracts/token/ERC721/ERC721.sol\":10061:10094  ERC721InvalidReceiver(address(0)) */\n      tag_136\n        /* \"#utility.yul\":1364:1567   */\n      jump\n        /* \"@openzeppelin/contracts/token/ERC721/ERC721.sol\":10018:10105  if (to == address(0)) {... */\n    tag_204:\n        /* \"@openzeppelin/contracts/token/ERC721/ERC721.sol\":10114:10135  address previousOwner */\n      0x00\n        /* \"@openzeppelin/contracts/token/ERC721/ERC721.sol\":10138:10170  _update(to, tokenId, address(0)) */\n      tag_206\n        /* \"@openzeppelin/contracts/token/ERC721/ERC721.sol\":10146:10148  to */\n      dup4\n        /* \"@openzeppelin/contracts/token/ERC721/ERC721.sol\":10150:10157  tokenId */\n      dup4\n        /* \"@openzeppelin/contracts/token/ERC721/ERC721.sol\":10167:10168  0 */\n      0x00\n        /* \"@openzeppelin/contracts/token/ERC721/ERC721.sol\":10138:10145  _update */\n      tag_152\n        /* \"@openzeppelin/contracts/token/ERC721/ERC721.sol\":10138:10170  _update(to, tokenId, address(0)) */\n      jump\t// in\n    tag_206:\n        /* \"@openzeppelin/contracts/token/ERC721/ERC721.sol\":10114:10170  address previousOwner = _update(to, tokenId, address(0)) */\n      swap1\n      pop\n      sub(shl(0xa0, 0x01), 0x01)\n        /* \"@openzeppelin/contracts/token/ERC721/ERC721.sol\":10184:10211  previousOwner != address(0) */\n      dup2\n      and\n      iszero\n        /* \"@openzeppelin/contracts/token/ERC721/ERC721.sol\":10180:10276  if (previousOwner != address(0)) {... */\n      tag_160\n      jumpi\n        /* \"@openzeppelin/contracts/token/ERC721/ERC721.sol\":10234:10265  ERC721InvalidSender(address(0)) */\n      mload(0x40)\n      shl(0xe1, 0x39e35637)\n      dup2\n      mstore\n        /* \"@openzeppelin/contracts/token/ERC721/ERC721.sol\":10262:10263  0 */\n      0x00\n        /* \"@openzeppelin/contracts/token/ERC721/ERC721.sol\":10234:10265  ERC721InvalidSender(address(0)) */\n      0x04\n      dup3\n      add\n        /* \"#utility.yul\":1510:1561   */\n      mstore\n        /* \"#utility.yul\":1483:1501   */\n      0x24\n      add\n        /* \"@openzeppelin/contracts/token/ERC721/ERC721.sol\":10234:10265  ERC721InvalidSender(address(0)) */\n      tag_136\n        /* \"#utility.yul\":1364:1567   */\n      jump\n        /* \"@openzeppelin/contracts/token/ERC721/ERC721.sol\":8838:9633  function _update(address to, uint256 tokenId, address auth) internal virtual returns (address) {... */\n    tag_152:\n        /* \"@openzeppelin/contracts/token/ERC721/ERC721.sol\":8924:8931  address */\n      0x00\n        /* \"@openzeppelin/contracts/token/ERC721/ERC721.sol\":5799:5815  _owners[tokenId] */\n      dup3\n      dup2\n      mstore\n        /* \"@openzeppelin/contracts/token/ERC721/ERC721.sol\":5799:5806  _owners */\n      0x02\n        /* \"@openzeppelin/contracts/token/ERC721/ERC721.sol\":5799:5815  _owners[tokenId] */\n      0x20\n      mstore\n      0x40\n      dup2\n      keccak256\n      sload\n      sub(shl(0xa0, 0x01), 0x01)\n      swap1\n      dup2\n      and\n      swap1\n        /* \"@openzeppelin/contracts/token/ERC721/ERC721.sol\":9035:9053  auth != address(0) */\n      dup4\n      and\n      iszero\n        /* \"@openzeppelin/contracts/token/ERC721/ERC721.sol\":9031:9117  if (auth != address(0)) {... */\n      tag_212\n      jumpi\n        /* \"@openzeppelin/contracts/token/ERC721/ERC721.sol\":9069:9106  _checkAuthorized(from, auth, tokenId) */\n      tag_212\n        /* \"@openzeppelin/contracts/token/ERC721/ERC721.sol\":9086:9090  from */\n      dup2\n        /* \"@openzeppelin/contracts/token/ERC721/ERC721.sol\":9092:9096  auth */\n      dup5\n        /* \"@openzeppelin/contracts/token/ERC721/ERC721.sol\":9098:9105  tokenId */\n      dup7\n        /* \"@openzeppelin/contracts/token/ERC721/ERC721.sol\":9069:9085  _checkAuthorized */\n      tag_213\n        /* \"@openzeppelin/contracts/token/ERC721/ERC721.sol\":9069:9106  _checkAuthorized(from, auth, tokenId) */\n      jump\t// in\n    tag_212:\n      sub(shl(0xa0, 0x01), 0x01)\n        /* \"@openzeppelin/contracts/token/ERC721/ERC721.sol\":9161:9179  from != address(0) */\n      dup2\n      and\n      iszero\n        /* \"@openzeppelin/contracts/token/ERC721/ERC721.sol\":9157:9413  if (from != address(0)) {... */\n      tag_214\n      jumpi\n        /* \"@openzeppelin/contracts/token/ERC721/ERC721.sol\":9277:9325  _approve(address(0), tokenId, address(0), false) */\n      tag_215\n        /* \"@openzeppelin/contracts/token/ERC721/ERC721.sol\":9294:9295  0 */\n      0x00\n        /* \"@openzeppelin/contracts/token/ERC721/ERC721.sol\":9298:9305  tokenId */\n      dup6\n        /* \"@openzeppelin/contracts/token/ERC721/ERC721.sol\":9315:9316  0 */\n      0x00\n        /* \"@openzeppelin/contracts/token/ERC721/ERC721.sol\":9319:9324  false */\n      dup1\n        /* \"@openzeppelin/contracts/token/ERC721/ERC721.sol\":9277:9285  _approve */\n      tag_201\n        /* \"@openzeppelin/contracts/token/ERC721/ERC721.sol\":9277:9325  _approve(address(0), tokenId, address(0), false) */\n      jump\t// in\n    tag_215:\n      sub(shl(0xa0, 0x01), 0x01)\n        /* \"@openzeppelin/contracts/token/ERC721/ERC721.sol\":9368:9383  _balances[from] */\n      dup2\n      and\n      0x00\n      swap1\n      dup2\n      mstore\n        /* \"@openzeppelin/contracts/token/ERC721/ERC721.sol\":9368:9377  _balances */\n      0x03\n        /* \"@openzeppelin/contracts/token/ERC721/ERC721.sol\":9368:9383  _balances[from] */\n      0x20\n      mstore\n      0x40\n      swap1\n      keccak256\n        /* \"@openzeppelin/contracts/token/ERC721/ERC721.sol\":9368:9388  _balances[from] -= 1 */\n      dup1\n      sload\n      not(0x00)\n      add\n      swap1\n      sstore\n        /* \"@openzeppelin/contracts/token/ERC721/ERC721.sol\":9157:9413  if (from != address(0)) {... */\n    tag_214:\n      sub(shl(0xa0, 0x01), 0x01)\n        /* \"@openzeppelin/contracts/token/ERC721/ERC721.sol\":9427:9443  to != address(0) */\n      dup6\n      and\n      iszero\n        /* \"@openzeppelin/contracts/token/ERC721/ERC721.sol\":9423:9530  if (to != address(0)) {... */\n      tag_216\n      jumpi\n      sub(shl(0xa0, 0x01), 0x01)\n        /* \"@openzeppelin/contracts/token/ERC721/ERC721.sol\":9487:9500  _balances[to] */\n      dup6\n      and\n      0x00\n      swap1\n      dup2\n      mstore\n        /* \"@openzeppelin/contracts/token/ERC721/ERC721.sol\":9487:9496  _balances */\n      0x03\n        /* \"@openzeppelin/contracts/token/ERC721/ERC721.sol\":9487:9500  _balances[to] */\n      0x20\n      mstore\n      0x40\n      swap1\n      keccak256\n        /* \"@openzeppelin/contracts/token/ERC721/ERC721.sol\":9487:9505  _balances[to] += 1 */\n      dup1\n      sload\n        /* \"@openzeppelin/contracts/token/ERC721/ERC721.sol\":9504:9505  1 */\n      0x01\n        /* \"@openzeppelin/contracts/token/ERC721/ERC721.sol\":9487:9505  _balances[to] += 1 */\n      add\n      swap1\n      sstore\n        /* \"@openzeppelin/contracts/token/ERC721/ERC721.sol\":9423:9530  if (to != address(0)) {... */\n    tag_216:\n        /* \"@openzeppelin/contracts/token/ERC721/ERC721.sol\":9540:9556  _owners[tokenId] */\n      0x00\n      dup5\n      dup2\n      mstore\n        /* \"@openzeppelin/contracts/token/ERC721/ERC721.sol\":9540:9547  _owners */\n      0x02\n        /* \"@openzeppelin/contracts/token/ERC721/ERC721.sol\":9540:9556  _owners[tokenId] */\n      0x20\n      mstore\n      0x40\n      dup1\n      dup3\n      keccak256\n        /* \"@openzeppelin/contracts/token/ERC721/ERC721.sol\":9540:9561  _owners[tokenId] = to */\n      dup1\n      sload\n      not(sub(shl(0xa0, 0x01), 0x01))\n      and\n      sub(shl(0xa0, 0x01), 0x01)\n      dup10\n      dup2\n      and\n      swap2\n      dup3\n      or\n      swap1\n      swap3\n      sstore\n        /* \"@openzeppelin/contracts/token/ERC721/ERC721.sol\":9577:9604  Transfer(from, to, tokenId) */\n      swap2\n      mload\n        /* \"@openzeppelin/contracts/token/ERC721/ERC721.sol\":9540:9556  _owners[tokenId] */\n      dup8\n      swap4\n        /* \"@openzeppelin/contracts/token/ERC721/ERC721.sol\":9577:9604  Transfer(from, to, tokenId) */\n      swap2\n      dup6\n      and\n      swap2\n      0xddf252ad1be2c89b69c2b068fc378daa952ba7f163c4a11628f55a4df523b3ef\n      swap2\n      log4\n        /* \"@openzeppelin/contracts/token/ERC721/ERC721.sol\":9622:9626  from */\n      swap5\n        /* \"@openzeppelin/contracts/token/ERC721/ERC721.sol\":8838:9633  function _update(address to, uint256 tokenId, address auth) internal virtual returns (address) {... */\n      swap4\n      pop\n      pop\n      pop\n      pop\n      jump\t// out\n        /* \"@openzeppelin/contracts/token/ERC721/ERC721.sol\":15591:15903  function _setApprovalForAll(address owner, address operator, bool approved) internal virtual {... */\n    tag_175:\n      sub(shl(0xa0, 0x01), 0x01)\n        /* \"@openzeppelin/contracts/token/ERC721/ERC721.sol\":15698:15720  operator == address(0) */\n      dup3\n      and\n        /* \"@openzeppelin/contracts/token/ERC721/ERC721.sol\":15694:15785  if (operator == address(0)) {... */\n      tag_218\n      jumpi\n        /* \"@openzeppelin/contracts/token/ERC721/ERC721.sol\":15743:15774  ERC721InvalidOperator(operator) */\n      mload(0x40)\n      shl(0xe3, 0x0b611743)\n      dup2\n      mstore\n      sub(shl(0xa0, 0x01), 0x01)\n        /* \"#utility.yul\":1528:1560   */\n      dup4\n      and\n        /* \"@openzeppelin/contracts/token/ERC721/ERC721.sol\":15743:15774  ERC721InvalidOperator(operator) */\n      0x04\n      dup3\n      add\n        /* \"#utility.yul\":1510:1561   */\n      mstore\n        /* \"#utility.yul\":1483:1501   */\n      0x24\n      add\n        /* \"@openzeppelin/contracts/token/ERC721/ERC721.sol\":15743:15774  ERC721InvalidOperator(operator) */\n      tag_136\n        /* \"#utility.yul\":1364:1567   */\n      jump\n        /* \"@openzeppelin/contracts/token/ERC721/ERC721.sol\":15694:15785  if (operator == address(0)) {... */\n    tag_218:\n      sub(shl(0xa0, 0x01), 0x01)\n        /* \"@openzeppelin/contracts/token/ERC721/ERC721.sol\":15794:15819  _operatorApprovals[owner] */\n      dup4\n      dup2\n      and\n      0x00\n      dup2\n      dup2\n      mstore\n        /* \"@openzeppelin/contracts/token/ERC721/ERC721.sol\":15794:15812  _operatorApprovals */\n      0x05\n        /* \"@openzeppelin/contracts/token/ERC721/ERC721.sol\":15794:15819  _operatorApprovals[owner] */\n      0x20\n      swap1\n      dup2\n      mstore\n      0x40\n      dup1\n      dup4\n      keccak256\n        /* \"@openzeppelin/contracts/token/ERC721/ERC721.sol\":15794:15829  _operatorApprovals[owner][operator] */\n      swap5\n      dup8\n      and\n      dup1\n      dup5\n      mstore\n      swap5\n      dup3\n      mstore\n      swap2\n      dup3\n      swap1\n      keccak256\n        /* \"@openzeppelin/contracts/token/ERC721/ERC721.sol\":15794:15840  _operatorApprovals[owner][operator] = approved */\n      dup1\n      sload\n      not(0xff)\n      and\n      dup7\n      iszero\n      iszero\n      swap1\n      dup2\n      or\n      swap1\n      swap2\n      sstore\n        /* \"@openzeppelin/contracts/token/ERC721/ERC721.sol\":15855:15896  ApprovalForAll(owner, operator, approved) */\n      swap2\n      mload\n        /* \"#utility.yul\":540:581   */\n      swap2\n      dup3\n      mstore\n        /* \"@openzeppelin/contracts/token/ERC721/ERC721.sol\":15855:15896  ApprovalForAll(owner, operator, approved) */\n      0x17307eab39ab6107e8899845ad3d59bd9653f200f220920489ca2b5937696c31\n      swap2\n        /* \"#utility.yul\":513:531   */\n      add\n        /* \"@openzeppelin/contracts/token/ERC721/ERC721.sol\":15855:15896  ApprovalForAll(owner, operator, approved) */\n      mload(0x40)\n      dup1\n      swap2\n      sub\n      swap1\n      log3\n        /* \"@openzeppelin/contracts/token/ERC721/ERC721.sol\":15591:15903  function _setApprovalForAll(address owner, address operator, bool approved) internal virtual {... */\n      pop\n      pop\n      pop\n      jump\t// out\n        /* \"@openzeppelin/contracts/token/ERC721/ERC721.sol\":16918:17700  function _checkOnERC721Received(address from, address to, uint256 tokenId, bytes memory data) private {... */\n    tag_179:\n      sub(shl(0xa0, 0x01), 0x01)\n        /* \"@openzeppelin/contracts/token/ERC721/ERC721.sol\":17034:17048  to.code.length */\n      dup4\n      and\n      extcodesize\n        /* \"@openzeppelin/contracts/token/ERC721/ERC721.sol\":17034:17052  to.code.length > 0 */\n      iszero\n        /* \"@openzeppelin/contracts/token/ERC721/ERC721.sol\":17030:17694  if (to.code.length > 0) {... */\n      tag_153\n      jumpi\n        /* \"@openzeppelin/contracts/token/ERC721/ERC721.sol\":17072:17143  IERC721Receiver(to).onERC721Received(_msgSender(), from, tokenId, data) */\n      mload(0x40)\n      shl(0xe1, 0x0a85bd01)\n      dup2\n      mstore\n      sub(shl(0xa0, 0x01), 0x01)\n        /* \"@openzeppelin/contracts/token/ERC721/ERC721.sol\":17072:17108  IERC721Receiver(to).onERC721Received */\n      dup5\n      and\n      swap1\n      0x150b7a02\n      swap1\n        /* \"@openzeppelin/contracts/token/ERC721/ERC721.sol\":17072:17143  IERC721Receiver(to).onERC721Received(_msgSender(), from, tokenId, data) */\n      tag_224\n      swap1\n        /* \"@openzeppelin/contracts/utils/Context.sol\":735:745  msg.sender */\n      caller\n      swap1\n        /* \"@openzeppelin/contracts/token/ERC721/ERC721.sol\":17123:17127  from */\n      dup9\n      swap1\n        /* \"@openzeppelin/contracts/token/ERC721/ERC721.sol\":17129:17136  tokenId */\n      dup8\n      swap1\n        /* \"@openzeppelin/contracts/token/ERC721/ERC721.sol\":17138:17142  data */\n      dup8\n      swap1\n        /* \"@openzeppelin/contracts/token/ERC721/ERC721.sol\":17072:17143  IERC721Receiver(to).onERC721Received(_msgSender(), from, tokenId, data) */\n      0x04\n      add\n      tag_225\n      jump\t// in\n    tag_224:\n      0x20\n      mload(0x40)\n      dup1\n      dup4\n      sub\n      dup2\n      0x00\n      dup8\n      gas\n      call\n      swap3\n      pop\n      pop\n      pop\n      dup1\n      iszero\n      tag_226\n      jumpi\n      pop\n      0x40\n      dup1\n      mload\n      0x1f\n      returndatasize\n      swap1\n      dup2\n      add\n      not(0x1f)\n      and\n      dup3\n      add\n      swap1\n      swap3\n      mstore\n      tag_227\n      swap2\n      dup2\n      add\n      swap1\n      tag_228\n      jump\t// in\n    tag_227:\n      0x01\n    tag_226:\n        /* \"@openzeppelin/contracts/token/ERC721/ERC721.sol\":17068:17684  try IERC721Receiver(to).onERC721Received(_msgSender(), from, tokenId, data) returns (bytes4 retval) {... */\n      tag_229\n      jumpi\n      returndatasize\n      dup1\n      dup1\n      iszero\n      tag_234\n      jumpi\n      mload(0x40)\n      swap2\n      pop\n      and(add(returndatasize, 0x3f), not(0x1f))\n      dup3\n      add\n      0x40\n      mstore\n      returndatasize\n      dup3\n      mstore\n      returndatasize\n      0x00\n      0x20\n      dup5\n      add\n      returndatacopy\n      jump(tag_233)\n    tag_234:\n      0x60\n      swap2\n      pop\n    tag_233:\n      pop\n        /* \"@openzeppelin/contracts/token/ERC721/ERC721.sol\":17381:17387  reason */\n      dup1\n        /* \"@openzeppelin/contracts/token/ERC721/ERC721.sol\":17381:17394  reason.length */\n      mload\n        /* \"@openzeppelin/contracts/token/ERC721/ERC721.sol\":17398:17399  0 */\n      0x00\n        /* \"@openzeppelin/contracts/token/ERC721/ERC721.sol\":17381:17399  reason.length == 0 */\n      sub\n        /* \"@openzeppelin/contracts/token/ERC721/ERC721.sol\":17377:17670  if (reason.length == 0) {... */\n      tag_235\n      jumpi\n        /* \"@openzeppelin/contracts/token/ERC721/ERC721.sol\":17430:17455  ERC721InvalidReceiver(to) */\n      mload(0x40)\n      shl(0xe1, 0x32505749)\n      dup2\n      mstore\n      sub(shl(0xa0, 0x01), 0x01)\n        /* \"#utility.yul\":1528:1560   */\n      dup6\n      and\n        /* \"@openzeppelin/contracts/token/ERC721/ERC721.sol\":17430:17455  ERC721InvalidReceiver(to) */\n      0x04\n      dup3\n      add\n        /* \"#utility.yul\":1510:1561   */\n      mstore\n        /* \"#utility.yul\":1483:1501   */\n      0x24\n      add\n        /* \"@openzeppelin/contracts/token/ERC721/ERC721.sol\":17430:17455  ERC721InvalidReceiver(to) */\n      tag_136\n        /* \"#utility.yul\":1364:1567   */\n      jump\n        /* \"@openzeppelin/contracts/token/ERC721/ERC721.sol\":17377:17670  if (reason.length == 0) {... */\n    tag_235:\n        /* \"@openzeppelin/contracts/token/ERC721/ERC721.sol\":17622:17628  reason */\n      dup1\n        /* \"@openzeppelin/contracts/token/ERC721/ERC721.sol\":17616:17629  mload(reason) */\n      mload\n        /* \"@openzeppelin/contracts/token/ERC721/ERC721.sol\":17607:17613  reason */\n      dup2\n        /* \"@openzeppelin/contracts/token/ERC721/ERC721.sol\":17603:17605  32 */\n      0x20\n        /* \"@openzeppelin/contracts/token/ERC721/ERC721.sol\":17599:17614  add(32, reason) */\n      add\n        /* \"@openzeppelin/contracts/token/ERC721/ERC721.sol\":17592:17630  revert(add(32, reason), mload(reason)) */\n      revert\n        /* \"@openzeppelin/contracts/token/ERC721/ERC721.sol\":17068:17684  try IERC721Receiver(to).onERC721Received(_msgSender(), from, tokenId, data) returns (bytes4 retval) {... */\n    tag_229:\n      not(sub(shl(0xe0, 0x01), 0x01))\n        /* \"@openzeppelin/contracts/token/ERC721/ERC721.sol\":17190:17241  retval != IERC721Receiver.onERC721Received.selector */\n      dup2\n      and\n      shl(0xe1, 0x0a85bd01)\n      eq\n        /* \"@openzeppelin/contracts/token/ERC721/ERC721.sol\":17186:17316  if (retval != IERC721Receiver.onERC721Received.selector) {... */\n      tag_239\n      jumpi\n        /* \"@openzeppelin/contracts/token/ERC721/ERC721.sol\":17272:17297  ERC721InvalidReceiver(to) */\n      mload(0x40)\n      shl(0xe1, 0x32505749)\n      dup2\n      mstore\n      sub(shl(0xa0, 0x01), 0x01)\n        /* \"#utility.yul\":1528:1560   */\n      dup6\n      and\n        /* \"@openzeppelin/contracts/token/ERC721/ERC721.sol\":17272:17297  ERC721InvalidReceiver(to) */\n      0x04\n      dup3\n      add\n        /* \"#utility.yul\":1510:1561   */\n      mstore\n        /* \"#utility.yul\":1483:1501   */\n      0x24\n      add\n        /* \"@openzeppelin/contracts/token/ERC721/ERC721.sol\":17272:17297  ERC721InvalidReceiver(to) */\n      tag_136\n        /* \"#utility.yul\":1364:1567   */\n      jump\n        /* \"@openzeppelin/contracts/token/ERC721/ERC721.sol\":17186:17316  if (retval != IERC721Receiver.onERC721Received.selector) {... */\n    tag_239:\n        /* \"@openzeppelin/contracts/token/ERC721/ERC721.sol\":17144:17330  returns (bytes4 retval) {... */\n      pop\n        /* \"@openzeppelin/contracts/token/ERC721/ERC721.sol\":16918:17700  function _checkOnERC721Received(address from, address to, uint256 tokenId, bytes memory data) private {... */\n      pop\n      pop\n      pop\n      pop\n      jump\t// out\n        /* \"@openzeppelin/contracts/utils/Strings.sol\":637:1335  function toString(uint256 value) internal pure returns (string memory) {... */\n    tag_187:\n        /* \"@openzeppelin/contracts/utils/Strings.sol\":693:706  string memory */\n      0x60\n        /* \"@openzeppelin/contracts/utils/Strings.sol\":742:756  uint256 length */\n      0x00\n        /* \"@openzeppelin/contracts/utils/Strings.sol\":759:776  Math.log10(value) */\n      tag_243\n        /* \"@openzeppelin/contracts/utils/Strings.sol\":770:775  value */\n      dup4\n        /* \"@openzeppelin/contracts/utils/Strings.sol\":759:769  Math.log10 */\n      tag_244\n        /* \"@openzeppelin/contracts/utils/Strings.sol\":759:776  Math.log10(value) */\n      jump\t// in\n    tag_243:\n        /* \"@openzeppelin/contracts/utils/Strings.sol\":779:780  1 */\n      0x01\n        /* \"@openzeppelin/contracts/utils/Strings.sol\":759:780  Math.log10(value) + 1 */\n      add\n        /* \"@openzeppelin/contracts/utils/Strings.sol\":742:780  uint256 length = Math.log10(value) + 1 */\n      swap1\n      pop\n        /* \"@openzeppelin/contracts/utils/Strings.sol\":794:814  string memory buffer */\n      0x00\n        /* \"@openzeppelin/contracts/utils/Strings.sol\":828:834  length */\n      dup2\n        /* \"@openzeppelin/contracts/utils/Strings.sol\":817:835  new string(length) */\n      0xffffffffffffffff\n      dup2\n      gt\n      iszero\n      tag_246\n      jumpi\n      tag_246\n      tag_247\n      jump\t// in\n    tag_246:\n      mload(0x40)\n      swap1\n      dup1\n      dup3\n      mstore\n      dup1\n      0x1f\n      add\n      not(0x1f)\n      and\n      0x20\n      add\n      dup3\n      add\n      0x40\n      mstore\n      dup1\n      iszero\n      tag_248\n      jumpi\n      0x20\n      dup3\n      add\n      dup2\n      dup1\n      calldatasize\n      dup4\n      calldatacopy\n      add\n      swap1\n      pop\n    tag_248:\n      pop\n        /* \"@openzeppelin/contracts/utils/Strings.sol\":794:835  string memory buffer = new string(length) */\n      swap1\n      pop\n        /* \"@openzeppelin/contracts/utils/Strings.sol\":955:983  add(buffer, add(32, length)) */\n      dup2\n      dup2\n      add\n        /* \"@openzeppelin/contracts/utils/Strings.sol\":971:973  32 */\n      0x20\n        /* \"@openzeppelin/contracts/utils/Strings.sol\":955:983  add(buffer, add(32, length)) */\n      add\n        /* \"@openzeppelin/contracts/utils/Strings.sol\":1010:1292  while (true) {... */\n    tag_249:\n      not(0x00)\n        /* \"@openzeppelin/contracts/utils/Strings.sol\":1041:1046  ptr-- */\n      add\n      shl(0x81, 0x181899199a1a9b1b9c1cb0b131b232b3)\n        /* \"@openzeppelin/contracts/utils/Strings.sol\":1175:1177  10 */\n      0x0a\n        /* \"@openzeppelin/contracts/utils/Strings.sol\":1164:1178  mod(value, 10) */\n      dup7\n      mod\n        /* \"@openzeppelin/contracts/utils/Strings.sol\":1159:1191  byte(mod(value, 10), HEX_DIGITS) */\n      byte\n        /* \"@openzeppelin/contracts/utils/Strings.sol\":1041:1046  ptr-- */\n      dup2\n        /* \"@openzeppelin/contracts/utils/Strings.sol\":1146:1192  mstore8(ptr, byte(mod(value, 10), HEX_DIGITS)) */\n      mstore8\n        /* \"@openzeppelin/contracts/utils/Strings.sol\":1236:1238  10 */\n      0x0a\n        /* \"@openzeppelin/contracts/utils/Strings.sol\":1227:1238  value /= 10 */\n      dup6\n      div\n      swap5\n      pop\n        /* \"@openzeppelin/contracts/utils/Strings.sol\":1256:1277  if (value == 0) break */\n      dup5\n        /* \"@openzeppelin/contracts/utils/Strings.sol\":1010:1292  while (true) {... */\n      tag_249\n        /* \"@openzeppelin/contracts/utils/Strings.sol\":1256:1277  if (value == 0) break */\n      jumpi\n      pop\n        /* \"@openzeppelin/contracts/utils/Strings.sol\":1312:1318  buffer */\n      swap4\n        /* \"@openzeppelin/contracts/utils/Strings.sol\":637:1335  function toString(uint256 value) internal pure returns (string memory) {... */\n      swap3\n      pop\n      pop\n      pop\n      jump\t// out\n        /* \"@openzeppelin/contracts/token/ERC721/ERC721.sol\":14720:15382  function _approve(address to, uint256 tokenId, address auth, bool emitEvent) internal virtual {... */\n    tag_201:\n        /* \"@openzeppelin/contracts/token/ERC721/ERC721.sol\":14880:14889  emitEvent */\n      dup1\n        /* \"@openzeppelin/contracts/token/ERC721/ERC721.sol\":14880:14911  emitEvent || auth != address(0) */\n      dup1\n      tag_257\n      jumpi\n      pop\n      sub(shl(0xa0, 0x01), 0x01)\n        /* \"@openzeppelin/contracts/token/ERC721/ERC721.sol\":14893:14911  auth != address(0) */\n      dup3\n      and\n      iszero\n      iszero\n        /* \"@openzeppelin/contracts/token/ERC721/ERC721.sol\":14880:14911  emitEvent || auth != address(0) */\n    tag_257:\n        /* \"@openzeppelin/contracts/token/ERC721/ERC721.sol\":14876:15336  if (emitEvent || auth != address(0)) {... */\n      iszero\n      tag_258\n      jumpi\n        /* \"@openzeppelin/contracts/token/ERC721/ERC721.sol\":14927:14940  address owner */\n      0x00\n        /* \"@openzeppelin/contracts/token/ERC721/ERC721.sol\":14943:14965  _requireOwned(tokenId) */\n      tag_259\n        /* \"@openzeppelin/contracts/token/ERC721/ERC721.sol\":14957:14964  tokenId */\n      dup5\n        /* \"@openzeppelin/contracts/token/ERC721/ERC721.sol\":14943:14956  _requireOwned */\n      tag_121\n        /* \"@openzeppelin/contracts/token/ERC721/ERC721.sol\":14943:14965  _requireOwned(tokenId) */\n      jump\t// in\n    tag_259:\n        /* \"@openzeppelin/contracts/token/ERC721/ERC721.sol\":14927:14965  address owner = _requireOwned(tokenId) */\n      swap1\n      pop\n      sub(shl(0xa0, 0x01), 0x01)\n        /* \"@openzeppelin/contracts/token/ERC721/ERC721.sol\":15093:15111  auth != address(0) */\n      dup4\n      and\n      iszero\n      dup1\n      iszero\n      swap1\n        /* \"@openzeppelin/contracts/token/ERC721/ERC721.sol\":15093:15128  auth != address(0) && owner != auth */\n      tag_260\n      jumpi\n      pop\n        /* \"@openzeppelin/contracts/token/ERC721/ERC721.sol\":15124:15128  auth */\n      dup3\n      sub(shl(0xa0, 0x01), 0x01)\n        /* \"@openzeppelin/contracts/token/ERC721/ERC721.sol\":15115:15128  owner != auth */\n      and\n        /* \"@openzeppelin/contracts/token/ERC721/ERC721.sol\":15115:15120  owner */\n      dup2\n      sub(shl(0xa0, 0x01), 0x01)\n        /* \"@openzeppelin/contracts/token/ERC721/ERC721.sol\":15115:15128  owner != auth */\n      and\n      eq\n      iszero\n        /* \"@openzeppelin/contracts/token/ERC721/ERC721.sol\":15093:15128  auth != address(0) && owner != auth */\n    tag_260:\n        /* \"@openzeppelin/contracts/token/ERC721/ERC721.sol\":15093:15162  auth != address(0) && owner != auth && !isApprovedForAll(owner, auth) */\n      dup1\n      iszero\n      tag_261\n      jumpi\n      pop\n        /* \"@openzeppelin/contracts/token/ERC721/ERC721.sol\":15133:15162  isApprovedForAll(owner, auth) */\n      tag_262\n        /* \"@openzeppelin/contracts/token/ERC721/ERC721.sol\":15150:15155  owner */\n      dup2\n        /* \"@openzeppelin/contracts/token/ERC721/ERC721.sol\":15157:15161  auth */\n      dup5\n        /* \"@openzeppelin/contracts/token/ERC721/ERC721.sol\":15133:15149  isApprovedForAll */\n      tag_105\n        /* \"@openzeppelin/contracts/token/ERC721/ERC721.sol\":15133:15162  isApprovedForAll(owner, auth) */\n      jump\t// in\n    tag_262:\n        /* \"@openzeppelin/contracts/token/ERC721/ERC721.sol\":15132:15162  !isApprovedForAll(owner, auth) */\n      iszero\n        /* \"@openzeppelin/contracts/token/ERC721/ERC721.sol\":15093:15162  auth != address(0) && owner != auth && !isApprovedForAll(owner, auth) */\n    tag_261:\n        /* \"@openzeppelin/contracts/token/ERC721/ERC721.sol\":15089:15231  if (auth != address(0) && owner != auth && !isApprovedForAll(owner, auth)) {... */\n      iszero\n      tag_263\n      jumpi\n        /* \"@openzeppelin/contracts/token/ERC721/ERC721.sol\":15189:15216  ERC721InvalidApprover(auth) */\n      mload(0x40)\n      shl(0xe0, 0xa9fbf51f)\n      dup2\n      mstore\n      sub(shl(0xa0, 0x01), 0x01)\n        /* \"#utility.yul\":1528:1560   */\n      dup5\n      and\n        /* \"@openzeppelin/contracts/token/ERC721/ERC721.sol\":15189:15216  ERC721InvalidApprover(auth) */\n      0x04\n      dup3\n      add\n        /* \"#utility.yul\":1510:1561   */\n      mstore\n        /* \"#utility.yul\":1483:1501   */\n      0x24\n      add\n        /* \"@openzeppelin/contracts/token/ERC721/ERC721.sol\":15189:15216  ERC721InvalidApprover(auth) */\n      tag_136\n        /* \"#utility.yul\":1364:1567   */\n      jump\n        /* \"@openzeppelin/contracts/token/ERC721/ERC721.sol\":15089:15231  if (auth != address(0) && owner != auth && !isApprovedForAll(owner, auth)) {... */\n    tag_263:\n        /* \"@openzeppelin/contracts/token/ERC721/ERC721.sol\":15249:15258  emitEvent */\n      dup2\n        /* \"@openzeppelin/contracts/token/ERC721/ERC721.sol\":15245:15326  if (emitEvent) {... */\n      iszero\n      tag_265\n      jumpi\n        /* \"@openzeppelin/contracts/token/ERC721/ERC721.sol\":15303:15310  tokenId */\n      dup4\n        /* \"@openzeppelin/contracts/token/ERC721/ERC721.sol\":15299:15301  to */\n      dup6\n      sub(shl(0xa0, 0x01), 0x01)\n        /* \"@openzeppelin/contracts/token/ERC721/ERC721.sol\":15283:15311  Approval(owner, to, tokenId) */\n      and\n        /* \"@openzeppelin/contracts/token/ERC721/ERC721.sol\":15292:15297  owner */\n      dup3\n      sub(shl(0xa0, 0x01), 0x01)\n        /* \"@openzeppelin/contracts/token/ERC721/ERC721.sol\":15283:15311  Approval(owner, to, tokenId) */\n      and\n      0x8c5be1e5ebec7d5bd14f71427d1e84f3dd0314c0f7b2291e5b200ac8c7c3b925\n      mload(0x40)\n      mload(0x40)\n      dup1\n      swap2\n      sub\n      swap1\n      log4\n        /* \"@openzeppelin/contracts/token/ERC721/ERC721.sol\":15245:15326  if (emitEvent) {... */\n    tag_265:\n        /* \"@openzeppelin/contracts/token/ERC721/ERC721.sol\":14913:15336  {... */\n      pop\n        /* \"@openzeppelin/contracts/token/ERC721/ERC721.sol\":14876:15336  if (emitEvent || auth != address(0)) {... */\n    tag_258:\n      pop\n      pop\n        /* \"@openzeppelin/contracts/token/ERC721/ERC721.sol\":15346:15370  _tokenApprovals[tokenId] */\n      0x00\n      swap1\n      dup2\n      mstore\n        /* \"@openzeppelin/contracts/token/ERC721/ERC721.sol\":15346:15361  _tokenApprovals */\n      0x04\n        /* \"@openzeppelin/contracts/token/ERC721/ERC721.sol\":15346:15370  _tokenApprovals[tokenId] */\n      0x20\n      mstore\n      0x40\n      swap1\n      keccak256\n        /* \"@openzeppelin/contracts/token/ERC721/ERC721.sol\":15346:15375  _tokenApprovals[tokenId] = to */\n      dup1\n      sload\n      not(sub(shl(0xa0, 0x01), 0x01))\n      and\n      sub(shl(0xa0, 0x01), 0x01)\n      swap3\n      swap1\n      swap3\n      and\n      swap2\n      swap1\n      swap2\n      or\n      swap1\n      sstore\n        /* \"@openzeppelin/contracts/token/ERC721/ERC721.sol\":14720:15382  function _approve(address to, uint256 tokenId, address auth, bool emitEvent) internal virtual {... */\n      jump\t// out\n        /* \"@openzeppelin/contracts/token/ERC721/ERC721.sol\":7082:7450  function _checkAuthorized(address owner, address spender, uint256 tokenId) internal view virtual {... */\n    tag_213:\n        /* \"@openzeppelin/contracts/token/ERC721/ERC721.sol\":7194:7232  _isAuthorized(owner, spender, tokenId) */\n      tag_267\n        /* \"@openzeppelin/contracts/token/ERC721/ERC721.sol\":7208:7213  owner */\n      dup4\n        /* \"@openzeppelin/contracts/token/ERC721/ERC721.sol\":7215:7222  spender */\n      dup4\n        /* \"@openzeppelin/contracts/token/ERC721/ERC721.sol\":7224:7231  tokenId */\n      dup4\n        /* \"@openzeppelin/contracts/token/ERC721/ERC721.sol\":7194:7207  _isAuthorized */\n      tag_268\n        /* \"@openzeppelin/contracts/token/ERC721/ERC721.sol\":7194:7232  _isAuthorized(owner, spender, tokenId) */\n      jump\t// in\n    tag_267:\n        /* \"@openzeppelin/contracts/token/ERC721/ERC721.sol\":7189:7444  if (!_isAuthorized(owner, spender, tokenId)) {... */\n      tag_160\n      jumpi\n      sub(shl(0xa0, 0x01), 0x01)\n        /* \"@openzeppelin/contracts/token/ERC721/ERC721.sol\":7252:7271  owner == address(0) */\n      dup4\n      and\n        /* \"@openzeppelin/contracts/token/ERC721/ERC721.sol\":7248:7434  if (owner == address(0)) {... */\n      tag_270\n      jumpi\n        /* \"@openzeppelin/contracts/token/ERC721/ERC721.sol\":7298:7329  ERC721NonexistentToken(tokenId) */\n      mload(0x40)\n      shl(0xe0, 0x7e273289)\n      dup2\n      mstore\n      0x04\n      dup2\n      add\n        /* \"#utility.yul\":5317:5342   */\n      dup3\n      swap1\n      mstore\n        /* \"#utility.yul\":5290:5308   */\n      0x24\n      add\n        /* \"@openzeppelin/contracts/token/ERC721/ERC721.sol\":7298:7329  ERC721NonexistentToken(tokenId) */\n      tag_136\n        /* \"#utility.yul\":5171:5348   */\n      jump\n        /* \"@openzeppelin/contracts/token/ERC721/ERC721.sol\":7248:7434  if (owner == address(0)) {... */\n    tag_270:\n        /* \"@openzeppelin/contracts/token/ERC721/ERC721.sol\":7375:7419  ERC721InsufficientApproval(spender, tokenId) */\n      mload(0x40)\n      shl(0xe0, 0x177e802f)\n      dup2\n      mstore\n      sub(shl(0xa0, 0x01), 0x01)\n        /* \"#utility.yul\":10074:10106   */\n      dup4\n      and\n        /* \"@openzeppelin/contracts/token/ERC721/ERC721.sol\":7375:7419  ERC721InsufficientApproval(spender, tokenId) */\n      0x04\n      dup3\n      add\n        /* \"#utility.yul\":10056:10107   */\n      mstore\n        /* \"#utility.yul\":10123:10141   */\n      0x24\n      dup2\n      add\n        /* \"#utility.yul\":10116:10150   */\n      dup3\n      swap1\n      mstore\n        /* \"#utility.yul\":10029:10047   */\n      0x44\n      add\n        /* \"@openzeppelin/contracts/token/ERC721/ERC721.sol\":7375:7419  ERC721InsufficientApproval(spender, tokenId) */\n      tag_136\n        /* \"#utility.yul\":9882:10156   */\n      jump\n        /* \"@openzeppelin/contracts/utils/math/Math.sol\":12214:13130  function log10(uint256 value) internal pure returns (uint256) {... */\n    tag_244:\n        /* \"@openzeppelin/contracts/utils/math/Math.sol\":12267:12274  uint256 */\n      0x00\n      dup1\n      shl(0x40, 0x184f03e93ff9f4daa797ed6e38ed64bf6a1f01)\n        /* \"@openzeppelin/contracts/utils/math/Math.sol\":12342:12359  value >= 10 ** 64 */\n      dup4\n      lt\n        /* \"@openzeppelin/contracts/utils/math/Math.sol\":12338:12441  if (value >= 10 ** 64) {... */\n      tag_276\n      jumpi\n      shl(0x40, 0x184f03e93ff9f4daa797ed6e38ed64bf6a1f01)\n        /* \"@openzeppelin/contracts/utils/math/Math.sol\":12379:12396  value /= 10 ** 64 */\n      dup4\n      div\n      swap3\n      pop\n        /* \"@openzeppelin/contracts/utils/math/Math.sol\":12424:12426  64 */\n      0x40\n        /* \"@openzeppelin/contracts/utils/math/Math.sol\":12414:12426  result += 64 */\n      add\n        /* \"@openzeppelin/contracts/utils/math/Math.sol\":12338:12441  if (value >= 10 ** 64) {... */\n    tag_276:\n        /* \"@openzeppelin/contracts/utils/math/Math.sol\":12467:12475  10 ** 32 */\n      0x04ee2d6d415b85acef8100000000\n        /* \"@openzeppelin/contracts/utils/math/Math.sol\":12458:12463  value */\n      dup4\n        /* \"@openzeppelin/contracts/utils/math/Math.sol\":12458:12475  value >= 10 ** 32 */\n      lt\n        /* \"@openzeppelin/contracts/utils/math/Math.sol\":12454:12557  if (value >= 10 ** 32) {... */\n      tag_279\n      jumpi\n        /* \"@openzeppelin/contracts/utils/math/Math.sol\":12504:12512  10 ** 32 */\n      0x04ee2d6d415b85acef8100000000\n        /* \"@openzeppelin/contracts/utils/math/Math.sol\":12495:12512  value /= 10 ** 32 */\n      dup4\n      div\n      swap3\n      pop\n        /* \"@openzeppelin/contracts/utils/math/Math.sol\":12540:12542  32 */\n      0x20\n        /* \"@openzeppelin/contracts/utils/math/Math.sol\":12530:12542  result += 32 */\n      add\n        /* \"@openzeppelin/contracts/utils/math/Math.sol\":12454:12557  if (value >= 10 ** 32) {... */\n    tag_279:\n        /* \"@openzeppelin/contracts/utils/math/Math.sol\":12583:12591  10 ** 16 */\n      0x2386f26fc10000\n        /* \"@openzeppelin/contracts/utils/math/Math.sol\":12574:12579  value */\n      dup4\n        /* \"@openzeppelin/contracts/utils/math/Math.sol\":12574:12591  value >= 10 ** 16 */\n      lt\n        /* \"@openzeppelin/contracts/utils/math/Math.sol\":12570:12673  if (value >= 10 ** 16) {... */\n      tag_282\n      jumpi\n        /* \"@openzeppelin/contracts/utils/math/Math.sol\":12620:12628  10 ** 16 */\n      0x2386f26fc10000\n        /* \"@openzeppelin/contracts/utils/math/Math.sol\":12611:12628  value /= 10 ** 16 */\n      dup4\n      div\n      swap3\n      pop\n        /* \"@openzeppelin/contracts/utils/math/Math.sol\":12656:12658  16 */\n      0x10\n        /* \"@openzeppelin/contracts/utils/math/Math.sol\":12646:12658  result += 16 */\n      add\n        /* \"@openzeppelin/contracts/utils/math/Math.sol\":12570:12673  if (value >= 10 ** 16) {... */\n    tag_282:\n        /* \"@openzeppelin/contracts/utils/math/Math.sol\":12699:12706  10 ** 8 */\n      0x05f5e100\n        /* \"@openzeppelin/contracts/utils/math/Math.sol\":12690:12695  value */\n      dup4\n        /* \"@openzeppelin/contracts/utils/math/Math.sol\":12690:12706  value >= 10 ** 8 */\n      lt\n        /* \"@openzeppelin/contracts/utils/math/Math.sol\":12686:12786  if (value >= 10 ** 8) {... */\n      tag_285\n      jumpi\n        /* \"@openzeppelin/contracts/utils/math/Math.sol\":12735:12742  10 ** 8 */\n      0x05f5e100\n        /* \"@openzeppelin/contracts/utils/math/Math.sol\":12726:12742  value /= 10 ** 8 */\n      dup4\n      div\n      swap3\n      pop\n        /* \"@openzeppelin/contracts/utils/math/Math.sol\":12770:12771  8 */\n      0x08\n        /* \"@openzeppelin/contracts/utils/math/Math.sol\":12760:12771  result += 8 */\n      add\n        /* \"@openzeppelin/contracts/utils/math/Math.sol\":12686:12786  if (value >= 10 ** 8) {... */\n    tag_285:\n        /* \"@openzeppelin/contracts/utils/math/Math.sol\":12812:12819  10 ** 4 */\n      0x2710\n        /* \"@openzeppelin/contracts/utils/math/Math.sol\":12803:12808  value */\n      dup4\n        /* \"@openzeppelin/contracts/utils/math/Math.sol\":12803:12819  value >= 10 ** 4 */\n      lt\n        /* \"@openzeppelin/contracts/utils/math/Math.sol\":12799:12899  if (value >= 10 ** 4) {... */\n      tag_288\n      jumpi\n        /* \"@openzeppelin/contracts/utils/math/Math.sol\":12848:12855  10 ** 4 */\n      0x2710\n        /* \"@openzeppelin/contracts/utils/math/Math.sol\":12839:12855  value /= 10 ** 4 */\n      dup4\n      div\n      swap3\n      pop\n        /* \"@openzeppelin/contracts/utils/math/Math.sol\":12883:12884  4 */\n      0x04\n        /* \"@openzeppelin/contracts/utils/math/Math.sol\":12873:12884  result += 4 */\n      add\n        /* \"@openzeppelin/contracts/utils/math/Math.sol\":12799:12899  if (value >= 10 ** 4) {... */\n    tag_288:\n        /* \"@openzeppelin/contracts/utils/math/Math.sol\":12925:12932  10 ** 2 */\n      0x64\n        /* \"@openzeppelin/contracts/utils/math/Math.sol\":12916:12921  value */\n      dup4\n        /* \"@openzeppelin/contracts/utils/math/Math.sol\":12916:12932  value >= 10 ** 2 */\n      lt\n        /* \"@openzeppelin/contracts/utils/math/Math.sol\":12912:13012  if (value >= 10 ** 2) {... */\n      tag_291\n      jumpi\n        /* \"@openzeppelin/contracts/utils/math/Math.sol\":12961:12968  10 ** 2 */\n      0x64\n        /* \"@openzeppelin/contracts/utils/math/Math.sol\":12952:12968  value /= 10 ** 2 */\n      dup4\n      div\n      swap3\n      pop\n        /* \"@openzeppelin/contracts/utils/math/Math.sol\":12996:12997  2 */\n      0x02\n        /* \"@openzeppelin/contracts/utils/math/Math.sol\":12986:12997  result += 2 */\n      add\n        /* \"@openzeppelin/contracts/utils/math/Math.sol\":12912:13012  if (value >= 10 ** 2) {... */\n    tag_291:\n        /* \"@openzeppelin/contracts/utils/math/Math.sol\":13038:13045  10 ** 1 */\n      0x0a\n        /* \"@openzeppelin/contracts/utils/math/Math.sol\":13029:13034  value */\n      dup4\n        /* \"@openzeppelin/contracts/utils/math/Math.sol\":13029:13045  value >= 10 ** 1 */\n      lt\n        /* \"@openzeppelin/contracts/utils/math/Math.sol\":13025:13091  if (value >= 10 ** 1) {... */\n      tag_110\n      jumpi\n        /* \"@openzeppelin/contracts/utils/math/Math.sol\":13075:13076  1 */\n      0x01\n        /* \"@openzeppelin/contracts/utils/math/Math.sol\":13065:13076  result += 1 */\n      add\n        /* \"@openzeppelin/contracts/utils/math/Math.sol\":13117:13123  result */\n      swap3\n        /* \"@openzeppelin/contracts/utils/math/Math.sol\":12214:13130  function log10(uint256 value) internal pure returns (uint256) {... */\n      swap2\n      pop\n      pop\n      jump\t// out\n        /* \"@openzeppelin/contracts/token/ERC721/ERC721.sol\":6376:6648  function _isAuthorized(address owner, address spender, uint256 tokenId) internal view virtual returns (bool) {... */\n    tag_268:\n        /* \"@openzeppelin/contracts/token/ERC721/ERC721.sol\":6479:6483  bool */\n      0x00\n      sub(shl(0xa0, 0x01), 0x01)\n        /* \"@openzeppelin/contracts/token/ERC721/ERC721.sol\":6514:6535  spender != address(0) */\n      dup4\n      and\n      iszero\n      dup1\n      iszero\n      swap1\n        /* \"@openzeppelin/contracts/token/ERC721/ERC721.sol\":6514:6641  spender != address(0) &&... */\n      tag_158\n      jumpi\n      pop\n        /* \"@openzeppelin/contracts/token/ERC721/ERC721.sol\":6561:6568  spender */\n      dup3\n      sub(shl(0xa0, 0x01), 0x01)\n        /* \"@openzeppelin/contracts/token/ERC721/ERC721.sol\":6552:6568  owner == spender */\n      and\n        /* \"@openzeppelin/contracts/token/ERC721/ERC721.sol\":6552:6557  owner */\n      dup5\n      sub(shl(0xa0, 0x01), 0x01)\n        /* \"@openzeppelin/contracts/token/ERC721/ERC721.sol\":6552:6568  owner == spender */\n      and\n      eq\n        /* \"@openzeppelin/contracts/token/ERC721/ERC721.sol\":6552:6604  owner == spender || isApprovedForAll(owner, spender) */\n      dup1\n      tag_298\n      jumpi\n      pop\n        /* \"@openzeppelin/contracts/token/ERC721/ERC721.sol\":6572:6604  isApprovedForAll(owner, spender) */\n      tag_298\n        /* \"@openzeppelin/contracts/token/ERC721/ERC721.sol\":6589:6594  owner */\n      dup5\n        /* \"@openzeppelin/contracts/token/ERC721/ERC721.sol\":6596:6603  spender */\n      dup5\n        /* \"@openzeppelin/contracts/token/ERC721/ERC721.sol\":6572:6588  isApprovedForAll */\n      tag_105\n        /* \"@openzeppelin/contracts/token/ERC721/ERC721.sol\":6572:6604  isApprovedForAll(owner, spender) */\n      jump\t// in\n    tag_298:\n        /* \"@openzeppelin/contracts/token/ERC721/ERC721.sol\":6552:6640  owner == spender || isApprovedForAll(owner, spender) || _getApproved(tokenId) == spender */\n      dup1\n      tag_158\n      jumpi\n      pop\n      pop\n        /* \"@openzeppelin/contracts/token/ERC721/ERC721.sol\":6008:6015  address */\n      0x00\n        /* \"@openzeppelin/contracts/token/ERC721/ERC721.sol\":6034:6058  _tokenApprovals[tokenId] */\n      swap1\n      dup2\n      mstore\n        /* \"@openzeppelin/contracts/token/ERC721/ERC721.sol\":6034:6049  _tokenApprovals */\n      0x04\n        /* \"@openzeppelin/contracts/token/ERC721/ERC721.sol\":6034:6058  _tokenApprovals[tokenId] */\n      0x20\n      mstore\n      0x40\n      swap1\n      keccak256\n      sload\n      sub(shl(0xa0, 0x01), 0x01)\n      swap1\n      dup2\n      and\n        /* \"@openzeppelin/contracts/token/ERC721/ERC721.sol\":6608:6640  _getApproved(tokenId) == spender */\n      swap2\n      and\n      eq\n      swap2\n      swap1\n      pop\n        /* \"@openzeppelin/contracts/token/ERC721/ERC721.sol\":6376:6648  function _isAuthorized(address owner, address spender, uint256 tokenId) internal view virtual returns (bool) {... */\n      jump\t// out\n        /* \"#utility.yul\":14:145   */\n    tag_301:\n      not(sub(shl(0xe0, 0x01), 0x01))\n        /* \"#utility.yul\":88:120   */\n      dup2\n      and\n        /* \"#utility.yul\":78:121   */\n      dup2\n      eq\n        /* \"#utility.yul\":68:139   */\n      tag_308\n      jumpi\n        /* \"#utility.yul\":135:136   */\n      0x00\n        /* \"#utility.yul\":132:133   */\n      dup1\n        /* \"#utility.yul\":125:137   */\n      revert\n        /* \"#utility.yul\":68:139   */\n    tag_308:\n        /* \"#utility.yul\":14:145   */\n      pop\n      jump\t// out\n        /* \"#utility.yul\":150:395   */\n    tag_24:\n        /* \"#utility.yul\":208:214   */\n      0x00\n        /* \"#utility.yul\":261:263   */\n      0x20\n        /* \"#utility.yul\":249:258   */\n      dup3\n        /* \"#utility.yul\":240:247   */\n      dup5\n        /* \"#utility.yul\":236:259   */\n      sub\n        /* \"#utility.yul\":232:264   */\n      slt\n        /* \"#utility.yul\":229:281   */\n      iszero\n      tag_310\n      jumpi\n        /* \"#utility.yul\":277:278   */\n      0x00\n        /* \"#utility.yul\":274:275   */\n      dup1\n        /* \"#utility.yul\":267:279   */\n      revert\n        /* \"#utility.yul\":229:281   */\n    tag_310:\n        /* \"#utility.yul\":316:325   */\n      dup2\n        /* \"#utility.yul\":303:326   */\n      calldataload\n        /* \"#utility.yul\":335:365   */\n      tag_185\n        /* \"#utility.yul\":359:364   */\n      dup2\n        /* \"#utility.yul\":335:365   */\n      tag_301\n      jump\t// in\n        /* \"#utility.yul\":592:892   */\n    tag_302:\n        /* \"#utility.yul\":645:648   */\n      0x00\n        /* \"#utility.yul\":683:688   */\n      dup2\n        /* \"#utility.yul\":677:689   */\n      mload\n        /* \"#utility.yul\":710:716   */\n      dup1\n        /* \"#utility.yul\":705:708   */\n      dup5\n        /* \"#utility.yul\":698:717   */\n      mstore\n        /* \"#utility.yul\":766:772   */\n      dup1\n        /* \"#utility.yul\":759:763   */\n      0x20\n        /* \"#utility.yul\":752:757   */\n      dup5\n        /* \"#utility.yul\":748:764   */\n      add\n        /* \"#utility.yul\":741:745   */\n      0x20\n        /* \"#utility.yul\":736:739   */\n      dup7\n        /* \"#utility.yul\":732:746   */\n      add\n        /* \"#utility.yul\":726:773   */\n      mcopy\n        /* \"#utility.yul\":818:819   */\n      0x00\n        /* \"#utility.yul\":811:815   */\n      0x20\n        /* \"#utility.yul\":802:808   */\n      dup3\n        /* \"#utility.yul\":797:800   */\n      dup7\n        /* \"#utility.yul\":793:809   */\n      add\n        /* \"#utility.yul\":789:816   */\n      add\n        /* \"#utility.yul\":782:820   */\n      mstore\n        /* \"#utility.yul\":881:885   */\n      0x20\n        /* \"#utility.yul\":874:876   */\n      0x1f\n        /* \"#utility.yul\":870:877   */\n      not\n        /* \"#utility.yul\":865:867   */\n      0x1f\n        /* \"#utility.yul\":857:863   */\n      dup4\n        /* \"#utility.yul\":853:868   */\n      add\n        /* \"#utility.yul\":849:878   */\n      and\n        /* \"#utility.yul\":844:847   */\n      dup6\n        /* \"#utility.yul\":840:879   */\n      add\n        /* \"#utility.yul\":836:886   */\n      add\n        /* \"#utility.yul\":829:886   */\n      swap2\n      pop\n      pop\n        /* \"#utility.yul\":592:892   */\n      swap3\n      swap2\n      pop\n      pop\n      jump\t// out\n        /* \"#utility.yul\":897:1128   */\n    tag_32:\n        /* \"#utility.yul\":1046:1048   */\n      0x20\n        /* \"#utility.yul\":1035:1044   */\n      dup2\n        /* \"#utility.yul\":1028:1049   */\n      mstore\n        /* \"#utility.yul\":1009:1013   */\n      0x00\n        /* \"#utility.yul\":1066:1122   */\n      tag_185\n        /* \"#utility.yul\":1118:1120   */\n      0x20\n        /* \"#utility.yul\":1107:1116   */\n      dup4\n        /* \"#utility.yul\":1103:1121   */\n      add\n        /* \"#utility.yul\":1095:1101   */\n      dup5\n        /* \"#utility.yul\":1066:1122   */\n      tag_302\n      jump\t// in\n        /* \"#utility.yul\":1133:1359   */\n    tag_36:\n        /* \"#utility.yul\":1192:1198   */\n      0x00\n        /* \"#utility.yul\":1245:1247   */\n      0x20\n        /* \"#utility.yul\":1233:1242   */\n      dup3\n        /* \"#utility.yul\":1224:1231   */\n      dup5\n        /* \"#utility.yul\":1220:1243   */\n      sub\n        /* \"#utility.yul\":1216:1248   */\n      slt\n        /* \"#utility.yul\":1213:1265   */\n      iszero\n      tag_317\n      jumpi\n        /* \"#utility.yul\":1261:1262   */\n      0x00\n        /* \"#utility.yul\":1258:1259   */\n      dup1\n        /* \"#utility.yul\":1251:1263   */\n      revert\n        /* \"#utility.yul\":1213:1265   */\n    tag_317:\n      pop\n        /* \"#utility.yul\":1306:1329   */\n      calldataload\n      swap2\n        /* \"#utility.yul\":1133:1359   */\n      swap1\n      pop\n      jump\t// out\n        /* \"#utility.yul\":1572:1745   */\n    tag_303:\n        /* \"#utility.yul\":1640:1660   */\n      dup1\n      calldataload\n      sub(shl(0xa0, 0x01), 0x01)\n        /* \"#utility.yul\":1689:1720   */\n      dup2\n      and\n        /* \"#utility.yul\":1679:1721   */\n      dup2\n      eq\n        /* \"#utility.yul\":1669:1739   */\n      tag_320\n      jumpi\n        /* \"#utility.yul\":1735:1736   */\n      0x00\n        /* \"#utility.yul\":1732:1733   */\n      dup1\n        /* \"#utility.yul\":1725:1737   */\n      revert\n        /* \"#utility.yul\":1669:1739   */\n    tag_320:\n        /* \"#utility.yul\":1572:1745   */\n      swap2\n      swap1\n      pop\n      jump\t// out\n        /* \"#utility.yul\":1750:2050   */\n    tag_43:\n        /* \"#utility.yul\":1818:1824   */\n      0x00\n        /* \"#utility.yul\":1826:1832   */\n      dup1\n        /* \"#utility.yul\":1879:1881   */\n      0x40\n        /* \"#utility.yul\":1867:1876   */\n      dup4\n        /* \"#utility.yul\":1858:1865   */\n      dup6\n        /* \"#utility.yul\":1854:1877   */\n      sub\n        /* \"#utility.yul\":1850:1882   */\n      slt\n        /* \"#utility.yul\":1847:1899   */\n      iszero\n      tag_322\n      jumpi\n        /* \"#utility.yul\":1895:1896   */\n      0x00\n        /* \"#utility.yul\":1892:1893   */\n      dup1\n        /* \"#utility.yul\":1885:1897   */\n      revert\n        /* \"#utility.yul\":1847:1899   */\n    tag_322:\n        /* \"#utility.yul\":1918:1947   */\n      tag_323\n        /* \"#utility.yul\":1937:1946   */\n      dup4\n        /* \"#utility.yul\":1918:1947   */\n      tag_303\n      jump\t// in\n    tag_323:\n        /* \"#utility.yul\":1908:1947   */\n      swap5\n        /* \"#utility.yul\":2016:2018   */\n      0x20\n        /* \"#utility.yul\":2001:2019   */\n      swap4\n      swap1\n      swap4\n      add\n        /* \"#utility.yul\":1988:2020   */\n      calldataload\n      swap4\n      pop\n      pop\n      pop\n        /* \"#utility.yul\":1750:2050   */\n      jump\t// out\n        /* \"#utility.yul\":2055:2428   */\n    tag_50:\n        /* \"#utility.yul\":2260:2262   */\n      0x60\n        /* \"#utility.yul\":2249:2258   */\n      dup2\n        /* \"#utility.yul\":2242:2263   */\n      mstore\n        /* \"#utility.yul\":2223:2227   */\n      0x00\n        /* \"#utility.yul\":2280:2336   */\n      tag_325\n        /* \"#utility.yul\":2332:2334   */\n      0x60\n        /* \"#utility.yul\":2321:2330   */\n      dup4\n        /* \"#utility.yul\":2317:2335   */\n      add\n        /* \"#utility.yul\":2309:2315   */\n      dup7\n        /* \"#utility.yul\":2280:2336   */\n      tag_302\n      jump\t// in\n    tag_325:\n        /* \"#utility.yul\":2367:2369   */\n      0x20\n        /* \"#utility.yul\":2352:2370   */\n      dup4\n      add\n        /* \"#utility.yul\":2345:2379   */\n      swap5\n      swap1\n      swap5\n      mstore\n      pop\n        /* \"#utility.yul\":2410:2412   */\n      0x40\n        /* \"#utility.yul\":2395:2413   */\n      add\n        /* \"#utility.yul\":2388:2422   */\n      mstore\n        /* \"#utility.yul\":2272:2336   */\n      swap2\n        /* \"#utility.yul\":2055:2428   */\n      swap1\n      pop\n      jump\t// out\n        /* \"#utility.yul\":2433:2560   */\n    tag_247:\n        /* \"#utility.yul\":2494:2504   */\n      0x4e487b71\n        /* \"#utility.yul\":2489:2492   */\n      0xe0\n        /* \"#utility.yul\":2485:2505   */\n      shl\n        /* \"#utility.yul\":2482:2483   */\n      0x00\n        /* \"#utility.yul\":2475:2506   */\n      mstore\n        /* \"#utility.yul\":2525:2529   */\n      0x41\n        /* \"#utility.yul\":2522:2523   */\n      0x04\n        /* \"#utility.yul\":2515:2530   */\n      mstore\n        /* \"#utility.yul\":2549:2553   */\n      0x24\n        /* \"#utility.yul\":2546:2547   */\n      0x00\n        /* \"#utility.yul\":2539:2554   */\n      revert\n        /* \"#utility.yul\":2565:3281   */\n    tag_304:\n        /* \"#utility.yul\":2630:2635   */\n      0x00\n        /* \"#utility.yul\":2662:2663   */\n      dup1\n        /* \"#utility.yul\":2686:2704   */\n      0xffffffffffffffff\n        /* \"#utility.yul\":2678:2684   */\n      dup5\n        /* \"#utility.yul\":2675:2705   */\n      gt\n        /* \"#utility.yul\":2672:2728   */\n      iszero\n      tag_329\n      jumpi\n        /* \"#utility.yul\":2708:2726   */\n      tag_329\n      tag_247\n      jump\t// in\n    tag_329:\n      pop\n        /* \"#utility.yul\":2863:2865   */\n      0x40\n        /* \"#utility.yul\":2857:2866   */\n      mload\n      not(0x1f)\n        /* \"#utility.yul\":2776:2778   */\n      0x1f\n        /* \"#utility.yul\":2755:2770   */\n      dup6\n      add\n        /* \"#utility.yul\":2751:2780   */\n      dup2\n      and\n        /* \"#utility.yul\":2921:2923   */\n      0x3f\n        /* \"#utility.yul\":2909:2924   */\n      add\n        /* \"#utility.yul\":2905:2934   */\n      and\n        /* \"#utility.yul\":2893:2935   */\n      dup2\n      add\n        /* \"#utility.yul\":2986:3008   */\n      dup2\n      dup2\n      lt\n        /* \"#utility.yul\":2965:2983   */\n      0xffffffffffffffff\n        /* \"#utility.yul\":2950:2984   */\n      dup3\n      gt\n        /* \"#utility.yul\":2947:3009   */\n      or\n        /* \"#utility.yul\":2944:3032   */\n      iszero\n      tag_331\n      jumpi\n        /* \"#utility.yul\":3012:3030   */\n      tag_331\n      tag_247\n      jump\t// in\n    tag_331:\n        /* \"#utility.yul\":3048:3050   */\n      0x40\n        /* \"#utility.yul\":3041:3063   */\n      mstore\n        /* \"#utility.yul\":3096:3118   */\n      dup4\n      dup2\n      mstore\n        /* \"#utility.yul\":3081:3087   */\n      swap1\n      pop\n      dup1\n        /* \"#utility.yul\":3133:3149   */\n      dup3\n      dup5\n      add\n        /* \"#utility.yul\":3130:3155   */\n      dup6\n      lt\n        /* \"#utility.yul\":3127:3172   */\n      iszero\n      tag_332\n      jumpi\n        /* \"#utility.yul\":3168:3169   */\n      0x00\n        /* \"#utility.yul\":3165:3166   */\n      dup1\n        /* \"#utility.yul\":3158:3170   */\n      revert\n        /* \"#utility.yul\":3127:3172   */\n    tag_332:\n        /* \"#utility.yul\":3218:3224   */\n      dup4\n        /* \"#utility.yul\":3213:3216   */\n      dup4\n        /* \"#utility.yul\":3206:3210   */\n      0x20\n        /* \"#utility.yul\":3198:3204   */\n      dup4\n        /* \"#utility.yul\":3194:3211   */\n      add\n        /* \"#utility.yul\":3181:3225   */\n      calldatacopy\n        /* \"#utility.yul\":3273:3274   */\n      0x00\n        /* \"#utility.yul\":3266:3270   */\n      0x20\n        /* \"#utility.yul\":3257:3263   */\n      dup6\n        /* \"#utility.yul\":3249:3255   */\n      dup4\n        /* \"#utility.yul\":3245:3264   */\n      add\n        /* \"#utility.yul\":3241:3271   */\n      add\n        /* \"#utility.yul\":3234:3275   */\n      mstore\n      pop\n        /* \"#utility.yul\":2565:3281   */\n      swap4\n      swap3\n      pop\n      pop\n      pop\n      jump\t// out\n        /* \"#utility.yul\":3286:4171   */\n    tag_53:\n        /* \"#utility.yul\":3391:3397   */\n      0x00\n        /* \"#utility.yul\":3399:3405   */\n      dup1\n        /* \"#utility.yul\":3407:3413   */\n      0x00\n        /* \"#utility.yul\":3415:3421   */\n      dup1\n        /* \"#utility.yul\":3423:3429   */\n      0x00\n        /* \"#utility.yul\":3476:3479   */\n      0xa0\n        /* \"#utility.yul\":3464:3473   */\n      dup7\n        /* \"#utility.yul\":3455:3462   */\n      dup9\n        /* \"#utility.yul\":3451:3474   */\n      sub\n        /* \"#utility.yul\":3447:3480   */\n      slt\n        /* \"#utility.yul\":3444:3497   */\n      iszero\n      tag_334\n      jumpi\n        /* \"#utility.yul\":3493:3494   */\n      0x00\n        /* \"#utility.yul\":3490:3491   */\n      dup1\n        /* \"#utility.yul\":3483:3495   */\n      revert\n        /* \"#utility.yul\":3444:3497   */\n    tag_334:\n        /* \"#utility.yul\":3533:3542   */\n      dup6\n        /* \"#utility.yul\":3520:3543   */\n      calldataload\n        /* \"#utility.yul\":3566:3584   */\n      0xffffffffffffffff\n        /* \"#utility.yul\":3558:3564   */\n      dup2\n        /* \"#utility.yul\":3555:3585   */\n      gt\n        /* \"#utility.yul\":3552:3602   */\n      iszero\n      tag_335\n      jumpi\n        /* \"#utility.yul\":3598:3599   */\n      0x00\n        /* \"#utility.yul\":3595:3596   */\n      dup1\n        /* \"#utility.yul\":3588:3600   */\n      revert\n        /* \"#utility.yul\":3552:3602   */\n    tag_335:\n        /* \"#utility.yul\":3621:3643   */\n      dup7\n      add\n        /* \"#utility.yul\":3674:3678   */\n      0x1f\n        /* \"#utility.yul\":3666:3679   */\n      dup2\n      add\n        /* \"#utility.yul\":3662:3689   */\n      dup9\n      sgt\n        /* \"#utility.yul\":3652:3707   */\n      tag_336\n      jumpi\n        /* \"#utility.yul\":3703:3704   */\n      0x00\n        /* \"#utility.yul\":3700:3701   */\n      dup1\n        /* \"#utility.yul\":3693:3705   */\n      revert\n        /* \"#utility.yul\":3652:3707   */\n    tag_336:\n        /* \"#utility.yul\":3726:3802   */\n      tag_337\n        /* \"#utility.yul\":3794:3801   */\n      dup9\n        /* \"#utility.yul\":3789:3791   */\n      dup3\n        /* \"#utility.yul\":3776:3792   */\n      calldataload\n        /* \"#utility.yul\":3769:3773   */\n      0x20\n        /* \"#utility.yul\":3765:3767   */\n      dup5\n        /* \"#utility.yul\":3761:3774   */\n      add\n        /* \"#utility.yul\":3726:3802   */\n      tag_304\n      jump\t// in\n    tag_337:\n        /* \"#utility.yul\":3716:3802   */\n      swap6\n      pop\n      pop\n        /* \"#utility.yul\":3871:3875   */\n      0x20\n        /* \"#utility.yul\":3856:3876   */\n      dup7\n      add\n        /* \"#utility.yul\":3843:3877   */\n      calldataload\n      swap4\n      pop\n        /* \"#utility.yul\":3974:3976   */\n      0x40\n        /* \"#utility.yul\":3959:3977   */\n      dup7\n      add\n        /* \"#utility.yul\":3946:3978   */\n      calldataload\n      swap3\n      pop\n        /* \"#utility.yul\":4077:4079   */\n      0x60\n        /* \"#utility.yul\":4062:4080   */\n      dup7\n      add\n        /* \"#utility.yul\":4049:4081   */\n      calldataload\n      swap2\n      pop\n        /* \"#utility.yul\":4126:4165   */\n      tag_338\n        /* \"#utility.yul\":4160:4163   */\n      0x80\n        /* \"#utility.yul\":4145:4164   */\n      dup8\n      add\n        /* \"#utility.yul\":4126:4165   */\n      tag_303\n      jump\t// in\n    tag_338:\n        /* \"#utility.yul\":4116:4165   */\n      swap1\n      pop\n        /* \"#utility.yul\":3286:4171   */\n      swap3\n      swap6\n      pop\n      swap3\n      swap6\n      swap1\n      swap4\n      pop\n      jump\t// out\n        /* \"#utility.yul\":4176:4550   */\n    tag_58:\n        /* \"#utility.yul\":4253:4259   */\n      0x00\n        /* \"#utility.yul\":4261:4267   */\n      dup1\n        /* \"#utility.yul\":4269:4275   */\n      0x00\n        /* \"#utility.yul\":4322:4324   */\n      0x60\n        /* \"#utility.yul\":4310:4319   */\n      dup5\n        /* \"#utility.yul\":4301:4308   */\n      dup7\n        /* \"#utility.yul\":4297:4320   */\n      sub\n        /* \"#utility.yul\":4293:4325   */\n      slt\n        /* \"#utility.yul\":4290:4342   */\n      iszero\n      tag_340\n      jumpi\n        /* \"#utility.yul\":4338:4339   */\n      0x00\n        /* \"#utility.yul\":4335:4336   */\n      dup1\n        /* \"#utility.yul\":4328:4340   */\n      revert\n        /* \"#utility.yul\":4290:4342   */\n    tag_340:\n        /* \"#utility.yul\":4361:4390   */\n      tag_341\n        /* \"#utility.yul\":4380:4389   */\n      dup5\n        /* \"#utility.yul\":4361:4390   */\n      tag_303\n      jump\t// in\n    tag_341:\n        /* \"#utility.yul\":4351:4390   */\n      swap3\n      pop\n        /* \"#utility.yul\":4409:4447   */\n      tag_342\n        /* \"#utility.yul\":4443:4445   */\n      0x20\n        /* \"#utility.yul\":4432:4441   */\n      dup6\n        /* \"#utility.yul\":4428:4446   */\n      add\n        /* \"#utility.yul\":4409:4447   */\n      tag_303\n      jump\t// in\n    tag_342:\n        /* \"#utility.yul\":4176:4550   */\n      swap3\n      swap6\n        /* \"#utility.yul\":4399:4447   */\n      swap3\n      swap5\n      pop\n      pop\n      pop\n        /* \"#utility.yul\":4516:4518   */\n      0x40\n        /* \"#utility.yul\":4501:4519   */\n      swap2\n      swap1\n      swap2\n      add\n        /* \"#utility.yul\":4488:4520   */\n      calldataload\n      swap1\n        /* \"#utility.yul\":4176:4550   */\n      jump\t// out\n        /* \"#utility.yul\":4555:4975   */\n    tag_63:\n        /* \"#utility.yul\":4632:4638   */\n      0x00\n        /* \"#utility.yul\":4640:4646   */\n      dup1\n        /* \"#utility.yul\":4648:4654   */\n      0x00\n        /* \"#utility.yul\":4701:4703   */\n      0x60\n        /* \"#utility.yul\":4689:4698   */\n      dup5\n        /* \"#utility.yul\":4680:4687   */\n      dup7\n        /* \"#utility.yul\":4676:4699   */\n      sub\n        /* \"#utility.yul\":4672:4704   */\n      slt\n        /* \"#utility.yul\":4669:4721   */\n      iszero\n      tag_344\n      jumpi\n        /* \"#utility.yul\":4717:4718   */\n      0x00\n        /* \"#utility.yul\":4714:4715   */\n      dup1\n        /* \"#utility.yul\":4707:4719   */\n      revert\n        /* \"#utility.yul\":4669:4721   */\n    tag_344:\n        /* \"#utility.yul\":4762:4785   */\n      dup4\n      calldataload\n      swap3\n      pop\n        /* \"#utility.yul\":4882:4884   */\n      0x20\n        /* \"#utility.yul\":4867:4885   */\n      dup5\n      add\n        /* \"#utility.yul\":4854:4886   */\n      calldataload\n      swap2\n      pop\n        /* \"#utility.yul\":4931:4969   */\n      tag_345\n        /* \"#utility.yul\":4965:4967   */\n      0x40\n        /* \"#utility.yul\":4950:4968   */\n      dup6\n      add\n        /* \"#utility.yul\":4931:4969   */\n      tag_303\n      jump\t// in\n    tag_345:\n        /* \"#utility.yul\":4921:4969   */\n      swap1\n      pop\n        /* \"#utility.yul\":4555:4975   */\n      swap3\n      pop\n      swap3\n      pop\n      swap3\n      jump\t// out\n        /* \"#utility.yul\":4980:5166   */\n    tag_78:\n        /* \"#utility.yul\":5039:5045   */\n      0x00\n        /* \"#utility.yul\":5092:5094   */\n      0x20\n        /* \"#utility.yul\":5080:5089   */\n      dup3\n        /* \"#utility.yul\":5071:5078   */\n      dup5\n        /* \"#utility.yul\":5067:5090   */\n      sub\n        /* \"#utility.yul\":5063:5095   */\n      slt\n        /* \"#utility.yul\":5060:5112   */\n      iszero\n      tag_347\n      jumpi\n        /* \"#utility.yul\":5108:5109   */\n      0x00\n        /* \"#utility.yul\":5105:5106   */\n      dup1\n        /* \"#utility.yul\":5098:5110   */\n      revert\n        /* \"#utility.yul\":5060:5112   */\n    tag_347:\n        /* \"#utility.yul\":5131:5160   */\n      tag_185\n        /* \"#utility.yul\":5150:5159   */\n      dup3\n        /* \"#utility.yul\":5131:5160   */\n      tag_303\n      jump\t// in\n        /* \"#utility.yul\":5353:5700   */\n    tag_89:\n        /* \"#utility.yul\":5418:5424   */\n      0x00\n        /* \"#utility.yul\":5426:5432   */\n      dup1\n        /* \"#utility.yul\":5479:5481   */\n      0x40\n        /* \"#utility.yul\":5467:5476   */\n      dup4\n        /* \"#utility.yul\":5458:5465   */\n      dup6\n        /* \"#utility.yul\":5454:5477   */\n      sub\n        /* \"#utility.yul\":5450:5482   */\n      slt\n        /* \"#utility.yul\":5447:5499   */\n      iszero\n      tag_351\n      jumpi\n        /* \"#utility.yul\":5495:5496   */\n      0x00\n        /* \"#utility.yul\":5492:5493   */\n      dup1\n        /* \"#utility.yul\":5485:5497   */\n      revert\n        /* \"#utility.yul\":5447:5499   */\n    tag_351:\n        /* \"#utility.yul\":5518:5547   */\n      tag_352\n        /* \"#utility.yul\":5537:5546   */\n      dup4\n        /* \"#utility.yul\":5518:5547   */\n      tag_303\n      jump\t// in\n    tag_352:\n        /* \"#utility.yul\":5508:5547   */\n      swap2\n      pop\n        /* \"#utility.yul\":5597:5599   */\n      0x20\n        /* \"#utility.yul\":5586:5595   */\n      dup4\n        /* \"#utility.yul\":5582:5600   */\n      add\n        /* \"#utility.yul\":5569:5601   */\n      calldataload\n        /* \"#utility.yul\":5644:5649   */\n      dup1\n        /* \"#utility.yul\":5637:5650   */\n      iszero\n        /* \"#utility.yul\":5630:5651   */\n      iszero\n        /* \"#utility.yul\":5623:5628   */\n      dup2\n        /* \"#utility.yul\":5620:5652   */\n      eq\n        /* \"#utility.yul\":5610:5670   */\n      tag_353\n      jumpi\n        /* \"#utility.yul\":5666:5667   */\n      0x00\n        /* \"#utility.yul\":5663:5664   */\n      dup1\n        /* \"#utility.yul\":5656:5668   */\n      revert\n        /* \"#utility.yul\":5610:5670   */\n    tag_353:\n        /* \"#utility.yul\":5689:5694   */\n      dup1\n        /* \"#utility.yul\":5679:5694   */\n      swap2\n      pop\n      pop\n        /* \"#utility.yul\":5353:5700   */\n      swap3\n      pop\n      swap3\n      swap1\n      pop\n      jump\t// out\n        /* \"#utility.yul\":5705:6418   */\n    tag_94:\n        /* \"#utility.yul\":5800:5806   */\n      0x00\n        /* \"#utility.yul\":5808:5814   */\n      dup1\n        /* \"#utility.yul\":5816:5822   */\n      0x00\n        /* \"#utility.yul\":5824:5830   */\n      dup1\n        /* \"#utility.yul\":5877:5880   */\n      0x80\n        /* \"#utility.yul\":5865:5874   */\n      dup6\n        /* \"#utility.yul\":5856:5863   */\n      dup8\n        /* \"#utility.yul\":5852:5875   */\n      sub\n        /* \"#utility.yul\":5848:5881   */\n      slt\n        /* \"#utility.yul\":5845:5898   */\n      iszero\n      tag_355\n      jumpi\n        /* \"#utility.yul\":5894:5895   */\n      0x00\n        /* \"#utility.yul\":5891:5892   */\n      dup1\n        /* \"#utility.yul\":5884:5896   */\n      revert\n        /* \"#utility.yul\":5845:5898   */\n    tag_355:\n        /* \"#utility.yul\":5917:5946   */\n      tag_356\n        /* \"#utility.yul\":5936:5945   */\n      dup6\n        /* \"#utility.yul\":5917:5946   */\n      tag_303\n      jump\t// in\n    tag_356:\n        /* \"#utility.yul\":5907:5946   */\n      swap4\n      pop\n        /* \"#utility.yul\":5965:6003   */\n      tag_357\n        /* \"#utility.yul\":5999:6001   */\n      0x20\n        /* \"#utility.yul\":5988:5997   */\n      dup7\n        /* \"#utility.yul\":5984:6002   */\n      add\n        /* \"#utility.yul\":5965:6003   */\n      tag_303\n      jump\t// in\n    tag_357:\n        /* \"#utility.yul\":5955:6003   */\n      swap3\n      pop\n        /* \"#utility.yul\":6072:6074   */\n      0x40\n        /* \"#utility.yul\":6057:6075   */\n      dup6\n      add\n        /* \"#utility.yul\":6044:6076   */\n      calldataload\n      swap2\n      pop\n        /* \"#utility.yul\":6151:6153   */\n      0x60\n        /* \"#utility.yul\":6136:6154   */\n      dup6\n      add\n        /* \"#utility.yul\":6123:6155   */\n      calldataload\n        /* \"#utility.yul\":6178:6196   */\n      0xffffffffffffffff\n        /* \"#utility.yul\":6167:6197   */\n      dup2\n      gt\n        /* \"#utility.yul\":6164:6214   */\n      iszero\n      tag_358\n      jumpi\n        /* \"#utility.yul\":6210:6211   */\n      0x00\n        /* \"#utility.yul\":6207:6208   */\n      dup1\n        /* \"#utility.yul\":6200:6212   */\n      revert\n        /* \"#utility.yul\":6164:6214   */\n    tag_358:\n        /* \"#utility.yul\":6233:6255   */\n      dup6\n      add\n        /* \"#utility.yul\":6286:6290   */\n      0x1f\n        /* \"#utility.yul\":6278:6291   */\n      dup2\n      add\n        /* \"#utility.yul\":6274:6301   */\n      dup8\n      sgt\n        /* \"#utility.yul\":6264:6319   */\n      tag_359\n      jumpi\n        /* \"#utility.yul\":6315:6316   */\n      0x00\n        /* \"#utility.yul\":6312:6313   */\n      dup1\n        /* \"#utility.yul\":6305:6317   */\n      revert\n        /* \"#utility.yul\":6264:6319   */\n    tag_359:\n        /* \"#utility.yul\":6338:6412   */\n      tag_360\n        /* \"#utility.yul\":6404:6411   */\n      dup8\n        /* \"#utility.yul\":6399:6401   */\n      dup3\n        /* \"#utility.yul\":6386:6402   */\n      calldataload\n        /* \"#utility.yul\":6381:6383   */\n      0x20\n        /* \"#utility.yul\":6377:6379   */\n      dup5\n        /* \"#utility.yul\":6373:6384   */\n      add\n        /* \"#utility.yul\":6338:6412   */\n      tag_304\n      jump\t// in\n    tag_360:\n        /* \"#utility.yul\":6328:6412   */\n      swap2\n      pop\n      pop\n        /* \"#utility.yul\":5705:6418   */\n      swap3\n      swap6\n      swap2\n      swap5\n      pop\n      swap3\n      pop\n      jump\t// out\n        /* \"#utility.yul\":6423:6683   */\n    tag_104:\n        /* \"#utility.yul\":6491:6497   */\n      0x00\n        /* \"#utility.yul\":6499:6505   */\n      dup1\n        /* \"#utility.yul\":6552:6554   */\n      0x40\n        /* \"#utility.yul\":6540:6549   */\n      dup4\n        /* \"#utility.yul\":6531:6538   */\n      dup6\n        /* \"#utility.yul\":6527:6550   */\n      sub\n        /* \"#utility.yul\":6523:6555   */\n      slt\n        /* \"#utility.yul\":6520:6572   */\n      iszero\n      tag_362\n      jumpi\n        /* \"#utility.yul\":6568:6569   */\n      0x00\n        /* \"#utility.yul\":6565:6566   */\n      dup1\n        /* \"#utility.yul\":6558:6570   */\n      revert\n        /* \"#utility.yul\":6520:6572   */\n    tag_362:\n        /* \"#utility.yul\":6591:6620   */\n      tag_363\n        /* \"#utility.yul\":6610:6619   */\n      dup4\n        /* \"#utility.yul\":6591:6620   */\n      tag_303\n      jump\t// in\n    tag_363:\n        /* \"#utility.yul\":6581:6620   */\n      swap2\n      pop\n        /* \"#utility.yul\":6639:6677   */\n      tag_364\n        /* \"#utility.yul\":6673:6675   */\n      0x20\n        /* \"#utility.yul\":6662:6671   */\n      dup5\n        /* \"#utility.yul\":6658:6676   */\n      add\n        /* \"#utility.yul\":6639:6677   */\n      tag_303\n      jump\t// in\n    tag_364:\n        /* \"#utility.yul\":6629:6677   */\n      swap1\n      pop\n        /* \"#utility.yul\":6423:6683   */\n      swap3\n      pop\n      swap3\n      swap1\n      pop\n      jump\t// out\n        /* \"#utility.yul\":6688:7068   */\n    tag_114:\n        /* \"#utility.yul\":6767:6768   */\n      0x01\n        /* \"#utility.yul\":6763:6775   */\n      dup2\n      dup2\n      shr\n      swap1\n        /* \"#utility.yul\":6810:6822   */\n      dup3\n      and\n      dup1\n        /* \"#utility.yul\":6831:6892   */\n      tag_366\n      jumpi\n        /* \"#utility.yul\":6885:6889   */\n      0x7f\n        /* \"#utility.yul\":6877:6883   */\n      dup3\n        /* \"#utility.yul\":6873:6890   */\n      and\n        /* \"#utility.yul\":6863:6890   */\n      swap2\n      pop\n        /* \"#utility.yul\":6831:6892   */\n    tag_366:\n        /* \"#utility.yul\":6938:6940   */\n      0x20\n        /* \"#utility.yul\":6930:6936   */\n      dup3\n        /* \"#utility.yul\":6927:6941   */\n      lt\n        /* \"#utility.yul\":6907:6925   */\n      dup2\n        /* \"#utility.yul\":6904:6942   */\n      sub\n        /* \"#utility.yul\":6901:7062   */\n      tag_367\n      jumpi\n        /* \"#utility.yul\":6984:6994   */\n      0x4e487b71\n        /* \"#utility.yul\":6979:6982   */\n      0xe0\n        /* \"#utility.yul\":6975:6995   */\n      shl\n        /* \"#utility.yul\":6972:6973   */\n      0x00\n        /* \"#utility.yul\":6965:6996   */\n      mstore\n        /* \"#utility.yul\":7019:7023   */\n      0x22\n        /* \"#utility.yul\":7016:7017   */\n      0x04\n        /* \"#utility.yul\":7009:7024   */\n      mstore\n        /* \"#utility.yul\":7047:7051   */\n      0x24\n        /* \"#utility.yul\":7044:7045   */\n      0x00\n        /* \"#utility.yul\":7037:7052   */\n      revert\n        /* \"#utility.yul\":6901:7062   */\n    tag_367:\n      pop\n        /* \"#utility.yul\":6688:7068   */\n      swap2\n      swap1\n      pop\n      jump\t// out\n        /* \"#utility.yul\":8506:8718   */\n    tag_305:\n        /* \"#utility.yul\":8548:8551   */\n      0x00\n        /* \"#utility.yul\":8586:8591   */\n      dup2\n        /* \"#utility.yul\":8580:8592   */\n      mload\n        /* \"#utility.yul\":8630:8636   */\n      dup1\n        /* \"#utility.yul\":8623:8627   */\n      0x20\n        /* \"#utility.yul\":8616:8621   */\n      dup5\n        /* \"#utility.yul\":8612:8628   */\n      add\n        /* \"#utility.yul\":8607:8610   */\n      dup6\n        /* \"#utility.yul\":8601:8637   */\n      mcopy\n        /* \"#utility.yul\":8692:8693   */\n      0x00\n        /* \"#utility.yul\":8656:8672   */\n      swap4\n      add\n        /* \"#utility.yul\":8681:8694   */\n      swap3\n      dup4\n      mstore\n      pop\n        /* \"#utility.yul\":8656:8672   */\n      swap1\n      swap2\n        /* \"#utility.yul\":8506:8718   */\n      swap1\n      pop\n      jump\t// out\n        /* \"#utility.yul\":8723:8990   */\n    tag_189:\n        /* \"#utility.yul\":8902:8905   */\n      0x00\n        /* \"#utility.yul\":8927:8984   */\n      tag_158\n        /* \"#utility.yul\":8953:8983   */\n      tag_375\n        /* \"#utility.yul\":8979:8982   */\n      dup4\n        /* \"#utility.yul\":8971:8977   */\n      dup7\n        /* \"#utility.yul\":8953:8983   */\n      tag_305\n      jump\t// in\n    tag_375:\n        /* \"#utility.yul\":8945:8951   */\n      dup5\n        /* \"#utility.yul\":8927:8984   */\n      tag_305\n      jump\t// in\n        /* \"#utility.yul\":8995:9491   */\n    tag_225:\n      sub(shl(0xa0, 0x01), 0x01)\n        /* \"#utility.yul\":9226:9258   */\n      dup6\n      dup2\n      and\n        /* \"#utility.yul\":9208:9259   */\n      dup3\n      mstore\n        /* \"#utility.yul\":9295:9327   */\n      dup5\n      and\n        /* \"#utility.yul\":9290:9292   */\n      0x20\n        /* \"#utility.yul\":9275:9293   */\n      dup3\n      add\n        /* \"#utility.yul\":9268:9328   */\n      mstore\n        /* \"#utility.yul\":9359:9361   */\n      0x40\n        /* \"#utility.yul\":9344:9362   */\n      dup2\n      add\n        /* \"#utility.yul\":9337:9371   */\n      dup4\n      swap1\n      mstore\n        /* \"#utility.yul\":9407:9410   */\n      0x80\n        /* \"#utility.yul\":9402:9404   */\n      0x60\n        /* \"#utility.yul\":9387:9405   */\n      dup3\n      add\n        /* \"#utility.yul\":9380:9411   */\n      dup2\n      swap1\n      mstore\n      0x00\n      swap1\n        /* \"#utility.yul\":9428:9485   */\n      tag_377\n      swap1\n        /* \"#utility.yul\":9465:9484   */\n      dup4\n      add\n        /* \"#utility.yul\":9457:9463   */\n      dup5\n        /* \"#utility.yul\":9428:9485   */\n      tag_302\n      jump\t// in\n    tag_377:\n        /* \"#utility.yul\":9420:9485   */\n      swap7\n        /* \"#utility.yul\":8995:9491   */\n      swap6\n      pop\n      pop\n      pop\n      pop\n      pop\n      pop\n      jump\t// out\n        /* \"#utility.yul\":9496:9745   */\n    tag_228:\n        /* \"#utility.yul\":9565:9571   */\n      0x00\n        /* \"#utility.yul\":9618:9620   */\n      0x20\n        /* \"#utility.yul\":9606:9615   */\n      dup3\n        /* \"#utility.yul\":9597:9604   */\n      dup5\n        /* \"#utility.yul\":9593:9616   */\n      sub\n        /* \"#utility.yul\":9589:9621   */\n      slt\n        /* \"#utility.yul\":9586:9638   */\n      iszero\n      tag_379\n      jumpi\n        /* \"#utility.yul\":9634:9635   */\n      0x00\n        /* \"#utility.yul\":9631:9632   */\n      dup1\n        /* \"#utility.yul\":9624:9636   */\n      revert\n        /* \"#utility.yul\":9586:9638   */\n    tag_379:\n        /* \"#utility.yul\":9666:9675   */\n      dup2\n        /* \"#utility.yul\":9660:9676   */\n      mload\n        /* \"#utility.yul\":9685:9715   */\n      tag_185\n        /* \"#utility.yul\":9709:9714   */\n      dup2\n        /* \"#utility.yul\":9685:9715   */\n      tag_301\n      jump\t// in\n\n    auxdata: 0xa2646970667358221220c0173ff5eb655fb3c46beb8634d0d2195630308c2337fb4ce820bd89ef12e40464736f6c634300081a0033\n}\n",
				"bytecode": {
					"linkReferences": {},
					"object": "608060405234801561000f575f80fd5b5060405161156f38038061156f83398101604081905261002e916100ef565b81815f61003b83826101d8565b50600161004882826101d8565b5050505050610292565b634e487b7160e01b5f52604160045260245ffd5b5f82601f830112610075575f80fd5b81516001600160401b0381111561008e5761008e610052565b604051601f8201601f19908116603f011681016001600160401b03811182821017156100bc576100bc610052565b6040528181528382016020018510156100d3575f80fd5b8160208501602083015e5f918101602001919091529392505050565b5f8060408385031215610100575f80fd5b82516001600160401b03811115610115575f80fd5b61012185828601610066565b602085015190935090506001600160401b0381111561013e575f80fd5b61014a85828601610066565b9150509250929050565b600181811c9082168061016857607f821691505b60208210810361018657634e487b7160e01b5f52602260045260245ffd5b50919050565b601f8211156101d357805f5260205f20601f840160051c810160208510156101b15750805b601f840160051c820191505b818110156101d0575f81556001016101bd565b50505b505050565b81516001600160401b038111156101f1576101f1610052565b610205816101ff8454610154565b8461018c565b6020601f821160018114610237575f83156102205750848201515b5f19600385901b1c1916600184901b1784556101d0565b5f84815260208120601f198516915b828110156102665787850151825560209485019460019092019101610246565b508482101561028357868401515f19600387901b60f8161c191681555b50505050600190811b01905550565b6112d08061029f5f395ff3fe6080604052600436106100ef575f3560e01c806342842e0e11610087578063a22cb46511610057578063a22cb4651461029e578063b88d4fde146102bd578063c87b56dd146102dc578063e985e9c5146102fb575f80fd5b806342842e0e1461021f5780636352211e1461023e57806370a082311461025d57806395d89b411461028a575f80fd5b80630b791430116100c25780630b791430146101a057806317c87252146101ce57806323b872dd146101e15780633c7cad9b14610200575f80fd5b806301ffc9a7146100f357806306fdde0314610127578063081812fc14610148578063095ea7b31461017f575b5f80fd5b3480156100fe575f80fd5b5061011261010d366004610e9d565b61031a565b60405190151581526020015b60405180910390f35b348015610132575f80fd5b5061013b61036b565b60405161011e9190610ee6565b348015610153575f80fd5b50610167610162366004610ef8565b6103fa565b6040516001600160a01b03909116815260200161011e565b34801561018a575f80fd5b5061019e610199366004610f2a565b610421565b005b3480156101ab575f80fd5b506101bf6101ba366004610ef8565b610430565b60405161011e93929190610f52565b61019e6101dc366004611001565b6104d7565b3480156101ec575f80fd5b5061019e6101fb36600461107a565b6105f2565b34801561020b575f80fd5b5061011261021a3660046110b4565b61067b565b34801561022a575f80fd5b5061019e61023936600461107a565b6106bc565b348015610249575f80fd5b50610167610258366004610ef8565b6106db565b348015610268575f80fd5b5061027c6102773660046110e6565b6106e5565b60405190815260200161011e565b348015610295575f80fd5b5061013b61072a565b3480156102a9575f80fd5b5061019e6102b83660046110ff565b610739565b3480156102c8575f80fd5b5061019e6102d7366004611138565b610744565b3480156102e7575f80fd5b5061013b6102f6366004610ef8565b61075b565b348015610306575f80fd5b506101126103153660046111af565b6107cc565b5f6001600160e01b031982166380ac58cd60e01b148061034a57506001600160e01b03198216635b5e139f60e01b145b8061036557506301ffc9a760e01b6001600160e01b03198316145b92915050565b60605f8054610379906111e0565b80601f01602080910402602001604051908101604052809291908181526020018280546103a5906111e0565b80156103f05780601f106103c7576101008083540402835291602001916103f0565b820191905f5260205f20905b8154815290600101906020018083116103d357829003601f168201915b5050505050905090565b5f610404826107f9565b505f828152600460205260409020546001600160a01b0316610365565b61042c828233610831565b5050565b60076020525f908152604090208054819061044a906111e0565b80601f0160208091040260200160405190810160405280929190818152602001828054610476906111e0565b80156104c15780601f10610498576101008083540402835291602001916104c1565b820191905f5260205f20905b8154815290600101906020018083116104a457829003601f168201915b5050505050908060010154908060020154905083565b5f82815260076020526040902060020154341461053b5760405162461bcd60e51b815260206004820152601860248201527f496e636f7272656374207061796d656e7420616d6f756e74000000000000000060448201526064015b60405180910390fd5b83421061058a5760405162461bcd60e51b815260206004820152601960248201527f4576656e742068617320616c72656164792073746172746564000000000000006044820152606401610532565b5f828152600660205260409020546105a2828261083e565b60408051848152602081018390526001600160a01b0384168183015290517f085ec0eff4bf526b0dd054adffcd8bd8da42126a1133ce302042973f32029fb09181900360600190a1505050505050565b6001600160a01b03821661061b57604051633250574960e11b81525f6004820152602401610532565b5f61062783833361089f565b9050836001600160a01b0316816001600160a01b031614610675576040516364283d7b60e01b81526001600160a01b0380861660048301526024820184905282166044820152606401610532565b50505050565b5f816001600160a01b031661068f846106db565b6001600160a01b03161480156106b457505f8481526007602052604090206001015442105b949350505050565b6106d683838360405180602001604052805f815250610744565b505050565b5f610365826107f9565b5f6001600160a01b03821661070f576040516322718ad960e21b81525f6004820152602401610532565b506001600160a01b03165f9081526003602052604090205490565b606060018054610379906111e0565b61042c338383610991565b61074f8484846105f2565b61067584848484610a2f565b6060610766826107f9565b505f61077c60408051602081019091525f815290565b90505f81511161079a5760405180602001604052805f8152506107c5565b806107a484610b55565b6040516020016107b592919061122f565b6040516020818303038152906040525b9392505050565b6001600160a01b039182165f90815260056020908152604080832093909416825291909152205460ff1690565b5f818152600260205260408120546001600160a01b03168061036557604051637e27328960e01b815260048101849052602401610532565b6106d68383836001610be5565b6001600160a01b03821661086757604051633250574960e11b81525f6004820152602401610532565b5f61087383835f61089f565b90506001600160a01b038116156106d6576040516339e3563760e11b81525f6004820152602401610532565b5f828152600260205260408120546001600160a01b03908116908316156108cb576108cb818486610ce9565b6001600160a01b03811615610905576108e65f855f80610be5565b6001600160a01b0381165f90815260036020526040902080545f190190555b6001600160a01b03851615610933576001600160a01b0385165f908152600360205260409020805460010190555b5f8481526002602052604080822080546001600160a01b0319166001600160a01b0389811691821790925591518793918516917fddf252ad1be2c89b69c2b068fc378daa952ba7f163c4a11628f55a4df523b3ef91a4949350505050565b6001600160a01b0382166109c357604051630b61174360e31b81526001600160a01b0383166004820152602401610532565b6001600160a01b038381165f81815260056020908152604080832094871680845294825291829020805460ff191686151590811790915591519182527f17307eab39ab6107e8899845ad3d59bd9653f200f220920489ca2b5937696c31910160405180910390a3505050565b6001600160a01b0383163b1561067557604051630a85bd0160e11b81526001600160a01b0384169063150b7a0290610a71903390889087908790600401611243565b6020604051808303815f875af1925050508015610aab575060408051601f3d908101601f19168201909252610aa89181019061127f565b60015b610b12573d808015610ad8576040519150601f19603f3d011682016040523d82523d5f602084013e610add565b606091505b5080515f03610b0a57604051633250574960e11b81526001600160a01b0385166004820152602401610532565b805181602001fd5b6001600160e01b03198116630a85bd0160e11b14610b4e57604051633250574960e11b81526001600160a01b0385166004820152602401610532565b5050505050565b60605f610b6183610d4d565b60010190505f8167ffffffffffffffff811115610b8057610b80610f76565b6040519080825280601f01601f191660200182016040528015610baa576020820181803683370190505b5090508181016020015b5f19016f181899199a1a9b1b9c1cb0b131b232b360811b600a86061a8153600a8504945084610bb457509392505050565b8080610bf957506001600160a01b03821615155b15610cba575f610c08846107f9565b90506001600160a01b03831615801590610c345750826001600160a01b0316816001600160a01b031614155b8015610c475750610c4581846107cc565b155b15610c705760405163a9fbf51f60e01b81526001600160a01b0384166004820152602401610532565b8115610cb85783856001600160a01b0316826001600160a01b03167f8c5be1e5ebec7d5bd14f71427d1e84f3dd0314c0f7b2291e5b200ac8c7c3b92560405160405180910390a45b505b50505f90815260046020526040902080546001600160a01b0319166001600160a01b0392909216919091179055565b610cf4838383610e24565b6106d6576001600160a01b038316610d2257604051637e27328960e01b815260048101829052602401610532565b60405163177e802f60e01b81526001600160a01b038316600482015260248101829052604401610532565b5f8072184f03e93ff9f4daa797ed6e38ed64bf6a1f0160401b8310610d8b5772184f03e93ff9f4daa797ed6e38ed64bf6a1f0160401b830492506040015b6d04ee2d6d415b85acef81000000008310610db7576d04ee2d6d415b85acef8100000000830492506020015b662386f26fc100008310610dd557662386f26fc10000830492506010015b6305f5e1008310610ded576305f5e100830492506008015b6127108310610e0157612710830492506004015b60648310610e13576064830492506002015b600a83106103655760010192915050565b5f6001600160a01b038316158015906106b45750826001600160a01b0316846001600160a01b03161480610e5d5750610e5d84846107cc565b806106b45750505f908152600460205260409020546001600160a01b03908116911614919050565b6001600160e01b031981168114610e9a575f80fd5b50565b5f60208284031215610ead575f80fd5b81356107c581610e85565b5f81518084528060208401602086015e5f602082860101526020601f19601f83011685010191505092915050565b602081525f6107c56020830184610eb8565b5f60208284031215610f08575f80fd5b5035919050565b80356001600160a01b0381168114610f25575f80fd5b919050565b5f8060408385031215610f3b575f80fd5b610f4483610f0f565b946020939093013593505050565b606081525f610f646060830186610eb8565b60208301949094525060400152919050565b634e487b7160e01b5f52604160045260245ffd5b5f8067ffffffffffffffff841115610fa457610fa4610f76565b50604051601f19601f85018116603f0116810181811067ffffffffffffffff82111715610fd357610fd3610f76565b604052838152905080828401851015610fea575f80fd5b838360208301375f60208583010152509392505050565b5f805f805f60a08688031215611015575f80fd5b853567ffffffffffffffff81111561102b575f80fd5b8601601f8101881361103b575f80fd5b61104a88823560208401610f8a565b95505060208601359350604086013592506060860135915061106e60808701610f0f565b90509295509295909350565b5f805f6060848603121561108c575f80fd5b61109584610f0f565b92506110a360208501610f0f565b929592945050506040919091013590565b5f805f606084860312156110c6575f80fd5b83359250602084013591506110dd60408501610f0f565b90509250925092565b5f602082840312156110f6575f80fd5b6107c582610f0f565b5f8060408385031215611110575f80fd5b61111983610f0f565b91506020830135801515811461112d575f80fd5b809150509250929050565b5f805f806080858703121561114b575f80fd5b61115485610f0f565b935061116260208601610f0f565b925060408501359150606085013567ffffffffffffffff811115611184575f80fd5b8501601f81018713611194575f80fd5b6111a387823560208401610f8a565b91505092959194509250565b5f80604083850312156111c0575f80fd5b6111c983610f0f565b91506111d760208401610f0f565b90509250929050565b600181811c908216806111f457607f821691505b60208210810361121257634e487b7160e01b5f52602260045260245ffd5b50919050565b5f81518060208401855e5f93019283525090919050565b5f6106b461123d8386611218565b84611218565b6001600160a01b03858116825284166020820152604081018390526080606082018190525f9061127590830184610eb8565b9695505050505050565b5f6020828403121561128f575f80fd5b81516107c581610e8556fea2646970667358221220c0173ff5eb655fb3c46beb8634d0d2195630308c2337fb4ce820bd89ef12e40464736f6c634300081a0033",
					"opcodes": "PUSH1 0x80 PUSH1 0x40 MSTORE CALLVALUE DUP1 ISZERO PUSH2 0xF JUMPI PUSH0 DUP1 REVERT JUMPDEST POP PUSH1 0x40 MLOAD PUSH2 0x156F CODESIZE SUB DUP1 PUSH2 0x156F DUP4 CODECOPY DUP2 ADD PUSH1 0x40 DUP2 SWAP1 MSTORE PUSH2 0x2E SWAP2 PUSH2 0xEF JUMP JUMPDEST DUP2 DUP2 PUSH0 PUSH2 0x3B DUP4 DUP3 PUSH2 0x1D8 JUMP JUMPDEST POP PUSH1 0x1 PUSH2 0x48 DUP3 DUP3 PUSH2 0x1D8 JUMP JUMPDEST POP POP POP POP POP PUSH2 0x292 JUMP JUMPDEST PUSH4 0x4E487B71 PUSH1 0xE0 SHL PUSH0 MSTORE PUSH1 0x41 PUSH1 0x4 MSTORE PUSH1 0x24 PUSH0 REVERT JUMPDEST PUSH0 DUP3 PUSH1 0x1F DUP4 ADD SLT PUSH2 0x75 JUMPI PUSH0 DUP1 REVERT JUMPDEST DUP2 MLOAD PUSH1 0x1 PUSH1 0x1 PUSH1 0x40 SHL SUB DUP2 GT ISZERO PUSH2 0x8E JUMPI PUSH2 0x8E PUSH2 0x52 JUMP JUMPDEST PUSH1 0x40 MLOAD PUSH1 0x1F DUP3 ADD PUSH1 0x1F NOT SWAP1 DUP2 AND PUSH1 0x3F ADD AND DUP2 ADD PUSH1 0x1 PUSH1 0x1 PUSH1 0x40 SHL SUB DUP2 GT DUP3 DUP3 LT OR ISZERO PUSH2 0xBC JUMPI PUSH2 0xBC PUSH2 0x52 JUMP JUMPDEST PUSH1 0x40 MSTORE DUP2 DUP2 MSTORE DUP4 DUP3 ADD PUSH1 0x20 ADD DUP6 LT ISZERO PUSH2 0xD3 JUMPI PUSH0 DUP1 REVERT JUMPDEST DUP2 PUSH1 0x20 DUP6 ADD PUSH1 0x20 DUP4 ADD MCOPY PUSH0 SWAP2 DUP2 ADD PUSH1 0x20 ADD SWAP2 SWAP1 SWAP2 MSTORE SWAP4 SWAP3 POP POP POP JUMP JUMPDEST PUSH0 DUP1 PUSH1 0x40 DUP4 DUP6 SUB SLT ISZERO PUSH2 0x100 JUMPI PUSH0 DUP1 REVERT JUMPDEST DUP3 MLOAD PUSH1 0x1 PUSH1 0x1 PUSH1 0x40 SHL SUB DUP2 GT ISZERO PUSH2 0x115 JUMPI PUSH0 DUP1 REVERT JUMPDEST PUSH2 0x121 DUP6 DUP3 DUP7 ADD PUSH2 0x66 JUMP JUMPDEST PUSH1 0x20 DUP6 ADD MLOAD SWAP1 SWAP4 POP SWAP1 POP PUSH1 0x1 PUSH1 0x1 PUSH1 0x40 SHL SUB DUP2 GT ISZERO PUSH2 0x13E JUMPI PUSH0 DUP1 REVERT JUMPDEST PUSH2 0x14A DUP6 DUP3 DUP7 ADD PUSH2 0x66 JUMP JUMPDEST SWAP2 POP POP SWAP3 POP SWAP3 SWAP1 POP JUMP JUMPDEST PUSH1 0x1 DUP2 DUP2 SHR SWAP1 DUP3 AND DUP1 PUSH2 0x168 JUMPI PUSH1 0x7F DUP3 AND SWAP2 POP JUMPDEST PUSH1 0x20 DUP3 LT DUP2 SUB PUSH2 0x186 JUMPI PUSH4 0x4E487B71 PUSH1 0xE0 SHL PUSH0 MSTORE PUSH1 0x22 PUSH1 0x4 MSTORE PUSH1 0x24 PUSH0 REVERT JUMPDEST POP SWAP2 SWAP1 POP JUMP JUMPDEST PUSH1 0x1F DUP3 GT ISZERO PUSH2 0x1D3 JUMPI DUP1 PUSH0 MSTORE PUSH1 0x20 PUSH0 KECCAK256 PUSH1 0x1F DUP5 ADD PUSH1 0x5 SHR DUP2 ADD PUSH1 0x20 DUP6 LT ISZERO PUSH2 0x1B1 JUMPI POP DUP1 JUMPDEST PUSH1 0x1F DUP5 ADD PUSH1 0x5 SHR DUP3 ADD SWAP2 POP JUMPDEST DUP2 DUP2 LT ISZERO PUSH2 0x1D0 JUMPI PUSH0 DUP2 SSTORE PUSH1 0x1 ADD PUSH2 0x1BD JUMP JUMPDEST POP POP JUMPDEST POP POP POP JUMP JUMPDEST DUP2 MLOAD PUSH1 0x1 PUSH1 0x1 PUSH1 0x40 SHL SUB DUP2 GT ISZERO PUSH2 0x1F1 JUMPI PUSH2 0x1F1 PUSH2 0x52 JUMP JUMPDEST PUSH2 0x205 DUP2 PUSH2 0x1FF DUP5 SLOAD PUSH2 0x154 JUMP JUMPDEST DUP5 PUSH2 0x18C JUMP JUMPDEST PUSH1 0x20 PUSH1 0x1F DUP3 GT PUSH1 0x1 DUP2 EQ PUSH2 0x237 JUMPI PUSH0 DUP4 ISZERO PUSH2 0x220 JUMPI POP DUP5 DUP3 ADD MLOAD JUMPDEST PUSH0 NOT PUSH1 0x3 DUP6 SWAP1 SHL SHR NOT AND PUSH1 0x1 DUP5 SWAP1 SHL OR DUP5 SSTORE PUSH2 0x1D0 JUMP JUMPDEST PUSH0 DUP5 DUP2 MSTORE PUSH1 0x20 DUP2 KECCAK256 PUSH1 0x1F NOT DUP6 AND SWAP2 JUMPDEST DUP3 DUP2 LT ISZERO PUSH2 0x266 JUMPI DUP8 DUP6 ADD MLOAD DUP3 SSTORE PUSH1 0x20 SWAP5 DUP6 ADD SWAP5 PUSH1 0x1 SWAP1 SWAP3 ADD SWAP2 ADD PUSH2 0x246 JUMP JUMPDEST POP DUP5 DUP3 LT ISZERO PUSH2 0x283 JUMPI DUP7 DUP5 ADD MLOAD PUSH0 NOT PUSH1 0x3 DUP8 SWAP1 SHL PUSH1 0xF8 AND SHR NOT AND DUP2 SSTORE JUMPDEST POP POP POP POP PUSH1 0x1 SWAP1 DUP2 SHL ADD SWAP1 SSTORE POP JUMP JUMPDEST PUSH2 0x12D0 DUP1 PUSH2 0x29F PUSH0 CODECOPY PUSH0 RETURN INVALID PUSH1 0x80 PUSH1 0x40 MSTORE PUSH1 0x4 CALLDATASIZE LT PUSH2 0xEF JUMPI PUSH0 CALLDATALOAD PUSH1 0xE0 SHR DUP1 PUSH4 0x42842E0E GT PUSH2 0x87 JUMPI DUP1 PUSH4 0xA22CB465 GT PUSH2 0x57 JUMPI DUP1 PUSH4 0xA22CB465 EQ PUSH2 0x29E JUMPI DUP1 PUSH4 0xB88D4FDE EQ PUSH2 0x2BD JUMPI DUP1 PUSH4 0xC87B56DD EQ PUSH2 0x2DC JUMPI DUP1 PUSH4 0xE985E9C5 EQ PUSH2 0x2FB JUMPI PUSH0 DUP1 REVERT JUMPDEST DUP1 PUSH4 0x42842E0E EQ PUSH2 0x21F JUMPI DUP1 PUSH4 0x6352211E EQ PUSH2 0x23E JUMPI DUP1 PUSH4 0x70A08231 EQ PUSH2 0x25D JUMPI DUP1 PUSH4 0x95D89B41 EQ PUSH2 0x28A JUMPI PUSH0 DUP1 REVERT JUMPDEST DUP1 PUSH4 0xB791430 GT PUSH2 0xC2 JUMPI DUP1 PUSH4 0xB791430 EQ PUSH2 0x1A0 JUMPI DUP1 PUSH4 0x17C87252 EQ PUSH2 0x1CE JUMPI DUP1 PUSH4 0x23B872DD EQ PUSH2 0x1E1 JUMPI DUP1 PUSH4 0x3C7CAD9B EQ PUSH2 0x200 JUMPI PUSH0 DUP1 REVERT JUMPDEST DUP1 PUSH4 0x1FFC9A7 EQ PUSH2 0xF3 JUMPI DUP1 PUSH4 0x6FDDE03 EQ PUSH2 0x127 JUMPI DUP1 PUSH4 0x81812FC EQ PUSH2 0x148 JUMPI DUP1 PUSH4 0x95EA7B3 EQ PUSH2 0x17F JUMPI JUMPDEST PUSH0 DUP1 REVERT JUMPDEST CALLVALUE DUP1 ISZERO PUSH2 0xFE JUMPI PUSH0 DUP1 REVERT JUMPDEST POP PUSH2 0x112 PUSH2 0x10D CALLDATASIZE PUSH1 0x4 PUSH2 0xE9D JUMP JUMPDEST PUSH2 0x31A JUMP JUMPDEST PUSH1 0x40 MLOAD SWAP1 ISZERO ISZERO DUP2 MSTORE PUSH1 0x20 ADD JUMPDEST PUSH1 0x40 MLOAD DUP1 SWAP2 SUB SWAP1 RETURN JUMPDEST CALLVALUE DUP1 ISZERO PUSH2 0x132 JUMPI PUSH0 DUP1 REVERT JUMPDEST POP PUSH2 0x13B PUSH2 0x36B JUMP JUMPDEST PUSH1 0x40 MLOAD PUSH2 0x11E SWAP2 SWAP1 PUSH2 0xEE6 JUMP JUMPDEST CALLVALUE DUP1 ISZERO PUSH2 0x153 JUMPI PUSH0 DUP1 REVERT JUMPDEST POP PUSH2 0x167 PUSH2 0x162 CALLDATASIZE PUSH1 0x4 PUSH2 0xEF8 JUMP JUMPDEST PUSH2 0x3FA JUMP JUMPDEST PUSH1 0x40 MLOAD PUSH1 0x1 PUSH1 0x1 PUSH1 0xA0 SHL SUB SWAP1 SWAP2 AND DUP2 MSTORE PUSH1 0x20 ADD PUSH2 0x11E JUMP JUMPDEST CALLVALUE DUP1 ISZERO PUSH2 0x18A JUMPI PUSH0 DUP1 REVERT JUMPDEST POP PUSH2 0x19E PUSH2 0x199 CALLDATASIZE PUSH1 0x4 PUSH2 0xF2A JUMP JUMPDEST PUSH2 0x421 JUMP JUMPDEST STOP JUMPDEST CALLVALUE DUP1 ISZERO PUSH2 0x1AB JUMPI PUSH0 DUP1 REVERT JUMPDEST POP PUSH2 0x1BF PUSH2 0x1BA CALLDATASIZE PUSH1 0x4 PUSH2 0xEF8 JUMP JUMPDEST PUSH2 0x430 JUMP JUMPDEST PUSH1 0x40 MLOAD PUSH2 0x11E SWAP4 SWAP3 SWAP2 SWAP1 PUSH2 0xF52 JUMP JUMPDEST PUSH2 0x19E PUSH2 0x1DC CALLDATASIZE PUSH1 0x4 PUSH2 0x1001 JUMP JUMPDEST PUSH2 0x4D7 JUMP JUMPDEST CALLVALUE DUP1 ISZERO PUSH2 0x1EC JUMPI PUSH0 DUP1 REVERT JUMPDEST POP PUSH2 0x19E PUSH2 0x1FB CALLDATASIZE PUSH1 0x4 PUSH2 0x107A JUMP JUMPDEST PUSH2 0x5F2 JUMP JUMPDEST CALLVALUE DUP1 ISZERO PUSH2 0x20B JUMPI PUSH0 DUP1 REVERT JUMPDEST POP PUSH2 0x112 PUSH2 0x21A CALLDATASIZE PUSH1 0x4 PUSH2 0x10B4 JUMP JUMPDEST PUSH2 0x67B JUMP JUMPDEST CALLVALUE DUP1 ISZERO PUSH2 0x22A JUMPI PUSH0 DUP1 REVERT JUMPDEST POP PUSH2 0x19E PUSH2 0x239 CALLDATASIZE PUSH1 0x4 PUSH2 0x107A JUMP JUMPDEST PUSH2 0x6BC JUMP JUMPDEST CALLVALUE DUP1 ISZERO PUSH2 0x249 JUMPI PUSH0 DUP1 REVERT JUMPDEST POP PUSH2 0x167 PUSH2 0x258 CALLDATASIZE PUSH1 0x4 PUSH2 0xEF8 JUMP JUMPDEST PUSH2 0x6DB JUMP JUMPDEST CALLVALUE DUP1 ISZERO PUSH2 0x268 JUMPI PUSH0 DUP1 REVERT JUMPDEST POP PUSH2 0x27C PUSH2 0x277 CALLDATASIZE PUSH1 0x4 PUSH2 0x10E6 JUMP JUMPDEST PUSH2 0x6E5 JUMP JUMPDEST PUSH1 0x40 MLOAD SWAP1 DUP2 MSTORE PUSH1 0x20 ADD PUSH2 0x11E JUMP JUMPDEST CALLVALUE DUP1 ISZERO PUSH2 0x295 JUMPI PUSH0 DUP1 REVERT JUMPDEST POP PUSH2 0x13B PUSH2 0x72A JUMP JUMPDEST CALLVALUE DUP1 ISZERO PUSH2 0x2A9 JUMPI PUSH0 DUP1 REVERT JUMPDEST POP PUSH2 0x19E PUSH2 0x2B8 CALLDATASIZE PUSH1 0x4 PUSH2 0x10FF JUMP JUMPDEST PUSH2 0x739 JUMP JUMPDEST CALLVALUE DUP1 ISZERO PUSH2 0x2C8 JUMPI PUSH0 DUP1 REVERT JUMPDEST POP PUSH2 0x19E PUSH2 0x2D7 CALLDATASIZE PUSH1 0x4 PUSH2 0x1138 JUMP JUMPDEST PUSH2 0x744 JUMP JUMPDEST CALLVALUE DUP1 ISZERO PUSH2 0x2E7 JUMPI PUSH0 DUP1 REVERT JUMPDEST POP PUSH2 0x13B PUSH2 0x2F6 CALLDATASIZE PUSH1 0x4 PUSH2 0xEF8 JUMP JUMPDEST PUSH2 0x75B JUMP JUMPDEST CALLVALUE DUP1 ISZERO PUSH2 0x306 JUMPI PUSH0 DUP1 REVERT JUMPDEST POP PUSH2 0x112 PUSH2 0x315 CALLDATASIZE PUSH1 0x4 PUSH2 0x11AF JUMP JUMPDEST PUSH2 0x7CC JUMP JUMPDEST PUSH0 PUSH1 0x1 PUSH1 0x1 PUSH1 0xE0 SHL SUB NOT DUP3 AND PUSH4 0x80AC58CD PUSH1 0xE0 SHL EQ DUP1 PUSH2 0x34A JUMPI POP PUSH1 0x1 PUSH1 0x1 PUSH1 0xE0 SHL SUB NOT DUP3 AND PUSH4 0x5B5E139F PUSH1 0xE0 SHL EQ JUMPDEST DUP1 PUSH2 0x365 JUMPI POP PUSH4 0x1FFC9A7 PUSH1 0xE0 SHL PUSH1 0x1 PUSH1 0x1 PUSH1 0xE0 SHL SUB NOT DUP4 AND EQ JUMPDEST SWAP3 SWAP2 POP POP JUMP JUMPDEST PUSH1 0x60 PUSH0 DUP1 SLOAD PUSH2 0x379 SWAP1 PUSH2 0x11E0 JUMP JUMPDEST DUP1 PUSH1 0x1F ADD PUSH1 0x20 DUP1 SWAP2 DIV MUL PUSH1 0x20 ADD PUSH1 0x40 MLOAD SWAP1 DUP2 ADD PUSH1 0x40 MSTORE DUP1 SWAP3 SWAP2 SWAP1 DUP2 DUP2 MSTORE PUSH1 0x20 ADD DUP3 DUP1 SLOAD PUSH2 0x3A5 SWAP1 PUSH2 0x11E0 JUMP JUMPDEST DUP1 ISZERO PUSH2 0x3F0 JUMPI DUP1 PUSH1 0x1F LT PUSH2 0x3C7 JUMPI PUSH2 0x100 DUP1 DUP4 SLOAD DIV MUL DUP4 MSTORE SWAP2 PUSH1 0x20 ADD SWAP2 PUSH2 0x3F0 JUMP JUMPDEST DUP3 ADD SWAP2 SWAP1 PUSH0 MSTORE PUSH1 0x20 PUSH0 KECCAK256 SWAP1 JUMPDEST DUP2 SLOAD DUP2 MSTORE SWAP1 PUSH1 0x1 ADD SWAP1 PUSH1 0x20 ADD DUP1 DUP4 GT PUSH2 0x3D3 JUMPI DUP3 SWAP1 SUB PUSH1 0x1F AND DUP3 ADD SWAP2 JUMPDEST POP POP POP POP POP SWAP1 POP SWAP1 JUMP JUMPDEST PUSH0 PUSH2 0x404 DUP3 PUSH2 0x7F9 JUMP JUMPDEST POP PUSH0 DUP3 DUP2 MSTORE PUSH1 0x4 PUSH1 0x20 MSTORE PUSH1 0x40 SWAP1 KECCAK256 SLOAD PUSH1 0x1 PUSH1 0x1 PUSH1 0xA0 SHL SUB AND PUSH2 0x365 JUMP JUMPDEST PUSH2 0x42C DUP3 DUP3 CALLER PUSH2 0x831 JUMP JUMPDEST POP POP JUMP JUMPDEST PUSH1 0x7 PUSH1 0x20 MSTORE PUSH0 SWAP1 DUP2 MSTORE PUSH1 0x40 SWAP1 KECCAK256 DUP1 SLOAD DUP2 SWAP1 PUSH2 0x44A SWAP1 PUSH2 0x11E0 JUMP JUMPDEST DUP1 PUSH1 0x1F ADD PUSH1 0x20 DUP1 SWAP2 DIV MUL PUSH1 0x20 ADD PUSH1 0x40 MLOAD SWAP1 DUP2 ADD PUSH1 0x40 MSTORE DUP1 SWAP3 SWAP2 SWAP1 DUP2 DUP2 MSTORE PUSH1 0x20 ADD DUP3 DUP1 SLOAD PUSH2 0x476 SWAP1 PUSH2 0x11E0 JUMP JUMPDEST DUP1 ISZERO PUSH2 0x4C1 JUMPI DUP1 PUSH1 0x1F LT PUSH2 0x498 JUMPI PUSH2 0x100 DUP1 DUP4 SLOAD DIV MUL DUP4 MSTORE SWAP2 PUSH1 0x20 ADD SWAP2 PUSH2 0x4C1 JUMP JUMPDEST DUP3 ADD SWAP2 SWAP1 PUSH0 MSTORE PUSH1 0x20 PUSH0 KECCAK256 SWAP1 JUMPDEST DUP2 SLOAD DUP2 MSTORE SWAP1 PUSH1 0x1 ADD SWAP1 PUSH1 0x20 ADD DUP1 DUP4 GT PUSH2 0x4A4 JUMPI DUP3 SWAP1 SUB PUSH1 0x1F AND DUP3 ADD SWAP2 JUMPDEST POP POP POP POP POP SWAP1 DUP1 PUSH1 0x1 ADD SLOAD SWAP1 DUP1 PUSH1 0x2 ADD SLOAD SWAP1 POP DUP4 JUMP JUMPDEST PUSH0 DUP3 DUP2 MSTORE PUSH1 0x7 PUSH1 0x20 MSTORE PUSH1 0x40 SWAP1 KECCAK256 PUSH1 0x2 ADD SLOAD CALLVALUE EQ PUSH2 0x53B JUMPI PUSH1 0x40 MLOAD PUSH3 0x461BCD PUSH1 0xE5 SHL DUP2 MSTORE PUSH1 0x20 PUSH1 0x4 DUP3 ADD MSTORE PUSH1 0x18 PUSH1 0x24 DUP3 ADD MSTORE PUSH32 0x496E636F7272656374207061796D656E7420616D6F756E740000000000000000 PUSH1 0x44 DUP3 ADD MSTORE PUSH1 0x64 ADD JUMPDEST PUSH1 0x40 MLOAD DUP1 SWAP2 SUB SWAP1 REVERT JUMPDEST DUP4 TIMESTAMP LT PUSH2 0x58A JUMPI PUSH1 0x40 MLOAD PUSH3 0x461BCD PUSH1 0xE5 SHL DUP2 MSTORE PUSH1 0x20 PUSH1 0x4 DUP3 ADD MSTORE PUSH1 0x19 PUSH1 0x24 DUP3 ADD MSTORE PUSH32 0x4576656E742068617320616C7265616479207374617274656400000000000000 PUSH1 0x44 DUP3 ADD MSTORE PUSH1 0x64 ADD PUSH2 0x532 JUMP JUMPDEST PUSH0 DUP3 DUP2 MSTORE PUSH1 0x6 PUSH1 0x20 MSTORE PUSH1 0x40 SWAP1 KECCAK256 SLOAD PUSH2 0x5A2 DUP3 DUP3 PUSH2 0x83E JUMP JUMPDEST PUSH1 0x40 DUP1 MLOAD DUP5 DUP2 MSTORE PUSH1 0x20 DUP2 ADD DUP4 SWAP1 MSTORE PUSH1 0x1 PUSH1 0x1 PUSH1 0xA0 SHL SUB DUP5 AND DUP2 DUP4 ADD MSTORE SWAP1 MLOAD PUSH32 0x85EC0EFF4BF526B0DD054ADFFCD8BD8DA42126A1133CE302042973F32029FB0 SWAP2 DUP2 SWAP1 SUB PUSH1 0x60 ADD SWAP1 LOG1 POP POP POP POP POP POP JUMP JUMPDEST PUSH1 0x1 PUSH1 0x1 PUSH1 0xA0 SHL SUB DUP3 AND PUSH2 0x61B JUMPI PUSH1 0x40 MLOAD PUSH4 0x32505749 PUSH1 0xE1 SHL DUP2 MSTORE PUSH0 PUSH1 0x4 DUP3 ADD MSTORE PUSH1 0x24 ADD PUSH2 0x532 JUMP JUMPDEST PUSH0 PUSH2 0x627 DUP4 DUP4 CALLER PUSH2 0x89F JUMP JUMPDEST SWAP1 POP DUP4 PUSH1 0x1 PUSH1 0x1 PUSH1 0xA0 SHL SUB AND DUP2 PUSH1 0x1 PUSH1 0x1 PUSH1 0xA0 SHL SUB AND EQ PUSH2 0x675 JUMPI PUSH1 0x40 MLOAD PUSH4 0x64283D7B PUSH1 0xE0 SHL DUP2 MSTORE PUSH1 0x1 PUSH1 0x1 PUSH1 0xA0 SHL SUB DUP1 DUP7 AND PUSH1 0x4 DUP4 ADD MSTORE PUSH1 0x24 DUP3 ADD DUP5 SWAP1 MSTORE DUP3 AND PUSH1 0x44 DUP3 ADD MSTORE PUSH1 0x64 ADD PUSH2 0x532 JUMP JUMPDEST POP POP POP POP JUMP JUMPDEST PUSH0 DUP2 PUSH1 0x1 PUSH1 0x1 PUSH1 0xA0 SHL SUB AND PUSH2 0x68F DUP5 PUSH2 0x6DB JUMP JUMPDEST PUSH1 0x1 PUSH1 0x1 PUSH1 0xA0 SHL SUB AND EQ DUP1 ISZERO PUSH2 0x6B4 JUMPI POP PUSH0 DUP5 DUP2 MSTORE PUSH1 0x7 PUSH1 0x20 MSTORE PUSH1 0x40 SWAP1 KECCAK256 PUSH1 0x1 ADD SLOAD TIMESTAMP LT JUMPDEST SWAP5 SWAP4 POP POP POP POP JUMP JUMPDEST PUSH2 0x6D6 DUP4 DUP4 DUP4 PUSH1 0x40 MLOAD DUP1 PUSH1 0x20 ADD PUSH1 0x40 MSTORE DUP1 PUSH0 DUP2 MSTORE POP PUSH2 0x744 JUMP JUMPDEST POP POP POP JUMP JUMPDEST PUSH0 PUSH2 0x365 DUP3 PUSH2 0x7F9 JUMP JUMPDEST PUSH0 PUSH1 0x1 PUSH1 0x1 PUSH1 0xA0 SHL SUB DUP3 AND PUSH2 0x70F JUMPI PUSH1 0x40 MLOAD PUSH4 0x22718AD9 PUSH1 0xE2 SHL DUP2 MSTORE PUSH0 PUSH1 0x4 DUP3 ADD MSTORE PUSH1 0x24 ADD PUSH2 0x532 JUMP JUMPDEST POP PUSH1 0x1 PUSH1 0x1 PUSH1 0xA0 SHL SUB AND PUSH0 SWAP1 DUP2 MSTORE PUSH1 0x3 PUSH1 0x20 MSTORE PUSH1 0x40 SWAP1 KECCAK256 SLOAD SWAP1 JUMP JUMPDEST PUSH1 0x60 PUSH1 0x1 DUP1 SLOAD PUSH2 0x379 SWAP1 PUSH2 0x11E0 JUMP JUMPDEST PUSH2 0x42C CALLER DUP4 DUP4 PUSH2 0x991 JUMP JUMPDEST PUSH2 0x74F DUP5 DUP5 DUP5 PUSH2 0x5F2 JUMP JUMPDEST PUSH2 0x675 DUP5 DUP5 DUP5 DUP5 PUSH2 0xA2F JUMP JUMPDEST PUSH1 0x60 PUSH2 0x766 DUP3 PUSH2 0x7F9 JUMP JUMPDEST POP PUSH0 PUSH2 0x77C PUSH1 0x40 DUP1 MLOAD PUSH1 0x20 DUP2 ADD SWAP1 SWAP2 MSTORE PUSH0 DUP2 MSTORE SWAP1 JUMP JUMPDEST SWAP1 POP PUSH0 DUP2 MLOAD GT PUSH2 0x79A JUMPI PUSH1 0x40 MLOAD DUP1 PUSH1 0x20 ADD PUSH1 0x40 MSTORE DUP1 PUSH0 DUP2 MSTORE POP PUSH2 0x7C5 JUMP JUMPDEST DUP1 PUSH2 0x7A4 DUP5 PUSH2 0xB55 JUMP JUMPDEST PUSH1 0x40 MLOAD PUSH1 0x20 ADD PUSH2 0x7B5 SWAP3 SWAP2 SWAP1 PUSH2 0x122F JUMP JUMPDEST PUSH1 0x40 MLOAD PUSH1 0x20 DUP2 DUP4 SUB SUB DUP2 MSTORE SWAP1 PUSH1 0x40 MSTORE JUMPDEST SWAP4 SWAP3 POP POP POP JUMP JUMPDEST PUSH1 0x1 PUSH1 0x1 PUSH1 0xA0 SHL SUB SWAP2 DUP3 AND PUSH0 SWAP1 DUP2 MSTORE PUSH1 0x5 PUSH1 0x20 SWAP1 DUP2 MSTORE PUSH1 0x40 DUP1 DUP4 KECCAK256 SWAP4 SWAP1 SWAP5 AND DUP3 MSTORE SWAP2 SWAP1 SWAP2 MSTORE KECCAK256 SLOAD PUSH1 0xFF AND SWAP1 JUMP JUMPDEST PUSH0 DUP2 DUP2 MSTORE PUSH1 0x2 PUSH1 0x20 MSTORE PUSH1 0x40 DUP2 KECCAK256 SLOAD PUSH1 0x1 PUSH1 0x1 PUSH1 0xA0 SHL SUB AND DUP1 PUSH2 0x365 JUMPI PUSH1 0x40 MLOAD PUSH4 0x7E273289 PUSH1 0xE0 SHL DUP2 MSTORE PUSH1 0x4 DUP2 ADD DUP5 SWAP1 MSTORE PUSH1 0x24 ADD PUSH2 0x532 JUMP JUMPDEST PUSH2 0x6D6 DUP4 DUP4 DUP4 PUSH1 0x1 PUSH2 0xBE5 JUMP JUMPDEST PUSH1 0x1 PUSH1 0x1 PUSH1 0xA0 SHL SUB DUP3 AND PUSH2 0x867 JUMPI PUSH1 0x40 MLOAD PUSH4 0x32505749 PUSH1 0xE1 SHL DUP2 MSTORE PUSH0 PUSH1 0x4 DUP3 ADD MSTORE PUSH1 0x24 ADD PUSH2 0x532 JUMP JUMPDEST PUSH0 PUSH2 0x873 DUP4 DUP4 PUSH0 PUSH2 0x89F JUMP JUMPDEST SWAP1 POP PUSH1 0x1 PUSH1 0x1 PUSH1 0xA0 SHL SUB DUP2 AND ISZERO PUSH2 0x6D6 JUMPI PUSH1 0x40 MLOAD PUSH4 0x39E35637 PUSH1 0xE1 SHL DUP2 MSTORE PUSH0 PUSH1 0x4 DUP3 ADD MSTORE PUSH1 0x24 ADD PUSH2 0x532 JUMP JUMPDEST PUSH0 DUP3 DUP2 MSTORE PUSH1 0x2 PUSH1 0x20 MSTORE PUSH1 0x40 DUP2 KECCAK256 SLOAD PUSH1 0x1 PUSH1 0x1 PUSH1 0xA0 SHL SUB SWAP1 DUP2 AND SWAP1 DUP4 AND ISZERO PUSH2 0x8CB JUMPI PUSH2 0x8CB DUP2 DUP5 DUP7 PUSH2 0xCE9 JUMP JUMPDEST PUSH1 0x1 PUSH1 0x1 PUSH1 0xA0 SHL SUB DUP2 AND ISZERO PUSH2 0x905 JUMPI PUSH2 0x8E6 PUSH0 DUP6 PUSH0 DUP1 PUSH2 0xBE5 JUMP JUMPDEST PUSH1 0x1 PUSH1 0x1 PUSH1 0xA0 SHL SUB DUP2 AND PUSH0 SWAP1 DUP2 MSTORE PUSH1 0x3 PUSH1 0x20 MSTORE PUSH1 0x40 SWAP1 KECCAK256 DUP1 SLOAD PUSH0 NOT ADD SWAP1 SSTORE JUMPDEST PUSH1 0x1 PUSH1 0x1 PUSH1 0xA0 SHL SUB DUP6 AND ISZERO PUSH2 0x933 JUMPI PUSH1 0x1 PUSH1 0x1 PUSH1 0xA0 SHL SUB DUP6 AND PUSH0 SWAP1 DUP2 MSTORE PUSH1 0x3 PUSH1 0x20 MSTORE PUSH1 0x40 SWAP1 KECCAK256 DUP1 SLOAD PUSH1 0x1 ADD SWAP1 SSTORE JUMPDEST PUSH0 DUP5 DUP2 MSTORE PUSH1 0x2 PUSH1 0x20 MSTORE PUSH1 0x40 DUP1 DUP3 KECCAK256 DUP1 SLOAD PUSH1 0x1 PUSH1 0x1 PUSH1 0xA0 SHL SUB NOT AND PUSH1 0x1 PUSH1 0x1 PUSH1 0xA0 SHL SUB DUP10 DUP2 AND SWAP2 DUP3 OR SWAP1 SWAP3 SSTORE SWAP2 MLOAD DUP8 SWAP4 SWAP2 DUP6 AND SWAP2 PUSH32 0xDDF252AD1BE2C89B69C2B068FC378DAA952BA7F163C4A11628F55A4DF523B3EF SWAP2 LOG4 SWAP5 SWAP4 POP POP POP POP JUMP JUMPDEST PUSH1 0x1 PUSH1 0x1 PUSH1 0xA0 SHL SUB DUP3 AND PUSH2 0x9C3 JUMPI PUSH1 0x40 MLOAD PUSH4 0xB611743 PUSH1 0xE3 SHL DUP2 MSTORE PUSH1 0x1 PUSH1 0x1 PUSH1 0xA0 SHL SUB DUP4 AND PUSH1 0x4 DUP3 ADD MSTORE PUSH1 0x24 ADD PUSH2 0x532 JUMP JUMPDEST PUSH1 0x1 PUSH1 0x1 PUSH1 0xA0 SHL SUB DUP4 DUP2 AND PUSH0 DUP2 DUP2 MSTORE PUSH1 0x5 PUSH1 0x20 SWAP1 DUP2 MSTORE PUSH1 0x40 DUP1 DUP4 KECCAK256 SWAP5 DUP8 AND DUP1 DUP5 MSTORE SWAP5 DUP3 MSTORE SWAP2 DUP3 SWAP1 KECCAK256 DUP1 SLOAD PUSH1 0xFF NOT AND DUP7 ISZERO ISZERO SWAP1 DUP2 OR SWAP1 SWAP2 SSTORE SWAP2 MLOAD SWAP2 DUP3 MSTORE PUSH32 0x17307EAB39AB6107E8899845AD3D59BD9653F200F220920489CA2B5937696C31 SWAP2 ADD PUSH1 0x40 MLOAD DUP1 SWAP2 SUB SWAP1 LOG3 POP POP POP JUMP JUMPDEST PUSH1 0x1 PUSH1 0x1 PUSH1 0xA0 SHL SUB DUP4 AND EXTCODESIZE ISZERO PUSH2 0x675 JUMPI PUSH1 0x40 MLOAD PUSH4 0xA85BD01 PUSH1 0xE1 SHL DUP2 MSTORE PUSH1 0x1 PUSH1 0x1 PUSH1 0xA0 SHL SUB DUP5 AND SWAP1 PUSH4 0x150B7A02 SWAP1 PUSH2 0xA71 SWAP1 CALLER SWAP1 DUP9 SWAP1 DUP8 SWAP1 DUP8 SWAP1 PUSH1 0x4 ADD PUSH2 0x1243 JUMP JUMPDEST PUSH1 0x20 PUSH1 0x40 MLOAD DUP1 DUP4 SUB DUP2 PUSH0 DUP8 GAS CALL SWAP3 POP POP POP DUP1 ISZERO PUSH2 0xAAB JUMPI POP PUSH1 0x40 DUP1 MLOAD PUSH1 0x1F RETURNDATASIZE SWAP1 DUP2 ADD PUSH1 0x1F NOT AND DUP3 ADD SWAP1 SWAP3 MSTORE PUSH2 0xAA8 SWAP2 DUP2 ADD SWAP1 PUSH2 0x127F JUMP JUMPDEST PUSH1 0x1 JUMPDEST PUSH2 0xB12 JUMPI RETURNDATASIZE DUP1 DUP1 ISZERO PUSH2 0xAD8 JUMPI PUSH1 0x40 MLOAD SWAP2 POP PUSH1 0x1F NOT PUSH1 0x3F RETURNDATASIZE ADD AND DUP3 ADD PUSH1 0x40 MSTORE RETURNDATASIZE DUP3 MSTORE RETURNDATASIZE PUSH0 PUSH1 0x20 DUP5 ADD RETURNDATACOPY PUSH2 0xADD JUMP JUMPDEST PUSH1 0x60 SWAP2 POP JUMPDEST POP DUP1 MLOAD PUSH0 SUB PUSH2 0xB0A JUMPI PUSH1 0x40 MLOAD PUSH4 0x32505749 PUSH1 0xE1 SHL DUP2 MSTORE PUSH1 0x1 PUSH1 0x1 PUSH1 0xA0 SHL SUB DUP6 AND PUSH1 0x4 DUP3 ADD MSTORE PUSH1 0x24 ADD PUSH2 0x532 JUMP JUMPDEST DUP1 MLOAD DUP2 PUSH1 0x20 ADD REVERT JUMPDEST PUSH1 0x1 PUSH1 0x1 PUSH1 0xE0 SHL SUB NOT DUP2 AND PUSH4 0xA85BD01 PUSH1 0xE1 SHL EQ PUSH2 0xB4E JUMPI PUSH1 0x40 MLOAD PUSH4 0x32505749 PUSH1 0xE1 SHL DUP2 MSTORE PUSH1 0x1 PUSH1 0x1 PUSH1 0xA0 SHL SUB DUP6 AND PUSH1 0x4 DUP3 ADD MSTORE PUSH1 0x24 ADD PUSH2 0x532 JUMP JUMPDEST POP POP POP POP POP JUMP JUMPDEST PUSH1 0x60 PUSH0 PUSH2 0xB61 DUP4 PUSH2 0xD4D JUMP JUMPDEST PUSH1 0x1 ADD SWAP1 POP PUSH0 DUP2 PUSH8 0xFFFFFFFFFFFFFFFF DUP2 GT ISZERO PUSH2 0xB80 JUMPI PUSH2 0xB80 PUSH2 0xF76 JUMP JUMPDEST PUSH1 0x40 MLOAD SWAP1 DUP1 DUP3 MSTORE DUP1 PUSH1 0x1F ADD PUSH1 0x1F NOT AND PUSH1 0x20 ADD DUP3 ADD PUSH1 0x40 MSTORE DUP1 ISZERO PUSH2 0xBAA JUMPI PUSH1 0x20 DUP3 ADD DUP2 DUP1 CALLDATASIZE DUP4 CALLDATACOPY ADD SWAP1 POP JUMPDEST POP SWAP1 POP DUP2 DUP2 ADD PUSH1 0x20 ADD JUMPDEST PUSH0 NOT ADD PUSH16 0x181899199A1A9B1B9C1CB0B131B232B3 PUSH1 0x81 SHL PUSH1 0xA DUP7 MOD BYTE DUP2 MSTORE8 PUSH1 0xA DUP6 DIV SWAP5 POP DUP5 PUSH2 0xBB4 JUMPI POP SWAP4 SWAP3 POP POP POP JUMP JUMPDEST DUP1 DUP1 PUSH2 0xBF9 JUMPI POP PUSH1 0x1 PUSH1 0x1 PUSH1 0xA0 SHL SUB DUP3 AND ISZERO ISZERO JUMPDEST ISZERO PUSH2 0xCBA JUMPI PUSH0 PUSH2 0xC08 DUP5 PUSH2 0x7F9 JUMP JUMPDEST SWAP1 POP PUSH1 0x1 PUSH1 0x1 PUSH1 0xA0 SHL SUB DUP4 AND ISZERO DUP1 ISZERO SWAP1 PUSH2 0xC34 JUMPI POP DUP3 PUSH1 0x1 PUSH1 0x1 PUSH1 0xA0 SHL SUB AND DUP2 PUSH1 0x1 PUSH1 0x1 PUSH1 0xA0 SHL SUB AND EQ ISZERO JUMPDEST DUP1 ISZERO PUSH2 0xC47 JUMPI POP PUSH2 0xC45 DUP2 DUP5 PUSH2 0x7CC JUMP JUMPDEST ISZERO JUMPDEST ISZERO PUSH2 0xC70 JUMPI PUSH1 0x40 MLOAD PUSH4 0xA9FBF51F PUSH1 0xE0 SHL DUP2 MSTORE PUSH1 0x1 PUSH1 0x1 PUSH1 0xA0 SHL SUB DUP5 AND PUSH1 0x4 DUP3 ADD MSTORE PUSH1 0x24 ADD PUSH2 0x532 JUMP JUMPDEST DUP2 ISZERO PUSH2 0xCB8 JUMPI DUP4 DUP6 PUSH1 0x1 PUSH1 0x1 PUSH1 0xA0 SHL SUB AND DUP3 PUSH1 0x1 PUSH1 0x1 PUSH1 0xA0 SHL SUB AND PUSH32 0x8C5BE1E5EBEC7D5BD14F71427D1E84F3DD0314C0F7B2291E5B200AC8C7C3B925 PUSH1 0x40 MLOAD PUSH1 0x40 MLOAD DUP1 SWAP2 SUB SWAP1 LOG4 JUMPDEST POP JUMPDEST POP POP PUSH0 SWAP1 DUP2 MSTORE PUSH1 0x4 PUSH1 0x20 MSTORE PUSH1 0x40 SWAP1 KECCAK256 DUP1 SLOAD PUSH1 0x1 PUSH1 0x1 PUSH1 0xA0 SHL SUB NOT AND PUSH1 0x1 PUSH1 0x1 PUSH1 0xA0 SHL SUB SWAP3 SWAP1 SWAP3 AND SWAP2 SWAP1 SWAP2 OR SWAP1 SSTORE JUMP JUMPDEST PUSH2 0xCF4 DUP4 DUP4 DUP4 PUSH2 0xE24 JUMP JUMPDEST PUSH2 0x6D6 JUMPI PUSH1 0x1 PUSH1 0x1 PUSH1 0xA0 SHL SUB DUP4 AND PUSH2 0xD22 JUMPI PUSH1 0x40 MLOAD PUSH4 0x7E273289 PUSH1 0xE0 SHL DUP2 MSTORE PUSH1 0x4 DUP2 ADD DUP3 SWAP1 MSTORE PUSH1 0x24 ADD PUSH2 0x532 JUMP JUMPDEST PUSH1 0x40 MLOAD PUSH4 0x177E802F PUSH1 0xE0 SHL DUP2 MSTORE PUSH1 0x1 PUSH1 0x1 PUSH1 0xA0 SHL SUB DUP4 AND PUSH1 0x4 DUP3 ADD MSTORE PUSH1 0x24 DUP2 ADD DUP3 SWAP1 MSTORE PUSH1 0x44 ADD PUSH2 0x532 JUMP JUMPDEST PUSH0 DUP1 PUSH19 0x184F03E93FF9F4DAA797ED6E38ED64BF6A1F01 PUSH1 0x40 SHL DUP4 LT PUSH2 0xD8B JUMPI PUSH19 0x184F03E93FF9F4DAA797ED6E38ED64BF6A1F01 PUSH1 0x40 SHL DUP4 DIV SWAP3 POP PUSH1 0x40 ADD JUMPDEST PUSH14 0x4EE2D6D415B85ACEF8100000000 DUP4 LT PUSH2 0xDB7 JUMPI PUSH14 0x4EE2D6D415B85ACEF8100000000 DUP4 DIV SWAP3 POP PUSH1 0x20 ADD JUMPDEST PUSH7 0x2386F26FC10000 DUP4 LT PUSH2 0xDD5 JUMPI PUSH7 0x2386F26FC10000 DUP4 DIV SWAP3 POP PUSH1 0x10 ADD JUMPDEST PUSH4 0x5F5E100 DUP4 LT PUSH2 0xDED JUMPI PUSH4 0x5F5E100 DUP4 DIV SWAP3 POP PUSH1 0x8 ADD JUMPDEST PUSH2 0x2710 DUP4 LT PUSH2 0xE01 JUMPI PUSH2 0x2710 DUP4 DIV SWAP3 POP PUSH1 0x4 ADD JUMPDEST PUSH1 0x64 DUP4 LT PUSH2 0xE13 JUMPI PUSH1 0x64 DUP4 DIV SWAP3 POP PUSH1 0x2 ADD JUMPDEST PUSH1 0xA DUP4 LT PUSH2 0x365 JUMPI PUSH1 0x1 ADD SWAP3 SWAP2 POP POP JUMP JUMPDEST PUSH0 PUSH1 0x1 PUSH1 0x1 PUSH1 0xA0 SHL SUB DUP4 AND ISZERO DUP1 ISZERO SWAP1 PUSH2 0x6B4 JUMPI POP DUP3 PUSH1 0x1 PUSH1 0x1 PUSH1 0xA0 SHL SUB AND DUP5 PUSH1 0x1 PUSH1 0x1 PUSH1 0xA0 SHL SUB AND EQ DUP1 PUSH2 0xE5D JUMPI POP PUSH2 0xE5D DUP5 DUP5 PUSH2 0x7CC JUMP JUMPDEST DUP1 PUSH2 0x6B4 JUMPI POP POP PUSH0 SWAP1 DUP2 MSTORE PUSH1 0x4 PUSH1 0x20 MSTORE PUSH1 0x40 SWAP1 KECCAK256 SLOAD PUSH1 0x1 PUSH1 0x1 PUSH1 0xA0 SHL SUB SWAP1 DUP2 AND SWAP2 AND EQ SWAP2 SWAP1 POP JUMP JUMPDEST PUSH1 0x1 PUSH1 0x1 PUSH1 0xE0 SHL SUB NOT DUP2 AND DUP2 EQ PUSH2 0xE9A JUMPI PUSH0 DUP1 REVERT JUMPDEST POP JUMP JUMPDEST PUSH0 PUSH1 0x20 DUP3 DUP5 SUB SLT ISZERO PUSH2 0xEAD JUMPI PUSH0 DUP1 REVERT JUMPDEST DUP2 CALLDATALOAD PUSH2 0x7C5 DUP2 PUSH2 0xE85 JUMP JUMPDEST PUSH0 DUP2 MLOAD DUP1 DUP5 MSTORE DUP1 PUSH1 0x20 DUP5 ADD PUSH1 0x20 DUP7 ADD MCOPY PUSH0 PUSH1 0x20 DUP3 DUP7 ADD ADD MSTORE PUSH1 0x20 PUSH1 0x1F NOT PUSH1 0x1F DUP4 ADD AND DUP6 ADD ADD SWAP2 POP POP SWAP3 SWAP2 POP POP JUMP JUMPDEST PUSH1 0x20 DUP2 MSTORE PUSH0 PUSH2 0x7C5 PUSH1 0x20 DUP4 ADD DUP5 PUSH2 0xEB8 JUMP JUMPDEST PUSH0 PUSH1 0x20 DUP3 DUP5 SUB SLT ISZERO PUSH2 0xF08 JUMPI PUSH0 DUP1 REVERT JUMPDEST POP CALLDATALOAD SWAP2 SWAP1 POP JUMP JUMPDEST DUP1 CALLDATALOAD PUSH1 0x1 PUSH1 0x1 PUSH1 0xA0 SHL SUB DUP2 AND DUP2 EQ PUSH2 0xF25 JUMPI PUSH0 DUP1 REVERT JUMPDEST SWAP2 SWAP1 POP JUMP JUMPDEST PUSH0 DUP1 PUSH1 0x40 DUP4 DUP6 SUB SLT ISZERO PUSH2 0xF3B JUMPI PUSH0 DUP1 REVERT JUMPDEST PUSH2 0xF44 DUP4 PUSH2 0xF0F JUMP JUMPDEST SWAP5 PUSH1 0x20 SWAP4 SWAP1 SWAP4 ADD CALLDATALOAD SWAP4 POP POP POP JUMP JUMPDEST PUSH1 0x60 DUP2 MSTORE PUSH0 PUSH2 0xF64 PUSH1 0x60 DUP4 ADD DUP7 PUSH2 0xEB8 JUMP JUMPDEST PUSH1 0x20 DUP4 ADD SWAP5 SWAP1 SWAP5 MSTORE POP PUSH1 0x40 ADD MSTORE SWAP2 SWAP1 POP JUMP JUMPDEST PUSH4 0x4E487B71 PUSH1 0xE0 SHL PUSH0 MSTORE PUSH1 0x41 PUSH1 0x4 MSTORE PUSH1 0x24 PUSH0 REVERT JUMPDEST PUSH0 DUP1 PUSH8 0xFFFFFFFFFFFFFFFF DUP5 GT ISZERO PUSH2 0xFA4 JUMPI PUSH2 0xFA4 PUSH2 0xF76 JUMP JUMPDEST POP PUSH1 0x40 MLOAD PUSH1 0x1F NOT PUSH1 0x1F DUP6 ADD DUP2 AND PUSH1 0x3F ADD AND DUP2 ADD DUP2 DUP2 LT PUSH8 0xFFFFFFFFFFFFFFFF DUP3 GT OR ISZERO PUSH2 0xFD3 JUMPI PUSH2 0xFD3 PUSH2 0xF76 JUMP JUMPDEST PUSH1 0x40 MSTORE DUP4 DUP2 MSTORE SWAP1 POP DUP1 DUP3 DUP5 ADD DUP6 LT ISZERO PUSH2 0xFEA JUMPI PUSH0 DUP1 REVERT JUMPDEST DUP4 DUP4 PUSH1 0x20 DUP4 ADD CALLDATACOPY PUSH0 PUSH1 0x20 DUP6 DUP4 ADD ADD MSTORE POP SWAP4 SWAP3 POP POP POP JUMP JUMPDEST PUSH0 DUP1 PUSH0 DUP1 PUSH0 PUSH1 0xA0 DUP7 DUP9 SUB SLT ISZERO PUSH2 0x1015 JUMPI PUSH0 DUP1 REVERT JUMPDEST DUP6 CALLDATALOAD PUSH8 0xFFFFFFFFFFFFFFFF DUP2 GT ISZERO PUSH2 0x102B JUMPI PUSH0 DUP1 REVERT JUMPDEST DUP7 ADD PUSH1 0x1F DUP2 ADD DUP9 SGT PUSH2 0x103B JUMPI PUSH0 DUP1 REVERT JUMPDEST PUSH2 0x104A DUP9 DUP3 CALLDATALOAD PUSH1 0x20 DUP5 ADD PUSH2 0xF8A JUMP JUMPDEST SWAP6 POP POP PUSH1 0x20 DUP7 ADD CALLDATALOAD SWAP4 POP PUSH1 0x40 DUP7 ADD CALLDATALOAD SWAP3 POP PUSH1 0x60 DUP7 ADD CALLDATALOAD SWAP2 POP PUSH2 0x106E PUSH1 0x80 DUP8 ADD PUSH2 0xF0F JUMP JUMPDEST SWAP1 POP SWAP3 SWAP6 POP SWAP3 SWAP6 SWAP1 SWAP4 POP JUMP JUMPDEST PUSH0 DUP1 PUSH0 PUSH1 0x60 DUP5 DUP7 SUB SLT ISZERO PUSH2 0x108C JUMPI PUSH0 DUP1 REVERT JUMPDEST PUSH2 0x1095 DUP5 PUSH2 0xF0F JUMP JUMPDEST SWAP3 POP PUSH2 0x10A3 PUSH1 0x20 DUP6 ADD PUSH2 0xF0F JUMP JUMPDEST SWAP3 SWAP6 SWAP3 SWAP5 POP POP POP PUSH1 0x40 SWAP2 SWAP1 SWAP2 ADD CALLDATALOAD SWAP1 JUMP JUMPDEST PUSH0 DUP1 PUSH0 PUSH1 0x60 DUP5 DUP7 SUB SLT ISZERO PUSH2 0x10C6 JUMPI PUSH0 DUP1 REVERT JUMPDEST DUP4 CALLDATALOAD SWAP3 POP PUSH1 0x20 DUP5 ADD CALLDATALOAD SWAP2 POP PUSH2 0x10DD PUSH1 0x40 DUP6 ADD PUSH2 0xF0F JUMP JUMPDEST SWAP1 POP SWAP3 POP SWAP3 POP SWAP3 JUMP JUMPDEST PUSH0 PUSH1 0x20 DUP3 DUP5 SUB SLT ISZERO PUSH2 0x10F6 JUMPI PUSH0 DUP1 REVERT JUMPDEST PUSH2 0x7C5 DUP3 PUSH2 0xF0F JUMP JUMPDEST PUSH0 DUP1 PUSH1 0x40 DUP4 DUP6 SUB SLT ISZERO PUSH2 0x1110 JUMPI PUSH0 DUP1 REVERT JUMPDEST PUSH2 0x1119 DUP4 PUSH2 0xF0F JUMP JUMPDEST SWAP2 POP PUSH1 0x20 DUP4 ADD CALLDATALOAD DUP1 ISZERO ISZERO DUP2 EQ PUSH2 0x112D JUMPI PUSH0 DUP1 REVERT JUMPDEST DUP1 SWAP2 POP POP SWAP3 POP SWAP3 SWAP1 POP JUMP JUMPDEST PUSH0 DUP1 PUSH0 DUP1 PUSH1 0x80 DUP6 DUP8 SUB SLT ISZERO PUSH2 0x114B JUMPI PUSH0 DUP1 REVERT JUMPDEST PUSH2 0x1154 DUP6 PUSH2 0xF0F JUMP JUMPDEST SWAP4 POP PUSH2 0x1162 PUSH1 0x20 DUP7 ADD PUSH2 0xF0F JUMP JUMPDEST SWAP3 POP PUSH1 0x40 DUP6 ADD CALLDATALOAD SWAP2 POP PUSH1 0x60 DUP6 ADD CALLDATALOAD PUSH8 0xFFFFFFFFFFFFFFFF DUP2 GT ISZERO PUSH2 0x1184 JUMPI PUSH0 DUP1 REVERT JUMPDEST DUP6 ADD PUSH1 0x1F DUP2 ADD DUP8 SGT PUSH2 0x1194 JUMPI PUSH0 DUP1 REVERT JUMPDEST PUSH2 0x11A3 DUP8 DUP3 CALLDATALOAD PUSH1 0x20 DUP5 ADD PUSH2 0xF8A JUMP JUMPDEST SWAP2 POP POP SWAP3 SWAP6 SWAP2 SWAP5 POP SWAP3 POP JUMP JUMPDEST PUSH0 DUP1 PUSH1 0x40 DUP4 DUP6 SUB SLT ISZERO PUSH2 0x11C0 JUMPI PUSH0 DUP1 REVERT JUMPDEST PUSH2 0x11C9 DUP4 PUSH2 0xF0F JUMP JUMPDEST SWAP2 POP PUSH2 0x11D7 PUSH1 0x20 DUP5 ADD PUSH2 0xF0F JUMP JUMPDEST SWAP1 POP SWAP3 POP SWAP3 SWAP1 POP JUMP JUMPDEST PUSH1 0x1 DUP2 DUP2 SHR SWAP1 DUP3 AND DUP1 PUSH2 0x11F4 JUMPI PUSH1 0x7F DUP3 AND SWAP2 POP JUMPDEST PUSH1 0x20 DUP3 LT DUP2 SUB PUSH2 0x1212 JUMPI PUSH4 0x4E487B71 PUSH1 0xE0 SHL PUSH0 MSTORE PUSH1 0x22 PUSH1 0x4 MSTORE PUSH1 0x24 PUSH0 REVERT JUMPDEST POP SWAP2 SWAP1 POP JUMP JUMPDEST PUSH0 DUP2 MLOAD DUP1 PUSH1 0x20 DUP5 ADD DUP6 MCOPY PUSH0 SWAP4 ADD SWAP3 DUP4 MSTORE POP SWAP1 SWAP2 SWAP1 POP JUMP JUMPDEST PUSH0 PUSH2 0x6B4 PUSH2 0x123D DUP4 DUP7 PUSH2 0x1218 JUMP JUMPDEST DUP5 PUSH2 0x1218 JUMP JUMPDEST PUSH1 0x1 PUSH1 0x1 PUSH1 0xA0 SHL SUB DUP6 DUP2 AND DUP3 MSTORE DUP5 AND PUSH1 0x20 DUP3 ADD MSTORE PUSH1 0x40 DUP2 ADD DUP4 SWAP1 MSTORE PUSH1 0x80 PUSH1 0x60 DUP3 ADD DUP2 SWAP1 MSTORE PUSH0 SWAP1 PUSH2 0x1275 SWAP1 DUP4 ADD DUP5 PUSH2 0xEB8 JUMP JUMPDEST SWAP7 SWAP6 POP POP POP POP POP POP JUMP JUMPDEST PUSH0 PUSH1 0x20 DUP3 DUP5 SUB SLT ISZERO PUSH2 0x128F JUMPI PUSH0 DUP1 REVERT JUMPDEST DUP2 MLOAD PUSH2 0x7C5 DUP2 PUSH2 0xE85 JUMP INVALID LOG2 PUSH5 0x6970667358 0x22 SLT KECCAK256 0xC0 OR EXTCODEHASH CREATE2 0xEB PUSH6 0x5FB3C46BEB86 CALLVALUE 0xD0 0xD2 NOT JUMP ADDRESS ADDRESS DUP13 0x23 CALLDATACOPY 0xFB 0x4C 0xE8 KECCAK256 0xBD DUP10 0xEF SLT 0xE4 DIV PUSH5 0x736F6C6343 STOP ADDMOD BYTE STOP CALLER "
				},
				"gasEstimates": {
					"creation": {
						"codeDepositCost": "963200",
						"executionCost": "infinite",
						"totalCost": "infinite"
					},
					"external": {
						"approve(address,uint256)": "31531",
						"balanceOf(address)": "2652",
						"createEvent(string,uint256,uint256,uint256,address)": "infinite",
						"events(uint256)": "infinite",
						"getApproved(uint256)": "infinite",
						"isApprovedForAll(address,address)": "infinite",
						"name()": "infinite",
						"ownerOf(uint256)": "infinite",
						"safeTransferFrom(address,address,uint256)": "infinite",
						"safeTransferFrom(address,address,uint256,bytes)": "infinite",
						"setApprovalForAll(address,bool)": "26678",
						"supportsInterface(bytes4)": "531",
						"symbol()": "infinite",
						"tokenURI(uint256)": "infinite",
						"transferFrom(address,address,uint256)": "infinite",
						"verifyTicket(uint256,uint256,address)": "infinite"
					}
				},
				"methodIdentifiers": {
					"approve(address,uint256)": "095ea7b3",
					"balanceOf(address)": "70a08231",
					"createEvent(string,uint256,uint256,uint256,address)": "17c87252",
					"events(uint256)": "0b791430",
					"getApproved(uint256)": "081812fc",
					"isApprovedForAll(address,address)": "e985e9c5",
					"name()": "06fdde03",
					"ownerOf(uint256)": "6352211e",
					"safeTransferFrom(address,address,uint256)": "42842e0e",
					"safeTransferFrom(address,address,uint256,bytes)": "b88d4fde",
					"setApprovalForAll(address,bool)": "a22cb465",
					"supportsInterface(bytes4)": "01ffc9a7",
					"symbol()": "95d89b41",
					"tokenURI(uint256)": "c87b56dd",
					"transferFrom(address,address,uint256)": "23b872dd",
					"verifyTicket(uint256,uint256,address)": "3c7cad9b"
				}
			},
			"storageLayout": {
				"storage": [
					{
						"astId": 169,
						"contract": "NFT Tokens/Tk3.sol:EvenTicket",
						"label": "_name",
						"offset": 0,
						"slot": "0",
						"type": "t_string_storage"
					},
					{
						"astId": 171,
						"contract": "NFT Tokens/Tk3.sol:EvenTicket",
						"label": "_symbol",
						"offset": 0,
						"slot": "1",
						"type": "t_string_storage"
					},
					{
						"astId": 175,
						"contract": "NFT Tokens/Tk3.sol:EvenTicket",
						"label": "_owners",
						"offset": 0,
						"slot": "2",
						"type": "t_mapping(t_uint256,t_address)"
					},
					{
						"astId": 179,
						"contract": "NFT Tokens/Tk3.sol:EvenTicket",
						"label": "_balances",
						"offset": 0,
						"slot": "3",
						"type": "t_mapping(t_address,t_uint256)"
					},
					{
						"astId": 183,
						"contract": "NFT Tokens/Tk3.sol:EvenTicket",
						"label": "_tokenApprovals",
						"offset": 0,
						"slot": "4",
						"type": "t_mapping(t_uint256,t_address)"
					},
					{
						"astId": 189,
						"contract": "NFT Tokens/Tk3.sol:EvenTicket",
						"label": "_operatorApprovals",
						"offset": 0,
						"slot": "5",
						"type": "t_mapping(t_address,t_mapping(t_address,t_bool))"
					},
					{
						"astId": 2884,
						"contract": "NFT Tokens/Tk3.sol:EvenTicket",
						"label": "_ticketCounters",
						"offset": 0,
						"slot": "6",
						"type": "t_mapping(t_uint256,t_struct(Counter)1344_storage)"
					},
					{
						"astId": 2889,
						"contract": "NFT Tokens/Tk3.sol:EvenTicket",
						"label": "events",
						"offset": 0,
						"slot": "7",
						"type": "t_mapping(t_uint256,t_struct(Event)2879_storage)"
					}
				],
				"types": {
					"t_address": {
						"encoding": "inplace",
						"label": "address",
						"numberOfBytes": "20"
					},
					"t_bool": {
						"encoding": "inplace",
						"label": "bool",
						"numberOfBytes": "1"
					},
					"t_mapping(t_address,t_bool)": {
						"encoding": "mapping",
						"key": "t_address",
						"label": "mapping(address => bool)",
						"numberOfBytes": "32",
						"value": "t_bool"
					},
					"t_mapping(t_address,t_mapping(t_address,t_bool))": {
						"encoding": "mapping",
						"key": "t_address",
						"label": "mapping(address => mapping(address => bool))",
						"numberOfBytes": "32",
						"value": "t_mapping(t_address,t_bool)"
					},
					"t_mapping(t_address,t_uint256)": {
						"encoding": "mapping",
						"key": "t_address",
						"label": "mapping(address => uint256)",
						"numberOfBytes": "32",
						"value": "t_uint256"
					},
					"t_mapping(t_uint256,t_address)": {
						"encoding": "mapping",
						"key": "t_uint256",
						"label": "mapping(uint256 => address)",
						"numberOfBytes": "32",
						"value": "t_address"
					},
					"t_mapping(t_uint256,t_struct(Counter)1344_storage)": {
						"encoding": "mapping",
						"key": "t_uint256",
						"label": "mapping(uint256 => struct Counters.Counter)",
						"numberOfBytes": "32",
						"value": "t_struct(Counter)1344_storage"
					},
					"t_mapping(t_uint256,t_struct(Event)2879_storage)": {
						"encoding": "mapping",
						"key": "t_uint256",
						"label": "mapping(uint256 => struct EvenTicket.Event)",
						"numberOfBytes": "32",
						"value": "t_struct(Event)2879_storage"
					},
					"t_string_storage": {
						"encoding": "bytes",
						"label": "string",
						"numberOfBytes": "32"
					},
					"t_struct(Counter)1344_storage": {
						"encoding": "inplace",
						"label": "struct Counters.Counter",
						"members": [
							{
								"astId": 1343,
								"contract": "NFT Tokens/Tk3.sol:EvenTicket",
								"label": "_value",
								"offset": 0,
								"slot": "0",
								"type": "t_uint256"
							}
						],
						"numberOfBytes": "32"
					},
					"t_struct(Event)2879_storage": {
						"encoding": "inplace",
						"label": "struct EvenTicket.Event",
						"members": [
							{
								"astId": 2874,
								"contract": "NFT Tokens/Tk3.sol:EvenTicket",
								"label": "name",
								"offset": 0,
								"slot": "0",
								"type": "t_string_storage"
							},
							{
								"astId": 2876,
								"contract": "NFT Tokens/Tk3.sol:EvenTicket",
								"label": "startTime",
								"offset": 0,
								"slot": "1",
								"type": "t_uint256"
							},
							{
								"astId": 2878,
								"contract": "NFT Tokens/Tk3.sol:EvenTicket",
								"label": "price",
								"offset": 0,
								"slot": "2",
								"type": "t_uint256"
							}
						],
						"numberOfBytes": "96"
					},
					"t_uint256": {
						"encoding": "inplace",
						"label": "uint256",
						"numberOfBytes": "32"
					}
				}
			},
			"userdoc": {
				"kind": "user",
				"methods": {},
				"version": 1
			}
		}
	}
}