{
	"NFT Tokens/Tk9.sol": {
		"MultiToken": {
			"abi": [
				{
					"inputs": [
						{
							"internalType": "string",
							"name": "uri",
							"type": "string"
						}
					],
					"stateMutability": "nonpayable",
					"type": "constructor"
				},
				{
					"inputs": [
						{
							"internalType": "address",
							"name": "sender",
							"type": "address"
						},
						{
							"internalType": "uint256",
							"name": "balance",
							"type": "uint256"
						},
						{
							"internalType": "uint256",
							"name": "needed",
							"type": "uint256"
						},
						{
							"internalType": "uint256",
							"name": "tokenId",
							"type": "uint256"
						}
					],
					"name": "ERC1155InsufficientBalance",
					"type": "error"
				},
				{
					"inputs": [
						{
							"internalType": "address",
							"name": "approver",
							"type": "address"
						}
					],
					"name": "ERC1155InvalidApprover",
					"type": "error"
				},
				{
					"inputs": [
						{
							"internalType": "uint256",
							"name": "idsLength",
							"type": "uint256"
						},
						{
							"internalType": "uint256",
							"name": "valuesLength",
							"type": "uint256"
						}
					],
					"name": "ERC1155InvalidArrayLength",
					"type": "error"
				},
				{
					"inputs": [
						{
							"internalType": "address",
							"name": "operator",
							"type": "address"
						}
					],
					"name": "ERC1155InvalidOperator",
					"type": "error"
				},
				{
					"inputs": [
						{
							"internalType": "address",
							"name": "receiver",
							"type": "address"
						}
					],
					"name": "ERC1155InvalidReceiver",
					"type": "error"
				},
				{
					"inputs": [
						{
							"internalType": "address",
							"name": "sender",
							"type": "address"
						}
					],
					"name": "ERC1155InvalidSender",
					"type": "error"
				},
				{
					"inputs": [
						{
							"internalType": "address",
							"name": "operator",
							"type": "address"
						},
						{
							"internalType": "address",
							"name": "owner",
							"type": "address"
						}
					],
					"name": "ERC1155MissingApprovalForAll",
					"type": "error"
				},
				{
					"anonymous": false,
					"inputs": [
						{
							"indexed": true,
							"internalType": "address",
							"name": "account",
							"type": "address"
						},
						{
							"indexed": true,
							"internalType": "address",
							"name": "operator",
							"type": "address"
						},
						{
							"indexed": false,
							"internalType": "bool",
							"name": "approved",
							"type": "bool"
						}
					],
					"name": "ApprovalForAll",
					"type": "event"
				},
				{
					"anonymous": false,
					"inputs": [
						{
							"indexed": true,
							"internalType": "address",
							"name": "operator",
							"type": "address"
						},
						{
							"indexed": true,
							"internalType": "address",
							"name": "from",
							"type": "address"
						},
						{
							"indexed": true,
							"internalType": "address",
							"name": "to",
							"type": "address"
						},
						{
							"indexed": false,
							"internalType": "uint256[]",
							"name": "ids",
							"type": "uint256[]"
						},
						{
							"indexed": false,
							"internalType": "uint256[]",
							"name": "values",
							"type": "uint256[]"
						}
					],
					"name": "TransferBatch",
					"type": "event"
				},
				{
					"anonymous": false,
					"inputs": [
						{
							"indexed": true,
							"internalType": "address",
							"name": "operator",
							"type": "address"
						},
						{
							"indexed": true,
							"internalType": "address",
							"name": "from",
							"type": "address"
						},
						{
							"indexed": true,
							"internalType": "address",
							"name": "to",
							"type": "address"
						},
						{
							"indexed": false,
							"internalType": "uint256",
							"name": "id",
							"type": "uint256"
						},
						{
							"indexed": false,
							"internalType": "uint256",
							"name": "value",
							"type": "uint256"
						}
					],
					"name": "TransferSingle",
					"type": "event"
				},
				{
					"anonymous": false,
					"inputs": [
						{
							"indexed": false,
							"internalType": "string",
							"name": "value",
							"type": "string"
						},
						{
							"indexed": true,
							"internalType": "uint256",
							"name": "id",
							"type": "uint256"
						}
					],
					"name": "URI",
					"type": "event"
				},
				{
					"inputs": [
						{
							"internalType": "uint256",
							"name": "initialSupply",
							"type": "uint256"
						}
					],
					"name": "addTokenType",
					"outputs": [],
					"stateMutability": "nonpayable",
					"type": "function"
				},
				{
					"inputs": [
						{
							"internalType": "address",
							"name": "account",
							"type": "address"
						},
						{
							"internalType": "uint256",
							"name": "id",
							"type": "uint256"
						}
					],
					"name": "balanceOf",
					"outputs": [
						{
							"internalType": "uint256",
							"name": "",
							"type": "uint256"
						}
					],
					"stateMutability": "view",
					"type": "function"
				},
				{
					"inputs": [
						{
							"internalType": "address[]",
							"name": "accounts",
							"type": "address[]"
						},
						{
							"internalType": "uint256[]",
							"name": "ids",
							"type": "uint256[]"
						}
					],
					"name": "balanceOfBatch",
					"outputs": [
						{
							"internalType": "uint256[]",
							"name": "",
							"type": "uint256[]"
						}
					],
					"stateMutability": "view",
					"type": "function"
				},
				{
					"inputs": [
						{
							"internalType": "uint256",
							"name": "id",
							"type": "uint256"
						},
						{
							"internalType": "uint256",
							"name": "amount",
							"type": "uint256"
						}
					],
					"name": "burnTokens",
					"outputs": [],
					"stateMutability": "nonpayable",
					"type": "function"
				},
				{
					"inputs": [
						{
							"internalType": "uint256",
							"name": "id",
							"type": "uint256"
						}
					],
					"name": "gettotalSupply",
					"outputs": [
						{
							"internalType": "uint256",
							"name": "",
							"type": "uint256"
						}
					],
					"stateMutability": "view",
					"type": "function"
				},
				{
					"inputs": [
						{
							"internalType": "address",
							"name": "account",
							"type": "address"
						},
						{
							"internalType": "address",
							"name": "operator",
							"type": "address"
						}
					],
					"name": "isApprovedForAll",
					"outputs": [
						{
							"internalType": "bool",
							"name": "",
							"type": "bool"
						}
					],
					"stateMutability": "view",
					"type": "function"
				},
				{
					"inputs": [
						{
							"internalType": "address",
							"name": "from",
							"type": "address"
						},
						{
							"internalType": "address",
							"name": "to",
							"type": "address"
						},
						{
							"internalType": "uint256[]",
							"name": "ids",
							"type": "uint256[]"
						},
						{
							"internalType": "uint256[]",
							"name": "values",
							"type": "uint256[]"
						},
						{
							"internalType": "bytes",
							"name": "data",
							"type": "bytes"
						}
					],
					"name": "safeBatchTransferFrom",
					"outputs": [],
					"stateMutability": "nonpayable",
					"type": "function"
				},
				{
					"inputs": [
						{
							"internalType": "address",
							"name": "from",
							"type": "address"
						},
						{
							"internalType": "address",
							"name": "to",
							"type": "address"
						},
						{
							"internalType": "uint256",
							"name": "id",
							"type": "uint256"
						},
						{
							"internalType": "uint256",
							"name": "value",
							"type": "uint256"
						},
						{
							"internalType": "bytes",
							"name": "data",
							"type": "bytes"
						}
					],
					"name": "safeTransferFrom",
					"outputs": [],
					"stateMutability": "nonpayable",
					"type": "function"
				},
				{
					"inputs": [
						{
							"internalType": "address",
							"name": "operator",
							"type": "address"
						},
						{
							"internalType": "bool",
							"name": "approved",
							"type": "bool"
						}
					],
					"name": "setApprovalForAll",
					"outputs": [],
					"stateMutability": "nonpayable",
					"type": "function"
				},
				{
					"inputs": [
						{
							"internalType": "bytes4",
							"name": "interfaceId",
							"type": "bytes4"
						}
					],
					"name": "supportsInterface",
					"outputs": [
						{
							"internalType": "bool",
							"name": "",
							"type": "bool"
						}
					],
					"stateMutability": "view",
					"type": "function"
				},
				{
					"inputs": [
						{
							"internalType": "uint256",
							"name": "",
							"type": "uint256"
						}
					],
					"name": "totalSupply",
					"outputs": [
						{
							"internalType": "uint256",
							"name": "",
							"type": "uint256"
						}
					],
					"stateMutability": "view",
					"type": "function"
				},
				{
					"inputs": [
						{
							"internalType": "address",
							"name": "recipient",
							"type": "address"
						},
						{
							"internalType": "uint256[]",
							"name": "ids",
							"type": "uint256[]"
						},
						{
							"internalType": "uint256[]",
							"name": "amounts",
							"type": "uint256[]"
						}
					],
					"name": "transferTokens",
					"outputs": [],
					"stateMutability": "nonpayable",
					"type": "function"
				},
				{
					"inputs": [
						{
							"internalType": "uint256",
							"name": "",
							"type": "uint256"
						}
					],
					"name": "uri",
					"outputs": [
						{
							"internalType": "string",
							"name": "",
							"type": "string"
						}
					],
					"stateMutability": "view",
					"type": "function"
				}
			],
			"devdoc": {
				"errors": {
					"ERC1155InsufficientBalance(address,uint256,uint256,uint256)": [
						{
							"details": "Indicates an error related to the current `balance` of a `sender`. Used in transfers.",
							"params": {
								"balance": "Current balance for the interacting account.",
								"needed": "Minimum amount required to perform a transfer.",
								"sender": "Address whose tokens are being transferred.",
								"tokenId": "Identifier number of a token."
							}
						}
					],
					"ERC1155InvalidApprover(address)": [
						{
							"details": "Indicates a failure with the `approver` of a token to be approved. Used in approvals.",
							"params": {
								"approver": "Address initiating an approval operation."
							}
						}
					],
					"ERC1155InvalidArrayLength(uint256,uint256)": [
						{
							"details": "Indicates an array length mismatch between ids and values in a safeBatchTransferFrom operation. Used in batch transfers.",
							"params": {
								"idsLength": "Length of the array of token identifiers",
								"valuesLength": "Length of the array of token amounts"
							}
						}
					],
					"ERC1155InvalidOperator(address)": [
						{
							"details": "Indicates a failure with the `operator` to be approved. Used in approvals.",
							"params": {
								"operator": "Address that may be allowed to operate on tokens without being their owner."
							}
						}
					],
					"ERC1155InvalidReceiver(address)": [
						{
							"details": "Indicates a failure with the token `receiver`. Used in transfers.",
							"params": {
								"receiver": "Address to which tokens are being transferred."
							}
						}
					],
					"ERC1155InvalidSender(address)": [
						{
							"details": "Indicates a failure with the token `sender`. Used in transfers.",
							"params": {
								"sender": "Address whose tokens are being transferred."
							}
						}
					],
					"ERC1155MissingApprovalForAll(address,address)": [
						{
							"details": "Indicates a failure with the `operator`’s approval. Used in transfers.",
							"params": {
								"operator": "Address that may be allowed to operate on tokens without being their owner.",
								"owner": "Address of the current owner of a token."
							}
						}
					]
				},
				"events": {
					"ApprovalForAll(address,address,bool)": {
						"details": "Emitted when `account` grants or revokes permission to `operator` to transfer their tokens, according to `approved`."
					},
					"TransferBatch(address,address,address,uint256[],uint256[])": {
						"details": "Equivalent to multiple {TransferSingle} events, where `operator`, `from` and `to` are the same for all transfers."
					},
					"TransferSingle(address,address,address,uint256,uint256)": {
						"details": "Emitted when `value` amount of tokens of type `id` are transferred from `from` to `to` by `operator`."
					},
					"URI(string,uint256)": {
						"details": "Emitted when the URI for token type `id` changes to `value`, if it is a non-programmatic URI. If an {URI} event was emitted for `id`, the standard https://eips.ethereum.org/EIPS/eip-1155#metadata-extensions[guarantees] that `value` will equal the value returned by {IERC1155MetadataURI-uri}."
					}
				},
				"kind": "dev",
				"methods": {
					"balanceOf(address,uint256)": {
						"details": "See {IERC1155-balanceOf}."
					},
					"balanceOfBatch(address[],uint256[])": {
						"details": "See {IERC1155-balanceOfBatch}. Requirements: - `accounts` and `ids` must have the same length."
					},
					"isApprovedForAll(address,address)": {
						"details": "See {IERC1155-isApprovedForAll}."
					},
					"safeBatchTransferFrom(address,address,uint256[],uint256[],bytes)": {
						"details": "See {IERC1155-safeBatchTransferFrom}."
					},
					"safeTransferFrom(address,address,uint256,uint256,bytes)": {
						"details": "See {IERC1155-safeTransferFrom}."
					},
					"setApprovalForAll(address,bool)": {
						"details": "See {IERC1155-setApprovalForAll}."
					},
					"supportsInterface(bytes4)": {
						"details": "See {IERC165-supportsInterface}."
					},
					"uri(uint256)": {
						"details": "See {IERC1155MetadataURI-uri}. This implementation returns the same URI for *all* token types. It relies on the token type ID substitution mechanism https://eips.ethereum.org/EIPS/eip-1155#metadata[defined in the EIP]. Clients calling this function must replace the `\\{id\\}` substring with the actual token type ID."
					}
				},
				"version": 1
			},
			"evm": {
				"assembly": "    /* \"NFT Tokens/Tk9.sol\":119:966  contract MultiToken is ERC1155 {... */\n  mstore(0x40, 0x80)\n    /* \"NFT Tokens/Tk9.sol\":208:254  constructor(string memory uri) ERC1155(uri) {} */\n  callvalue\n  dup1\n  iszero\n  tag_1\n  jumpi\n  0x00\n  dup1\n  revert\ntag_1:\n  pop\n  mload(0x40)\n  sub(codesize, bytecodeSize)\n  dup1\n  bytecodeSize\n  dup4\n  codecopy\n  dup2\n  add\n  0x40\n  dup2\n  swap1\n  mstore\n  tag_2\n  swap2\n  tag_3\n  jump\t// in\ntag_2:\n    /* \"NFT Tokens/Tk9.sol\":247:250  uri */\n  dup1\n    /* \"@openzeppelin/contracts/token/ERC1155/ERC1155.sol\":1293:1306  _setURI(uri_) */\n  tag_7\n    /* \"NFT Tokens/Tk9.sol\":247:250  uri */\n  dup2\n    /* \"@openzeppelin/contracts/token/ERC1155/ERC1155.sol\":1293:1300  _setURI */\n  tag_8\n    /* \"@openzeppelin/contracts/token/ERC1155/ERC1155.sol\":1293:1306  _setURI(uri_) */\n  jump\t// in\ntag_7:\n    /* \"@openzeppelin/contracts/token/ERC1155/ERC1155.sol\":1251:1313  constructor(string memory uri_) {... */\n  pop\n    /* \"NFT Tokens/Tk9.sol\":208:254  constructor(string memory uri) ERC1155(uri) {} */\n  pop\n    /* \"NFT Tokens/Tk9.sol\":119:966  contract MultiToken is ERC1155 {... */\n  jump(tag_19)\n    /* \"@openzeppelin/contracts/token/ERC1155/ERC1155.sol\":10282:10368  function _setURI(string memory newuri) internal virtual {... */\ntag_8:\n    /* \"@openzeppelin/contracts/token/ERC1155/ERC1155.sol\":10348:10352  _uri */\n  0x02\n    /* \"@openzeppelin/contracts/token/ERC1155/ERC1155.sol\":10348:10361  _uri = newuri */\n  tag_12\n    /* \"@openzeppelin/contracts/token/ERC1155/ERC1155.sol\":10355:10361  newuri */\n  dup3\n    /* \"@openzeppelin/contracts/token/ERC1155/ERC1155.sol\":10348:10352  _uri */\n  dup3\n    /* \"@openzeppelin/contracts/token/ERC1155/ERC1155.sol\":10348:10361  _uri = newuri */\n  tag_13\n  jump\t// in\ntag_12:\n  pop\n    /* \"@openzeppelin/contracts/token/ERC1155/ERC1155.sol\":10282:10368  function _setURI(string memory newuri) internal virtual {... */\n  pop\n  jump\t// out\n    /* \"#utility.yul\":14:141   */\ntag_14:\n    /* \"#utility.yul\":75:85   */\n  0x4e487b71\n    /* \"#utility.yul\":70:73   */\n  0xe0\n    /* \"#utility.yul\":66:86   */\n  shl\n    /* \"#utility.yul\":63:64   */\n  0x00\n    /* \"#utility.yul\":56:87   */\n  mstore\n    /* \"#utility.yul\":106:110   */\n  0x41\n    /* \"#utility.yul\":103:104   */\n  0x04\n    /* \"#utility.yul\":96:111   */\n  mstore\n    /* \"#utility.yul\":130:134   */\n  0x24\n    /* \"#utility.yul\":127:128   */\n  0x00\n    /* \"#utility.yul\":120:135   */\n  revert\n    /* \"#utility.yul\":146:1058   */\ntag_3:\n    /* \"#utility.yul\":226:232   */\n  0x00\n    /* \"#utility.yul\":279:281   */\n  0x20\n    /* \"#utility.yul\":267:276   */\n  dup3\n    /* \"#utility.yul\":258:265   */\n  dup5\n    /* \"#utility.yul\":254:277   */\n  sub\n    /* \"#utility.yul\":250:282   */\n  slt\n    /* \"#utility.yul\":247:299   */\n  iszero\n  tag_22\n  jumpi\n    /* \"#utility.yul\":295:296   */\n  0x00\n    /* \"#utility.yul\":292:293   */\n  dup1\n    /* \"#utility.yul\":285:297   */\n  revert\n    /* \"#utility.yul\":247:299   */\ntag_22:\n    /* \"#utility.yul\":322:338   */\n  dup2\n  mload\n  sub(shl(0x40, 0x01), 0x01)\n    /* \"#utility.yul\":387:401   */\n  dup1\n  dup3\n  gt\n    /* \"#utility.yul\":384:418   */\n  iszero\n  tag_23\n  jumpi\n    /* \"#utility.yul\":414:415   */\n  0x00\n    /* \"#utility.yul\":411:412   */\n  dup1\n    /* \"#utility.yul\":404:416   */\n  revert\n    /* \"#utility.yul\":384:418   */\ntag_23:\n    /* \"#utility.yul\":452:458   */\n  dup2\n    /* \"#utility.yul\":441:450   */\n  dup5\n    /* \"#utility.yul\":437:459   */\n  add\n    /* \"#utility.yul\":427:459   */\n  swap2\n  pop\n    /* \"#utility.yul\":497:504   */\n  dup5\n    /* \"#utility.yul\":490:494   */\n  0x1f\n    /* \"#utility.yul\":486:488   */\n  dup4\n    /* \"#utility.yul\":482:495   */\n  add\n    /* \"#utility.yul\":478:505   */\n  slt\n    /* \"#utility.yul\":468:523   */\n  tag_24\n  jumpi\n    /* \"#utility.yul\":519:520   */\n  0x00\n    /* \"#utility.yul\":516:517   */\n  dup1\n    /* \"#utility.yul\":509:521   */\n  revert\n    /* \"#utility.yul\":468:523   */\ntag_24:\n    /* \"#utility.yul\":548:550   */\n  dup2\n    /* \"#utility.yul\":542:551   */\n  mload\n    /* \"#utility.yul\":570:572   */\n  dup2\n    /* \"#utility.yul\":566:568   */\n  dup2\n    /* \"#utility.yul\":563:573   */\n  gt\n    /* \"#utility.yul\":560:596   */\n  iszero\n  tag_26\n  jumpi\n    /* \"#utility.yul\":576:594   */\n  tag_26\n  tag_14\n  jump\t// in\ntag_26:\n    /* \"#utility.yul\":651:653   */\n  0x40\n    /* \"#utility.yul\":645:654   */\n  mload\n    /* \"#utility.yul\":619:621   */\n  0x1f\n    /* \"#utility.yul\":705:718   */\n  dup3\n  add\n  not(0x1f)\n    /* \"#utility.yul\":701:723   */\n  swap1\n  dup2\n  and\n    /* \"#utility.yul\":725:727   */\n  0x3f\n    /* \"#utility.yul\":697:728   */\n  add\n    /* \"#utility.yul\":693:733   */\n  and\n    /* \"#utility.yul\":681:734   */\n  dup2\n  add\n  swap1\n    /* \"#utility.yul\":749:767   */\n  dup4\n  dup3\n  gt\n    /* \"#utility.yul\":769:791   */\n  dup2\n  dup4\n  lt\n    /* \"#utility.yul\":746:792   */\n  or\n    /* \"#utility.yul\":743:815   */\n  iszero\n  tag_28\n  jumpi\n    /* \"#utility.yul\":795:813   */\n  tag_28\n  tag_14\n  jump\t// in\ntag_28:\n    /* \"#utility.yul\":835:845   */\n  dup2\n    /* \"#utility.yul\":831:833   */\n  0x40\n    /* \"#utility.yul\":824:846   */\n  mstore\n    /* \"#utility.yul\":870:872   */\n  dup3\n    /* \"#utility.yul\":862:868   */\n  dup2\n    /* \"#utility.yul\":855:873   */\n  mstore\n    /* \"#utility.yul\":910:917   */\n  dup8\n    /* \"#utility.yul\":905:907   */\n  0x20\n    /* \"#utility.yul\":900:902   */\n  dup5\n    /* \"#utility.yul\":896:898   */\n  dup8\n    /* \"#utility.yul\":892:903   */\n  add\n    /* \"#utility.yul\":888:908   */\n  add\n    /* \"#utility.yul\":885:918   */\n  gt\n    /* \"#utility.yul\":882:935   */\n  iszero\n  tag_29\n  jumpi\n    /* \"#utility.yul\":931:932   */\n  0x00\n    /* \"#utility.yul\":928:929   */\n  dup1\n    /* \"#utility.yul\":921:933   */\n  revert\n    /* \"#utility.yul\":882:935   */\ntag_29:\n    /* \"#utility.yul\":980:982   */\n  dup3\n    /* \"#utility.yul\":975:977   */\n  0x20\n    /* \"#utility.yul\":971:973   */\n  dup7\n    /* \"#utility.yul\":967:978   */\n  add\n    /* \"#utility.yul\":962:964   */\n  0x20\n    /* \"#utility.yul\":954:960   */\n  dup4\n    /* \"#utility.yul\":950:965   */\n  add\n    /* \"#utility.yul\":944:983   */\n  mcopy\n    /* \"#utility.yul\":1025:1026   */\n  0x00\n    /* \"#utility.yul\":1003:1018   */\n  swap3\n  dup2\n  add\n    /* \"#utility.yul\":1020:1022   */\n  0x20\n    /* \"#utility.yul\":999:1023   */\n  add\n    /* \"#utility.yul\":992:1027   */\n  swap3\n  swap1\n  swap3\n  mstore\n  pop\n    /* \"#utility.yul\":1007:1013   */\n  swap6\n    /* \"#utility.yul\":146:1058   */\n  swap5\n  pop\n  pop\n  pop\n  pop\n  pop\n  jump\t// out\n    /* \"#utility.yul\":1063:1443   */\ntag_15:\n    /* \"#utility.yul\":1142:1143   */\n  0x01\n    /* \"#utility.yul\":1138:1150   */\n  dup2\n  dup2\n  shr\n  swap1\n    /* \"#utility.yul\":1185:1197   */\n  dup3\n  and\n  dup1\n    /* \"#utility.yul\":1206:1267   */\n  tag_31\n  jumpi\n    /* \"#utility.yul\":1260:1264   */\n  0x7f\n    /* \"#utility.yul\":1252:1258   */\n  dup3\n    /* \"#utility.yul\":1248:1265   */\n  and\n    /* \"#utility.yul\":1238:1265   */\n  swap2\n  pop\n    /* \"#utility.yul\":1206:1267   */\ntag_31:\n    /* \"#utility.yul\":1313:1315   */\n  0x20\n    /* \"#utility.yul\":1305:1311   */\n  dup3\n    /* \"#utility.yul\":1302:1316   */\n  lt\n    /* \"#utility.yul\":1282:1300   */\n  dup2\n    /* \"#utility.yul\":1279:1317   */\n  sub\n    /* \"#utility.yul\":1276:1437   */\n  tag_32\n  jumpi\n    /* \"#utility.yul\":1359:1369   */\n  0x4e487b71\n    /* \"#utility.yul\":1354:1357   */\n  0xe0\n    /* \"#utility.yul\":1350:1370   */\n  shl\n    /* \"#utility.yul\":1347:1348   */\n  0x00\n    /* \"#utility.yul\":1340:1371   */\n  mstore\n    /* \"#utility.yul\":1394:1398   */\n  0x22\n    /* \"#utility.yul\":1391:1392   */\n  0x04\n    /* \"#utility.yul\":1384:1399   */\n  mstore\n    /* \"#utility.yul\":1422:1426   */\n  0x24\n    /* \"#utility.yul\":1419:1420   */\n  0x00\n    /* \"#utility.yul\":1412:1427   */\n  revert\n    /* \"#utility.yul\":1276:1437   */\ntag_32:\n  pop\n    /* \"#utility.yul\":1063:1443   */\n  swap2\n  swap1\n  pop\n  jump\t// out\n    /* \"#utility.yul\":1574:2092   */\ntag_17:\n    /* \"#utility.yul\":1676:1678   */\n  0x1f\n    /* \"#utility.yul\":1671:1674   */\n  dup3\n    /* \"#utility.yul\":1668:1679   */\n  gt\n    /* \"#utility.yul\":1665:2086   */\n  iszero\n  tag_35\n  jumpi\n    /* \"#utility.yul\":1712:1717   */\n  dup1\n    /* \"#utility.yul\":1709:1710   */\n  0x00\n    /* \"#utility.yul\":1702:1718   */\n  mstore\n    /* \"#utility.yul\":1756:1760   */\n  0x20\n    /* \"#utility.yul\":1753:1754   */\n  0x00\n    /* \"#utility.yul\":1743:1761   */\n  keccak256\n    /* \"#utility.yul\":1826:1828   */\n  0x1f\n    /* \"#utility.yul\":1814:1824   */\n  dup5\n    /* \"#utility.yul\":1810:1829   */\n  add\n    /* \"#utility.yul\":1807:1808   */\n  0x05\n    /* \"#utility.yul\":1803:1830   */\n  shr\n    /* \"#utility.yul\":1797:1801   */\n  dup2\n    /* \"#utility.yul\":1793:1831   */\n  add\n    /* \"#utility.yul\":1862:1866   */\n  0x20\n    /* \"#utility.yul\":1850:1860   */\n  dup6\n    /* \"#utility.yul\":1847:1867   */\n  lt\n    /* \"#utility.yul\":1844:1891   */\n  iszero\n  tag_36\n  jumpi\n  pop\n    /* \"#utility.yul\":1885:1889   */\n  dup1\n    /* \"#utility.yul\":1844:1891   */\ntag_36:\n    /* \"#utility.yul\":1940:1942   */\n  0x1f\n    /* \"#utility.yul\":1935:1938   */\n  dup5\n    /* \"#utility.yul\":1931:1943   */\n  add\n    /* \"#utility.yul\":1928:1929   */\n  0x05\n    /* \"#utility.yul\":1924:1944   */\n  shr\n    /* \"#utility.yul\":1918:1922   */\n  dup3\n    /* \"#utility.yul\":1914:1945   */\n  add\n    /* \"#utility.yul\":1904:1945   */\n  swap2\n  pop\n    /* \"#utility.yul\":1995:2076   */\ntag_37:\n    /* \"#utility.yul\":2013:2015   */\n  dup2\n    /* \"#utility.yul\":2006:2011   */\n  dup2\n    /* \"#utility.yul\":2003:2016   */\n  lt\n    /* \"#utility.yul\":1995:2076   */\n  iszero\n  tag_39\n  jumpi\n    /* \"#utility.yul\":2072:2073   */\n  0x00\n    /* \"#utility.yul\":2058:2074   */\n  dup2\n  sstore\n    /* \"#utility.yul\":2039:2040   */\n  0x01\n    /* \"#utility.yul\":2028:2041   */\n  add\n    /* \"#utility.yul\":1995:2076   */\n  jump(tag_37)\ntag_39:\n    /* \"#utility.yul\":1999:2002   */\n  pop\n  pop\n    /* \"#utility.yul\":1665:2086   */\ntag_35:\n    /* \"#utility.yul\":1574:2092   */\n  pop\n  pop\n  pop\n  jump\t// out\n    /* \"#utility.yul\":2268:3613   */\ntag_13:\n    /* \"#utility.yul\":2388:2398   */\n  dup2\n  mload\n  sub(shl(0x40, 0x01), 0x01)\n    /* \"#utility.yul\":2410:2440   */\n  dup2\n  gt\n    /* \"#utility.yul\":2407:2463   */\n  iszero\n  tag_43\n  jumpi\n    /* \"#utility.yul\":2443:2461   */\n  tag_43\n  tag_14\n  jump\t// in\ntag_43:\n    /* \"#utility.yul\":2472:2569   */\n  tag_44\n    /* \"#utility.yul\":2562:2568   */\n  dup2\n    /* \"#utility.yul\":2522:2560   */\n  tag_45\n    /* \"#utility.yul\":2554:2558   */\n  dup5\n    /* \"#utility.yul\":2548:2559   */\n  sload\n    /* \"#utility.yul\":2522:2560   */\n  tag_15\n  jump\t// in\ntag_45:\n    /* \"#utility.yul\":2516:2520   */\n  dup5\n    /* \"#utility.yul\":2472:2569   */\n  tag_17\n  jump\t// in\ntag_44:\n    /* \"#utility.yul\":2624:2628   */\n  0x20\n  dup1\n    /* \"#utility.yul\":2681:2683   */\n  0x1f\n    /* \"#utility.yul\":2670:2684   */\n  dup4\n  gt\n    /* \"#utility.yul\":2698:2699   */\n  0x01\n    /* \"#utility.yul\":2693:3356   */\n  dup2\n  eq\n  tag_47\n  jumpi\n    /* \"#utility.yul\":3400:3401   */\n  0x00\n    /* \"#utility.yul\":3417:3423   */\n  dup5\n    /* \"#utility.yul\":3414:3503   */\n  iszero\n  tag_48\n  jumpi\n  pop\n    /* \"#utility.yul\":3469:3488   */\n  dup6\n  dup4\n  add\n    /* \"#utility.yul\":3463:3489   */\n  mload\n    /* \"#utility.yul\":3414:3503   */\ntag_48:\n  not(0x00)\n    /* \"#utility.yul\":2225:2226   */\n  0x03\n    /* \"#utility.yul\":2221:2232   */\n  dup7\n  swap1\n  shl\n    /* \"#utility.yul\":2217:2241   */\n  shr\n    /* \"#utility.yul\":2213:2242   */\n  not\n    /* \"#utility.yul\":2203:2243   */\n  and\n    /* \"#utility.yul\":2249:2250   */\n  0x01\n    /* \"#utility.yul\":2245:2256   */\n  dup6\n  swap1\n  shl\n    /* \"#utility.yul\":2200:2257   */\n  or\n    /* \"#utility.yul\":3516:3597   */\n  dup6\n  sstore\n    /* \"#utility.yul\":2663:3607   */\n  jump(tag_46)\n    /* \"#utility.yul\":2693:3356   */\ntag_47:\n    /* \"#utility.yul\":1521:1522   */\n  0x00\n    /* \"#utility.yul\":1514:1528   */\n  dup6\n  dup2\n  mstore\n    /* \"#utility.yul\":1558:1562   */\n  0x20\n    /* \"#utility.yul\":1545:1563   */\n  dup2\n  keccak256\n  not(0x1f)\n    /* \"#utility.yul\":2729:2749   */\n  dup7\n  and\n  swap2\n    /* \"#utility.yul\":2847:3083   */\ntag_51:\n    /* \"#utility.yul\":2861:2868   */\n  dup3\n    /* \"#utility.yul\":2858:2859   */\n  dup2\n    /* \"#utility.yul\":2855:2869   */\n  lt\n    /* \"#utility.yul\":2847:3083   */\n  iszero\n  tag_53\n  jumpi\n    /* \"#utility.yul\":2950:2969   */\n  dup9\n  dup7\n  add\n    /* \"#utility.yul\":2944:2970   */\n  mload\n    /* \"#utility.yul\":2929:2971   */\n  dup3\n  sstore\n    /* \"#utility.yul\":3042:3069   */\n  swap5\n  dup5\n  add\n  swap5\n    /* \"#utility.yul\":3010:3011   */\n  0x01\n    /* \"#utility.yul\":2998:3012   */\n  swap1\n  swap2\n  add\n  swap1\n    /* \"#utility.yul\":2877:2896   */\n  dup5\n  add\n    /* \"#utility.yul\":2847:3083   */\n  jump(tag_51)\ntag_53:\n    /* \"#utility.yul\":2851:2854   */\n  pop\n    /* \"#utility.yul\":3111:3117   */\n  dup6\n    /* \"#utility.yul\":3102:3109   */\n  dup3\n    /* \"#utility.yul\":3099:3118   */\n  lt\n    /* \"#utility.yul\":3096:3297   */\n  iszero\n  tag_54\n  jumpi\n    /* \"#utility.yul\":3172:3191   */\n  dup8\n  dup6\n  add\n    /* \"#utility.yul\":3166:3192   */\n  mload\n  not(0x00)\n    /* \"#utility.yul\":3255:3256   */\n  0x03\n    /* \"#utility.yul\":3251:3265   */\n  dup9\n  swap1\n  shl\n    /* \"#utility.yul\":3267:3270   */\n  0xf8\n    /* \"#utility.yul\":3247:3271   */\n  and\n    /* \"#utility.yul\":3243:3280   */\n  shr\n    /* \"#utility.yul\":3239:3281   */\n  not\n    /* \"#utility.yul\":3224:3282   */\n  and\n    /* \"#utility.yul\":3209:3283   */\n  dup2\n  sstore\n    /* \"#utility.yul\":3096:3297   */\ntag_54:\n  pop\n  pop\n    /* \"#utility.yul\":3343:3344   */\n  0x01\n    /* \"#utility.yul\":3334:3340   */\n  dup5\n    /* \"#utility.yul\":3331:3332   */\n  0x01\n    /* \"#utility.yul\":3327:3341   */\n  shl\n    /* \"#utility.yul\":3323:3345   */\n  add\n    /* \"#utility.yul\":3317:3321   */\n  dup6\n    /* \"#utility.yul\":3310:3346   */\n  sstore\n    /* \"#utility.yul\":2663:3607   */\ntag_46:\n  pop\n  pop\n  pop\n  pop\n    /* \"#utility.yul\":2268:3613   */\n  pop\n  pop\n  jump\t// out\ntag_19:\n    /* \"NFT Tokens/Tk9.sol\":119:966  contract MultiToken is ERC1155 {... */\n  dataSize(sub_0)\n  dup1\n  dataOffset(sub_0)\n  0x00\n  codecopy\n  0x00\n  return\nstop\n\nsub_0: assembly {\n        /* \"NFT Tokens/Tk9.sol\":119:966  contract MultiToken is ERC1155 {... */\n      mstore(0x40, 0x80)\n      callvalue\n      dup1\n      iszero\n      tag_1\n      jumpi\n      0x00\n      dup1\n      revert\n    tag_1:\n      pop\n      jumpi(tag_2, lt(calldatasize, 0x04))\n      shr(0xe0, calldataload(0x00))\n      dup1\n      0x4e1273f4\n      gt\n      tag_16\n      jumpi\n      dup1\n      0xa22cb465\n      gt\n      tag_17\n      jumpi\n      dup1\n      0xa22cb465\n      eq\n      tag_12\n      jumpi\n      dup1\n      0xbd85b039\n      eq\n      tag_13\n      jumpi\n      dup1\n      0xe985e9c5\n      eq\n      tag_14\n      jumpi\n      dup1\n      0xf242432a\n      eq\n      tag_15\n      jumpi\n      0x00\n      dup1\n      revert\n    tag_17:\n      dup1\n      0x4e1273f4\n      eq\n      tag_9\n      jumpi\n      dup1\n      0x8e81c64d\n      eq\n      tag_10\n      jumpi\n      dup1\n      0x93442218\n      eq\n      tag_11\n      jumpi\n      0x00\n      dup1\n      revert\n    tag_16:\n      dup1\n      0xfdd58e\n      eq\n      tag_3\n      jumpi\n      dup1\n      0x01ffc9a7\n      eq\n      tag_4\n      jumpi\n      dup1\n      0x0e89341c\n      eq\n      tag_5\n      jumpi\n      dup1\n      0x1cb0d481\n      eq\n      tag_6\n      jumpi\n      dup1\n      0x20295559\n      eq\n      tag_7\n      jumpi\n      dup1\n      0x2eb2c2d6\n      eq\n      tag_8\n      jumpi\n    tag_2:\n      0x00\n      dup1\n      revert\n        /* \"@openzeppelin/contracts/token/ERC1155/ERC1155.sol\":2247:2379  function balanceOf(address account, uint256 id) public view virtual returns (uint256) {... */\n    tag_3:\n      tag_18\n      tag_19\n      calldatasize\n      0x04\n      tag_20\n      jump\t// in\n    tag_19:\n      tag_21\n      jump\t// in\n    tag_18:\n      mload(0x40)\n        /* \"#utility.yul\":597:622   */\n      swap1\n      dup2\n      mstore\n        /* \"#utility.yul\":585:587   */\n      0x20\n        /* \"#utility.yul\":570:588   */\n      add\n        /* \"@openzeppelin/contracts/token/ERC1155/ERC1155.sol\":2247:2379  function balanceOf(address account, uint256 id) public view virtual returns (uint256) {... */\n    tag_22:\n      mload(0x40)\n      dup1\n      swap2\n      sub\n      swap1\n      return\n        /* \"@openzeppelin/contracts/token/ERC1155/ERC1155.sol\":1380:1685  function supportsInterface(bytes4 interfaceId) public view virtual override(ERC165, IERC165) returns (bool) {... */\n    tag_4:\n      tag_24\n      tag_25\n      calldatasize\n      0x04\n      tag_26\n      jump\t// in\n    tag_25:\n      tag_27\n      jump\t// in\n    tag_24:\n      mload(0x40)\n        /* \"#utility.yul\":1184:1198   */\n      swap1\n      iszero\n        /* \"#utility.yul\":1177:1199   */\n      iszero\n        /* \"#utility.yul\":1159:1200   */\n      dup2\n      mstore\n        /* \"#utility.yul\":1147:1149   */\n      0x20\n        /* \"#utility.yul\":1132:1150   */\n      add\n        /* \"@openzeppelin/contracts/token/ERC1155/ERC1155.sol\":1380:1685  function supportsInterface(bytes4 interfaceId) public view virtual override(ERC165, IERC165) returns (bool) {... */\n      tag_22\n        /* \"#utility.yul\":1019:1206   */\n      jump\n        /* \"@openzeppelin/contracts/token/ERC1155/ERC1155.sol\":2084:2187  function uri(uint256 /* id */) public view virtual returns (string memory) {... */\n    tag_5:\n      tag_30\n      tag_31\n      calldatasize\n      0x04\n      tag_32\n      jump\t// in\n    tag_31:\n      tag_33\n      jump\t// in\n    tag_30:\n      mload(0x40)\n      tag_22\n      swap2\n      swap1\n      tag_35\n      jump\t// in\n        /* \"NFT Tokens/Tk9.sol\":465:637  function transferTokens(address recipient, uint[] memory ids, uint[] memory amounts) public {... */\n    tag_6:\n      tag_36\n      tag_37\n      calldatasize\n      0x04\n      tag_38\n      jump\t// in\n    tag_37:\n      tag_39\n      jump\t// in\n    tag_36:\n      stop\n        /* \"NFT Tokens/Tk9.sol\":865:963  function gettotalSupply(uint id) public view returns(uint) {... */\n    tag_7:\n      tag_18\n      tag_41\n      calldatasize\n      0x04\n      tag_32\n      jump\t// in\n    tag_41:\n        /* \"NFT Tokens/Tk9.sol\":918:922  uint */\n      0x00\n        /* \"NFT Tokens/Tk9.sol\":941:956  totalSupply[id] */\n      swap1\n      dup2\n      mstore\n        /* \"NFT Tokens/Tk9.sol\":941:952  totalSupply */\n      0x03\n        /* \"NFT Tokens/Tk9.sol\":941:956  totalSupply[id] */\n      0x20\n      mstore\n      0x40\n      swap1\n      keccak256\n      sload\n      swap1\n        /* \"NFT Tokens/Tk9.sol\":865:963  function gettotalSupply(uint id) public view returns(uint) {... */\n      jump\n        /* \"@openzeppelin/contracts/token/ERC1155/ERC1155.sol\":4014:4443  function safeBatchTransferFrom(... */\n    tag_8:\n      tag_36\n      tag_45\n      calldatasize\n      0x04\n      tag_46\n      jump\t// in\n    tag_45:\n      tag_47\n      jump\t// in\n        /* \"@openzeppelin/contracts/token/ERC1155/ERC1155.sol\":2536:3088  function balanceOfBatch(... */\n    tag_9:\n      tag_48\n      tag_49\n      calldatasize\n      0x04\n      tag_50\n      jump\t// in\n    tag_49:\n      tag_51\n      jump\t// in\n    tag_48:\n      mload(0x40)\n      tag_22\n      swap2\n      swap1\n      tag_53\n      jump\t// in\n        /* \"NFT Tokens/Tk9.sol\":643:859  function burnTokens(uint id, uint amount) public {... */\n    tag_10:\n      tag_36\n      tag_55\n      calldatasize\n      0x04\n      tag_56\n      jump\t// in\n    tag_55:\n      tag_57\n      jump\t// in\n        /* \"NFT Tokens/Tk9.sol\":260:459  function addTokenType(uint initialSupply) public {... */\n    tag_11:\n      tag_36\n      tag_59\n      calldatasize\n      0x04\n      tag_32\n      jump\t// in\n    tag_59:\n      tag_60\n      jump\t// in\n        /* \"@openzeppelin/contracts/token/ERC1155/ERC1155.sol\":3156:3300  function setApprovalForAll(address operator, bool approved) public virtual {... */\n    tag_12:\n      tag_36\n      tag_62\n      calldatasize\n      0x04\n      tag_63\n      jump\t// in\n    tag_62:\n      tag_64\n      jump\t// in\n        /* \"NFT Tokens/Tk9.sol\":161:201  mapping(uint => uint) public totalSupply */\n    tag_13:\n      tag_18\n      tag_66\n      calldatasize\n      0x04\n      tag_32\n      jump\t// in\n    tag_66:\n      mstore(0x20, 0x03)\n      0x00\n      swap1\n      dup2\n      mstore\n      0x40\n      swap1\n      keccak256\n      sload\n      dup2\n      jump\n        /* \"@openzeppelin/contracts/token/ERC1155/ERC1155.sol\":3367:3524  function isApprovedForAll(address account, address operator) public view virtual returns (bool) {... */\n    tag_14:\n      tag_24\n      tag_70\n      calldatasize\n      0x04\n      tag_71\n      jump\t// in\n    tag_70:\n      tag_72\n      jump\t// in\n        /* \"@openzeppelin/contracts/token/ERC1155/ERC1155.sol\":3591:3942  function safeTransferFrom(address from, address to, uint256 id, uint256 value, bytes memory data) public virtual {... */\n    tag_15:\n      tag_36\n      tag_75\n      calldatasize\n      0x04\n      tag_76\n      jump\t// in\n    tag_75:\n      tag_77\n      jump\t// in\n        /* \"@openzeppelin/contracts/token/ERC1155/ERC1155.sol\":2247:2379  function balanceOf(address account, uint256 id) public view virtual returns (uint256) {... */\n    tag_21:\n        /* \"@openzeppelin/contracts/token/ERC1155/ERC1155.sol\":2324:2331  uint256 */\n      0x00\n        /* \"@openzeppelin/contracts/token/ERC1155/ERC1155.sol\":2350:2363  _balances[id] */\n      dup2\n      dup2\n      mstore\n      0x20\n      dup2\n      dup2\n      mstore\n      0x40\n      dup1\n      dup4\n      keccak256\n      sub(shl(0xa0, 0x01), 0x01)\n        /* \"@openzeppelin/contracts/token/ERC1155/ERC1155.sol\":2350:2372  _balances[id][account] */\n      dup7\n      and\n      dup5\n      mstore\n      swap1\n      swap2\n      mstore\n      swap1\n      keccak256\n      sload\n        /* \"@openzeppelin/contracts/token/ERC1155/ERC1155.sol\":2247:2379  function balanceOf(address account, uint256 id) public view virtual returns (uint256) {... */\n    tag_78:\n      swap3\n      swap2\n      pop\n      pop\n      jump\t// out\n        /* \"@openzeppelin/contracts/token/ERC1155/ERC1155.sol\":1380:1685  function supportsInterface(bytes4 interfaceId) public view virtual override(ERC165, IERC165) returns (bool) {... */\n    tag_27:\n        /* \"@openzeppelin/contracts/token/ERC1155/ERC1155.sol\":1482:1486  bool */\n      0x00\n      not(sub(shl(0xe0, 0x01), 0x01))\n        /* \"@openzeppelin/contracts/token/ERC1155/ERC1155.sol\":1517:1558  interfaceId == type(IERC1155).interfaceId */\n      dup3\n      and\n      shl(0xe1, 0x6cdb3d13)\n      eq\n      dup1\n        /* \"@openzeppelin/contracts/token/ERC1155/ERC1155.sol\":1517:1626  interfaceId == type(IERC1155).interfaceId ||... */\n      tag_80\n      jumpi\n      pop\n      not(sub(shl(0xe0, 0x01), 0x01))\n        /* \"@openzeppelin/contracts/token/ERC1155/ERC1155.sol\":1574:1626  interfaceId == type(IERC1155MetadataURI).interfaceId */\n      dup3\n      and\n      shl(0xe2, 0x03a24d07)\n      eq\n        /* \"@openzeppelin/contracts/token/ERC1155/ERC1155.sol\":1517:1626  interfaceId == type(IERC1155).interfaceId ||... */\n    tag_80:\n        /* \"@openzeppelin/contracts/token/ERC1155/ERC1155.sol\":1517:1678  interfaceId == type(IERC1155).interfaceId ||... */\n      dup1\n      tag_78\n      jumpi\n      pop\n      shl(0xe0, 0x01ffc9a7)\n      not(sub(shl(0xe0, 0x01), 0x01))\n        /* \"@openzeppelin/contracts/utils/introspection/ERC165.sol\":861:901  interfaceId == type(IERC165).interfaceId */\n      dup4\n      and\n      eq\n        /* \"@openzeppelin/contracts/token/ERC1155/ERC1155.sol\":1642:1678  super.supportsInterface(interfaceId) */\n      tag_78\n        /* \"@openzeppelin/contracts/utils/introspection/ERC165.sol\":762:908  function supportsInterface(bytes4 interfaceId) public view virtual returns (bool) {... */\n      jump\n        /* \"@openzeppelin/contracts/token/ERC1155/ERC1155.sol\":2084:2187  function uri(uint256 /* id */) public view virtual returns (string memory) {... */\n    tag_33:\n        /* \"@openzeppelin/contracts/token/ERC1155/ERC1155.sol\":2144:2157  string memory */\n      0x60\n        /* \"@openzeppelin/contracts/token/ERC1155/ERC1155.sol\":2176:2180  _uri */\n      0x02\n        /* \"@openzeppelin/contracts/token/ERC1155/ERC1155.sol\":2169:2180  return _uri */\n      dup1\n      sload\n      tag_85\n      swap1\n      tag_86\n      jump\t// in\n    tag_85:\n      dup1\n      0x1f\n      add\n      0x20\n      dup1\n      swap2\n      div\n      mul\n      0x20\n      add\n      mload(0x40)\n      swap1\n      dup2\n      add\n      0x40\n      mstore\n      dup1\n      swap3\n      swap2\n      swap1\n      dup2\n      dup2\n      mstore\n      0x20\n      add\n      dup3\n      dup1\n      sload\n      tag_87\n      swap1\n      tag_86\n      jump\t// in\n    tag_87:\n      dup1\n      iszero\n      tag_88\n      jumpi\n      dup1\n      0x1f\n      lt\n      tag_89\n      jumpi\n      0x0100\n      dup1\n      dup4\n      sload\n      div\n      mul\n      dup4\n      mstore\n      swap2\n      0x20\n      add\n      swap2\n      jump(tag_88)\n    tag_89:\n      dup3\n      add\n      swap2\n      swap1\n      0x00\n      mstore\n      keccak256(0x00, 0x20)\n      swap1\n    tag_90:\n      dup2\n      sload\n      dup2\n      mstore\n      swap1\n      0x01\n      add\n      swap1\n      0x20\n      add\n      dup1\n      dup4\n      gt\n      tag_90\n      jumpi\n      dup3\n      swap1\n      sub\n      0x1f\n      and\n      dup3\n      add\n      swap2\n    tag_88:\n      pop\n      pop\n      pop\n      pop\n      pop\n      swap1\n      pop\n        /* \"@openzeppelin/contracts/token/ERC1155/ERC1155.sol\":2084:2187  function uri(uint256 /* id */) public view virtual returns (string memory) {... */\n      swap2\n      swap1\n      pop\n      jump\t// out\n        /* \"NFT Tokens/Tk9.sol\":465:637  function transferTokens(address recipient, uint[] memory ids, uint[] memory amounts) public {... */\n    tag_39:\n        /* \"NFT Tokens/Tk9.sol\":567:630  _safeBatchTransferFrom(msg.sender, recipient, ids, amounts, \"\") */\n      tag_92\n        /* \"NFT Tokens/Tk9.sol\":590:600  msg.sender */\n      caller\n        /* \"NFT Tokens/Tk9.sol\":602:611  recipient */\n      dup5\n        /* \"NFT Tokens/Tk9.sol\":613:616  ids */\n      dup5\n        /* \"NFT Tokens/Tk9.sol\":618:625  amounts */\n      dup5\n        /* \"NFT Tokens/Tk9.sol\":567:630  _safeBatchTransferFrom(msg.sender, recipient, ids, amounts, \"\") */\n      mload(0x40)\n      dup1\n      0x20\n      add\n      0x40\n      mstore\n      dup1\n      0x00\n      dup2\n      mstore\n      pop\n        /* \"NFT Tokens/Tk9.sol\":567:589  _safeBatchTransferFrom */\n      tag_93\n        /* \"NFT Tokens/Tk9.sol\":567:630  _safeBatchTransferFrom(msg.sender, recipient, ids, amounts, \"\") */\n      jump\t// in\n    tag_92:\n        /* \"NFT Tokens/Tk9.sol\":465:637  function transferTokens(address recipient, uint[] memory ids, uint[] memory amounts) public {... */\n      pop\n      pop\n      pop\n      jump\t// out\n        /* \"@openzeppelin/contracts/token/ERC1155/ERC1155.sol\":4014:4443  function safeBatchTransferFrom(... */\n    tag_47:\n        /* \"@openzeppelin/contracts/utils/Context.sol\":735:745  msg.sender */\n      caller\n      sub(shl(0xa0, 0x01), 0x01)\n        /* \"@openzeppelin/contracts/token/ERC1155/ERC1155.sol\":4251:4265  from != sender */\n      dup7\n      and\n      dup2\n      eq\n      dup1\n      iszero\n      swap1\n        /* \"@openzeppelin/contracts/token/ERC1155/ERC1155.sol\":4251:4300  from != sender && !isApprovedForAll(from, sender) */\n      tag_98\n      jumpi\n      pop\n        /* \"@openzeppelin/contracts/token/ERC1155/ERC1155.sol\":4270:4300  isApprovedForAll(from, sender) */\n      tag_99\n        /* \"@openzeppelin/contracts/token/ERC1155/ERC1155.sol\":4287:4291  from */\n      dup7\n        /* \"@openzeppelin/contracts/token/ERC1155/ERC1155.sol\":4293:4299  sender */\n      dup3\n        /* \"@openzeppelin/contracts/token/ERC1155/ERC1155.sol\":4270:4286  isApprovedForAll */\n      tag_72\n        /* \"@openzeppelin/contracts/token/ERC1155/ERC1155.sol\":4270:4300  isApprovedForAll(from, sender) */\n      jump\t// in\n    tag_99:\n        /* \"@openzeppelin/contracts/token/ERC1155/ERC1155.sol\":4269:4300  !isApprovedForAll(from, sender) */\n      iszero\n        /* \"@openzeppelin/contracts/token/ERC1155/ERC1155.sol\":4251:4300  from != sender && !isApprovedForAll(from, sender) */\n    tag_98:\n        /* \"@openzeppelin/contracts/token/ERC1155/ERC1155.sol\":4247:4376  if (from != sender && !isApprovedForAll(from, sender)) {... */\n      iszero\n      tag_100\n      jumpi\n        /* \"@openzeppelin/contracts/token/ERC1155/ERC1155.sol\":4323:4365  ERC1155MissingApprovalForAll(sender, from) */\n      mload(0x40)\n      shl(0xe1, 0x711bec91)\n      dup2\n      mstore\n      sub(shl(0xa0, 0x01), 0x01)\n        /* \"#utility.yul\":9302:9317   */\n      dup1\n      dup4\n      and\n        /* \"@openzeppelin/contracts/token/ERC1155/ERC1155.sol\":4323:4365  ERC1155MissingApprovalForAll(sender, from) */\n      0x04\n      dup4\n      add\n        /* \"#utility.yul\":9284:9318   */\n      mstore\n        /* \"#utility.yul\":9354:9369   */\n      dup8\n      and\n        /* \"#utility.yul\":9334:9352   */\n      0x24\n      dup3\n      add\n        /* \"#utility.yul\":9327:9370   */\n      mstore\n        /* \"#utility.yul\":9219:9237   */\n      0x44\n      add\n        /* \"@openzeppelin/contracts/token/ERC1155/ERC1155.sol\":4323:4365  ERC1155MissingApprovalForAll(sender, from) */\n    tag_101:\n      mload(0x40)\n      dup1\n      swap2\n      sub\n      swap1\n      revert\n        /* \"@openzeppelin/contracts/token/ERC1155/ERC1155.sol\":4247:4376  if (from != sender && !isApprovedForAll(from, sender)) {... */\n    tag_100:\n        /* \"@openzeppelin/contracts/token/ERC1155/ERC1155.sol\":4385:4436  _safeBatchTransferFrom(from, to, ids, values, data) */\n      tag_103\n        /* \"@openzeppelin/contracts/token/ERC1155/ERC1155.sol\":4408:4412  from */\n      dup7\n        /* \"@openzeppelin/contracts/token/ERC1155/ERC1155.sol\":4414:4416  to */\n      dup7\n        /* \"@openzeppelin/contracts/token/ERC1155/ERC1155.sol\":4418:4421  ids */\n      dup7\n        /* \"@openzeppelin/contracts/token/ERC1155/ERC1155.sol\":4423:4429  values */\n      dup7\n        /* \"@openzeppelin/contracts/token/ERC1155/ERC1155.sol\":4431:4435  data */\n      dup7\n        /* \"@openzeppelin/contracts/token/ERC1155/ERC1155.sol\":4385:4407  _safeBatchTransferFrom */\n      tag_93\n        /* \"@openzeppelin/contracts/token/ERC1155/ERC1155.sol\":4385:4436  _safeBatchTransferFrom(from, to, ids, values, data) */\n      jump\t// in\n    tag_103:\n        /* \"@openzeppelin/contracts/token/ERC1155/ERC1155.sol\":4198:4443  {... */\n      pop\n        /* \"@openzeppelin/contracts/token/ERC1155/ERC1155.sol\":4014:4443  function safeBatchTransferFrom(... */\n      pop\n      pop\n      pop\n      pop\n      pop\n      jump\t// out\n        /* \"@openzeppelin/contracts/token/ERC1155/ERC1155.sol\":2536:3088  function balanceOfBatch(... */\n    tag_51:\n        /* \"@openzeppelin/contracts/token/ERC1155/ERC1155.sol\":2660:2676  uint256[] memory */\n      0x60\n        /* \"@openzeppelin/contracts/token/ERC1155/ERC1155.sol\":2711:2714  ids */\n      dup2\n        /* \"@openzeppelin/contracts/token/ERC1155/ERC1155.sol\":2711:2721  ids.length */\n      mload\n        /* \"@openzeppelin/contracts/token/ERC1155/ERC1155.sol\":2692:2700  accounts */\n      dup4\n        /* \"@openzeppelin/contracts/token/ERC1155/ERC1155.sol\":2692:2707  accounts.length */\n      mload\n        /* \"@openzeppelin/contracts/token/ERC1155/ERC1155.sol\":2692:2721  accounts.length != ids.length */\n      eq\n        /* \"@openzeppelin/contracts/token/ERC1155/ERC1155.sol\":2688:2809  if (accounts.length != ids.length) {... */\n      tag_105\n      jumpi\n        /* \"@openzeppelin/contracts/token/ERC1155/ERC1155.sol\":2770:2780  ids.length */\n      dup2\n      mload\n        /* \"@openzeppelin/contracts/token/ERC1155/ERC1155.sol\":2782:2797  accounts.length */\n      dup4\n      mload\n        /* \"@openzeppelin/contracts/token/ERC1155/ERC1155.sol\":2744:2798  ERC1155InvalidArrayLength(ids.length, accounts.length) */\n      mload(0x40)\n      shl(0xe0, 0x5b059991)\n      dup2\n      mstore\n      0x04\n      dup2\n      add\n        /* \"#utility.yul\":9555:9580   */\n      swap3\n      swap1\n      swap3\n      mstore\n        /* \"#utility.yul\":9596:9614   */\n      0x24\n      dup3\n      add\n        /* \"#utility.yul\":9589:9623   */\n      mstore\n        /* \"#utility.yul\":9528:9546   */\n      0x44\n      add\n        /* \"@openzeppelin/contracts/token/ERC1155/ERC1155.sol\":2744:2798  ERC1155InvalidArrayLength(ids.length, accounts.length) */\n      tag_101\n        /* \"#utility.yul\":9381:9629   */\n      jump\n        /* \"@openzeppelin/contracts/token/ERC1155/ERC1155.sol\":2688:2809  if (accounts.length != ids.length) {... */\n    tag_105:\n        /* \"@openzeppelin/contracts/token/ERC1155/ERC1155.sol\":2819:2849  uint256[] memory batchBalances */\n      0x00\n        /* \"@openzeppelin/contracts/token/ERC1155/ERC1155.sol\":2866:2874  accounts */\n      dup4\n        /* \"@openzeppelin/contracts/token/ERC1155/ERC1155.sol\":2866:2881  accounts.length */\n      mload\n        /* \"@openzeppelin/contracts/token/ERC1155/ERC1155.sol\":2852:2882  new uint256[](accounts.length) */\n      0xffffffffffffffff\n      dup2\n      gt\n      iszero\n      tag_109\n      jumpi\n      tag_109\n      tag_110\n      jump\t// in\n    tag_109:\n      mload(0x40)\n      swap1\n      dup1\n      dup3\n      mstore\n      dup1\n      0x20\n      mul\n      0x20\n      add\n      dup3\n      add\n      0x40\n      mstore\n      dup1\n      iszero\n      tag_111\n      jumpi\n      dup2\n      0x20\n      add\n      0x20\n      dup3\n      mul\n      dup1\n      calldatasize\n      dup4\n      calldatacopy\n      add\n      swap1\n      pop\n    tag_111:\n      pop\n        /* \"@openzeppelin/contracts/token/ERC1155/ERC1155.sol\":2819:2882  uint256[] memory batchBalances = new uint256[](accounts.length) */\n      swap1\n      pop\n        /* \"@openzeppelin/contracts/token/ERC1155/ERC1155.sol\":2898:2907  uint256 i */\n      0x00\n        /* \"@openzeppelin/contracts/token/ERC1155/ERC1155.sol\":2893:3051  for (uint256 i = 0; i < accounts.length; ++i) {... */\n    tag_112:\n        /* \"@openzeppelin/contracts/token/ERC1155/ERC1155.sol\":2917:2925  accounts */\n      dup5\n        /* \"@openzeppelin/contracts/token/ERC1155/ERC1155.sol\":2917:2932  accounts.length */\n      mload\n        /* \"@openzeppelin/contracts/token/ERC1155/ERC1155.sol\":2913:2914  i */\n      dup2\n        /* \"@openzeppelin/contracts/token/ERC1155/ERC1155.sol\":2913:2932  i < accounts.length */\n      lt\n        /* \"@openzeppelin/contracts/token/ERC1155/ERC1155.sol\":2893:3051  for (uint256 i = 0; i < accounts.length; ++i) {... */\n      iszero\n      tag_113\n      jumpi\n        /* \"@openzeppelin/contracts/utils/Arrays.sol\":4777:4781  0x20 */\n      0x20\n        /* \"@openzeppelin/contracts/utils/Arrays.sol\":4768:4782  mul(pos, 0x20) */\n      dup1\n      dup3\n      mul\n        /* \"@openzeppelin/contracts/utils/Arrays.sol\":4748:4783  add(add(arr, 0x20), mul(pos, 0x20)) */\n      dup7\n      add\n      add\n        /* \"@openzeppelin/contracts/utils/Arrays.sol\":4742:4784  mload(add(add(arr, 0x20), mul(pos, 0x20))) */\n      mload\n        /* \"@openzeppelin/contracts/token/ERC1155/ERC1155.sol\":2972:3040  balanceOf(accounts.unsafeMemoryAccess(i), ids.unsafeMemoryAccess(i)) */\n      tag_115\n      swap1\n        /* \"@openzeppelin/contracts/utils/Arrays.sol\":4777:4781  0x20 */\n      0x20\n        /* \"@openzeppelin/contracts/utils/Arrays.sol\":4768:4782  mul(pos, 0x20) */\n      dup1\n      dup5\n      mul\n        /* \"@openzeppelin/contracts/utils/Arrays.sol\":4748:4783  add(add(arr, 0x20), mul(pos, 0x20)) */\n      dup8\n      add\n      add\n        /* \"@openzeppelin/contracts/utils/Arrays.sol\":4742:4784  mload(add(add(arr, 0x20), mul(pos, 0x20))) */\n      mload\n        /* \"@openzeppelin/contracts/token/ERC1155/ERC1155.sol\":2247:2379  function balanceOf(address account, uint256 id) public view virtual returns (uint256) {... */\n      tag_21\n      jump\t// in\n        /* \"@openzeppelin/contracts/token/ERC1155/ERC1155.sol\":2972:3040  balanceOf(accounts.unsafeMemoryAccess(i), ids.unsafeMemoryAccess(i)) */\n    tag_115:\n        /* \"@openzeppelin/contracts/token/ERC1155/ERC1155.sol\":2953:2966  batchBalances */\n      dup3\n        /* \"@openzeppelin/contracts/token/ERC1155/ERC1155.sol\":2967:2968  i */\n      dup3\n        /* \"@openzeppelin/contracts/token/ERC1155/ERC1155.sol\":2953:2969  batchBalances[i] */\n      dup2\n      mload\n      dup2\n      lt\n      tag_121\n      jumpi\n      tag_121\n      tag_122\n      jump\t// in\n    tag_121:\n      0x20\n      swap1\n      dup2\n      mul\n      swap2\n      swap1\n      swap2\n      add\n      add\n        /* \"@openzeppelin/contracts/token/ERC1155/ERC1155.sol\":2953:3040  batchBalances[i] = balanceOf(accounts.unsafeMemoryAccess(i), ids.unsafeMemoryAccess(i)) */\n      mstore\n        /* \"@openzeppelin/contracts/token/ERC1155/ERC1155.sol\":2934:2937  ++i */\n      0x01\n      add\n        /* \"@openzeppelin/contracts/token/ERC1155/ERC1155.sol\":2893:3051  for (uint256 i = 0; i < accounts.length; ++i) {... */\n      jump(tag_112)\n    tag_113:\n      pop\n        /* \"@openzeppelin/contracts/token/ERC1155/ERC1155.sol\":3068:3081  batchBalances */\n      swap4\n        /* \"@openzeppelin/contracts/token/ERC1155/ERC1155.sol\":2536:3088  function balanceOfBatch(... */\n      swap3\n      pop\n      pop\n      pop\n      jump\t// out\n        /* \"NFT Tokens/Tk9.sol\":643:859  function burnTokens(uint id, uint amount) public {... */\n    tag_57:\n        /* \"NFT Tokens/Tk9.sol\":739:745  amount */\n      dup1\n        /* \"NFT Tokens/Tk9.sol\":710:735  balanceOf(msg.sender, id) */\n      tag_124\n        /* \"NFT Tokens/Tk9.sol\":720:730  msg.sender */\n      caller\n        /* \"NFT Tokens/Tk9.sol\":732:734  id */\n      dup5\n        /* \"NFT Tokens/Tk9.sol\":710:719  balanceOf */\n      tag_21\n        /* \"NFT Tokens/Tk9.sol\":710:735  balanceOf(msg.sender, id) */\n      jump\t// in\n    tag_124:\n        /* \"NFT Tokens/Tk9.sol\":710:745  balanceOf(msg.sender, id) >= amount */\n      lt\n      iszero\n        /* \"NFT Tokens/Tk9.sol\":702:778  require(balanceOf(msg.sender, id) >= amount, \"Insufficient balance to burn\") */\n      tag_125\n      jumpi\n      mload(0x40)\n      shl(0xe5, 0x461bcd)\n      dup2\n      mstore\n        /* \"#utility.yul\":9968:9970   */\n      0x20\n        /* \"NFT Tokens/Tk9.sol\":702:778  require(balanceOf(msg.sender, id) >= amount, \"Insufficient balance to burn\") */\n      0x04\n      dup3\n      add\n        /* \"#utility.yul\":9950:9971   */\n      mstore\n        /* \"#utility.yul\":10007:10009   */\n      0x1c\n        /* \"#utility.yul\":9987:10005   */\n      0x24\n      dup3\n      add\n        /* \"#utility.yul\":9980:10010   */\n      mstore\n        /* \"#utility.yul\":10046:10076   */\n      0x496e73756666696369656e742062616c616e636520746f206275726e00000000\n        /* \"#utility.yul\":10026:10044   */\n      0x44\n      dup3\n      add\n        /* \"#utility.yul\":10019:10077   */\n      mstore\n        /* \"#utility.yul\":10094:10112   */\n      0x64\n      add\n        /* \"NFT Tokens/Tk9.sol\":702:778  require(balanceOf(msg.sender, id) >= amount, \"Insufficient balance to burn\") */\n      tag_101\n        /* \"#utility.yul\":9766:10118   */\n      jump\n        /* \"NFT Tokens/Tk9.sol\":702:778  require(balanceOf(msg.sender, id) >= amount, \"Insufficient balance to burn\") */\n    tag_125:\n        /* \"NFT Tokens/Tk9.sol\":788:817  _burn(msg.sender, id, amount) */\n      tag_128\n        /* \"NFT Tokens/Tk9.sol\":794:804  msg.sender */\n      caller\n        /* \"NFT Tokens/Tk9.sol\":806:808  id */\n      dup4\n        /* \"NFT Tokens/Tk9.sol\":810:816  amount */\n      dup4\n        /* \"NFT Tokens/Tk9.sol\":788:793  _burn */\n      tag_129\n        /* \"NFT Tokens/Tk9.sol\":788:817  _burn(msg.sender, id, amount) */\n      jump\t// in\n    tag_128:\n        /* \"NFT Tokens/Tk9.sol\":827:842  totalSupply[id] */\n      0x00\n      dup3\n      dup2\n      mstore\n        /* \"NFT Tokens/Tk9.sol\":827:838  totalSupply */\n      0x03\n        /* \"NFT Tokens/Tk9.sol\":827:842  totalSupply[id] */\n      0x20\n      mstore\n      0x40\n      dup2\n      keccak256\n        /* \"NFT Tokens/Tk9.sol\":827:852  totalSupply[id] -= amount */\n      dup1\n      sload\n        /* \"NFT Tokens/Tk9.sol\":846:852  amount */\n      dup4\n      swap3\n        /* \"NFT Tokens/Tk9.sol\":827:842  totalSupply[id] */\n      swap1\n        /* \"NFT Tokens/Tk9.sol\":827:852  totalSupply[id] -= amount */\n      tag_130\n      swap1\n        /* \"NFT Tokens/Tk9.sol\":846:852  amount */\n      dup5\n      swap1\n        /* \"NFT Tokens/Tk9.sol\":827:852  totalSupply[id] -= amount */\n      tag_131\n      jump\t// in\n    tag_130:\n      swap1\n      swap2\n      sstore\n      pop\n      pop\n      pop\n      pop\n        /* \"NFT Tokens/Tk9.sol\":643:859  function burnTokens(uint id, uint amount) public {... */\n      jump\t// out\n        /* \"NFT Tokens/Tk9.sol\":260:459  function addTokenType(uint initialSupply) public {... */\n    tag_60:\n        /* \"NFT Tokens/Tk9.sol\":334:345  totalSupply */\n      0x03\n        /* \"NFT Tokens/Tk9.sol\":334:348  totalSupply[0] */\n      0x20\n      swap1\n      dup2\n      mstore\n      sload(0x3617319a054d772f909f7c479a2cebe5066e836a939412e32403c99029b92eff)\n        /* \"NFT Tokens/Tk9.sol\":319:331  uint tokenId */\n      0x00\n        /* \"NFT Tokens/Tk9.sol\":358:378  totalSupply[tokenId] */\n      dup2\n      dup2\n      mstore\n        /* \"NFT Tokens/Tk9.sol\":334:348  totalSupply[0] */\n      0x40\n        /* \"NFT Tokens/Tk9.sol\":358:378  totalSupply[tokenId] */\n      dup1\n      dup3\n      keccak256\n        /* \"NFT Tokens/Tk9.sol\":358:394  totalSupply[tokenId] = initialSupply */\n      dup6\n      swap1\n      sstore\n        /* \"NFT Tokens/Tk9.sol\":404:452  _mint(address(this), tokenId, initialSupply, \"\") */\n      dup1\n      mload\n      swap4\n      dup5\n      add\n      swap1\n      mstore\n      dup3\n      mstore\n        /* \"NFT Tokens/Tk9.sol\":334:348  totalSupply[0] */\n      swap1\n        /* \"NFT Tokens/Tk9.sol\":404:452  _mint(address(this), tokenId, initialSupply, \"\") */\n      tag_133\n      swap1\n        /* \"NFT Tokens/Tk9.sol\":418:422  this */\n      address\n      swap1\n        /* \"NFT Tokens/Tk9.sol\":334:348  totalSupply[0] */\n      dup4\n      swap1\n        /* \"NFT Tokens/Tk9.sol\":381:394  initialSupply */\n      dup6\n      swap1\n        /* \"NFT Tokens/Tk9.sol\":404:409  _mint */\n      tag_134\n        /* \"NFT Tokens/Tk9.sol\":404:452  _mint(address(this), tokenId, initialSupply, \"\") */\n      jump\t// in\n    tag_133:\n        /* \"NFT Tokens/Tk9.sol\":309:459  {... */\n      pop\n        /* \"NFT Tokens/Tk9.sol\":260:459  function addTokenType(uint initialSupply) public {... */\n      pop\n      jump\t// out\n        /* \"@openzeppelin/contracts/token/ERC1155/ERC1155.sol\":3156:3300  function setApprovalForAll(address operator, bool approved) public virtual {... */\n    tag_64:\n        /* \"@openzeppelin/contracts/token/ERC1155/ERC1155.sol\":3241:3293  _setApprovalForAll(_msgSender(), operator, approved) */\n      tag_133\n        /* \"@openzeppelin/contracts/utils/Context.sol\":735:745  msg.sender */\n      caller\n        /* \"@openzeppelin/contracts/token/ERC1155/ERC1155.sol\":3274:3282  operator */\n      dup4\n        /* \"@openzeppelin/contracts/token/ERC1155/ERC1155.sol\":3284:3292  approved */\n      dup4\n        /* \"@openzeppelin/contracts/token/ERC1155/ERC1155.sol\":3241:3259  _setApprovalForAll */\n      tag_138\n        /* \"@openzeppelin/contracts/token/ERC1155/ERC1155.sol\":3241:3293  _setApprovalForAll(_msgSender(), operator, approved) */\n      jump\t// in\n        /* \"@openzeppelin/contracts/token/ERC1155/ERC1155.sol\":3367:3524  function isApprovedForAll(address account, address operator) public view virtual returns (bool) {... */\n    tag_72:\n      sub(shl(0xa0, 0x01), 0x01)\n        /* \"@openzeppelin/contracts/token/ERC1155/ERC1155.sol\":3480:3507  _operatorApprovals[account] */\n      swap2\n      dup3\n      and\n        /* \"@openzeppelin/contracts/token/ERC1155/ERC1155.sol\":3457:3461  bool */\n      0x00\n        /* \"@openzeppelin/contracts/token/ERC1155/ERC1155.sol\":3480:3507  _operatorApprovals[account] */\n      swap1\n      dup2\n      mstore\n        /* \"@openzeppelin/contracts/token/ERC1155/ERC1155.sol\":3480:3498  _operatorApprovals */\n      0x01\n        /* \"@openzeppelin/contracts/token/ERC1155/ERC1155.sol\":3480:3507  _operatorApprovals[account] */\n      0x20\n      swap1\n      dup2\n      mstore\n      0x40\n      dup1\n      dup4\n      keccak256\n        /* \"@openzeppelin/contracts/token/ERC1155/ERC1155.sol\":3480:3517  _operatorApprovals[account][operator] */\n      swap4\n      swap1\n      swap5\n      and\n      dup3\n      mstore\n      swap2\n      swap1\n      swap2\n      mstore\n      keccak256\n      sload\n      0xff\n      and\n      swap1\n        /* \"@openzeppelin/contracts/token/ERC1155/ERC1155.sol\":3367:3524  function isApprovedForAll(address account, address operator) public view virtual returns (bool) {... */\n      jump\t// out\n        /* \"@openzeppelin/contracts/token/ERC1155/ERC1155.sol\":3591:3942  function safeTransferFrom(address from, address to, uint256 id, uint256 value, bytes memory data) public virtual {... */\n    tag_77:\n        /* \"@openzeppelin/contracts/utils/Context.sol\":735:745  msg.sender */\n      caller\n      sub(shl(0xa0, 0x01), 0x01)\n        /* \"@openzeppelin/contracts/token/ERC1155/ERC1155.sol\":3757:3771  from != sender */\n      dup7\n      and\n      dup2\n      eq\n      dup1\n      iszero\n      swap1\n        /* \"@openzeppelin/contracts/token/ERC1155/ERC1155.sol\":3757:3806  from != sender && !isApprovedForAll(from, sender) */\n      tag_142\n      jumpi\n      pop\n        /* \"@openzeppelin/contracts/token/ERC1155/ERC1155.sol\":3776:3806  isApprovedForAll(from, sender) */\n      tag_143\n        /* \"@openzeppelin/contracts/token/ERC1155/ERC1155.sol\":3793:3797  from */\n      dup7\n        /* \"@openzeppelin/contracts/token/ERC1155/ERC1155.sol\":3799:3805  sender */\n      dup3\n        /* \"@openzeppelin/contracts/token/ERC1155/ERC1155.sol\":3776:3792  isApprovedForAll */\n      tag_72\n        /* \"@openzeppelin/contracts/token/ERC1155/ERC1155.sol\":3776:3806  isApprovedForAll(from, sender) */\n      jump\t// in\n    tag_143:\n        /* \"@openzeppelin/contracts/token/ERC1155/ERC1155.sol\":3775:3806  !isApprovedForAll(from, sender) */\n      iszero\n        /* \"@openzeppelin/contracts/token/ERC1155/ERC1155.sol\":3757:3806  from != sender && !isApprovedForAll(from, sender) */\n    tag_142:\n        /* \"@openzeppelin/contracts/token/ERC1155/ERC1155.sol\":3753:3882  if (from != sender && !isApprovedForAll(from, sender)) {... */\n      iszero\n      tag_144\n      jumpi\n        /* \"@openzeppelin/contracts/token/ERC1155/ERC1155.sol\":3829:3871  ERC1155MissingApprovalForAll(sender, from) */\n      mload(0x40)\n      shl(0xe1, 0x711bec91)\n      dup2\n      mstore\n      sub(shl(0xa0, 0x01), 0x01)\n        /* \"#utility.yul\":9302:9317   */\n      dup1\n      dup4\n      and\n        /* \"@openzeppelin/contracts/token/ERC1155/ERC1155.sol\":3829:3871  ERC1155MissingApprovalForAll(sender, from) */\n      0x04\n      dup4\n      add\n        /* \"#utility.yul\":9284:9318   */\n      mstore\n        /* \"#utility.yul\":9354:9369   */\n      dup8\n      and\n        /* \"#utility.yul\":9334:9352   */\n      0x24\n      dup3\n      add\n        /* \"#utility.yul\":9327:9370   */\n      mstore\n        /* \"#utility.yul\":9219:9237   */\n      0x44\n      add\n        /* \"@openzeppelin/contracts/token/ERC1155/ERC1155.sol\":3829:3871  ERC1155MissingApprovalForAll(sender, from) */\n      tag_101\n        /* \"#utility.yul\":9072:9376   */\n      jump\n        /* \"@openzeppelin/contracts/token/ERC1155/ERC1155.sol\":3753:3882  if (from != sender && !isApprovedForAll(from, sender)) {... */\n    tag_144:\n        /* \"@openzeppelin/contracts/token/ERC1155/ERC1155.sol\":3891:3935  _safeTransferFrom(from, to, id, value, data) */\n      tag_103\n        /* \"@openzeppelin/contracts/token/ERC1155/ERC1155.sol\":3909:3913  from */\n      dup7\n        /* \"@openzeppelin/contracts/token/ERC1155/ERC1155.sol\":3915:3917  to */\n      dup7\n        /* \"@openzeppelin/contracts/token/ERC1155/ERC1155.sol\":3919:3921  id */\n      dup7\n        /* \"@openzeppelin/contracts/token/ERC1155/ERC1155.sol\":3923:3928  value */\n      dup7\n        /* \"@openzeppelin/contracts/token/ERC1155/ERC1155.sol\":3930:3934  data */\n      dup7\n        /* \"@openzeppelin/contracts/token/ERC1155/ERC1155.sol\":3891:3908  _safeTransferFrom */\n      tag_147\n        /* \"@openzeppelin/contracts/token/ERC1155/ERC1155.sol\":3891:3935  _safeTransferFrom(from, to, id, value, data) */\n      jump\t// in\n        /* \"@openzeppelin/contracts/token/ERC1155/ERC1155.sol\":9015:9460  function _safeBatchTransferFrom(... */\n    tag_93:\n      sub(shl(0xa0, 0x01), 0x01)\n        /* \"@openzeppelin/contracts/token/ERC1155/ERC1155.sol\":9208:9224  to == address(0) */\n      dup5\n      and\n        /* \"@openzeppelin/contracts/token/ERC1155/ERC1155.sol\":9204:9292  if (to == address(0)) {... */\n      tag_150\n      jumpi\n        /* \"@openzeppelin/contracts/token/ERC1155/ERC1155.sol\":9247:9281  ERC1155InvalidReceiver(address(0)) */\n      mload(0x40)\n      shl(0xe1, 0x2bfa23e7)\n      dup2\n      mstore\n        /* \"@openzeppelin/contracts/token/ERC1155/ERC1155.sol\":9278:9279  0 */\n      0x00\n        /* \"@openzeppelin/contracts/token/ERC1155/ERC1155.sol\":9247:9281  ERC1155InvalidReceiver(address(0)) */\n      0x04\n      dup3\n      add\n        /* \"#utility.yul\":10534:10585   */\n      mstore\n        /* \"#utility.yul\":10507:10525   */\n      0x24\n      add\n        /* \"@openzeppelin/contracts/token/ERC1155/ERC1155.sol\":9247:9281  ERC1155InvalidReceiver(address(0)) */\n      tag_101\n        /* \"#utility.yul\":10388:10591   */\n      jump\n        /* \"@openzeppelin/contracts/token/ERC1155/ERC1155.sol\":9204:9292  if (to == address(0)) {... */\n    tag_150:\n      sub(shl(0xa0, 0x01), 0x01)\n        /* \"@openzeppelin/contracts/token/ERC1155/ERC1155.sol\":9305:9323  from == address(0) */\n      dup6\n      and\n        /* \"@openzeppelin/contracts/token/ERC1155/ERC1155.sol\":9301:9389  if (from == address(0)) {... */\n      tag_153\n      jumpi\n        /* \"@openzeppelin/contracts/token/ERC1155/ERC1155.sol\":9346:9378  ERC1155InvalidSender(address(0)) */\n      mload(0x40)\n      shl(0xe2, 0x6a0d45)\n      dup2\n      mstore\n        /* \"@openzeppelin/contracts/token/ERC1155/ERC1155.sol\":9375:9376  0 */\n      0x00\n        /* \"@openzeppelin/contracts/token/ERC1155/ERC1155.sol\":9346:9378  ERC1155InvalidSender(address(0)) */\n      0x04\n      dup3\n      add\n        /* \"#utility.yul\":10534:10585   */\n      mstore\n        /* \"#utility.yul\":10507:10525   */\n      0x24\n      add\n        /* \"@openzeppelin/contracts/token/ERC1155/ERC1155.sol\":9346:9378  ERC1155InvalidSender(address(0)) */\n      tag_101\n        /* \"#utility.yul\":10388:10591   */\n      jump\n        /* \"@openzeppelin/contracts/token/ERC1155/ERC1155.sol\":9301:9389  if (from == address(0)) {... */\n    tag_153:\n        /* \"@openzeppelin/contracts/token/ERC1155/ERC1155.sol\":9398:9453  _updateWithAcceptanceCheck(from, to, ids, values, data) */\n      tag_155\n        /* \"@openzeppelin/contracts/token/ERC1155/ERC1155.sol\":9425:9429  from */\n      dup6\n        /* \"@openzeppelin/contracts/token/ERC1155/ERC1155.sol\":9431:9433  to */\n      dup6\n        /* \"@openzeppelin/contracts/token/ERC1155/ERC1155.sol\":9435:9438  ids */\n      dup6\n        /* \"@openzeppelin/contracts/token/ERC1155/ERC1155.sol\":9440:9446  values */\n      dup6\n        /* \"@openzeppelin/contracts/token/ERC1155/ERC1155.sol\":9448:9452  data */\n      dup6\n        /* \"@openzeppelin/contracts/token/ERC1155/ERC1155.sol\":9398:9424  _updateWithAcceptanceCheck */\n      tag_156\n        /* \"@openzeppelin/contracts/token/ERC1155/ERC1155.sol\":9398:9453  _updateWithAcceptanceCheck(from, to, ids, values, data) */\n      jump\t// in\n    tag_155:\n        /* \"@openzeppelin/contracts/token/ERC1155/ERC1155.sol\":9015:9460  function _safeBatchTransferFrom(... */\n      pop\n      pop\n      pop\n      pop\n      pop\n      jump\t// out\n        /* \"@openzeppelin/contracts/token/ERC1155/ERC1155.sol\":12099:12428  function _burn(address from, uint256 id, uint256 value) internal {... */\n    tag_129:\n      sub(shl(0xa0, 0x01), 0x01)\n        /* \"@openzeppelin/contracts/token/ERC1155/ERC1155.sol\":12178:12196  from == address(0) */\n      dup4\n      and\n        /* \"@openzeppelin/contracts/token/ERC1155/ERC1155.sol\":12174:12262  if (from == address(0)) {... */\n      tag_161\n      jumpi\n        /* \"@openzeppelin/contracts/token/ERC1155/ERC1155.sol\":12219:12251  ERC1155InvalidSender(address(0)) */\n      mload(0x40)\n      shl(0xe2, 0x6a0d45)\n      dup2\n      mstore\n        /* \"@openzeppelin/contracts/token/ERC1155/ERC1155.sol\":12248:12249  0 */\n      0x00\n        /* \"@openzeppelin/contracts/token/ERC1155/ERC1155.sol\":12219:12251  ERC1155InvalidSender(address(0)) */\n      0x04\n      dup3\n      add\n        /* \"#utility.yul\":10534:10585   */\n      mstore\n        /* \"#utility.yul\":10507:10525   */\n      0x24\n      add\n        /* \"@openzeppelin/contracts/token/ERC1155/ERC1155.sol\":12219:12251  ERC1155InvalidSender(address(0)) */\n      tag_101\n        /* \"#utility.yul\":10388:10591   */\n      jump\n        /* \"@openzeppelin/contracts/token/ERC1155/ERC1155.sol\":12174:12262  if (from == address(0)) {... */\n    tag_161:\n        /* \"@openzeppelin/contracts/token/ERC1155/ERC1155.sol\":16374:16378  0x40 */\n      0x40\n        /* \"@openzeppelin/contracts/token/ERC1155/ERC1155.sol\":16368:16379  mload(0x40) */\n      dup1\n      mload\n        /* \"@openzeppelin/contracts/token/ERC1155/ERC1155.sol\":16444:16445  1 */\n      0x01\n        /* \"@openzeppelin/contracts/token/ERC1155/ERC1155.sol\":16429:16446  mstore(array1, 1) */\n      dup1\n      dup3\n      mstore\n        /* \"@openzeppelin/contracts/token/ERC1155/ERC1155.sol\":16575:16579  0x20 */\n      0x20\n        /* \"@openzeppelin/contracts/token/ERC1155/ERC1155.sol\":16563:16580  add(array1, 0x20) */\n      dup3\n      add\n        /* \"@openzeppelin/contracts/token/ERC1155/ERC1155.sol\":16556:16591  mstore(add(array1, 0x20), element1) */\n      dup6\n      swap1\n      mstore\n        /* \"@openzeppelin/contracts/token/ERC1155/ERC1155.sol\":16692:16709  add(array1, 0x40) */\n      dup2\n      dup4\n      add\n        /* \"@openzeppelin/contracts/token/ERC1155/ERC1155.sol\":16722:16739  mstore(array2, 1) */\n      swap1\n      dup2\n      mstore\n        /* \"@openzeppelin/contracts/token/ERC1155/ERC1155.sol\":16188:16211  uint256[] memory array1 */\n      0x60\n        /* \"@openzeppelin/contracts/token/ERC1155/ERC1155.sol\":16759:16776  add(array2, 0x20) */\n      dup3\n      add\n        /* \"@openzeppelin/contracts/token/ERC1155/ERC1155.sol\":16752:16787  mstore(add(array2, 0x20), element2) */\n      dup5\n      swap1\n      mstore\n        /* \"@openzeppelin/contracts/token/ERC1155/ERC1155.sol\":12360:12421  _updateWithAcceptanceCheck(from, address(0), ids, values, \"\") */\n      0xa0\n      dup3\n      add\n      swap1\n      swap3\n      mstore\n      0x00\n        /* \"@openzeppelin/contracts/token/ERC1155/ERC1155.sol\":16895:16912  add(array2, 0x40) */\n      0x80\n      dup3\n      add\n        /* \"@openzeppelin/contracts/token/ERC1155/ERC1155.sol\":12360:12421  _updateWithAcceptanceCheck(from, address(0), ids, values, \"\") */\n      dup2\n      dup2\n      mstore\n        /* \"@openzeppelin/contracts/token/ERC1155/ERC1155.sol\":16368:16379  mload(0x40) */\n      swap2\n      swap3\n        /* \"@openzeppelin/contracts/token/ERC1155/ERC1155.sol\":16692:16709  add(array1, 0x40) */\n      swap2\n        /* \"@openzeppelin/contracts/token/ERC1155/ERC1155.sol\":12360:12421  _updateWithAcceptanceCheck(from, address(0), ids, values, \"\") */\n      tag_155\n      swap2\n        /* \"@openzeppelin/contracts/token/ERC1155/ERC1155.sol\":12387:12391  from */\n      dup8\n      swap2\n        /* \"@openzeppelin/contracts/token/ERC1155/ERC1155.sol\":16368:16379  mload(0x40) */\n      dup6\n      swap1\n        /* \"@openzeppelin/contracts/token/ERC1155/ERC1155.sol\":16692:16709  add(array1, 0x40) */\n      dup6\n      swap1\n        /* \"@openzeppelin/contracts/token/ERC1155/ERC1155.sol\":12360:12386  _updateWithAcceptanceCheck */\n      tag_156\n        /* \"@openzeppelin/contracts/token/ERC1155/ERC1155.sol\":12360:12421  _updateWithAcceptanceCheck(from, address(0), ids, values, \"\") */\n      jump\t// in\n        /* \"@openzeppelin/contracts/token/ERC1155/ERC1155.sol\":10746:11092  function _mint(address to, uint256 id, uint256 value, bytes memory data) internal {... */\n    tag_134:\n      sub(shl(0xa0, 0x01), 0x01)\n        /* \"@openzeppelin/contracts/token/ERC1155/ERC1155.sol\":10842:10858  to == address(0) */\n      dup5\n      and\n        /* \"@openzeppelin/contracts/token/ERC1155/ERC1155.sol\":10838:10926  if (to == address(0)) {... */\n      tag_167\n      jumpi\n        /* \"@openzeppelin/contracts/token/ERC1155/ERC1155.sol\":10881:10915  ERC1155InvalidReceiver(address(0)) */\n      mload(0x40)\n      shl(0xe1, 0x2bfa23e7)\n      dup2\n      mstore\n        /* \"@openzeppelin/contracts/token/ERC1155/ERC1155.sol\":10912:10913  0 */\n      0x00\n        /* \"@openzeppelin/contracts/token/ERC1155/ERC1155.sol\":10881:10915  ERC1155InvalidReceiver(address(0)) */\n      0x04\n      dup3\n      add\n        /* \"#utility.yul\":10534:10585   */\n      mstore\n        /* \"#utility.yul\":10507:10525   */\n      0x24\n      add\n        /* \"@openzeppelin/contracts/token/ERC1155/ERC1155.sol\":10881:10915  ERC1155InvalidReceiver(address(0)) */\n      tag_101\n        /* \"#utility.yul\":10388:10591   */\n      jump\n        /* \"@openzeppelin/contracts/token/ERC1155/ERC1155.sol\":10838:10926  if (to == address(0)) {... */\n    tag_167:\n        /* \"@openzeppelin/contracts/token/ERC1155/ERC1155.sol\":16374:16378  0x40 */\n      0x40\n        /* \"@openzeppelin/contracts/token/ERC1155/ERC1155.sol\":16368:16379  mload(0x40) */\n      dup1\n      mload\n        /* \"@openzeppelin/contracts/token/ERC1155/ERC1155.sol\":16444:16445  1 */\n      0x01\n        /* \"@openzeppelin/contracts/token/ERC1155/ERC1155.sol\":16429:16446  mstore(array1, 1) */\n      dup1\n      dup3\n      mstore\n        /* \"@openzeppelin/contracts/token/ERC1155/ERC1155.sol\":16575:16579  0x20 */\n      0x20\n        /* \"@openzeppelin/contracts/token/ERC1155/ERC1155.sol\":16563:16580  add(array1, 0x20) */\n      dup3\n      add\n        /* \"@openzeppelin/contracts/token/ERC1155/ERC1155.sol\":16556:16591  mstore(add(array1, 0x20), element1) */\n      dup7\n      swap1\n      mstore\n        /* \"@openzeppelin/contracts/token/ERC1155/ERC1155.sol\":16692:16709  add(array1, 0x40) */\n      dup2\n      dup4\n      add\n        /* \"@openzeppelin/contracts/token/ERC1155/ERC1155.sol\":16722:16739  mstore(array2, 1) */\n      swap1\n      dup2\n      mstore\n        /* \"@openzeppelin/contracts/token/ERC1155/ERC1155.sol\":16188:16211  uint256[] memory array1 */\n      0x60\n        /* \"@openzeppelin/contracts/token/ERC1155/ERC1155.sol\":16759:16776  add(array2, 0x20) */\n      dup3\n      add\n        /* \"@openzeppelin/contracts/token/ERC1155/ERC1155.sol\":16752:16787  mstore(add(array2, 0x20), element2) */\n      dup6\n      swap1\n      mstore\n        /* \"@openzeppelin/contracts/token/ERC1155/ERC1155.sol\":16895:16912  add(array2, 0x40) */\n      0x80\n      dup3\n      add\n        /* \"@openzeppelin/contracts/token/ERC1155/ERC1155.sol\":16882:16913  mstore(0x40, add(array2, 0x40)) */\n      swap1\n      swap3\n      mstore\n        /* \"@openzeppelin/contracts/token/ERC1155/ERC1155.sol\":16368:16379  mload(0x40) */\n      swap1\n        /* \"@openzeppelin/contracts/token/ERC1155/ERC1155.sol\":11024:11085  _updateWithAcceptanceCheck(address(0), to, ids, values, data) */\n      tag_103\n      0x00\n        /* \"@openzeppelin/contracts/token/ERC1155/ERC1155.sol\":11063:11065  to */\n      dup8\n        /* \"@openzeppelin/contracts/token/ERC1155/ERC1155.sol\":16368:16379  mload(0x40) */\n      dup5\n        /* \"@openzeppelin/contracts/token/ERC1155/ERC1155.sol\":16692:16709  add(array1, 0x40) */\n      dup5\n        /* \"@openzeppelin/contracts/token/ERC1155/ERC1155.sol\":11080:11084  data */\n      dup8\n        /* \"@openzeppelin/contracts/token/ERC1155/ERC1155.sol\":11024:11050  _updateWithAcceptanceCheck */\n      tag_156\n        /* \"@openzeppelin/contracts/token/ERC1155/ERC1155.sol\":11024:11085  _updateWithAcceptanceCheck(address(0), to, ids, values, data) */\n      jump\t// in\n        /* \"@openzeppelin/contracts/token/ERC1155/ERC1155.sol\":13268:13583  function _setApprovalForAll(address owner, address operator, bool approved) internal virtual {... */\n    tag_138:\n      sub(shl(0xa0, 0x01), 0x01)\n        /* \"@openzeppelin/contracts/token/ERC1155/ERC1155.sol\":13375:13397  operator == address(0) */\n      dup3\n      and\n        /* \"@openzeppelin/contracts/token/ERC1155/ERC1155.sol\":13371:13465  if (operator == address(0)) {... */\n      tag_172\n      jumpi\n        /* \"@openzeppelin/contracts/token/ERC1155/ERC1155.sol\":13420:13454  ERC1155InvalidOperator(address(0)) */\n      mload(0x40)\n      shl(0xe8, 0xced3e1)\n      dup2\n      mstore\n        /* \"@openzeppelin/contracts/token/ERC1155/ERC1155.sol\":13451:13452  0 */\n      0x00\n        /* \"@openzeppelin/contracts/token/ERC1155/ERC1155.sol\":13420:13454  ERC1155InvalidOperator(address(0)) */\n      0x04\n      dup3\n      add\n        /* \"#utility.yul\":10534:10585   */\n      mstore\n        /* \"#utility.yul\":10507:10525   */\n      0x24\n      add\n        /* \"@openzeppelin/contracts/token/ERC1155/ERC1155.sol\":13420:13454  ERC1155InvalidOperator(address(0)) */\n      tag_101\n        /* \"#utility.yul\":10388:10591   */\n      jump\n        /* \"@openzeppelin/contracts/token/ERC1155/ERC1155.sol\":13371:13465  if (operator == address(0)) {... */\n    tag_172:\n      sub(shl(0xa0, 0x01), 0x01)\n        /* \"@openzeppelin/contracts/token/ERC1155/ERC1155.sol\":13474:13499  _operatorApprovals[owner] */\n      dup4\n      dup2\n      and\n      0x00\n      dup2\n      dup2\n      mstore\n        /* \"@openzeppelin/contracts/token/ERC1155/ERC1155.sol\":13474:13492  _operatorApprovals */\n      0x01\n        /* \"@openzeppelin/contracts/token/ERC1155/ERC1155.sol\":13474:13499  _operatorApprovals[owner] */\n      0x20\n      swap1\n      dup2\n      mstore\n      0x40\n      dup1\n      dup4\n      keccak256\n        /* \"@openzeppelin/contracts/token/ERC1155/ERC1155.sol\":13474:13509  _operatorApprovals[owner][operator] */\n      swap5\n      dup8\n      and\n      dup1\n      dup5\n      mstore\n      swap5\n      dup3\n      mstore\n      swap2\n      dup3\n      swap1\n      keccak256\n        /* \"@openzeppelin/contracts/token/ERC1155/ERC1155.sol\":13474:13520  _operatorApprovals[owner][operator] = approved */\n      dup1\n      sload\n      not(0xff)\n      and\n      dup7\n      iszero\n      iszero\n      swap1\n      dup2\n      or\n      swap1\n      swap2\n      sstore\n        /* \"@openzeppelin/contracts/token/ERC1155/ERC1155.sol\":13535:13576  ApprovalForAll(owner, operator, approved) */\n      swap2\n      mload\n        /* \"#utility.yul\":1159:1200   */\n      swap2\n      dup3\n      mstore\n        /* \"@openzeppelin/contracts/token/ERC1155/ERC1155.sol\":13535:13576  ApprovalForAll(owner, operator, approved) */\n      0x17307eab39ab6107e8899845ad3d59bd9653f200f220920489ca2b5937696c31\n      swap2\n        /* \"#utility.yul\":1132:1150   */\n      add\n        /* \"@openzeppelin/contracts/token/ERC1155/ERC1155.sol\":13535:13576  ApprovalForAll(owner, operator, approved) */\n      mload(0x40)\n      dup1\n      swap2\n      sub\n      swap1\n      log3\n        /* \"@openzeppelin/contracts/token/ERC1155/ERC1155.sol\":13268:13583  function _setApprovalForAll(address owner, address operator, bool approved) internal virtual {... */\n      pop\n      pop\n      pop\n      jump\t// out\n        /* \"@openzeppelin/contracts/token/ERC1155/ERC1155.sol\":8151:8614  function _safeTransferFrom(address from, address to, uint256 id, uint256 value, bytes memory data) internal {... */\n    tag_147:\n      sub(shl(0xa0, 0x01), 0x01)\n        /* \"@openzeppelin/contracts/token/ERC1155/ERC1155.sol\":8273:8289  to == address(0) */\n      dup5\n      and\n        /* \"@openzeppelin/contracts/token/ERC1155/ERC1155.sol\":8269:8357  if (to == address(0)) {... */\n      tag_176\n      jumpi\n        /* \"@openzeppelin/contracts/token/ERC1155/ERC1155.sol\":8312:8346  ERC1155InvalidReceiver(address(0)) */\n      mload(0x40)\n      shl(0xe1, 0x2bfa23e7)\n      dup2\n      mstore\n        /* \"@openzeppelin/contracts/token/ERC1155/ERC1155.sol\":8343:8344  0 */\n      0x00\n        /* \"@openzeppelin/contracts/token/ERC1155/ERC1155.sol\":8312:8346  ERC1155InvalidReceiver(address(0)) */\n      0x04\n      dup3\n      add\n        /* \"#utility.yul\":10534:10585   */\n      mstore\n        /* \"#utility.yul\":10507:10525   */\n      0x24\n      add\n        /* \"@openzeppelin/contracts/token/ERC1155/ERC1155.sol\":8312:8346  ERC1155InvalidReceiver(address(0)) */\n      tag_101\n        /* \"#utility.yul\":10388:10591   */\n      jump\n        /* \"@openzeppelin/contracts/token/ERC1155/ERC1155.sol\":8269:8357  if (to == address(0)) {... */\n    tag_176:\n      sub(shl(0xa0, 0x01), 0x01)\n        /* \"@openzeppelin/contracts/token/ERC1155/ERC1155.sol\":8370:8388  from == address(0) */\n      dup6\n      and\n        /* \"@openzeppelin/contracts/token/ERC1155/ERC1155.sol\":8366:8454  if (from == address(0)) {... */\n      tag_178\n      jumpi\n        /* \"@openzeppelin/contracts/token/ERC1155/ERC1155.sol\":8411:8443  ERC1155InvalidSender(address(0)) */\n      mload(0x40)\n      shl(0xe2, 0x6a0d45)\n      dup2\n      mstore\n        /* \"@openzeppelin/contracts/token/ERC1155/ERC1155.sol\":8440:8441  0 */\n      0x00\n        /* \"@openzeppelin/contracts/token/ERC1155/ERC1155.sol\":8411:8443  ERC1155InvalidSender(address(0)) */\n      0x04\n      dup3\n      add\n        /* \"#utility.yul\":10534:10585   */\n      mstore\n        /* \"#utility.yul\":10507:10525   */\n      0x24\n      add\n        /* \"@openzeppelin/contracts/token/ERC1155/ERC1155.sol\":8411:8443  ERC1155InvalidSender(address(0)) */\n      tag_101\n        /* \"#utility.yul\":10388:10591   */\n      jump\n        /* \"@openzeppelin/contracts/token/ERC1155/ERC1155.sol\":8366:8454  if (from == address(0)) {... */\n    tag_178:\n        /* \"@openzeppelin/contracts/token/ERC1155/ERC1155.sol\":16374:16378  0x40 */\n      0x40\n        /* \"@openzeppelin/contracts/token/ERC1155/ERC1155.sol\":16368:16379  mload(0x40) */\n      dup1\n      mload\n        /* \"@openzeppelin/contracts/token/ERC1155/ERC1155.sol\":16444:16445  1 */\n      0x01\n        /* \"@openzeppelin/contracts/token/ERC1155/ERC1155.sol\":16429:16446  mstore(array1, 1) */\n      dup1\n      dup3\n      mstore\n        /* \"@openzeppelin/contracts/token/ERC1155/ERC1155.sol\":16575:16579  0x20 */\n      0x20\n        /* \"@openzeppelin/contracts/token/ERC1155/ERC1155.sol\":16563:16580  add(array1, 0x20) */\n      dup3\n      add\n        /* \"@openzeppelin/contracts/token/ERC1155/ERC1155.sol\":16556:16591  mstore(add(array1, 0x20), element1) */\n      dup7\n      swap1\n      mstore\n        /* \"@openzeppelin/contracts/token/ERC1155/ERC1155.sol\":16692:16709  add(array1, 0x40) */\n      dup2\n      dup4\n      add\n        /* \"@openzeppelin/contracts/token/ERC1155/ERC1155.sol\":16722:16739  mstore(array2, 1) */\n      swap1\n      dup2\n      mstore\n        /* \"@openzeppelin/contracts/token/ERC1155/ERC1155.sol\":16188:16211  uint256[] memory array1 */\n      0x60\n        /* \"@openzeppelin/contracts/token/ERC1155/ERC1155.sol\":16759:16776  add(array2, 0x20) */\n      dup3\n      add\n        /* \"@openzeppelin/contracts/token/ERC1155/ERC1155.sol\":16752:16787  mstore(add(array2, 0x20), element2) */\n      dup6\n      swap1\n      mstore\n        /* \"@openzeppelin/contracts/token/ERC1155/ERC1155.sol\":16895:16912  add(array2, 0x40) */\n      0x80\n      dup3\n      add\n        /* \"@openzeppelin/contracts/token/ERC1155/ERC1155.sol\":16882:16913  mstore(0x40, add(array2, 0x40)) */\n      swap1\n      swap3\n      mstore\n        /* \"@openzeppelin/contracts/token/ERC1155/ERC1155.sol\":16368:16379  mload(0x40) */\n      swap1\n        /* \"@openzeppelin/contracts/token/ERC1155/ERC1155.sol\":8552:8607  _updateWithAcceptanceCheck(from, to, ids, values, data) */\n      tag_181\n        /* \"@openzeppelin/contracts/token/ERC1155/ERC1155.sol\":8579:8583  from */\n      dup8\n        /* \"@openzeppelin/contracts/token/ERC1155/ERC1155.sol\":8585:8587  to */\n      dup8\n        /* \"@openzeppelin/contracts/token/ERC1155/ERC1155.sol\":16368:16379  mload(0x40) */\n      dup5\n        /* \"@openzeppelin/contracts/token/ERC1155/ERC1155.sol\":16692:16709  add(array1, 0x40) */\n      dup5\n        /* \"@openzeppelin/contracts/token/ERC1155/ERC1155.sol\":8602:8606  data */\n      dup8\n        /* \"@openzeppelin/contracts/token/ERC1155/ERC1155.sol\":8552:8578  _updateWithAcceptanceCheck */\n      tag_156\n        /* \"@openzeppelin/contracts/token/ERC1155/ERC1155.sol\":8552:8607  _updateWithAcceptanceCheck(from, to, ids, values, data) */\n      jump\t// in\n    tag_181:\n        /* \"@openzeppelin/contracts/token/ERC1155/ERC1155.sol\":8259:8614  {... */\n      pop\n      pop\n        /* \"@openzeppelin/contracts/token/ERC1155/ERC1155.sol\":8151:8614  function _safeTransferFrom(address from, address to, uint256 id, uint256 value, bytes memory data) internal {... */\n      pop\n      pop\n      pop\n      pop\n      pop\n      jump\t// out\n        /* \"@openzeppelin/contracts/token/ERC1155/ERC1155.sol\":7004:7694  function _updateWithAcceptanceCheck(... */\n    tag_156:\n        /* \"@openzeppelin/contracts/token/ERC1155/ERC1155.sol\":7205:7235  _update(from, to, ids, values) */\n      tag_183\n        /* \"@openzeppelin/contracts/token/ERC1155/ERC1155.sol\":7213:7217  from */\n      dup6\n        /* \"@openzeppelin/contracts/token/ERC1155/ERC1155.sol\":7219:7221  to */\n      dup6\n        /* \"@openzeppelin/contracts/token/ERC1155/ERC1155.sol\":7223:7226  ids */\n      dup6\n        /* \"@openzeppelin/contracts/token/ERC1155/ERC1155.sol\":7228:7234  values */\n      dup6\n        /* \"@openzeppelin/contracts/token/ERC1155/ERC1155.sol\":7205:7212  _update */\n      tag_184\n        /* \"@openzeppelin/contracts/token/ERC1155/ERC1155.sol\":7205:7235  _update(from, to, ids, values) */\n      jump\t// in\n    tag_183:\n      sub(shl(0xa0, 0x01), 0x01)\n        /* \"@openzeppelin/contracts/token/ERC1155/ERC1155.sol\":7249:7265  to != address(0) */\n      dup5\n      and\n      iszero\n        /* \"@openzeppelin/contracts/token/ERC1155/ERC1155.sol\":7245:7688  if (to != address(0)) {... */\n      tag_155\n      jumpi\n        /* \"@openzeppelin/contracts/token/ERC1155/ERC1155.sol\":7330:7340  ids.length */\n      dup3\n      mload\n        /* \"@openzeppelin/contracts/utils/Context.sol\":735:745  msg.sender */\n      caller\n      swap1\n        /* \"@openzeppelin/contracts/token/ERC1155/ERC1155.sol\":7344:7345  1 */\n      0x01\n        /* \"@openzeppelin/contracts/token/ERC1155/ERC1155.sol\":7330:7345  ids.length == 1 */\n      sub\n        /* \"@openzeppelin/contracts/token/ERC1155/ERC1155.sol\":7326:7678  if (ids.length == 1) {... */\n      tag_187\n      jumpi\n        /* \"@openzeppelin/contracts/utils/Arrays.sol\":4777:4781  0x20 */\n      0x20\n        /* \"@openzeppelin/contracts/utils/Arrays.sol\":4748:4783  add(add(arr, 0x20), mul(pos, 0x20)) */\n      dup5\n      dup2\n      add\n        /* \"@openzeppelin/contracts/utils/Arrays.sol\":4742:4784  mload(add(add(arr, 0x20), mul(pos, 0x20))) */\n      mload\n        /* \"@openzeppelin/contracts/utils/Arrays.sol\":4748:4783  add(add(arr, 0x20), mul(pos, 0x20)) */\n      swap1\n      dup5\n      add\n        /* \"@openzeppelin/contracts/utils/Arrays.sol\":4742:4784  mload(add(add(arr, 0x20), mul(pos, 0x20))) */\n      mload\n        /* \"@openzeppelin/contracts/token/ERC1155/ERC1155.sol\":7483:7550  _doSafeTransferAcceptanceCheck(operator, from, to, id, value, data) */\n      tag_190\n        /* \"@openzeppelin/contracts/token/ERC1155/ERC1155.sol\":7514:7522  operator */\n      dup4\n        /* \"@openzeppelin/contracts/token/ERC1155/ERC1155.sol\":7524:7528  from */\n      dup10\n        /* \"@openzeppelin/contracts/token/ERC1155/ERC1155.sol\":7530:7532  to */\n      dup10\n        /* \"@openzeppelin/contracts/utils/Arrays.sol\":4742:4784  mload(add(add(arr, 0x20), mul(pos, 0x20))) */\n      dup6\n      dup6\n        /* \"@openzeppelin/contracts/token/ERC1155/ERC1155.sol\":7545:7549  data */\n      dup10\n        /* \"@openzeppelin/contracts/token/ERC1155/ERC1155.sol\":7483:7513  _doSafeTransferAcceptanceCheck */\n      tag_191\n        /* \"@openzeppelin/contracts/token/ERC1155/ERC1155.sol\":7483:7550  _doSafeTransferAcceptanceCheck(operator, from, to, id, value, data) */\n      jump\t// in\n    tag_190:\n        /* \"@openzeppelin/contracts/token/ERC1155/ERC1155.sol\":7347:7565  {... */\n      pop\n      pop\n        /* \"@openzeppelin/contracts/token/ERC1155/ERC1155.sol\":7326:7678  if (ids.length == 1) {... */\n      jump(tag_103)\n    tag_187:\n        /* \"@openzeppelin/contracts/token/ERC1155/ERC1155.sol\":7589:7663  _doSafeBatchTransferAcceptanceCheck(operator, from, to, ids, values, data) */\n      tag_103\n        /* \"@openzeppelin/contracts/token/ERC1155/ERC1155.sol\":7625:7633  operator */\n      dup2\n        /* \"@openzeppelin/contracts/token/ERC1155/ERC1155.sol\":7635:7639  from */\n      dup8\n        /* \"@openzeppelin/contracts/token/ERC1155/ERC1155.sol\":7641:7643  to */\n      dup8\n        /* \"@openzeppelin/contracts/token/ERC1155/ERC1155.sol\":7645:7648  ids */\n      dup8\n        /* \"@openzeppelin/contracts/token/ERC1155/ERC1155.sol\":7650:7656  values */\n      dup8\n        /* \"@openzeppelin/contracts/token/ERC1155/ERC1155.sol\":7658:7662  data */\n      dup8\n        /* \"@openzeppelin/contracts/token/ERC1155/ERC1155.sol\":7589:7624  _doSafeBatchTransferAcceptanceCheck */\n      tag_194\n        /* \"@openzeppelin/contracts/token/ERC1155/ERC1155.sol\":7589:7663  _doSafeBatchTransferAcceptanceCheck(operator, from, to, ids, values, data) */\n      jump\t// in\n        /* \"@openzeppelin/contracts/token/ERC1155/ERC1155.sol\":5144:6425  function _update(address from, address to, uint256[] memory ids, uint256[] memory values) internal virtual {... */\n    tag_184:\n        /* \"@openzeppelin/contracts/token/ERC1155/ERC1155.sol\":5279:5285  values */\n      dup1\n        /* \"@openzeppelin/contracts/token/ERC1155/ERC1155.sol\":5279:5292  values.length */\n      mload\n        /* \"@openzeppelin/contracts/token/ERC1155/ERC1155.sol\":5265:5268  ids */\n      dup3\n        /* \"@openzeppelin/contracts/token/ERC1155/ERC1155.sol\":5265:5275  ids.length */\n      mload\n        /* \"@openzeppelin/contracts/token/ERC1155/ERC1155.sol\":5265:5292  ids.length != values.length */\n      eq\n        /* \"@openzeppelin/contracts/token/ERC1155/ERC1155.sol\":5261:5378  if (ids.length != values.length) {... */\n      tag_197\n      jumpi\n        /* \"@openzeppelin/contracts/token/ERC1155/ERC1155.sol\":5341:5351  ids.length */\n      dup2\n      mload\n        /* \"@openzeppelin/contracts/token/ERC1155/ERC1155.sol\":5353:5366  values.length */\n      dup2\n      mload\n        /* \"@openzeppelin/contracts/token/ERC1155/ERC1155.sol\":5315:5367  ERC1155InvalidArrayLength(ids.length, values.length) */\n      mload(0x40)\n      shl(0xe0, 0x5b059991)\n      dup2\n      mstore\n      0x04\n      dup2\n      add\n        /* \"#utility.yul\":9555:9580   */\n      swap3\n      swap1\n      swap3\n      mstore\n        /* \"#utility.yul\":9596:9614   */\n      0x24\n      dup3\n      add\n        /* \"#utility.yul\":9589:9623   */\n      mstore\n        /* \"#utility.yul\":9528:9546   */\n      0x44\n      add\n        /* \"@openzeppelin/contracts/token/ERC1155/ERC1155.sol\":5315:5367  ERC1155InvalidArrayLength(ids.length, values.length) */\n      tag_101\n        /* \"#utility.yul\":9381:9629   */\n      jump\n        /* \"@openzeppelin/contracts/token/ERC1155/ERC1155.sol\":5261:5378  if (ids.length != values.length) {... */\n    tag_197:\n        /* \"@openzeppelin/contracts/utils/Context.sol\":735:745  msg.sender */\n      caller\n        /* \"@openzeppelin/contracts/token/ERC1155/ERC1155.sol\":5388:5404  address operator */\n      0x00\n        /* \"@openzeppelin/contracts/token/ERC1155/ERC1155.sol\":5430:6121  for (uint256 i = 0; i < ids.length; ++i) {... */\n    tag_200:\n        /* \"@openzeppelin/contracts/token/ERC1155/ERC1155.sol\":5454:5457  ids */\n      dup4\n        /* \"@openzeppelin/contracts/token/ERC1155/ERC1155.sol\":5454:5464  ids.length */\n      mload\n        /* \"@openzeppelin/contracts/token/ERC1155/ERC1155.sol\":5450:5451  i */\n      dup2\n        /* \"@openzeppelin/contracts/token/ERC1155/ERC1155.sol\":5450:5464  i < ids.length */\n      lt\n        /* \"@openzeppelin/contracts/token/ERC1155/ERC1155.sol\":5430:6121  for (uint256 i = 0; i < ids.length; ++i) {... */\n      iszero\n      tag_201\n      jumpi\n        /* \"@openzeppelin/contracts/utils/Arrays.sol\":4777:4781  0x20 */\n      0x20\n        /* \"@openzeppelin/contracts/utils/Arrays.sol\":4768:4782  mul(pos, 0x20) */\n      dup2\n      dup2\n      mul\n        /* \"@openzeppelin/contracts/utils/Arrays.sol\":4748:4783  add(add(arr, 0x20), mul(pos, 0x20)) */\n      dup6\n      dup2\n      add\n      dup3\n      add\n        /* \"@openzeppelin/contracts/utils/Arrays.sol\":4742:4784  mload(add(add(arr, 0x20), mul(pos, 0x20))) */\n      mload\n        /* \"@openzeppelin/contracts/utils/Arrays.sol\":4748:4783  add(add(arr, 0x20), mul(pos, 0x20)) */\n      swap1\n      dup6\n      add\n      swap1\n      swap2\n      add\n        /* \"@openzeppelin/contracts/utils/Arrays.sol\":4742:4784  mload(add(add(arr, 0x20), mul(pos, 0x20))) */\n      mload\n      sub(shl(0xa0, 0x01), 0x01)\n        /* \"@openzeppelin/contracts/token/ERC1155/ERC1155.sol\":5600:5618  from != address(0) */\n      dup9\n      and\n      iszero\n        /* \"@openzeppelin/contracts/token/ERC1155/ERC1155.sol\":5596:6016  if (from != address(0)) {... */\n      tag_205\n      jumpi\n        /* \"@openzeppelin/contracts/token/ERC1155/ERC1155.sol\":5638:5657  uint256 fromBalance */\n      0x00\n        /* \"@openzeppelin/contracts/token/ERC1155/ERC1155.sol\":5660:5673  _balances[id] */\n      dup3\n      dup2\n      mstore\n      0x20\n      dup2\n      dup2\n      mstore\n      0x40\n      dup1\n      dup4\n      keccak256\n      sub(shl(0xa0, 0x01), 0x01)\n        /* \"@openzeppelin/contracts/token/ERC1155/ERC1155.sol\":5660:5679  _balances[id][from] */\n      dup13\n      and\n      dup5\n      mstore\n      swap1\n      swap2\n      mstore\n      swap1\n      keccak256\n      sload\n        /* \"@openzeppelin/contracts/token/ERC1155/ERC1155.sol\":5701:5720  fromBalance < value */\n      dup2\n      dup2\n      lt\n        /* \"@openzeppelin/contracts/token/ERC1155/ERC1155.sol\":5697:5826  if (fromBalance < value) {... */\n      iszero\n      tag_206\n      jumpi\n        /* \"@openzeppelin/contracts/token/ERC1155/ERC1155.sol\":5751:5807  ERC1155InsufficientBalance(from, fromBalance, value, id) */\n      mload(0x40)\n      shl(0xe0, 0x03dee4c5)\n      dup2\n      mstore\n      sub(shl(0xa0, 0x01), 0x01)\n        /* \"#utility.yul\":10845:10877   */\n      dup11\n      and\n        /* \"@openzeppelin/contracts/token/ERC1155/ERC1155.sol\":5751:5807  ERC1155InsufficientBalance(from, fromBalance, value, id) */\n      0x04\n      dup3\n      add\n        /* \"#utility.yul\":10827:10878   */\n      mstore\n        /* \"#utility.yul\":10894:10912   */\n      0x24\n      dup2\n      add\n        /* \"#utility.yul\":10887:10921   */\n      dup3\n      swap1\n      mstore\n        /* \"#utility.yul\":10937:10955   */\n      0x44\n      dup2\n      add\n        /* \"#utility.yul\":10930:10964   */\n      dup4\n      swap1\n      mstore\n        /* \"#utility.yul\":10980:10998   */\n      0x64\n      dup2\n      add\n        /* \"#utility.yul\":10973:11007   */\n      dup5\n      swap1\n      mstore\n        /* \"#utility.yul\":10799:10818   */\n      0x84\n      add\n        /* \"@openzeppelin/contracts/token/ERC1155/ERC1155.sol\":5751:5807  ERC1155InsufficientBalance(from, fromBalance, value, id) */\n      tag_101\n        /* \"#utility.yul\":10596:11013   */\n      jump\n        /* \"@openzeppelin/contracts/token/ERC1155/ERC1155.sol\":5697:5826  if (fromBalance < value) {... */\n    tag_206:\n        /* \"@openzeppelin/contracts/token/ERC1155/ERC1155.sol\":5942:5951  _balances */\n      0x00\n        /* \"@openzeppelin/contracts/token/ERC1155/ERC1155.sol\":5942:5955  _balances[id] */\n      dup4\n      dup2\n      mstore\n      0x20\n      dup2\n      dup2\n      mstore\n      0x40\n      dup1\n      dup4\n      keccak256\n      sub(shl(0xa0, 0x01), 0x01)\n        /* \"@openzeppelin/contracts/token/ERC1155/ERC1155.sol\":5942:5961  _balances[id][from] */\n      dup14\n      and\n      dup5\n      mstore\n      swap1\n      swap2\n      mstore\n      swap1\n      keccak256\n        /* \"@openzeppelin/contracts/token/ERC1155/ERC1155.sol\":5964:5983  fromBalance - value */\n      swap1\n      dup3\n      swap1\n      sub\n        /* \"@openzeppelin/contracts/token/ERC1155/ERC1155.sol\":5942:5983  _balances[id][from] = fromBalance - value */\n      swap1\n      sstore\n        /* \"@openzeppelin/contracts/token/ERC1155/ERC1155.sol\":5596:6016  if (from != address(0)) {... */\n    tag_205:\n      sub(shl(0xa0, 0x01), 0x01)\n        /* \"@openzeppelin/contracts/token/ERC1155/ERC1155.sol\":6034:6050  to != address(0) */\n      dup8\n      and\n      iszero\n        /* \"@openzeppelin/contracts/token/ERC1155/ERC1155.sol\":6030:6111  if (to != address(0)) {... */\n      tag_209\n      jumpi\n        /* \"@openzeppelin/contracts/token/ERC1155/ERC1155.sol\":6070:6079  _balances */\n      0x00\n        /* \"@openzeppelin/contracts/token/ERC1155/ERC1155.sol\":6070:6083  _balances[id] */\n      dup3\n      dup2\n      mstore\n      0x20\n      dup2\n      dup2\n      mstore\n      0x40\n      dup1\n      dup4\n      keccak256\n      sub(shl(0xa0, 0x01), 0x01)\n        /* \"@openzeppelin/contracts/token/ERC1155/ERC1155.sol\":6070:6087  _balances[id][to] */\n      dup12\n      and\n      dup5\n      mstore\n      swap1\n      swap2\n      mstore\n      dup2\n      keccak256\n        /* \"@openzeppelin/contracts/token/ERC1155/ERC1155.sol\":6070:6096  _balances[id][to] += value */\n      dup1\n      sload\n        /* \"@openzeppelin/contracts/token/ERC1155/ERC1155.sol\":6091:6096  value */\n      dup4\n      swap3\n        /* \"@openzeppelin/contracts/token/ERC1155/ERC1155.sol\":6070:6079  _balances */\n      swap1\n        /* \"@openzeppelin/contracts/token/ERC1155/ERC1155.sol\":6070:6096  _balances[id][to] += value */\n      tag_210\n      swap1\n        /* \"@openzeppelin/contracts/token/ERC1155/ERC1155.sol\":6091:6096  value */\n      dup5\n      swap1\n        /* \"@openzeppelin/contracts/token/ERC1155/ERC1155.sol\":6070:6096  _balances[id][to] += value */\n      tag_211\n      jump\t// in\n    tag_210:\n      swap1\n      swap2\n      sstore\n      pop\n      pop\n        /* \"@openzeppelin/contracts/token/ERC1155/ERC1155.sol\":6030:6111  if (to != address(0)) {... */\n    tag_209:\n      pop\n      pop\n        /* \"@openzeppelin/contracts/token/ERC1155/ERC1155.sol\":5466:5469  ++i */\n      0x01\n      add\n        /* \"@openzeppelin/contracts/token/ERC1155/ERC1155.sol\":5430:6121  for (uint256 i = 0; i < ids.length; ++i) {... */\n      jump(tag_200)\n    tag_201:\n      pop\n        /* \"@openzeppelin/contracts/token/ERC1155/ERC1155.sol\":6135:6138  ids */\n      dup3\n        /* \"@openzeppelin/contracts/token/ERC1155/ERC1155.sol\":6135:6145  ids.length */\n      mload\n        /* \"@openzeppelin/contracts/token/ERC1155/ERC1155.sol\":6149:6150  1 */\n      0x01\n        /* \"@openzeppelin/contracts/token/ERC1155/ERC1155.sol\":6135:6150  ids.length == 1 */\n      sub\n        /* \"@openzeppelin/contracts/token/ERC1155/ERC1155.sol\":6131:6419  if (ids.length == 1) {... */\n      tag_212\n      jumpi\n        /* \"@openzeppelin/contracts/utils/Arrays.sol\":4777:4781  0x20 */\n      0x20\n        /* \"@openzeppelin/contracts/utils/Arrays.sol\":4748:4783  add(add(arr, 0x20), mul(pos, 0x20)) */\n      dup4\n      add\n        /* \"@openzeppelin/contracts/utils/Arrays.sol\":4742:4784  mload(add(add(arr, 0x20), mul(pos, 0x20))) */\n      mload\n        /* \"@openzeppelin/contracts/token/ERC1155/ERC1155.sol\":6166:6176  uint256 id */\n      0x00\n      swap1\n        /* \"@openzeppelin/contracts/utils/Arrays.sol\":4777:4781  0x20 */\n      0x20\n        /* \"@openzeppelin/contracts/utils/Arrays.sol\":4748:4783  add(add(arr, 0x20), mul(pos, 0x20)) */\n      dup5\n      add\n        /* \"@openzeppelin/contracts/utils/Arrays.sol\":4742:4784  mload(add(add(arr, 0x20), mul(pos, 0x20))) */\n      mload\n        /* \"@openzeppelin/contracts/token/ERC1155/ERC1155.sol\":6166:6204  uint256 id = ids.unsafeMemoryAccess(0) */\n      swap1\n      swap2\n      pop\n        /* \"@openzeppelin/contracts/token/ERC1155/ERC1155.sol\":6312:6314  to */\n      dup6\n      sub(shl(0xa0, 0x01), 0x01)\n        /* \"@openzeppelin/contracts/token/ERC1155/ERC1155.sol\":6281:6326  TransferSingle(operator, from, to, id, value) */\n      and\n        /* \"@openzeppelin/contracts/token/ERC1155/ERC1155.sol\":6306:6310  from */\n      dup8\n      sub(shl(0xa0, 0x01), 0x01)\n        /* \"@openzeppelin/contracts/token/ERC1155/ERC1155.sol\":6281:6326  TransferSingle(operator, from, to, id, value) */\n      and\n        /* \"@openzeppelin/contracts/token/ERC1155/ERC1155.sol\":6296:6304  operator */\n      dup5\n      sub(shl(0xa0, 0x01), 0x01)\n        /* \"@openzeppelin/contracts/token/ERC1155/ERC1155.sol\":6281:6326  TransferSingle(operator, from, to, id, value) */\n      and\n      0xc3d58168c5ae7397731d063d5bbf3d657854427343f4c083240f7aacaa2d0f62\n        /* \"@openzeppelin/contracts/token/ERC1155/ERC1155.sol\":6316:6318  id */\n      dup6\n        /* \"@openzeppelin/contracts/token/ERC1155/ERC1155.sol\":6320:6325  value */\n      dup6\n        /* \"@openzeppelin/contracts/token/ERC1155/ERC1155.sol\":6281:6326  TransferSingle(operator, from, to, id, value) */\n      mload(0x40)\n      tag_215\n      swap3\n      swap2\n      swap1\n        /* \"#utility.yul\":9555:9580   */\n      swap2\n      dup3\n      mstore\n        /* \"#utility.yul\":9611:9613   */\n      0x20\n        /* \"#utility.yul\":9596:9614   */\n      dup3\n      add\n        /* \"#utility.yul\":9589:9623   */\n      mstore\n        /* \"#utility.yul\":9543:9545   */\n      0x40\n        /* \"#utility.yul\":9528:9546   */\n      add\n      swap1\n        /* \"#utility.yul\":9381:9629   */\n      jump\n        /* \"@openzeppelin/contracts/token/ERC1155/ERC1155.sol\":6281:6326  TransferSingle(operator, from, to, id, value) */\n    tag_215:\n      mload(0x40)\n      dup1\n      swap2\n      sub\n      swap1\n      log4\n        /* \"@openzeppelin/contracts/token/ERC1155/ERC1155.sol\":6152:6337  {... */\n      pop\n      pop\n        /* \"@openzeppelin/contracts/token/ERC1155/ERC1155.sol\":6131:6419  if (ids.length == 1) {... */\n      jump(tag_155)\n    tag_212:\n        /* \"@openzeppelin/contracts/token/ERC1155/ERC1155.sol\":6392:6394  to */\n      dup4\n      sub(shl(0xa0, 0x01), 0x01)\n        /* \"@openzeppelin/contracts/token/ERC1155/ERC1155.sol\":6362:6408  TransferBatch(operator, from, to, ids, values) */\n      and\n        /* \"@openzeppelin/contracts/token/ERC1155/ERC1155.sol\":6386:6390  from */\n      dup6\n      sub(shl(0xa0, 0x01), 0x01)\n        /* \"@openzeppelin/contracts/token/ERC1155/ERC1155.sol\":6362:6408  TransferBatch(operator, from, to, ids, values) */\n      and\n        /* \"@openzeppelin/contracts/token/ERC1155/ERC1155.sol\":6376:6384  operator */\n      dup3\n      sub(shl(0xa0, 0x01), 0x01)\n        /* \"@openzeppelin/contracts/token/ERC1155/ERC1155.sol\":6362:6408  TransferBatch(operator, from, to, ids, values) */\n      and\n      0x4a39dc06d4c0dbc64b70af90fd698a233a518aa5d07e595d983b8c0526c8f7fb\n        /* \"@openzeppelin/contracts/token/ERC1155/ERC1155.sol\":6396:6399  ids */\n      dup7\n        /* \"@openzeppelin/contracts/token/ERC1155/ERC1155.sol\":6401:6407  values */\n      dup7\n        /* \"@openzeppelin/contracts/token/ERC1155/ERC1155.sol\":6362:6408  TransferBatch(operator, from, to, ids, values) */\n      mload(0x40)\n      tag_217\n      swap3\n      swap2\n      swap1\n      tag_218\n      jump\t// in\n    tag_217:\n      mload(0x40)\n      dup1\n      swap2\n      sub\n      swap1\n      log4\n        /* \"@openzeppelin/contracts/token/ERC1155/ERC1155.sol\":5251:6425  {... */\n      pop\n        /* \"@openzeppelin/contracts/token/ERC1155/ERC1155.sol\":5144:6425  function _update(address from, address to, uint256[] memory ids, uint256[] memory values) internal virtual {... */\n      pop\n      pop\n      pop\n      pop\n      jump\t// out\n        /* \"@openzeppelin/contracts/token/ERC1155/ERC1155.sol\":13761:14735  function _doSafeTransferAcceptanceCheck(... */\n    tag_191:\n      sub(shl(0xa0, 0x01), 0x01)\n        /* \"@openzeppelin/contracts/token/ERC1155/ERC1155.sol\":13967:13981  to.code.length */\n      dup5\n      and\n      extcodesize\n        /* \"@openzeppelin/contracts/token/ERC1155/ERC1155.sol\":13967:13985  to.code.length > 0 */\n      iszero\n        /* \"@openzeppelin/contracts/token/ERC1155/ERC1155.sol\":13963:14729  if (to.code.length > 0) {... */\n      tag_103\n      jumpi\n        /* \"@openzeppelin/contracts/token/ERC1155/ERC1155.sol\":14005:14076  IERC1155Receiver(to).onERC1155Received(operator, from, id, value, data) */\n      mload(0x40)\n      shl(0xe0, 0xf23a6e61)\n      dup2\n      mstore\n      sub(shl(0xa0, 0x01), 0x01)\n        /* \"@openzeppelin/contracts/token/ERC1155/ERC1155.sol\":14005:14043  IERC1155Receiver(to).onERC1155Received */\n      dup6\n      and\n      swap1\n      0xf23a6e61\n      swap1\n        /* \"@openzeppelin/contracts/token/ERC1155/ERC1155.sol\":14005:14076  IERC1155Receiver(to).onERC1155Received(operator, from, id, value, data) */\n      tag_221\n      swap1\n        /* \"@openzeppelin/contracts/token/ERC1155/ERC1155.sol\":14044:14052  operator */\n      dup10\n      swap1\n        /* \"@openzeppelin/contracts/token/ERC1155/ERC1155.sol\":14054:14058  from */\n      dup10\n      swap1\n        /* \"@openzeppelin/contracts/token/ERC1155/ERC1155.sol\":14060:14062  id */\n      dup9\n      swap1\n        /* \"@openzeppelin/contracts/token/ERC1155/ERC1155.sol\":14064:14069  value */\n      dup9\n      swap1\n        /* \"@openzeppelin/contracts/token/ERC1155/ERC1155.sol\":14071:14075  data */\n      dup9\n      swap1\n        /* \"@openzeppelin/contracts/token/ERC1155/ERC1155.sol\":14005:14076  IERC1155Receiver(to).onERC1155Received(operator, from, id, value, data) */\n      0x04\n      add\n      tag_222\n      jump\t// in\n    tag_221:\n      0x20\n      mload(0x40)\n      dup1\n      dup4\n      sub\n      dup2\n      0x00\n      dup8\n      gas\n      call\n      swap3\n      pop\n      pop\n      pop\n      dup1\n      iszero\n      tag_223\n      jumpi\n      pop\n      0x40\n      dup1\n      mload\n      0x1f\n      returndatasize\n      swap1\n      dup2\n      add\n      not(0x1f)\n      and\n      dup3\n      add\n      swap1\n      swap3\n      mstore\n      tag_224\n      swap2\n      dup2\n      add\n      swap1\n      tag_225\n      jump\t// in\n    tag_224:\n      0x01\n    tag_223:\n        /* \"@openzeppelin/contracts/token/ERC1155/ERC1155.sol\":14001:14719  try IERC1155Receiver(to).onERC1155Received(operator, from, id, value, data) returns (bytes4 response) {... */\n      tag_226\n      jumpi\n      returndatasize\n      dup1\n      dup1\n      iszero\n      tag_231\n      jumpi\n      mload(0x40)\n      swap2\n      pop\n      and(add(returndatasize, 0x3f), not(0x1f))\n      dup3\n      add\n      0x40\n      mstore\n      returndatasize\n      dup3\n      mstore\n      returndatasize\n      0x00\n      0x20\n      dup5\n      add\n      returndatacopy\n      jump(tag_230)\n    tag_231:\n      0x60\n      swap2\n      pop\n    tag_230:\n      pop\n        /* \"@openzeppelin/contracts/token/ERC1155/ERC1155.sol\":14360:14366  reason */\n      dup1\n        /* \"@openzeppelin/contracts/token/ERC1155/ERC1155.sol\":14360:14373  reason.length */\n      mload\n        /* \"@openzeppelin/contracts/token/ERC1155/ERC1155.sol\":14377:14378  0 */\n      0x00\n        /* \"@openzeppelin/contracts/token/ERC1155/ERC1155.sol\":14360:14378  reason.length == 0 */\n      sub\n        /* \"@openzeppelin/contracts/token/ERC1155/ERC1155.sol\":14356:14705  if (reason.length == 0) {... */\n      tag_232\n      jumpi\n        /* \"@openzeppelin/contracts/token/ERC1155/ERC1155.sol\":14464:14490  ERC1155InvalidReceiver(to) */\n      mload(0x40)\n      shl(0xe1, 0x2bfa23e7)\n      dup2\n      mstore\n      sub(shl(0xa0, 0x01), 0x01)\n        /* \"#utility.yul\":10552:10584   */\n      dup7\n      and\n        /* \"@openzeppelin/contracts/token/ERC1155/ERC1155.sol\":14464:14490  ERC1155InvalidReceiver(to) */\n      0x04\n      dup3\n      add\n        /* \"#utility.yul\":10534:10585   */\n      mstore\n        /* \"#utility.yul\":10507:10525   */\n      0x24\n      add\n        /* \"@openzeppelin/contracts/token/ERC1155/ERC1155.sol\":14464:14490  ERC1155InvalidReceiver(to) */\n      tag_101\n        /* \"#utility.yul\":10388:10591   */\n      jump\n        /* \"@openzeppelin/contracts/token/ERC1155/ERC1155.sol\":14356:14705  if (reason.length == 0) {... */\n    tag_232:\n        /* \"@openzeppelin/contracts/token/ERC1155/ERC1155.sol\":14657:14663  reason */\n      dup1\n        /* \"@openzeppelin/contracts/token/ERC1155/ERC1155.sol\":14651:14664  mload(reason) */\n      mload\n        /* \"@openzeppelin/contracts/token/ERC1155/ERC1155.sol\":14642:14648  reason */\n      dup2\n        /* \"@openzeppelin/contracts/token/ERC1155/ERC1155.sol\":14638:14640  32 */\n      0x20\n        /* \"@openzeppelin/contracts/token/ERC1155/ERC1155.sol\":14634:14649  add(32, reason) */\n      add\n        /* \"@openzeppelin/contracts/token/ERC1155/ERC1155.sol\":14627:14665  revert(add(32, reason), mload(reason)) */\n      revert\n        /* \"@openzeppelin/contracts/token/ERC1155/ERC1155.sol\":14001:14719  try IERC1155Receiver(to).onERC1155Received(operator, from, id, value, data) returns (bytes4 response) {... */\n    tag_226:\n      not(sub(shl(0xe0, 0x01), 0x01))\n        /* \"@openzeppelin/contracts/token/ERC1155/ERC1155.sol\":14125:14180  response != IERC1155Receiver.onERC1155Received.selector */\n      dup2\n      and\n      shl(0xe0, 0xf23a6e61)\n      eq\n        /* \"@openzeppelin/contracts/token/ERC1155/ERC1155.sol\":14121:14295  if (response != IERC1155Receiver.onERC1155Received.selector) {... */\n      tag_181\n      jumpi\n        /* \"@openzeppelin/contracts/token/ERC1155/ERC1155.sol\":14250:14276  ERC1155InvalidReceiver(to) */\n      mload(0x40)\n      shl(0xe1, 0x2bfa23e7)\n      dup2\n      mstore\n      sub(shl(0xa0, 0x01), 0x01)\n        /* \"#utility.yul\":10552:10584   */\n      dup7\n      and\n        /* \"@openzeppelin/contracts/token/ERC1155/ERC1155.sol\":14250:14276  ERC1155InvalidReceiver(to) */\n      0x04\n      dup3\n      add\n        /* \"#utility.yul\":10534:10585   */\n      mstore\n        /* \"#utility.yul\":10507:10525   */\n      0x24\n      add\n        /* \"@openzeppelin/contracts/token/ERC1155/ERC1155.sol\":14250:14276  ERC1155InvalidReceiver(to) */\n      tag_101\n        /* \"#utility.yul\":10388:10591   */\n      jump\n        /* \"@openzeppelin/contracts/token/ERC1155/ERC1155.sol\":14923:15964  function _doSafeBatchTransferAcceptanceCheck(... */\n    tag_194:\n      sub(shl(0xa0, 0x01), 0x01)\n        /* \"@openzeppelin/contracts/token/ERC1155/ERC1155.sol\":15154:15168  to.code.length */\n      dup5\n      and\n      extcodesize\n        /* \"@openzeppelin/contracts/token/ERC1155/ERC1155.sol\":15154:15172  to.code.length > 0 */\n      iszero\n        /* \"@openzeppelin/contracts/token/ERC1155/ERC1155.sol\":15150:15958  if (to.code.length > 0) {... */\n      tag_103\n      jumpi\n        /* \"@openzeppelin/contracts/token/ERC1155/ERC1155.sol\":15192:15270  IERC1155Receiver(to).onERC1155BatchReceived(operator, from, ids, values, data) */\n      mload(0x40)\n      shl(0xe0, 0xbc197c81)\n      dup2\n      mstore\n      sub(shl(0xa0, 0x01), 0x01)\n        /* \"@openzeppelin/contracts/token/ERC1155/ERC1155.sol\":15192:15235  IERC1155Receiver(to).onERC1155BatchReceived */\n      dup6\n      and\n      swap1\n      0xbc197c81\n      swap1\n        /* \"@openzeppelin/contracts/token/ERC1155/ERC1155.sol\":15192:15270  IERC1155Receiver(to).onERC1155BatchReceived(operator, from, ids, values, data) */\n      tag_240\n      swap1\n        /* \"@openzeppelin/contracts/token/ERC1155/ERC1155.sol\":15236:15244  operator */\n      dup10\n      swap1\n        /* \"@openzeppelin/contracts/token/ERC1155/ERC1155.sol\":15246:15250  from */\n      dup10\n      swap1\n        /* \"@openzeppelin/contracts/token/ERC1155/ERC1155.sol\":15252:15255  ids */\n      dup9\n      swap1\n        /* \"@openzeppelin/contracts/token/ERC1155/ERC1155.sol\":15257:15263  values */\n      dup9\n      swap1\n        /* \"@openzeppelin/contracts/token/ERC1155/ERC1155.sol\":15265:15269  data */\n      dup9\n      swap1\n        /* \"@openzeppelin/contracts/token/ERC1155/ERC1155.sol\":15192:15270  IERC1155Receiver(to).onERC1155BatchReceived(operator, from, ids, values, data) */\n      0x04\n      add\n      tag_241\n      jump\t// in\n    tag_240:\n      0x20\n      mload(0x40)\n      dup1\n      dup4\n      sub\n      dup2\n      0x00\n      dup8\n      gas\n      call\n      swap3\n      pop\n      pop\n      pop\n      dup1\n      iszero\n      tag_242\n      jumpi\n      pop\n      0x40\n      dup1\n      mload\n      0x1f\n      returndatasize\n      swap1\n      dup2\n      add\n      not(0x1f)\n      and\n      dup3\n      add\n      swap1\n      swap3\n      mstore\n      tag_243\n      swap2\n      dup2\n      add\n      swap1\n      tag_225\n      jump\t// in\n    tag_243:\n      0x01\n    tag_242:\n        /* \"@openzeppelin/contracts/token/ERC1155/ERC1155.sol\":15188:15948  try IERC1155Receiver(to).onERC1155BatchReceived(operator, from, ids, values, data) returns (... */\n      tag_244\n      jumpi\n      returndatasize\n      dup1\n      dup1\n      iszero\n      tag_231\n      jumpi\n      mload(0x40)\n      swap2\n      pop\n      and(add(returndatasize, 0x3f), not(0x1f))\n      dup3\n      add\n      0x40\n      mstore\n      returndatasize\n      dup3\n      mstore\n      returndatasize\n      0x00\n      0x20\n      dup5\n      add\n      returndatacopy\n      jump(tag_230)\n    tag_244:\n      not(sub(shl(0xe0, 0x01), 0x01))\n        /* \"@openzeppelin/contracts/token/ERC1155/ERC1155.sol\":15349:15409  response != IERC1155Receiver.onERC1155BatchReceived.selector */\n      dup2\n      and\n      shl(0xe0, 0xbc197c81)\n      eq\n        /* \"@openzeppelin/contracts/token/ERC1155/ERC1155.sol\":15345:15524  if (response != IERC1155Receiver.onERC1155BatchReceived.selector) {... */\n      tag_181\n      jumpi\n        /* \"@openzeppelin/contracts/token/ERC1155/ERC1155.sol\":15479:15505  ERC1155InvalidReceiver(to) */\n      mload(0x40)\n      shl(0xe1, 0x2bfa23e7)\n      dup2\n      mstore\n      sub(shl(0xa0, 0x01), 0x01)\n        /* \"#utility.yul\":10552:10584   */\n      dup7\n      and\n        /* \"@openzeppelin/contracts/token/ERC1155/ERC1155.sol\":15479:15505  ERC1155InvalidReceiver(to) */\n      0x04\n      dup3\n      add\n        /* \"#utility.yul\":10534:10585   */\n      mstore\n        /* \"#utility.yul\":10507:10525   */\n      0x24\n      add\n        /* \"@openzeppelin/contracts/token/ERC1155/ERC1155.sol\":15479:15505  ERC1155InvalidReceiver(to) */\n      tag_101\n        /* \"#utility.yul\":10388:10591   */\n      jump\n        /* \"#utility.yul\":14:187   */\n    tag_256:\n        /* \"#utility.yul\":82:102   */\n      dup1\n      calldataload\n      sub(shl(0xa0, 0x01), 0x01)\n        /* \"#utility.yul\":131:162   */\n      dup2\n      and\n        /* \"#utility.yul\":121:163   */\n      dup2\n      eq\n        /* \"#utility.yul\":111:181   */\n      tag_267\n      jumpi\n        /* \"#utility.yul\":177:178   */\n      0x00\n        /* \"#utility.yul\":174:175   */\n      dup1\n        /* \"#utility.yul\":167:179   */\n      revert\n        /* \"#utility.yul\":111:181   */\n    tag_267:\n        /* \"#utility.yul\":14:187   */\n      swap2\n      swap1\n      pop\n      jump\t// out\n        /* \"#utility.yul\":192:446   */\n    tag_20:\n        /* \"#utility.yul\":260:266   */\n      0x00\n        /* \"#utility.yul\":268:274   */\n      dup1\n        /* \"#utility.yul\":321:323   */\n      0x40\n        /* \"#utility.yul\":309:318   */\n      dup4\n        /* \"#utility.yul\":300:307   */\n      dup6\n        /* \"#utility.yul\":296:319   */\n      sub\n        /* \"#utility.yul\":292:324   */\n      slt\n        /* \"#utility.yul\":289:341   */\n      iszero\n      tag_269\n      jumpi\n        /* \"#utility.yul\":337:338   */\n      0x00\n        /* \"#utility.yul\":334:335   */\n      dup1\n        /* \"#utility.yul\":327:339   */\n      revert\n        /* \"#utility.yul\":289:341   */\n    tag_269:\n        /* \"#utility.yul\":360:389   */\n      tag_270\n        /* \"#utility.yul\":379:388   */\n      dup4\n        /* \"#utility.yul\":360:389   */\n      tag_256\n      jump\t// in\n    tag_270:\n        /* \"#utility.yul\":350:389   */\n      swap5\n        /* \"#utility.yul\":436:438   */\n      0x20\n        /* \"#utility.yul\":421:439   */\n      swap4\n      swap1\n      swap4\n      add\n        /* \"#utility.yul\":408:440   */\n      calldataload\n      swap4\n      pop\n      pop\n      pop\n        /* \"#utility.yul\":192:446   */\n      jump\t// out\n        /* \"#utility.yul\":633:764   */\n    tag_257:\n      not(sub(shl(0xe0, 0x01), 0x01))\n        /* \"#utility.yul\":707:739   */\n      dup2\n      and\n        /* \"#utility.yul\":697:740   */\n      dup2\n      eq\n        /* \"#utility.yul\":687:758   */\n      tag_273\n      jumpi\n        /* \"#utility.yul\":754:755   */\n      0x00\n        /* \"#utility.yul\":751:752   */\n      dup1\n        /* \"#utility.yul\":744:756   */\n      revert\n        /* \"#utility.yul\":687:758   */\n    tag_273:\n        /* \"#utility.yul\":633:764   */\n      pop\n      jump\t// out\n        /* \"#utility.yul\":769:1014   */\n    tag_26:\n        /* \"#utility.yul\":827:833   */\n      0x00\n        /* \"#utility.yul\":880:882   */\n      0x20\n        /* \"#utility.yul\":868:877   */\n      dup3\n        /* \"#utility.yul\":859:866   */\n      dup5\n        /* \"#utility.yul\":855:878   */\n      sub\n        /* \"#utility.yul\":851:883   */\n      slt\n        /* \"#utility.yul\":848:900   */\n      iszero\n      tag_275\n      jumpi\n        /* \"#utility.yul\":896:897   */\n      0x00\n        /* \"#utility.yul\":893:894   */\n      dup1\n        /* \"#utility.yul\":886:898   */\n      revert\n        /* \"#utility.yul\":848:900   */\n    tag_275:\n        /* \"#utility.yul\":935:944   */\n      dup2\n        /* \"#utility.yul\":922:945   */\n      calldataload\n        /* \"#utility.yul\":954:984   */\n      tag_276\n        /* \"#utility.yul\":978:983   */\n      dup2\n        /* \"#utility.yul\":954:984   */\n      tag_257\n      jump\t// in\n    tag_276:\n        /* \"#utility.yul\":1003:1008   */\n      swap4\n        /* \"#utility.yul\":769:1014   */\n      swap3\n      pop\n      pop\n      pop\n      jump\t// out\n        /* \"#utility.yul\":1211:1391   */\n    tag_32:\n        /* \"#utility.yul\":1270:1276   */\n      0x00\n        /* \"#utility.yul\":1323:1325   */\n      0x20\n        /* \"#utility.yul\":1311:1320   */\n      dup3\n        /* \"#utility.yul\":1302:1309   */\n      dup5\n        /* \"#utility.yul\":1298:1321   */\n      sub\n        /* \"#utility.yul\":1294:1326   */\n      slt\n        /* \"#utility.yul\":1291:1343   */\n      iszero\n      tag_279\n      jumpi\n        /* \"#utility.yul\":1339:1340   */\n      0x00\n        /* \"#utility.yul\":1336:1337   */\n      dup1\n        /* \"#utility.yul\":1329:1341   */\n      revert\n        /* \"#utility.yul\":1291:1343   */\n    tag_279:\n      pop\n        /* \"#utility.yul\":1362:1385   */\n      calldataload\n      swap2\n        /* \"#utility.yul\":1211:1391   */\n      swap1\n      pop\n      jump\t// out\n        /* \"#utility.yul\":1396:1685   */\n    tag_258:\n        /* \"#utility.yul\":1438:1441   */\n      0x00\n        /* \"#utility.yul\":1476:1481   */\n      dup2\n        /* \"#utility.yul\":1470:1482   */\n      mload\n        /* \"#utility.yul\":1503:1509   */\n      dup1\n        /* \"#utility.yul\":1498:1501   */\n      dup5\n        /* \"#utility.yul\":1491:1510   */\n      mstore\n        /* \"#utility.yul\":1559:1565   */\n      dup1\n        /* \"#utility.yul\":1552:1556   */\n      0x20\n        /* \"#utility.yul\":1545:1550   */\n      dup5\n        /* \"#utility.yul\":1541:1557   */\n      add\n        /* \"#utility.yul\":1534:1538   */\n      0x20\n        /* \"#utility.yul\":1529:1532   */\n      dup7\n        /* \"#utility.yul\":1525:1539   */\n      add\n        /* \"#utility.yul\":1519:1566   */\n      mcopy\n        /* \"#utility.yul\":1611:1612   */\n      0x00\n        /* \"#utility.yul\":1604:1608   */\n      0x20\n        /* \"#utility.yul\":1595:1601   */\n      dup3\n        /* \"#utility.yul\":1590:1593   */\n      dup7\n        /* \"#utility.yul\":1586:1602   */\n      add\n        /* \"#utility.yul\":1582:1609   */\n      add\n        /* \"#utility.yul\":1575:1613   */\n      mstore\n        /* \"#utility.yul\":1674:1678   */\n      0x20\n        /* \"#utility.yul\":1667:1669   */\n      0x1f\n        /* \"#utility.yul\":1663:1670   */\n      not\n        /* \"#utility.yul\":1658:1660   */\n      0x1f\n        /* \"#utility.yul\":1650:1656   */\n      dup4\n        /* \"#utility.yul\":1646:1661   */\n      add\n        /* \"#utility.yul\":1642:1671   */\n      and\n        /* \"#utility.yul\":1637:1640   */\n      dup6\n        /* \"#utility.yul\":1633:1672   */\n      add\n        /* \"#utility.yul\":1629:1679   */\n      add\n        /* \"#utility.yul\":1622:1679   */\n      swap2\n      pop\n      pop\n        /* \"#utility.yul\":1396:1685   */\n      swap3\n      swap2\n      pop\n      pop\n      jump\t// out\n        /* \"#utility.yul\":1690:1910   */\n    tag_35:\n        /* \"#utility.yul\":1839:1841   */\n      0x20\n        /* \"#utility.yul\":1828:1837   */\n      dup2\n        /* \"#utility.yul\":1821:1842   */\n      mstore\n        /* \"#utility.yul\":1802:1806   */\n      0x00\n        /* \"#utility.yul\":1859:1904   */\n      tag_276\n        /* \"#utility.yul\":1900:1902   */\n      0x20\n        /* \"#utility.yul\":1889:1898   */\n      dup4\n        /* \"#utility.yul\":1885:1903   */\n      add\n        /* \"#utility.yul\":1877:1883   */\n      dup5\n        /* \"#utility.yul\":1859:1904   */\n      tag_258\n      jump\t// in\n        /* \"#utility.yul\":1915:2042   */\n    tag_110:\n        /* \"#utility.yul\":1976:1986   */\n      0x4e487b71\n        /* \"#utility.yul\":1971:1974   */\n      0xe0\n        /* \"#utility.yul\":1967:1987   */\n      shl\n        /* \"#utility.yul\":1964:1965   */\n      0x00\n        /* \"#utility.yul\":1957:1988   */\n      mstore\n        /* \"#utility.yul\":2007:2011   */\n      0x41\n        /* \"#utility.yul\":2004:2005   */\n      0x04\n        /* \"#utility.yul\":1997:2012   */\n      mstore\n        /* \"#utility.yul\":2031:2035   */\n      0x24\n        /* \"#utility.yul\":2028:2029   */\n      0x00\n        /* \"#utility.yul\":2021:2036   */\n      revert\n        /* \"#utility.yul\":2047:2322   */\n    tag_259:\n        /* \"#utility.yul\":2118:2120   */\n      0x40\n        /* \"#utility.yul\":2112:2121   */\n      mload\n        /* \"#utility.yul\":2183:2185   */\n      0x1f\n        /* \"#utility.yul\":2164:2177   */\n      dup3\n      add\n      not(0x1f)\n        /* \"#utility.yul\":2160:2187   */\n      and\n        /* \"#utility.yul\":2148:2188   */\n      dup2\n      add\n        /* \"#utility.yul\":2218:2236   */\n      0xffffffffffffffff\n        /* \"#utility.yul\":2203:2237   */\n      dup2\n      gt\n        /* \"#utility.yul\":2239:2261   */\n      dup3\n      dup3\n      lt\n        /* \"#utility.yul\":2200:2262   */\n      or\n        /* \"#utility.yul\":2197:2285   */\n      iszero\n      tag_286\n      jumpi\n        /* \"#utility.yul\":2265:2283   */\n      tag_286\n      tag_110\n      jump\t// in\n    tag_286:\n        /* \"#utility.yul\":2301:2303   */\n      0x40\n        /* \"#utility.yul\":2294:2316   */\n      mstore\n        /* \"#utility.yul\":2047:2322   */\n      swap2\n      swap1\n      pop\n      jump\t// out\n        /* \"#utility.yul\":2327:2510   */\n    tag_260:\n        /* \"#utility.yul\":2387:2391   */\n      0x00\n        /* \"#utility.yul\":2420:2438   */\n      0xffffffffffffffff\n        /* \"#utility.yul\":2412:2418   */\n      dup3\n        /* \"#utility.yul\":2409:2439   */\n      gt\n        /* \"#utility.yul\":2406:2462   */\n      iszero\n      tag_289\n      jumpi\n        /* \"#utility.yul\":2442:2460   */\n      tag_289\n      tag_110\n      jump\t// in\n    tag_289:\n      pop\n        /* \"#utility.yul\":2487:2488   */\n      0x05\n        /* \"#utility.yul\":2483:2497   */\n      shl\n        /* \"#utility.yul\":2499:2503   */\n      0x20\n        /* \"#utility.yul\":2479:2504   */\n      add\n      swap1\n        /* \"#utility.yul\":2327:2510   */\n      jump\t// out\n        /* \"#utility.yul\":2515:3183   */\n    tag_261:\n        /* \"#utility.yul\":2569:2574   */\n      0x00\n        /* \"#utility.yul\":2622:2625   */\n      dup3\n        /* \"#utility.yul\":2615:2619   */\n      0x1f\n        /* \"#utility.yul\":2607:2613   */\n      dup4\n        /* \"#utility.yul\":2603:2620   */\n      add\n        /* \"#utility.yul\":2599:2626   */\n      slt\n        /* \"#utility.yul\":2589:2644   */\n      tag_291\n      jumpi\n        /* \"#utility.yul\":2640:2641   */\n      0x00\n        /* \"#utility.yul\":2637:2638   */\n      dup1\n        /* \"#utility.yul\":2630:2642   */\n      revert\n        /* \"#utility.yul\":2589:2644   */\n    tag_291:\n        /* \"#utility.yul\":2676:2682   */\n      dup2\n        /* \"#utility.yul\":2663:2683   */\n      calldataload\n        /* \"#utility.yul\":2702:2706   */\n      0x20\n        /* \"#utility.yul\":2726:2786   */\n      tag_292\n        /* \"#utility.yul\":2742:2785   */\n      tag_293\n        /* \"#utility.yul\":2782:2784   */\n      dup4\n        /* \"#utility.yul\":2742:2785   */\n      tag_260\n      jump\t// in\n    tag_293:\n        /* \"#utility.yul\":2726:2786   */\n      tag_259\n      jump\t// in\n    tag_292:\n        /* \"#utility.yul\":2808:2811   */\n      dup1\n        /* \"#utility.yul\":2832:2834   */\n      dup4\n        /* \"#utility.yul\":2827:2830   */\n      dup3\n        /* \"#utility.yul\":2820:2835   */\n      mstore\n        /* \"#utility.yul\":2860:2864   */\n      0x20\n        /* \"#utility.yul\":2855:2858   */\n      dup3\n        /* \"#utility.yul\":2851:2865   */\n      add\n        /* \"#utility.yul\":2844:2865   */\n      swap2\n      pop\n        /* \"#utility.yul\":2917:2921   */\n      0x20\n        /* \"#utility.yul\":2911:2913   */\n      dup5\n        /* \"#utility.yul\":2908:2909   */\n      0x05\n        /* \"#utility.yul\":2904:2914   */\n      shl\n        /* \"#utility.yul\":2896:2902   */\n      dup8\n        /* \"#utility.yul\":2892:2915   */\n      add\n        /* \"#utility.yul\":2888:2922   */\n      add\n        /* \"#utility.yul\":2874:2922   */\n      swap4\n      pop\n        /* \"#utility.yul\":2945:2948   */\n      dup7\n        /* \"#utility.yul\":2937:2943   */\n      dup5\n        /* \"#utility.yul\":2934:2949   */\n      gt\n        /* \"#utility.yul\":2931:2966   */\n      iszero\n      tag_294\n      jumpi\n        /* \"#utility.yul\":2962:2963   */\n      0x00\n        /* \"#utility.yul\":2959:2960   */\n      dup1\n        /* \"#utility.yul\":2952:2964   */\n      revert\n        /* \"#utility.yul\":2931:2966   */\n    tag_294:\n        /* \"#utility.yul\":2998:3002   */\n      0x20\n        /* \"#utility.yul\":2990:2996   */\n      dup7\n        /* \"#utility.yul\":2986:3003   */\n      add\n        /* \"#utility.yul\":3012:3154   */\n    tag_295:\n        /* \"#utility.yul\":3028:3034   */\n      dup5\n        /* \"#utility.yul\":3023:3026   */\n      dup2\n        /* \"#utility.yul\":3020:3035   */\n      lt\n        /* \"#utility.yul\":3012:3154   */\n      iszero\n      tag_297\n      jumpi\n        /* \"#utility.yul\":3094:3111   */\n      dup1\n      calldataload\n        /* \"#utility.yul\":3082:3112   */\n      dup4\n      mstore\n        /* \"#utility.yul\":3132:3144   */\n      swap2\n      dup4\n      add\n      swap2\n        /* \"#utility.yul\":3045:3057   */\n      dup4\n      add\n        /* \"#utility.yul\":3012:3154   */\n      jump(tag_295)\n    tag_297:\n      pop\n        /* \"#utility.yul\":3172:3177   */\n      swap7\n        /* \"#utility.yul\":2515:3183   */\n      swap6\n      pop\n      pop\n      pop\n      pop\n      pop\n      pop\n      jump\t// out\n        /* \"#utility.yul\":3188:3857   */\n    tag_38:\n        /* \"#utility.yul\":3315:3321   */\n      0x00\n        /* \"#utility.yul\":3323:3329   */\n      dup1\n        /* \"#utility.yul\":3331:3337   */\n      0x00\n        /* \"#utility.yul\":3384:3386   */\n      0x60\n        /* \"#utility.yul\":3372:3381   */\n      dup5\n        /* \"#utility.yul\":3363:3370   */\n      dup7\n        /* \"#utility.yul\":3359:3382   */\n      sub\n        /* \"#utility.yul\":3355:3387   */\n      slt\n        /* \"#utility.yul\":3352:3404   */\n      iszero\n      tag_299\n      jumpi\n        /* \"#utility.yul\":3400:3401   */\n      0x00\n        /* \"#utility.yul\":3397:3398   */\n      dup1\n        /* \"#utility.yul\":3390:3402   */\n      revert\n        /* \"#utility.yul\":3352:3404   */\n    tag_299:\n        /* \"#utility.yul\":3423:3452   */\n      tag_300\n        /* \"#utility.yul\":3442:3451   */\n      dup5\n        /* \"#utility.yul\":3423:3452   */\n      tag_256\n      jump\t// in\n    tag_300:\n        /* \"#utility.yul\":3413:3452   */\n      swap3\n      pop\n        /* \"#utility.yul\":3503:3505   */\n      0x20\n        /* \"#utility.yul\":3492:3501   */\n      dup5\n        /* \"#utility.yul\":3488:3506   */\n      add\n        /* \"#utility.yul\":3475:3507   */\n      calldataload\n        /* \"#utility.yul\":3526:3544   */\n      0xffffffffffffffff\n        /* \"#utility.yul\":3567:3569   */\n      dup1\n        /* \"#utility.yul\":3559:3565   */\n      dup3\n        /* \"#utility.yul\":3556:3570   */\n      gt\n        /* \"#utility.yul\":3553:3587   */\n      iszero\n      tag_301\n      jumpi\n        /* \"#utility.yul\":3583:3584   */\n      0x00\n        /* \"#utility.yul\":3580:3581   */\n      dup1\n        /* \"#utility.yul\":3573:3585   */\n      revert\n        /* \"#utility.yul\":3553:3587   */\n    tag_301:\n        /* \"#utility.yul\":3606:3667   */\n      tag_302\n        /* \"#utility.yul\":3659:3666   */\n      dup8\n        /* \"#utility.yul\":3650:3656   */\n      dup4\n        /* \"#utility.yul\":3639:3648   */\n      dup9\n        /* \"#utility.yul\":3635:3657   */\n      add\n        /* \"#utility.yul\":3606:3667   */\n      tag_261\n      jump\t// in\n    tag_302:\n        /* \"#utility.yul\":3596:3667   */\n      swap4\n      pop\n        /* \"#utility.yul\":3720:3722   */\n      0x40\n        /* \"#utility.yul\":3709:3718   */\n      dup7\n        /* \"#utility.yul\":3705:3723   */\n      add\n        /* \"#utility.yul\":3692:3724   */\n      calldataload\n        /* \"#utility.yul\":3676:3724   */\n      swap2\n      pop\n        /* \"#utility.yul\":3749:3751   */\n      dup1\n        /* \"#utility.yul\":3739:3747   */\n      dup3\n        /* \"#utility.yul\":3736:3752   */\n      gt\n        /* \"#utility.yul\":3733:3769   */\n      iszero\n      tag_303\n      jumpi\n        /* \"#utility.yul\":3765:3766   */\n      0x00\n        /* \"#utility.yul\":3762:3763   */\n      dup1\n        /* \"#utility.yul\":3755:3767   */\n      revert\n        /* \"#utility.yul\":3733:3769   */\n    tag_303:\n      pop\n        /* \"#utility.yul\":3788:3851   */\n      tag_304\n        /* \"#utility.yul\":3843:3850   */\n      dup7\n        /* \"#utility.yul\":3832:3840   */\n      dup3\n        /* \"#utility.yul\":3821:3830   */\n      dup8\n        /* \"#utility.yul\":3817:3841   */\n      add\n        /* \"#utility.yul\":3788:3851   */\n      tag_261\n      jump\t// in\n    tag_304:\n        /* \"#utility.yul\":3778:3851   */\n      swap2\n      pop\n      pop\n        /* \"#utility.yul\":3188:3857   */\n      swap3\n      pop\n      swap3\n      pop\n      swap3\n      jump\t// out\n        /* \"#utility.yul\":3862:4392   */\n    tag_262:\n        /* \"#utility.yul\":3904:3909   */\n      0x00\n        /* \"#utility.yul\":3957:3960   */\n      dup3\n        /* \"#utility.yul\":3950:3954   */\n      0x1f\n        /* \"#utility.yul\":3942:3948   */\n      dup4\n        /* \"#utility.yul\":3938:3955   */\n      add\n        /* \"#utility.yul\":3934:3961   */\n      slt\n        /* \"#utility.yul\":3924:3979   */\n      tag_306\n      jumpi\n        /* \"#utility.yul\":3975:3976   */\n      0x00\n        /* \"#utility.yul\":3972:3973   */\n      dup1\n        /* \"#utility.yul\":3965:3977   */\n      revert\n        /* \"#utility.yul\":3924:3979   */\n    tag_306:\n        /* \"#utility.yul\":4011:4017   */\n      dup2\n        /* \"#utility.yul\":3998:4018   */\n      calldataload\n        /* \"#utility.yul\":4037:4055   */\n      0xffffffffffffffff\n        /* \"#utility.yul\":4033:4035   */\n      dup2\n        /* \"#utility.yul\":4030:4056   */\n      gt\n        /* \"#utility.yul\":4027:4079   */\n      iszero\n      tag_308\n      jumpi\n        /* \"#utility.yul\":4059:4077   */\n      tag_308\n      tag_110\n      jump\t// in\n    tag_308:\n        /* \"#utility.yul\":4103:4158   */\n      tag_309\n        /* \"#utility.yul\":4146:4148   */\n      0x1f\n        /* \"#utility.yul\":4127:4140   */\n      dup3\n      add\n      not(0x1f)\n        /* \"#utility.yul\":4123:4150   */\n      and\n        /* \"#utility.yul\":4152:4156   */\n      0x20\n        /* \"#utility.yul\":4119:4157   */\n      add\n        /* \"#utility.yul\":4103:4158   */\n      tag_259\n      jump\t// in\n    tag_309:\n        /* \"#utility.yul\":4183:4185   */\n      dup2\n        /* \"#utility.yul\":4174:4181   */\n      dup2\n        /* \"#utility.yul\":4167:4186   */\n      mstore\n        /* \"#utility.yul\":4229:4232   */\n      dup5\n        /* \"#utility.yul\":4222:4226   */\n      0x20\n        /* \"#utility.yul\":4217:4219   */\n      dup4\n        /* \"#utility.yul\":4209:4215   */\n      dup7\n        /* \"#utility.yul\":4205:4220   */\n      add\n        /* \"#utility.yul\":4201:4227   */\n      add\n        /* \"#utility.yul\":4198:4233   */\n      gt\n        /* \"#utility.yul\":4195:4250   */\n      iszero\n      tag_310\n      jumpi\n        /* \"#utility.yul\":4246:4247   */\n      0x00\n        /* \"#utility.yul\":4243:4244   */\n      dup1\n        /* \"#utility.yul\":4236:4248   */\n      revert\n        /* \"#utility.yul\":4195:4250   */\n    tag_310:\n        /* \"#utility.yul\":4311:4313   */\n      dup2\n        /* \"#utility.yul\":4304:4308   */\n      0x20\n        /* \"#utility.yul\":4296:4302   */\n      dup6\n        /* \"#utility.yul\":4292:4309   */\n      add\n        /* \"#utility.yul\":4285:4289   */\n      0x20\n        /* \"#utility.yul\":4276:4283   */\n      dup4\n        /* \"#utility.yul\":4272:4290   */\n      add\n        /* \"#utility.yul\":4259:4314   */\n      calldatacopy\n        /* \"#utility.yul\":4359:4360   */\n      0x00\n        /* \"#utility.yul\":4334:4350   */\n      swap2\n      dup2\n      add\n        /* \"#utility.yul\":4352:4356   */\n      0x20\n        /* \"#utility.yul\":4330:4357   */\n      add\n        /* \"#utility.yul\":4323:4361   */\n      swap2\n      swap1\n      swap2\n      mstore\n        /* \"#utility.yul\":4338:4345   */\n      swap4\n        /* \"#utility.yul\":3862:4392   */\n      swap3\n      pop\n      pop\n      pop\n      jump\t// out\n        /* \"#utility.yul\":4397:5340   */\n    tag_46:\n        /* \"#utility.yul\":4551:4557   */\n      0x00\n        /* \"#utility.yul\":4559:4565   */\n      dup1\n        /* \"#utility.yul\":4567:4573   */\n      0x00\n        /* \"#utility.yul\":4575:4581   */\n      dup1\n        /* \"#utility.yul\":4583:4589   */\n      0x00\n        /* \"#utility.yul\":4636:4639   */\n      0xa0\n        /* \"#utility.yul\":4624:4633   */\n      dup7\n        /* \"#utility.yul\":4615:4622   */\n      dup9\n        /* \"#utility.yul\":4611:4634   */\n      sub\n        /* \"#utility.yul\":4607:4640   */\n      slt\n        /* \"#utility.yul\":4604:4657   */\n      iszero\n      tag_312\n      jumpi\n        /* \"#utility.yul\":4653:4654   */\n      0x00\n        /* \"#utility.yul\":4650:4651   */\n      dup1\n        /* \"#utility.yul\":4643:4655   */\n      revert\n        /* \"#utility.yul\":4604:4657   */\n    tag_312:\n        /* \"#utility.yul\":4676:4705   */\n      tag_313\n        /* \"#utility.yul\":4695:4704   */\n      dup7\n        /* \"#utility.yul\":4676:4705   */\n      tag_256\n      jump\t// in\n    tag_313:\n        /* \"#utility.yul\":4666:4705   */\n      swap5\n      pop\n        /* \"#utility.yul\":4724:4762   */\n      tag_314\n        /* \"#utility.yul\":4758:4760   */\n      0x20\n        /* \"#utility.yul\":4747:4756   */\n      dup8\n        /* \"#utility.yul\":4743:4761   */\n      add\n        /* \"#utility.yul\":4724:4762   */\n      tag_256\n      jump\t// in\n    tag_314:\n        /* \"#utility.yul\":4714:4762   */\n      swap4\n      pop\n        /* \"#utility.yul\":4813:4815   */\n      0x40\n        /* \"#utility.yul\":4802:4811   */\n      dup7\n        /* \"#utility.yul\":4798:4816   */\n      add\n        /* \"#utility.yul\":4785:4817   */\n      calldataload\n        /* \"#utility.yul\":4836:4854   */\n      0xffffffffffffffff\n        /* \"#utility.yul\":4877:4879   */\n      dup1\n        /* \"#utility.yul\":4869:4875   */\n      dup3\n        /* \"#utility.yul\":4866:4880   */\n      gt\n        /* \"#utility.yul\":4863:4897   */\n      iszero\n      tag_315\n      jumpi\n        /* \"#utility.yul\":4893:4894   */\n      0x00\n        /* \"#utility.yul\":4890:4891   */\n      dup1\n        /* \"#utility.yul\":4883:4895   */\n      revert\n        /* \"#utility.yul\":4863:4897   */\n    tag_315:\n        /* \"#utility.yul\":4916:4977   */\n      tag_316\n        /* \"#utility.yul\":4969:4976   */\n      dup10\n        /* \"#utility.yul\":4960:4966   */\n      dup4\n        /* \"#utility.yul\":4949:4958   */\n      dup11\n        /* \"#utility.yul\":4945:4967   */\n      add\n        /* \"#utility.yul\":4916:4977   */\n      tag_261\n      jump\t// in\n    tag_316:\n        /* \"#utility.yul\":4906:4977   */\n      swap5\n      pop\n        /* \"#utility.yul\":5030:5032   */\n      0x60\n        /* \"#utility.yul\":5019:5028   */\n      dup9\n        /* \"#utility.yul\":5015:5033   */\n      add\n        /* \"#utility.yul\":5002:5034   */\n      calldataload\n        /* \"#utility.yul\":4986:5034   */\n      swap2\n      pop\n        /* \"#utility.yul\":5059:5061   */\n      dup1\n        /* \"#utility.yul\":5049:5057   */\n      dup3\n        /* \"#utility.yul\":5046:5062   */\n      gt\n        /* \"#utility.yul\":5043:5079   */\n      iszero\n      tag_317\n      jumpi\n        /* \"#utility.yul\":5075:5076   */\n      0x00\n        /* \"#utility.yul\":5072:5073   */\n      dup1\n        /* \"#utility.yul\":5065:5077   */\n      revert\n        /* \"#utility.yul\":5043:5079   */\n    tag_317:\n        /* \"#utility.yul\":5098:5161   */\n      tag_318\n        /* \"#utility.yul\":5153:5160   */\n      dup10\n        /* \"#utility.yul\":5142:5150   */\n      dup4\n        /* \"#utility.yul\":5131:5140   */\n      dup11\n        /* \"#utility.yul\":5127:5151   */\n      add\n        /* \"#utility.yul\":5098:5161   */\n      tag_261\n      jump\t// in\n    tag_318:\n        /* \"#utility.yul\":5088:5161   */\n      swap4\n      pop\n        /* \"#utility.yul\":5214:5217   */\n      0x80\n        /* \"#utility.yul\":5203:5212   */\n      dup9\n        /* \"#utility.yul\":5199:5218   */\n      add\n        /* \"#utility.yul\":5186:5219   */\n      calldataload\n        /* \"#utility.yul\":5170:5219   */\n      swap2\n      pop\n        /* \"#utility.yul\":5244:5246   */\n      dup1\n        /* \"#utility.yul\":5234:5242   */\n      dup3\n        /* \"#utility.yul\":5231:5247   */\n      gt\n        /* \"#utility.yul\":5228:5264   */\n      iszero\n      tag_319\n      jumpi\n        /* \"#utility.yul\":5260:5261   */\n      0x00\n        /* \"#utility.yul\":5257:5258   */\n      dup1\n        /* \"#utility.yul\":5250:5262   */\n      revert\n        /* \"#utility.yul\":5228:5264   */\n    tag_319:\n      pop\n        /* \"#utility.yul\":5283:5334   */\n      tag_320\n        /* \"#utility.yul\":5326:5333   */\n      dup9\n        /* \"#utility.yul\":5315:5323   */\n      dup3\n        /* \"#utility.yul\":5304:5313   */\n      dup10\n        /* \"#utility.yul\":5300:5324   */\n      add\n        /* \"#utility.yul\":5283:5334   */\n      tag_262\n      jump\t// in\n    tag_320:\n        /* \"#utility.yul\":5273:5334   */\n      swap2\n      pop\n      pop\n        /* \"#utility.yul\":4397:5340   */\n      swap3\n      swap6\n      pop\n      swap3\n      swap6\n      swap1\n      swap4\n      pop\n      jump\t// out\n        /* \"#utility.yul\":5345:6491   */\n    tag_50:\n        /* \"#utility.yul\":5463:5469   */\n      0x00\n        /* \"#utility.yul\":5471:5477   */\n      dup1\n        /* \"#utility.yul\":5524:5526   */\n      0x40\n        /* \"#utility.yul\":5512:5521   */\n      dup4\n        /* \"#utility.yul\":5503:5510   */\n      dup6\n        /* \"#utility.yul\":5499:5522   */\n      sub\n        /* \"#utility.yul\":5495:5527   */\n      slt\n        /* \"#utility.yul\":5492:5544   */\n      iszero\n      tag_322\n      jumpi\n        /* \"#utility.yul\":5540:5541   */\n      0x00\n        /* \"#utility.yul\":5537:5538   */\n      dup1\n        /* \"#utility.yul\":5530:5542   */\n      revert\n        /* \"#utility.yul\":5492:5544   */\n    tag_322:\n        /* \"#utility.yul\":5580:5589   */\n      dup3\n        /* \"#utility.yul\":5567:5590   */\n      calldataload\n        /* \"#utility.yul\":5609:5627   */\n      0xffffffffffffffff\n        /* \"#utility.yul\":5650:5652   */\n      dup1\n        /* \"#utility.yul\":5642:5648   */\n      dup3\n        /* \"#utility.yul\":5639:5653   */\n      gt\n        /* \"#utility.yul\":5636:5670   */\n      iszero\n      tag_323\n      jumpi\n        /* \"#utility.yul\":5666:5667   */\n      0x00\n        /* \"#utility.yul\":5663:5664   */\n      dup1\n        /* \"#utility.yul\":5656:5668   */\n      revert\n        /* \"#utility.yul\":5636:5670   */\n    tag_323:\n        /* \"#utility.yul\":5704:5710   */\n      dup2\n        /* \"#utility.yul\":5693:5702   */\n      dup6\n        /* \"#utility.yul\":5689:5711   */\n      add\n        /* \"#utility.yul\":5679:5711   */\n      swap2\n      pop\n        /* \"#utility.yul\":5749:5756   */\n      dup6\n        /* \"#utility.yul\":5742:5746   */\n      0x1f\n        /* \"#utility.yul\":5738:5740   */\n      dup4\n        /* \"#utility.yul\":5734:5747   */\n      add\n        /* \"#utility.yul\":5730:5757   */\n      slt\n        /* \"#utility.yul\":5720:5775   */\n      tag_324\n      jumpi\n        /* \"#utility.yul\":5771:5772   */\n      0x00\n        /* \"#utility.yul\":5768:5769   */\n      dup1\n        /* \"#utility.yul\":5761:5773   */\n      revert\n        /* \"#utility.yul\":5720:5775   */\n    tag_324:\n        /* \"#utility.yul\":5807:5809   */\n      dup2\n        /* \"#utility.yul\":5794:5810   */\n      calldataload\n        /* \"#utility.yul\":5829:5833   */\n      0x20\n        /* \"#utility.yul\":5853:5913   */\n      tag_325\n        /* \"#utility.yul\":5869:5912   */\n      tag_293\n        /* \"#utility.yul\":5909:5911   */\n      dup4\n        /* \"#utility.yul\":5869:5912   */\n      tag_260\n      jump\t// in\n        /* \"#utility.yul\":5853:5913   */\n    tag_325:\n        /* \"#utility.yul\":5947:5962   */\n      dup3\n      dup2\n      mstore\n        /* \"#utility.yul\":6029:6030   */\n      0x05\n        /* \"#utility.yul\":6025:6035   */\n      swap3\n      swap1\n      swap3\n      shl\n        /* \"#utility.yul\":6017:6036   */\n      dup5\n      add\n        /* \"#utility.yul\":6013:6041   */\n      dup2\n      add\n      swap2\n        /* \"#utility.yul\":5978:5990   */\n      dup2\n      dup2\n      add\n      swap1\n        /* \"#utility.yul\":6053:6072   */\n      dup10\n      dup5\n      gt\n        /* \"#utility.yul\":6050:6089   */\n      iszero\n      tag_327\n      jumpi\n        /* \"#utility.yul\":6085:6086   */\n      0x00\n        /* \"#utility.yul\":6082:6083   */\n      dup1\n        /* \"#utility.yul\":6075:6087   */\n      revert\n        /* \"#utility.yul\":6050:6089   */\n    tag_327:\n        /* \"#utility.yul\":6109:6120   */\n      swap5\n      dup3\n      add\n      swap5\n        /* \"#utility.yul\":6129:6277   */\n    tag_328:\n        /* \"#utility.yul\":6145:6151   */\n      dup4\n        /* \"#utility.yul\":6140:6143   */\n      dup7\n        /* \"#utility.yul\":6137:6152   */\n      lt\n        /* \"#utility.yul\":6129:6277   */\n      iszero\n      tag_330\n      jumpi\n        /* \"#utility.yul\":6211:6234   */\n      tag_331\n        /* \"#utility.yul\":6230:6233   */\n      dup7\n        /* \"#utility.yul\":6211:6234   */\n      tag_256\n      jump\t// in\n    tag_331:\n        /* \"#utility.yul\":6199:6235   */\n      dup3\n      mstore\n        /* \"#utility.yul\":6162:6174   */\n      swap5\n      dup3\n      add\n      swap5\n        /* \"#utility.yul\":6255:6267   */\n      swap1\n      dup3\n      add\n      swap1\n        /* \"#utility.yul\":6129:6277   */\n      jump(tag_328)\n    tag_330:\n        /* \"#utility.yul\":6296:6301   */\n      swap7\n      pop\n      pop\n        /* \"#utility.yul\":6339:6357   */\n      dup7\n      add\n        /* \"#utility.yul\":6326:6358   */\n      calldataload\n      swap3\n      pop\n      pop\n        /* \"#utility.yul\":6370:6386   */\n      dup1\n      dup3\n      gt\n        /* \"#utility.yul\":6367:6403   */\n      iszero\n      tag_332\n      jumpi\n        /* \"#utility.yul\":6399:6400   */\n      0x00\n        /* \"#utility.yul\":6396:6397   */\n      dup1\n        /* \"#utility.yul\":6389:6401   */\n      revert\n        /* \"#utility.yul\":6367:6403   */\n    tag_332:\n      pop\n        /* \"#utility.yul\":6422:6485   */\n      tag_333\n        /* \"#utility.yul\":6477:6484   */\n      dup6\n        /* \"#utility.yul\":6466:6474   */\n      dup3\n        /* \"#utility.yul\":6455:6464   */\n      dup7\n        /* \"#utility.yul\":6451:6475   */\n      add\n        /* \"#utility.yul\":6422:6485   */\n      tag_261\n      jump\t// in\n    tag_333:\n        /* \"#utility.yul\":6412:6485   */\n      swap2\n      pop\n      pop\n        /* \"#utility.yul\":5345:6491   */\n      swap3\n      pop\n      swap3\n      swap1\n      pop\n      jump\t// out\n        /* \"#utility.yul\":6496:6935   */\n    tag_263:\n        /* \"#utility.yul\":6549:6552   */\n      0x00\n        /* \"#utility.yul\":6587:6592   */\n      dup2\n        /* \"#utility.yul\":6581:6593   */\n      mload\n        /* \"#utility.yul\":6614:6620   */\n      dup1\n        /* \"#utility.yul\":6609:6612   */\n      dup5\n        /* \"#utility.yul\":6602:6621   */\n      mstore\n        /* \"#utility.yul\":6640:6644   */\n      0x20\n        /* \"#utility.yul\":6669:6673   */\n      dup1\n        /* \"#utility.yul\":6664:6667   */\n      dup6\n        /* \"#utility.yul\":6660:6674   */\n      add\n        /* \"#utility.yul\":6653:6674   */\n      swap5\n      pop\n        /* \"#utility.yul\":6708:6712   */\n      0x20\n        /* \"#utility.yul\":6701:6706   */\n      dup5\n        /* \"#utility.yul\":6697:6713   */\n      add\n        /* \"#utility.yul\":6731:6732   */\n      0x00\n        /* \"#utility.yul\":6741:6910   */\n    tag_335:\n        /* \"#utility.yul\":6755:6761   */\n      dup4\n        /* \"#utility.yul\":6752:6753   */\n      dup2\n        /* \"#utility.yul\":6749:6762   */\n      lt\n        /* \"#utility.yul\":6741:6910   */\n      iszero\n      tag_337\n      jumpi\n        /* \"#utility.yul\":6816:6829   */\n      dup2\n      mload\n        /* \"#utility.yul\":6804:6830   */\n      dup8\n      mstore\n        /* \"#utility.yul\":6850:6862   */\n      swap6\n      dup3\n      add\n      swap6\n        /* \"#utility.yul\":6885:6900   */\n      swap1\n      dup3\n      add\n      swap1\n        /* \"#utility.yul\":6777:6778   */\n      0x01\n        /* \"#utility.yul\":6770:6779   */\n      add\n        /* \"#utility.yul\":6741:6910   */\n      jump(tag_335)\n    tag_337:\n      pop\n        /* \"#utility.yul\":6926:6929   */\n      swap5\n      swap6\n        /* \"#utility.yul\":6496:6935   */\n      swap5\n      pop\n      pop\n      pop\n      pop\n      pop\n      jump\t// out\n        /* \"#utility.yul\":6940:7201   */\n    tag_53:\n        /* \"#utility.yul\":7119:7121   */\n      0x20\n        /* \"#utility.yul\":7108:7117   */\n      dup2\n        /* \"#utility.yul\":7101:7122   */\n      mstore\n        /* \"#utility.yul\":7082:7086   */\n      0x00\n        /* \"#utility.yul\":7139:7195   */\n      tag_276\n        /* \"#utility.yul\":7191:7193   */\n      0x20\n        /* \"#utility.yul\":7180:7189   */\n      dup4\n        /* \"#utility.yul\":7176:7194   */\n      add\n        /* \"#utility.yul\":7168:7174   */\n      dup5\n        /* \"#utility.yul\":7139:7195   */\n      tag_263\n      jump\t// in\n        /* \"#utility.yul\":7206:7454   */\n    tag_56:\n        /* \"#utility.yul\":7274:7280   */\n      0x00\n        /* \"#utility.yul\":7282:7288   */\n      dup1\n        /* \"#utility.yul\":7335:7337   */\n      0x40\n        /* \"#utility.yul\":7323:7332   */\n      dup4\n        /* \"#utility.yul\":7314:7321   */\n      dup6\n        /* \"#utility.yul\":7310:7333   */\n      sub\n        /* \"#utility.yul\":7306:7338   */\n      slt\n        /* \"#utility.yul\":7303:7355   */\n      iszero\n      tag_341\n      jumpi\n        /* \"#utility.yul\":7351:7352   */\n      0x00\n        /* \"#utility.yul\":7348:7349   */\n      dup1\n        /* \"#utility.yul\":7341:7353   */\n      revert\n        /* \"#utility.yul\":7303:7355   */\n    tag_341:\n      pop\n      pop\n        /* \"#utility.yul\":7374:7397   */\n      dup1\n      calldataload\n      swap3\n        /* \"#utility.yul\":7444:7446   */\n      0x20\n        /* \"#utility.yul\":7429:7447   */\n      swap1\n      swap2\n      add\n        /* \"#utility.yul\":7416:7448   */\n      calldataload\n      swap2\n      pop\n        /* \"#utility.yul\":7206:7454   */\n      jump\t// out\n        /* \"#utility.yul\":7459:7806   */\n    tag_63:\n        /* \"#utility.yul\":7524:7530   */\n      0x00\n        /* \"#utility.yul\":7532:7538   */\n      dup1\n        /* \"#utility.yul\":7585:7587   */\n      0x40\n        /* \"#utility.yul\":7573:7582   */\n      dup4\n        /* \"#utility.yul\":7564:7571   */\n      dup6\n        /* \"#utility.yul\":7560:7583   */\n      sub\n        /* \"#utility.yul\":7556:7588   */\n      slt\n        /* \"#utility.yul\":7553:7605   */\n      iszero\n      tag_343\n      jumpi\n        /* \"#utility.yul\":7601:7602   */\n      0x00\n        /* \"#utility.yul\":7598:7599   */\n      dup1\n        /* \"#utility.yul\":7591:7603   */\n      revert\n        /* \"#utility.yul\":7553:7605   */\n    tag_343:\n        /* \"#utility.yul\":7624:7653   */\n      tag_344\n        /* \"#utility.yul\":7643:7652   */\n      dup4\n        /* \"#utility.yul\":7624:7653   */\n      tag_256\n      jump\t// in\n    tag_344:\n        /* \"#utility.yul\":7614:7653   */\n      swap2\n      pop\n        /* \"#utility.yul\":7703:7705   */\n      0x20\n        /* \"#utility.yul\":7692:7701   */\n      dup4\n        /* \"#utility.yul\":7688:7706   */\n      add\n        /* \"#utility.yul\":7675:7707   */\n      calldataload\n        /* \"#utility.yul\":7750:7755   */\n      dup1\n        /* \"#utility.yul\":7743:7756   */\n      iszero\n        /* \"#utility.yul\":7736:7757   */\n      iszero\n        /* \"#utility.yul\":7729:7734   */\n      dup2\n        /* \"#utility.yul\":7726:7758   */\n      eq\n        /* \"#utility.yul\":7716:7776   */\n      tag_345\n      jumpi\n        /* \"#utility.yul\":7772:7773   */\n      0x00\n        /* \"#utility.yul\":7769:7770   */\n      dup1\n        /* \"#utility.yul\":7762:7774   */\n      revert\n        /* \"#utility.yul\":7716:7776   */\n    tag_345:\n        /* \"#utility.yul\":7795:7800   */\n      dup1\n        /* \"#utility.yul\":7785:7800   */\n      swap2\n      pop\n      pop\n        /* \"#utility.yul\":7459:7806   */\n      swap3\n      pop\n      swap3\n      swap1\n      pop\n      jump\t// out\n        /* \"#utility.yul\":7811:8071   */\n    tag_71:\n        /* \"#utility.yul\":7879:7885   */\n      0x00\n        /* \"#utility.yul\":7887:7893   */\n      dup1\n        /* \"#utility.yul\":7940:7942   */\n      0x40\n        /* \"#utility.yul\":7928:7937   */\n      dup4\n        /* \"#utility.yul\":7919:7926   */\n      dup6\n        /* \"#utility.yul\":7915:7938   */\n      sub\n        /* \"#utility.yul\":7911:7943   */\n      slt\n        /* \"#utility.yul\":7908:7960   */\n      iszero\n      tag_347\n      jumpi\n        /* \"#utility.yul\":7956:7957   */\n      0x00\n        /* \"#utility.yul\":7953:7954   */\n      dup1\n        /* \"#utility.yul\":7946:7958   */\n      revert\n        /* \"#utility.yul\":7908:7960   */\n    tag_347:\n        /* \"#utility.yul\":7979:8008   */\n      tag_348\n        /* \"#utility.yul\":7998:8007   */\n      dup4\n        /* \"#utility.yul\":7979:8008   */\n      tag_256\n      jump\t// in\n    tag_348:\n        /* \"#utility.yul\":7969:8008   */\n      swap2\n      pop\n        /* \"#utility.yul\":8027:8065   */\n      tag_349\n        /* \"#utility.yul\":8061:8063   */\n      0x20\n        /* \"#utility.yul\":8050:8059   */\n      dup5\n        /* \"#utility.yul\":8046:8064   */\n      add\n        /* \"#utility.yul\":8027:8065   */\n      tag_256\n      jump\t// in\n    tag_349:\n        /* \"#utility.yul\":8017:8065   */\n      swap1\n      pop\n        /* \"#utility.yul\":7811:8071   */\n      swap3\n      pop\n      swap3\n      swap1\n      pop\n      jump\t// out\n        /* \"#utility.yul\":8076:8682   */\n    tag_76:\n        /* \"#utility.yul\":8180:8186   */\n      0x00\n        /* \"#utility.yul\":8188:8194   */\n      dup1\n        /* \"#utility.yul\":8196:8202   */\n      0x00\n        /* \"#utility.yul\":8204:8210   */\n      dup1\n        /* \"#utility.yul\":8212:8218   */\n      0x00\n        /* \"#utility.yul\":8265:8268   */\n      0xa0\n        /* \"#utility.yul\":8253:8262   */\n      dup7\n        /* \"#utility.yul\":8244:8251   */\n      dup9\n        /* \"#utility.yul\":8240:8263   */\n      sub\n        /* \"#utility.yul\":8236:8269   */\n      slt\n        /* \"#utility.yul\":8233:8286   */\n      iszero\n      tag_351\n      jumpi\n        /* \"#utility.yul\":8282:8283   */\n      0x00\n        /* \"#utility.yul\":8279:8280   */\n      dup1\n        /* \"#utility.yul\":8272:8284   */\n      revert\n        /* \"#utility.yul\":8233:8286   */\n    tag_351:\n        /* \"#utility.yul\":8305:8334   */\n      tag_352\n        /* \"#utility.yul\":8324:8333   */\n      dup7\n        /* \"#utility.yul\":8305:8334   */\n      tag_256\n      jump\t// in\n    tag_352:\n        /* \"#utility.yul\":8295:8334   */\n      swap5\n      pop\n        /* \"#utility.yul\":8353:8391   */\n      tag_353\n        /* \"#utility.yul\":8387:8389   */\n      0x20\n        /* \"#utility.yul\":8376:8385   */\n      dup8\n        /* \"#utility.yul\":8372:8390   */\n      add\n        /* \"#utility.yul\":8353:8391   */\n      tag_256\n      jump\t// in\n    tag_353:\n        /* \"#utility.yul\":8343:8391   */\n      swap4\n      pop\n        /* \"#utility.yul\":8438:8440   */\n      0x40\n        /* \"#utility.yul\":8427:8436   */\n      dup7\n        /* \"#utility.yul\":8423:8441   */\n      add\n        /* \"#utility.yul\":8410:8442   */\n      calldataload\n        /* \"#utility.yul\":8400:8442   */\n      swap3\n      pop\n        /* \"#utility.yul\":8489:8491   */\n      0x60\n        /* \"#utility.yul\":8478:8487   */\n      dup7\n        /* \"#utility.yul\":8474:8492   */\n      add\n        /* \"#utility.yul\":8461:8493   */\n      calldataload\n        /* \"#utility.yul\":8451:8493   */\n      swap2\n      pop\n        /* \"#utility.yul\":8544:8547   */\n      0x80\n        /* \"#utility.yul\":8533:8542   */\n      dup7\n        /* \"#utility.yul\":8529:8548   */\n      add\n        /* \"#utility.yul\":8516:8549   */\n      calldataload\n        /* \"#utility.yul\":8572:8590   */\n      0xffffffffffffffff\n        /* \"#utility.yul\":8564:8570   */\n      dup2\n        /* \"#utility.yul\":8561:8591   */\n      gt\n        /* \"#utility.yul\":8558:8608   */\n      iszero\n      tag_354\n      jumpi\n        /* \"#utility.yul\":8604:8605   */\n      0x00\n        /* \"#utility.yul\":8601:8602   */\n      dup1\n        /* \"#utility.yul\":8594:8606   */\n      revert\n        /* \"#utility.yul\":8558:8608   */\n    tag_354:\n        /* \"#utility.yul\":8627:8676   */\n      tag_320\n        /* \"#utility.yul\":8668:8675   */\n      dup9\n        /* \"#utility.yul\":8659:8665   */\n      dup3\n        /* \"#utility.yul\":8648:8657   */\n      dup10\n        /* \"#utility.yul\":8644:8666   */\n      add\n        /* \"#utility.yul\":8627:8676   */\n      tag_262\n      jump\t// in\n        /* \"#utility.yul\":8687:9067   */\n    tag_86:\n        /* \"#utility.yul\":8766:8767   */\n      0x01\n        /* \"#utility.yul\":8762:8774   */\n      dup2\n      dup2\n      shr\n      swap1\n        /* \"#utility.yul\":8809:8821   */\n      dup3\n      and\n      dup1\n        /* \"#utility.yul\":8830:8891   */\n      tag_357\n      jumpi\n        /* \"#utility.yul\":8884:8888   */\n      0x7f\n        /* \"#utility.yul\":8876:8882   */\n      dup3\n        /* \"#utility.yul\":8872:8889   */\n      and\n        /* \"#utility.yul\":8862:8889   */\n      swap2\n      pop\n        /* \"#utility.yul\":8830:8891   */\n    tag_357:\n        /* \"#utility.yul\":8937:8939   */\n      0x20\n        /* \"#utility.yul\":8929:8935   */\n      dup3\n        /* \"#utility.yul\":8926:8940   */\n      lt\n        /* \"#utility.yul\":8906:8924   */\n      dup2\n        /* \"#utility.yul\":8903:8941   */\n      sub\n        /* \"#utility.yul\":8900:9061   */\n      tag_358\n      jumpi\n        /* \"#utility.yul\":8983:8993   */\n      0x4e487b71\n        /* \"#utility.yul\":8978:8981   */\n      0xe0\n        /* \"#utility.yul\":8974:8994   */\n      shl\n        /* \"#utility.yul\":8971:8972   */\n      0x00\n        /* \"#utility.yul\":8964:8995   */\n      mstore\n        /* \"#utility.yul\":9018:9022   */\n      0x22\n        /* \"#utility.yul\":9015:9016   */\n      0x04\n        /* \"#utility.yul\":9008:9023   */\n      mstore\n        /* \"#utility.yul\":9046:9050   */\n      0x24\n        /* \"#utility.yul\":9043:9044   */\n      0x00\n        /* \"#utility.yul\":9036:9051   */\n      revert\n        /* \"#utility.yul\":8900:9061   */\n    tag_358:\n      pop\n        /* \"#utility.yul\":8687:9067   */\n      swap2\n      swap1\n      pop\n      jump\t// out\n        /* \"#utility.yul\":9634:9761   */\n    tag_122:\n        /* \"#utility.yul\":9695:9705   */\n      0x4e487b71\n        /* \"#utility.yul\":9690:9693   */\n      0xe0\n        /* \"#utility.yul\":9686:9706   */\n      shl\n        /* \"#utility.yul\":9683:9684   */\n      0x00\n        /* \"#utility.yul\":9676:9707   */\n      mstore\n        /* \"#utility.yul\":9726:9730   */\n      0x32\n        /* \"#utility.yul\":9723:9724   */\n      0x04\n        /* \"#utility.yul\":9716:9731   */\n      mstore\n        /* \"#utility.yul\":9750:9754   */\n      0x24\n        /* \"#utility.yul\":9747:9748   */\n      0x00\n        /* \"#utility.yul\":9740:9755   */\n      revert\n        /* \"#utility.yul\":10123:10250   */\n    tag_264:\n        /* \"#utility.yul\":10184:10194   */\n      0x4e487b71\n        /* \"#utility.yul\":10179:10182   */\n      0xe0\n        /* \"#utility.yul\":10175:10195   */\n      shl\n        /* \"#utility.yul\":10172:10173   */\n      0x00\n        /* \"#utility.yul\":10165:10196   */\n      mstore\n        /* \"#utility.yul\":10215:10219   */\n      0x11\n        /* \"#utility.yul\":10212:10213   */\n      0x04\n        /* \"#utility.yul\":10205:10220   */\n      mstore\n        /* \"#utility.yul\":10239:10243   */\n      0x24\n        /* \"#utility.yul\":10236:10237   */\n      0x00\n        /* \"#utility.yul\":10229:10244   */\n      revert\n        /* \"#utility.yul\":10255:10383   */\n    tag_131:\n        /* \"#utility.yul\":10322:10331   */\n      dup2\n      dup2\n      sub\n        /* \"#utility.yul\":10343:10354   */\n      dup2\n      dup2\n      gt\n        /* \"#utility.yul\":10340:10377   */\n      iszero\n      tag_78\n      jumpi\n        /* \"#utility.yul\":10357:10375   */\n      tag_78\n      tag_264\n      jump\t// in\n        /* \"#utility.yul\":11018:11143   */\n    tag_211:\n        /* \"#utility.yul\":11083:11092   */\n      dup1\n      dup3\n      add\n        /* \"#utility.yul\":11104:11114   */\n      dup1\n      dup3\n      gt\n        /* \"#utility.yul\":11101:11137   */\n      iszero\n      tag_78\n      jumpi\n        /* \"#utility.yul\":11117:11135   */\n      tag_78\n      tag_264\n      jump\t// in\n        /* \"#utility.yul\":11148:11613   */\n    tag_218:\n        /* \"#utility.yul\":11405:11407   */\n      0x40\n        /* \"#utility.yul\":11394:11403   */\n      dup2\n        /* \"#utility.yul\":11387:11408   */\n      mstore\n        /* \"#utility.yul\":11368:11372   */\n      0x00\n        /* \"#utility.yul\":11431:11487   */\n      tag_373\n        /* \"#utility.yul\":11483:11485   */\n      0x40\n        /* \"#utility.yul\":11472:11481   */\n      dup4\n        /* \"#utility.yul\":11468:11486   */\n      add\n        /* \"#utility.yul\":11460:11466   */\n      dup6\n        /* \"#utility.yul\":11431:11487   */\n      tag_263\n      jump\t// in\n    tag_373:\n        /* \"#utility.yul\":11535:11544   */\n      dup3\n        /* \"#utility.yul\":11527:11533   */\n      dup2\n        /* \"#utility.yul\":11523:11545   */\n      sub\n        /* \"#utility.yul\":11518:11520   */\n      0x20\n        /* \"#utility.yul\":11507:11516   */\n      dup5\n        /* \"#utility.yul\":11503:11521   */\n      add\n        /* \"#utility.yul\":11496:11546   */\n      mstore\n        /* \"#utility.yul\":11563:11607   */\n      tag_374\n        /* \"#utility.yul\":11600:11606   */\n      dup2\n        /* \"#utility.yul\":11592:11598   */\n      dup6\n        /* \"#utility.yul\":11563:11607   */\n      tag_263\n      jump\t// in\n    tag_374:\n        /* \"#utility.yul\":11555:11607   */\n      swap6\n        /* \"#utility.yul\":11148:11613   */\n      swap5\n      pop\n      pop\n      pop\n      pop\n      pop\n      jump\t// out\n        /* \"#utility.yul\":11618:12179   */\n    tag_222:\n      sub(shl(0xa0, 0x01), 0x01)\n        /* \"#utility.yul\":11915:11930   */\n      dup7\n      dup2\n      and\n        /* \"#utility.yul\":11897:11931   */\n      dup3\n      mstore\n        /* \"#utility.yul\":11967:11982   */\n      dup6\n      and\n        /* \"#utility.yul\":11962:11964   */\n      0x20\n        /* \"#utility.yul\":11947:11965   */\n      dup3\n      add\n        /* \"#utility.yul\":11940:11983   */\n      mstore\n        /* \"#utility.yul\":12014:12016   */\n      0x40\n        /* \"#utility.yul\":11999:12017   */\n      dup2\n      add\n        /* \"#utility.yul\":11992:12026   */\n      dup5\n      swap1\n      mstore\n        /* \"#utility.yul\":12057:12059   */\n      0x60\n        /* \"#utility.yul\":12042:12060   */\n      dup2\n      add\n        /* \"#utility.yul\":12035:12069   */\n      dup4\n      swap1\n      mstore\n        /* \"#utility.yul\":11877:11880   */\n      0xa0\n        /* \"#utility.yul\":12100:12103   */\n      0x80\n        /* \"#utility.yul\":12085:12104   */\n      dup3\n      add\n        /* \"#utility.yul\":12078:12110   */\n      dup2\n      swap1\n      mstore\n        /* \"#utility.yul\":11840:11844   */\n      0x00\n      swap1\n        /* \"#utility.yul\":12127:12173   */\n      tag_376\n      swap1\n        /* \"#utility.yul\":12153:12172   */\n      dup4\n      add\n        /* \"#utility.yul\":12145:12151   */\n      dup5\n        /* \"#utility.yul\":12127:12173   */\n      tag_258\n      jump\t// in\n    tag_376:\n        /* \"#utility.yul\":12119:12173   */\n      swap8\n        /* \"#utility.yul\":11618:12179   */\n      swap7\n      pop\n      pop\n      pop\n      pop\n      pop\n      pop\n      pop\n      jump\t// out\n        /* \"#utility.yul\":12184:12433   */\n    tag_225:\n        /* \"#utility.yul\":12253:12259   */\n      0x00\n        /* \"#utility.yul\":12306:12308   */\n      0x20\n        /* \"#utility.yul\":12294:12303   */\n      dup3\n        /* \"#utility.yul\":12285:12292   */\n      dup5\n        /* \"#utility.yul\":12281:12304   */\n      sub\n        /* \"#utility.yul\":12277:12309   */\n      slt\n        /* \"#utility.yul\":12274:12326   */\n      iszero\n      tag_378\n      jumpi\n        /* \"#utility.yul\":12322:12323   */\n      0x00\n        /* \"#utility.yul\":12319:12320   */\n      dup1\n        /* \"#utility.yul\":12312:12324   */\n      revert\n        /* \"#utility.yul\":12274:12326   */\n    tag_378:\n        /* \"#utility.yul\":12354:12363   */\n      dup2\n        /* \"#utility.yul\":12348:12364   */\n      mload\n        /* \"#utility.yul\":12373:12403   */\n      tag_276\n        /* \"#utility.yul\":12397:12402   */\n      dup2\n        /* \"#utility.yul\":12373:12403   */\n      tag_257\n      jump\t// in\n        /* \"#utility.yul\":12438:13265   */\n    tag_241:\n      sub(shl(0xa0, 0x01), 0x01)\n        /* \"#utility.yul\":12835:12850   */\n      dup7\n      dup2\n      and\n        /* \"#utility.yul\":12817:12851   */\n      dup3\n      mstore\n        /* \"#utility.yul\":12887:12902   */\n      dup6\n      and\n        /* \"#utility.yul\":12882:12884   */\n      0x20\n        /* \"#utility.yul\":12867:12885   */\n      dup3\n      add\n        /* \"#utility.yul\":12860:12903   */\n      mstore\n        /* \"#utility.yul\":12797:12800   */\n      0xa0\n        /* \"#utility.yul\":12934:12936   */\n      0x40\n        /* \"#utility.yul\":12919:12937   */\n      dup3\n      add\n        /* \"#utility.yul\":12912:12943   */\n      dup2\n      swap1\n      mstore\n        /* \"#utility.yul\":12760:12764   */\n      0x00\n      swap1\n        /* \"#utility.yul\":12966:13023   */\n      tag_381\n      swap1\n        /* \"#utility.yul\":13003:13022   */\n      dup4\n      add\n        /* \"#utility.yul\":12995:13001   */\n      dup7\n        /* \"#utility.yul\":12966:13023   */\n      tag_263\n      jump\t// in\n    tag_381:\n        /* \"#utility.yul\":13071:13080   */\n      dup3\n        /* \"#utility.yul\":13063:13069   */\n      dup2\n        /* \"#utility.yul\":13059:13081   */\n      sub\n        /* \"#utility.yul\":13054:13056   */\n      0x60\n        /* \"#utility.yul\":13043:13052   */\n      dup5\n        /* \"#utility.yul\":13039:13057   */\n      add\n        /* \"#utility.yul\":13032:13082   */\n      mstore\n        /* \"#utility.yul\":13105:13149   */\n      tag_382\n        /* \"#utility.yul\":13142:13148   */\n      dup2\n        /* \"#utility.yul\":13134:13140   */\n      dup7\n        /* \"#utility.yul\":13105:13149   */\n      tag_263\n      jump\t// in\n    tag_382:\n        /* \"#utility.yul\":13091:13149   */\n      swap1\n      pop\n        /* \"#utility.yul\":13198:13207   */\n      dup3\n        /* \"#utility.yul\":13190:13196   */\n      dup2\n        /* \"#utility.yul\":13186:13208   */\n      sub\n        /* \"#utility.yul\":13180:13183   */\n      0x80\n        /* \"#utility.yul\":13169:13178   */\n      dup5\n        /* \"#utility.yul\":13165:13184   */\n      add\n        /* \"#utility.yul\":13158:13209   */\n      mstore\n        /* \"#utility.yul\":13226:13259   */\n      tag_383\n        /* \"#utility.yul\":13252:13258   */\n      dup2\n        /* \"#utility.yul\":13244:13250   */\n      dup6\n        /* \"#utility.yul\":13226:13259   */\n      tag_258\n      jump\t// in\n    tag_383:\n        /* \"#utility.yul\":13218:13259   */\n      swap9\n        /* \"#utility.yul\":12438:13265   */\n      swap8\n      pop\n      pop\n      pop\n      pop\n      pop\n      pop\n      pop\n      pop\n      jump\t// out\n\n    auxdata: 0xa2646970667358221220708d813e048a13d9ddbb68ef1d7996ba2d0fd98dc762eae2f4752fe91cbd131064736f6c63430008190033\n}\n",
				"bytecode": {
					"linkReferences": {},
					"object": "608060405234801561000f575f80fd5b506040516115b63803806115b683398101604081905261002e91610063565b806100388161003f565b5050610250565b600261004b8282610191565b5050565b634e487b7160e01b5f52604160045260245ffd5b5f60208284031215610073575f80fd5b81516001600160401b0380821115610089575f80fd5b818401915084601f83011261009c575f80fd5b8151818111156100ae576100ae61004f565b604051601f8201601f19908116603f011681019083821181831017156100d6576100d661004f565b816040528281528760208487010111156100ee575f80fd5b8260208601602083015e5f928101602001929092525095945050505050565b600181811c9082168061012157607f821691505b60208210810361013f57634e487b7160e01b5f52602260045260245ffd5b50919050565b601f82111561018c57805f5260205f20601f840160051c8101602085101561016a5750805b601f840160051c820191505b81811015610189575f8155600101610176565b50505b505050565b81516001600160401b038111156101aa576101aa61004f565b6101be816101b8845461010d565b84610145565b602080601f8311600181146101f1575f84156101da5750858301515b5f19600386901b1c1916600185901b178555610248565b5f85815260208120601f198616915b8281101561021f57888601518255948401946001909101908401610200565b508582101561023c57878501515f19600388901b60f8161c191681555b505060018460011b0185555b505050505050565b6113598061025d5f395ff3fe608060405234801561000f575f80fd5b50600436106100ca575f3560e01c80634e1273f411610088578063a22cb46511610063578063a22cb465146101c4578063bd85b039146101d7578063e985e9c5146101f6578063f242432a14610209575f80fd5b80634e1273f41461017e5780638e81c64d1461019e57806393442218146101b1575f80fd5b8062fdd58e146100ce57806301ffc9a7146100f45780630e89341c146101175780631cb0d48114610137578063202955591461014c5780632eb2c2d61461016b575b5f80fd5b6100e16100dc366004610cb9565b61021c565b6040519081526020015b60405180910390f35b610107610102366004610cf9565b610243565b60405190151581526020016100eb565b61012a610125366004610d1b565b610292565b6040516100eb9190610d60565b61014a610145366004610e46565b610324565b005b6100e161015a366004610d1b565b5f9081526003602052604090205490565b61014a610179366004610f21565b610344565b61019161018c366004610fc4565b6103b0565b6040516100eb91906110b8565b61014a6101ac3660046110ca565b61047b565b61014a6101bf366004610d1b565b610505565b61014a6101d23660046110ea565b610557565b6100e16101e5366004610d1b565b60036020525f908152604090205481565b610107610204366004611123565b610562565b61014a610217366004611154565b61058f565b5f818152602081815260408083206001600160a01b03861684529091529020545b92915050565b5f6001600160e01b03198216636cdb3d1360e11b148061027357506001600160e01b031982166303a24d0760e21b145b8061023d57506301ffc9a760e01b6001600160e01b031983161461023d565b6060600280546102a1906111b4565b80601f01602080910402602001604051908101604052809291908181526020018280546102cd906111b4565b80156103185780601f106102ef57610100808354040283529160200191610318565b820191905f5260205f20905b8154815290600101906020018083116102fb57829003601f168201915b50505050509050919050565b61033f3384848460405180602001604052805f8152506105ee565b505050565b336001600160a01b038616811480159061036557506103638682610562565b155b1561039b5760405163711bec9160e11b81526001600160a01b038083166004830152871660248201526044015b60405180910390fd5b6103a886868686866105ee565b505050505050565b606081518351146103e15781518351604051635b05999160e01b815260048101929092526024820152604401610392565b5f835167ffffffffffffffff8111156103fc576103fc610d72565b604051908082528060200260200182016040528015610425578160200160208202803683370190505b5090505f5b84518110156104735760208082028601015161044e9060208084028701015161021c565b828281518110610460576104606111ec565b602090810291909101015260010161042a565b509392505050565b80610486338461021c565b10156104d45760405162461bcd60e51b815260206004820152601c60248201527f496e73756666696369656e742062616c616e636520746f206275726e000000006044820152606401610392565b6104df338383610653565b5f82815260036020526040812080548392906104fc908490611214565b90915550505050565b600360209081527f3617319a054d772f909f7c479a2cebe5066e836a939412e32403c99029b92eff545f818152604080822085905580519384019052825290610553903090839085906106b9565b5050565b610553338383610714565b6001600160a01b039182165f90815260016020908152604080832093909416825291909152205460ff1690565b336001600160a01b03861681148015906105b057506105ae8682610562565b155b156105e15760405163711bec9160e11b81526001600160a01b03808316600483015287166024820152604401610392565b6103a886868686866107a8565b6001600160a01b03841661061757604051632bfa23e760e11b81525f6004820152602401610392565b6001600160a01b03851661063f57604051626a0d4560e21b81525f6004820152602401610392565b61064c8585858585610834565b5050505050565b6001600160a01b03831661067b57604051626a0d4560e21b81525f6004820152602401610392565b604080516001808252602082018590528183019081526060820184905260a082019092525f6080820181815291929161064c91879185908590610834565b6001600160a01b0384166106e257604051632bfa23e760e11b81525f6004820152602401610392565b604080516001808252602082018690528183019081526060820185905260808201909252906103a85f87848487610834565b6001600160a01b03821661073c5760405162ced3e160e81b81525f6004820152602401610392565b6001600160a01b038381165f81815260016020908152604080832094871680845294825291829020805460ff191686151590811790915591519182527f17307eab39ab6107e8899845ad3d59bd9653f200f220920489ca2b5937696c31910160405180910390a3505050565b6001600160a01b0384166107d157604051632bfa23e760e11b81525f6004820152602401610392565b6001600160a01b0385166107f957604051626a0d4560e21b81525f6004820152602401610392565b6040805160018082526020820186905281830190815260608201859052608082019092529061082b8787848487610834565b50505050505050565b61084085858585610887565b6001600160a01b0384161561064c57825133906001036108795760208481015190840151610872838989858589610a96565b50506103a8565b6103a8818787878787610bb7565b80518251146108b65781518151604051635b05999160e01b815260048101929092526024820152604401610392565b335f5b83518110156109b8576020818102858101820151908501909101516001600160a01b0388161561096a575f828152602081815260408083206001600160a01b038c16845290915290205481811015610944576040516303dee4c560e01b81526001600160a01b038a166004820152602481018290526044810183905260648101849052608401610392565b5f838152602081815260408083206001600160a01b038d16845290915290209082900390555b6001600160a01b038716156109ae575f828152602081815260408083206001600160a01b038b168452909152812080548392906109a8908490611227565b90915550505b50506001016108b9565b508251600103610a385760208301515f906020840151909150856001600160a01b0316876001600160a01b0316846001600160a01b03167fc3d58168c5ae7397731d063d5bbf3d657854427343f4c083240f7aacaa2d0f628585604051610a29929190918252602082015260400190565b60405180910390a4505061064c565b836001600160a01b0316856001600160a01b0316826001600160a01b03167f4a39dc06d4c0dbc64b70af90fd698a233a518aa5d07e595d983b8c0526c8f7fb8686604051610a8792919061123a565b60405180910390a45050505050565b6001600160a01b0384163b156103a85760405163f23a6e6160e01b81526001600160a01b0385169063f23a6e6190610ada9089908990889088908890600401611267565b6020604051808303815f875af1925050508015610b14575060408051601f3d908101601f19168201909252610b11918101906112ab565b60015b610b7b573d808015610b41576040519150601f19603f3d011682016040523d82523d5f602084013e610b46565b606091505b5080515f03610b7357604051632bfa23e760e11b81526001600160a01b0386166004820152602401610392565b805181602001fd5b6001600160e01b0319811663f23a6e6160e01b1461082b57604051632bfa23e760e11b81526001600160a01b0386166004820152602401610392565b6001600160a01b0384163b156103a85760405163bc197c8160e01b81526001600160a01b0385169063bc197c8190610bfb90899089908890889088906004016112c6565b6020604051808303815f875af1925050508015610c35575060408051601f3d908101601f19168201909252610c32918101906112ab565b60015b610c62573d808015610b41576040519150601f19603f3d011682016040523d82523d5f602084013e610b46565b6001600160e01b0319811663bc197c8160e01b1461082b57604051632bfa23e760e11b81526001600160a01b0386166004820152602401610392565b80356001600160a01b0381168114610cb4575f80fd5b919050565b5f8060408385031215610cca575f80fd5b610cd383610c9e565b946020939093013593505050565b6001600160e01b031981168114610cf6575f80fd5b50565b5f60208284031215610d09575f80fd5b8135610d1481610ce1565b9392505050565b5f60208284031215610d2b575f80fd5b5035919050565b5f81518084528060208401602086015e5f602082860101526020601f19601f83011685010191505092915050565b602081525f610d146020830184610d32565b634e487b7160e01b5f52604160045260245ffd5b604051601f8201601f1916810167ffffffffffffffff81118282101715610daf57610daf610d72565b604052919050565b5f67ffffffffffffffff821115610dd057610dd0610d72565b5060051b60200190565b5f82601f830112610de9575f80fd5b81356020610dfe610df983610db7565b610d86565b8083825260208201915060208460051b870101935086841115610e1f575f80fd5b602086015b84811015610e3b5780358352918301918301610e24565b509695505050505050565b5f805f60608486031215610e58575f80fd5b610e6184610c9e565b9250602084013567ffffffffffffffff80821115610e7d575f80fd5b610e8987838801610dda565b93506040860135915080821115610e9e575f80fd5b50610eab86828701610dda565b9150509250925092565b5f82601f830112610ec4575f80fd5b813567ffffffffffffffff811115610ede57610ede610d72565b610ef1601f8201601f1916602001610d86565b818152846020838601011115610f05575f80fd5b816020850160208301375f918101602001919091529392505050565b5f805f805f60a08688031215610f35575f80fd5b610f3e86610c9e565b9450610f4c60208701610c9e565b9350604086013567ffffffffffffffff80821115610f68575f80fd5b610f7489838a01610dda565b94506060880135915080821115610f89575f80fd5b610f9589838a01610dda565b93506080880135915080821115610faa575f80fd5b50610fb788828901610eb5565b9150509295509295909350565b5f8060408385031215610fd5575f80fd5b823567ffffffffffffffff80821115610fec575f80fd5b818501915085601f830112610fff575f80fd5b8135602061100f610df983610db7565b82815260059290921b8401810191818101908984111561102d575f80fd5b948201945b838610156110525761104386610c9e565b82529482019490820190611032565b96505086013592505080821115611067575f80fd5b5061107485828601610dda565b9150509250929050565b5f815180845260208085019450602084015f5b838110156110ad57815187529582019590820190600101611091565b509495945050505050565b602081525f610d14602083018461107e565b5f80604083850312156110db575f80fd5b50508035926020909101359150565b5f80604083850312156110fb575f80fd5b61110483610c9e565b915060208301358015158114611118575f80fd5b809150509250929050565b5f8060408385031215611134575f80fd5b61113d83610c9e565b915061114b60208401610c9e565b90509250929050565b5f805f805f60a08688031215611168575f80fd5b61117186610c9e565b945061117f60208701610c9e565b93506040860135925060608601359150608086013567ffffffffffffffff8111156111a8575f80fd5b610fb788828901610eb5565b600181811c908216806111c857607f821691505b6020821081036111e657634e487b7160e01b5f52602260045260245ffd5b50919050565b634e487b7160e01b5f52603260045260245ffd5b634e487b7160e01b5f52601160045260245ffd5b8181038181111561023d5761023d611200565b8082018082111561023d5761023d611200565b604081525f61124c604083018561107e565b828103602084015261125e818561107e565b95945050505050565b6001600160a01b03868116825285166020820152604081018490526060810183905260a0608082018190525f906112a090830184610d32565b979650505050505050565b5f602082840312156112bb575f80fd5b8151610d1481610ce1565b6001600160a01b0386811682528516602082015260a0604082018190525f906112f19083018661107e565b8281036060840152611303818661107e565b905082810360808401526113178185610d32565b9897505050505050505056fea2646970667358221220708d813e048a13d9ddbb68ef1d7996ba2d0fd98dc762eae2f4752fe91cbd131064736f6c63430008190033",
					"opcodes": "PUSH1 0x80 PUSH1 0x40 MSTORE CALLVALUE DUP1 ISZERO PUSH2 0xF JUMPI PUSH0 DUP1 REVERT JUMPDEST POP PUSH1 0x40 MLOAD PUSH2 0x15B6 CODESIZE SUB DUP1 PUSH2 0x15B6 DUP4 CODECOPY DUP2 ADD PUSH1 0x40 DUP2 SWAP1 MSTORE PUSH2 0x2E SWAP2 PUSH2 0x63 JUMP JUMPDEST DUP1 PUSH2 0x38 DUP2 PUSH2 0x3F JUMP JUMPDEST POP POP PUSH2 0x250 JUMP JUMPDEST PUSH1 0x2 PUSH2 0x4B DUP3 DUP3 PUSH2 0x191 JUMP JUMPDEST POP POP JUMP JUMPDEST PUSH4 0x4E487B71 PUSH1 0xE0 SHL PUSH0 MSTORE PUSH1 0x41 PUSH1 0x4 MSTORE PUSH1 0x24 PUSH0 REVERT JUMPDEST PUSH0 PUSH1 0x20 DUP3 DUP5 SUB SLT ISZERO PUSH2 0x73 JUMPI PUSH0 DUP1 REVERT JUMPDEST DUP2 MLOAD PUSH1 0x1 PUSH1 0x1 PUSH1 0x40 SHL SUB DUP1 DUP3 GT ISZERO PUSH2 0x89 JUMPI PUSH0 DUP1 REVERT JUMPDEST DUP2 DUP5 ADD SWAP2 POP DUP5 PUSH1 0x1F DUP4 ADD SLT PUSH2 0x9C JUMPI PUSH0 DUP1 REVERT JUMPDEST DUP2 MLOAD DUP2 DUP2 GT ISZERO PUSH2 0xAE JUMPI PUSH2 0xAE PUSH2 0x4F JUMP JUMPDEST PUSH1 0x40 MLOAD PUSH1 0x1F DUP3 ADD PUSH1 0x1F NOT SWAP1 DUP2 AND PUSH1 0x3F ADD AND DUP2 ADD SWAP1 DUP4 DUP3 GT DUP2 DUP4 LT OR ISZERO PUSH2 0xD6 JUMPI PUSH2 0xD6 PUSH2 0x4F JUMP JUMPDEST DUP2 PUSH1 0x40 MSTORE DUP3 DUP2 MSTORE DUP8 PUSH1 0x20 DUP5 DUP8 ADD ADD GT ISZERO PUSH2 0xEE JUMPI PUSH0 DUP1 REVERT JUMPDEST DUP3 PUSH1 0x20 DUP7 ADD PUSH1 0x20 DUP4 ADD MCOPY PUSH0 SWAP3 DUP2 ADD PUSH1 0x20 ADD SWAP3 SWAP1 SWAP3 MSTORE POP SWAP6 SWAP5 POP POP POP POP POP JUMP JUMPDEST PUSH1 0x1 DUP2 DUP2 SHR SWAP1 DUP3 AND DUP1 PUSH2 0x121 JUMPI PUSH1 0x7F DUP3 AND SWAP2 POP JUMPDEST PUSH1 0x20 DUP3 LT DUP2 SUB PUSH2 0x13F JUMPI PUSH4 0x4E487B71 PUSH1 0xE0 SHL PUSH0 MSTORE PUSH1 0x22 PUSH1 0x4 MSTORE PUSH1 0x24 PUSH0 REVERT JUMPDEST POP SWAP2 SWAP1 POP JUMP JUMPDEST PUSH1 0x1F DUP3 GT ISZERO PUSH2 0x18C JUMPI DUP1 PUSH0 MSTORE PUSH1 0x20 PUSH0 KECCAK256 PUSH1 0x1F DUP5 ADD PUSH1 0x5 SHR DUP2 ADD PUSH1 0x20 DUP6 LT ISZERO PUSH2 0x16A JUMPI POP DUP1 JUMPDEST PUSH1 0x1F DUP5 ADD PUSH1 0x5 SHR DUP3 ADD SWAP2 POP JUMPDEST DUP2 DUP2 LT ISZERO PUSH2 0x189 JUMPI PUSH0 DUP2 SSTORE PUSH1 0x1 ADD PUSH2 0x176 JUMP JUMPDEST POP POP JUMPDEST POP POP POP JUMP JUMPDEST DUP2 MLOAD PUSH1 0x1 PUSH1 0x1 PUSH1 0x40 SHL SUB DUP2 GT ISZERO PUSH2 0x1AA JUMPI PUSH2 0x1AA PUSH2 0x4F JUMP JUMPDEST PUSH2 0x1BE DUP2 PUSH2 0x1B8 DUP5 SLOAD PUSH2 0x10D JUMP JUMPDEST DUP5 PUSH2 0x145 JUMP JUMPDEST PUSH1 0x20 DUP1 PUSH1 0x1F DUP4 GT PUSH1 0x1 DUP2 EQ PUSH2 0x1F1 JUMPI PUSH0 DUP5 ISZERO PUSH2 0x1DA JUMPI POP DUP6 DUP4 ADD MLOAD JUMPDEST PUSH0 NOT PUSH1 0x3 DUP7 SWAP1 SHL SHR NOT AND PUSH1 0x1 DUP6 SWAP1 SHL OR DUP6 SSTORE PUSH2 0x248 JUMP JUMPDEST PUSH0 DUP6 DUP2 MSTORE PUSH1 0x20 DUP2 KECCAK256 PUSH1 0x1F NOT DUP7 AND SWAP2 JUMPDEST DUP3 DUP2 LT ISZERO PUSH2 0x21F JUMPI DUP9 DUP7 ADD MLOAD DUP3 SSTORE SWAP5 DUP5 ADD SWAP5 PUSH1 0x1 SWAP1 SWAP2 ADD SWAP1 DUP5 ADD PUSH2 0x200 JUMP JUMPDEST POP DUP6 DUP3 LT ISZERO PUSH2 0x23C JUMPI DUP8 DUP6 ADD MLOAD PUSH0 NOT PUSH1 0x3 DUP9 SWAP1 SHL PUSH1 0xF8 AND SHR NOT AND DUP2 SSTORE JUMPDEST POP POP PUSH1 0x1 DUP5 PUSH1 0x1 SHL ADD DUP6 SSTORE JUMPDEST POP POP POP POP POP POP JUMP JUMPDEST PUSH2 0x1359 DUP1 PUSH2 0x25D PUSH0 CODECOPY PUSH0 RETURN INVALID PUSH1 0x80 PUSH1 0x40 MSTORE CALLVALUE DUP1 ISZERO PUSH2 0xF JUMPI PUSH0 DUP1 REVERT JUMPDEST POP PUSH1 0x4 CALLDATASIZE LT PUSH2 0xCA JUMPI PUSH0 CALLDATALOAD PUSH1 0xE0 SHR DUP1 PUSH4 0x4E1273F4 GT PUSH2 0x88 JUMPI DUP1 PUSH4 0xA22CB465 GT PUSH2 0x63 JUMPI DUP1 PUSH4 0xA22CB465 EQ PUSH2 0x1C4 JUMPI DUP1 PUSH4 0xBD85B039 EQ PUSH2 0x1D7 JUMPI DUP1 PUSH4 0xE985E9C5 EQ PUSH2 0x1F6 JUMPI DUP1 PUSH4 0xF242432A EQ PUSH2 0x209 JUMPI PUSH0 DUP1 REVERT JUMPDEST DUP1 PUSH4 0x4E1273F4 EQ PUSH2 0x17E JUMPI DUP1 PUSH4 0x8E81C64D EQ PUSH2 0x19E JUMPI DUP1 PUSH4 0x93442218 EQ PUSH2 0x1B1 JUMPI PUSH0 DUP1 REVERT JUMPDEST DUP1 PUSH3 0xFDD58E EQ PUSH2 0xCE JUMPI DUP1 PUSH4 0x1FFC9A7 EQ PUSH2 0xF4 JUMPI DUP1 PUSH4 0xE89341C EQ PUSH2 0x117 JUMPI DUP1 PUSH4 0x1CB0D481 EQ PUSH2 0x137 JUMPI DUP1 PUSH4 0x20295559 EQ PUSH2 0x14C JUMPI DUP1 PUSH4 0x2EB2C2D6 EQ PUSH2 0x16B JUMPI JUMPDEST PUSH0 DUP1 REVERT JUMPDEST PUSH2 0xE1 PUSH2 0xDC CALLDATASIZE PUSH1 0x4 PUSH2 0xCB9 JUMP JUMPDEST PUSH2 0x21C JUMP JUMPDEST PUSH1 0x40 MLOAD SWAP1 DUP2 MSTORE PUSH1 0x20 ADD JUMPDEST PUSH1 0x40 MLOAD DUP1 SWAP2 SUB SWAP1 RETURN JUMPDEST PUSH2 0x107 PUSH2 0x102 CALLDATASIZE PUSH1 0x4 PUSH2 0xCF9 JUMP JUMPDEST PUSH2 0x243 JUMP JUMPDEST PUSH1 0x40 MLOAD SWAP1 ISZERO ISZERO DUP2 MSTORE PUSH1 0x20 ADD PUSH2 0xEB JUMP JUMPDEST PUSH2 0x12A PUSH2 0x125 CALLDATASIZE PUSH1 0x4 PUSH2 0xD1B JUMP JUMPDEST PUSH2 0x292 JUMP JUMPDEST PUSH1 0x40 MLOAD PUSH2 0xEB SWAP2 SWAP1 PUSH2 0xD60 JUMP JUMPDEST PUSH2 0x14A PUSH2 0x145 CALLDATASIZE PUSH1 0x4 PUSH2 0xE46 JUMP JUMPDEST PUSH2 0x324 JUMP JUMPDEST STOP JUMPDEST PUSH2 0xE1 PUSH2 0x15A CALLDATASIZE PUSH1 0x4 PUSH2 0xD1B JUMP JUMPDEST PUSH0 SWAP1 DUP2 MSTORE PUSH1 0x3 PUSH1 0x20 MSTORE PUSH1 0x40 SWAP1 KECCAK256 SLOAD SWAP1 JUMP JUMPDEST PUSH2 0x14A PUSH2 0x179 CALLDATASIZE PUSH1 0x4 PUSH2 0xF21 JUMP JUMPDEST PUSH2 0x344 JUMP JUMPDEST PUSH2 0x191 PUSH2 0x18C CALLDATASIZE PUSH1 0x4 PUSH2 0xFC4 JUMP JUMPDEST PUSH2 0x3B0 JUMP JUMPDEST PUSH1 0x40 MLOAD PUSH2 0xEB SWAP2 SWAP1 PUSH2 0x10B8 JUMP JUMPDEST PUSH2 0x14A PUSH2 0x1AC CALLDATASIZE PUSH1 0x4 PUSH2 0x10CA JUMP JUMPDEST PUSH2 0x47B JUMP JUMPDEST PUSH2 0x14A PUSH2 0x1BF CALLDATASIZE PUSH1 0x4 PUSH2 0xD1B JUMP JUMPDEST PUSH2 0x505 JUMP JUMPDEST PUSH2 0x14A PUSH2 0x1D2 CALLDATASIZE PUSH1 0x4 PUSH2 0x10EA JUMP JUMPDEST PUSH2 0x557 JUMP JUMPDEST PUSH2 0xE1 PUSH2 0x1E5 CALLDATASIZE PUSH1 0x4 PUSH2 0xD1B JUMP JUMPDEST PUSH1 0x3 PUSH1 0x20 MSTORE PUSH0 SWAP1 DUP2 MSTORE PUSH1 0x40 SWAP1 KECCAK256 SLOAD DUP2 JUMP JUMPDEST PUSH2 0x107 PUSH2 0x204 CALLDATASIZE PUSH1 0x4 PUSH2 0x1123 JUMP JUMPDEST PUSH2 0x562 JUMP JUMPDEST PUSH2 0x14A PUSH2 0x217 CALLDATASIZE PUSH1 0x4 PUSH2 0x1154 JUMP JUMPDEST PUSH2 0x58F JUMP JUMPDEST PUSH0 DUP2 DUP2 MSTORE PUSH1 0x20 DUP2 DUP2 MSTORE PUSH1 0x40 DUP1 DUP4 KECCAK256 PUSH1 0x1 PUSH1 0x1 PUSH1 0xA0 SHL SUB DUP7 AND DUP5 MSTORE SWAP1 SWAP2 MSTORE SWAP1 KECCAK256 SLOAD JUMPDEST SWAP3 SWAP2 POP POP JUMP JUMPDEST PUSH0 PUSH1 0x1 PUSH1 0x1 PUSH1 0xE0 SHL SUB NOT DUP3 AND PUSH4 0x6CDB3D13 PUSH1 0xE1 SHL EQ DUP1 PUSH2 0x273 JUMPI POP PUSH1 0x1 PUSH1 0x1 PUSH1 0xE0 SHL SUB NOT DUP3 AND PUSH4 0x3A24D07 PUSH1 0xE2 SHL EQ JUMPDEST DUP1 PUSH2 0x23D JUMPI POP PUSH4 0x1FFC9A7 PUSH1 0xE0 SHL PUSH1 0x1 PUSH1 0x1 PUSH1 0xE0 SHL SUB NOT DUP4 AND EQ PUSH2 0x23D JUMP JUMPDEST PUSH1 0x60 PUSH1 0x2 DUP1 SLOAD PUSH2 0x2A1 SWAP1 PUSH2 0x11B4 JUMP JUMPDEST DUP1 PUSH1 0x1F ADD PUSH1 0x20 DUP1 SWAP2 DIV MUL PUSH1 0x20 ADD PUSH1 0x40 MLOAD SWAP1 DUP2 ADD PUSH1 0x40 MSTORE DUP1 SWAP3 SWAP2 SWAP1 DUP2 DUP2 MSTORE PUSH1 0x20 ADD DUP3 DUP1 SLOAD PUSH2 0x2CD SWAP1 PUSH2 0x11B4 JUMP JUMPDEST DUP1 ISZERO PUSH2 0x318 JUMPI DUP1 PUSH1 0x1F LT PUSH2 0x2EF JUMPI PUSH2 0x100 DUP1 DUP4 SLOAD DIV MUL DUP4 MSTORE SWAP2 PUSH1 0x20 ADD SWAP2 PUSH2 0x318 JUMP JUMPDEST DUP3 ADD SWAP2 SWAP1 PUSH0 MSTORE PUSH1 0x20 PUSH0 KECCAK256 SWAP1 JUMPDEST DUP2 SLOAD DUP2 MSTORE SWAP1 PUSH1 0x1 ADD SWAP1 PUSH1 0x20 ADD DUP1 DUP4 GT PUSH2 0x2FB JUMPI DUP3 SWAP1 SUB PUSH1 0x1F AND DUP3 ADD SWAP2 JUMPDEST POP POP POP POP POP SWAP1 POP SWAP2 SWAP1 POP JUMP JUMPDEST PUSH2 0x33F CALLER DUP5 DUP5 DUP5 PUSH1 0x40 MLOAD DUP1 PUSH1 0x20 ADD PUSH1 0x40 MSTORE DUP1 PUSH0 DUP2 MSTORE POP PUSH2 0x5EE JUMP JUMPDEST POP POP POP JUMP JUMPDEST CALLER PUSH1 0x1 PUSH1 0x1 PUSH1 0xA0 SHL SUB DUP7 AND DUP2 EQ DUP1 ISZERO SWAP1 PUSH2 0x365 JUMPI POP PUSH2 0x363 DUP7 DUP3 PUSH2 0x562 JUMP JUMPDEST ISZERO JUMPDEST ISZERO PUSH2 0x39B JUMPI PUSH1 0x40 MLOAD PUSH4 0x711BEC91 PUSH1 0xE1 SHL DUP2 MSTORE PUSH1 0x1 PUSH1 0x1 PUSH1 0xA0 SHL SUB DUP1 DUP4 AND PUSH1 0x4 DUP4 ADD MSTORE DUP8 AND PUSH1 0x24 DUP3 ADD MSTORE PUSH1 0x44 ADD JUMPDEST PUSH1 0x40 MLOAD DUP1 SWAP2 SUB SWAP1 REVERT JUMPDEST PUSH2 0x3A8 DUP7 DUP7 DUP7 DUP7 DUP7 PUSH2 0x5EE JUMP JUMPDEST POP POP POP POP POP POP JUMP JUMPDEST PUSH1 0x60 DUP2 MLOAD DUP4 MLOAD EQ PUSH2 0x3E1 JUMPI DUP2 MLOAD DUP4 MLOAD PUSH1 0x40 MLOAD PUSH4 0x5B059991 PUSH1 0xE0 SHL DUP2 MSTORE PUSH1 0x4 DUP2 ADD SWAP3 SWAP1 SWAP3 MSTORE PUSH1 0x24 DUP3 ADD MSTORE PUSH1 0x44 ADD PUSH2 0x392 JUMP JUMPDEST PUSH0 DUP4 MLOAD PUSH8 0xFFFFFFFFFFFFFFFF DUP2 GT ISZERO PUSH2 0x3FC JUMPI PUSH2 0x3FC PUSH2 0xD72 JUMP JUMPDEST PUSH1 0x40 MLOAD SWAP1 DUP1 DUP3 MSTORE DUP1 PUSH1 0x20 MUL PUSH1 0x20 ADD DUP3 ADD PUSH1 0x40 MSTORE DUP1 ISZERO PUSH2 0x425 JUMPI DUP2 PUSH1 0x20 ADD PUSH1 0x20 DUP3 MUL DUP1 CALLDATASIZE DUP4 CALLDATACOPY ADD SWAP1 POP JUMPDEST POP SWAP1 POP PUSH0 JUMPDEST DUP5 MLOAD DUP2 LT ISZERO PUSH2 0x473 JUMPI PUSH1 0x20 DUP1 DUP3 MUL DUP7 ADD ADD MLOAD PUSH2 0x44E SWAP1 PUSH1 0x20 DUP1 DUP5 MUL DUP8 ADD ADD MLOAD PUSH2 0x21C JUMP JUMPDEST DUP3 DUP3 DUP2 MLOAD DUP2 LT PUSH2 0x460 JUMPI PUSH2 0x460 PUSH2 0x11EC JUMP JUMPDEST PUSH1 0x20 SWAP1 DUP2 MUL SWAP2 SWAP1 SWAP2 ADD ADD MSTORE PUSH1 0x1 ADD PUSH2 0x42A JUMP JUMPDEST POP SWAP4 SWAP3 POP POP POP JUMP JUMPDEST DUP1 PUSH2 0x486 CALLER DUP5 PUSH2 0x21C JUMP JUMPDEST LT ISZERO PUSH2 0x4D4 JUMPI PUSH1 0x40 MLOAD PUSH3 0x461BCD PUSH1 0xE5 SHL DUP2 MSTORE PUSH1 0x20 PUSH1 0x4 DUP3 ADD MSTORE PUSH1 0x1C PUSH1 0x24 DUP3 ADD MSTORE PUSH32 0x496E73756666696369656E742062616C616E636520746F206275726E00000000 PUSH1 0x44 DUP3 ADD MSTORE PUSH1 0x64 ADD PUSH2 0x392 JUMP JUMPDEST PUSH2 0x4DF CALLER DUP4 DUP4 PUSH2 0x653 JUMP JUMPDEST PUSH0 DUP3 DUP2 MSTORE PUSH1 0x3 PUSH1 0x20 MSTORE PUSH1 0x40 DUP2 KECCAK256 DUP1 SLOAD DUP4 SWAP3 SWAP1 PUSH2 0x4FC SWAP1 DUP5 SWAP1 PUSH2 0x1214 JUMP JUMPDEST SWAP1 SWAP2 SSTORE POP POP POP POP JUMP JUMPDEST PUSH1 0x3 PUSH1 0x20 SWAP1 DUP2 MSTORE PUSH32 0x3617319A054D772F909F7C479A2CEBE5066E836A939412E32403C99029B92EFF SLOAD PUSH0 DUP2 DUP2 MSTORE PUSH1 0x40 DUP1 DUP3 KECCAK256 DUP6 SWAP1 SSTORE DUP1 MLOAD SWAP4 DUP5 ADD SWAP1 MSTORE DUP3 MSTORE SWAP1 PUSH2 0x553 SWAP1 ADDRESS SWAP1 DUP4 SWAP1 DUP6 SWAP1 PUSH2 0x6B9 JUMP JUMPDEST POP POP JUMP JUMPDEST PUSH2 0x553 CALLER DUP4 DUP4 PUSH2 0x714 JUMP JUMPDEST PUSH1 0x1 PUSH1 0x1 PUSH1 0xA0 SHL SUB SWAP2 DUP3 AND PUSH0 SWAP1 DUP2 MSTORE PUSH1 0x1 PUSH1 0x20 SWAP1 DUP2 MSTORE PUSH1 0x40 DUP1 DUP4 KECCAK256 SWAP4 SWAP1 SWAP5 AND DUP3 MSTORE SWAP2 SWAP1 SWAP2 MSTORE KECCAK256 SLOAD PUSH1 0xFF AND SWAP1 JUMP JUMPDEST CALLER PUSH1 0x1 PUSH1 0x1 PUSH1 0xA0 SHL SUB DUP7 AND DUP2 EQ DUP1 ISZERO SWAP1 PUSH2 0x5B0 JUMPI POP PUSH2 0x5AE DUP7 DUP3 PUSH2 0x562 JUMP JUMPDEST ISZERO JUMPDEST ISZERO PUSH2 0x5E1 JUMPI PUSH1 0x40 MLOAD PUSH4 0x711BEC91 PUSH1 0xE1 SHL DUP2 MSTORE PUSH1 0x1 PUSH1 0x1 PUSH1 0xA0 SHL SUB DUP1 DUP4 AND PUSH1 0x4 DUP4 ADD MSTORE DUP8 AND PUSH1 0x24 DUP3 ADD MSTORE PUSH1 0x44 ADD PUSH2 0x392 JUMP JUMPDEST PUSH2 0x3A8 DUP7 DUP7 DUP7 DUP7 DUP7 PUSH2 0x7A8 JUMP JUMPDEST PUSH1 0x1 PUSH1 0x1 PUSH1 0xA0 SHL SUB DUP5 AND PUSH2 0x617 JUMPI PUSH1 0x40 MLOAD PUSH4 0x2BFA23E7 PUSH1 0xE1 SHL DUP2 MSTORE PUSH0 PUSH1 0x4 DUP3 ADD MSTORE PUSH1 0x24 ADD PUSH2 0x392 JUMP JUMPDEST PUSH1 0x1 PUSH1 0x1 PUSH1 0xA0 SHL SUB DUP6 AND PUSH2 0x63F JUMPI PUSH1 0x40 MLOAD PUSH3 0x6A0D45 PUSH1 0xE2 SHL DUP2 MSTORE PUSH0 PUSH1 0x4 DUP3 ADD MSTORE PUSH1 0x24 ADD PUSH2 0x392 JUMP JUMPDEST PUSH2 0x64C DUP6 DUP6 DUP6 DUP6 DUP6 PUSH2 0x834 JUMP JUMPDEST POP POP POP POP POP JUMP JUMPDEST PUSH1 0x1 PUSH1 0x1 PUSH1 0xA0 SHL SUB DUP4 AND PUSH2 0x67B JUMPI PUSH1 0x40 MLOAD PUSH3 0x6A0D45 PUSH1 0xE2 SHL DUP2 MSTORE PUSH0 PUSH1 0x4 DUP3 ADD MSTORE PUSH1 0x24 ADD PUSH2 0x392 JUMP JUMPDEST PUSH1 0x40 DUP1 MLOAD PUSH1 0x1 DUP1 DUP3 MSTORE PUSH1 0x20 DUP3 ADD DUP6 SWAP1 MSTORE DUP2 DUP4 ADD SWAP1 DUP2 MSTORE PUSH1 0x60 DUP3 ADD DUP5 SWAP1 MSTORE PUSH1 0xA0 DUP3 ADD SWAP1 SWAP3 MSTORE PUSH0 PUSH1 0x80 DUP3 ADD DUP2 DUP2 MSTORE SWAP2 SWAP3 SWAP2 PUSH2 0x64C SWAP2 DUP8 SWAP2 DUP6 SWAP1 DUP6 SWAP1 PUSH2 0x834 JUMP JUMPDEST PUSH1 0x1 PUSH1 0x1 PUSH1 0xA0 SHL SUB DUP5 AND PUSH2 0x6E2 JUMPI PUSH1 0x40 MLOAD PUSH4 0x2BFA23E7 PUSH1 0xE1 SHL DUP2 MSTORE PUSH0 PUSH1 0x4 DUP3 ADD MSTORE PUSH1 0x24 ADD PUSH2 0x392 JUMP JUMPDEST PUSH1 0x40 DUP1 MLOAD PUSH1 0x1 DUP1 DUP3 MSTORE PUSH1 0x20 DUP3 ADD DUP7 SWAP1 MSTORE DUP2 DUP4 ADD SWAP1 DUP2 MSTORE PUSH1 0x60 DUP3 ADD DUP6 SWAP1 MSTORE PUSH1 0x80 DUP3 ADD SWAP1 SWAP3 MSTORE SWAP1 PUSH2 0x3A8 PUSH0 DUP8 DUP5 DUP5 DUP8 PUSH2 0x834 JUMP JUMPDEST PUSH1 0x1 PUSH1 0x1 PUSH1 0xA0 SHL SUB DUP3 AND PUSH2 0x73C JUMPI PUSH1 0x40 MLOAD PUSH3 0xCED3E1 PUSH1 0xE8 SHL DUP2 MSTORE PUSH0 PUSH1 0x4 DUP3 ADD MSTORE PUSH1 0x24 ADD PUSH2 0x392 JUMP JUMPDEST PUSH1 0x1 PUSH1 0x1 PUSH1 0xA0 SHL SUB DUP4 DUP2 AND PUSH0 DUP2 DUP2 MSTORE PUSH1 0x1 PUSH1 0x20 SWAP1 DUP2 MSTORE PUSH1 0x40 DUP1 DUP4 KECCAK256 SWAP5 DUP8 AND DUP1 DUP5 MSTORE SWAP5 DUP3 MSTORE SWAP2 DUP3 SWAP1 KECCAK256 DUP1 SLOAD PUSH1 0xFF NOT AND DUP7 ISZERO ISZERO SWAP1 DUP2 OR SWAP1 SWAP2 SSTORE SWAP2 MLOAD SWAP2 DUP3 MSTORE PUSH32 0x17307EAB39AB6107E8899845AD3D59BD9653F200F220920489CA2B5937696C31 SWAP2 ADD PUSH1 0x40 MLOAD DUP1 SWAP2 SUB SWAP1 LOG3 POP POP POP JUMP JUMPDEST PUSH1 0x1 PUSH1 0x1 PUSH1 0xA0 SHL SUB DUP5 AND PUSH2 0x7D1 JUMPI PUSH1 0x40 MLOAD PUSH4 0x2BFA23E7 PUSH1 0xE1 SHL DUP2 MSTORE PUSH0 PUSH1 0x4 DUP3 ADD MSTORE PUSH1 0x24 ADD PUSH2 0x392 JUMP JUMPDEST PUSH1 0x1 PUSH1 0x1 PUSH1 0xA0 SHL SUB DUP6 AND PUSH2 0x7F9 JUMPI PUSH1 0x40 MLOAD PUSH3 0x6A0D45 PUSH1 0xE2 SHL DUP2 MSTORE PUSH0 PUSH1 0x4 DUP3 ADD MSTORE PUSH1 0x24 ADD PUSH2 0x392 JUMP JUMPDEST PUSH1 0x40 DUP1 MLOAD PUSH1 0x1 DUP1 DUP3 MSTORE PUSH1 0x20 DUP3 ADD DUP7 SWAP1 MSTORE DUP2 DUP4 ADD SWAP1 DUP2 MSTORE PUSH1 0x60 DUP3 ADD DUP6 SWAP1 MSTORE PUSH1 0x80 DUP3 ADD SWAP1 SWAP3 MSTORE SWAP1 PUSH2 0x82B DUP8 DUP8 DUP5 DUP5 DUP8 PUSH2 0x834 JUMP JUMPDEST POP POP POP POP POP POP POP JUMP JUMPDEST PUSH2 0x840 DUP6 DUP6 DUP6 DUP6 PUSH2 0x887 JUMP JUMPDEST PUSH1 0x1 PUSH1 0x1 PUSH1 0xA0 SHL SUB DUP5 AND ISZERO PUSH2 0x64C JUMPI DUP3 MLOAD CALLER SWAP1 PUSH1 0x1 SUB PUSH2 0x879 JUMPI PUSH1 0x20 DUP5 DUP2 ADD MLOAD SWAP1 DUP5 ADD MLOAD PUSH2 0x872 DUP4 DUP10 DUP10 DUP6 DUP6 DUP10 PUSH2 0xA96 JUMP JUMPDEST POP POP PUSH2 0x3A8 JUMP JUMPDEST PUSH2 0x3A8 DUP2 DUP8 DUP8 DUP8 DUP8 DUP8 PUSH2 0xBB7 JUMP JUMPDEST DUP1 MLOAD DUP3 MLOAD EQ PUSH2 0x8B6 JUMPI DUP2 MLOAD DUP2 MLOAD PUSH1 0x40 MLOAD PUSH4 0x5B059991 PUSH1 0xE0 SHL DUP2 MSTORE PUSH1 0x4 DUP2 ADD SWAP3 SWAP1 SWAP3 MSTORE PUSH1 0x24 DUP3 ADD MSTORE PUSH1 0x44 ADD PUSH2 0x392 JUMP JUMPDEST CALLER PUSH0 JUMPDEST DUP4 MLOAD DUP2 LT ISZERO PUSH2 0x9B8 JUMPI PUSH1 0x20 DUP2 DUP2 MUL DUP6 DUP2 ADD DUP3 ADD MLOAD SWAP1 DUP6 ADD SWAP1 SWAP2 ADD MLOAD PUSH1 0x1 PUSH1 0x1 PUSH1 0xA0 SHL SUB DUP9 AND ISZERO PUSH2 0x96A JUMPI PUSH0 DUP3 DUP2 MSTORE PUSH1 0x20 DUP2 DUP2 MSTORE PUSH1 0x40 DUP1 DUP4 KECCAK256 PUSH1 0x1 PUSH1 0x1 PUSH1 0xA0 SHL SUB DUP13 AND DUP5 MSTORE SWAP1 SWAP2 MSTORE SWAP1 KECCAK256 SLOAD DUP2 DUP2 LT ISZERO PUSH2 0x944 JUMPI PUSH1 0x40 MLOAD PUSH4 0x3DEE4C5 PUSH1 0xE0 SHL DUP2 MSTORE PUSH1 0x1 PUSH1 0x1 PUSH1 0xA0 SHL SUB DUP11 AND PUSH1 0x4 DUP3 ADD MSTORE PUSH1 0x24 DUP2 ADD DUP3 SWAP1 MSTORE PUSH1 0x44 DUP2 ADD DUP4 SWAP1 MSTORE PUSH1 0x64 DUP2 ADD DUP5 SWAP1 MSTORE PUSH1 0x84 ADD PUSH2 0x392 JUMP JUMPDEST PUSH0 DUP4 DUP2 MSTORE PUSH1 0x20 DUP2 DUP2 MSTORE PUSH1 0x40 DUP1 DUP4 KECCAK256 PUSH1 0x1 PUSH1 0x1 PUSH1 0xA0 SHL SUB DUP14 AND DUP5 MSTORE SWAP1 SWAP2 MSTORE SWAP1 KECCAK256 SWAP1 DUP3 SWAP1 SUB SWAP1 SSTORE JUMPDEST PUSH1 0x1 PUSH1 0x1 PUSH1 0xA0 SHL SUB DUP8 AND ISZERO PUSH2 0x9AE JUMPI PUSH0 DUP3 DUP2 MSTORE PUSH1 0x20 DUP2 DUP2 MSTORE PUSH1 0x40 DUP1 DUP4 KECCAK256 PUSH1 0x1 PUSH1 0x1 PUSH1 0xA0 SHL SUB DUP12 AND DUP5 MSTORE SWAP1 SWAP2 MSTORE DUP2 KECCAK256 DUP1 SLOAD DUP4 SWAP3 SWAP1 PUSH2 0x9A8 SWAP1 DUP5 SWAP1 PUSH2 0x1227 JUMP JUMPDEST SWAP1 SWAP2 SSTORE POP POP JUMPDEST POP POP PUSH1 0x1 ADD PUSH2 0x8B9 JUMP JUMPDEST POP DUP3 MLOAD PUSH1 0x1 SUB PUSH2 0xA38 JUMPI PUSH1 0x20 DUP4 ADD MLOAD PUSH0 SWAP1 PUSH1 0x20 DUP5 ADD MLOAD SWAP1 SWAP2 POP DUP6 PUSH1 0x1 PUSH1 0x1 PUSH1 0xA0 SHL SUB AND DUP8 PUSH1 0x1 PUSH1 0x1 PUSH1 0xA0 SHL SUB AND DUP5 PUSH1 0x1 PUSH1 0x1 PUSH1 0xA0 SHL SUB AND PUSH32 0xC3D58168C5AE7397731D063D5BBF3D657854427343F4C083240F7AACAA2D0F62 DUP6 DUP6 PUSH1 0x40 MLOAD PUSH2 0xA29 SWAP3 SWAP2 SWAP1 SWAP2 DUP3 MSTORE PUSH1 0x20 DUP3 ADD MSTORE PUSH1 0x40 ADD SWAP1 JUMP JUMPDEST PUSH1 0x40 MLOAD DUP1 SWAP2 SUB SWAP1 LOG4 POP POP PUSH2 0x64C JUMP JUMPDEST DUP4 PUSH1 0x1 PUSH1 0x1 PUSH1 0xA0 SHL SUB AND DUP6 PUSH1 0x1 PUSH1 0x1 PUSH1 0xA0 SHL SUB AND DUP3 PUSH1 0x1 PUSH1 0x1 PUSH1 0xA0 SHL SUB AND PUSH32 0x4A39DC06D4C0DBC64B70AF90FD698A233A518AA5D07E595D983B8C0526C8F7FB DUP7 DUP7 PUSH1 0x40 MLOAD PUSH2 0xA87 SWAP3 SWAP2 SWAP1 PUSH2 0x123A JUMP JUMPDEST PUSH1 0x40 MLOAD DUP1 SWAP2 SUB SWAP1 LOG4 POP POP POP POP POP JUMP JUMPDEST PUSH1 0x1 PUSH1 0x1 PUSH1 0xA0 SHL SUB DUP5 AND EXTCODESIZE ISZERO PUSH2 0x3A8 JUMPI PUSH1 0x40 MLOAD PUSH4 0xF23A6E61 PUSH1 0xE0 SHL DUP2 MSTORE PUSH1 0x1 PUSH1 0x1 PUSH1 0xA0 SHL SUB DUP6 AND SWAP1 PUSH4 0xF23A6E61 SWAP1 PUSH2 0xADA SWAP1 DUP10 SWAP1 DUP10 SWAP1 DUP9 SWAP1 DUP9 SWAP1 DUP9 SWAP1 PUSH1 0x4 ADD PUSH2 0x1267 JUMP JUMPDEST PUSH1 0x20 PUSH1 0x40 MLOAD DUP1 DUP4 SUB DUP2 PUSH0 DUP8 GAS CALL SWAP3 POP POP POP DUP1 ISZERO PUSH2 0xB14 JUMPI POP PUSH1 0x40 DUP1 MLOAD PUSH1 0x1F RETURNDATASIZE SWAP1 DUP2 ADD PUSH1 0x1F NOT AND DUP3 ADD SWAP1 SWAP3 MSTORE PUSH2 0xB11 SWAP2 DUP2 ADD SWAP1 PUSH2 0x12AB JUMP JUMPDEST PUSH1 0x1 JUMPDEST PUSH2 0xB7B JUMPI RETURNDATASIZE DUP1 DUP1 ISZERO PUSH2 0xB41 JUMPI PUSH1 0x40 MLOAD SWAP2 POP PUSH1 0x1F NOT PUSH1 0x3F RETURNDATASIZE ADD AND DUP3 ADD PUSH1 0x40 MSTORE RETURNDATASIZE DUP3 MSTORE RETURNDATASIZE PUSH0 PUSH1 0x20 DUP5 ADD RETURNDATACOPY PUSH2 0xB46 JUMP JUMPDEST PUSH1 0x60 SWAP2 POP JUMPDEST POP DUP1 MLOAD PUSH0 SUB PUSH2 0xB73 JUMPI PUSH1 0x40 MLOAD PUSH4 0x2BFA23E7 PUSH1 0xE1 SHL DUP2 MSTORE PUSH1 0x1 PUSH1 0x1 PUSH1 0xA0 SHL SUB DUP7 AND PUSH1 0x4 DUP3 ADD MSTORE PUSH1 0x24 ADD PUSH2 0x392 JUMP JUMPDEST DUP1 MLOAD DUP2 PUSH1 0x20 ADD REVERT JUMPDEST PUSH1 0x1 PUSH1 0x1 PUSH1 0xE0 SHL SUB NOT DUP2 AND PUSH4 0xF23A6E61 PUSH1 0xE0 SHL EQ PUSH2 0x82B JUMPI PUSH1 0x40 MLOAD PUSH4 0x2BFA23E7 PUSH1 0xE1 SHL DUP2 MSTORE PUSH1 0x1 PUSH1 0x1 PUSH1 0xA0 SHL SUB DUP7 AND PUSH1 0x4 DUP3 ADD MSTORE PUSH1 0x24 ADD PUSH2 0x392 JUMP JUMPDEST PUSH1 0x1 PUSH1 0x1 PUSH1 0xA0 SHL SUB DUP5 AND EXTCODESIZE ISZERO PUSH2 0x3A8 JUMPI PUSH1 0x40 MLOAD PUSH4 0xBC197C81 PUSH1 0xE0 SHL DUP2 MSTORE PUSH1 0x1 PUSH1 0x1 PUSH1 0xA0 SHL SUB DUP6 AND SWAP1 PUSH4 0xBC197C81 SWAP1 PUSH2 0xBFB SWAP1 DUP10 SWAP1 DUP10 SWAP1 DUP9 SWAP1 DUP9 SWAP1 DUP9 SWAP1 PUSH1 0x4 ADD PUSH2 0x12C6 JUMP JUMPDEST PUSH1 0x20 PUSH1 0x40 MLOAD DUP1 DUP4 SUB DUP2 PUSH0 DUP8 GAS CALL SWAP3 POP POP POP DUP1 ISZERO PUSH2 0xC35 JUMPI POP PUSH1 0x40 DUP1 MLOAD PUSH1 0x1F RETURNDATASIZE SWAP1 DUP2 ADD PUSH1 0x1F NOT AND DUP3 ADD SWAP1 SWAP3 MSTORE PUSH2 0xC32 SWAP2 DUP2 ADD SWAP1 PUSH2 0x12AB JUMP JUMPDEST PUSH1 0x1 JUMPDEST PUSH2 0xC62 JUMPI RETURNDATASIZE DUP1 DUP1 ISZERO PUSH2 0xB41 JUMPI PUSH1 0x40 MLOAD SWAP2 POP PUSH1 0x1F NOT PUSH1 0x3F RETURNDATASIZE ADD AND DUP3 ADD PUSH1 0x40 MSTORE RETURNDATASIZE DUP3 MSTORE RETURNDATASIZE PUSH0 PUSH1 0x20 DUP5 ADD RETURNDATACOPY PUSH2 0xB46 JUMP JUMPDEST PUSH1 0x1 PUSH1 0x1 PUSH1 0xE0 SHL SUB NOT DUP2 AND PUSH4 0xBC197C81 PUSH1 0xE0 SHL EQ PUSH2 0x82B JUMPI PUSH1 0x40 MLOAD PUSH4 0x2BFA23E7 PUSH1 0xE1 SHL DUP2 MSTORE PUSH1 0x1 PUSH1 0x1 PUSH1 0xA0 SHL SUB DUP7 AND PUSH1 0x4 DUP3 ADD MSTORE PUSH1 0x24 ADD PUSH2 0x392 JUMP JUMPDEST DUP1 CALLDATALOAD PUSH1 0x1 PUSH1 0x1 PUSH1 0xA0 SHL SUB DUP2 AND DUP2 EQ PUSH2 0xCB4 JUMPI PUSH0 DUP1 REVERT JUMPDEST SWAP2 SWAP1 POP JUMP JUMPDEST PUSH0 DUP1 PUSH1 0x40 DUP4 DUP6 SUB SLT ISZERO PUSH2 0xCCA JUMPI PUSH0 DUP1 REVERT JUMPDEST PUSH2 0xCD3 DUP4 PUSH2 0xC9E JUMP JUMPDEST SWAP5 PUSH1 0x20 SWAP4 SWAP1 SWAP4 ADD CALLDATALOAD SWAP4 POP POP POP JUMP JUMPDEST PUSH1 0x1 PUSH1 0x1 PUSH1 0xE0 SHL SUB NOT DUP2 AND DUP2 EQ PUSH2 0xCF6 JUMPI PUSH0 DUP1 REVERT JUMPDEST POP JUMP JUMPDEST PUSH0 PUSH1 0x20 DUP3 DUP5 SUB SLT ISZERO PUSH2 0xD09 JUMPI PUSH0 DUP1 REVERT JUMPDEST DUP2 CALLDATALOAD PUSH2 0xD14 DUP2 PUSH2 0xCE1 JUMP JUMPDEST SWAP4 SWAP3 POP POP POP JUMP JUMPDEST PUSH0 PUSH1 0x20 DUP3 DUP5 SUB SLT ISZERO PUSH2 0xD2B JUMPI PUSH0 DUP1 REVERT JUMPDEST POP CALLDATALOAD SWAP2 SWAP1 POP JUMP JUMPDEST PUSH0 DUP2 MLOAD DUP1 DUP5 MSTORE DUP1 PUSH1 0x20 DUP5 ADD PUSH1 0x20 DUP7 ADD MCOPY PUSH0 PUSH1 0x20 DUP3 DUP7 ADD ADD MSTORE PUSH1 0x20 PUSH1 0x1F NOT PUSH1 0x1F DUP4 ADD AND DUP6 ADD ADD SWAP2 POP POP SWAP3 SWAP2 POP POP JUMP JUMPDEST PUSH1 0x20 DUP2 MSTORE PUSH0 PUSH2 0xD14 PUSH1 0x20 DUP4 ADD DUP5 PUSH2 0xD32 JUMP JUMPDEST PUSH4 0x4E487B71 PUSH1 0xE0 SHL PUSH0 MSTORE PUSH1 0x41 PUSH1 0x4 MSTORE PUSH1 0x24 PUSH0 REVERT JUMPDEST PUSH1 0x40 MLOAD PUSH1 0x1F DUP3 ADD PUSH1 0x1F NOT AND DUP2 ADD PUSH8 0xFFFFFFFFFFFFFFFF DUP2 GT DUP3 DUP3 LT OR ISZERO PUSH2 0xDAF JUMPI PUSH2 0xDAF PUSH2 0xD72 JUMP JUMPDEST PUSH1 0x40 MSTORE SWAP2 SWAP1 POP JUMP JUMPDEST PUSH0 PUSH8 0xFFFFFFFFFFFFFFFF DUP3 GT ISZERO PUSH2 0xDD0 JUMPI PUSH2 0xDD0 PUSH2 0xD72 JUMP JUMPDEST POP PUSH1 0x5 SHL PUSH1 0x20 ADD SWAP1 JUMP JUMPDEST PUSH0 DUP3 PUSH1 0x1F DUP4 ADD SLT PUSH2 0xDE9 JUMPI PUSH0 DUP1 REVERT JUMPDEST DUP2 CALLDATALOAD PUSH1 0x20 PUSH2 0xDFE PUSH2 0xDF9 DUP4 PUSH2 0xDB7 JUMP JUMPDEST PUSH2 0xD86 JUMP JUMPDEST DUP1 DUP4 DUP3 MSTORE PUSH1 0x20 DUP3 ADD SWAP2 POP PUSH1 0x20 DUP5 PUSH1 0x5 SHL DUP8 ADD ADD SWAP4 POP DUP7 DUP5 GT ISZERO PUSH2 0xE1F JUMPI PUSH0 DUP1 REVERT JUMPDEST PUSH1 0x20 DUP7 ADD JUMPDEST DUP5 DUP2 LT ISZERO PUSH2 0xE3B JUMPI DUP1 CALLDATALOAD DUP4 MSTORE SWAP2 DUP4 ADD SWAP2 DUP4 ADD PUSH2 0xE24 JUMP JUMPDEST POP SWAP7 SWAP6 POP POP POP POP POP POP JUMP JUMPDEST PUSH0 DUP1 PUSH0 PUSH1 0x60 DUP5 DUP7 SUB SLT ISZERO PUSH2 0xE58 JUMPI PUSH0 DUP1 REVERT JUMPDEST PUSH2 0xE61 DUP5 PUSH2 0xC9E JUMP JUMPDEST SWAP3 POP PUSH1 0x20 DUP5 ADD CALLDATALOAD PUSH8 0xFFFFFFFFFFFFFFFF DUP1 DUP3 GT ISZERO PUSH2 0xE7D JUMPI PUSH0 DUP1 REVERT JUMPDEST PUSH2 0xE89 DUP8 DUP4 DUP9 ADD PUSH2 0xDDA JUMP JUMPDEST SWAP4 POP PUSH1 0x40 DUP7 ADD CALLDATALOAD SWAP2 POP DUP1 DUP3 GT ISZERO PUSH2 0xE9E JUMPI PUSH0 DUP1 REVERT JUMPDEST POP PUSH2 0xEAB DUP7 DUP3 DUP8 ADD PUSH2 0xDDA JUMP JUMPDEST SWAP2 POP POP SWAP3 POP SWAP3 POP SWAP3 JUMP JUMPDEST PUSH0 DUP3 PUSH1 0x1F DUP4 ADD SLT PUSH2 0xEC4 JUMPI PUSH0 DUP1 REVERT JUMPDEST DUP2 CALLDATALOAD PUSH8 0xFFFFFFFFFFFFFFFF DUP2 GT ISZERO PUSH2 0xEDE JUMPI PUSH2 0xEDE PUSH2 0xD72 JUMP JUMPDEST PUSH2 0xEF1 PUSH1 0x1F DUP3 ADD PUSH1 0x1F NOT AND PUSH1 0x20 ADD PUSH2 0xD86 JUMP JUMPDEST DUP2 DUP2 MSTORE DUP5 PUSH1 0x20 DUP4 DUP7 ADD ADD GT ISZERO PUSH2 0xF05 JUMPI PUSH0 DUP1 REVERT JUMPDEST DUP2 PUSH1 0x20 DUP6 ADD PUSH1 0x20 DUP4 ADD CALLDATACOPY PUSH0 SWAP2 DUP2 ADD PUSH1 0x20 ADD SWAP2 SWAP1 SWAP2 MSTORE SWAP4 SWAP3 POP POP POP JUMP JUMPDEST PUSH0 DUP1 PUSH0 DUP1 PUSH0 PUSH1 0xA0 DUP7 DUP9 SUB SLT ISZERO PUSH2 0xF35 JUMPI PUSH0 DUP1 REVERT JUMPDEST PUSH2 0xF3E DUP7 PUSH2 0xC9E JUMP JUMPDEST SWAP5 POP PUSH2 0xF4C PUSH1 0x20 DUP8 ADD PUSH2 0xC9E JUMP JUMPDEST SWAP4 POP PUSH1 0x40 DUP7 ADD CALLDATALOAD PUSH8 0xFFFFFFFFFFFFFFFF DUP1 DUP3 GT ISZERO PUSH2 0xF68 JUMPI PUSH0 DUP1 REVERT JUMPDEST PUSH2 0xF74 DUP10 DUP4 DUP11 ADD PUSH2 0xDDA JUMP JUMPDEST SWAP5 POP PUSH1 0x60 DUP9 ADD CALLDATALOAD SWAP2 POP DUP1 DUP3 GT ISZERO PUSH2 0xF89 JUMPI PUSH0 DUP1 REVERT JUMPDEST PUSH2 0xF95 DUP10 DUP4 DUP11 ADD PUSH2 0xDDA JUMP JUMPDEST SWAP4 POP PUSH1 0x80 DUP9 ADD CALLDATALOAD SWAP2 POP DUP1 DUP3 GT ISZERO PUSH2 0xFAA JUMPI PUSH0 DUP1 REVERT JUMPDEST POP PUSH2 0xFB7 DUP9 DUP3 DUP10 ADD PUSH2 0xEB5 JUMP JUMPDEST SWAP2 POP POP SWAP3 SWAP6 POP SWAP3 SWAP6 SWAP1 SWAP4 POP JUMP JUMPDEST PUSH0 DUP1 PUSH1 0x40 DUP4 DUP6 SUB SLT ISZERO PUSH2 0xFD5 JUMPI PUSH0 DUP1 REVERT JUMPDEST DUP3 CALLDATALOAD PUSH8 0xFFFFFFFFFFFFFFFF DUP1 DUP3 GT ISZERO PUSH2 0xFEC JUMPI PUSH0 DUP1 REVERT JUMPDEST DUP2 DUP6 ADD SWAP2 POP DUP6 PUSH1 0x1F DUP4 ADD SLT PUSH2 0xFFF JUMPI PUSH0 DUP1 REVERT JUMPDEST DUP2 CALLDATALOAD PUSH1 0x20 PUSH2 0x100F PUSH2 0xDF9 DUP4 PUSH2 0xDB7 JUMP JUMPDEST DUP3 DUP2 MSTORE PUSH1 0x5 SWAP3 SWAP1 SWAP3 SHL DUP5 ADD DUP2 ADD SWAP2 DUP2 DUP2 ADD SWAP1 DUP10 DUP5 GT ISZERO PUSH2 0x102D JUMPI PUSH0 DUP1 REVERT JUMPDEST SWAP5 DUP3 ADD SWAP5 JUMPDEST DUP4 DUP7 LT ISZERO PUSH2 0x1052 JUMPI PUSH2 0x1043 DUP7 PUSH2 0xC9E JUMP JUMPDEST DUP3 MSTORE SWAP5 DUP3 ADD SWAP5 SWAP1 DUP3 ADD SWAP1 PUSH2 0x1032 JUMP JUMPDEST SWAP7 POP POP DUP7 ADD CALLDATALOAD SWAP3 POP POP DUP1 DUP3 GT ISZERO PUSH2 0x1067 JUMPI PUSH0 DUP1 REVERT JUMPDEST POP PUSH2 0x1074 DUP6 DUP3 DUP7 ADD PUSH2 0xDDA JUMP JUMPDEST SWAP2 POP POP SWAP3 POP SWAP3 SWAP1 POP JUMP JUMPDEST PUSH0 DUP2 MLOAD DUP1 DUP5 MSTORE PUSH1 0x20 DUP1 DUP6 ADD SWAP5 POP PUSH1 0x20 DUP5 ADD PUSH0 JUMPDEST DUP4 DUP2 LT ISZERO PUSH2 0x10AD JUMPI DUP2 MLOAD DUP8 MSTORE SWAP6 DUP3 ADD SWAP6 SWAP1 DUP3 ADD SWAP1 PUSH1 0x1 ADD PUSH2 0x1091 JUMP JUMPDEST POP SWAP5 SWAP6 SWAP5 POP POP POP POP POP JUMP JUMPDEST PUSH1 0x20 DUP2 MSTORE PUSH0 PUSH2 0xD14 PUSH1 0x20 DUP4 ADD DUP5 PUSH2 0x107E JUMP JUMPDEST PUSH0 DUP1 PUSH1 0x40 DUP4 DUP6 SUB SLT ISZERO PUSH2 0x10DB JUMPI PUSH0 DUP1 REVERT JUMPDEST POP POP DUP1 CALLDATALOAD SWAP3 PUSH1 0x20 SWAP1 SWAP2 ADD CALLDATALOAD SWAP2 POP JUMP JUMPDEST PUSH0 DUP1 PUSH1 0x40 DUP4 DUP6 SUB SLT ISZERO PUSH2 0x10FB JUMPI PUSH0 DUP1 REVERT JUMPDEST PUSH2 0x1104 DUP4 PUSH2 0xC9E JUMP JUMPDEST SWAP2 POP PUSH1 0x20 DUP4 ADD CALLDATALOAD DUP1 ISZERO ISZERO DUP2 EQ PUSH2 0x1118 JUMPI PUSH0 DUP1 REVERT JUMPDEST DUP1 SWAP2 POP POP SWAP3 POP SWAP3 SWAP1 POP JUMP JUMPDEST PUSH0 DUP1 PUSH1 0x40 DUP4 DUP6 SUB SLT ISZERO PUSH2 0x1134 JUMPI PUSH0 DUP1 REVERT JUMPDEST PUSH2 0x113D DUP4 PUSH2 0xC9E JUMP JUMPDEST SWAP2 POP PUSH2 0x114B PUSH1 0x20 DUP5 ADD PUSH2 0xC9E JUMP JUMPDEST SWAP1 POP SWAP3 POP SWAP3 SWAP1 POP JUMP JUMPDEST PUSH0 DUP1 PUSH0 DUP1 PUSH0 PUSH1 0xA0 DUP7 DUP9 SUB SLT ISZERO PUSH2 0x1168 JUMPI PUSH0 DUP1 REVERT JUMPDEST PUSH2 0x1171 DUP7 PUSH2 0xC9E JUMP JUMPDEST SWAP5 POP PUSH2 0x117F PUSH1 0x20 DUP8 ADD PUSH2 0xC9E JUMP JUMPDEST SWAP4 POP PUSH1 0x40 DUP7 ADD CALLDATALOAD SWAP3 POP PUSH1 0x60 DUP7 ADD CALLDATALOAD SWAP2 POP PUSH1 0x80 DUP7 ADD CALLDATALOAD PUSH8 0xFFFFFFFFFFFFFFFF DUP2 GT ISZERO PUSH2 0x11A8 JUMPI PUSH0 DUP1 REVERT JUMPDEST PUSH2 0xFB7 DUP9 DUP3 DUP10 ADD PUSH2 0xEB5 JUMP JUMPDEST PUSH1 0x1 DUP2 DUP2 SHR SWAP1 DUP3 AND DUP1 PUSH2 0x11C8 JUMPI PUSH1 0x7F DUP3 AND SWAP2 POP JUMPDEST PUSH1 0x20 DUP3 LT DUP2 SUB PUSH2 0x11E6 JUMPI PUSH4 0x4E487B71 PUSH1 0xE0 SHL PUSH0 MSTORE PUSH1 0x22 PUSH1 0x4 MSTORE PUSH1 0x24 PUSH0 REVERT JUMPDEST POP SWAP2 SWAP1 POP JUMP JUMPDEST PUSH4 0x4E487B71 PUSH1 0xE0 SHL PUSH0 MSTORE PUSH1 0x32 PUSH1 0x4 MSTORE PUSH1 0x24 PUSH0 REVERT JUMPDEST PUSH4 0x4E487B71 PUSH1 0xE0 SHL PUSH0 MSTORE PUSH1 0x11 PUSH1 0x4 MSTORE PUSH1 0x24 PUSH0 REVERT JUMPDEST DUP2 DUP2 SUB DUP2 DUP2 GT ISZERO PUSH2 0x23D JUMPI PUSH2 0x23D PUSH2 0x1200 JUMP JUMPDEST DUP1 DUP3 ADD DUP1 DUP3 GT ISZERO PUSH2 0x23D JUMPI PUSH2 0x23D PUSH2 0x1200 JUMP JUMPDEST PUSH1 0x40 DUP2 MSTORE PUSH0 PUSH2 0x124C PUSH1 0x40 DUP4 ADD DUP6 PUSH2 0x107E JUMP JUMPDEST DUP3 DUP2 SUB PUSH1 0x20 DUP5 ADD MSTORE PUSH2 0x125E DUP2 DUP6 PUSH2 0x107E JUMP JUMPDEST SWAP6 SWAP5 POP POP POP POP POP JUMP JUMPDEST PUSH1 0x1 PUSH1 0x1 PUSH1 0xA0 SHL SUB DUP7 DUP2 AND DUP3 MSTORE DUP6 AND PUSH1 0x20 DUP3 ADD MSTORE PUSH1 0x40 DUP2 ADD DUP5 SWAP1 MSTORE PUSH1 0x60 DUP2 ADD DUP4 SWAP1 MSTORE PUSH1 0xA0 PUSH1 0x80 DUP3 ADD DUP2 SWAP1 MSTORE PUSH0 SWAP1 PUSH2 0x12A0 SWAP1 DUP4 ADD DUP5 PUSH2 0xD32 JUMP JUMPDEST SWAP8 SWAP7 POP POP POP POP POP POP POP JUMP JUMPDEST PUSH0 PUSH1 0x20 DUP3 DUP5 SUB SLT ISZERO PUSH2 0x12BB JUMPI PUSH0 DUP1 REVERT JUMPDEST DUP2 MLOAD PUSH2 0xD14 DUP2 PUSH2 0xCE1 JUMP JUMPDEST PUSH1 0x1 PUSH1 0x1 PUSH1 0xA0 SHL SUB DUP7 DUP2 AND DUP3 MSTORE DUP6 AND PUSH1 0x20 DUP3 ADD MSTORE PUSH1 0xA0 PUSH1 0x40 DUP3 ADD DUP2 SWAP1 MSTORE PUSH0 SWAP1 PUSH2 0x12F1 SWAP1 DUP4 ADD DUP7 PUSH2 0x107E JUMP JUMPDEST DUP3 DUP2 SUB PUSH1 0x60 DUP5 ADD MSTORE PUSH2 0x1303 DUP2 DUP7 PUSH2 0x107E JUMP JUMPDEST SWAP1 POP DUP3 DUP2 SUB PUSH1 0x80 DUP5 ADD MSTORE PUSH2 0x1317 DUP2 DUP6 PUSH2 0xD32 JUMP JUMPDEST SWAP9 SWAP8 POP POP POP POP POP POP POP POP JUMP INVALID LOG2 PUSH5 0x6970667358 0x22 SLT KECCAK256 PUSH17 0x8D813E048A13D9DDBB68EF1D7996BA2D0F 0xD9 DUP14 0xC7 PUSH3 0xEAE2F4 PUSH22 0x2FE91CBD131064736F6C634300081900330000000000 "
				},
				"gasEstimates": {
					"creation": {
						"codeDepositCost": "990600",
						"executionCost": "infinite",
						"totalCost": "infinite"
					},
					"external": {
						"addTokenType(uint256)": "infinite",
						"balanceOf(address,uint256)": "2634",
						"balanceOfBatch(address[],uint256[])": "infinite",
						"burnTokens(uint256,uint256)": "infinite",
						"gettotalSupply(uint256)": "2513",
						"isApprovedForAll(address,address)": "infinite",
						"safeBatchTransferFrom(address,address,uint256[],uint256[],bytes)": "infinite",
						"safeTransferFrom(address,address,uint256,uint256,bytes)": "infinite",
						"setApprovalForAll(address,bool)": "26678",
						"supportsInterface(bytes4)": "552",
						"totalSupply(uint256)": "2468",
						"transferTokens(address,uint256[],uint256[])": "infinite",
						"uri(uint256)": "infinite"
					}
				},
				"methodIdentifiers": {
					"addTokenType(uint256)": "93442218",
					"balanceOf(address,uint256)": "00fdd58e",
					"balanceOfBatch(address[],uint256[])": "4e1273f4",
					"burnTokens(uint256,uint256)": "8e81c64d",
					"gettotalSupply(uint256)": "20295559",
					"isApprovedForAll(address,address)": "e985e9c5",
					"safeBatchTransferFrom(address,address,uint256[],uint256[],bytes)": "2eb2c2d6",
					"safeTransferFrom(address,address,uint256,uint256,bytes)": "f242432a",
					"setApprovalForAll(address,bool)": "a22cb465",
					"supportsInterface(bytes4)": "01ffc9a7",
					"totalSupply(uint256)": "bd85b039",
					"transferTokens(address,uint256[],uint256[])": "1cb0d481",
					"uri(uint256)": "0e89341c"
				}
			},
			"storageLayout": {
				"storage": [
					{
						"astId": 178,
						"contract": "NFT Tokens/Tk9.sol:MultiToken",
						"label": "_balances",
						"offset": 0,
						"slot": "0",
						"type": "t_mapping(t_uint256,t_mapping(t_address,t_uint256))"
					},
					{
						"astId": 184,
						"contract": "NFT Tokens/Tk9.sol:MultiToken",
						"label": "_operatorApprovals",
						"offset": 0,
						"slot": "1",
						"type": "t_mapping(t_address,t_mapping(t_address,t_bool))"
					},
					{
						"astId": 186,
						"contract": "NFT Tokens/Tk9.sol:MultiToken",
						"label": "_uri",
						"offset": 0,
						"slot": "2",
						"type": "t_string_storage"
					},
					{
						"astId": 2790,
						"contract": "NFT Tokens/Tk9.sol:MultiToken",
						"label": "totalSupply",
						"offset": 0,
						"slot": "3",
						"type": "t_mapping(t_uint256,t_uint256)"
					}
				],
				"types": {
					"t_address": {
						"encoding": "inplace",
						"label": "address",
						"numberOfBytes": "20"
					},
					"t_bool": {
						"encoding": "inplace",
						"label": "bool",
						"numberOfBytes": "1"
					},
					"t_mapping(t_address,t_bool)": {
						"encoding": "mapping",
						"key": "t_address",
						"label": "mapping(address => bool)",
						"numberOfBytes": "32",
						"value": "t_bool"
					},
					"t_mapping(t_address,t_mapping(t_address,t_bool))": {
						"encoding": "mapping",
						"key": "t_address",
						"label": "mapping(address => mapping(address => bool))",
						"numberOfBytes": "32",
						"value": "t_mapping(t_address,t_bool)"
					},
					"t_mapping(t_address,t_uint256)": {
						"encoding": "mapping",
						"key": "t_address",
						"label": "mapping(address => uint256)",
						"numberOfBytes": "32",
						"value": "t_uint256"
					},
					"t_mapping(t_uint256,t_mapping(t_address,t_uint256))": {
						"encoding": "mapping",
						"key": "t_uint256",
						"label": "mapping(uint256 => mapping(address => uint256))",
						"numberOfBytes": "32",
						"value": "t_mapping(t_address,t_uint256)"
					},
					"t_mapping(t_uint256,t_uint256)": {
						"encoding": "mapping",
						"key": "t_uint256",
						"label": "mapping(uint256 => uint256)",
						"numberOfBytes": "32",
						"value": "t_uint256"
					},
					"t_string_storage": {
						"encoding": "bytes",
						"label": "string",
						"numberOfBytes": "32"
					},
					"t_uint256": {
						"encoding": "inplace",
						"label": "uint256",
						"numberOfBytes": "32"
					}
				}
			},
			"userdoc": {
				"kind": "user",
				"methods": {},
				"version": 1
			}
		}
	}
}