{
	"NFT Tokens/Tk8.sol": {
		"DynamicArtNFT": {
			"abi": [
				{
					"inputs": [
						{
							"internalType": "address payable",
							"name": "_vrfCoordinator",
							"type": "address"
						},
						{
							"internalType": "address",
							"name": "_linkToken",
							"type": "address"
						},
						{
							"internalType": "uint256",
							"name": "_gasLimit",
							"type": "uint256"
						},
						{
							"internalType": "uint256",
							"name": "_requestFee",
							"type": "uint256"
						}
					],
					"stateMutability": "nonpayable",
					"type": "constructor"
				},
				{
					"inputs": [
						{
							"internalType": "address",
							"name": "sender",
							"type": "address"
						},
						{
							"internalType": "uint256",
							"name": "tokenId",
							"type": "uint256"
						},
						{
							"internalType": "address",
							"name": "owner",
							"type": "address"
						}
					],
					"name": "ERC721IncorrectOwner",
					"type": "error"
				},
				{
					"inputs": [
						{
							"internalType": "address",
							"name": "operator",
							"type": "address"
						},
						{
							"internalType": "uint256",
							"name": "tokenId",
							"type": "uint256"
						}
					],
					"name": "ERC721InsufficientApproval",
					"type": "error"
				},
				{
					"inputs": [
						{
							"internalType": "address",
							"name": "approver",
							"type": "address"
						}
					],
					"name": "ERC721InvalidApprover",
					"type": "error"
				},
				{
					"inputs": [
						{
							"internalType": "address",
							"name": "operator",
							"type": "address"
						}
					],
					"name": "ERC721InvalidOperator",
					"type": "error"
				},
				{
					"inputs": [
						{
							"internalType": "address",
							"name": "owner",
							"type": "address"
						}
					],
					"name": "ERC721InvalidOwner",
					"type": "error"
				},
				{
					"inputs": [
						{
							"internalType": "address",
							"name": "receiver",
							"type": "address"
						}
					],
					"name": "ERC721InvalidReceiver",
					"type": "error"
				},
				{
					"inputs": [
						{
							"internalType": "address",
							"name": "sender",
							"type": "address"
						}
					],
					"name": "ERC721InvalidSender",
					"type": "error"
				},
				{
					"inputs": [
						{
							"internalType": "uint256",
							"name": "tokenId",
							"type": "uint256"
						}
					],
					"name": "ERC721NonexistentToken",
					"type": "error"
				},
				{
					"anonymous": false,
					"inputs": [
						{
							"indexed": true,
							"internalType": "address",
							"name": "owner",
							"type": "address"
						},
						{
							"indexed": true,
							"internalType": "address",
							"name": "approved",
							"type": "address"
						},
						{
							"indexed": true,
							"internalType": "uint256",
							"name": "tokenId",
							"type": "uint256"
						}
					],
					"name": "Approval",
					"type": "event"
				},
				{
					"anonymous": false,
					"inputs": [
						{
							"indexed": true,
							"internalType": "address",
							"name": "owner",
							"type": "address"
						},
						{
							"indexed": true,
							"internalType": "address",
							"name": "operator",
							"type": "address"
						},
						{
							"indexed": false,
							"internalType": "bool",
							"name": "approved",
							"type": "bool"
						}
					],
					"name": "ApprovalForAll",
					"type": "event"
				},
				{
					"anonymous": false,
					"inputs": [
						{
							"indexed": false,
							"internalType": "uint256",
							"name": "tokenId",
							"type": "uint256"
						},
						{
							"indexed": false,
							"internalType": "string[]",
							"name": "traits",
							"type": "string[]"
						}
					],
					"name": "NFTMinted",
					"type": "event"
				},
				{
					"anonymous": false,
					"inputs": [
						{
							"indexed": true,
							"internalType": "address",
							"name": "from",
							"type": "address"
						},
						{
							"indexed": true,
							"internalType": "address",
							"name": "to",
							"type": "address"
						},
						{
							"indexed": true,
							"internalType": "uint256",
							"name": "tokenId",
							"type": "uint256"
						}
					],
					"name": "Transfer",
					"type": "event"
				},
				{
					"inputs": [
						{
							"internalType": "string",
							"name": "trait",
							"type": "string"
						}
					],
					"name": "addTrait",
					"outputs": [],
					"stateMutability": "nonpayable",
					"type": "function"
				},
				{
					"inputs": [
						{
							"internalType": "address",
							"name": "to",
							"type": "address"
						},
						{
							"internalType": "uint256",
							"name": "tokenId",
							"type": "uint256"
						}
					],
					"name": "approve",
					"outputs": [],
					"stateMutability": "nonpayable",
					"type": "function"
				},
				{
					"inputs": [
						{
							"internalType": "address",
							"name": "owner",
							"type": "address"
						}
					],
					"name": "balanceOf",
					"outputs": [
						{
							"internalType": "uint256",
							"name": "",
							"type": "uint256"
						}
					],
					"stateMutability": "view",
					"type": "function"
				},
				{
					"inputs": [],
					"name": "baseArtwork",
					"outputs": [
						{
							"internalType": "string",
							"name": "",
							"type": "string"
						}
					],
					"stateMutability": "view",
					"type": "function"
				},
				{
					"inputs": [],
					"name": "fee",
					"outputs": [
						{
							"internalType": "uint256",
							"name": "",
							"type": "uint256"
						}
					],
					"stateMutability": "view",
					"type": "function"
				},
				{
					"inputs": [],
					"name": "gasLimit",
					"outputs": [
						{
							"internalType": "uint256",
							"name": "",
							"type": "uint256"
						}
					],
					"stateMutability": "view",
					"type": "function"
				},
				{
					"inputs": [
						{
							"internalType": "uint256",
							"name": "tokenId",
							"type": "uint256"
						}
					],
					"name": "getApproved",
					"outputs": [
						{
							"internalType": "address",
							"name": "",
							"type": "address"
						}
					],
					"stateMutability": "view",
					"type": "function"
				},
				{
					"inputs": [
						{
							"internalType": "uint256",
							"name": "tokenId",
							"type": "uint256"
						}
					],
					"name": "getNFTTraits",
					"outputs": [
						{
							"internalType": "string[]",
							"name": "",
							"type": "string[]"
						}
					],
					"stateMutability": "view",
					"type": "function"
				},
				{
					"inputs": [
						{
							"internalType": "address",
							"name": "owner",
							"type": "address"
						},
						{
							"internalType": "address",
							"name": "operator",
							"type": "address"
						}
					],
					"name": "isApprovedForAll",
					"outputs": [
						{
							"internalType": "bool",
							"name": "",
							"type": "bool"
						}
					],
					"stateMutability": "view",
					"type": "function"
				},
				{
					"inputs": [],
					"name": "linkToken",
					"outputs": [
						{
							"internalType": "address",
							"name": "",
							"type": "address"
						}
					],
					"stateMutability": "view",
					"type": "function"
				},
				{
					"inputs": [],
					"name": "name",
					"outputs": [
						{
							"internalType": "string",
							"name": "",
							"type": "string"
						}
					],
					"stateMutability": "view",
					"type": "function"
				},
				{
					"inputs": [
						{
							"internalType": "uint256",
							"name": "",
							"type": "uint256"
						},
						{
							"internalType": "uint256",
							"name": "",
							"type": "uint256"
						}
					],
					"name": "nftTraits",
					"outputs": [
						{
							"internalType": "string",
							"name": "",
							"type": "string"
						}
					],
					"stateMutability": "view",
					"type": "function"
				},
				{
					"inputs": [
						{
							"internalType": "uint256",
							"name": "tokenId",
							"type": "uint256"
						}
					],
					"name": "ownerOf",
					"outputs": [
						{
							"internalType": "address",
							"name": "",
							"type": "address"
						}
					],
					"stateMutability": "view",
					"type": "function"
				},
				{
					"inputs": [
						{
							"internalType": "bytes32",
							"name": "requestId",
							"type": "bytes32"
						},
						{
							"internalType": "uint256",
							"name": "randomness",
							"type": "uint256"
						}
					],
					"name": "rawFulfillRandomness",
					"outputs": [],
					"stateMutability": "nonpayable",
					"type": "function"
				},
				{
					"inputs": [],
					"name": "requestFee",
					"outputs": [
						{
							"internalType": "uint256",
							"name": "",
							"type": "uint256"
						}
					],
					"stateMutability": "view",
					"type": "function"
				},
				{
					"inputs": [],
					"name": "requestRandomTraits",
					"outputs": [
						{
							"internalType": "bytes32",
							"name": "requestId",
							"type": "bytes32"
						}
					],
					"stateMutability": "nonpayable",
					"type": "function"
				},
				{
					"inputs": [
						{
							"internalType": "address",
							"name": "from",
							"type": "address"
						},
						{
							"internalType": "address",
							"name": "to",
							"type": "address"
						},
						{
							"internalType": "uint256",
							"name": "tokenId",
							"type": "uint256"
						}
					],
					"name": "safeTransferFrom",
					"outputs": [],
					"stateMutability": "nonpayable",
					"type": "function"
				},
				{
					"inputs": [
						{
							"internalType": "address",
							"name": "from",
							"type": "address"
						},
						{
							"internalType": "address",
							"name": "to",
							"type": "address"
						},
						{
							"internalType": "uint256",
							"name": "tokenId",
							"type": "uint256"
						},
						{
							"internalType": "bytes",
							"name": "data",
							"type": "bytes"
						}
					],
					"name": "safeTransferFrom",
					"outputs": [],
					"stateMutability": "nonpayable",
					"type": "function"
				},
				{
					"inputs": [
						{
							"internalType": "address",
							"name": "operator",
							"type": "address"
						},
						{
							"internalType": "bool",
							"name": "approved",
							"type": "bool"
						}
					],
					"name": "setApprovalForAll",
					"outputs": [],
					"stateMutability": "nonpayable",
					"type": "function"
				},
				{
					"inputs": [
						{
							"internalType": "string",
							"name": "artwork",
							"type": "string"
						}
					],
					"name": "setBaseArtwork",
					"outputs": [],
					"stateMutability": "nonpayable",
					"type": "function"
				},
				{
					"inputs": [
						{
							"internalType": "bytes4",
							"name": "interfaceId",
							"type": "bytes4"
						}
					],
					"name": "supportsInterface",
					"outputs": [
						{
							"internalType": "bool",
							"name": "",
							"type": "bool"
						}
					],
					"stateMutability": "view",
					"type": "function"
				},
				{
					"inputs": [],
					"name": "symbol",
					"outputs": [
						{
							"internalType": "string",
							"name": "",
							"type": "string"
						}
					],
					"stateMutability": "view",
					"type": "function"
				},
				{
					"inputs": [
						{
							"internalType": "uint256",
							"name": "tokenId",
							"type": "uint256"
						}
					],
					"name": "tokenURI",
					"outputs": [
						{
							"internalType": "string",
							"name": "",
							"type": "string"
						}
					],
					"stateMutability": "view",
					"type": "function"
				},
				{
					"inputs": [],
					"name": "totalNFTsMinted",
					"outputs": [
						{
							"internalType": "uint256",
							"name": "",
							"type": "uint256"
						}
					],
					"stateMutability": "view",
					"type": "function"
				},
				{
					"inputs": [
						{
							"internalType": "uint256",
							"name": "",
							"type": "uint256"
						}
					],
					"name": "traits",
					"outputs": [
						{
							"internalType": "string",
							"name": "",
							"type": "string"
						}
					],
					"stateMutability": "view",
					"type": "function"
				},
				{
					"inputs": [
						{
							"internalType": "address",
							"name": "from",
							"type": "address"
						},
						{
							"internalType": "address",
							"name": "to",
							"type": "address"
						},
						{
							"internalType": "uint256",
							"name": "tokenId",
							"type": "uint256"
						}
					],
					"name": "transferFrom",
					"outputs": [],
					"stateMutability": "nonpayable",
					"type": "function"
				},
				{
					"inputs": [],
					"name": "vrfCoordinator",
					"outputs": [
						{
							"internalType": "address payable",
							"name": "",
							"type": "address"
						}
					],
					"stateMutability": "view",
					"type": "function"
				}
			],
			"devdoc": {
				"errors": {
					"ERC721IncorrectOwner(address,uint256,address)": [
						{
							"details": "Indicates an error related to the ownership over a particular token. Used in transfers.",
							"params": {
								"owner": "Address of the current owner of a token.",
								"sender": "Address whose tokens are being transferred.",
								"tokenId": "Identifier number of a token."
							}
						}
					],
					"ERC721InsufficientApproval(address,uint256)": [
						{
							"details": "Indicates a failure with the `operator`’s approval. Used in transfers.",
							"params": {
								"operator": "Address that may be allowed to operate on tokens without being their owner.",
								"tokenId": "Identifier number of a token."
							}
						}
					],
					"ERC721InvalidApprover(address)": [
						{
							"details": "Indicates a failure with the `approver` of a token to be approved. Used in approvals.",
							"params": {
								"approver": "Address initiating an approval operation."
							}
						}
					],
					"ERC721InvalidOperator(address)": [
						{
							"details": "Indicates a failure with the `operator` to be approved. Used in approvals.",
							"params": {
								"operator": "Address that may be allowed to operate on tokens without being their owner."
							}
						}
					],
					"ERC721InvalidOwner(address)": [
						{
							"details": "Indicates that an address can't be an owner. For example, `address(0)` is a forbidden owner in EIP-20. Used in balance queries.",
							"params": {
								"owner": "Address of the current owner of a token."
							}
						}
					],
					"ERC721InvalidReceiver(address)": [
						{
							"details": "Indicates a failure with the token `receiver`. Used in transfers.",
							"params": {
								"receiver": "Address to which tokens are being transferred."
							}
						}
					],
					"ERC721InvalidSender(address)": [
						{
							"details": "Indicates a failure with the token `sender`. Used in transfers.",
							"params": {
								"sender": "Address whose tokens are being transferred."
							}
						}
					],
					"ERC721NonexistentToken(uint256)": [
						{
							"details": "Indicates a `tokenId` whose `owner` is the zero address.",
							"params": {
								"tokenId": "Identifier number of a token."
							}
						}
					]
				},
				"events": {
					"Approval(address,address,uint256)": {
						"details": "Emitted when `owner` enables `approved` to manage the `tokenId` token."
					},
					"ApprovalForAll(address,address,bool)": {
						"details": "Emitted when `owner` enables or disables (`approved`) `operator` to manage all of its assets."
					},
					"Transfer(address,address,uint256)": {
						"details": "Emitted when `tokenId` token is transferred from `from` to `to`."
					}
				},
				"kind": "dev",
				"methods": {
					"approve(address,uint256)": {
						"details": "See {IERC721-approve}."
					},
					"balanceOf(address)": {
						"details": "See {IERC721-balanceOf}."
					},
					"getApproved(uint256)": {
						"details": "See {IERC721-getApproved}."
					},
					"isApprovedForAll(address,address)": {
						"details": "See {IERC721-isApprovedForAll}."
					},
					"name()": {
						"details": "See {IERC721Metadata-name}."
					},
					"ownerOf(uint256)": {
						"details": "See {IERC721-ownerOf}."
					},
					"safeTransferFrom(address,address,uint256)": {
						"details": "See {IERC721-safeTransferFrom}."
					},
					"safeTransferFrom(address,address,uint256,bytes)": {
						"details": "See {IERC721-safeTransferFrom}."
					},
					"setApprovalForAll(address,bool)": {
						"details": "See {IERC721-setApprovalForAll}."
					},
					"supportsInterface(bytes4)": {
						"details": "See {IERC165-supportsInterface}."
					},
					"symbol()": {
						"details": "See {IERC721Metadata-symbol}."
					},
					"tokenURI(uint256)": {
						"details": "See {IERC721Metadata-tokenURI}."
					},
					"transferFrom(address,address,uint256)": {
						"details": "See {IERC721-transferFrom}."
					}
				},
				"version": 1
			},
			"evm": {
				"assembly": "    /* \"NFT Tokens/Tk8.sol\":178:2351  contract DynamicArtNFT is VRFConsumerBase, ERC721 {... */\n  mstore(0x40, 0xc0)\n    /* \"NFT Tokens/Tk8.sol\":700:1095  constructor(... */\n  callvalue\n  dup1\n  iszero\n  tag_1\n  jumpi\n  0x00\n  dup1\n  revert\ntag_1:\n  pop\n  mload(0x40)\n  sub(codesize, bytecodeSize)\n  dup1\n  bytecodeSize\n  dup4\n  codecopy\n  dup2\n  add\n  0x40\n  dup2\n  swap1\n  mstore\n  tag_2\n  swap2\n  tag_3\n  jump\t// in\ntag_2:\n    /* \"@openzeppelin/contracts/token/ERC721/ERC721.sol\":1381:1494  constructor(string memory name_, string memory symbol_) {... */\n  0x40\n  dup1\n  mload\n  dup1\n  dup3\n  add\n  dup3\n  mstore\n  0x0d\n  dup2\n  mstore\n  shl(0x9a, 0x111e5b985b5a58d05c9d139195)\n  0x20\n  dup1\n  dup4\n  add\n  swap2\n  swap1\n  swap2\n  mstore\n  dup3\n  mload\n  dup1\n  dup5\n  add\n  swap1\n  swap4\n  mstore\n  0x04\n  dup4\n  mstore\n  shl(0xe2, 0x11105495)\n  swap1\n  dup4\n  add\n  mstore\n  sub(shl(0xa0, 0x01), 0x01)\n    /* \"@chainlink/contracts/src/v0.8/VRFConsumerBase.sol\":9306:9338  vrfCoordinator = _vrfCoordinator */\n  dup1\n  dup8\n  and\n  0xa0\n  mstore\n    /* \"@chainlink/contracts/src/v0.8/VRFConsumerBase.sol\":9344:9376  LINK = LinkTokenInterface(_link) */\n  dup6\n  and\n  0x80\n  mstore\n    /* \"@openzeppelin/contracts/token/ERC721/ERC721.sol\":1381:1494  constructor(string memory name_, string memory symbol_) {... */\n  swap1\n    /* \"@openzeppelin/contracts/token/ERC721/ERC721.sol\":1447:1452  _name */\n  0x01\n    /* \"@openzeppelin/contracts/token/ERC721/ERC721.sol\":1447:1460  _name = name_ */\n  tag_9\n    /* \"@openzeppelin/contracts/token/ERC721/ERC721.sol\":1381:1494  constructor(string memory name_, string memory symbol_) {... */\n  dup4\n    /* \"@openzeppelin/contracts/token/ERC721/ERC721.sol\":1447:1452  _name */\n  dup3\n    /* \"@openzeppelin/contracts/token/ERC721/ERC721.sol\":1447:1460  _name = name_ */\n  tag_10\n  jump\t// in\ntag_9:\n  pop\n    /* \"@openzeppelin/contracts/token/ERC721/ERC721.sol\":1470:1477  _symbol */\n  0x02\n    /* \"@openzeppelin/contracts/token/ERC721/ERC721.sol\":1470:1487  _symbol = symbol_ */\n  tag_11\n    /* \"@openzeppelin/contracts/token/ERC721/ERC721.sol\":1480:1487  symbol_ */\n  dup3\n    /* \"@openzeppelin/contracts/token/ERC721/ERC721.sol\":1470:1477  _symbol */\n  dup3\n    /* \"@openzeppelin/contracts/token/ERC721/ERC721.sol\":1470:1487  _symbol = symbol_ */\n  tag_10\n  jump\t// in\ntag_11:\n  pop\n  pop\n    /* \"NFT Tokens/Tk8.sol\":930:944  vrfCoordinator */\n  0x07\n    /* \"NFT Tokens/Tk8.sol\":930:962  vrfCoordinator = _vrfCoordinator */\n  dup1\n  sload\n  sub(shl(0xa0, 0x01), 0x01)\n  swap7\n  dup8\n  and\n  not(sub(shl(0xa0, 0x01), 0x01))\n  swap2\n  dup3\n  and\n  or\n  swap1\n  swap2\n  sstore\n    /* \"NFT Tokens/Tk8.sol\":972:981  linkToken */\n  0x08\n    /* \"NFT Tokens/Tk8.sol\":972:994  linkToken = _linkToken */\n  dup1\n  sload\n  swap6\n  swap1\n  swap7\n  and\n  swap5\n  and\n  swap4\n  swap1\n  swap4\n  or\n  swap1\n  swap4\n  sstore\n    /* \"NFT Tokens/Tk8.sol\":1004:1012  gasLimit */\n  0x0a\n    /* \"NFT Tokens/Tk8.sol\":1004:1024  gasLimit = _gasLimit */\n  sstore\n  pop\n    /* \"NFT Tokens/Tk8.sol\":1034:1044  requestFee */\n  0x0b\n    /* \"NFT Tokens/Tk8.sol\":1034:1058  requestFee = _requestFee */\n  sstore\n    /* \"NFT Tokens/Tk8.sol\":1074:1088  0.1 * 10 ** 18 */\n  0x016345785d8a0000\n    /* \"NFT Tokens/Tk8.sol\":1068:1071  fee */\n  0x09\n    /* \"NFT Tokens/Tk8.sol\":1068:1088  fee = 0.1 * 10 ** 18 */\n  sstore\n    /* \"NFT Tokens/Tk8.sol\":178:2351  contract DynamicArtNFT is VRFConsumerBase, ERC721 {... */\n  jump(tag_20)\n    /* \"#utility.yul\":14:153   */\ntag_14:\n  sub(shl(0xa0, 0x01), 0x01)\n    /* \"#utility.yul\":97:128   */\n  dup2\n  and\n    /* \"#utility.yul\":87:129   */\n  dup2\n  eq\n    /* \"#utility.yul\":77:147   */\n  tag_22\n  jumpi\n    /* \"#utility.yul\":143:144   */\n  0x00\n    /* \"#utility.yul\":140:141   */\n  dup1\n    /* \"#utility.yul\":133:145   */\n  revert\n    /* \"#utility.yul\":77:147   */\ntag_22:\n    /* \"#utility.yul\":14:153   */\n  pop\n  jump\t// out\n    /* \"#utility.yul\":158:690   */\ntag_3:\n    /* \"#utility.yul\":263:269   */\n  0x00\n    /* \"#utility.yul\":271:277   */\n  dup1\n    /* \"#utility.yul\":279:285   */\n  0x00\n    /* \"#utility.yul\":287:293   */\n  dup1\n    /* \"#utility.yul\":340:343   */\n  0x80\n    /* \"#utility.yul\":328:337   */\n  dup6\n    /* \"#utility.yul\":319:326   */\n  dup8\n    /* \"#utility.yul\":315:338   */\n  sub\n    /* \"#utility.yul\":311:344   */\n  slt\n    /* \"#utility.yul\":308:361   */\n  iszero\n  tag_24\n  jumpi\n    /* \"#utility.yul\":357:358   */\n  0x00\n    /* \"#utility.yul\":354:355   */\n  dup1\n    /* \"#utility.yul\":347:359   */\n  revert\n    /* \"#utility.yul\":308:361   */\ntag_24:\n    /* \"#utility.yul\":389:398   */\n  dup5\n    /* \"#utility.yul\":383:399   */\n  mload\n    /* \"#utility.yul\":408:447   */\n  tag_25\n    /* \"#utility.yul\":441:446   */\n  dup2\n    /* \"#utility.yul\":408:447   */\n  tag_14\n  jump\t// in\ntag_25:\n    /* \"#utility.yul\":516:518   */\n  0x20\n    /* \"#utility.yul\":501:519   */\n  dup7\n  add\n    /* \"#utility.yul\":495:520   */\n  mload\n    /* \"#utility.yul\":466:471   */\n  swap1\n  swap5\n  pop\n    /* \"#utility.yul\":529:570   */\n  tag_26\n    /* \"#utility.yul\":495:520   */\n  dup2\n    /* \"#utility.yul\":529:570   */\n  tag_14\n  jump\t// in\ntag_26:\n    /* \"#utility.yul\":636:638   */\n  0x40\n    /* \"#utility.yul\":621:639   */\n  dup7\n  add\n    /* \"#utility.yul\":615:640   */\n  mload\n    /* \"#utility.yul\":680:682   */\n  0x60\n    /* \"#utility.yul\":665:683   */\n  swap1\n  swap7\n  add\n    /* \"#utility.yul\":659:684   */\n  mload\n    /* \"#utility.yul\":158:690   */\n  swap5\n  swap8\n    /* \"#utility.yul\":589:596   */\n  swap1\n  swap7\n  pop\n    /* \"#utility.yul\":158:690   */\n  swap3\n  pop\n  pop\n  pop\n  jump\t// out\n    /* \"#utility.yul\":695:822   */\ntag_15:\n    /* \"#utility.yul\":756:766   */\n  0x4e487b71\n    /* \"#utility.yul\":751:754   */\n  0xe0\n    /* \"#utility.yul\":747:767   */\n  shl\n    /* \"#utility.yul\":744:745   */\n  0x00\n    /* \"#utility.yul\":737:768   */\n  mstore\n    /* \"#utility.yul\":787:791   */\n  0x41\n    /* \"#utility.yul\":784:785   */\n  0x04\n    /* \"#utility.yul\":777:792   */\n  mstore\n    /* \"#utility.yul\":811:815   */\n  0x24\n    /* \"#utility.yul\":808:809   */\n  0x00\n    /* \"#utility.yul\":801:816   */\n  revert\n    /* \"#utility.yul\":827:1207   */\ntag_16:\n    /* \"#utility.yul\":906:907   */\n  0x01\n    /* \"#utility.yul\":902:914   */\n  dup2\n  dup2\n  shr\n  swap1\n    /* \"#utility.yul\":949:961   */\n  dup3\n  and\n  dup1\n    /* \"#utility.yul\":970:1031   */\n  tag_29\n  jumpi\n    /* \"#utility.yul\":1024:1028   */\n  0x7f\n    /* \"#utility.yul\":1016:1022   */\n  dup3\n    /* \"#utility.yul\":1012:1029   */\n  and\n    /* \"#utility.yul\":1002:1029   */\n  swap2\n  pop\n    /* \"#utility.yul\":970:1031   */\ntag_29:\n    /* \"#utility.yul\":1077:1079   */\n  0x20\n    /* \"#utility.yul\":1069:1075   */\n  dup3\n    /* \"#utility.yul\":1066:1080   */\n  lt\n    /* \"#utility.yul\":1046:1064   */\n  dup2\n    /* \"#utility.yul\":1043:1081   */\n  sub\n    /* \"#utility.yul\":1040:1201   */\n  tag_30\n  jumpi\n    /* \"#utility.yul\":1123:1133   */\n  0x4e487b71\n    /* \"#utility.yul\":1118:1121   */\n  0xe0\n    /* \"#utility.yul\":1114:1134   */\n  shl\n    /* \"#utility.yul\":1111:1112   */\n  0x00\n    /* \"#utility.yul\":1104:1135   */\n  mstore\n    /* \"#utility.yul\":1158:1162   */\n  0x22\n    /* \"#utility.yul\":1155:1156   */\n  0x04\n    /* \"#utility.yul\":1148:1163   */\n  mstore\n    /* \"#utility.yul\":1186:1190   */\n  0x24\n    /* \"#utility.yul\":1183:1184   */\n  0x00\n    /* \"#utility.yul\":1176:1191   */\n  revert\n    /* \"#utility.yul\":1040:1201   */\ntag_30:\n  pop\n    /* \"#utility.yul\":827:1207   */\n  swap2\n  swap1\n  pop\n  jump\t// out\n    /* \"#utility.yul\":1338:1856   */\ntag_18:\n    /* \"#utility.yul\":1440:1442   */\n  0x1f\n    /* \"#utility.yul\":1435:1438   */\n  dup3\n    /* \"#utility.yul\":1432:1443   */\n  gt\n    /* \"#utility.yul\":1429:1850   */\n  iszero\n  tag_33\n  jumpi\n    /* \"#utility.yul\":1476:1481   */\n  dup1\n    /* \"#utility.yul\":1473:1474   */\n  0x00\n    /* \"#utility.yul\":1466:1482   */\n  mstore\n    /* \"#utility.yul\":1520:1524   */\n  0x20\n    /* \"#utility.yul\":1517:1518   */\n  0x00\n    /* \"#utility.yul\":1507:1525   */\n  keccak256\n    /* \"#utility.yul\":1590:1592   */\n  0x1f\n    /* \"#utility.yul\":1578:1588   */\n  dup5\n    /* \"#utility.yul\":1574:1593   */\n  add\n    /* \"#utility.yul\":1571:1572   */\n  0x05\n    /* \"#utility.yul\":1567:1594   */\n  shr\n    /* \"#utility.yul\":1561:1565   */\n  dup2\n    /* \"#utility.yul\":1557:1595   */\n  add\n    /* \"#utility.yul\":1626:1630   */\n  0x20\n    /* \"#utility.yul\":1614:1624   */\n  dup6\n    /* \"#utility.yul\":1611:1631   */\n  lt\n    /* \"#utility.yul\":1608:1655   */\n  iszero\n  tag_34\n  jumpi\n  pop\n    /* \"#utility.yul\":1649:1653   */\n  dup1\n    /* \"#utility.yul\":1608:1655   */\ntag_34:\n    /* \"#utility.yul\":1704:1706   */\n  0x1f\n    /* \"#utility.yul\":1699:1702   */\n  dup5\n    /* \"#utility.yul\":1695:1707   */\n  add\n    /* \"#utility.yul\":1692:1693   */\n  0x05\n    /* \"#utility.yul\":1688:1708   */\n  shr\n    /* \"#utility.yul\":1682:1686   */\n  dup3\n    /* \"#utility.yul\":1678:1709   */\n  add\n    /* \"#utility.yul\":1668:1709   */\n  swap2\n  pop\n    /* \"#utility.yul\":1759:1840   */\ntag_35:\n    /* \"#utility.yul\":1777:1779   */\n  dup2\n    /* \"#utility.yul\":1770:1775   */\n  dup2\n    /* \"#utility.yul\":1767:1780   */\n  lt\n    /* \"#utility.yul\":1759:1840   */\n  iszero\n  tag_37\n  jumpi\n    /* \"#utility.yul\":1836:1837   */\n  0x00\n    /* \"#utility.yul\":1822:1838   */\n  dup2\n  sstore\n    /* \"#utility.yul\":1803:1804   */\n  0x01\n    /* \"#utility.yul\":1792:1805   */\n  add\n    /* \"#utility.yul\":1759:1840   */\n  jump(tag_35)\ntag_37:\n    /* \"#utility.yul\":1763:1766   */\n  pop\n  pop\n    /* \"#utility.yul\":1429:1850   */\ntag_33:\n    /* \"#utility.yul\":1338:1856   */\n  pop\n  pop\n  pop\n  jump\t// out\n    /* \"#utility.yul\":2032:3377   */\ntag_10:\n    /* \"#utility.yul\":2152:2162   */\n  dup2\n  mload\n  sub(shl(0x40, 0x01), 0x01)\n    /* \"#utility.yul\":2174:2204   */\n  dup2\n  gt\n    /* \"#utility.yul\":2171:2227   */\n  iszero\n  tag_41\n  jumpi\n    /* \"#utility.yul\":2207:2225   */\n  tag_41\n  tag_15\n  jump\t// in\ntag_41:\n    /* \"#utility.yul\":2236:2333   */\n  tag_42\n    /* \"#utility.yul\":2326:2332   */\n  dup2\n    /* \"#utility.yul\":2286:2324   */\n  tag_43\n    /* \"#utility.yul\":2318:2322   */\n  dup5\n    /* \"#utility.yul\":2312:2323   */\n  sload\n    /* \"#utility.yul\":2286:2324   */\n  tag_16\n  jump\t// in\ntag_43:\n    /* \"#utility.yul\":2280:2284   */\n  dup5\n    /* \"#utility.yul\":2236:2333   */\n  tag_18\n  jump\t// in\ntag_42:\n    /* \"#utility.yul\":2388:2392   */\n  0x20\n  dup1\n    /* \"#utility.yul\":2445:2447   */\n  0x1f\n    /* \"#utility.yul\":2434:2448   */\n  dup4\n  gt\n    /* \"#utility.yul\":2462:2463   */\n  0x01\n    /* \"#utility.yul\":2457:3120   */\n  dup2\n  eq\n  tag_45\n  jumpi\n    /* \"#utility.yul\":3164:3165   */\n  0x00\n    /* \"#utility.yul\":3181:3187   */\n  dup5\n    /* \"#utility.yul\":3178:3267   */\n  iszero\n  tag_46\n  jumpi\n  pop\n    /* \"#utility.yul\":3233:3252   */\n  dup6\n  dup4\n  add\n    /* \"#utility.yul\":3227:3253   */\n  mload\n    /* \"#utility.yul\":3178:3267   */\ntag_46:\n  not(0x00)\n    /* \"#utility.yul\":1989:1990   */\n  0x03\n    /* \"#utility.yul\":1985:1996   */\n  dup7\n  swap1\n  shl\n    /* \"#utility.yul\":1981:2005   */\n  shr\n    /* \"#utility.yul\":1977:2006   */\n  not\n    /* \"#utility.yul\":1967:2007   */\n  and\n    /* \"#utility.yul\":2013:2014   */\n  0x01\n    /* \"#utility.yul\":2009:2020   */\n  dup6\n  swap1\n  shl\n    /* \"#utility.yul\":1964:2021   */\n  or\n    /* \"#utility.yul\":3280:3361   */\n  dup6\n  sstore\n    /* \"#utility.yul\":2427:3371   */\n  jump(tag_44)\n    /* \"#utility.yul\":2457:3120   */\ntag_45:\n    /* \"#utility.yul\":1285:1286   */\n  0x00\n    /* \"#utility.yul\":1278:1292   */\n  dup6\n  dup2\n  mstore\n    /* \"#utility.yul\":1322:1326   */\n  0x20\n    /* \"#utility.yul\":1309:1327   */\n  dup2\n  keccak256\n  not(0x1f)\n    /* \"#utility.yul\":2493:2513   */\n  dup7\n  and\n  swap2\n    /* \"#utility.yul\":2611:2847   */\ntag_49:\n    /* \"#utility.yul\":2625:2632   */\n  dup3\n    /* \"#utility.yul\":2622:2623   */\n  dup2\n    /* \"#utility.yul\":2619:2633   */\n  lt\n    /* \"#utility.yul\":2611:2847   */\n  iszero\n  tag_51\n  jumpi\n    /* \"#utility.yul\":2714:2733   */\n  dup9\n  dup7\n  add\n    /* \"#utility.yul\":2708:2734   */\n  mload\n    /* \"#utility.yul\":2693:2735   */\n  dup3\n  sstore\n    /* \"#utility.yul\":2806:2833   */\n  swap5\n  dup5\n  add\n  swap5\n    /* \"#utility.yul\":2774:2775   */\n  0x01\n    /* \"#utility.yul\":2762:2776   */\n  swap1\n  swap2\n  add\n  swap1\n    /* \"#utility.yul\":2641:2660   */\n  dup5\n  add\n    /* \"#utility.yul\":2611:2847   */\n  jump(tag_49)\ntag_51:\n    /* \"#utility.yul\":2615:2618   */\n  pop\n    /* \"#utility.yul\":2875:2881   */\n  dup6\n    /* \"#utility.yul\":2866:2873   */\n  dup3\n    /* \"#utility.yul\":2863:2882   */\n  lt\n    /* \"#utility.yul\":2860:3061   */\n  iszero\n  tag_52\n  jumpi\n    /* \"#utility.yul\":2936:2955   */\n  dup8\n  dup6\n  add\n    /* \"#utility.yul\":2930:2956   */\n  mload\n  not(0x00)\n    /* \"#utility.yul\":3019:3020   */\n  0x03\n    /* \"#utility.yul\":3015:3029   */\n  dup9\n  swap1\n  shl\n    /* \"#utility.yul\":3031:3034   */\n  0xf8\n    /* \"#utility.yul\":3011:3035   */\n  and\n    /* \"#utility.yul\":3007:3044   */\n  shr\n    /* \"#utility.yul\":3003:3045   */\n  not\n    /* \"#utility.yul\":2988:3046   */\n  and\n    /* \"#utility.yul\":2973:3047   */\n  dup2\n  sstore\n    /* \"#utility.yul\":2860:3061   */\ntag_52:\n  pop\n  pop\n    /* \"#utility.yul\":3107:3108   */\n  0x01\n    /* \"#utility.yul\":3098:3104   */\n  dup5\n    /* \"#utility.yul\":3095:3096   */\n  0x01\n    /* \"#utility.yul\":3091:3105   */\n  shl\n    /* \"#utility.yul\":3087:3109   */\n  add\n    /* \"#utility.yul\":3081:3085   */\n  dup6\n    /* \"#utility.yul\":3074:3110   */\n  sstore\n    /* \"#utility.yul\":2427:3371   */\ntag_44:\n  pop\n  pop\n  pop\n  pop\n    /* \"#utility.yul\":2032:3377   */\n  pop\n  pop\n  jump\t// out\ntag_20:\n    /* \"NFT Tokens/Tk8.sol\":178:2351  contract DynamicArtNFT is VRFConsumerBase, ERC721 {... */\n  mload(0x80)\n  mload(0xa0)\n  codecopy(0x00, dataOffset(sub_0), dataSize(sub_0))\n  0x00\n  assignImmutable(\"0x6dbb33232cde86c8a04f90a8bed9fc1c5ef520188a14538d96eb100d69bc2a94\")\n  0x00\n  assignImmutable(\"0xb2219b801710730437d0358146c829b62297a059eceaa0b40b27aea2daecf595\")\n  return(0x00, dataSize(sub_0))\nstop\n\nsub_0: assembly {\n        /* \"NFT Tokens/Tk8.sol\":178:2351  contract DynamicArtNFT is VRFConsumerBase, ERC721 {... */\n      mstore(0x40, 0x80)\n      callvalue\n      dup1\n      iszero\n      tag_1\n      jumpi\n      0x00\n      dup1\n      revert\n    tag_1:\n      pop\n      jumpi(tag_2, lt(calldatasize, 0x04))\n      shr(0xe0, calldataload(0x00))\n      dup1\n      0x7ba19512\n      gt\n      tag_30\n      jumpi\n      dup1\n      0xb88d4fde\n      gt\n      tag_31\n      jumpi\n      dup1\n      0xe84b3ad0\n      gt\n      tag_32\n      jumpi\n      dup1\n      0xe84b3ad0\n      eq\n      tag_26\n      jumpi\n      dup1\n      0xe985e9c5\n      eq\n      tag_27\n      jumpi\n      dup1\n      0xeb2e578b\n      eq\n      tag_28\n      jumpi\n      dup1\n      0xf68016b7\n      eq\n      tag_29\n      jumpi\n      0x00\n      dup1\n      revert\n    tag_32:\n      dup1\n      0xb88d4fde\n      eq\n      tag_23\n      jumpi\n      dup1\n      0xc87b56dd\n      eq\n      tag_24\n      jumpi\n      dup1\n      0xddca3f43\n      eq\n      tag_25\n      jumpi\n      0x00\n      dup1\n      revert\n    tag_31:\n      dup1\n      0x9cc8c69b\n      gt\n      tag_33\n      jumpi\n      dup1\n      0x9cc8c69b\n      eq\n      tag_19\n      jumpi\n      dup1\n      0xa22cb465\n      eq\n      tag_20\n      jumpi\n      dup1\n      0xa3e56fa8\n      eq\n      tag_21\n      jumpi\n      dup1\n      0xa630fd97\n      eq\n      tag_22\n      jumpi\n      0x00\n      dup1\n      revert\n    tag_33:\n      dup1\n      0x7ba19512\n      eq\n      tag_16\n      jumpi\n      dup1\n      0x94985ddd\n      eq\n      tag_17\n      jumpi\n      dup1\n      0x95d89b41\n      eq\n      tag_18\n      jumpi\n      0x00\n      dup1\n      revert\n    tag_30:\n      dup1\n      0x3ff6bc4e\n      gt\n      tag_34\n      jumpi\n      dup1\n      0x57970e93\n      gt\n      tag_35\n      jumpi\n      dup1\n      0x57970e93\n      eq\n      tag_12\n      jumpi\n      dup1\n      0x5ed5b5af\n      eq\n      tag_13\n      jumpi\n      dup1\n      0x6352211e\n      eq\n      tag_14\n      jumpi\n      dup1\n      0x70a08231\n      eq\n      tag_15\n      jumpi\n      0x00\n      dup1\n      revert\n    tag_35:\n      dup1\n      0x3ff6bc4e\n      eq\n      tag_9\n      jumpi\n      dup1\n      0x42842e0e\n      eq\n      tag_10\n      jumpi\n      dup1\n      0x4eb7e95f\n      eq\n      tag_11\n      jumpi\n      0x00\n      dup1\n      revert\n    tag_34:\n      dup1\n      0x01ffc9a7\n      eq\n      tag_3\n      jumpi\n      dup1\n      0x06fdde03\n      eq\n      tag_4\n      jumpi\n      dup1\n      0x081812fc\n      eq\n      tag_5\n      jumpi\n      dup1\n      0x095ea7b3\n      eq\n      tag_6\n      jumpi\n      dup1\n      0x23b872dd\n      eq\n      tag_7\n      jumpi\n      dup1\n      0x2d72225b\n      eq\n      tag_8\n      jumpi\n    tag_2:\n      0x00\n      dup1\n      revert\n        /* \"@openzeppelin/contracts/token/ERC721/ERC721.sol\":1561:1861  function supportsInterface(bytes4 interfaceId) public view virtual override(ERC165, IERC165) returns (bool) {... */\n    tag_3:\n      tag_36\n      tag_37\n      calldatasize\n      0x04\n      tag_38\n      jump\t// in\n    tag_37:\n      tag_39\n      jump\t// in\n    tag_36:\n      mload(0x40)\n        /* \"#utility.yul\":565:579   */\n      swap1\n      iszero\n        /* \"#utility.yul\":558:580   */\n      iszero\n        /* \"#utility.yul\":540:581   */\n      dup2\n      mstore\n        /* \"#utility.yul\":528:530   */\n      0x20\n        /* \"#utility.yul\":513:531   */\n      add\n        /* \"@openzeppelin/contracts/token/ERC721/ERC721.sol\":1561:1861  function supportsInterface(bytes4 interfaceId) public view virtual override(ERC165, IERC165) returns (bool) {... */\n    tag_40:\n      mload(0x40)\n      dup1\n      swap2\n      sub\n      swap1\n      return\n        /* \"@openzeppelin/contracts/token/ERC721/ERC721.sol\":2365:2454  function name() public view virtual returns (string memory) {... */\n    tag_4:\n      tag_42\n      tag_43\n      jump\t// in\n    tag_42:\n      mload(0x40)\n      tag_40\n      swap2\n      swap1\n      tag_45\n      jump\t// in\n        /* \"@openzeppelin/contracts/token/ERC721/ERC721.sol\":3497:3651  function getApproved(uint256 tokenId) public view virtual returns (address) {... */\n    tag_5:\n      tag_46\n      tag_47\n      calldatasize\n      0x04\n      tag_48\n      jump\t// in\n    tag_47:\n      tag_49\n      jump\t// in\n    tag_46:\n      mload(0x40)\n      sub(shl(0xa0, 0x01), 0x01)\n        /* \"#utility.yul\":1482:1514   */\n      swap1\n      swap2\n      and\n        /* \"#utility.yul\":1464:1515   */\n      dup2\n      mstore\n        /* \"#utility.yul\":1452:1454   */\n      0x20\n        /* \"#utility.yul\":1437:1455   */\n      add\n        /* \"@openzeppelin/contracts/token/ERC721/ERC721.sol\":3497:3651  function getApproved(uint256 tokenId) public view virtual returns (address) {... */\n      tag_40\n        /* \"#utility.yul\":1318:1521   */\n      jump\n        /* \"@openzeppelin/contracts/token/ERC721/ERC721.sol\":3323:3436  function approve(address to, uint256 tokenId) public virtual {... */\n    tag_6:\n      tag_52\n      tag_53\n      calldatasize\n      0x04\n      tag_54\n      jump\t// in\n    tag_53:\n      tag_55\n      jump\t// in\n    tag_52:\n      stop\n        /* \"@openzeppelin/contracts/token/ERC721/ERC721.sol\":4143:4721  function transferFrom(address from, address to, uint256 tokenId) public virtual {... */\n    tag_7:\n      tag_52\n      tag_57\n      calldatasize\n      0x04\n      tag_58\n      jump\t// in\n    tag_57:\n      tag_59\n      jump\t// in\n        /* \"NFT Tokens/Tk8.sol\":565:587  string[] public traits */\n    tag_8:\n      tag_42\n      tag_61\n      calldatasize\n      0x04\n      tag_48\n      jump\t// in\n    tag_61:\n      tag_62\n      jump\t// in\n        /* \"NFT Tokens/Tk8.sol\":1290:1499  function requestRandomTraits() public returns (bytes32 requestId) {... */\n    tag_9:\n      tag_64\n      tag_65\n      jump\t// in\n    tag_64:\n      mload(0x40)\n        /* \"#utility.yul\":2442:2467   */\n      swap1\n      dup2\n      mstore\n        /* \"#utility.yul\":2430:2432   */\n      0x20\n        /* \"#utility.yul\":2415:2433   */\n      add\n        /* \"NFT Tokens/Tk8.sol\":1290:1499  function requestRandomTraits() public returns (bytes32 requestId) {... */\n      tag_40\n        /* \"#utility.yul\":2296:2473   */\n      jump\n        /* \"@openzeppelin/contracts/token/ERC721/ERC721.sol\":4787:4919  function safeTransferFrom(address from, address to, uint256 tokenId) public {... */\n    tag_10:\n      tag_52\n      tag_69\n      calldatasize\n      0x04\n      tag_58\n      jump\t// in\n    tag_69:\n      tag_70\n      jump\t// in\n        /* \"NFT Tokens/Tk8.sol\":498:528  uint256 public totalNFTsMinted */\n    tag_11:\n      tag_64\n      sload(0x0c)\n      dup2\n      jump\n        /* \"NFT Tokens/Tk8.sol\":277:301  address public linkToken */\n    tag_12:\n      sload(0x08)\n      tag_46\n      swap1\n      sub(shl(0xa0, 0x01), 0x01)\n      and\n      dup2\n      jump\n        /* \"NFT Tokens/Tk8.sol\":598:640  mapping(uint => string[]) public nftTraits */\n    tag_13:\n      tag_42\n      tag_79\n      calldatasize\n      0x04\n      tag_80\n      jump\t// in\n    tag_79:\n      tag_81\n      jump\t// in\n        /* \"@openzeppelin/contracts/token/ERC721/ERC721.sol\":2185:2303  function ownerOf(uint256 tokenId) public view virtual returns (address) {... */\n    tag_14:\n      tag_46\n      tag_84\n      calldatasize\n      0x04\n      tag_48\n      jump\t// in\n    tag_84:\n      tag_85\n      jump\t// in\n        /* \"@openzeppelin/contracts/token/ERC721/ERC721.sol\":1920:2128  function balanceOf(address owner) public view virtual returns (uint256) {... */\n    tag_15:\n      tag_64\n      tag_88\n      calldatasize\n      0x04\n      tag_89\n      jump\t// in\n    tag_88:\n      tag_90\n      jump\t// in\n        /* \"NFT Tokens/Tk8.sol\":1105:1197  function setBaseArtwork(string memory artwork) public {... */\n    tag_16:\n      tag_52\n      tag_93\n      calldatasize\n      0x04\n      tag_94\n      jump\t// in\n    tag_93:\n      tag_95\n      jump\t// in\n        /* \"@chainlink/contracts/src/v0.8/VRFConsumerBase.sol\":9576:9783  function rawFulfillRandomness(bytes32 requestId, uint256 randomness) external {... */\n    tag_17:\n      tag_52\n      tag_97\n      calldatasize\n      0x04\n      tag_80\n      jump\t// in\n    tag_97:\n      tag_99\n      jump\t// in\n        /* \"@openzeppelin/contracts/token/ERC721/ERC721.sol\":2518:2611  function symbol() public view virtual returns (string memory) {... */\n    tag_18:\n      tag_42\n      tag_101\n      jump\t// in\n        /* \"NFT Tokens/Tk8.sol\":1203:1284  function addTrait(string memory trait) public {... */\n    tag_19:\n      tag_52\n      tag_104\n      calldatasize\n      0x04\n      tag_94\n      jump\t// in\n    tag_104:\n      tag_105\n      jump\t// in\n        /* \"@openzeppelin/contracts/token/ERC721/ERC721.sol\":3718:3862  function setApprovalForAll(address operator, bool approved) public virtual {... */\n    tag_20:\n      tag_52\n      tag_107\n      calldatasize\n      0x04\n      tag_108\n      jump\t// in\n    tag_107:\n      tag_109\n      jump\t// in\n        /* \"NFT Tokens/Tk8.sol\":234:271  address payable public vrfCoordinator */\n    tag_21:\n      sload(0x07)\n      tag_46\n      swap1\n      sub(shl(0xa0, 0x01), 0x01)\n      and\n      dup2\n      jump\n        /* \"NFT Tokens/Tk8.sol\":2229:2344  function getNFTTraits(uint tokenId) public view returns(string[] memory) {... */\n    tag_22:\n      tag_114\n      tag_115\n      calldatasize\n      0x04\n      tag_48\n      jump\t// in\n    tag_115:\n      tag_116\n      jump\t// in\n    tag_114:\n      mload(0x40)\n      tag_40\n      swap2\n      swap1\n      tag_118\n      jump\t// in\n        /* \"@openzeppelin/contracts/token/ERC721/ERC721.sol\":4985:5193  function safeTransferFrom(address from, address to, uint256 tokenId, bytes memory data) public virtual {... */\n    tag_23:\n      tag_52\n      tag_120\n      calldatasize\n      0x04\n      tag_121\n      jump\t// in\n    tag_120:\n      tag_122\n      jump\t// in\n        /* \"@openzeppelin/contracts/token/ERC721/ERC721.sol\":2677:2932  function tokenURI(uint256 tokenId) public view virtual returns (string memory) {... */\n    tag_24:\n      tag_42\n      tag_124\n      calldatasize\n      0x04\n      tag_48\n      jump\t// in\n    tag_124:\n      tag_125\n      jump\t// in\n        /* \"NFT Tokens/Tk8.sol\":414:432  uint256 public fee */\n    tag_25:\n      tag_64\n      sload(0x09)\n      dup2\n      jump\n        /* \"NFT Tokens/Tk8.sol\":534:559  string public baseArtwork */\n    tag_26:\n      tag_42\n      tag_131\n      jump\t// in\n        /* \"@openzeppelin/contracts/token/ERC721/ERC721.sol\":3928:4081  function isApprovedForAll(address owner, address operator) public view virtual returns (bool) {... */\n    tag_27:\n      tag_36\n      tag_134\n      calldatasize\n      0x04\n      tag_135\n      jump\t// in\n    tag_134:\n      tag_136\n      jump\t// in\n        /* \"NFT Tokens/Tk8.sol\":467:492  uint256 public requestFee */\n    tag_28:\n      tag_64\n      sload(0x0b)\n      dup2\n      jump\n        /* \"NFT Tokens/Tk8.sol\":438:461  uint256 public gasLimit */\n    tag_29:\n      tag_64\n      sload(0x0a)\n      dup2\n      jump\n        /* \"@openzeppelin/contracts/token/ERC721/ERC721.sol\":1561:1861  function supportsInterface(bytes4 interfaceId) public view virtual override(ERC165, IERC165) returns (bool) {... */\n    tag_39:\n        /* \"@openzeppelin/contracts/token/ERC721/ERC721.sol\":1663:1667  bool */\n      0x00\n      not(sub(shl(0xe0, 0x01), 0x01))\n        /* \"@openzeppelin/contracts/token/ERC721/ERC721.sol\":1698:1738  interfaceId == type(IERC721).interfaceId */\n      dup3\n      and\n      shl(0xe0, 0x80ac58cd)\n      eq\n      dup1\n        /* \"@openzeppelin/contracts/token/ERC721/ERC721.sol\":1698:1802  interfaceId == type(IERC721).interfaceId ||... */\n      tag_145\n      jumpi\n      pop\n      not(sub(shl(0xe0, 0x01), 0x01))\n        /* \"@openzeppelin/contracts/token/ERC721/ERC721.sol\":1754:1802  interfaceId == type(IERC721Metadata).interfaceId */\n      dup3\n      and\n      shl(0xe0, 0x5b5e139f)\n      eq\n        /* \"@openzeppelin/contracts/token/ERC721/ERC721.sol\":1698:1802  interfaceId == type(IERC721).interfaceId ||... */\n    tag_145:\n        /* \"@openzeppelin/contracts/token/ERC721/ERC721.sol\":1698:1854  interfaceId == type(IERC721).interfaceId ||... */\n      dup1\n      tag_147\n      jumpi\n      pop\n      shl(0xe0, 0x01ffc9a7)\n      not(sub(shl(0xe0, 0x01), 0x01))\n        /* \"@openzeppelin/contracts/utils/introspection/ERC165.sol\":861:901  interfaceId == type(IERC165).interfaceId */\n      dup4\n      and\n      eq\n        /* \"@openzeppelin/contracts/token/ERC721/ERC721.sol\":1818:1854  super.supportsInterface(interfaceId) */\n    tag_147:\n        /* \"@openzeppelin/contracts/token/ERC721/ERC721.sol\":1679:1854  return... */\n      swap3\n        /* \"@openzeppelin/contracts/token/ERC721/ERC721.sol\":1561:1861  function supportsInterface(bytes4 interfaceId) public view virtual override(ERC165, IERC165) returns (bool) {... */\n      swap2\n      pop\n      pop\n      jump\t// out\n        /* \"@openzeppelin/contracts/token/ERC721/ERC721.sol\":2365:2454  function name() public view virtual returns (string memory) {... */\n    tag_43:\n        /* \"@openzeppelin/contracts/token/ERC721/ERC721.sol\":2410:2423  string memory */\n      0x60\n        /* \"@openzeppelin/contracts/token/ERC721/ERC721.sol\":2442:2447  _name */\n      0x01\n        /* \"@openzeppelin/contracts/token/ERC721/ERC721.sol\":2435:2447  return _name */\n      dup1\n      sload\n      tag_150\n      swap1\n      tag_151\n      jump\t// in\n    tag_150:\n      dup1\n      0x1f\n      add\n      0x20\n      dup1\n      swap2\n      div\n      mul\n      0x20\n      add\n      mload(0x40)\n      swap1\n      dup2\n      add\n      0x40\n      mstore\n      dup1\n      swap3\n      swap2\n      swap1\n      dup2\n      dup2\n      mstore\n      0x20\n      add\n      dup3\n      dup1\n      sload\n      tag_152\n      swap1\n      tag_151\n      jump\t// in\n    tag_152:\n      dup1\n      iszero\n      tag_153\n      jumpi\n      dup1\n      0x1f\n      lt\n      tag_154\n      jumpi\n      0x0100\n      dup1\n      dup4\n      sload\n      div\n      mul\n      dup4\n      mstore\n      swap2\n      0x20\n      add\n      swap2\n      jump(tag_153)\n    tag_154:\n      dup3\n      add\n      swap2\n      swap1\n      0x00\n      mstore\n      keccak256(0x00, 0x20)\n      swap1\n    tag_155:\n      dup2\n      sload\n      dup2\n      mstore\n      swap1\n      0x01\n      add\n      swap1\n      0x20\n      add\n      dup1\n      dup4\n      gt\n      tag_155\n      jumpi\n      dup3\n      swap1\n      sub\n      0x1f\n      and\n      dup3\n      add\n      swap2\n    tag_153:\n      pop\n      pop\n      pop\n      pop\n      pop\n      swap1\n      pop\n        /* \"@openzeppelin/contracts/token/ERC721/ERC721.sol\":2365:2454  function name() public view virtual returns (string memory) {... */\n      swap1\n      jump\t// out\n        /* \"@openzeppelin/contracts/token/ERC721/ERC721.sol\":3497:3651  function getApproved(uint256 tokenId) public view virtual returns (address) {... */\n    tag_49:\n        /* \"@openzeppelin/contracts/token/ERC721/ERC721.sol\":3564:3571  address */\n      0x00\n        /* \"@openzeppelin/contracts/token/ERC721/ERC721.sol\":3583:3605  _requireOwned(tokenId) */\n      tag_157\n        /* \"@openzeppelin/contracts/token/ERC721/ERC721.sol\":3597:3604  tokenId */\n      dup3\n        /* \"@openzeppelin/contracts/token/ERC721/ERC721.sol\":3583:3596  _requireOwned */\n      tag_158\n        /* \"@openzeppelin/contracts/token/ERC721/ERC721.sol\":3583:3605  _requireOwned(tokenId) */\n      jump\t// in\n    tag_157:\n      pop\n        /* \"@openzeppelin/contracts/token/ERC721/ERC721.sol\":6008:6015  address */\n      0x00\n        /* \"@openzeppelin/contracts/token/ERC721/ERC721.sol\":6034:6058  _tokenApprovals[tokenId] */\n      dup3\n      dup2\n      mstore\n        /* \"@openzeppelin/contracts/token/ERC721/ERC721.sol\":6034:6049  _tokenApprovals */\n      0x05\n        /* \"@openzeppelin/contracts/token/ERC721/ERC721.sol\":6034:6058  _tokenApprovals[tokenId] */\n      0x20\n      mstore\n      0x40\n      swap1\n      keccak256\n      sload\n      sub(shl(0xa0, 0x01), 0x01)\n      and\n        /* \"@openzeppelin/contracts/token/ERC721/ERC721.sol\":3623:3644  _getApproved(tokenId) */\n      tag_147\n        /* \"@openzeppelin/contracts/token/ERC721/ERC721.sol\":5938:6065  function _getApproved(uint256 tokenId) internal view virtual returns (address) {... */\n      jump\n        /* \"@openzeppelin/contracts/token/ERC721/ERC721.sol\":3323:3436  function approve(address to, uint256 tokenId) public virtual {... */\n    tag_55:\n        /* \"@openzeppelin/contracts/token/ERC721/ERC721.sol\":3394:3429  _approve(to, tokenId, _msgSender()) */\n      tag_162\n        /* \"@openzeppelin/contracts/token/ERC721/ERC721.sol\":3403:3405  to */\n      dup3\n        /* \"@openzeppelin/contracts/token/ERC721/ERC721.sol\":3407:3414  tokenId */\n      dup3\n        /* \"@openzeppelin/contracts/utils/Context.sol\":735:745  msg.sender */\n      caller\n        /* \"@openzeppelin/contracts/token/ERC721/ERC721.sol\":3394:3402  _approve */\n      tag_165\n        /* \"@openzeppelin/contracts/token/ERC721/ERC721.sol\":3394:3429  _approve(to, tokenId, _msgSender()) */\n      jump\t// in\n    tag_162:\n        /* \"@openzeppelin/contracts/token/ERC721/ERC721.sol\":3323:3436  function approve(address to, uint256 tokenId) public virtual {... */\n      pop\n      pop\n      jump\t// out\n        /* \"@openzeppelin/contracts/token/ERC721/ERC721.sol\":4143:4721  function transferFrom(address from, address to, uint256 tokenId) public virtual {... */\n    tag_59:\n      sub(shl(0xa0, 0x01), 0x01)\n        /* \"@openzeppelin/contracts/token/ERC721/ERC721.sol\":4237:4253  to == address(0) */\n      dup3\n      and\n        /* \"@openzeppelin/contracts/token/ERC721/ERC721.sol\":4233:4320  if (to == address(0)) {... */\n      tag_167\n      jumpi\n        /* \"@openzeppelin/contracts/token/ERC721/ERC721.sol\":4276:4309  ERC721InvalidReceiver(address(0)) */\n      mload(0x40)\n      shl(0xe1, 0x32505749)\n      dup2\n      mstore\n        /* \"@openzeppelin/contracts/token/ERC721/ERC721.sol\":4306:4307  0 */\n      0x00\n        /* \"@openzeppelin/contracts/token/ERC721/ERC721.sol\":4276:4309  ERC721InvalidReceiver(address(0)) */\n      0x04\n      dup3\n      add\n        /* \"#utility.yul\":1464:1515   */\n      mstore\n        /* \"#utility.yul\":1437:1455   */\n      0x24\n      add\n        /* \"@openzeppelin/contracts/token/ERC721/ERC721.sol\":4276:4309  ERC721InvalidReceiver(address(0)) */\n    tag_168:\n      mload(0x40)\n      dup1\n      swap2\n      sub\n      swap1\n      revert\n        /* \"@openzeppelin/contracts/token/ERC721/ERC721.sol\":4233:4320  if (to == address(0)) {... */\n    tag_167:\n        /* \"@openzeppelin/contracts/token/ERC721/ERC721.sol\":4538:4559  address previousOwner */\n      0x00\n        /* \"@openzeppelin/contracts/token/ERC721/ERC721.sol\":4562:4596  _update(to, tokenId, _msgSender()) */\n      tag_169\n        /* \"@openzeppelin/contracts/token/ERC721/ERC721.sol\":4570:4572  to */\n      dup4\n        /* \"@openzeppelin/contracts/token/ERC721/ERC721.sol\":4574:4581  tokenId */\n      dup4\n        /* \"@openzeppelin/contracts/utils/Context.sol\":735:745  msg.sender */\n      caller\n        /* \"@openzeppelin/contracts/token/ERC721/ERC721.sol\":4562:4569  _update */\n      tag_171\n        /* \"@openzeppelin/contracts/token/ERC721/ERC721.sol\":4562:4596  _update(to, tokenId, _msgSender()) */\n      jump\t// in\n    tag_169:\n        /* \"@openzeppelin/contracts/token/ERC721/ERC721.sol\":4538:4596  address previousOwner = _update(to, tokenId, _msgSender()) */\n      swap1\n      pop\n        /* \"@openzeppelin/contracts/token/ERC721/ERC721.sol\":4627:4631  from */\n      dup4\n      sub(shl(0xa0, 0x01), 0x01)\n        /* \"@openzeppelin/contracts/token/ERC721/ERC721.sol\":4610:4631  previousOwner != from */\n      and\n        /* \"@openzeppelin/contracts/token/ERC721/ERC721.sol\":4610:4623  previousOwner */\n      dup2\n      sub(shl(0xa0, 0x01), 0x01)\n        /* \"@openzeppelin/contracts/token/ERC721/ERC721.sol\":4610:4631  previousOwner != from */\n      and\n      eq\n        /* \"@openzeppelin/contracts/token/ERC721/ERC721.sol\":4606:4715  if (previousOwner != from) {... */\n      tag_172\n      jumpi\n        /* \"@openzeppelin/contracts/token/ERC721/ERC721.sol\":4654:4704  ERC721IncorrectOwner(from, tokenId, previousOwner) */\n      mload(0x40)\n      shl(0xe0, 0x64283d7b)\n      dup2\n      mstore\n      sub(shl(0xa0, 0x01), 0x01)\n        /* \"#utility.yul\":7728:7743   */\n      dup1\n      dup7\n      and\n        /* \"@openzeppelin/contracts/token/ERC721/ERC721.sol\":4654:4704  ERC721IncorrectOwner(from, tokenId, previousOwner) */\n      0x04\n      dup4\n      add\n        /* \"#utility.yul\":7710:7744   */\n      mstore\n        /* \"#utility.yul\":7760:7778   */\n      0x24\n      dup3\n      add\n        /* \"#utility.yul\":7753:7787   */\n      dup5\n      swap1\n      mstore\n        /* \"#utility.yul\":7823:7838   */\n      dup3\n      and\n        /* \"#utility.yul\":7803:7821   */\n      0x44\n      dup3\n      add\n        /* \"#utility.yul\":7796:7839   */\n      mstore\n        /* \"#utility.yul\":7645:7663   */\n      0x64\n      add\n        /* \"@openzeppelin/contracts/token/ERC721/ERC721.sol\":4654:4704  ERC721IncorrectOwner(from, tokenId, previousOwner) */\n      tag_168\n        /* \"#utility.yul\":7470:7845   */\n      jump\n        /* \"@openzeppelin/contracts/token/ERC721/ERC721.sol\":4606:4715  if (previousOwner != from) {... */\n    tag_172:\n        /* \"@openzeppelin/contracts/token/ERC721/ERC721.sol\":4223:4721  {... */\n      pop\n        /* \"@openzeppelin/contracts/token/ERC721/ERC721.sol\":4143:4721  function transferFrom(address from, address to, uint256 tokenId) public virtual {... */\n      pop\n      pop\n      pop\n      jump\t// out\n        /* \"NFT Tokens/Tk8.sol\":565:587  string[] public traits */\n    tag_62:\n      0x0e\n      dup2\n      dup2\n      sload\n      dup2\n      lt\n      tag_175\n      jumpi\n      0x00\n      dup1\n      revert\n    tag_175:\n      swap1\n      0x00\n      mstore\n      keccak256(0x00, 0x20)\n      add\n      0x00\n      swap2\n      pop\n      swap1\n      pop\n      dup1\n      sload\n      tag_177\n      swap1\n      tag_151\n      jump\t// in\n    tag_177:\n      dup1\n      0x1f\n      add\n      0x20\n      dup1\n      swap2\n      div\n      mul\n      0x20\n      add\n      mload(0x40)\n      swap1\n      dup2\n      add\n      0x40\n      mstore\n      dup1\n      swap3\n      swap2\n      swap1\n      dup2\n      dup2\n      mstore\n      0x20\n      add\n      dup3\n      dup1\n      sload\n      tag_178\n      swap1\n      tag_151\n      jump\t// in\n    tag_178:\n      dup1\n      iszero\n      tag_179\n      jumpi\n      dup1\n      0x1f\n      lt\n      tag_180\n      jumpi\n      0x0100\n      dup1\n      dup4\n      sload\n      div\n      mul\n      dup4\n      mstore\n      swap2\n      0x20\n      add\n      swap2\n      jump(tag_179)\n    tag_180:\n      dup3\n      add\n      swap2\n      swap1\n      0x00\n      mstore\n      keccak256(0x00, 0x20)\n      swap1\n    tag_181:\n      dup2\n      sload\n      dup2\n      mstore\n      swap1\n      0x01\n      add\n      swap1\n      0x20\n      add\n      dup1\n      dup4\n      gt\n      tag_181\n      jumpi\n      dup3\n      swap1\n      sub\n      0x1f\n      and\n      dup3\n      add\n      swap2\n    tag_179:\n      pop\n      pop\n      pop\n      pop\n      pop\n      dup2\n      jump\t// out\n        /* \"NFT Tokens/Tk8.sol\":1290:1499  function requestRandomTraits() public returns (bytes32 requestId) {... */\n    tag_65:\n        /* \"NFT Tokens/Tk8.sol\":1407:1417  requestFee */\n      sload(0x0b)\n        /* \"NFT Tokens/Tk8.sol\":1374:1403  LINK.balanceOf(address(this)) */\n      mload(0x40)\n      shl(0xe0, 0x70a08231)\n      dup2\n      mstore\n        /* \"NFT Tokens/Tk8.sol\":1397:1401  this */\n      address\n        /* \"NFT Tokens/Tk8.sol\":1374:1403  LINK.balanceOf(address(this)) */\n      0x04\n      dup3\n      add\n        /* \"#utility.yul\":1464:1515   */\n      mstore\n        /* \"NFT Tokens/Tk8.sol\":1337:1354  bytes32 requestId */\n      0x00\n      swap2\n        /* \"NFT Tokens/Tk8.sol\":1407:1417  requestFee */\n      swap1\n      sub(shl(0xa0, 0x01), 0x01)\n        /* \"NFT Tokens/Tk8.sol\":1374:1378  LINK */\n      immutable(\"0xb2219b801710730437d0358146c829b62297a059eceaa0b40b27aea2daecf595\")\n        /* \"NFT Tokens/Tk8.sol\":1374:1388  LINK.balanceOf */\n      and\n      swap1\n      0x70a08231\n      swap1\n        /* \"#utility.yul\":1437:1455   */\n      0x24\n      add\n        /* \"NFT Tokens/Tk8.sol\":1374:1403  LINK.balanceOf(address(this)) */\n      0x20\n      mload(0x40)\n      dup1\n      dup4\n      sub\n      dup2\n      dup7\n      gas\n      staticcall\n      iszero\n      dup1\n      iszero\n      tag_185\n      jumpi\n      returndatasize\n      0x00\n      dup1\n      returndatacopy\n      revert(0x00, returndatasize)\n    tag_185:\n      pop\n      pop\n      pop\n      pop\n      mload(0x40)\n      returndatasize\n      not(0x1f)\n      0x1f\n      dup3\n      add\n      and\n      dup3\n      add\n      dup1\n      0x40\n      mstore\n      pop\n      dup2\n      add\n      swap1\n      tag_186\n      swap2\n      swap1\n      tag_187\n      jump\t// in\n    tag_186:\n        /* \"NFT Tokens/Tk8.sol\":1374:1417  LINK.balanceOf(address(this)) >= requestFee */\n      lt\n      iszero\n        /* \"NFT Tokens/Tk8.sol\":1366:1444  require(LINK.balanceOf(address(this)) >= requestFee, \"Not enough LINK tokens\") */\n      tag_188\n      jumpi\n      mload(0x40)\n      shl(0xe5, 0x461bcd)\n      dup2\n      mstore\n        /* \"#utility.yul\":8241:8243   */\n      0x20\n        /* \"NFT Tokens/Tk8.sol\":1366:1444  require(LINK.balanceOf(address(this)) >= requestFee, \"Not enough LINK tokens\") */\n      0x04\n      dup3\n      add\n        /* \"#utility.yul\":8223:8244   */\n      mstore\n        /* \"#utility.yul\":8280:8282   */\n      0x16\n        /* \"#utility.yul\":8260:8278   */\n      0x24\n      dup3\n      add\n        /* \"#utility.yul\":8253:8283   */\n      mstore\n      shl(0x50, 0x4e6f7420656e6f756768204c494e4b20746f6b656e73)\n        /* \"#utility.yul\":8299:8317   */\n      0x44\n      dup3\n      add\n        /* \"#utility.yul\":8292:8344   */\n      mstore\n        /* \"#utility.yul\":8361:8379   */\n      0x64\n      add\n        /* \"NFT Tokens/Tk8.sol\":1366:1444  require(LINK.balanceOf(address(this)) >= requestFee, \"Not enough LINK tokens\") */\n      tag_168\n        /* \"#utility.yul\":8039:8385   */\n      jump\n        /* \"NFT Tokens/Tk8.sol\":1366:1444  require(LINK.balanceOf(address(this)) >= requestFee, \"Not enough LINK tokens\") */\n    tag_188:\n        /* \"NFT Tokens/Tk8.sol\":1461:1492  requestRandomness(keyHash, fee) */\n      tag_191\n        /* \"NFT Tokens/Tk8.sol\":342:408  0x1234567890abcdef1234567890abcdef1234567890abcdef1234567890abcdef */\n      0x1234567890abcdef1234567890abcdef1234567890abcdef1234567890abcdef\n        /* \"NFT Tokens/Tk8.sol\":1479:1486  keyHash */\n      0x00\n      shl\n        /* \"NFT Tokens/Tk8.sol\":1488:1491  fee */\n      sload(0x09)\n        /* \"NFT Tokens/Tk8.sol\":1461:1478  requestRandomness */\n      tag_192\n        /* \"NFT Tokens/Tk8.sol\":1461:1492  requestRandomness(keyHash, fee) */\n      jump\t// in\n    tag_191:\n        /* \"NFT Tokens/Tk8.sol\":1454:1492  return requestRandomness(keyHash, fee) */\n      swap1\n      pop\n        /* \"NFT Tokens/Tk8.sol\":1290:1499  function requestRandomTraits() public returns (bytes32 requestId) {... */\n      swap1\n      jump\t// out\n        /* \"@openzeppelin/contracts/token/ERC721/ERC721.sol\":4787:4919  function safeTransferFrom(address from, address to, uint256 tokenId) public {... */\n    tag_70:\n        /* \"@openzeppelin/contracts/token/ERC721/ERC721.sol\":4873:4912  safeTransferFrom(from, to, tokenId, \"\") */\n      tag_194\n        /* \"@openzeppelin/contracts/token/ERC721/ERC721.sol\":4890:4894  from */\n      dup4\n        /* \"@openzeppelin/contracts/token/ERC721/ERC721.sol\":4896:4898  to */\n      dup4\n        /* \"@openzeppelin/contracts/token/ERC721/ERC721.sol\":4900:4907  tokenId */\n      dup4\n        /* \"@openzeppelin/contracts/token/ERC721/ERC721.sol\":4873:4912  safeTransferFrom(from, to, tokenId, \"\") */\n      mload(0x40)\n      dup1\n      0x20\n      add\n      0x40\n      mstore\n      dup1\n      0x00\n      dup2\n      mstore\n      pop\n        /* \"@openzeppelin/contracts/token/ERC721/ERC721.sol\":4873:4889  safeTransferFrom */\n      tag_122\n        /* \"@openzeppelin/contracts/token/ERC721/ERC721.sol\":4873:4912  safeTransferFrom(from, to, tokenId, \"\") */\n      jump\t// in\n    tag_194:\n        /* \"@openzeppelin/contracts/token/ERC721/ERC721.sol\":4787:4919  function safeTransferFrom(address from, address to, uint256 tokenId) public {... */\n      pop\n      pop\n      pop\n      jump\t// out\n        /* \"NFT Tokens/Tk8.sol\":598:640  mapping(uint => string[]) public nftTraits */\n    tag_81:\n      mstore(0x20, 0x0f)\n      dup2\n      0x00\n      mstore\n      keccak256(0x00, 0x40)\n      dup2\n      dup2\n      sload\n      dup2\n      lt\n      tag_195\n      jumpi\n      0x00\n      dup1\n      revert\n    tag_195:\n      swap1\n      0x00\n      mstore\n      keccak256(0x00, 0x20)\n      add\n      0x00\n      swap2\n      pop\n      swap2\n      pop\n      pop\n      dup1\n      sload\n      tag_177\n      swap1\n      tag_151\n      jump\t// in\n        /* \"@openzeppelin/contracts/token/ERC721/ERC721.sol\":2185:2303  function ownerOf(uint256 tokenId) public view virtual returns (address) {... */\n    tag_85:\n        /* \"@openzeppelin/contracts/token/ERC721/ERC721.sol\":2248:2255  address */\n      0x00\n        /* \"@openzeppelin/contracts/token/ERC721/ERC721.sol\":2274:2296  _requireOwned(tokenId) */\n      tag_147\n        /* \"@openzeppelin/contracts/token/ERC721/ERC721.sol\":2288:2295  tokenId */\n      dup3\n        /* \"@openzeppelin/contracts/token/ERC721/ERC721.sol\":2274:2287  _requireOwned */\n      tag_158\n        /* \"@openzeppelin/contracts/token/ERC721/ERC721.sol\":2274:2296  _requireOwned(tokenId) */\n      jump\t// in\n        /* \"@openzeppelin/contracts/token/ERC721/ERC721.sol\":1920:2128  function balanceOf(address owner) public view virtual returns (uint256) {... */\n    tag_90:\n        /* \"@openzeppelin/contracts/token/ERC721/ERC721.sol\":1983:1990  uint256 */\n      0x00\n      sub(shl(0xa0, 0x01), 0x01)\n        /* \"@openzeppelin/contracts/token/ERC721/ERC721.sol\":2006:2025  owner == address(0) */\n      dup3\n      and\n        /* \"@openzeppelin/contracts/token/ERC721/ERC721.sol\":2002:2089  if (owner == address(0)) {... */\n      tag_205\n      jumpi\n        /* \"@openzeppelin/contracts/token/ERC721/ERC721.sol\":2048:2078  ERC721InvalidOwner(address(0)) */\n      mload(0x40)\n      shl(0xe2, 0x22718ad9)\n      dup2\n      mstore\n        /* \"@openzeppelin/contracts/token/ERC721/ERC721.sol\":2075:2076  0 */\n      0x00\n        /* \"@openzeppelin/contracts/token/ERC721/ERC721.sol\":2048:2078  ERC721InvalidOwner(address(0)) */\n      0x04\n      dup3\n      add\n        /* \"#utility.yul\":1464:1515   */\n      mstore\n        /* \"#utility.yul\":1437:1455   */\n      0x24\n      add\n        /* \"@openzeppelin/contracts/token/ERC721/ERC721.sol\":2048:2078  ERC721InvalidOwner(address(0)) */\n      tag_168\n        /* \"#utility.yul\":1318:1521   */\n      jump\n        /* \"@openzeppelin/contracts/token/ERC721/ERC721.sol\":2002:2089  if (owner == address(0)) {... */\n    tag_205:\n      pop\n      sub(shl(0xa0, 0x01), 0x01)\n        /* \"@openzeppelin/contracts/token/ERC721/ERC721.sol\":2105:2121  _balances[owner] */\n      and\n      0x00\n      swap1\n      dup2\n      mstore\n        /* \"@openzeppelin/contracts/token/ERC721/ERC721.sol\":2105:2114  _balances */\n      0x04\n        /* \"@openzeppelin/contracts/token/ERC721/ERC721.sol\":2105:2121  _balances[owner] */\n      0x20\n      mstore\n      0x40\n      swap1\n      keccak256\n      sload\n      swap1\n        /* \"@openzeppelin/contracts/token/ERC721/ERC721.sol\":1920:2128  function balanceOf(address owner) public view virtual returns (uint256) {... */\n      jump\t// out\n        /* \"NFT Tokens/Tk8.sol\":1105:1197  function setBaseArtwork(string memory artwork) public {... */\n    tag_95:\n        /* \"NFT Tokens/Tk8.sol\":1169:1180  baseArtwork */\n      0x0d\n        /* \"NFT Tokens/Tk8.sol\":1169:1190  baseArtwork = artwork */\n      tag_162\n        /* \"NFT Tokens/Tk8.sol\":1183:1190  artwork */\n      dup3\n        /* \"NFT Tokens/Tk8.sol\":1169:1180  baseArtwork */\n      dup3\n        /* \"NFT Tokens/Tk8.sol\":1169:1190  baseArtwork = artwork */\n      tag_209\n      jump\t// in\n        /* \"@chainlink/contracts/src/v0.8/VRFConsumerBase.sol\":9576:9783  function rawFulfillRandomness(bytes32 requestId, uint256 randomness) external {... */\n    tag_99:\n        /* \"@chainlink/contracts/src/v0.8/VRFConsumerBase.sol\":9668:9678  msg.sender */\n      caller\n      sub(shl(0xa0, 0x01), 0x01)\n        /* \"@chainlink/contracts/src/v0.8/VRFConsumerBase.sol\":9682:9696  vrfCoordinator */\n      immutable(\"0x6dbb33232cde86c8a04f90a8bed9fc1c5ef520188a14538d96eb100d69bc2a94\")\n        /* \"@chainlink/contracts/src/v0.8/VRFConsumerBase.sol\":9668:9696  msg.sender == vrfCoordinator */\n      and\n      eq\n        /* \"@chainlink/contracts/src/v0.8/VRFConsumerBase.sol\":9660:9732  require(msg.sender == vrfCoordinator, \"Only VRFCoordinator can fulfill\") */\n      tag_211\n      jumpi\n      mload(0x40)\n      shl(0xe5, 0x461bcd)\n      dup2\n      mstore\n        /* \"#utility.yul\":10762:10764   */\n      0x20\n        /* \"@chainlink/contracts/src/v0.8/VRFConsumerBase.sol\":9660:9732  require(msg.sender == vrfCoordinator, \"Only VRFCoordinator can fulfill\") */\n      0x04\n      dup3\n      add\n        /* \"#utility.yul\":10744:10765   */\n      mstore\n        /* \"#utility.yul\":10801:10803   */\n      0x1f\n        /* \"#utility.yul\":10781:10799   */\n      0x24\n      dup3\n      add\n        /* \"#utility.yul\":10774:10804   */\n      mstore\n        /* \"#utility.yul\":10840:10873   */\n      0x4f6e6c7920565246436f6f7264696e61746f722063616e2066756c66696c6c00\n        /* \"#utility.yul\":10820:10838   */\n      0x44\n      dup3\n      add\n        /* \"#utility.yul\":10813:10874   */\n      mstore\n        /* \"#utility.yul\":10891:10909   */\n      0x64\n      add\n        /* \"@chainlink/contracts/src/v0.8/VRFConsumerBase.sol\":9660:9732  require(msg.sender == vrfCoordinator, \"Only VRFCoordinator can fulfill\") */\n      tag_168\n        /* \"#utility.yul\":10560:10915   */\n      jump\n        /* \"@chainlink/contracts/src/v0.8/VRFConsumerBase.sol\":9660:9732  require(msg.sender == vrfCoordinator, \"Only VRFCoordinator can fulfill\") */\n    tag_211:\n        /* \"@chainlink/contracts/src/v0.8/VRFConsumerBase.sol\":9738:9778  fulfillRandomness(requestId, randomness) */\n      tag_162\n        /* \"@chainlink/contracts/src/v0.8/VRFConsumerBase.sol\":9756:9765  requestId */\n      dup3\n        /* \"@chainlink/contracts/src/v0.8/VRFConsumerBase.sol\":9767:9777  randomness */\n      dup3\n        /* \"@chainlink/contracts/src/v0.8/VRFConsumerBase.sol\":9738:9755  fulfillRandomness */\n      tag_215\n        /* \"@chainlink/contracts/src/v0.8/VRFConsumerBase.sol\":9738:9778  fulfillRandomness(requestId, randomness) */\n      jump\t// in\n        /* \"@openzeppelin/contracts/token/ERC721/ERC721.sol\":2518:2611  function symbol() public view virtual returns (string memory) {... */\n    tag_101:\n        /* \"@openzeppelin/contracts/token/ERC721/ERC721.sol\":2565:2578  string memory */\n      0x60\n        /* \"@openzeppelin/contracts/token/ERC721/ERC721.sol\":2597:2604  _symbol */\n      0x02\n        /* \"@openzeppelin/contracts/token/ERC721/ERC721.sol\":2590:2604  return _symbol */\n      dup1\n      sload\n      tag_150\n      swap1\n      tag_151\n      jump\t// in\n        /* \"NFT Tokens/Tk8.sol\":1203:1284  function addTrait(string memory trait) public {... */\n    tag_105:\n        /* \"NFT Tokens/Tk8.sol\":1259:1265  traits */\n      0x0e\n        /* \"NFT Tokens/Tk8.sol\":1259:1277  traits.push(trait) */\n      dup1\n      sload\n      0x01\n      dup2\n      add\n      dup3\n      sstore\n      0x00\n      swap2\n      swap1\n      swap2\n      mstore\n      0xbb7b4a454dc3493923482f07822329ed19e8244eff582cc204f8554c3620c3fd\n      add\n      tag_162\n        /* \"NFT Tokens/Tk8.sol\":1271:1276  trait */\n      dup3\n        /* \"NFT Tokens/Tk8.sol\":1259:1277  traits.push(trait) */\n      dup3\n      tag_209\n      jump\t// in\n        /* \"@openzeppelin/contracts/token/ERC721/ERC721.sol\":3718:3862  function setApprovalForAll(address operator, bool approved) public virtual {... */\n    tag_109:\n        /* \"@openzeppelin/contracts/token/ERC721/ERC721.sol\":3803:3855  _setApprovalForAll(_msgSender(), operator, approved) */\n      tag_162\n        /* \"@openzeppelin/contracts/utils/Context.sol\":735:745  msg.sender */\n      caller\n        /* \"@openzeppelin/contracts/token/ERC721/ERC721.sol\":3836:3844  operator */\n      dup4\n        /* \"@openzeppelin/contracts/token/ERC721/ERC721.sol\":3846:3854  approved */\n      dup4\n        /* \"@openzeppelin/contracts/token/ERC721/ERC721.sol\":3803:3821  _setApprovalForAll */\n      tag_228\n        /* \"@openzeppelin/contracts/token/ERC721/ERC721.sol\":3803:3855  _setApprovalForAll(_msgSender(), operator, approved) */\n      jump\t// in\n        /* \"NFT Tokens/Tk8.sol\":2229:2344  function getNFTTraits(uint tokenId) public view returns(string[] memory) {... */\n    tag_116:\n        /* \"NFT Tokens/Tk8.sol\":2285:2300  string[] memory */\n      0x60\n        /* \"NFT Tokens/Tk8.sol\":2319:2328  nftTraits */\n      0x0f\n        /* \"NFT Tokens/Tk8.sol\":2319:2337  nftTraits[tokenId] */\n      0x00\n        /* \"NFT Tokens/Tk8.sol\":2329:2336  tokenId */\n      dup4\n        /* \"NFT Tokens/Tk8.sol\":2319:2337  nftTraits[tokenId] */\n      dup2\n      mstore\n      0x20\n      add\n      swap1\n      dup2\n      mstore\n      0x20\n      add\n      0x00\n      keccak256\n        /* \"NFT Tokens/Tk8.sol\":2312:2337  return nftTraits[tokenId] */\n      dup1\n      sload\n      dup1\n      0x20\n      mul\n      0x20\n      add\n      mload(0x40)\n      swap1\n      dup2\n      add\n      0x40\n      mstore\n      dup1\n      swap3\n      swap2\n      swap1\n      dup2\n      dup2\n      mstore\n      0x20\n      add\n      0x00\n      swap1\n    tag_230:\n      dup3\n      dup3\n      lt\n      iszero\n      tag_231\n      jumpi\n      dup4\n      dup3\n      swap1\n      0x00\n      mstore\n      keccak256(0x00, 0x20)\n      add\n      dup1\n      sload\n      tag_233\n      swap1\n      tag_151\n      jump\t// in\n    tag_233:\n      dup1\n      0x1f\n      add\n      0x20\n      dup1\n      swap2\n      div\n      mul\n      0x20\n      add\n      mload(0x40)\n      swap1\n      dup2\n      add\n      0x40\n      mstore\n      dup1\n      swap3\n      swap2\n      swap1\n      dup2\n      dup2\n      mstore\n      0x20\n      add\n      dup3\n      dup1\n      sload\n      tag_234\n      swap1\n      tag_151\n      jump\t// in\n    tag_234:\n      dup1\n      iszero\n      tag_235\n      jumpi\n      dup1\n      0x1f\n      lt\n      tag_236\n      jumpi\n      0x0100\n      dup1\n      dup4\n      sload\n      div\n      mul\n      dup4\n      mstore\n      swap2\n      0x20\n      add\n      swap2\n      jump(tag_235)\n    tag_236:\n      dup3\n      add\n      swap2\n      swap1\n      0x00\n      mstore\n      keccak256(0x00, 0x20)\n      swap1\n    tag_237:\n      dup2\n      sload\n      dup2\n      mstore\n      swap1\n      0x01\n      add\n      swap1\n      0x20\n      add\n      dup1\n      dup4\n      gt\n      tag_237\n      jumpi\n      dup3\n      swap1\n      sub\n      0x1f\n      and\n      dup3\n      add\n      swap2\n    tag_235:\n      pop\n      pop\n      pop\n      pop\n      pop\n      dup2\n      mstore\n      0x20\n      add\n      swap1\n      0x01\n      add\n      swap1\n      jump(tag_230)\n    tag_231:\n      pop\n      pop\n      pop\n      pop\n      swap1\n      pop\n        /* \"NFT Tokens/Tk8.sol\":2229:2344  function getNFTTraits(uint tokenId) public view returns(string[] memory) {... */\n      swap2\n      swap1\n      pop\n      jump\t// out\n        /* \"@openzeppelin/contracts/token/ERC721/ERC721.sol\":4985:5193  function safeTransferFrom(address from, address to, uint256 tokenId, bytes memory data) public virtual {... */\n    tag_122:\n        /* \"@openzeppelin/contracts/token/ERC721/ERC721.sol\":5098:5129  transferFrom(from, to, tokenId) */\n      tag_239\n        /* \"@openzeppelin/contracts/token/ERC721/ERC721.sol\":5111:5115  from */\n      dup5\n        /* \"@openzeppelin/contracts/token/ERC721/ERC721.sol\":5117:5119  to */\n      dup5\n        /* \"@openzeppelin/contracts/token/ERC721/ERC721.sol\":5121:5128  tokenId */\n      dup5\n        /* \"@openzeppelin/contracts/token/ERC721/ERC721.sol\":5098:5110  transferFrom */\n      tag_59\n        /* \"@openzeppelin/contracts/token/ERC721/ERC721.sol\":5098:5129  transferFrom(from, to, tokenId) */\n      jump\t// in\n    tag_239:\n        /* \"@openzeppelin/contracts/token/ERC721/ERC721.sol\":5139:5186  _checkOnERC721Received(from, to, tokenId, data) */\n      tag_172\n        /* \"@openzeppelin/contracts/token/ERC721/ERC721.sol\":5162:5166  from */\n      dup5\n        /* \"@openzeppelin/contracts/token/ERC721/ERC721.sol\":5168:5170  to */\n      dup5\n        /* \"@openzeppelin/contracts/token/ERC721/ERC721.sol\":5172:5179  tokenId */\n      dup5\n        /* \"@openzeppelin/contracts/token/ERC721/ERC721.sol\":5181:5185  data */\n      dup5\n        /* \"@openzeppelin/contracts/token/ERC721/ERC721.sol\":5139:5161  _checkOnERC721Received */\n      tag_241\n        /* \"@openzeppelin/contracts/token/ERC721/ERC721.sol\":5139:5186  _checkOnERC721Received(from, to, tokenId, data) */\n      jump\t// in\n        /* \"@openzeppelin/contracts/token/ERC721/ERC721.sol\":2677:2932  function tokenURI(uint256 tokenId) public view virtual returns (string memory) {... */\n    tag_125:\n        /* \"@openzeppelin/contracts/token/ERC721/ERC721.sol\":2741:2754  string memory */\n      0x60\n        /* \"@openzeppelin/contracts/token/ERC721/ERC721.sol\":2766:2788  _requireOwned(tokenId) */\n      tag_243\n        /* \"@openzeppelin/contracts/token/ERC721/ERC721.sol\":2780:2787  tokenId */\n      dup3\n        /* \"@openzeppelin/contracts/token/ERC721/ERC721.sol\":2766:2779  _requireOwned */\n      tag_158\n        /* \"@openzeppelin/contracts/token/ERC721/ERC721.sol\":2766:2788  _requireOwned(tokenId) */\n      jump\t// in\n    tag_243:\n      pop\n        /* \"@openzeppelin/contracts/token/ERC721/ERC721.sol\":2799:2820  string memory baseURI */\n      0x00\n        /* \"@openzeppelin/contracts/token/ERC721/ERC721.sol\":2823:2833  _baseURI() */\n      tag_244\n        /* \"@openzeppelin/contracts/token/ERC721/ERC721.sol\":3250:3259  return \"\" */\n      0x40\n      dup1\n      mload\n      0x20\n      dup2\n      add\n      swap1\n      swap2\n      mstore\n      0x00\n      dup2\n      mstore\n      swap1\n        /* \"@openzeppelin/contracts/token/ERC721/ERC721.sol\":3174:3266  function _baseURI() internal view virtual returns (string memory) {... */\n      jump\n        /* \"@openzeppelin/contracts/token/ERC721/ERC721.sol\":2823:2833  _baseURI() */\n    tag_244:\n        /* \"@openzeppelin/contracts/token/ERC721/ERC721.sol\":2799:2833  string memory baseURI = _baseURI() */\n      swap1\n      pop\n        /* \"@openzeppelin/contracts/token/ERC721/ERC721.sol\":2874:2875  0 */\n      0x00\n        /* \"@openzeppelin/contracts/token/ERC721/ERC721.sol\":2856:2863  baseURI */\n      dup2\n        /* \"@openzeppelin/contracts/token/ERC721/ERC721.sol\":2850:2871  bytes(baseURI).length */\n      mload\n        /* \"@openzeppelin/contracts/token/ERC721/ERC721.sol\":2850:2875  bytes(baseURI).length > 0 */\n      gt\n        /* \"@openzeppelin/contracts/token/ERC721/ERC721.sol\":2850:2925  bytes(baseURI).length > 0 ? string.concat(baseURI, tokenId.toString()) : \"\" */\n      tag_246\n      jumpi\n      mload(0x40)\n      dup1\n      0x20\n      add\n      0x40\n      mstore\n      dup1\n      0x00\n      dup2\n      mstore\n      pop\n      jump(tag_247)\n    tag_246:\n        /* \"@openzeppelin/contracts/token/ERC721/ERC721.sol\":2892:2899  baseURI */\n      dup1\n        /* \"@openzeppelin/contracts/token/ERC721/ERC721.sol\":2901:2919  tokenId.toString() */\n      tag_248\n        /* \"@openzeppelin/contracts/token/ERC721/ERC721.sol\":2901:2908  tokenId */\n      dup5\n        /* \"@openzeppelin/contracts/token/ERC721/ERC721.sol\":2901:2917  tokenId.toString */\n      tag_249\n        /* \"@openzeppelin/contracts/token/ERC721/ERC721.sol\":2901:2919  tokenId.toString() */\n      jump\t// in\n    tag_248:\n        /* \"@openzeppelin/contracts/token/ERC721/ERC721.sol\":2878:2920  string.concat(baseURI, tokenId.toString()) */\n      add(0x20, mload(0x40))\n      tag_250\n      swap3\n      swap2\n      swap1\n      tag_251\n      jump\t// in\n    tag_250:\n      mload(0x40)\n      0x20\n      dup2\n      dup4\n      sub\n      sub\n      dup2\n      mstore\n      swap1\n      0x40\n      mstore\n        /* \"@openzeppelin/contracts/token/ERC721/ERC721.sol\":2850:2925  bytes(baseURI).length > 0 ? string.concat(baseURI, tokenId.toString()) : \"\" */\n    tag_247:\n        /* \"@openzeppelin/contracts/token/ERC721/ERC721.sol\":2843:2925  return bytes(baseURI).length > 0 ? string.concat(baseURI, tokenId.toString()) : \"\" */\n      swap4\n        /* \"@openzeppelin/contracts/token/ERC721/ERC721.sol\":2677:2932  function tokenURI(uint256 tokenId) public view virtual returns (string memory) {... */\n      swap3\n      pop\n      pop\n      pop\n      jump\t// out\n        /* \"NFT Tokens/Tk8.sol\":534:559  string public baseArtwork */\n    tag_131:\n      0x0d\n      dup1\n      sload\n      tag_177\n      swap1\n      tag_151\n      jump\t// in\n        /* \"@openzeppelin/contracts/token/ERC721/ERC721.sol\":3928:4081  function isApprovedForAll(address owner, address operator) public view virtual returns (bool) {... */\n    tag_136:\n      sub(shl(0xa0, 0x01), 0x01)\n        /* \"@openzeppelin/contracts/token/ERC721/ERC721.sol\":4039:4064  _operatorApprovals[owner] */\n      swap2\n      dup3\n      and\n        /* \"@openzeppelin/contracts/token/ERC721/ERC721.sol\":4016:4020  bool */\n      0x00\n        /* \"@openzeppelin/contracts/token/ERC721/ERC721.sol\":4039:4064  _operatorApprovals[owner] */\n      swap1\n      dup2\n      mstore\n        /* \"@openzeppelin/contracts/token/ERC721/ERC721.sol\":4039:4057  _operatorApprovals */\n      0x06\n        /* \"@openzeppelin/contracts/token/ERC721/ERC721.sol\":4039:4064  _operatorApprovals[owner] */\n      0x20\n      swap1\n      dup2\n      mstore\n      0x40\n      dup1\n      dup4\n      keccak256\n        /* \"@openzeppelin/contracts/token/ERC721/ERC721.sol\":4039:4074  _operatorApprovals[owner][operator] */\n      swap4\n      swap1\n      swap5\n      and\n      dup3\n      mstore\n      swap2\n      swap1\n      swap2\n      mstore\n      keccak256\n      sload\n      0xff\n      and\n      swap1\n        /* \"@openzeppelin/contracts/token/ERC721/ERC721.sol\":3928:4081  function isApprovedForAll(address owner, address operator) public view virtual returns (bool) {... */\n      jump\t// out\n        /* \"@openzeppelin/contracts/token/ERC721/ERC721.sol\":16138:16379  function _requireOwned(uint256 tokenId) internal view returns (address) {... */\n    tag_158:\n        /* \"@openzeppelin/contracts/token/ERC721/ERC721.sol\":16201:16208  address */\n      0x00\n        /* \"@openzeppelin/contracts/token/ERC721/ERC721.sol\":5799:5815  _owners[tokenId] */\n      dup2\n      dup2\n      mstore\n        /* \"@openzeppelin/contracts/token/ERC721/ERC721.sol\":5799:5806  _owners */\n      0x03\n        /* \"@openzeppelin/contracts/token/ERC721/ERC721.sol\":5799:5815  _owners[tokenId] */\n      0x20\n      mstore\n      0x40\n      dup2\n      keccak256\n      sload\n      sub(shl(0xa0, 0x01), 0x01)\n      and\n      dup1\n        /* \"@openzeppelin/contracts/token/ERC721/ERC721.sol\":16263:16351  if (owner == address(0)) {... */\n      tag_147\n      jumpi\n        /* \"@openzeppelin/contracts/token/ERC721/ERC721.sol\":16309:16340  ERC721NonexistentToken(tokenId) */\n      mload(0x40)\n      shl(0xe0, 0x7e273289)\n      dup2\n      mstore\n      0x04\n      dup2\n      add\n        /* \"#utility.yul\":2442:2467   */\n      dup5\n      swap1\n      mstore\n        /* \"#utility.yul\":2415:2433   */\n      0x24\n      add\n        /* \"@openzeppelin/contracts/token/ERC721/ERC721.sol\":16309:16340  ERC721NonexistentToken(tokenId) */\n      tag_168\n        /* \"#utility.yul\":2296:2473   */\n      jump\n        /* \"@openzeppelin/contracts/token/ERC721/ERC721.sol\":14418:14538  function _approve(address to, uint256 tokenId, address auth) internal {... */\n    tag_165:\n        /* \"@openzeppelin/contracts/token/ERC721/ERC721.sol\":14498:14531  _approve(to, tokenId, auth, true) */\n      tag_194\n        /* \"@openzeppelin/contracts/token/ERC721/ERC721.sol\":14507:14509  to */\n      dup4\n        /* \"@openzeppelin/contracts/token/ERC721/ERC721.sol\":14511:14518  tokenId */\n      dup4\n        /* \"@openzeppelin/contracts/token/ERC721/ERC721.sol\":14520:14524  auth */\n      dup4\n        /* \"@openzeppelin/contracts/token/ERC721/ERC721.sol\":14526:14530  true */\n      0x01\n        /* \"@openzeppelin/contracts/token/ERC721/ERC721.sol\":14498:14506  _approve */\n      tag_268\n        /* \"@openzeppelin/contracts/token/ERC721/ERC721.sol\":14498:14531  _approve(to, tokenId, auth, true) */\n      jump\t// in\n        /* \"@openzeppelin/contracts/token/ERC721/ERC721.sol\":8838:9633  function _update(address to, uint256 tokenId, address auth) internal virtual returns (address) {... */\n    tag_171:\n        /* \"@openzeppelin/contracts/token/ERC721/ERC721.sol\":8924:8931  address */\n      0x00\n        /* \"@openzeppelin/contracts/token/ERC721/ERC721.sol\":5799:5815  _owners[tokenId] */\n      dup3\n      dup2\n      mstore\n        /* \"@openzeppelin/contracts/token/ERC721/ERC721.sol\":5799:5806  _owners */\n      0x03\n        /* \"@openzeppelin/contracts/token/ERC721/ERC721.sol\":5799:5815  _owners[tokenId] */\n      0x20\n      mstore\n      0x40\n      dup2\n      keccak256\n      sload\n      sub(shl(0xa0, 0x01), 0x01)\n      swap1\n      dup2\n      and\n      swap1\n        /* \"@openzeppelin/contracts/token/ERC721/ERC721.sol\":9035:9053  auth != address(0) */\n      dup4\n      and\n      iszero\n        /* \"@openzeppelin/contracts/token/ERC721/ERC721.sol\":9031:9117  if (auth != address(0)) {... */\n      tag_272\n      jumpi\n        /* \"@openzeppelin/contracts/token/ERC721/ERC721.sol\":9069:9106  _checkAuthorized(from, auth, tokenId) */\n      tag_272\n        /* \"@openzeppelin/contracts/token/ERC721/ERC721.sol\":9086:9090  from */\n      dup2\n        /* \"@openzeppelin/contracts/token/ERC721/ERC721.sol\":9092:9096  auth */\n      dup5\n        /* \"@openzeppelin/contracts/token/ERC721/ERC721.sol\":9098:9105  tokenId */\n      dup7\n        /* \"@openzeppelin/contracts/token/ERC721/ERC721.sol\":9069:9085  _checkAuthorized */\n      tag_273\n        /* \"@openzeppelin/contracts/token/ERC721/ERC721.sol\":9069:9106  _checkAuthorized(from, auth, tokenId) */\n      jump\t// in\n    tag_272:\n      sub(shl(0xa0, 0x01), 0x01)\n        /* \"@openzeppelin/contracts/token/ERC721/ERC721.sol\":9161:9179  from != address(0) */\n      dup2\n      and\n      iszero\n        /* \"@openzeppelin/contracts/token/ERC721/ERC721.sol\":9157:9413  if (from != address(0)) {... */\n      tag_274\n      jumpi\n        /* \"@openzeppelin/contracts/token/ERC721/ERC721.sol\":9277:9325  _approve(address(0), tokenId, address(0), false) */\n      tag_275\n        /* \"@openzeppelin/contracts/token/ERC721/ERC721.sol\":9294:9295  0 */\n      0x00\n        /* \"@openzeppelin/contracts/token/ERC721/ERC721.sol\":9298:9305  tokenId */\n      dup6\n        /* \"@openzeppelin/contracts/token/ERC721/ERC721.sol\":9315:9316  0 */\n      0x00\n        /* \"@openzeppelin/contracts/token/ERC721/ERC721.sol\":9319:9324  false */\n      dup1\n        /* \"@openzeppelin/contracts/token/ERC721/ERC721.sol\":9277:9285  _approve */\n      tag_268\n        /* \"@openzeppelin/contracts/token/ERC721/ERC721.sol\":9277:9325  _approve(address(0), tokenId, address(0), false) */\n      jump\t// in\n    tag_275:\n      sub(shl(0xa0, 0x01), 0x01)\n        /* \"@openzeppelin/contracts/token/ERC721/ERC721.sol\":9368:9383  _balances[from] */\n      dup2\n      and\n      0x00\n      swap1\n      dup2\n      mstore\n        /* \"@openzeppelin/contracts/token/ERC721/ERC721.sol\":9368:9377  _balances */\n      0x04\n        /* \"@openzeppelin/contracts/token/ERC721/ERC721.sol\":9368:9383  _balances[from] */\n      0x20\n      mstore\n      0x40\n      swap1\n      keccak256\n        /* \"@openzeppelin/contracts/token/ERC721/ERC721.sol\":9368:9388  _balances[from] -= 1 */\n      dup1\n      sload\n      not(0x00)\n      add\n      swap1\n      sstore\n        /* \"@openzeppelin/contracts/token/ERC721/ERC721.sol\":9157:9413  if (from != address(0)) {... */\n    tag_274:\n      sub(shl(0xa0, 0x01), 0x01)\n        /* \"@openzeppelin/contracts/token/ERC721/ERC721.sol\":9427:9443  to != address(0) */\n      dup6\n      and\n      iszero\n        /* \"@openzeppelin/contracts/token/ERC721/ERC721.sol\":9423:9530  if (to != address(0)) {... */\n      tag_276\n      jumpi\n      sub(shl(0xa0, 0x01), 0x01)\n        /* \"@openzeppelin/contracts/token/ERC721/ERC721.sol\":9487:9500  _balances[to] */\n      dup6\n      and\n      0x00\n      swap1\n      dup2\n      mstore\n        /* \"@openzeppelin/contracts/token/ERC721/ERC721.sol\":9487:9496  _balances */\n      0x04\n        /* \"@openzeppelin/contracts/token/ERC721/ERC721.sol\":9487:9500  _balances[to] */\n      0x20\n      mstore\n      0x40\n      swap1\n      keccak256\n        /* \"@openzeppelin/contracts/token/ERC721/ERC721.sol\":9487:9505  _balances[to] += 1 */\n      dup1\n      sload\n        /* \"@openzeppelin/contracts/token/ERC721/ERC721.sol\":9504:9505  1 */\n      0x01\n        /* \"@openzeppelin/contracts/token/ERC721/ERC721.sol\":9487:9505  _balances[to] += 1 */\n      add\n      swap1\n      sstore\n        /* \"@openzeppelin/contracts/token/ERC721/ERC721.sol\":9423:9530  if (to != address(0)) {... */\n    tag_276:\n        /* \"@openzeppelin/contracts/token/ERC721/ERC721.sol\":9540:9556  _owners[tokenId] */\n      0x00\n      dup5\n      dup2\n      mstore\n        /* \"@openzeppelin/contracts/token/ERC721/ERC721.sol\":9540:9547  _owners */\n      0x03\n        /* \"@openzeppelin/contracts/token/ERC721/ERC721.sol\":9540:9556  _owners[tokenId] */\n      0x20\n      mstore\n      0x40\n      dup1\n      dup3\n      keccak256\n        /* \"@openzeppelin/contracts/token/ERC721/ERC721.sol\":9540:9561  _owners[tokenId] = to */\n      dup1\n      sload\n      not(sub(shl(0xa0, 0x01), 0x01))\n      and\n      sub(shl(0xa0, 0x01), 0x01)\n      dup10\n      dup2\n      and\n      swap2\n      dup3\n      or\n      swap1\n      swap3\n      sstore\n        /* \"@openzeppelin/contracts/token/ERC721/ERC721.sol\":9577:9604  Transfer(from, to, tokenId) */\n      swap2\n      mload\n        /* \"@openzeppelin/contracts/token/ERC721/ERC721.sol\":9540:9556  _owners[tokenId] */\n      dup8\n      swap4\n        /* \"@openzeppelin/contracts/token/ERC721/ERC721.sol\":9577:9604  Transfer(from, to, tokenId) */\n      swap2\n      dup6\n      and\n      swap2\n      0xddf252ad1be2c89b69c2b068fc378daa952ba7f163c4a11628f55a4df523b3ef\n      swap2\n      log4\n        /* \"@openzeppelin/contracts/token/ERC721/ERC721.sol\":9622:9626  from */\n      swap5\n        /* \"@openzeppelin/contracts/token/ERC721/ERC721.sol\":8838:9633  function _update(address to, uint256 tokenId, address auth) internal virtual returns (address) {... */\n      swap4\n      pop\n      pop\n      pop\n      pop\n      jump\t// out\n        /* \"@chainlink/contracts/src/v0.8/VRFConsumerBase.sol\":7732:8752  function requestRandomness(bytes32 _keyHash, uint256 _fee) internal returns (bytes32 requestId) {... */\n    tag_192:\n        /* \"@chainlink/contracts/src/v0.8/VRFConsumerBase.sol\":7809:7826  bytes32 requestId */\n      0x00\n        /* \"@chainlink/contracts/src/v0.8/VRFConsumerBase.sol\":7834:7838  LINK */\n      immutable(\"0xb2219b801710730437d0358146c829b62297a059eceaa0b40b27aea2daecf595\")\n      sub(shl(0xa0, 0x01), 0x01)\n        /* \"@chainlink/contracts/src/v0.8/VRFConsumerBase.sol\":7834:7854  LINK.transferAndCall */\n      and\n      0x4000aea0\n        /* \"@chainlink/contracts/src/v0.8/VRFConsumerBase.sol\":7855:7869  vrfCoordinator */\n      immutable(\"0x6dbb33232cde86c8a04f90a8bed9fc1c5ef520188a14538d96eb100d69bc2a94\")\n        /* \"@chainlink/contracts/src/v0.8/VRFConsumerBase.sol\":7871:7875  _fee */\n      dup5\n        /* \"@chainlink/contracts/src/v0.8/VRFConsumerBase.sol\":7888:7896  _keyHash */\n      dup7\n        /* \"@chainlink/contracts/src/v0.8/VRFConsumerBase.sol\":6589:6590  0 */\n      0x00\n        /* \"@chainlink/contracts/src/v0.8/VRFConsumerBase.sol\":7877:7920  abi.encode(_keyHash, USER_SEED_PLACEHOLDER) */\n      add(0x20, mload(0x40))\n      tag_278\n      swap3\n      swap2\n      swap1\n        /* \"#utility.yul\":11583:11608   */\n      swap2\n      dup3\n      mstore\n        /* \"#utility.yul\":11639:11641   */\n      0x20\n        /* \"#utility.yul\":11624:11642   */\n      dup3\n      add\n        /* \"#utility.yul\":11617:11651   */\n      mstore\n        /* \"#utility.yul\":11571:11573   */\n      0x40\n        /* \"#utility.yul\":11556:11574   */\n      add\n      swap1\n        /* \"#utility.yul\":11409:11657   */\n      jump\n        /* \"@chainlink/contracts/src/v0.8/VRFConsumerBase.sol\":7877:7920  abi.encode(_keyHash, USER_SEED_PLACEHOLDER) */\n    tag_278:\n      mload(0x40)\n      0x20\n      dup2\n      dup4\n      sub\n      sub\n      dup2\n      mstore\n      swap1\n      0x40\n      mstore\n        /* \"@chainlink/contracts/src/v0.8/VRFConsumerBase.sol\":7834:7921  LINK.transferAndCall(vrfCoordinator, _fee, abi.encode(_keyHash, USER_SEED_PLACEHOLDER)) */\n      mload(0x40)\n      dup5\n      0xffffffff\n      and\n      0xe0\n      shl\n      dup2\n      mstore\n      0x04\n      add\n      tag_280\n      swap4\n      swap3\n      swap2\n      swap1\n      tag_281\n      jump\t// in\n    tag_280:\n      0x20\n      mload(0x40)\n      dup1\n      dup4\n      sub\n      dup2\n      0x00\n      dup8\n      gas\n      call\n      iszero\n      dup1\n      iszero\n      tag_283\n      jumpi\n      returndatasize\n      0x00\n      dup1\n      returndatacopy\n      revert(0x00, returndatasize)\n    tag_283:\n      pop\n      pop\n      pop\n      pop\n      mload(0x40)\n      returndatasize\n      not(0x1f)\n      0x1f\n      dup3\n      add\n      and\n      dup3\n      add\n      dup1\n      0x40\n      mstore\n      pop\n      dup2\n      add\n      swap1\n      tag_284\n      swap2\n      swap1\n      tag_285\n      jump\t// in\n    tag_284:\n      pop\n        /* \"@chainlink/contracts/src/v0.8/VRFConsumerBase.sol\":8152:8167  uint256 vRFSeed */\n      0x00\n        /* \"@chainlink/contracts/src/v0.8/VRFConsumerBase.sol\":8235:8251  nonces[_keyHash] */\n      dup4\n      dup2\n      mstore\n      0x20\n      dup2\n      dup2\n      mstore\n      0x40\n      dup1\n      dup4\n      keccak256\n      sload\n        /* \"@chainlink/contracts/src/v0.8/VRFRequestIDBase.sol\":978:1029  abi.encode(_keyHash, _userSeed, _requester, _nonce) */\n      dup2\n      mload\n      dup1\n      dup5\n      add\n        /* \"#utility.yul\":15071:15096   */\n      dup9\n      swap1\n      mstore\n        /* \"#utility.yul\":15112:15130   */\n      dup1\n      dup4\n      add\n        /* \"#utility.yul\":15105:15139   */\n      dup6\n      swap1\n      mstore\n        /* \"@chainlink/contracts/src/v0.8/VRFConsumerBase.sol\":8228:8232  this */\n      address\n        /* \"#utility.yul\":15155:15173   */\n      0x60\n      dup3\n      add\n        /* \"#utility.yul\":15148:15208   */\n      mstore\n        /* \"#utility.yul\":15224:15242   */\n      0x80\n      dup1\n      dup3\n      add\n        /* \"#utility.yul\":15217:15251   */\n      dup4\n      swap1\n      mstore\n        /* \"@chainlink/contracts/src/v0.8/VRFRequestIDBase.sol\":978:1029  abi.encode(_keyHash, _userSeed, _requester, _nonce) */\n      dup4\n      mload\n      dup1\n      dup4\n      sub\n      swap1\n      swap2\n      add\n      dup2\n      mstore\n        /* \"#utility.yul\":15043:15062   */\n      0xa0\n      swap1\n      swap2\n      add\n        /* \"@chainlink/contracts/src/v0.8/VRFRequestIDBase.sol\":978:1029  abi.encode(_keyHash, _userSeed, _requester, _nonce) */\n      swap1\n      swap3\n      mstore\n        /* \"@chainlink/contracts/src/v0.8/VRFRequestIDBase.sol\":968:1030  keccak256(abi.encode(_keyHash, _userSeed, _requester, _nonce)) */\n      dup2\n      mload\n      swap2\n      dup4\n      add\n      swap2\n      swap1\n      swap2\n      keccak256\n        /* \"@chainlink/contracts/src/v0.8/VRFConsumerBase.sol\":8682:8698  nonces[_keyHash] */\n      dup7\n      dup5\n      mstore\n      swap3\n      swap1\n      swap2\n      mstore\n        /* \"@chainlink/contracts/src/v0.8/VRFConsumerBase.sol\":8682:8702  nonces[_keyHash] + 1 */\n      tag_288\n      swap1\n        /* \"@chainlink/contracts/src/v0.8/VRFConsumerBase.sol\":8701:8702  1 */\n      0x01\n        /* \"@chainlink/contracts/src/v0.8/VRFConsumerBase.sol\":8682:8702  nonces[_keyHash] + 1 */\n      tag_289\n      jump\t// in\n    tag_288:\n        /* \"@chainlink/contracts/src/v0.8/VRFConsumerBase.sol\":8663:8669  nonces */\n      0x00\n        /* \"@chainlink/contracts/src/v0.8/VRFConsumerBase.sol\":8663:8679  nonces[_keyHash] */\n      dup6\n      dup2\n      mstore\n      0x20\n      dup2\n      dup2\n      mstore\n      0x40\n      swap2\n      dup3\n      swap1\n      keccak256\n        /* \"@chainlink/contracts/src/v0.8/VRFConsumerBase.sol\":8663:8702  nonces[_keyHash] = nonces[_keyHash] + 1 */\n      swap3\n      swap1\n      swap3\n      sstore\n        /* \"@chainlink/contracts/src/v0.8/VRFRequestIDBase.sol\":1535:1576  abi.encodePacked(_keyHash, _vRFInputSeed) */\n      dup1\n      mload\n      dup1\n      dup4\n      add\n        /* \"#utility.yul\":12865:12884   */\n      dup8\n      swap1\n      mstore\n        /* \"#utility.yul\":12900:12912   */\n      dup1\n      dup3\n      add\n        /* \"#utility.yul\":12893:12921   */\n      dup5\n      swap1\n      mstore\n        /* \"@chainlink/contracts/src/v0.8/VRFRequestIDBase.sol\":1535:1576  abi.encodePacked(_keyHash, _vRFInputSeed) */\n      dup2\n      mload\n      dup1\n      dup3\n      sub\n      dup4\n      add\n      dup2\n      mstore\n        /* \"#utility.yul\":12937:12949   */\n      0x60\n      swap1\n      swap2\n      add\n        /* \"@chainlink/contracts/src/v0.8/VRFRequestIDBase.sol\":1535:1576  abi.encodePacked(_keyHash, _vRFInputSeed) */\n      swap1\n      swap2\n      mstore\n        /* \"@chainlink/contracts/src/v0.8/VRFRequestIDBase.sol\":1525:1577  keccak256(abi.encodePacked(_keyHash, _vRFInputSeed)) */\n      dup1\n      mload\n      swap2\n      add\n      keccak256\n        /* \"@chainlink/contracts/src/v0.8/VRFConsumerBase.sol\":8715:8747  makeRequestId(_keyHash, vRFSeed) */\n    tag_290:\n        /* \"@chainlink/contracts/src/v0.8/VRFConsumerBase.sol\":8708:8747  return makeRequestId(_keyHash, vRFSeed) */\n      swap5\n        /* \"@chainlink/contracts/src/v0.8/VRFConsumerBase.sol\":7732:8752  function requestRandomness(bytes32 _keyHash, uint256 _fee) internal returns (bytes32 requestId) {... */\n      swap4\n      pop\n      pop\n      pop\n      pop\n      jump\t// out\n        /* \"NFT Tokens/Tk8.sol\":1505:2223  function fulfillRandomness(... */\n    tag_215:\n        /* \"NFT Tokens/Tk8.sol\":1621:1636  uint256 tokenId */\n      0x00\n        /* \"NFT Tokens/Tk8.sol\":1639:1654  totalNFTsMinted */\n      sload(0x0c)\n        /* \"NFT Tokens/Tk8.sol\":1657:1658  1 */\n      0x01\n        /* \"NFT Tokens/Tk8.sol\":1639:1658  totalNFTsMinted + 1 */\n      tag_293\n      swap2\n      swap1\n      tag_289\n      jump\t// in\n    tag_293:\n        /* \"NFT Tokens/Tk8.sol\":1712:1718  traits */\n      0x0e\n        /* \"NFT Tokens/Tk8.sol\":1712:1725  traits.length */\n      sload\n        /* \"NFT Tokens/Tk8.sol\":1621:1658  uint256 tokenId = totalNFTsMinted + 1 */\n      swap1\n      swap2\n      pop\n        /* \"NFT Tokens/Tk8.sol\":1668:1696  string[] memory randomTraits */\n      0x00\n      swap1\n        /* \"NFT Tokens/Tk8.sol\":1699:1726  new string[](traits.length) */\n      0xffffffffffffffff\n      dup2\n      gt\n      iszero\n      tag_295\n      jumpi\n      tag_295\n      tag_296\n      jump\t// in\n    tag_295:\n      mload(0x40)\n      swap1\n      dup1\n      dup3\n      mstore\n      dup1\n      0x20\n      mul\n      0x20\n      add\n      dup3\n      add\n      0x40\n      mstore\n      dup1\n      iszero\n      tag_297\n      jumpi\n      dup2\n      0x20\n      add\n    tag_298:\n      0x60\n      dup2\n      mstore\n      0x20\n      add\n      swap1\n      0x01\n      swap1\n      sub\n      swap1\n      dup2\n      tag_298\n      jumpi\n      swap1\n      pop\n    tag_297:\n      pop\n        /* \"NFT Tokens/Tk8.sol\":1776:1792  new bytes32[](1) */\n      0x40\n      dup1\n      mload\n        /* \"NFT Tokens/Tk8.sol\":1790:1791  1 */\n      0x01\n        /* \"NFT Tokens/Tk8.sol\":1776:1792  new bytes32[](1) */\n      dup1\n      dup3\n      mstore\n      dup2\n      dup4\n      add\n      swap1\n      swap3\n      mstore\n        /* \"NFT Tokens/Tk8.sol\":1668:1726  string[] memory randomTraits = new string[](traits.length) */\n      swap2\n      swap3\n      pop\n        /* \"NFT Tokens/Tk8.sol\":1745:1773  bytes32[] memory randomWords */\n      0x00\n      swap2\n        /* \"NFT Tokens/Tk8.sol\":1776:1792  new bytes32[](1) */\n      swap1\n      0x20\n      dup1\n      dup4\n      add\n      swap1\n      dup1\n      calldatasize\n      dup4\n      calldatacopy\n      add\n      swap1\n      pop\n      pop\n        /* \"NFT Tokens/Tk8.sol\":1745:1792  bytes32[] memory randomWords = new bytes32[](1) */\n      swap1\n      pop\n        /* \"NFT Tokens/Tk8.sol\":1827:1837  randomness */\n      dup4\n        /* \"NFT Tokens/Tk8.sol\":1819:1838  bytes32(randomness) */\n      0x00\n      shl\n        /* \"NFT Tokens/Tk8.sol\":1802:1813  randomWords */\n      dup2\n        /* \"NFT Tokens/Tk8.sol\":1814:1815  0 */\n      0x00\n        /* \"NFT Tokens/Tk8.sol\":1802:1816  randomWords[0] */\n      dup2\n      mload\n      dup2\n      lt\n      tag_303\n      jumpi\n      tag_303\n      tag_304\n      jump\t// in\n    tag_303:\n      0x20\n      mul\n      0x20\n      add\n      add\n        /* \"NFT Tokens/Tk8.sol\":1802:1838  randomWords[0] = bytes32(randomness) */\n      dup2\n      dup2\n      mstore\n      pop\n      pop\n        /* \"NFT Tokens/Tk8.sol\":1862:1868  uint i */\n      0x00\n        /* \"NFT Tokens/Tk8.sol\":1857:2055  for (uint i = 0; i < traits.length; i++) {... */\n    tag_305:\n        /* \"NFT Tokens/Tk8.sol\":1878:1884  traits */\n      0x0e\n        /* \"NFT Tokens/Tk8.sol\":1878:1891  traits.length */\n      sload\n        /* \"NFT Tokens/Tk8.sol\":1874:1891  i < traits.length */\n      dup2\n      lt\n        /* \"NFT Tokens/Tk8.sol\":1857:2055  for (uint i = 0; i < traits.length; i++) {... */\n      iszero\n      tag_306\n      jumpi\n        /* \"NFT Tokens/Tk8.sol\":1912:1925  uint256 index */\n      0x00\n        /* \"NFT Tokens/Tk8.sol\":1986:1992  traits */\n      0x0e\n        /* \"NFT Tokens/Tk8.sol\":1986:1999  traits.length */\n      dup1\n      sload\n      swap1\n      pop\n        /* \"NFT Tokens/Tk8.sol\":1963:1974  randomWords */\n      dup4\n        /* \"NFT Tokens/Tk8.sol\":1975:1976  0 */\n      0x00\n        /* \"NFT Tokens/Tk8.sol\":1963:1977  randomWords[0] */\n      dup2\n      mload\n      dup2\n      lt\n      tag_309\n      jumpi\n      tag_309\n      tag_304\n      jump\t// in\n    tag_309:\n      0x20\n      mul\n      0x20\n      add\n      add\n      mload\n        /* \"NFT Tokens/Tk8.sol\":1979:1980  i */\n      dup4\n        /* \"NFT Tokens/Tk8.sol\":1946:1981  abi.encodePacked(randomWords[0], i) */\n      add(0x20, mload(0x40))\n      tag_310\n      swap3\n      swap2\n      swap1\n        /* \"#utility.yul\":12865:12884   */\n      swap2\n      dup3\n      mstore\n        /* \"#utility.yul\":12909:12911   */\n      0x20\n        /* \"#utility.yul\":12900:12912   */\n      dup3\n      add\n        /* \"#utility.yul\":12893:12921   */\n      mstore\n        /* \"#utility.yul\":12946:12948   */\n      0x40\n        /* \"#utility.yul\":12937:12949   */\n      add\n      swap1\n        /* \"#utility.yul\":12708:12955   */\n      jump\n        /* \"NFT Tokens/Tk8.sol\":1946:1981  abi.encodePacked(randomWords[0], i) */\n    tag_310:\n      mload(0x40)\n      0x20\n      dup2\n      dup4\n      sub\n      sub\n      dup2\n      mstore\n      swap1\n      0x40\n      mstore\n        /* \"NFT Tokens/Tk8.sol\":1936:1982  keccak256(abi.encodePacked(randomWords[0], i)) */\n      dup1\n      mload\n      swap1\n      0x20\n      add\n      keccak256\n        /* \"NFT Tokens/Tk8.sol\":1928:1983  uint256(keccak256(abi.encodePacked(randomWords[0], i))) */\n      0x00\n      shr\n        /* \"NFT Tokens/Tk8.sol\":1928:1999  uint256(keccak256(abi.encodePacked(randomWords[0], i))) % traits.length */\n      tag_312\n      swap2\n      swap1\n      tag_313\n      jump\t// in\n    tag_312:\n        /* \"NFT Tokens/Tk8.sol\":1912:1999  uint256 index = uint256(keccak256(abi.encodePacked(randomWords[0], i))) % traits.length */\n      swap1\n      pop\n        /* \"NFT Tokens/Tk8.sol\":2031:2037  traits */\n      0x0e\n        /* \"NFT Tokens/Tk8.sol\":2038:2043  index */\n      dup2\n        /* \"NFT Tokens/Tk8.sol\":2031:2044  traits[index] */\n      dup2\n      sload\n      dup2\n      lt\n      tag_315\n      jumpi\n      tag_315\n      tag_304\n      jump\t// in\n    tag_315:\n      swap1\n      0x00\n      mstore\n      keccak256(0x00, 0x20)\n      add\n        /* \"NFT Tokens/Tk8.sol\":2013:2044  randomTraits[i] = traits[index] */\n      dup1\n      sload\n      tag_317\n      swap1\n      tag_151\n      jump\t// in\n    tag_317:\n      dup1\n      0x1f\n      add\n      0x20\n      dup1\n      swap2\n      div\n      mul\n      0x20\n      add\n      mload(0x40)\n      swap1\n      dup2\n      add\n      0x40\n      mstore\n      dup1\n      swap3\n      swap2\n      swap1\n      dup2\n      dup2\n      mstore\n      0x20\n      add\n      dup3\n      dup1\n      sload\n      tag_318\n      swap1\n      tag_151\n      jump\t// in\n    tag_318:\n      dup1\n      iszero\n      tag_319\n      jumpi\n      dup1\n      0x1f\n      lt\n      tag_320\n      jumpi\n      0x0100\n      dup1\n      dup4\n      sload\n      div\n      mul\n      dup4\n      mstore\n      swap2\n      0x20\n      add\n      swap2\n      jump(tag_319)\n    tag_320:\n      dup3\n      add\n      swap2\n      swap1\n      0x00\n      mstore\n      keccak256(0x00, 0x20)\n      swap1\n    tag_321:\n      dup2\n      sload\n      dup2\n      mstore\n      swap1\n      0x01\n      add\n      swap1\n      0x20\n      add\n      dup1\n      dup4\n      gt\n      tag_321\n      jumpi\n      dup3\n      swap1\n      sub\n      0x1f\n      and\n      dup3\n      add\n      swap2\n    tag_319:\n      pop\n      pop\n      pop\n      pop\n      pop\n        /* \"NFT Tokens/Tk8.sol\":2013:2025  randomTraits */\n      dup5\n        /* \"NFT Tokens/Tk8.sol\":2026:2027  i */\n      dup4\n        /* \"NFT Tokens/Tk8.sol\":2013:2028  randomTraits[i] */\n      dup2\n      mload\n      dup2\n      lt\n      tag_323\n      jumpi\n      tag_323\n      tag_304\n      jump\t// in\n    tag_323:\n      0x20\n      swap1\n      dup2\n      mul\n      swap2\n      swap1\n      swap2\n      add\n      add\n        /* \"NFT Tokens/Tk8.sol\":2013:2044  randomTraits[i] = traits[index] */\n      mstore\n      pop\n        /* \"NFT Tokens/Tk8.sol\":1893:1896  i++ */\n      0x01\n      add\n        /* \"NFT Tokens/Tk8.sol\":1857:2055  for (uint i = 0; i < traits.length; i++) {... */\n      jump(tag_305)\n    tag_306:\n      pop\n        /* \"NFT Tokens/Tk8.sol\":2073:2091  nftTraits[tokenId] */\n      0x00\n      dup4\n      dup2\n      mstore\n        /* \"NFT Tokens/Tk8.sol\":2073:2082  nftTraits */\n      0x0f\n        /* \"NFT Tokens/Tk8.sol\":2073:2091  nftTraits[tokenId] */\n      0x20\n      swap1\n      dup2\n      mstore\n      0x40\n      swap1\n      swap2\n      keccak256\n        /* \"NFT Tokens/Tk8.sol\":2073:2106  nftTraits[tokenId] = randomTraits */\n      dup4\n      mload\n      tag_324\n      swap3\n      dup6\n      add\n      swap1\n      tag_325\n      jump\t// in\n    tag_324:\n      pop\n        /* \"NFT Tokens/Tk8.sol\":2116:2142  _mint(msg.sender, tokenId) */\n      tag_326\n        /* \"NFT Tokens/Tk8.sol\":2122:2132  msg.sender */\n      caller\n        /* \"NFT Tokens/Tk8.sol\":2134:2141  tokenId */\n      dup5\n        /* \"NFT Tokens/Tk8.sol\":2116:2121  _mint */\n      tag_327\n        /* \"NFT Tokens/Tk8.sol\":2116:2142  _mint(msg.sender, tokenId) */\n      jump\t// in\n    tag_326:\n        /* \"NFT Tokens/Tk8.sol\":2152:2167  totalNFTsMinted */\n      0x0c\n        /* \"NFT Tokens/Tk8.sol\":2152:2169  totalNFTsMinted++ */\n      dup1\n      sload\n      swap1\n        /* \"NFT Tokens/Tk8.sol\":2152:2167  totalNFTsMinted */\n      0x00\n        /* \"NFT Tokens/Tk8.sol\":2152:2169  totalNFTsMinted++ */\n      tag_328\n      dup4\n      tag_329\n      jump\t// in\n    tag_328:\n      swap2\n      swap1\n      pop\n      sstore\n      pop\n        /* \"NFT Tokens/Tk8.sol\":2184:2216  NFTMinted(tokenId, randomTraits) */\n      0x65f952dd632608f6d1db9e9311e0972e973f6e783ba47c13460083c575bf07f3\n        /* \"NFT Tokens/Tk8.sol\":2194:2201  tokenId */\n      dup4\n        /* \"NFT Tokens/Tk8.sol\":2203:2215  randomTraits */\n      dup4\n        /* \"NFT Tokens/Tk8.sol\":2184:2216  NFTMinted(tokenId, randomTraits) */\n      mload(0x40)\n      tag_330\n      swap3\n      swap2\n      swap1\n      tag_331\n      jump\t// in\n    tag_330:\n      mload(0x40)\n      dup1\n      swap2\n      sub\n      swap1\n      log1\n        /* \"NFT Tokens/Tk8.sol\":1611:2223  {... */\n      pop\n      pop\n      pop\n        /* \"NFT Tokens/Tk8.sol\":1505:2223  function fulfillRandomness(... */\n      pop\n      pop\n      jump\t// out\n        /* \"@openzeppelin/contracts/token/ERC721/ERC721.sol\":15591:15903  function _setApprovalForAll(address owner, address operator, bool approved) internal virtual {... */\n    tag_228:\n      sub(shl(0xa0, 0x01), 0x01)\n        /* \"@openzeppelin/contracts/token/ERC721/ERC721.sol\":15698:15720  operator == address(0) */\n      dup3\n      and\n        /* \"@openzeppelin/contracts/token/ERC721/ERC721.sol\":15694:15785  if (operator == address(0)) {... */\n      tag_333\n      jumpi\n        /* \"@openzeppelin/contracts/token/ERC721/ERC721.sol\":15743:15774  ERC721InvalidOperator(operator) */\n      mload(0x40)\n      shl(0xe3, 0x0b611743)\n      dup2\n      mstore\n      sub(shl(0xa0, 0x01), 0x01)\n        /* \"#utility.yul\":1482:1514   */\n      dup4\n      and\n        /* \"@openzeppelin/contracts/token/ERC721/ERC721.sol\":15743:15774  ERC721InvalidOperator(operator) */\n      0x04\n      dup3\n      add\n        /* \"#utility.yul\":1464:1515   */\n      mstore\n        /* \"#utility.yul\":1437:1455   */\n      0x24\n      add\n        /* \"@openzeppelin/contracts/token/ERC721/ERC721.sol\":15743:15774  ERC721InvalidOperator(operator) */\n      tag_168\n        /* \"#utility.yul\":1318:1521   */\n      jump\n        /* \"@openzeppelin/contracts/token/ERC721/ERC721.sol\":15694:15785  if (operator == address(0)) {... */\n    tag_333:\n      sub(shl(0xa0, 0x01), 0x01)\n        /* \"@openzeppelin/contracts/token/ERC721/ERC721.sol\":15794:15819  _operatorApprovals[owner] */\n      dup4\n      dup2\n      and\n      0x00\n      dup2\n      dup2\n      mstore\n        /* \"@openzeppelin/contracts/token/ERC721/ERC721.sol\":15794:15812  _operatorApprovals */\n      0x06\n        /* \"@openzeppelin/contracts/token/ERC721/ERC721.sol\":15794:15819  _operatorApprovals[owner] */\n      0x20\n      swap1\n      dup2\n      mstore\n      0x40\n      dup1\n      dup4\n      keccak256\n        /* \"@openzeppelin/contracts/token/ERC721/ERC721.sol\":15794:15829  _operatorApprovals[owner][operator] */\n      swap5\n      dup8\n      and\n      dup1\n      dup5\n      mstore\n      swap5\n      dup3\n      mstore\n      swap2\n      dup3\n      swap1\n      keccak256\n        /* \"@openzeppelin/contracts/token/ERC721/ERC721.sol\":15794:15840  _operatorApprovals[owner][operator] = approved */\n      dup1\n      sload\n      not(0xff)\n      and\n      dup7\n      iszero\n      iszero\n      swap1\n      dup2\n      or\n      swap1\n      swap2\n      sstore\n        /* \"@openzeppelin/contracts/token/ERC721/ERC721.sol\":15855:15896  ApprovalForAll(owner, operator, approved) */\n      swap2\n      mload\n        /* \"#utility.yul\":540:581   */\n      swap2\n      dup3\n      mstore\n        /* \"@openzeppelin/contracts/token/ERC721/ERC721.sol\":15855:15896  ApprovalForAll(owner, operator, approved) */\n      0x17307eab39ab6107e8899845ad3d59bd9653f200f220920489ca2b5937696c31\n      swap2\n        /* \"#utility.yul\":513:531   */\n      add\n        /* \"@openzeppelin/contracts/token/ERC721/ERC721.sol\":15855:15896  ApprovalForAll(owner, operator, approved) */\n      mload(0x40)\n      dup1\n      swap2\n      sub\n      swap1\n      log3\n        /* \"@openzeppelin/contracts/token/ERC721/ERC721.sol\":15591:15903  function _setApprovalForAll(address owner, address operator, bool approved) internal virtual {... */\n      pop\n      pop\n      pop\n      jump\t// out\n        /* \"@openzeppelin/contracts/token/ERC721/ERC721.sol\":16918:17700  function _checkOnERC721Received(address from, address to, uint256 tokenId, bytes memory data) private {... */\n    tag_241:\n      sub(shl(0xa0, 0x01), 0x01)\n        /* \"@openzeppelin/contracts/token/ERC721/ERC721.sol\":17034:17048  to.code.length */\n      dup4\n      and\n      extcodesize\n        /* \"@openzeppelin/contracts/token/ERC721/ERC721.sol\":17034:17052  to.code.length > 0 */\n      iszero\n        /* \"@openzeppelin/contracts/token/ERC721/ERC721.sol\":17030:17694  if (to.code.length > 0) {... */\n      tag_172\n      jumpi\n        /* \"@openzeppelin/contracts/token/ERC721/ERC721.sol\":17072:17143  IERC721Receiver(to).onERC721Received(_msgSender(), from, tokenId, data) */\n      mload(0x40)\n      shl(0xe1, 0x0a85bd01)\n      dup2\n      mstore\n      sub(shl(0xa0, 0x01), 0x01)\n        /* \"@openzeppelin/contracts/token/ERC721/ERC721.sol\":17072:17108  IERC721Receiver(to).onERC721Received */\n      dup5\n      and\n      swap1\n      0x150b7a02\n      swap1\n        /* \"@openzeppelin/contracts/token/ERC721/ERC721.sol\":17072:17143  IERC721Receiver(to).onERC721Received(_msgSender(), from, tokenId, data) */\n      tag_339\n      swap1\n        /* \"@openzeppelin/contracts/utils/Context.sol\":735:745  msg.sender */\n      caller\n      swap1\n        /* \"@openzeppelin/contracts/token/ERC721/ERC721.sol\":17123:17127  from */\n      dup9\n      swap1\n        /* \"@openzeppelin/contracts/token/ERC721/ERC721.sol\":17129:17136  tokenId */\n      dup8\n      swap1\n        /* \"@openzeppelin/contracts/token/ERC721/ERC721.sol\":17138:17142  data */\n      dup8\n      swap1\n        /* \"@openzeppelin/contracts/token/ERC721/ERC721.sol\":17072:17143  IERC721Receiver(to).onERC721Received(_msgSender(), from, tokenId, data) */\n      0x04\n      add\n      tag_340\n      jump\t// in\n    tag_339:\n      0x20\n      mload(0x40)\n      dup1\n      dup4\n      sub\n      dup2\n      0x00\n      dup8\n      gas\n      call\n      swap3\n      pop\n      pop\n      pop\n      dup1\n      iszero\n      tag_341\n      jumpi\n      pop\n      0x40\n      dup1\n      mload\n      0x1f\n      returndatasize\n      swap1\n      dup2\n      add\n      not(0x1f)\n      and\n      dup3\n      add\n      swap1\n      swap3\n      mstore\n      tag_342\n      swap2\n      dup2\n      add\n      swap1\n      tag_343\n      jump\t// in\n    tag_342:\n      0x01\n    tag_341:\n        /* \"@openzeppelin/contracts/token/ERC721/ERC721.sol\":17068:17684  try IERC721Receiver(to).onERC721Received(_msgSender(), from, tokenId, data) returns (bytes4 retval) {... */\n      tag_344\n      jumpi\n      returndatasize\n      dup1\n      dup1\n      iszero\n      tag_349\n      jumpi\n      mload(0x40)\n      swap2\n      pop\n      and(add(returndatasize, 0x3f), not(0x1f))\n      dup3\n      add\n      0x40\n      mstore\n      returndatasize\n      dup3\n      mstore\n      returndatasize\n      0x00\n      0x20\n      dup5\n      add\n      returndatacopy\n      jump(tag_348)\n    tag_349:\n      0x60\n      swap2\n      pop\n    tag_348:\n      pop\n        /* \"@openzeppelin/contracts/token/ERC721/ERC721.sol\":17381:17387  reason */\n      dup1\n        /* \"@openzeppelin/contracts/token/ERC721/ERC721.sol\":17381:17394  reason.length */\n      mload\n        /* \"@openzeppelin/contracts/token/ERC721/ERC721.sol\":17398:17399  0 */\n      0x00\n        /* \"@openzeppelin/contracts/token/ERC721/ERC721.sol\":17381:17399  reason.length == 0 */\n      sub\n        /* \"@openzeppelin/contracts/token/ERC721/ERC721.sol\":17377:17670  if (reason.length == 0) {... */\n      tag_350\n      jumpi\n        /* \"@openzeppelin/contracts/token/ERC721/ERC721.sol\":17430:17455  ERC721InvalidReceiver(to) */\n      mload(0x40)\n      shl(0xe1, 0x32505749)\n      dup2\n      mstore\n      sub(shl(0xa0, 0x01), 0x01)\n        /* \"#utility.yul\":1482:1514   */\n      dup6\n      and\n        /* \"@openzeppelin/contracts/token/ERC721/ERC721.sol\":17430:17455  ERC721InvalidReceiver(to) */\n      0x04\n      dup3\n      add\n        /* \"#utility.yul\":1464:1515   */\n      mstore\n        /* \"#utility.yul\":1437:1455   */\n      0x24\n      add\n        /* \"@openzeppelin/contracts/token/ERC721/ERC721.sol\":17430:17455  ERC721InvalidReceiver(to) */\n      tag_168\n        /* \"#utility.yul\":1318:1521   */\n      jump\n        /* \"@openzeppelin/contracts/token/ERC721/ERC721.sol\":17377:17670  if (reason.length == 0) {... */\n    tag_350:\n        /* \"@openzeppelin/contracts/token/ERC721/ERC721.sol\":17622:17628  reason */\n      dup1\n        /* \"@openzeppelin/contracts/token/ERC721/ERC721.sol\":17616:17629  mload(reason) */\n      mload\n        /* \"@openzeppelin/contracts/token/ERC721/ERC721.sol\":17607:17613  reason */\n      dup2\n        /* \"@openzeppelin/contracts/token/ERC721/ERC721.sol\":17603:17605  32 */\n      0x20\n        /* \"@openzeppelin/contracts/token/ERC721/ERC721.sol\":17599:17614  add(32, reason) */\n      add\n        /* \"@openzeppelin/contracts/token/ERC721/ERC721.sol\":17592:17630  revert(add(32, reason), mload(reason)) */\n      revert\n        /* \"@openzeppelin/contracts/token/ERC721/ERC721.sol\":17068:17684  try IERC721Receiver(to).onERC721Received(_msgSender(), from, tokenId, data) returns (bytes4 retval) {... */\n    tag_344:\n      not(sub(shl(0xe0, 0x01), 0x01))\n        /* \"@openzeppelin/contracts/token/ERC721/ERC721.sol\":17190:17241  retval != IERC721Receiver.onERC721Received.selector */\n      dup2\n      and\n      shl(0xe1, 0x0a85bd01)\n      eq\n        /* \"@openzeppelin/contracts/token/ERC721/ERC721.sol\":17186:17316  if (retval != IERC721Receiver.onERC721Received.selector) {... */\n      tag_354\n      jumpi\n        /* \"@openzeppelin/contracts/token/ERC721/ERC721.sol\":17272:17297  ERC721InvalidReceiver(to) */\n      mload(0x40)\n      shl(0xe1, 0x32505749)\n      dup2\n      mstore\n      sub(shl(0xa0, 0x01), 0x01)\n        /* \"#utility.yul\":1482:1514   */\n      dup6\n      and\n        /* \"@openzeppelin/contracts/token/ERC721/ERC721.sol\":17272:17297  ERC721InvalidReceiver(to) */\n      0x04\n      dup3\n      add\n        /* \"#utility.yul\":1464:1515   */\n      mstore\n        /* \"#utility.yul\":1437:1455   */\n      0x24\n      add\n        /* \"@openzeppelin/contracts/token/ERC721/ERC721.sol\":17272:17297  ERC721InvalidReceiver(to) */\n      tag_168\n        /* \"#utility.yul\":1318:1521   */\n      jump\n        /* \"@openzeppelin/contracts/token/ERC721/ERC721.sol\":17186:17316  if (retval != IERC721Receiver.onERC721Received.selector) {... */\n    tag_354:\n        /* \"@openzeppelin/contracts/token/ERC721/ERC721.sol\":17144:17330  returns (bytes4 retval) {... */\n      pop\n        /* \"@openzeppelin/contracts/token/ERC721/ERC721.sol\":16918:17700  function _checkOnERC721Received(address from, address to, uint256 tokenId, bytes memory data) private {... */\n      pop\n      pop\n      pop\n      pop\n      jump\t// out\n        /* \"@openzeppelin/contracts/utils/Strings.sol\":637:1335  function toString(uint256 value) internal pure returns (string memory) {... */\n    tag_249:\n        /* \"@openzeppelin/contracts/utils/Strings.sol\":693:706  string memory */\n      0x60\n        /* \"@openzeppelin/contracts/utils/Strings.sol\":742:756  uint256 length */\n      0x00\n        /* \"@openzeppelin/contracts/utils/Strings.sol\":759:776  Math.log10(value) */\n      tag_358\n        /* \"@openzeppelin/contracts/utils/Strings.sol\":770:775  value */\n      dup4\n        /* \"@openzeppelin/contracts/utils/Strings.sol\":759:769  Math.log10 */\n      tag_359\n        /* \"@openzeppelin/contracts/utils/Strings.sol\":759:776  Math.log10(value) */\n      jump\t// in\n    tag_358:\n        /* \"@openzeppelin/contracts/utils/Strings.sol\":779:780  1 */\n      0x01\n        /* \"@openzeppelin/contracts/utils/Strings.sol\":759:780  Math.log10(value) + 1 */\n      add\n        /* \"@openzeppelin/contracts/utils/Strings.sol\":742:780  uint256 length = Math.log10(value) + 1 */\n      swap1\n      pop\n        /* \"@openzeppelin/contracts/utils/Strings.sol\":794:814  string memory buffer */\n      0x00\n        /* \"@openzeppelin/contracts/utils/Strings.sol\":828:834  length */\n      dup2\n        /* \"@openzeppelin/contracts/utils/Strings.sol\":817:835  new string(length) */\n      0xffffffffffffffff\n      dup2\n      gt\n      iszero\n      tag_361\n      jumpi\n      tag_361\n      tag_296\n      jump\t// in\n    tag_361:\n      mload(0x40)\n      swap1\n      dup1\n      dup3\n      mstore\n      dup1\n      0x1f\n      add\n      not(0x1f)\n      and\n      0x20\n      add\n      dup3\n      add\n      0x40\n      mstore\n      dup1\n      iszero\n      tag_362\n      jumpi\n      0x20\n      dup3\n      add\n      dup2\n      dup1\n      calldatasize\n      dup4\n      calldatacopy\n      add\n      swap1\n      pop\n    tag_362:\n      pop\n        /* \"@openzeppelin/contracts/utils/Strings.sol\":794:835  string memory buffer = new string(length) */\n      swap1\n      pop\n        /* \"@openzeppelin/contracts/utils/Strings.sol\":955:983  add(buffer, add(32, length)) */\n      dup2\n      dup2\n      add\n        /* \"@openzeppelin/contracts/utils/Strings.sol\":971:973  32 */\n      0x20\n        /* \"@openzeppelin/contracts/utils/Strings.sol\":955:983  add(buffer, add(32, length)) */\n      add\n        /* \"@openzeppelin/contracts/utils/Strings.sol\":1010:1292  while (true) {... */\n    tag_363:\n      not(0x00)\n        /* \"@openzeppelin/contracts/utils/Strings.sol\":1041:1046  ptr-- */\n      add\n      shl(0x81, 0x181899199a1a9b1b9c1cb0b131b232b3)\n        /* \"@openzeppelin/contracts/utils/Strings.sol\":1175:1177  10 */\n      0x0a\n        /* \"@openzeppelin/contracts/utils/Strings.sol\":1164:1178  mod(value, 10) */\n      dup7\n      mod\n        /* \"@openzeppelin/contracts/utils/Strings.sol\":1159:1191  byte(mod(value, 10), HEX_DIGITS) */\n      byte\n        /* \"@openzeppelin/contracts/utils/Strings.sol\":1041:1046  ptr-- */\n      dup2\n        /* \"@openzeppelin/contracts/utils/Strings.sol\":1146:1192  mstore8(ptr, byte(mod(value, 10), HEX_DIGITS)) */\n      mstore8\n        /* \"@openzeppelin/contracts/utils/Strings.sol\":1236:1238  10 */\n      0x0a\n        /* \"@openzeppelin/contracts/utils/Strings.sol\":1227:1238  value /= 10 */\n      dup6\n      div\n      swap5\n      pop\n        /* \"@openzeppelin/contracts/utils/Strings.sol\":1256:1277  if (value == 0) break */\n      dup5\n        /* \"@openzeppelin/contracts/utils/Strings.sol\":1010:1292  while (true) {... */\n      tag_363\n        /* \"@openzeppelin/contracts/utils/Strings.sol\":1256:1277  if (value == 0) break */\n      jumpi\n      pop\n        /* \"@openzeppelin/contracts/utils/Strings.sol\":1312:1318  buffer */\n      swap4\n        /* \"@openzeppelin/contracts/utils/Strings.sol\":637:1335  function toString(uint256 value) internal pure returns (string memory) {... */\n      swap3\n      pop\n      pop\n      pop\n      jump\t// out\n        /* \"@openzeppelin/contracts/token/ERC721/ERC721.sol\":14720:15382  function _approve(address to, uint256 tokenId, address auth, bool emitEvent) internal virtual {... */\n    tag_268:\n        /* \"@openzeppelin/contracts/token/ERC721/ERC721.sol\":14880:14889  emitEvent */\n      dup1\n        /* \"@openzeppelin/contracts/token/ERC721/ERC721.sol\":14880:14911  emitEvent || auth != address(0) */\n      dup1\n      tag_371\n      jumpi\n      pop\n      sub(shl(0xa0, 0x01), 0x01)\n        /* \"@openzeppelin/contracts/token/ERC721/ERC721.sol\":14893:14911  auth != address(0) */\n      dup3\n      and\n      iszero\n      iszero\n        /* \"@openzeppelin/contracts/token/ERC721/ERC721.sol\":14880:14911  emitEvent || auth != address(0) */\n    tag_371:\n        /* \"@openzeppelin/contracts/token/ERC721/ERC721.sol\":14876:15336  if (emitEvent || auth != address(0)) {... */\n      iszero\n      tag_372\n      jumpi\n        /* \"@openzeppelin/contracts/token/ERC721/ERC721.sol\":14927:14940  address owner */\n      0x00\n        /* \"@openzeppelin/contracts/token/ERC721/ERC721.sol\":14943:14965  _requireOwned(tokenId) */\n      tag_373\n        /* \"@openzeppelin/contracts/token/ERC721/ERC721.sol\":14957:14964  tokenId */\n      dup5\n        /* \"@openzeppelin/contracts/token/ERC721/ERC721.sol\":14943:14956  _requireOwned */\n      tag_158\n        /* \"@openzeppelin/contracts/token/ERC721/ERC721.sol\":14943:14965  _requireOwned(tokenId) */\n      jump\t// in\n    tag_373:\n        /* \"@openzeppelin/contracts/token/ERC721/ERC721.sol\":14927:14965  address owner = _requireOwned(tokenId) */\n      swap1\n      pop\n      sub(shl(0xa0, 0x01), 0x01)\n        /* \"@openzeppelin/contracts/token/ERC721/ERC721.sol\":15093:15111  auth != address(0) */\n      dup4\n      and\n      iszero\n      dup1\n      iszero\n      swap1\n        /* \"@openzeppelin/contracts/token/ERC721/ERC721.sol\":15093:15128  auth != address(0) && owner != auth */\n      tag_374\n      jumpi\n      pop\n        /* \"@openzeppelin/contracts/token/ERC721/ERC721.sol\":15124:15128  auth */\n      dup3\n      sub(shl(0xa0, 0x01), 0x01)\n        /* \"@openzeppelin/contracts/token/ERC721/ERC721.sol\":15115:15128  owner != auth */\n      and\n        /* \"@openzeppelin/contracts/token/ERC721/ERC721.sol\":15115:15120  owner */\n      dup2\n      sub(shl(0xa0, 0x01), 0x01)\n        /* \"@openzeppelin/contracts/token/ERC721/ERC721.sol\":15115:15128  owner != auth */\n      and\n      eq\n      iszero\n        /* \"@openzeppelin/contracts/token/ERC721/ERC721.sol\":15093:15128  auth != address(0) && owner != auth */\n    tag_374:\n        /* \"@openzeppelin/contracts/token/ERC721/ERC721.sol\":15093:15162  auth != address(0) && owner != auth && !isApprovedForAll(owner, auth) */\n      dup1\n      iszero\n      tag_375\n      jumpi\n      pop\n        /* \"@openzeppelin/contracts/token/ERC721/ERC721.sol\":15133:15162  isApprovedForAll(owner, auth) */\n      tag_376\n        /* \"@openzeppelin/contracts/token/ERC721/ERC721.sol\":15150:15155  owner */\n      dup2\n        /* \"@openzeppelin/contracts/token/ERC721/ERC721.sol\":15157:15161  auth */\n      dup5\n        /* \"@openzeppelin/contracts/token/ERC721/ERC721.sol\":15133:15149  isApprovedForAll */\n      tag_136\n        /* \"@openzeppelin/contracts/token/ERC721/ERC721.sol\":15133:15162  isApprovedForAll(owner, auth) */\n      jump\t// in\n    tag_376:\n        /* \"@openzeppelin/contracts/token/ERC721/ERC721.sol\":15132:15162  !isApprovedForAll(owner, auth) */\n      iszero\n        /* \"@openzeppelin/contracts/token/ERC721/ERC721.sol\":15093:15162  auth != address(0) && owner != auth && !isApprovedForAll(owner, auth) */\n    tag_375:\n        /* \"@openzeppelin/contracts/token/ERC721/ERC721.sol\":15089:15231  if (auth != address(0) && owner != auth && !isApprovedForAll(owner, auth)) {... */\n      iszero\n      tag_377\n      jumpi\n        /* \"@openzeppelin/contracts/token/ERC721/ERC721.sol\":15189:15216  ERC721InvalidApprover(auth) */\n      mload(0x40)\n      shl(0xe0, 0xa9fbf51f)\n      dup2\n      mstore\n      sub(shl(0xa0, 0x01), 0x01)\n        /* \"#utility.yul\":1482:1514   */\n      dup5\n      and\n        /* \"@openzeppelin/contracts/token/ERC721/ERC721.sol\":15189:15216  ERC721InvalidApprover(auth) */\n      0x04\n      dup3\n      add\n        /* \"#utility.yul\":1464:1515   */\n      mstore\n        /* \"#utility.yul\":1437:1455   */\n      0x24\n      add\n        /* \"@openzeppelin/contracts/token/ERC721/ERC721.sol\":15189:15216  ERC721InvalidApprover(auth) */\n      tag_168\n        /* \"#utility.yul\":1318:1521   */\n      jump\n        /* \"@openzeppelin/contracts/token/ERC721/ERC721.sol\":15089:15231  if (auth != address(0) && owner != auth && !isApprovedForAll(owner, auth)) {... */\n    tag_377:\n        /* \"@openzeppelin/contracts/token/ERC721/ERC721.sol\":15249:15258  emitEvent */\n      dup2\n        /* \"@openzeppelin/contracts/token/ERC721/ERC721.sol\":15245:15326  if (emitEvent) {... */\n      iszero\n      tag_379\n      jumpi\n        /* \"@openzeppelin/contracts/token/ERC721/ERC721.sol\":15303:15310  tokenId */\n      dup4\n        /* \"@openzeppelin/contracts/token/ERC721/ERC721.sol\":15299:15301  to */\n      dup6\n      sub(shl(0xa0, 0x01), 0x01)\n        /* \"@openzeppelin/contracts/token/ERC721/ERC721.sol\":15283:15311  Approval(owner, to, tokenId) */\n      and\n        /* \"@openzeppelin/contracts/token/ERC721/ERC721.sol\":15292:15297  owner */\n      dup3\n      sub(shl(0xa0, 0x01), 0x01)\n        /* \"@openzeppelin/contracts/token/ERC721/ERC721.sol\":15283:15311  Approval(owner, to, tokenId) */\n      and\n      0x8c5be1e5ebec7d5bd14f71427d1e84f3dd0314c0f7b2291e5b200ac8c7c3b925\n      mload(0x40)\n      mload(0x40)\n      dup1\n      swap2\n      sub\n      swap1\n      log4\n        /* \"@openzeppelin/contracts/token/ERC721/ERC721.sol\":15245:15326  if (emitEvent) {... */\n    tag_379:\n        /* \"@openzeppelin/contracts/token/ERC721/ERC721.sol\":14913:15336  {... */\n      pop\n        /* \"@openzeppelin/contracts/token/ERC721/ERC721.sol\":14876:15336  if (emitEvent || auth != address(0)) {... */\n    tag_372:\n      pop\n      pop\n        /* \"@openzeppelin/contracts/token/ERC721/ERC721.sol\":15346:15370  _tokenApprovals[tokenId] */\n      0x00\n      swap1\n      dup2\n      mstore\n        /* \"@openzeppelin/contracts/token/ERC721/ERC721.sol\":15346:15361  _tokenApprovals */\n      0x05\n        /* \"@openzeppelin/contracts/token/ERC721/ERC721.sol\":15346:15370  _tokenApprovals[tokenId] */\n      0x20\n      mstore\n      0x40\n      swap1\n      keccak256\n        /* \"@openzeppelin/contracts/token/ERC721/ERC721.sol\":15346:15375  _tokenApprovals[tokenId] = to */\n      dup1\n      sload\n      not(sub(shl(0xa0, 0x01), 0x01))\n      and\n      sub(shl(0xa0, 0x01), 0x01)\n      swap3\n      swap1\n      swap3\n      and\n      swap2\n      swap1\n      swap2\n      or\n      swap1\n      sstore\n        /* \"@openzeppelin/contracts/token/ERC721/ERC721.sol\":14720:15382  function _approve(address to, uint256 tokenId, address auth, bool emitEvent) internal virtual {... */\n      jump\t// out\n        /* \"@openzeppelin/contracts/token/ERC721/ERC721.sol\":7082:7450  function _checkAuthorized(address owner, address spender, uint256 tokenId) internal view virtual {... */\n    tag_273:\n        /* \"@openzeppelin/contracts/token/ERC721/ERC721.sol\":7194:7232  _isAuthorized(owner, spender, tokenId) */\n      tag_381\n        /* \"@openzeppelin/contracts/token/ERC721/ERC721.sol\":7208:7213  owner */\n      dup4\n        /* \"@openzeppelin/contracts/token/ERC721/ERC721.sol\":7215:7222  spender */\n      dup4\n        /* \"@openzeppelin/contracts/token/ERC721/ERC721.sol\":7224:7231  tokenId */\n      dup4\n        /* \"@openzeppelin/contracts/token/ERC721/ERC721.sol\":7194:7207  _isAuthorized */\n      tag_382\n        /* \"@openzeppelin/contracts/token/ERC721/ERC721.sol\":7194:7232  _isAuthorized(owner, spender, tokenId) */\n      jump\t// in\n    tag_381:\n        /* \"@openzeppelin/contracts/token/ERC721/ERC721.sol\":7189:7444  if (!_isAuthorized(owner, spender, tokenId)) {... */\n      tag_194\n      jumpi\n      sub(shl(0xa0, 0x01), 0x01)\n        /* \"@openzeppelin/contracts/token/ERC721/ERC721.sol\":7252:7271  owner == address(0) */\n      dup4\n      and\n        /* \"@openzeppelin/contracts/token/ERC721/ERC721.sol\":7248:7434  if (owner == address(0)) {... */\n      tag_384\n      jumpi\n        /* \"@openzeppelin/contracts/token/ERC721/ERC721.sol\":7298:7329  ERC721NonexistentToken(tokenId) */\n      mload(0x40)\n      shl(0xe0, 0x7e273289)\n      dup2\n      mstore\n      0x04\n      dup2\n      add\n        /* \"#utility.yul\":2442:2467   */\n      dup3\n      swap1\n      mstore\n        /* \"#utility.yul\":2415:2433   */\n      0x24\n      add\n        /* \"@openzeppelin/contracts/token/ERC721/ERC721.sol\":7298:7329  ERC721NonexistentToken(tokenId) */\n      tag_168\n        /* \"#utility.yul\":2296:2473   */\n      jump\n        /* \"@openzeppelin/contracts/token/ERC721/ERC721.sol\":7248:7434  if (owner == address(0)) {... */\n    tag_384:\n        /* \"@openzeppelin/contracts/token/ERC721/ERC721.sol\":7375:7419  ERC721InsufficientApproval(spender, tokenId) */\n      mload(0x40)\n      shl(0xe0, 0x177e802f)\n      dup2\n      mstore\n      sub(shl(0xa0, 0x01), 0x01)\n        /* \"#utility.yul\":14753:14785   */\n      dup4\n      and\n        /* \"@openzeppelin/contracts/token/ERC721/ERC721.sol\":7375:7419  ERC721InsufficientApproval(spender, tokenId) */\n      0x04\n      dup3\n      add\n        /* \"#utility.yul\":14735:14786   */\n      mstore\n        /* \"#utility.yul\":14802:14820   */\n      0x24\n      dup2\n      add\n        /* \"#utility.yul\":14795:14829   */\n      dup3\n      swap1\n      mstore\n        /* \"#utility.yul\":14708:14726   */\n      0x44\n      add\n        /* \"@openzeppelin/contracts/token/ERC721/ERC721.sol\":7375:7419  ERC721InsufficientApproval(spender, tokenId) */\n      tag_168\n        /* \"#utility.yul\":14561:14835   */\n      jump\n        /* \"@openzeppelin/contracts/token/ERC721/ERC721.sol\":9955:10282  function _mint(address to, uint256 tokenId) internal {... */\n    tag_327:\n      sub(shl(0xa0, 0x01), 0x01)\n        /* \"@openzeppelin/contracts/token/ERC721/ERC721.sol\":10022:10038  to == address(0) */\n      dup3\n      and\n        /* \"@openzeppelin/contracts/token/ERC721/ERC721.sol\":10018:10105  if (to == address(0)) {... */\n      tag_395\n      jumpi\n        /* \"@openzeppelin/contracts/token/ERC721/ERC721.sol\":10061:10094  ERC721InvalidReceiver(address(0)) */\n      mload(0x40)\n      shl(0xe1, 0x32505749)\n      dup2\n      mstore\n        /* \"@openzeppelin/contracts/token/ERC721/ERC721.sol\":10091:10092  0 */\n      0x00\n        /* \"@openzeppelin/contracts/token/ERC721/ERC721.sol\":10061:10094  ERC721InvalidReceiver(address(0)) */\n      0x04\n      dup3\n      add\n        /* \"#utility.yul\":1464:1515   */\n      mstore\n        /* \"#utility.yul\":1437:1455   */\n      0x24\n      add\n        /* \"@openzeppelin/contracts/token/ERC721/ERC721.sol\":10061:10094  ERC721InvalidReceiver(address(0)) */\n      tag_168\n        /* \"#utility.yul\":1318:1521   */\n      jump\n        /* \"@openzeppelin/contracts/token/ERC721/ERC721.sol\":10018:10105  if (to == address(0)) {... */\n    tag_395:\n        /* \"@openzeppelin/contracts/token/ERC721/ERC721.sol\":10114:10135  address previousOwner */\n      0x00\n        /* \"@openzeppelin/contracts/token/ERC721/ERC721.sol\":10138:10170  _update(to, tokenId, address(0)) */\n      tag_397\n        /* \"@openzeppelin/contracts/token/ERC721/ERC721.sol\":10146:10148  to */\n      dup4\n        /* \"@openzeppelin/contracts/token/ERC721/ERC721.sol\":10150:10157  tokenId */\n      dup4\n        /* \"@openzeppelin/contracts/token/ERC721/ERC721.sol\":10167:10168  0 */\n      0x00\n        /* \"@openzeppelin/contracts/token/ERC721/ERC721.sol\":10138:10145  _update */\n      tag_171\n        /* \"@openzeppelin/contracts/token/ERC721/ERC721.sol\":10138:10170  _update(to, tokenId, address(0)) */\n      jump\t// in\n    tag_397:\n        /* \"@openzeppelin/contracts/token/ERC721/ERC721.sol\":10114:10170  address previousOwner = _update(to, tokenId, address(0)) */\n      swap1\n      pop\n      sub(shl(0xa0, 0x01), 0x01)\n        /* \"@openzeppelin/contracts/token/ERC721/ERC721.sol\":10184:10211  previousOwner != address(0) */\n      dup2\n      and\n      iszero\n        /* \"@openzeppelin/contracts/token/ERC721/ERC721.sol\":10180:10276  if (previousOwner != address(0)) {... */\n      tag_194\n      jumpi\n        /* \"@openzeppelin/contracts/token/ERC721/ERC721.sol\":10234:10265  ERC721InvalidSender(address(0)) */\n      mload(0x40)\n      shl(0xe1, 0x39e35637)\n      dup2\n      mstore\n        /* \"@openzeppelin/contracts/token/ERC721/ERC721.sol\":10262:10263  0 */\n      0x00\n        /* \"@openzeppelin/contracts/token/ERC721/ERC721.sol\":10234:10265  ERC721InvalidSender(address(0)) */\n      0x04\n      dup3\n      add\n        /* \"#utility.yul\":1464:1515   */\n      mstore\n        /* \"#utility.yul\":1437:1455   */\n      0x24\n      add\n        /* \"@openzeppelin/contracts/token/ERC721/ERC721.sol\":10234:10265  ERC721InvalidSender(address(0)) */\n      tag_168\n        /* \"#utility.yul\":1318:1521   */\n      jump\n        /* \"@openzeppelin/contracts/utils/math/Math.sol\":12214:13130  function log10(uint256 value) internal pure returns (uint256) {... */\n    tag_359:\n        /* \"@openzeppelin/contracts/utils/math/Math.sol\":12267:12274  uint256 */\n      0x00\n      dup1\n      shl(0x40, 0x184f03e93ff9f4daa797ed6e38ed64bf6a1f01)\n        /* \"@openzeppelin/contracts/utils/math/Math.sol\":12342:12359  value >= 10 ** 64 */\n      dup4\n      lt\n        /* \"@openzeppelin/contracts/utils/math/Math.sol\":12338:12441  if (value >= 10 ** 64) {... */\n      tag_401\n      jumpi\n      shl(0x40, 0x184f03e93ff9f4daa797ed6e38ed64bf6a1f01)\n        /* \"@openzeppelin/contracts/utils/math/Math.sol\":12379:12396  value /= 10 ** 64 */\n      dup4\n      div\n      swap3\n      pop\n        /* \"@openzeppelin/contracts/utils/math/Math.sol\":12424:12426  64 */\n      0x40\n        /* \"@openzeppelin/contracts/utils/math/Math.sol\":12414:12426  result += 64 */\n      add\n        /* \"@openzeppelin/contracts/utils/math/Math.sol\":12338:12441  if (value >= 10 ** 64) {... */\n    tag_401:\n        /* \"@openzeppelin/contracts/utils/math/Math.sol\":12467:12475  10 ** 32 */\n      0x04ee2d6d415b85acef8100000000\n        /* \"@openzeppelin/contracts/utils/math/Math.sol\":12458:12463  value */\n      dup4\n        /* \"@openzeppelin/contracts/utils/math/Math.sol\":12458:12475  value >= 10 ** 32 */\n      lt\n        /* \"@openzeppelin/contracts/utils/math/Math.sol\":12454:12557  if (value >= 10 ** 32) {... */\n      tag_404\n      jumpi\n        /* \"@openzeppelin/contracts/utils/math/Math.sol\":12504:12512  10 ** 32 */\n      0x04ee2d6d415b85acef8100000000\n        /* \"@openzeppelin/contracts/utils/math/Math.sol\":12495:12512  value /= 10 ** 32 */\n      dup4\n      div\n      swap3\n      pop\n        /* \"@openzeppelin/contracts/utils/math/Math.sol\":12540:12542  32 */\n      0x20\n        /* \"@openzeppelin/contracts/utils/math/Math.sol\":12530:12542  result += 32 */\n      add\n        /* \"@openzeppelin/contracts/utils/math/Math.sol\":12454:12557  if (value >= 10 ** 32) {... */\n    tag_404:\n        /* \"@openzeppelin/contracts/utils/math/Math.sol\":12583:12591  10 ** 16 */\n      0x2386f26fc10000\n        /* \"@openzeppelin/contracts/utils/math/Math.sol\":12574:12579  value */\n      dup4\n        /* \"@openzeppelin/contracts/utils/math/Math.sol\":12574:12591  value >= 10 ** 16 */\n      lt\n        /* \"@openzeppelin/contracts/utils/math/Math.sol\":12570:12673  if (value >= 10 ** 16) {... */\n      tag_407\n      jumpi\n        /* \"@openzeppelin/contracts/utils/math/Math.sol\":12620:12628  10 ** 16 */\n      0x2386f26fc10000\n        /* \"@openzeppelin/contracts/utils/math/Math.sol\":12611:12628  value /= 10 ** 16 */\n      dup4\n      div\n      swap3\n      pop\n        /* \"@openzeppelin/contracts/utils/math/Math.sol\":12656:12658  16 */\n      0x10\n        /* \"@openzeppelin/contracts/utils/math/Math.sol\":12646:12658  result += 16 */\n      add\n        /* \"@openzeppelin/contracts/utils/math/Math.sol\":12570:12673  if (value >= 10 ** 16) {... */\n    tag_407:\n        /* \"@openzeppelin/contracts/utils/math/Math.sol\":12699:12706  10 ** 8 */\n      0x05f5e100\n        /* \"@openzeppelin/contracts/utils/math/Math.sol\":12690:12695  value */\n      dup4\n        /* \"@openzeppelin/contracts/utils/math/Math.sol\":12690:12706  value >= 10 ** 8 */\n      lt\n        /* \"@openzeppelin/contracts/utils/math/Math.sol\":12686:12786  if (value >= 10 ** 8) {... */\n      tag_410\n      jumpi\n        /* \"@openzeppelin/contracts/utils/math/Math.sol\":12735:12742  10 ** 8 */\n      0x05f5e100\n        /* \"@openzeppelin/contracts/utils/math/Math.sol\":12726:12742  value /= 10 ** 8 */\n      dup4\n      div\n      swap3\n      pop\n        /* \"@openzeppelin/contracts/utils/math/Math.sol\":12770:12771  8 */\n      0x08\n        /* \"@openzeppelin/contracts/utils/math/Math.sol\":12760:12771  result += 8 */\n      add\n        /* \"@openzeppelin/contracts/utils/math/Math.sol\":12686:12786  if (value >= 10 ** 8) {... */\n    tag_410:\n        /* \"@openzeppelin/contracts/utils/math/Math.sol\":12812:12819  10 ** 4 */\n      0x2710\n        /* \"@openzeppelin/contracts/utils/math/Math.sol\":12803:12808  value */\n      dup4\n        /* \"@openzeppelin/contracts/utils/math/Math.sol\":12803:12819  value >= 10 ** 4 */\n      lt\n        /* \"@openzeppelin/contracts/utils/math/Math.sol\":12799:12899  if (value >= 10 ** 4) {... */\n      tag_413\n      jumpi\n        /* \"@openzeppelin/contracts/utils/math/Math.sol\":12848:12855  10 ** 4 */\n      0x2710\n        /* \"@openzeppelin/contracts/utils/math/Math.sol\":12839:12855  value /= 10 ** 4 */\n      dup4\n      div\n      swap3\n      pop\n        /* \"@openzeppelin/contracts/utils/math/Math.sol\":12883:12884  4 */\n      0x04\n        /* \"@openzeppelin/contracts/utils/math/Math.sol\":12873:12884  result += 4 */\n      add\n        /* \"@openzeppelin/contracts/utils/math/Math.sol\":12799:12899  if (value >= 10 ** 4) {... */\n    tag_413:\n        /* \"@openzeppelin/contracts/utils/math/Math.sol\":12925:12932  10 ** 2 */\n      0x64\n        /* \"@openzeppelin/contracts/utils/math/Math.sol\":12916:12921  value */\n      dup4\n        /* \"@openzeppelin/contracts/utils/math/Math.sol\":12916:12932  value >= 10 ** 2 */\n      lt\n        /* \"@openzeppelin/contracts/utils/math/Math.sol\":12912:13012  if (value >= 10 ** 2) {... */\n      tag_416\n      jumpi\n        /* \"@openzeppelin/contracts/utils/math/Math.sol\":12961:12968  10 ** 2 */\n      0x64\n        /* \"@openzeppelin/contracts/utils/math/Math.sol\":12952:12968  value /= 10 ** 2 */\n      dup4\n      div\n      swap3\n      pop\n        /* \"@openzeppelin/contracts/utils/math/Math.sol\":12996:12997  2 */\n      0x02\n        /* \"@openzeppelin/contracts/utils/math/Math.sol\":12986:12997  result += 2 */\n      add\n        /* \"@openzeppelin/contracts/utils/math/Math.sol\":12912:13012  if (value >= 10 ** 2) {... */\n    tag_416:\n        /* \"@openzeppelin/contracts/utils/math/Math.sol\":13038:13045  10 ** 1 */\n      0x0a\n        /* \"@openzeppelin/contracts/utils/math/Math.sol\":13029:13034  value */\n      dup4\n        /* \"@openzeppelin/contracts/utils/math/Math.sol\":13029:13045  value >= 10 ** 1 */\n      lt\n        /* \"@openzeppelin/contracts/utils/math/Math.sol\":13025:13091  if (value >= 10 ** 1) {... */\n      tag_147\n      jumpi\n        /* \"@openzeppelin/contracts/utils/math/Math.sol\":13075:13076  1 */\n      0x01\n        /* \"@openzeppelin/contracts/utils/math/Math.sol\":13065:13076  result += 1 */\n      add\n        /* \"@openzeppelin/contracts/utils/math/Math.sol\":13117:13123  result */\n      swap3\n        /* \"@openzeppelin/contracts/utils/math/Math.sol\":12214:13130  function log10(uint256 value) internal pure returns (uint256) {... */\n      swap2\n      pop\n      pop\n      jump\t// out\n        /* \"@openzeppelin/contracts/token/ERC721/ERC721.sol\":6376:6648  function _isAuthorized(address owner, address spender, uint256 tokenId) internal view virtual returns (bool) {... */\n    tag_382:\n        /* \"@openzeppelin/contracts/token/ERC721/ERC721.sol\":6479:6483  bool */\n      0x00\n      sub(shl(0xa0, 0x01), 0x01)\n        /* \"@openzeppelin/contracts/token/ERC721/ERC721.sol\":6514:6535  spender != address(0) */\n      dup4\n      and\n      iszero\n      dup1\n      iszero\n      swap1\n        /* \"@openzeppelin/contracts/token/ERC721/ERC721.sol\":6514:6641  spender != address(0) &&... */\n      tag_290\n      jumpi\n      pop\n        /* \"@openzeppelin/contracts/token/ERC721/ERC721.sol\":6561:6568  spender */\n      dup3\n      sub(shl(0xa0, 0x01), 0x01)\n        /* \"@openzeppelin/contracts/token/ERC721/ERC721.sol\":6552:6568  owner == spender */\n      and\n        /* \"@openzeppelin/contracts/token/ERC721/ERC721.sol\":6552:6557  owner */\n      dup5\n      sub(shl(0xa0, 0x01), 0x01)\n        /* \"@openzeppelin/contracts/token/ERC721/ERC721.sol\":6552:6568  owner == spender */\n      and\n      eq\n        /* \"@openzeppelin/contracts/token/ERC721/ERC721.sol\":6552:6604  owner == spender || isApprovedForAll(owner, spender) */\n      dup1\n      tag_423\n      jumpi\n      pop\n        /* \"@openzeppelin/contracts/token/ERC721/ERC721.sol\":6572:6604  isApprovedForAll(owner, spender) */\n      tag_423\n        /* \"@openzeppelin/contracts/token/ERC721/ERC721.sol\":6589:6594  owner */\n      dup5\n        /* \"@openzeppelin/contracts/token/ERC721/ERC721.sol\":6596:6603  spender */\n      dup5\n        /* \"@openzeppelin/contracts/token/ERC721/ERC721.sol\":6572:6588  isApprovedForAll */\n      tag_136\n        /* \"@openzeppelin/contracts/token/ERC721/ERC721.sol\":6572:6604  isApprovedForAll(owner, spender) */\n      jump\t// in\n    tag_423:\n        /* \"@openzeppelin/contracts/token/ERC721/ERC721.sol\":6552:6640  owner == spender || isApprovedForAll(owner, spender) || _getApproved(tokenId) == spender */\n      dup1\n      tag_290\n      jumpi\n      pop\n      pop\n        /* \"@openzeppelin/contracts/token/ERC721/ERC721.sol\":6008:6015  address */\n      0x00\n        /* \"@openzeppelin/contracts/token/ERC721/ERC721.sol\":6034:6058  _tokenApprovals[tokenId] */\n      swap1\n      dup2\n      mstore\n        /* \"@openzeppelin/contracts/token/ERC721/ERC721.sol\":6034:6049  _tokenApprovals */\n      0x05\n        /* \"@openzeppelin/contracts/token/ERC721/ERC721.sol\":6034:6058  _tokenApprovals[tokenId] */\n      0x20\n      mstore\n      0x40\n      swap1\n      keccak256\n      sload\n      sub(shl(0xa0, 0x01), 0x01)\n      swap1\n      dup2\n      and\n        /* \"@openzeppelin/contracts/token/ERC721/ERC721.sol\":6608:6640  _getApproved(tokenId) == spender */\n      swap2\n      and\n      eq\n      swap2\n        /* \"@openzeppelin/contracts/token/ERC721/ERC721.sol\":6495:6641  return... */\n      swap1\n      pop\n        /* \"@openzeppelin/contracts/token/ERC721/ERC721.sol\":6376:6648  function _isAuthorized(address owner, address spender, uint256 tokenId) internal view virtual returns (bool) {... */\n      jump\t// out\n    tag_325:\n      dup3\n      dup1\n      sload\n      dup3\n      dup3\n      sstore\n      swap1\n      0x00\n      mstore\n      keccak256(0x00, 0x20)\n      swap1\n      dup2\n      add\n      swap3\n      dup3\n      iszero\n      tag_428\n      jumpi\n      swap2\n      0x20\n      mul\n      dup3\n      add\n    tag_427:\n      dup3\n      dup2\n      gt\n      iszero\n      tag_428\n      jumpi\n      dup3\n      mload\n      dup3\n      swap1\n      tag_429\n      swap1\n      dup3\n      tag_209\n      jump\t// in\n    tag_429:\n      pop\n      swap2\n      0x20\n      add\n      swap2\n      swap1\n      0x01\n      add\n      swap1\n      jump(tag_427)\n    tag_428:\n      pop\n      tag_430\n      swap3\n      swap2\n      pop\n      tag_431\n      jump\t// in\n    tag_430:\n      pop\n      swap1\n      jump\t// out\n    tag_431:\n      dup1\n      dup3\n      gt\n      iszero\n      tag_430\n      jumpi\n      0x00\n      tag_434\n      dup3\n      dup3\n      tag_435\n      jump\t// in\n    tag_434:\n      pop\n      0x01\n      add\n      jump(tag_431)\n    tag_435:\n      pop\n      dup1\n      sload\n      tag_436\n      swap1\n      tag_151\n      jump\t// in\n    tag_436:\n      0x00\n      dup3\n      sstore\n      dup1\n      0x1f\n      lt\n      tag_438\n      jumpi\n      pop\n      pop\n      jump\t// out\n    tag_438:\n      0x1f\n      add\n      0x20\n      swap1\n      div\n      swap1\n      0x00\n      mstore\n      keccak256(0x00, 0x20)\n      swap1\n      dup2\n      add\n      swap1\n      tag_439\n      swap2\n      swap1\n      tag_440\n      jump\t// in\n    tag_439:\n      pop\n      jump\t// out\n    tag_440:\n    tag_441:\n      dup1\n      dup3\n      gt\n      iszero\n      tag_430\n      jumpi\n      0x00\n      dup2\n      sstore\n      0x01\n      add\n      jump(tag_441)\n        /* \"#utility.yul\":14:145   */\n    tag_443:\n      not(sub(shl(0xe0, 0x01), 0x01))\n        /* \"#utility.yul\":88:120   */\n      dup2\n      and\n        /* \"#utility.yul\":78:121   */\n      dup2\n      eq\n        /* \"#utility.yul\":68:139   */\n      tag_439\n      jumpi\n        /* \"#utility.yul\":135:136   */\n      0x00\n        /* \"#utility.yul\":132:133   */\n      dup1\n        /* \"#utility.yul\":125:137   */\n      revert\n        /* \"#utility.yul\":150:395   */\n    tag_38:\n        /* \"#utility.yul\":208:214   */\n      0x00\n        /* \"#utility.yul\":261:263   */\n      0x20\n        /* \"#utility.yul\":249:258   */\n      dup3\n        /* \"#utility.yul\":240:247   */\n      dup5\n        /* \"#utility.yul\":236:259   */\n      sub\n        /* \"#utility.yul\":232:264   */\n      slt\n        /* \"#utility.yul\":229:281   */\n      iszero\n      tag_458\n      jumpi\n        /* \"#utility.yul\":277:278   */\n      0x00\n        /* \"#utility.yul\":274:275   */\n      dup1\n        /* \"#utility.yul\":267:279   */\n      revert\n        /* \"#utility.yul\":229:281   */\n    tag_458:\n        /* \"#utility.yul\":316:325   */\n      dup2\n        /* \"#utility.yul\":303:326   */\n      calldataload\n        /* \"#utility.yul\":335:365   */\n      tag_247\n        /* \"#utility.yul\":359:364   */\n      dup2\n        /* \"#utility.yul\":335:365   */\n      tag_443\n      jump\t// in\n        /* \"#utility.yul\":592:892   */\n    tag_444:\n        /* \"#utility.yul\":645:648   */\n      0x00\n        /* \"#utility.yul\":683:688   */\n      dup2\n        /* \"#utility.yul\":677:689   */\n      mload\n        /* \"#utility.yul\":710:716   */\n      dup1\n        /* \"#utility.yul\":705:708   */\n      dup5\n        /* \"#utility.yul\":698:717   */\n      mstore\n        /* \"#utility.yul\":766:772   */\n      dup1\n        /* \"#utility.yul\":759:763   */\n      0x20\n        /* \"#utility.yul\":752:757   */\n      dup5\n        /* \"#utility.yul\":748:764   */\n      add\n        /* \"#utility.yul\":741:745   */\n      0x20\n        /* \"#utility.yul\":736:739   */\n      dup7\n        /* \"#utility.yul\":732:746   */\n      add\n        /* \"#utility.yul\":726:773   */\n      mcopy\n        /* \"#utility.yul\":818:819   */\n      0x00\n        /* \"#utility.yul\":811:815   */\n      0x20\n        /* \"#utility.yul\":802:808   */\n      dup3\n        /* \"#utility.yul\":797:800   */\n      dup7\n        /* \"#utility.yul\":793:809   */\n      add\n        /* \"#utility.yul\":789:816   */\n      add\n        /* \"#utility.yul\":782:820   */\n      mstore\n        /* \"#utility.yul\":881:885   */\n      0x20\n        /* \"#utility.yul\":874:876   */\n      0x1f\n        /* \"#utility.yul\":870:877   */\n      not\n        /* \"#utility.yul\":865:867   */\n      0x1f\n        /* \"#utility.yul\":857:863   */\n      dup4\n        /* \"#utility.yul\":853:868   */\n      add\n        /* \"#utility.yul\":849:878   */\n      and\n        /* \"#utility.yul\":844:847   */\n      dup6\n        /* \"#utility.yul\":840:879   */\n      add\n        /* \"#utility.yul\":836:886   */\n      add\n        /* \"#utility.yul\":829:886   */\n      swap2\n      pop\n      pop\n        /* \"#utility.yul\":592:892   */\n      swap3\n      swap2\n      pop\n      pop\n      jump\t// out\n        /* \"#utility.yul\":897:1128   */\n    tag_45:\n        /* \"#utility.yul\":1046:1048   */\n      0x20\n        /* \"#utility.yul\":1035:1044   */\n      dup2\n        /* \"#utility.yul\":1028:1049   */\n      mstore\n        /* \"#utility.yul\":1009:1013   */\n      0x00\n        /* \"#utility.yul\":1066:1122   */\n      tag_247\n        /* \"#utility.yul\":1118:1120   */\n      0x20\n        /* \"#utility.yul\":1107:1116   */\n      dup4\n        /* \"#utility.yul\":1103:1121   */\n      add\n        /* \"#utility.yul\":1095:1101   */\n      dup5\n        /* \"#utility.yul\":1066:1122   */\n      tag_444\n      jump\t// in\n        /* \"#utility.yul\":1133:1313   */\n    tag_48:\n        /* \"#utility.yul\":1192:1198   */\n      0x00\n        /* \"#utility.yul\":1245:1247   */\n      0x20\n        /* \"#utility.yul\":1233:1242   */\n      dup3\n        /* \"#utility.yul\":1224:1231   */\n      dup5\n        /* \"#utility.yul\":1220:1243   */\n      sub\n        /* \"#utility.yul\":1216:1248   */\n      slt\n        /* \"#utility.yul\":1213:1265   */\n      iszero\n      tag_465\n      jumpi\n        /* \"#utility.yul\":1261:1262   */\n      0x00\n        /* \"#utility.yul\":1258:1259   */\n      dup1\n        /* \"#utility.yul\":1251:1263   */\n      revert\n        /* \"#utility.yul\":1213:1265   */\n    tag_465:\n      pop\n        /* \"#utility.yul\":1284:1307   */\n      calldataload\n      swap2\n        /* \"#utility.yul\":1133:1313   */\n      swap1\n      pop\n      jump\t// out\n        /* \"#utility.yul\":1526:1699   */\n    tag_445:\n        /* \"#utility.yul\":1594:1614   */\n      dup1\n      calldataload\n      sub(shl(0xa0, 0x01), 0x01)\n        /* \"#utility.yul\":1643:1674   */\n      dup2\n      and\n        /* \"#utility.yul\":1633:1675   */\n      dup2\n      eq\n        /* \"#utility.yul\":1623:1693   */\n      tag_468\n      jumpi\n        /* \"#utility.yul\":1689:1690   */\n      0x00\n        /* \"#utility.yul\":1686:1687   */\n      dup1\n        /* \"#utility.yul\":1679:1691   */\n      revert\n        /* \"#utility.yul\":1623:1693   */\n    tag_468:\n        /* \"#utility.yul\":1526:1699   */\n      swap2\n      swap1\n      pop\n      jump\t// out\n        /* \"#utility.yul\":1704:1958   */\n    tag_54:\n        /* \"#utility.yul\":1772:1778   */\n      0x00\n        /* \"#utility.yul\":1780:1786   */\n      dup1\n        /* \"#utility.yul\":1833:1835   */\n      0x40\n        /* \"#utility.yul\":1821:1830   */\n      dup4\n        /* \"#utility.yul\":1812:1819   */\n      dup6\n        /* \"#utility.yul\":1808:1831   */\n      sub\n        /* \"#utility.yul\":1804:1836   */\n      slt\n        /* \"#utility.yul\":1801:1853   */\n      iszero\n      tag_470\n      jumpi\n        /* \"#utility.yul\":1849:1850   */\n      0x00\n        /* \"#utility.yul\":1846:1847   */\n      dup1\n        /* \"#utility.yul\":1839:1851   */\n      revert\n        /* \"#utility.yul\":1801:1853   */\n    tag_470:\n        /* \"#utility.yul\":1872:1901   */\n      tag_471\n        /* \"#utility.yul\":1891:1900   */\n      dup4\n        /* \"#utility.yul\":1872:1901   */\n      tag_445\n      jump\t// in\n    tag_471:\n        /* \"#utility.yul\":1862:1901   */\n      swap5\n        /* \"#utility.yul\":1948:1950   */\n      0x20\n        /* \"#utility.yul\":1933:1951   */\n      swap4\n      swap1\n      swap4\n      add\n        /* \"#utility.yul\":1920:1952   */\n      calldataload\n      swap4\n      pop\n      pop\n      pop\n        /* \"#utility.yul\":1704:1958   */\n      jump\t// out\n        /* \"#utility.yul\":1963:2291   */\n    tag_58:\n        /* \"#utility.yul\":2040:2046   */\n      0x00\n        /* \"#utility.yul\":2048:2054   */\n      dup1\n        /* \"#utility.yul\":2056:2062   */\n      0x00\n        /* \"#utility.yul\":2109:2111   */\n      0x60\n        /* \"#utility.yul\":2097:2106   */\n      dup5\n        /* \"#utility.yul\":2088:2095   */\n      dup7\n        /* \"#utility.yul\":2084:2107   */\n      sub\n        /* \"#utility.yul\":2080:2112   */\n      slt\n        /* \"#utility.yul\":2077:2129   */\n      iszero\n      tag_473\n      jumpi\n        /* \"#utility.yul\":2125:2126   */\n      0x00\n        /* \"#utility.yul\":2122:2123   */\n      dup1\n        /* \"#utility.yul\":2115:2127   */\n      revert\n        /* \"#utility.yul\":2077:2129   */\n    tag_473:\n        /* \"#utility.yul\":2148:2177   */\n      tag_474\n        /* \"#utility.yul\":2167:2176   */\n      dup5\n        /* \"#utility.yul\":2148:2177   */\n      tag_445\n      jump\t// in\n    tag_474:\n        /* \"#utility.yul\":2138:2177   */\n      swap3\n      pop\n        /* \"#utility.yul\":2196:2234   */\n      tag_475\n        /* \"#utility.yul\":2230:2232   */\n      0x20\n        /* \"#utility.yul\":2219:2228   */\n      dup6\n        /* \"#utility.yul\":2215:2233   */\n      add\n        /* \"#utility.yul\":2196:2234   */\n      tag_445\n      jump\t// in\n    tag_475:\n        /* \"#utility.yul\":2186:2234   */\n      swap2\n      pop\n        /* \"#utility.yul\":2281:2283   */\n      0x40\n        /* \"#utility.yul\":2270:2279   */\n      dup5\n        /* \"#utility.yul\":2266:2284   */\n      add\n        /* \"#utility.yul\":2253:2285   */\n      calldataload\n        /* \"#utility.yul\":2243:2285   */\n      swap1\n      pop\n        /* \"#utility.yul\":1963:2291   */\n      swap3\n      pop\n      swap3\n      pop\n      swap3\n      jump\t// out\n        /* \"#utility.yul\":2660:2908   */\n    tag_80:\n        /* \"#utility.yul\":2728:2734   */\n      0x00\n        /* \"#utility.yul\":2736:2742   */\n      dup1\n        /* \"#utility.yul\":2789:2791   */\n      0x40\n        /* \"#utility.yul\":2777:2786   */\n      dup4\n        /* \"#utility.yul\":2768:2775   */\n      dup6\n        /* \"#utility.yul\":2764:2787   */\n      sub\n        /* \"#utility.yul\":2760:2792   */\n      slt\n        /* \"#utility.yul\":2757:2809   */\n      iszero\n      tag_479\n      jumpi\n        /* \"#utility.yul\":2805:2806   */\n      0x00\n        /* \"#utility.yul\":2802:2803   */\n      dup1\n        /* \"#utility.yul\":2795:2807   */\n      revert\n        /* \"#utility.yul\":2757:2809   */\n    tag_479:\n      pop\n      pop\n        /* \"#utility.yul\":2828:2851   */\n      dup1\n      calldataload\n      swap3\n        /* \"#utility.yul\":2898:2900   */\n      0x20\n        /* \"#utility.yul\":2883:2901   */\n      swap1\n      swap2\n      add\n        /* \"#utility.yul\":2870:2902   */\n      calldataload\n      swap2\n      pop\n        /* \"#utility.yul\":2660:2908   */\n      jump\t// out\n        /* \"#utility.yul\":2913:3099   */\n    tag_89:\n        /* \"#utility.yul\":2972:2978   */\n      0x00\n        /* \"#utility.yul\":3025:3027   */\n      0x20\n        /* \"#utility.yul\":3013:3022   */\n      dup3\n        /* \"#utility.yul\":3004:3011   */\n      dup5\n        /* \"#utility.yul\":3000:3023   */\n      sub\n        /* \"#utility.yul\":2996:3028   */\n      slt\n        /* \"#utility.yul\":2993:3045   */\n      iszero\n      tag_481\n      jumpi\n        /* \"#utility.yul\":3041:3042   */\n      0x00\n        /* \"#utility.yul\":3038:3039   */\n      dup1\n        /* \"#utility.yul\":3031:3043   */\n      revert\n        /* \"#utility.yul\":2993:3045   */\n    tag_481:\n        /* \"#utility.yul\":3064:3093   */\n      tag_247\n        /* \"#utility.yul\":3083:3092   */\n      dup3\n        /* \"#utility.yul\":3064:3093   */\n      tag_445\n      jump\t// in\n        /* \"#utility.yul\":3104:3231   */\n    tag_296:\n        /* \"#utility.yul\":3165:3175   */\n      0x4e487b71\n        /* \"#utility.yul\":3160:3163   */\n      0xe0\n        /* \"#utility.yul\":3156:3176   */\n      shl\n        /* \"#utility.yul\":3153:3154   */\n      0x00\n        /* \"#utility.yul\":3146:3177   */\n      mstore\n        /* \"#utility.yul\":3196:3200   */\n      0x41\n        /* \"#utility.yul\":3193:3194   */\n      0x04\n        /* \"#utility.yul\":3186:3201   */\n      mstore\n        /* \"#utility.yul\":3220:3224   */\n      0x24\n        /* \"#utility.yul\":3217:3218   */\n      0x00\n        /* \"#utility.yul\":3210:3225   */\n      revert\n        /* \"#utility.yul\":3236:3868   */\n    tag_446:\n        /* \"#utility.yul\":3301:3306   */\n      0x00\n        /* \"#utility.yul\":3331:3349   */\n      0xffffffffffffffff\n        /* \"#utility.yul\":3372:3374   */\n      dup1\n        /* \"#utility.yul\":3364:3370   */\n      dup5\n        /* \"#utility.yul\":3361:3375   */\n      gt\n        /* \"#utility.yul\":3358:3398   */\n      iszero\n      tag_486\n      jumpi\n        /* \"#utility.yul\":3378:3396   */\n      tag_486\n      tag_296\n      jump\t// in\n    tag_486:\n        /* \"#utility.yul\":3453:3455   */\n      0x40\n        /* \"#utility.yul\":3447:3456   */\n      mload\n        /* \"#utility.yul\":3421:3423   */\n      0x1f\n        /* \"#utility.yul\":3507:3522   */\n      dup6\n      add\n      not(0x1f)\n        /* \"#utility.yul\":3503:3527   */\n      swap1\n      dup2\n      and\n        /* \"#utility.yul\":3529:3531   */\n      0x3f\n        /* \"#utility.yul\":3499:3532   */\n      add\n        /* \"#utility.yul\":3495:3537   */\n      and\n        /* \"#utility.yul\":3483:3538   */\n      dup2\n      add\n      swap1\n        /* \"#utility.yul\":3553:3571   */\n      dup3\n      dup3\n      gt\n        /* \"#utility.yul\":3573:3595   */\n      dup2\n      dup4\n      lt\n        /* \"#utility.yul\":3550:3596   */\n      or\n        /* \"#utility.yul\":3547:3619   */\n      iszero\n      tag_488\n      jumpi\n        /* \"#utility.yul\":3599:3617   */\n      tag_488\n      tag_296\n      jump\t// in\n    tag_488:\n        /* \"#utility.yul\":3639:3649   */\n      dup2\n        /* \"#utility.yul\":3635:3637   */\n      0x40\n        /* \"#utility.yul\":3628:3650   */\n      mstore\n        /* \"#utility.yul\":3668:3674   */\n      dup1\n        /* \"#utility.yul\":3659:3674   */\n      swap4\n      pop\n        /* \"#utility.yul\":3698:3704   */\n      dup6\n        /* \"#utility.yul\":3690:3696   */\n      dup2\n        /* \"#utility.yul\":3683:3705   */\n      mstore\n        /* \"#utility.yul\":3738:3741   */\n      dup7\n        /* \"#utility.yul\":3729:3735   */\n      dup7\n        /* \"#utility.yul\":3724:3727   */\n      dup7\n        /* \"#utility.yul\":3720:3736   */\n      add\n        /* \"#utility.yul\":3717:3742   */\n      gt\n        /* \"#utility.yul\":3714:3759   */\n      iszero\n      tag_489\n      jumpi\n        /* \"#utility.yul\":3755:3756   */\n      0x00\n        /* \"#utility.yul\":3752:3753   */\n      dup1\n        /* \"#utility.yul\":3745:3757   */\n      revert\n        /* \"#utility.yul\":3714:3759   */\n    tag_489:\n        /* \"#utility.yul\":3805:3811   */\n      dup6\n        /* \"#utility.yul\":3800:3803   */\n      dup6\n        /* \"#utility.yul\":3793:3797   */\n      0x20\n        /* \"#utility.yul\":3785:3791   */\n      dup4\n        /* \"#utility.yul\":3781:3798   */\n      add\n        /* \"#utility.yul\":3768:3812   */\n      calldatacopy\n        /* \"#utility.yul\":3860:3861   */\n      0x00\n        /* \"#utility.yul\":3853:3857   */\n      0x20\n        /* \"#utility.yul\":3844:3850   */\n      dup8\n        /* \"#utility.yul\":3836:3842   */\n      dup4\n        /* \"#utility.yul\":3832:3851   */\n      add\n        /* \"#utility.yul\":3828:3858   */\n      add\n        /* \"#utility.yul\":3821:3862   */\n      mstore\n      pop\n      pop\n      pop\n        /* \"#utility.yul\":3236:3868   */\n      swap4\n      swap3\n      pop\n      pop\n      pop\n      jump\t// out\n        /* \"#utility.yul\":3873:4324   */\n    tag_94:\n        /* \"#utility.yul\":3942:3948   */\n      0x00\n        /* \"#utility.yul\":3995:3997   */\n      0x20\n        /* \"#utility.yul\":3983:3992   */\n      dup3\n        /* \"#utility.yul\":3974:3981   */\n      dup5\n        /* \"#utility.yul\":3970:3993   */\n      sub\n        /* \"#utility.yul\":3966:3998   */\n      slt\n        /* \"#utility.yul\":3963:4015   */\n      iszero\n      tag_491\n      jumpi\n        /* \"#utility.yul\":4011:4012   */\n      0x00\n        /* \"#utility.yul\":4008:4009   */\n      dup1\n        /* \"#utility.yul\":4001:4013   */\n      revert\n        /* \"#utility.yul\":3963:4015   */\n    tag_491:\n        /* \"#utility.yul\":4051:4060   */\n      dup2\n        /* \"#utility.yul\":4038:4061   */\n      calldataload\n        /* \"#utility.yul\":4084:4102   */\n      0xffffffffffffffff\n        /* \"#utility.yul\":4076:4082   */\n      dup2\n        /* \"#utility.yul\":4073:4103   */\n      gt\n        /* \"#utility.yul\":4070:4120   */\n      iszero\n      tag_492\n      jumpi\n        /* \"#utility.yul\":4116:4117   */\n      0x00\n        /* \"#utility.yul\":4113:4114   */\n      dup1\n        /* \"#utility.yul\":4106:4118   */\n      revert\n        /* \"#utility.yul\":4070:4120   */\n    tag_492:\n        /* \"#utility.yul\":4139:4161   */\n      dup3\n      add\n        /* \"#utility.yul\":4192:4196   */\n      0x1f\n        /* \"#utility.yul\":4184:4197   */\n      dup2\n      add\n        /* \"#utility.yul\":4180:4207   */\n      dup5\n      sgt\n        /* \"#utility.yul\":4170:4225   */\n      tag_493\n      jumpi\n        /* \"#utility.yul\":4221:4222   */\n      0x00\n        /* \"#utility.yul\":4218:4219   */\n      dup1\n        /* \"#utility.yul\":4211:4223   */\n      revert\n        /* \"#utility.yul\":4170:4225   */\n    tag_493:\n        /* \"#utility.yul\":4244:4318   */\n      tag_290\n        /* \"#utility.yul\":4310:4317   */\n      dup5\n        /* \"#utility.yul\":4305:4307   */\n      dup3\n        /* \"#utility.yul\":4292:4308   */\n      calldataload\n        /* \"#utility.yul\":4287:4289   */\n      0x20\n        /* \"#utility.yul\":4283:4285   */\n      dup5\n        /* \"#utility.yul\":4279:4290   */\n      add\n        /* \"#utility.yul\":4244:4318   */\n      tag_446\n      jump\t// in\n        /* \"#utility.yul\":4582:4700   */\n    tag_447:\n        /* \"#utility.yul\":4668:4673   */\n      dup1\n        /* \"#utility.yul\":4661:4674   */\n      iszero\n        /* \"#utility.yul\":4654:4675   */\n      iszero\n        /* \"#utility.yul\":4647:4652   */\n      dup2\n        /* \"#utility.yul\":4644:4676   */\n      eq\n        /* \"#utility.yul\":4634:4694   */\n      tag_439\n      jumpi\n        /* \"#utility.yul\":4690:4691   */\n      0x00\n        /* \"#utility.yul\":4687:4688   */\n      dup1\n        /* \"#utility.yul\":4680:4692   */\n      revert\n        /* \"#utility.yul\":4705:5020   */\n    tag_108:\n        /* \"#utility.yul\":4770:4776   */\n      0x00\n        /* \"#utility.yul\":4778:4784   */\n      dup1\n        /* \"#utility.yul\":4831:4833   */\n      0x40\n        /* \"#utility.yul\":4819:4828   */\n      dup4\n        /* \"#utility.yul\":4810:4817   */\n      dup6\n        /* \"#utility.yul\":4806:4829   */\n      sub\n        /* \"#utility.yul\":4802:4834   */\n      slt\n        /* \"#utility.yul\":4799:4851   */\n      iszero\n      tag_500\n      jumpi\n        /* \"#utility.yul\":4847:4848   */\n      0x00\n        /* \"#utility.yul\":4844:4845   */\n      dup1\n        /* \"#utility.yul\":4837:4849   */\n      revert\n        /* \"#utility.yul\":4799:4851   */\n    tag_500:\n        /* \"#utility.yul\":4870:4899   */\n      tag_501\n        /* \"#utility.yul\":4889:4898   */\n      dup4\n        /* \"#utility.yul\":4870:4899   */\n      tag_445\n      jump\t// in\n    tag_501:\n        /* \"#utility.yul\":4860:4899   */\n      swap2\n      pop\n        /* \"#utility.yul\":4949:4951   */\n      0x20\n        /* \"#utility.yul\":4938:4947   */\n      dup4\n        /* \"#utility.yul\":4934:4952   */\n      add\n        /* \"#utility.yul\":4921:4953   */\n      calldataload\n        /* \"#utility.yul\":4962:4990   */\n      tag_502\n        /* \"#utility.yul\":4984:4989   */\n      dup2\n        /* \"#utility.yul\":4962:4990   */\n      tag_447\n      jump\t// in\n    tag_502:\n        /* \"#utility.yul\":5009:5014   */\n      dup1\n        /* \"#utility.yul\":4999:5014   */\n      swap2\n      pop\n      pop\n        /* \"#utility.yul\":4705:5020   */\n      swap3\n      pop\n      swap3\n      swap1\n      pop\n      jump\t// out\n        /* \"#utility.yul\":5249:5858   */\n    tag_448:\n        /* \"#utility.yul\":5301:5304   */\n      0x00\n        /* \"#utility.yul\":5332:5335   */\n      dup3\n        /* \"#utility.yul\":5364:5369   */\n      dup3\n        /* \"#utility.yul\":5358:5370   */\n      mload\n        /* \"#utility.yul\":5391:5397   */\n      dup1\n        /* \"#utility.yul\":5386:5389   */\n      dup6\n        /* \"#utility.yul\":5379:5398   */\n      mstore\n        /* \"#utility.yul\":5417:5421   */\n      0x20\n        /* \"#utility.yul\":5446:5450   */\n      dup1\n        /* \"#utility.yul\":5441:5444   */\n      dup7\n        /* \"#utility.yul\":5437:5451   */\n      add\n        /* \"#utility.yul\":5430:5451   */\n      swap6\n      pop\n        /* \"#utility.yul\":5504:5508   */\n      0x20\n        /* \"#utility.yul\":5494:5500   */\n      dup3\n        /* \"#utility.yul\":5491:5492   */\n      0x05\n        /* \"#utility.yul\":5487:5501   */\n      shl\n        /* \"#utility.yul\":5480:5485   */\n      dup5\n        /* \"#utility.yul\":5476:5502   */\n      add\n        /* \"#utility.yul\":5472:5509   */\n      add\n        /* \"#utility.yul\":5543:5547   */\n      0x20\n        /* \"#utility.yul\":5536:5541   */\n      dup7\n        /* \"#utility.yul\":5532:5548   */\n      add\n        /* \"#utility.yul\":5566:5567   */\n      0x00\n        /* \"#utility.yul\":5576:5832   */\n    tag_505:\n        /* \"#utility.yul\":5590:5596   */\n      dup5\n        /* \"#utility.yul\":5587:5588   */\n      dup2\n        /* \"#utility.yul\":5584:5597   */\n      lt\n        /* \"#utility.yul\":5576:5832   */\n      iszero\n      tag_507\n      jumpi\n        /* \"#utility.yul\":5677:5679   */\n      0x1f\n        /* \"#utility.yul\":5673:5680   */\n      not\n        /* \"#utility.yul\":5665:5670   */\n      dup7\n        /* \"#utility.yul\":5659:5663   */\n      dup5\n        /* \"#utility.yul\":5655:5671   */\n      sub\n        /* \"#utility.yul\":5651:5681   */\n      add\n        /* \"#utility.yul\":5646:5649   */\n      dup10\n        /* \"#utility.yul\":5639:5682   */\n      mstore\n        /* \"#utility.yul\":5703:5752   */\n      tag_508\n        /* \"#utility.yul\":5747:5751   */\n      dup4\n        /* \"#utility.yul\":5738:5744   */\n      dup4\n        /* \"#utility.yul\":5732:5745   */\n      mload\n        /* \"#utility.yul\":5703:5752   */\n      tag_444\n      jump\t// in\n    tag_508:\n        /* \"#utility.yul\":5810:5822   */\n      swap9\n      dup5\n      add\n      swap9\n        /* \"#utility.yul\":5695:5752   */\n      swap3\n      pop\n        /* \"#utility.yul\":5775:5790   */\n      swap1\n      dup4\n      add\n      swap1\n        /* \"#utility.yul\":5612:5613   */\n      0x01\n        /* \"#utility.yul\":5605:5614   */\n      add\n        /* \"#utility.yul\":5576:5832   */\n      jump(tag_505)\n    tag_507:\n      pop\n        /* \"#utility.yul\":5848:5852   */\n      swap1\n      swap8\n        /* \"#utility.yul\":5249:5858   */\n      swap7\n      pop\n      pop\n      pop\n      pop\n      pop\n      pop\n      pop\n      jump\t// out\n        /* \"#utility.yul\":5863:6143   */\n    tag_118:\n        /* \"#utility.yul\":6062:6064   */\n      0x20\n        /* \"#utility.yul\":6051:6060   */\n      dup2\n        /* \"#utility.yul\":6044:6065   */\n      mstore\n        /* \"#utility.yul\":6025:6029   */\n      0x00\n        /* \"#utility.yul\":6082:6137   */\n      tag_247\n        /* \"#utility.yul\":6133:6135   */\n      0x20\n        /* \"#utility.yul\":6122:6131   */\n      dup4\n        /* \"#utility.yul\":6118:6136   */\n      add\n        /* \"#utility.yul\":6110:6116   */\n      dup5\n        /* \"#utility.yul\":6082:6137   */\n      tag_448\n      jump\t// in\n        /* \"#utility.yul\":6148:6815   */\n    tag_121:\n        /* \"#utility.yul\":6243:6249   */\n      0x00\n        /* \"#utility.yul\":6251:6257   */\n      dup1\n        /* \"#utility.yul\":6259:6265   */\n      0x00\n        /* \"#utility.yul\":6267:6273   */\n      dup1\n        /* \"#utility.yul\":6320:6323   */\n      0x80\n        /* \"#utility.yul\":6308:6317   */\n      dup6\n        /* \"#utility.yul\":6299:6306   */\n      dup8\n        /* \"#utility.yul\":6295:6318   */\n      sub\n        /* \"#utility.yul\":6291:6324   */\n      slt\n        /* \"#utility.yul\":6288:6341   */\n      iszero\n      tag_512\n      jumpi\n        /* \"#utility.yul\":6337:6338   */\n      0x00\n        /* \"#utility.yul\":6334:6335   */\n      dup1\n        /* \"#utility.yul\":6327:6339   */\n      revert\n        /* \"#utility.yul\":6288:6341   */\n    tag_512:\n        /* \"#utility.yul\":6360:6389   */\n      tag_513\n        /* \"#utility.yul\":6379:6388   */\n      dup6\n        /* \"#utility.yul\":6360:6389   */\n      tag_445\n      jump\t// in\n    tag_513:\n        /* \"#utility.yul\":6350:6389   */\n      swap4\n      pop\n        /* \"#utility.yul\":6408:6446   */\n      tag_514\n        /* \"#utility.yul\":6442:6444   */\n      0x20\n        /* \"#utility.yul\":6431:6440   */\n      dup7\n        /* \"#utility.yul\":6427:6445   */\n      add\n        /* \"#utility.yul\":6408:6446   */\n      tag_445\n      jump\t// in\n    tag_514:\n        /* \"#utility.yul\":6398:6446   */\n      swap3\n      pop\n        /* \"#utility.yul\":6493:6495   */\n      0x40\n        /* \"#utility.yul\":6482:6491   */\n      dup6\n        /* \"#utility.yul\":6478:6496   */\n      add\n        /* \"#utility.yul\":6465:6497   */\n      calldataload\n        /* \"#utility.yul\":6455:6497   */\n      swap2\n      pop\n        /* \"#utility.yul\":6548:6550   */\n      0x60\n        /* \"#utility.yul\":6537:6546   */\n      dup6\n        /* \"#utility.yul\":6533:6551   */\n      add\n        /* \"#utility.yul\":6520:6552   */\n      calldataload\n        /* \"#utility.yul\":6575:6593   */\n      0xffffffffffffffff\n        /* \"#utility.yul\":6567:6573   */\n      dup2\n        /* \"#utility.yul\":6564:6594   */\n      gt\n        /* \"#utility.yul\":6561:6611   */\n      iszero\n      tag_515\n      jumpi\n        /* \"#utility.yul\":6607:6608   */\n      0x00\n        /* \"#utility.yul\":6604:6605   */\n      dup1\n        /* \"#utility.yul\":6597:6609   */\n      revert\n        /* \"#utility.yul\":6561:6611   */\n    tag_515:\n        /* \"#utility.yul\":6630:6652   */\n      dup6\n      add\n        /* \"#utility.yul\":6683:6687   */\n      0x1f\n        /* \"#utility.yul\":6675:6688   */\n      dup2\n      add\n        /* \"#utility.yul\":6671:6698   */\n      dup8\n      sgt\n        /* \"#utility.yul\":6661:6716   */\n      tag_516\n      jumpi\n        /* \"#utility.yul\":6712:6713   */\n      0x00\n        /* \"#utility.yul\":6709:6710   */\n      dup1\n        /* \"#utility.yul\":6702:6714   */\n      revert\n        /* \"#utility.yul\":6661:6716   */\n    tag_516:\n        /* \"#utility.yul\":6735:6809   */\n      tag_517\n        /* \"#utility.yul\":6801:6808   */\n      dup8\n        /* \"#utility.yul\":6796:6798   */\n      dup3\n        /* \"#utility.yul\":6783:6799   */\n      calldataload\n        /* \"#utility.yul\":6778:6780   */\n      0x20\n        /* \"#utility.yul\":6774:6776   */\n      dup5\n        /* \"#utility.yul\":6770:6781   */\n      add\n        /* \"#utility.yul\":6735:6809   */\n      tag_446\n      jump\t// in\n    tag_517:\n        /* \"#utility.yul\":6725:6809   */\n      swap2\n      pop\n      pop\n        /* \"#utility.yul\":6148:6815   */\n      swap3\n      swap6\n      swap2\n      swap5\n      pop\n      swap3\n      pop\n      jump\t// out\n        /* \"#utility.yul\":6820:7080   */\n    tag_135:\n        /* \"#utility.yul\":6888:6894   */\n      0x00\n        /* \"#utility.yul\":6896:6902   */\n      dup1\n        /* \"#utility.yul\":6949:6951   */\n      0x40\n        /* \"#utility.yul\":6937:6946   */\n      dup4\n        /* \"#utility.yul\":6928:6935   */\n      dup6\n        /* \"#utility.yul\":6924:6947   */\n      sub\n        /* \"#utility.yul\":6920:6952   */\n      slt\n        /* \"#utility.yul\":6917:6969   */\n      iszero\n      tag_519\n      jumpi\n        /* \"#utility.yul\":6965:6966   */\n      0x00\n        /* \"#utility.yul\":6962:6963   */\n      dup1\n        /* \"#utility.yul\":6955:6967   */\n      revert\n        /* \"#utility.yul\":6917:6969   */\n    tag_519:\n        /* \"#utility.yul\":6988:7017   */\n      tag_520\n        /* \"#utility.yul\":7007:7016   */\n      dup4\n        /* \"#utility.yul\":6988:7017   */\n      tag_445\n      jump\t// in\n    tag_520:\n        /* \"#utility.yul\":6978:7017   */\n      swap2\n      pop\n        /* \"#utility.yul\":7036:7074   */\n      tag_521\n        /* \"#utility.yul\":7070:7072   */\n      0x20\n        /* \"#utility.yul\":7059:7068   */\n      dup5\n        /* \"#utility.yul\":7055:7073   */\n      add\n        /* \"#utility.yul\":7036:7074   */\n      tag_445\n      jump\t// in\n    tag_521:\n        /* \"#utility.yul\":7026:7074   */\n      swap1\n      pop\n        /* \"#utility.yul\":6820:7080   */\n      swap3\n      pop\n      swap3\n      swap1\n      pop\n      jump\t// out\n        /* \"#utility.yul\":7085:7465   */\n    tag_151:\n        /* \"#utility.yul\":7164:7165   */\n      0x01\n        /* \"#utility.yul\":7160:7172   */\n      dup2\n      dup2\n      shr\n      swap1\n        /* \"#utility.yul\":7207:7219   */\n      dup3\n      and\n      dup1\n        /* \"#utility.yul\":7228:7289   */\n      tag_523\n      jumpi\n        /* \"#utility.yul\":7282:7286   */\n      0x7f\n        /* \"#utility.yul\":7274:7280   */\n      dup3\n        /* \"#utility.yul\":7270:7287   */\n      and\n        /* \"#utility.yul\":7260:7287   */\n      swap2\n      pop\n        /* \"#utility.yul\":7228:7289   */\n    tag_523:\n        /* \"#utility.yul\":7335:7337   */\n      0x20\n        /* \"#utility.yul\":7327:7333   */\n      dup3\n        /* \"#utility.yul\":7324:7338   */\n      lt\n        /* \"#utility.yul\":7304:7322   */\n      dup2\n        /* \"#utility.yul\":7301:7339   */\n      sub\n        /* \"#utility.yul\":7298:7459   */\n      tag_524\n      jumpi\n        /* \"#utility.yul\":7381:7391   */\n      0x4e487b71\n        /* \"#utility.yul\":7376:7379   */\n      0xe0\n        /* \"#utility.yul\":7372:7392   */\n      shl\n        /* \"#utility.yul\":7369:7370   */\n      0x00\n        /* \"#utility.yul\":7362:7393   */\n      mstore\n        /* \"#utility.yul\":7416:7420   */\n      0x22\n        /* \"#utility.yul\":7413:7414   */\n      0x04\n        /* \"#utility.yul\":7406:7421   */\n      mstore\n        /* \"#utility.yul\":7444:7448   */\n      0x24\n        /* \"#utility.yul\":7441:7442   */\n      0x00\n        /* \"#utility.yul\":7434:7449   */\n      revert\n        /* \"#utility.yul\":7298:7459   */\n    tag_524:\n      pop\n        /* \"#utility.yul\":7085:7465   */\n      swap2\n      swap1\n      pop\n      jump\t// out\n        /* \"#utility.yul\":7850:8034   */\n    tag_187:\n        /* \"#utility.yul\":7920:7926   */\n      0x00\n        /* \"#utility.yul\":7973:7975   */\n      0x20\n        /* \"#utility.yul\":7961:7970   */\n      dup3\n        /* \"#utility.yul\":7952:7959   */\n      dup5\n        /* \"#utility.yul\":7948:7971   */\n      sub\n        /* \"#utility.yul\":7944:7976   */\n      slt\n        /* \"#utility.yul\":7941:7993   */\n      iszero\n      tag_527\n      jumpi\n        /* \"#utility.yul\":7989:7990   */\n      0x00\n        /* \"#utility.yul\":7986:7987   */\n      dup1\n        /* \"#utility.yul\":7979:7991   */\n      revert\n        /* \"#utility.yul\":7941:7993   */\n    tag_527:\n      pop\n        /* \"#utility.yul\":8012:8028   */\n      mload\n      swap2\n        /* \"#utility.yul\":7850:8034   */\n      swap1\n      pop\n      jump\t// out\n        /* \"#utility.yul\":8516:9034   */\n    tag_450:\n        /* \"#utility.yul\":8618:8620   */\n      0x1f\n        /* \"#utility.yul\":8613:8616   */\n      dup3\n        /* \"#utility.yul\":8610:8621   */\n      gt\n        /* \"#utility.yul\":8607:9028   */\n      iszero\n      tag_194\n      jumpi\n        /* \"#utility.yul\":8654:8659   */\n      dup1\n        /* \"#utility.yul\":8651:8652   */\n      0x00\n        /* \"#utility.yul\":8644:8660   */\n      mstore\n        /* \"#utility.yul\":8698:8702   */\n      0x20\n        /* \"#utility.yul\":8695:8696   */\n      0x00\n        /* \"#utility.yul\":8685:8703   */\n      keccak256\n        /* \"#utility.yul\":8768:8770   */\n      0x1f\n        /* \"#utility.yul\":8756:8766   */\n      dup5\n        /* \"#utility.yul\":8752:8771   */\n      add\n        /* \"#utility.yul\":8749:8750   */\n      0x05\n        /* \"#utility.yul\":8745:8772   */\n      shr\n        /* \"#utility.yul\":8739:8743   */\n      dup2\n        /* \"#utility.yul\":8735:8773   */\n      add\n        /* \"#utility.yul\":8804:8808   */\n      0x20\n        /* \"#utility.yul\":8792:8802   */\n      dup6\n        /* \"#utility.yul\":8789:8809   */\n      lt\n        /* \"#utility.yul\":8786:8833   */\n      iszero\n      tag_532\n      jumpi\n      pop\n        /* \"#utility.yul\":8827:8831   */\n      dup1\n        /* \"#utility.yul\":8786:8833   */\n    tag_532:\n        /* \"#utility.yul\":8882:8884   */\n      0x1f\n        /* \"#utility.yul\":8877:8880   */\n      dup5\n        /* \"#utility.yul\":8873:8885   */\n      add\n        /* \"#utility.yul\":8870:8871   */\n      0x05\n        /* \"#utility.yul\":8866:8886   */\n      shr\n        /* \"#utility.yul\":8860:8864   */\n      dup3\n        /* \"#utility.yul\":8856:8887   */\n      add\n        /* \"#utility.yul\":8846:8887   */\n      swap2\n      pop\n        /* \"#utility.yul\":8937:9018   */\n    tag_533:\n        /* \"#utility.yul\":8955:8957   */\n      dup2\n        /* \"#utility.yul\":8948:8953   */\n      dup2\n        /* \"#utility.yul\":8945:8958   */\n      lt\n        /* \"#utility.yul\":8937:9018   */\n      iszero\n      tag_354\n      jumpi\n        /* \"#utility.yul\":9014:9015   */\n      0x00\n        /* \"#utility.yul\":9000:9016   */\n      dup2\n      sstore\n        /* \"#utility.yul\":8981:8982   */\n      0x01\n        /* \"#utility.yul\":8970:8983   */\n      add\n        /* \"#utility.yul\":8937:9018   */\n      jump(tag_533)\n        /* \"#utility.yul\":9210:10555   */\n    tag_209:\n        /* \"#utility.yul\":9336:9339   */\n      dup2\n        /* \"#utility.yul\":9330:9340   */\n      mload\n        /* \"#utility.yul\":9363:9381   */\n      0xffffffffffffffff\n        /* \"#utility.yul\":9355:9361   */\n      dup2\n        /* \"#utility.yul\":9352:9382   */\n      gt\n        /* \"#utility.yul\":9349:9405   */\n      iszero\n      tag_539\n      jumpi\n        /* \"#utility.yul\":9385:9403   */\n      tag_539\n      tag_296\n      jump\t// in\n    tag_539:\n        /* \"#utility.yul\":9414:9511   */\n      tag_540\n        /* \"#utility.yul\":9504:9510   */\n      dup2\n        /* \"#utility.yul\":9464:9502   */\n      tag_541\n        /* \"#utility.yul\":9496:9500   */\n      dup5\n        /* \"#utility.yul\":9490:9501   */\n      sload\n        /* \"#utility.yul\":9464:9502   */\n      tag_151\n      jump\t// in\n    tag_541:\n        /* \"#utility.yul\":9458:9462   */\n      dup5\n        /* \"#utility.yul\":9414:9511   */\n      tag_450\n      jump\t// in\n    tag_540:\n        /* \"#utility.yul\":9566:9570   */\n      0x20\n      dup1\n        /* \"#utility.yul\":9623:9625   */\n      0x1f\n        /* \"#utility.yul\":9612:9626   */\n      dup4\n      gt\n        /* \"#utility.yul\":9640:9641   */\n      0x01\n        /* \"#utility.yul\":9635:10298   */\n      dup2\n      eq\n      tag_543\n      jumpi\n        /* \"#utility.yul\":10342:10343   */\n      0x00\n        /* \"#utility.yul\":10359:10365   */\n      dup5\n        /* \"#utility.yul\":10356:10445   */\n      iszero\n      tag_544\n      jumpi\n      pop\n        /* \"#utility.yul\":10411:10430   */\n      dup6\n      dup4\n      add\n        /* \"#utility.yul\":10405:10431   */\n      mload\n        /* \"#utility.yul\":10356:10445   */\n    tag_544:\n      not(0x00)\n        /* \"#utility.yul\":9167:9168   */\n      0x03\n        /* \"#utility.yul\":9163:9174   */\n      dup7\n      swap1\n      shl\n        /* \"#utility.yul\":9159:9183   */\n      shr\n        /* \"#utility.yul\":9155:9184   */\n      not\n        /* \"#utility.yul\":9145:9185   */\n      and\n        /* \"#utility.yul\":9191:9192   */\n      0x01\n        /* \"#utility.yul\":9187:9198   */\n      dup6\n      swap1\n      shl\n        /* \"#utility.yul\":9142:9199   */\n      or\n        /* \"#utility.yul\":10458:10539   */\n      dup6\n      sstore\n        /* \"#utility.yul\":9605:10549   */\n      jump(tag_542)\n        /* \"#utility.yul\":9635:10298   */\n    tag_543:\n        /* \"#utility.yul\":8463:8464   */\n      0x00\n        /* \"#utility.yul\":8456:8470   */\n      dup6\n      dup2\n      mstore\n        /* \"#utility.yul\":8500:8504   */\n      0x20\n        /* \"#utility.yul\":8487:8505   */\n      dup2\n      keccak256\n      not(0x1f)\n        /* \"#utility.yul\":9671:9691   */\n      dup7\n      and\n      swap2\n        /* \"#utility.yul\":9789:10025   */\n    tag_547:\n        /* \"#utility.yul\":9803:9810   */\n      dup3\n        /* \"#utility.yul\":9800:9801   */\n      dup2\n        /* \"#utility.yul\":9797:9811   */\n      lt\n        /* \"#utility.yul\":9789:10025   */\n      iszero\n      tag_549\n      jumpi\n        /* \"#utility.yul\":9892:9911   */\n      dup9\n      dup7\n      add\n        /* \"#utility.yul\":9886:9912   */\n      mload\n        /* \"#utility.yul\":9871:9913   */\n      dup3\n      sstore\n        /* \"#utility.yul\":9984:10011   */\n      swap5\n      dup5\n      add\n      swap5\n        /* \"#utility.yul\":9952:9953   */\n      0x01\n        /* \"#utility.yul\":9940:9954   */\n      swap1\n      swap2\n      add\n      swap1\n        /* \"#utility.yul\":9819:9838   */\n      dup5\n      add\n        /* \"#utility.yul\":9789:10025   */\n      jump(tag_547)\n    tag_549:\n        /* \"#utility.yul\":9793:9796   */\n      pop\n        /* \"#utility.yul\":10053:10059   */\n      dup6\n        /* \"#utility.yul\":10044:10051   */\n      dup3\n        /* \"#utility.yul\":10041:10060   */\n      lt\n        /* \"#utility.yul\":10038:10239   */\n      iszero\n      tag_550\n      jumpi\n        /* \"#utility.yul\":10114:10133   */\n      dup8\n      dup6\n      add\n        /* \"#utility.yul\":10108:10134   */\n      mload\n      not(0x00)\n        /* \"#utility.yul\":10197:10198   */\n      0x03\n        /* \"#utility.yul\":10193:10207   */\n      dup9\n      swap1\n      shl\n        /* \"#utility.yul\":10209:10212   */\n      0xf8\n        /* \"#utility.yul\":10189:10213   */\n      and\n        /* \"#utility.yul\":10185:10222   */\n      shr\n        /* \"#utility.yul\":10181:10223   */\n      not\n        /* \"#utility.yul\":10166:10224   */\n      and\n        /* \"#utility.yul\":10151:10225   */\n      dup2\n      sstore\n        /* \"#utility.yul\":10038:10239   */\n    tag_550:\n      pop\n      pop\n        /* \"#utility.yul\":10285:10286   */\n      0x01\n        /* \"#utility.yul\":10276:10282   */\n      dup5\n        /* \"#utility.yul\":10273:10274   */\n      0x01\n        /* \"#utility.yul\":10269:10283   */\n      shl\n        /* \"#utility.yul\":10265:10287   */\n      add\n        /* \"#utility.yul\":10259:10263   */\n      dup6\n        /* \"#utility.yul\":10252:10288   */\n      sstore\n        /* \"#utility.yul\":9605:10549   */\n    tag_542:\n      pop\n      pop\n      pop\n      pop\n        /* \"#utility.yul\":9210:10555   */\n      pop\n      pop\n      jump\t// out\n        /* \"#utility.yul\":10920:11132   */\n    tag_452:\n        /* \"#utility.yul\":10962:10965   */\n      0x00\n        /* \"#utility.yul\":11000:11005   */\n      dup2\n        /* \"#utility.yul\":10994:11006   */\n      mload\n        /* \"#utility.yul\":11044:11050   */\n      dup1\n        /* \"#utility.yul\":11037:11041   */\n      0x20\n        /* \"#utility.yul\":11030:11035   */\n      dup5\n        /* \"#utility.yul\":11026:11042   */\n      add\n        /* \"#utility.yul\":11021:11024   */\n      dup6\n        /* \"#utility.yul\":11015:11051   */\n      mcopy\n        /* \"#utility.yul\":11106:11107   */\n      0x00\n        /* \"#utility.yul\":11070:11086   */\n      swap4\n      add\n        /* \"#utility.yul\":11095:11108   */\n      swap3\n      dup4\n      mstore\n      pop\n        /* \"#utility.yul\":11070:11086   */\n      swap1\n      swap2\n        /* \"#utility.yul\":10920:11132   */\n      swap1\n      pop\n      jump\t// out\n        /* \"#utility.yul\":11137:11404   */\n    tag_251:\n        /* \"#utility.yul\":11316:11319   */\n      0x00\n        /* \"#utility.yul\":11341:11398   */\n      tag_290\n        /* \"#utility.yul\":11367:11397   */\n      tag_555\n        /* \"#utility.yul\":11393:11396   */\n      dup4\n        /* \"#utility.yul\":11385:11391   */\n      dup7\n        /* \"#utility.yul\":11367:11397   */\n      tag_452\n      jump\t// in\n    tag_555:\n        /* \"#utility.yul\":11359:11365   */\n      dup5\n        /* \"#utility.yul\":11341:11398   */\n      tag_452\n      jump\t// in\n        /* \"#utility.yul\":11662:12059   */\n    tag_281:\n        /* \"#utility.yul\":11894:11895   */\n      0x01\n        /* \"#utility.yul\":11890:11891   */\n      dup1\n        /* \"#utility.yul\":11885:11888   */\n      0xa0\n        /* \"#utility.yul\":11881:11892   */\n      shl\n        /* \"#utility.yul\":11877:11896   */\n      sub\n        /* \"#utility.yul\":11869:11875   */\n      dup5\n        /* \"#utility.yul\":11865:11897   */\n      and\n        /* \"#utility.yul\":11854:11863   */\n      dup2\n        /* \"#utility.yul\":11847:11898   */\n      mstore\n        /* \"#utility.yul\":11934:11940   */\n      dup3\n        /* \"#utility.yul\":11929:11931   */\n      0x20\n        /* \"#utility.yul\":11918:11927   */\n      dup3\n        /* \"#utility.yul\":11914:11932   */\n      add\n        /* \"#utility.yul\":11907:11941   */\n      mstore\n        /* \"#utility.yul\":11977:11979   */\n      0x60\n        /* \"#utility.yul\":11972:11974   */\n      0x40\n        /* \"#utility.yul\":11961:11970   */\n      dup3\n        /* \"#utility.yul\":11957:11975   */\n      add\n        /* \"#utility.yul\":11950:11980   */\n      mstore\n        /* \"#utility.yul\":11828:11832   */\n      0x00\n        /* \"#utility.yul\":11997:12053   */\n      tag_558\n        /* \"#utility.yul\":12049:12051   */\n      0x60\n        /* \"#utility.yul\":12038:12047   */\n      dup4\n        /* \"#utility.yul\":12034:12052   */\n      add\n        /* \"#utility.yul\":12026:12032   */\n      dup5\n        /* \"#utility.yul\":11997:12053   */\n      tag_444\n      jump\t// in\n    tag_558:\n        /* \"#utility.yul\":11989:12053   */\n      swap6\n        /* \"#utility.yul\":11662:12059   */\n      swap5\n      pop\n      pop\n      pop\n      pop\n      pop\n      jump\t// out\n        /* \"#utility.yul\":12064:12309   */\n    tag_285:\n        /* \"#utility.yul\":12131:12137   */\n      0x00\n        /* \"#utility.yul\":12184:12186   */\n      0x20\n        /* \"#utility.yul\":12172:12181   */\n      dup3\n        /* \"#utility.yul\":12163:12170   */\n      dup5\n        /* \"#utility.yul\":12159:12182   */\n      sub\n        /* \"#utility.yul\":12155:12187   */\n      slt\n        /* \"#utility.yul\":12152:12204   */\n      iszero\n      tag_560\n      jumpi\n        /* \"#utility.yul\":12200:12201   */\n      0x00\n        /* \"#utility.yul\":12197:12198   */\n      dup1\n        /* \"#utility.yul\":12190:12202   */\n      revert\n        /* \"#utility.yul\":12152:12204   */\n    tag_560:\n        /* \"#utility.yul\":12232:12241   */\n      dup2\n        /* \"#utility.yul\":12226:12242   */\n      mload\n        /* \"#utility.yul\":12251:12279   */\n      tag_247\n        /* \"#utility.yul\":12273:12278   */\n      dup2\n        /* \"#utility.yul\":12251:12279   */\n      tag_447\n      jump\t// in\n        /* \"#utility.yul\":12314:12441   */\n    tag_453:\n        /* \"#utility.yul\":12375:12385   */\n      0x4e487b71\n        /* \"#utility.yul\":12370:12373   */\n      0xe0\n        /* \"#utility.yul\":12366:12386   */\n      shl\n        /* \"#utility.yul\":12363:12364   */\n      0x00\n        /* \"#utility.yul\":12356:12387   */\n      mstore\n        /* \"#utility.yul\":12406:12410   */\n      0x11\n        /* \"#utility.yul\":12403:12404   */\n      0x04\n        /* \"#utility.yul\":12396:12411   */\n      mstore\n        /* \"#utility.yul\":12430:12434   */\n      0x24\n        /* \"#utility.yul\":12427:12428   */\n      0x00\n        /* \"#utility.yul\":12420:12435   */\n      revert\n        /* \"#utility.yul\":12446:12571   */\n    tag_289:\n        /* \"#utility.yul\":12511:12520   */\n      dup1\n      dup3\n      add\n        /* \"#utility.yul\":12532:12542   */\n      dup1\n      dup3\n      gt\n        /* \"#utility.yul\":12529:12565   */\n      iszero\n      tag_147\n      jumpi\n        /* \"#utility.yul\":12545:12563   */\n      tag_147\n      tag_453\n      jump\t// in\n        /* \"#utility.yul\":12576:12703   */\n    tag_304:\n        /* \"#utility.yul\":12637:12647   */\n      0x4e487b71\n        /* \"#utility.yul\":12632:12635   */\n      0xe0\n        /* \"#utility.yul\":12628:12648   */\n      shl\n        /* \"#utility.yul\":12625:12626   */\n      0x00\n        /* \"#utility.yul\":12618:12649   */\n      mstore\n        /* \"#utility.yul\":12668:12672   */\n      0x32\n        /* \"#utility.yul\":12665:12666   */\n      0x04\n        /* \"#utility.yul\":12658:12673   */\n      mstore\n        /* \"#utility.yul\":12692:12696   */\n      0x24\n        /* \"#utility.yul\":12689:12690   */\n      0x00\n        /* \"#utility.yul\":12682:12697   */\n      revert\n        /* \"#utility.yul\":13092:13301   */\n    tag_313:\n        /* \"#utility.yul\":13124:13125   */\n      0x00\n        /* \"#utility.yul\":13150:13151   */\n      dup3\n        /* \"#utility.yul\":13140:13272   */\n      tag_570\n      jumpi\n        /* \"#utility.yul\":13194:13204   */\n      0x4e487b71\n        /* \"#utility.yul\":13189:13192   */\n      0xe0\n        /* \"#utility.yul\":13185:13205   */\n      shl\n        /* \"#utility.yul\":13182:13183   */\n      0x00\n        /* \"#utility.yul\":13175:13206   */\n      mstore\n        /* \"#utility.yul\":13229:13233   */\n      0x12\n        /* \"#utility.yul\":13226:13227   */\n      0x04\n        /* \"#utility.yul\":13219:13234   */\n      mstore\n        /* \"#utility.yul\":13257:13261   */\n      0x24\n        /* \"#utility.yul\":13254:13255   */\n      0x00\n        /* \"#utility.yul\":13247:13262   */\n      revert\n        /* \"#utility.yul\":13140:13272   */\n    tag_570:\n      pop\n        /* \"#utility.yul\":13286:13295   */\n      mod\n      swap1\n        /* \"#utility.yul\":13092:13301   */\n      jump\t// out\n        /* \"#utility.yul\":13306:13441   */\n    tag_329:\n        /* \"#utility.yul\":13345:13348   */\n      0x00\n        /* \"#utility.yul\":13366:13383   */\n      0x01\n      dup3\n      add\n        /* \"#utility.yul\":13363:13406   */\n      tag_573\n      jumpi\n        /* \"#utility.yul\":13386:13404   */\n      tag_573\n      tag_453\n      jump\t// in\n    tag_573:\n      pop\n        /* \"#utility.yul\":13433:13434   */\n      0x01\n        /* \"#utility.yul\":13422:13435   */\n      add\n      swap1\n        /* \"#utility.yul\":13306:13441   */\n      jump\t// out\n        /* \"#utility.yul\":13446:13797   */\n    tag_331:\n        /* \"#utility.yul\":13673:13679   */\n      dup3\n        /* \"#utility.yul\":13662:13671   */\n      dup2\n        /* \"#utility.yul\":13655:13680   */\n      mstore\n        /* \"#utility.yul\":13716:13718   */\n      0x40\n        /* \"#utility.yul\":13711:13713   */\n      0x20\n        /* \"#utility.yul\":13700:13709   */\n      dup3\n        /* \"#utility.yul\":13696:13714   */\n      add\n        /* \"#utility.yul\":13689:13719   */\n      mstore\n        /* \"#utility.yul\":13636:13640   */\n      0x00\n        /* \"#utility.yul\":13736:13791   */\n      tag_290\n        /* \"#utility.yul\":13787:13789   */\n      0x40\n        /* \"#utility.yul\":13776:13785   */\n      dup4\n        /* \"#utility.yul\":13772:13790   */\n      add\n        /* \"#utility.yul\":13764:13770   */\n      dup5\n        /* \"#utility.yul\":13736:13791   */\n      tag_448\n      jump\t// in\n        /* \"#utility.yul\":13802:14302   */\n    tag_340:\n      sub(shl(0xa0, 0x01), 0x01)\n        /* \"#utility.yul\":14071:14086   */\n      dup6\n      dup2\n      and\n        /* \"#utility.yul\":14053:14087   */\n      dup3\n      mstore\n        /* \"#utility.yul\":14123:14138   */\n      dup5\n      and\n        /* \"#utility.yul\":14118:14120   */\n      0x20\n        /* \"#utility.yul\":14103:14121   */\n      dup3\n      add\n        /* \"#utility.yul\":14096:14139   */\n      mstore\n        /* \"#utility.yul\":14170:14172   */\n      0x40\n        /* \"#utility.yul\":14155:14173   */\n      dup2\n      add\n        /* \"#utility.yul\":14148:14182   */\n      dup4\n      swap1\n      mstore\n        /* \"#utility.yul\":14218:14221   */\n      0x80\n        /* \"#utility.yul\":14213:14215   */\n      0x60\n        /* \"#utility.yul\":14198:14216   */\n      dup3\n      add\n        /* \"#utility.yul\":14191:14222   */\n      dup2\n      swap1\n      mstore\n        /* \"#utility.yul\":13996:14000   */\n      0x00\n      swap1\n        /* \"#utility.yul\":14239:14296   */\n      tag_577\n      swap1\n        /* \"#utility.yul\":14276:14295   */\n      dup4\n      add\n        /* \"#utility.yul\":14268:14274   */\n      dup5\n        /* \"#utility.yul\":14239:14296   */\n      tag_444\n      jump\t// in\n    tag_577:\n        /* \"#utility.yul\":14231:14296   */\n      swap7\n        /* \"#utility.yul\":13802:14302   */\n      swap6\n      pop\n      pop\n      pop\n      pop\n      pop\n      pop\n      jump\t// out\n        /* \"#utility.yul\":14307:14556   */\n    tag_343:\n        /* \"#utility.yul\":14376:14382   */\n      0x00\n        /* \"#utility.yul\":14429:14431   */\n      0x20\n        /* \"#utility.yul\":14417:14426   */\n      dup3\n        /* \"#utility.yul\":14408:14415   */\n      dup5\n        /* \"#utility.yul\":14404:14427   */\n      sub\n        /* \"#utility.yul\":14400:14432   */\n      slt\n        /* \"#utility.yul\":14397:14449   */\n      iszero\n      tag_579\n      jumpi\n        /* \"#utility.yul\":14445:14446   */\n      0x00\n        /* \"#utility.yul\":14442:14443   */\n      dup1\n        /* \"#utility.yul\":14435:14447   */\n      revert\n        /* \"#utility.yul\":14397:14449   */\n    tag_579:\n        /* \"#utility.yul\":14477:14486   */\n      dup2\n        /* \"#utility.yul\":14471:14487   */\n      mload\n        /* \"#utility.yul\":14496:14526   */\n      tag_247\n        /* \"#utility.yul\":14520:14525   */\n      dup2\n        /* \"#utility.yul\":14496:14526   */\n      tag_443\n      jump\t// in\n\n    auxdata: 0xa2646970667358221220f3b4d570f88033d3c446a12bfa7e5b0347b7e6630e0dea27bfaf00890c6a4db864736f6c63430008190033\n}\n",
				"bytecode": {
					"linkReferences": {},
					"object": "60c060405234801561000f575f80fd5b50604051611e3f380380611e3f83398101604081905261002e916100fb565b604080518082018252600d81526c111e5b985b5a58d05c9d139195609a1b602080830191909152825180840190935260048352631110549560e21b908301526001600160a01b0380871660a052851660805290600161008d83826101d8565b50600261009a82826101d8565b5050600780546001600160a01b039687166001600160a01b0319918216179091556008805495909616941693909317909355600a5550600b5567016345785d8a0000600955610297565b6001600160a01b03811681146100f8575f80fd5b50565b5f805f806080858703121561010e575f80fd5b8451610119816100e4565b602086015190945061012a816100e4565b6040860151606090960151949790965092505050565b634e487b7160e01b5f52604160045260245ffd5b600181811c9082168061016857607f821691505b60208210810361018657634e487b7160e01b5f52602260045260245ffd5b50919050565b601f8211156101d357805f5260205f20601f840160051c810160208510156101b15750805b601f840160051c820191505b818110156101d0575f81556001016101bd565b50505b505050565b81516001600160401b038111156101f1576101f1610140565b610205816101ff8454610154565b8461018c565b602080601f831160018114610238575f84156102215750858301515b5f19600386901b1c1916600185901b17855561028f565b5f85815260208120601f198616915b8281101561026657888601518255948401946001909101908401610247565b508582101561028357878501515f19600388901b60f8161c191681555b505060018460011b0185555b505050505050565b60805160a051611b796102c65f395f81816107b10152610b8d01525f81816106170152610b5e0152611b795ff3fe608060405234801561000f575f80fd5b50600436106101a1575f3560e01c80637ba19512116100f3578063b88d4fde11610093578063e84b3ad01161006e578063e84b3ad01461037c578063e985e9c514610384578063eb2e578b14610397578063f68016b7146103a0575f80fd5b8063b88d4fde1461034d578063c87b56dd14610360578063ddca3f4314610373575f80fd5b80639cc8c69b116100ce5780639cc8c69b146102f4578063a22cb46514610307578063a3e56fa81461031a578063a630fd971461032d575f80fd5b80637ba19512146102c657806394985ddd146102d957806395d89b41146102ec575f80fd5b80633ff6bc4e1161015e57806357970e931161013957806357970e931461027a5780635ed5b5af1461028d5780636352211e146102a057806370a08231146102b3575f80fd5b80633ff6bc4e1461024857806342842e0e1461025e5780634eb7e95f14610271575f80fd5b806301ffc9a7146101a557806306fdde03146101cd578063081812fc146101e2578063095ea7b31461020d57806323b872dd146102225780632d72225b14610235575b5f80fd5b6101b86101b3366004611553565b6103a9565b60405190151581526020015b60405180910390f35b6101d56103fa565b6040516101c4919061159c565b6101f56101f03660046115ae565b61048a565b6040516001600160a01b0390911681526020016101c4565b61022061021b3660046115e0565b6104b1565b005b610220610230366004611608565b6104c0565b6101d56102433660046115ae565b61054e565b6102506105f4565b6040519081526020016101c4565b61022061026c366004611608565b6106fa565b610250600c5481565b6008546101f5906001600160a01b031681565b6101d561029b366004611641565b610719565b6101f56102ae3660046115ae565b61074b565b6102506102c1366004611661565b610755565b6102206102d4366004611701565b61079a565b6102206102e7366004611641565b6107a6565b6101d5610828565b610220610302366004611701565b610837565b610220610315366004611753565b610872565b6007546101f5906001600160a01b031681565b61034061033b3660046115ae565b61087d565b6040516101c491906117e0565b61022061035b3660046117f2565b610962565b6101d561036e3660046115ae565b610979565b61025060095481565b6101d56109ea565b6101b8610392366004611869565b6109f7565b610250600b5481565b610250600a5481565b5f6001600160e01b031982166380ac58cd60e01b14806103d957506001600160e01b03198216635b5e139f60e01b145b806103f457506301ffc9a760e01b6001600160e01b03198316145b92915050565b6060600180546104099061189a565b80601f01602080910402602001604051908101604052809291908181526020018280546104359061189a565b80156104805780601f1061045757610100808354040283529160200191610480565b820191905f5260205f20905b81548152906001019060200180831161046357829003601f168201915b5050505050905090565b5f61049482610a24565b505f828152600560205260409020546001600160a01b03166103f4565b6104bc828233610a5c565b5050565b6001600160a01b0382166104ee57604051633250574960e11b81525f60048201526024015b60405180910390fd5b5f6104fa838333610a69565b9050836001600160a01b0316816001600160a01b031614610548576040516364283d7b60e01b81526001600160a01b03808616600483015260248201849052821660448201526064016104e5565b50505050565b600e818154811061055d575f80fd5b905f5260205f20015f9150905080546105759061189a565b80601f01602080910402602001604051908101604052809291908181526020018280546105a19061189a565b80156105ec5780601f106105c3576101008083540402835291602001916105ec565b820191905f5260205f20905b8154815290600101906020018083116105cf57829003601f168201915b505050505081565b600b546040516370a0823160e01b81523060048201525f91906001600160a01b037f000000000000000000000000000000000000000000000000000000000000000016906370a0823190602401602060405180830381865afa15801561065c573d5f803e3d5ffd5b505050506040513d601f19601f8201168201806040525081019061068091906118d2565b10156106c75760405162461bcd60e51b81526020600482015260166024820152754e6f7420656e6f756768204c494e4b20746f6b656e7360501b60448201526064016104e5565b6106f57f1234567890abcdef1234567890abcdef1234567890abcdef1234567890abcdef5f1b600954610b5b565b905090565b61071483838360405180602001604052805f815250610962565b505050565b600f602052815f5260405f208181548110610732575f80fd5b905f5260205f20015f915091505080546105759061189a565b5f6103f482610a24565b5f6001600160a01b03821661077f576040516322718ad960e21b81525f60048201526024016104e5565b506001600160a01b03165f9081526004602052604090205490565b600d6104bc828261192d565b336001600160a01b037f0000000000000000000000000000000000000000000000000000000000000000161461081e5760405162461bcd60e51b815260206004820152601f60248201527f4f6e6c7920565246436f6f7264696e61746f722063616e2066756c66696c6c0060448201526064016104e5565b6104bc8282610ccf565b6060600280546104099061189a565b600e80546001810182555f919091527fbb7b4a454dc3493923482f07822329ed19e8244eff582cc204f8554c3620c3fd016104bc828261192d565b6104bc338383610f2b565b6060600f5f8381526020019081526020015f20805480602002602001604051908101604052809291908181526020015f905b82821015610957578382905f5260205f200180546108cc9061189a565b80601f01602080910402602001604051908101604052809291908181526020018280546108f89061189a565b80156109435780601f1061091a57610100808354040283529160200191610943565b820191905f5260205f20905b81548152906001019060200180831161092657829003601f168201915b5050505050815260200190600101906108af565b505050509050919050565b61096d8484846104c0565b61054884848484610fc9565b606061098482610a24565b505f61099a60408051602081019091525f815290565b90505f8151116109b85760405180602001604052805f8152506109e3565b806109c2846110ef565b6040516020016109d3929190611a04565b6040516020818303038152906040525b9392505050565b600d80546105759061189a565b6001600160a01b039182165f90815260066020908152604080832093909416825291909152205460ff1690565b5f818152600360205260408120546001600160a01b0316806103f457604051637e27328960e01b8152600481018490526024016104e5565b610714838383600161117f565b5f828152600360205260408120546001600160a01b0390811690831615610a9557610a95818486611283565b6001600160a01b03811615610acf57610ab05f855f8061117f565b6001600160a01b0381165f90815260046020526040902080545f190190555b6001600160a01b03851615610afd576001600160a01b0385165f908152600460205260409020805460010190555b5f8481526003602052604080822080546001600160a01b0319166001600160a01b0389811691821790925591518793918516917fddf252ad1be2c89b69c2b068fc378daa952ba7f163c4a11628f55a4df523b3ef91a4949350505050565b5f7f00000000000000000000000000000000000000000000000000000000000000006001600160a01b0316634000aea07f000000000000000000000000000000000000000000000000000000000000000084865f604051602001610bc9929190918252602082015260400190565b6040516020818303038152906040526040518463ffffffff1660e01b8152600401610bf693929190611a18565b6020604051808303815f875af1158015610c12573d5f803e3d5ffd5b505050506040513d601f19601f82011682018060405250810190610c369190611a47565b505f8381526020818152604080832054815180840188905280830185905230606082015260808082018390528351808303909101815260a090910190925281519183019190912086845292909152610c8f906001611a76565b5f8581526020818152604091829020929092558051808301879052808201849052815180820383018152606090910190915280519101205b949350505050565b5f600c546001610cdf9190611a76565b600e549091505f9067ffffffffffffffff811115610cff57610cff61167a565b604051908082528060200260200182016040528015610d3257816020015b6060815260200190600190039081610d1d5790505b506040805160018082528183019092529192505f919060208083019080368337019050509050835f1b815f81518110610d6d57610d6d611a89565b6020026020010181815250505f5b600e54811015610ead575f600e80549050835f81518110610d9e57610d9e611a89565b602002602001015183604051602001610dc1929190918252602082015260400190565b604051602081830303815290604052805190602001205f1c610de39190611a9d565b9050600e8181548110610df857610df8611a89565b905f5260205f20018054610e0b9061189a565b80601f0160208091040260200160405190810160405280929190818152602001828054610e379061189a565b8015610e825780601f10610e5957610100808354040283529160200191610e82565b820191905f5260205f20905b815481529060010190602001808311610e6557829003601f168201915b5050505050848381518110610e9957610e99611a89565b602090810291909101015250600101610d7b565b505f838152600f602090815260409091208351610ecc92850190611480565b50610ed733846112e7565b600c8054905f610ee683611abc565b91905055507f65f952dd632608f6d1db9e9311e0972e973f6e783ba47c13460083c575bf07f38383604051610f1c929190611ad4565b60405180910390a15050505050565b6001600160a01b038216610f5d57604051630b61174360e31b81526001600160a01b03831660048201526024016104e5565b6001600160a01b038381165f81815260066020908152604080832094871680845294825291829020805460ff191686151590811790915591519182527f17307eab39ab6107e8899845ad3d59bd9653f200f220920489ca2b5937696c31910160405180910390a3505050565b6001600160a01b0383163b1561054857604051630a85bd0160e11b81526001600160a01b0384169063150b7a029061100b903390889087908790600401611aec565b6020604051808303815f875af1925050508015611045575060408051601f3d908101601f1916820190925261104291810190611b28565b60015b6110ac573d808015611072576040519150601f19603f3d011682016040523d82523d5f602084013e611077565b606091505b5080515f036110a457604051633250574960e11b81526001600160a01b03851660048201526024016104e5565b805181602001fd5b6001600160e01b03198116630a85bd0160e11b146110e857604051633250574960e11b81526001600160a01b03851660048201526024016104e5565b5050505050565b60605f6110fb83611348565b60010190505f8167ffffffffffffffff81111561111a5761111a61167a565b6040519080825280601f01601f191660200182016040528015611144576020820181803683370190505b5090508181016020015b5f19016f181899199a1a9b1b9c1cb0b131b232b360811b600a86061a8153600a850494508461114e57509392505050565b808061119357506001600160a01b03821615155b15611254575f6111a284610a24565b90506001600160a01b038316158015906111ce5750826001600160a01b0316816001600160a01b031614155b80156111e157506111df81846109f7565b155b1561120a5760405163a9fbf51f60e01b81526001600160a01b03841660048201526024016104e5565b81156112525783856001600160a01b0316826001600160a01b03167f8c5be1e5ebec7d5bd14f71427d1e84f3dd0314c0f7b2291e5b200ac8c7c3b92560405160405180910390a45b505b50505f90815260056020526040902080546001600160a01b0319166001600160a01b0392909216919091179055565b61128e83838361141f565b610714576001600160a01b0383166112bc57604051637e27328960e01b8152600481018290526024016104e5565b60405163177e802f60e01b81526001600160a01b0383166004820152602481018290526044016104e5565b6001600160a01b03821661131057604051633250574960e11b81525f60048201526024016104e5565b5f61131c83835f610a69565b90506001600160a01b03811615610714576040516339e3563760e11b81525f60048201526024016104e5565b5f8072184f03e93ff9f4daa797ed6e38ed64bf6a1f0160401b83106113865772184f03e93ff9f4daa797ed6e38ed64bf6a1f0160401b830492506040015b6d04ee2d6d415b85acef810000000083106113b2576d04ee2d6d415b85acef8100000000830492506020015b662386f26fc1000083106113d057662386f26fc10000830492506010015b6305f5e10083106113e8576305f5e100830492506008015b61271083106113fc57612710830492506004015b6064831061140e576064830492506002015b600a83106103f45760010192915050565b5f6001600160a01b03831615801590610cc75750826001600160a01b0316846001600160a01b03161480611458575061145884846109f7565b80610cc75750505f908152600560205260409020546001600160a01b03908116911614919050565b828054828255905f5260205f209081019282156114c4579160200282015b828111156114c457825182906114b4908261192d565b509160200191906001019061149e565b506114d09291506114d4565b5090565b808211156114d0575f6114e782826114f0565b506001016114d4565b5080546114fc9061189a565b5f825580601f1061150b575050565b601f0160209004905f5260205f2090810190611527919061152a565b50565b5b808211156114d0575f815560010161152b565b6001600160e01b031981168114611527575f80fd5b5f60208284031215611563575f80fd5b81356109e38161153e565b5f81518084528060208401602086015e5f602082860101526020601f19601f83011685010191505092915050565b602081525f6109e3602083018461156e565b5f602082840312156115be575f80fd5b5035919050565b80356001600160a01b03811681146115db575f80fd5b919050565b5f80604083850312156115f1575f80fd5b6115fa836115c5565b946020939093013593505050565b5f805f6060848603121561161a575f80fd5b611623846115c5565b9250611631602085016115c5565b9150604084013590509250925092565b5f8060408385031215611652575f80fd5b50508035926020909101359150565b5f60208284031215611671575f80fd5b6109e3826115c5565b634e487b7160e01b5f52604160045260245ffd5b5f67ffffffffffffffff808411156116a8576116a861167a565b604051601f8501601f19908116603f011681019082821181831017156116d0576116d061167a565b816040528093508581528686860111156116e8575f80fd5b858560208301375f602087830101525050509392505050565b5f60208284031215611711575f80fd5b813567ffffffffffffffff811115611727575f80fd5b8201601f81018413611737575f80fd5b610cc78482356020840161168e565b8015158114611527575f80fd5b5f8060408385031215611764575f80fd5b61176d836115c5565b9150602083013561177d81611746565b809150509250929050565b5f8282518085526020808601955060208260051b840101602086015f5b848110156117d357601f198684030189526117c183835161156e565b988401989250908301906001016117a5565b5090979650505050505050565b602081525f6109e36020830184611788565b5f805f8060808587031215611805575f80fd5b61180e856115c5565b935061181c602086016115c5565b925060408501359150606085013567ffffffffffffffff81111561183e575f80fd5b8501601f8101871361184e575f80fd5b61185d8782356020840161168e565b91505092959194509250565b5f806040838503121561187a575f80fd5b611883836115c5565b9150611891602084016115c5565b90509250929050565b600181811c908216806118ae57607f821691505b6020821081036118cc57634e487b7160e01b5f52602260045260245ffd5b50919050565b5f602082840312156118e2575f80fd5b5051919050565b601f82111561071457805f5260205f20601f840160051c8101602085101561190e5750805b601f840160051c820191505b818110156110e8575f815560010161191a565b815167ffffffffffffffff8111156119475761194761167a565b61195b81611955845461189a565b846118e9565b602080601f83116001811461198e575f84156119775750858301515b5f19600386901b1c1916600185901b1785556119e5565b5f85815260208120601f198616915b828110156119bc5788860151825594840194600190910190840161199d565b50858210156119d957878501515f19600388901b60f8161c191681555b505060018460011b0185555b505050505050565b5f81518060208401855e5f93019283525090919050565b5f610cc7611a1283866119ed565b846119ed565b60018060a01b0384168152826020820152606060408201525f611a3e606083018461156e565b95945050505050565b5f60208284031215611a57575f80fd5b81516109e381611746565b634e487b7160e01b5f52601160045260245ffd5b808201808211156103f4576103f4611a62565b634e487b7160e01b5f52603260045260245ffd5b5f82611ab757634e487b7160e01b5f52601260045260245ffd5b500690565b5f60018201611acd57611acd611a62565b5060010190565b828152604060208201525f610cc76040830184611788565b6001600160a01b03858116825284166020820152604081018390526080606082018190525f90611b1e9083018461156e565b9695505050505050565b5f60208284031215611b38575f80fd5b81516109e38161153e56fea2646970667358221220f3b4d570f88033d3c446a12bfa7e5b0347b7e6630e0dea27bfaf00890c6a4db864736f6c63430008190033",
					"opcodes": "PUSH1 0xC0 PUSH1 0x40 MSTORE CALLVALUE DUP1 ISZERO PUSH2 0xF JUMPI PUSH0 DUP1 REVERT JUMPDEST POP PUSH1 0x40 MLOAD PUSH2 0x1E3F CODESIZE SUB DUP1 PUSH2 0x1E3F DUP4 CODECOPY DUP2 ADD PUSH1 0x40 DUP2 SWAP1 MSTORE PUSH2 0x2E SWAP2 PUSH2 0xFB JUMP JUMPDEST PUSH1 0x40 DUP1 MLOAD DUP1 DUP3 ADD DUP3 MSTORE PUSH1 0xD DUP2 MSTORE PUSH13 0x111E5B985B5A58D05C9D139195 PUSH1 0x9A SHL PUSH1 0x20 DUP1 DUP4 ADD SWAP2 SWAP1 SWAP2 MSTORE DUP3 MLOAD DUP1 DUP5 ADD SWAP1 SWAP4 MSTORE PUSH1 0x4 DUP4 MSTORE PUSH4 0x11105495 PUSH1 0xE2 SHL SWAP1 DUP4 ADD MSTORE PUSH1 0x1 PUSH1 0x1 PUSH1 0xA0 SHL SUB DUP1 DUP8 AND PUSH1 0xA0 MSTORE DUP6 AND PUSH1 0x80 MSTORE SWAP1 PUSH1 0x1 PUSH2 0x8D DUP4 DUP3 PUSH2 0x1D8 JUMP JUMPDEST POP PUSH1 0x2 PUSH2 0x9A DUP3 DUP3 PUSH2 0x1D8 JUMP JUMPDEST POP POP PUSH1 0x7 DUP1 SLOAD PUSH1 0x1 PUSH1 0x1 PUSH1 0xA0 SHL SUB SWAP7 DUP8 AND PUSH1 0x1 PUSH1 0x1 PUSH1 0xA0 SHL SUB NOT SWAP2 DUP3 AND OR SWAP1 SWAP2 SSTORE PUSH1 0x8 DUP1 SLOAD SWAP6 SWAP1 SWAP7 AND SWAP5 AND SWAP4 SWAP1 SWAP4 OR SWAP1 SWAP4 SSTORE PUSH1 0xA SSTORE POP PUSH1 0xB SSTORE PUSH8 0x16345785D8A0000 PUSH1 0x9 SSTORE PUSH2 0x297 JUMP JUMPDEST PUSH1 0x1 PUSH1 0x1 PUSH1 0xA0 SHL SUB DUP2 AND DUP2 EQ PUSH2 0xF8 JUMPI PUSH0 DUP1 REVERT JUMPDEST POP JUMP JUMPDEST PUSH0 DUP1 PUSH0 DUP1 PUSH1 0x80 DUP6 DUP8 SUB SLT ISZERO PUSH2 0x10E JUMPI PUSH0 DUP1 REVERT JUMPDEST DUP5 MLOAD PUSH2 0x119 DUP2 PUSH2 0xE4 JUMP JUMPDEST PUSH1 0x20 DUP7 ADD MLOAD SWAP1 SWAP5 POP PUSH2 0x12A DUP2 PUSH2 0xE4 JUMP JUMPDEST PUSH1 0x40 DUP7 ADD MLOAD PUSH1 0x60 SWAP1 SWAP7 ADD MLOAD SWAP5 SWAP8 SWAP1 SWAP7 POP SWAP3 POP POP POP JUMP JUMPDEST PUSH4 0x4E487B71 PUSH1 0xE0 SHL PUSH0 MSTORE PUSH1 0x41 PUSH1 0x4 MSTORE PUSH1 0x24 PUSH0 REVERT JUMPDEST PUSH1 0x1 DUP2 DUP2 SHR SWAP1 DUP3 AND DUP1 PUSH2 0x168 JUMPI PUSH1 0x7F DUP3 AND SWAP2 POP JUMPDEST PUSH1 0x20 DUP3 LT DUP2 SUB PUSH2 0x186 JUMPI PUSH4 0x4E487B71 PUSH1 0xE0 SHL PUSH0 MSTORE PUSH1 0x22 PUSH1 0x4 MSTORE PUSH1 0x24 PUSH0 REVERT JUMPDEST POP SWAP2 SWAP1 POP JUMP JUMPDEST PUSH1 0x1F DUP3 GT ISZERO PUSH2 0x1D3 JUMPI DUP1 PUSH0 MSTORE PUSH1 0x20 PUSH0 KECCAK256 PUSH1 0x1F DUP5 ADD PUSH1 0x5 SHR DUP2 ADD PUSH1 0x20 DUP6 LT ISZERO PUSH2 0x1B1 JUMPI POP DUP1 JUMPDEST PUSH1 0x1F DUP5 ADD PUSH1 0x5 SHR DUP3 ADD SWAP2 POP JUMPDEST DUP2 DUP2 LT ISZERO PUSH2 0x1D0 JUMPI PUSH0 DUP2 SSTORE PUSH1 0x1 ADD PUSH2 0x1BD JUMP JUMPDEST POP POP JUMPDEST POP POP POP JUMP JUMPDEST DUP2 MLOAD PUSH1 0x1 PUSH1 0x1 PUSH1 0x40 SHL SUB DUP2 GT ISZERO PUSH2 0x1F1 JUMPI PUSH2 0x1F1 PUSH2 0x140 JUMP JUMPDEST PUSH2 0x205 DUP2 PUSH2 0x1FF DUP5 SLOAD PUSH2 0x154 JUMP JUMPDEST DUP5 PUSH2 0x18C JUMP JUMPDEST PUSH1 0x20 DUP1 PUSH1 0x1F DUP4 GT PUSH1 0x1 DUP2 EQ PUSH2 0x238 JUMPI PUSH0 DUP5 ISZERO PUSH2 0x221 JUMPI POP DUP6 DUP4 ADD MLOAD JUMPDEST PUSH0 NOT PUSH1 0x3 DUP7 SWAP1 SHL SHR NOT AND PUSH1 0x1 DUP6 SWAP1 SHL OR DUP6 SSTORE PUSH2 0x28F JUMP JUMPDEST PUSH0 DUP6 DUP2 MSTORE PUSH1 0x20 DUP2 KECCAK256 PUSH1 0x1F NOT DUP7 AND SWAP2 JUMPDEST DUP3 DUP2 LT ISZERO PUSH2 0x266 JUMPI DUP9 DUP7 ADD MLOAD DUP3 SSTORE SWAP5 DUP5 ADD SWAP5 PUSH1 0x1 SWAP1 SWAP2 ADD SWAP1 DUP5 ADD PUSH2 0x247 JUMP JUMPDEST POP DUP6 DUP3 LT ISZERO PUSH2 0x283 JUMPI DUP8 DUP6 ADD MLOAD PUSH0 NOT PUSH1 0x3 DUP9 SWAP1 SHL PUSH1 0xF8 AND SHR NOT AND DUP2 SSTORE JUMPDEST POP POP PUSH1 0x1 DUP5 PUSH1 0x1 SHL ADD DUP6 SSTORE JUMPDEST POP POP POP POP POP POP JUMP JUMPDEST PUSH1 0x80 MLOAD PUSH1 0xA0 MLOAD PUSH2 0x1B79 PUSH2 0x2C6 PUSH0 CODECOPY PUSH0 DUP2 DUP2 PUSH2 0x7B1 ADD MSTORE PUSH2 0xB8D ADD MSTORE PUSH0 DUP2 DUP2 PUSH2 0x617 ADD MSTORE PUSH2 0xB5E ADD MSTORE PUSH2 0x1B79 PUSH0 RETURN INVALID PUSH1 0x80 PUSH1 0x40 MSTORE CALLVALUE DUP1 ISZERO PUSH2 0xF JUMPI PUSH0 DUP1 REVERT JUMPDEST POP PUSH1 0x4 CALLDATASIZE LT PUSH2 0x1A1 JUMPI PUSH0 CALLDATALOAD PUSH1 0xE0 SHR DUP1 PUSH4 0x7BA19512 GT PUSH2 0xF3 JUMPI DUP1 PUSH4 0xB88D4FDE GT PUSH2 0x93 JUMPI DUP1 PUSH4 0xE84B3AD0 GT PUSH2 0x6E JUMPI DUP1 PUSH4 0xE84B3AD0 EQ PUSH2 0x37C JUMPI DUP1 PUSH4 0xE985E9C5 EQ PUSH2 0x384 JUMPI DUP1 PUSH4 0xEB2E578B EQ PUSH2 0x397 JUMPI DUP1 PUSH4 0xF68016B7 EQ PUSH2 0x3A0 JUMPI PUSH0 DUP1 REVERT JUMPDEST DUP1 PUSH4 0xB88D4FDE EQ PUSH2 0x34D JUMPI DUP1 PUSH4 0xC87B56DD EQ PUSH2 0x360 JUMPI DUP1 PUSH4 0xDDCA3F43 EQ PUSH2 0x373 JUMPI PUSH0 DUP1 REVERT JUMPDEST DUP1 PUSH4 0x9CC8C69B GT PUSH2 0xCE JUMPI DUP1 PUSH4 0x9CC8C69B EQ PUSH2 0x2F4 JUMPI DUP1 PUSH4 0xA22CB465 EQ PUSH2 0x307 JUMPI DUP1 PUSH4 0xA3E56FA8 EQ PUSH2 0x31A JUMPI DUP1 PUSH4 0xA630FD97 EQ PUSH2 0x32D JUMPI PUSH0 DUP1 REVERT JUMPDEST DUP1 PUSH4 0x7BA19512 EQ PUSH2 0x2C6 JUMPI DUP1 PUSH4 0x94985DDD EQ PUSH2 0x2D9 JUMPI DUP1 PUSH4 0x95D89B41 EQ PUSH2 0x2EC JUMPI PUSH0 DUP1 REVERT JUMPDEST DUP1 PUSH4 0x3FF6BC4E GT PUSH2 0x15E JUMPI DUP1 PUSH4 0x57970E93 GT PUSH2 0x139 JUMPI DUP1 PUSH4 0x57970E93 EQ PUSH2 0x27A JUMPI DUP1 PUSH4 0x5ED5B5AF EQ PUSH2 0x28D JUMPI DUP1 PUSH4 0x6352211E EQ PUSH2 0x2A0 JUMPI DUP1 PUSH4 0x70A08231 EQ PUSH2 0x2B3 JUMPI PUSH0 DUP1 REVERT JUMPDEST DUP1 PUSH4 0x3FF6BC4E EQ PUSH2 0x248 JUMPI DUP1 PUSH4 0x42842E0E EQ PUSH2 0x25E JUMPI DUP1 PUSH4 0x4EB7E95F EQ PUSH2 0x271 JUMPI PUSH0 DUP1 REVERT JUMPDEST DUP1 PUSH4 0x1FFC9A7 EQ PUSH2 0x1A5 JUMPI DUP1 PUSH4 0x6FDDE03 EQ PUSH2 0x1CD JUMPI DUP1 PUSH4 0x81812FC EQ PUSH2 0x1E2 JUMPI DUP1 PUSH4 0x95EA7B3 EQ PUSH2 0x20D JUMPI DUP1 PUSH4 0x23B872DD EQ PUSH2 0x222 JUMPI DUP1 PUSH4 0x2D72225B EQ PUSH2 0x235 JUMPI JUMPDEST PUSH0 DUP1 REVERT JUMPDEST PUSH2 0x1B8 PUSH2 0x1B3 CALLDATASIZE PUSH1 0x4 PUSH2 0x1553 JUMP JUMPDEST PUSH2 0x3A9 JUMP JUMPDEST PUSH1 0x40 MLOAD SWAP1 ISZERO ISZERO DUP2 MSTORE PUSH1 0x20 ADD JUMPDEST PUSH1 0x40 MLOAD DUP1 SWAP2 SUB SWAP1 RETURN JUMPDEST PUSH2 0x1D5 PUSH2 0x3FA JUMP JUMPDEST PUSH1 0x40 MLOAD PUSH2 0x1C4 SWAP2 SWAP1 PUSH2 0x159C JUMP JUMPDEST PUSH2 0x1F5 PUSH2 0x1F0 CALLDATASIZE PUSH1 0x4 PUSH2 0x15AE JUMP JUMPDEST PUSH2 0x48A JUMP JUMPDEST PUSH1 0x40 MLOAD PUSH1 0x1 PUSH1 0x1 PUSH1 0xA0 SHL SUB SWAP1 SWAP2 AND DUP2 MSTORE PUSH1 0x20 ADD PUSH2 0x1C4 JUMP JUMPDEST PUSH2 0x220 PUSH2 0x21B CALLDATASIZE PUSH1 0x4 PUSH2 0x15E0 JUMP JUMPDEST PUSH2 0x4B1 JUMP JUMPDEST STOP JUMPDEST PUSH2 0x220 PUSH2 0x230 CALLDATASIZE PUSH1 0x4 PUSH2 0x1608 JUMP JUMPDEST PUSH2 0x4C0 JUMP JUMPDEST PUSH2 0x1D5 PUSH2 0x243 CALLDATASIZE PUSH1 0x4 PUSH2 0x15AE JUMP JUMPDEST PUSH2 0x54E JUMP JUMPDEST PUSH2 0x250 PUSH2 0x5F4 JUMP JUMPDEST PUSH1 0x40 MLOAD SWAP1 DUP2 MSTORE PUSH1 0x20 ADD PUSH2 0x1C4 JUMP JUMPDEST PUSH2 0x220 PUSH2 0x26C CALLDATASIZE PUSH1 0x4 PUSH2 0x1608 JUMP JUMPDEST PUSH2 0x6FA JUMP JUMPDEST PUSH2 0x250 PUSH1 0xC SLOAD DUP2 JUMP JUMPDEST PUSH1 0x8 SLOAD PUSH2 0x1F5 SWAP1 PUSH1 0x1 PUSH1 0x1 PUSH1 0xA0 SHL SUB AND DUP2 JUMP JUMPDEST PUSH2 0x1D5 PUSH2 0x29B CALLDATASIZE PUSH1 0x4 PUSH2 0x1641 JUMP JUMPDEST PUSH2 0x719 JUMP JUMPDEST PUSH2 0x1F5 PUSH2 0x2AE CALLDATASIZE PUSH1 0x4 PUSH2 0x15AE JUMP JUMPDEST PUSH2 0x74B JUMP JUMPDEST PUSH2 0x250 PUSH2 0x2C1 CALLDATASIZE PUSH1 0x4 PUSH2 0x1661 JUMP JUMPDEST PUSH2 0x755 JUMP JUMPDEST PUSH2 0x220 PUSH2 0x2D4 CALLDATASIZE PUSH1 0x4 PUSH2 0x1701 JUMP JUMPDEST PUSH2 0x79A JUMP JUMPDEST PUSH2 0x220 PUSH2 0x2E7 CALLDATASIZE PUSH1 0x4 PUSH2 0x1641 JUMP JUMPDEST PUSH2 0x7A6 JUMP JUMPDEST PUSH2 0x1D5 PUSH2 0x828 JUMP JUMPDEST PUSH2 0x220 PUSH2 0x302 CALLDATASIZE PUSH1 0x4 PUSH2 0x1701 JUMP JUMPDEST PUSH2 0x837 JUMP JUMPDEST PUSH2 0x220 PUSH2 0x315 CALLDATASIZE PUSH1 0x4 PUSH2 0x1753 JUMP JUMPDEST PUSH2 0x872 JUMP JUMPDEST PUSH1 0x7 SLOAD PUSH2 0x1F5 SWAP1 PUSH1 0x1 PUSH1 0x1 PUSH1 0xA0 SHL SUB AND DUP2 JUMP JUMPDEST PUSH2 0x340 PUSH2 0x33B CALLDATASIZE PUSH1 0x4 PUSH2 0x15AE JUMP JUMPDEST PUSH2 0x87D JUMP JUMPDEST PUSH1 0x40 MLOAD PUSH2 0x1C4 SWAP2 SWAP1 PUSH2 0x17E0 JUMP JUMPDEST PUSH2 0x220 PUSH2 0x35B CALLDATASIZE PUSH1 0x4 PUSH2 0x17F2 JUMP JUMPDEST PUSH2 0x962 JUMP JUMPDEST PUSH2 0x1D5 PUSH2 0x36E CALLDATASIZE PUSH1 0x4 PUSH2 0x15AE JUMP JUMPDEST PUSH2 0x979 JUMP JUMPDEST PUSH2 0x250 PUSH1 0x9 SLOAD DUP2 JUMP JUMPDEST PUSH2 0x1D5 PUSH2 0x9EA JUMP JUMPDEST PUSH2 0x1B8 PUSH2 0x392 CALLDATASIZE PUSH1 0x4 PUSH2 0x1869 JUMP JUMPDEST PUSH2 0x9F7 JUMP JUMPDEST PUSH2 0x250 PUSH1 0xB SLOAD DUP2 JUMP JUMPDEST PUSH2 0x250 PUSH1 0xA SLOAD DUP2 JUMP JUMPDEST PUSH0 PUSH1 0x1 PUSH1 0x1 PUSH1 0xE0 SHL SUB NOT DUP3 AND PUSH4 0x80AC58CD PUSH1 0xE0 SHL EQ DUP1 PUSH2 0x3D9 JUMPI POP PUSH1 0x1 PUSH1 0x1 PUSH1 0xE0 SHL SUB NOT DUP3 AND PUSH4 0x5B5E139F PUSH1 0xE0 SHL EQ JUMPDEST DUP1 PUSH2 0x3F4 JUMPI POP PUSH4 0x1FFC9A7 PUSH1 0xE0 SHL PUSH1 0x1 PUSH1 0x1 PUSH1 0xE0 SHL SUB NOT DUP4 AND EQ JUMPDEST SWAP3 SWAP2 POP POP JUMP JUMPDEST PUSH1 0x60 PUSH1 0x1 DUP1 SLOAD PUSH2 0x409 SWAP1 PUSH2 0x189A JUMP JUMPDEST DUP1 PUSH1 0x1F ADD PUSH1 0x20 DUP1 SWAP2 DIV MUL PUSH1 0x20 ADD PUSH1 0x40 MLOAD SWAP1 DUP2 ADD PUSH1 0x40 MSTORE DUP1 SWAP3 SWAP2 SWAP1 DUP2 DUP2 MSTORE PUSH1 0x20 ADD DUP3 DUP1 SLOAD PUSH2 0x435 SWAP1 PUSH2 0x189A JUMP JUMPDEST DUP1 ISZERO PUSH2 0x480 JUMPI DUP1 PUSH1 0x1F LT PUSH2 0x457 JUMPI PUSH2 0x100 DUP1 DUP4 SLOAD DIV MUL DUP4 MSTORE SWAP2 PUSH1 0x20 ADD SWAP2 PUSH2 0x480 JUMP JUMPDEST DUP3 ADD SWAP2 SWAP1 PUSH0 MSTORE PUSH1 0x20 PUSH0 KECCAK256 SWAP1 JUMPDEST DUP2 SLOAD DUP2 MSTORE SWAP1 PUSH1 0x1 ADD SWAP1 PUSH1 0x20 ADD DUP1 DUP4 GT PUSH2 0x463 JUMPI DUP3 SWAP1 SUB PUSH1 0x1F AND DUP3 ADD SWAP2 JUMPDEST POP POP POP POP POP SWAP1 POP SWAP1 JUMP JUMPDEST PUSH0 PUSH2 0x494 DUP3 PUSH2 0xA24 JUMP JUMPDEST POP PUSH0 DUP3 DUP2 MSTORE PUSH1 0x5 PUSH1 0x20 MSTORE PUSH1 0x40 SWAP1 KECCAK256 SLOAD PUSH1 0x1 PUSH1 0x1 PUSH1 0xA0 SHL SUB AND PUSH2 0x3F4 JUMP JUMPDEST PUSH2 0x4BC DUP3 DUP3 CALLER PUSH2 0xA5C JUMP JUMPDEST POP POP JUMP JUMPDEST PUSH1 0x1 PUSH1 0x1 PUSH1 0xA0 SHL SUB DUP3 AND PUSH2 0x4EE JUMPI PUSH1 0x40 MLOAD PUSH4 0x32505749 PUSH1 0xE1 SHL DUP2 MSTORE PUSH0 PUSH1 0x4 DUP3 ADD MSTORE PUSH1 0x24 ADD JUMPDEST PUSH1 0x40 MLOAD DUP1 SWAP2 SUB SWAP1 REVERT JUMPDEST PUSH0 PUSH2 0x4FA DUP4 DUP4 CALLER PUSH2 0xA69 JUMP JUMPDEST SWAP1 POP DUP4 PUSH1 0x1 PUSH1 0x1 PUSH1 0xA0 SHL SUB AND DUP2 PUSH1 0x1 PUSH1 0x1 PUSH1 0xA0 SHL SUB AND EQ PUSH2 0x548 JUMPI PUSH1 0x40 MLOAD PUSH4 0x64283D7B PUSH1 0xE0 SHL DUP2 MSTORE PUSH1 0x1 PUSH1 0x1 PUSH1 0xA0 SHL SUB DUP1 DUP7 AND PUSH1 0x4 DUP4 ADD MSTORE PUSH1 0x24 DUP3 ADD DUP5 SWAP1 MSTORE DUP3 AND PUSH1 0x44 DUP3 ADD MSTORE PUSH1 0x64 ADD PUSH2 0x4E5 JUMP JUMPDEST POP POP POP POP JUMP JUMPDEST PUSH1 0xE DUP2 DUP2 SLOAD DUP2 LT PUSH2 0x55D JUMPI PUSH0 DUP1 REVERT JUMPDEST SWAP1 PUSH0 MSTORE PUSH1 0x20 PUSH0 KECCAK256 ADD PUSH0 SWAP2 POP SWAP1 POP DUP1 SLOAD PUSH2 0x575 SWAP1 PUSH2 0x189A JUMP JUMPDEST DUP1 PUSH1 0x1F ADD PUSH1 0x20 DUP1 SWAP2 DIV MUL PUSH1 0x20 ADD PUSH1 0x40 MLOAD SWAP1 DUP2 ADD PUSH1 0x40 MSTORE DUP1 SWAP3 SWAP2 SWAP1 DUP2 DUP2 MSTORE PUSH1 0x20 ADD DUP3 DUP1 SLOAD PUSH2 0x5A1 SWAP1 PUSH2 0x189A JUMP JUMPDEST DUP1 ISZERO PUSH2 0x5EC JUMPI DUP1 PUSH1 0x1F LT PUSH2 0x5C3 JUMPI PUSH2 0x100 DUP1 DUP4 SLOAD DIV MUL DUP4 MSTORE SWAP2 PUSH1 0x20 ADD SWAP2 PUSH2 0x5EC JUMP JUMPDEST DUP3 ADD SWAP2 SWAP1 PUSH0 MSTORE PUSH1 0x20 PUSH0 KECCAK256 SWAP1 JUMPDEST DUP2 SLOAD DUP2 MSTORE SWAP1 PUSH1 0x1 ADD SWAP1 PUSH1 0x20 ADD DUP1 DUP4 GT PUSH2 0x5CF JUMPI DUP3 SWAP1 SUB PUSH1 0x1F AND DUP3 ADD SWAP2 JUMPDEST POP POP POP POP POP DUP2 JUMP JUMPDEST PUSH1 0xB SLOAD PUSH1 0x40 MLOAD PUSH4 0x70A08231 PUSH1 0xE0 SHL DUP2 MSTORE ADDRESS PUSH1 0x4 DUP3 ADD MSTORE PUSH0 SWAP2 SWAP1 PUSH1 0x1 PUSH1 0x1 PUSH1 0xA0 SHL SUB PUSH32 0x0 AND SWAP1 PUSH4 0x70A08231 SWAP1 PUSH1 0x24 ADD PUSH1 0x20 PUSH1 0x40 MLOAD DUP1 DUP4 SUB DUP2 DUP7 GAS STATICCALL ISZERO DUP1 ISZERO PUSH2 0x65C JUMPI RETURNDATASIZE PUSH0 DUP1 RETURNDATACOPY RETURNDATASIZE PUSH0 REVERT JUMPDEST POP POP POP POP PUSH1 0x40 MLOAD RETURNDATASIZE PUSH1 0x1F NOT PUSH1 0x1F DUP3 ADD AND DUP3 ADD DUP1 PUSH1 0x40 MSTORE POP DUP2 ADD SWAP1 PUSH2 0x680 SWAP2 SWAP1 PUSH2 0x18D2 JUMP JUMPDEST LT ISZERO PUSH2 0x6C7 JUMPI PUSH1 0x40 MLOAD PUSH3 0x461BCD PUSH1 0xE5 SHL DUP2 MSTORE PUSH1 0x20 PUSH1 0x4 DUP3 ADD MSTORE PUSH1 0x16 PUSH1 0x24 DUP3 ADD MSTORE PUSH22 0x4E6F7420656E6F756768204C494E4B20746F6B656E73 PUSH1 0x50 SHL PUSH1 0x44 DUP3 ADD MSTORE PUSH1 0x64 ADD PUSH2 0x4E5 JUMP JUMPDEST PUSH2 0x6F5 PUSH32 0x1234567890ABCDEF1234567890ABCDEF1234567890ABCDEF1234567890ABCDEF PUSH0 SHL PUSH1 0x9 SLOAD PUSH2 0xB5B JUMP JUMPDEST SWAP1 POP SWAP1 JUMP JUMPDEST PUSH2 0x714 DUP4 DUP4 DUP4 PUSH1 0x40 MLOAD DUP1 PUSH1 0x20 ADD PUSH1 0x40 MSTORE DUP1 PUSH0 DUP2 MSTORE POP PUSH2 0x962 JUMP JUMPDEST POP POP POP JUMP JUMPDEST PUSH1 0xF PUSH1 0x20 MSTORE DUP2 PUSH0 MSTORE PUSH1 0x40 PUSH0 KECCAK256 DUP2 DUP2 SLOAD DUP2 LT PUSH2 0x732 JUMPI PUSH0 DUP1 REVERT JUMPDEST SWAP1 PUSH0 MSTORE PUSH1 0x20 PUSH0 KECCAK256 ADD PUSH0 SWAP2 POP SWAP2 POP POP DUP1 SLOAD PUSH2 0x575 SWAP1 PUSH2 0x189A JUMP JUMPDEST PUSH0 PUSH2 0x3F4 DUP3 PUSH2 0xA24 JUMP JUMPDEST PUSH0 PUSH1 0x1 PUSH1 0x1 PUSH1 0xA0 SHL SUB DUP3 AND PUSH2 0x77F JUMPI PUSH1 0x40 MLOAD PUSH4 0x22718AD9 PUSH1 0xE2 SHL DUP2 MSTORE PUSH0 PUSH1 0x4 DUP3 ADD MSTORE PUSH1 0x24 ADD PUSH2 0x4E5 JUMP JUMPDEST POP PUSH1 0x1 PUSH1 0x1 PUSH1 0xA0 SHL SUB AND PUSH0 SWAP1 DUP2 MSTORE PUSH1 0x4 PUSH1 0x20 MSTORE PUSH1 0x40 SWAP1 KECCAK256 SLOAD SWAP1 JUMP JUMPDEST PUSH1 0xD PUSH2 0x4BC DUP3 DUP3 PUSH2 0x192D JUMP JUMPDEST CALLER PUSH1 0x1 PUSH1 0x1 PUSH1 0xA0 SHL SUB PUSH32 0x0 AND EQ PUSH2 0x81E JUMPI PUSH1 0x40 MLOAD PUSH3 0x461BCD PUSH1 0xE5 SHL DUP2 MSTORE PUSH1 0x20 PUSH1 0x4 DUP3 ADD MSTORE PUSH1 0x1F PUSH1 0x24 DUP3 ADD MSTORE PUSH32 0x4F6E6C7920565246436F6F7264696E61746F722063616E2066756C66696C6C00 PUSH1 0x44 DUP3 ADD MSTORE PUSH1 0x64 ADD PUSH2 0x4E5 JUMP JUMPDEST PUSH2 0x4BC DUP3 DUP3 PUSH2 0xCCF JUMP JUMPDEST PUSH1 0x60 PUSH1 0x2 DUP1 SLOAD PUSH2 0x409 SWAP1 PUSH2 0x189A JUMP JUMPDEST PUSH1 0xE DUP1 SLOAD PUSH1 0x1 DUP2 ADD DUP3 SSTORE PUSH0 SWAP2 SWAP1 SWAP2 MSTORE PUSH32 0xBB7B4A454DC3493923482F07822329ED19E8244EFF582CC204F8554C3620C3FD ADD PUSH2 0x4BC DUP3 DUP3 PUSH2 0x192D JUMP JUMPDEST PUSH2 0x4BC CALLER DUP4 DUP4 PUSH2 0xF2B JUMP JUMPDEST PUSH1 0x60 PUSH1 0xF PUSH0 DUP4 DUP2 MSTORE PUSH1 0x20 ADD SWAP1 DUP2 MSTORE PUSH1 0x20 ADD PUSH0 KECCAK256 DUP1 SLOAD DUP1 PUSH1 0x20 MUL PUSH1 0x20 ADD PUSH1 0x40 MLOAD SWAP1 DUP2 ADD PUSH1 0x40 MSTORE DUP1 SWAP3 SWAP2 SWAP1 DUP2 DUP2 MSTORE PUSH1 0x20 ADD PUSH0 SWAP1 JUMPDEST DUP3 DUP3 LT ISZERO PUSH2 0x957 JUMPI DUP4 DUP3 SWAP1 PUSH0 MSTORE PUSH1 0x20 PUSH0 KECCAK256 ADD DUP1 SLOAD PUSH2 0x8CC SWAP1 PUSH2 0x189A JUMP JUMPDEST DUP1 PUSH1 0x1F ADD PUSH1 0x20 DUP1 SWAP2 DIV MUL PUSH1 0x20 ADD PUSH1 0x40 MLOAD SWAP1 DUP2 ADD PUSH1 0x40 MSTORE DUP1 SWAP3 SWAP2 SWAP1 DUP2 DUP2 MSTORE PUSH1 0x20 ADD DUP3 DUP1 SLOAD PUSH2 0x8F8 SWAP1 PUSH2 0x189A JUMP JUMPDEST DUP1 ISZERO PUSH2 0x943 JUMPI DUP1 PUSH1 0x1F LT PUSH2 0x91A JUMPI PUSH2 0x100 DUP1 DUP4 SLOAD DIV MUL DUP4 MSTORE SWAP2 PUSH1 0x20 ADD SWAP2 PUSH2 0x943 JUMP JUMPDEST DUP3 ADD SWAP2 SWAP1 PUSH0 MSTORE PUSH1 0x20 PUSH0 KECCAK256 SWAP1 JUMPDEST DUP2 SLOAD DUP2 MSTORE SWAP1 PUSH1 0x1 ADD SWAP1 PUSH1 0x20 ADD DUP1 DUP4 GT PUSH2 0x926 JUMPI DUP3 SWAP1 SUB PUSH1 0x1F AND DUP3 ADD SWAP2 JUMPDEST POP POP POP POP POP DUP2 MSTORE PUSH1 0x20 ADD SWAP1 PUSH1 0x1 ADD SWAP1 PUSH2 0x8AF JUMP JUMPDEST POP POP POP POP SWAP1 POP SWAP2 SWAP1 POP JUMP JUMPDEST PUSH2 0x96D DUP5 DUP5 DUP5 PUSH2 0x4C0 JUMP JUMPDEST PUSH2 0x548 DUP5 DUP5 DUP5 DUP5 PUSH2 0xFC9 JUMP JUMPDEST PUSH1 0x60 PUSH2 0x984 DUP3 PUSH2 0xA24 JUMP JUMPDEST POP PUSH0 PUSH2 0x99A PUSH1 0x40 DUP1 MLOAD PUSH1 0x20 DUP2 ADD SWAP1 SWAP2 MSTORE PUSH0 DUP2 MSTORE SWAP1 JUMP JUMPDEST SWAP1 POP PUSH0 DUP2 MLOAD GT PUSH2 0x9B8 JUMPI PUSH1 0x40 MLOAD DUP1 PUSH1 0x20 ADD PUSH1 0x40 MSTORE DUP1 PUSH0 DUP2 MSTORE POP PUSH2 0x9E3 JUMP JUMPDEST DUP1 PUSH2 0x9C2 DUP5 PUSH2 0x10EF JUMP JUMPDEST PUSH1 0x40 MLOAD PUSH1 0x20 ADD PUSH2 0x9D3 SWAP3 SWAP2 SWAP1 PUSH2 0x1A04 JUMP JUMPDEST PUSH1 0x40 MLOAD PUSH1 0x20 DUP2 DUP4 SUB SUB DUP2 MSTORE SWAP1 PUSH1 0x40 MSTORE JUMPDEST SWAP4 SWAP3 POP POP POP JUMP JUMPDEST PUSH1 0xD DUP1 SLOAD PUSH2 0x575 SWAP1 PUSH2 0x189A JUMP JUMPDEST PUSH1 0x1 PUSH1 0x1 PUSH1 0xA0 SHL SUB SWAP2 DUP3 AND PUSH0 SWAP1 DUP2 MSTORE PUSH1 0x6 PUSH1 0x20 SWAP1 DUP2 MSTORE PUSH1 0x40 DUP1 DUP4 KECCAK256 SWAP4 SWAP1 SWAP5 AND DUP3 MSTORE SWAP2 SWAP1 SWAP2 MSTORE KECCAK256 SLOAD PUSH1 0xFF AND SWAP1 JUMP JUMPDEST PUSH0 DUP2 DUP2 MSTORE PUSH1 0x3 PUSH1 0x20 MSTORE PUSH1 0x40 DUP2 KECCAK256 SLOAD PUSH1 0x1 PUSH1 0x1 PUSH1 0xA0 SHL SUB AND DUP1 PUSH2 0x3F4 JUMPI PUSH1 0x40 MLOAD PUSH4 0x7E273289 PUSH1 0xE0 SHL DUP2 MSTORE PUSH1 0x4 DUP2 ADD DUP5 SWAP1 MSTORE PUSH1 0x24 ADD PUSH2 0x4E5 JUMP JUMPDEST PUSH2 0x714 DUP4 DUP4 DUP4 PUSH1 0x1 PUSH2 0x117F JUMP JUMPDEST PUSH0 DUP3 DUP2 MSTORE PUSH1 0x3 PUSH1 0x20 MSTORE PUSH1 0x40 DUP2 KECCAK256 SLOAD PUSH1 0x1 PUSH1 0x1 PUSH1 0xA0 SHL SUB SWAP1 DUP2 AND SWAP1 DUP4 AND ISZERO PUSH2 0xA95 JUMPI PUSH2 0xA95 DUP2 DUP5 DUP7 PUSH2 0x1283 JUMP JUMPDEST PUSH1 0x1 PUSH1 0x1 PUSH1 0xA0 SHL SUB DUP2 AND ISZERO PUSH2 0xACF JUMPI PUSH2 0xAB0 PUSH0 DUP6 PUSH0 DUP1 PUSH2 0x117F JUMP JUMPDEST PUSH1 0x1 PUSH1 0x1 PUSH1 0xA0 SHL SUB DUP2 AND PUSH0 SWAP1 DUP2 MSTORE PUSH1 0x4 PUSH1 0x20 MSTORE PUSH1 0x40 SWAP1 KECCAK256 DUP1 SLOAD PUSH0 NOT ADD SWAP1 SSTORE JUMPDEST PUSH1 0x1 PUSH1 0x1 PUSH1 0xA0 SHL SUB DUP6 AND ISZERO PUSH2 0xAFD JUMPI PUSH1 0x1 PUSH1 0x1 PUSH1 0xA0 SHL SUB DUP6 AND PUSH0 SWAP1 DUP2 MSTORE PUSH1 0x4 PUSH1 0x20 MSTORE PUSH1 0x40 SWAP1 KECCAK256 DUP1 SLOAD PUSH1 0x1 ADD SWAP1 SSTORE JUMPDEST PUSH0 DUP5 DUP2 MSTORE PUSH1 0x3 PUSH1 0x20 MSTORE PUSH1 0x40 DUP1 DUP3 KECCAK256 DUP1 SLOAD PUSH1 0x1 PUSH1 0x1 PUSH1 0xA0 SHL SUB NOT AND PUSH1 0x1 PUSH1 0x1 PUSH1 0xA0 SHL SUB DUP10 DUP2 AND SWAP2 DUP3 OR SWAP1 SWAP3 SSTORE SWAP2 MLOAD DUP8 SWAP4 SWAP2 DUP6 AND SWAP2 PUSH32 0xDDF252AD1BE2C89B69C2B068FC378DAA952BA7F163C4A11628F55A4DF523B3EF SWAP2 LOG4 SWAP5 SWAP4 POP POP POP POP JUMP JUMPDEST PUSH0 PUSH32 0x0 PUSH1 0x1 PUSH1 0x1 PUSH1 0xA0 SHL SUB AND PUSH4 0x4000AEA0 PUSH32 0x0 DUP5 DUP7 PUSH0 PUSH1 0x40 MLOAD PUSH1 0x20 ADD PUSH2 0xBC9 SWAP3 SWAP2 SWAP1 SWAP2 DUP3 MSTORE PUSH1 0x20 DUP3 ADD MSTORE PUSH1 0x40 ADD SWAP1 JUMP JUMPDEST PUSH1 0x40 MLOAD PUSH1 0x20 DUP2 DUP4 SUB SUB DUP2 MSTORE SWAP1 PUSH1 0x40 MSTORE PUSH1 0x40 MLOAD DUP5 PUSH4 0xFFFFFFFF AND PUSH1 0xE0 SHL DUP2 MSTORE PUSH1 0x4 ADD PUSH2 0xBF6 SWAP4 SWAP3 SWAP2 SWAP1 PUSH2 0x1A18 JUMP JUMPDEST PUSH1 0x20 PUSH1 0x40 MLOAD DUP1 DUP4 SUB DUP2 PUSH0 DUP8 GAS CALL ISZERO DUP1 ISZERO PUSH2 0xC12 JUMPI RETURNDATASIZE PUSH0 DUP1 RETURNDATACOPY RETURNDATASIZE PUSH0 REVERT JUMPDEST POP POP POP POP PUSH1 0x40 MLOAD RETURNDATASIZE PUSH1 0x1F NOT PUSH1 0x1F DUP3 ADD AND DUP3 ADD DUP1 PUSH1 0x40 MSTORE POP DUP2 ADD SWAP1 PUSH2 0xC36 SWAP2 SWAP1 PUSH2 0x1A47 JUMP JUMPDEST POP PUSH0 DUP4 DUP2 MSTORE PUSH1 0x20 DUP2 DUP2 MSTORE PUSH1 0x40 DUP1 DUP4 KECCAK256 SLOAD DUP2 MLOAD DUP1 DUP5 ADD DUP9 SWAP1 MSTORE DUP1 DUP4 ADD DUP6 SWAP1 MSTORE ADDRESS PUSH1 0x60 DUP3 ADD MSTORE PUSH1 0x80 DUP1 DUP3 ADD DUP4 SWAP1 MSTORE DUP4 MLOAD DUP1 DUP4 SUB SWAP1 SWAP2 ADD DUP2 MSTORE PUSH1 0xA0 SWAP1 SWAP2 ADD SWAP1 SWAP3 MSTORE DUP2 MLOAD SWAP2 DUP4 ADD SWAP2 SWAP1 SWAP2 KECCAK256 DUP7 DUP5 MSTORE SWAP3 SWAP1 SWAP2 MSTORE PUSH2 0xC8F SWAP1 PUSH1 0x1 PUSH2 0x1A76 JUMP JUMPDEST PUSH0 DUP6 DUP2 MSTORE PUSH1 0x20 DUP2 DUP2 MSTORE PUSH1 0x40 SWAP2 DUP3 SWAP1 KECCAK256 SWAP3 SWAP1 SWAP3 SSTORE DUP1 MLOAD DUP1 DUP4 ADD DUP8 SWAP1 MSTORE DUP1 DUP3 ADD DUP5 SWAP1 MSTORE DUP2 MLOAD DUP1 DUP3 SUB DUP4 ADD DUP2 MSTORE PUSH1 0x60 SWAP1 SWAP2 ADD SWAP1 SWAP2 MSTORE DUP1 MLOAD SWAP2 ADD KECCAK256 JUMPDEST SWAP5 SWAP4 POP POP POP POP JUMP JUMPDEST PUSH0 PUSH1 0xC SLOAD PUSH1 0x1 PUSH2 0xCDF SWAP2 SWAP1 PUSH2 0x1A76 JUMP JUMPDEST PUSH1 0xE SLOAD SWAP1 SWAP2 POP PUSH0 SWAP1 PUSH8 0xFFFFFFFFFFFFFFFF DUP2 GT ISZERO PUSH2 0xCFF JUMPI PUSH2 0xCFF PUSH2 0x167A JUMP JUMPDEST PUSH1 0x40 MLOAD SWAP1 DUP1 DUP3 MSTORE DUP1 PUSH1 0x20 MUL PUSH1 0x20 ADD DUP3 ADD PUSH1 0x40 MSTORE DUP1 ISZERO PUSH2 0xD32 JUMPI DUP2 PUSH1 0x20 ADD JUMPDEST PUSH1 0x60 DUP2 MSTORE PUSH1 0x20 ADD SWAP1 PUSH1 0x1 SWAP1 SUB SWAP1 DUP2 PUSH2 0xD1D JUMPI SWAP1 POP JUMPDEST POP PUSH1 0x40 DUP1 MLOAD PUSH1 0x1 DUP1 DUP3 MSTORE DUP2 DUP4 ADD SWAP1 SWAP3 MSTORE SWAP2 SWAP3 POP PUSH0 SWAP2 SWAP1 PUSH1 0x20 DUP1 DUP4 ADD SWAP1 DUP1 CALLDATASIZE DUP4 CALLDATACOPY ADD SWAP1 POP POP SWAP1 POP DUP4 PUSH0 SHL DUP2 PUSH0 DUP2 MLOAD DUP2 LT PUSH2 0xD6D JUMPI PUSH2 0xD6D PUSH2 0x1A89 JUMP JUMPDEST PUSH1 0x20 MUL PUSH1 0x20 ADD ADD DUP2 DUP2 MSTORE POP POP PUSH0 JUMPDEST PUSH1 0xE SLOAD DUP2 LT ISZERO PUSH2 0xEAD JUMPI PUSH0 PUSH1 0xE DUP1 SLOAD SWAP1 POP DUP4 PUSH0 DUP2 MLOAD DUP2 LT PUSH2 0xD9E JUMPI PUSH2 0xD9E PUSH2 0x1A89 JUMP JUMPDEST PUSH1 0x20 MUL PUSH1 0x20 ADD ADD MLOAD DUP4 PUSH1 0x40 MLOAD PUSH1 0x20 ADD PUSH2 0xDC1 SWAP3 SWAP2 SWAP1 SWAP2 DUP3 MSTORE PUSH1 0x20 DUP3 ADD MSTORE PUSH1 0x40 ADD SWAP1 JUMP JUMPDEST PUSH1 0x40 MLOAD PUSH1 0x20 DUP2 DUP4 SUB SUB DUP2 MSTORE SWAP1 PUSH1 0x40 MSTORE DUP1 MLOAD SWAP1 PUSH1 0x20 ADD KECCAK256 PUSH0 SHR PUSH2 0xDE3 SWAP2 SWAP1 PUSH2 0x1A9D JUMP JUMPDEST SWAP1 POP PUSH1 0xE DUP2 DUP2 SLOAD DUP2 LT PUSH2 0xDF8 JUMPI PUSH2 0xDF8 PUSH2 0x1A89 JUMP JUMPDEST SWAP1 PUSH0 MSTORE PUSH1 0x20 PUSH0 KECCAK256 ADD DUP1 SLOAD PUSH2 0xE0B SWAP1 PUSH2 0x189A JUMP JUMPDEST DUP1 PUSH1 0x1F ADD PUSH1 0x20 DUP1 SWAP2 DIV MUL PUSH1 0x20 ADD PUSH1 0x40 MLOAD SWAP1 DUP2 ADD PUSH1 0x40 MSTORE DUP1 SWAP3 SWAP2 SWAP1 DUP2 DUP2 MSTORE PUSH1 0x20 ADD DUP3 DUP1 SLOAD PUSH2 0xE37 SWAP1 PUSH2 0x189A JUMP JUMPDEST DUP1 ISZERO PUSH2 0xE82 JUMPI DUP1 PUSH1 0x1F LT PUSH2 0xE59 JUMPI PUSH2 0x100 DUP1 DUP4 SLOAD DIV MUL DUP4 MSTORE SWAP2 PUSH1 0x20 ADD SWAP2 PUSH2 0xE82 JUMP JUMPDEST DUP3 ADD SWAP2 SWAP1 PUSH0 MSTORE PUSH1 0x20 PUSH0 KECCAK256 SWAP1 JUMPDEST DUP2 SLOAD DUP2 MSTORE SWAP1 PUSH1 0x1 ADD SWAP1 PUSH1 0x20 ADD DUP1 DUP4 GT PUSH2 0xE65 JUMPI DUP3 SWAP1 SUB PUSH1 0x1F AND DUP3 ADD SWAP2 JUMPDEST POP POP POP POP POP DUP5 DUP4 DUP2 MLOAD DUP2 LT PUSH2 0xE99 JUMPI PUSH2 0xE99 PUSH2 0x1A89 JUMP JUMPDEST PUSH1 0x20 SWAP1 DUP2 MUL SWAP2 SWAP1 SWAP2 ADD ADD MSTORE POP PUSH1 0x1 ADD PUSH2 0xD7B JUMP JUMPDEST POP PUSH0 DUP4 DUP2 MSTORE PUSH1 0xF PUSH1 0x20 SWAP1 DUP2 MSTORE PUSH1 0x40 SWAP1 SWAP2 KECCAK256 DUP4 MLOAD PUSH2 0xECC SWAP3 DUP6 ADD SWAP1 PUSH2 0x1480 JUMP JUMPDEST POP PUSH2 0xED7 CALLER DUP5 PUSH2 0x12E7 JUMP JUMPDEST PUSH1 0xC DUP1 SLOAD SWAP1 PUSH0 PUSH2 0xEE6 DUP4 PUSH2 0x1ABC JUMP JUMPDEST SWAP2 SWAP1 POP SSTORE POP PUSH32 0x65F952DD632608F6D1DB9E9311E0972E973F6E783BA47C13460083C575BF07F3 DUP4 DUP4 PUSH1 0x40 MLOAD PUSH2 0xF1C SWAP3 SWAP2 SWAP1 PUSH2 0x1AD4 JUMP JUMPDEST PUSH1 0x40 MLOAD DUP1 SWAP2 SUB SWAP1 LOG1 POP POP POP POP POP JUMP JUMPDEST PUSH1 0x1 PUSH1 0x1 PUSH1 0xA0 SHL SUB DUP3 AND PUSH2 0xF5D JUMPI PUSH1 0x40 MLOAD PUSH4 0xB611743 PUSH1 0xE3 SHL DUP2 MSTORE PUSH1 0x1 PUSH1 0x1 PUSH1 0xA0 SHL SUB DUP4 AND PUSH1 0x4 DUP3 ADD MSTORE PUSH1 0x24 ADD PUSH2 0x4E5 JUMP JUMPDEST PUSH1 0x1 PUSH1 0x1 PUSH1 0xA0 SHL SUB DUP4 DUP2 AND PUSH0 DUP2 DUP2 MSTORE PUSH1 0x6 PUSH1 0x20 SWAP1 DUP2 MSTORE PUSH1 0x40 DUP1 DUP4 KECCAK256 SWAP5 DUP8 AND DUP1 DUP5 MSTORE SWAP5 DUP3 MSTORE SWAP2 DUP3 SWAP1 KECCAK256 DUP1 SLOAD PUSH1 0xFF NOT AND DUP7 ISZERO ISZERO SWAP1 DUP2 OR SWAP1 SWAP2 SSTORE SWAP2 MLOAD SWAP2 DUP3 MSTORE PUSH32 0x17307EAB39AB6107E8899845AD3D59BD9653F200F220920489CA2B5937696C31 SWAP2 ADD PUSH1 0x40 MLOAD DUP1 SWAP2 SUB SWAP1 LOG3 POP POP POP JUMP JUMPDEST PUSH1 0x1 PUSH1 0x1 PUSH1 0xA0 SHL SUB DUP4 AND EXTCODESIZE ISZERO PUSH2 0x548 JUMPI PUSH1 0x40 MLOAD PUSH4 0xA85BD01 PUSH1 0xE1 SHL DUP2 MSTORE PUSH1 0x1 PUSH1 0x1 PUSH1 0xA0 SHL SUB DUP5 AND SWAP1 PUSH4 0x150B7A02 SWAP1 PUSH2 0x100B SWAP1 CALLER SWAP1 DUP9 SWAP1 DUP8 SWAP1 DUP8 SWAP1 PUSH1 0x4 ADD PUSH2 0x1AEC JUMP JUMPDEST PUSH1 0x20 PUSH1 0x40 MLOAD DUP1 DUP4 SUB DUP2 PUSH0 DUP8 GAS CALL SWAP3 POP POP POP DUP1 ISZERO PUSH2 0x1045 JUMPI POP PUSH1 0x40 DUP1 MLOAD PUSH1 0x1F RETURNDATASIZE SWAP1 DUP2 ADD PUSH1 0x1F NOT AND DUP3 ADD SWAP1 SWAP3 MSTORE PUSH2 0x1042 SWAP2 DUP2 ADD SWAP1 PUSH2 0x1B28 JUMP JUMPDEST PUSH1 0x1 JUMPDEST PUSH2 0x10AC JUMPI RETURNDATASIZE DUP1 DUP1 ISZERO PUSH2 0x1072 JUMPI PUSH1 0x40 MLOAD SWAP2 POP PUSH1 0x1F NOT PUSH1 0x3F RETURNDATASIZE ADD AND DUP3 ADD PUSH1 0x40 MSTORE RETURNDATASIZE DUP3 MSTORE RETURNDATASIZE PUSH0 PUSH1 0x20 DUP5 ADD RETURNDATACOPY PUSH2 0x1077 JUMP JUMPDEST PUSH1 0x60 SWAP2 POP JUMPDEST POP DUP1 MLOAD PUSH0 SUB PUSH2 0x10A4 JUMPI PUSH1 0x40 MLOAD PUSH4 0x32505749 PUSH1 0xE1 SHL DUP2 MSTORE PUSH1 0x1 PUSH1 0x1 PUSH1 0xA0 SHL SUB DUP6 AND PUSH1 0x4 DUP3 ADD MSTORE PUSH1 0x24 ADD PUSH2 0x4E5 JUMP JUMPDEST DUP1 MLOAD DUP2 PUSH1 0x20 ADD REVERT JUMPDEST PUSH1 0x1 PUSH1 0x1 PUSH1 0xE0 SHL SUB NOT DUP2 AND PUSH4 0xA85BD01 PUSH1 0xE1 SHL EQ PUSH2 0x10E8 JUMPI PUSH1 0x40 MLOAD PUSH4 0x32505749 PUSH1 0xE1 SHL DUP2 MSTORE PUSH1 0x1 PUSH1 0x1 PUSH1 0xA0 SHL SUB DUP6 AND PUSH1 0x4 DUP3 ADD MSTORE PUSH1 0x24 ADD PUSH2 0x4E5 JUMP JUMPDEST POP POP POP POP POP JUMP JUMPDEST PUSH1 0x60 PUSH0 PUSH2 0x10FB DUP4 PUSH2 0x1348 JUMP JUMPDEST PUSH1 0x1 ADD SWAP1 POP PUSH0 DUP2 PUSH8 0xFFFFFFFFFFFFFFFF DUP2 GT ISZERO PUSH2 0x111A JUMPI PUSH2 0x111A PUSH2 0x167A JUMP JUMPDEST PUSH1 0x40 MLOAD SWAP1 DUP1 DUP3 MSTORE DUP1 PUSH1 0x1F ADD PUSH1 0x1F NOT AND PUSH1 0x20 ADD DUP3 ADD PUSH1 0x40 MSTORE DUP1 ISZERO PUSH2 0x1144 JUMPI PUSH1 0x20 DUP3 ADD DUP2 DUP1 CALLDATASIZE DUP4 CALLDATACOPY ADD SWAP1 POP JUMPDEST POP SWAP1 POP DUP2 DUP2 ADD PUSH1 0x20 ADD JUMPDEST PUSH0 NOT ADD PUSH16 0x181899199A1A9B1B9C1CB0B131B232B3 PUSH1 0x81 SHL PUSH1 0xA DUP7 MOD BYTE DUP2 MSTORE8 PUSH1 0xA DUP6 DIV SWAP5 POP DUP5 PUSH2 0x114E JUMPI POP SWAP4 SWAP3 POP POP POP JUMP JUMPDEST DUP1 DUP1 PUSH2 0x1193 JUMPI POP PUSH1 0x1 PUSH1 0x1 PUSH1 0xA0 SHL SUB DUP3 AND ISZERO ISZERO JUMPDEST ISZERO PUSH2 0x1254 JUMPI PUSH0 PUSH2 0x11A2 DUP5 PUSH2 0xA24 JUMP JUMPDEST SWAP1 POP PUSH1 0x1 PUSH1 0x1 PUSH1 0xA0 SHL SUB DUP4 AND ISZERO DUP1 ISZERO SWAP1 PUSH2 0x11CE JUMPI POP DUP3 PUSH1 0x1 PUSH1 0x1 PUSH1 0xA0 SHL SUB AND DUP2 PUSH1 0x1 PUSH1 0x1 PUSH1 0xA0 SHL SUB AND EQ ISZERO JUMPDEST DUP1 ISZERO PUSH2 0x11E1 JUMPI POP PUSH2 0x11DF DUP2 DUP5 PUSH2 0x9F7 JUMP JUMPDEST ISZERO JUMPDEST ISZERO PUSH2 0x120A JUMPI PUSH1 0x40 MLOAD PUSH4 0xA9FBF51F PUSH1 0xE0 SHL DUP2 MSTORE PUSH1 0x1 PUSH1 0x1 PUSH1 0xA0 SHL SUB DUP5 AND PUSH1 0x4 DUP3 ADD MSTORE PUSH1 0x24 ADD PUSH2 0x4E5 JUMP JUMPDEST DUP2 ISZERO PUSH2 0x1252 JUMPI DUP4 DUP6 PUSH1 0x1 PUSH1 0x1 PUSH1 0xA0 SHL SUB AND DUP3 PUSH1 0x1 PUSH1 0x1 PUSH1 0xA0 SHL SUB AND PUSH32 0x8C5BE1E5EBEC7D5BD14F71427D1E84F3DD0314C0F7B2291E5B200AC8C7C3B925 PUSH1 0x40 MLOAD PUSH1 0x40 MLOAD DUP1 SWAP2 SUB SWAP1 LOG4 JUMPDEST POP JUMPDEST POP POP PUSH0 SWAP1 DUP2 MSTORE PUSH1 0x5 PUSH1 0x20 MSTORE PUSH1 0x40 SWAP1 KECCAK256 DUP1 SLOAD PUSH1 0x1 PUSH1 0x1 PUSH1 0xA0 SHL SUB NOT AND PUSH1 0x1 PUSH1 0x1 PUSH1 0xA0 SHL SUB SWAP3 SWAP1 SWAP3 AND SWAP2 SWAP1 SWAP2 OR SWAP1 SSTORE JUMP JUMPDEST PUSH2 0x128E DUP4 DUP4 DUP4 PUSH2 0x141F JUMP JUMPDEST PUSH2 0x714 JUMPI PUSH1 0x1 PUSH1 0x1 PUSH1 0xA0 SHL SUB DUP4 AND PUSH2 0x12BC JUMPI PUSH1 0x40 MLOAD PUSH4 0x7E273289 PUSH1 0xE0 SHL DUP2 MSTORE PUSH1 0x4 DUP2 ADD DUP3 SWAP1 MSTORE PUSH1 0x24 ADD PUSH2 0x4E5 JUMP JUMPDEST PUSH1 0x40 MLOAD PUSH4 0x177E802F PUSH1 0xE0 SHL DUP2 MSTORE PUSH1 0x1 PUSH1 0x1 PUSH1 0xA0 SHL SUB DUP4 AND PUSH1 0x4 DUP3 ADD MSTORE PUSH1 0x24 DUP2 ADD DUP3 SWAP1 MSTORE PUSH1 0x44 ADD PUSH2 0x4E5 JUMP JUMPDEST PUSH1 0x1 PUSH1 0x1 PUSH1 0xA0 SHL SUB DUP3 AND PUSH2 0x1310 JUMPI PUSH1 0x40 MLOAD PUSH4 0x32505749 PUSH1 0xE1 SHL DUP2 MSTORE PUSH0 PUSH1 0x4 DUP3 ADD MSTORE PUSH1 0x24 ADD PUSH2 0x4E5 JUMP JUMPDEST PUSH0 PUSH2 0x131C DUP4 DUP4 PUSH0 PUSH2 0xA69 JUMP JUMPDEST SWAP1 POP PUSH1 0x1 PUSH1 0x1 PUSH1 0xA0 SHL SUB DUP2 AND ISZERO PUSH2 0x714 JUMPI PUSH1 0x40 MLOAD PUSH4 0x39E35637 PUSH1 0xE1 SHL DUP2 MSTORE PUSH0 PUSH1 0x4 DUP3 ADD MSTORE PUSH1 0x24 ADD PUSH2 0x4E5 JUMP JUMPDEST PUSH0 DUP1 PUSH19 0x184F03E93FF9F4DAA797ED6E38ED64BF6A1F01 PUSH1 0x40 SHL DUP4 LT PUSH2 0x1386 JUMPI PUSH19 0x184F03E93FF9F4DAA797ED6E38ED64BF6A1F01 PUSH1 0x40 SHL DUP4 DIV SWAP3 POP PUSH1 0x40 ADD JUMPDEST PUSH14 0x4EE2D6D415B85ACEF8100000000 DUP4 LT PUSH2 0x13B2 JUMPI PUSH14 0x4EE2D6D415B85ACEF8100000000 DUP4 DIV SWAP3 POP PUSH1 0x20 ADD JUMPDEST PUSH7 0x2386F26FC10000 DUP4 LT PUSH2 0x13D0 JUMPI PUSH7 0x2386F26FC10000 DUP4 DIV SWAP3 POP PUSH1 0x10 ADD JUMPDEST PUSH4 0x5F5E100 DUP4 LT PUSH2 0x13E8 JUMPI PUSH4 0x5F5E100 DUP4 DIV SWAP3 POP PUSH1 0x8 ADD JUMPDEST PUSH2 0x2710 DUP4 LT PUSH2 0x13FC JUMPI PUSH2 0x2710 DUP4 DIV SWAP3 POP PUSH1 0x4 ADD JUMPDEST PUSH1 0x64 DUP4 LT PUSH2 0x140E JUMPI PUSH1 0x64 DUP4 DIV SWAP3 POP PUSH1 0x2 ADD JUMPDEST PUSH1 0xA DUP4 LT PUSH2 0x3F4 JUMPI PUSH1 0x1 ADD SWAP3 SWAP2 POP POP JUMP JUMPDEST PUSH0 PUSH1 0x1 PUSH1 0x1 PUSH1 0xA0 SHL SUB DUP4 AND ISZERO DUP1 ISZERO SWAP1 PUSH2 0xCC7 JUMPI POP DUP3 PUSH1 0x1 PUSH1 0x1 PUSH1 0xA0 SHL SUB AND DUP5 PUSH1 0x1 PUSH1 0x1 PUSH1 0xA0 SHL SUB AND EQ DUP1 PUSH2 0x1458 JUMPI POP PUSH2 0x1458 DUP5 DUP5 PUSH2 0x9F7 JUMP JUMPDEST DUP1 PUSH2 0xCC7 JUMPI POP POP PUSH0 SWAP1 DUP2 MSTORE PUSH1 0x5 PUSH1 0x20 MSTORE PUSH1 0x40 SWAP1 KECCAK256 SLOAD PUSH1 0x1 PUSH1 0x1 PUSH1 0xA0 SHL SUB SWAP1 DUP2 AND SWAP2 AND EQ SWAP2 SWAP1 POP JUMP JUMPDEST DUP3 DUP1 SLOAD DUP3 DUP3 SSTORE SWAP1 PUSH0 MSTORE PUSH1 0x20 PUSH0 KECCAK256 SWAP1 DUP2 ADD SWAP3 DUP3 ISZERO PUSH2 0x14C4 JUMPI SWAP2 PUSH1 0x20 MUL DUP3 ADD JUMPDEST DUP3 DUP2 GT ISZERO PUSH2 0x14C4 JUMPI DUP3 MLOAD DUP3 SWAP1 PUSH2 0x14B4 SWAP1 DUP3 PUSH2 0x192D JUMP JUMPDEST POP SWAP2 PUSH1 0x20 ADD SWAP2 SWAP1 PUSH1 0x1 ADD SWAP1 PUSH2 0x149E JUMP JUMPDEST POP PUSH2 0x14D0 SWAP3 SWAP2 POP PUSH2 0x14D4 JUMP JUMPDEST POP SWAP1 JUMP JUMPDEST DUP1 DUP3 GT ISZERO PUSH2 0x14D0 JUMPI PUSH0 PUSH2 0x14E7 DUP3 DUP3 PUSH2 0x14F0 JUMP JUMPDEST POP PUSH1 0x1 ADD PUSH2 0x14D4 JUMP JUMPDEST POP DUP1 SLOAD PUSH2 0x14FC SWAP1 PUSH2 0x189A JUMP JUMPDEST PUSH0 DUP3 SSTORE DUP1 PUSH1 0x1F LT PUSH2 0x150B JUMPI POP POP JUMP JUMPDEST PUSH1 0x1F ADD PUSH1 0x20 SWAP1 DIV SWAP1 PUSH0 MSTORE PUSH1 0x20 PUSH0 KECCAK256 SWAP1 DUP2 ADD SWAP1 PUSH2 0x1527 SWAP2 SWAP1 PUSH2 0x152A JUMP JUMPDEST POP JUMP JUMPDEST JUMPDEST DUP1 DUP3 GT ISZERO PUSH2 0x14D0 JUMPI PUSH0 DUP2 SSTORE PUSH1 0x1 ADD PUSH2 0x152B JUMP JUMPDEST PUSH1 0x1 PUSH1 0x1 PUSH1 0xE0 SHL SUB NOT DUP2 AND DUP2 EQ PUSH2 0x1527 JUMPI PUSH0 DUP1 REVERT JUMPDEST PUSH0 PUSH1 0x20 DUP3 DUP5 SUB SLT ISZERO PUSH2 0x1563 JUMPI PUSH0 DUP1 REVERT JUMPDEST DUP2 CALLDATALOAD PUSH2 0x9E3 DUP2 PUSH2 0x153E JUMP JUMPDEST PUSH0 DUP2 MLOAD DUP1 DUP5 MSTORE DUP1 PUSH1 0x20 DUP5 ADD PUSH1 0x20 DUP7 ADD MCOPY PUSH0 PUSH1 0x20 DUP3 DUP7 ADD ADD MSTORE PUSH1 0x20 PUSH1 0x1F NOT PUSH1 0x1F DUP4 ADD AND DUP6 ADD ADD SWAP2 POP POP SWAP3 SWAP2 POP POP JUMP JUMPDEST PUSH1 0x20 DUP2 MSTORE PUSH0 PUSH2 0x9E3 PUSH1 0x20 DUP4 ADD DUP5 PUSH2 0x156E JUMP JUMPDEST PUSH0 PUSH1 0x20 DUP3 DUP5 SUB SLT ISZERO PUSH2 0x15BE JUMPI PUSH0 DUP1 REVERT JUMPDEST POP CALLDATALOAD SWAP2 SWAP1 POP JUMP JUMPDEST DUP1 CALLDATALOAD PUSH1 0x1 PUSH1 0x1 PUSH1 0xA0 SHL SUB DUP2 AND DUP2 EQ PUSH2 0x15DB JUMPI PUSH0 DUP1 REVERT JUMPDEST SWAP2 SWAP1 POP JUMP JUMPDEST PUSH0 DUP1 PUSH1 0x40 DUP4 DUP6 SUB SLT ISZERO PUSH2 0x15F1 JUMPI PUSH0 DUP1 REVERT JUMPDEST PUSH2 0x15FA DUP4 PUSH2 0x15C5 JUMP JUMPDEST SWAP5 PUSH1 0x20 SWAP4 SWAP1 SWAP4 ADD CALLDATALOAD SWAP4 POP POP POP JUMP JUMPDEST PUSH0 DUP1 PUSH0 PUSH1 0x60 DUP5 DUP7 SUB SLT ISZERO PUSH2 0x161A JUMPI PUSH0 DUP1 REVERT JUMPDEST PUSH2 0x1623 DUP5 PUSH2 0x15C5 JUMP JUMPDEST SWAP3 POP PUSH2 0x1631 PUSH1 0x20 DUP6 ADD PUSH2 0x15C5 JUMP JUMPDEST SWAP2 POP PUSH1 0x40 DUP5 ADD CALLDATALOAD SWAP1 POP SWAP3 POP SWAP3 POP SWAP3 JUMP JUMPDEST PUSH0 DUP1 PUSH1 0x40 DUP4 DUP6 SUB SLT ISZERO PUSH2 0x1652 JUMPI PUSH0 DUP1 REVERT JUMPDEST POP POP DUP1 CALLDATALOAD SWAP3 PUSH1 0x20 SWAP1 SWAP2 ADD CALLDATALOAD SWAP2 POP JUMP JUMPDEST PUSH0 PUSH1 0x20 DUP3 DUP5 SUB SLT ISZERO PUSH2 0x1671 JUMPI PUSH0 DUP1 REVERT JUMPDEST PUSH2 0x9E3 DUP3 PUSH2 0x15C5 JUMP JUMPDEST PUSH4 0x4E487B71 PUSH1 0xE0 SHL PUSH0 MSTORE PUSH1 0x41 PUSH1 0x4 MSTORE PUSH1 0x24 PUSH0 REVERT JUMPDEST PUSH0 PUSH8 0xFFFFFFFFFFFFFFFF DUP1 DUP5 GT ISZERO PUSH2 0x16A8 JUMPI PUSH2 0x16A8 PUSH2 0x167A JUMP JUMPDEST PUSH1 0x40 MLOAD PUSH1 0x1F DUP6 ADD PUSH1 0x1F NOT SWAP1 DUP2 AND PUSH1 0x3F ADD AND DUP2 ADD SWAP1 DUP3 DUP3 GT DUP2 DUP4 LT OR ISZERO PUSH2 0x16D0 JUMPI PUSH2 0x16D0 PUSH2 0x167A JUMP JUMPDEST DUP2 PUSH1 0x40 MSTORE DUP1 SWAP4 POP DUP6 DUP2 MSTORE DUP7 DUP7 DUP7 ADD GT ISZERO PUSH2 0x16E8 JUMPI PUSH0 DUP1 REVERT JUMPDEST DUP6 DUP6 PUSH1 0x20 DUP4 ADD CALLDATACOPY PUSH0 PUSH1 0x20 DUP8 DUP4 ADD ADD MSTORE POP POP POP SWAP4 SWAP3 POP POP POP JUMP JUMPDEST PUSH0 PUSH1 0x20 DUP3 DUP5 SUB SLT ISZERO PUSH2 0x1711 JUMPI PUSH0 DUP1 REVERT JUMPDEST DUP2 CALLDATALOAD PUSH8 0xFFFFFFFFFFFFFFFF DUP2 GT ISZERO PUSH2 0x1727 JUMPI PUSH0 DUP1 REVERT JUMPDEST DUP3 ADD PUSH1 0x1F DUP2 ADD DUP5 SGT PUSH2 0x1737 JUMPI PUSH0 DUP1 REVERT JUMPDEST PUSH2 0xCC7 DUP5 DUP3 CALLDATALOAD PUSH1 0x20 DUP5 ADD PUSH2 0x168E JUMP JUMPDEST DUP1 ISZERO ISZERO DUP2 EQ PUSH2 0x1527 JUMPI PUSH0 DUP1 REVERT JUMPDEST PUSH0 DUP1 PUSH1 0x40 DUP4 DUP6 SUB SLT ISZERO PUSH2 0x1764 JUMPI PUSH0 DUP1 REVERT JUMPDEST PUSH2 0x176D DUP4 PUSH2 0x15C5 JUMP JUMPDEST SWAP2 POP PUSH1 0x20 DUP4 ADD CALLDATALOAD PUSH2 0x177D DUP2 PUSH2 0x1746 JUMP JUMPDEST DUP1 SWAP2 POP POP SWAP3 POP SWAP3 SWAP1 POP JUMP JUMPDEST PUSH0 DUP3 DUP3 MLOAD DUP1 DUP6 MSTORE PUSH1 0x20 DUP1 DUP7 ADD SWAP6 POP PUSH1 0x20 DUP3 PUSH1 0x5 SHL DUP5 ADD ADD PUSH1 0x20 DUP7 ADD PUSH0 JUMPDEST DUP5 DUP2 LT ISZERO PUSH2 0x17D3 JUMPI PUSH1 0x1F NOT DUP7 DUP5 SUB ADD DUP10 MSTORE PUSH2 0x17C1 DUP4 DUP4 MLOAD PUSH2 0x156E JUMP JUMPDEST SWAP9 DUP5 ADD SWAP9 SWAP3 POP SWAP1 DUP4 ADD SWAP1 PUSH1 0x1 ADD PUSH2 0x17A5 JUMP JUMPDEST POP SWAP1 SWAP8 SWAP7 POP POP POP POP POP POP POP JUMP JUMPDEST PUSH1 0x20 DUP2 MSTORE PUSH0 PUSH2 0x9E3 PUSH1 0x20 DUP4 ADD DUP5 PUSH2 0x1788 JUMP JUMPDEST PUSH0 DUP1 PUSH0 DUP1 PUSH1 0x80 DUP6 DUP8 SUB SLT ISZERO PUSH2 0x1805 JUMPI PUSH0 DUP1 REVERT JUMPDEST PUSH2 0x180E DUP6 PUSH2 0x15C5 JUMP JUMPDEST SWAP4 POP PUSH2 0x181C PUSH1 0x20 DUP7 ADD PUSH2 0x15C5 JUMP JUMPDEST SWAP3 POP PUSH1 0x40 DUP6 ADD CALLDATALOAD SWAP2 POP PUSH1 0x60 DUP6 ADD CALLDATALOAD PUSH8 0xFFFFFFFFFFFFFFFF DUP2 GT ISZERO PUSH2 0x183E JUMPI PUSH0 DUP1 REVERT JUMPDEST DUP6 ADD PUSH1 0x1F DUP2 ADD DUP8 SGT PUSH2 0x184E JUMPI PUSH0 DUP1 REVERT JUMPDEST PUSH2 0x185D DUP8 DUP3 CALLDATALOAD PUSH1 0x20 DUP5 ADD PUSH2 0x168E JUMP JUMPDEST SWAP2 POP POP SWAP3 SWAP6 SWAP2 SWAP5 POP SWAP3 POP JUMP JUMPDEST PUSH0 DUP1 PUSH1 0x40 DUP4 DUP6 SUB SLT ISZERO PUSH2 0x187A JUMPI PUSH0 DUP1 REVERT JUMPDEST PUSH2 0x1883 DUP4 PUSH2 0x15C5 JUMP JUMPDEST SWAP2 POP PUSH2 0x1891 PUSH1 0x20 DUP5 ADD PUSH2 0x15C5 JUMP JUMPDEST SWAP1 POP SWAP3 POP SWAP3 SWAP1 POP JUMP JUMPDEST PUSH1 0x1 DUP2 DUP2 SHR SWAP1 DUP3 AND DUP1 PUSH2 0x18AE JUMPI PUSH1 0x7F DUP3 AND SWAP2 POP JUMPDEST PUSH1 0x20 DUP3 LT DUP2 SUB PUSH2 0x18CC JUMPI PUSH4 0x4E487B71 PUSH1 0xE0 SHL PUSH0 MSTORE PUSH1 0x22 PUSH1 0x4 MSTORE PUSH1 0x24 PUSH0 REVERT JUMPDEST POP SWAP2 SWAP1 POP JUMP JUMPDEST PUSH0 PUSH1 0x20 DUP3 DUP5 SUB SLT ISZERO PUSH2 0x18E2 JUMPI PUSH0 DUP1 REVERT JUMPDEST POP MLOAD SWAP2 SWAP1 POP JUMP JUMPDEST PUSH1 0x1F DUP3 GT ISZERO PUSH2 0x714 JUMPI DUP1 PUSH0 MSTORE PUSH1 0x20 PUSH0 KECCAK256 PUSH1 0x1F DUP5 ADD PUSH1 0x5 SHR DUP2 ADD PUSH1 0x20 DUP6 LT ISZERO PUSH2 0x190E JUMPI POP DUP1 JUMPDEST PUSH1 0x1F DUP5 ADD PUSH1 0x5 SHR DUP3 ADD SWAP2 POP JUMPDEST DUP2 DUP2 LT ISZERO PUSH2 0x10E8 JUMPI PUSH0 DUP2 SSTORE PUSH1 0x1 ADD PUSH2 0x191A JUMP JUMPDEST DUP2 MLOAD PUSH8 0xFFFFFFFFFFFFFFFF DUP2 GT ISZERO PUSH2 0x1947 JUMPI PUSH2 0x1947 PUSH2 0x167A JUMP JUMPDEST PUSH2 0x195B DUP2 PUSH2 0x1955 DUP5 SLOAD PUSH2 0x189A JUMP JUMPDEST DUP5 PUSH2 0x18E9 JUMP JUMPDEST PUSH1 0x20 DUP1 PUSH1 0x1F DUP4 GT PUSH1 0x1 DUP2 EQ PUSH2 0x198E JUMPI PUSH0 DUP5 ISZERO PUSH2 0x1977 JUMPI POP DUP6 DUP4 ADD MLOAD JUMPDEST PUSH0 NOT PUSH1 0x3 DUP7 SWAP1 SHL SHR NOT AND PUSH1 0x1 DUP6 SWAP1 SHL OR DUP6 SSTORE PUSH2 0x19E5 JUMP JUMPDEST PUSH0 DUP6 DUP2 MSTORE PUSH1 0x20 DUP2 KECCAK256 PUSH1 0x1F NOT DUP7 AND SWAP2 JUMPDEST DUP3 DUP2 LT ISZERO PUSH2 0x19BC JUMPI DUP9 DUP7 ADD MLOAD DUP3 SSTORE SWAP5 DUP5 ADD SWAP5 PUSH1 0x1 SWAP1 SWAP2 ADD SWAP1 DUP5 ADD PUSH2 0x199D JUMP JUMPDEST POP DUP6 DUP3 LT ISZERO PUSH2 0x19D9 JUMPI DUP8 DUP6 ADD MLOAD PUSH0 NOT PUSH1 0x3 DUP9 SWAP1 SHL PUSH1 0xF8 AND SHR NOT AND DUP2 SSTORE JUMPDEST POP POP PUSH1 0x1 DUP5 PUSH1 0x1 SHL ADD DUP6 SSTORE JUMPDEST POP POP POP POP POP POP JUMP JUMPDEST PUSH0 DUP2 MLOAD DUP1 PUSH1 0x20 DUP5 ADD DUP6 MCOPY PUSH0 SWAP4 ADD SWAP3 DUP4 MSTORE POP SWAP1 SWAP2 SWAP1 POP JUMP JUMPDEST PUSH0 PUSH2 0xCC7 PUSH2 0x1A12 DUP4 DUP7 PUSH2 0x19ED JUMP JUMPDEST DUP5 PUSH2 0x19ED JUMP JUMPDEST PUSH1 0x1 DUP1 PUSH1 0xA0 SHL SUB DUP5 AND DUP2 MSTORE DUP3 PUSH1 0x20 DUP3 ADD MSTORE PUSH1 0x60 PUSH1 0x40 DUP3 ADD MSTORE PUSH0 PUSH2 0x1A3E PUSH1 0x60 DUP4 ADD DUP5 PUSH2 0x156E JUMP JUMPDEST SWAP6 SWAP5 POP POP POP POP POP JUMP JUMPDEST PUSH0 PUSH1 0x20 DUP3 DUP5 SUB SLT ISZERO PUSH2 0x1A57 JUMPI PUSH0 DUP1 REVERT JUMPDEST DUP2 MLOAD PUSH2 0x9E3 DUP2 PUSH2 0x1746 JUMP JUMPDEST PUSH4 0x4E487B71 PUSH1 0xE0 SHL PUSH0 MSTORE PUSH1 0x11 PUSH1 0x4 MSTORE PUSH1 0x24 PUSH0 REVERT JUMPDEST DUP1 DUP3 ADD DUP1 DUP3 GT ISZERO PUSH2 0x3F4 JUMPI PUSH2 0x3F4 PUSH2 0x1A62 JUMP JUMPDEST PUSH4 0x4E487B71 PUSH1 0xE0 SHL PUSH0 MSTORE PUSH1 0x32 PUSH1 0x4 MSTORE PUSH1 0x24 PUSH0 REVERT JUMPDEST PUSH0 DUP3 PUSH2 0x1AB7 JUMPI PUSH4 0x4E487B71 PUSH1 0xE0 SHL PUSH0 MSTORE PUSH1 0x12 PUSH1 0x4 MSTORE PUSH1 0x24 PUSH0 REVERT JUMPDEST POP MOD SWAP1 JUMP JUMPDEST PUSH0 PUSH1 0x1 DUP3 ADD PUSH2 0x1ACD JUMPI PUSH2 0x1ACD PUSH2 0x1A62 JUMP JUMPDEST POP PUSH1 0x1 ADD SWAP1 JUMP JUMPDEST DUP3 DUP2 MSTORE PUSH1 0x40 PUSH1 0x20 DUP3 ADD MSTORE PUSH0 PUSH2 0xCC7 PUSH1 0x40 DUP4 ADD DUP5 PUSH2 0x1788 JUMP JUMPDEST PUSH1 0x1 PUSH1 0x1 PUSH1 0xA0 SHL SUB DUP6 DUP2 AND DUP3 MSTORE DUP5 AND PUSH1 0x20 DUP3 ADD MSTORE PUSH1 0x40 DUP2 ADD DUP4 SWAP1 MSTORE PUSH1 0x80 PUSH1 0x60 DUP3 ADD DUP2 SWAP1 MSTORE PUSH0 SWAP1 PUSH2 0x1B1E SWAP1 DUP4 ADD DUP5 PUSH2 0x156E JUMP JUMPDEST SWAP7 SWAP6 POP POP POP POP POP POP JUMP JUMPDEST PUSH0 PUSH1 0x20 DUP3 DUP5 SUB SLT ISZERO PUSH2 0x1B38 JUMPI PUSH0 DUP1 REVERT JUMPDEST DUP2 MLOAD PUSH2 0x9E3 DUP2 PUSH2 0x153E JUMP INVALID LOG2 PUSH5 0x6970667358 0x22 SLT KECCAK256 RETURN 0xB4 0xD5 PUSH17 0xF88033D3C446A12BFA7E5B0347B7E6630E 0xD 0xEA 0x27 0xBF 0xAF STOP DUP10 0xC PUSH11 0x4DB864736F6C6343000819 STOP CALLER "
				},
				"gasEstimates": {
					"creation": {
						"codeDepositCost": "1406600",
						"executionCost": "infinite",
						"totalCost": "infinite"
					},
					"external": {
						"addTrait(string)": "infinite",
						"approve(address,uint256)": "31531",
						"balanceOf(address)": "2696",
						"baseArtwork()": "infinite",
						"fee()": "2383",
						"gasLimit()": "2404",
						"getApproved(uint256)": "infinite",
						"getNFTTraits(uint256)": "infinite",
						"isApprovedForAll(address,address)": "infinite",
						"linkToken()": "2381",
						"name()": "infinite",
						"nftTraits(uint256,uint256)": "infinite",
						"ownerOf(uint256)": "infinite",
						"rawFulfillRandomness(bytes32,uint256)": "infinite",
						"requestFee()": "2382",
						"requestRandomTraits()": "infinite",
						"safeTransferFrom(address,address,uint256)": "infinite",
						"safeTransferFrom(address,address,uint256,bytes)": "infinite",
						"setApprovalForAll(address,bool)": "26752",
						"setBaseArtwork(string)": "infinite",
						"supportsInterface(bytes4)": "531",
						"symbol()": "infinite",
						"tokenURI(uint256)": "infinite",
						"totalNFTsMinted()": "2384",
						"traits(uint256)": "infinite",
						"transferFrom(address,address,uint256)": "infinite",
						"vrfCoordinator()": "2425"
					},
					"internal": {
						"fulfillRandomness(bytes32,uint256)": "infinite"
					}
				},
				"methodIdentifiers": {
					"addTrait(string)": "9cc8c69b",
					"approve(address,uint256)": "095ea7b3",
					"balanceOf(address)": "70a08231",
					"baseArtwork()": "e84b3ad0",
					"fee()": "ddca3f43",
					"gasLimit()": "f68016b7",
					"getApproved(uint256)": "081812fc",
					"getNFTTraits(uint256)": "a630fd97",
					"isApprovedForAll(address,address)": "e985e9c5",
					"linkToken()": "57970e93",
					"name()": "06fdde03",
					"nftTraits(uint256,uint256)": "5ed5b5af",
					"ownerOf(uint256)": "6352211e",
					"rawFulfillRandomness(bytes32,uint256)": "94985ddd",
					"requestFee()": "eb2e578b",
					"requestRandomTraits()": "3ff6bc4e",
					"safeTransferFrom(address,address,uint256)": "42842e0e",
					"safeTransferFrom(address,address,uint256,bytes)": "b88d4fde",
					"setApprovalForAll(address,bool)": "a22cb465",
					"setBaseArtwork(string)": "7ba19512",
					"supportsInterface(bytes4)": "01ffc9a7",
					"symbol()": "95d89b41",
					"tokenURI(uint256)": "c87b56dd",
					"totalNFTsMinted()": "4eb7e95f",
					"traits(uint256)": "2d72225b",
					"transferFrom(address,address,uint256)": "23b872dd",
					"vrfCoordinator()": "a3e56fa8"
				}
			},
			"storageLayout": {
				"storage": [
					{
						"astId": 79,
						"contract": "NFT Tokens/Tk8.sol:DynamicArtNFT",
						"label": "nonces",
						"offset": 0,
						"slot": "0",
						"type": "t_mapping(t_bytes32,t_uint256)"
					},
					{
						"astId": 435,
						"contract": "NFT Tokens/Tk8.sol:DynamicArtNFT",
						"label": "_name",
						"offset": 0,
						"slot": "1",
						"type": "t_string_storage"
					},
					{
						"astId": 437,
						"contract": "NFT Tokens/Tk8.sol:DynamicArtNFT",
						"label": "_symbol",
						"offset": 0,
						"slot": "2",
						"type": "t_string_storage"
					},
					{
						"astId": 441,
						"contract": "NFT Tokens/Tk8.sol:DynamicArtNFT",
						"label": "_owners",
						"offset": 0,
						"slot": "3",
						"type": "t_mapping(t_uint256,t_address)"
					},
					{
						"astId": 445,
						"contract": "NFT Tokens/Tk8.sol:DynamicArtNFT",
						"label": "_balances",
						"offset": 0,
						"slot": "4",
						"type": "t_mapping(t_address,t_uint256)"
					},
					{
						"astId": 449,
						"contract": "NFT Tokens/Tk8.sol:DynamicArtNFT",
						"label": "_tokenApprovals",
						"offset": 0,
						"slot": "5",
						"type": "t_mapping(t_uint256,t_address)"
					},
					{
						"astId": 455,
						"contract": "NFT Tokens/Tk8.sol:DynamicArtNFT",
						"label": "_operatorApprovals",
						"offset": 0,
						"slot": "6",
						"type": "t_mapping(t_address,t_mapping(t_address,t_bool))"
					},
					{
						"astId": 3064,
						"contract": "NFT Tokens/Tk8.sol:DynamicArtNFT",
						"label": "vrfCoordinator",
						"offset": 0,
						"slot": "7",
						"type": "t_address_payable"
					},
					{
						"astId": 3066,
						"contract": "NFT Tokens/Tk8.sol:DynamicArtNFT",
						"label": "linkToken",
						"offset": 0,
						"slot": "8",
						"type": "t_address"
					},
					{
						"astId": 3071,
						"contract": "NFT Tokens/Tk8.sol:DynamicArtNFT",
						"label": "fee",
						"offset": 0,
						"slot": "9",
						"type": "t_uint256"
					},
					{
						"astId": 3073,
						"contract": "NFT Tokens/Tk8.sol:DynamicArtNFT",
						"label": "gasLimit",
						"offset": 0,
						"slot": "10",
						"type": "t_uint256"
					},
					{
						"astId": 3075,
						"contract": "NFT Tokens/Tk8.sol:DynamicArtNFT",
						"label": "requestFee",
						"offset": 0,
						"slot": "11",
						"type": "t_uint256"
					},
					{
						"astId": 3077,
						"contract": "NFT Tokens/Tk8.sol:DynamicArtNFT",
						"label": "totalNFTsMinted",
						"offset": 0,
						"slot": "12",
						"type": "t_uint256"
					},
					{
						"astId": 3079,
						"contract": "NFT Tokens/Tk8.sol:DynamicArtNFT",
						"label": "baseArtwork",
						"offset": 0,
						"slot": "13",
						"type": "t_string_storage"
					},
					{
						"astId": 3082,
						"contract": "NFT Tokens/Tk8.sol:DynamicArtNFT",
						"label": "traits",
						"offset": 0,
						"slot": "14",
						"type": "t_array(t_string_storage)dyn_storage"
					},
					{
						"astId": 3087,
						"contract": "NFT Tokens/Tk8.sol:DynamicArtNFT",
						"label": "nftTraits",
						"offset": 0,
						"slot": "15",
						"type": "t_mapping(t_uint256,t_array(t_string_storage)dyn_storage)"
					}
				],
				"types": {
					"t_address": {
						"encoding": "inplace",
						"label": "address",
						"numberOfBytes": "20"
					},
					"t_address_payable": {
						"encoding": "inplace",
						"label": "address payable",
						"numberOfBytes": "20"
					},
					"t_array(t_string_storage)dyn_storage": {
						"base": "t_string_storage",
						"encoding": "dynamic_array",
						"label": "string[]",
						"numberOfBytes": "32"
					},
					"t_bool": {
						"encoding": "inplace",
						"label": "bool",
						"numberOfBytes": "1"
					},
					"t_bytes32": {
						"encoding": "inplace",
						"label": "bytes32",
						"numberOfBytes": "32"
					},
					"t_mapping(t_address,t_bool)": {
						"encoding": "mapping",
						"key": "t_address",
						"label": "mapping(address => bool)",
						"numberOfBytes": "32",
						"value": "t_bool"
					},
					"t_mapping(t_address,t_mapping(t_address,t_bool))": {
						"encoding": "mapping",
						"key": "t_address",
						"label": "mapping(address => mapping(address => bool))",
						"numberOfBytes": "32",
						"value": "t_mapping(t_address,t_bool)"
					},
					"t_mapping(t_address,t_uint256)": {
						"encoding": "mapping",
						"key": "t_address",
						"label": "mapping(address => uint256)",
						"numberOfBytes": "32",
						"value": "t_uint256"
					},
					"t_mapping(t_bytes32,t_uint256)": {
						"encoding": "mapping",
						"key": "t_bytes32",
						"label": "mapping(bytes32 => uint256)",
						"numberOfBytes": "32",
						"value": "t_uint256"
					},
					"t_mapping(t_uint256,t_address)": {
						"encoding": "mapping",
						"key": "t_uint256",
						"label": "mapping(uint256 => address)",
						"numberOfBytes": "32",
						"value": "t_address"
					},
					"t_mapping(t_uint256,t_array(t_string_storage)dyn_storage)": {
						"encoding": "mapping",
						"key": "t_uint256",
						"label": "mapping(uint256 => string[])",
						"numberOfBytes": "32",
						"value": "t_array(t_string_storage)dyn_storage"
					},
					"t_string_storage": {
						"encoding": "bytes",
						"label": "string",
						"numberOfBytes": "32"
					},
					"t_uint256": {
						"encoding": "inplace",
						"label": "uint256",
						"numberOfBytes": "32"
					}
				}
			},
			"userdoc": {
				"kind": "user",
				"methods": {},
				"version": 1
			}
		}
	}
}