{
	"NFT Tokens/Tk5.sol": {
		"DAGG": {
			"abi": [
				{
					"inputs": [
						{
							"internalType": "address",
							"name": "sender",
							"type": "address"
						},
						{
							"internalType": "uint256",
							"name": "tokenId",
							"type": "uint256"
						},
						{
							"internalType": "address",
							"name": "owner",
							"type": "address"
						}
					],
					"name": "ERC721IncorrectOwner",
					"type": "error"
				},
				{
					"inputs": [
						{
							"internalType": "address",
							"name": "operator",
							"type": "address"
						},
						{
							"internalType": "uint256",
							"name": "tokenId",
							"type": "uint256"
						}
					],
					"name": "ERC721InsufficientApproval",
					"type": "error"
				},
				{
					"inputs": [
						{
							"internalType": "address",
							"name": "approver",
							"type": "address"
						}
					],
					"name": "ERC721InvalidApprover",
					"type": "error"
				},
				{
					"inputs": [
						{
							"internalType": "address",
							"name": "operator",
							"type": "address"
						}
					],
					"name": "ERC721InvalidOperator",
					"type": "error"
				},
				{
					"inputs": [
						{
							"internalType": "address",
							"name": "owner",
							"type": "address"
						}
					],
					"name": "ERC721InvalidOwner",
					"type": "error"
				},
				{
					"inputs": [
						{
							"internalType": "address",
							"name": "receiver",
							"type": "address"
						}
					],
					"name": "ERC721InvalidReceiver",
					"type": "error"
				},
				{
					"inputs": [
						{
							"internalType": "address",
							"name": "sender",
							"type": "address"
						}
					],
					"name": "ERC721InvalidSender",
					"type": "error"
				},
				{
					"inputs": [
						{
							"internalType": "uint256",
							"name": "tokenId",
							"type": "uint256"
						}
					],
					"name": "ERC721NonexistentToken",
					"type": "error"
				},
				{
					"anonymous": false,
					"inputs": [
						{
							"indexed": true,
							"internalType": "address",
							"name": "owner",
							"type": "address"
						},
						{
							"indexed": true,
							"internalType": "address",
							"name": "approved",
							"type": "address"
						},
						{
							"indexed": true,
							"internalType": "uint256",
							"name": "tokenId",
							"type": "uint256"
						}
					],
					"name": "Approval",
					"type": "event"
				},
				{
					"anonymous": false,
					"inputs": [
						{
							"indexed": true,
							"internalType": "address",
							"name": "owner",
							"type": "address"
						},
						{
							"indexed": true,
							"internalType": "address",
							"name": "operator",
							"type": "address"
						},
						{
							"indexed": false,
							"internalType": "bool",
							"name": "approved",
							"type": "bool"
						}
					],
					"name": "ApprovalForAll",
					"type": "event"
				},
				{
					"anonymous": false,
					"inputs": [
						{
							"indexed": false,
							"internalType": "uint256",
							"name": "tokenId",
							"type": "uint256"
						},
						{
							"indexed": false,
							"internalType": "string",
							"name": "name",
							"type": "string"
						}
					],
					"name": "NFTAcquired",
					"type": "event"
				},
				{
					"anonymous": false,
					"inputs": [
						{
							"indexed": false,
							"internalType": "uint256",
							"name": "tokenId",
							"type": "uint256"
						},
						{
							"indexed": false,
							"internalType": "address",
							"name": "borrower",
							"type": "address"
						}
					],
					"name": "NFTBorrowed",
					"type": "event"
				},
				{
					"anonymous": false,
					"inputs": [
						{
							"indexed": false,
							"internalType": "uint256",
							"name": "nftDistributionAmount",
							"type": "uint256"
						},
						{
							"indexed": false,
							"internalType": "address",
							"name": "nftDistributionAddress",
							"type": "address"
						}
					],
					"name": "NFTDistribution",
					"type": "event"
				},
				{
					"anonymous": false,
					"inputs": [
						{
							"indexed": true,
							"internalType": "address",
							"name": "from",
							"type": "address"
						},
						{
							"indexed": true,
							"internalType": "address",
							"name": "to",
							"type": "address"
						},
						{
							"indexed": true,
							"internalType": "uint256",
							"name": "tokenId",
							"type": "uint256"
						}
					],
					"name": "Transfer",
					"type": "event"
				},
				{
					"inputs": [
						{
							"internalType": "string",
							"name": "name",
							"type": "string"
						},
						{
							"internalType": "uint256",
							"name": "tokenId",
							"type": "uint256"
						},
						{
							"internalType": "uint256",
							"name": "price",
							"type": "uint256"
						}
					],
					"name": "acquireNFT",
					"outputs": [],
					"stateMutability": "payable",
					"type": "function"
				},
				{
					"inputs": [
						{
							"internalType": "address",
							"name": "to",
							"type": "address"
						},
						{
							"internalType": "uint256",
							"name": "tokenId",
							"type": "uint256"
						}
					],
					"name": "approve",
					"outputs": [],
					"stateMutability": "nonpayable",
					"type": "function"
				},
				{
					"inputs": [
						{
							"internalType": "address",
							"name": "owner",
							"type": "address"
						}
					],
					"name": "balanceOf",
					"outputs": [
						{
							"internalType": "uint256",
							"name": "",
							"type": "uint256"
						}
					],
					"stateMutability": "view",
					"type": "function"
				},
				{
					"inputs": [
						{
							"internalType": "uint256",
							"name": "tokenId",
							"type": "uint256"
						}
					],
					"name": "borrowNFT",
					"outputs": [],
					"stateMutability": "nonpayable",
					"type": "function"
				},
				{
					"inputs": [
						{
							"internalType": "address",
							"name": "",
							"type": "address"
						},
						{
							"internalType": "uint256",
							"name": "",
							"type": "uint256"
						}
					],
					"name": "borrowedNFTs",
					"outputs": [
						{
							"internalType": "uint256",
							"name": "",
							"type": "uint256"
						}
					],
					"stateMutability": "view",
					"type": "function"
				},
				{
					"inputs": [],
					"name": "distributeNFT",
					"outputs": [],
					"stateMutability": "nonpayable",
					"type": "function"
				},
				{
					"inputs": [
						{
							"internalType": "uint256",
							"name": "profit",
							"type": "uint256"
						}
					],
					"name": "distributeProfits",
					"outputs": [],
					"stateMutability": "nonpayable",
					"type": "function"
				},
				{
					"inputs": [
						{
							"internalType": "uint256",
							"name": "tokenId",
							"type": "uint256"
						}
					],
					"name": "getApproved",
					"outputs": [
						{
							"internalType": "address",
							"name": "",
							"type": "address"
						}
					],
					"stateMutability": "view",
					"type": "function"
				},
				{
					"inputs": [
						{
							"internalType": "address",
							"name": "owner",
							"type": "address"
						},
						{
							"internalType": "address",
							"name": "operator",
							"type": "address"
						}
					],
					"name": "isApprovedForAll",
					"outputs": [
						{
							"internalType": "bool",
							"name": "",
							"type": "bool"
						}
					],
					"stateMutability": "view",
					"type": "function"
				},
				{
					"inputs": [],
					"name": "marketplace",
					"outputs": [
						{
							"internalType": "address payable",
							"name": "",
							"type": "address"
						}
					],
					"stateMutability": "view",
					"type": "function"
				},
				{
					"inputs": [],
					"name": "membershipFee",
					"outputs": [
						{
							"internalType": "uint256",
							"name": "",
							"type": "uint256"
						}
					],
					"stateMutability": "view",
					"type": "function"
				},
				{
					"inputs": [],
					"name": "name",
					"outputs": [
						{
							"internalType": "string",
							"name": "",
							"type": "string"
						}
					],
					"stateMutability": "view",
					"type": "function"
				},
				{
					"inputs": [],
					"name": "nftBalance",
					"outputs": [
						{
							"internalType": "uint256",
							"name": "",
							"type": "uint256"
						}
					],
					"stateMutability": "view",
					"type": "function"
				},
				{
					"inputs": [],
					"name": "nftDistribution",
					"outputs": [
						{
							"internalType": "uint256",
							"name": "",
							"type": "uint256"
						}
					],
					"stateMutability": "view",
					"type": "function"
				},
				{
					"inputs": [],
					"name": "nftDistributionAddress",
					"outputs": [
						{
							"internalType": "address payable",
							"name": "",
							"type": "address"
						}
					],
					"stateMutability": "view",
					"type": "function"
				},
				{
					"inputs": [],
					"name": "nftDistributionAmount",
					"outputs": [
						{
							"internalType": "uint256",
							"name": "",
							"type": "uint256"
						}
					],
					"stateMutability": "view",
					"type": "function"
				},
				{
					"inputs": [],
					"name": "nftDistributionPercentage",
					"outputs": [
						{
							"internalType": "uint256",
							"name": "",
							"type": "uint256"
						}
					],
					"stateMutability": "view",
					"type": "function"
				},
				{
					"inputs": [],
					"name": "nftName",
					"outputs": [
						{
							"internalType": "string",
							"name": "",
							"type": "string"
						}
					],
					"stateMutability": "view",
					"type": "function"
				},
				{
					"inputs": [],
					"name": "nftOwner",
					"outputs": [
						{
							"internalType": "address",
							"name": "",
							"type": "address"
						}
					],
					"stateMutability": "view",
					"type": "function"
				},
				{
					"inputs": [],
					"name": "nftPrice",
					"outputs": [
						{
							"internalType": "uint256",
							"name": "",
							"type": "uint256"
						}
					],
					"stateMutability": "view",
					"type": "function"
				},
				{
					"inputs": [],
					"name": "nftTokenId",
					"outputs": [
						{
							"internalType": "uint256",
							"name": "",
							"type": "uint256"
						}
					],
					"stateMutability": "view",
					"type": "function"
				},
				{
					"inputs": [
						{
							"internalType": "uint256",
							"name": "tokenId",
							"type": "uint256"
						}
					],
					"name": "ownerOf",
					"outputs": [
						{
							"internalType": "address",
							"name": "",
							"type": "address"
						}
					],
					"stateMutability": "view",
					"type": "function"
				},
				{
					"inputs": [
						{
							"internalType": "address",
							"name": "from",
							"type": "address"
						},
						{
							"internalType": "address",
							"name": "to",
							"type": "address"
						},
						{
							"internalType": "uint256",
							"name": "tokenId",
							"type": "uint256"
						}
					],
					"name": "safeTransferFrom",
					"outputs": [],
					"stateMutability": "nonpayable",
					"type": "function"
				},
				{
					"inputs": [
						{
							"internalType": "address",
							"name": "from",
							"type": "address"
						},
						{
							"internalType": "address",
							"name": "to",
							"type": "address"
						},
						{
							"internalType": "uint256",
							"name": "tokenId",
							"type": "uint256"
						},
						{
							"internalType": "bytes",
							"name": "data",
							"type": "bytes"
						}
					],
					"name": "safeTransferFrom",
					"outputs": [],
					"stateMutability": "nonpayable",
					"type": "function"
				},
				{
					"inputs": [
						{
							"internalType": "address",
							"name": "operator",
							"type": "address"
						},
						{
							"internalType": "bool",
							"name": "approved",
							"type": "bool"
						}
					],
					"name": "setApprovalForAll",
					"outputs": [],
					"stateMutability": "nonpayable",
					"type": "function"
				},
				{
					"inputs": [
						{
							"internalType": "bytes4",
							"name": "interfaceId",
							"type": "bytes4"
						}
					],
					"name": "supportsInterface",
					"outputs": [
						{
							"internalType": "bool",
							"name": "",
							"type": "bool"
						}
					],
					"stateMutability": "view",
					"type": "function"
				},
				{
					"inputs": [],
					"name": "symbol",
					"outputs": [
						{
							"internalType": "string",
							"name": "",
							"type": "string"
						}
					],
					"stateMutability": "view",
					"type": "function"
				},
				{
					"inputs": [
						{
							"internalType": "uint256",
							"name": "tokenId",
							"type": "uint256"
						}
					],
					"name": "tokenURI",
					"outputs": [
						{
							"internalType": "string",
							"name": "",
							"type": "string"
						}
					],
					"stateMutability": "view",
					"type": "function"
				},
				{
					"inputs": [],
					"name": "totalNFTSupply",
					"outputs": [
						{
							"internalType": "uint256",
							"name": "",
							"type": "uint256"
						}
					],
					"stateMutability": "view",
					"type": "function"
				},
				{
					"inputs": [],
					"name": "totalSupply",
					"outputs": [
						{
							"internalType": "uint256",
							"name": "",
							"type": "uint256"
						}
					],
					"stateMutability": "view",
					"type": "function"
				},
				{
					"inputs": [
						{
							"internalType": "address",
							"name": "from",
							"type": "address"
						},
						{
							"internalType": "address",
							"name": "to",
							"type": "address"
						},
						{
							"internalType": "uint256",
							"name": "tokenId",
							"type": "uint256"
						}
					],
					"name": "transferFrom",
					"outputs": [],
					"stateMutability": "nonpayable",
					"type": "function"
				},
				{
					"inputs": [],
					"name": "treasuryBalance",
					"outputs": [
						{
							"internalType": "uint256",
							"name": "",
							"type": "uint256"
						}
					],
					"stateMutability": "view",
					"type": "function"
				}
			],
			"devdoc": {
				"errors": {
					"ERC721IncorrectOwner(address,uint256,address)": [
						{
							"details": "Indicates an error related to the ownership over a particular token. Used in transfers.",
							"params": {
								"owner": "Address of the current owner of a token.",
								"sender": "Address whose tokens are being transferred.",
								"tokenId": "Identifier number of a token."
							}
						}
					],
					"ERC721InsufficientApproval(address,uint256)": [
						{
							"details": "Indicates a failure with the `operator`’s approval. Used in transfers.",
							"params": {
								"operator": "Address that may be allowed to operate on tokens without being their owner.",
								"tokenId": "Identifier number of a token."
							}
						}
					],
					"ERC721InvalidApprover(address)": [
						{
							"details": "Indicates a failure with the `approver` of a token to be approved. Used in approvals.",
							"params": {
								"approver": "Address initiating an approval operation."
							}
						}
					],
					"ERC721InvalidOperator(address)": [
						{
							"details": "Indicates a failure with the `operator` to be approved. Used in approvals.",
							"params": {
								"operator": "Address that may be allowed to operate on tokens without being their owner."
							}
						}
					],
					"ERC721InvalidOwner(address)": [
						{
							"details": "Indicates that an address can't be an owner. For example, `address(0)` is a forbidden owner in EIP-20. Used in balance queries.",
							"params": {
								"owner": "Address of the current owner of a token."
							}
						}
					],
					"ERC721InvalidReceiver(address)": [
						{
							"details": "Indicates a failure with the token `receiver`. Used in transfers.",
							"params": {
								"receiver": "Address to which tokens are being transferred."
							}
						}
					],
					"ERC721InvalidSender(address)": [
						{
							"details": "Indicates a failure with the token `sender`. Used in transfers.",
							"params": {
								"sender": "Address whose tokens are being transferred."
							}
						}
					],
					"ERC721NonexistentToken(uint256)": [
						{
							"details": "Indicates a `tokenId` whose `owner` is the zero address.",
							"params": {
								"tokenId": "Identifier number of a token."
							}
						}
					]
				},
				"events": {
					"Approval(address,address,uint256)": {
						"details": "Emitted when `owner` enables `approved` to manage the `tokenId` token."
					},
					"ApprovalForAll(address,address,bool)": {
						"details": "Emitted when `owner` enables or disables (`approved`) `operator` to manage all of its assets."
					},
					"Transfer(address,address,uint256)": {
						"details": "Emitted when `tokenId` token is transferred from `from` to `to`."
					}
				},
				"kind": "dev",
				"methods": {
					"approve(address,uint256)": {
						"details": "See {IERC721-approve}."
					},
					"balanceOf(address)": {
						"details": "See {IERC721-balanceOf}."
					},
					"getApproved(uint256)": {
						"details": "See {IERC721-getApproved}."
					},
					"isApprovedForAll(address,address)": {
						"details": "See {IERC721-isApprovedForAll}."
					},
					"name()": {
						"details": "See {IERC721Metadata-name}."
					},
					"ownerOf(uint256)": {
						"details": "See {IERC721-ownerOf}."
					},
					"safeTransferFrom(address,address,uint256)": {
						"details": "See {IERC721-safeTransferFrom}."
					},
					"safeTransferFrom(address,address,uint256,bytes)": {
						"details": "See {IERC721-safeTransferFrom}."
					},
					"setApprovalForAll(address,bool)": {
						"details": "See {IERC721-setApprovalForAll}."
					},
					"supportsInterface(bytes4)": {
						"details": "See {IERC165-supportsInterface}."
					},
					"symbol()": {
						"details": "See {IERC721Metadata-symbol}."
					},
					"tokenURI(uint256)": {
						"details": "See {IERC721Metadata-tokenURI}."
					},
					"transferFrom(address,address,uint256)": {
						"details": "See {IERC721-transferFrom}."
					}
				},
				"version": 1
			},
			"evm": {
				"assembly": "    /* \"NFT Tokens/Tk5.sol\":226:2767  contract DAGG is ERC721(\"DAGG NFT\", \"DAGG\") {... */\n  mstore(0x40, 0x80)\n  callvalue\n  dup1\n  iszero\n  tag_1\n  jumpi\n  0x00\n  dup1\n  revert\ntag_1:\n  pop\n    /* \"@openzeppelin/contracts/token/ERC721/ERC721.sol\":1381:1494  constructor(string memory name_, string memory symbol_) {... */\n  mload(0x40)\n  dup1\n  0x40\n  add\n  0x40\n  mstore\n  dup1\n  0x08\n  dup2\n  mstore\n  0x20\n  add\n  0x44414747204e4654000000000000000000000000000000000000000000000000\n  dup2\n  mstore\n  pop\n  mload(0x40)\n  dup1\n  0x40\n  add\n  0x40\n  mstore\n  dup1\n  0x04\n  dup2\n  mstore\n  0x20\n  add\n  0x4441474700000000000000000000000000000000000000000000000000000000\n  dup2\n  mstore\n  pop\n    /* \"@openzeppelin/contracts/token/ERC721/ERC721.sol\":1455:1460  name_ */\n  dup2\n    /* \"@openzeppelin/contracts/token/ERC721/ERC721.sol\":1447:1452  _name */\n  0x00\n    /* \"@openzeppelin/contracts/token/ERC721/ERC721.sol\":1447:1460  _name = name_ */\n  swap1\n  dup2\n  tag_4\n  swap2\n  swap1\n  tag_5\n  jump\t// in\ntag_4:\n  pop\n    /* \"@openzeppelin/contracts/token/ERC721/ERC721.sol\":1480:1487  symbol_ */\n  dup1\n    /* \"@openzeppelin/contracts/token/ERC721/ERC721.sol\":1470:1477  _symbol */\n  0x01\n    /* \"@openzeppelin/contracts/token/ERC721/ERC721.sol\":1470:1487  _symbol = symbol_ */\n  swap1\n  dup2\n  tag_6\n  swap2\n  swap1\n  tag_5\n  jump\t// in\ntag_6:\n  pop\n    /* \"@openzeppelin/contracts/token/ERC721/ERC721.sol\":1381:1494  constructor(string memory name_, string memory symbol_) {... */\n  pop\n  pop\n    /* \"NFT Tokens/Tk5.sol\":226:2767  contract DAGG is ERC721(\"DAGG NFT\", \"DAGG\") {... */\n  jump(tag_7)\n    /* \"#utility.yul\":7:106   */\ntag_8:\n    /* \"#utility.yul\":59:65   */\n  0x00\n    /* \"#utility.yul\":93:98   */\n  dup2\n    /* \"#utility.yul\":87:99   */\n  mload\n    /* \"#utility.yul\":77:99   */\n  swap1\n  pop\n    /* \"#utility.yul\":7:106   */\n  swap2\n  swap1\n  pop\n  jump\t// out\n    /* \"#utility.yul\":112:292   */\ntag_9:\n    /* \"#utility.yul\":160:237   */\n  0x4e487b7100000000000000000000000000000000000000000000000000000000\n    /* \"#utility.yul\":157:158   */\n  0x00\n    /* \"#utility.yul\":150:238   */\n  mstore\n    /* \"#utility.yul\":257:261   */\n  0x41\n    /* \"#utility.yul\":254:255   */\n  0x04\n    /* \"#utility.yul\":247:262   */\n  mstore\n    /* \"#utility.yul\":281:285   */\n  0x24\n    /* \"#utility.yul\":278:279   */\n  0x00\n    /* \"#utility.yul\":271:286   */\n  revert\n    /* \"#utility.yul\":298:478   */\ntag_10:\n    /* \"#utility.yul\":346:423   */\n  0x4e487b7100000000000000000000000000000000000000000000000000000000\n    /* \"#utility.yul\":343:344   */\n  0x00\n    /* \"#utility.yul\":336:424   */\n  mstore\n    /* \"#utility.yul\":443:447   */\n  0x22\n    /* \"#utility.yul\":440:441   */\n  0x04\n    /* \"#utility.yul\":433:448   */\n  mstore\n    /* \"#utility.yul\":467:471   */\n  0x24\n    /* \"#utility.yul\":464:465   */\n  0x00\n    /* \"#utility.yul\":457:472   */\n  revert\n    /* \"#utility.yul\":484:804   */\ntag_11:\n    /* \"#utility.yul\":528:534   */\n  0x00\n    /* \"#utility.yul\":565:566   */\n  0x02\n    /* \"#utility.yul\":559:563   */\n  dup3\n    /* \"#utility.yul\":555:567   */\n  div\n    /* \"#utility.yul\":545:567   */\n  swap1\n  pop\n    /* \"#utility.yul\":612:613   */\n  0x01\n    /* \"#utility.yul\":606:610   */\n  dup3\n    /* \"#utility.yul\":602:614   */\n  and\n    /* \"#utility.yul\":633:651   */\n  dup1\n    /* \"#utility.yul\":623:704   */\n  tag_33\n  jumpi\n    /* \"#utility.yul\":689:693   */\n  0x7f\n    /* \"#utility.yul\":681:687   */\n  dup3\n    /* \"#utility.yul\":677:694   */\n  and\n    /* \"#utility.yul\":667:694   */\n  swap2\n  pop\n    /* \"#utility.yul\":623:704   */\ntag_33:\n    /* \"#utility.yul\":751:753   */\n  0x20\n    /* \"#utility.yul\":743:749   */\n  dup3\n    /* \"#utility.yul\":740:754   */\n  lt\n    /* \"#utility.yul\":720:738   */\n  dup2\n    /* \"#utility.yul\":717:755   */\n  sub\n    /* \"#utility.yul\":714:798   */\n  tag_34\n  jumpi\n    /* \"#utility.yul\":770:788   */\n  tag_35\n  tag_10\n  jump\t// in\ntag_35:\n    /* \"#utility.yul\":714:798   */\ntag_34:\n    /* \"#utility.yul\":535:804   */\n  pop\n    /* \"#utility.yul\":484:804   */\n  swap2\n  swap1\n  pop\n  jump\t// out\n    /* \"#utility.yul\":810:951   */\ntag_12:\n    /* \"#utility.yul\":859:863   */\n  0x00\n    /* \"#utility.yul\":882:885   */\n  dup2\n    /* \"#utility.yul\":874:885   */\n  swap1\n  pop\n    /* \"#utility.yul\":905:908   */\n  dup2\n    /* \"#utility.yul\":902:903   */\n  0x00\n    /* \"#utility.yul\":895:909   */\n  mstore\n    /* \"#utility.yul\":939:943   */\n  0x20\n    /* \"#utility.yul\":936:937   */\n  0x00\n    /* \"#utility.yul\":926:944   */\n  keccak256\n    /* \"#utility.yul\":918:944   */\n  swap1\n  pop\n    /* \"#utility.yul\":810:951   */\n  swap2\n  swap1\n  pop\n  jump\t// out\n    /* \"#utility.yul\":957:1050   */\ntag_13:\n    /* \"#utility.yul\":994:1000   */\n  0x00\n    /* \"#utility.yul\":1041:1043   */\n  0x20\n    /* \"#utility.yul\":1036:1038   */\n  0x1f\n    /* \"#utility.yul\":1029:1034   */\n  dup4\n    /* \"#utility.yul\":1025:1039   */\n  add\n    /* \"#utility.yul\":1021:1044   */\n  div\n    /* \"#utility.yul\":1011:1044   */\n  swap1\n  pop\n    /* \"#utility.yul\":957:1050   */\n  swap2\n  swap1\n  pop\n  jump\t// out\n    /* \"#utility.yul\":1056:1163   */\ntag_14:\n    /* \"#utility.yul\":1100:1108   */\n  0x00\n    /* \"#utility.yul\":1150:1155   */\n  dup3\n    /* \"#utility.yul\":1144:1148   */\n  dup3\n    /* \"#utility.yul\":1140:1156   */\n  shl\n    /* \"#utility.yul\":1119:1156   */\n  swap1\n  pop\n    /* \"#utility.yul\":1056:1163   */\n  swap3\n  swap2\n  pop\n  pop\n  jump\t// out\n    /* \"#utility.yul\":1169:1562   */\ntag_15:\n    /* \"#utility.yul\":1238:1244   */\n  0x00\n    /* \"#utility.yul\":1288:1289   */\n  0x08\n    /* \"#utility.yul\":1276:1286   */\n  dup4\n    /* \"#utility.yul\":1272:1290   */\n  mul\n    /* \"#utility.yul\":1311:1408   */\n  tag_40\n    /* \"#utility.yul\":1341:1407   */\n  0xffffffffffffffffffffffffffffffffffffffffffffffffffffffffffffffff\n    /* \"#utility.yul\":1330:1339   */\n  dup3\n    /* \"#utility.yul\":1311:1408   */\n  tag_14\n  jump\t// in\ntag_40:\n    /* \"#utility.yul\":1429:1468   */\n  tag_41\n    /* \"#utility.yul\":1459:1467   */\n  dup7\n    /* \"#utility.yul\":1448:1457   */\n  dup4\n    /* \"#utility.yul\":1429:1468   */\n  tag_14\n  jump\t// in\ntag_41:\n    /* \"#utility.yul\":1417:1468   */\n  swap6\n  pop\n    /* \"#utility.yul\":1501:1505   */\n  dup1\n    /* \"#utility.yul\":1497:1506   */\n  not\n    /* \"#utility.yul\":1490:1495   */\n  dup5\n    /* \"#utility.yul\":1486:1507   */\n  and\n    /* \"#utility.yul\":1477:1507   */\n  swap4\n  pop\n    /* \"#utility.yul\":1550:1554   */\n  dup1\n    /* \"#utility.yul\":1540:1548   */\n  dup7\n    /* \"#utility.yul\":1536:1555   */\n  and\n    /* \"#utility.yul\":1529:1534   */\n  dup5\n    /* \"#utility.yul\":1526:1556   */\n  or\n    /* \"#utility.yul\":1516:1556   */\n  swap3\n  pop\n    /* \"#utility.yul\":1245:1562   */\n  pop\n  pop\n    /* \"#utility.yul\":1169:1562   */\n  swap4\n  swap3\n  pop\n  pop\n  pop\n  jump\t// out\n    /* \"#utility.yul\":1568:1645   */\ntag_16:\n    /* \"#utility.yul\":1605:1612   */\n  0x00\n    /* \"#utility.yul\":1634:1639   */\n  dup2\n    /* \"#utility.yul\":1623:1639   */\n  swap1\n  pop\n    /* \"#utility.yul\":1568:1645   */\n  swap2\n  swap1\n  pop\n  jump\t// out\n    /* \"#utility.yul\":1651:1711   */\ntag_17:\n    /* \"#utility.yul\":1679:1682   */\n  0x00\n    /* \"#utility.yul\":1700:1705   */\n  dup2\n    /* \"#utility.yul\":1693:1705   */\n  swap1\n  pop\n    /* \"#utility.yul\":1651:1711   */\n  swap2\n  swap1\n  pop\n  jump\t// out\n    /* \"#utility.yul\":1717:1859   */\ntag_18:\n    /* \"#utility.yul\":1767:1776   */\n  0x00\n    /* \"#utility.yul\":1800:1853   */\n  tag_45\n    /* \"#utility.yul\":1818:1852   */\n  tag_46\n    /* \"#utility.yul\":1827:1851   */\n  tag_47\n    /* \"#utility.yul\":1845:1850   */\n  dup5\n    /* \"#utility.yul\":1827:1851   */\n  tag_16\n  jump\t// in\ntag_47:\n    /* \"#utility.yul\":1818:1852   */\n  tag_17\n  jump\t// in\ntag_46:\n    /* \"#utility.yul\":1800:1853   */\n  tag_16\n  jump\t// in\ntag_45:\n    /* \"#utility.yul\":1787:1853   */\n  swap1\n  pop\n    /* \"#utility.yul\":1717:1859   */\n  swap2\n  swap1\n  pop\n  jump\t// out\n    /* \"#utility.yul\":1865:1940   */\ntag_19:\n    /* \"#utility.yul\":1908:1911   */\n  0x00\n    /* \"#utility.yul\":1929:1934   */\n  dup2\n    /* \"#utility.yul\":1922:1934   */\n  swap1\n  pop\n    /* \"#utility.yul\":1865:1940   */\n  swap2\n  swap1\n  pop\n  jump\t// out\n    /* \"#utility.yul\":1946:2215   */\ntag_20:\n    /* \"#utility.yul\":2056:2095   */\n  tag_50\n    /* \"#utility.yul\":2087:2094   */\n  dup4\n    /* \"#utility.yul\":2056:2095   */\n  tag_18\n  jump\t// in\ntag_50:\n    /* \"#utility.yul\":2117:2208   */\n  tag_51\n    /* \"#utility.yul\":2166:2207   */\n  tag_52\n    /* \"#utility.yul\":2190:2206   */\n  dup3\n    /* \"#utility.yul\":2166:2207   */\n  tag_19\n  jump\t// in\ntag_52:\n    /* \"#utility.yul\":2158:2164   */\n  dup5\n    /* \"#utility.yul\":2151:2155   */\n  dup5\n    /* \"#utility.yul\":2145:2156   */\n  sload\n    /* \"#utility.yul\":2117:2208   */\n  tag_15\n  jump\t// in\ntag_51:\n    /* \"#utility.yul\":2111:2115   */\n  dup3\n    /* \"#utility.yul\":2104:2209   */\n  sstore\n    /* \"#utility.yul\":2022:2215   */\n  pop\n    /* \"#utility.yul\":1946:2215   */\n  pop\n  pop\n  pop\n  jump\t// out\n    /* \"#utility.yul\":2221:2294   */\ntag_21:\n    /* \"#utility.yul\":2266:2269   */\n  0x00\n    /* \"#utility.yul\":2221:2294   */\n  swap1\n  jump\t// out\n    /* \"#utility.yul\":2300:2489   */\ntag_22:\n    /* \"#utility.yul\":2377:2409   */\n  tag_55\n  tag_21\n  jump\t// in\ntag_55:\n    /* \"#utility.yul\":2418:2483   */\n  tag_56\n    /* \"#utility.yul\":2476:2482   */\n  dup2\n    /* \"#utility.yul\":2468:2474   */\n  dup5\n    /* \"#utility.yul\":2462:2466   */\n  dup5\n    /* \"#utility.yul\":2418:2483   */\n  tag_20\n  jump\t// in\ntag_56:\n    /* \"#utility.yul\":2353:2489   */\n  pop\n    /* \"#utility.yul\":2300:2489   */\n  pop\n  pop\n  jump\t// out\n    /* \"#utility.yul\":2495:2681   */\ntag_23:\n    /* \"#utility.yul\":2555:2675   */\ntag_58:\n    /* \"#utility.yul\":2572:2575   */\n  dup2\n    /* \"#utility.yul\":2565:2570   */\n  dup2\n    /* \"#utility.yul\":2562:2576   */\n  lt\n    /* \"#utility.yul\":2555:2675   */\n  iszero\n  tag_60\n  jumpi\n    /* \"#utility.yul\":2626:2665   */\n  tag_61\n    /* \"#utility.yul\":2663:2664   */\n  0x00\n    /* \"#utility.yul\":2656:2661   */\n  dup3\n    /* \"#utility.yul\":2626:2665   */\n  tag_22\n  jump\t// in\ntag_61:\n    /* \"#utility.yul\":2599:2600   */\n  0x01\n    /* \"#utility.yul\":2592:2597   */\n  dup2\n    /* \"#utility.yul\":2588:2601   */\n  add\n    /* \"#utility.yul\":2579:2601   */\n  swap1\n  pop\n    /* \"#utility.yul\":2555:2675   */\n  jump(tag_58)\ntag_60:\n    /* \"#utility.yul\":2495:2681   */\n  pop\n  pop\n  jump\t// out\n    /* \"#utility.yul\":2687:3230   */\ntag_24:\n    /* \"#utility.yul\":2788:2790   */\n  0x1f\n    /* \"#utility.yul\":2783:2786   */\n  dup3\n    /* \"#utility.yul\":2780:2791   */\n  gt\n    /* \"#utility.yul\":2777:3223   */\n  iszero\n  tag_63\n  jumpi\n    /* \"#utility.yul\":2822:2860   */\n  tag_64\n    /* \"#utility.yul\":2854:2859   */\n  dup2\n    /* \"#utility.yul\":2822:2860   */\n  tag_12\n  jump\t// in\ntag_64:\n    /* \"#utility.yul\":2906:2935   */\n  tag_65\n    /* \"#utility.yul\":2924:2934   */\n  dup5\n    /* \"#utility.yul\":2906:2935   */\n  tag_13\n  jump\t// in\ntag_65:\n    /* \"#utility.yul\":2896:2904   */\n  dup2\n    /* \"#utility.yul\":2892:2936   */\n  add\n    /* \"#utility.yul\":3089:3091   */\n  0x20\n    /* \"#utility.yul\":3077:3087   */\n  dup6\n    /* \"#utility.yul\":3074:3092   */\n  lt\n    /* \"#utility.yul\":3071:3120   */\n  iszero\n  tag_66\n  jumpi\n    /* \"#utility.yul\":3110:3118   */\n  dup2\n    /* \"#utility.yul\":3095:3118   */\n  swap1\n  pop\n    /* \"#utility.yul\":3071:3120   */\ntag_66:\n    /* \"#utility.yul\":3133:3213   */\n  tag_67\n    /* \"#utility.yul\":3189:3211   */\n  tag_68\n    /* \"#utility.yul\":3207:3210   */\n  dup6\n    /* \"#utility.yul\":3189:3211   */\n  tag_13\n  jump\t// in\ntag_68:\n    /* \"#utility.yul\":3179:3187   */\n  dup4\n    /* \"#utility.yul\":3175:3212   */\n  add\n    /* \"#utility.yul\":3162:3173   */\n  dup3\n    /* \"#utility.yul\":3133:3213   */\n  tag_23\n  jump\t// in\ntag_67:\n    /* \"#utility.yul\":2792:3223   */\n  pop\n  pop\n    /* \"#utility.yul\":2777:3223   */\ntag_63:\n    /* \"#utility.yul\":2687:3230   */\n  pop\n  pop\n  pop\n  jump\t// out\n    /* \"#utility.yul\":3236:3353   */\ntag_25:\n    /* \"#utility.yul\":3290:3298   */\n  0x00\n    /* \"#utility.yul\":3340:3345   */\n  dup3\n    /* \"#utility.yul\":3334:3338   */\n  dup3\n    /* \"#utility.yul\":3330:3346   */\n  shr\n    /* \"#utility.yul\":3309:3346   */\n  swap1\n  pop\n    /* \"#utility.yul\":3236:3353   */\n  swap3\n  swap2\n  pop\n  pop\n  jump\t// out\n    /* \"#utility.yul\":3359:3528   */\ntag_26:\n    /* \"#utility.yul\":3403:3409   */\n  0x00\n    /* \"#utility.yul\":3436:3487   */\n  tag_71\n    /* \"#utility.yul\":3484:3485   */\n  0x00\n    /* \"#utility.yul\":3480:3486   */\n  not\n    /* \"#utility.yul\":3472:3477   */\n  dup5\n    /* \"#utility.yul\":3469:3470   */\n  0x08\n    /* \"#utility.yul\":3465:3478   */\n  mul\n    /* \"#utility.yul\":3436:3487   */\n  tag_25\n  jump\t// in\ntag_71:\n    /* \"#utility.yul\":3432:3488   */\n  not\n    /* \"#utility.yul\":3517:3521   */\n  dup1\n    /* \"#utility.yul\":3511:3515   */\n  dup4\n    /* \"#utility.yul\":3507:3522   */\n  and\n    /* \"#utility.yul\":3497:3522   */\n  swap2\n  pop\n    /* \"#utility.yul\":3410:3528   */\n  pop\n    /* \"#utility.yul\":3359:3528   */\n  swap3\n  swap2\n  pop\n  pop\n  jump\t// out\n    /* \"#utility.yul\":3533:3828   */\ntag_27:\n    /* \"#utility.yul\":3609:3613   */\n  0x00\n    /* \"#utility.yul\":3755:3784   */\n  tag_73\n    /* \"#utility.yul\":3780:3783   */\n  dup4\n    /* \"#utility.yul\":3774:3778   */\n  dup4\n    /* \"#utility.yul\":3755:3784   */\n  tag_26\n  jump\t// in\ntag_73:\n    /* \"#utility.yul\":3747:3784   */\n  swap2\n  pop\n    /* \"#utility.yul\":3817:3820   */\n  dup3\n    /* \"#utility.yul\":3814:3815   */\n  0x02\n    /* \"#utility.yul\":3810:3821   */\n  mul\n    /* \"#utility.yul\":3804:3808   */\n  dup3\n    /* \"#utility.yul\":3801:3822   */\n  or\n    /* \"#utility.yul\":3793:3822   */\n  swap1\n  pop\n    /* \"#utility.yul\":3533:3828   */\n  swap3\n  swap2\n  pop\n  pop\n  jump\t// out\n    /* \"#utility.yul\":3833:5228   */\ntag_5:\n    /* \"#utility.yul\":3950:3987   */\n  tag_75\n    /* \"#utility.yul\":3983:3986   */\n  dup3\n    /* \"#utility.yul\":3950:3987   */\n  tag_8\n  jump\t// in\ntag_75:\n    /* \"#utility.yul\":4052:4070   */\n  0xffffffffffffffff\n    /* \"#utility.yul\":4044:4050   */\n  dup2\n    /* \"#utility.yul\":4041:4071   */\n  gt\n    /* \"#utility.yul\":4038:4094   */\n  iszero\n  tag_76\n  jumpi\n    /* \"#utility.yul\":4074:4092   */\n  tag_77\n  tag_9\n  jump\t// in\ntag_77:\n    /* \"#utility.yul\":4038:4094   */\ntag_76:\n    /* \"#utility.yul\":4118:4156   */\n  tag_78\n    /* \"#utility.yul\":4150:4154   */\n  dup3\n    /* \"#utility.yul\":4144:4155   */\n  sload\n    /* \"#utility.yul\":4118:4156   */\n  tag_11\n  jump\t// in\ntag_78:\n    /* \"#utility.yul\":4203:4270   */\n  tag_79\n    /* \"#utility.yul\":4263:4269   */\n  dup3\n    /* \"#utility.yul\":4255:4261   */\n  dup3\n    /* \"#utility.yul\":4249:4253   */\n  dup6\n    /* \"#utility.yul\":4203:4270   */\n  tag_24\n  jump\t// in\ntag_79:\n    /* \"#utility.yul\":4297:4298   */\n  0x00\n    /* \"#utility.yul\":4321:4325   */\n  0x20\n    /* \"#utility.yul\":4308:4325   */\n  swap1\n  pop\n    /* \"#utility.yul\":4353:4355   */\n  0x1f\n    /* \"#utility.yul\":4345:4351   */\n  dup4\n    /* \"#utility.yul\":4342:4356   */\n  gt\n    /* \"#utility.yul\":4370:4371   */\n  0x01\n    /* \"#utility.yul\":4365:4983   */\n  dup2\n  eq\n  tag_81\n  jumpi\n    /* \"#utility.yul\":5027:5028   */\n  0x00\n    /* \"#utility.yul\":5044:5050   */\n  dup5\n    /* \"#utility.yul\":5041:5118   */\n  iszero\n  tag_82\n  jumpi\n    /* \"#utility.yul\":5093:5102   */\n  dup3\n    /* \"#utility.yul\":5088:5091   */\n  dup8\n    /* \"#utility.yul\":5084:5103   */\n  add\n    /* \"#utility.yul\":5078:5104   */\n  mload\n    /* \"#utility.yul\":5069:5104   */\n  swap1\n  pop\n    /* \"#utility.yul\":5041:5118   */\ntag_82:\n    /* \"#utility.yul\":5144:5211   */\n  tag_83\n    /* \"#utility.yul\":5204:5210   */\n  dup6\n    /* \"#utility.yul\":5197:5202   */\n  dup3\n    /* \"#utility.yul\":5144:5211   */\n  tag_27\n  jump\t// in\ntag_83:\n    /* \"#utility.yul\":5138:5142   */\n  dup7\n    /* \"#utility.yul\":5131:5212   */\n  sstore\n    /* \"#utility.yul\":5000:5222   */\n  pop\n    /* \"#utility.yul\":4335:5222   */\n  jump(tag_80)\n    /* \"#utility.yul\":4365:4983   */\ntag_81:\n    /* \"#utility.yul\":4417:4421   */\n  0x1f\n    /* \"#utility.yul\":4413:4422   */\n  not\n    /* \"#utility.yul\":4405:4411   */\n  dup5\n    /* \"#utility.yul\":4401:4423   */\n  and\n    /* \"#utility.yul\":4451:4488   */\n  tag_84\n    /* \"#utility.yul\":4483:4487   */\n  dup7\n    /* \"#utility.yul\":4451:4488   */\n  tag_12\n  jump\t// in\ntag_84:\n    /* \"#utility.yul\":4510:4511   */\n  0x00\n    /* \"#utility.yul\":4524:4732   */\ntag_85:\n    /* \"#utility.yul\":4538:4545   */\n  dup3\n    /* \"#utility.yul\":4535:4536   */\n  dup2\n    /* \"#utility.yul\":4532:4546   */\n  lt\n    /* \"#utility.yul\":4524:4732   */\n  iszero\n  tag_87\n  jumpi\n    /* \"#utility.yul\":4617:4626   */\n  dup5\n    /* \"#utility.yul\":4612:4615   */\n  dup10\n    /* \"#utility.yul\":4608:4627   */\n  add\n    /* \"#utility.yul\":4602:4628   */\n  mload\n    /* \"#utility.yul\":4594:4600   */\n  dup3\n    /* \"#utility.yul\":4587:4629   */\n  sstore\n    /* \"#utility.yul\":4668:4669   */\n  0x01\n    /* \"#utility.yul\":4660:4666   */\n  dup3\n    /* \"#utility.yul\":4656:4670   */\n  add\n    /* \"#utility.yul\":4646:4670   */\n  swap2\n  pop\n    /* \"#utility.yul\":4715:4717   */\n  0x20\n    /* \"#utility.yul\":4704:4713   */\n  dup6\n    /* \"#utility.yul\":4700:4718   */\n  add\n    /* \"#utility.yul\":4687:4718   */\n  swap5\n  pop\n    /* \"#utility.yul\":4561:4565   */\n  0x20\n    /* \"#utility.yul\":4558:4559   */\n  dup2\n    /* \"#utility.yul\":4554:4566   */\n  add\n    /* \"#utility.yul\":4549:4566   */\n  swap1\n  pop\n    /* \"#utility.yul\":4524:4732   */\n  jump(tag_85)\ntag_87:\n    /* \"#utility.yul\":4760:4766   */\n  dup7\n    /* \"#utility.yul\":4751:4758   */\n  dup4\n    /* \"#utility.yul\":4748:4767   */\n  lt\n    /* \"#utility.yul\":4745:4924   */\n  iszero\n  tag_88\n  jumpi\n    /* \"#utility.yul\":4818:4827   */\n  dup5\n    /* \"#utility.yul\":4813:4816   */\n  dup10\n    /* \"#utility.yul\":4809:4828   */\n  add\n    /* \"#utility.yul\":4803:4829   */\n  mload\n    /* \"#utility.yul\":4861:4909   */\n  tag_89\n    /* \"#utility.yul\":4903:4907   */\n  0x1f\n    /* \"#utility.yul\":4895:4901   */\n  dup10\n    /* \"#utility.yul\":4891:4908   */\n  and\n    /* \"#utility.yul\":4880:4889   */\n  dup3\n    /* \"#utility.yul\":4861:4909   */\n  tag_26\n  jump\t// in\ntag_89:\n    /* \"#utility.yul\":4853:4859   */\n  dup4\n    /* \"#utility.yul\":4846:4910   */\n  sstore\n    /* \"#utility.yul\":4768:4924   */\n  pop\n    /* \"#utility.yul\":4745:4924   */\ntag_88:\n    /* \"#utility.yul\":4970:4971   */\n  0x01\n    /* \"#utility.yul\":4966:4967   */\n  0x02\n    /* \"#utility.yul\":4958:4964   */\n  dup9\n    /* \"#utility.yul\":4954:4968   */\n  mul\n    /* \"#utility.yul\":4950:4972   */\n  add\n    /* \"#utility.yul\":4944:4948   */\n  dup9\n    /* \"#utility.yul\":4937:4973   */\n  sstore\n    /* \"#utility.yul\":4372:4983   */\n  pop\n  pop\n  pop\n    /* \"#utility.yul\":4335:5222   */\ntag_80:\n  pop\n    /* \"#utility.yul\":3925:5228   */\n  pop\n  pop\n  pop\n    /* \"#utility.yul\":3833:5228   */\n  pop\n  pop\n  jump\t// out\n    /* \"NFT Tokens/Tk5.sol\":226:2767  contract DAGG is ERC721(\"DAGG NFT\", \"DAGG\") {... */\ntag_7:\n  dataSize(sub_0)\n  dup1\n  dataOffset(sub_0)\n  0x00\n  codecopy\n  0x00\n  return\nstop\n\nsub_0: assembly {\n        /* \"NFT Tokens/Tk5.sol\":226:2767  contract DAGG is ERC721(\"DAGG NFT\", \"DAGG\") {... */\n      mstore(0x40, 0x80)\n      jumpi(tag_1, lt(calldatasize, 0x04))\n      shr(0xe0, calldataload(0x00))\n      dup1\n      0x6352211e\n      gt\n      tag_34\n      jumpi\n      dup1\n      0xabc8c7af\n      gt\n      tag_35\n      jumpi\n      dup1\n      0xe2c79281\n      gt\n      tag_36\n      jumpi\n      dup1\n      0xe2c79281\n      eq\n      tag_30\n      jumpi\n      dup1\n      0xe985e9c5\n      eq\n      tag_31\n      jumpi\n      dup1\n      0xede8592b\n      eq\n      tag_32\n      jumpi\n      dup1\n      0xf796c2d9\n      eq\n      tag_33\n      jumpi\n      jump(tag_1)\n    tag_36:\n      dup1\n      0xabc8c7af\n      eq\n      tag_26\n      jumpi\n      dup1\n      0xb88d4fde\n      eq\n      tag_27\n      jumpi\n      dup1\n      0xc713a289\n      eq\n      tag_28\n      jumpi\n      dup1\n      0xc87b56dd\n      eq\n      tag_29\n      jumpi\n      jump(tag_1)\n    tag_35:\n      dup1\n      0x95d89b41\n      gt\n      tag_37\n      jumpi\n      dup1\n      0x95d89b41\n      eq\n      tag_22\n      jumpi\n      dup1\n      0x97f7d0d5\n      eq\n      tag_23\n      jumpi\n      dup1\n      0x9a969768\n      eq\n      tag_24\n      jumpi\n      dup1\n      0xa22cb465\n      eq\n      tag_25\n      jumpi\n      jump(tag_1)\n    tag_37:\n      dup1\n      0x6352211e\n      eq\n      tag_18\n      jumpi\n      dup1\n      0x68f5cd3b\n      eq\n      tag_19\n      jumpi\n      dup1\n      0x70a08231\n      eq\n      tag_20\n      jumpi\n      dup1\n      0x7e830574\n      eq\n      tag_21\n      jumpi\n      jump(tag_1)\n    tag_34:\n      dup1\n      0x23b872dd\n      gt\n      tag_38\n      jumpi\n      dup1\n      0x4c39a749\n      gt\n      tag_39\n      jumpi\n      dup1\n      0x4c39a749\n      eq\n      tag_14\n      jumpi\n      dup1\n      0x529062fa\n      eq\n      tag_15\n      jumpi\n      dup1\n      0x5301fa6f\n      eq\n      tag_16\n      jumpi\n      dup1\n      0x5743ceda\n      eq\n      tag_17\n      jumpi\n      jump(tag_1)\n    tag_39:\n      dup1\n      0x23b872dd\n      eq\n      tag_10\n      jumpi\n      dup1\n      0x313dab20\n      eq\n      tag_11\n      jumpi\n      dup1\n      0x31c258e8\n      eq\n      tag_12\n      jumpi\n      dup1\n      0x42842e0e\n      eq\n      tag_13\n      jumpi\n      jump(tag_1)\n    tag_38:\n      dup1\n      0x095ea7b3\n      gt\n      tag_40\n      jumpi\n      dup1\n      0x095ea7b3\n      eq\n      tag_6\n      jumpi\n      dup1\n      0x0c29f635\n      eq\n      tag_7\n      jumpi\n      dup1\n      0x0d39fc81\n      eq\n      tag_8\n      jumpi\n      dup1\n      0x18160ddd\n      eq\n      tag_9\n      jumpi\n      jump(tag_1)\n    tag_40:\n      dup1\n      0x8bfb00\n      eq\n      tag_2\n      jumpi\n      dup1\n      0x01ffc9a7\n      eq\n      tag_3\n      jumpi\n      dup1\n      0x06fdde03\n      eq\n      tag_4\n      jumpi\n      dup1\n      0x081812fc\n      eq\n      tag_5\n      jumpi\n    tag_1:\n      0x00\n      dup1\n      revert\n        /* \"NFT Tokens/Tk5.sol\":649:670  string public nftName */\n    tag_2:\n      callvalue\n      dup1\n      iszero\n      tag_41\n      jumpi\n      0x00\n      dup1\n      revert\n    tag_41:\n      pop\n      tag_42\n      tag_43\n      jump\t// in\n    tag_42:\n      mload(0x40)\n      tag_44\n      swap2\n      swap1\n      tag_45\n      jump\t// in\n    tag_44:\n      mload(0x40)\n      dup1\n      swap2\n      sub\n      swap1\n      return\n        /* \"@openzeppelin/contracts/token/ERC721/ERC721.sol\":1561:1861  function supportsInterface(bytes4 interfaceId) public view virtual override(ERC165, IERC165) returns (bool) {... */\n    tag_3:\n      callvalue\n      dup1\n      iszero\n      tag_46\n      jumpi\n      0x00\n      dup1\n      revert\n    tag_46:\n      pop\n      tag_47\n      0x04\n      dup1\n      calldatasize\n      sub\n      dup2\n      add\n      swap1\n      tag_48\n      swap2\n      swap1\n      tag_49\n      jump\t// in\n    tag_48:\n      tag_50\n      jump\t// in\n    tag_47:\n      mload(0x40)\n      tag_51\n      swap2\n      swap1\n      tag_52\n      jump\t// in\n    tag_51:\n      mload(0x40)\n      dup1\n      swap2\n      sub\n      swap1\n      return\n        /* \"@openzeppelin/contracts/token/ERC721/ERC721.sol\":2365:2454  function name() public view virtual returns (string memory) {... */\n    tag_4:\n      callvalue\n      dup1\n      iszero\n      tag_53\n      jumpi\n      0x00\n      dup1\n      revert\n    tag_53:\n      pop\n      tag_54\n      tag_55\n      jump\t// in\n    tag_54:\n      mload(0x40)\n      tag_56\n      swap2\n      swap1\n      tag_45\n      jump\t// in\n    tag_56:\n      mload(0x40)\n      dup1\n      swap2\n      sub\n      swap1\n      return\n        /* \"@openzeppelin/contracts/token/ERC721/ERC721.sol\":3497:3651  function getApproved(uint256 tokenId) public view virtual returns (address) {... */\n    tag_5:\n      callvalue\n      dup1\n      iszero\n      tag_57\n      jumpi\n      0x00\n      dup1\n      revert\n    tag_57:\n      pop\n      tag_58\n      0x04\n      dup1\n      calldatasize\n      sub\n      dup2\n      add\n      swap1\n      tag_59\n      swap2\n      swap1\n      tag_60\n      jump\t// in\n    tag_59:\n      tag_61\n      jump\t// in\n    tag_58:\n      mload(0x40)\n      tag_62\n      swap2\n      swap1\n      tag_63\n      jump\t// in\n    tag_62:\n      mload(0x40)\n      dup1\n      swap2\n      sub\n      swap1\n      return\n        /* \"@openzeppelin/contracts/token/ERC721/ERC721.sol\":3323:3436  function approve(address to, uint256 tokenId) public virtual {... */\n    tag_6:\n      callvalue\n      dup1\n      iszero\n      tag_64\n      jumpi\n      0x00\n      dup1\n      revert\n    tag_64:\n      pop\n      tag_65\n      0x04\n      dup1\n      calldatasize\n      sub\n      dup2\n      add\n      swap1\n      tag_66\n      swap2\n      swap1\n      tag_67\n      jump\t// in\n    tag_66:\n      tag_68\n      jump\t// in\n    tag_65:\n      stop\n        /* \"NFT Tokens/Tk5.sol\":1574:1893  function acquireNFT(string memory name, uint tokenId, uint price) public payable {... */\n    tag_7:\n      tag_69\n      0x04\n      dup1\n      calldatasize\n      sub\n      dup2\n      add\n      swap1\n      tag_70\n      swap2\n      swap1\n      tag_71\n      jump\t// in\n    tag_70:\n      tag_72\n      jump\t// in\n    tag_69:\n      stop\n        /* \"NFT Tokens/Tk5.sol\":623:643  uint public nftPrice */\n    tag_8:\n      callvalue\n      dup1\n      iszero\n      tag_73\n      jumpi\n      0x00\n      dup1\n      revert\n    tag_73:\n      pop\n      tag_74\n      tag_75\n      jump\t// in\n    tag_74:\n      mload(0x40)\n      tag_76\n      swap2\n      swap1\n      tag_77\n      jump\t// in\n    tag_76:\n      mload(0x40)\n      dup1\n      swap2\n      sub\n      swap1\n      return\n        /* \"NFT Tokens/Tk5.sol\":2130:2227  function totalSupply() public view returns (uint) {... */\n    tag_9:\n      callvalue\n      dup1\n      iszero\n      tag_78\n      jumpi\n      0x00\n      dup1\n      revert\n    tag_78:\n      pop\n      tag_79\n      tag_80\n      jump\t// in\n    tag_79:\n      mload(0x40)\n      tag_81\n      swap2\n      swap1\n      tag_77\n      jump\t// in\n    tag_81:\n      mload(0x40)\n      dup1\n      swap2\n      sub\n      swap1\n      return\n        /* \"@openzeppelin/contracts/token/ERC721/ERC721.sol\":4143:4721  function transferFrom(address from, address to, uint256 tokenId) public virtual {... */\n    tag_10:\n      callvalue\n      dup1\n      iszero\n      tag_82\n      jumpi\n      0x00\n      dup1\n      revert\n    tag_82:\n      pop\n      tag_83\n      0x04\n      dup1\n      calldatasize\n      sub\n      dup2\n      add\n      swap1\n      tag_84\n      swap2\n      swap1\n      tag_85\n      jump\t// in\n    tag_84:\n      tag_86\n      jump\t// in\n    tag_83:\n      stop\n        /* \"NFT Tokens/Tk5.sol\":362:389  uint public treasuryBalance */\n    tag_11:\n      callvalue\n      dup1\n      iszero\n      tag_87\n      jumpi\n      0x00\n      dup1\n      revert\n    tag_87:\n      pop\n      tag_88\n      tag_89\n      jump\t// in\n    tag_88:\n      mload(0x40)\n      tag_90\n      swap2\n      swap1\n      tag_77\n      jump\t// in\n    tag_90:\n      mload(0x40)\n      dup1\n      swap2\n      sub\n      swap1\n      return\n        /* \"NFT Tokens/Tk5.sol\":395:441  mapping(address => uint[]) public borrowedNFTs */\n    tag_12:\n      callvalue\n      dup1\n      iszero\n      tag_91\n      jumpi\n      0x00\n      dup1\n      revert\n    tag_91:\n      pop\n      tag_92\n      0x04\n      dup1\n      calldatasize\n      sub\n      dup2\n      add\n      swap1\n      tag_93\n      swap2\n      swap1\n      tag_67\n      jump\t// in\n    tag_93:\n      tag_94\n      jump\t// in\n    tag_92:\n      mload(0x40)\n      tag_95\n      swap2\n      swap1\n      tag_77\n      jump\t// in\n    tag_95:\n      mload(0x40)\n      dup1\n      swap2\n      sub\n      swap1\n      return\n        /* \"@openzeppelin/contracts/token/ERC721/ERC721.sol\":4787:4919  function safeTransferFrom(address from, address to, uint256 tokenId) public {... */\n    tag_13:\n      callvalue\n      dup1\n      iszero\n      tag_96\n      jumpi\n      0x00\n      dup1\n      revert\n    tag_96:\n      pop\n      tag_97\n      0x04\n      dup1\n      calldatasize\n      sub\n      dup2\n      add\n      swap1\n      tag_98\n      swap2\n      swap1\n      tag_85\n      jump\t// in\n    tag_98:\n      tag_99\n      jump\t// in\n    tag_97:\n      stop\n        /* \"NFT Tokens/Tk5.sol\":704:727  address public nftOwner */\n    tag_14:\n      callvalue\n      dup1\n      iszero\n      tag_100\n      jumpi\n      0x00\n      dup1\n      revert\n    tag_100:\n      pop\n      tag_101\n      tag_102\n      jump\t// in\n    tag_101:\n      mload(0x40)\n      tag_103\n      swap2\n      swap1\n      tag_63\n      jump\t// in\n    tag_103:\n      mload(0x40)\n      dup1\n      swap2\n      sub\n      swap1\n      return\n        /* \"NFT Tokens/Tk5.sol\":1899:2124  function borrowNFT(uint tokenId) public {... */\n    tag_15:\n      callvalue\n      dup1\n      iszero\n      tag_104\n      jumpi\n      0x00\n      dup1\n      revert\n    tag_104:\n      pop\n      tag_105\n      0x04\n      dup1\n      calldatasize\n      sub\n      dup2\n      add\n      swap1\n      tag_106\n      swap2\n      swap1\n      tag_60\n      jump\t// in\n    tag_106:\n      tag_107\n      jump\t// in\n    tag_105:\n      stop\n        /* \"NFT Tokens/Tk5.sol\":733:755  uint public nftBalance */\n    tag_16:\n      callvalue\n      dup1\n      iszero\n      tag_108\n      jumpi\n      0x00\n      dup1\n      revert\n    tag_108:\n      pop\n      tag_109\n      tag_110\n      jump\t// in\n    tag_109:\n      mload(0x40)\n      tag_111\n      swap2\n      swap1\n      tag_77\n      jump\t// in\n    tag_111:\n      mload(0x40)\n      dup1\n      swap2\n      sub\n      swap1\n      return\n        /* \"NFT Tokens/Tk5.sol\":826:863  uint public nftDistributionPercentage */\n    tag_17:\n      callvalue\n      dup1\n      iszero\n      tag_112\n      jumpi\n      0x00\n      dup1\n      revert\n    tag_112:\n      pop\n      tag_113\n      tag_114\n      jump\t// in\n    tag_113:\n      mload(0x40)\n      tag_115\n      swap2\n      swap1\n      tag_77\n      jump\t// in\n    tag_115:\n      mload(0x40)\n      dup1\n      swap2\n      sub\n      swap1\n      return\n        /* \"@openzeppelin/contracts/token/ERC721/ERC721.sol\":2185:2303  function ownerOf(uint256 tokenId) public view virtual returns (address) {... */\n    tag_18:\n      callvalue\n      dup1\n      iszero\n      tag_116\n      jumpi\n      0x00\n      dup1\n      revert\n    tag_116:\n      pop\n      tag_117\n      0x04\n      dup1\n      calldatasize\n      sub\n      dup2\n      add\n      swap1\n      tag_118\n      swap2\n      swap1\n      tag_60\n      jump\t// in\n    tag_118:\n      tag_119\n      jump\t// in\n    tag_117:\n      mload(0x40)\n      tag_120\n      swap2\n      swap1\n      tag_63\n      jump\t// in\n    tag_120:\n      mload(0x40)\n      dup1\n      swap2\n      sub\n      swap1\n      return\n        /* \"NFT Tokens/Tk5.sol\":869:902  uint public nftDistributionAmount */\n    tag_19:\n      callvalue\n      dup1\n      iszero\n      tag_121\n      jumpi\n      0x00\n      dup1\n      revert\n    tag_121:\n      pop\n      tag_122\n      tag_123\n      jump\t// in\n    tag_122:\n      mload(0x40)\n      tag_124\n      swap2\n      swap1\n      tag_77\n      jump\t// in\n    tag_124:\n      mload(0x40)\n      dup1\n      swap2\n      sub\n      swap1\n      return\n        /* \"@openzeppelin/contracts/token/ERC721/ERC721.sol\":1920:2128  function balanceOf(address owner) public view virtual returns (uint256) {... */\n    tag_20:\n      callvalue\n      dup1\n      iszero\n      tag_125\n      jumpi\n      0x00\n      dup1\n      revert\n    tag_125:\n      pop\n      tag_126\n      0x04\n      dup1\n      calldatasize\n      sub\n      dup2\n      add\n      swap1\n      tag_127\n      swap2\n      swap1\n      tag_128\n      jump\t// in\n    tag_127:\n      tag_129\n      jump\t// in\n    tag_126:\n      mload(0x40)\n      tag_130\n      swap2\n      swap1\n      tag_77\n      jump\t// in\n    tag_130:\n      mload(0x40)\n      dup1\n      swap2\n      sub\n      swap1\n      return\n        /* \"NFT Tokens/Tk5.sol\":676:698  uint public nftTokenId */\n    tag_21:\n      callvalue\n      dup1\n      iszero\n      tag_131\n      jumpi\n      0x00\n      dup1\n      revert\n    tag_131:\n      pop\n      tag_132\n      tag_133\n      jump\t// in\n    tag_132:\n      mload(0x40)\n      tag_134\n      swap2\n      swap1\n      tag_77\n      jump\t// in\n    tag_134:\n      mload(0x40)\n      dup1\n      swap2\n      sub\n      swap1\n      return\n        /* \"@openzeppelin/contracts/token/ERC721/ERC721.sol\":2518:2611  function symbol() public view virtual returns (string memory) {... */\n    tag_22:\n      callvalue\n      dup1\n      iszero\n      tag_135\n      jumpi\n      0x00\n      dup1\n      revert\n    tag_135:\n      pop\n      tag_136\n      tag_137\n      jump\t// in\n    tag_136:\n      mload(0x40)\n      tag_138\n      swap2\n      swap1\n      tag_45\n      jump\t// in\n    tag_138:\n      mload(0x40)\n      dup1\n      swap2\n      sub\n      swap1\n      return\n        /* \"NFT Tokens/Tk5.sol\":793:820  uint public nftDistribution */\n    tag_23:\n      callvalue\n      dup1\n      iszero\n      tag_139\n      jumpi\n      0x00\n      dup1\n      revert\n    tag_139:\n      pop\n      tag_140\n      tag_141\n      jump\t// in\n    tag_140:\n      mload(0x40)\n      tag_142\n      swap2\n      swap1\n      tag_77\n      jump\t// in\n    tag_142:\n      mload(0x40)\n      dup1\n      swap2\n      sub\n      swap1\n      return\n        /* \"NFT Tokens/Tk5.sol\":2233:2623  function distributeProfits(uint profit) public onlyTokenHolders {... */\n    tag_24:\n      callvalue\n      dup1\n      iszero\n      tag_143\n      jumpi\n      0x00\n      dup1\n      revert\n    tag_143:\n      pop\n      tag_144\n      0x04\n      dup1\n      calldatasize\n      sub\n      dup2\n      add\n      swap1\n      tag_145\n      swap2\n      swap1\n      tag_60\n      jump\t// in\n    tag_145:\n      tag_146\n      jump\t// in\n    tag_144:\n      stop\n        /* \"@openzeppelin/contracts/token/ERC721/ERC721.sol\":3718:3862  function setApprovalForAll(address operator, bool approved) public virtual {... */\n    tag_25:\n      callvalue\n      dup1\n      iszero\n      tag_147\n      jumpi\n      0x00\n      dup1\n      revert\n    tag_147:\n      pop\n      tag_148\n      0x04\n      dup1\n      calldatasize\n      sub\n      dup2\n      add\n      swap1\n      tag_149\n      swap2\n      swap1\n      tag_150\n      jump\t// in\n    tag_149:\n      tag_151\n      jump\t// in\n    tag_148:\n      stop\n        /* \"NFT Tokens/Tk5.sol\":583:617  address payable public marketplace */\n    tag_26:\n      callvalue\n      dup1\n      iszero\n      tag_152\n      jumpi\n      0x00\n      dup1\n      revert\n    tag_152:\n      pop\n      tag_153\n      tag_154\n      jump\t// in\n    tag_153:\n      mload(0x40)\n      tag_155\n      swap2\n      swap1\n      tag_156\n      jump\t// in\n    tag_155:\n      mload(0x40)\n      dup1\n      swap2\n      sub\n      swap1\n      return\n        /* \"@openzeppelin/contracts/token/ERC721/ERC721.sol\":4985:5193  function safeTransferFrom(address from, address to, uint256 tokenId, bytes memory data) public virtual {... */\n    tag_27:\n      callvalue\n      dup1\n      iszero\n      tag_157\n      jumpi\n      0x00\n      dup1\n      revert\n    tag_157:\n      pop\n      tag_158\n      0x04\n      dup1\n      calldatasize\n      sub\n      dup2\n      add\n      swap1\n      tag_159\n      swap2\n      swap1\n      tag_160\n      jump\t// in\n    tag_159:\n      tag_161\n      jump\t// in\n    tag_158:\n      stop\n        /* \"NFT Tokens/Tk5.sol\":552:577  uint public membershipFee */\n    tag_28:\n      callvalue\n      dup1\n      iszero\n      tag_162\n      jumpi\n      0x00\n      dup1\n      revert\n    tag_162:\n      pop\n      tag_163\n      tag_164\n      jump\t// in\n    tag_163:\n      mload(0x40)\n      tag_165\n      swap2\n      swap1\n      tag_77\n      jump\t// in\n    tag_165:\n      mload(0x40)\n      dup1\n      swap2\n      sub\n      swap1\n      return\n        /* \"@openzeppelin/contracts/token/ERC721/ERC721.sol\":2677:2932  function tokenURI(uint256 tokenId) public view virtual returns (string memory) {... */\n    tag_29:\n      callvalue\n      dup1\n      iszero\n      tag_166\n      jumpi\n      0x00\n      dup1\n      revert\n    tag_166:\n      pop\n      tag_167\n      0x04\n      dup1\n      calldatasize\n      sub\n      dup2\n      add\n      swap1\n      tag_168\n      swap2\n      swap1\n      tag_60\n      jump\t// in\n    tag_168:\n      tag_169\n      jump\t// in\n    tag_167:\n      mload(0x40)\n      tag_170\n      swap2\n      swap1\n      tag_45\n      jump\t// in\n    tag_170:\n      mload(0x40)\n      dup1\n      swap2\n      sub\n      swap1\n      return\n        /* \"NFT Tokens/Tk5.sol\":761:787  uint public totalNFTSupply */\n    tag_30:\n      callvalue\n      dup1\n      iszero\n      tag_171\n      jumpi\n      0x00\n      dup1\n      revert\n    tag_171:\n      pop\n      tag_172\n      tag_173\n      jump\t// in\n    tag_172:\n      mload(0x40)\n      tag_174\n      swap2\n      swap1\n      tag_77\n      jump\t// in\n    tag_174:\n      mload(0x40)\n      dup1\n      swap2\n      sub\n      swap1\n      return\n        /* \"@openzeppelin/contracts/token/ERC721/ERC721.sol\":3928:4081  function isApprovedForAll(address owner, address operator) public view virtual returns (bool) {... */\n    tag_31:\n      callvalue\n      dup1\n      iszero\n      tag_175\n      jumpi\n      0x00\n      dup1\n      revert\n    tag_175:\n      pop\n      tag_176\n      0x04\n      dup1\n      calldatasize\n      sub\n      dup2\n      add\n      swap1\n      tag_177\n      swap2\n      swap1\n      tag_178\n      jump\t// in\n    tag_177:\n      tag_179\n      jump\t// in\n    tag_176:\n      mload(0x40)\n      tag_180\n      swap2\n      swap1\n      tag_52\n      jump\t// in\n    tag_180:\n      mload(0x40)\n      dup1\n      swap2\n      sub\n      swap1\n      return\n        /* \"NFT Tokens/Tk5.sol\":908:953  address payable public nftDistributionAddress */\n    tag_32:\n      callvalue\n      dup1\n      iszero\n      tag_181\n      jumpi\n      0x00\n      dup1\n      revert\n    tag_181:\n      pop\n      tag_182\n      tag_183\n      jump\t// in\n    tag_182:\n      mload(0x40)\n      tag_184\n      swap2\n      swap1\n      tag_156\n      jump\t// in\n    tag_184:\n      mload(0x40)\n      dup1\n      swap2\n      sub\n      swap1\n      return\n        /* \"NFT Tokens/Tk5.sol\":1175:1433  function distributeNFT() public {... */\n    tag_33:\n      callvalue\n      dup1\n      iszero\n      tag_185\n      jumpi\n      0x00\n      dup1\n      revert\n    tag_185:\n      pop\n      tag_186\n      tag_187\n      jump\t// in\n    tag_186:\n      stop\n        /* \"NFT Tokens/Tk5.sol\":649:670  string public nftName */\n    tag_43:\n      0x0c\n      dup1\n      sload\n      tag_188\n      swap1\n      tag_189\n      jump\t// in\n    tag_188:\n      dup1\n      0x1f\n      add\n      0x20\n      dup1\n      swap2\n      div\n      mul\n      0x20\n      add\n      mload(0x40)\n      swap1\n      dup2\n      add\n      0x40\n      mstore\n      dup1\n      swap3\n      swap2\n      swap1\n      dup2\n      dup2\n      mstore\n      0x20\n      add\n      dup3\n      dup1\n      sload\n      tag_190\n      swap1\n      tag_189\n      jump\t// in\n    tag_190:\n      dup1\n      iszero\n      tag_191\n      jumpi\n      dup1\n      0x1f\n      lt\n      tag_192\n      jumpi\n      0x0100\n      dup1\n      dup4\n      sload\n      div\n      mul\n      dup4\n      mstore\n      swap2\n      0x20\n      add\n      swap2\n      jump(tag_191)\n    tag_192:\n      dup3\n      add\n      swap2\n      swap1\n      0x00\n      mstore\n      keccak256(0x00, 0x20)\n      swap1\n    tag_193:\n      dup2\n      sload\n      dup2\n      mstore\n      swap1\n      0x01\n      add\n      swap1\n      0x20\n      add\n      dup1\n      dup4\n      gt\n      tag_193\n      jumpi\n      dup3\n      swap1\n      sub\n      0x1f\n      and\n      dup3\n      add\n      swap2\n    tag_191:\n      pop\n      pop\n      pop\n      pop\n      pop\n      dup2\n      jump\t// out\n        /* \"@openzeppelin/contracts/token/ERC721/ERC721.sol\":1561:1861  function supportsInterface(bytes4 interfaceId) public view virtual override(ERC165, IERC165) returns (bool) {... */\n    tag_50:\n        /* \"@openzeppelin/contracts/token/ERC721/ERC721.sol\":1663:1667  bool */\n      0x00\n        /* \"@openzeppelin/contracts/token/ERC721/ERC721.sol\":1713:1738  type(IERC721).interfaceId */\n      0x80ac58cd00000000000000000000000000000000000000000000000000000000\n        /* \"@openzeppelin/contracts/token/ERC721/ERC721.sol\":1698:1738  interfaceId == type(IERC721).interfaceId */\n      not(0xffffffffffffffffffffffffffffffffffffffffffffffffffffffff)\n      and\n        /* \"@openzeppelin/contracts/token/ERC721/ERC721.sol\":1698:1709  interfaceId */\n      dup3\n        /* \"@openzeppelin/contracts/token/ERC721/ERC721.sol\":1698:1738  interfaceId == type(IERC721).interfaceId */\n      not(0xffffffffffffffffffffffffffffffffffffffffffffffffffffffff)\n      and\n      eq\n        /* \"@openzeppelin/contracts/token/ERC721/ERC721.sol\":1698:1802  interfaceId == type(IERC721).interfaceId ||... */\n      dup1\n      tag_195\n      jumpi\n      pop\n        /* \"@openzeppelin/contracts/token/ERC721/ERC721.sol\":1769:1802  type(IERC721Metadata).interfaceId */\n      0x5b5e139f00000000000000000000000000000000000000000000000000000000\n        /* \"@openzeppelin/contracts/token/ERC721/ERC721.sol\":1754:1802  interfaceId == type(IERC721Metadata).interfaceId */\n      not(0xffffffffffffffffffffffffffffffffffffffffffffffffffffffff)\n      and\n        /* \"@openzeppelin/contracts/token/ERC721/ERC721.sol\":1754:1765  interfaceId */\n      dup3\n        /* \"@openzeppelin/contracts/token/ERC721/ERC721.sol\":1754:1802  interfaceId == type(IERC721Metadata).interfaceId */\n      not(0xffffffffffffffffffffffffffffffffffffffffffffffffffffffff)\n      and\n      eq\n        /* \"@openzeppelin/contracts/token/ERC721/ERC721.sol\":1698:1802  interfaceId == type(IERC721).interfaceId ||... */\n    tag_195:\n        /* \"@openzeppelin/contracts/token/ERC721/ERC721.sol\":1698:1854  interfaceId == type(IERC721).interfaceId ||... */\n      dup1\n      tag_196\n      jumpi\n      pop\n        /* \"@openzeppelin/contracts/token/ERC721/ERC721.sol\":1818:1854  super.supportsInterface(interfaceId) */\n      tag_197\n        /* \"@openzeppelin/contracts/token/ERC721/ERC721.sol\":1842:1853  interfaceId */\n      dup3\n        /* \"@openzeppelin/contracts/token/ERC721/ERC721.sol\":1818:1841  super.supportsInterface */\n      tag_198\n        /* \"@openzeppelin/contracts/token/ERC721/ERC721.sol\":1818:1854  super.supportsInterface(interfaceId) */\n      jump\t// in\n    tag_197:\n        /* \"@openzeppelin/contracts/token/ERC721/ERC721.sol\":1698:1854  interfaceId == type(IERC721).interfaceId ||... */\n    tag_196:\n        /* \"@openzeppelin/contracts/token/ERC721/ERC721.sol\":1679:1854  return... */\n      swap1\n      pop\n        /* \"@openzeppelin/contracts/token/ERC721/ERC721.sol\":1561:1861  function supportsInterface(bytes4 interfaceId) public view virtual override(ERC165, IERC165) returns (bool) {... */\n      swap2\n      swap1\n      pop\n      jump\t// out\n        /* \"@openzeppelin/contracts/token/ERC721/ERC721.sol\":2365:2454  function name() public view virtual returns (string memory) {... */\n    tag_55:\n        /* \"@openzeppelin/contracts/token/ERC721/ERC721.sol\":2410:2423  string memory */\n      0x60\n        /* \"@openzeppelin/contracts/token/ERC721/ERC721.sol\":2442:2447  _name */\n      0x00\n        /* \"@openzeppelin/contracts/token/ERC721/ERC721.sol\":2435:2447  return _name */\n      dup1\n      sload\n      tag_200\n      swap1\n      tag_189\n      jump\t// in\n    tag_200:\n      dup1\n      0x1f\n      add\n      0x20\n      dup1\n      swap2\n      div\n      mul\n      0x20\n      add\n      mload(0x40)\n      swap1\n      dup2\n      add\n      0x40\n      mstore\n      dup1\n      swap3\n      swap2\n      swap1\n      dup2\n      dup2\n      mstore\n      0x20\n      add\n      dup3\n      dup1\n      sload\n      tag_201\n      swap1\n      tag_189\n      jump\t// in\n    tag_201:\n      dup1\n      iszero\n      tag_202\n      jumpi\n      dup1\n      0x1f\n      lt\n      tag_203\n      jumpi\n      0x0100\n      dup1\n      dup4\n      sload\n      div\n      mul\n      dup4\n      mstore\n      swap2\n      0x20\n      add\n      swap2\n      jump(tag_202)\n    tag_203:\n      dup3\n      add\n      swap2\n      swap1\n      0x00\n      mstore\n      keccak256(0x00, 0x20)\n      swap1\n    tag_204:\n      dup2\n      sload\n      dup2\n      mstore\n      swap1\n      0x01\n      add\n      swap1\n      0x20\n      add\n      dup1\n      dup4\n      gt\n      tag_204\n      jumpi\n      dup3\n      swap1\n      sub\n      0x1f\n      and\n      dup3\n      add\n      swap2\n    tag_202:\n      pop\n      pop\n      pop\n      pop\n      pop\n      swap1\n      pop\n        /* \"@openzeppelin/contracts/token/ERC721/ERC721.sol\":2365:2454  function name() public view virtual returns (string memory) {... */\n      swap1\n      jump\t// out\n        /* \"@openzeppelin/contracts/token/ERC721/ERC721.sol\":3497:3651  function getApproved(uint256 tokenId) public view virtual returns (address) {... */\n    tag_61:\n        /* \"@openzeppelin/contracts/token/ERC721/ERC721.sol\":3564:3571  address */\n      0x00\n        /* \"@openzeppelin/contracts/token/ERC721/ERC721.sol\":3583:3605  _requireOwned(tokenId) */\n      tag_206\n        /* \"@openzeppelin/contracts/token/ERC721/ERC721.sol\":3597:3604  tokenId */\n      dup3\n        /* \"@openzeppelin/contracts/token/ERC721/ERC721.sol\":3583:3596  _requireOwned */\n      tag_207\n        /* \"@openzeppelin/contracts/token/ERC721/ERC721.sol\":3583:3605  _requireOwned(tokenId) */\n      jump\t// in\n    tag_206:\n      pop\n        /* \"@openzeppelin/contracts/token/ERC721/ERC721.sol\":3623:3644  _getApproved(tokenId) */\n      tag_208\n        /* \"@openzeppelin/contracts/token/ERC721/ERC721.sol\":3636:3643  tokenId */\n      dup3\n        /* \"@openzeppelin/contracts/token/ERC721/ERC721.sol\":3623:3635  _getApproved */\n      tag_209\n        /* \"@openzeppelin/contracts/token/ERC721/ERC721.sol\":3623:3644  _getApproved(tokenId) */\n      jump\t// in\n    tag_208:\n        /* \"@openzeppelin/contracts/token/ERC721/ERC721.sol\":3616:3644  return _getApproved(tokenId) */\n      swap1\n      pop\n        /* \"@openzeppelin/contracts/token/ERC721/ERC721.sol\":3497:3651  function getApproved(uint256 tokenId) public view virtual returns (address) {... */\n      swap2\n      swap1\n      pop\n      jump\t// out\n        /* \"@openzeppelin/contracts/token/ERC721/ERC721.sol\":3323:3436  function approve(address to, uint256 tokenId) public virtual {... */\n    tag_68:\n        /* \"@openzeppelin/contracts/token/ERC721/ERC721.sol\":3394:3429  _approve(to, tokenId, _msgSender()) */\n      tag_211\n        /* \"@openzeppelin/contracts/token/ERC721/ERC721.sol\":3403:3405  to */\n      dup3\n        /* \"@openzeppelin/contracts/token/ERC721/ERC721.sol\":3407:3414  tokenId */\n      dup3\n        /* \"@openzeppelin/contracts/token/ERC721/ERC721.sol\":3416:3428  _msgSender() */\n      tag_212\n        /* \"@openzeppelin/contracts/token/ERC721/ERC721.sol\":3416:3426  _msgSender */\n      tag_213\n        /* \"@openzeppelin/contracts/token/ERC721/ERC721.sol\":3416:3428  _msgSender() */\n      jump\t// in\n    tag_212:\n        /* \"@openzeppelin/contracts/token/ERC721/ERC721.sol\":3394:3402  _approve */\n      tag_214\n        /* \"@openzeppelin/contracts/token/ERC721/ERC721.sol\":3394:3429  _approve(to, tokenId, _msgSender()) */\n      jump\t// in\n    tag_211:\n        /* \"@openzeppelin/contracts/token/ERC721/ERC721.sol\":3323:3436  function approve(address to, uint256 tokenId) public virtual {... */\n      pop\n      pop\n      jump\t// out\n        /* \"NFT Tokens/Tk5.sol\":1574:1893  function acquireNFT(string memory name, uint tokenId, uint price) public payable {... */\n    tag_72:\n        /* \"NFT Tokens/Tk5.sol\":1692:1697  price */\n      dup1\n        /* \"NFT Tokens/Tk5.sol\":1673:1688  treasuryBalance */\n      sload(0x07)\n        /* \"NFT Tokens/Tk5.sol\":1673:1697  treasuryBalance >= price */\n      lt\n      iszero\n        /* \"NFT Tokens/Tk5.sol\":1665:1732  require(treasuryBalance >= price, \"Insufficient funds in treasury\") */\n      tag_216\n      jumpi\n      mload(0x40)\n      0x08c379a000000000000000000000000000000000000000000000000000000000\n      dup2\n      mstore\n      0x04\n      add\n      tag_217\n      swap1\n      tag_218\n      jump\t// in\n    tag_217:\n      mload(0x40)\n      dup1\n      swap2\n      sub\n      swap1\n      revert\n    tag_216:\n        /* \"NFT Tokens/Tk5.sol\":1742:1753  marketplace */\n      0x0a\n      0x00\n      swap1\n      sload\n      swap1\n      0x0100\n      exp\n      swap1\n      div\n      0xffffffffffffffffffffffffffffffffffffffff\n      and\n        /* \"NFT Tokens/Tk5.sol\":1742:1762  marketplace.transfer */\n      0xffffffffffffffffffffffffffffffffffffffff\n      and\n        /* \"NFT Tokens/Tk5.sol\":1742:1769  marketplace.transfer(price) */\n      0x08fc\n        /* \"NFT Tokens/Tk5.sol\":1763:1768  price */\n      dup3\n        /* \"NFT Tokens/Tk5.sol\":1742:1769  marketplace.transfer(price) */\n      swap1\n      dup2\n      iszero\n      mul\n      swap1\n      mload(0x40)\n      0x00\n      mload(0x40)\n      dup1\n      dup4\n      sub\n      dup2\n      dup6\n      dup9\n      dup9\n      call\n      swap4\n      pop\n      pop\n      pop\n      pop\n      iszero\n      dup1\n      iszero\n      tag_220\n      jumpi\n      returndatasize\n      0x00\n      dup1\n      returndatacopy\n      revert(0x00, returndatasize)\n    tag_220:\n      pop\n        /* \"NFT Tokens/Tk5.sol\":1779:1808  _mint(address(this), tokenId) */\n      tag_221\n        /* \"NFT Tokens/Tk5.sol\":1793:1797  this */\n      address\n        /* \"NFT Tokens/Tk5.sol\":1800:1807  tokenId */\n      dup4\n        /* \"NFT Tokens/Tk5.sol\":1779:1784  _mint */\n      tag_222\n        /* \"NFT Tokens/Tk5.sol\":1779:1808  _mint(address(this), tokenId) */\n      jump\t// in\n    tag_221:\n        /* \"NFT Tokens/Tk5.sol\":1818:1845  _setTokenURI(tokenId, name) */\n      tag_223\n        /* \"NFT Tokens/Tk5.sol\":1831:1838  tokenId */\n      dup3\n        /* \"NFT Tokens/Tk5.sol\":1840:1844  name */\n      dup5\n        /* \"NFT Tokens/Tk5.sol\":1818:1830  _setTokenURI */\n      tag_224\n        /* \"NFT Tokens/Tk5.sol\":1818:1845  _setTokenURI(tokenId, name) */\n      jump\t// in\n    tag_223:\n        /* \"NFT Tokens/Tk5.sol\":1860:1886  NFTAcquired(tokenId, name) */\n      0x29705a31c393a642035ad5f190e6f0b0b3f0ef43ed68c72cf87ae76be0e3185b\n        /* \"NFT Tokens/Tk5.sol\":1872:1879  tokenId */\n      dup3\n        /* \"NFT Tokens/Tk5.sol\":1881:1885  name */\n      dup5\n        /* \"NFT Tokens/Tk5.sol\":1860:1886  NFTAcquired(tokenId, name) */\n      mload(0x40)\n      tag_225\n      swap3\n      swap2\n      swap1\n      tag_226\n      jump\t// in\n    tag_225:\n      mload(0x40)\n      dup1\n      swap2\n      sub\n      swap1\n      log1\n        /* \"NFT Tokens/Tk5.sol\":1574:1893  function acquireNFT(string memory name, uint tokenId, uint price) public payable {... */\n      pop\n      pop\n      pop\n      jump\t// out\n        /* \"NFT Tokens/Tk5.sol\":623:643  uint public nftPrice */\n    tag_75:\n      sload(0x0b)\n      dup2\n      jump\t// out\n        /* \"NFT Tokens/Tk5.sol\":2130:2227  function totalSupply() public view returns (uint) {... */\n    tag_80:\n        /* \"NFT Tokens/Tk5.sol\":2174:2178  uint */\n      0x00\n        /* \"NFT Tokens/Tk5.sol\":2197:2220  _tokenCounter.current() */\n      tag_228\n        /* \"NFT Tokens/Tk5.sol\":2197:2210  _tokenCounter */\n      0x06\n        /* \"NFT Tokens/Tk5.sol\":2197:2218  _tokenCounter.current */\n      tag_229\n        /* \"NFT Tokens/Tk5.sol\":2197:2220  _tokenCounter.current() */\n      jump\t// in\n    tag_228:\n        /* \"NFT Tokens/Tk5.sol\":2190:2220  return _tokenCounter.current() */\n      swap1\n      pop\n        /* \"NFT Tokens/Tk5.sol\":2130:2227  function totalSupply() public view returns (uint) {... */\n      swap1\n      jump\t// out\n        /* \"@openzeppelin/contracts/token/ERC721/ERC721.sol\":4143:4721  function transferFrom(address from, address to, uint256 tokenId) public virtual {... */\n    tag_86:\n        /* \"@openzeppelin/contracts/token/ERC721/ERC721.sol\":4251:4252  0 */\n      0x00\n        /* \"@openzeppelin/contracts/token/ERC721/ERC721.sol\":4237:4253  to == address(0) */\n      0xffffffffffffffffffffffffffffffffffffffff\n      and\n        /* \"@openzeppelin/contracts/token/ERC721/ERC721.sol\":4237:4239  to */\n      dup3\n        /* \"@openzeppelin/contracts/token/ERC721/ERC721.sol\":4237:4253  to == address(0) */\n      0xffffffffffffffffffffffffffffffffffffffff\n      and\n      sub\n        /* \"@openzeppelin/contracts/token/ERC721/ERC721.sol\":4233:4320  if (to == address(0)) {... */\n      tag_231\n      jumpi\n        /* \"@openzeppelin/contracts/token/ERC721/ERC721.sol\":4306:4307  0 */\n      0x00\n        /* \"@openzeppelin/contracts/token/ERC721/ERC721.sol\":4276:4309  ERC721InvalidReceiver(address(0)) */\n      mload(0x40)\n      0x64a0ae9200000000000000000000000000000000000000000000000000000000\n      dup2\n      mstore\n      0x04\n      add\n      tag_232\n      swap2\n      swap1\n      tag_63\n      jump\t// in\n    tag_232:\n      mload(0x40)\n      dup1\n      swap2\n      sub\n      swap1\n      revert\n        /* \"@openzeppelin/contracts/token/ERC721/ERC721.sol\":4233:4320  if (to == address(0)) {... */\n    tag_231:\n        /* \"@openzeppelin/contracts/token/ERC721/ERC721.sol\":4538:4559  address previousOwner */\n      0x00\n        /* \"@openzeppelin/contracts/token/ERC721/ERC721.sol\":4562:4596  _update(to, tokenId, _msgSender()) */\n      tag_233\n        /* \"@openzeppelin/contracts/token/ERC721/ERC721.sol\":4570:4572  to */\n      dup4\n        /* \"@openzeppelin/contracts/token/ERC721/ERC721.sol\":4574:4581  tokenId */\n      dup4\n        /* \"@openzeppelin/contracts/token/ERC721/ERC721.sol\":4583:4595  _msgSender() */\n      tag_234\n        /* \"@openzeppelin/contracts/token/ERC721/ERC721.sol\":4583:4593  _msgSender */\n      tag_213\n        /* \"@openzeppelin/contracts/token/ERC721/ERC721.sol\":4583:4595  _msgSender() */\n      jump\t// in\n    tag_234:\n        /* \"@openzeppelin/contracts/token/ERC721/ERC721.sol\":4562:4569  _update */\n      tag_235\n        /* \"@openzeppelin/contracts/token/ERC721/ERC721.sol\":4562:4596  _update(to, tokenId, _msgSender()) */\n      jump\t// in\n    tag_233:\n        /* \"@openzeppelin/contracts/token/ERC721/ERC721.sol\":4538:4596  address previousOwner = _update(to, tokenId, _msgSender()) */\n      swap1\n      pop\n        /* \"@openzeppelin/contracts/token/ERC721/ERC721.sol\":4627:4631  from */\n      dup4\n        /* \"@openzeppelin/contracts/token/ERC721/ERC721.sol\":4610:4631  previousOwner != from */\n      0xffffffffffffffffffffffffffffffffffffffff\n      and\n        /* \"@openzeppelin/contracts/token/ERC721/ERC721.sol\":4610:4623  previousOwner */\n      dup2\n        /* \"@openzeppelin/contracts/token/ERC721/ERC721.sol\":4610:4631  previousOwner != from */\n      0xffffffffffffffffffffffffffffffffffffffff\n      and\n      eq\n        /* \"@openzeppelin/contracts/token/ERC721/ERC721.sol\":4606:4715  if (previousOwner != from) {... */\n      tag_236\n      jumpi\n        /* \"@openzeppelin/contracts/token/ERC721/ERC721.sol\":4675:4679  from */\n      dup4\n        /* \"@openzeppelin/contracts/token/ERC721/ERC721.sol\":4681:4688  tokenId */\n      dup3\n        /* \"@openzeppelin/contracts/token/ERC721/ERC721.sol\":4690:4703  previousOwner */\n      dup3\n        /* \"@openzeppelin/contracts/token/ERC721/ERC721.sol\":4654:4704  ERC721IncorrectOwner(from, tokenId, previousOwner) */\n      mload(0x40)\n      0x64283d7b00000000000000000000000000000000000000000000000000000000\n      dup2\n      mstore\n      0x04\n      add\n      tag_237\n      swap4\n      swap3\n      swap2\n      swap1\n      tag_238\n      jump\t// in\n    tag_237:\n      mload(0x40)\n      dup1\n      swap2\n      sub\n      swap1\n      revert\n        /* \"@openzeppelin/contracts/token/ERC721/ERC721.sol\":4606:4715  if (previousOwner != from) {... */\n    tag_236:\n        /* \"@openzeppelin/contracts/token/ERC721/ERC721.sol\":4223:4721  {... */\n      pop\n        /* \"@openzeppelin/contracts/token/ERC721/ERC721.sol\":4143:4721  function transferFrom(address from, address to, uint256 tokenId) public virtual {... */\n      pop\n      pop\n      pop\n      jump\t// out\n        /* \"NFT Tokens/Tk5.sol\":362:389  uint public treasuryBalance */\n    tag_89:\n      sload(0x07)\n      dup2\n      jump\t// out\n        /* \"NFT Tokens/Tk5.sol\":395:441  mapping(address => uint[]) public borrowedNFTs */\n    tag_94:\n      mstore(0x20, 0x08)\n      dup2\n      0x00\n      mstore\n      keccak256(0x00, 0x40)\n      dup2\n      dup2\n      sload\n      dup2\n      lt\n      tag_239\n      jumpi\n      0x00\n      dup1\n      revert\n    tag_239:\n      swap1\n      0x00\n      mstore\n      keccak256(0x00, 0x20)\n      add\n      0x00\n      swap2\n      pop\n      swap2\n      pop\n      pop\n      sload\n      dup2\n      jump\t// out\n        /* \"@openzeppelin/contracts/token/ERC721/ERC721.sol\":4787:4919  function safeTransferFrom(address from, address to, uint256 tokenId) public {... */\n    tag_99:\n        /* \"@openzeppelin/contracts/token/ERC721/ERC721.sol\":4873:4912  safeTransferFrom(from, to, tokenId, \"\") */\n      tag_242\n        /* \"@openzeppelin/contracts/token/ERC721/ERC721.sol\":4890:4894  from */\n      dup4\n        /* \"@openzeppelin/contracts/token/ERC721/ERC721.sol\":4896:4898  to */\n      dup4\n        /* \"@openzeppelin/contracts/token/ERC721/ERC721.sol\":4900:4907  tokenId */\n      dup4\n        /* \"@openzeppelin/contracts/token/ERC721/ERC721.sol\":4873:4912  safeTransferFrom(from, to, tokenId, \"\") */\n      mload(0x40)\n      dup1\n      0x20\n      add\n      0x40\n      mstore\n      dup1\n      0x00\n      dup2\n      mstore\n      pop\n        /* \"@openzeppelin/contracts/token/ERC721/ERC721.sol\":4873:4889  safeTransferFrom */\n      tag_161\n        /* \"@openzeppelin/contracts/token/ERC721/ERC721.sol\":4873:4912  safeTransferFrom(from, to, tokenId, \"\") */\n      jump\t// in\n    tag_242:\n        /* \"@openzeppelin/contracts/token/ERC721/ERC721.sol\":4787:4919  function safeTransferFrom(address from, address to, uint256 tokenId) public {... */\n      pop\n      pop\n      pop\n      jump\t// out\n        /* \"NFT Tokens/Tk5.sol\":704:727  address public nftOwner */\n    tag_102:\n      0x0e\n      0x00\n      swap1\n      sload\n      swap1\n      0x0100\n      exp\n      swap1\n      div\n      0xffffffffffffffffffffffffffffffffffffffff\n      and\n      dup2\n      jump\t// out\n        /* \"NFT Tokens/Tk5.sol\":1899:2124  function borrowNFT(uint tokenId) public {... */\n    tag_107:\n        /* \"NFT Tokens/Tk5.sol\":1986:1990  this */\n      address\n        /* \"NFT Tokens/Tk5.sol\":1957:1991  _ownerOf(tokenId) == address(this) */\n      0xffffffffffffffffffffffffffffffffffffffff\n      and\n        /* \"NFT Tokens/Tk5.sol\":1957:1974  _ownerOf(tokenId) */\n      tag_244\n        /* \"NFT Tokens/Tk5.sol\":1966:1973  tokenId */\n      dup3\n        /* \"NFT Tokens/Tk5.sol\":1957:1965  _ownerOf */\n      tag_245\n        /* \"NFT Tokens/Tk5.sol\":1957:1974  _ownerOf(tokenId) */\n      jump\t// in\n    tag_244:\n        /* \"NFT Tokens/Tk5.sol\":1957:1991  _ownerOf(tokenId) == address(this) */\n      0xffffffffffffffffffffffffffffffffffffffff\n      and\n      eq\n        /* \"NFT Tokens/Tk5.sol\":1949:2022  require(_ownerOf(tokenId) == address(this), \"NFT not owned by the guild\") */\n      tag_246\n      jumpi\n      mload(0x40)\n      0x08c379a000000000000000000000000000000000000000000000000000000000\n      dup2\n      mstore\n      0x04\n      add\n      tag_247\n      swap1\n      tag_248\n      jump\t// in\n    tag_247:\n      mload(0x40)\n      dup1\n      swap2\n      sub\n      swap1\n      revert\n    tag_246:\n        /* \"NFT Tokens/Tk5.sol\":2032:2044  borrowedNFTs */\n      0x08\n        /* \"NFT Tokens/Tk5.sol\":2032:2056  borrowedNFTs[msg.sender] */\n      0x00\n        /* \"NFT Tokens/Tk5.sol\":2045:2055  msg.sender */\n      caller\n        /* \"NFT Tokens/Tk5.sol\":2032:2056  borrowedNFTs[msg.sender] */\n      0xffffffffffffffffffffffffffffffffffffffff\n      and\n      0xffffffffffffffffffffffffffffffffffffffff\n      and\n      dup2\n      mstore\n      0x20\n      add\n      swap1\n      dup2\n      mstore\n      0x20\n      add\n      0x00\n      keccak256\n        /* \"NFT Tokens/Tk5.sol\":2062:2069  tokenId */\n      dup2\n        /* \"NFT Tokens/Tk5.sol\":2032:2070  borrowedNFTs[msg.sender].push(tokenId) */\n      swap1\n      dup1\n      0x01\n      dup2\n      sload\n      add\n      dup1\n      dup3\n      sstore\n      dup1\n      swap2\n      pop\n      pop\n      0x01\n      swap1\n      sub\n      swap1\n      0x00\n      mstore\n      keccak256(0x00, 0x20)\n      add\n      0x00\n      swap1\n      swap2\n      swap1\n      swap2\n      swap1\n      swap2\n      pop\n      sstore\n        /* \"NFT Tokens/Tk5.sol\":2085:2117  NFTBorrowed(tokenId, msg.sender) */\n      0x50580f9b480d6d5cec851393deb0b48a42783dca51b04cec0e1f104d553f516c\n        /* \"NFT Tokens/Tk5.sol\":2097:2104  tokenId */\n      dup2\n        /* \"NFT Tokens/Tk5.sol\":2106:2116  msg.sender */\n      caller\n        /* \"NFT Tokens/Tk5.sol\":2085:2117  NFTBorrowed(tokenId, msg.sender) */\n      mload(0x40)\n      tag_250\n      swap3\n      swap2\n      swap1\n      tag_251\n      jump\t// in\n    tag_250:\n      mload(0x40)\n      dup1\n      swap2\n      sub\n      swap1\n      log1\n        /* \"NFT Tokens/Tk5.sol\":1899:2124  function borrowNFT(uint tokenId) public {... */\n      pop\n      jump\t// out\n        /* \"NFT Tokens/Tk5.sol\":733:755  uint public nftBalance */\n    tag_110:\n      sload(0x0f)\n      dup2\n      jump\t// out\n        /* \"NFT Tokens/Tk5.sol\":826:863  uint public nftDistributionPercentage */\n    tag_114:\n      sload(0x12)\n      dup2\n      jump\t// out\n        /* \"@openzeppelin/contracts/token/ERC721/ERC721.sol\":2185:2303  function ownerOf(uint256 tokenId) public view virtual returns (address) {... */\n    tag_119:\n        /* \"@openzeppelin/contracts/token/ERC721/ERC721.sol\":2248:2255  address */\n      0x00\n        /* \"@openzeppelin/contracts/token/ERC721/ERC721.sol\":2274:2296  _requireOwned(tokenId) */\n      tag_253\n        /* \"@openzeppelin/contracts/token/ERC721/ERC721.sol\":2288:2295  tokenId */\n      dup3\n        /* \"@openzeppelin/contracts/token/ERC721/ERC721.sol\":2274:2287  _requireOwned */\n      tag_207\n        /* \"@openzeppelin/contracts/token/ERC721/ERC721.sol\":2274:2296  _requireOwned(tokenId) */\n      jump\t// in\n    tag_253:\n        /* \"@openzeppelin/contracts/token/ERC721/ERC721.sol\":2267:2296  return _requireOwned(tokenId) */\n      swap1\n      pop\n        /* \"@openzeppelin/contracts/token/ERC721/ERC721.sol\":2185:2303  function ownerOf(uint256 tokenId) public view virtual returns (address) {... */\n      swap2\n      swap1\n      pop\n      jump\t// out\n        /* \"NFT Tokens/Tk5.sol\":869:902  uint public nftDistributionAmount */\n    tag_123:\n      sload(0x13)\n      dup2\n      jump\t// out\n        /* \"@openzeppelin/contracts/token/ERC721/ERC721.sol\":1920:2128  function balanceOf(address owner) public view virtual returns (uint256) {... */\n    tag_129:\n        /* \"@openzeppelin/contracts/token/ERC721/ERC721.sol\":1983:1990  uint256 */\n      0x00\n        /* \"@openzeppelin/contracts/token/ERC721/ERC721.sol\":2023:2024  0 */\n      dup1\n        /* \"@openzeppelin/contracts/token/ERC721/ERC721.sol\":2006:2025  owner == address(0) */\n      0xffffffffffffffffffffffffffffffffffffffff\n      and\n        /* \"@openzeppelin/contracts/token/ERC721/ERC721.sol\":2006:2011  owner */\n      dup3\n        /* \"@openzeppelin/contracts/token/ERC721/ERC721.sol\":2006:2025  owner == address(0) */\n      0xffffffffffffffffffffffffffffffffffffffff\n      and\n      sub\n        /* \"@openzeppelin/contracts/token/ERC721/ERC721.sol\":2002:2089  if (owner == address(0)) {... */\n      tag_255\n      jumpi\n        /* \"@openzeppelin/contracts/token/ERC721/ERC721.sol\":2075:2076  0 */\n      0x00\n        /* \"@openzeppelin/contracts/token/ERC721/ERC721.sol\":2048:2078  ERC721InvalidOwner(address(0)) */\n      mload(0x40)\n      0x89c62b6400000000000000000000000000000000000000000000000000000000\n      dup2\n      mstore\n      0x04\n      add\n      tag_256\n      swap2\n      swap1\n      tag_63\n      jump\t// in\n    tag_256:\n      mload(0x40)\n      dup1\n      swap2\n      sub\n      swap1\n      revert\n        /* \"@openzeppelin/contracts/token/ERC721/ERC721.sol\":2002:2089  if (owner == address(0)) {... */\n    tag_255:\n        /* \"@openzeppelin/contracts/token/ERC721/ERC721.sol\":2105:2114  _balances */\n      0x03\n        /* \"@openzeppelin/contracts/token/ERC721/ERC721.sol\":2105:2121  _balances[owner] */\n      0x00\n        /* \"@openzeppelin/contracts/token/ERC721/ERC721.sol\":2115:2120  owner */\n      dup4\n        /* \"@openzeppelin/contracts/token/ERC721/ERC721.sol\":2105:2121  _balances[owner] */\n      0xffffffffffffffffffffffffffffffffffffffff\n      and\n      0xffffffffffffffffffffffffffffffffffffffff\n      and\n      dup2\n      mstore\n      0x20\n      add\n      swap1\n      dup2\n      mstore\n      0x20\n      add\n      0x00\n      keccak256\n      sload\n        /* \"@openzeppelin/contracts/token/ERC721/ERC721.sol\":2098:2121  return _balances[owner] */\n      swap1\n      pop\n        /* \"@openzeppelin/contracts/token/ERC721/ERC721.sol\":1920:2128  function balanceOf(address owner) public view virtual returns (uint256) {... */\n      swap2\n      swap1\n      pop\n      jump\t// out\n        /* \"NFT Tokens/Tk5.sol\":676:698  uint public nftTokenId */\n    tag_133:\n      sload(0x0d)\n      dup2\n      jump\t// out\n        /* \"@openzeppelin/contracts/token/ERC721/ERC721.sol\":2518:2611  function symbol() public view virtual returns (string memory) {... */\n    tag_137:\n        /* \"@openzeppelin/contracts/token/ERC721/ERC721.sol\":2565:2578  string memory */\n      0x60\n        /* \"@openzeppelin/contracts/token/ERC721/ERC721.sol\":2597:2604  _symbol */\n      0x01\n        /* \"@openzeppelin/contracts/token/ERC721/ERC721.sol\":2590:2604  return _symbol */\n      dup1\n      sload\n      tag_258\n      swap1\n      tag_189\n      jump\t// in\n    tag_258:\n      dup1\n      0x1f\n      add\n      0x20\n      dup1\n      swap2\n      div\n      mul\n      0x20\n      add\n      mload(0x40)\n      swap1\n      dup2\n      add\n      0x40\n      mstore\n      dup1\n      swap3\n      swap2\n      swap1\n      dup2\n      dup2\n      mstore\n      0x20\n      add\n      dup3\n      dup1\n      sload\n      tag_259\n      swap1\n      tag_189\n      jump\t// in\n    tag_259:\n      dup1\n      iszero\n      tag_260\n      jumpi\n      dup1\n      0x1f\n      lt\n      tag_261\n      jumpi\n      0x0100\n      dup1\n      dup4\n      sload\n      div\n      mul\n      dup4\n      mstore\n      swap2\n      0x20\n      add\n      swap2\n      jump(tag_260)\n    tag_261:\n      dup3\n      add\n      swap2\n      swap1\n      0x00\n      mstore\n      keccak256(0x00, 0x20)\n      swap1\n    tag_262:\n      dup2\n      sload\n      dup2\n      mstore\n      swap1\n      0x01\n      add\n      swap1\n      0x20\n      add\n      dup1\n      dup4\n      gt\n      tag_262\n      jumpi\n      dup3\n      swap1\n      sub\n      0x1f\n      and\n      dup3\n      add\n      swap2\n    tag_260:\n      pop\n      pop\n      pop\n      pop\n      pop\n      swap1\n      pop\n        /* \"@openzeppelin/contracts/token/ERC721/ERC721.sol\":2518:2611  function symbol() public view virtual returns (string memory) {... */\n      swap1\n      jump\t// out\n        /* \"NFT Tokens/Tk5.sol\":793:820  uint public nftDistribution */\n    tag_141:\n      sload(0x11)\n      dup2\n      jump\t// out\n        /* \"NFT Tokens/Tk5.sol\":2233:2623  function distributeProfits(uint profit) public onlyTokenHolders {... */\n    tag_146:\n        /* \"NFT Tokens/Tk5.sol\":2699:2700  0 */\n      0x00\n        /* \"NFT Tokens/Tk5.sol\":2675:2696  balanceOf(msg.sender) */\n      tag_264\n        /* \"NFT Tokens/Tk5.sol\":2685:2695  msg.sender */\n      caller\n        /* \"NFT Tokens/Tk5.sol\":2675:2684  balanceOf */\n      tag_129\n        /* \"NFT Tokens/Tk5.sol\":2675:2696  balanceOf(msg.sender) */\n      jump\t// in\n    tag_264:\n        /* \"NFT Tokens/Tk5.sol\":2675:2700  balanceOf(msg.sender) > 0 */\n      gt\n        /* \"NFT Tokens/Tk5.sol\":2667:2747  require(balanceOf(msg.sender) > 0, \"Only guild members can perform this action\") */\n      tag_265\n      jumpi\n      mload(0x40)\n      0x08c379a000000000000000000000000000000000000000000000000000000000\n      dup2\n      mstore\n      0x04\n      add\n      tag_266\n      swap1\n      tag_267\n      jump\t// in\n    tag_266:\n      mload(0x40)\n      dup1\n      swap2\n      sub\n      swap1\n      revert\n    tag_265:\n        /* \"NFT Tokens/Tk5.sol\":2307:2323  uint totalTokens */\n      0x00\n        /* \"NFT Tokens/Tk5.sol\":2326:2339  totalSupply() */\n      tag_269\n        /* \"NFT Tokens/Tk5.sol\":2326:2337  totalSupply */\n      tag_80\n        /* \"NFT Tokens/Tk5.sol\":2326:2339  totalSupply() */\n      jump\t// in\n    tag_269:\n        /* \"NFT Tokens/Tk5.sol\":2307:2339  uint totalTokens = totalSupply() */\n      swap1\n      pop\n        /* \"NFT Tokens/Tk5.sol\":2354:2360  uint i */\n      0x00\n        /* \"NFT Tokens/Tk5.sol\":2349:2617  for (uint i = 0; i < totalTokens; i++) {... */\n    tag_270:\n        /* \"NFT Tokens/Tk5.sol\":2370:2381  totalTokens */\n      dup2\n        /* \"NFT Tokens/Tk5.sol\":2366:2367  i */\n      dup2\n        /* \"NFT Tokens/Tk5.sol\":2366:2381  i < totalTokens */\n      lt\n        /* \"NFT Tokens/Tk5.sol\":2349:2617  for (uint i = 0; i < totalTokens; i++) {... */\n      iszero\n      tag_271\n      jumpi\n        /* \"NFT Tokens/Tk5.sol\":2402:2416  address member */\n      0x00\n        /* \"NFT Tokens/Tk5.sol\":2419:2429  ownerOf(i) */\n      tag_273\n        /* \"NFT Tokens/Tk5.sol\":2427:2428  i */\n      dup3\n        /* \"NFT Tokens/Tk5.sol\":2419:2426  ownerOf */\n      tag_119\n        /* \"NFT Tokens/Tk5.sol\":2419:2429  ownerOf(i) */\n      jump\t// in\n    tag_273:\n        /* \"NFT Tokens/Tk5.sol\":2402:2429  address member = ownerOf(i) */\n      swap1\n      pop\n        /* \"NFT Tokens/Tk5.sol\":2467:2468  0 */\n      0x00\n        /* \"NFT Tokens/Tk5.sol\":2447:2464  balanceOf(member) */\n      tag_274\n        /* \"NFT Tokens/Tk5.sol\":2457:2463  member */\n      dup3\n        /* \"NFT Tokens/Tk5.sol\":2447:2456  balanceOf */\n      tag_129\n        /* \"NFT Tokens/Tk5.sol\":2447:2464  balanceOf(member) */\n      jump\t// in\n    tag_274:\n        /* \"NFT Tokens/Tk5.sol\":2447:2468  balanceOf(member) > 0 */\n      gt\n        /* \"NFT Tokens/Tk5.sol\":2443:2607  if (balanceOf(member) > 0) {... */\n      iszero\n      tag_275\n      jumpi\n        /* \"NFT Tokens/Tk5.sol\":2488:2499  uint amount */\n      0x00\n        /* \"NFT Tokens/Tk5.sol\":2531:2542  totalTokens */\n      dup4\n        /* \"NFT Tokens/Tk5.sol\":2511:2528  balanceOf(member) */\n      tag_276\n        /* \"NFT Tokens/Tk5.sol\":2521:2527  member */\n      dup4\n        /* \"NFT Tokens/Tk5.sol\":2511:2520  balanceOf */\n      tag_129\n        /* \"NFT Tokens/Tk5.sol\":2511:2528  balanceOf(member) */\n      jump\t// in\n    tag_276:\n        /* \"NFT Tokens/Tk5.sol\":2502:2508  profit */\n      dup7\n        /* \"NFT Tokens/Tk5.sol\":2502:2528  profit * balanceOf(member) */\n      tag_277\n      swap2\n      swap1\n      tag_278\n      jump\t// in\n    tag_277:\n        /* \"NFT Tokens/Tk5.sol\":2502:2542  profit * balanceOf(member) / totalTokens */\n      tag_279\n      swap2\n      swap1\n      tag_280\n      jump\t// in\n    tag_279:\n        /* \"NFT Tokens/Tk5.sol\":2488:2542  uint amount = profit * balanceOf(member) / totalTokens */\n      swap1\n      pop\n        /* \"NFT Tokens/Tk5.sol\":2568:2574  member */\n      dup2\n        /* \"NFT Tokens/Tk5.sol\":2560:2584  payable(member).transfer */\n      0xffffffffffffffffffffffffffffffffffffffff\n      and\n        /* \"NFT Tokens/Tk5.sol\":2560:2592  payable(member).transfer(amount) */\n      0x08fc\n        /* \"NFT Tokens/Tk5.sol\":2585:2591  amount */\n      dup3\n        /* \"NFT Tokens/Tk5.sol\":2560:2592  payable(member).transfer(amount) */\n      swap1\n      dup2\n      iszero\n      mul\n      swap1\n      mload(0x40)\n      0x00\n      mload(0x40)\n      dup1\n      dup4\n      sub\n      dup2\n      dup6\n      dup9\n      dup9\n      call\n      swap4\n      pop\n      pop\n      pop\n      pop\n      iszero\n      dup1\n      iszero\n      tag_282\n      jumpi\n      returndatasize\n      0x00\n      dup1\n      returndatacopy\n      revert(0x00, returndatasize)\n    tag_282:\n      pop\n        /* \"NFT Tokens/Tk5.sol\":2470:2607  {... */\n      pop\n        /* \"NFT Tokens/Tk5.sol\":2443:2607  if (balanceOf(member) > 0) {... */\n    tag_275:\n        /* \"NFT Tokens/Tk5.sol\":2388:2617  {... */\n      pop\n        /* \"NFT Tokens/Tk5.sol\":2383:2386  i++ */\n      dup1\n      dup1\n      0x01\n      add\n      swap2\n      pop\n      pop\n        /* \"NFT Tokens/Tk5.sol\":2349:2617  for (uint i = 0; i < totalTokens; i++) {... */\n      jump(tag_270)\n    tag_271:\n      pop\n        /* \"NFT Tokens/Tk5.sol\":2297:2623  {... */\n      pop\n        /* \"NFT Tokens/Tk5.sol\":2233:2623  function distributeProfits(uint profit) public onlyTokenHolders {... */\n      pop\n      jump\t// out\n        /* \"@openzeppelin/contracts/token/ERC721/ERC721.sol\":3718:3862  function setApprovalForAll(address operator, bool approved) public virtual {... */\n    tag_151:\n        /* \"@openzeppelin/contracts/token/ERC721/ERC721.sol\":3803:3855  _setApprovalForAll(_msgSender(), operator, approved) */\n      tag_284\n        /* \"@openzeppelin/contracts/token/ERC721/ERC721.sol\":3822:3834  _msgSender() */\n      tag_285\n        /* \"@openzeppelin/contracts/token/ERC721/ERC721.sol\":3822:3832  _msgSender */\n      tag_213\n        /* \"@openzeppelin/contracts/token/ERC721/ERC721.sol\":3822:3834  _msgSender() */\n      jump\t// in\n    tag_285:\n        /* \"@openzeppelin/contracts/token/ERC721/ERC721.sol\":3836:3844  operator */\n      dup4\n        /* \"@openzeppelin/contracts/token/ERC721/ERC721.sol\":3846:3854  approved */\n      dup4\n        /* \"@openzeppelin/contracts/token/ERC721/ERC721.sol\":3803:3821  _setApprovalForAll */\n      tag_286\n        /* \"@openzeppelin/contracts/token/ERC721/ERC721.sol\":3803:3855  _setApprovalForAll(_msgSender(), operator, approved) */\n      jump\t// in\n    tag_284:\n        /* \"@openzeppelin/contracts/token/ERC721/ERC721.sol\":3718:3862  function setApprovalForAll(address operator, bool approved) public virtual {... */\n      pop\n      pop\n      jump\t// out\n        /* \"NFT Tokens/Tk5.sol\":583:617  address payable public marketplace */\n    tag_154:\n      0x0a\n      0x00\n      swap1\n      sload\n      swap1\n      0x0100\n      exp\n      swap1\n      div\n      0xffffffffffffffffffffffffffffffffffffffff\n      and\n      dup2\n      jump\t// out\n        /* \"@openzeppelin/contracts/token/ERC721/ERC721.sol\":4985:5193  function safeTransferFrom(address from, address to, uint256 tokenId, bytes memory data) public virtual {... */\n    tag_161:\n        /* \"@openzeppelin/contracts/token/ERC721/ERC721.sol\":5098:5129  transferFrom(from, to, tokenId) */\n      tag_288\n        /* \"@openzeppelin/contracts/token/ERC721/ERC721.sol\":5111:5115  from */\n      dup5\n        /* \"@openzeppelin/contracts/token/ERC721/ERC721.sol\":5117:5119  to */\n      dup5\n        /* \"@openzeppelin/contracts/token/ERC721/ERC721.sol\":5121:5128  tokenId */\n      dup5\n        /* \"@openzeppelin/contracts/token/ERC721/ERC721.sol\":5098:5110  transferFrom */\n      tag_86\n        /* \"@openzeppelin/contracts/token/ERC721/ERC721.sol\":5098:5129  transferFrom(from, to, tokenId) */\n      jump\t// in\n    tag_288:\n        /* \"@openzeppelin/contracts/token/ERC721/ERC721.sol\":5139:5186  _checkOnERC721Received(from, to, tokenId, data) */\n      tag_289\n        /* \"@openzeppelin/contracts/token/ERC721/ERC721.sol\":5162:5166  from */\n      dup5\n        /* \"@openzeppelin/contracts/token/ERC721/ERC721.sol\":5168:5170  to */\n      dup5\n        /* \"@openzeppelin/contracts/token/ERC721/ERC721.sol\":5172:5179  tokenId */\n      dup5\n        /* \"@openzeppelin/contracts/token/ERC721/ERC721.sol\":5181:5185  data */\n      dup5\n        /* \"@openzeppelin/contracts/token/ERC721/ERC721.sol\":5139:5161  _checkOnERC721Received */\n      tag_290\n        /* \"@openzeppelin/contracts/token/ERC721/ERC721.sol\":5139:5186  _checkOnERC721Received(from, to, tokenId, data) */\n      jump\t// in\n    tag_289:\n        /* \"@openzeppelin/contracts/token/ERC721/ERC721.sol\":4985:5193  function safeTransferFrom(address from, address to, uint256 tokenId, bytes memory data) public virtual {... */\n      pop\n      pop\n      pop\n      pop\n      jump\t// out\n        /* \"NFT Tokens/Tk5.sol\":552:577  uint public membershipFee */\n    tag_164:\n      sload(0x09)\n      dup2\n      jump\t// out\n        /* \"@openzeppelin/contracts/token/ERC721/ERC721.sol\":2677:2932  function tokenURI(uint256 tokenId) public view virtual returns (string memory) {... */\n    tag_169:\n        /* \"@openzeppelin/contracts/token/ERC721/ERC721.sol\":2741:2754  string memory */\n      0x60\n        /* \"@openzeppelin/contracts/token/ERC721/ERC721.sol\":2766:2788  _requireOwned(tokenId) */\n      tag_292\n        /* \"@openzeppelin/contracts/token/ERC721/ERC721.sol\":2780:2787  tokenId */\n      dup3\n        /* \"@openzeppelin/contracts/token/ERC721/ERC721.sol\":2766:2779  _requireOwned */\n      tag_207\n        /* \"@openzeppelin/contracts/token/ERC721/ERC721.sol\":2766:2788  _requireOwned(tokenId) */\n      jump\t// in\n    tag_292:\n      pop\n        /* \"@openzeppelin/contracts/token/ERC721/ERC721.sol\":2799:2820  string memory baseURI */\n      0x00\n        /* \"@openzeppelin/contracts/token/ERC721/ERC721.sol\":2823:2833  _baseURI() */\n      tag_293\n        /* \"@openzeppelin/contracts/token/ERC721/ERC721.sol\":2823:2831  _baseURI */\n      tag_294\n        /* \"@openzeppelin/contracts/token/ERC721/ERC721.sol\":2823:2833  _baseURI() */\n      jump\t// in\n    tag_293:\n        /* \"@openzeppelin/contracts/token/ERC721/ERC721.sol\":2799:2833  string memory baseURI = _baseURI() */\n      swap1\n      pop\n        /* \"@openzeppelin/contracts/token/ERC721/ERC721.sol\":2874:2875  0 */\n      0x00\n        /* \"@openzeppelin/contracts/token/ERC721/ERC721.sol\":2856:2863  baseURI */\n      dup2\n        /* \"@openzeppelin/contracts/token/ERC721/ERC721.sol\":2850:2871  bytes(baseURI).length */\n      mload\n        /* \"@openzeppelin/contracts/token/ERC721/ERC721.sol\":2850:2875  bytes(baseURI).length > 0 */\n      gt\n        /* \"@openzeppelin/contracts/token/ERC721/ERC721.sol\":2850:2925  bytes(baseURI).length > 0 ? string.concat(baseURI, tokenId.toString()) : \"\" */\n      tag_295\n      jumpi\n      mload(0x40)\n      dup1\n      0x20\n      add\n      0x40\n      mstore\n      dup1\n      0x00\n      dup2\n      mstore\n      pop\n      jump(tag_296)\n    tag_295:\n        /* \"@openzeppelin/contracts/token/ERC721/ERC721.sol\":2892:2899  baseURI */\n      dup1\n        /* \"@openzeppelin/contracts/token/ERC721/ERC721.sol\":2901:2919  tokenId.toString() */\n      tag_297\n        /* \"@openzeppelin/contracts/token/ERC721/ERC721.sol\":2901:2908  tokenId */\n      dup5\n        /* \"@openzeppelin/contracts/token/ERC721/ERC721.sol\":2901:2917  tokenId.toString */\n      tag_298\n        /* \"@openzeppelin/contracts/token/ERC721/ERC721.sol\":2901:2919  tokenId.toString() */\n      jump\t// in\n    tag_297:\n        /* \"@openzeppelin/contracts/token/ERC721/ERC721.sol\":2878:2920  string.concat(baseURI, tokenId.toString()) */\n      add(0x20, mload(0x40))\n      tag_299\n      swap3\n      swap2\n      swap1\n      tag_300\n      jump\t// in\n    tag_299:\n      mload(0x40)\n      0x20\n      dup2\n      dup4\n      sub\n      sub\n      dup2\n      mstore\n      swap1\n      0x40\n      mstore\n        /* \"@openzeppelin/contracts/token/ERC721/ERC721.sol\":2850:2925  bytes(baseURI).length > 0 ? string.concat(baseURI, tokenId.toString()) : \"\" */\n    tag_296:\n        /* \"@openzeppelin/contracts/token/ERC721/ERC721.sol\":2843:2925  return bytes(baseURI).length > 0 ? string.concat(baseURI, tokenId.toString()) : \"\" */\n      swap2\n      pop\n      pop\n        /* \"@openzeppelin/contracts/token/ERC721/ERC721.sol\":2677:2932  function tokenURI(uint256 tokenId) public view virtual returns (string memory) {... */\n      swap2\n      swap1\n      pop\n      jump\t// out\n        /* \"NFT Tokens/Tk5.sol\":761:787  uint public totalNFTSupply */\n    tag_173:\n      sload(0x10)\n      dup2\n      jump\t// out\n        /* \"@openzeppelin/contracts/token/ERC721/ERC721.sol\":3928:4081  function isApprovedForAll(address owner, address operator) public view virtual returns (bool) {... */\n    tag_179:\n        /* \"@openzeppelin/contracts/token/ERC721/ERC721.sol\":4016:4020  bool */\n      0x00\n        /* \"@openzeppelin/contracts/token/ERC721/ERC721.sol\":4039:4057  _operatorApprovals */\n      0x05\n        /* \"@openzeppelin/contracts/token/ERC721/ERC721.sol\":4039:4064  _operatorApprovals[owner] */\n      0x00\n        /* \"@openzeppelin/contracts/token/ERC721/ERC721.sol\":4058:4063  owner */\n      dup5\n        /* \"@openzeppelin/contracts/token/ERC721/ERC721.sol\":4039:4064  _operatorApprovals[owner] */\n      0xffffffffffffffffffffffffffffffffffffffff\n      and\n      0xffffffffffffffffffffffffffffffffffffffff\n      and\n      dup2\n      mstore\n      0x20\n      add\n      swap1\n      dup2\n      mstore\n      0x20\n      add\n      0x00\n      keccak256\n        /* \"@openzeppelin/contracts/token/ERC721/ERC721.sol\":4039:4074  _operatorApprovals[owner][operator] */\n      0x00\n        /* \"@openzeppelin/contracts/token/ERC721/ERC721.sol\":4065:4073  operator */\n      dup4\n        /* \"@openzeppelin/contracts/token/ERC721/ERC721.sol\":4039:4074  _operatorApprovals[owner][operator] */\n      0xffffffffffffffffffffffffffffffffffffffff\n      and\n      0xffffffffffffffffffffffffffffffffffffffff\n      and\n      dup2\n      mstore\n      0x20\n      add\n      swap1\n      dup2\n      mstore\n      0x20\n      add\n      0x00\n      keccak256\n      0x00\n      swap1\n      sload\n      swap1\n      0x0100\n      exp\n      swap1\n      div\n      0xff\n      and\n        /* \"@openzeppelin/contracts/token/ERC721/ERC721.sol\":4032:4074  return _operatorApprovals[owner][operator] */\n      swap1\n      pop\n        /* \"@openzeppelin/contracts/token/ERC721/ERC721.sol\":3928:4081  function isApprovedForAll(address owner, address operator) public view virtual returns (bool) {... */\n      swap3\n      swap2\n      pop\n      pop\n      jump\t// out\n        /* \"NFT Tokens/Tk5.sol\":908:953  address payable public nftDistributionAddress */\n    tag_183:\n      0x14\n      0x00\n      swap1\n      sload\n      swap1\n      0x0100\n      exp\n      swap1\n      div\n      0xffffffffffffffffffffffffffffffffffffffff\n      and\n      dup2\n      jump\t// out\n        /* \"NFT Tokens/Tk5.sol\":1175:1433  function distributeNFT() public {... */\n    tag_187:\n        /* \"NFT Tokens/Tk5.sol\":1282:1285  100 */\n      0x64\n        /* \"NFT Tokens/Tk5.sol\":1254:1279  nftDistributionPercentage */\n      sload(0x12)\n        /* \"NFT Tokens/Tk5.sol\":1241:1251  nftBalance */\n      sload(0x0f)\n        /* \"NFT Tokens/Tk5.sol\":1241:1279  nftBalance * nftDistributionPercentage */\n      tag_303\n      swap2\n      swap1\n      tag_278\n      jump\t// in\n    tag_303:\n        /* \"NFT Tokens/Tk5.sol\":1241:1285  nftBalance * nftDistributionPercentage / 100 */\n      tag_304\n      swap2\n      swap1\n      tag_280\n      jump\t// in\n    tag_304:\n        /* \"NFT Tokens/Tk5.sol\":1217:1238  nftDistributionAmount */\n      0x13\n        /* \"NFT Tokens/Tk5.sol\":1217:1285  nftDistributionAmount = nftBalance * nftDistributionPercentage / 100 */\n      dup2\n      swap1\n      sstore\n      pop\n        /* \"NFT Tokens/Tk5.sol\":1295:1317  nftDistributionAddress */\n      0x14\n      0x00\n      swap1\n      sload\n      swap1\n      0x0100\n      exp\n      swap1\n      div\n      0xffffffffffffffffffffffffffffffffffffffff\n      and\n        /* \"NFT Tokens/Tk5.sol\":1295:1326  nftDistributionAddress.transfer */\n      0xffffffffffffffffffffffffffffffffffffffff\n      and\n        /* \"NFT Tokens/Tk5.sol\":1295:1349  nftDistributionAddress.transfer(nftDistributionAmount) */\n      0x08fc\n        /* \"NFT Tokens/Tk5.sol\":1327:1348  nftDistributionAmount */\n      sload(0x13)\n        /* \"NFT Tokens/Tk5.sol\":1295:1349  nftDistributionAddress.transfer(nftDistributionAmount) */\n      swap1\n      dup2\n      iszero\n      mul\n      swap1\n      mload(0x40)\n      0x00\n      mload(0x40)\n      dup1\n      dup4\n      sub\n      dup2\n      dup6\n      dup9\n      dup9\n      call\n      swap4\n      pop\n      pop\n      pop\n      pop\n      iszero\n      dup1\n      iszero\n      tag_306\n      jumpi\n      returndatasize\n      0x00\n      dup1\n      returndatacopy\n      revert(0x00, returndatasize)\n    tag_306:\n      pop\n        /* \"NFT Tokens/Tk5.sol\":1364:1426  NFTDistribution(nftDistributionAmount, nftDistributionAddress) */\n      0x72be57c44bdcdf29e3bded0b32580b641d4c7f1e2d1cd7aba457fe552b351aaf\n        /* \"NFT Tokens/Tk5.sol\":1380:1401  nftDistributionAmount */\n      sload(0x13)\n        /* \"NFT Tokens/Tk5.sol\":1403:1425  nftDistributionAddress */\n      0x14\n      0x00\n      swap1\n      sload\n      swap1\n      0x0100\n      exp\n      swap1\n      div\n      0xffffffffffffffffffffffffffffffffffffffff\n      and\n        /* \"NFT Tokens/Tk5.sol\":1364:1426  NFTDistribution(nftDistributionAmount, nftDistributionAddress) */\n      mload(0x40)\n      tag_307\n      swap3\n      swap2\n      swap1\n      tag_308\n      jump\t// in\n    tag_307:\n      mload(0x40)\n      dup1\n      swap2\n      sub\n      swap1\n      log1\n        /* \"NFT Tokens/Tk5.sol\":1175:1433  function distributeNFT() public {... */\n      jump\t// out\n        /* \"@openzeppelin/contracts/utils/introspection/ERC165.sol\":762:908  function supportsInterface(bytes4 interfaceId) public view virtual returns (bool) {... */\n    tag_198:\n        /* \"@openzeppelin/contracts/utils/introspection/ERC165.sol\":838:842  bool */\n      0x00\n        /* \"@openzeppelin/contracts/utils/introspection/ERC165.sol\":876:901  type(IERC165).interfaceId */\n      0x01ffc9a700000000000000000000000000000000000000000000000000000000\n        /* \"@openzeppelin/contracts/utils/introspection/ERC165.sol\":861:901  interfaceId == type(IERC165).interfaceId */\n      not(0xffffffffffffffffffffffffffffffffffffffffffffffffffffffff)\n      and\n        /* \"@openzeppelin/contracts/utils/introspection/ERC165.sol\":861:872  interfaceId */\n      dup3\n        /* \"@openzeppelin/contracts/utils/introspection/ERC165.sol\":861:901  interfaceId == type(IERC165).interfaceId */\n      not(0xffffffffffffffffffffffffffffffffffffffffffffffffffffffff)\n      and\n      eq\n        /* \"@openzeppelin/contracts/utils/introspection/ERC165.sol\":854:901  return interfaceId == type(IERC165).interfaceId */\n      swap1\n      pop\n        /* \"@openzeppelin/contracts/utils/introspection/ERC165.sol\":762:908  function supportsInterface(bytes4 interfaceId) public view virtual returns (bool) {... */\n      swap2\n      swap1\n      pop\n      jump\t// out\n        /* \"@openzeppelin/contracts/token/ERC721/ERC721.sol\":16138:16379  function _requireOwned(uint256 tokenId) internal view returns (address) {... */\n    tag_207:\n        /* \"@openzeppelin/contracts/token/ERC721/ERC721.sol\":16201:16208  address */\n      0x00\n        /* \"@openzeppelin/contracts/token/ERC721/ERC721.sol\":16220:16233  address owner */\n      dup1\n        /* \"@openzeppelin/contracts/token/ERC721/ERC721.sol\":16236:16253  _ownerOf(tokenId) */\n      tag_311\n        /* \"@openzeppelin/contracts/token/ERC721/ERC721.sol\":16245:16252  tokenId */\n      dup4\n        /* \"@openzeppelin/contracts/token/ERC721/ERC721.sol\":16236:16244  _ownerOf */\n      tag_245\n        /* \"@openzeppelin/contracts/token/ERC721/ERC721.sol\":16236:16253  _ownerOf(tokenId) */\n      jump\t// in\n    tag_311:\n        /* \"@openzeppelin/contracts/token/ERC721/ERC721.sol\":16220:16253  address owner = _ownerOf(tokenId) */\n      swap1\n      pop\n        /* \"@openzeppelin/contracts/token/ERC721/ERC721.sol\":16284:16285  0 */\n      0x00\n        /* \"@openzeppelin/contracts/token/ERC721/ERC721.sol\":16267:16286  owner == address(0) */\n      0xffffffffffffffffffffffffffffffffffffffff\n      and\n        /* \"@openzeppelin/contracts/token/ERC721/ERC721.sol\":16267:16272  owner */\n      dup2\n        /* \"@openzeppelin/contracts/token/ERC721/ERC721.sol\":16267:16286  owner == address(0) */\n      0xffffffffffffffffffffffffffffffffffffffff\n      and\n      sub\n        /* \"@openzeppelin/contracts/token/ERC721/ERC721.sol\":16263:16351  if (owner == address(0)) {... */\n      tag_312\n      jumpi\n        /* \"@openzeppelin/contracts/token/ERC721/ERC721.sol\":16332:16339  tokenId */\n      dup3\n        /* \"@openzeppelin/contracts/token/ERC721/ERC721.sol\":16309:16340  ERC721NonexistentToken(tokenId) */\n      mload(0x40)\n      0x7e27328900000000000000000000000000000000000000000000000000000000\n      dup2\n      mstore\n      0x04\n      add\n      tag_313\n      swap2\n      swap1\n      tag_77\n      jump\t// in\n    tag_313:\n      mload(0x40)\n      dup1\n      swap2\n      sub\n      swap1\n      revert\n        /* \"@openzeppelin/contracts/token/ERC721/ERC721.sol\":16263:16351  if (owner == address(0)) {... */\n    tag_312:\n        /* \"@openzeppelin/contracts/token/ERC721/ERC721.sol\":16367:16372  owner */\n      dup1\n        /* \"@openzeppelin/contracts/token/ERC721/ERC721.sol\":16360:16372  return owner */\n      swap2\n      pop\n      pop\n        /* \"@openzeppelin/contracts/token/ERC721/ERC721.sol\":16138:16379  function _requireOwned(uint256 tokenId) internal view returns (address) {... */\n      swap2\n      swap1\n      pop\n      jump\t// out\n        /* \"@openzeppelin/contracts/token/ERC721/ERC721.sol\":5938:6065  function _getApproved(uint256 tokenId) internal view virtual returns (address) {... */\n    tag_209:\n        /* \"@openzeppelin/contracts/token/ERC721/ERC721.sol\":6008:6015  address */\n      0x00\n        /* \"@openzeppelin/contracts/token/ERC721/ERC721.sol\":6034:6049  _tokenApprovals */\n      0x04\n        /* \"@openzeppelin/contracts/token/ERC721/ERC721.sol\":6034:6058  _tokenApprovals[tokenId] */\n      0x00\n        /* \"@openzeppelin/contracts/token/ERC721/ERC721.sol\":6050:6057  tokenId */\n      dup4\n        /* \"@openzeppelin/contracts/token/ERC721/ERC721.sol\":6034:6058  _tokenApprovals[tokenId] */\n      dup2\n      mstore\n      0x20\n      add\n      swap1\n      dup2\n      mstore\n      0x20\n      add\n      0x00\n      keccak256\n      0x00\n      swap1\n      sload\n      swap1\n      0x0100\n      exp\n      swap1\n      div\n      0xffffffffffffffffffffffffffffffffffffffff\n      and\n        /* \"@openzeppelin/contracts/token/ERC721/ERC721.sol\":6027:6058  return _tokenApprovals[tokenId] */\n      swap1\n      pop\n        /* \"@openzeppelin/contracts/token/ERC721/ERC721.sol\":5938:6065  function _getApproved(uint256 tokenId) internal view virtual returns (address) {... */\n      swap2\n      swap1\n      pop\n      jump\t// out\n        /* \"@openzeppelin/contracts/utils/Context.sol\":656:752  function _msgSender() internal view virtual returns (address) {... */\n    tag_213:\n        /* \"@openzeppelin/contracts/utils/Context.sol\":709:716  address */\n      0x00\n        /* \"@openzeppelin/contracts/utils/Context.sol\":735:745  msg.sender */\n      caller\n        /* \"@openzeppelin/contracts/utils/Context.sol\":728:745  return msg.sender */\n      swap1\n      pop\n        /* \"@openzeppelin/contracts/utils/Context.sol\":656:752  function _msgSender() internal view virtual returns (address) {... */\n      swap1\n      jump\t// out\n        /* \"@openzeppelin/contracts/token/ERC721/ERC721.sol\":14418:14538  function _approve(address to, uint256 tokenId, address auth) internal {... */\n    tag_214:\n        /* \"@openzeppelin/contracts/token/ERC721/ERC721.sol\":14498:14531  _approve(to, tokenId, auth, true) */\n      tag_317\n        /* \"@openzeppelin/contracts/token/ERC721/ERC721.sol\":14507:14509  to */\n      dup4\n        /* \"@openzeppelin/contracts/token/ERC721/ERC721.sol\":14511:14518  tokenId */\n      dup4\n        /* \"@openzeppelin/contracts/token/ERC721/ERC721.sol\":14520:14524  auth */\n      dup4\n        /* \"@openzeppelin/contracts/token/ERC721/ERC721.sol\":14526:14530  true */\n      0x01\n        /* \"@openzeppelin/contracts/token/ERC721/ERC721.sol\":14498:14506  _approve */\n      tag_318\n        /* \"@openzeppelin/contracts/token/ERC721/ERC721.sol\":14498:14531  _approve(to, tokenId, auth, true) */\n      jump\t// in\n    tag_317:\n        /* \"@openzeppelin/contracts/token/ERC721/ERC721.sol\":14418:14538  function _approve(address to, uint256 tokenId, address auth) internal {... */\n      pop\n      pop\n      pop\n      jump\t// out\n        /* \"@openzeppelin/contracts/token/ERC721/ERC721.sol\":9955:10282  function _mint(address to, uint256 tokenId) internal {... */\n    tag_222:\n        /* \"@openzeppelin/contracts/token/ERC721/ERC721.sol\":10036:10037  0 */\n      0x00\n        /* \"@openzeppelin/contracts/token/ERC721/ERC721.sol\":10022:10038  to == address(0) */\n      0xffffffffffffffffffffffffffffffffffffffff\n      and\n        /* \"@openzeppelin/contracts/token/ERC721/ERC721.sol\":10022:10024  to */\n      dup3\n        /* \"@openzeppelin/contracts/token/ERC721/ERC721.sol\":10022:10038  to == address(0) */\n      0xffffffffffffffffffffffffffffffffffffffff\n      and\n      sub\n        /* \"@openzeppelin/contracts/token/ERC721/ERC721.sol\":10018:10105  if (to == address(0)) {... */\n      tag_320\n      jumpi\n        /* \"@openzeppelin/contracts/token/ERC721/ERC721.sol\":10091:10092  0 */\n      0x00\n        /* \"@openzeppelin/contracts/token/ERC721/ERC721.sol\":10061:10094  ERC721InvalidReceiver(address(0)) */\n      mload(0x40)\n      0x64a0ae9200000000000000000000000000000000000000000000000000000000\n      dup2\n      mstore\n      0x04\n      add\n      tag_321\n      swap2\n      swap1\n      tag_63\n      jump\t// in\n    tag_321:\n      mload(0x40)\n      dup1\n      swap2\n      sub\n      swap1\n      revert\n        /* \"@openzeppelin/contracts/token/ERC721/ERC721.sol\":10018:10105  if (to == address(0)) {... */\n    tag_320:\n        /* \"@openzeppelin/contracts/token/ERC721/ERC721.sol\":10114:10135  address previousOwner */\n      0x00\n        /* \"@openzeppelin/contracts/token/ERC721/ERC721.sol\":10138:10170  _update(to, tokenId, address(0)) */\n      tag_322\n        /* \"@openzeppelin/contracts/token/ERC721/ERC721.sol\":10146:10148  to */\n      dup4\n        /* \"@openzeppelin/contracts/token/ERC721/ERC721.sol\":10150:10157  tokenId */\n      dup4\n        /* \"@openzeppelin/contracts/token/ERC721/ERC721.sol\":10167:10168  0 */\n      0x00\n        /* \"@openzeppelin/contracts/token/ERC721/ERC721.sol\":10138:10145  _update */\n      tag_235\n        /* \"@openzeppelin/contracts/token/ERC721/ERC721.sol\":10138:10170  _update(to, tokenId, address(0)) */\n      jump\t// in\n    tag_322:\n        /* \"@openzeppelin/contracts/token/ERC721/ERC721.sol\":10114:10170  address previousOwner = _update(to, tokenId, address(0)) */\n      swap1\n      pop\n        /* \"@openzeppelin/contracts/token/ERC721/ERC721.sol\":10209:10210  0 */\n      0x00\n        /* \"@openzeppelin/contracts/token/ERC721/ERC721.sol\":10184:10211  previousOwner != address(0) */\n      0xffffffffffffffffffffffffffffffffffffffff\n      and\n        /* \"@openzeppelin/contracts/token/ERC721/ERC721.sol\":10184:10197  previousOwner */\n      dup2\n        /* \"@openzeppelin/contracts/token/ERC721/ERC721.sol\":10184:10211  previousOwner != address(0) */\n      0xffffffffffffffffffffffffffffffffffffffff\n      and\n      eq\n        /* \"@openzeppelin/contracts/token/ERC721/ERC721.sol\":10180:10276  if (previousOwner != address(0)) {... */\n      tag_323\n      jumpi\n        /* \"@openzeppelin/contracts/token/ERC721/ERC721.sol\":10262:10263  0 */\n      0x00\n        /* \"@openzeppelin/contracts/token/ERC721/ERC721.sol\":10234:10265  ERC721InvalidSender(address(0)) */\n      mload(0x40)\n      0x73c6ac6e00000000000000000000000000000000000000000000000000000000\n      dup2\n      mstore\n      0x04\n      add\n      tag_324\n      swap2\n      swap1\n      tag_63\n      jump\t// in\n    tag_324:\n      mload(0x40)\n      dup1\n      swap2\n      sub\n      swap1\n      revert\n        /* \"@openzeppelin/contracts/token/ERC721/ERC721.sol\":10180:10276  if (previousOwner != address(0)) {... */\n    tag_323:\n        /* \"@openzeppelin/contracts/token/ERC721/ERC721.sol\":10008:10282  {... */\n      pop\n        /* \"@openzeppelin/contracts/token/ERC721/ERC721.sol\":9955:10282  function _mint(address to, uint256 tokenId) internal {... */\n      pop\n      pop\n      jump\t// out\n        /* \"NFT Tokens/Tk5.sol\":1047:1169  function _setTokenURI(uint256 tokenId, string memory _tokenURI) internal {... */\n    tag_224:\n        /* \"NFT Tokens/Tk5.sol\":1130:1162  _setTokenURI(tokenId, _tokenURI) */\n      tag_326\n        /* \"NFT Tokens/Tk5.sol\":1143:1150  tokenId */\n      dup3\n        /* \"NFT Tokens/Tk5.sol\":1152:1161  _tokenURI */\n      dup3\n        /* \"NFT Tokens/Tk5.sol\":1130:1142  _setTokenURI */\n      tag_224\n        /* \"NFT Tokens/Tk5.sol\":1130:1162  _setTokenURI(tokenId, _tokenURI) */\n      jump\t// in\n    tag_326:\n        /* \"NFT Tokens/Tk5.sol\":1047:1169  function _setTokenURI(uint256 tokenId, string memory _tokenURI) internal {... */\n      pop\n      pop\n      jump\t// out\n        /* \"@openzeppelin/contracts/utils/Counters.sol\":827:939  function current(Counter storage counter) internal view returns (uint256) {... */\n    tag_229:\n        /* \"@openzeppelin/contracts/utils/Counters.sol\":892:899  uint256 */\n      0x00\n        /* \"@openzeppelin/contracts/utils/Counters.sol\":918:925  counter */\n      dup2\n        /* \"@openzeppelin/contracts/utils/Counters.sol\":918:932  counter._value */\n      0x00\n      add\n      sload\n        /* \"@openzeppelin/contracts/utils/Counters.sol\":911:932  return counter._value */\n      swap1\n      pop\n        /* \"@openzeppelin/contracts/utils/Counters.sol\":827:939  function current(Counter storage counter) internal view returns (uint256) {... */\n      swap2\n      swap1\n      pop\n      jump\t// out\n        /* \"@openzeppelin/contracts/token/ERC721/ERC721.sol\":8838:9633  function _update(address to, uint256 tokenId, address auth) internal virtual returns (address) {... */\n    tag_235:\n        /* \"@openzeppelin/contracts/token/ERC721/ERC721.sol\":8924:8931  address */\n      0x00\n        /* \"@openzeppelin/contracts/token/ERC721/ERC721.sol\":8943:8955  address from */\n      dup1\n        /* \"@openzeppelin/contracts/token/ERC721/ERC721.sol\":8958:8975  _ownerOf(tokenId) */\n      tag_329\n        /* \"@openzeppelin/contracts/token/ERC721/ERC721.sol\":8967:8974  tokenId */\n      dup5\n        /* \"@openzeppelin/contracts/token/ERC721/ERC721.sol\":8958:8966  _ownerOf */\n      tag_245\n        /* \"@openzeppelin/contracts/token/ERC721/ERC721.sol\":8958:8975  _ownerOf(tokenId) */\n      jump\t// in\n    tag_329:\n        /* \"@openzeppelin/contracts/token/ERC721/ERC721.sol\":8943:8975  address from = _ownerOf(tokenId) */\n      swap1\n      pop\n        /* \"@openzeppelin/contracts/token/ERC721/ERC721.sol\":9051:9052  0 */\n      0x00\n        /* \"@openzeppelin/contracts/token/ERC721/ERC721.sol\":9035:9053  auth != address(0) */\n      0xffffffffffffffffffffffffffffffffffffffff\n      and\n        /* \"@openzeppelin/contracts/token/ERC721/ERC721.sol\":9035:9039  auth */\n      dup4\n        /* \"@openzeppelin/contracts/token/ERC721/ERC721.sol\":9035:9053  auth != address(0) */\n      0xffffffffffffffffffffffffffffffffffffffff\n      and\n      eq\n        /* \"@openzeppelin/contracts/token/ERC721/ERC721.sol\":9031:9117  if (auth != address(0)) {... */\n      tag_330\n      jumpi\n        /* \"@openzeppelin/contracts/token/ERC721/ERC721.sol\":9069:9106  _checkAuthorized(from, auth, tokenId) */\n      tag_331\n        /* \"@openzeppelin/contracts/token/ERC721/ERC721.sol\":9086:9090  from */\n      dup2\n        /* \"@openzeppelin/contracts/token/ERC721/ERC721.sol\":9092:9096  auth */\n      dup5\n        /* \"@openzeppelin/contracts/token/ERC721/ERC721.sol\":9098:9105  tokenId */\n      dup7\n        /* \"@openzeppelin/contracts/token/ERC721/ERC721.sol\":9069:9085  _checkAuthorized */\n      tag_332\n        /* \"@openzeppelin/contracts/token/ERC721/ERC721.sol\":9069:9106  _checkAuthorized(from, auth, tokenId) */\n      jump\t// in\n    tag_331:\n        /* \"@openzeppelin/contracts/token/ERC721/ERC721.sol\":9031:9117  if (auth != address(0)) {... */\n    tag_330:\n        /* \"@openzeppelin/contracts/token/ERC721/ERC721.sol\":9177:9178  0 */\n      0x00\n        /* \"@openzeppelin/contracts/token/ERC721/ERC721.sol\":9161:9179  from != address(0) */\n      0xffffffffffffffffffffffffffffffffffffffff\n      and\n        /* \"@openzeppelin/contracts/token/ERC721/ERC721.sol\":9161:9165  from */\n      dup2\n        /* \"@openzeppelin/contracts/token/ERC721/ERC721.sol\":9161:9179  from != address(0) */\n      0xffffffffffffffffffffffffffffffffffffffff\n      and\n      eq\n        /* \"@openzeppelin/contracts/token/ERC721/ERC721.sol\":9157:9413  if (from != address(0)) {... */\n      tag_333\n      jumpi\n        /* \"@openzeppelin/contracts/token/ERC721/ERC721.sol\":9277:9325  _approve(address(0), tokenId, address(0), false) */\n      tag_334\n        /* \"@openzeppelin/contracts/token/ERC721/ERC721.sol\":9294:9295  0 */\n      0x00\n        /* \"@openzeppelin/contracts/token/ERC721/ERC721.sol\":9298:9305  tokenId */\n      dup6\n        /* \"@openzeppelin/contracts/token/ERC721/ERC721.sol\":9315:9316  0 */\n      0x00\n        /* \"@openzeppelin/contracts/token/ERC721/ERC721.sol\":9319:9324  false */\n      dup1\n        /* \"@openzeppelin/contracts/token/ERC721/ERC721.sol\":9277:9285  _approve */\n      tag_318\n        /* \"@openzeppelin/contracts/token/ERC721/ERC721.sol\":9277:9325  _approve(address(0), tokenId, address(0), false) */\n      jump\t// in\n    tag_334:\n        /* \"@openzeppelin/contracts/token/ERC721/ERC721.sol\":9387:9388  1 */\n      0x01\n        /* \"@openzeppelin/contracts/token/ERC721/ERC721.sol\":9368:9377  _balances */\n      0x03\n        /* \"@openzeppelin/contracts/token/ERC721/ERC721.sol\":9368:9383  _balances[from] */\n      0x00\n        /* \"@openzeppelin/contracts/token/ERC721/ERC721.sol\":9378:9382  from */\n      dup4\n        /* \"@openzeppelin/contracts/token/ERC721/ERC721.sol\":9368:9383  _balances[from] */\n      0xffffffffffffffffffffffffffffffffffffffff\n      and\n      0xffffffffffffffffffffffffffffffffffffffff\n      and\n      dup2\n      mstore\n      0x20\n      add\n      swap1\n      dup2\n      mstore\n      0x20\n      add\n      0x00\n      keccak256\n      0x00\n        /* \"@openzeppelin/contracts/token/ERC721/ERC721.sol\":9368:9388  _balances[from] -= 1 */\n      dup3\n      dup3\n      sload\n      sub\n      swap3\n      pop\n      pop\n      dup2\n      swap1\n      sstore\n      pop\n        /* \"@openzeppelin/contracts/token/ERC721/ERC721.sol\":9157:9413  if (from != address(0)) {... */\n    tag_333:\n        /* \"@openzeppelin/contracts/token/ERC721/ERC721.sol\":9441:9442  0 */\n      0x00\n        /* \"@openzeppelin/contracts/token/ERC721/ERC721.sol\":9427:9443  to != address(0) */\n      0xffffffffffffffffffffffffffffffffffffffff\n      and\n        /* \"@openzeppelin/contracts/token/ERC721/ERC721.sol\":9427:9429  to */\n      dup6\n        /* \"@openzeppelin/contracts/token/ERC721/ERC721.sol\":9427:9443  to != address(0) */\n      0xffffffffffffffffffffffffffffffffffffffff\n      and\n      eq\n        /* \"@openzeppelin/contracts/token/ERC721/ERC721.sol\":9423:9530  if (to != address(0)) {... */\n      tag_335\n      jumpi\n        /* \"@openzeppelin/contracts/token/ERC721/ERC721.sol\":9504:9505  1 */\n      0x01\n        /* \"@openzeppelin/contracts/token/ERC721/ERC721.sol\":9487:9496  _balances */\n      0x03\n        /* \"@openzeppelin/contracts/token/ERC721/ERC721.sol\":9487:9500  _balances[to] */\n      0x00\n        /* \"@openzeppelin/contracts/token/ERC721/ERC721.sol\":9497:9499  to */\n      dup8\n        /* \"@openzeppelin/contracts/token/ERC721/ERC721.sol\":9487:9500  _balances[to] */\n      0xffffffffffffffffffffffffffffffffffffffff\n      and\n      0xffffffffffffffffffffffffffffffffffffffff\n      and\n      dup2\n      mstore\n      0x20\n      add\n      swap1\n      dup2\n      mstore\n      0x20\n      add\n      0x00\n      keccak256\n      0x00\n        /* \"@openzeppelin/contracts/token/ERC721/ERC721.sol\":9487:9505  _balances[to] += 1 */\n      dup3\n      dup3\n      sload\n      add\n      swap3\n      pop\n      pop\n      dup2\n      swap1\n      sstore\n      pop\n        /* \"@openzeppelin/contracts/token/ERC721/ERC721.sol\":9423:9530  if (to != address(0)) {... */\n    tag_335:\n        /* \"@openzeppelin/contracts/token/ERC721/ERC721.sol\":9559:9561  to */\n      dup5\n        /* \"@openzeppelin/contracts/token/ERC721/ERC721.sol\":9540:9547  _owners */\n      0x02\n        /* \"@openzeppelin/contracts/token/ERC721/ERC721.sol\":9540:9556  _owners[tokenId] */\n      0x00\n        /* \"@openzeppelin/contracts/token/ERC721/ERC721.sol\":9548:9555  tokenId */\n      dup7\n        /* \"@openzeppelin/contracts/token/ERC721/ERC721.sol\":9540:9556  _owners[tokenId] */\n      dup2\n      mstore\n      0x20\n      add\n      swap1\n      dup2\n      mstore\n      0x20\n      add\n      0x00\n      keccak256\n      0x00\n        /* \"@openzeppelin/contracts/token/ERC721/ERC721.sol\":9540:9561  _owners[tokenId] = to */\n      0x0100\n      exp\n      dup2\n      sload\n      dup2\n      0xffffffffffffffffffffffffffffffffffffffff\n      mul\n      not\n      and\n      swap1\n      dup4\n      0xffffffffffffffffffffffffffffffffffffffff\n      and\n      mul\n      or\n      swap1\n      sstore\n      pop\n        /* \"@openzeppelin/contracts/token/ERC721/ERC721.sol\":9596:9603  tokenId */\n      dup4\n        /* \"@openzeppelin/contracts/token/ERC721/ERC721.sol\":9592:9594  to */\n      dup6\n        /* \"@openzeppelin/contracts/token/ERC721/ERC721.sol\":9577:9604  Transfer(from, to, tokenId) */\n      0xffffffffffffffffffffffffffffffffffffffff\n      and\n        /* \"@openzeppelin/contracts/token/ERC721/ERC721.sol\":9586:9590  from */\n      dup3\n        /* \"@openzeppelin/contracts/token/ERC721/ERC721.sol\":9577:9604  Transfer(from, to, tokenId) */\n      0xffffffffffffffffffffffffffffffffffffffff\n      and\n      0xddf252ad1be2c89b69c2b068fc378daa952ba7f163c4a11628f55a4df523b3ef\n      mload(0x40)\n      mload(0x40)\n      dup1\n      swap2\n      sub\n      swap1\n      log4\n        /* \"@openzeppelin/contracts/token/ERC721/ERC721.sol\":9622:9626  from */\n      dup1\n        /* \"@openzeppelin/contracts/token/ERC721/ERC721.sol\":9615:9626  return from */\n      swap2\n      pop\n      pop\n        /* \"@openzeppelin/contracts/token/ERC721/ERC721.sol\":8838:9633  function _update(address to, uint256 tokenId, address auth) internal virtual returns (address) {... */\n      swap4\n      swap3\n      pop\n      pop\n      pop\n      jump\t// out\n        /* \"@openzeppelin/contracts/token/ERC721/ERC721.sol\":5707:5822  function _ownerOf(uint256 tokenId) internal view virtual returns (address) {... */\n    tag_245:\n        /* \"@openzeppelin/contracts/token/ERC721/ERC721.sol\":5773:5780  address */\n      0x00\n        /* \"@openzeppelin/contracts/token/ERC721/ERC721.sol\":5799:5806  _owners */\n      0x02\n        /* \"@openzeppelin/contracts/token/ERC721/ERC721.sol\":5799:5815  _owners[tokenId] */\n      0x00\n        /* \"@openzeppelin/contracts/token/ERC721/ERC721.sol\":5807:5814  tokenId */\n      dup4\n        /* \"@openzeppelin/contracts/token/ERC721/ERC721.sol\":5799:5815  _owners[tokenId] */\n      dup2\n      mstore\n      0x20\n      add\n      swap1\n      dup2\n      mstore\n      0x20\n      add\n      0x00\n      keccak256\n      0x00\n      swap1\n      sload\n      swap1\n      0x0100\n      exp\n      swap1\n      div\n      0xffffffffffffffffffffffffffffffffffffffff\n      and\n        /* \"@openzeppelin/contracts/token/ERC721/ERC721.sol\":5792:5815  return _owners[tokenId] */\n      swap1\n      pop\n        /* \"@openzeppelin/contracts/token/ERC721/ERC721.sol\":5707:5822  function _ownerOf(uint256 tokenId) internal view virtual returns (address) {... */\n      swap2\n      swap1\n      pop\n      jump\t// out\n        /* \"@openzeppelin/contracts/token/ERC721/ERC721.sol\":15591:15903  function _setApprovalForAll(address owner, address operator, bool approved) internal virtual {... */\n    tag_286:\n        /* \"@openzeppelin/contracts/token/ERC721/ERC721.sol\":15718:15719  0 */\n      0x00\n        /* \"@openzeppelin/contracts/token/ERC721/ERC721.sol\":15698:15720  operator == address(0) */\n      0xffffffffffffffffffffffffffffffffffffffff\n      and\n        /* \"@openzeppelin/contracts/token/ERC721/ERC721.sol\":15698:15706  operator */\n      dup3\n        /* \"@openzeppelin/contracts/token/ERC721/ERC721.sol\":15698:15720  operator == address(0) */\n      0xffffffffffffffffffffffffffffffffffffffff\n      and\n      sub\n        /* \"@openzeppelin/contracts/token/ERC721/ERC721.sol\":15694:15785  if (operator == address(0)) {... */\n      tag_338\n      jumpi\n        /* \"@openzeppelin/contracts/token/ERC721/ERC721.sol\":15765:15773  operator */\n      dup2\n        /* \"@openzeppelin/contracts/token/ERC721/ERC721.sol\":15743:15774  ERC721InvalidOperator(operator) */\n      mload(0x40)\n      0x5b08ba1800000000000000000000000000000000000000000000000000000000\n      dup2\n      mstore\n      0x04\n      add\n      tag_339\n      swap2\n      swap1\n      tag_63\n      jump\t// in\n    tag_339:\n      mload(0x40)\n      dup1\n      swap2\n      sub\n      swap1\n      revert\n        /* \"@openzeppelin/contracts/token/ERC721/ERC721.sol\":15694:15785  if (operator == address(0)) {... */\n    tag_338:\n        /* \"@openzeppelin/contracts/token/ERC721/ERC721.sol\":15832:15840  approved */\n      dup1\n        /* \"@openzeppelin/contracts/token/ERC721/ERC721.sol\":15794:15812  _operatorApprovals */\n      0x05\n        /* \"@openzeppelin/contracts/token/ERC721/ERC721.sol\":15794:15819  _operatorApprovals[owner] */\n      0x00\n        /* \"@openzeppelin/contracts/token/ERC721/ERC721.sol\":15813:15818  owner */\n      dup6\n        /* \"@openzeppelin/contracts/token/ERC721/ERC721.sol\":15794:15819  _operatorApprovals[owner] */\n      0xffffffffffffffffffffffffffffffffffffffff\n      and\n      0xffffffffffffffffffffffffffffffffffffffff\n      and\n      dup2\n      mstore\n      0x20\n      add\n      swap1\n      dup2\n      mstore\n      0x20\n      add\n      0x00\n      keccak256\n        /* \"@openzeppelin/contracts/token/ERC721/ERC721.sol\":15794:15829  _operatorApprovals[owner][operator] */\n      0x00\n        /* \"@openzeppelin/contracts/token/ERC721/ERC721.sol\":15820:15828  operator */\n      dup5\n        /* \"@openzeppelin/contracts/token/ERC721/ERC721.sol\":15794:15829  _operatorApprovals[owner][operator] */\n      0xffffffffffffffffffffffffffffffffffffffff\n      and\n      0xffffffffffffffffffffffffffffffffffffffff\n      and\n      dup2\n      mstore\n      0x20\n      add\n      swap1\n      dup2\n      mstore\n      0x20\n      add\n      0x00\n      keccak256\n      0x00\n        /* \"@openzeppelin/contracts/token/ERC721/ERC721.sol\":15794:15840  _operatorApprovals[owner][operator] = approved */\n      0x0100\n      exp\n      dup2\n      sload\n      dup2\n      0xff\n      mul\n      not\n      and\n      swap1\n      dup4\n      iszero\n      iszero\n      mul\n      or\n      swap1\n      sstore\n      pop\n        /* \"@openzeppelin/contracts/token/ERC721/ERC721.sol\":15877:15885  operator */\n      dup2\n        /* \"@openzeppelin/contracts/token/ERC721/ERC721.sol\":15855:15896  ApprovalForAll(owner, operator, approved) */\n      0xffffffffffffffffffffffffffffffffffffffff\n      and\n        /* \"@openzeppelin/contracts/token/ERC721/ERC721.sol\":15870:15875  owner */\n      dup4\n        /* \"@openzeppelin/contracts/token/ERC721/ERC721.sol\":15855:15896  ApprovalForAll(owner, operator, approved) */\n      0xffffffffffffffffffffffffffffffffffffffff\n      and\n      0x17307eab39ab6107e8899845ad3d59bd9653f200f220920489ca2b5937696c31\n        /* \"@openzeppelin/contracts/token/ERC721/ERC721.sol\":15887:15895  approved */\n      dup4\n        /* \"@openzeppelin/contracts/token/ERC721/ERC721.sol\":15855:15896  ApprovalForAll(owner, operator, approved) */\n      mload(0x40)\n      tag_340\n      swap2\n      swap1\n      tag_52\n      jump\t// in\n    tag_340:\n      mload(0x40)\n      dup1\n      swap2\n      sub\n      swap1\n      log3\n        /* \"@openzeppelin/contracts/token/ERC721/ERC721.sol\":15591:15903  function _setApprovalForAll(address owner, address operator, bool approved) internal virtual {... */\n      pop\n      pop\n      pop\n      jump\t// out\n        /* \"@openzeppelin/contracts/token/ERC721/ERC721.sol\":16918:17700  function _checkOnERC721Received(address from, address to, uint256 tokenId, bytes memory data) private {... */\n    tag_290:\n        /* \"@openzeppelin/contracts/token/ERC721/ERC721.sol\":17051:17052  0 */\n      0x00\n        /* \"@openzeppelin/contracts/token/ERC721/ERC721.sol\":17034:17036  to */\n      dup4\n        /* \"@openzeppelin/contracts/token/ERC721/ERC721.sol\":17034:17048  to.code.length */\n      0xffffffffffffffffffffffffffffffffffffffff\n      and\n      extcodesize\n        /* \"@openzeppelin/contracts/token/ERC721/ERC721.sol\":17034:17052  to.code.length > 0 */\n      gt\n        /* \"@openzeppelin/contracts/token/ERC721/ERC721.sol\":17030:17694  if (to.code.length > 0) {... */\n      iszero\n      tag_342\n      jumpi\n        /* \"@openzeppelin/contracts/token/ERC721/ERC721.sol\":17088:17090  to */\n      dup3\n        /* \"@openzeppelin/contracts/token/ERC721/ERC721.sol\":17072:17108  IERC721Receiver(to).onERC721Received */\n      0xffffffffffffffffffffffffffffffffffffffff\n      and\n      0x150b7a02\n        /* \"@openzeppelin/contracts/token/ERC721/ERC721.sol\":17109:17121  _msgSender() */\n      tag_343\n        /* \"@openzeppelin/contracts/token/ERC721/ERC721.sol\":17109:17119  _msgSender */\n      tag_213\n        /* \"@openzeppelin/contracts/token/ERC721/ERC721.sol\":17109:17121  _msgSender() */\n      jump\t// in\n    tag_343:\n        /* \"@openzeppelin/contracts/token/ERC721/ERC721.sol\":17123:17127  from */\n      dup7\n        /* \"@openzeppelin/contracts/token/ERC721/ERC721.sol\":17129:17136  tokenId */\n      dup6\n        /* \"@openzeppelin/contracts/token/ERC721/ERC721.sol\":17138:17142  data */\n      dup6\n        /* \"@openzeppelin/contracts/token/ERC721/ERC721.sol\":17072:17143  IERC721Receiver(to).onERC721Received(_msgSender(), from, tokenId, data) */\n      mload(0x40)\n      dup6\n      0xffffffff\n      and\n      0xe0\n      shl\n      dup2\n      mstore\n      0x04\n      add\n      tag_344\n      swap5\n      swap4\n      swap3\n      swap2\n      swap1\n      tag_345\n      jump\t// in\n    tag_344:\n      0x20\n      mload(0x40)\n      dup1\n      dup4\n      sub\n      dup2\n      0x00\n      dup8\n      gas\n      call\n      swap3\n      pop\n      pop\n      pop\n      dup1\n      iszero\n      tag_346\n      jumpi\n      pop\n      mload(0x40)\n      returndatasize\n      not(0x1f)\n      0x1f\n      dup3\n      add\n      and\n      dup3\n      add\n      dup1\n      0x40\n      mstore\n      pop\n      dup2\n      add\n      swap1\n      tag_347\n      swap2\n      swap1\n      tag_348\n      jump\t// in\n    tag_347:\n      0x01\n    tag_346:\n        /* \"@openzeppelin/contracts/token/ERC721/ERC721.sol\":17068:17684  try IERC721Receiver(to).onERC721Received(_msgSender(), from, tokenId, data) returns (bytes4 retval) {... */\n      tag_349\n      jumpi\n      returndatasize\n      dup1\n      0x00\n      dup2\n      eq\n      tag_354\n      jumpi\n      mload(0x40)\n      swap2\n      pop\n      and(add(returndatasize, 0x3f), not(0x1f))\n      dup3\n      add\n      0x40\n      mstore\n      returndatasize\n      dup3\n      mstore\n      returndatasize\n      0x00\n      0x20\n      dup5\n      add\n      returndatacopy\n      jump(tag_353)\n    tag_354:\n      0x60\n      swap2\n      pop\n    tag_353:\n      pop\n        /* \"@openzeppelin/contracts/token/ERC721/ERC721.sol\":17398:17399  0 */\n      0x00\n        /* \"@openzeppelin/contracts/token/ERC721/ERC721.sol\":17381:17387  reason */\n      dup2\n        /* \"@openzeppelin/contracts/token/ERC721/ERC721.sol\":17381:17394  reason.length */\n      mload\n        /* \"@openzeppelin/contracts/token/ERC721/ERC721.sol\":17381:17399  reason.length == 0 */\n      sub\n        /* \"@openzeppelin/contracts/token/ERC721/ERC721.sol\":17377:17670  if (reason.length == 0) {... */\n      tag_355\n      jumpi\n        /* \"@openzeppelin/contracts/token/ERC721/ERC721.sol\":17452:17454  to */\n      dup4\n        /* \"@openzeppelin/contracts/token/ERC721/ERC721.sol\":17430:17455  ERC721InvalidReceiver(to) */\n      mload(0x40)\n      0x64a0ae9200000000000000000000000000000000000000000000000000000000\n      dup2\n      mstore\n      0x04\n      add\n      tag_356\n      swap2\n      swap1\n      tag_63\n      jump\t// in\n    tag_356:\n      mload(0x40)\n      dup1\n      swap2\n      sub\n      swap1\n      revert\n        /* \"@openzeppelin/contracts/token/ERC721/ERC721.sol\":17377:17670  if (reason.length == 0) {... */\n    tag_355:\n        /* \"@openzeppelin/contracts/token/ERC721/ERC721.sol\":17622:17628  reason */\n      dup1\n        /* \"@openzeppelin/contracts/token/ERC721/ERC721.sol\":17616:17629  mload(reason) */\n      mload\n        /* \"@openzeppelin/contracts/token/ERC721/ERC721.sol\":17607:17613  reason */\n      dup2\n        /* \"@openzeppelin/contracts/token/ERC721/ERC721.sol\":17603:17605  32 */\n      0x20\n        /* \"@openzeppelin/contracts/token/ERC721/ERC721.sol\":17599:17614  add(32, reason) */\n      add\n        /* \"@openzeppelin/contracts/token/ERC721/ERC721.sol\":17592:17630  revert(add(32, reason), mload(reason)) */\n      revert\n        /* \"@openzeppelin/contracts/token/ERC721/ERC721.sol\":17068:17684  try IERC721Receiver(to).onERC721Received(_msgSender(), from, tokenId, data) returns (bytes4 retval) {... */\n    tag_349:\n        /* \"@openzeppelin/contracts/token/ERC721/ERC721.sol\":17200:17241  IERC721Receiver.onERC721Received.selector */\n      shl(0xe0, 0x150b7a02)\n        /* \"@openzeppelin/contracts/token/ERC721/ERC721.sol\":17190:17241  retval != IERC721Receiver.onERC721Received.selector */\n      not(0xffffffffffffffffffffffffffffffffffffffffffffffffffffffff)\n      and\n        /* \"@openzeppelin/contracts/token/ERC721/ERC721.sol\":17190:17196  retval */\n      dup2\n        /* \"@openzeppelin/contracts/token/ERC721/ERC721.sol\":17190:17241  retval != IERC721Receiver.onERC721Received.selector */\n      not(0xffffffffffffffffffffffffffffffffffffffffffffffffffffffff)\n      and\n      eq\n        /* \"@openzeppelin/contracts/token/ERC721/ERC721.sol\":17186:17316  if (retval != IERC721Receiver.onERC721Received.selector) {... */\n      tag_359\n      jumpi\n        /* \"@openzeppelin/contracts/token/ERC721/ERC721.sol\":17294:17296  to */\n      dup4\n        /* \"@openzeppelin/contracts/token/ERC721/ERC721.sol\":17272:17297  ERC721InvalidReceiver(to) */\n      mload(0x40)\n      0x64a0ae9200000000000000000000000000000000000000000000000000000000\n      dup2\n      mstore\n      0x04\n      add\n      tag_360\n      swap2\n      swap1\n      tag_63\n      jump\t// in\n    tag_360:\n      mload(0x40)\n      dup1\n      swap2\n      sub\n      swap1\n      revert\n        /* \"@openzeppelin/contracts/token/ERC721/ERC721.sol\":17186:17316  if (retval != IERC721Receiver.onERC721Received.selector) {... */\n    tag_359:\n        /* \"@openzeppelin/contracts/token/ERC721/ERC721.sol\":17144:17330  returns (bytes4 retval) {... */\n      pop\n        /* \"@openzeppelin/contracts/token/ERC721/ERC721.sol\":17030:17694  if (to.code.length > 0) {... */\n    tag_342:\n        /* \"@openzeppelin/contracts/token/ERC721/ERC721.sol\":16918:17700  function _checkOnERC721Received(address from, address to, uint256 tokenId, bytes memory data) private {... */\n      pop\n      pop\n      pop\n      pop\n      jump\t// out\n        /* \"@openzeppelin/contracts/token/ERC721/ERC721.sol\":3174:3266  function _baseURI() internal view virtual returns (string memory) {... */\n    tag_294:\n        /* \"@openzeppelin/contracts/token/ERC721/ERC721.sol\":3225:3238  string memory */\n      0x60\n        /* \"@openzeppelin/contracts/token/ERC721/ERC721.sol\":3250:3259  return \"\" */\n      mload(0x40)\n      dup1\n      0x20\n      add\n      0x40\n      mstore\n      dup1\n      0x00\n      dup2\n      mstore\n      pop\n      swap1\n      pop\n        /* \"@openzeppelin/contracts/token/ERC721/ERC721.sol\":3174:3266  function _baseURI() internal view virtual returns (string memory) {... */\n      swap1\n      jump\t// out\n        /* \"@openzeppelin/contracts/utils/Strings.sol\":637:1335  function toString(uint256 value) internal pure returns (string memory) {... */\n    tag_298:\n        /* \"@openzeppelin/contracts/utils/Strings.sol\":693:706  string memory */\n      0x60\n        /* \"@openzeppelin/contracts/utils/Strings.sol\":742:756  uint256 length */\n      0x00\n        /* \"@openzeppelin/contracts/utils/Strings.sol\":779:780  1 */\n      0x01\n        /* \"@openzeppelin/contracts/utils/Strings.sol\":759:776  Math.log10(value) */\n      tag_363\n        /* \"@openzeppelin/contracts/utils/Strings.sol\":770:775  value */\n      dup5\n        /* \"@openzeppelin/contracts/utils/Strings.sol\":759:769  Math.log10 */\n      tag_364\n        /* \"@openzeppelin/contracts/utils/Strings.sol\":759:776  Math.log10(value) */\n      jump\t// in\n    tag_363:\n        /* \"@openzeppelin/contracts/utils/Strings.sol\":759:780  Math.log10(value) + 1 */\n      add\n        /* \"@openzeppelin/contracts/utils/Strings.sol\":742:780  uint256 length = Math.log10(value) + 1 */\n      swap1\n      pop\n        /* \"@openzeppelin/contracts/utils/Strings.sol\":794:814  string memory buffer */\n      0x00\n        /* \"@openzeppelin/contracts/utils/Strings.sol\":828:834  length */\n      dup2\n        /* \"@openzeppelin/contracts/utils/Strings.sol\":817:835  new string(length) */\n      0xffffffffffffffff\n      dup2\n      gt\n      iszero\n      tag_365\n      jumpi\n      tag_366\n      tag_367\n      jump\t// in\n    tag_366:\n    tag_365:\n      mload(0x40)\n      swap1\n      dup1\n      dup3\n      mstore\n      dup1\n      0x1f\n      add\n      not(0x1f)\n      and\n      0x20\n      add\n      dup3\n      add\n      0x40\n      mstore\n      dup1\n      iszero\n      tag_368\n      jumpi\n      dup2\n      0x20\n      add\n      0x01\n      dup3\n      mul\n      dup1\n      calldatasize\n      dup4\n      calldatacopy\n      dup1\n      dup3\n      add\n      swap2\n      pop\n      pop\n      swap1\n      pop\n    tag_368:\n      pop\n        /* \"@openzeppelin/contracts/utils/Strings.sol\":794:835  string memory buffer = new string(length) */\n      swap1\n      pop\n        /* \"@openzeppelin/contracts/utils/Strings.sol\":849:860  uint256 ptr */\n      0x00\n        /* \"@openzeppelin/contracts/utils/Strings.sol\":975:981  length */\n      dup3\n        /* \"@openzeppelin/contracts/utils/Strings.sol\":971:973  32 */\n      0x20\n        /* \"@openzeppelin/contracts/utils/Strings.sol\":967:982  add(32, length) */\n      add\n        /* \"@openzeppelin/contracts/utils/Strings.sol\":959:965  buffer */\n      dup3\n        /* \"@openzeppelin/contracts/utils/Strings.sol\":955:983  add(buffer, add(32, length)) */\n      add\n        /* \"@openzeppelin/contracts/utils/Strings.sol\":948:983  ptr := add(buffer, add(32, length)) */\n      swap1\n      pop\n        /* \"@openzeppelin/contracts/utils/Strings.sol\":1010:1292  while (true) {... */\n    tag_369:\n        /* \"@openzeppelin/contracts/utils/Strings.sol\":1017:1021  true */\n      0x01\n        /* \"@openzeppelin/contracts/utils/Strings.sol\":1010:1292  while (true) {... */\n      iszero\n      tag_370\n      jumpi\n        /* \"@openzeppelin/contracts/utils/Strings.sol\":1041:1046  ptr-- */\n      dup1\n      dup1\n      0x01\n      swap1\n      sub\n      swap2\n      pop\n      pop\n        /* \"@openzeppelin/contracts/utils/Strings.sol\":1180:1190  HEX_DIGITS */\n      0x3031323334353637383961626364656600000000000000000000000000000000\n        /* \"@openzeppelin/contracts/utils/Strings.sol\":1175:1177  10 */\n      0x0a\n        /* \"@openzeppelin/contracts/utils/Strings.sol\":1168:1173  value */\n      dup7\n        /* \"@openzeppelin/contracts/utils/Strings.sol\":1164:1178  mod(value, 10) */\n      mod\n        /* \"@openzeppelin/contracts/utils/Strings.sol\":1159:1191  byte(mod(value, 10), HEX_DIGITS) */\n      byte\n        /* \"@openzeppelin/contracts/utils/Strings.sol\":1154:1157  ptr */\n      dup2\n        /* \"@openzeppelin/contracts/utils/Strings.sol\":1146:1192  mstore8(ptr, byte(mod(value, 10), HEX_DIGITS)) */\n      mstore8\n        /* \"@openzeppelin/contracts/utils/Strings.sol\":1236:1238  10 */\n      0x0a\n        /* \"@openzeppelin/contracts/utils/Strings.sol\":1227:1238  value /= 10 */\n      dup6\n      dup2\n      tag_371\n      jumpi\n      tag_372\n      tag_373\n      jump\t// in\n    tag_372:\n    tag_371:\n      div\n      swap5\n      pop\n        /* \"@openzeppelin/contracts/utils/Strings.sol\":1269:1270  0 */\n      0x00\n        /* \"@openzeppelin/contracts/utils/Strings.sol\":1260:1265  value */\n      dup6\n        /* \"@openzeppelin/contracts/utils/Strings.sol\":1260:1270  value == 0 */\n      sub\n        /* \"@openzeppelin/contracts/utils/Strings.sol\":1010:1292  while (true) {... */\n      tag_369\n        /* \"@openzeppelin/contracts/utils/Strings.sol\":1256:1277  if (value == 0) break */\n      jumpi\n        /* \"@openzeppelin/contracts/utils/Strings.sol\":1010:1292  while (true) {... */\n    tag_370:\n        /* \"@openzeppelin/contracts/utils/Strings.sol\":1312:1318  buffer */\n      dup2\n        /* \"@openzeppelin/contracts/utils/Strings.sol\":1305:1318  return buffer */\n      swap4\n      pop\n      pop\n      pop\n      pop\n        /* \"@openzeppelin/contracts/utils/Strings.sol\":637:1335  function toString(uint256 value) internal pure returns (string memory) {... */\n      swap2\n      swap1\n      pop\n      jump\t// out\n        /* \"@openzeppelin/contracts/token/ERC721/ERC721.sol\":14720:15382  function _approve(address to, uint256 tokenId, address auth, bool emitEvent) internal virtual {... */\n    tag_318:\n        /* \"@openzeppelin/contracts/token/ERC721/ERC721.sol\":14880:14889  emitEvent */\n      dup1\n        /* \"@openzeppelin/contracts/token/ERC721/ERC721.sol\":14880:14911  emitEvent || auth != address(0) */\n      dup1\n      tag_376\n      jumpi\n      pop\n        /* \"@openzeppelin/contracts/token/ERC721/ERC721.sol\":14909:14910  0 */\n      0x00\n        /* \"@openzeppelin/contracts/token/ERC721/ERC721.sol\":14893:14911  auth != address(0) */\n      0xffffffffffffffffffffffffffffffffffffffff\n      and\n        /* \"@openzeppelin/contracts/token/ERC721/ERC721.sol\":14893:14897  auth */\n      dup3\n        /* \"@openzeppelin/contracts/token/ERC721/ERC721.sol\":14893:14911  auth != address(0) */\n      0xffffffffffffffffffffffffffffffffffffffff\n      and\n      eq\n      iszero\n        /* \"@openzeppelin/contracts/token/ERC721/ERC721.sol\":14880:14911  emitEvent || auth != address(0) */\n    tag_376:\n        /* \"@openzeppelin/contracts/token/ERC721/ERC721.sol\":14876:15336  if (emitEvent || auth != address(0)) {... */\n      iszero\n      tag_377\n      jumpi\n        /* \"@openzeppelin/contracts/token/ERC721/ERC721.sol\":14927:14940  address owner */\n      0x00\n        /* \"@openzeppelin/contracts/token/ERC721/ERC721.sol\":14943:14965  _requireOwned(tokenId) */\n      tag_378\n        /* \"@openzeppelin/contracts/token/ERC721/ERC721.sol\":14957:14964  tokenId */\n      dup5\n        /* \"@openzeppelin/contracts/token/ERC721/ERC721.sol\":14943:14956  _requireOwned */\n      tag_207\n        /* \"@openzeppelin/contracts/token/ERC721/ERC721.sol\":14943:14965  _requireOwned(tokenId) */\n      jump\t// in\n    tag_378:\n        /* \"@openzeppelin/contracts/token/ERC721/ERC721.sol\":14927:14965  address owner = _requireOwned(tokenId) */\n      swap1\n      pop\n        /* \"@openzeppelin/contracts/token/ERC721/ERC721.sol\":15109:15110  0 */\n      0x00\n        /* \"@openzeppelin/contracts/token/ERC721/ERC721.sol\":15093:15111  auth != address(0) */\n      0xffffffffffffffffffffffffffffffffffffffff\n      and\n        /* \"@openzeppelin/contracts/token/ERC721/ERC721.sol\":15093:15097  auth */\n      dup4\n        /* \"@openzeppelin/contracts/token/ERC721/ERC721.sol\":15093:15111  auth != address(0) */\n      0xffffffffffffffffffffffffffffffffffffffff\n      and\n      eq\n      iszero\n        /* \"@openzeppelin/contracts/token/ERC721/ERC721.sol\":15093:15128  auth != address(0) && owner != auth */\n      dup1\n      iszero\n      tag_379\n      jumpi\n      pop\n        /* \"@openzeppelin/contracts/token/ERC721/ERC721.sol\":15124:15128  auth */\n      dup3\n        /* \"@openzeppelin/contracts/token/ERC721/ERC721.sol\":15115:15128  owner != auth */\n      0xffffffffffffffffffffffffffffffffffffffff\n      and\n        /* \"@openzeppelin/contracts/token/ERC721/ERC721.sol\":15115:15120  owner */\n      dup2\n        /* \"@openzeppelin/contracts/token/ERC721/ERC721.sol\":15115:15128  owner != auth */\n      0xffffffffffffffffffffffffffffffffffffffff\n      and\n      eq\n      iszero\n        /* \"@openzeppelin/contracts/token/ERC721/ERC721.sol\":15093:15128  auth != address(0) && owner != auth */\n    tag_379:\n        /* \"@openzeppelin/contracts/token/ERC721/ERC721.sol\":15093:15162  auth != address(0) && owner != auth && !isApprovedForAll(owner, auth) */\n      dup1\n      iszero\n      tag_380\n      jumpi\n      pop\n        /* \"@openzeppelin/contracts/token/ERC721/ERC721.sol\":15133:15162  isApprovedForAll(owner, auth) */\n      tag_381\n        /* \"@openzeppelin/contracts/token/ERC721/ERC721.sol\":15150:15155  owner */\n      dup2\n        /* \"@openzeppelin/contracts/token/ERC721/ERC721.sol\":15157:15161  auth */\n      dup5\n        /* \"@openzeppelin/contracts/token/ERC721/ERC721.sol\":15133:15149  isApprovedForAll */\n      tag_179\n        /* \"@openzeppelin/contracts/token/ERC721/ERC721.sol\":15133:15162  isApprovedForAll(owner, auth) */\n      jump\t// in\n    tag_381:\n        /* \"@openzeppelin/contracts/token/ERC721/ERC721.sol\":15132:15162  !isApprovedForAll(owner, auth) */\n      iszero\n        /* \"@openzeppelin/contracts/token/ERC721/ERC721.sol\":15093:15162  auth != address(0) && owner != auth && !isApprovedForAll(owner, auth) */\n    tag_380:\n        /* \"@openzeppelin/contracts/token/ERC721/ERC721.sol\":15089:15231  if (auth != address(0) && owner != auth && !isApprovedForAll(owner, auth)) {... */\n      iszero\n      tag_382\n      jumpi\n        /* \"@openzeppelin/contracts/token/ERC721/ERC721.sol\":15211:15215  auth */\n      dup3\n        /* \"@openzeppelin/contracts/token/ERC721/ERC721.sol\":15189:15216  ERC721InvalidApprover(auth) */\n      mload(0x40)\n      0xa9fbf51f00000000000000000000000000000000000000000000000000000000\n      dup2\n      mstore\n      0x04\n      add\n      tag_383\n      swap2\n      swap1\n      tag_63\n      jump\t// in\n    tag_383:\n      mload(0x40)\n      dup1\n      swap2\n      sub\n      swap1\n      revert\n        /* \"@openzeppelin/contracts/token/ERC721/ERC721.sol\":15089:15231  if (auth != address(0) && owner != auth && !isApprovedForAll(owner, auth)) {... */\n    tag_382:\n        /* \"@openzeppelin/contracts/token/ERC721/ERC721.sol\":15249:15258  emitEvent */\n      dup2\n        /* \"@openzeppelin/contracts/token/ERC721/ERC721.sol\":15245:15326  if (emitEvent) {... */\n      iszero\n      tag_384\n      jumpi\n        /* \"@openzeppelin/contracts/token/ERC721/ERC721.sol\":15303:15310  tokenId */\n      dup4\n        /* \"@openzeppelin/contracts/token/ERC721/ERC721.sol\":15299:15301  to */\n      dup6\n        /* \"@openzeppelin/contracts/token/ERC721/ERC721.sol\":15283:15311  Approval(owner, to, tokenId) */\n      0xffffffffffffffffffffffffffffffffffffffff\n      and\n        /* \"@openzeppelin/contracts/token/ERC721/ERC721.sol\":15292:15297  owner */\n      dup3\n        /* \"@openzeppelin/contracts/token/ERC721/ERC721.sol\":15283:15311  Approval(owner, to, tokenId) */\n      0xffffffffffffffffffffffffffffffffffffffff\n      and\n      0x8c5be1e5ebec7d5bd14f71427d1e84f3dd0314c0f7b2291e5b200ac8c7c3b925\n      mload(0x40)\n      mload(0x40)\n      dup1\n      swap2\n      sub\n      swap1\n      log4\n        /* \"@openzeppelin/contracts/token/ERC721/ERC721.sol\":15245:15326  if (emitEvent) {... */\n    tag_384:\n        /* \"@openzeppelin/contracts/token/ERC721/ERC721.sol\":14913:15336  {... */\n      pop\n        /* \"@openzeppelin/contracts/token/ERC721/ERC721.sol\":14876:15336  if (emitEvent || auth != address(0)) {... */\n    tag_377:\n        /* \"@openzeppelin/contracts/token/ERC721/ERC721.sol\":15373:15375  to */\n      dup4\n        /* \"@openzeppelin/contracts/token/ERC721/ERC721.sol\":15346:15361  _tokenApprovals */\n      0x04\n        /* \"@openzeppelin/contracts/token/ERC721/ERC721.sol\":15346:15370  _tokenApprovals[tokenId] */\n      0x00\n        /* \"@openzeppelin/contracts/token/ERC721/ERC721.sol\":15362:15369  tokenId */\n      dup6\n        /* \"@openzeppelin/contracts/token/ERC721/ERC721.sol\":15346:15370  _tokenApprovals[tokenId] */\n      dup2\n      mstore\n      0x20\n      add\n      swap1\n      dup2\n      mstore\n      0x20\n      add\n      0x00\n      keccak256\n      0x00\n        /* \"@openzeppelin/contracts/token/ERC721/ERC721.sol\":15346:15375  _tokenApprovals[tokenId] = to */\n      0x0100\n      exp\n      dup2\n      sload\n      dup2\n      0xffffffffffffffffffffffffffffffffffffffff\n      mul\n      not\n      and\n      swap1\n      dup4\n      0xffffffffffffffffffffffffffffffffffffffff\n      and\n      mul\n      or\n      swap1\n      sstore\n      pop\n        /* \"@openzeppelin/contracts/token/ERC721/ERC721.sol\":14720:15382  function _approve(address to, uint256 tokenId, address auth, bool emitEvent) internal virtual {... */\n      pop\n      pop\n      pop\n      pop\n      jump\t// out\n        /* \"@openzeppelin/contracts/token/ERC721/ERC721.sol\":7082:7450  function _checkAuthorized(address owner, address spender, uint256 tokenId) internal view virtual {... */\n    tag_332:\n        /* \"@openzeppelin/contracts/token/ERC721/ERC721.sol\":7194:7232  _isAuthorized(owner, spender, tokenId) */\n      tag_386\n        /* \"@openzeppelin/contracts/token/ERC721/ERC721.sol\":7208:7213  owner */\n      dup4\n        /* \"@openzeppelin/contracts/token/ERC721/ERC721.sol\":7215:7222  spender */\n      dup4\n        /* \"@openzeppelin/contracts/token/ERC721/ERC721.sol\":7224:7231  tokenId */\n      dup4\n        /* \"@openzeppelin/contracts/token/ERC721/ERC721.sol\":7194:7207  _isAuthorized */\n      tag_387\n        /* \"@openzeppelin/contracts/token/ERC721/ERC721.sol\":7194:7232  _isAuthorized(owner, spender, tokenId) */\n      jump\t// in\n    tag_386:\n        /* \"@openzeppelin/contracts/token/ERC721/ERC721.sol\":7189:7444  if (!_isAuthorized(owner, spender, tokenId)) {... */\n      tag_388\n      jumpi\n        /* \"@openzeppelin/contracts/token/ERC721/ERC721.sol\":7269:7270  0 */\n      0x00\n        /* \"@openzeppelin/contracts/token/ERC721/ERC721.sol\":7252:7271  owner == address(0) */\n      0xffffffffffffffffffffffffffffffffffffffff\n      and\n        /* \"@openzeppelin/contracts/token/ERC721/ERC721.sol\":7252:7257  owner */\n      dup4\n        /* \"@openzeppelin/contracts/token/ERC721/ERC721.sol\":7252:7271  owner == address(0) */\n      0xffffffffffffffffffffffffffffffffffffffff\n      and\n      sub\n        /* \"@openzeppelin/contracts/token/ERC721/ERC721.sol\":7248:7434  if (owner == address(0)) {... */\n      tag_389\n      jumpi\n        /* \"@openzeppelin/contracts/token/ERC721/ERC721.sol\":7321:7328  tokenId */\n      dup1\n        /* \"@openzeppelin/contracts/token/ERC721/ERC721.sol\":7298:7329  ERC721NonexistentToken(tokenId) */\n      mload(0x40)\n      0x7e27328900000000000000000000000000000000000000000000000000000000\n      dup2\n      mstore\n      0x04\n      add\n      tag_390\n      swap2\n      swap1\n      tag_77\n      jump\t// in\n    tag_390:\n      mload(0x40)\n      dup1\n      swap2\n      sub\n      swap1\n      revert\n        /* \"@openzeppelin/contracts/token/ERC721/ERC721.sol\":7248:7434  if (owner == address(0)) {... */\n    tag_389:\n        /* \"@openzeppelin/contracts/token/ERC721/ERC721.sol\":7402:7409  spender */\n      dup2\n        /* \"@openzeppelin/contracts/token/ERC721/ERC721.sol\":7411:7418  tokenId */\n      dup2\n        /* \"@openzeppelin/contracts/token/ERC721/ERC721.sol\":7375:7419  ERC721InsufficientApproval(spender, tokenId) */\n      mload(0x40)\n      0x177e802f00000000000000000000000000000000000000000000000000000000\n      dup2\n      mstore\n      0x04\n      add\n      tag_392\n      swap3\n      swap2\n      swap1\n      tag_393\n      jump\t// in\n    tag_392:\n      mload(0x40)\n      dup1\n      swap2\n      sub\n      swap1\n      revert\n        /* \"@openzeppelin/contracts/token/ERC721/ERC721.sol\":7189:7444  if (!_isAuthorized(owner, spender, tokenId)) {... */\n    tag_388:\n        /* \"@openzeppelin/contracts/token/ERC721/ERC721.sol\":7082:7450  function _checkAuthorized(address owner, address spender, uint256 tokenId) internal view virtual {... */\n      pop\n      pop\n      pop\n      jump\t// out\n        /* \"@openzeppelin/contracts/utils/math/Math.sol\":12214:13130  function log10(uint256 value) internal pure returns (uint256) {... */\n    tag_364:\n        /* \"@openzeppelin/contracts/utils/math/Math.sol\":12267:12274  uint256 */\n      0x00\n        /* \"@openzeppelin/contracts/utils/math/Math.sol\":12286:12300  uint256 result */\n      dup1\n        /* \"@openzeppelin/contracts/utils/math/Math.sol\":12303:12304  0 */\n      0x00\n        /* \"@openzeppelin/contracts/utils/math/Math.sol\":12286:12304  uint256 result = 0 */\n      swap1\n      pop\n        /* \"@openzeppelin/contracts/utils/math/Math.sol\":12351:12359  10 ** 64 */\n      0x184f03e93ff9f4daa797ed6e38ed64bf6a1f010000000000000000\n        /* \"@openzeppelin/contracts/utils/math/Math.sol\":12342:12347  value */\n      dup4\n        /* \"@openzeppelin/contracts/utils/math/Math.sol\":12342:12359  value >= 10 ** 64 */\n      lt\n        /* \"@openzeppelin/contracts/utils/math/Math.sol\":12338:12441  if (value >= 10 ** 64) {... */\n      tag_395\n      jumpi\n        /* \"@openzeppelin/contracts/utils/math/Math.sol\":12388:12396  10 ** 64 */\n      0x184f03e93ff9f4daa797ed6e38ed64bf6a1f010000000000000000\n        /* \"@openzeppelin/contracts/utils/math/Math.sol\":12379:12396  value /= 10 ** 64 */\n      dup4\n      dup2\n      tag_396\n      jumpi\n      tag_397\n      tag_373\n      jump\t// in\n    tag_397:\n    tag_396:\n      div\n      swap3\n      pop\n        /* \"@openzeppelin/contracts/utils/math/Math.sol\":12424:12426  64 */\n      0x40\n        /* \"@openzeppelin/contracts/utils/math/Math.sol\":12414:12426  result += 64 */\n      dup2\n      add\n      swap1\n      pop\n        /* \"@openzeppelin/contracts/utils/math/Math.sol\":12338:12441  if (value >= 10 ** 64) {... */\n    tag_395:\n        /* \"@openzeppelin/contracts/utils/math/Math.sol\":12467:12475  10 ** 32 */\n      0x04ee2d6d415b85acef8100000000\n        /* \"@openzeppelin/contracts/utils/math/Math.sol\":12458:12463  value */\n      dup4\n        /* \"@openzeppelin/contracts/utils/math/Math.sol\":12458:12475  value >= 10 ** 32 */\n      lt\n        /* \"@openzeppelin/contracts/utils/math/Math.sol\":12454:12557  if (value >= 10 ** 32) {... */\n      tag_398\n      jumpi\n        /* \"@openzeppelin/contracts/utils/math/Math.sol\":12504:12512  10 ** 32 */\n      0x04ee2d6d415b85acef8100000000\n        /* \"@openzeppelin/contracts/utils/math/Math.sol\":12495:12512  value /= 10 ** 32 */\n      dup4\n      dup2\n      tag_399\n      jumpi\n      tag_400\n      tag_373\n      jump\t// in\n    tag_400:\n    tag_399:\n      div\n      swap3\n      pop\n        /* \"@openzeppelin/contracts/utils/math/Math.sol\":12540:12542  32 */\n      0x20\n        /* \"@openzeppelin/contracts/utils/math/Math.sol\":12530:12542  result += 32 */\n      dup2\n      add\n      swap1\n      pop\n        /* \"@openzeppelin/contracts/utils/math/Math.sol\":12454:12557  if (value >= 10 ** 32) {... */\n    tag_398:\n        /* \"@openzeppelin/contracts/utils/math/Math.sol\":12583:12591  10 ** 16 */\n      0x2386f26fc10000\n        /* \"@openzeppelin/contracts/utils/math/Math.sol\":12574:12579  value */\n      dup4\n        /* \"@openzeppelin/contracts/utils/math/Math.sol\":12574:12591  value >= 10 ** 16 */\n      lt\n        /* \"@openzeppelin/contracts/utils/math/Math.sol\":12570:12673  if (value >= 10 ** 16) {... */\n      tag_401\n      jumpi\n        /* \"@openzeppelin/contracts/utils/math/Math.sol\":12620:12628  10 ** 16 */\n      0x2386f26fc10000\n        /* \"@openzeppelin/contracts/utils/math/Math.sol\":12611:12628  value /= 10 ** 16 */\n      dup4\n      dup2\n      tag_402\n      jumpi\n      tag_403\n      tag_373\n      jump\t// in\n    tag_403:\n    tag_402:\n      div\n      swap3\n      pop\n        /* \"@openzeppelin/contracts/utils/math/Math.sol\":12656:12658  16 */\n      0x10\n        /* \"@openzeppelin/contracts/utils/math/Math.sol\":12646:12658  result += 16 */\n      dup2\n      add\n      swap1\n      pop\n        /* \"@openzeppelin/contracts/utils/math/Math.sol\":12570:12673  if (value >= 10 ** 16) {... */\n    tag_401:\n        /* \"@openzeppelin/contracts/utils/math/Math.sol\":12699:12706  10 ** 8 */\n      0x05f5e100\n        /* \"@openzeppelin/contracts/utils/math/Math.sol\":12690:12695  value */\n      dup4\n        /* \"@openzeppelin/contracts/utils/math/Math.sol\":12690:12706  value >= 10 ** 8 */\n      lt\n        /* \"@openzeppelin/contracts/utils/math/Math.sol\":12686:12786  if (value >= 10 ** 8) {... */\n      tag_404\n      jumpi\n        /* \"@openzeppelin/contracts/utils/math/Math.sol\":12735:12742  10 ** 8 */\n      0x05f5e100\n        /* \"@openzeppelin/contracts/utils/math/Math.sol\":12726:12742  value /= 10 ** 8 */\n      dup4\n      dup2\n      tag_405\n      jumpi\n      tag_406\n      tag_373\n      jump\t// in\n    tag_406:\n    tag_405:\n      div\n      swap3\n      pop\n        /* \"@openzeppelin/contracts/utils/math/Math.sol\":12770:12771  8 */\n      0x08\n        /* \"@openzeppelin/contracts/utils/math/Math.sol\":12760:12771  result += 8 */\n      dup2\n      add\n      swap1\n      pop\n        /* \"@openzeppelin/contracts/utils/math/Math.sol\":12686:12786  if (value >= 10 ** 8) {... */\n    tag_404:\n        /* \"@openzeppelin/contracts/utils/math/Math.sol\":12812:12819  10 ** 4 */\n      0x2710\n        /* \"@openzeppelin/contracts/utils/math/Math.sol\":12803:12808  value */\n      dup4\n        /* \"@openzeppelin/contracts/utils/math/Math.sol\":12803:12819  value >= 10 ** 4 */\n      lt\n        /* \"@openzeppelin/contracts/utils/math/Math.sol\":12799:12899  if (value >= 10 ** 4) {... */\n      tag_407\n      jumpi\n        /* \"@openzeppelin/contracts/utils/math/Math.sol\":12848:12855  10 ** 4 */\n      0x2710\n        /* \"@openzeppelin/contracts/utils/math/Math.sol\":12839:12855  value /= 10 ** 4 */\n      dup4\n      dup2\n      tag_408\n      jumpi\n      tag_409\n      tag_373\n      jump\t// in\n    tag_409:\n    tag_408:\n      div\n      swap3\n      pop\n        /* \"@openzeppelin/contracts/utils/math/Math.sol\":12883:12884  4 */\n      0x04\n        /* \"@openzeppelin/contracts/utils/math/Math.sol\":12873:12884  result += 4 */\n      dup2\n      add\n      swap1\n      pop\n        /* \"@openzeppelin/contracts/utils/math/Math.sol\":12799:12899  if (value >= 10 ** 4) {... */\n    tag_407:\n        /* \"@openzeppelin/contracts/utils/math/Math.sol\":12925:12932  10 ** 2 */\n      0x64\n        /* \"@openzeppelin/contracts/utils/math/Math.sol\":12916:12921  value */\n      dup4\n        /* \"@openzeppelin/contracts/utils/math/Math.sol\":12916:12932  value >= 10 ** 2 */\n      lt\n        /* \"@openzeppelin/contracts/utils/math/Math.sol\":12912:13012  if (value >= 10 ** 2) {... */\n      tag_410\n      jumpi\n        /* \"@openzeppelin/contracts/utils/math/Math.sol\":12961:12968  10 ** 2 */\n      0x64\n        /* \"@openzeppelin/contracts/utils/math/Math.sol\":12952:12968  value /= 10 ** 2 */\n      dup4\n      dup2\n      tag_411\n      jumpi\n      tag_412\n      tag_373\n      jump\t// in\n    tag_412:\n    tag_411:\n      div\n      swap3\n      pop\n        /* \"@openzeppelin/contracts/utils/math/Math.sol\":12996:12997  2 */\n      0x02\n        /* \"@openzeppelin/contracts/utils/math/Math.sol\":12986:12997  result += 2 */\n      dup2\n      add\n      swap1\n      pop\n        /* \"@openzeppelin/contracts/utils/math/Math.sol\":12912:13012  if (value >= 10 ** 2) {... */\n    tag_410:\n        /* \"@openzeppelin/contracts/utils/math/Math.sol\":13038:13045  10 ** 1 */\n      0x0a\n        /* \"@openzeppelin/contracts/utils/math/Math.sol\":13029:13034  value */\n      dup4\n        /* \"@openzeppelin/contracts/utils/math/Math.sol\":13029:13045  value >= 10 ** 1 */\n      lt\n        /* \"@openzeppelin/contracts/utils/math/Math.sol\":13025:13091  if (value >= 10 ** 1) {... */\n      tag_413\n      jumpi\n        /* \"@openzeppelin/contracts/utils/math/Math.sol\":13075:13076  1 */\n      0x01\n        /* \"@openzeppelin/contracts/utils/math/Math.sol\":13065:13076  result += 1 */\n      dup2\n      add\n      swap1\n      pop\n        /* \"@openzeppelin/contracts/utils/math/Math.sol\":13025:13091  if (value >= 10 ** 1) {... */\n    tag_413:\n        /* \"@openzeppelin/contracts/utils/math/Math.sol\":13117:13123  result */\n      dup1\n        /* \"@openzeppelin/contracts/utils/math/Math.sol\":13110:13123  return result */\n      swap2\n      pop\n      pop\n        /* \"@openzeppelin/contracts/utils/math/Math.sol\":12214:13130  function log10(uint256 value) internal pure returns (uint256) {... */\n      swap2\n      swap1\n      pop\n      jump\t// out\n        /* \"@openzeppelin/contracts/token/ERC721/ERC721.sol\":6376:6648  function _isAuthorized(address owner, address spender, uint256 tokenId) internal view virtual returns (bool) {... */\n    tag_387:\n        /* \"@openzeppelin/contracts/token/ERC721/ERC721.sol\":6479:6483  bool */\n      0x00\n        /* \"@openzeppelin/contracts/token/ERC721/ERC721.sol\":6533:6534  0 */\n      dup1\n        /* \"@openzeppelin/contracts/token/ERC721/ERC721.sol\":6514:6535  spender != address(0) */\n      0xffffffffffffffffffffffffffffffffffffffff\n      and\n        /* \"@openzeppelin/contracts/token/ERC721/ERC721.sol\":6514:6521  spender */\n      dup4\n        /* \"@openzeppelin/contracts/token/ERC721/ERC721.sol\":6514:6535  spender != address(0) */\n      0xffffffffffffffffffffffffffffffffffffffff\n      and\n      eq\n      iszero\n        /* \"@openzeppelin/contracts/token/ERC721/ERC721.sol\":6514:6641  spender != address(0) &&... */\n      dup1\n      iszero\n      tag_415\n      jumpi\n      pop\n        /* \"@openzeppelin/contracts/token/ERC721/ERC721.sol\":6561:6568  spender */\n      dup3\n        /* \"@openzeppelin/contracts/token/ERC721/ERC721.sol\":6552:6568  owner == spender */\n      0xffffffffffffffffffffffffffffffffffffffff\n      and\n        /* \"@openzeppelin/contracts/token/ERC721/ERC721.sol\":6552:6557  owner */\n      dup5\n        /* \"@openzeppelin/contracts/token/ERC721/ERC721.sol\":6552:6568  owner == spender */\n      0xffffffffffffffffffffffffffffffffffffffff\n      and\n      eq\n        /* \"@openzeppelin/contracts/token/ERC721/ERC721.sol\":6552:6604  owner == spender || isApprovedForAll(owner, spender) */\n      dup1\n      tag_416\n      jumpi\n      pop\n        /* \"@openzeppelin/contracts/token/ERC721/ERC721.sol\":6572:6604  isApprovedForAll(owner, spender) */\n      tag_417\n        /* \"@openzeppelin/contracts/token/ERC721/ERC721.sol\":6589:6594  owner */\n      dup5\n        /* \"@openzeppelin/contracts/token/ERC721/ERC721.sol\":6596:6603  spender */\n      dup5\n        /* \"@openzeppelin/contracts/token/ERC721/ERC721.sol\":6572:6588  isApprovedForAll */\n      tag_179\n        /* \"@openzeppelin/contracts/token/ERC721/ERC721.sol\":6572:6604  isApprovedForAll(owner, spender) */\n      jump\t// in\n    tag_417:\n        /* \"@openzeppelin/contracts/token/ERC721/ERC721.sol\":6552:6604  owner == spender || isApprovedForAll(owner, spender) */\n    tag_416:\n        /* \"@openzeppelin/contracts/token/ERC721/ERC721.sol\":6552:6640  owner == spender || isApprovedForAll(owner, spender) || _getApproved(tokenId) == spender */\n      dup1\n      tag_418\n      jumpi\n      pop\n        /* \"@openzeppelin/contracts/token/ERC721/ERC721.sol\":6633:6640  spender */\n      dup3\n        /* \"@openzeppelin/contracts/token/ERC721/ERC721.sol\":6608:6640  _getApproved(tokenId) == spender */\n      0xffffffffffffffffffffffffffffffffffffffff\n      and\n        /* \"@openzeppelin/contracts/token/ERC721/ERC721.sol\":6608:6629  _getApproved(tokenId) */\n      tag_419\n        /* \"@openzeppelin/contracts/token/ERC721/ERC721.sol\":6621:6628  tokenId */\n      dup4\n        /* \"@openzeppelin/contracts/token/ERC721/ERC721.sol\":6608:6620  _getApproved */\n      tag_209\n        /* \"@openzeppelin/contracts/token/ERC721/ERC721.sol\":6608:6629  _getApproved(tokenId) */\n      jump\t// in\n    tag_419:\n        /* \"@openzeppelin/contracts/token/ERC721/ERC721.sol\":6608:6640  _getApproved(tokenId) == spender */\n      0xffffffffffffffffffffffffffffffffffffffff\n      and\n      eq\n        /* \"@openzeppelin/contracts/token/ERC721/ERC721.sol\":6552:6640  owner == spender || isApprovedForAll(owner, spender) || _getApproved(tokenId) == spender */\n    tag_418:\n        /* \"@openzeppelin/contracts/token/ERC721/ERC721.sol\":6514:6641  spender != address(0) &&... */\n    tag_415:\n        /* \"@openzeppelin/contracts/token/ERC721/ERC721.sol\":6495:6641  return... */\n      swap1\n      pop\n        /* \"@openzeppelin/contracts/token/ERC721/ERC721.sol\":6376:6648  function _isAuthorized(address owner, address spender, uint256 tokenId) internal view virtual returns (bool) {... */\n      swap4\n      swap3\n      pop\n      pop\n      pop\n      jump\t// out\n        /* \"#utility.yul\":7:106   */\n    tag_420:\n        /* \"#utility.yul\":59:65   */\n      0x00\n        /* \"#utility.yul\":93:98   */\n      dup2\n        /* \"#utility.yul\":87:99   */\n      mload\n        /* \"#utility.yul\":77:99   */\n      swap1\n      pop\n        /* \"#utility.yul\":7:106   */\n      swap2\n      swap1\n      pop\n      jump\t// out\n        /* \"#utility.yul\":112:281   */\n    tag_421:\n        /* \"#utility.yul\":196:207   */\n      0x00\n        /* \"#utility.yul\":230:236   */\n      dup3\n        /* \"#utility.yul\":225:228   */\n      dup3\n        /* \"#utility.yul\":218:237   */\n      mstore\n        /* \"#utility.yul\":270:274   */\n      0x20\n        /* \"#utility.yul\":265:268   */\n      dup3\n        /* \"#utility.yul\":261:275   */\n      add\n        /* \"#utility.yul\":246:275   */\n      swap1\n      pop\n        /* \"#utility.yul\":112:281   */\n      swap3\n      swap2\n      pop\n      pop\n      jump\t// out\n        /* \"#utility.yul\":287:426   */\n    tag_422:\n        /* \"#utility.yul\":376:382   */\n      dup3\n        /* \"#utility.yul\":371:374   */\n      dup2\n        /* \"#utility.yul\":366:369   */\n      dup4\n        /* \"#utility.yul\":360:383   */\n      mcopy\n        /* \"#utility.yul\":417:418   */\n      0x00\n        /* \"#utility.yul\":408:414   */\n      dup4\n        /* \"#utility.yul\":403:406   */\n      dup4\n        /* \"#utility.yul\":399:415   */\n      add\n        /* \"#utility.yul\":392:419   */\n      mstore\n        /* \"#utility.yul\":287:426   */\n      pop\n      pop\n      pop\n      jump\t// out\n        /* \"#utility.yul\":432:534   */\n    tag_423:\n        /* \"#utility.yul\":473:479   */\n      0x00\n        /* \"#utility.yul\":524:526   */\n      0x1f\n        /* \"#utility.yul\":520:527   */\n      not\n        /* \"#utility.yul\":515:517   */\n      0x1f\n        /* \"#utility.yul\":508:513   */\n      dup4\n        /* \"#utility.yul\":504:518   */\n      add\n        /* \"#utility.yul\":500:528   */\n      and\n        /* \"#utility.yul\":490:528   */\n      swap1\n      pop\n        /* \"#utility.yul\":432:534   */\n      swap2\n      swap1\n      pop\n      jump\t// out\n        /* \"#utility.yul\":540:917   */\n    tag_424:\n        /* \"#utility.yul\":628:631   */\n      0x00\n        /* \"#utility.yul\":656:695   */\n      tag_482\n        /* \"#utility.yul\":689:694   */\n      dup3\n        /* \"#utility.yul\":656:695   */\n      tag_420\n      jump\t// in\n    tag_482:\n        /* \"#utility.yul\":711:782   */\n      tag_483\n        /* \"#utility.yul\":775:781   */\n      dup2\n        /* \"#utility.yul\":770:773   */\n      dup6\n        /* \"#utility.yul\":711:782   */\n      tag_421\n      jump\t// in\n    tag_483:\n        /* \"#utility.yul\":704:782   */\n      swap4\n      pop\n        /* \"#utility.yul\":791:856   */\n      tag_484\n        /* \"#utility.yul\":849:855   */\n      dup2\n        /* \"#utility.yul\":844:847   */\n      dup6\n        /* \"#utility.yul\":837:841   */\n      0x20\n        /* \"#utility.yul\":830:835   */\n      dup7\n        /* \"#utility.yul\":826:842   */\n      add\n        /* \"#utility.yul\":791:856   */\n      tag_422\n      jump\t// in\n    tag_484:\n        /* \"#utility.yul\":881:910   */\n      tag_485\n        /* \"#utility.yul\":903:909   */\n      dup2\n        /* \"#utility.yul\":881:910   */\n      tag_423\n      jump\t// in\n    tag_485:\n        /* \"#utility.yul\":876:879   */\n      dup5\n        /* \"#utility.yul\":872:911   */\n      add\n        /* \"#utility.yul\":865:911   */\n      swap2\n      pop\n        /* \"#utility.yul\":632:917   */\n      pop\n        /* \"#utility.yul\":540:917   */\n      swap3\n      swap2\n      pop\n      pop\n      jump\t// out\n        /* \"#utility.yul\":923:1236   */\n    tag_45:\n        /* \"#utility.yul\":1036:1040   */\n      0x00\n        /* \"#utility.yul\":1074:1076   */\n      0x20\n        /* \"#utility.yul\":1063:1072   */\n      dup3\n        /* \"#utility.yul\":1059:1077   */\n      add\n        /* \"#utility.yul\":1051:1077   */\n      swap1\n      pop\n        /* \"#utility.yul\":1123:1132   */\n      dup2\n        /* \"#utility.yul\":1117:1121   */\n      dup2\n        /* \"#utility.yul\":1113:1133   */\n      sub\n        /* \"#utility.yul\":1109:1110   */\n      0x00\n        /* \"#utility.yul\":1098:1107   */\n      dup4\n        /* \"#utility.yul\":1094:1111   */\n      add\n        /* \"#utility.yul\":1087:1134   */\n      mstore\n        /* \"#utility.yul\":1151:1229   */\n      tag_487\n        /* \"#utility.yul\":1224:1228   */\n      dup2\n        /* \"#utility.yul\":1215:1221   */\n      dup5\n        /* \"#utility.yul\":1151:1229   */\n      tag_424\n      jump\t// in\n    tag_487:\n        /* \"#utility.yul\":1143:1229   */\n      swap1\n      pop\n        /* \"#utility.yul\":923:1236   */\n      swap3\n      swap2\n      pop\n      pop\n      jump\t// out\n        /* \"#utility.yul\":1242:1317   */\n    tag_425:\n        /* \"#utility.yul\":1275:1281   */\n      0x00\n        /* \"#utility.yul\":1308:1310   */\n      0x40\n        /* \"#utility.yul\":1302:1311   */\n      mload\n        /* \"#utility.yul\":1292:1311   */\n      swap1\n      pop\n        /* \"#utility.yul\":1242:1317   */\n      swap1\n      jump\t// out\n        /* \"#utility.yul\":1323:1440   */\n    tag_426:\n        /* \"#utility.yul\":1432:1433   */\n      0x00\n        /* \"#utility.yul\":1429:1430   */\n      dup1\n        /* \"#utility.yul\":1422:1434   */\n      revert\n        /* \"#utility.yul\":1446:1563   */\n    tag_427:\n        /* \"#utility.yul\":1555:1556   */\n      0x00\n        /* \"#utility.yul\":1552:1553   */\n      dup1\n        /* \"#utility.yul\":1545:1557   */\n      revert\n        /* \"#utility.yul\":1569:1718   */\n    tag_428:\n        /* \"#utility.yul\":1605:1612   */\n      0x00\n        /* \"#utility.yul\":1645:1711   */\n      0xffffffff00000000000000000000000000000000000000000000000000000000\n        /* \"#utility.yul\":1638:1643   */\n      dup3\n        /* \"#utility.yul\":1634:1712   */\n      and\n        /* \"#utility.yul\":1623:1712   */\n      swap1\n      pop\n        /* \"#utility.yul\":1569:1718   */\n      swap2\n      swap1\n      pop\n      jump\t// out\n        /* \"#utility.yul\":1724:1844   */\n    tag_429:\n        /* \"#utility.yul\":1796:1819   */\n      tag_493\n        /* \"#utility.yul\":1813:1818   */\n      dup2\n        /* \"#utility.yul\":1796:1819   */\n      tag_428\n      jump\t// in\n    tag_493:\n        /* \"#utility.yul\":1789:1794   */\n      dup2\n        /* \"#utility.yul\":1786:1820   */\n      eq\n        /* \"#utility.yul\":1776:1838   */\n      tag_494\n      jumpi\n        /* \"#utility.yul\":1834:1835   */\n      0x00\n        /* \"#utility.yul\":1831:1832   */\n      dup1\n        /* \"#utility.yul\":1824:1836   */\n      revert\n        /* \"#utility.yul\":1776:1838   */\n    tag_494:\n        /* \"#utility.yul\":1724:1844   */\n      pop\n      jump\t// out\n        /* \"#utility.yul\":1850:1987   */\n    tag_430:\n        /* \"#utility.yul\":1895:1900   */\n      0x00\n        /* \"#utility.yul\":1933:1939   */\n      dup2\n        /* \"#utility.yul\":1920:1940   */\n      calldataload\n        /* \"#utility.yul\":1911:1940   */\n      swap1\n      pop\n        /* \"#utility.yul\":1949:1981   */\n      tag_496\n        /* \"#utility.yul\":1975:1980   */\n      dup2\n        /* \"#utility.yul\":1949:1981   */\n      tag_429\n      jump\t// in\n    tag_496:\n        /* \"#utility.yul\":1850:1987   */\n      swap3\n      swap2\n      pop\n      pop\n      jump\t// out\n        /* \"#utility.yul\":1993:2320   */\n    tag_49:\n        /* \"#utility.yul\":2051:2057   */\n      0x00\n        /* \"#utility.yul\":2100:2102   */\n      0x20\n        /* \"#utility.yul\":2088:2097   */\n      dup3\n        /* \"#utility.yul\":2079:2086   */\n      dup5\n        /* \"#utility.yul\":2075:2098   */\n      sub\n        /* \"#utility.yul\":2071:2103   */\n      slt\n        /* \"#utility.yul\":2068:2187   */\n      iszero\n      tag_498\n      jumpi\n        /* \"#utility.yul\":2106:2185   */\n      tag_499\n      tag_426\n      jump\t// in\n    tag_499:\n        /* \"#utility.yul\":2068:2187   */\n    tag_498:\n        /* \"#utility.yul\":2226:2227   */\n      0x00\n        /* \"#utility.yul\":2251:2303   */\n      tag_500\n        /* \"#utility.yul\":2295:2302   */\n      dup5\n        /* \"#utility.yul\":2286:2292   */\n      dup3\n        /* \"#utility.yul\":2275:2284   */\n      dup6\n        /* \"#utility.yul\":2271:2293   */\n      add\n        /* \"#utility.yul\":2251:2303   */\n      tag_430\n      jump\t// in\n    tag_500:\n        /* \"#utility.yul\":2241:2303   */\n      swap2\n      pop\n        /* \"#utility.yul\":2197:2313   */\n      pop\n        /* \"#utility.yul\":1993:2320   */\n      swap3\n      swap2\n      pop\n      pop\n      jump\t// out\n        /* \"#utility.yul\":2326:2416   */\n    tag_431:\n        /* \"#utility.yul\":2360:2367   */\n      0x00\n        /* \"#utility.yul\":2403:2408   */\n      dup2\n        /* \"#utility.yul\":2396:2409   */\n      iszero\n        /* \"#utility.yul\":2389:2410   */\n      iszero\n        /* \"#utility.yul\":2378:2410   */\n      swap1\n      pop\n        /* \"#utility.yul\":2326:2416   */\n      swap2\n      swap1\n      pop\n      jump\t// out\n        /* \"#utility.yul\":2422:2531   */\n    tag_432:\n        /* \"#utility.yul\":2503:2524   */\n      tag_503\n        /* \"#utility.yul\":2518:2523   */\n      dup2\n        /* \"#utility.yul\":2503:2524   */\n      tag_431\n      jump\t// in\n    tag_503:\n        /* \"#utility.yul\":2498:2501   */\n      dup3\n        /* \"#utility.yul\":2491:2525   */\n      mstore\n        /* \"#utility.yul\":2422:2531   */\n      pop\n      pop\n      jump\t// out\n        /* \"#utility.yul\":2537:2747   */\n    tag_52:\n        /* \"#utility.yul\":2624:2628   */\n      0x00\n        /* \"#utility.yul\":2662:2664   */\n      0x20\n        /* \"#utility.yul\":2651:2660   */\n      dup3\n        /* \"#utility.yul\":2647:2665   */\n      add\n        /* \"#utility.yul\":2639:2665   */\n      swap1\n      pop\n        /* \"#utility.yul\":2675:2740   */\n      tag_505\n        /* \"#utility.yul\":2737:2738   */\n      0x00\n        /* \"#utility.yul\":2726:2735   */\n      dup4\n        /* \"#utility.yul\":2722:2739   */\n      add\n        /* \"#utility.yul\":2713:2719   */\n      dup5\n        /* \"#utility.yul\":2675:2740   */\n      tag_432\n      jump\t// in\n    tag_505:\n        /* \"#utility.yul\":2537:2747   */\n      swap3\n      swap2\n      pop\n      pop\n      jump\t// out\n        /* \"#utility.yul\":2753:2830   */\n    tag_433:\n        /* \"#utility.yul\":2790:2797   */\n      0x00\n        /* \"#utility.yul\":2819:2824   */\n      dup2\n        /* \"#utility.yul\":2808:2824   */\n      swap1\n      pop\n        /* \"#utility.yul\":2753:2830   */\n      swap2\n      swap1\n      pop\n      jump\t// out\n        /* \"#utility.yul\":2836:2958   */\n    tag_434:\n        /* \"#utility.yul\":2909:2933   */\n      tag_508\n        /* \"#utility.yul\":2927:2932   */\n      dup2\n        /* \"#utility.yul\":2909:2933   */\n      tag_433\n      jump\t// in\n    tag_508:\n        /* \"#utility.yul\":2902:2907   */\n      dup2\n        /* \"#utility.yul\":2899:2934   */\n      eq\n        /* \"#utility.yul\":2889:2952   */\n      tag_509\n      jumpi\n        /* \"#utility.yul\":2948:2949   */\n      0x00\n        /* \"#utility.yul\":2945:2946   */\n      dup1\n        /* \"#utility.yul\":2938:2950   */\n      revert\n        /* \"#utility.yul\":2889:2952   */\n    tag_509:\n        /* \"#utility.yul\":2836:2958   */\n      pop\n      jump\t// out\n        /* \"#utility.yul\":2964:3103   */\n    tag_435:\n        /* \"#utility.yul\":3010:3015   */\n      0x00\n        /* \"#utility.yul\":3048:3054   */\n      dup2\n        /* \"#utility.yul\":3035:3055   */\n      calldataload\n        /* \"#utility.yul\":3026:3055   */\n      swap1\n      pop\n        /* \"#utility.yul\":3064:3097   */\n      tag_511\n        /* \"#utility.yul\":3091:3096   */\n      dup2\n        /* \"#utility.yul\":3064:3097   */\n      tag_434\n      jump\t// in\n    tag_511:\n        /* \"#utility.yul\":2964:3103   */\n      swap3\n      swap2\n      pop\n      pop\n      jump\t// out\n        /* \"#utility.yul\":3109:3438   */\n    tag_60:\n        /* \"#utility.yul\":3168:3174   */\n      0x00\n        /* \"#utility.yul\":3217:3219   */\n      0x20\n        /* \"#utility.yul\":3205:3214   */\n      dup3\n        /* \"#utility.yul\":3196:3203   */\n      dup5\n        /* \"#utility.yul\":3192:3215   */\n      sub\n        /* \"#utility.yul\":3188:3220   */\n      slt\n        /* \"#utility.yul\":3185:3304   */\n      iszero\n      tag_513\n      jumpi\n        /* \"#utility.yul\":3223:3302   */\n      tag_514\n      tag_426\n      jump\t// in\n    tag_514:\n        /* \"#utility.yul\":3185:3304   */\n    tag_513:\n        /* \"#utility.yul\":3343:3344   */\n      0x00\n        /* \"#utility.yul\":3368:3421   */\n      tag_515\n        /* \"#utility.yul\":3413:3420   */\n      dup5\n        /* \"#utility.yul\":3404:3410   */\n      dup3\n        /* \"#utility.yul\":3393:3402   */\n      dup6\n        /* \"#utility.yul\":3389:3411   */\n      add\n        /* \"#utility.yul\":3368:3421   */\n      tag_435\n      jump\t// in\n    tag_515:\n        /* \"#utility.yul\":3358:3421   */\n      swap2\n      pop\n        /* \"#utility.yul\":3314:3431   */\n      pop\n        /* \"#utility.yul\":3109:3438   */\n      swap3\n      swap2\n      pop\n      pop\n      jump\t// out\n        /* \"#utility.yul\":3444:3570   */\n    tag_436:\n        /* \"#utility.yul\":3481:3488   */\n      0x00\n        /* \"#utility.yul\":3521:3563   */\n      0xffffffffffffffffffffffffffffffffffffffff\n        /* \"#utility.yul\":3514:3519   */\n      dup3\n        /* \"#utility.yul\":3510:3564   */\n      and\n        /* \"#utility.yul\":3499:3564   */\n      swap1\n      pop\n        /* \"#utility.yul\":3444:3570   */\n      swap2\n      swap1\n      pop\n      jump\t// out\n        /* \"#utility.yul\":3576:3672   */\n    tag_437:\n        /* \"#utility.yul\":3613:3620   */\n      0x00\n        /* \"#utility.yul\":3642:3666   */\n      tag_518\n        /* \"#utility.yul\":3660:3665   */\n      dup3\n        /* \"#utility.yul\":3642:3666   */\n      tag_436\n      jump\t// in\n    tag_518:\n        /* \"#utility.yul\":3631:3666   */\n      swap1\n      pop\n        /* \"#utility.yul\":3576:3672   */\n      swap2\n      swap1\n      pop\n      jump\t// out\n        /* \"#utility.yul\":3678:3796   */\n    tag_438:\n        /* \"#utility.yul\":3765:3789   */\n      tag_520\n        /* \"#utility.yul\":3783:3788   */\n      dup2\n        /* \"#utility.yul\":3765:3789   */\n      tag_437\n      jump\t// in\n    tag_520:\n        /* \"#utility.yul\":3760:3763   */\n      dup3\n        /* \"#utility.yul\":3753:3790   */\n      mstore\n        /* \"#utility.yul\":3678:3796   */\n      pop\n      pop\n      jump\t// out\n        /* \"#utility.yul\":3802:4024   */\n    tag_63:\n        /* \"#utility.yul\":3895:3899   */\n      0x00\n        /* \"#utility.yul\":3933:3935   */\n      0x20\n        /* \"#utility.yul\":3922:3931   */\n      dup3\n        /* \"#utility.yul\":3918:3936   */\n      add\n        /* \"#utility.yul\":3910:3936   */\n      swap1\n      pop\n        /* \"#utility.yul\":3946:4017   */\n      tag_522\n        /* \"#utility.yul\":4014:4015   */\n      0x00\n        /* \"#utility.yul\":4003:4012   */\n      dup4\n        /* \"#utility.yul\":3999:4016   */\n      add\n        /* \"#utility.yul\":3990:3996   */\n      dup5\n        /* \"#utility.yul\":3946:4017   */\n      tag_438\n      jump\t// in\n    tag_522:\n        /* \"#utility.yul\":3802:4024   */\n      swap3\n      swap2\n      pop\n      pop\n      jump\t// out\n        /* \"#utility.yul\":4030:4152   */\n    tag_439:\n        /* \"#utility.yul\":4103:4127   */\n      tag_524\n        /* \"#utility.yul\":4121:4126   */\n      dup2\n        /* \"#utility.yul\":4103:4127   */\n      tag_437\n      jump\t// in\n    tag_524:\n        /* \"#utility.yul\":4096:4101   */\n      dup2\n        /* \"#utility.yul\":4093:4128   */\n      eq\n        /* \"#utility.yul\":4083:4146   */\n      tag_525\n      jumpi\n        /* \"#utility.yul\":4142:4143   */\n      0x00\n        /* \"#utility.yul\":4139:4140   */\n      dup1\n        /* \"#utility.yul\":4132:4144   */\n      revert\n        /* \"#utility.yul\":4083:4146   */\n    tag_525:\n        /* \"#utility.yul\":4030:4152   */\n      pop\n      jump\t// out\n        /* \"#utility.yul\":4158:4297   */\n    tag_440:\n        /* \"#utility.yul\":4204:4209   */\n      0x00\n        /* \"#utility.yul\":4242:4248   */\n      dup2\n        /* \"#utility.yul\":4229:4249   */\n      calldataload\n        /* \"#utility.yul\":4220:4249   */\n      swap1\n      pop\n        /* \"#utility.yul\":4258:4291   */\n      tag_527\n        /* \"#utility.yul\":4285:4290   */\n      dup2\n        /* \"#utility.yul\":4258:4291   */\n      tag_439\n      jump\t// in\n    tag_527:\n        /* \"#utility.yul\":4158:4297   */\n      swap3\n      swap2\n      pop\n      pop\n      jump\t// out\n        /* \"#utility.yul\":4303:4777   */\n    tag_67:\n        /* \"#utility.yul\":4371:4377   */\n      0x00\n        /* \"#utility.yul\":4379:4385   */\n      dup1\n        /* \"#utility.yul\":4428:4430   */\n      0x40\n        /* \"#utility.yul\":4416:4425   */\n      dup4\n        /* \"#utility.yul\":4407:4414   */\n      dup6\n        /* \"#utility.yul\":4403:4426   */\n      sub\n        /* \"#utility.yul\":4399:4431   */\n      slt\n        /* \"#utility.yul\":4396:4515   */\n      iszero\n      tag_529\n      jumpi\n        /* \"#utility.yul\":4434:4513   */\n      tag_530\n      tag_426\n      jump\t// in\n    tag_530:\n        /* \"#utility.yul\":4396:4515   */\n    tag_529:\n        /* \"#utility.yul\":4554:4555   */\n      0x00\n        /* \"#utility.yul\":4579:4632   */\n      tag_531\n        /* \"#utility.yul\":4624:4631   */\n      dup6\n        /* \"#utility.yul\":4615:4621   */\n      dup3\n        /* \"#utility.yul\":4604:4613   */\n      dup7\n        /* \"#utility.yul\":4600:4622   */\n      add\n        /* \"#utility.yul\":4579:4632   */\n      tag_440\n      jump\t// in\n    tag_531:\n        /* \"#utility.yul\":4569:4632   */\n      swap3\n      pop\n        /* \"#utility.yul\":4525:4642   */\n      pop\n        /* \"#utility.yul\":4681:4683   */\n      0x20\n        /* \"#utility.yul\":4707:4760   */\n      tag_532\n        /* \"#utility.yul\":4752:4759   */\n      dup6\n        /* \"#utility.yul\":4743:4749   */\n      dup3\n        /* \"#utility.yul\":4732:4741   */\n      dup7\n        /* \"#utility.yul\":4728:4750   */\n      add\n        /* \"#utility.yul\":4707:4760   */\n      tag_435\n      jump\t// in\n    tag_532:\n        /* \"#utility.yul\":4697:4760   */\n      swap2\n      pop\n        /* \"#utility.yul\":4652:4770   */\n      pop\n        /* \"#utility.yul\":4303:4777   */\n      swap3\n      pop\n      swap3\n      swap1\n      pop\n      jump\t// out\n        /* \"#utility.yul\":4783:4900   */\n    tag_441:\n        /* \"#utility.yul\":4892:4893   */\n      0x00\n        /* \"#utility.yul\":4889:4890   */\n      dup1\n        /* \"#utility.yul\":4882:4894   */\n      revert\n        /* \"#utility.yul\":4906:5023   */\n    tag_442:\n        /* \"#utility.yul\":5015:5016   */\n      0x00\n        /* \"#utility.yul\":5012:5013   */\n      dup1\n        /* \"#utility.yul\":5005:5017   */\n      revert\n        /* \"#utility.yul\":5029:5209   */\n    tag_367:\n        /* \"#utility.yul\":5077:5154   */\n      0x4e487b7100000000000000000000000000000000000000000000000000000000\n        /* \"#utility.yul\":5074:5075   */\n      0x00\n        /* \"#utility.yul\":5067:5155   */\n      mstore\n        /* \"#utility.yul\":5174:5178   */\n      0x41\n        /* \"#utility.yul\":5171:5172   */\n      0x04\n        /* \"#utility.yul\":5164:5179   */\n      mstore\n        /* \"#utility.yul\":5198:5202   */\n      0x24\n        /* \"#utility.yul\":5195:5196   */\n      0x00\n        /* \"#utility.yul\":5188:5203   */\n      revert\n        /* \"#utility.yul\":5215:5496   */\n    tag_443:\n        /* \"#utility.yul\":5298:5325   */\n      tag_537\n        /* \"#utility.yul\":5320:5324   */\n      dup3\n        /* \"#utility.yul\":5298:5325   */\n      tag_423\n      jump\t// in\n    tag_537:\n        /* \"#utility.yul\":5290:5296   */\n      dup2\n        /* \"#utility.yul\":5286:5326   */\n      add\n        /* \"#utility.yul\":5428:5434   */\n      dup2\n        /* \"#utility.yul\":5416:5426   */\n      dup2\n        /* \"#utility.yul\":5413:5435   */\n      lt\n        /* \"#utility.yul\":5392:5410   */\n      0xffffffffffffffff\n        /* \"#utility.yul\":5380:5390   */\n      dup3\n        /* \"#utility.yul\":5377:5411   */\n      gt\n        /* \"#utility.yul\":5374:5436   */\n      or\n        /* \"#utility.yul\":5371:5459   */\n      iszero\n      tag_538\n      jumpi\n        /* \"#utility.yul\":5439:5457   */\n      tag_539\n      tag_367\n      jump\t// in\n    tag_539:\n        /* \"#utility.yul\":5371:5459   */\n    tag_538:\n        /* \"#utility.yul\":5479:5489   */\n      dup1\n        /* \"#utility.yul\":5475:5477   */\n      0x40\n        /* \"#utility.yul\":5468:5490   */\n      mstore\n        /* \"#utility.yul\":5258:5496   */\n      pop\n        /* \"#utility.yul\":5215:5496   */\n      pop\n      pop\n      jump\t// out\n        /* \"#utility.yul\":5502:5631   */\n    tag_444:\n        /* \"#utility.yul\":5536:5542   */\n      0x00\n        /* \"#utility.yul\":5563:5583   */\n      tag_541\n      tag_425\n      jump\t// in\n    tag_541:\n        /* \"#utility.yul\":5553:5583   */\n      swap1\n      pop\n        /* \"#utility.yul\":5592:5625   */\n      tag_542\n        /* \"#utility.yul\":5620:5624   */\n      dup3\n        /* \"#utility.yul\":5612:5618   */\n      dup3\n        /* \"#utility.yul\":5592:5625   */\n      tag_443\n      jump\t// in\n    tag_542:\n        /* \"#utility.yul\":5502:5631   */\n      swap2\n      swap1\n      pop\n      jump\t// out\n        /* \"#utility.yul\":5637:5945   */\n    tag_445:\n        /* \"#utility.yul\":5699:5703   */\n      0x00\n        /* \"#utility.yul\":5789:5807   */\n      0xffffffffffffffff\n        /* \"#utility.yul\":5781:5787   */\n      dup3\n        /* \"#utility.yul\":5778:5808   */\n      gt\n        /* \"#utility.yul\":5775:5831   */\n      iszero\n      tag_544\n      jumpi\n        /* \"#utility.yul\":5811:5829   */\n      tag_545\n      tag_367\n      jump\t// in\n    tag_545:\n        /* \"#utility.yul\":5775:5831   */\n    tag_544:\n        /* \"#utility.yul\":5849:5878   */\n      tag_546\n        /* \"#utility.yul\":5871:5877   */\n      dup3\n        /* \"#utility.yul\":5849:5878   */\n      tag_423\n      jump\t// in\n    tag_546:\n        /* \"#utility.yul\":5841:5878   */\n      swap1\n      pop\n        /* \"#utility.yul\":5933:5937   */\n      0x20\n        /* \"#utility.yul\":5927:5931   */\n      dup2\n        /* \"#utility.yul\":5923:5938   */\n      add\n        /* \"#utility.yul\":5915:5938   */\n      swap1\n      pop\n        /* \"#utility.yul\":5637:5945   */\n      swap2\n      swap1\n      pop\n      jump\t// out\n        /* \"#utility.yul\":5951:6099   */\n    tag_446:\n        /* \"#utility.yul\":6049:6055   */\n      dup3\n        /* \"#utility.yul\":6044:6047   */\n      dup2\n        /* \"#utility.yul\":6039:6042   */\n      dup4\n        /* \"#utility.yul\":6026:6056   */\n      calldatacopy\n        /* \"#utility.yul\":6090:6091   */\n      0x00\n        /* \"#utility.yul\":6081:6087   */\n      dup4\n        /* \"#utility.yul\":6076:6079   */\n      dup4\n        /* \"#utility.yul\":6072:6088   */\n      add\n        /* \"#utility.yul\":6065:6092   */\n      mstore\n        /* \"#utility.yul\":5951:6099   */\n      pop\n      pop\n      pop\n      jump\t// out\n        /* \"#utility.yul\":6105:6530   */\n    tag_447:\n        /* \"#utility.yul\":6183:6188   */\n      0x00\n        /* \"#utility.yul\":6208:6274   */\n      tag_549\n        /* \"#utility.yul\":6224:6273   */\n      tag_550\n        /* \"#utility.yul\":6266:6272   */\n      dup5\n        /* \"#utility.yul\":6224:6273   */\n      tag_445\n      jump\t// in\n    tag_550:\n        /* \"#utility.yul\":6208:6274   */\n      tag_444\n      jump\t// in\n    tag_549:\n        /* \"#utility.yul\":6199:6274   */\n      swap1\n      pop\n        /* \"#utility.yul\":6297:6303   */\n      dup3\n        /* \"#utility.yul\":6290:6295   */\n      dup2\n        /* \"#utility.yul\":6283:6304   */\n      mstore\n        /* \"#utility.yul\":6335:6339   */\n      0x20\n        /* \"#utility.yul\":6328:6333   */\n      dup2\n        /* \"#utility.yul\":6324:6340   */\n      add\n        /* \"#utility.yul\":6373:6376   */\n      dup5\n        /* \"#utility.yul\":6364:6370   */\n      dup5\n        /* \"#utility.yul\":6359:6362   */\n      dup5\n        /* \"#utility.yul\":6355:6371   */\n      add\n        /* \"#utility.yul\":6352:6377   */\n      gt\n        /* \"#utility.yul\":6349:6461   */\n      iszero\n      tag_551\n      jumpi\n        /* \"#utility.yul\":6380:6459   */\n      tag_552\n      tag_442\n      jump\t// in\n    tag_552:\n        /* \"#utility.yul\":6349:6461   */\n    tag_551:\n        /* \"#utility.yul\":6470:6524   */\n      tag_553\n        /* \"#utility.yul\":6517:6523   */\n      dup5\n        /* \"#utility.yul\":6512:6515   */\n      dup3\n        /* \"#utility.yul\":6507:6510   */\n      dup6\n        /* \"#utility.yul\":6470:6524   */\n      tag_446\n      jump\t// in\n    tag_553:\n        /* \"#utility.yul\":6189:6530   */\n      pop\n        /* \"#utility.yul\":6105:6530   */\n      swap4\n      swap3\n      pop\n      pop\n      pop\n      jump\t// out\n        /* \"#utility.yul\":6550:6890   */\n    tag_448:\n        /* \"#utility.yul\":6606:6611   */\n      0x00\n        /* \"#utility.yul\":6655:6658   */\n      dup3\n        /* \"#utility.yul\":6648:6652   */\n      0x1f\n        /* \"#utility.yul\":6640:6646   */\n      dup4\n        /* \"#utility.yul\":6636:6653   */\n      add\n        /* \"#utility.yul\":6632:6659   */\n      slt\n        /* \"#utility.yul\":6622:6744   */\n      tag_555\n      jumpi\n        /* \"#utility.yul\":6663:6742   */\n      tag_556\n      tag_441\n      jump\t// in\n    tag_556:\n        /* \"#utility.yul\":6622:6744   */\n    tag_555:\n        /* \"#utility.yul\":6780:6786   */\n      dup2\n        /* \"#utility.yul\":6767:6787   */\n      calldataload\n        /* \"#utility.yul\":6805:6884   */\n      tag_557\n        /* \"#utility.yul\":6880:6883   */\n      dup5\n        /* \"#utility.yul\":6872:6878   */\n      dup3\n        /* \"#utility.yul\":6865:6869   */\n      0x20\n        /* \"#utility.yul\":6857:6863   */\n      dup7\n        /* \"#utility.yul\":6853:6870   */\n      add\n        /* \"#utility.yul\":6805:6884   */\n      tag_447\n      jump\t// in\n    tag_557:\n        /* \"#utility.yul\":6796:6884   */\n      swap2\n      pop\n        /* \"#utility.yul\":6612:6890   */\n      pop\n        /* \"#utility.yul\":6550:6890   */\n      swap3\n      swap2\n      pop\n      pop\n      jump\t// out\n        /* \"#utility.yul\":6896:7695   */\n    tag_71:\n        /* \"#utility.yul\":6983:6989   */\n      0x00\n        /* \"#utility.yul\":6991:6997   */\n      dup1\n        /* \"#utility.yul\":6999:7005   */\n      0x00\n        /* \"#utility.yul\":7048:7050   */\n      0x60\n        /* \"#utility.yul\":7036:7045   */\n      dup5\n        /* \"#utility.yul\":7027:7034   */\n      dup7\n        /* \"#utility.yul\":7023:7046   */\n      sub\n        /* \"#utility.yul\":7019:7051   */\n      slt\n        /* \"#utility.yul\":7016:7135   */\n      iszero\n      tag_559\n      jumpi\n        /* \"#utility.yul\":7054:7133   */\n      tag_560\n      tag_426\n      jump\t// in\n    tag_560:\n        /* \"#utility.yul\":7016:7135   */\n    tag_559:\n        /* \"#utility.yul\":7202:7203   */\n      0x00\n        /* \"#utility.yul\":7191:7200   */\n      dup5\n        /* \"#utility.yul\":7187:7204   */\n      add\n        /* \"#utility.yul\":7174:7205   */\n      calldataload\n        /* \"#utility.yul\":7232:7250   */\n      0xffffffffffffffff\n        /* \"#utility.yul\":7224:7230   */\n      dup2\n        /* \"#utility.yul\":7221:7251   */\n      gt\n        /* \"#utility.yul\":7218:7335   */\n      iszero\n      tag_561\n      jumpi\n        /* \"#utility.yul\":7254:7333   */\n      tag_562\n      tag_427\n      jump\t// in\n    tag_562:\n        /* \"#utility.yul\":7218:7335   */\n    tag_561:\n        /* \"#utility.yul\":7359:7422   */\n      tag_563\n        /* \"#utility.yul\":7414:7421   */\n      dup7\n        /* \"#utility.yul\":7405:7411   */\n      dup3\n        /* \"#utility.yul\":7394:7403   */\n      dup8\n        /* \"#utility.yul\":7390:7412   */\n      add\n        /* \"#utility.yul\":7359:7422   */\n      tag_448\n      jump\t// in\n    tag_563:\n        /* \"#utility.yul\":7349:7422   */\n      swap4\n      pop\n        /* \"#utility.yul\":7145:7432   */\n      pop\n        /* \"#utility.yul\":7471:7473   */\n      0x20\n        /* \"#utility.yul\":7497:7550   */\n      tag_564\n        /* \"#utility.yul\":7542:7549   */\n      dup7\n        /* \"#utility.yul\":7533:7539   */\n      dup3\n        /* \"#utility.yul\":7522:7531   */\n      dup8\n        /* \"#utility.yul\":7518:7540   */\n      add\n        /* \"#utility.yul\":7497:7550   */\n      tag_435\n      jump\t// in\n    tag_564:\n        /* \"#utility.yul\":7487:7550   */\n      swap3\n      pop\n        /* \"#utility.yul\":7442:7560   */\n      pop\n        /* \"#utility.yul\":7599:7601   */\n      0x40\n        /* \"#utility.yul\":7625:7678   */\n      tag_565\n        /* \"#utility.yul\":7670:7677   */\n      dup7\n        /* \"#utility.yul\":7661:7667   */\n      dup3\n        /* \"#utility.yul\":7650:7659   */\n      dup8\n        /* \"#utility.yul\":7646:7668   */\n      add\n        /* \"#utility.yul\":7625:7678   */\n      tag_435\n      jump\t// in\n    tag_565:\n        /* \"#utility.yul\":7615:7678   */\n      swap2\n      pop\n        /* \"#utility.yul\":7570:7688   */\n      pop\n        /* \"#utility.yul\":6896:7695   */\n      swap3\n      pop\n      swap3\n      pop\n      swap3\n      jump\t// out\n        /* \"#utility.yul\":7701:7819   */\n    tag_449:\n        /* \"#utility.yul\":7788:7812   */\n      tag_567\n        /* \"#utility.yul\":7806:7811   */\n      dup2\n        /* \"#utility.yul\":7788:7812   */\n      tag_433\n      jump\t// in\n    tag_567:\n        /* \"#utility.yul\":7783:7786   */\n      dup3\n        /* \"#utility.yul\":7776:7813   */\n      mstore\n        /* \"#utility.yul\":7701:7819   */\n      pop\n      pop\n      jump\t// out\n        /* \"#utility.yul\":7825:8047   */\n    tag_77:\n        /* \"#utility.yul\":7918:7922   */\n      0x00\n        /* \"#utility.yul\":7956:7958   */\n      0x20\n        /* \"#utility.yul\":7945:7954   */\n      dup3\n        /* \"#utility.yul\":7941:7959   */\n      add\n        /* \"#utility.yul\":7933:7959   */\n      swap1\n      pop\n        /* \"#utility.yul\":7969:8040   */\n      tag_569\n        /* \"#utility.yul\":8037:8038   */\n      0x00\n        /* \"#utility.yul\":8026:8035   */\n      dup4\n        /* \"#utility.yul\":8022:8039   */\n      add\n        /* \"#utility.yul\":8013:8019   */\n      dup5\n        /* \"#utility.yul\":7969:8040   */\n      tag_449\n      jump\t// in\n    tag_569:\n        /* \"#utility.yul\":7825:8047   */\n      swap3\n      swap2\n      pop\n      pop\n      jump\t// out\n        /* \"#utility.yul\":8053:8672   */\n    tag_85:\n        /* \"#utility.yul\":8130:8136   */\n      0x00\n        /* \"#utility.yul\":8138:8144   */\n      dup1\n        /* \"#utility.yul\":8146:8152   */\n      0x00\n        /* \"#utility.yul\":8195:8197   */\n      0x60\n        /* \"#utility.yul\":8183:8192   */\n      dup5\n        /* \"#utility.yul\":8174:8181   */\n      dup7\n        /* \"#utility.yul\":8170:8193   */\n      sub\n        /* \"#utility.yul\":8166:8198   */\n      slt\n        /* \"#utility.yul\":8163:8282   */\n      iszero\n      tag_571\n      jumpi\n        /* \"#utility.yul\":8201:8280   */\n      tag_572\n      tag_426\n      jump\t// in\n    tag_572:\n        /* \"#utility.yul\":8163:8282   */\n    tag_571:\n        /* \"#utility.yul\":8321:8322   */\n      0x00\n        /* \"#utility.yul\":8346:8399   */\n      tag_573\n        /* \"#utility.yul\":8391:8398   */\n      dup7\n        /* \"#utility.yul\":8382:8388   */\n      dup3\n        /* \"#utility.yul\":8371:8380   */\n      dup8\n        /* \"#utility.yul\":8367:8389   */\n      add\n        /* \"#utility.yul\":8346:8399   */\n      tag_440\n      jump\t// in\n    tag_573:\n        /* \"#utility.yul\":8336:8399   */\n      swap4\n      pop\n        /* \"#utility.yul\":8292:8409   */\n      pop\n        /* \"#utility.yul\":8448:8450   */\n      0x20\n        /* \"#utility.yul\":8474:8527   */\n      tag_574\n        /* \"#utility.yul\":8519:8526   */\n      dup7\n        /* \"#utility.yul\":8510:8516   */\n      dup3\n        /* \"#utility.yul\":8499:8508   */\n      dup8\n        /* \"#utility.yul\":8495:8517   */\n      add\n        /* \"#utility.yul\":8474:8527   */\n      tag_440\n      jump\t// in\n    tag_574:\n        /* \"#utility.yul\":8464:8527   */\n      swap3\n      pop\n        /* \"#utility.yul\":8419:8537   */\n      pop\n        /* \"#utility.yul\":8576:8578   */\n      0x40\n        /* \"#utility.yul\":8602:8655   */\n      tag_575\n        /* \"#utility.yul\":8647:8654   */\n      dup7\n        /* \"#utility.yul\":8638:8644   */\n      dup3\n        /* \"#utility.yul\":8627:8636   */\n      dup8\n        /* \"#utility.yul\":8623:8645   */\n      add\n        /* \"#utility.yul\":8602:8655   */\n      tag_435\n      jump\t// in\n    tag_575:\n        /* \"#utility.yul\":8592:8655   */\n      swap2\n      pop\n        /* \"#utility.yul\":8547:8665   */\n      pop\n        /* \"#utility.yul\":8053:8672   */\n      swap3\n      pop\n      swap3\n      pop\n      swap3\n      jump\t// out\n        /* \"#utility.yul\":8678:9007   */\n    tag_128:\n        /* \"#utility.yul\":8737:8743   */\n      0x00\n        /* \"#utility.yul\":8786:8788   */\n      0x20\n        /* \"#utility.yul\":8774:8783   */\n      dup3\n        /* \"#utility.yul\":8765:8772   */\n      dup5\n        /* \"#utility.yul\":8761:8784   */\n      sub\n        /* \"#utility.yul\":8757:8789   */\n      slt\n        /* \"#utility.yul\":8754:8873   */\n      iszero\n      tag_577\n      jumpi\n        /* \"#utility.yul\":8792:8871   */\n      tag_578\n      tag_426\n      jump\t// in\n    tag_578:\n        /* \"#utility.yul\":8754:8873   */\n    tag_577:\n        /* \"#utility.yul\":8912:8913   */\n      0x00\n        /* \"#utility.yul\":8937:8990   */\n      tag_579\n        /* \"#utility.yul\":8982:8989   */\n      dup5\n        /* \"#utility.yul\":8973:8979   */\n      dup3\n        /* \"#utility.yul\":8962:8971   */\n      dup6\n        /* \"#utility.yul\":8958:8980   */\n      add\n        /* \"#utility.yul\":8937:8990   */\n      tag_440\n      jump\t// in\n    tag_579:\n        /* \"#utility.yul\":8927:8990   */\n      swap2\n      pop\n        /* \"#utility.yul\":8883:9000   */\n      pop\n        /* \"#utility.yul\":8678:9007   */\n      swap3\n      swap2\n      pop\n      pop\n      jump\t// out\n        /* \"#utility.yul\":9013:9129   */\n    tag_450:\n        /* \"#utility.yul\":9083:9104   */\n      tag_581\n        /* \"#utility.yul\":9098:9103   */\n      dup2\n        /* \"#utility.yul\":9083:9104   */\n      tag_431\n      jump\t// in\n    tag_581:\n        /* \"#utility.yul\":9076:9081   */\n      dup2\n        /* \"#utility.yul\":9073:9105   */\n      eq\n        /* \"#utility.yul\":9063:9123   */\n      tag_582\n      jumpi\n        /* \"#utility.yul\":9119:9120   */\n      0x00\n        /* \"#utility.yul\":9116:9117   */\n      dup1\n        /* \"#utility.yul\":9109:9121   */\n      revert\n        /* \"#utility.yul\":9063:9123   */\n    tag_582:\n        /* \"#utility.yul\":9013:9129   */\n      pop\n      jump\t// out\n        /* \"#utility.yul\":9135:9268   */\n    tag_451:\n        /* \"#utility.yul\":9178:9183   */\n      0x00\n        /* \"#utility.yul\":9216:9222   */\n      dup2\n        /* \"#utility.yul\":9203:9223   */\n      calldataload\n        /* \"#utility.yul\":9194:9223   */\n      swap1\n      pop\n        /* \"#utility.yul\":9232:9262   */\n      tag_584\n        /* \"#utility.yul\":9256:9261   */\n      dup2\n        /* \"#utility.yul\":9232:9262   */\n      tag_450\n      jump\t// in\n    tag_584:\n        /* \"#utility.yul\":9135:9268   */\n      swap3\n      swap2\n      pop\n      pop\n      jump\t// out\n        /* \"#utility.yul\":9274:9742   */\n    tag_150:\n        /* \"#utility.yul\":9339:9345   */\n      0x00\n        /* \"#utility.yul\":9347:9353   */\n      dup1\n        /* \"#utility.yul\":9396:9398   */\n      0x40\n        /* \"#utility.yul\":9384:9393   */\n      dup4\n        /* \"#utility.yul\":9375:9382   */\n      dup6\n        /* \"#utility.yul\":9371:9394   */\n      sub\n        /* \"#utility.yul\":9367:9399   */\n      slt\n        /* \"#utility.yul\":9364:9483   */\n      iszero\n      tag_586\n      jumpi\n        /* \"#utility.yul\":9402:9481   */\n      tag_587\n      tag_426\n      jump\t// in\n    tag_587:\n        /* \"#utility.yul\":9364:9483   */\n    tag_586:\n        /* \"#utility.yul\":9522:9523   */\n      0x00\n        /* \"#utility.yul\":9547:9600   */\n      tag_588\n        /* \"#utility.yul\":9592:9599   */\n      dup6\n        /* \"#utility.yul\":9583:9589   */\n      dup3\n        /* \"#utility.yul\":9572:9581   */\n      dup7\n        /* \"#utility.yul\":9568:9590   */\n      add\n        /* \"#utility.yul\":9547:9600   */\n      tag_440\n      jump\t// in\n    tag_588:\n        /* \"#utility.yul\":9537:9600   */\n      swap3\n      pop\n        /* \"#utility.yul\":9493:9610   */\n      pop\n        /* \"#utility.yul\":9649:9651   */\n      0x20\n        /* \"#utility.yul\":9675:9725   */\n      tag_589\n        /* \"#utility.yul\":9717:9724   */\n      dup6\n        /* \"#utility.yul\":9708:9714   */\n      dup3\n        /* \"#utility.yul\":9697:9706   */\n      dup7\n        /* \"#utility.yul\":9693:9715   */\n      add\n        /* \"#utility.yul\":9675:9725   */\n      tag_451\n      jump\t// in\n    tag_589:\n        /* \"#utility.yul\":9665:9725   */\n      swap2\n      pop\n        /* \"#utility.yul\":9620:9735   */\n      pop\n        /* \"#utility.yul\":9274:9742   */\n      swap3\n      pop\n      swap3\n      swap1\n      pop\n      jump\t// out\n        /* \"#utility.yul\":9748:9852   */\n    tag_452:\n        /* \"#utility.yul\":9793:9800   */\n      0x00\n        /* \"#utility.yul\":9822:9846   */\n      tag_591\n        /* \"#utility.yul\":9840:9845   */\n      dup3\n        /* \"#utility.yul\":9822:9846   */\n      tag_436\n      jump\t// in\n    tag_591:\n        /* \"#utility.yul\":9811:9846   */\n      swap1\n      pop\n        /* \"#utility.yul\":9748:9852   */\n      swap2\n      swap1\n      pop\n      jump\t// out\n        /* \"#utility.yul\":9858:10000   */\n    tag_453:\n        /* \"#utility.yul\":9961:9993   */\n      tag_593\n        /* \"#utility.yul\":9987:9992   */\n      dup2\n        /* \"#utility.yul\":9961:9993   */\n      tag_452\n      jump\t// in\n    tag_593:\n        /* \"#utility.yul\":9956:9959   */\n      dup3\n        /* \"#utility.yul\":9949:9994   */\n      mstore\n        /* \"#utility.yul\":9858:10000   */\n      pop\n      pop\n      jump\t// out\n        /* \"#utility.yul\":10006:10260   */\n    tag_156:\n        /* \"#utility.yul\":10115:10119   */\n      0x00\n        /* \"#utility.yul\":10153:10155   */\n      0x20\n        /* \"#utility.yul\":10142:10151   */\n      dup3\n        /* \"#utility.yul\":10138:10156   */\n      add\n        /* \"#utility.yul\":10130:10156   */\n      swap1\n      pop\n        /* \"#utility.yul\":10166:10253   */\n      tag_595\n        /* \"#utility.yul\":10250:10251   */\n      0x00\n        /* \"#utility.yul\":10239:10248   */\n      dup4\n        /* \"#utility.yul\":10235:10252   */\n      add\n        /* \"#utility.yul\":10226:10232   */\n      dup5\n        /* \"#utility.yul\":10166:10253   */\n      tag_453\n      jump\t// in\n    tag_595:\n        /* \"#utility.yul\":10006:10260   */\n      swap3\n      swap2\n      pop\n      pop\n      jump\t// out\n        /* \"#utility.yul\":10266:10573   */\n    tag_454:\n        /* \"#utility.yul\":10327:10331   */\n      0x00\n        /* \"#utility.yul\":10417:10435   */\n      0xffffffffffffffff\n        /* \"#utility.yul\":10409:10415   */\n      dup3\n        /* \"#utility.yul\":10406:10436   */\n      gt\n        /* \"#utility.yul\":10403:10459   */\n      iszero\n      tag_597\n      jumpi\n        /* \"#utility.yul\":10439:10457   */\n      tag_598\n      tag_367\n      jump\t// in\n    tag_598:\n        /* \"#utility.yul\":10403:10459   */\n    tag_597:\n        /* \"#utility.yul\":10477:10506   */\n      tag_599\n        /* \"#utility.yul\":10499:10505   */\n      dup3\n        /* \"#utility.yul\":10477:10506   */\n      tag_423\n      jump\t// in\n    tag_599:\n        /* \"#utility.yul\":10469:10506   */\n      swap1\n      pop\n        /* \"#utility.yul\":10561:10565   */\n      0x20\n        /* \"#utility.yul\":10555:10559   */\n      dup2\n        /* \"#utility.yul\":10551:10566   */\n      add\n        /* \"#utility.yul\":10543:10566   */\n      swap1\n      pop\n        /* \"#utility.yul\":10266:10573   */\n      swap2\n      swap1\n      pop\n      jump\t// out\n        /* \"#utility.yul\":10579:11002   */\n    tag_455:\n        /* \"#utility.yul\":10656:10661   */\n      0x00\n        /* \"#utility.yul\":10681:10746   */\n      tag_601\n        /* \"#utility.yul\":10697:10745   */\n      tag_602\n        /* \"#utility.yul\":10738:10744   */\n      dup5\n        /* \"#utility.yul\":10697:10745   */\n      tag_454\n      jump\t// in\n    tag_602:\n        /* \"#utility.yul\":10681:10746   */\n      tag_444\n      jump\t// in\n    tag_601:\n        /* \"#utility.yul\":10672:10746   */\n      swap1\n      pop\n        /* \"#utility.yul\":10769:10775   */\n      dup3\n        /* \"#utility.yul\":10762:10767   */\n      dup2\n        /* \"#utility.yul\":10755:10776   */\n      mstore\n        /* \"#utility.yul\":10807:10811   */\n      0x20\n        /* \"#utility.yul\":10800:10805   */\n      dup2\n        /* \"#utility.yul\":10796:10812   */\n      add\n        /* \"#utility.yul\":10845:10848   */\n      dup5\n        /* \"#utility.yul\":10836:10842   */\n      dup5\n        /* \"#utility.yul\":10831:10834   */\n      dup5\n        /* \"#utility.yul\":10827:10843   */\n      add\n        /* \"#utility.yul\":10824:10849   */\n      gt\n        /* \"#utility.yul\":10821:10933   */\n      iszero\n      tag_603\n      jumpi\n        /* \"#utility.yul\":10852:10931   */\n      tag_604\n      tag_442\n      jump\t// in\n    tag_604:\n        /* \"#utility.yul\":10821:10933   */\n    tag_603:\n        /* \"#utility.yul\":10942:10996   */\n      tag_605\n        /* \"#utility.yul\":10989:10995   */\n      dup5\n        /* \"#utility.yul\":10984:10987   */\n      dup3\n        /* \"#utility.yul\":10979:10982   */\n      dup6\n        /* \"#utility.yul\":10942:10996   */\n      tag_446\n      jump\t// in\n    tag_605:\n        /* \"#utility.yul\":10662:11002   */\n      pop\n        /* \"#utility.yul\":10579:11002   */\n      swap4\n      swap3\n      pop\n      pop\n      pop\n      jump\t// out\n        /* \"#utility.yul\":11021:11359   */\n    tag_456:\n        /* \"#utility.yul\":11076:11081   */\n      0x00\n        /* \"#utility.yul\":11125:11128   */\n      dup3\n        /* \"#utility.yul\":11118:11122   */\n      0x1f\n        /* \"#utility.yul\":11110:11116   */\n      dup4\n        /* \"#utility.yul\":11106:11123   */\n      add\n        /* \"#utility.yul\":11102:11129   */\n      slt\n        /* \"#utility.yul\":11092:11214   */\n      tag_607\n      jumpi\n        /* \"#utility.yul\":11133:11212   */\n      tag_608\n      tag_441\n      jump\t// in\n    tag_608:\n        /* \"#utility.yul\":11092:11214   */\n    tag_607:\n        /* \"#utility.yul\":11250:11256   */\n      dup2\n        /* \"#utility.yul\":11237:11257   */\n      calldataload\n        /* \"#utility.yul\":11275:11353   */\n      tag_609\n        /* \"#utility.yul\":11349:11352   */\n      dup5\n        /* \"#utility.yul\":11341:11347   */\n      dup3\n        /* \"#utility.yul\":11334:11338   */\n      0x20\n        /* \"#utility.yul\":11326:11332   */\n      dup7\n        /* \"#utility.yul\":11322:11339   */\n      add\n        /* \"#utility.yul\":11275:11353   */\n      tag_455\n      jump\t// in\n    tag_609:\n        /* \"#utility.yul\":11266:11353   */\n      swap2\n      pop\n        /* \"#utility.yul\":11082:11359   */\n      pop\n        /* \"#utility.yul\":11021:11359   */\n      swap3\n      swap2\n      pop\n      pop\n      jump\t// out\n        /* \"#utility.yul\":11365:12308   */\n    tag_160:\n        /* \"#utility.yul\":11460:11466   */\n      0x00\n        /* \"#utility.yul\":11468:11474   */\n      dup1\n        /* \"#utility.yul\":11476:11482   */\n      0x00\n        /* \"#utility.yul\":11484:11490   */\n      dup1\n        /* \"#utility.yul\":11533:11536   */\n      0x80\n        /* \"#utility.yul\":11521:11530   */\n      dup6\n        /* \"#utility.yul\":11512:11519   */\n      dup8\n        /* \"#utility.yul\":11508:11531   */\n      sub\n        /* \"#utility.yul\":11504:11537   */\n      slt\n        /* \"#utility.yul\":11501:11621   */\n      iszero\n      tag_611\n      jumpi\n        /* \"#utility.yul\":11540:11619   */\n      tag_612\n      tag_426\n      jump\t// in\n    tag_612:\n        /* \"#utility.yul\":11501:11621   */\n    tag_611:\n        /* \"#utility.yul\":11660:11661   */\n      0x00\n        /* \"#utility.yul\":11685:11738   */\n      tag_613\n        /* \"#utility.yul\":11730:11737   */\n      dup8\n        /* \"#utility.yul\":11721:11727   */\n      dup3\n        /* \"#utility.yul\":11710:11719   */\n      dup9\n        /* \"#utility.yul\":11706:11728   */\n      add\n        /* \"#utility.yul\":11685:11738   */\n      tag_440\n      jump\t// in\n    tag_613:\n        /* \"#utility.yul\":11675:11738   */\n      swap5\n      pop\n        /* \"#utility.yul\":11631:11748   */\n      pop\n        /* \"#utility.yul\":11787:11789   */\n      0x20\n        /* \"#utility.yul\":11813:11866   */\n      tag_614\n        /* \"#utility.yul\":11858:11865   */\n      dup8\n        /* \"#utility.yul\":11849:11855   */\n      dup3\n        /* \"#utility.yul\":11838:11847   */\n      dup9\n        /* \"#utility.yul\":11834:11856   */\n      add\n        /* \"#utility.yul\":11813:11866   */\n      tag_440\n      jump\t// in\n    tag_614:\n        /* \"#utility.yul\":11803:11866   */\n      swap4\n      pop\n        /* \"#utility.yul\":11758:11876   */\n      pop\n        /* \"#utility.yul\":11915:11917   */\n      0x40\n        /* \"#utility.yul\":11941:11994   */\n      tag_615\n        /* \"#utility.yul\":11986:11993   */\n      dup8\n        /* \"#utility.yul\":11977:11983   */\n      dup3\n        /* \"#utility.yul\":11966:11975   */\n      dup9\n        /* \"#utility.yul\":11962:11984   */\n      add\n        /* \"#utility.yul\":11941:11994   */\n      tag_435\n      jump\t// in\n    tag_615:\n        /* \"#utility.yul\":11931:11994   */\n      swap3\n      pop\n        /* \"#utility.yul\":11886:12004   */\n      pop\n        /* \"#utility.yul\":12071:12073   */\n      0x60\n        /* \"#utility.yul\":12060:12069   */\n      dup6\n        /* \"#utility.yul\":12056:12074   */\n      add\n        /* \"#utility.yul\":12043:12075   */\n      calldataload\n        /* \"#utility.yul\":12102:12120   */\n      0xffffffffffffffff\n        /* \"#utility.yul\":12094:12100   */\n      dup2\n        /* \"#utility.yul\":12091:12121   */\n      gt\n        /* \"#utility.yul\":12088:12205   */\n      iszero\n      tag_616\n      jumpi\n        /* \"#utility.yul\":12124:12203   */\n      tag_617\n      tag_427\n      jump\t// in\n    tag_617:\n        /* \"#utility.yul\":12088:12205   */\n    tag_616:\n        /* \"#utility.yul\":12229:12291   */\n      tag_618\n        /* \"#utility.yul\":12283:12290   */\n      dup8\n        /* \"#utility.yul\":12274:12280   */\n      dup3\n        /* \"#utility.yul\":12263:12272   */\n      dup9\n        /* \"#utility.yul\":12259:12281   */\n      add\n        /* \"#utility.yul\":12229:12291   */\n      tag_456\n      jump\t// in\n    tag_618:\n        /* \"#utility.yul\":12219:12291   */\n      swap2\n      pop\n        /* \"#utility.yul\":12014:12301   */\n      pop\n        /* \"#utility.yul\":11365:12308   */\n      swap3\n      swap6\n      swap2\n      swap5\n      pop\n      swap3\n      pop\n      jump\t// out\n        /* \"#utility.yul\":12314:12788   */\n    tag_178:\n        /* \"#utility.yul\":12382:12388   */\n      0x00\n        /* \"#utility.yul\":12390:12396   */\n      dup1\n        /* \"#utility.yul\":12439:12441   */\n      0x40\n        /* \"#utility.yul\":12427:12436   */\n      dup4\n        /* \"#utility.yul\":12418:12425   */\n      dup6\n        /* \"#utility.yul\":12414:12437   */\n      sub\n        /* \"#utility.yul\":12410:12442   */\n      slt\n        /* \"#utility.yul\":12407:12526   */\n      iszero\n      tag_620\n      jumpi\n        /* \"#utility.yul\":12445:12524   */\n      tag_621\n      tag_426\n      jump\t// in\n    tag_621:\n        /* \"#utility.yul\":12407:12526   */\n    tag_620:\n        /* \"#utility.yul\":12565:12566   */\n      0x00\n        /* \"#utility.yul\":12590:12643   */\n      tag_622\n        /* \"#utility.yul\":12635:12642   */\n      dup6\n        /* \"#utility.yul\":12626:12632   */\n      dup3\n        /* \"#utility.yul\":12615:12624   */\n      dup7\n        /* \"#utility.yul\":12611:12633   */\n      add\n        /* \"#utility.yul\":12590:12643   */\n      tag_440\n      jump\t// in\n    tag_622:\n        /* \"#utility.yul\":12580:12643   */\n      swap3\n      pop\n        /* \"#utility.yul\":12536:12653   */\n      pop\n        /* \"#utility.yul\":12692:12694   */\n      0x20\n        /* \"#utility.yul\":12718:12771   */\n      tag_623\n        /* \"#utility.yul\":12763:12770   */\n      dup6\n        /* \"#utility.yul\":12754:12760   */\n      dup3\n        /* \"#utility.yul\":12743:12752   */\n      dup7\n        /* \"#utility.yul\":12739:12761   */\n      add\n        /* \"#utility.yul\":12718:12771   */\n      tag_440\n      jump\t// in\n    tag_623:\n        /* \"#utility.yul\":12708:12771   */\n      swap2\n      pop\n        /* \"#utility.yul\":12663:12781   */\n      pop\n        /* \"#utility.yul\":12314:12788   */\n      swap3\n      pop\n      swap3\n      swap1\n      pop\n      jump\t// out\n        /* \"#utility.yul\":12794:12974   */\n    tag_457:\n        /* \"#utility.yul\":12842:12919   */\n      0x4e487b7100000000000000000000000000000000000000000000000000000000\n        /* \"#utility.yul\":12839:12840   */\n      0x00\n        /* \"#utility.yul\":12832:12920   */\n      mstore\n        /* \"#utility.yul\":12939:12943   */\n      0x22\n        /* \"#utility.yul\":12936:12937   */\n      0x04\n        /* \"#utility.yul\":12929:12944   */\n      mstore\n        /* \"#utility.yul\":12963:12967   */\n      0x24\n        /* \"#utility.yul\":12960:12961   */\n      0x00\n        /* \"#utility.yul\":12953:12968   */\n      revert\n        /* \"#utility.yul\":12980:13300   */\n    tag_189:\n        /* \"#utility.yul\":13024:13030   */\n      0x00\n        /* \"#utility.yul\":13061:13062   */\n      0x02\n        /* \"#utility.yul\":13055:13059   */\n      dup3\n        /* \"#utility.yul\":13051:13063   */\n      div\n        /* \"#utility.yul\":13041:13063   */\n      swap1\n      pop\n        /* \"#utility.yul\":13108:13109   */\n      0x01\n        /* \"#utility.yul\":13102:13106   */\n      dup3\n        /* \"#utility.yul\":13098:13110   */\n      and\n        /* \"#utility.yul\":13129:13147   */\n      dup1\n        /* \"#utility.yul\":13119:13200   */\n      tag_626\n      jumpi\n        /* \"#utility.yul\":13185:13189   */\n      0x7f\n        /* \"#utility.yul\":13177:13183   */\n      dup3\n        /* \"#utility.yul\":13173:13190   */\n      and\n        /* \"#utility.yul\":13163:13190   */\n      swap2\n      pop\n        /* \"#utility.yul\":13119:13200   */\n    tag_626:\n        /* \"#utility.yul\":13247:13249   */\n      0x20\n        /* \"#utility.yul\":13239:13245   */\n      dup3\n        /* \"#utility.yul\":13236:13250   */\n      lt\n        /* \"#utility.yul\":13216:13234   */\n      dup2\n        /* \"#utility.yul\":13213:13251   */\n      sub\n        /* \"#utility.yul\":13210:13294   */\n      tag_627\n      jumpi\n        /* \"#utility.yul\":13266:13284   */\n      tag_628\n      tag_457\n      jump\t// in\n    tag_628:\n        /* \"#utility.yul\":13210:13294   */\n    tag_627:\n        /* \"#utility.yul\":13031:13300   */\n      pop\n        /* \"#utility.yul\":12980:13300   */\n      swap2\n      swap1\n      pop\n      jump\t// out\n        /* \"#utility.yul\":13306:13486   */\n    tag_458:\n        /* \"#utility.yul\":13446:13478   */\n      0x496e73756666696369656e742066756e647320696e2074726561737572790000\n        /* \"#utility.yul\":13442:13443   */\n      0x00\n        /* \"#utility.yul\":13434:13440   */\n      dup3\n        /* \"#utility.yul\":13430:13444   */\n      add\n        /* \"#utility.yul\":13423:13479   */\n      mstore\n        /* \"#utility.yul\":13306:13486   */\n      pop\n      jump\t// out\n        /* \"#utility.yul\":13492:13858   */\n    tag_459:\n        /* \"#utility.yul\":13634:13637   */\n      0x00\n        /* \"#utility.yul\":13655:13722   */\n      tag_631\n        /* \"#utility.yul\":13719:13721   */\n      0x1e\n        /* \"#utility.yul\":13714:13717   */\n      dup4\n        /* \"#utility.yul\":13655:13722   */\n      tag_421\n      jump\t// in\n    tag_631:\n        /* \"#utility.yul\":13648:13722   */\n      swap2\n      pop\n        /* \"#utility.yul\":13731:13824   */\n      tag_632\n        /* \"#utility.yul\":13820:13823   */\n      dup3\n        /* \"#utility.yul\":13731:13824   */\n      tag_458\n      jump\t// in\n    tag_632:\n        /* \"#utility.yul\":13849:13851   */\n      0x20\n        /* \"#utility.yul\":13844:13847   */\n      dup3\n        /* \"#utility.yul\":13840:13852   */\n      add\n        /* \"#utility.yul\":13833:13852   */\n      swap1\n      pop\n        /* \"#utility.yul\":13492:13858   */\n      swap2\n      swap1\n      pop\n      jump\t// out\n        /* \"#utility.yul\":13864:14283   */\n    tag_218:\n        /* \"#utility.yul\":14030:14034   */\n      0x00\n        /* \"#utility.yul\":14068:14070   */\n      0x20\n        /* \"#utility.yul\":14057:14066   */\n      dup3\n        /* \"#utility.yul\":14053:14071   */\n      add\n        /* \"#utility.yul\":14045:14071   */\n      swap1\n      pop\n        /* \"#utility.yul\":14117:14126   */\n      dup2\n        /* \"#utility.yul\":14111:14115   */\n      dup2\n        /* \"#utility.yul\":14107:14127   */\n      sub\n        /* \"#utility.yul\":14103:14104   */\n      0x00\n        /* \"#utility.yul\":14092:14101   */\n      dup4\n        /* \"#utility.yul\":14088:14105   */\n      add\n        /* \"#utility.yul\":14081:14128   */\n      mstore\n        /* \"#utility.yul\":14145:14276   */\n      tag_634\n        /* \"#utility.yul\":14271:14275   */\n      dup2\n        /* \"#utility.yul\":14145:14276   */\n      tag_459\n      jump\t// in\n    tag_634:\n        /* \"#utility.yul\":14137:14276   */\n      swap1\n      pop\n        /* \"#utility.yul\":13864:14283   */\n      swap2\n      swap1\n      pop\n      jump\t// out\n        /* \"#utility.yul\":14289:14712   */\n    tag_226:\n        /* \"#utility.yul\":14430:14434   */\n      0x00\n        /* \"#utility.yul\":14468:14470   */\n      0x40\n        /* \"#utility.yul\":14457:14466   */\n      dup3\n        /* \"#utility.yul\":14453:14471   */\n      add\n        /* \"#utility.yul\":14445:14471   */\n      swap1\n      pop\n        /* \"#utility.yul\":14481:14552   */\n      tag_636\n        /* \"#utility.yul\":14549:14550   */\n      0x00\n        /* \"#utility.yul\":14538:14547   */\n      dup4\n        /* \"#utility.yul\":14534:14551   */\n      add\n        /* \"#utility.yul\":14525:14531   */\n      dup6\n        /* \"#utility.yul\":14481:14552   */\n      tag_449\n      jump\t// in\n    tag_636:\n        /* \"#utility.yul\":14599:14608   */\n      dup2\n        /* \"#utility.yul\":14593:14597   */\n      dup2\n        /* \"#utility.yul\":14589:14609   */\n      sub\n        /* \"#utility.yul\":14584:14586   */\n      0x20\n        /* \"#utility.yul\":14573:14582   */\n      dup4\n        /* \"#utility.yul\":14569:14587   */\n      add\n        /* \"#utility.yul\":14562:14610   */\n      mstore\n        /* \"#utility.yul\":14627:14705   */\n      tag_637\n        /* \"#utility.yul\":14700:14704   */\n      dup2\n        /* \"#utility.yul\":14691:14697   */\n      dup5\n        /* \"#utility.yul\":14627:14705   */\n      tag_424\n      jump\t// in\n    tag_637:\n        /* \"#utility.yul\":14619:14705   */\n      swap1\n      pop\n        /* \"#utility.yul\":14289:14712   */\n      swap4\n      swap3\n      pop\n      pop\n      pop\n      jump\t// out\n        /* \"#utility.yul\":14718:15160   */\n    tag_238:\n        /* \"#utility.yul\":14867:14871   */\n      0x00\n        /* \"#utility.yul\":14905:14907   */\n      0x60\n        /* \"#utility.yul\":14894:14903   */\n      dup3\n        /* \"#utility.yul\":14890:14908   */\n      add\n        /* \"#utility.yul\":14882:14908   */\n      swap1\n      pop\n        /* \"#utility.yul\":14918:14989   */\n      tag_639\n        /* \"#utility.yul\":14986:14987   */\n      0x00\n        /* \"#utility.yul\":14975:14984   */\n      dup4\n        /* \"#utility.yul\":14971:14988   */\n      add\n        /* \"#utility.yul\":14962:14968   */\n      dup7\n        /* \"#utility.yul\":14918:14989   */\n      tag_438\n      jump\t// in\n    tag_639:\n        /* \"#utility.yul\":14999:15071   */\n      tag_640\n        /* \"#utility.yul\":15067:15069   */\n      0x20\n        /* \"#utility.yul\":15056:15065   */\n      dup4\n        /* \"#utility.yul\":15052:15070   */\n      add\n        /* \"#utility.yul\":15043:15049   */\n      dup6\n        /* \"#utility.yul\":14999:15071   */\n      tag_449\n      jump\t// in\n    tag_640:\n        /* \"#utility.yul\":15081:15153   */\n      tag_641\n        /* \"#utility.yul\":15149:15151   */\n      0x40\n        /* \"#utility.yul\":15138:15147   */\n      dup4\n        /* \"#utility.yul\":15134:15152   */\n      add\n        /* \"#utility.yul\":15125:15131   */\n      dup5\n        /* \"#utility.yul\":15081:15153   */\n      tag_438\n      jump\t// in\n    tag_641:\n        /* \"#utility.yul\":14718:15160   */\n      swap5\n      swap4\n      pop\n      pop\n      pop\n      pop\n      jump\t// out\n        /* \"#utility.yul\":15166:15342   */\n    tag_460:\n        /* \"#utility.yul\":15306:15334   */\n      0x4e4654206e6f74206f776e656420627920746865206775696c64000000000000\n        /* \"#utility.yul\":15302:15303   */\n      0x00\n        /* \"#utility.yul\":15294:15300   */\n      dup3\n        /* \"#utility.yul\":15290:15304   */\n      add\n        /* \"#utility.yul\":15283:15335   */\n      mstore\n        /* \"#utility.yul\":15166:15342   */\n      pop\n      jump\t// out\n        /* \"#utility.yul\":15348:15714   */\n    tag_461:\n        /* \"#utility.yul\":15490:15493   */\n      0x00\n        /* \"#utility.yul\":15511:15578   */\n      tag_644\n        /* \"#utility.yul\":15575:15577   */\n      0x1a\n        /* \"#utility.yul\":15570:15573   */\n      dup4\n        /* \"#utility.yul\":15511:15578   */\n      tag_421\n      jump\t// in\n    tag_644:\n        /* \"#utility.yul\":15504:15578   */\n      swap2\n      pop\n        /* \"#utility.yul\":15587:15680   */\n      tag_645\n        /* \"#utility.yul\":15676:15679   */\n      dup3\n        /* \"#utility.yul\":15587:15680   */\n      tag_460\n      jump\t// in\n    tag_645:\n        /* \"#utility.yul\":15705:15707   */\n      0x20\n        /* \"#utility.yul\":15700:15703   */\n      dup3\n        /* \"#utility.yul\":15696:15708   */\n      add\n        /* \"#utility.yul\":15689:15708   */\n      swap1\n      pop\n        /* \"#utility.yul\":15348:15714   */\n      swap2\n      swap1\n      pop\n      jump\t// out\n        /* \"#utility.yul\":15720:16139   */\n    tag_248:\n        /* \"#utility.yul\":15886:15890   */\n      0x00\n        /* \"#utility.yul\":15924:15926   */\n      0x20\n        /* \"#utility.yul\":15913:15922   */\n      dup3\n        /* \"#utility.yul\":15909:15927   */\n      add\n        /* \"#utility.yul\":15901:15927   */\n      swap1\n      pop\n        /* \"#utility.yul\":15973:15982   */\n      dup2\n        /* \"#utility.yul\":15967:15971   */\n      dup2\n        /* \"#utility.yul\":15963:15983   */\n      sub\n        /* \"#utility.yul\":15959:15960   */\n      0x00\n        /* \"#utility.yul\":15948:15957   */\n      dup4\n        /* \"#utility.yul\":15944:15961   */\n      add\n        /* \"#utility.yul\":15937:15984   */\n      mstore\n        /* \"#utility.yul\":16001:16132   */\n      tag_647\n        /* \"#utility.yul\":16127:16131   */\n      dup2\n        /* \"#utility.yul\":16001:16132   */\n      tag_461\n      jump\t// in\n    tag_647:\n        /* \"#utility.yul\":15993:16132   */\n      swap1\n      pop\n        /* \"#utility.yul\":15720:16139   */\n      swap2\n      swap1\n      pop\n      jump\t// out\n        /* \"#utility.yul\":16145:16477   */\n    tag_251:\n        /* \"#utility.yul\":16266:16270   */\n      0x00\n        /* \"#utility.yul\":16304:16306   */\n      0x40\n        /* \"#utility.yul\":16293:16302   */\n      dup3\n        /* \"#utility.yul\":16289:16307   */\n      add\n        /* \"#utility.yul\":16281:16307   */\n      swap1\n      pop\n        /* \"#utility.yul\":16317:16388   */\n      tag_649\n        /* \"#utility.yul\":16385:16386   */\n      0x00\n        /* \"#utility.yul\":16374:16383   */\n      dup4\n        /* \"#utility.yul\":16370:16387   */\n      add\n        /* \"#utility.yul\":16361:16367   */\n      dup6\n        /* \"#utility.yul\":16317:16388   */\n      tag_449\n      jump\t// in\n    tag_649:\n        /* \"#utility.yul\":16398:16470   */\n      tag_650\n        /* \"#utility.yul\":16466:16468   */\n      0x20\n        /* \"#utility.yul\":16455:16464   */\n      dup4\n        /* \"#utility.yul\":16451:16469   */\n      add\n        /* \"#utility.yul\":16442:16448   */\n      dup5\n        /* \"#utility.yul\":16398:16470   */\n      tag_438\n      jump\t// in\n    tag_650:\n        /* \"#utility.yul\":16145:16477   */\n      swap4\n      swap3\n      pop\n      pop\n      pop\n      jump\t// out\n        /* \"#utility.yul\":16483:16712   */\n    tag_462:\n        /* \"#utility.yul\":16623:16657   */\n      0x4f6e6c79206775696c64206d656d626572732063616e20706572666f726d2074\n        /* \"#utility.yul\":16619:16620   */\n      0x00\n        /* \"#utility.yul\":16611:16617   */\n      dup3\n        /* \"#utility.yul\":16607:16621   */\n      add\n        /* \"#utility.yul\":16600:16658   */\n      mstore\n        /* \"#utility.yul\":16692:16704   */\n      0x68697320616374696f6e00000000000000000000000000000000000000000000\n        /* \"#utility.yul\":16687:16689   */\n      0x20\n        /* \"#utility.yul\":16679:16685   */\n      dup3\n        /* \"#utility.yul\":16675:16690   */\n      add\n        /* \"#utility.yul\":16668:16705   */\n      mstore\n        /* \"#utility.yul\":16483:16712   */\n      pop\n      jump\t// out\n        /* \"#utility.yul\":16718:17084   */\n    tag_463:\n        /* \"#utility.yul\":16860:16863   */\n      0x00\n        /* \"#utility.yul\":16881:16948   */\n      tag_653\n        /* \"#utility.yul\":16945:16947   */\n      0x2a\n        /* \"#utility.yul\":16940:16943   */\n      dup4\n        /* \"#utility.yul\":16881:16948   */\n      tag_421\n      jump\t// in\n    tag_653:\n        /* \"#utility.yul\":16874:16948   */\n      swap2\n      pop\n        /* \"#utility.yul\":16957:17050   */\n      tag_654\n        /* \"#utility.yul\":17046:17049   */\n      dup3\n        /* \"#utility.yul\":16957:17050   */\n      tag_462\n      jump\t// in\n    tag_654:\n        /* \"#utility.yul\":17075:17077   */\n      0x40\n        /* \"#utility.yul\":17070:17073   */\n      dup3\n        /* \"#utility.yul\":17066:17078   */\n      add\n        /* \"#utility.yul\":17059:17078   */\n      swap1\n      pop\n        /* \"#utility.yul\":16718:17084   */\n      swap2\n      swap1\n      pop\n      jump\t// out\n        /* \"#utility.yul\":17090:17509   */\n    tag_267:\n        /* \"#utility.yul\":17256:17260   */\n      0x00\n        /* \"#utility.yul\":17294:17296   */\n      0x20\n        /* \"#utility.yul\":17283:17292   */\n      dup3\n        /* \"#utility.yul\":17279:17297   */\n      add\n        /* \"#utility.yul\":17271:17297   */\n      swap1\n      pop\n        /* \"#utility.yul\":17343:17352   */\n      dup2\n        /* \"#utility.yul\":17337:17341   */\n      dup2\n        /* \"#utility.yul\":17333:17353   */\n      sub\n        /* \"#utility.yul\":17329:17330   */\n      0x00\n        /* \"#utility.yul\":17318:17327   */\n      dup4\n        /* \"#utility.yul\":17314:17331   */\n      add\n        /* \"#utility.yul\":17307:17354   */\n      mstore\n        /* \"#utility.yul\":17371:17502   */\n      tag_656\n        /* \"#utility.yul\":17497:17501   */\n      dup2\n        /* \"#utility.yul\":17371:17502   */\n      tag_463\n      jump\t// in\n    tag_656:\n        /* \"#utility.yul\":17363:17502   */\n      swap1\n      pop\n        /* \"#utility.yul\":17090:17509   */\n      swap2\n      swap1\n      pop\n      jump\t// out\n        /* \"#utility.yul\":17515:17695   */\n    tag_464:\n        /* \"#utility.yul\":17563:17640   */\n      0x4e487b7100000000000000000000000000000000000000000000000000000000\n        /* \"#utility.yul\":17560:17561   */\n      0x00\n        /* \"#utility.yul\":17553:17641   */\n      mstore\n        /* \"#utility.yul\":17660:17664   */\n      0x11\n        /* \"#utility.yul\":17657:17658   */\n      0x04\n        /* \"#utility.yul\":17650:17665   */\n      mstore\n        /* \"#utility.yul\":17684:17688   */\n      0x24\n        /* \"#utility.yul\":17681:17682   */\n      0x00\n        /* \"#utility.yul\":17674:17689   */\n      revert\n        /* \"#utility.yul\":17701:18111   */\n    tag_278:\n        /* \"#utility.yul\":17741:17748   */\n      0x00\n        /* \"#utility.yul\":17764:17784   */\n      tag_659\n        /* \"#utility.yul\":17782:17783   */\n      dup3\n        /* \"#utility.yul\":17764:17784   */\n      tag_433\n      jump\t// in\n    tag_659:\n        /* \"#utility.yul\":17759:17784   */\n      swap2\n      pop\n        /* \"#utility.yul\":17798:17818   */\n      tag_660\n        /* \"#utility.yul\":17816:17817   */\n      dup4\n        /* \"#utility.yul\":17798:17818   */\n      tag_433\n      jump\t// in\n    tag_660:\n        /* \"#utility.yul\":17793:17818   */\n      swap3\n      pop\n        /* \"#utility.yul\":17853:17854   */\n      dup3\n        /* \"#utility.yul\":17850:17851   */\n      dup3\n        /* \"#utility.yul\":17846:17855   */\n      mul\n        /* \"#utility.yul\":17875:17905   */\n      tag_661\n        /* \"#utility.yul\":17893:17904   */\n      dup2\n        /* \"#utility.yul\":17875:17905   */\n      tag_433\n      jump\t// in\n    tag_661:\n        /* \"#utility.yul\":17864:17905   */\n      swap2\n      pop\n        /* \"#utility.yul\":18054:18055   */\n      dup3\n        /* \"#utility.yul\":18045:18052   */\n      dup3\n        /* \"#utility.yul\":18041:18056   */\n      div\n        /* \"#utility.yul\":18038:18039   */\n      dup5\n        /* \"#utility.yul\":18035:18057   */\n      eq\n        /* \"#utility.yul\":18015:18016   */\n      dup4\n        /* \"#utility.yul\":18008:18017   */\n      iszero\n        /* \"#utility.yul\":17988:18071   */\n      or\n        /* \"#utility.yul\":17965:18104   */\n      tag_662\n      jumpi\n        /* \"#utility.yul\":18084:18102   */\n      tag_663\n      tag_464\n      jump\t// in\n    tag_663:\n        /* \"#utility.yul\":17965:18104   */\n    tag_662:\n        /* \"#utility.yul\":17749:18111   */\n      pop\n        /* \"#utility.yul\":17701:18111   */\n      swap3\n      swap2\n      pop\n      pop\n      jump\t// out\n        /* \"#utility.yul\":18117:18297   */\n    tag_373:\n        /* \"#utility.yul\":18165:18242   */\n      0x4e487b7100000000000000000000000000000000000000000000000000000000\n        /* \"#utility.yul\":18162:18163   */\n      0x00\n        /* \"#utility.yul\":18155:18243   */\n      mstore\n        /* \"#utility.yul\":18262:18266   */\n      0x12\n        /* \"#utility.yul\":18259:18260   */\n      0x04\n        /* \"#utility.yul\":18252:18267   */\n      mstore\n        /* \"#utility.yul\":18286:18290   */\n      0x24\n        /* \"#utility.yul\":18283:18284   */\n      0x00\n        /* \"#utility.yul\":18276:18291   */\n      revert\n        /* \"#utility.yul\":18303:18488   */\n    tag_280:\n        /* \"#utility.yul\":18343:18344   */\n      0x00\n        /* \"#utility.yul\":18360:18380   */\n      tag_666\n        /* \"#utility.yul\":18378:18379   */\n      dup3\n        /* \"#utility.yul\":18360:18380   */\n      tag_433\n      jump\t// in\n    tag_666:\n        /* \"#utility.yul\":18355:18380   */\n      swap2\n      pop\n        /* \"#utility.yul\":18394:18414   */\n      tag_667\n        /* \"#utility.yul\":18412:18413   */\n      dup4\n        /* \"#utility.yul\":18394:18414   */\n      tag_433\n      jump\t// in\n    tag_667:\n        /* \"#utility.yul\":18389:18414   */\n      swap3\n      pop\n        /* \"#utility.yul\":18433:18434   */\n      dup3\n        /* \"#utility.yul\":18423:18458   */\n      tag_668\n      jumpi\n        /* \"#utility.yul\":18438:18456   */\n      tag_669\n      tag_373\n      jump\t// in\n    tag_669:\n        /* \"#utility.yul\":18423:18458   */\n    tag_668:\n        /* \"#utility.yul\":18480:18481   */\n      dup3\n        /* \"#utility.yul\":18477:18478   */\n      dup3\n        /* \"#utility.yul\":18473:18482   */\n      div\n        /* \"#utility.yul\":18468:18482   */\n      swap1\n      pop\n        /* \"#utility.yul\":18303:18488   */\n      swap3\n      swap2\n      pop\n      pop\n      jump\t// out\n        /* \"#utility.yul\":18494:18642   */\n    tag_465:\n        /* \"#utility.yul\":18596:18607   */\n      0x00\n        /* \"#utility.yul\":18633:18636   */\n      dup2\n        /* \"#utility.yul\":18618:18636   */\n      swap1\n      pop\n        /* \"#utility.yul\":18494:18642   */\n      swap3\n      swap2\n      pop\n      pop\n      jump\t// out\n        /* \"#utility.yul\":18648:19038   */\n    tag_466:\n        /* \"#utility.yul\":18754:18757   */\n      0x00\n        /* \"#utility.yul\":18782:18821   */\n      tag_672\n        /* \"#utility.yul\":18815:18820   */\n      dup3\n        /* \"#utility.yul\":18782:18821   */\n      tag_420\n      jump\t// in\n    tag_672:\n        /* \"#utility.yul\":18837:18926   */\n      tag_673\n        /* \"#utility.yul\":18919:18925   */\n      dup2\n        /* \"#utility.yul\":18914:18917   */\n      dup6\n        /* \"#utility.yul\":18837:18926   */\n      tag_465\n      jump\t// in\n    tag_673:\n        /* \"#utility.yul\":18830:18926   */\n      swap4\n      pop\n        /* \"#utility.yul\":18935:19000   */\n      tag_674\n        /* \"#utility.yul\":18993:18999   */\n      dup2\n        /* \"#utility.yul\":18988:18991   */\n      dup6\n        /* \"#utility.yul\":18981:18985   */\n      0x20\n        /* \"#utility.yul\":18974:18979   */\n      dup7\n        /* \"#utility.yul\":18970:18986   */\n      add\n        /* \"#utility.yul\":18935:19000   */\n      tag_422\n      jump\t// in\n    tag_674:\n        /* \"#utility.yul\":19025:19031   */\n      dup1\n        /* \"#utility.yul\":19020:19023   */\n      dup5\n        /* \"#utility.yul\":19016:19032   */\n      add\n        /* \"#utility.yul\":19009:19032   */\n      swap2\n      pop\n        /* \"#utility.yul\":18758:19038   */\n      pop\n        /* \"#utility.yul\":18648:19038   */\n      swap3\n      swap2\n      pop\n      pop\n      jump\t// out\n        /* \"#utility.yul\":19044:19479   */\n    tag_300:\n        /* \"#utility.yul\":19224:19227   */\n      0x00\n        /* \"#utility.yul\":19246:19341   */\n      tag_676\n        /* \"#utility.yul\":19337:19340   */\n      dup3\n        /* \"#utility.yul\":19328:19334   */\n      dup6\n        /* \"#utility.yul\":19246:19341   */\n      tag_466\n      jump\t// in\n    tag_676:\n        /* \"#utility.yul\":19239:19341   */\n      swap2\n      pop\n        /* \"#utility.yul\":19358:19453   */\n      tag_677\n        /* \"#utility.yul\":19449:19452   */\n      dup3\n        /* \"#utility.yul\":19440:19446   */\n      dup5\n        /* \"#utility.yul\":19358:19453   */\n      tag_466\n      jump\t// in\n    tag_677:\n        /* \"#utility.yul\":19351:19453   */\n      swap2\n      pop\n        /* \"#utility.yul\":19470:19473   */\n      dup2\n        /* \"#utility.yul\":19463:19473   */\n      swap1\n      pop\n        /* \"#utility.yul\":19044:19479   */\n      swap4\n      swap3\n      pop\n      pop\n      pop\n      jump\t// out\n        /* \"#utility.yul\":19485:19545   */\n    tag_467:\n        /* \"#utility.yul\":19513:19516   */\n      0x00\n        /* \"#utility.yul\":19534:19539   */\n      dup2\n        /* \"#utility.yul\":19527:19539   */\n      swap1\n      pop\n        /* \"#utility.yul\":19485:19545   */\n      swap2\n      swap1\n      pop\n      jump\t// out\n        /* \"#utility.yul\":19551:19693   */\n    tag_468:\n        /* \"#utility.yul\":19601:19610   */\n      0x00\n        /* \"#utility.yul\":19634:19687   */\n      tag_680\n        /* \"#utility.yul\":19652:19686   */\n      tag_681\n        /* \"#utility.yul\":19661:19685   */\n      tag_682\n        /* \"#utility.yul\":19679:19684   */\n      dup5\n        /* \"#utility.yul\":19661:19685   */\n      tag_436\n      jump\t// in\n    tag_682:\n        /* \"#utility.yul\":19652:19686   */\n      tag_467\n      jump\t// in\n    tag_681:\n        /* \"#utility.yul\":19634:19687   */\n      tag_436\n      jump\t// in\n    tag_680:\n        /* \"#utility.yul\":19621:19687   */\n      swap1\n      pop\n        /* \"#utility.yul\":19551:19693   */\n      swap2\n      swap1\n      pop\n      jump\t// out\n        /* \"#utility.yul\":19699:19825   */\n    tag_469:\n        /* \"#utility.yul\":19749:19758   */\n      0x00\n        /* \"#utility.yul\":19782:19819   */\n      tag_684\n        /* \"#utility.yul\":19813:19818   */\n      dup3\n        /* \"#utility.yul\":19782:19819   */\n      tag_468\n      jump\t// in\n    tag_684:\n        /* \"#utility.yul\":19769:19819   */\n      swap1\n      pop\n        /* \"#utility.yul\":19699:19825   */\n      swap2\n      swap1\n      pop\n      jump\t// out\n        /* \"#utility.yul\":19831:19965   */\n    tag_470:\n        /* \"#utility.yul\":19889:19898   */\n      0x00\n        /* \"#utility.yul\":19922:19959   */\n      tag_686\n        /* \"#utility.yul\":19953:19958   */\n      dup3\n        /* \"#utility.yul\":19922:19959   */\n      tag_469\n      jump\t// in\n    tag_686:\n        /* \"#utility.yul\":19909:19959   */\n      swap1\n      pop\n        /* \"#utility.yul\":19831:19965   */\n      swap2\n      swap1\n      pop\n      jump\t// out\n        /* \"#utility.yul\":19971:20118   */\n    tag_471:\n        /* \"#utility.yul\":20066:20111   */\n      tag_688\n        /* \"#utility.yul\":20105:20110   */\n      dup2\n        /* \"#utility.yul\":20066:20111   */\n      tag_470\n      jump\t// in\n    tag_688:\n        /* \"#utility.yul\":20061:20064   */\n      dup3\n        /* \"#utility.yul\":20054:20112   */\n      mstore\n        /* \"#utility.yul\":19971:20118   */\n      pop\n      pop\n      jump\t// out\n        /* \"#utility.yul\":20124:20472   */\n    tag_308:\n        /* \"#utility.yul\":20253:20257   */\n      0x00\n        /* \"#utility.yul\":20291:20293   */\n      0x40\n        /* \"#utility.yul\":20280:20289   */\n      dup3\n        /* \"#utility.yul\":20276:20294   */\n      add\n        /* \"#utility.yul\":20268:20294   */\n      swap1\n      pop\n        /* \"#utility.yul\":20304:20375   */\n      tag_690\n        /* \"#utility.yul\":20372:20373   */\n      0x00\n        /* \"#utility.yul\":20361:20370   */\n      dup4\n        /* \"#utility.yul\":20357:20374   */\n      add\n        /* \"#utility.yul\":20348:20354   */\n      dup6\n        /* \"#utility.yul\":20304:20375   */\n      tag_449\n      jump\t// in\n    tag_690:\n        /* \"#utility.yul\":20385:20465   */\n      tag_691\n        /* \"#utility.yul\":20461:20463   */\n      0x20\n        /* \"#utility.yul\":20450:20459   */\n      dup4\n        /* \"#utility.yul\":20446:20464   */\n      add\n        /* \"#utility.yul\":20437:20443   */\n      dup5\n        /* \"#utility.yul\":20385:20465   */\n      tag_471\n      jump\t// in\n    tag_691:\n        /* \"#utility.yul\":20124:20472   */\n      swap4\n      swap3\n      pop\n      pop\n      pop\n      jump\t// out\n        /* \"#utility.yul\":20478:20576   */\n    tag_472:\n        /* \"#utility.yul\":20529:20535   */\n      0x00\n        /* \"#utility.yul\":20563:20568   */\n      dup2\n        /* \"#utility.yul\":20557:20569   */\n      mload\n        /* \"#utility.yul\":20547:20569   */\n      swap1\n      pop\n        /* \"#utility.yul\":20478:20576   */\n      swap2\n      swap1\n      pop\n      jump\t// out\n        /* \"#utility.yul\":20582:20750   */\n    tag_473:\n        /* \"#utility.yul\":20665:20676   */\n      0x00\n        /* \"#utility.yul\":20699:20705   */\n      dup3\n        /* \"#utility.yul\":20694:20697   */\n      dup3\n        /* \"#utility.yul\":20687:20706   */\n      mstore\n        /* \"#utility.yul\":20739:20743   */\n      0x20\n        /* \"#utility.yul\":20734:20737   */\n      dup3\n        /* \"#utility.yul\":20730:20744   */\n      add\n        /* \"#utility.yul\":20715:20744   */\n      swap1\n      pop\n        /* \"#utility.yul\":20582:20750   */\n      swap3\n      swap2\n      pop\n      pop\n      jump\t// out\n        /* \"#utility.yul\":20756:21129   */\n    tag_474:\n        /* \"#utility.yul\":20842:20845   */\n      0x00\n        /* \"#utility.yul\":20870:20908   */\n      tag_695\n        /* \"#utility.yul\":20902:20907   */\n      dup3\n        /* \"#utility.yul\":20870:20908   */\n      tag_472\n      jump\t// in\n    tag_695:\n        /* \"#utility.yul\":20924:20994   */\n      tag_696\n        /* \"#utility.yul\":20987:20993   */\n      dup2\n        /* \"#utility.yul\":20982:20985   */\n      dup6\n        /* \"#utility.yul\":20924:20994   */\n      tag_473\n      jump\t// in\n    tag_696:\n        /* \"#utility.yul\":20917:20994   */\n      swap4\n      pop\n        /* \"#utility.yul\":21003:21068   */\n      tag_697\n        /* \"#utility.yul\":21061:21067   */\n      dup2\n        /* \"#utility.yul\":21056:21059   */\n      dup6\n        /* \"#utility.yul\":21049:21053   */\n      0x20\n        /* \"#utility.yul\":21042:21047   */\n      dup7\n        /* \"#utility.yul\":21038:21054   */\n      add\n        /* \"#utility.yul\":21003:21068   */\n      tag_422\n      jump\t// in\n    tag_697:\n        /* \"#utility.yul\":21093:21122   */\n      tag_698\n        /* \"#utility.yul\":21115:21121   */\n      dup2\n        /* \"#utility.yul\":21093:21122   */\n      tag_423\n      jump\t// in\n    tag_698:\n        /* \"#utility.yul\":21088:21091   */\n      dup5\n        /* \"#utility.yul\":21084:21123   */\n      add\n        /* \"#utility.yul\":21077:21123   */\n      swap2\n      pop\n        /* \"#utility.yul\":20846:21129   */\n      pop\n        /* \"#utility.yul\":20756:21129   */\n      swap3\n      swap2\n      pop\n      pop\n      jump\t// out\n        /* \"#utility.yul\":21135:21775   */\n    tag_345:\n        /* \"#utility.yul\":21330:21334   */\n      0x00\n        /* \"#utility.yul\":21368:21371   */\n      0x80\n        /* \"#utility.yul\":21357:21366   */\n      dup3\n        /* \"#utility.yul\":21353:21372   */\n      add\n        /* \"#utility.yul\":21345:21372   */\n      swap1\n      pop\n        /* \"#utility.yul\":21382:21453   */\n      tag_700\n        /* \"#utility.yul\":21450:21451   */\n      0x00\n        /* \"#utility.yul\":21439:21448   */\n      dup4\n        /* \"#utility.yul\":21435:21452   */\n      add\n        /* \"#utility.yul\":21426:21432   */\n      dup8\n        /* \"#utility.yul\":21382:21453   */\n      tag_438\n      jump\t// in\n    tag_700:\n        /* \"#utility.yul\":21463:21535   */\n      tag_701\n        /* \"#utility.yul\":21531:21533   */\n      0x20\n        /* \"#utility.yul\":21520:21529   */\n      dup4\n        /* \"#utility.yul\":21516:21534   */\n      add\n        /* \"#utility.yul\":21507:21513   */\n      dup7\n        /* \"#utility.yul\":21463:21535   */\n      tag_438\n      jump\t// in\n    tag_701:\n        /* \"#utility.yul\":21545:21617   */\n      tag_702\n        /* \"#utility.yul\":21613:21615   */\n      0x40\n        /* \"#utility.yul\":21602:21611   */\n      dup4\n        /* \"#utility.yul\":21598:21616   */\n      add\n        /* \"#utility.yul\":21589:21595   */\n      dup6\n        /* \"#utility.yul\":21545:21617   */\n      tag_449\n      jump\t// in\n    tag_702:\n        /* \"#utility.yul\":21664:21673   */\n      dup2\n        /* \"#utility.yul\":21658:21662   */\n      dup2\n        /* \"#utility.yul\":21654:21674   */\n      sub\n        /* \"#utility.yul\":21649:21651   */\n      0x60\n        /* \"#utility.yul\":21638:21647   */\n      dup4\n        /* \"#utility.yul\":21634:21652   */\n      add\n        /* \"#utility.yul\":21627:21675   */\n      mstore\n        /* \"#utility.yul\":21692:21768   */\n      tag_703\n        /* \"#utility.yul\":21763:21767   */\n      dup2\n        /* \"#utility.yul\":21754:21760   */\n      dup5\n        /* \"#utility.yul\":21692:21768   */\n      tag_474\n      jump\t// in\n    tag_703:\n        /* \"#utility.yul\":21684:21768   */\n      swap1\n      pop\n        /* \"#utility.yul\":21135:21775   */\n      swap6\n      swap5\n      pop\n      pop\n      pop\n      pop\n      pop\n      jump\t// out\n        /* \"#utility.yul\":21781:21922   */\n    tag_475:\n        /* \"#utility.yul\":21837:21842   */\n      0x00\n        /* \"#utility.yul\":21868:21874   */\n      dup2\n        /* \"#utility.yul\":21862:21875   */\n      mload\n        /* \"#utility.yul\":21853:21875   */\n      swap1\n      pop\n        /* \"#utility.yul\":21884:21916   */\n      tag_705\n        /* \"#utility.yul\":21910:21915   */\n      dup2\n        /* \"#utility.yul\":21884:21916   */\n      tag_429\n      jump\t// in\n    tag_705:\n        /* \"#utility.yul\":21781:21922   */\n      swap3\n      swap2\n      pop\n      pop\n      jump\t// out\n        /* \"#utility.yul\":21928:22277   */\n    tag_348:\n        /* \"#utility.yul\":21997:22003   */\n      0x00\n        /* \"#utility.yul\":22046:22048   */\n      0x20\n        /* \"#utility.yul\":22034:22043   */\n      dup3\n        /* \"#utility.yul\":22025:22032   */\n      dup5\n        /* \"#utility.yul\":22021:22044   */\n      sub\n        /* \"#utility.yul\":22017:22049   */\n      slt\n        /* \"#utility.yul\":22014:22133   */\n      iszero\n      tag_707\n      jumpi\n        /* \"#utility.yul\":22052:22131   */\n      tag_708\n      tag_426\n      jump\t// in\n    tag_708:\n        /* \"#utility.yul\":22014:22133   */\n    tag_707:\n        /* \"#utility.yul\":22172:22173   */\n      0x00\n        /* \"#utility.yul\":22197:22260   */\n      tag_709\n        /* \"#utility.yul\":22252:22259   */\n      dup5\n        /* \"#utility.yul\":22243:22249   */\n      dup3\n        /* \"#utility.yul\":22232:22241   */\n      dup6\n        /* \"#utility.yul\":22228:22250   */\n      add\n        /* \"#utility.yul\":22197:22260   */\n      tag_475\n      jump\t// in\n    tag_709:\n        /* \"#utility.yul\":22187:22260   */\n      swap2\n      pop\n        /* \"#utility.yul\":22143:22270   */\n      pop\n        /* \"#utility.yul\":21928:22277   */\n      swap3\n      swap2\n      pop\n      pop\n      jump\t// out\n        /* \"#utility.yul\":22283:22615   */\n    tag_393:\n        /* \"#utility.yul\":22404:22408   */\n      0x00\n        /* \"#utility.yul\":22442:22444   */\n      0x40\n        /* \"#utility.yul\":22431:22440   */\n      dup3\n        /* \"#utility.yul\":22427:22445   */\n      add\n        /* \"#utility.yul\":22419:22445   */\n      swap1\n      pop\n        /* \"#utility.yul\":22455:22526   */\n      tag_711\n        /* \"#utility.yul\":22523:22524   */\n      0x00\n        /* \"#utility.yul\":22512:22521   */\n      dup4\n        /* \"#utility.yul\":22508:22525   */\n      add\n        /* \"#utility.yul\":22499:22505   */\n      dup6\n        /* \"#utility.yul\":22455:22526   */\n      tag_438\n      jump\t// in\n    tag_711:\n        /* \"#utility.yul\":22536:22608   */\n      tag_712\n        /* \"#utility.yul\":22604:22606   */\n      0x20\n        /* \"#utility.yul\":22593:22602   */\n      dup4\n        /* \"#utility.yul\":22589:22607   */\n      add\n        /* \"#utility.yul\":22580:22586   */\n      dup5\n        /* \"#utility.yul\":22536:22608   */\n      tag_449\n      jump\t// in\n    tag_712:\n        /* \"#utility.yul\":22283:22615   */\n      swap4\n      swap3\n      pop\n      pop\n      pop\n      jump\t// out\n\n    auxdata: 0xa2646970667358221220311bd884557d50102ed7c7e9c8668cd36b909e2deda34e214a3a64bf38709a3064736f6c63430008190033\n}\n",
				"bytecode": {
					"linkReferences": {},
					"object": "608060405234801561000f575f80fd5b506040518060400160405280600881526020017f44414747204e46540000000000000000000000000000000000000000000000008152506040518060400160405280600481526020017f4441474700000000000000000000000000000000000000000000000000000000815250815f908161008a91906102dc565b50806001908161009a91906102dc565b5050506103ab565b5f81519050919050565b7f4e487b71000000000000000000000000000000000000000000000000000000005f52604160045260245ffd5b7f4e487b71000000000000000000000000000000000000000000000000000000005f52602260045260245ffd5b5f600282049050600182168061011d57607f821691505b6020821081036101305761012f6100d9565b5b50919050565b5f819050815f5260205f209050919050565b5f6020601f8301049050919050565b5f82821b905092915050565b5f600883026101927fffffffffffffffffffffffffffffffffffffffffffffffffffffffffffffffff82610157565b61019c8683610157565b95508019841693508086168417925050509392505050565b5f819050919050565b5f819050919050565b5f6101e06101db6101d6846101b4565b6101bd565b6101b4565b9050919050565b5f819050919050565b6101f9836101c6565b61020d610205826101e7565b848454610163565b825550505050565b5f90565b610221610215565b61022c8184846101f0565b505050565b5b8181101561024f576102445f82610219565b600181019050610232565b5050565b601f8211156102945761026581610136565b61026e84610148565b8101602085101561027d578190505b61029161028985610148565b830182610231565b50505b505050565b5f82821c905092915050565b5f6102b45f1984600802610299565b1980831691505092915050565b5f6102cc83836102a5565b9150826002028217905092915050565b6102e5826100a2565b67ffffffffffffffff8111156102fe576102fd6100ac565b5b6103088254610106565b610313828285610253565b5f60209050601f831160018114610344575f8415610332578287015190505b61033c85826102c1565b8655506103a3565b601f19841661035286610136565b5f5b8281101561037957848901518255600182019150602085019450602081019050610354565b868310156103965784890151610392601f8916826102a5565b8355505b6001600288020188555050505b505050505050565b612af9806103b85f395ff3fe6080604052600436106101e1575f3560e01c80636352211e11610101578063abc8c7af11610094578063e2c7928111610063578063e2c79281146106cd578063e985e9c5146106f7578063ede8592b14610733578063f796c2d91461075d576101e1565b8063abc8c7af14610615578063b88d4fde1461063f578063c713a28914610667578063c87b56dd14610691576101e1565b806395d89b41116100d057806395d89b411461057157806397f7d0d51461059b5780639a969768146105c5578063a22cb465146105ed576101e1565b80636352211e146104a557806368f5cd3b146104e157806370a082311461050b5780637e83057414610547576101e1565b806323b872dd116101795780634c39a749116101485780634c39a749146103ff578063529062fa146104295780635301fa6f146104515780635743ceda1461047b576101e1565b806323b872dd14610349578063313dab201461037157806331c258e81461039b57806342842e0e146103d7576101e1565b8063095ea7b3116101b5578063095ea7b3146102b15780630c29f635146102d95780630d39fc81146102f557806318160ddd1461031f576101e1565b80628bfb00146101e557806301ffc9a71461020f57806306fdde031461024b578063081812fc14610275575b5f80fd5b3480156101f0575f80fd5b506101f9610773565b6040516102069190611f98565b60405180910390f35b34801561021a575f80fd5b506102356004803603810190610230919061201e565b6107ff565b6040516102429190612063565b60405180910390f35b348015610256575f80fd5b5061025f6108e0565b60405161026c9190611f98565b60405180910390f35b348015610280575f80fd5b5061029b600480360381019061029691906120af565b61096f565b6040516102a89190612119565b60405180910390f35b3480156102bc575f80fd5b506102d760048036038101906102d2919061215c565b61098a565b005b6102f360048036038101906102ee91906122c6565b6109a0565b005b348015610300575f80fd5b50610309610a9c565b6040516103169190612341565b60405180910390f35b34801561032a575f80fd5b50610333610aa2565b6040516103409190612341565b60405180910390f35b348015610354575f80fd5b5061036f600480360381019061036a919061235a565b610ab2565b005b34801561037c575f80fd5b50610385610bb1565b6040516103929190612341565b60405180910390f35b3480156103a6575f80fd5b506103c160048036038101906103bc919061215c565b610bb7565b6040516103ce9190612341565b60405180910390f35b3480156103e2575f80fd5b506103fd60048036038101906103f8919061235a565b610be2565b005b34801561040a575f80fd5b50610413610c01565b6040516104209190612119565b60405180910390f35b348015610434575f80fd5b5061044f600480360381019061044a91906120af565b610c26565b005b34801561045c575f80fd5b50610465610d39565b6040516104729190612341565b60405180910390f35b348015610486575f80fd5b5061048f610d3f565b60405161049c9190612341565b60405180910390f35b3480156104b0575f80fd5b506104cb60048036038101906104c691906120af565b610d45565b6040516104d89190612119565b60405180910390f35b3480156104ec575f80fd5b506104f5610d56565b6040516105029190612341565b60405180910390f35b348015610516575f80fd5b50610531600480360381019061052c91906123aa565b610d5c565b60405161053e9190612341565b60405180910390f35b348015610552575f80fd5b5061055b610e12565b6040516105689190612341565b60405180910390f35b34801561057c575f80fd5b50610585610e18565b6040516105929190611f98565b60405180910390f35b3480156105a6575f80fd5b506105af610ea8565b6040516105bc9190612341565b60405180910390f35b3480156105d0575f80fd5b506105eb60048036038101906105e691906120af565b610eae565b005b3480156105f8575f80fd5b50610613600480360381019061060e91906123ff565b610fa4565b005b348015610620575f80fd5b50610629610fba565b604051610636919061245d565b60405180910390f35b34801561064a575f80fd5b5061066560048036038101906106609190612514565b610fdf565b005b348015610672575f80fd5b5061067b610ffc565b6040516106889190612341565b60405180910390f35b34801561069c575f80fd5b506106b760048036038101906106b291906120af565b611002565b6040516106c49190611f98565b60405180910390f35b3480156106d8575f80fd5b506106e1611068565b6040516106ee9190612341565b60405180910390f35b348015610702575f80fd5b5061071d60048036038101906107189190612594565b61106e565b60405161072a9190612063565b60405180910390f35b34801561073e575f80fd5b506107476110fc565b604051610754919061245d565b60405180910390f35b348015610768575f80fd5b50610771611121565b005b600c8054610780906125ff565b80601f01602080910402602001604051908101604052809291908181526020018280546107ac906125ff565b80156107f75780601f106107ce576101008083540402835291602001916107f7565b820191905f5260205f20905b8154815290600101906020018083116107da57829003601f168201915b505050505081565b5f7f80ac58cd000000000000000000000000000000000000000000000000000000007bffffffffffffffffffffffffffffffffffffffffffffffffffffffff1916827bffffffffffffffffffffffffffffffffffffffffffffffffffffffff191614806108c957507f5b5e139f000000000000000000000000000000000000000000000000000000007bffffffffffffffffffffffffffffffffffffffffffffffffffffffff1916827bffffffffffffffffffffffffffffffffffffffffffffffffffffffff1916145b806108d957506108d882611208565b5b9050919050565b60605f80546108ee906125ff565b80601f016020809104026020016040519081016040528092919081815260200182805461091a906125ff565b80156109655780601f1061093c57610100808354040283529160200191610965565b820191905f5260205f20905b81548152906001019060200180831161094857829003601f168201915b5050505050905090565b5f61097982611271565b50610983826112f7565b9050919050565b61099c8282610997611330565b611337565b5050565b8060075410156109e5576040517f08c379a00000000000000000000000000000000000000000000000000000000081526004016109dc90612679565b60405180910390fd5b600a5f9054906101000a900473ffffffffffffffffffffffffffffffffffffffff1673ffffffffffffffffffffffffffffffffffffffff166108fc8290811502906040515f60405180830381858888f19350505050158015610a49573d5f803e3d5ffd5b50610a543083611349565b610a5e828461143c565b7f29705a31c393a642035ad5f190e6f0b0b3f0ef43ed68c72cf87ae76be0e3185b8284604051610a8f929190612697565b60405180910390a1505050565b600b5481565b5f610aad600661144a565b905090565b5f73ffffffffffffffffffffffffffffffffffffffff168273ffffffffffffffffffffffffffffffffffffffff1603610b22575f6040517f64a0ae92000000000000000000000000000000000000000000000000000000008152600401610b199190612119565b60405180910390fd5b5f610b358383610b30611330565b611456565b90508373ffffffffffffffffffffffffffffffffffffffff168173ffffffffffffffffffffffffffffffffffffffff1614610bab578382826040517f64283d7b000000000000000000000000000000000000000000000000000000008152600401610ba2939291906126c5565b60405180910390fd5b50505050565b60075481565b6008602052815f5260405f208181548110610bd0575f80fd5b905f5260205f20015f91509150505481565b610bfc83838360405180602001604052805f815250610fdf565b505050565b600e5f9054906101000a900473ffffffffffffffffffffffffffffffffffffffff1681565b3073ffffffffffffffffffffffffffffffffffffffff16610c4682611661565b73ffffffffffffffffffffffffffffffffffffffff1614610c9c576040517f08c379a0000000000000000000000000000000000000000000000000000000008152600401610c9390612744565b60405180910390fd5b60085f3373ffffffffffffffffffffffffffffffffffffffff1673ffffffffffffffffffffffffffffffffffffffff1681526020019081526020015f2081908060018154018082558091505060019003905f5260205f20015f90919091909150557f50580f9b480d6d5cec851393deb0b48a42783dca51b04cec0e1f104d553f516c8133604051610d2e929190612762565b60405180910390a150565b600f5481565b60125481565b5f610d4f82611271565b9050919050565b60135481565b5f8073ffffffffffffffffffffffffffffffffffffffff168273ffffffffffffffffffffffffffffffffffffffff1603610dcd575f6040517f89c62b64000000000000000000000000000000000000000000000000000000008152600401610dc49190612119565b60405180910390fd5b60035f8373ffffffffffffffffffffffffffffffffffffffff1673ffffffffffffffffffffffffffffffffffffffff1681526020019081526020015f20549050919050565b600d5481565b606060018054610e27906125ff565b80601f0160208091040260200160405190810160405280929190818152602001828054610e53906125ff565b8015610e9e5780601f10610e7557610100808354040283529160200191610e9e565b820191905f5260205f20905b815481529060010190602001808311610e8157829003601f168201915b5050505050905090565b60115481565b5f610eb833610d5c565b11610ef8576040517f08c379a0000000000000000000000000000000000000000000000000000000008152600401610eef906127f9565b60405180910390fd5b5f610f01610aa2565b90505f5b81811015610f9f575f610f1782610d45565b90505f610f2382610d5c565b1115610f91575f83610f3483610d5c565b86610f3f9190612844565b610f4991906128b2565b90508173ffffffffffffffffffffffffffffffffffffffff166108fc8290811502906040515f60405180830381858888f19350505050158015610f8e573d5f803e3d5ffd5b50505b508080600101915050610f05565b505050565b610fb6610faf611330565b838361169a565b5050565b600a5f9054906101000a900473ffffffffffffffffffffffffffffffffffffffff1681565b610fea848484610ab2565b610ff684848484611803565b50505050565b60095481565b606061100d82611271565b505f6110176119b5565b90505f8151116110355760405180602001604052805f815250611060565b8061103f846119cb565b60405160200161105092919061291c565b6040516020818303038152906040525b915050919050565b60105481565b5f60055f8473ffffffffffffffffffffffffffffffffffffffff1673ffffffffffffffffffffffffffffffffffffffff1681526020019081526020015f205f8373ffffffffffffffffffffffffffffffffffffffff1673ffffffffffffffffffffffffffffffffffffffff1681526020019081526020015f205f9054906101000a900460ff16905092915050565b60145f9054906101000a900473ffffffffffffffffffffffffffffffffffffffff1681565b6064601254600f546111339190612844565b61113d91906128b2565b60138190555060145f9054906101000a900473ffffffffffffffffffffffffffffffffffffffff1673ffffffffffffffffffffffffffffffffffffffff166108fc60135490811502906040515f60405180830381858888f193505050501580156111a9573d5f803e3d5ffd5b507f72be57c44bdcdf29e3bded0b32580b641d4c7f1e2d1cd7aba457fe552b351aaf60135460145f9054906101000a900473ffffffffffffffffffffffffffffffffffffffff166040516111fe92919061299a565b60405180910390a1565b5f7f01ffc9a7000000000000000000000000000000000000000000000000000000007bffffffffffffffffffffffffffffffffffffffffffffffffffffffff1916827bffffffffffffffffffffffffffffffffffffffffffffffffffffffff1916149050919050565b5f8061127c83611661565b90505f73ffffffffffffffffffffffffffffffffffffffff168173ffffffffffffffffffffffffffffffffffffffff16036112ee57826040517f7e2732890000000000000000000000000000000000000000000000000000000081526004016112e59190612341565b60405180910390fd5b80915050919050565b5f60045f8381526020019081526020015f205f9054906101000a900473ffffffffffffffffffffffffffffffffffffffff169050919050565b5f33905090565b6113448383836001611a95565b505050565b5f73ffffffffffffffffffffffffffffffffffffffff168273ffffffffffffffffffffffffffffffffffffffff16036113b9575f6040517f64a0ae920000000000000000000000000000000000000000000000000000000081526004016113b09190612119565b60405180910390fd5b5f6113c583835f611456565b90505f73ffffffffffffffffffffffffffffffffffffffff168173ffffffffffffffffffffffffffffffffffffffff1614611437575f6040517f73c6ac6e00000000000000000000000000000000000000000000000000000000815260040161142e9190612119565b60405180910390fd5b505050565b611446828261143c565b5050565b5f815f01549050919050565b5f8061146184611661565b90505f73ffffffffffffffffffffffffffffffffffffffff168373ffffffffffffffffffffffffffffffffffffffff16146114a2576114a1818486611c54565b5b5f73ffffffffffffffffffffffffffffffffffffffff168173ffffffffffffffffffffffffffffffffffffffff161461152d576114e15f855f80611a95565b600160035f8373ffffffffffffffffffffffffffffffffffffffff1673ffffffffffffffffffffffffffffffffffffffff1681526020019081526020015f205f82825403925050819055505b5f73ffffffffffffffffffffffffffffffffffffffff168573ffffffffffffffffffffffffffffffffffffffff16146115ac57600160035f8773ffffffffffffffffffffffffffffffffffffffff1673ffffffffffffffffffffffffffffffffffffffff1681526020019081526020015f205f82825401925050819055505b8460025f8681526020019081526020015f205f6101000a81548173ffffffffffffffffffffffffffffffffffffffff021916908373ffffffffffffffffffffffffffffffffffffffff160217905550838573ffffffffffffffffffffffffffffffffffffffff168273ffffffffffffffffffffffffffffffffffffffff167fddf252ad1be2c89b69c2b068fc378daa952ba7f163c4a11628f55a4df523b3ef60405160405180910390a4809150509392505050565b5f60025f8381526020019081526020015f205f9054906101000a900473ffffffffffffffffffffffffffffffffffffffff169050919050565b5f73ffffffffffffffffffffffffffffffffffffffff168273ffffffffffffffffffffffffffffffffffffffff160361170a57816040517f5b08ba180000000000000000000000000000000000000000000000000000000081526004016117019190612119565b60405180910390fd5b8060055f8573ffffffffffffffffffffffffffffffffffffffff1673ffffffffffffffffffffffffffffffffffffffff1681526020019081526020015f205f8473ffffffffffffffffffffffffffffffffffffffff1673ffffffffffffffffffffffffffffffffffffffff1681526020019081526020015f205f6101000a81548160ff0219169083151502179055508173ffffffffffffffffffffffffffffffffffffffff168373ffffffffffffffffffffffffffffffffffffffff167f17307eab39ab6107e8899845ad3d59bd9653f200f220920489ca2b5937696c31836040516117f69190612063565b60405180910390a3505050565b5f8373ffffffffffffffffffffffffffffffffffffffff163b11156119af578273ffffffffffffffffffffffffffffffffffffffff1663150b7a02611846611330565b8685856040518563ffffffff1660e01b81526004016118689493929190612a13565b6020604051808303815f875af19250505080156118a357506040513d601f19601f820116820180604052508101906118a09190612a71565b60015b611924573d805f81146118d1576040519150601f19603f3d011682016040523d82523d5f602084013e6118d6565b606091505b505f81510361191c57836040517f64a0ae920000000000000000000000000000000000000000000000000000000081526004016119139190612119565b60405180910390fd5b805181602001fd5b63150b7a0260e01b7bffffffffffffffffffffffffffffffffffffffffffffffffffffffff1916817bffffffffffffffffffffffffffffffffffffffffffffffffffffffff1916146119ad57836040517f64a0ae920000000000000000000000000000000000000000000000000000000081526004016119a49190612119565b60405180910390fd5b505b50505050565b606060405180602001604052805f815250905090565b60605f60016119d984611d17565b0190505f8167ffffffffffffffff8111156119f7576119f66121a2565b5b6040519080825280601f01601f191660200182016040528015611a295781602001600182028036833780820191505090505b5090505f82602001820190505b600115611a8a578080600190039150507f3031323334353637383961626364656600000000000000000000000000000000600a86061a8153600a8581611a7f57611a7e612885565b5b0494505f8503611a36575b819350505050919050565b8080611acd57505f73ffffffffffffffffffffffffffffffffffffffff168273ffffffffffffffffffffffffffffffffffffffff1614155b15611bff575f611adc84611271565b90505f73ffffffffffffffffffffffffffffffffffffffff168373ffffffffffffffffffffffffffffffffffffffff1614158015611b4657508273ffffffffffffffffffffffffffffffffffffffff168173ffffffffffffffffffffffffffffffffffffffff1614155b8015611b595750611b57818461106e565b155b15611b9b57826040517fa9fbf51f000000000000000000000000000000000000000000000000000000008152600401611b929190612119565b60405180910390fd5b8115611bfd57838573ffffffffffffffffffffffffffffffffffffffff168273ffffffffffffffffffffffffffffffffffffffff167f8c5be1e5ebec7d5bd14f71427d1e84f3dd0314c0f7b2291e5b200ac8c7c3b92560405160405180910390a45b505b8360045f8581526020019081526020015f205f6101000a81548173ffffffffffffffffffffffffffffffffffffffff021916908373ffffffffffffffffffffffffffffffffffffffff16021790555050505050565b611c5f838383611e68565b611d12575f73ffffffffffffffffffffffffffffffffffffffff168373ffffffffffffffffffffffffffffffffffffffff1603611cd357806040517f7e273289000000000000000000000000000000000000000000000000000000008152600401611cca9190612341565b60405180910390fd5b81816040517f177e802f000000000000000000000000000000000000000000000000000000008152600401611d09929190612a9c565b60405180910390fd5b505050565b5f805f90507a184f03e93ff9f4daa797ed6e38ed64bf6a1f0100000000000000008310611d73577a184f03e93ff9f4daa797ed6e38ed64bf6a1f0100000000000000008381611d6957611d68612885565b5b0492506040810190505b6d04ee2d6d415b85acef81000000008310611db0576d04ee2d6d415b85acef81000000008381611da657611da5612885565b5b0492506020810190505b662386f26fc100008310611ddf57662386f26fc100008381611dd557611dd4612885565b5b0492506010810190505b6305f5e1008310611e08576305f5e1008381611dfe57611dfd612885565b5b0492506008810190505b6127108310611e2d576127108381611e2357611e22612885565b5b0492506004810190505b60648310611e505760648381611e4657611e45612885565b5b0492506002810190505b600a8310611e5f576001810190505b80915050919050565b5f8073ffffffffffffffffffffffffffffffffffffffff168373ffffffffffffffffffffffffffffffffffffffff1614158015611f1f57508273ffffffffffffffffffffffffffffffffffffffff168473ffffffffffffffffffffffffffffffffffffffff161480611ee05750611edf848461106e565b5b80611f1e57508273ffffffffffffffffffffffffffffffffffffffff16611f06836112f7565b73ffffffffffffffffffffffffffffffffffffffff16145b5b90509392505050565b5f81519050919050565b5f82825260208201905092915050565b8281835e5f83830152505050565b5f601f19601f8301169050919050565b5f611f6a82611f28565b611f748185611f32565b9350611f84818560208601611f42565b611f8d81611f50565b840191505092915050565b5f6020820190508181035f830152611fb08184611f60565b905092915050565b5f604051905090565b5f80fd5b5f80fd5b5f7fffffffff0000000000000000000000000000000000000000000000000000000082169050919050565b611ffd81611fc9565b8114612007575f80fd5b50565b5f8135905061201881611ff4565b92915050565b5f6020828403121561203357612032611fc1565b5b5f6120408482850161200a565b91505092915050565b5f8115159050919050565b61205d81612049565b82525050565b5f6020820190506120765f830184612054565b92915050565b5f819050919050565b61208e8161207c565b8114612098575f80fd5b50565b5f813590506120a981612085565b92915050565b5f602082840312156120c4576120c3611fc1565b5b5f6120d18482850161209b565b91505092915050565b5f73ffffffffffffffffffffffffffffffffffffffff82169050919050565b5f612103826120da565b9050919050565b612113816120f9565b82525050565b5f60208201905061212c5f83018461210a565b92915050565b61213b816120f9565b8114612145575f80fd5b50565b5f8135905061215681612132565b92915050565b5f806040838503121561217257612171611fc1565b5b5f61217f85828601612148565b92505060206121908582860161209b565b9150509250929050565b5f80fd5b5f80fd5b7f4e487b71000000000000000000000000000000000000000000000000000000005f52604160045260245ffd5b6121d882611f50565b810181811067ffffffffffffffff821117156121f7576121f66121a2565b5b80604052505050565b5f612209611fb8565b905061221582826121cf565b919050565b5f67ffffffffffffffff821115612234576122336121a2565b5b61223d82611f50565b9050602081019050919050565b828183375f83830152505050565b5f61226a6122658461221a565b612200565b9050828152602081018484840111156122865761228561219e565b5b61229184828561224a565b509392505050565b5f82601f8301126122ad576122ac61219a565b5b81356122bd848260208601612258565b91505092915050565b5f805f606084860312156122dd576122dc611fc1565b5b5f84013567ffffffffffffffff8111156122fa576122f9611fc5565b5b61230686828701612299565b93505060206123178682870161209b565b92505060406123288682870161209b565b9150509250925092565b61233b8161207c565b82525050565b5f6020820190506123545f830184612332565b92915050565b5f805f6060848603121561237157612370611fc1565b5b5f61237e86828701612148565b935050602061238f86828701612148565b92505060406123a08682870161209b565b9150509250925092565b5f602082840312156123bf576123be611fc1565b5b5f6123cc84828501612148565b91505092915050565b6123de81612049565b81146123e8575f80fd5b50565b5f813590506123f9816123d5565b92915050565b5f806040838503121561241557612414611fc1565b5b5f61242285828601612148565b9250506020612433858286016123eb565b9150509250929050565b5f612447826120da565b9050919050565b6124578161243d565b82525050565b5f6020820190506124705f83018461244e565b92915050565b5f67ffffffffffffffff8211156124905761248f6121a2565b5b61249982611f50565b9050602081019050919050565b5f6124b86124b384612476565b612200565b9050828152602081018484840111156124d4576124d361219e565b5b6124df84828561224a565b509392505050565b5f82601f8301126124fb576124fa61219a565b5b813561250b8482602086016124a6565b91505092915050565b5f805f806080858703121561252c5761252b611fc1565b5b5f61253987828801612148565b945050602061254a87828801612148565b935050604061255b8782880161209b565b925050606085013567ffffffffffffffff81111561257c5761257b611fc5565b5b612588878288016124e7565b91505092959194509250565b5f80604083850312156125aa576125a9611fc1565b5b5f6125b785828601612148565b92505060206125c885828601612148565b9150509250929050565b7f4e487b71000000000000000000000000000000000000000000000000000000005f52602260045260245ffd5b5f600282049050600182168061261657607f821691505b602082108103612629576126286125d2565b5b50919050565b7f496e73756666696369656e742066756e647320696e20747265617375727900005f82015250565b5f612663601e83611f32565b915061266e8261262f565b602082019050919050565b5f6020820190508181035f83015261269081612657565b9050919050565b5f6040820190506126aa5f830185612332565b81810360208301526126bc8184611f60565b90509392505050565b5f6060820190506126d85f83018661210a565b6126e56020830185612332565b6126f2604083018461210a565b949350505050565b7f4e4654206e6f74206f776e656420627920746865206775696c640000000000005f82015250565b5f61272e601a83611f32565b9150612739826126fa565b602082019050919050565b5f6020820190508181035f83015261275b81612722565b9050919050565b5f6040820190506127755f830185612332565b612782602083018461210a565b9392505050565b7f4f6e6c79206775696c64206d656d626572732063616e20706572666f726d20745f8201527f68697320616374696f6e00000000000000000000000000000000000000000000602082015250565b5f6127e3602a83611f32565b91506127ee82612789565b604082019050919050565b5f6020820190508181035f830152612810816127d7565b9050919050565b7f4e487b71000000000000000000000000000000000000000000000000000000005f52601160045260245ffd5b5f61284e8261207c565b91506128598361207c565b92508282026128678161207c565b9150828204841483151761287e5761287d612817565b5b5092915050565b7f4e487b71000000000000000000000000000000000000000000000000000000005f52601260045260245ffd5b5f6128bc8261207c565b91506128c78361207c565b9250826128d7576128d6612885565b5b828204905092915050565b5f81905092915050565b5f6128f682611f28565b61290081856128e2565b9350612910818560208601611f42565b80840191505092915050565b5f61292782856128ec565b915061293382846128ec565b91508190509392505050565b5f819050919050565b5f61296261295d612958846120da565b61293f565b6120da565b9050919050565b5f61297382612948565b9050919050565b5f61298482612969565b9050919050565b6129948161297a565b82525050565b5f6040820190506129ad5f830185612332565b6129ba602083018461298b565b9392505050565b5f81519050919050565b5f82825260208201905092915050565b5f6129e5826129c1565b6129ef81856129cb565b93506129ff818560208601611f42565b612a0881611f50565b840191505092915050565b5f608082019050612a265f83018761210a565b612a33602083018661210a565b612a406040830185612332565b8181036060830152612a5281846129db565b905095945050505050565b5f81519050612a6b81611ff4565b92915050565b5f60208284031215612a8657612a85611fc1565b5b5f612a9384828501612a5d565b91505092915050565b5f604082019050612aaf5f83018561210a565b612abc6020830184612332565b939250505056fea2646970667358221220311bd884557d50102ed7c7e9c8668cd36b909e2deda34e214a3a64bf38709a3064736f6c63430008190033",
					"opcodes": "PUSH1 0x80 PUSH1 0x40 MSTORE CALLVALUE DUP1 ISZERO PUSH2 0xF JUMPI PUSH0 DUP1 REVERT JUMPDEST POP PUSH1 0x40 MLOAD DUP1 PUSH1 0x40 ADD PUSH1 0x40 MSTORE DUP1 PUSH1 0x8 DUP2 MSTORE PUSH1 0x20 ADD PUSH32 0x44414747204E4654000000000000000000000000000000000000000000000000 DUP2 MSTORE POP PUSH1 0x40 MLOAD DUP1 PUSH1 0x40 ADD PUSH1 0x40 MSTORE DUP1 PUSH1 0x4 DUP2 MSTORE PUSH1 0x20 ADD PUSH32 0x4441474700000000000000000000000000000000000000000000000000000000 DUP2 MSTORE POP DUP2 PUSH0 SWAP1 DUP2 PUSH2 0x8A SWAP2 SWAP1 PUSH2 0x2DC JUMP JUMPDEST POP DUP1 PUSH1 0x1 SWAP1 DUP2 PUSH2 0x9A SWAP2 SWAP1 PUSH2 0x2DC JUMP JUMPDEST POP POP POP PUSH2 0x3AB JUMP JUMPDEST PUSH0 DUP2 MLOAD SWAP1 POP SWAP2 SWAP1 POP JUMP JUMPDEST PUSH32 0x4E487B7100000000000000000000000000000000000000000000000000000000 PUSH0 MSTORE PUSH1 0x41 PUSH1 0x4 MSTORE PUSH1 0x24 PUSH0 REVERT JUMPDEST PUSH32 0x4E487B7100000000000000000000000000000000000000000000000000000000 PUSH0 MSTORE PUSH1 0x22 PUSH1 0x4 MSTORE PUSH1 0x24 PUSH0 REVERT JUMPDEST PUSH0 PUSH1 0x2 DUP3 DIV SWAP1 POP PUSH1 0x1 DUP3 AND DUP1 PUSH2 0x11D JUMPI PUSH1 0x7F DUP3 AND SWAP2 POP JUMPDEST PUSH1 0x20 DUP3 LT DUP2 SUB PUSH2 0x130 JUMPI PUSH2 0x12F PUSH2 0xD9 JUMP JUMPDEST JUMPDEST POP SWAP2 SWAP1 POP JUMP JUMPDEST PUSH0 DUP2 SWAP1 POP DUP2 PUSH0 MSTORE PUSH1 0x20 PUSH0 KECCAK256 SWAP1 POP SWAP2 SWAP1 POP JUMP JUMPDEST PUSH0 PUSH1 0x20 PUSH1 0x1F DUP4 ADD DIV SWAP1 POP SWAP2 SWAP1 POP JUMP JUMPDEST PUSH0 DUP3 DUP3 SHL SWAP1 POP SWAP3 SWAP2 POP POP JUMP JUMPDEST PUSH0 PUSH1 0x8 DUP4 MUL PUSH2 0x192 PUSH32 0xFFFFFFFFFFFFFFFFFFFFFFFFFFFFFFFFFFFFFFFFFFFFFFFFFFFFFFFFFFFFFFFF DUP3 PUSH2 0x157 JUMP JUMPDEST PUSH2 0x19C DUP7 DUP4 PUSH2 0x157 JUMP JUMPDEST SWAP6 POP DUP1 NOT DUP5 AND SWAP4 POP DUP1 DUP7 AND DUP5 OR SWAP3 POP POP POP SWAP4 SWAP3 POP POP POP JUMP JUMPDEST PUSH0 DUP2 SWAP1 POP SWAP2 SWAP1 POP JUMP JUMPDEST PUSH0 DUP2 SWAP1 POP SWAP2 SWAP1 POP JUMP JUMPDEST PUSH0 PUSH2 0x1E0 PUSH2 0x1DB PUSH2 0x1D6 DUP5 PUSH2 0x1B4 JUMP JUMPDEST PUSH2 0x1BD JUMP JUMPDEST PUSH2 0x1B4 JUMP JUMPDEST SWAP1 POP SWAP2 SWAP1 POP JUMP JUMPDEST PUSH0 DUP2 SWAP1 POP SWAP2 SWAP1 POP JUMP JUMPDEST PUSH2 0x1F9 DUP4 PUSH2 0x1C6 JUMP JUMPDEST PUSH2 0x20D PUSH2 0x205 DUP3 PUSH2 0x1E7 JUMP JUMPDEST DUP5 DUP5 SLOAD PUSH2 0x163 JUMP JUMPDEST DUP3 SSTORE POP POP POP POP JUMP JUMPDEST PUSH0 SWAP1 JUMP JUMPDEST PUSH2 0x221 PUSH2 0x215 JUMP JUMPDEST PUSH2 0x22C DUP2 DUP5 DUP5 PUSH2 0x1F0 JUMP JUMPDEST POP POP POP JUMP JUMPDEST JUMPDEST DUP2 DUP2 LT ISZERO PUSH2 0x24F JUMPI PUSH2 0x244 PUSH0 DUP3 PUSH2 0x219 JUMP JUMPDEST PUSH1 0x1 DUP2 ADD SWAP1 POP PUSH2 0x232 JUMP JUMPDEST POP POP JUMP JUMPDEST PUSH1 0x1F DUP3 GT ISZERO PUSH2 0x294 JUMPI PUSH2 0x265 DUP2 PUSH2 0x136 JUMP JUMPDEST PUSH2 0x26E DUP5 PUSH2 0x148 JUMP JUMPDEST DUP2 ADD PUSH1 0x20 DUP6 LT ISZERO PUSH2 0x27D JUMPI DUP2 SWAP1 POP JUMPDEST PUSH2 0x291 PUSH2 0x289 DUP6 PUSH2 0x148 JUMP JUMPDEST DUP4 ADD DUP3 PUSH2 0x231 JUMP JUMPDEST POP POP JUMPDEST POP POP POP JUMP JUMPDEST PUSH0 DUP3 DUP3 SHR SWAP1 POP SWAP3 SWAP2 POP POP JUMP JUMPDEST PUSH0 PUSH2 0x2B4 PUSH0 NOT DUP5 PUSH1 0x8 MUL PUSH2 0x299 JUMP JUMPDEST NOT DUP1 DUP4 AND SWAP2 POP POP SWAP3 SWAP2 POP POP JUMP JUMPDEST PUSH0 PUSH2 0x2CC DUP4 DUP4 PUSH2 0x2A5 JUMP JUMPDEST SWAP2 POP DUP3 PUSH1 0x2 MUL DUP3 OR SWAP1 POP SWAP3 SWAP2 POP POP JUMP JUMPDEST PUSH2 0x2E5 DUP3 PUSH2 0xA2 JUMP JUMPDEST PUSH8 0xFFFFFFFFFFFFFFFF DUP2 GT ISZERO PUSH2 0x2FE JUMPI PUSH2 0x2FD PUSH2 0xAC JUMP JUMPDEST JUMPDEST PUSH2 0x308 DUP3 SLOAD PUSH2 0x106 JUMP JUMPDEST PUSH2 0x313 DUP3 DUP3 DUP6 PUSH2 0x253 JUMP JUMPDEST PUSH0 PUSH1 0x20 SWAP1 POP PUSH1 0x1F DUP4 GT PUSH1 0x1 DUP2 EQ PUSH2 0x344 JUMPI PUSH0 DUP5 ISZERO PUSH2 0x332 JUMPI DUP3 DUP8 ADD MLOAD SWAP1 POP JUMPDEST PUSH2 0x33C DUP6 DUP3 PUSH2 0x2C1 JUMP JUMPDEST DUP7 SSTORE POP PUSH2 0x3A3 JUMP JUMPDEST PUSH1 0x1F NOT DUP5 AND PUSH2 0x352 DUP7 PUSH2 0x136 JUMP JUMPDEST PUSH0 JUMPDEST DUP3 DUP2 LT ISZERO PUSH2 0x379 JUMPI DUP5 DUP10 ADD MLOAD DUP3 SSTORE PUSH1 0x1 DUP3 ADD SWAP2 POP PUSH1 0x20 DUP6 ADD SWAP5 POP PUSH1 0x20 DUP2 ADD SWAP1 POP PUSH2 0x354 JUMP JUMPDEST DUP7 DUP4 LT ISZERO PUSH2 0x396 JUMPI DUP5 DUP10 ADD MLOAD PUSH2 0x392 PUSH1 0x1F DUP10 AND DUP3 PUSH2 0x2A5 JUMP JUMPDEST DUP4 SSTORE POP JUMPDEST PUSH1 0x1 PUSH1 0x2 DUP9 MUL ADD DUP9 SSTORE POP POP POP JUMPDEST POP POP POP POP POP POP JUMP JUMPDEST PUSH2 0x2AF9 DUP1 PUSH2 0x3B8 PUSH0 CODECOPY PUSH0 RETURN INVALID PUSH1 0x80 PUSH1 0x40 MSTORE PUSH1 0x4 CALLDATASIZE LT PUSH2 0x1E1 JUMPI PUSH0 CALLDATALOAD PUSH1 0xE0 SHR DUP1 PUSH4 0x6352211E GT PUSH2 0x101 JUMPI DUP1 PUSH4 0xABC8C7AF GT PUSH2 0x94 JUMPI DUP1 PUSH4 0xE2C79281 GT PUSH2 0x63 JUMPI DUP1 PUSH4 0xE2C79281 EQ PUSH2 0x6CD JUMPI DUP1 PUSH4 0xE985E9C5 EQ PUSH2 0x6F7 JUMPI DUP1 PUSH4 0xEDE8592B EQ PUSH2 0x733 JUMPI DUP1 PUSH4 0xF796C2D9 EQ PUSH2 0x75D JUMPI PUSH2 0x1E1 JUMP JUMPDEST DUP1 PUSH4 0xABC8C7AF EQ PUSH2 0x615 JUMPI DUP1 PUSH4 0xB88D4FDE EQ PUSH2 0x63F JUMPI DUP1 PUSH4 0xC713A289 EQ PUSH2 0x667 JUMPI DUP1 PUSH4 0xC87B56DD EQ PUSH2 0x691 JUMPI PUSH2 0x1E1 JUMP JUMPDEST DUP1 PUSH4 0x95D89B41 GT PUSH2 0xD0 JUMPI DUP1 PUSH4 0x95D89B41 EQ PUSH2 0x571 JUMPI DUP1 PUSH4 0x97F7D0D5 EQ PUSH2 0x59B JUMPI DUP1 PUSH4 0x9A969768 EQ PUSH2 0x5C5 JUMPI DUP1 PUSH4 0xA22CB465 EQ PUSH2 0x5ED JUMPI PUSH2 0x1E1 JUMP JUMPDEST DUP1 PUSH4 0x6352211E EQ PUSH2 0x4A5 JUMPI DUP1 PUSH4 0x68F5CD3B EQ PUSH2 0x4E1 JUMPI DUP1 PUSH4 0x70A08231 EQ PUSH2 0x50B JUMPI DUP1 PUSH4 0x7E830574 EQ PUSH2 0x547 JUMPI PUSH2 0x1E1 JUMP JUMPDEST DUP1 PUSH4 0x23B872DD GT PUSH2 0x179 JUMPI DUP1 PUSH4 0x4C39A749 GT PUSH2 0x148 JUMPI DUP1 PUSH4 0x4C39A749 EQ PUSH2 0x3FF JUMPI DUP1 PUSH4 0x529062FA EQ PUSH2 0x429 JUMPI DUP1 PUSH4 0x5301FA6F EQ PUSH2 0x451 JUMPI DUP1 PUSH4 0x5743CEDA EQ PUSH2 0x47B JUMPI PUSH2 0x1E1 JUMP JUMPDEST DUP1 PUSH4 0x23B872DD EQ PUSH2 0x349 JUMPI DUP1 PUSH4 0x313DAB20 EQ PUSH2 0x371 JUMPI DUP1 PUSH4 0x31C258E8 EQ PUSH2 0x39B JUMPI DUP1 PUSH4 0x42842E0E EQ PUSH2 0x3D7 JUMPI PUSH2 0x1E1 JUMP JUMPDEST DUP1 PUSH4 0x95EA7B3 GT PUSH2 0x1B5 JUMPI DUP1 PUSH4 0x95EA7B3 EQ PUSH2 0x2B1 JUMPI DUP1 PUSH4 0xC29F635 EQ PUSH2 0x2D9 JUMPI DUP1 PUSH4 0xD39FC81 EQ PUSH2 0x2F5 JUMPI DUP1 PUSH4 0x18160DDD EQ PUSH2 0x31F JUMPI PUSH2 0x1E1 JUMP JUMPDEST DUP1 PUSH3 0x8BFB00 EQ PUSH2 0x1E5 JUMPI DUP1 PUSH4 0x1FFC9A7 EQ PUSH2 0x20F JUMPI DUP1 PUSH4 0x6FDDE03 EQ PUSH2 0x24B JUMPI DUP1 PUSH4 0x81812FC EQ PUSH2 0x275 JUMPI JUMPDEST PUSH0 DUP1 REVERT JUMPDEST CALLVALUE DUP1 ISZERO PUSH2 0x1F0 JUMPI PUSH0 DUP1 REVERT JUMPDEST POP PUSH2 0x1F9 PUSH2 0x773 JUMP JUMPDEST PUSH1 0x40 MLOAD PUSH2 0x206 SWAP2 SWAP1 PUSH2 0x1F98 JUMP JUMPDEST PUSH1 0x40 MLOAD DUP1 SWAP2 SUB SWAP1 RETURN JUMPDEST CALLVALUE DUP1 ISZERO PUSH2 0x21A JUMPI PUSH0 DUP1 REVERT JUMPDEST POP PUSH2 0x235 PUSH1 0x4 DUP1 CALLDATASIZE SUB DUP2 ADD SWAP1 PUSH2 0x230 SWAP2 SWAP1 PUSH2 0x201E JUMP JUMPDEST PUSH2 0x7FF JUMP JUMPDEST PUSH1 0x40 MLOAD PUSH2 0x242 SWAP2 SWAP1 PUSH2 0x2063 JUMP JUMPDEST PUSH1 0x40 MLOAD DUP1 SWAP2 SUB SWAP1 RETURN JUMPDEST CALLVALUE DUP1 ISZERO PUSH2 0x256 JUMPI PUSH0 DUP1 REVERT JUMPDEST POP PUSH2 0x25F PUSH2 0x8E0 JUMP JUMPDEST PUSH1 0x40 MLOAD PUSH2 0x26C SWAP2 SWAP1 PUSH2 0x1F98 JUMP JUMPDEST PUSH1 0x40 MLOAD DUP1 SWAP2 SUB SWAP1 RETURN JUMPDEST CALLVALUE DUP1 ISZERO PUSH2 0x280 JUMPI PUSH0 DUP1 REVERT JUMPDEST POP PUSH2 0x29B PUSH1 0x4 DUP1 CALLDATASIZE SUB DUP2 ADD SWAP1 PUSH2 0x296 SWAP2 SWAP1 PUSH2 0x20AF JUMP JUMPDEST PUSH2 0x96F JUMP JUMPDEST PUSH1 0x40 MLOAD PUSH2 0x2A8 SWAP2 SWAP1 PUSH2 0x2119 JUMP JUMPDEST PUSH1 0x40 MLOAD DUP1 SWAP2 SUB SWAP1 RETURN JUMPDEST CALLVALUE DUP1 ISZERO PUSH2 0x2BC JUMPI PUSH0 DUP1 REVERT JUMPDEST POP PUSH2 0x2D7 PUSH1 0x4 DUP1 CALLDATASIZE SUB DUP2 ADD SWAP1 PUSH2 0x2D2 SWAP2 SWAP1 PUSH2 0x215C JUMP JUMPDEST PUSH2 0x98A JUMP JUMPDEST STOP JUMPDEST PUSH2 0x2F3 PUSH1 0x4 DUP1 CALLDATASIZE SUB DUP2 ADD SWAP1 PUSH2 0x2EE SWAP2 SWAP1 PUSH2 0x22C6 JUMP JUMPDEST PUSH2 0x9A0 JUMP JUMPDEST STOP JUMPDEST CALLVALUE DUP1 ISZERO PUSH2 0x300 JUMPI PUSH0 DUP1 REVERT JUMPDEST POP PUSH2 0x309 PUSH2 0xA9C JUMP JUMPDEST PUSH1 0x40 MLOAD PUSH2 0x316 SWAP2 SWAP1 PUSH2 0x2341 JUMP JUMPDEST PUSH1 0x40 MLOAD DUP1 SWAP2 SUB SWAP1 RETURN JUMPDEST CALLVALUE DUP1 ISZERO PUSH2 0x32A JUMPI PUSH0 DUP1 REVERT JUMPDEST POP PUSH2 0x333 PUSH2 0xAA2 JUMP JUMPDEST PUSH1 0x40 MLOAD PUSH2 0x340 SWAP2 SWAP1 PUSH2 0x2341 JUMP JUMPDEST PUSH1 0x40 MLOAD DUP1 SWAP2 SUB SWAP1 RETURN JUMPDEST CALLVALUE DUP1 ISZERO PUSH2 0x354 JUMPI PUSH0 DUP1 REVERT JUMPDEST POP PUSH2 0x36F PUSH1 0x4 DUP1 CALLDATASIZE SUB DUP2 ADD SWAP1 PUSH2 0x36A SWAP2 SWAP1 PUSH2 0x235A JUMP JUMPDEST PUSH2 0xAB2 JUMP JUMPDEST STOP JUMPDEST CALLVALUE DUP1 ISZERO PUSH2 0x37C JUMPI PUSH0 DUP1 REVERT JUMPDEST POP PUSH2 0x385 PUSH2 0xBB1 JUMP JUMPDEST PUSH1 0x40 MLOAD PUSH2 0x392 SWAP2 SWAP1 PUSH2 0x2341 JUMP JUMPDEST PUSH1 0x40 MLOAD DUP1 SWAP2 SUB SWAP1 RETURN JUMPDEST CALLVALUE DUP1 ISZERO PUSH2 0x3A6 JUMPI PUSH0 DUP1 REVERT JUMPDEST POP PUSH2 0x3C1 PUSH1 0x4 DUP1 CALLDATASIZE SUB DUP2 ADD SWAP1 PUSH2 0x3BC SWAP2 SWAP1 PUSH2 0x215C JUMP JUMPDEST PUSH2 0xBB7 JUMP JUMPDEST PUSH1 0x40 MLOAD PUSH2 0x3CE SWAP2 SWAP1 PUSH2 0x2341 JUMP JUMPDEST PUSH1 0x40 MLOAD DUP1 SWAP2 SUB SWAP1 RETURN JUMPDEST CALLVALUE DUP1 ISZERO PUSH2 0x3E2 JUMPI PUSH0 DUP1 REVERT JUMPDEST POP PUSH2 0x3FD PUSH1 0x4 DUP1 CALLDATASIZE SUB DUP2 ADD SWAP1 PUSH2 0x3F8 SWAP2 SWAP1 PUSH2 0x235A JUMP JUMPDEST PUSH2 0xBE2 JUMP JUMPDEST STOP JUMPDEST CALLVALUE DUP1 ISZERO PUSH2 0x40A JUMPI PUSH0 DUP1 REVERT JUMPDEST POP PUSH2 0x413 PUSH2 0xC01 JUMP JUMPDEST PUSH1 0x40 MLOAD PUSH2 0x420 SWAP2 SWAP1 PUSH2 0x2119 JUMP JUMPDEST PUSH1 0x40 MLOAD DUP1 SWAP2 SUB SWAP1 RETURN JUMPDEST CALLVALUE DUP1 ISZERO PUSH2 0x434 JUMPI PUSH0 DUP1 REVERT JUMPDEST POP PUSH2 0x44F PUSH1 0x4 DUP1 CALLDATASIZE SUB DUP2 ADD SWAP1 PUSH2 0x44A SWAP2 SWAP1 PUSH2 0x20AF JUMP JUMPDEST PUSH2 0xC26 JUMP JUMPDEST STOP JUMPDEST CALLVALUE DUP1 ISZERO PUSH2 0x45C JUMPI PUSH0 DUP1 REVERT JUMPDEST POP PUSH2 0x465 PUSH2 0xD39 JUMP JUMPDEST PUSH1 0x40 MLOAD PUSH2 0x472 SWAP2 SWAP1 PUSH2 0x2341 JUMP JUMPDEST PUSH1 0x40 MLOAD DUP1 SWAP2 SUB SWAP1 RETURN JUMPDEST CALLVALUE DUP1 ISZERO PUSH2 0x486 JUMPI PUSH0 DUP1 REVERT JUMPDEST POP PUSH2 0x48F PUSH2 0xD3F JUMP JUMPDEST PUSH1 0x40 MLOAD PUSH2 0x49C SWAP2 SWAP1 PUSH2 0x2341 JUMP JUMPDEST PUSH1 0x40 MLOAD DUP1 SWAP2 SUB SWAP1 RETURN JUMPDEST CALLVALUE DUP1 ISZERO PUSH2 0x4B0 JUMPI PUSH0 DUP1 REVERT JUMPDEST POP PUSH2 0x4CB PUSH1 0x4 DUP1 CALLDATASIZE SUB DUP2 ADD SWAP1 PUSH2 0x4C6 SWAP2 SWAP1 PUSH2 0x20AF JUMP JUMPDEST PUSH2 0xD45 JUMP JUMPDEST PUSH1 0x40 MLOAD PUSH2 0x4D8 SWAP2 SWAP1 PUSH2 0x2119 JUMP JUMPDEST PUSH1 0x40 MLOAD DUP1 SWAP2 SUB SWAP1 RETURN JUMPDEST CALLVALUE DUP1 ISZERO PUSH2 0x4EC JUMPI PUSH0 DUP1 REVERT JUMPDEST POP PUSH2 0x4F5 PUSH2 0xD56 JUMP JUMPDEST PUSH1 0x40 MLOAD PUSH2 0x502 SWAP2 SWAP1 PUSH2 0x2341 JUMP JUMPDEST PUSH1 0x40 MLOAD DUP1 SWAP2 SUB SWAP1 RETURN JUMPDEST CALLVALUE DUP1 ISZERO PUSH2 0x516 JUMPI PUSH0 DUP1 REVERT JUMPDEST POP PUSH2 0x531 PUSH1 0x4 DUP1 CALLDATASIZE SUB DUP2 ADD SWAP1 PUSH2 0x52C SWAP2 SWAP1 PUSH2 0x23AA JUMP JUMPDEST PUSH2 0xD5C JUMP JUMPDEST PUSH1 0x40 MLOAD PUSH2 0x53E SWAP2 SWAP1 PUSH2 0x2341 JUMP JUMPDEST PUSH1 0x40 MLOAD DUP1 SWAP2 SUB SWAP1 RETURN JUMPDEST CALLVALUE DUP1 ISZERO PUSH2 0x552 JUMPI PUSH0 DUP1 REVERT JUMPDEST POP PUSH2 0x55B PUSH2 0xE12 JUMP JUMPDEST PUSH1 0x40 MLOAD PUSH2 0x568 SWAP2 SWAP1 PUSH2 0x2341 JUMP JUMPDEST PUSH1 0x40 MLOAD DUP1 SWAP2 SUB SWAP1 RETURN JUMPDEST CALLVALUE DUP1 ISZERO PUSH2 0x57C JUMPI PUSH0 DUP1 REVERT JUMPDEST POP PUSH2 0x585 PUSH2 0xE18 JUMP JUMPDEST PUSH1 0x40 MLOAD PUSH2 0x592 SWAP2 SWAP1 PUSH2 0x1F98 JUMP JUMPDEST PUSH1 0x40 MLOAD DUP1 SWAP2 SUB SWAP1 RETURN JUMPDEST CALLVALUE DUP1 ISZERO PUSH2 0x5A6 JUMPI PUSH0 DUP1 REVERT JUMPDEST POP PUSH2 0x5AF PUSH2 0xEA8 JUMP JUMPDEST PUSH1 0x40 MLOAD PUSH2 0x5BC SWAP2 SWAP1 PUSH2 0x2341 JUMP JUMPDEST PUSH1 0x40 MLOAD DUP1 SWAP2 SUB SWAP1 RETURN JUMPDEST CALLVALUE DUP1 ISZERO PUSH2 0x5D0 JUMPI PUSH0 DUP1 REVERT JUMPDEST POP PUSH2 0x5EB PUSH1 0x4 DUP1 CALLDATASIZE SUB DUP2 ADD SWAP1 PUSH2 0x5E6 SWAP2 SWAP1 PUSH2 0x20AF JUMP JUMPDEST PUSH2 0xEAE JUMP JUMPDEST STOP JUMPDEST CALLVALUE DUP1 ISZERO PUSH2 0x5F8 JUMPI PUSH0 DUP1 REVERT JUMPDEST POP PUSH2 0x613 PUSH1 0x4 DUP1 CALLDATASIZE SUB DUP2 ADD SWAP1 PUSH2 0x60E SWAP2 SWAP1 PUSH2 0x23FF JUMP JUMPDEST PUSH2 0xFA4 JUMP JUMPDEST STOP JUMPDEST CALLVALUE DUP1 ISZERO PUSH2 0x620 JUMPI PUSH0 DUP1 REVERT JUMPDEST POP PUSH2 0x629 PUSH2 0xFBA JUMP JUMPDEST PUSH1 0x40 MLOAD PUSH2 0x636 SWAP2 SWAP1 PUSH2 0x245D JUMP JUMPDEST PUSH1 0x40 MLOAD DUP1 SWAP2 SUB SWAP1 RETURN JUMPDEST CALLVALUE DUP1 ISZERO PUSH2 0x64A JUMPI PUSH0 DUP1 REVERT JUMPDEST POP PUSH2 0x665 PUSH1 0x4 DUP1 CALLDATASIZE SUB DUP2 ADD SWAP1 PUSH2 0x660 SWAP2 SWAP1 PUSH2 0x2514 JUMP JUMPDEST PUSH2 0xFDF JUMP JUMPDEST STOP JUMPDEST CALLVALUE DUP1 ISZERO PUSH2 0x672 JUMPI PUSH0 DUP1 REVERT JUMPDEST POP PUSH2 0x67B PUSH2 0xFFC JUMP JUMPDEST PUSH1 0x40 MLOAD PUSH2 0x688 SWAP2 SWAP1 PUSH2 0x2341 JUMP JUMPDEST PUSH1 0x40 MLOAD DUP1 SWAP2 SUB SWAP1 RETURN JUMPDEST CALLVALUE DUP1 ISZERO PUSH2 0x69C JUMPI PUSH0 DUP1 REVERT JUMPDEST POP PUSH2 0x6B7 PUSH1 0x4 DUP1 CALLDATASIZE SUB DUP2 ADD SWAP1 PUSH2 0x6B2 SWAP2 SWAP1 PUSH2 0x20AF JUMP JUMPDEST PUSH2 0x1002 JUMP JUMPDEST PUSH1 0x40 MLOAD PUSH2 0x6C4 SWAP2 SWAP1 PUSH2 0x1F98 JUMP JUMPDEST PUSH1 0x40 MLOAD DUP1 SWAP2 SUB SWAP1 RETURN JUMPDEST CALLVALUE DUP1 ISZERO PUSH2 0x6D8 JUMPI PUSH0 DUP1 REVERT JUMPDEST POP PUSH2 0x6E1 PUSH2 0x1068 JUMP JUMPDEST PUSH1 0x40 MLOAD PUSH2 0x6EE SWAP2 SWAP1 PUSH2 0x2341 JUMP JUMPDEST PUSH1 0x40 MLOAD DUP1 SWAP2 SUB SWAP1 RETURN JUMPDEST CALLVALUE DUP1 ISZERO PUSH2 0x702 JUMPI PUSH0 DUP1 REVERT JUMPDEST POP PUSH2 0x71D PUSH1 0x4 DUP1 CALLDATASIZE SUB DUP2 ADD SWAP1 PUSH2 0x718 SWAP2 SWAP1 PUSH2 0x2594 JUMP JUMPDEST PUSH2 0x106E JUMP JUMPDEST PUSH1 0x40 MLOAD PUSH2 0x72A SWAP2 SWAP1 PUSH2 0x2063 JUMP JUMPDEST PUSH1 0x40 MLOAD DUP1 SWAP2 SUB SWAP1 RETURN JUMPDEST CALLVALUE DUP1 ISZERO PUSH2 0x73E JUMPI PUSH0 DUP1 REVERT JUMPDEST POP PUSH2 0x747 PUSH2 0x10FC JUMP JUMPDEST PUSH1 0x40 MLOAD PUSH2 0x754 SWAP2 SWAP1 PUSH2 0x245D JUMP JUMPDEST PUSH1 0x40 MLOAD DUP1 SWAP2 SUB SWAP1 RETURN JUMPDEST CALLVALUE DUP1 ISZERO PUSH2 0x768 JUMPI PUSH0 DUP1 REVERT JUMPDEST POP PUSH2 0x771 PUSH2 0x1121 JUMP JUMPDEST STOP JUMPDEST PUSH1 0xC DUP1 SLOAD PUSH2 0x780 SWAP1 PUSH2 0x25FF JUMP JUMPDEST DUP1 PUSH1 0x1F ADD PUSH1 0x20 DUP1 SWAP2 DIV MUL PUSH1 0x20 ADD PUSH1 0x40 MLOAD SWAP1 DUP2 ADD PUSH1 0x40 MSTORE DUP1 SWAP3 SWAP2 SWAP1 DUP2 DUP2 MSTORE PUSH1 0x20 ADD DUP3 DUP1 SLOAD PUSH2 0x7AC SWAP1 PUSH2 0x25FF JUMP JUMPDEST DUP1 ISZERO PUSH2 0x7F7 JUMPI DUP1 PUSH1 0x1F LT PUSH2 0x7CE JUMPI PUSH2 0x100 DUP1 DUP4 SLOAD DIV MUL DUP4 MSTORE SWAP2 PUSH1 0x20 ADD SWAP2 PUSH2 0x7F7 JUMP JUMPDEST DUP3 ADD SWAP2 SWAP1 PUSH0 MSTORE PUSH1 0x20 PUSH0 KECCAK256 SWAP1 JUMPDEST DUP2 SLOAD DUP2 MSTORE SWAP1 PUSH1 0x1 ADD SWAP1 PUSH1 0x20 ADD DUP1 DUP4 GT PUSH2 0x7DA JUMPI DUP3 SWAP1 SUB PUSH1 0x1F AND DUP3 ADD SWAP2 JUMPDEST POP POP POP POP POP DUP2 JUMP JUMPDEST PUSH0 PUSH32 0x80AC58CD00000000000000000000000000000000000000000000000000000000 PUSH28 0xFFFFFFFFFFFFFFFFFFFFFFFFFFFFFFFFFFFFFFFFFFFFFFFFFFFFFFFF NOT AND DUP3 PUSH28 0xFFFFFFFFFFFFFFFFFFFFFFFFFFFFFFFFFFFFFFFFFFFFFFFFFFFFFFFF NOT AND EQ DUP1 PUSH2 0x8C9 JUMPI POP PUSH32 0x5B5E139F00000000000000000000000000000000000000000000000000000000 PUSH28 0xFFFFFFFFFFFFFFFFFFFFFFFFFFFFFFFFFFFFFFFFFFFFFFFFFFFFFFFF NOT AND DUP3 PUSH28 0xFFFFFFFFFFFFFFFFFFFFFFFFFFFFFFFFFFFFFFFFFFFFFFFFFFFFFFFF NOT AND EQ JUMPDEST DUP1 PUSH2 0x8D9 JUMPI POP PUSH2 0x8D8 DUP3 PUSH2 0x1208 JUMP JUMPDEST JUMPDEST SWAP1 POP SWAP2 SWAP1 POP JUMP JUMPDEST PUSH1 0x60 PUSH0 DUP1 SLOAD PUSH2 0x8EE SWAP1 PUSH2 0x25FF JUMP JUMPDEST DUP1 PUSH1 0x1F ADD PUSH1 0x20 DUP1 SWAP2 DIV MUL PUSH1 0x20 ADD PUSH1 0x40 MLOAD SWAP1 DUP2 ADD PUSH1 0x40 MSTORE DUP1 SWAP3 SWAP2 SWAP1 DUP2 DUP2 MSTORE PUSH1 0x20 ADD DUP3 DUP1 SLOAD PUSH2 0x91A SWAP1 PUSH2 0x25FF JUMP JUMPDEST DUP1 ISZERO PUSH2 0x965 JUMPI DUP1 PUSH1 0x1F LT PUSH2 0x93C JUMPI PUSH2 0x100 DUP1 DUP4 SLOAD DIV MUL DUP4 MSTORE SWAP2 PUSH1 0x20 ADD SWAP2 PUSH2 0x965 JUMP JUMPDEST DUP3 ADD SWAP2 SWAP1 PUSH0 MSTORE PUSH1 0x20 PUSH0 KECCAK256 SWAP1 JUMPDEST DUP2 SLOAD DUP2 MSTORE SWAP1 PUSH1 0x1 ADD SWAP1 PUSH1 0x20 ADD DUP1 DUP4 GT PUSH2 0x948 JUMPI DUP3 SWAP1 SUB PUSH1 0x1F AND DUP3 ADD SWAP2 JUMPDEST POP POP POP POP POP SWAP1 POP SWAP1 JUMP JUMPDEST PUSH0 PUSH2 0x979 DUP3 PUSH2 0x1271 JUMP JUMPDEST POP PUSH2 0x983 DUP3 PUSH2 0x12F7 JUMP JUMPDEST SWAP1 POP SWAP2 SWAP1 POP JUMP JUMPDEST PUSH2 0x99C DUP3 DUP3 PUSH2 0x997 PUSH2 0x1330 JUMP JUMPDEST PUSH2 0x1337 JUMP JUMPDEST POP POP JUMP JUMPDEST DUP1 PUSH1 0x7 SLOAD LT ISZERO PUSH2 0x9E5 JUMPI PUSH1 0x40 MLOAD PUSH32 0x8C379A000000000000000000000000000000000000000000000000000000000 DUP2 MSTORE PUSH1 0x4 ADD PUSH2 0x9DC SWAP1 PUSH2 0x2679 JUMP JUMPDEST PUSH1 0x40 MLOAD DUP1 SWAP2 SUB SWAP1 REVERT JUMPDEST PUSH1 0xA PUSH0 SWAP1 SLOAD SWAP1 PUSH2 0x100 EXP SWAP1 DIV PUSH20 0xFFFFFFFFFFFFFFFFFFFFFFFFFFFFFFFFFFFFFFFF AND PUSH20 0xFFFFFFFFFFFFFFFFFFFFFFFFFFFFFFFFFFFFFFFF AND PUSH2 0x8FC DUP3 SWAP1 DUP2 ISZERO MUL SWAP1 PUSH1 0x40 MLOAD PUSH0 PUSH1 0x40 MLOAD DUP1 DUP4 SUB DUP2 DUP6 DUP9 DUP9 CALL SWAP4 POP POP POP POP ISZERO DUP1 ISZERO PUSH2 0xA49 JUMPI RETURNDATASIZE PUSH0 DUP1 RETURNDATACOPY RETURNDATASIZE PUSH0 REVERT JUMPDEST POP PUSH2 0xA54 ADDRESS DUP4 PUSH2 0x1349 JUMP JUMPDEST PUSH2 0xA5E DUP3 DUP5 PUSH2 0x143C JUMP JUMPDEST PUSH32 0x29705A31C393A642035AD5F190E6F0B0B3F0EF43ED68C72CF87AE76BE0E3185B DUP3 DUP5 PUSH1 0x40 MLOAD PUSH2 0xA8F SWAP3 SWAP2 SWAP1 PUSH2 0x2697 JUMP JUMPDEST PUSH1 0x40 MLOAD DUP1 SWAP2 SUB SWAP1 LOG1 POP POP POP JUMP JUMPDEST PUSH1 0xB SLOAD DUP2 JUMP JUMPDEST PUSH0 PUSH2 0xAAD PUSH1 0x6 PUSH2 0x144A JUMP JUMPDEST SWAP1 POP SWAP1 JUMP JUMPDEST PUSH0 PUSH20 0xFFFFFFFFFFFFFFFFFFFFFFFFFFFFFFFFFFFFFFFF AND DUP3 PUSH20 0xFFFFFFFFFFFFFFFFFFFFFFFFFFFFFFFFFFFFFFFF AND SUB PUSH2 0xB22 JUMPI PUSH0 PUSH1 0x40 MLOAD PUSH32 0x64A0AE9200000000000000000000000000000000000000000000000000000000 DUP2 MSTORE PUSH1 0x4 ADD PUSH2 0xB19 SWAP2 SWAP1 PUSH2 0x2119 JUMP JUMPDEST PUSH1 0x40 MLOAD DUP1 SWAP2 SUB SWAP1 REVERT JUMPDEST PUSH0 PUSH2 0xB35 DUP4 DUP4 PUSH2 0xB30 PUSH2 0x1330 JUMP JUMPDEST PUSH2 0x1456 JUMP JUMPDEST SWAP1 POP DUP4 PUSH20 0xFFFFFFFFFFFFFFFFFFFFFFFFFFFFFFFFFFFFFFFF AND DUP2 PUSH20 0xFFFFFFFFFFFFFFFFFFFFFFFFFFFFFFFFFFFFFFFF AND EQ PUSH2 0xBAB JUMPI DUP4 DUP3 DUP3 PUSH1 0x40 MLOAD PUSH32 0x64283D7B00000000000000000000000000000000000000000000000000000000 DUP2 MSTORE PUSH1 0x4 ADD PUSH2 0xBA2 SWAP4 SWAP3 SWAP2 SWAP1 PUSH2 0x26C5 JUMP JUMPDEST PUSH1 0x40 MLOAD DUP1 SWAP2 SUB SWAP1 REVERT JUMPDEST POP POP POP POP JUMP JUMPDEST PUSH1 0x7 SLOAD DUP2 JUMP JUMPDEST PUSH1 0x8 PUSH1 0x20 MSTORE DUP2 PUSH0 MSTORE PUSH1 0x40 PUSH0 KECCAK256 DUP2 DUP2 SLOAD DUP2 LT PUSH2 0xBD0 JUMPI PUSH0 DUP1 REVERT JUMPDEST SWAP1 PUSH0 MSTORE PUSH1 0x20 PUSH0 KECCAK256 ADD PUSH0 SWAP2 POP SWAP2 POP POP SLOAD DUP2 JUMP JUMPDEST PUSH2 0xBFC DUP4 DUP4 DUP4 PUSH1 0x40 MLOAD DUP1 PUSH1 0x20 ADD PUSH1 0x40 MSTORE DUP1 PUSH0 DUP2 MSTORE POP PUSH2 0xFDF JUMP JUMPDEST POP POP POP JUMP JUMPDEST PUSH1 0xE PUSH0 SWAP1 SLOAD SWAP1 PUSH2 0x100 EXP SWAP1 DIV PUSH20 0xFFFFFFFFFFFFFFFFFFFFFFFFFFFFFFFFFFFFFFFF AND DUP2 JUMP JUMPDEST ADDRESS PUSH20 0xFFFFFFFFFFFFFFFFFFFFFFFFFFFFFFFFFFFFFFFF AND PUSH2 0xC46 DUP3 PUSH2 0x1661 JUMP JUMPDEST PUSH20 0xFFFFFFFFFFFFFFFFFFFFFFFFFFFFFFFFFFFFFFFF AND EQ PUSH2 0xC9C JUMPI PUSH1 0x40 MLOAD PUSH32 0x8C379A000000000000000000000000000000000000000000000000000000000 DUP2 MSTORE PUSH1 0x4 ADD PUSH2 0xC93 SWAP1 PUSH2 0x2744 JUMP JUMPDEST PUSH1 0x40 MLOAD DUP1 SWAP2 SUB SWAP1 REVERT JUMPDEST PUSH1 0x8 PUSH0 CALLER PUSH20 0xFFFFFFFFFFFFFFFFFFFFFFFFFFFFFFFFFFFFFFFF AND PUSH20 0xFFFFFFFFFFFFFFFFFFFFFFFFFFFFFFFFFFFFFFFF AND DUP2 MSTORE PUSH1 0x20 ADD SWAP1 DUP2 MSTORE PUSH1 0x20 ADD PUSH0 KECCAK256 DUP2 SWAP1 DUP1 PUSH1 0x1 DUP2 SLOAD ADD DUP1 DUP3 SSTORE DUP1 SWAP2 POP POP PUSH1 0x1 SWAP1 SUB SWAP1 PUSH0 MSTORE PUSH1 0x20 PUSH0 KECCAK256 ADD PUSH0 SWAP1 SWAP2 SWAP1 SWAP2 SWAP1 SWAP2 POP SSTORE PUSH32 0x50580F9B480D6D5CEC851393DEB0B48A42783DCA51B04CEC0E1F104D553F516C DUP2 CALLER PUSH1 0x40 MLOAD PUSH2 0xD2E SWAP3 SWAP2 SWAP1 PUSH2 0x2762 JUMP JUMPDEST PUSH1 0x40 MLOAD DUP1 SWAP2 SUB SWAP1 LOG1 POP JUMP JUMPDEST PUSH1 0xF SLOAD DUP2 JUMP JUMPDEST PUSH1 0x12 SLOAD DUP2 JUMP JUMPDEST PUSH0 PUSH2 0xD4F DUP3 PUSH2 0x1271 JUMP JUMPDEST SWAP1 POP SWAP2 SWAP1 POP JUMP JUMPDEST PUSH1 0x13 SLOAD DUP2 JUMP JUMPDEST PUSH0 DUP1 PUSH20 0xFFFFFFFFFFFFFFFFFFFFFFFFFFFFFFFFFFFFFFFF AND DUP3 PUSH20 0xFFFFFFFFFFFFFFFFFFFFFFFFFFFFFFFFFFFFFFFF AND SUB PUSH2 0xDCD JUMPI PUSH0 PUSH1 0x40 MLOAD PUSH32 0x89C62B6400000000000000000000000000000000000000000000000000000000 DUP2 MSTORE PUSH1 0x4 ADD PUSH2 0xDC4 SWAP2 SWAP1 PUSH2 0x2119 JUMP JUMPDEST PUSH1 0x40 MLOAD DUP1 SWAP2 SUB SWAP1 REVERT JUMPDEST PUSH1 0x3 PUSH0 DUP4 PUSH20 0xFFFFFFFFFFFFFFFFFFFFFFFFFFFFFFFFFFFFFFFF AND PUSH20 0xFFFFFFFFFFFFFFFFFFFFFFFFFFFFFFFFFFFFFFFF AND DUP2 MSTORE PUSH1 0x20 ADD SWAP1 DUP2 MSTORE PUSH1 0x20 ADD PUSH0 KECCAK256 SLOAD SWAP1 POP SWAP2 SWAP1 POP JUMP JUMPDEST PUSH1 0xD SLOAD DUP2 JUMP JUMPDEST PUSH1 0x60 PUSH1 0x1 DUP1 SLOAD PUSH2 0xE27 SWAP1 PUSH2 0x25FF JUMP JUMPDEST DUP1 PUSH1 0x1F ADD PUSH1 0x20 DUP1 SWAP2 DIV MUL PUSH1 0x20 ADD PUSH1 0x40 MLOAD SWAP1 DUP2 ADD PUSH1 0x40 MSTORE DUP1 SWAP3 SWAP2 SWAP1 DUP2 DUP2 MSTORE PUSH1 0x20 ADD DUP3 DUP1 SLOAD PUSH2 0xE53 SWAP1 PUSH2 0x25FF JUMP JUMPDEST DUP1 ISZERO PUSH2 0xE9E JUMPI DUP1 PUSH1 0x1F LT PUSH2 0xE75 JUMPI PUSH2 0x100 DUP1 DUP4 SLOAD DIV MUL DUP4 MSTORE SWAP2 PUSH1 0x20 ADD SWAP2 PUSH2 0xE9E JUMP JUMPDEST DUP3 ADD SWAP2 SWAP1 PUSH0 MSTORE PUSH1 0x20 PUSH0 KECCAK256 SWAP1 JUMPDEST DUP2 SLOAD DUP2 MSTORE SWAP1 PUSH1 0x1 ADD SWAP1 PUSH1 0x20 ADD DUP1 DUP4 GT PUSH2 0xE81 JUMPI DUP3 SWAP1 SUB PUSH1 0x1F AND DUP3 ADD SWAP2 JUMPDEST POP POP POP POP POP SWAP1 POP SWAP1 JUMP JUMPDEST PUSH1 0x11 SLOAD DUP2 JUMP JUMPDEST PUSH0 PUSH2 0xEB8 CALLER PUSH2 0xD5C JUMP JUMPDEST GT PUSH2 0xEF8 JUMPI PUSH1 0x40 MLOAD PUSH32 0x8C379A000000000000000000000000000000000000000000000000000000000 DUP2 MSTORE PUSH1 0x4 ADD PUSH2 0xEEF SWAP1 PUSH2 0x27F9 JUMP JUMPDEST PUSH1 0x40 MLOAD DUP1 SWAP2 SUB SWAP1 REVERT JUMPDEST PUSH0 PUSH2 0xF01 PUSH2 0xAA2 JUMP JUMPDEST SWAP1 POP PUSH0 JUMPDEST DUP2 DUP2 LT ISZERO PUSH2 0xF9F JUMPI PUSH0 PUSH2 0xF17 DUP3 PUSH2 0xD45 JUMP JUMPDEST SWAP1 POP PUSH0 PUSH2 0xF23 DUP3 PUSH2 0xD5C JUMP JUMPDEST GT ISZERO PUSH2 0xF91 JUMPI PUSH0 DUP4 PUSH2 0xF34 DUP4 PUSH2 0xD5C JUMP JUMPDEST DUP7 PUSH2 0xF3F SWAP2 SWAP1 PUSH2 0x2844 JUMP JUMPDEST PUSH2 0xF49 SWAP2 SWAP1 PUSH2 0x28B2 JUMP JUMPDEST SWAP1 POP DUP2 PUSH20 0xFFFFFFFFFFFFFFFFFFFFFFFFFFFFFFFFFFFFFFFF AND PUSH2 0x8FC DUP3 SWAP1 DUP2 ISZERO MUL SWAP1 PUSH1 0x40 MLOAD PUSH0 PUSH1 0x40 MLOAD DUP1 DUP4 SUB DUP2 DUP6 DUP9 DUP9 CALL SWAP4 POP POP POP POP ISZERO DUP1 ISZERO PUSH2 0xF8E JUMPI RETURNDATASIZE PUSH0 DUP1 RETURNDATACOPY RETURNDATASIZE PUSH0 REVERT JUMPDEST POP POP JUMPDEST POP DUP1 DUP1 PUSH1 0x1 ADD SWAP2 POP POP PUSH2 0xF05 JUMP JUMPDEST POP POP POP JUMP JUMPDEST PUSH2 0xFB6 PUSH2 0xFAF PUSH2 0x1330 JUMP JUMPDEST DUP4 DUP4 PUSH2 0x169A JUMP JUMPDEST POP POP JUMP JUMPDEST PUSH1 0xA PUSH0 SWAP1 SLOAD SWAP1 PUSH2 0x100 EXP SWAP1 DIV PUSH20 0xFFFFFFFFFFFFFFFFFFFFFFFFFFFFFFFFFFFFFFFF AND DUP2 JUMP JUMPDEST PUSH2 0xFEA DUP5 DUP5 DUP5 PUSH2 0xAB2 JUMP JUMPDEST PUSH2 0xFF6 DUP5 DUP5 DUP5 DUP5 PUSH2 0x1803 JUMP JUMPDEST POP POP POP POP JUMP JUMPDEST PUSH1 0x9 SLOAD DUP2 JUMP JUMPDEST PUSH1 0x60 PUSH2 0x100D DUP3 PUSH2 0x1271 JUMP JUMPDEST POP PUSH0 PUSH2 0x1017 PUSH2 0x19B5 JUMP JUMPDEST SWAP1 POP PUSH0 DUP2 MLOAD GT PUSH2 0x1035 JUMPI PUSH1 0x40 MLOAD DUP1 PUSH1 0x20 ADD PUSH1 0x40 MSTORE DUP1 PUSH0 DUP2 MSTORE POP PUSH2 0x1060 JUMP JUMPDEST DUP1 PUSH2 0x103F DUP5 PUSH2 0x19CB JUMP JUMPDEST PUSH1 0x40 MLOAD PUSH1 0x20 ADD PUSH2 0x1050 SWAP3 SWAP2 SWAP1 PUSH2 0x291C JUMP JUMPDEST PUSH1 0x40 MLOAD PUSH1 0x20 DUP2 DUP4 SUB SUB DUP2 MSTORE SWAP1 PUSH1 0x40 MSTORE JUMPDEST SWAP2 POP POP SWAP2 SWAP1 POP JUMP JUMPDEST PUSH1 0x10 SLOAD DUP2 JUMP JUMPDEST PUSH0 PUSH1 0x5 PUSH0 DUP5 PUSH20 0xFFFFFFFFFFFFFFFFFFFFFFFFFFFFFFFFFFFFFFFF AND PUSH20 0xFFFFFFFFFFFFFFFFFFFFFFFFFFFFFFFFFFFFFFFF AND DUP2 MSTORE PUSH1 0x20 ADD SWAP1 DUP2 MSTORE PUSH1 0x20 ADD PUSH0 KECCAK256 PUSH0 DUP4 PUSH20 0xFFFFFFFFFFFFFFFFFFFFFFFFFFFFFFFFFFFFFFFF AND PUSH20 0xFFFFFFFFFFFFFFFFFFFFFFFFFFFFFFFFFFFFFFFF AND DUP2 MSTORE PUSH1 0x20 ADD SWAP1 DUP2 MSTORE PUSH1 0x20 ADD PUSH0 KECCAK256 PUSH0 SWAP1 SLOAD SWAP1 PUSH2 0x100 EXP SWAP1 DIV PUSH1 0xFF AND SWAP1 POP SWAP3 SWAP2 POP POP JUMP JUMPDEST PUSH1 0x14 PUSH0 SWAP1 SLOAD SWAP1 PUSH2 0x100 EXP SWAP1 DIV PUSH20 0xFFFFFFFFFFFFFFFFFFFFFFFFFFFFFFFFFFFFFFFF AND DUP2 JUMP JUMPDEST PUSH1 0x64 PUSH1 0x12 SLOAD PUSH1 0xF SLOAD PUSH2 0x1133 SWAP2 SWAP1 PUSH2 0x2844 JUMP JUMPDEST PUSH2 0x113D SWAP2 SWAP1 PUSH2 0x28B2 JUMP JUMPDEST PUSH1 0x13 DUP2 SWAP1 SSTORE POP PUSH1 0x14 PUSH0 SWAP1 SLOAD SWAP1 PUSH2 0x100 EXP SWAP1 DIV PUSH20 0xFFFFFFFFFFFFFFFFFFFFFFFFFFFFFFFFFFFFFFFF AND PUSH20 0xFFFFFFFFFFFFFFFFFFFFFFFFFFFFFFFFFFFFFFFF AND PUSH2 0x8FC PUSH1 0x13 SLOAD SWAP1 DUP2 ISZERO MUL SWAP1 PUSH1 0x40 MLOAD PUSH0 PUSH1 0x40 MLOAD DUP1 DUP4 SUB DUP2 DUP6 DUP9 DUP9 CALL SWAP4 POP POP POP POP ISZERO DUP1 ISZERO PUSH2 0x11A9 JUMPI RETURNDATASIZE PUSH0 DUP1 RETURNDATACOPY RETURNDATASIZE PUSH0 REVERT JUMPDEST POP PUSH32 0x72BE57C44BDCDF29E3BDED0B32580B641D4C7F1E2D1CD7ABA457FE552B351AAF PUSH1 0x13 SLOAD PUSH1 0x14 PUSH0 SWAP1 SLOAD SWAP1 PUSH2 0x100 EXP SWAP1 DIV PUSH20 0xFFFFFFFFFFFFFFFFFFFFFFFFFFFFFFFFFFFFFFFF AND PUSH1 0x40 MLOAD PUSH2 0x11FE SWAP3 SWAP2 SWAP1 PUSH2 0x299A JUMP JUMPDEST PUSH1 0x40 MLOAD DUP1 SWAP2 SUB SWAP1 LOG1 JUMP JUMPDEST PUSH0 PUSH32 0x1FFC9A700000000000000000000000000000000000000000000000000000000 PUSH28 0xFFFFFFFFFFFFFFFFFFFFFFFFFFFFFFFFFFFFFFFFFFFFFFFFFFFFFFFF NOT AND DUP3 PUSH28 0xFFFFFFFFFFFFFFFFFFFFFFFFFFFFFFFFFFFFFFFFFFFFFFFFFFFFFFFF NOT AND EQ SWAP1 POP SWAP2 SWAP1 POP JUMP JUMPDEST PUSH0 DUP1 PUSH2 0x127C DUP4 PUSH2 0x1661 JUMP JUMPDEST SWAP1 POP PUSH0 PUSH20 0xFFFFFFFFFFFFFFFFFFFFFFFFFFFFFFFFFFFFFFFF AND DUP2 PUSH20 0xFFFFFFFFFFFFFFFFFFFFFFFFFFFFFFFFFFFFFFFF AND SUB PUSH2 0x12EE JUMPI DUP3 PUSH1 0x40 MLOAD PUSH32 0x7E27328900000000000000000000000000000000000000000000000000000000 DUP2 MSTORE PUSH1 0x4 ADD PUSH2 0x12E5 SWAP2 SWAP1 PUSH2 0x2341 JUMP JUMPDEST PUSH1 0x40 MLOAD DUP1 SWAP2 SUB SWAP1 REVERT JUMPDEST DUP1 SWAP2 POP POP SWAP2 SWAP1 POP JUMP JUMPDEST PUSH0 PUSH1 0x4 PUSH0 DUP4 DUP2 MSTORE PUSH1 0x20 ADD SWAP1 DUP2 MSTORE PUSH1 0x20 ADD PUSH0 KECCAK256 PUSH0 SWAP1 SLOAD SWAP1 PUSH2 0x100 EXP SWAP1 DIV PUSH20 0xFFFFFFFFFFFFFFFFFFFFFFFFFFFFFFFFFFFFFFFF AND SWAP1 POP SWAP2 SWAP1 POP JUMP JUMPDEST PUSH0 CALLER SWAP1 POP SWAP1 JUMP JUMPDEST PUSH2 0x1344 DUP4 DUP4 DUP4 PUSH1 0x1 PUSH2 0x1A95 JUMP JUMPDEST POP POP POP JUMP JUMPDEST PUSH0 PUSH20 0xFFFFFFFFFFFFFFFFFFFFFFFFFFFFFFFFFFFFFFFF AND DUP3 PUSH20 0xFFFFFFFFFFFFFFFFFFFFFFFFFFFFFFFFFFFFFFFF AND SUB PUSH2 0x13B9 JUMPI PUSH0 PUSH1 0x40 MLOAD PUSH32 0x64A0AE9200000000000000000000000000000000000000000000000000000000 DUP2 MSTORE PUSH1 0x4 ADD PUSH2 0x13B0 SWAP2 SWAP1 PUSH2 0x2119 JUMP JUMPDEST PUSH1 0x40 MLOAD DUP1 SWAP2 SUB SWAP1 REVERT JUMPDEST PUSH0 PUSH2 0x13C5 DUP4 DUP4 PUSH0 PUSH2 0x1456 JUMP JUMPDEST SWAP1 POP PUSH0 PUSH20 0xFFFFFFFFFFFFFFFFFFFFFFFFFFFFFFFFFFFFFFFF AND DUP2 PUSH20 0xFFFFFFFFFFFFFFFFFFFFFFFFFFFFFFFFFFFFFFFF AND EQ PUSH2 0x1437 JUMPI PUSH0 PUSH1 0x40 MLOAD PUSH32 0x73C6AC6E00000000000000000000000000000000000000000000000000000000 DUP2 MSTORE PUSH1 0x4 ADD PUSH2 0x142E SWAP2 SWAP1 PUSH2 0x2119 JUMP JUMPDEST PUSH1 0x40 MLOAD DUP1 SWAP2 SUB SWAP1 REVERT JUMPDEST POP POP POP JUMP JUMPDEST PUSH2 0x1446 DUP3 DUP3 PUSH2 0x143C JUMP JUMPDEST POP POP JUMP JUMPDEST PUSH0 DUP2 PUSH0 ADD SLOAD SWAP1 POP SWAP2 SWAP1 POP JUMP JUMPDEST PUSH0 DUP1 PUSH2 0x1461 DUP5 PUSH2 0x1661 JUMP JUMPDEST SWAP1 POP PUSH0 PUSH20 0xFFFFFFFFFFFFFFFFFFFFFFFFFFFFFFFFFFFFFFFF AND DUP4 PUSH20 0xFFFFFFFFFFFFFFFFFFFFFFFFFFFFFFFFFFFFFFFF AND EQ PUSH2 0x14A2 JUMPI PUSH2 0x14A1 DUP2 DUP5 DUP7 PUSH2 0x1C54 JUMP JUMPDEST JUMPDEST PUSH0 PUSH20 0xFFFFFFFFFFFFFFFFFFFFFFFFFFFFFFFFFFFFFFFF AND DUP2 PUSH20 0xFFFFFFFFFFFFFFFFFFFFFFFFFFFFFFFFFFFFFFFF AND EQ PUSH2 0x152D JUMPI PUSH2 0x14E1 PUSH0 DUP6 PUSH0 DUP1 PUSH2 0x1A95 JUMP JUMPDEST PUSH1 0x1 PUSH1 0x3 PUSH0 DUP4 PUSH20 0xFFFFFFFFFFFFFFFFFFFFFFFFFFFFFFFFFFFFFFFF AND PUSH20 0xFFFFFFFFFFFFFFFFFFFFFFFFFFFFFFFFFFFFFFFF AND DUP2 MSTORE PUSH1 0x20 ADD SWAP1 DUP2 MSTORE PUSH1 0x20 ADD PUSH0 KECCAK256 PUSH0 DUP3 DUP3 SLOAD SUB SWAP3 POP POP DUP2 SWAP1 SSTORE POP JUMPDEST PUSH0 PUSH20 0xFFFFFFFFFFFFFFFFFFFFFFFFFFFFFFFFFFFFFFFF AND DUP6 PUSH20 0xFFFFFFFFFFFFFFFFFFFFFFFFFFFFFFFFFFFFFFFF AND EQ PUSH2 0x15AC JUMPI PUSH1 0x1 PUSH1 0x3 PUSH0 DUP8 PUSH20 0xFFFFFFFFFFFFFFFFFFFFFFFFFFFFFFFFFFFFFFFF AND PUSH20 0xFFFFFFFFFFFFFFFFFFFFFFFFFFFFFFFFFFFFFFFF AND DUP2 MSTORE PUSH1 0x20 ADD SWAP1 DUP2 MSTORE PUSH1 0x20 ADD PUSH0 KECCAK256 PUSH0 DUP3 DUP3 SLOAD ADD SWAP3 POP POP DUP2 SWAP1 SSTORE POP JUMPDEST DUP5 PUSH1 0x2 PUSH0 DUP7 DUP2 MSTORE PUSH1 0x20 ADD SWAP1 DUP2 MSTORE PUSH1 0x20 ADD PUSH0 KECCAK256 PUSH0 PUSH2 0x100 EXP DUP2 SLOAD DUP2 PUSH20 0xFFFFFFFFFFFFFFFFFFFFFFFFFFFFFFFFFFFFFFFF MUL NOT AND SWAP1 DUP4 PUSH20 0xFFFFFFFFFFFFFFFFFFFFFFFFFFFFFFFFFFFFFFFF AND MUL OR SWAP1 SSTORE POP DUP4 DUP6 PUSH20 0xFFFFFFFFFFFFFFFFFFFFFFFFFFFFFFFFFFFFFFFF AND DUP3 PUSH20 0xFFFFFFFFFFFFFFFFFFFFFFFFFFFFFFFFFFFFFFFF AND PUSH32 0xDDF252AD1BE2C89B69C2B068FC378DAA952BA7F163C4A11628F55A4DF523B3EF PUSH1 0x40 MLOAD PUSH1 0x40 MLOAD DUP1 SWAP2 SUB SWAP1 LOG4 DUP1 SWAP2 POP POP SWAP4 SWAP3 POP POP POP JUMP JUMPDEST PUSH0 PUSH1 0x2 PUSH0 DUP4 DUP2 MSTORE PUSH1 0x20 ADD SWAP1 DUP2 MSTORE PUSH1 0x20 ADD PUSH0 KECCAK256 PUSH0 SWAP1 SLOAD SWAP1 PUSH2 0x100 EXP SWAP1 DIV PUSH20 0xFFFFFFFFFFFFFFFFFFFFFFFFFFFFFFFFFFFFFFFF AND SWAP1 POP SWAP2 SWAP1 POP JUMP JUMPDEST PUSH0 PUSH20 0xFFFFFFFFFFFFFFFFFFFFFFFFFFFFFFFFFFFFFFFF AND DUP3 PUSH20 0xFFFFFFFFFFFFFFFFFFFFFFFFFFFFFFFFFFFFFFFF AND SUB PUSH2 0x170A JUMPI DUP2 PUSH1 0x40 MLOAD PUSH32 0x5B08BA1800000000000000000000000000000000000000000000000000000000 DUP2 MSTORE PUSH1 0x4 ADD PUSH2 0x1701 SWAP2 SWAP1 PUSH2 0x2119 JUMP JUMPDEST PUSH1 0x40 MLOAD DUP1 SWAP2 SUB SWAP1 REVERT JUMPDEST DUP1 PUSH1 0x5 PUSH0 DUP6 PUSH20 0xFFFFFFFFFFFFFFFFFFFFFFFFFFFFFFFFFFFFFFFF AND PUSH20 0xFFFFFFFFFFFFFFFFFFFFFFFFFFFFFFFFFFFFFFFF AND DUP2 MSTORE PUSH1 0x20 ADD SWAP1 DUP2 MSTORE PUSH1 0x20 ADD PUSH0 KECCAK256 PUSH0 DUP5 PUSH20 0xFFFFFFFFFFFFFFFFFFFFFFFFFFFFFFFFFFFFFFFF AND PUSH20 0xFFFFFFFFFFFFFFFFFFFFFFFFFFFFFFFFFFFFFFFF AND DUP2 MSTORE PUSH1 0x20 ADD SWAP1 DUP2 MSTORE PUSH1 0x20 ADD PUSH0 KECCAK256 PUSH0 PUSH2 0x100 EXP DUP2 SLOAD DUP2 PUSH1 0xFF MUL NOT AND SWAP1 DUP4 ISZERO ISZERO MUL OR SWAP1 SSTORE POP DUP2 PUSH20 0xFFFFFFFFFFFFFFFFFFFFFFFFFFFFFFFFFFFFFFFF AND DUP4 PUSH20 0xFFFFFFFFFFFFFFFFFFFFFFFFFFFFFFFFFFFFFFFF AND PUSH32 0x17307EAB39AB6107E8899845AD3D59BD9653F200F220920489CA2B5937696C31 DUP4 PUSH1 0x40 MLOAD PUSH2 0x17F6 SWAP2 SWAP1 PUSH2 0x2063 JUMP JUMPDEST PUSH1 0x40 MLOAD DUP1 SWAP2 SUB SWAP1 LOG3 POP POP POP JUMP JUMPDEST PUSH0 DUP4 PUSH20 0xFFFFFFFFFFFFFFFFFFFFFFFFFFFFFFFFFFFFFFFF AND EXTCODESIZE GT ISZERO PUSH2 0x19AF JUMPI DUP3 PUSH20 0xFFFFFFFFFFFFFFFFFFFFFFFFFFFFFFFFFFFFFFFF AND PUSH4 0x150B7A02 PUSH2 0x1846 PUSH2 0x1330 JUMP JUMPDEST DUP7 DUP6 DUP6 PUSH1 0x40 MLOAD DUP6 PUSH4 0xFFFFFFFF AND PUSH1 0xE0 SHL DUP2 MSTORE PUSH1 0x4 ADD PUSH2 0x1868 SWAP5 SWAP4 SWAP3 SWAP2 SWAP1 PUSH2 0x2A13 JUMP JUMPDEST PUSH1 0x20 PUSH1 0x40 MLOAD DUP1 DUP4 SUB DUP2 PUSH0 DUP8 GAS CALL SWAP3 POP POP POP DUP1 ISZERO PUSH2 0x18A3 JUMPI POP PUSH1 0x40 MLOAD RETURNDATASIZE PUSH1 0x1F NOT PUSH1 0x1F DUP3 ADD AND DUP3 ADD DUP1 PUSH1 0x40 MSTORE POP DUP2 ADD SWAP1 PUSH2 0x18A0 SWAP2 SWAP1 PUSH2 0x2A71 JUMP JUMPDEST PUSH1 0x1 JUMPDEST PUSH2 0x1924 JUMPI RETURNDATASIZE DUP1 PUSH0 DUP2 EQ PUSH2 0x18D1 JUMPI PUSH1 0x40 MLOAD SWAP2 POP PUSH1 0x1F NOT PUSH1 0x3F RETURNDATASIZE ADD AND DUP3 ADD PUSH1 0x40 MSTORE RETURNDATASIZE DUP3 MSTORE RETURNDATASIZE PUSH0 PUSH1 0x20 DUP5 ADD RETURNDATACOPY PUSH2 0x18D6 JUMP JUMPDEST PUSH1 0x60 SWAP2 POP JUMPDEST POP PUSH0 DUP2 MLOAD SUB PUSH2 0x191C JUMPI DUP4 PUSH1 0x40 MLOAD PUSH32 0x64A0AE9200000000000000000000000000000000000000000000000000000000 DUP2 MSTORE PUSH1 0x4 ADD PUSH2 0x1913 SWAP2 SWAP1 PUSH2 0x2119 JUMP JUMPDEST PUSH1 0x40 MLOAD DUP1 SWAP2 SUB SWAP1 REVERT JUMPDEST DUP1 MLOAD DUP2 PUSH1 0x20 ADD REVERT JUMPDEST PUSH4 0x150B7A02 PUSH1 0xE0 SHL PUSH28 0xFFFFFFFFFFFFFFFFFFFFFFFFFFFFFFFFFFFFFFFFFFFFFFFFFFFFFFFF NOT AND DUP2 PUSH28 0xFFFFFFFFFFFFFFFFFFFFFFFFFFFFFFFFFFFFFFFFFFFFFFFFFFFFFFFF NOT AND EQ PUSH2 0x19AD JUMPI DUP4 PUSH1 0x40 MLOAD PUSH32 0x64A0AE9200000000000000000000000000000000000000000000000000000000 DUP2 MSTORE PUSH1 0x4 ADD PUSH2 0x19A4 SWAP2 SWAP1 PUSH2 0x2119 JUMP JUMPDEST PUSH1 0x40 MLOAD DUP1 SWAP2 SUB SWAP1 REVERT JUMPDEST POP JUMPDEST POP POP POP POP JUMP JUMPDEST PUSH1 0x60 PUSH1 0x40 MLOAD DUP1 PUSH1 0x20 ADD PUSH1 0x40 MSTORE DUP1 PUSH0 DUP2 MSTORE POP SWAP1 POP SWAP1 JUMP JUMPDEST PUSH1 0x60 PUSH0 PUSH1 0x1 PUSH2 0x19D9 DUP5 PUSH2 0x1D17 JUMP JUMPDEST ADD SWAP1 POP PUSH0 DUP2 PUSH8 0xFFFFFFFFFFFFFFFF DUP2 GT ISZERO PUSH2 0x19F7 JUMPI PUSH2 0x19F6 PUSH2 0x21A2 JUMP JUMPDEST JUMPDEST PUSH1 0x40 MLOAD SWAP1 DUP1 DUP3 MSTORE DUP1 PUSH1 0x1F ADD PUSH1 0x1F NOT AND PUSH1 0x20 ADD DUP3 ADD PUSH1 0x40 MSTORE DUP1 ISZERO PUSH2 0x1A29 JUMPI DUP2 PUSH1 0x20 ADD PUSH1 0x1 DUP3 MUL DUP1 CALLDATASIZE DUP4 CALLDATACOPY DUP1 DUP3 ADD SWAP2 POP POP SWAP1 POP JUMPDEST POP SWAP1 POP PUSH0 DUP3 PUSH1 0x20 ADD DUP3 ADD SWAP1 POP JUMPDEST PUSH1 0x1 ISZERO PUSH2 0x1A8A JUMPI DUP1 DUP1 PUSH1 0x1 SWAP1 SUB SWAP2 POP POP PUSH32 0x3031323334353637383961626364656600000000000000000000000000000000 PUSH1 0xA DUP7 MOD BYTE DUP2 MSTORE8 PUSH1 0xA DUP6 DUP2 PUSH2 0x1A7F JUMPI PUSH2 0x1A7E PUSH2 0x2885 JUMP JUMPDEST JUMPDEST DIV SWAP5 POP PUSH0 DUP6 SUB PUSH2 0x1A36 JUMPI JUMPDEST DUP2 SWAP4 POP POP POP POP SWAP2 SWAP1 POP JUMP JUMPDEST DUP1 DUP1 PUSH2 0x1ACD JUMPI POP PUSH0 PUSH20 0xFFFFFFFFFFFFFFFFFFFFFFFFFFFFFFFFFFFFFFFF AND DUP3 PUSH20 0xFFFFFFFFFFFFFFFFFFFFFFFFFFFFFFFFFFFFFFFF AND EQ ISZERO JUMPDEST ISZERO PUSH2 0x1BFF JUMPI PUSH0 PUSH2 0x1ADC DUP5 PUSH2 0x1271 JUMP JUMPDEST SWAP1 POP PUSH0 PUSH20 0xFFFFFFFFFFFFFFFFFFFFFFFFFFFFFFFFFFFFFFFF AND DUP4 PUSH20 0xFFFFFFFFFFFFFFFFFFFFFFFFFFFFFFFFFFFFFFFF AND EQ ISZERO DUP1 ISZERO PUSH2 0x1B46 JUMPI POP DUP3 PUSH20 0xFFFFFFFFFFFFFFFFFFFFFFFFFFFFFFFFFFFFFFFF AND DUP2 PUSH20 0xFFFFFFFFFFFFFFFFFFFFFFFFFFFFFFFFFFFFFFFF AND EQ ISZERO JUMPDEST DUP1 ISZERO PUSH2 0x1B59 JUMPI POP PUSH2 0x1B57 DUP2 DUP5 PUSH2 0x106E JUMP JUMPDEST ISZERO JUMPDEST ISZERO PUSH2 0x1B9B JUMPI DUP3 PUSH1 0x40 MLOAD PUSH32 0xA9FBF51F00000000000000000000000000000000000000000000000000000000 DUP2 MSTORE PUSH1 0x4 ADD PUSH2 0x1B92 SWAP2 SWAP1 PUSH2 0x2119 JUMP JUMPDEST PUSH1 0x40 MLOAD DUP1 SWAP2 SUB SWAP1 REVERT JUMPDEST DUP2 ISZERO PUSH2 0x1BFD JUMPI DUP4 DUP6 PUSH20 0xFFFFFFFFFFFFFFFFFFFFFFFFFFFFFFFFFFFFFFFF AND DUP3 PUSH20 0xFFFFFFFFFFFFFFFFFFFFFFFFFFFFFFFFFFFFFFFF AND PUSH32 0x8C5BE1E5EBEC7D5BD14F71427D1E84F3DD0314C0F7B2291E5B200AC8C7C3B925 PUSH1 0x40 MLOAD PUSH1 0x40 MLOAD DUP1 SWAP2 SUB SWAP1 LOG4 JUMPDEST POP JUMPDEST DUP4 PUSH1 0x4 PUSH0 DUP6 DUP2 MSTORE PUSH1 0x20 ADD SWAP1 DUP2 MSTORE PUSH1 0x20 ADD PUSH0 KECCAK256 PUSH0 PUSH2 0x100 EXP DUP2 SLOAD DUP2 PUSH20 0xFFFFFFFFFFFFFFFFFFFFFFFFFFFFFFFFFFFFFFFF MUL NOT AND SWAP1 DUP4 PUSH20 0xFFFFFFFFFFFFFFFFFFFFFFFFFFFFFFFFFFFFFFFF AND MUL OR SWAP1 SSTORE POP POP POP POP POP JUMP JUMPDEST PUSH2 0x1C5F DUP4 DUP4 DUP4 PUSH2 0x1E68 JUMP JUMPDEST PUSH2 0x1D12 JUMPI PUSH0 PUSH20 0xFFFFFFFFFFFFFFFFFFFFFFFFFFFFFFFFFFFFFFFF AND DUP4 PUSH20 0xFFFFFFFFFFFFFFFFFFFFFFFFFFFFFFFFFFFFFFFF AND SUB PUSH2 0x1CD3 JUMPI DUP1 PUSH1 0x40 MLOAD PUSH32 0x7E27328900000000000000000000000000000000000000000000000000000000 DUP2 MSTORE PUSH1 0x4 ADD PUSH2 0x1CCA SWAP2 SWAP1 PUSH2 0x2341 JUMP JUMPDEST PUSH1 0x40 MLOAD DUP1 SWAP2 SUB SWAP1 REVERT JUMPDEST DUP2 DUP2 PUSH1 0x40 MLOAD PUSH32 0x177E802F00000000000000000000000000000000000000000000000000000000 DUP2 MSTORE PUSH1 0x4 ADD PUSH2 0x1D09 SWAP3 SWAP2 SWAP1 PUSH2 0x2A9C JUMP JUMPDEST PUSH1 0x40 MLOAD DUP1 SWAP2 SUB SWAP1 REVERT JUMPDEST POP POP POP JUMP JUMPDEST PUSH0 DUP1 PUSH0 SWAP1 POP PUSH27 0x184F03E93FF9F4DAA797ED6E38ED64BF6A1F010000000000000000 DUP4 LT PUSH2 0x1D73 JUMPI PUSH27 0x184F03E93FF9F4DAA797ED6E38ED64BF6A1F010000000000000000 DUP4 DUP2 PUSH2 0x1D69 JUMPI PUSH2 0x1D68 PUSH2 0x2885 JUMP JUMPDEST JUMPDEST DIV SWAP3 POP PUSH1 0x40 DUP2 ADD SWAP1 POP JUMPDEST PUSH14 0x4EE2D6D415B85ACEF8100000000 DUP4 LT PUSH2 0x1DB0 JUMPI PUSH14 0x4EE2D6D415B85ACEF8100000000 DUP4 DUP2 PUSH2 0x1DA6 JUMPI PUSH2 0x1DA5 PUSH2 0x2885 JUMP JUMPDEST JUMPDEST DIV SWAP3 POP PUSH1 0x20 DUP2 ADD SWAP1 POP JUMPDEST PUSH7 0x2386F26FC10000 DUP4 LT PUSH2 0x1DDF JUMPI PUSH7 0x2386F26FC10000 DUP4 DUP2 PUSH2 0x1DD5 JUMPI PUSH2 0x1DD4 PUSH2 0x2885 JUMP JUMPDEST JUMPDEST DIV SWAP3 POP PUSH1 0x10 DUP2 ADD SWAP1 POP JUMPDEST PUSH4 0x5F5E100 DUP4 LT PUSH2 0x1E08 JUMPI PUSH4 0x5F5E100 DUP4 DUP2 PUSH2 0x1DFE JUMPI PUSH2 0x1DFD PUSH2 0x2885 JUMP JUMPDEST JUMPDEST DIV SWAP3 POP PUSH1 0x8 DUP2 ADD SWAP1 POP JUMPDEST PUSH2 0x2710 DUP4 LT PUSH2 0x1E2D JUMPI PUSH2 0x2710 DUP4 DUP2 PUSH2 0x1E23 JUMPI PUSH2 0x1E22 PUSH2 0x2885 JUMP JUMPDEST JUMPDEST DIV SWAP3 POP PUSH1 0x4 DUP2 ADD SWAP1 POP JUMPDEST PUSH1 0x64 DUP4 LT PUSH2 0x1E50 JUMPI PUSH1 0x64 DUP4 DUP2 PUSH2 0x1E46 JUMPI PUSH2 0x1E45 PUSH2 0x2885 JUMP JUMPDEST JUMPDEST DIV SWAP3 POP PUSH1 0x2 DUP2 ADD SWAP1 POP JUMPDEST PUSH1 0xA DUP4 LT PUSH2 0x1E5F JUMPI PUSH1 0x1 DUP2 ADD SWAP1 POP JUMPDEST DUP1 SWAP2 POP POP SWAP2 SWAP1 POP JUMP JUMPDEST PUSH0 DUP1 PUSH20 0xFFFFFFFFFFFFFFFFFFFFFFFFFFFFFFFFFFFFFFFF AND DUP4 PUSH20 0xFFFFFFFFFFFFFFFFFFFFFFFFFFFFFFFFFFFFFFFF AND EQ ISZERO DUP1 ISZERO PUSH2 0x1F1F JUMPI POP DUP3 PUSH20 0xFFFFFFFFFFFFFFFFFFFFFFFFFFFFFFFFFFFFFFFF AND DUP5 PUSH20 0xFFFFFFFFFFFFFFFFFFFFFFFFFFFFFFFFFFFFFFFF AND EQ DUP1 PUSH2 0x1EE0 JUMPI POP PUSH2 0x1EDF DUP5 DUP5 PUSH2 0x106E JUMP JUMPDEST JUMPDEST DUP1 PUSH2 0x1F1E JUMPI POP DUP3 PUSH20 0xFFFFFFFFFFFFFFFFFFFFFFFFFFFFFFFFFFFFFFFF AND PUSH2 0x1F06 DUP4 PUSH2 0x12F7 JUMP JUMPDEST PUSH20 0xFFFFFFFFFFFFFFFFFFFFFFFFFFFFFFFFFFFFFFFF AND EQ JUMPDEST JUMPDEST SWAP1 POP SWAP4 SWAP3 POP POP POP JUMP JUMPDEST PUSH0 DUP2 MLOAD SWAP1 POP SWAP2 SWAP1 POP JUMP JUMPDEST PUSH0 DUP3 DUP3 MSTORE PUSH1 0x20 DUP3 ADD SWAP1 POP SWAP3 SWAP2 POP POP JUMP JUMPDEST DUP3 DUP2 DUP4 MCOPY PUSH0 DUP4 DUP4 ADD MSTORE POP POP POP JUMP JUMPDEST PUSH0 PUSH1 0x1F NOT PUSH1 0x1F DUP4 ADD AND SWAP1 POP SWAP2 SWAP1 POP JUMP JUMPDEST PUSH0 PUSH2 0x1F6A DUP3 PUSH2 0x1F28 JUMP JUMPDEST PUSH2 0x1F74 DUP2 DUP6 PUSH2 0x1F32 JUMP JUMPDEST SWAP4 POP PUSH2 0x1F84 DUP2 DUP6 PUSH1 0x20 DUP7 ADD PUSH2 0x1F42 JUMP JUMPDEST PUSH2 0x1F8D DUP2 PUSH2 0x1F50 JUMP JUMPDEST DUP5 ADD SWAP2 POP POP SWAP3 SWAP2 POP POP JUMP JUMPDEST PUSH0 PUSH1 0x20 DUP3 ADD SWAP1 POP DUP2 DUP2 SUB PUSH0 DUP4 ADD MSTORE PUSH2 0x1FB0 DUP2 DUP5 PUSH2 0x1F60 JUMP JUMPDEST SWAP1 POP SWAP3 SWAP2 POP POP JUMP JUMPDEST PUSH0 PUSH1 0x40 MLOAD SWAP1 POP SWAP1 JUMP JUMPDEST PUSH0 DUP1 REVERT JUMPDEST PUSH0 DUP1 REVERT JUMPDEST PUSH0 PUSH32 0xFFFFFFFF00000000000000000000000000000000000000000000000000000000 DUP3 AND SWAP1 POP SWAP2 SWAP1 POP JUMP JUMPDEST PUSH2 0x1FFD DUP2 PUSH2 0x1FC9 JUMP JUMPDEST DUP2 EQ PUSH2 0x2007 JUMPI PUSH0 DUP1 REVERT JUMPDEST POP JUMP JUMPDEST PUSH0 DUP2 CALLDATALOAD SWAP1 POP PUSH2 0x2018 DUP2 PUSH2 0x1FF4 JUMP JUMPDEST SWAP3 SWAP2 POP POP JUMP JUMPDEST PUSH0 PUSH1 0x20 DUP3 DUP5 SUB SLT ISZERO PUSH2 0x2033 JUMPI PUSH2 0x2032 PUSH2 0x1FC1 JUMP JUMPDEST JUMPDEST PUSH0 PUSH2 0x2040 DUP5 DUP3 DUP6 ADD PUSH2 0x200A JUMP JUMPDEST SWAP2 POP POP SWAP3 SWAP2 POP POP JUMP JUMPDEST PUSH0 DUP2 ISZERO ISZERO SWAP1 POP SWAP2 SWAP1 POP JUMP JUMPDEST PUSH2 0x205D DUP2 PUSH2 0x2049 JUMP JUMPDEST DUP3 MSTORE POP POP JUMP JUMPDEST PUSH0 PUSH1 0x20 DUP3 ADD SWAP1 POP PUSH2 0x2076 PUSH0 DUP4 ADD DUP5 PUSH2 0x2054 JUMP JUMPDEST SWAP3 SWAP2 POP POP JUMP JUMPDEST PUSH0 DUP2 SWAP1 POP SWAP2 SWAP1 POP JUMP JUMPDEST PUSH2 0x208E DUP2 PUSH2 0x207C JUMP JUMPDEST DUP2 EQ PUSH2 0x2098 JUMPI PUSH0 DUP1 REVERT JUMPDEST POP JUMP JUMPDEST PUSH0 DUP2 CALLDATALOAD SWAP1 POP PUSH2 0x20A9 DUP2 PUSH2 0x2085 JUMP JUMPDEST SWAP3 SWAP2 POP POP JUMP JUMPDEST PUSH0 PUSH1 0x20 DUP3 DUP5 SUB SLT ISZERO PUSH2 0x20C4 JUMPI PUSH2 0x20C3 PUSH2 0x1FC1 JUMP JUMPDEST JUMPDEST PUSH0 PUSH2 0x20D1 DUP5 DUP3 DUP6 ADD PUSH2 0x209B JUMP JUMPDEST SWAP2 POP POP SWAP3 SWAP2 POP POP JUMP JUMPDEST PUSH0 PUSH20 0xFFFFFFFFFFFFFFFFFFFFFFFFFFFFFFFFFFFFFFFF DUP3 AND SWAP1 POP SWAP2 SWAP1 POP JUMP JUMPDEST PUSH0 PUSH2 0x2103 DUP3 PUSH2 0x20DA JUMP JUMPDEST SWAP1 POP SWAP2 SWAP1 POP JUMP JUMPDEST PUSH2 0x2113 DUP2 PUSH2 0x20F9 JUMP JUMPDEST DUP3 MSTORE POP POP JUMP JUMPDEST PUSH0 PUSH1 0x20 DUP3 ADD SWAP1 POP PUSH2 0x212C PUSH0 DUP4 ADD DUP5 PUSH2 0x210A JUMP JUMPDEST SWAP3 SWAP2 POP POP JUMP JUMPDEST PUSH2 0x213B DUP2 PUSH2 0x20F9 JUMP JUMPDEST DUP2 EQ PUSH2 0x2145 JUMPI PUSH0 DUP1 REVERT JUMPDEST POP JUMP JUMPDEST PUSH0 DUP2 CALLDATALOAD SWAP1 POP PUSH2 0x2156 DUP2 PUSH2 0x2132 JUMP JUMPDEST SWAP3 SWAP2 POP POP JUMP JUMPDEST PUSH0 DUP1 PUSH1 0x40 DUP4 DUP6 SUB SLT ISZERO PUSH2 0x2172 JUMPI PUSH2 0x2171 PUSH2 0x1FC1 JUMP JUMPDEST JUMPDEST PUSH0 PUSH2 0x217F DUP6 DUP3 DUP7 ADD PUSH2 0x2148 JUMP JUMPDEST SWAP3 POP POP PUSH1 0x20 PUSH2 0x2190 DUP6 DUP3 DUP7 ADD PUSH2 0x209B JUMP JUMPDEST SWAP2 POP POP SWAP3 POP SWAP3 SWAP1 POP JUMP JUMPDEST PUSH0 DUP1 REVERT JUMPDEST PUSH0 DUP1 REVERT JUMPDEST PUSH32 0x4E487B7100000000000000000000000000000000000000000000000000000000 PUSH0 MSTORE PUSH1 0x41 PUSH1 0x4 MSTORE PUSH1 0x24 PUSH0 REVERT JUMPDEST PUSH2 0x21D8 DUP3 PUSH2 0x1F50 JUMP JUMPDEST DUP2 ADD DUP2 DUP2 LT PUSH8 0xFFFFFFFFFFFFFFFF DUP3 GT OR ISZERO PUSH2 0x21F7 JUMPI PUSH2 0x21F6 PUSH2 0x21A2 JUMP JUMPDEST JUMPDEST DUP1 PUSH1 0x40 MSTORE POP POP POP JUMP JUMPDEST PUSH0 PUSH2 0x2209 PUSH2 0x1FB8 JUMP JUMPDEST SWAP1 POP PUSH2 0x2215 DUP3 DUP3 PUSH2 0x21CF JUMP JUMPDEST SWAP2 SWAP1 POP JUMP JUMPDEST PUSH0 PUSH8 0xFFFFFFFFFFFFFFFF DUP3 GT ISZERO PUSH2 0x2234 JUMPI PUSH2 0x2233 PUSH2 0x21A2 JUMP JUMPDEST JUMPDEST PUSH2 0x223D DUP3 PUSH2 0x1F50 JUMP JUMPDEST SWAP1 POP PUSH1 0x20 DUP2 ADD SWAP1 POP SWAP2 SWAP1 POP JUMP JUMPDEST DUP3 DUP2 DUP4 CALLDATACOPY PUSH0 DUP4 DUP4 ADD MSTORE POP POP POP JUMP JUMPDEST PUSH0 PUSH2 0x226A PUSH2 0x2265 DUP5 PUSH2 0x221A JUMP JUMPDEST PUSH2 0x2200 JUMP JUMPDEST SWAP1 POP DUP3 DUP2 MSTORE PUSH1 0x20 DUP2 ADD DUP5 DUP5 DUP5 ADD GT ISZERO PUSH2 0x2286 JUMPI PUSH2 0x2285 PUSH2 0x219E JUMP JUMPDEST JUMPDEST PUSH2 0x2291 DUP5 DUP3 DUP6 PUSH2 0x224A JUMP JUMPDEST POP SWAP4 SWAP3 POP POP POP JUMP JUMPDEST PUSH0 DUP3 PUSH1 0x1F DUP4 ADD SLT PUSH2 0x22AD JUMPI PUSH2 0x22AC PUSH2 0x219A JUMP JUMPDEST JUMPDEST DUP2 CALLDATALOAD PUSH2 0x22BD DUP5 DUP3 PUSH1 0x20 DUP7 ADD PUSH2 0x2258 JUMP JUMPDEST SWAP2 POP POP SWAP3 SWAP2 POP POP JUMP JUMPDEST PUSH0 DUP1 PUSH0 PUSH1 0x60 DUP5 DUP7 SUB SLT ISZERO PUSH2 0x22DD JUMPI PUSH2 0x22DC PUSH2 0x1FC1 JUMP JUMPDEST JUMPDEST PUSH0 DUP5 ADD CALLDATALOAD PUSH8 0xFFFFFFFFFFFFFFFF DUP2 GT ISZERO PUSH2 0x22FA JUMPI PUSH2 0x22F9 PUSH2 0x1FC5 JUMP JUMPDEST JUMPDEST PUSH2 0x2306 DUP7 DUP3 DUP8 ADD PUSH2 0x2299 JUMP JUMPDEST SWAP4 POP POP PUSH1 0x20 PUSH2 0x2317 DUP7 DUP3 DUP8 ADD PUSH2 0x209B JUMP JUMPDEST SWAP3 POP POP PUSH1 0x40 PUSH2 0x2328 DUP7 DUP3 DUP8 ADD PUSH2 0x209B JUMP JUMPDEST SWAP2 POP POP SWAP3 POP SWAP3 POP SWAP3 JUMP JUMPDEST PUSH2 0x233B DUP2 PUSH2 0x207C JUMP JUMPDEST DUP3 MSTORE POP POP JUMP JUMPDEST PUSH0 PUSH1 0x20 DUP3 ADD SWAP1 POP PUSH2 0x2354 PUSH0 DUP4 ADD DUP5 PUSH2 0x2332 JUMP JUMPDEST SWAP3 SWAP2 POP POP JUMP JUMPDEST PUSH0 DUP1 PUSH0 PUSH1 0x60 DUP5 DUP7 SUB SLT ISZERO PUSH2 0x2371 JUMPI PUSH2 0x2370 PUSH2 0x1FC1 JUMP JUMPDEST JUMPDEST PUSH0 PUSH2 0x237E DUP7 DUP3 DUP8 ADD PUSH2 0x2148 JUMP JUMPDEST SWAP4 POP POP PUSH1 0x20 PUSH2 0x238F DUP7 DUP3 DUP8 ADD PUSH2 0x2148 JUMP JUMPDEST SWAP3 POP POP PUSH1 0x40 PUSH2 0x23A0 DUP7 DUP3 DUP8 ADD PUSH2 0x209B JUMP JUMPDEST SWAP2 POP POP SWAP3 POP SWAP3 POP SWAP3 JUMP JUMPDEST PUSH0 PUSH1 0x20 DUP3 DUP5 SUB SLT ISZERO PUSH2 0x23BF JUMPI PUSH2 0x23BE PUSH2 0x1FC1 JUMP JUMPDEST JUMPDEST PUSH0 PUSH2 0x23CC DUP5 DUP3 DUP6 ADD PUSH2 0x2148 JUMP JUMPDEST SWAP2 POP POP SWAP3 SWAP2 POP POP JUMP JUMPDEST PUSH2 0x23DE DUP2 PUSH2 0x2049 JUMP JUMPDEST DUP2 EQ PUSH2 0x23E8 JUMPI PUSH0 DUP1 REVERT JUMPDEST POP JUMP JUMPDEST PUSH0 DUP2 CALLDATALOAD SWAP1 POP PUSH2 0x23F9 DUP2 PUSH2 0x23D5 JUMP JUMPDEST SWAP3 SWAP2 POP POP JUMP JUMPDEST PUSH0 DUP1 PUSH1 0x40 DUP4 DUP6 SUB SLT ISZERO PUSH2 0x2415 JUMPI PUSH2 0x2414 PUSH2 0x1FC1 JUMP JUMPDEST JUMPDEST PUSH0 PUSH2 0x2422 DUP6 DUP3 DUP7 ADD PUSH2 0x2148 JUMP JUMPDEST SWAP3 POP POP PUSH1 0x20 PUSH2 0x2433 DUP6 DUP3 DUP7 ADD PUSH2 0x23EB JUMP JUMPDEST SWAP2 POP POP SWAP3 POP SWAP3 SWAP1 POP JUMP JUMPDEST PUSH0 PUSH2 0x2447 DUP3 PUSH2 0x20DA JUMP JUMPDEST SWAP1 POP SWAP2 SWAP1 POP JUMP JUMPDEST PUSH2 0x2457 DUP2 PUSH2 0x243D JUMP JUMPDEST DUP3 MSTORE POP POP JUMP JUMPDEST PUSH0 PUSH1 0x20 DUP3 ADD SWAP1 POP PUSH2 0x2470 PUSH0 DUP4 ADD DUP5 PUSH2 0x244E JUMP JUMPDEST SWAP3 SWAP2 POP POP JUMP JUMPDEST PUSH0 PUSH8 0xFFFFFFFFFFFFFFFF DUP3 GT ISZERO PUSH2 0x2490 JUMPI PUSH2 0x248F PUSH2 0x21A2 JUMP JUMPDEST JUMPDEST PUSH2 0x2499 DUP3 PUSH2 0x1F50 JUMP JUMPDEST SWAP1 POP PUSH1 0x20 DUP2 ADD SWAP1 POP SWAP2 SWAP1 POP JUMP JUMPDEST PUSH0 PUSH2 0x24B8 PUSH2 0x24B3 DUP5 PUSH2 0x2476 JUMP JUMPDEST PUSH2 0x2200 JUMP JUMPDEST SWAP1 POP DUP3 DUP2 MSTORE PUSH1 0x20 DUP2 ADD DUP5 DUP5 DUP5 ADD GT ISZERO PUSH2 0x24D4 JUMPI PUSH2 0x24D3 PUSH2 0x219E JUMP JUMPDEST JUMPDEST PUSH2 0x24DF DUP5 DUP3 DUP6 PUSH2 0x224A JUMP JUMPDEST POP SWAP4 SWAP3 POP POP POP JUMP JUMPDEST PUSH0 DUP3 PUSH1 0x1F DUP4 ADD SLT PUSH2 0x24FB JUMPI PUSH2 0x24FA PUSH2 0x219A JUMP JUMPDEST JUMPDEST DUP2 CALLDATALOAD PUSH2 0x250B DUP5 DUP3 PUSH1 0x20 DUP7 ADD PUSH2 0x24A6 JUMP JUMPDEST SWAP2 POP POP SWAP3 SWAP2 POP POP JUMP JUMPDEST PUSH0 DUP1 PUSH0 DUP1 PUSH1 0x80 DUP6 DUP8 SUB SLT ISZERO PUSH2 0x252C JUMPI PUSH2 0x252B PUSH2 0x1FC1 JUMP JUMPDEST JUMPDEST PUSH0 PUSH2 0x2539 DUP8 DUP3 DUP9 ADD PUSH2 0x2148 JUMP JUMPDEST SWAP5 POP POP PUSH1 0x20 PUSH2 0x254A DUP8 DUP3 DUP9 ADD PUSH2 0x2148 JUMP JUMPDEST SWAP4 POP POP PUSH1 0x40 PUSH2 0x255B DUP8 DUP3 DUP9 ADD PUSH2 0x209B JUMP JUMPDEST SWAP3 POP POP PUSH1 0x60 DUP6 ADD CALLDATALOAD PUSH8 0xFFFFFFFFFFFFFFFF DUP2 GT ISZERO PUSH2 0x257C JUMPI PUSH2 0x257B PUSH2 0x1FC5 JUMP JUMPDEST JUMPDEST PUSH2 0x2588 DUP8 DUP3 DUP9 ADD PUSH2 0x24E7 JUMP JUMPDEST SWAP2 POP POP SWAP3 SWAP6 SWAP2 SWAP5 POP SWAP3 POP JUMP JUMPDEST PUSH0 DUP1 PUSH1 0x40 DUP4 DUP6 SUB SLT ISZERO PUSH2 0x25AA JUMPI PUSH2 0x25A9 PUSH2 0x1FC1 JUMP JUMPDEST JUMPDEST PUSH0 PUSH2 0x25B7 DUP6 DUP3 DUP7 ADD PUSH2 0x2148 JUMP JUMPDEST SWAP3 POP POP PUSH1 0x20 PUSH2 0x25C8 DUP6 DUP3 DUP7 ADD PUSH2 0x2148 JUMP JUMPDEST SWAP2 POP POP SWAP3 POP SWAP3 SWAP1 POP JUMP JUMPDEST PUSH32 0x4E487B7100000000000000000000000000000000000000000000000000000000 PUSH0 MSTORE PUSH1 0x22 PUSH1 0x4 MSTORE PUSH1 0x24 PUSH0 REVERT JUMPDEST PUSH0 PUSH1 0x2 DUP3 DIV SWAP1 POP PUSH1 0x1 DUP3 AND DUP1 PUSH2 0x2616 JUMPI PUSH1 0x7F DUP3 AND SWAP2 POP JUMPDEST PUSH1 0x20 DUP3 LT DUP2 SUB PUSH2 0x2629 JUMPI PUSH2 0x2628 PUSH2 0x25D2 JUMP JUMPDEST JUMPDEST POP SWAP2 SWAP1 POP JUMP JUMPDEST PUSH32 0x496E73756666696369656E742066756E647320696E2074726561737572790000 PUSH0 DUP3 ADD MSTORE POP JUMP JUMPDEST PUSH0 PUSH2 0x2663 PUSH1 0x1E DUP4 PUSH2 0x1F32 JUMP JUMPDEST SWAP2 POP PUSH2 0x266E DUP3 PUSH2 0x262F JUMP JUMPDEST PUSH1 0x20 DUP3 ADD SWAP1 POP SWAP2 SWAP1 POP JUMP JUMPDEST PUSH0 PUSH1 0x20 DUP3 ADD SWAP1 POP DUP2 DUP2 SUB PUSH0 DUP4 ADD MSTORE PUSH2 0x2690 DUP2 PUSH2 0x2657 JUMP JUMPDEST SWAP1 POP SWAP2 SWAP1 POP JUMP JUMPDEST PUSH0 PUSH1 0x40 DUP3 ADD SWAP1 POP PUSH2 0x26AA PUSH0 DUP4 ADD DUP6 PUSH2 0x2332 JUMP JUMPDEST DUP2 DUP2 SUB PUSH1 0x20 DUP4 ADD MSTORE PUSH2 0x26BC DUP2 DUP5 PUSH2 0x1F60 JUMP JUMPDEST SWAP1 POP SWAP4 SWAP3 POP POP POP JUMP JUMPDEST PUSH0 PUSH1 0x60 DUP3 ADD SWAP1 POP PUSH2 0x26D8 PUSH0 DUP4 ADD DUP7 PUSH2 0x210A JUMP JUMPDEST PUSH2 0x26E5 PUSH1 0x20 DUP4 ADD DUP6 PUSH2 0x2332 JUMP JUMPDEST PUSH2 0x26F2 PUSH1 0x40 DUP4 ADD DUP5 PUSH2 0x210A JUMP JUMPDEST SWAP5 SWAP4 POP POP POP POP JUMP JUMPDEST PUSH32 0x4E4654206E6F74206F776E656420627920746865206775696C64000000000000 PUSH0 DUP3 ADD MSTORE POP JUMP JUMPDEST PUSH0 PUSH2 0x272E PUSH1 0x1A DUP4 PUSH2 0x1F32 JUMP JUMPDEST SWAP2 POP PUSH2 0x2739 DUP3 PUSH2 0x26FA JUMP JUMPDEST PUSH1 0x20 DUP3 ADD SWAP1 POP SWAP2 SWAP1 POP JUMP JUMPDEST PUSH0 PUSH1 0x20 DUP3 ADD SWAP1 POP DUP2 DUP2 SUB PUSH0 DUP4 ADD MSTORE PUSH2 0x275B DUP2 PUSH2 0x2722 JUMP JUMPDEST SWAP1 POP SWAP2 SWAP1 POP JUMP JUMPDEST PUSH0 PUSH1 0x40 DUP3 ADD SWAP1 POP PUSH2 0x2775 PUSH0 DUP4 ADD DUP6 PUSH2 0x2332 JUMP JUMPDEST PUSH2 0x2782 PUSH1 0x20 DUP4 ADD DUP5 PUSH2 0x210A JUMP JUMPDEST SWAP4 SWAP3 POP POP POP JUMP JUMPDEST PUSH32 0x4F6E6C79206775696C64206D656D626572732063616E20706572666F726D2074 PUSH0 DUP3 ADD MSTORE PUSH32 0x68697320616374696F6E00000000000000000000000000000000000000000000 PUSH1 0x20 DUP3 ADD MSTORE POP JUMP JUMPDEST PUSH0 PUSH2 0x27E3 PUSH1 0x2A DUP4 PUSH2 0x1F32 JUMP JUMPDEST SWAP2 POP PUSH2 0x27EE DUP3 PUSH2 0x2789 JUMP JUMPDEST PUSH1 0x40 DUP3 ADD SWAP1 POP SWAP2 SWAP1 POP JUMP JUMPDEST PUSH0 PUSH1 0x20 DUP3 ADD SWAP1 POP DUP2 DUP2 SUB PUSH0 DUP4 ADD MSTORE PUSH2 0x2810 DUP2 PUSH2 0x27D7 JUMP JUMPDEST SWAP1 POP SWAP2 SWAP1 POP JUMP JUMPDEST PUSH32 0x4E487B7100000000000000000000000000000000000000000000000000000000 PUSH0 MSTORE PUSH1 0x11 PUSH1 0x4 MSTORE PUSH1 0x24 PUSH0 REVERT JUMPDEST PUSH0 PUSH2 0x284E DUP3 PUSH2 0x207C JUMP JUMPDEST SWAP2 POP PUSH2 0x2859 DUP4 PUSH2 0x207C JUMP JUMPDEST SWAP3 POP DUP3 DUP3 MUL PUSH2 0x2867 DUP2 PUSH2 0x207C JUMP JUMPDEST SWAP2 POP DUP3 DUP3 DIV DUP5 EQ DUP4 ISZERO OR PUSH2 0x287E JUMPI PUSH2 0x287D PUSH2 0x2817 JUMP JUMPDEST JUMPDEST POP SWAP3 SWAP2 POP POP JUMP JUMPDEST PUSH32 0x4E487B7100000000000000000000000000000000000000000000000000000000 PUSH0 MSTORE PUSH1 0x12 PUSH1 0x4 MSTORE PUSH1 0x24 PUSH0 REVERT JUMPDEST PUSH0 PUSH2 0x28BC DUP3 PUSH2 0x207C JUMP JUMPDEST SWAP2 POP PUSH2 0x28C7 DUP4 PUSH2 0x207C JUMP JUMPDEST SWAP3 POP DUP3 PUSH2 0x28D7 JUMPI PUSH2 0x28D6 PUSH2 0x2885 JUMP JUMPDEST JUMPDEST DUP3 DUP3 DIV SWAP1 POP SWAP3 SWAP2 POP POP JUMP JUMPDEST PUSH0 DUP2 SWAP1 POP SWAP3 SWAP2 POP POP JUMP JUMPDEST PUSH0 PUSH2 0x28F6 DUP3 PUSH2 0x1F28 JUMP JUMPDEST PUSH2 0x2900 DUP2 DUP6 PUSH2 0x28E2 JUMP JUMPDEST SWAP4 POP PUSH2 0x2910 DUP2 DUP6 PUSH1 0x20 DUP7 ADD PUSH2 0x1F42 JUMP JUMPDEST DUP1 DUP5 ADD SWAP2 POP POP SWAP3 SWAP2 POP POP JUMP JUMPDEST PUSH0 PUSH2 0x2927 DUP3 DUP6 PUSH2 0x28EC JUMP JUMPDEST SWAP2 POP PUSH2 0x2933 DUP3 DUP5 PUSH2 0x28EC JUMP JUMPDEST SWAP2 POP DUP2 SWAP1 POP SWAP4 SWAP3 POP POP POP JUMP JUMPDEST PUSH0 DUP2 SWAP1 POP SWAP2 SWAP1 POP JUMP JUMPDEST PUSH0 PUSH2 0x2962 PUSH2 0x295D PUSH2 0x2958 DUP5 PUSH2 0x20DA JUMP JUMPDEST PUSH2 0x293F JUMP JUMPDEST PUSH2 0x20DA JUMP JUMPDEST SWAP1 POP SWAP2 SWAP1 POP JUMP JUMPDEST PUSH0 PUSH2 0x2973 DUP3 PUSH2 0x2948 JUMP JUMPDEST SWAP1 POP SWAP2 SWAP1 POP JUMP JUMPDEST PUSH0 PUSH2 0x2984 DUP3 PUSH2 0x2969 JUMP JUMPDEST SWAP1 POP SWAP2 SWAP1 POP JUMP JUMPDEST PUSH2 0x2994 DUP2 PUSH2 0x297A JUMP JUMPDEST DUP3 MSTORE POP POP JUMP JUMPDEST PUSH0 PUSH1 0x40 DUP3 ADD SWAP1 POP PUSH2 0x29AD PUSH0 DUP4 ADD DUP6 PUSH2 0x2332 JUMP JUMPDEST PUSH2 0x29BA PUSH1 0x20 DUP4 ADD DUP5 PUSH2 0x298B JUMP JUMPDEST SWAP4 SWAP3 POP POP POP JUMP JUMPDEST PUSH0 DUP2 MLOAD SWAP1 POP SWAP2 SWAP1 POP JUMP JUMPDEST PUSH0 DUP3 DUP3 MSTORE PUSH1 0x20 DUP3 ADD SWAP1 POP SWAP3 SWAP2 POP POP JUMP JUMPDEST PUSH0 PUSH2 0x29E5 DUP3 PUSH2 0x29C1 JUMP JUMPDEST PUSH2 0x29EF DUP2 DUP6 PUSH2 0x29CB JUMP JUMPDEST SWAP4 POP PUSH2 0x29FF DUP2 DUP6 PUSH1 0x20 DUP7 ADD PUSH2 0x1F42 JUMP JUMPDEST PUSH2 0x2A08 DUP2 PUSH2 0x1F50 JUMP JUMPDEST DUP5 ADD SWAP2 POP POP SWAP3 SWAP2 POP POP JUMP JUMPDEST PUSH0 PUSH1 0x80 DUP3 ADD SWAP1 POP PUSH2 0x2A26 PUSH0 DUP4 ADD DUP8 PUSH2 0x210A JUMP JUMPDEST PUSH2 0x2A33 PUSH1 0x20 DUP4 ADD DUP7 PUSH2 0x210A JUMP JUMPDEST PUSH2 0x2A40 PUSH1 0x40 DUP4 ADD DUP6 PUSH2 0x2332 JUMP JUMPDEST DUP2 DUP2 SUB PUSH1 0x60 DUP4 ADD MSTORE PUSH2 0x2A52 DUP2 DUP5 PUSH2 0x29DB JUMP JUMPDEST SWAP1 POP SWAP6 SWAP5 POP POP POP POP POP JUMP JUMPDEST PUSH0 DUP2 MLOAD SWAP1 POP PUSH2 0x2A6B DUP2 PUSH2 0x1FF4 JUMP JUMPDEST SWAP3 SWAP2 POP POP JUMP JUMPDEST PUSH0 PUSH1 0x20 DUP3 DUP5 SUB SLT ISZERO PUSH2 0x2A86 JUMPI PUSH2 0x2A85 PUSH2 0x1FC1 JUMP JUMPDEST JUMPDEST PUSH0 PUSH2 0x2A93 DUP5 DUP3 DUP6 ADD PUSH2 0x2A5D JUMP JUMPDEST SWAP2 POP POP SWAP3 SWAP2 POP POP JUMP JUMPDEST PUSH0 PUSH1 0x40 DUP3 ADD SWAP1 POP PUSH2 0x2AAF PUSH0 DUP4 ADD DUP6 PUSH2 0x210A JUMP JUMPDEST PUSH2 0x2ABC PUSH1 0x20 DUP4 ADD DUP5 PUSH2 0x2332 JUMP JUMPDEST SWAP4 SWAP3 POP POP POP JUMP INVALID LOG2 PUSH5 0x6970667358 0x22 SLT KECCAK256 BALANCE SHL 0xD8 DUP5 SSTORE PUSH30 0x50102ED7C7E9C8668CD36B909E2DEDA34E214A3A64BF38709A3064736F6C PUSH4 0x43000819 STOP CALLER "
				},
				"gasEstimates": {
					"creation": {
						"codeDepositCost": "2200200",
						"executionCost": "infinite",
						"totalCost": "infinite"
					},
					"external": {
						"acquireNFT(string,uint256,uint256)": "infinite",
						"approve(address,uint256)": "infinite",
						"balanceOf(address)": "infinite",
						"borrowNFT(uint256)": "infinite",
						"borrowedNFTs(address,uint256)": "infinite",
						"distributeNFT()": "infinite",
						"distributeProfits(uint256)": "infinite",
						"getApproved(uint256)": "infinite",
						"isApprovedForAll(address,address)": "infinite",
						"marketplace()": "2553",
						"membershipFee()": "2514",
						"name()": "infinite",
						"nftBalance()": "2514",
						"nftDistribution()": "2492",
						"nftDistributionAddress()": "2596",
						"nftDistributionAmount()": "2493",
						"nftDistributionPercentage()": "2536",
						"nftName()": "infinite",
						"nftOwner()": "2553",
						"nftPrice()": "2515",
						"nftTokenId()": "2537",
						"ownerOf(uint256)": "infinite",
						"safeTransferFrom(address,address,uint256)": "infinite",
						"safeTransferFrom(address,address,uint256,bytes)": "infinite",
						"setApprovalForAll(address,bool)": "infinite",
						"supportsInterface(bytes4)": "832",
						"symbol()": "infinite",
						"tokenURI(uint256)": "infinite",
						"totalNFTSupply()": "2469",
						"totalSupply()": "2591",
						"transferFrom(address,address,uint256)": "infinite",
						"treasuryBalance()": "2493"
					},
					"internal": {
						"_setTokenURI(uint256,string memory)": "infinite",
						"internalSetTokenURI(uint256,string memory)": "infinite"
					}
				},
				"methodIdentifiers": {
					"acquireNFT(string,uint256,uint256)": "0c29f635",
					"approve(address,uint256)": "095ea7b3",
					"balanceOf(address)": "70a08231",
					"borrowNFT(uint256)": "529062fa",
					"borrowedNFTs(address,uint256)": "31c258e8",
					"distributeNFT()": "f796c2d9",
					"distributeProfits(uint256)": "9a969768",
					"getApproved(uint256)": "081812fc",
					"isApprovedForAll(address,address)": "e985e9c5",
					"marketplace()": "abc8c7af",
					"membershipFee()": "c713a289",
					"name()": "06fdde03",
					"nftBalance()": "5301fa6f",
					"nftDistribution()": "97f7d0d5",
					"nftDistributionAddress()": "ede8592b",
					"nftDistributionAmount()": "68f5cd3b",
					"nftDistributionPercentage()": "5743ceda",
					"nftName()": "008bfb00",
					"nftOwner()": "4c39a749",
					"nftPrice()": "0d39fc81",
					"nftTokenId()": "7e830574",
					"ownerOf(uint256)": "6352211e",
					"safeTransferFrom(address,address,uint256)": "42842e0e",
					"safeTransferFrom(address,address,uint256,bytes)": "b88d4fde",
					"setApprovalForAll(address,bool)": "a22cb465",
					"supportsInterface(bytes4)": "01ffc9a7",
					"symbol()": "95d89b41",
					"tokenURI(uint256)": "c87b56dd",
					"totalNFTSupply()": "e2c79281",
					"totalSupply()": "18160ddd",
					"transferFrom(address,address,uint256)": "23b872dd",
					"treasuryBalance()": "313dab20"
				}
			},
			"storageLayout": {
				"storage": [
					{
						"astId": 788,
						"contract": "NFT Tokens/Tk5.sol:DAGG",
						"label": "_name",
						"offset": 0,
						"slot": "0",
						"type": "t_string_storage"
					},
					{
						"astId": 790,
						"contract": "NFT Tokens/Tk5.sol:DAGG",
						"label": "_symbol",
						"offset": 0,
						"slot": "1",
						"type": "t_string_storage"
					},
					{
						"astId": 794,
						"contract": "NFT Tokens/Tk5.sol:DAGG",
						"label": "_owners",
						"offset": 0,
						"slot": "2",
						"type": "t_mapping(t_uint256,t_address)"
					},
					{
						"astId": 798,
						"contract": "NFT Tokens/Tk5.sol:DAGG",
						"label": "_balances",
						"offset": 0,
						"slot": "3",
						"type": "t_mapping(t_address,t_uint256)"
					},
					{
						"astId": 802,
						"contract": "NFT Tokens/Tk5.sol:DAGG",
						"label": "_tokenApprovals",
						"offset": 0,
						"slot": "4",
						"type": "t_mapping(t_uint256,t_address)"
					},
					{
						"astId": 808,
						"contract": "NFT Tokens/Tk5.sol:DAGG",
						"label": "_operatorApprovals",
						"offset": 0,
						"slot": "5",
						"type": "t_mapping(t_address,t_mapping(t_address,t_bool))"
					},
					{
						"astId": 3497,
						"contract": "NFT Tokens/Tk5.sol:DAGG",
						"label": "_tokenCounter",
						"offset": 0,
						"slot": "6",
						"type": "t_struct(Counter)1963_storage"
					},
					{
						"astId": 3499,
						"contract": "NFT Tokens/Tk5.sol:DAGG",
						"label": "treasuryBalance",
						"offset": 0,
						"slot": "7",
						"type": "t_uint256"
					},
					{
						"astId": 3504,
						"contract": "NFT Tokens/Tk5.sol:DAGG",
						"label": "borrowedNFTs",
						"offset": 0,
						"slot": "8",
						"type": "t_mapping(t_address,t_array(t_uint256)dyn_storage)"
					},
					{
						"astId": 3518,
						"contract": "NFT Tokens/Tk5.sol:DAGG",
						"label": "membershipFee",
						"offset": 0,
						"slot": "9",
						"type": "t_uint256"
					},
					{
						"astId": 3520,
						"contract": "NFT Tokens/Tk5.sol:DAGG",
						"label": "marketplace",
						"offset": 0,
						"slot": "10",
						"type": "t_address_payable"
					},
					{
						"astId": 3522,
						"contract": "NFT Tokens/Tk5.sol:DAGG",
						"label": "nftPrice",
						"offset": 0,
						"slot": "11",
						"type": "t_uint256"
					},
					{
						"astId": 3524,
						"contract": "NFT Tokens/Tk5.sol:DAGG",
						"label": "nftName",
						"offset": 0,
						"slot": "12",
						"type": "t_string_storage"
					},
					{
						"astId": 3526,
						"contract": "NFT Tokens/Tk5.sol:DAGG",
						"label": "nftTokenId",
						"offset": 0,
						"slot": "13",
						"type": "t_uint256"
					},
					{
						"astId": 3528,
						"contract": "NFT Tokens/Tk5.sol:DAGG",
						"label": "nftOwner",
						"offset": 0,
						"slot": "14",
						"type": "t_address"
					},
					{
						"astId": 3530,
						"contract": "NFT Tokens/Tk5.sol:DAGG",
						"label": "nftBalance",
						"offset": 0,
						"slot": "15",
						"type": "t_uint256"
					},
					{
						"astId": 3532,
						"contract": "NFT Tokens/Tk5.sol:DAGG",
						"label": "totalNFTSupply",
						"offset": 0,
						"slot": "16",
						"type": "t_uint256"
					},
					{
						"astId": 3534,
						"contract": "NFT Tokens/Tk5.sol:DAGG",
						"label": "nftDistribution",
						"offset": 0,
						"slot": "17",
						"type": "t_uint256"
					},
					{
						"astId": 3536,
						"contract": "NFT Tokens/Tk5.sol:DAGG",
						"label": "nftDistributionPercentage",
						"offset": 0,
						"slot": "18",
						"type": "t_uint256"
					},
					{
						"astId": 3538,
						"contract": "NFT Tokens/Tk5.sol:DAGG",
						"label": "nftDistributionAmount",
						"offset": 0,
						"slot": "19",
						"type": "t_uint256"
					},
					{
						"astId": 3540,
						"contract": "NFT Tokens/Tk5.sol:DAGG",
						"label": "nftDistributionAddress",
						"offset": 0,
						"slot": "20",
						"type": "t_address_payable"
					}
				],
				"types": {
					"t_address": {
						"encoding": "inplace",
						"label": "address",
						"numberOfBytes": "20"
					},
					"t_address_payable": {
						"encoding": "inplace",
						"label": "address payable",
						"numberOfBytes": "20"
					},
					"t_array(t_uint256)dyn_storage": {
						"base": "t_uint256",
						"encoding": "dynamic_array",
						"label": "uint256[]",
						"numberOfBytes": "32"
					},
					"t_bool": {
						"encoding": "inplace",
						"label": "bool",
						"numberOfBytes": "1"
					},
					"t_mapping(t_address,t_array(t_uint256)dyn_storage)": {
						"encoding": "mapping",
						"key": "t_address",
						"label": "mapping(address => uint256[])",
						"numberOfBytes": "32",
						"value": "t_array(t_uint256)dyn_storage"
					},
					"t_mapping(t_address,t_bool)": {
						"encoding": "mapping",
						"key": "t_address",
						"label": "mapping(address => bool)",
						"numberOfBytes": "32",
						"value": "t_bool"
					},
					"t_mapping(t_address,t_mapping(t_address,t_bool))": {
						"encoding": "mapping",
						"key": "t_address",
						"label": "mapping(address => mapping(address => bool))",
						"numberOfBytes": "32",
						"value": "t_mapping(t_address,t_bool)"
					},
					"t_mapping(t_address,t_uint256)": {
						"encoding": "mapping",
						"key": "t_address",
						"label": "mapping(address => uint256)",
						"numberOfBytes": "32",
						"value": "t_uint256"
					},
					"t_mapping(t_uint256,t_address)": {
						"encoding": "mapping",
						"key": "t_uint256",
						"label": "mapping(uint256 => address)",
						"numberOfBytes": "32",
						"value": "t_address"
					},
					"t_string_storage": {
						"encoding": "bytes",
						"label": "string",
						"numberOfBytes": "32"
					},
					"t_struct(Counter)1963_storage": {
						"encoding": "inplace",
						"label": "struct Counters.Counter",
						"members": [
							{
								"astId": 1962,
								"contract": "NFT Tokens/Tk5.sol:DAGG",
								"label": "_value",
								"offset": 0,
								"slot": "0",
								"type": "t_uint256"
							}
						],
						"numberOfBytes": "32"
					},
					"t_uint256": {
						"encoding": "inplace",
						"label": "uint256",
						"numberOfBytes": "32"
					}
				}
			},
			"userdoc": {
				"kind": "user",
				"methods": {},
				"version": 1
			}
		}
	}
}