{
	"NFT Tokens/TK2.sol": {
		"FractionalRealEstate": {
			"abi": [
				{
					"anonymous": false,
					"inputs": [
						{
							"indexed": false,
							"internalType": "uint256",
							"name": "propertyId",
							"type": "uint256"
						},
						{
							"indexed": false,
							"internalType": "address",
							"name": "buyer",
							"type": "address"
						},
						{
							"indexed": false,
							"internalType": "uint256",
							"name": "tokensPurchased",
							"type": "uint256"
						}
					],
					"name": "NFTSold",
					"type": "event"
				},
				{
					"anonymous": false,
					"inputs": [
						{
							"indexed": false,
							"internalType": "uint256",
							"name": "propertyId",
							"type": "uint256"
						},
						{
							"indexed": false,
							"internalType": "string",
							"name": "propertyAddress",
							"type": "string"
						},
						{
							"indexed": false,
							"internalType": "uint256",
							"name": "totalArea",
							"type": "uint256"
						},
						{
							"indexed": false,
							"internalType": "uint256",
							"name": "tokenPrice",
							"type": "uint256"
						}
					],
					"name": "PropertyTokenized",
					"type": "event"
				},
				{
					"anonymous": false,
					"inputs": [
						{
							"indexed": false,
							"internalType": "uint256",
							"name": "propertyId",
							"type": "uint256"
						},
						{
							"indexed": false,
							"internalType": "uint256",
							"name": "totalRent",
							"type": "uint256"
						}
					],
					"name": "RentDistributed",
					"type": "event"
				},
				{
					"inputs": [
						{
							"internalType": "uint256",
							"name": "propertyId",
							"type": "uint256"
						}
					],
					"name": "buyNFT",
					"outputs": [],
					"stateMutability": "payable",
					"type": "function"
				},
				{
					"inputs": [
						{
							"internalType": "uint256",
							"name": "propertyId",
							"type": "uint256"
						},
						{
							"internalType": "uint256",
							"name": "totalRent",
							"type": "uint256"
						}
					],
					"name": "distributeRent",
					"outputs": [],
					"stateMutability": "nonpayable",
					"type": "function"
				},
				{
					"inputs": [],
					"name": "numProperties",
					"outputs": [
						{
							"internalType": "uint256",
							"name": "",
							"type": "uint256"
						}
					],
					"stateMutability": "view",
					"type": "function"
				},
				{
					"inputs": [
						{
							"internalType": "uint256",
							"name": "",
							"type": "uint256"
						},
						{
							"internalType": "address",
							"name": "",
							"type": "address"
						}
					],
					"name": "ownershipData",
					"outputs": [
						{
							"internalType": "address",
							"name": "owner",
							"type": "address"
						},
						{
							"internalType": "uint256",
							"name": "tokenOwned",
							"type": "uint256"
						}
					],
					"stateMutability": "view",
					"type": "function"
				},
				{
					"inputs": [
						{
							"internalType": "uint256",
							"name": "",
							"type": "uint256"
						}
					],
					"name": "properties",
					"outputs": [
						{
							"internalType": "string",
							"name": "propertyAddress",
							"type": "string"
						},
						{
							"internalType": "uint256",
							"name": "totalArea",
							"type": "uint256"
						},
						{
							"internalType": "uint256",
							"name": "tokenPrice",
							"type": "uint256"
						}
					],
					"stateMutability": "view",
					"type": "function"
				},
				{
					"inputs": [
						{
							"internalType": "string",
							"name": "_propertyAddress",
							"type": "string"
						},
						{
							"internalType": "uint256",
							"name": "_totalArea",
							"type": "uint256"
						},
						{
							"internalType": "uint256",
							"name": "_tokenPrice",
							"type": "uint256"
						}
					],
					"name": "tokenizeProperty",
					"outputs": [],
					"stateMutability": "nonpayable",
					"type": "function"
				}
			],
			"devdoc": {
				"kind": "dev",
				"methods": {},
				"version": 1
			},
			"evm": {
				"assembly": "    /* \"NFT Tokens/TK2.sol\":57:2305  contract FractionalRealEstate {... */\n  mstore(0x40, 0x80)\n  callvalue\n  dup1\n  iszero\n  tag_1\n  jumpi\n  0x00\n  dup1\n  revert\ntag_1:\n  pop\n  dataSize(sub_0)\n  dup1\n  dataOffset(sub_0)\n  0x00\n  codecopy\n  0x00\n  return\nstop\n\nsub_0: assembly {\n        /* \"NFT Tokens/TK2.sol\":57:2305  contract FractionalRealEstate {... */\n      mstore(0x40, 0x80)\n      jumpi(tag_1, lt(calldatasize, 0x04))\n      shr(0xe0, calldataload(0x00))\n      dup1\n      0x13349986\n      eq\n      tag_2\n      jumpi\n      dup1\n      0x51ed8288\n      eq\n      tag_3\n      jumpi\n      dup1\n      0x55a24d3b\n      eq\n      tag_4\n      jumpi\n      dup1\n      0x9a5c57cd\n      eq\n      tag_5\n      jumpi\n      dup1\n      0xb256a1c4\n      eq\n      tag_6\n      jumpi\n      dup1\n      0xf7b10808\n      eq\n      tag_7\n      jumpi\n    tag_1:\n      0x00\n      dup1\n      revert\n        /* \"NFT Tokens/TK2.sol\":330:397  mapping(uint => mapping(address => Ownership)) public ownershipData */\n    tag_2:\n      callvalue\n      dup1\n      iszero\n      tag_8\n      jumpi\n      0x00\n      dup1\n      revert\n    tag_8:\n      pop\n      tag_9\n      0x04\n      dup1\n      calldatasize\n      sub\n      dup2\n      add\n      swap1\n      tag_10\n      swap2\n      swap1\n      tag_11\n      jump\t// in\n    tag_10:\n      tag_12\n      jump\t// in\n    tag_9:\n      mload(0x40)\n      tag_13\n      swap3\n      swap2\n      swap1\n      tag_14\n      jump\t// in\n    tag_13:\n      mload(0x40)\n      dup1\n      swap2\n      sub\n      swap1\n      return\n        /* \"NFT Tokens/TK2.sol\":989:1465  function buyNFT(uint propertyId) public payable {... */\n    tag_3:\n      tag_15\n      0x04\n      dup1\n      calldatasize\n      sub\n      dup2\n      add\n      swap1\n      tag_16\n      swap2\n      swap1\n      tag_17\n      jump\t// in\n    tag_16:\n      tag_18\n      jump\t// in\n    tag_15:\n      stop\n        /* \"NFT Tokens/TK2.sol\":672:983  function tokenizeProperty(string memory _propertyAddress, uint _totalArea, uint _tokenPrice) public {... */\n    tag_4:\n      callvalue\n      dup1\n      iszero\n      tag_19\n      jumpi\n      0x00\n      dup1\n      revert\n    tag_19:\n      pop\n      tag_20\n      0x04\n      dup1\n      calldatasize\n      sub\n      dup2\n      add\n      swap1\n      tag_21\n      swap2\n      swap1\n      tag_22\n      jump\t// in\n    tag_21:\n      tag_23\n      jump\t// in\n    tag_20:\n      stop\n        /* \"NFT Tokens/TK2.sol\":1471:2303  function distributeRent(uint propertyId, uint totalRent) public {... */\n    tag_5:\n      callvalue\n      dup1\n      iszero\n      tag_24\n      jumpi\n      0x00\n      dup1\n      revert\n    tag_24:\n      pop\n      tag_25\n      0x04\n      dup1\n      calldatasize\n      sub\n      dup2\n      add\n      swap1\n      tag_26\n      swap2\n      swap1\n      tag_27\n      jump\t// in\n    tag_26:\n      tag_28\n      jump\t// in\n    tag_25:\n      stop\n        /* \"NFT Tokens/TK2.sol\":403:428  uint public numProperties */\n    tag_6:\n      callvalue\n      dup1\n      iszero\n      tag_29\n      jumpi\n      0x00\n      dup1\n      revert\n    tag_29:\n      pop\n      tag_30\n      tag_31\n      jump\t// in\n    tag_30:\n      mload(0x40)\n      tag_32\n      swap2\n      swap1\n      tag_33\n      jump\t// in\n    tag_32:\n      mload(0x40)\n      dup1\n      swap2\n      sub\n      swap1\n      return\n        /* \"NFT Tokens/TK2.sol\":281:324  mapping(uint => Property) public properties */\n    tag_7:\n      callvalue\n      dup1\n      iszero\n      tag_34\n      jumpi\n      0x00\n      dup1\n      revert\n    tag_34:\n      pop\n      tag_35\n      0x04\n      dup1\n      calldatasize\n      sub\n      dup2\n      add\n      swap1\n      tag_36\n      swap2\n      swap1\n      tag_17\n      jump\t// in\n    tag_36:\n      tag_37\n      jump\t// in\n    tag_35:\n      mload(0x40)\n      tag_38\n      swap4\n      swap3\n      swap2\n      swap1\n      tag_39\n      jump\t// in\n    tag_38:\n      mload(0x40)\n      dup1\n      swap2\n      sub\n      swap1\n      return\n        /* \"NFT Tokens/TK2.sol\":330:397  mapping(uint => mapping(address => Ownership)) public ownershipData */\n    tag_12:\n      mstore(0x20, 0x01)\n      dup2\n      0x00\n      mstore\n      mstore(0x20, keccak256(0x00, 0x40))\n      dup1\n      0x00\n      mstore\n      keccak256(0x00, 0x40)\n      0x00\n      swap2\n      pop\n      swap2\n      pop\n      pop\n      dup1\n      0x00\n      add\n      0x00\n      swap1\n      sload\n      swap1\n      0x0100\n      exp\n      swap1\n      div\n      0xffffffffffffffffffffffffffffffffffffffff\n      and\n      swap1\n      dup1\n      0x01\n      add\n      sload\n      swap1\n      pop\n      dup3\n      jump\t// out\n        /* \"NFT Tokens/TK2.sol\":989:1465  function buyNFT(uint propertyId) public payable {... */\n    tag_18:\n        /* \"NFT Tokens/TK2.sol\":1047:1072  Property storage property */\n      0x00\n        /* \"NFT Tokens/TK2.sol\":1075:1085  properties */\n      dup1\n        /* \"NFT Tokens/TK2.sol\":1075:1097  properties[propertyId] */\n      0x00\n        /* \"NFT Tokens/TK2.sol\":1086:1096  propertyId */\n      dup4\n        /* \"NFT Tokens/TK2.sol\":1075:1097  properties[propertyId] */\n      dup2\n      mstore\n      0x20\n      add\n      swap1\n      dup2\n      mstore\n      0x20\n      add\n      0x00\n      keccak256\n        /* \"NFT Tokens/TK2.sol\":1047:1097  Property storage property = properties[propertyId] */\n      swap1\n      pop\n        /* \"NFT Tokens/TK2.sol\":1128:1136  property */\n      dup1\n        /* \"NFT Tokens/TK2.sol\":1128:1147  property.tokenPrice */\n      0x02\n      add\n      sload\n        /* \"NFT Tokens/TK2.sol\":1115:1124  msg.value */\n      callvalue\n        /* \"NFT Tokens/TK2.sol\":1115:1147  msg.value >= property.tokenPrice */\n      lt\n      iszero\n        /* \"NFT Tokens/TK2.sol\":1107:1187  require(msg.value >= property.tokenPrice, \"Insufficient funds for NFT purchase\") */\n      tag_41\n      jumpi\n      mload(0x40)\n      0x08c379a000000000000000000000000000000000000000000000000000000000\n      dup2\n      mstore\n      0x04\n      add\n      tag_42\n      swap1\n      tag_43\n      jump\t// in\n    tag_42:\n      mload(0x40)\n      dup1\n      swap2\n      sub\n      swap1\n      revert\n    tag_41:\n        /* \"NFT Tokens/TK2.sol\":1198:1218  uint tokensPurchased */\n      0x00\n        /* \"NFT Tokens/TK2.sol\":1233:1241  property */\n      dup2\n        /* \"NFT Tokens/TK2.sol\":1233:1252  property.tokenPrice */\n      0x02\n      add\n      sload\n        /* \"NFT Tokens/TK2.sol\":1221:1230  msg.value */\n      callvalue\n        /* \"NFT Tokens/TK2.sol\":1221:1252  msg.value / property.tokenPrice */\n      tag_44\n      swap2\n      swap1\n      tag_45\n      jump\t// in\n    tag_44:\n        /* \"NFT Tokens/TK2.sol\":1198:1252  uint tokensPurchased = msg.value / property.tokenPrice */\n      swap1\n      pop\n        /* \"NFT Tokens/TK2.sol\":1308:1318  msg.sender */\n      caller\n        /* \"NFT Tokens/TK2.sol\":1262:1275  ownershipData */\n      0x01\n        /* \"NFT Tokens/TK2.sol\":1262:1287  ownershipData[propertyId] */\n      0x00\n        /* \"NFT Tokens/TK2.sol\":1276:1286  propertyId */\n      dup6\n        /* \"NFT Tokens/TK2.sol\":1262:1287  ownershipData[propertyId] */\n      dup2\n      mstore\n      0x20\n      add\n      swap1\n      dup2\n      mstore\n      0x20\n      add\n      0x00\n      keccak256\n        /* \"NFT Tokens/TK2.sol\":1262:1299  ownershipData[propertyId][msg.sender] */\n      0x00\n        /* \"NFT Tokens/TK2.sol\":1288:1298  msg.sender */\n      caller\n        /* \"NFT Tokens/TK2.sol\":1262:1299  ownershipData[propertyId][msg.sender] */\n      0xffffffffffffffffffffffffffffffffffffffff\n      and\n      0xffffffffffffffffffffffffffffffffffffffff\n      and\n      dup2\n      mstore\n      0x20\n      add\n      swap1\n      dup2\n      mstore\n      0x20\n      add\n      0x00\n      keccak256\n        /* \"NFT Tokens/TK2.sol\":1262:1305  ownershipData[propertyId][msg.sender].owner */\n      0x00\n      add\n      0x00\n        /* \"NFT Tokens/TK2.sol\":1262:1318  ownershipData[propertyId][msg.sender].owner = msg.sender */\n      0x0100\n      exp\n      dup2\n      sload\n      dup2\n      0xffffffffffffffffffffffffffffffffffffffff\n      mul\n      not\n      and\n      swap1\n      dup4\n      0xffffffffffffffffffffffffffffffffffffffff\n      and\n      mul\n      or\n      swap1\n      sstore\n      pop\n        /* \"NFT Tokens/TK2.sol\":1380:1395  tokensPurchased */\n      dup1\n        /* \"NFT Tokens/TK2.sol\":1328:1341  ownershipData */\n      0x01\n        /* \"NFT Tokens/TK2.sol\":1328:1353  ownershipData[propertyId] */\n      0x00\n        /* \"NFT Tokens/TK2.sol\":1342:1352  propertyId */\n      dup6\n        /* \"NFT Tokens/TK2.sol\":1328:1353  ownershipData[propertyId] */\n      dup2\n      mstore\n      0x20\n      add\n      swap1\n      dup2\n      mstore\n      0x20\n      add\n      0x00\n      keccak256\n        /* \"NFT Tokens/TK2.sol\":1328:1365  ownershipData[propertyId][msg.sender] */\n      0x00\n        /* \"NFT Tokens/TK2.sol\":1354:1364  msg.sender */\n      caller\n        /* \"NFT Tokens/TK2.sol\":1328:1365  ownershipData[propertyId][msg.sender] */\n      0xffffffffffffffffffffffffffffffffffffffff\n      and\n      0xffffffffffffffffffffffffffffffffffffffff\n      and\n      dup2\n      mstore\n      0x20\n      add\n      swap1\n      dup2\n      mstore\n      0x20\n      add\n      0x00\n      keccak256\n        /* \"NFT Tokens/TK2.sol\":1328:1376  ownershipData[propertyId][msg.sender].tokenOwned */\n      0x01\n      add\n      0x00\n        /* \"NFT Tokens/TK2.sol\":1328:1395  ownershipData[propertyId][msg.sender].tokenOwned += tokensPurchased */\n      dup3\n      dup3\n      sload\n      tag_46\n      swap2\n      swap1\n      tag_47\n      jump\t// in\n    tag_46:\n      swap3\n      pop\n      pop\n      dup2\n      swap1\n      sstore\n      pop\n        /* \"NFT Tokens/TK2.sol\":1410:1458  NFTSold(propertyId, msg.sender, tokensPurchased) */\n      0x6329e40c0365262ebbff5ca819385c2b9713dcaa050ed07866d72c441395699a\n        /* \"NFT Tokens/TK2.sol\":1418:1428  propertyId */\n      dup4\n        /* \"NFT Tokens/TK2.sol\":1430:1440  msg.sender */\n      caller\n        /* \"NFT Tokens/TK2.sol\":1442:1457  tokensPurchased */\n      dup4\n        /* \"NFT Tokens/TK2.sol\":1410:1458  NFTSold(propertyId, msg.sender, tokensPurchased) */\n      mload(0x40)\n      tag_48\n      swap4\n      swap3\n      swap2\n      swap1\n      tag_49\n      jump\t// in\n    tag_48:\n      mload(0x40)\n      dup1\n      swap2\n      sub\n      swap1\n      log1\n        /* \"NFT Tokens/TK2.sol\":1037:1465  {... */\n      pop\n      pop\n        /* \"NFT Tokens/TK2.sol\":989:1465  function buyNFT(uint propertyId) public payable {... */\n      pop\n      jump\t// out\n        /* \"NFT Tokens/TK2.sol\":672:983  function tokenizeProperty(string memory _propertyAddress, uint _totalArea, uint _tokenPrice) public {... */\n    tag_23:\n        /* \"NFT Tokens/TK2.sol\":782:795  numProperties */\n      0x02\n      0x00\n        /* \"NFT Tokens/TK2.sol\":782:797  numProperties++ */\n      dup2\n      sload\n      dup1\n      swap3\n      swap2\n      swap1\n      tag_51\n      swap1\n      tag_52\n      jump\t// in\n    tag_51:\n      swap2\n      swap1\n      pop\n      sstore\n      pop\n        /* \"NFT Tokens/TK2.sol\":835:886  Property(_propertyAddress, _totalArea, _tokenPrice) */\n      mload(0x40)\n      dup1\n      0x60\n      add\n      0x40\n      mstore\n      dup1\n        /* \"NFT Tokens/TK2.sol\":844:860  _propertyAddress */\n      dup5\n        /* \"NFT Tokens/TK2.sol\":835:886  Property(_propertyAddress, _totalArea, _tokenPrice) */\n      dup2\n      mstore\n      0x20\n      add\n        /* \"NFT Tokens/TK2.sol\":862:872  _totalArea */\n      dup4\n        /* \"NFT Tokens/TK2.sol\":835:886  Property(_propertyAddress, _totalArea, _tokenPrice) */\n      dup2\n      mstore\n      0x20\n      add\n        /* \"NFT Tokens/TK2.sol\":874:885  _tokenPrice */\n      dup3\n        /* \"NFT Tokens/TK2.sol\":835:886  Property(_propertyAddress, _totalArea, _tokenPrice) */\n      dup2\n      mstore\n      pop\n        /* \"NFT Tokens/TK2.sol\":807:817  properties */\n      0x00\n        /* \"NFT Tokens/TK2.sol\":807:832  properties[numProperties] */\n      dup1\n        /* \"NFT Tokens/TK2.sol\":818:831  numProperties */\n      sload(0x02)\n        /* \"NFT Tokens/TK2.sol\":807:832  properties[numProperties] */\n      dup2\n      mstore\n      0x20\n      add\n      swap1\n      dup2\n      mstore\n      0x20\n      add\n      0x00\n      keccak256\n        /* \"NFT Tokens/TK2.sol\":807:886  properties[numProperties] = Property(_propertyAddress, _totalArea, _tokenPrice) */\n      0x00\n      dup3\n      add\n      mload\n      dup2\n      0x00\n      add\n      swap1\n      dup2\n      tag_53\n      swap2\n      swap1\n      tag_54\n      jump\t// in\n    tag_53:\n      pop\n      0x20\n      dup3\n      add\n      mload\n      dup2\n      0x01\n      add\n      sstore\n      0x40\n      dup3\n      add\n      mload\n      dup2\n      0x02\n      add\n      sstore\n      swap1\n      pop\n      pop\n        /* \"NFT Tokens/TK2.sol\":901:976  PropertyTokenized(numProperties, _propertyAddress, _totalArea, _tokenPrice) */\n      0x0619177337325f2035f1286340ae066d525900d5906cc94f895375afffa19da1\n        /* \"NFT Tokens/TK2.sol\":919:932  numProperties */\n      sload(0x02)\n        /* \"NFT Tokens/TK2.sol\":934:950  _propertyAddress */\n      dup5\n        /* \"NFT Tokens/TK2.sol\":952:962  _totalArea */\n      dup5\n        /* \"NFT Tokens/TK2.sol\":964:975  _tokenPrice */\n      dup5\n        /* \"NFT Tokens/TK2.sol\":901:976  PropertyTokenized(numProperties, _propertyAddress, _totalArea, _tokenPrice) */\n      mload(0x40)\n      tag_55\n      swap5\n      swap4\n      swap3\n      swap2\n      swap1\n      tag_56\n      jump\t// in\n    tag_55:\n      mload(0x40)\n      dup1\n      swap2\n      sub\n      swap1\n      log1\n        /* \"NFT Tokens/TK2.sol\":672:983  function tokenizeProperty(string memory _propertyAddress, uint _totalArea, uint _tokenPrice) public {... */\n      pop\n      pop\n      pop\n      jump\t// out\n        /* \"NFT Tokens/TK2.sol\":1471:2303  function distributeRent(uint propertyId, uint totalRent) public {... */\n    tag_28:\n        /* \"NFT Tokens/TK2.sol\":1545:1570  Property storage property */\n      0x00\n        /* \"NFT Tokens/TK2.sol\":1573:1583  properties */\n      dup1\n        /* \"NFT Tokens/TK2.sol\":1573:1595  properties[propertyId] */\n      0x00\n        /* \"NFT Tokens/TK2.sol\":1584:1594  propertyId */\n      dup5\n        /* \"NFT Tokens/TK2.sol\":1573:1595  properties[propertyId] */\n      dup2\n      mstore\n      0x20\n      add\n      swap1\n      dup2\n      mstore\n      0x20\n      add\n      0x00\n      keccak256\n        /* \"NFT Tokens/TK2.sol\":1545:1595  Property storage property = properties[propertyId] */\n      swap1\n      pop\n        /* \"NFT Tokens/TK2.sol\":1605:1626  uint totalOwnedTokens */\n      0x00\n        /* \"NFT Tokens/TK2.sol\":1640:1663  address[] memory owners */\n      dup1\n        /* \"NFT Tokens/TK2.sol\":1680:1693  numProperties */\n      sload(0x02)\n        /* \"NFT Tokens/TK2.sol\":1666:1694  new address[](numProperties) */\n      0xffffffffffffffff\n      dup2\n      gt\n      iszero\n      tag_58\n      jumpi\n      tag_59\n      tag_60\n      jump\t// in\n    tag_59:\n    tag_58:\n      mload(0x40)\n      swap1\n      dup1\n      dup3\n      mstore\n      dup1\n      0x20\n      mul\n      0x20\n      add\n      dup3\n      add\n      0x40\n      mstore\n      dup1\n      iszero\n      tag_61\n      jumpi\n      dup2\n      0x20\n      add\n      0x20\n      dup3\n      mul\n      dup1\n      calldatasize\n      dup4\n      calldatacopy\n      dup1\n      dup3\n      add\n      swap2\n      pop\n      pop\n      swap1\n      pop\n    tag_61:\n      pop\n        /* \"NFT Tokens/TK2.sol\":1640:1694  address[] memory owners = new address[](numProperties) */\n      swap1\n      pop\n        /* \"NFT Tokens/TK2.sol\":1718:1724  uint i */\n      0x00\n        /* \"NFT Tokens/TK2.sol\":1727:1728  1 */\n      0x01\n        /* \"NFT Tokens/TK2.sol\":1718:1728  uint i = 1 */\n      swap1\n      pop\n        /* \"NFT Tokens/TK2.sol\":1713:1972  for (uint i = 1; i <= numProperties; i++) {... */\n    tag_62:\n        /* \"NFT Tokens/TK2.sol\":1735:1748  numProperties */\n      sload(0x02)\n        /* \"NFT Tokens/TK2.sol\":1730:1731  i */\n      dup2\n        /* \"NFT Tokens/TK2.sol\":1730:1748  i <= numProperties */\n      gt\n        /* \"NFT Tokens/TK2.sol\":1713:1972  for (uint i = 1; i <= numProperties; i++) {... */\n      tag_63\n      jumpi\n        /* \"NFT Tokens/TK2.sol\":1769:1789  address ownerAddress */\n      0x00\n        /* \"NFT Tokens/TK2.sol\":1792:1805  ownershipData */\n      0x01\n        /* \"NFT Tokens/TK2.sol\":1792:1817  ownershipData[propertyId] */\n      0x00\n        /* \"NFT Tokens/TK2.sol\":1806:1816  propertyId */\n      dup9\n        /* \"NFT Tokens/TK2.sol\":1792:1817  ownershipData[propertyId] */\n      dup2\n      mstore\n      0x20\n      add\n      swap1\n      dup2\n      mstore\n      0x20\n      add\n      0x00\n      keccak256\n        /* \"NFT Tokens/TK2.sol\":1792:1829  ownershipData[propertyId][msg.sender] */\n      0x00\n        /* \"NFT Tokens/TK2.sol\":1818:1828  msg.sender */\n      caller\n        /* \"NFT Tokens/TK2.sol\":1792:1829  ownershipData[propertyId][msg.sender] */\n      0xffffffffffffffffffffffffffffffffffffffff\n      and\n      0xffffffffffffffffffffffffffffffffffffffff\n      and\n      dup2\n      mstore\n      0x20\n      add\n      swap1\n      dup2\n      mstore\n      0x20\n      add\n      0x00\n      keccak256\n        /* \"NFT Tokens/TK2.sol\":1792:1835  ownershipData[propertyId][msg.sender].owner */\n      0x00\n      add\n      0x00\n      swap1\n      sload\n      swap1\n      0x0100\n      exp\n      swap1\n      div\n      0xffffffffffffffffffffffffffffffffffffffff\n      and\n        /* \"NFT Tokens/TK2.sol\":1769:1835  address ownerAddress = ownershipData[propertyId][msg.sender].owner */\n      swap1\n      pop\n        /* \"NFT Tokens/TK2.sol\":1865:1877  ownerAddress */\n      dup1\n        /* \"NFT Tokens/TK2.sol\":1849:1855  owners */\n      dup4\n        /* \"NFT Tokens/TK2.sol\":1860:1861  1 */\n      0x01\n        /* \"NFT Tokens/TK2.sol\":1856:1857  i */\n      dup5\n        /* \"NFT Tokens/TK2.sol\":1856:1861  i - 1 */\n      tag_65\n      swap2\n      swap1\n      tag_66\n      jump\t// in\n    tag_65:\n        /* \"NFT Tokens/TK2.sol\":1849:1862  owners[i - 1] */\n      dup2\n      mload\n      dup2\n      lt\n      tag_67\n      jumpi\n      tag_68\n      tag_69\n      jump\t// in\n    tag_68:\n    tag_67:\n      0x20\n      mul\n      0x20\n      add\n      add\n        /* \"NFT Tokens/TK2.sol\":1849:1877  owners[i - 1] = ownerAddress */\n      swap1\n      0xffffffffffffffffffffffffffffffffffffffff\n      and\n      swap1\n      dup2\n      0xffffffffffffffffffffffffffffffffffffffff\n      and\n      dup2\n      mstore\n      pop\n      pop\n        /* \"NFT Tokens/TK2.sol\":1911:1924  ownershipData */\n      0x01\n        /* \"NFT Tokens/TK2.sol\":1911:1936  ownershipData[propertyId] */\n      0x00\n        /* \"NFT Tokens/TK2.sol\":1925:1935  propertyId */\n      dup9\n        /* \"NFT Tokens/TK2.sol\":1911:1936  ownershipData[propertyId] */\n      dup2\n      mstore\n      0x20\n      add\n      swap1\n      dup2\n      mstore\n      0x20\n      add\n      0x00\n      keccak256\n        /* \"NFT Tokens/TK2.sol\":1911:1950  ownershipData[propertyId][ownerAddress] */\n      0x00\n        /* \"NFT Tokens/TK2.sol\":1937:1949  ownerAddress */\n      dup3\n        /* \"NFT Tokens/TK2.sol\":1911:1950  ownershipData[propertyId][ownerAddress] */\n      0xffffffffffffffffffffffffffffffffffffffff\n      and\n      0xffffffffffffffffffffffffffffffffffffffff\n      and\n      dup2\n      mstore\n      0x20\n      add\n      swap1\n      dup2\n      mstore\n      0x20\n      add\n      0x00\n      keccak256\n        /* \"NFT Tokens/TK2.sol\":1911:1961  ownershipData[propertyId][ownerAddress].tokenOwned */\n      0x01\n      add\n      sload\n        /* \"NFT Tokens/TK2.sol\":1891:1961  totalOwnedTokens += ownershipData[propertyId][ownerAddress].tokenOwned */\n      dup5\n      tag_70\n      swap2\n      swap1\n      tag_47\n      jump\t// in\n    tag_70:\n      swap4\n      pop\n        /* \"NFT Tokens/TK2.sol\":1755:1972  {... */\n      pop\n        /* \"NFT Tokens/TK2.sol\":1750:1753  i++ */\n      dup1\n      dup1\n      tag_71\n      swap1\n      tag_52\n      jump\t// in\n    tag_71:\n      swap2\n      pop\n      pop\n        /* \"NFT Tokens/TK2.sol\":1713:1972  for (uint i = 1; i <= numProperties; i++) {... */\n      jump(tag_62)\n    tag_63:\n      pop\n        /* \"NFT Tokens/TK2.sol\":1987:1993  uint i */\n      0x00\n        /* \"NFT Tokens/TK2.sol\":1982:2243  for (uint i = 0; i < owners.length; i++) {... */\n    tag_72:\n        /* \"NFT Tokens/TK2.sol\":2003:2009  owners */\n      dup2\n        /* \"NFT Tokens/TK2.sol\":2003:2016  owners.length */\n      mload\n        /* \"NFT Tokens/TK2.sol\":1999:2000  i */\n      dup2\n        /* \"NFT Tokens/TK2.sol\":1999:2016  i < owners.length */\n      lt\n        /* \"NFT Tokens/TK2.sol\":1982:2243  for (uint i = 0; i < owners.length; i++) {... */\n      iszero\n      tag_73\n      jumpi\n        /* \"NFT Tokens/TK2.sol\":2037:2057  address ownerAddress */\n      0x00\n        /* \"NFT Tokens/TK2.sol\":2060:2066  owners */\n      dup3\n        /* \"NFT Tokens/TK2.sol\":2067:2068  i */\n      dup3\n        /* \"NFT Tokens/TK2.sol\":2060:2069  owners[i] */\n      dup2\n      mload\n      dup2\n      lt\n      tag_75\n      jumpi\n      tag_76\n      tag_69\n      jump\t// in\n    tag_76:\n    tag_75:\n      0x20\n      mul\n      0x20\n      add\n      add\n      mload\n        /* \"NFT Tokens/TK2.sol\":2037:2069  address ownerAddress = owners[i] */\n      swap1\n      pop\n        /* \"NFT Tokens/TK2.sol\":2083:2094  uint amount */\n      0x00\n        /* \"NFT Tokens/TK2.sol\":2164:2180  totalOwnedTokens */\n      dup5\n        /* \"NFT Tokens/TK2.sol\":2110:2123  ownershipData */\n      0x01\n        /* \"NFT Tokens/TK2.sol\":2110:2135  ownershipData[propertyId] */\n      0x00\n        /* \"NFT Tokens/TK2.sol\":2124:2134  propertyId */\n      dup11\n        /* \"NFT Tokens/TK2.sol\":2110:2135  ownershipData[propertyId] */\n      dup2\n      mstore\n      0x20\n      add\n      swap1\n      dup2\n      mstore\n      0x20\n      add\n      0x00\n      keccak256\n        /* \"NFT Tokens/TK2.sol\":2110:2149  ownershipData[propertyId][ownerAddress] */\n      0x00\n        /* \"NFT Tokens/TK2.sol\":2136:2148  ownerAddress */\n      dup5\n        /* \"NFT Tokens/TK2.sol\":2110:2149  ownershipData[propertyId][ownerAddress] */\n      0xffffffffffffffffffffffffffffffffffffffff\n      and\n      0xffffffffffffffffffffffffffffffffffffffff\n      and\n      dup2\n      mstore\n      0x20\n      add\n      swap1\n      dup2\n      mstore\n      0x20\n      add\n      0x00\n      keccak256\n        /* \"NFT Tokens/TK2.sol\":2110:2160  ownershipData[propertyId][ownerAddress].tokenOwned */\n      0x01\n      add\n      sload\n        /* \"NFT Tokens/TK2.sol\":2098:2107  totalRent */\n      dup9\n        /* \"NFT Tokens/TK2.sol\":2098:2160  totalRent * ownershipData[propertyId][ownerAddress].tokenOwned */\n      tag_77\n      swap2\n      swap1\n      tag_78\n      jump\t// in\n    tag_77:\n        /* \"NFT Tokens/TK2.sol\":2097:2180  (totalRent * ownershipData[propertyId][ownerAddress].tokenOwned) / totalOwnedTokens */\n      tag_79\n      swap2\n      swap1\n      tag_45\n      jump\t// in\n    tag_79:\n        /* \"NFT Tokens/TK2.sol\":2083:2180  uint amount = (totalRent * ownershipData[propertyId][ownerAddress].tokenOwned) / totalOwnedTokens */\n      swap1\n      pop\n        /* \"NFT Tokens/TK2.sol\":2202:2214  ownerAddress */\n      dup2\n        /* \"NFT Tokens/TK2.sol\":2194:2224  payable(ownerAddress).transfer */\n      0xffffffffffffffffffffffffffffffffffffffff\n      and\n        /* \"NFT Tokens/TK2.sol\":2194:2232  payable(ownerAddress).transfer(amount) */\n      0x08fc\n        /* \"NFT Tokens/TK2.sol\":2225:2231  amount */\n      dup3\n        /* \"NFT Tokens/TK2.sol\":2194:2232  payable(ownerAddress).transfer(amount) */\n      swap1\n      dup2\n      iszero\n      mul\n      swap1\n      mload(0x40)\n      0x00\n      mload(0x40)\n      dup1\n      dup4\n      sub\n      dup2\n      dup6\n      dup9\n      dup9\n      call\n      swap4\n      pop\n      pop\n      pop\n      pop\n      iszero\n      dup1\n      iszero\n      tag_81\n      jumpi\n      returndatasize\n      0x00\n      dup1\n      returndatacopy\n      revert(0x00, returndatasize)\n    tag_81:\n      pop\n        /* \"NFT Tokens/TK2.sol\":2023:2243  {... */\n      pop\n      pop\n        /* \"NFT Tokens/TK2.sol\":2018:2021  i++ */\n      dup1\n      dup1\n      0x01\n      add\n      swap2\n      pop\n      pop\n        /* \"NFT Tokens/TK2.sol\":1982:2243  for (uint i = 0; i < owners.length; i++) {... */\n      jump(tag_72)\n    tag_73:\n      pop\n        /* \"NFT Tokens/TK2.sol\":2258:2296  RentDistributed(propertyId, totalRent) */\n      0xe119edd602f8057f976e78f3580fad7c24700f494e6ddca97279c332a213f384\n        /* \"NFT Tokens/TK2.sol\":2274:2284  propertyId */\n      dup6\n        /* \"NFT Tokens/TK2.sol\":2286:2295  totalRent */\n      dup6\n        /* \"NFT Tokens/TK2.sol\":2258:2296  RentDistributed(propertyId, totalRent) */\n      mload(0x40)\n      tag_82\n      swap3\n      swap2\n      swap1\n      tag_83\n      jump\t// in\n    tag_82:\n      mload(0x40)\n      dup1\n      swap2\n      sub\n      swap1\n      log1\n        /* \"NFT Tokens/TK2.sol\":1535:2303  {... */\n      pop\n      pop\n      pop\n        /* \"NFT Tokens/TK2.sol\":1471:2303  function distributeRent(uint propertyId, uint totalRent) public {... */\n      pop\n      pop\n      jump\t// out\n        /* \"NFT Tokens/TK2.sol\":403:428  uint public numProperties */\n    tag_31:\n      sload(0x02)\n      dup2\n      jump\t// out\n        /* \"NFT Tokens/TK2.sol\":281:324  mapping(uint => Property) public properties */\n    tag_37:\n      mstore(0x20, 0x00)\n      dup1\n      0x00\n      mstore\n      keccak256(0x00, 0x40)\n      0x00\n      swap2\n      pop\n      swap1\n      pop\n      dup1\n      0x00\n      add\n      dup1\n      sload\n      tag_84\n      swap1\n      tag_85\n      jump\t// in\n    tag_84:\n      dup1\n      0x1f\n      add\n      0x20\n      dup1\n      swap2\n      div\n      mul\n      0x20\n      add\n      mload(0x40)\n      swap1\n      dup2\n      add\n      0x40\n      mstore\n      dup1\n      swap3\n      swap2\n      swap1\n      dup2\n      dup2\n      mstore\n      0x20\n      add\n      dup3\n      dup1\n      sload\n      tag_86\n      swap1\n      tag_85\n      jump\t// in\n    tag_86:\n      dup1\n      iszero\n      tag_87\n      jumpi\n      dup1\n      0x1f\n      lt\n      tag_88\n      jumpi\n      0x0100\n      dup1\n      dup4\n      sload\n      div\n      mul\n      dup4\n      mstore\n      swap2\n      0x20\n      add\n      swap2\n      jump(tag_87)\n    tag_88:\n      dup3\n      add\n      swap2\n      swap1\n      0x00\n      mstore\n      keccak256(0x00, 0x20)\n      swap1\n    tag_89:\n      dup2\n      sload\n      dup2\n      mstore\n      swap1\n      0x01\n      add\n      swap1\n      0x20\n      add\n      dup1\n      dup4\n      gt\n      tag_89\n      jumpi\n      dup3\n      swap1\n      sub\n      0x1f\n      and\n      dup3\n      add\n      swap2\n    tag_87:\n      pop\n      pop\n      pop\n      pop\n      pop\n      swap1\n      dup1\n      0x01\n      add\n      sload\n      swap1\n      dup1\n      0x02\n      add\n      sload\n      swap1\n      pop\n      dup4\n      jump\t// out\n        /* \"#utility.yul\":7:82   */\n    tag_90:\n        /* \"#utility.yul\":40:46   */\n      0x00\n        /* \"#utility.yul\":73:75   */\n      0x40\n        /* \"#utility.yul\":67:76   */\n      mload\n        /* \"#utility.yul\":57:76   */\n      swap1\n      pop\n        /* \"#utility.yul\":7:82   */\n      swap1\n      jump\t// out\n        /* \"#utility.yul\":88:205   */\n    tag_91:\n        /* \"#utility.yul\":197:198   */\n      0x00\n        /* \"#utility.yul\":194:195   */\n      dup1\n        /* \"#utility.yul\":187:199   */\n      revert\n        /* \"#utility.yul\":211:328   */\n    tag_92:\n        /* \"#utility.yul\":320:321   */\n      0x00\n        /* \"#utility.yul\":317:318   */\n      dup1\n        /* \"#utility.yul\":310:322   */\n      revert\n        /* \"#utility.yul\":334:411   */\n    tag_93:\n        /* \"#utility.yul\":371:378   */\n      0x00\n        /* \"#utility.yul\":400:405   */\n      dup2\n        /* \"#utility.yul\":389:405   */\n      swap1\n      pop\n        /* \"#utility.yul\":334:411   */\n      swap2\n      swap1\n      pop\n      jump\t// out\n        /* \"#utility.yul\":417:539   */\n    tag_94:\n        /* \"#utility.yul\":490:514   */\n      tag_141\n        /* \"#utility.yul\":508:513   */\n      dup2\n        /* \"#utility.yul\":490:514   */\n      tag_93\n      jump\t// in\n    tag_141:\n        /* \"#utility.yul\":483:488   */\n      dup2\n        /* \"#utility.yul\":480:515   */\n      eq\n        /* \"#utility.yul\":470:533   */\n      tag_142\n      jumpi\n        /* \"#utility.yul\":529:530   */\n      0x00\n        /* \"#utility.yul\":526:527   */\n      dup1\n        /* \"#utility.yul\":519:531   */\n      revert\n        /* \"#utility.yul\":470:533   */\n    tag_142:\n        /* \"#utility.yul\":417:539   */\n      pop\n      jump\t// out\n        /* \"#utility.yul\":545:684   */\n    tag_95:\n        /* \"#utility.yul\":591:596   */\n      0x00\n        /* \"#utility.yul\":629:635   */\n      dup2\n        /* \"#utility.yul\":616:636   */\n      calldataload\n        /* \"#utility.yul\":607:636   */\n      swap1\n      pop\n        /* \"#utility.yul\":645:678   */\n      tag_144\n        /* \"#utility.yul\":672:677   */\n      dup2\n        /* \"#utility.yul\":645:678   */\n      tag_94\n      jump\t// in\n    tag_144:\n        /* \"#utility.yul\":545:684   */\n      swap3\n      swap2\n      pop\n      pop\n      jump\t// out\n        /* \"#utility.yul\":690:816   */\n    tag_96:\n        /* \"#utility.yul\":727:734   */\n      0x00\n        /* \"#utility.yul\":767:809   */\n      0xffffffffffffffffffffffffffffffffffffffff\n        /* \"#utility.yul\":760:765   */\n      dup3\n        /* \"#utility.yul\":756:810   */\n      and\n        /* \"#utility.yul\":745:810   */\n      swap1\n      pop\n        /* \"#utility.yul\":690:816   */\n      swap2\n      swap1\n      pop\n      jump\t// out\n        /* \"#utility.yul\":822:918   */\n    tag_97:\n        /* \"#utility.yul\":859:866   */\n      0x00\n        /* \"#utility.yul\":888:912   */\n      tag_147\n        /* \"#utility.yul\":906:911   */\n      dup3\n        /* \"#utility.yul\":888:912   */\n      tag_96\n      jump\t// in\n    tag_147:\n        /* \"#utility.yul\":877:912   */\n      swap1\n      pop\n        /* \"#utility.yul\":822:918   */\n      swap2\n      swap1\n      pop\n      jump\t// out\n        /* \"#utility.yul\":924:1046   */\n    tag_98:\n        /* \"#utility.yul\":997:1021   */\n      tag_149\n        /* \"#utility.yul\":1015:1020   */\n      dup2\n        /* \"#utility.yul\":997:1021   */\n      tag_97\n      jump\t// in\n    tag_149:\n        /* \"#utility.yul\":990:995   */\n      dup2\n        /* \"#utility.yul\":987:1022   */\n      eq\n        /* \"#utility.yul\":977:1040   */\n      tag_150\n      jumpi\n        /* \"#utility.yul\":1036:1037   */\n      0x00\n        /* \"#utility.yul\":1033:1034   */\n      dup1\n        /* \"#utility.yul\":1026:1038   */\n      revert\n        /* \"#utility.yul\":977:1040   */\n    tag_150:\n        /* \"#utility.yul\":924:1046   */\n      pop\n      jump\t// out\n        /* \"#utility.yul\":1052:1191   */\n    tag_99:\n        /* \"#utility.yul\":1098:1103   */\n      0x00\n        /* \"#utility.yul\":1136:1142   */\n      dup2\n        /* \"#utility.yul\":1123:1143   */\n      calldataload\n        /* \"#utility.yul\":1114:1143   */\n      swap1\n      pop\n        /* \"#utility.yul\":1152:1185   */\n      tag_152\n        /* \"#utility.yul\":1179:1184   */\n      dup2\n        /* \"#utility.yul\":1152:1185   */\n      tag_98\n      jump\t// in\n    tag_152:\n        /* \"#utility.yul\":1052:1191   */\n      swap3\n      swap2\n      pop\n      pop\n      jump\t// out\n        /* \"#utility.yul\":1197:1671   */\n    tag_11:\n        /* \"#utility.yul\":1265:1271   */\n      0x00\n        /* \"#utility.yul\":1273:1279   */\n      dup1\n        /* \"#utility.yul\":1322:1324   */\n      0x40\n        /* \"#utility.yul\":1310:1319   */\n      dup4\n        /* \"#utility.yul\":1301:1308   */\n      dup6\n        /* \"#utility.yul\":1297:1320   */\n      sub\n        /* \"#utility.yul\":1293:1325   */\n      slt\n        /* \"#utility.yul\":1290:1409   */\n      iszero\n      tag_154\n      jumpi\n        /* \"#utility.yul\":1328:1407   */\n      tag_155\n      tag_91\n      jump\t// in\n    tag_155:\n        /* \"#utility.yul\":1290:1409   */\n    tag_154:\n        /* \"#utility.yul\":1448:1449   */\n      0x00\n        /* \"#utility.yul\":1473:1526   */\n      tag_156\n        /* \"#utility.yul\":1518:1525   */\n      dup6\n        /* \"#utility.yul\":1509:1515   */\n      dup3\n        /* \"#utility.yul\":1498:1507   */\n      dup7\n        /* \"#utility.yul\":1494:1516   */\n      add\n        /* \"#utility.yul\":1473:1526   */\n      tag_95\n      jump\t// in\n    tag_156:\n        /* \"#utility.yul\":1463:1526   */\n      swap3\n      pop\n        /* \"#utility.yul\":1419:1536   */\n      pop\n        /* \"#utility.yul\":1575:1577   */\n      0x20\n        /* \"#utility.yul\":1601:1654   */\n      tag_157\n        /* \"#utility.yul\":1646:1653   */\n      dup6\n        /* \"#utility.yul\":1637:1643   */\n      dup3\n        /* \"#utility.yul\":1626:1635   */\n      dup7\n        /* \"#utility.yul\":1622:1644   */\n      add\n        /* \"#utility.yul\":1601:1654   */\n      tag_99\n      jump\t// in\n    tag_157:\n        /* \"#utility.yul\":1591:1654   */\n      swap2\n      pop\n        /* \"#utility.yul\":1546:1664   */\n      pop\n        /* \"#utility.yul\":1197:1671   */\n      swap3\n      pop\n      swap3\n      swap1\n      pop\n      jump\t// out\n        /* \"#utility.yul\":1677:1795   */\n    tag_100:\n        /* \"#utility.yul\":1764:1788   */\n      tag_159\n        /* \"#utility.yul\":1782:1787   */\n      dup2\n        /* \"#utility.yul\":1764:1788   */\n      tag_97\n      jump\t// in\n    tag_159:\n        /* \"#utility.yul\":1759:1762   */\n      dup3\n        /* \"#utility.yul\":1752:1789   */\n      mstore\n        /* \"#utility.yul\":1677:1795   */\n      pop\n      pop\n      jump\t// out\n        /* \"#utility.yul\":1801:1919   */\n    tag_101:\n        /* \"#utility.yul\":1888:1912   */\n      tag_161\n        /* \"#utility.yul\":1906:1911   */\n      dup2\n        /* \"#utility.yul\":1888:1912   */\n      tag_93\n      jump\t// in\n    tag_161:\n        /* \"#utility.yul\":1883:1886   */\n      dup3\n        /* \"#utility.yul\":1876:1913   */\n      mstore\n        /* \"#utility.yul\":1801:1919   */\n      pop\n      pop\n      jump\t// out\n        /* \"#utility.yul\":1925:2257   */\n    tag_14:\n        /* \"#utility.yul\":2046:2050   */\n      0x00\n        /* \"#utility.yul\":2084:2086   */\n      0x40\n        /* \"#utility.yul\":2073:2082   */\n      dup3\n        /* \"#utility.yul\":2069:2087   */\n      add\n        /* \"#utility.yul\":2061:2087   */\n      swap1\n      pop\n        /* \"#utility.yul\":2097:2168   */\n      tag_163\n        /* \"#utility.yul\":2165:2166   */\n      0x00\n        /* \"#utility.yul\":2154:2163   */\n      dup4\n        /* \"#utility.yul\":2150:2167   */\n      add\n        /* \"#utility.yul\":2141:2147   */\n      dup6\n        /* \"#utility.yul\":2097:2168   */\n      tag_100\n      jump\t// in\n    tag_163:\n        /* \"#utility.yul\":2178:2250   */\n      tag_164\n        /* \"#utility.yul\":2246:2248   */\n      0x20\n        /* \"#utility.yul\":2235:2244   */\n      dup4\n        /* \"#utility.yul\":2231:2249   */\n      add\n        /* \"#utility.yul\":2222:2228   */\n      dup5\n        /* \"#utility.yul\":2178:2250   */\n      tag_101\n      jump\t// in\n    tag_164:\n        /* \"#utility.yul\":1925:2257   */\n      swap4\n      swap3\n      pop\n      pop\n      pop\n      jump\t// out\n        /* \"#utility.yul\":2263:2592   */\n    tag_17:\n        /* \"#utility.yul\":2322:2328   */\n      0x00\n        /* \"#utility.yul\":2371:2373   */\n      0x20\n        /* \"#utility.yul\":2359:2368   */\n      dup3\n        /* \"#utility.yul\":2350:2357   */\n      dup5\n        /* \"#utility.yul\":2346:2369   */\n      sub\n        /* \"#utility.yul\":2342:2374   */\n      slt\n        /* \"#utility.yul\":2339:2458   */\n      iszero\n      tag_166\n      jumpi\n        /* \"#utility.yul\":2377:2456   */\n      tag_167\n      tag_91\n      jump\t// in\n    tag_167:\n        /* \"#utility.yul\":2339:2458   */\n    tag_166:\n        /* \"#utility.yul\":2497:2498   */\n      0x00\n        /* \"#utility.yul\":2522:2575   */\n      tag_168\n        /* \"#utility.yul\":2567:2574   */\n      dup5\n        /* \"#utility.yul\":2558:2564   */\n      dup3\n        /* \"#utility.yul\":2547:2556   */\n      dup6\n        /* \"#utility.yul\":2543:2565   */\n      add\n        /* \"#utility.yul\":2522:2575   */\n      tag_95\n      jump\t// in\n    tag_168:\n        /* \"#utility.yul\":2512:2575   */\n      swap2\n      pop\n        /* \"#utility.yul\":2468:2585   */\n      pop\n        /* \"#utility.yul\":2263:2592   */\n      swap3\n      swap2\n      pop\n      pop\n      jump\t// out\n        /* \"#utility.yul\":2598:2715   */\n    tag_102:\n        /* \"#utility.yul\":2707:2708   */\n      0x00\n        /* \"#utility.yul\":2704:2705   */\n      dup1\n        /* \"#utility.yul\":2697:2709   */\n      revert\n        /* \"#utility.yul\":2721:2838   */\n    tag_103:\n        /* \"#utility.yul\":2830:2831   */\n      0x00\n        /* \"#utility.yul\":2827:2828   */\n      dup1\n        /* \"#utility.yul\":2820:2832   */\n      revert\n        /* \"#utility.yul\":2844:2946   */\n    tag_104:\n        /* \"#utility.yul\":2885:2891   */\n      0x00\n        /* \"#utility.yul\":2936:2938   */\n      0x1f\n        /* \"#utility.yul\":2932:2939   */\n      not\n        /* \"#utility.yul\":2927:2929   */\n      0x1f\n        /* \"#utility.yul\":2920:2925   */\n      dup4\n        /* \"#utility.yul\":2916:2930   */\n      add\n        /* \"#utility.yul\":2912:2940   */\n      and\n        /* \"#utility.yul\":2902:2940   */\n      swap1\n      pop\n        /* \"#utility.yul\":2844:2946   */\n      swap2\n      swap1\n      pop\n      jump\t// out\n        /* \"#utility.yul\":2952:3132   */\n    tag_60:\n        /* \"#utility.yul\":3000:3077   */\n      0x4e487b7100000000000000000000000000000000000000000000000000000000\n        /* \"#utility.yul\":2997:2998   */\n      0x00\n        /* \"#utility.yul\":2990:3078   */\n      mstore\n        /* \"#utility.yul\":3097:3101   */\n      0x41\n        /* \"#utility.yul\":3094:3095   */\n      0x04\n        /* \"#utility.yul\":3087:3102   */\n      mstore\n        /* \"#utility.yul\":3121:3125   */\n      0x24\n        /* \"#utility.yul\":3118:3119   */\n      0x00\n        /* \"#utility.yul\":3111:3126   */\n      revert\n        /* \"#utility.yul\":3138:3419   */\n    tag_105:\n        /* \"#utility.yul\":3221:3248   */\n      tag_174\n        /* \"#utility.yul\":3243:3247   */\n      dup3\n        /* \"#utility.yul\":3221:3248   */\n      tag_104\n      jump\t// in\n    tag_174:\n        /* \"#utility.yul\":3213:3219   */\n      dup2\n        /* \"#utility.yul\":3209:3249   */\n      add\n        /* \"#utility.yul\":3351:3357   */\n      dup2\n        /* \"#utility.yul\":3339:3349   */\n      dup2\n        /* \"#utility.yul\":3336:3358   */\n      lt\n        /* \"#utility.yul\":3315:3333   */\n      0xffffffffffffffff\n        /* \"#utility.yul\":3303:3313   */\n      dup3\n        /* \"#utility.yul\":3300:3334   */\n      gt\n        /* \"#utility.yul\":3297:3359   */\n      or\n        /* \"#utility.yul\":3294:3382   */\n      iszero\n      tag_175\n      jumpi\n        /* \"#utility.yul\":3362:3380   */\n      tag_176\n      tag_60\n      jump\t// in\n    tag_176:\n        /* \"#utility.yul\":3294:3382   */\n    tag_175:\n        /* \"#utility.yul\":3402:3412   */\n      dup1\n        /* \"#utility.yul\":3398:3400   */\n      0x40\n        /* \"#utility.yul\":3391:3413   */\n      mstore\n        /* \"#utility.yul\":3181:3419   */\n      pop\n        /* \"#utility.yul\":3138:3419   */\n      pop\n      pop\n      jump\t// out\n        /* \"#utility.yul\":3425:3554   */\n    tag_106:\n        /* \"#utility.yul\":3459:3465   */\n      0x00\n        /* \"#utility.yul\":3486:3506   */\n      tag_178\n      tag_90\n      jump\t// in\n    tag_178:\n        /* \"#utility.yul\":3476:3506   */\n      swap1\n      pop\n        /* \"#utility.yul\":3515:3548   */\n      tag_179\n        /* \"#utility.yul\":3543:3547   */\n      dup3\n        /* \"#utility.yul\":3535:3541   */\n      dup3\n        /* \"#utility.yul\":3515:3548   */\n      tag_105\n      jump\t// in\n    tag_179:\n        /* \"#utility.yul\":3425:3554   */\n      swap2\n      swap1\n      pop\n      jump\t// out\n        /* \"#utility.yul\":3560:3868   */\n    tag_107:\n        /* \"#utility.yul\":3622:3626   */\n      0x00\n        /* \"#utility.yul\":3712:3730   */\n      0xffffffffffffffff\n        /* \"#utility.yul\":3704:3710   */\n      dup3\n        /* \"#utility.yul\":3701:3731   */\n      gt\n        /* \"#utility.yul\":3698:3754   */\n      iszero\n      tag_181\n      jumpi\n        /* \"#utility.yul\":3734:3752   */\n      tag_182\n      tag_60\n      jump\t// in\n    tag_182:\n        /* \"#utility.yul\":3698:3754   */\n    tag_181:\n        /* \"#utility.yul\":3772:3801   */\n      tag_183\n        /* \"#utility.yul\":3794:3800   */\n      dup3\n        /* \"#utility.yul\":3772:3801   */\n      tag_104\n      jump\t// in\n    tag_183:\n        /* \"#utility.yul\":3764:3801   */\n      swap1\n      pop\n        /* \"#utility.yul\":3856:3860   */\n      0x20\n        /* \"#utility.yul\":3850:3854   */\n      dup2\n        /* \"#utility.yul\":3846:3861   */\n      add\n        /* \"#utility.yul\":3838:3861   */\n      swap1\n      pop\n        /* \"#utility.yul\":3560:3868   */\n      swap2\n      swap1\n      pop\n      jump\t// out\n        /* \"#utility.yul\":3874:4022   */\n    tag_108:\n        /* \"#utility.yul\":3972:3978   */\n      dup3\n        /* \"#utility.yul\":3967:3970   */\n      dup2\n        /* \"#utility.yul\":3962:3965   */\n      dup4\n        /* \"#utility.yul\":3949:3979   */\n      calldatacopy\n        /* \"#utility.yul\":4013:4014   */\n      0x00\n        /* \"#utility.yul\":4004:4010   */\n      dup4\n        /* \"#utility.yul\":3999:4002   */\n      dup4\n        /* \"#utility.yul\":3995:4011   */\n      add\n        /* \"#utility.yul\":3988:4015   */\n      mstore\n        /* \"#utility.yul\":3874:4022   */\n      pop\n      pop\n      pop\n      jump\t// out\n        /* \"#utility.yul\":4028:4453   */\n    tag_109:\n        /* \"#utility.yul\":4106:4111   */\n      0x00\n        /* \"#utility.yul\":4131:4197   */\n      tag_186\n        /* \"#utility.yul\":4147:4196   */\n      tag_187\n        /* \"#utility.yul\":4189:4195   */\n      dup5\n        /* \"#utility.yul\":4147:4196   */\n      tag_107\n      jump\t// in\n    tag_187:\n        /* \"#utility.yul\":4131:4197   */\n      tag_106\n      jump\t// in\n    tag_186:\n        /* \"#utility.yul\":4122:4197   */\n      swap1\n      pop\n        /* \"#utility.yul\":4220:4226   */\n      dup3\n        /* \"#utility.yul\":4213:4218   */\n      dup2\n        /* \"#utility.yul\":4206:4227   */\n      mstore\n        /* \"#utility.yul\":4258:4262   */\n      0x20\n        /* \"#utility.yul\":4251:4256   */\n      dup2\n        /* \"#utility.yul\":4247:4263   */\n      add\n        /* \"#utility.yul\":4296:4299   */\n      dup5\n        /* \"#utility.yul\":4287:4293   */\n      dup5\n        /* \"#utility.yul\":4282:4285   */\n      dup5\n        /* \"#utility.yul\":4278:4294   */\n      add\n        /* \"#utility.yul\":4275:4300   */\n      gt\n        /* \"#utility.yul\":4272:4384   */\n      iszero\n      tag_188\n      jumpi\n        /* \"#utility.yul\":4303:4382   */\n      tag_189\n      tag_103\n      jump\t// in\n    tag_189:\n        /* \"#utility.yul\":4272:4384   */\n    tag_188:\n        /* \"#utility.yul\":4393:4447   */\n      tag_190\n        /* \"#utility.yul\":4440:4446   */\n      dup5\n        /* \"#utility.yul\":4435:4438   */\n      dup3\n        /* \"#utility.yul\":4430:4433   */\n      dup6\n        /* \"#utility.yul\":4393:4447   */\n      tag_108\n      jump\t// in\n    tag_190:\n        /* \"#utility.yul\":4112:4453   */\n      pop\n        /* \"#utility.yul\":4028:4453   */\n      swap4\n      swap3\n      pop\n      pop\n      pop\n      jump\t// out\n        /* \"#utility.yul\":4473:4813   */\n    tag_110:\n        /* \"#utility.yul\":4529:4534   */\n      0x00\n        /* \"#utility.yul\":4578:4581   */\n      dup3\n        /* \"#utility.yul\":4571:4575   */\n      0x1f\n        /* \"#utility.yul\":4563:4569   */\n      dup4\n        /* \"#utility.yul\":4559:4576   */\n      add\n        /* \"#utility.yul\":4555:4582   */\n      slt\n        /* \"#utility.yul\":4545:4667   */\n      tag_192\n      jumpi\n        /* \"#utility.yul\":4586:4665   */\n      tag_193\n      tag_102\n      jump\t// in\n    tag_193:\n        /* \"#utility.yul\":4545:4667   */\n    tag_192:\n        /* \"#utility.yul\":4703:4709   */\n      dup2\n        /* \"#utility.yul\":4690:4710   */\n      calldataload\n        /* \"#utility.yul\":4728:4807   */\n      tag_194\n        /* \"#utility.yul\":4803:4806   */\n      dup5\n        /* \"#utility.yul\":4795:4801   */\n      dup3\n        /* \"#utility.yul\":4788:4792   */\n      0x20\n        /* \"#utility.yul\":4780:4786   */\n      dup7\n        /* \"#utility.yul\":4776:4793   */\n      add\n        /* \"#utility.yul\":4728:4807   */\n      tag_109\n      jump\t// in\n    tag_194:\n        /* \"#utility.yul\":4719:4807   */\n      swap2\n      pop\n        /* \"#utility.yul\":4535:4813   */\n      pop\n        /* \"#utility.yul\":4473:4813   */\n      swap3\n      swap2\n      pop\n      pop\n      jump\t// out\n        /* \"#utility.yul\":4819:5618   */\n    tag_22:\n        /* \"#utility.yul\":4906:4912   */\n      0x00\n        /* \"#utility.yul\":4914:4920   */\n      dup1\n        /* \"#utility.yul\":4922:4928   */\n      0x00\n        /* \"#utility.yul\":4971:4973   */\n      0x60\n        /* \"#utility.yul\":4959:4968   */\n      dup5\n        /* \"#utility.yul\":4950:4957   */\n      dup7\n        /* \"#utility.yul\":4946:4969   */\n      sub\n        /* \"#utility.yul\":4942:4974   */\n      slt\n        /* \"#utility.yul\":4939:5058   */\n      iszero\n      tag_196\n      jumpi\n        /* \"#utility.yul\":4977:5056   */\n      tag_197\n      tag_91\n      jump\t// in\n    tag_197:\n        /* \"#utility.yul\":4939:5058   */\n    tag_196:\n        /* \"#utility.yul\":5125:5126   */\n      0x00\n        /* \"#utility.yul\":5114:5123   */\n      dup5\n        /* \"#utility.yul\":5110:5127   */\n      add\n        /* \"#utility.yul\":5097:5128   */\n      calldataload\n        /* \"#utility.yul\":5155:5173   */\n      0xffffffffffffffff\n        /* \"#utility.yul\":5147:5153   */\n      dup2\n        /* \"#utility.yul\":5144:5174   */\n      gt\n        /* \"#utility.yul\":5141:5258   */\n      iszero\n      tag_198\n      jumpi\n        /* \"#utility.yul\":5177:5256   */\n      tag_199\n      tag_92\n      jump\t// in\n    tag_199:\n        /* \"#utility.yul\":5141:5258   */\n    tag_198:\n        /* \"#utility.yul\":5282:5345   */\n      tag_200\n        /* \"#utility.yul\":5337:5344   */\n      dup7\n        /* \"#utility.yul\":5328:5334   */\n      dup3\n        /* \"#utility.yul\":5317:5326   */\n      dup8\n        /* \"#utility.yul\":5313:5335   */\n      add\n        /* \"#utility.yul\":5282:5345   */\n      tag_110\n      jump\t// in\n    tag_200:\n        /* \"#utility.yul\":5272:5345   */\n      swap4\n      pop\n        /* \"#utility.yul\":5068:5355   */\n      pop\n        /* \"#utility.yul\":5394:5396   */\n      0x20\n        /* \"#utility.yul\":5420:5473   */\n      tag_201\n        /* \"#utility.yul\":5465:5472   */\n      dup7\n        /* \"#utility.yul\":5456:5462   */\n      dup3\n        /* \"#utility.yul\":5445:5454   */\n      dup8\n        /* \"#utility.yul\":5441:5463   */\n      add\n        /* \"#utility.yul\":5420:5473   */\n      tag_95\n      jump\t// in\n    tag_201:\n        /* \"#utility.yul\":5410:5473   */\n      swap3\n      pop\n        /* \"#utility.yul\":5365:5483   */\n      pop\n        /* \"#utility.yul\":5522:5524   */\n      0x40\n        /* \"#utility.yul\":5548:5601   */\n      tag_202\n        /* \"#utility.yul\":5593:5600   */\n      dup7\n        /* \"#utility.yul\":5584:5590   */\n      dup3\n        /* \"#utility.yul\":5573:5582   */\n      dup8\n        /* \"#utility.yul\":5569:5591   */\n      add\n        /* \"#utility.yul\":5548:5601   */\n      tag_95\n      jump\t// in\n    tag_202:\n        /* \"#utility.yul\":5538:5601   */\n      swap2\n      pop\n        /* \"#utility.yul\":5493:5611   */\n      pop\n        /* \"#utility.yul\":4819:5618   */\n      swap3\n      pop\n      swap3\n      pop\n      swap3\n      jump\t// out\n        /* \"#utility.yul\":5624:6098   */\n    tag_27:\n        /* \"#utility.yul\":5692:5698   */\n      0x00\n        /* \"#utility.yul\":5700:5706   */\n      dup1\n        /* \"#utility.yul\":5749:5751   */\n      0x40\n        /* \"#utility.yul\":5737:5746   */\n      dup4\n        /* \"#utility.yul\":5728:5735   */\n      dup6\n        /* \"#utility.yul\":5724:5747   */\n      sub\n        /* \"#utility.yul\":5720:5752   */\n      slt\n        /* \"#utility.yul\":5717:5836   */\n      iszero\n      tag_204\n      jumpi\n        /* \"#utility.yul\":5755:5834   */\n      tag_205\n      tag_91\n      jump\t// in\n    tag_205:\n        /* \"#utility.yul\":5717:5836   */\n    tag_204:\n        /* \"#utility.yul\":5875:5876   */\n      0x00\n        /* \"#utility.yul\":5900:5953   */\n      tag_206\n        /* \"#utility.yul\":5945:5952   */\n      dup6\n        /* \"#utility.yul\":5936:5942   */\n      dup3\n        /* \"#utility.yul\":5925:5934   */\n      dup7\n        /* \"#utility.yul\":5921:5943   */\n      add\n        /* \"#utility.yul\":5900:5953   */\n      tag_95\n      jump\t// in\n    tag_206:\n        /* \"#utility.yul\":5890:5953   */\n      swap3\n      pop\n        /* \"#utility.yul\":5846:5963   */\n      pop\n        /* \"#utility.yul\":6002:6004   */\n      0x20\n        /* \"#utility.yul\":6028:6081   */\n      tag_207\n        /* \"#utility.yul\":6073:6080   */\n      dup6\n        /* \"#utility.yul\":6064:6070   */\n      dup3\n        /* \"#utility.yul\":6053:6062   */\n      dup7\n        /* \"#utility.yul\":6049:6071   */\n      add\n        /* \"#utility.yul\":6028:6081   */\n      tag_95\n      jump\t// in\n    tag_207:\n        /* \"#utility.yul\":6018:6081   */\n      swap2\n      pop\n        /* \"#utility.yul\":5973:6091   */\n      pop\n        /* \"#utility.yul\":5624:6098   */\n      swap3\n      pop\n      swap3\n      swap1\n      pop\n      jump\t// out\n        /* \"#utility.yul\":6104:6326   */\n    tag_33:\n        /* \"#utility.yul\":6197:6201   */\n      0x00\n        /* \"#utility.yul\":6235:6237   */\n      0x20\n        /* \"#utility.yul\":6224:6233   */\n      dup3\n        /* \"#utility.yul\":6220:6238   */\n      add\n        /* \"#utility.yul\":6212:6238   */\n      swap1\n      pop\n        /* \"#utility.yul\":6248:6319   */\n      tag_209\n        /* \"#utility.yul\":6316:6317   */\n      0x00\n        /* \"#utility.yul\":6305:6314   */\n      dup4\n        /* \"#utility.yul\":6301:6318   */\n      add\n        /* \"#utility.yul\":6292:6298   */\n      dup5\n        /* \"#utility.yul\":6248:6319   */\n      tag_101\n      jump\t// in\n    tag_209:\n        /* \"#utility.yul\":6104:6326   */\n      swap3\n      swap2\n      pop\n      pop\n      jump\t// out\n        /* \"#utility.yul\":6332:6431   */\n    tag_111:\n        /* \"#utility.yul\":6384:6390   */\n      0x00\n        /* \"#utility.yul\":6418:6423   */\n      dup2\n        /* \"#utility.yul\":6412:6424   */\n      mload\n        /* \"#utility.yul\":6402:6424   */\n      swap1\n      pop\n        /* \"#utility.yul\":6332:6431   */\n      swap2\n      swap1\n      pop\n      jump\t// out\n        /* \"#utility.yul\":6437:6606   */\n    tag_112:\n        /* \"#utility.yul\":6521:6532   */\n      0x00\n        /* \"#utility.yul\":6555:6561   */\n      dup3\n        /* \"#utility.yul\":6550:6553   */\n      dup3\n        /* \"#utility.yul\":6543:6562   */\n      mstore\n        /* \"#utility.yul\":6595:6599   */\n      0x20\n        /* \"#utility.yul\":6590:6593   */\n      dup3\n        /* \"#utility.yul\":6586:6600   */\n      add\n        /* \"#utility.yul\":6571:6600   */\n      swap1\n      pop\n        /* \"#utility.yul\":6437:6606   */\n      swap3\n      swap2\n      pop\n      pop\n      jump\t// out\n        /* \"#utility.yul\":6612:6751   */\n    tag_113:\n        /* \"#utility.yul\":6701:6707   */\n      dup3\n        /* \"#utility.yul\":6696:6699   */\n      dup2\n        /* \"#utility.yul\":6691:6694   */\n      dup4\n        /* \"#utility.yul\":6685:6708   */\n      mcopy\n        /* \"#utility.yul\":6742:6743   */\n      0x00\n        /* \"#utility.yul\":6733:6739   */\n      dup4\n        /* \"#utility.yul\":6728:6731   */\n      dup4\n        /* \"#utility.yul\":6724:6740   */\n      add\n        /* \"#utility.yul\":6717:6744   */\n      mstore\n        /* \"#utility.yul\":6612:6751   */\n      pop\n      pop\n      pop\n      jump\t// out\n        /* \"#utility.yul\":6757:7134   */\n    tag_114:\n        /* \"#utility.yul\":6845:6848   */\n      0x00\n        /* \"#utility.yul\":6873:6912   */\n      tag_214\n        /* \"#utility.yul\":6906:6911   */\n      dup3\n        /* \"#utility.yul\":6873:6912   */\n      tag_111\n      jump\t// in\n    tag_214:\n        /* \"#utility.yul\":6928:6999   */\n      tag_215\n        /* \"#utility.yul\":6992:6998   */\n      dup2\n        /* \"#utility.yul\":6987:6990   */\n      dup6\n        /* \"#utility.yul\":6928:6999   */\n      tag_112\n      jump\t// in\n    tag_215:\n        /* \"#utility.yul\":6921:6999   */\n      swap4\n      pop\n        /* \"#utility.yul\":7008:7073   */\n      tag_216\n        /* \"#utility.yul\":7066:7072   */\n      dup2\n        /* \"#utility.yul\":7061:7064   */\n      dup6\n        /* \"#utility.yul\":7054:7058   */\n      0x20\n        /* \"#utility.yul\":7047:7052   */\n      dup7\n        /* \"#utility.yul\":7043:7059   */\n      add\n        /* \"#utility.yul\":7008:7073   */\n      tag_113\n      jump\t// in\n    tag_216:\n        /* \"#utility.yul\":7098:7127   */\n      tag_217\n        /* \"#utility.yul\":7120:7126   */\n      dup2\n        /* \"#utility.yul\":7098:7127   */\n      tag_104\n      jump\t// in\n    tag_217:\n        /* \"#utility.yul\":7093:7096   */\n      dup5\n        /* \"#utility.yul\":7089:7128   */\n      add\n        /* \"#utility.yul\":7082:7128   */\n      swap2\n      pop\n        /* \"#utility.yul\":6849:7134   */\n      pop\n        /* \"#utility.yul\":6757:7134   */\n      swap3\n      swap2\n      pop\n      pop\n      jump\t// out\n        /* \"#utility.yul\":7140:7673   */\n    tag_39:\n        /* \"#utility.yul\":7309:7313   */\n      0x00\n        /* \"#utility.yul\":7347:7349   */\n      0x60\n        /* \"#utility.yul\":7336:7345   */\n      dup3\n        /* \"#utility.yul\":7332:7350   */\n      add\n        /* \"#utility.yul\":7324:7350   */\n      swap1\n      pop\n        /* \"#utility.yul\":7396:7405   */\n      dup2\n        /* \"#utility.yul\":7390:7394   */\n      dup2\n        /* \"#utility.yul\":7386:7406   */\n      sub\n        /* \"#utility.yul\":7382:7383   */\n      0x00\n        /* \"#utility.yul\":7371:7380   */\n      dup4\n        /* \"#utility.yul\":7367:7384   */\n      add\n        /* \"#utility.yul\":7360:7407   */\n      mstore\n        /* \"#utility.yul\":7424:7502   */\n      tag_219\n        /* \"#utility.yul\":7497:7501   */\n      dup2\n        /* \"#utility.yul\":7488:7494   */\n      dup7\n        /* \"#utility.yul\":7424:7502   */\n      tag_114\n      jump\t// in\n    tag_219:\n        /* \"#utility.yul\":7416:7502   */\n      swap1\n      pop\n        /* \"#utility.yul\":7512:7584   */\n      tag_220\n        /* \"#utility.yul\":7580:7582   */\n      0x20\n        /* \"#utility.yul\":7569:7578   */\n      dup4\n        /* \"#utility.yul\":7565:7583   */\n      add\n        /* \"#utility.yul\":7556:7562   */\n      dup6\n        /* \"#utility.yul\":7512:7584   */\n      tag_101\n      jump\t// in\n    tag_220:\n        /* \"#utility.yul\":7594:7666   */\n      tag_221\n        /* \"#utility.yul\":7662:7664   */\n      0x40\n        /* \"#utility.yul\":7651:7660   */\n      dup4\n        /* \"#utility.yul\":7647:7665   */\n      add\n        /* \"#utility.yul\":7638:7644   */\n      dup5\n        /* \"#utility.yul\":7594:7666   */\n      tag_101\n      jump\t// in\n    tag_221:\n        /* \"#utility.yul\":7140:7673   */\n      swap5\n      swap4\n      pop\n      pop\n      pop\n      pop\n      jump\t// out\n        /* \"#utility.yul\":7679:7901   */\n    tag_115:\n        /* \"#utility.yul\":7819:7853   */\n      0x496e73756666696369656e742066756e647320666f72204e4654207075726368\n        /* \"#utility.yul\":7815:7816   */\n      0x00\n        /* \"#utility.yul\":7807:7813   */\n      dup3\n        /* \"#utility.yul\":7803:7817   */\n      add\n        /* \"#utility.yul\":7796:7854   */\n      mstore\n        /* \"#utility.yul\":7888:7893   */\n      0x6173650000000000000000000000000000000000000000000000000000000000\n        /* \"#utility.yul\":7883:7885   */\n      0x20\n        /* \"#utility.yul\":7875:7881   */\n      dup3\n        /* \"#utility.yul\":7871:7886   */\n      add\n        /* \"#utility.yul\":7864:7894   */\n      mstore\n        /* \"#utility.yul\":7679:7901   */\n      pop\n      jump\t// out\n        /* \"#utility.yul\":7907:8273   */\n    tag_116:\n        /* \"#utility.yul\":8049:8052   */\n      0x00\n        /* \"#utility.yul\":8070:8137   */\n      tag_224\n        /* \"#utility.yul\":8134:8136   */\n      0x23\n        /* \"#utility.yul\":8129:8132   */\n      dup4\n        /* \"#utility.yul\":8070:8137   */\n      tag_112\n      jump\t// in\n    tag_224:\n        /* \"#utility.yul\":8063:8137   */\n      swap2\n      pop\n        /* \"#utility.yul\":8146:8239   */\n      tag_225\n        /* \"#utility.yul\":8235:8238   */\n      dup3\n        /* \"#utility.yul\":8146:8239   */\n      tag_115\n      jump\t// in\n    tag_225:\n        /* \"#utility.yul\":8264:8266   */\n      0x40\n        /* \"#utility.yul\":8259:8262   */\n      dup3\n        /* \"#utility.yul\":8255:8267   */\n      add\n        /* \"#utility.yul\":8248:8267   */\n      swap1\n      pop\n        /* \"#utility.yul\":7907:8273   */\n      swap2\n      swap1\n      pop\n      jump\t// out\n        /* \"#utility.yul\":8279:8698   */\n    tag_43:\n        /* \"#utility.yul\":8445:8449   */\n      0x00\n        /* \"#utility.yul\":8483:8485   */\n      0x20\n        /* \"#utility.yul\":8472:8481   */\n      dup3\n        /* \"#utility.yul\":8468:8486   */\n      add\n        /* \"#utility.yul\":8460:8486   */\n      swap1\n      pop\n        /* \"#utility.yul\":8532:8541   */\n      dup2\n        /* \"#utility.yul\":8526:8530   */\n      dup2\n        /* \"#utility.yul\":8522:8542   */\n      sub\n        /* \"#utility.yul\":8518:8519   */\n      0x00\n        /* \"#utility.yul\":8507:8516   */\n      dup4\n        /* \"#utility.yul\":8503:8520   */\n      add\n        /* \"#utility.yul\":8496:8543   */\n      mstore\n        /* \"#utility.yul\":8560:8691   */\n      tag_227\n        /* \"#utility.yul\":8686:8690   */\n      dup2\n        /* \"#utility.yul\":8560:8691   */\n      tag_116\n      jump\t// in\n    tag_227:\n        /* \"#utility.yul\":8552:8691   */\n      swap1\n      pop\n        /* \"#utility.yul\":8279:8698   */\n      swap2\n      swap1\n      pop\n      jump\t// out\n        /* \"#utility.yul\":8704:8884   */\n    tag_117:\n        /* \"#utility.yul\":8752:8829   */\n      0x4e487b7100000000000000000000000000000000000000000000000000000000\n        /* \"#utility.yul\":8749:8750   */\n      0x00\n        /* \"#utility.yul\":8742:8830   */\n      mstore\n        /* \"#utility.yul\":8849:8853   */\n      0x12\n        /* \"#utility.yul\":8846:8847   */\n      0x04\n        /* \"#utility.yul\":8839:8854   */\n      mstore\n        /* \"#utility.yul\":8873:8877   */\n      0x24\n        /* \"#utility.yul\":8870:8871   */\n      0x00\n        /* \"#utility.yul\":8863:8878   */\n      revert\n        /* \"#utility.yul\":8890:9070   */\n    tag_118:\n        /* \"#utility.yul\":8938:9015   */\n      0x4e487b7100000000000000000000000000000000000000000000000000000000\n        /* \"#utility.yul\":8935:8936   */\n      0x00\n        /* \"#utility.yul\":8928:9016   */\n      mstore\n        /* \"#utility.yul\":9035:9039   */\n      0x11\n        /* \"#utility.yul\":9032:9033   */\n      0x04\n        /* \"#utility.yul\":9025:9040   */\n      mstore\n        /* \"#utility.yul\":9059:9063   */\n      0x24\n        /* \"#utility.yul\":9056:9057   */\n      0x00\n        /* \"#utility.yul\":9049:9064   */\n      revert\n        /* \"#utility.yul\":9076:9261   */\n    tag_45:\n        /* \"#utility.yul\":9116:9117   */\n      0x00\n        /* \"#utility.yul\":9133:9153   */\n      tag_231\n        /* \"#utility.yul\":9151:9152   */\n      dup3\n        /* \"#utility.yul\":9133:9153   */\n      tag_93\n      jump\t// in\n    tag_231:\n        /* \"#utility.yul\":9128:9153   */\n      swap2\n      pop\n        /* \"#utility.yul\":9167:9187   */\n      tag_232\n        /* \"#utility.yul\":9185:9186   */\n      dup4\n        /* \"#utility.yul\":9167:9187   */\n      tag_93\n      jump\t// in\n    tag_232:\n        /* \"#utility.yul\":9162:9187   */\n      swap3\n      pop\n        /* \"#utility.yul\":9206:9207   */\n      dup3\n        /* \"#utility.yul\":9196:9231   */\n      tag_233\n      jumpi\n        /* \"#utility.yul\":9211:9229   */\n      tag_234\n      tag_117\n      jump\t// in\n    tag_234:\n        /* \"#utility.yul\":9196:9231   */\n    tag_233:\n        /* \"#utility.yul\":9253:9254   */\n      dup3\n        /* \"#utility.yul\":9250:9251   */\n      dup3\n        /* \"#utility.yul\":9246:9255   */\n      div\n        /* \"#utility.yul\":9241:9255   */\n      swap1\n      pop\n        /* \"#utility.yul\":9076:9261   */\n      swap3\n      swap2\n      pop\n      pop\n      jump\t// out\n        /* \"#utility.yul\":9267:9458   */\n    tag_47:\n        /* \"#utility.yul\":9307:9310   */\n      0x00\n        /* \"#utility.yul\":9326:9346   */\n      tag_236\n        /* \"#utility.yul\":9344:9345   */\n      dup3\n        /* \"#utility.yul\":9326:9346   */\n      tag_93\n      jump\t// in\n    tag_236:\n        /* \"#utility.yul\":9321:9346   */\n      swap2\n      pop\n        /* \"#utility.yul\":9360:9380   */\n      tag_237\n        /* \"#utility.yul\":9378:9379   */\n      dup4\n        /* \"#utility.yul\":9360:9380   */\n      tag_93\n      jump\t// in\n    tag_237:\n        /* \"#utility.yul\":9355:9380   */\n      swap3\n      pop\n        /* \"#utility.yul\":9403:9404   */\n      dup3\n        /* \"#utility.yul\":9400:9401   */\n      dup3\n        /* \"#utility.yul\":9396:9405   */\n      add\n        /* \"#utility.yul\":9389:9405   */\n      swap1\n      pop\n        /* \"#utility.yul\":9424:9427   */\n      dup1\n        /* \"#utility.yul\":9421:9422   */\n      dup3\n        /* \"#utility.yul\":9418:9428   */\n      gt\n        /* \"#utility.yul\":9415:9451   */\n      iszero\n      tag_238\n      jumpi\n        /* \"#utility.yul\":9431:9449   */\n      tag_239\n      tag_118\n      jump\t// in\n    tag_239:\n        /* \"#utility.yul\":9415:9451   */\n    tag_238:\n        /* \"#utility.yul\":9267:9458   */\n      swap3\n      swap2\n      pop\n      pop\n      jump\t// out\n        /* \"#utility.yul\":9464:9906   */\n    tag_49:\n        /* \"#utility.yul\":9613:9617   */\n      0x00\n        /* \"#utility.yul\":9651:9653   */\n      0x60\n        /* \"#utility.yul\":9640:9649   */\n      dup3\n        /* \"#utility.yul\":9636:9654   */\n      add\n        /* \"#utility.yul\":9628:9654   */\n      swap1\n      pop\n        /* \"#utility.yul\":9664:9735   */\n      tag_241\n        /* \"#utility.yul\":9732:9733   */\n      0x00\n        /* \"#utility.yul\":9721:9730   */\n      dup4\n        /* \"#utility.yul\":9717:9734   */\n      add\n        /* \"#utility.yul\":9708:9714   */\n      dup7\n        /* \"#utility.yul\":9664:9735   */\n      tag_101\n      jump\t// in\n    tag_241:\n        /* \"#utility.yul\":9745:9817   */\n      tag_242\n        /* \"#utility.yul\":9813:9815   */\n      0x20\n        /* \"#utility.yul\":9802:9811   */\n      dup4\n        /* \"#utility.yul\":9798:9816   */\n      add\n        /* \"#utility.yul\":9789:9795   */\n      dup6\n        /* \"#utility.yul\":9745:9817   */\n      tag_100\n      jump\t// in\n    tag_242:\n        /* \"#utility.yul\":9827:9899   */\n      tag_243\n        /* \"#utility.yul\":9895:9897   */\n      0x40\n        /* \"#utility.yul\":9884:9893   */\n      dup4\n        /* \"#utility.yul\":9880:9898   */\n      add\n        /* \"#utility.yul\":9871:9877   */\n      dup5\n        /* \"#utility.yul\":9827:9899   */\n      tag_101\n      jump\t// in\n    tag_243:\n        /* \"#utility.yul\":9464:9906   */\n      swap5\n      swap4\n      pop\n      pop\n      pop\n      pop\n      jump\t// out\n        /* \"#utility.yul\":9912:10145   */\n    tag_52:\n        /* \"#utility.yul\":9951:9954   */\n      0x00\n        /* \"#utility.yul\":9974:9998   */\n      tag_245\n        /* \"#utility.yul\":9992:9997   */\n      dup3\n        /* \"#utility.yul\":9974:9998   */\n      tag_93\n      jump\t// in\n    tag_245:\n        /* \"#utility.yul\":9965:9998   */\n      swap2\n      pop\n        /* \"#utility.yul\":10020:10086   */\n      0xffffffffffffffffffffffffffffffffffffffffffffffffffffffffffffffff\n        /* \"#utility.yul\":10013:10018   */\n      dup3\n        /* \"#utility.yul\":10010:10087   */\n      sub\n        /* \"#utility.yul\":10007:10110   */\n      tag_246\n      jumpi\n        /* \"#utility.yul\":10090:10108   */\n      tag_247\n      tag_118\n      jump\t// in\n    tag_247:\n        /* \"#utility.yul\":10007:10110   */\n    tag_246:\n        /* \"#utility.yul\":10137:10138   */\n      0x01\n        /* \"#utility.yul\":10130:10135   */\n      dup3\n        /* \"#utility.yul\":10126:10139   */\n      add\n        /* \"#utility.yul\":10119:10139   */\n      swap1\n      pop\n        /* \"#utility.yul\":9912:10145   */\n      swap2\n      swap1\n      pop\n      jump\t// out\n        /* \"#utility.yul\":10151:10331   */\n    tag_119:\n        /* \"#utility.yul\":10199:10276   */\n      0x4e487b7100000000000000000000000000000000000000000000000000000000\n        /* \"#utility.yul\":10196:10197   */\n      0x00\n        /* \"#utility.yul\":10189:10277   */\n      mstore\n        /* \"#utility.yul\":10296:10300   */\n      0x22\n        /* \"#utility.yul\":10293:10294   */\n      0x04\n        /* \"#utility.yul\":10286:10301   */\n      mstore\n        /* \"#utility.yul\":10320:10324   */\n      0x24\n        /* \"#utility.yul\":10317:10318   */\n      0x00\n        /* \"#utility.yul\":10310:10325   */\n      revert\n        /* \"#utility.yul\":10337:10657   */\n    tag_85:\n        /* \"#utility.yul\":10381:10387   */\n      0x00\n        /* \"#utility.yul\":10418:10419   */\n      0x02\n        /* \"#utility.yul\":10412:10416   */\n      dup3\n        /* \"#utility.yul\":10408:10420   */\n      div\n        /* \"#utility.yul\":10398:10420   */\n      swap1\n      pop\n        /* \"#utility.yul\":10465:10466   */\n      0x01\n        /* \"#utility.yul\":10459:10463   */\n      dup3\n        /* \"#utility.yul\":10455:10467   */\n      and\n        /* \"#utility.yul\":10486:10504   */\n      dup1\n        /* \"#utility.yul\":10476:10557   */\n      tag_250\n      jumpi\n        /* \"#utility.yul\":10542:10546   */\n      0x7f\n        /* \"#utility.yul\":10534:10540   */\n      dup3\n        /* \"#utility.yul\":10530:10547   */\n      and\n        /* \"#utility.yul\":10520:10547   */\n      swap2\n      pop\n        /* \"#utility.yul\":10476:10557   */\n    tag_250:\n        /* \"#utility.yul\":10604:10606   */\n      0x20\n        /* \"#utility.yul\":10596:10602   */\n      dup3\n        /* \"#utility.yul\":10593:10607   */\n      lt\n        /* \"#utility.yul\":10573:10591   */\n      dup2\n        /* \"#utility.yul\":10570:10608   */\n      sub\n        /* \"#utility.yul\":10567:10651   */\n      tag_251\n      jumpi\n        /* \"#utility.yul\":10623:10641   */\n      tag_252\n      tag_119\n      jump\t// in\n    tag_252:\n        /* \"#utility.yul\":10567:10651   */\n    tag_251:\n        /* \"#utility.yul\":10388:10657   */\n      pop\n        /* \"#utility.yul\":10337:10657   */\n      swap2\n      swap1\n      pop\n      jump\t// out\n        /* \"#utility.yul\":10663:10804   */\n    tag_120:\n        /* \"#utility.yul\":10712:10716   */\n      0x00\n        /* \"#utility.yul\":10735:10738   */\n      dup2\n        /* \"#utility.yul\":10727:10738   */\n      swap1\n      pop\n        /* \"#utility.yul\":10758:10761   */\n      dup2\n        /* \"#utility.yul\":10755:10756   */\n      0x00\n        /* \"#utility.yul\":10748:10762   */\n      mstore\n        /* \"#utility.yul\":10792:10796   */\n      0x20\n        /* \"#utility.yul\":10789:10790   */\n      0x00\n        /* \"#utility.yul\":10779:10797   */\n      keccak256\n        /* \"#utility.yul\":10771:10797   */\n      swap1\n      pop\n        /* \"#utility.yul\":10663:10804   */\n      swap2\n      swap1\n      pop\n      jump\t// out\n        /* \"#utility.yul\":10810:10903   */\n    tag_121:\n        /* \"#utility.yul\":10847:10853   */\n      0x00\n        /* \"#utility.yul\":10894:10896   */\n      0x20\n        /* \"#utility.yul\":10889:10891   */\n      0x1f\n        /* \"#utility.yul\":10882:10887   */\n      dup4\n        /* \"#utility.yul\":10878:10892   */\n      add\n        /* \"#utility.yul\":10874:10897   */\n      div\n        /* \"#utility.yul\":10864:10897   */\n      swap1\n      pop\n        /* \"#utility.yul\":10810:10903   */\n      swap2\n      swap1\n      pop\n      jump\t// out\n        /* \"#utility.yul\":10909:11016   */\n    tag_122:\n        /* \"#utility.yul\":10953:10961   */\n      0x00\n        /* \"#utility.yul\":11003:11008   */\n      dup3\n        /* \"#utility.yul\":10997:11001   */\n      dup3\n        /* \"#utility.yul\":10993:11009   */\n      shl\n        /* \"#utility.yul\":10972:11009   */\n      swap1\n      pop\n        /* \"#utility.yul\":10909:11016   */\n      swap3\n      swap2\n      pop\n      pop\n      jump\t// out\n        /* \"#utility.yul\":11022:11415   */\n    tag_123:\n        /* \"#utility.yul\":11091:11097   */\n      0x00\n        /* \"#utility.yul\":11141:11142   */\n      0x08\n        /* \"#utility.yul\":11129:11139   */\n      dup4\n        /* \"#utility.yul\":11125:11143   */\n      mul\n        /* \"#utility.yul\":11164:11261   */\n      tag_257\n        /* \"#utility.yul\":11194:11260   */\n      0xffffffffffffffffffffffffffffffffffffffffffffffffffffffffffffffff\n        /* \"#utility.yul\":11183:11192   */\n      dup3\n        /* \"#utility.yul\":11164:11261   */\n      tag_122\n      jump\t// in\n    tag_257:\n        /* \"#utility.yul\":11282:11321   */\n      tag_258\n        /* \"#utility.yul\":11312:11320   */\n      dup7\n        /* \"#utility.yul\":11301:11310   */\n      dup4\n        /* \"#utility.yul\":11282:11321   */\n      tag_122\n      jump\t// in\n    tag_258:\n        /* \"#utility.yul\":11270:11321   */\n      swap6\n      pop\n        /* \"#utility.yul\":11354:11358   */\n      dup1\n        /* \"#utility.yul\":11350:11359   */\n      not\n        /* \"#utility.yul\":11343:11348   */\n      dup5\n        /* \"#utility.yul\":11339:11360   */\n      and\n        /* \"#utility.yul\":11330:11360   */\n      swap4\n      pop\n        /* \"#utility.yul\":11403:11407   */\n      dup1\n        /* \"#utility.yul\":11393:11401   */\n      dup7\n        /* \"#utility.yul\":11389:11408   */\n      and\n        /* \"#utility.yul\":11382:11387   */\n      dup5\n        /* \"#utility.yul\":11379:11409   */\n      or\n        /* \"#utility.yul\":11369:11409   */\n      swap3\n      pop\n        /* \"#utility.yul\":11098:11415   */\n      pop\n      pop\n        /* \"#utility.yul\":11022:11415   */\n      swap4\n      swap3\n      pop\n      pop\n      pop\n      jump\t// out\n        /* \"#utility.yul\":11421:11481   */\n    tag_124:\n        /* \"#utility.yul\":11449:11452   */\n      0x00\n        /* \"#utility.yul\":11470:11475   */\n      dup2\n        /* \"#utility.yul\":11463:11475   */\n      swap1\n      pop\n        /* \"#utility.yul\":11421:11481   */\n      swap2\n      swap1\n      pop\n      jump\t// out\n        /* \"#utility.yul\":11487:11629   */\n    tag_125:\n        /* \"#utility.yul\":11537:11546   */\n      0x00\n        /* \"#utility.yul\":11570:11623   */\n      tag_261\n        /* \"#utility.yul\":11588:11622   */\n      tag_262\n        /* \"#utility.yul\":11597:11621   */\n      tag_263\n        /* \"#utility.yul\":11615:11620   */\n      dup5\n        /* \"#utility.yul\":11597:11621   */\n      tag_93\n      jump\t// in\n    tag_263:\n        /* \"#utility.yul\":11588:11622   */\n      tag_124\n      jump\t// in\n    tag_262:\n        /* \"#utility.yul\":11570:11623   */\n      tag_93\n      jump\t// in\n    tag_261:\n        /* \"#utility.yul\":11557:11623   */\n      swap1\n      pop\n        /* \"#utility.yul\":11487:11629   */\n      swap2\n      swap1\n      pop\n      jump\t// out\n        /* \"#utility.yul\":11635:11710   */\n    tag_126:\n        /* \"#utility.yul\":11678:11681   */\n      0x00\n        /* \"#utility.yul\":11699:11704   */\n      dup2\n        /* \"#utility.yul\":11692:11704   */\n      swap1\n      pop\n        /* \"#utility.yul\":11635:11710   */\n      swap2\n      swap1\n      pop\n      jump\t// out\n        /* \"#utility.yul\":11716:11985   */\n    tag_127:\n        /* \"#utility.yul\":11826:11865   */\n      tag_266\n        /* \"#utility.yul\":11857:11864   */\n      dup4\n        /* \"#utility.yul\":11826:11865   */\n      tag_125\n      jump\t// in\n    tag_266:\n        /* \"#utility.yul\":11887:11978   */\n      tag_267\n        /* \"#utility.yul\":11936:11977   */\n      tag_268\n        /* \"#utility.yul\":11960:11976   */\n      dup3\n        /* \"#utility.yul\":11936:11977   */\n      tag_126\n      jump\t// in\n    tag_268:\n        /* \"#utility.yul\":11928:11934   */\n      dup5\n        /* \"#utility.yul\":11921:11925   */\n      dup5\n        /* \"#utility.yul\":11915:11926   */\n      sload\n        /* \"#utility.yul\":11887:11978   */\n      tag_123\n      jump\t// in\n    tag_267:\n        /* \"#utility.yul\":11881:11885   */\n      dup3\n        /* \"#utility.yul\":11874:11979   */\n      sstore\n        /* \"#utility.yul\":11792:11985   */\n      pop\n        /* \"#utility.yul\":11716:11985   */\n      pop\n      pop\n      pop\n      jump\t// out\n        /* \"#utility.yul\":11991:12064   */\n    tag_128:\n        /* \"#utility.yul\":12036:12039   */\n      0x00\n        /* \"#utility.yul\":11991:12064   */\n      swap1\n      jump\t// out\n        /* \"#utility.yul\":12070:12259   */\n    tag_129:\n        /* \"#utility.yul\":12147:12179   */\n      tag_271\n      tag_128\n      jump\t// in\n    tag_271:\n        /* \"#utility.yul\":12188:12253   */\n      tag_272\n        /* \"#utility.yul\":12246:12252   */\n      dup2\n        /* \"#utility.yul\":12238:12244   */\n      dup5\n        /* \"#utility.yul\":12232:12236   */\n      dup5\n        /* \"#utility.yul\":12188:12253   */\n      tag_127\n      jump\t// in\n    tag_272:\n        /* \"#utility.yul\":12123:12259   */\n      pop\n        /* \"#utility.yul\":12070:12259   */\n      pop\n      pop\n      jump\t// out\n        /* \"#utility.yul\":12265:12451   */\n    tag_130:\n        /* \"#utility.yul\":12325:12445   */\n    tag_274:\n        /* \"#utility.yul\":12342:12345   */\n      dup2\n        /* \"#utility.yul\":12335:12340   */\n      dup2\n        /* \"#utility.yul\":12332:12346   */\n      lt\n        /* \"#utility.yul\":12325:12445   */\n      iszero\n      tag_276\n      jumpi\n        /* \"#utility.yul\":12396:12435   */\n      tag_277\n        /* \"#utility.yul\":12433:12434   */\n      0x00\n        /* \"#utility.yul\":12426:12431   */\n      dup3\n        /* \"#utility.yul\":12396:12435   */\n      tag_129\n      jump\t// in\n    tag_277:\n        /* \"#utility.yul\":12369:12370   */\n      0x01\n        /* \"#utility.yul\":12362:12367   */\n      dup2\n        /* \"#utility.yul\":12358:12371   */\n      add\n        /* \"#utility.yul\":12349:12371   */\n      swap1\n      pop\n        /* \"#utility.yul\":12325:12445   */\n      jump(tag_274)\n    tag_276:\n        /* \"#utility.yul\":12265:12451   */\n      pop\n      pop\n      jump\t// out\n        /* \"#utility.yul\":12457:13000   */\n    tag_131:\n        /* \"#utility.yul\":12558:12560   */\n      0x1f\n        /* \"#utility.yul\":12553:12556   */\n      dup3\n        /* \"#utility.yul\":12550:12561   */\n      gt\n        /* \"#utility.yul\":12547:12993   */\n      iszero\n      tag_279\n      jumpi\n        /* \"#utility.yul\":12592:12630   */\n      tag_280\n        /* \"#utility.yul\":12624:12629   */\n      dup2\n        /* \"#utility.yul\":12592:12630   */\n      tag_120\n      jump\t// in\n    tag_280:\n        /* \"#utility.yul\":12676:12705   */\n      tag_281\n        /* \"#utility.yul\":12694:12704   */\n      dup5\n        /* \"#utility.yul\":12676:12705   */\n      tag_121\n      jump\t// in\n    tag_281:\n        /* \"#utility.yul\":12666:12674   */\n      dup2\n        /* \"#utility.yul\":12662:12706   */\n      add\n        /* \"#utility.yul\":12859:12861   */\n      0x20\n        /* \"#utility.yul\":12847:12857   */\n      dup6\n        /* \"#utility.yul\":12844:12862   */\n      lt\n        /* \"#utility.yul\":12841:12890   */\n      iszero\n      tag_282\n      jumpi\n        /* \"#utility.yul\":12880:12888   */\n      dup2\n        /* \"#utility.yul\":12865:12888   */\n      swap1\n      pop\n        /* \"#utility.yul\":12841:12890   */\n    tag_282:\n        /* \"#utility.yul\":12903:12983   */\n      tag_283\n        /* \"#utility.yul\":12959:12981   */\n      tag_284\n        /* \"#utility.yul\":12977:12980   */\n      dup6\n        /* \"#utility.yul\":12959:12981   */\n      tag_121\n      jump\t// in\n    tag_284:\n        /* \"#utility.yul\":12949:12957   */\n      dup4\n        /* \"#utility.yul\":12945:12982   */\n      add\n        /* \"#utility.yul\":12932:12943   */\n      dup3\n        /* \"#utility.yul\":12903:12983   */\n      tag_130\n      jump\t// in\n    tag_283:\n        /* \"#utility.yul\":12562:12993   */\n      pop\n      pop\n        /* \"#utility.yul\":12547:12993   */\n    tag_279:\n        /* \"#utility.yul\":12457:13000   */\n      pop\n      pop\n      pop\n      jump\t// out\n        /* \"#utility.yul\":13006:13123   */\n    tag_132:\n        /* \"#utility.yul\":13060:13068   */\n      0x00\n        /* \"#utility.yul\":13110:13115   */\n      dup3\n        /* \"#utility.yul\":13104:13108   */\n      dup3\n        /* \"#utility.yul\":13100:13116   */\n      shr\n        /* \"#utility.yul\":13079:13116   */\n      swap1\n      pop\n        /* \"#utility.yul\":13006:13123   */\n      swap3\n      swap2\n      pop\n      pop\n      jump\t// out\n        /* \"#utility.yul\":13129:13298   */\n    tag_133:\n        /* \"#utility.yul\":13173:13179   */\n      0x00\n        /* \"#utility.yul\":13206:13257   */\n      tag_287\n        /* \"#utility.yul\":13254:13255   */\n      0x00\n        /* \"#utility.yul\":13250:13256   */\n      not\n        /* \"#utility.yul\":13242:13247   */\n      dup5\n        /* \"#utility.yul\":13239:13240   */\n      0x08\n        /* \"#utility.yul\":13235:13248   */\n      mul\n        /* \"#utility.yul\":13206:13257   */\n      tag_132\n      jump\t// in\n    tag_287:\n        /* \"#utility.yul\":13202:13258   */\n      not\n        /* \"#utility.yul\":13287:13291   */\n      dup1\n        /* \"#utility.yul\":13281:13285   */\n      dup4\n        /* \"#utility.yul\":13277:13292   */\n      and\n        /* \"#utility.yul\":13267:13292   */\n      swap2\n      pop\n        /* \"#utility.yul\":13180:13298   */\n      pop\n        /* \"#utility.yul\":13129:13298   */\n      swap3\n      swap2\n      pop\n      pop\n      jump\t// out\n        /* \"#utility.yul\":13303:13598   */\n    tag_134:\n        /* \"#utility.yul\":13379:13383   */\n      0x00\n        /* \"#utility.yul\":13525:13554   */\n      tag_289\n        /* \"#utility.yul\":13550:13553   */\n      dup4\n        /* \"#utility.yul\":13544:13548   */\n      dup4\n        /* \"#utility.yul\":13525:13554   */\n      tag_133\n      jump\t// in\n    tag_289:\n        /* \"#utility.yul\":13517:13554   */\n      swap2\n      pop\n        /* \"#utility.yul\":13587:13590   */\n      dup3\n        /* \"#utility.yul\":13584:13585   */\n      0x02\n        /* \"#utility.yul\":13580:13591   */\n      mul\n        /* \"#utility.yul\":13574:13578   */\n      dup3\n        /* \"#utility.yul\":13571:13592   */\n      or\n        /* \"#utility.yul\":13563:13592   */\n      swap1\n      pop\n        /* \"#utility.yul\":13303:13598   */\n      swap3\n      swap2\n      pop\n      pop\n      jump\t// out\n        /* \"#utility.yul\":13603:14998   */\n    tag_54:\n        /* \"#utility.yul\":13720:13757   */\n      tag_291\n        /* \"#utility.yul\":13753:13756   */\n      dup3\n        /* \"#utility.yul\":13720:13757   */\n      tag_111\n      jump\t// in\n    tag_291:\n        /* \"#utility.yul\":13822:13840   */\n      0xffffffffffffffff\n        /* \"#utility.yul\":13814:13820   */\n      dup2\n        /* \"#utility.yul\":13811:13841   */\n      gt\n        /* \"#utility.yul\":13808:13864   */\n      iszero\n      tag_292\n      jumpi\n        /* \"#utility.yul\":13844:13862   */\n      tag_293\n      tag_60\n      jump\t// in\n    tag_293:\n        /* \"#utility.yul\":13808:13864   */\n    tag_292:\n        /* \"#utility.yul\":13888:13926   */\n      tag_294\n        /* \"#utility.yul\":13920:13924   */\n      dup3\n        /* \"#utility.yul\":13914:13925   */\n      sload\n        /* \"#utility.yul\":13888:13926   */\n      tag_85\n      jump\t// in\n    tag_294:\n        /* \"#utility.yul\":13973:14040   */\n      tag_295\n        /* \"#utility.yul\":14033:14039   */\n      dup3\n        /* \"#utility.yul\":14025:14031   */\n      dup3\n        /* \"#utility.yul\":14019:14023   */\n      dup6\n        /* \"#utility.yul\":13973:14040   */\n      tag_131\n      jump\t// in\n    tag_295:\n        /* \"#utility.yul\":14067:14068   */\n      0x00\n        /* \"#utility.yul\":14091:14095   */\n      0x20\n        /* \"#utility.yul\":14078:14095   */\n      swap1\n      pop\n        /* \"#utility.yul\":14123:14125   */\n      0x1f\n        /* \"#utility.yul\":14115:14121   */\n      dup4\n        /* \"#utility.yul\":14112:14126   */\n      gt\n        /* \"#utility.yul\":14140:14141   */\n      0x01\n        /* \"#utility.yul\":14135:14753   */\n      dup2\n      eq\n      tag_297\n      jumpi\n        /* \"#utility.yul\":14797:14798   */\n      0x00\n        /* \"#utility.yul\":14814:14820   */\n      dup5\n        /* \"#utility.yul\":14811:14888   */\n      iszero\n      tag_298\n      jumpi\n        /* \"#utility.yul\":14863:14872   */\n      dup3\n        /* \"#utility.yul\":14858:14861   */\n      dup8\n        /* \"#utility.yul\":14854:14873   */\n      add\n        /* \"#utility.yul\":14848:14874   */\n      mload\n        /* \"#utility.yul\":14839:14874   */\n      swap1\n      pop\n        /* \"#utility.yul\":14811:14888   */\n    tag_298:\n        /* \"#utility.yul\":14914:14981   */\n      tag_299\n        /* \"#utility.yul\":14974:14980   */\n      dup6\n        /* \"#utility.yul\":14967:14972   */\n      dup3\n        /* \"#utility.yul\":14914:14981   */\n      tag_134\n      jump\t// in\n    tag_299:\n        /* \"#utility.yul\":14908:14912   */\n      dup7\n        /* \"#utility.yul\":14901:14982   */\n      sstore\n        /* \"#utility.yul\":14770:14992   */\n      pop\n        /* \"#utility.yul\":14105:14992   */\n      jump(tag_296)\n        /* \"#utility.yul\":14135:14753   */\n    tag_297:\n        /* \"#utility.yul\":14187:14191   */\n      0x1f\n        /* \"#utility.yul\":14183:14192   */\n      not\n        /* \"#utility.yul\":14175:14181   */\n      dup5\n        /* \"#utility.yul\":14171:14193   */\n      and\n        /* \"#utility.yul\":14221:14258   */\n      tag_300\n        /* \"#utility.yul\":14253:14257   */\n      dup7\n        /* \"#utility.yul\":14221:14258   */\n      tag_120\n      jump\t// in\n    tag_300:\n        /* \"#utility.yul\":14280:14281   */\n      0x00\n        /* \"#utility.yul\":14294:14502   */\n    tag_301:\n        /* \"#utility.yul\":14308:14315   */\n      dup3\n        /* \"#utility.yul\":14305:14306   */\n      dup2\n        /* \"#utility.yul\":14302:14316   */\n      lt\n        /* \"#utility.yul\":14294:14502   */\n      iszero\n      tag_303\n      jumpi\n        /* \"#utility.yul\":14387:14396   */\n      dup5\n        /* \"#utility.yul\":14382:14385   */\n      dup10\n        /* \"#utility.yul\":14378:14397   */\n      add\n        /* \"#utility.yul\":14372:14398   */\n      mload\n        /* \"#utility.yul\":14364:14370   */\n      dup3\n        /* \"#utility.yul\":14357:14399   */\n      sstore\n        /* \"#utility.yul\":14438:14439   */\n      0x01\n        /* \"#utility.yul\":14430:14436   */\n      dup3\n        /* \"#utility.yul\":14426:14440   */\n      add\n        /* \"#utility.yul\":14416:14440   */\n      swap2\n      pop\n        /* \"#utility.yul\":14485:14487   */\n      0x20\n        /* \"#utility.yul\":14474:14483   */\n      dup6\n        /* \"#utility.yul\":14470:14488   */\n      add\n        /* \"#utility.yul\":14457:14488   */\n      swap5\n      pop\n        /* \"#utility.yul\":14331:14335   */\n      0x20\n        /* \"#utility.yul\":14328:14329   */\n      dup2\n        /* \"#utility.yul\":14324:14336   */\n      add\n        /* \"#utility.yul\":14319:14336   */\n      swap1\n      pop\n        /* \"#utility.yul\":14294:14502   */\n      jump(tag_301)\n    tag_303:\n        /* \"#utility.yul\":14530:14536   */\n      dup7\n        /* \"#utility.yul\":14521:14528   */\n      dup4\n        /* \"#utility.yul\":14518:14537   */\n      lt\n        /* \"#utility.yul\":14515:14694   */\n      iszero\n      tag_304\n      jumpi\n        /* \"#utility.yul\":14588:14597   */\n      dup5\n        /* \"#utility.yul\":14583:14586   */\n      dup10\n        /* \"#utility.yul\":14579:14598   */\n      add\n        /* \"#utility.yul\":14573:14599   */\n      mload\n        /* \"#utility.yul\":14631:14679   */\n      tag_305\n        /* \"#utility.yul\":14673:14677   */\n      0x1f\n        /* \"#utility.yul\":14665:14671   */\n      dup10\n        /* \"#utility.yul\":14661:14678   */\n      and\n        /* \"#utility.yul\":14650:14659   */\n      dup3\n        /* \"#utility.yul\":14631:14679   */\n      tag_133\n      jump\t// in\n    tag_305:\n        /* \"#utility.yul\":14623:14629   */\n      dup4\n        /* \"#utility.yul\":14616:14680   */\n      sstore\n        /* \"#utility.yul\":14538:14694   */\n      pop\n        /* \"#utility.yul\":14515:14694   */\n    tag_304:\n        /* \"#utility.yul\":14740:14741   */\n      0x01\n        /* \"#utility.yul\":14736:14737   */\n      0x02\n        /* \"#utility.yul\":14728:14734   */\n      dup9\n        /* \"#utility.yul\":14724:14738   */\n      mul\n        /* \"#utility.yul\":14720:14742   */\n      add\n        /* \"#utility.yul\":14714:14718   */\n      dup9\n        /* \"#utility.yul\":14707:14743   */\n      sstore\n        /* \"#utility.yul\":14142:14753   */\n      pop\n      pop\n      pop\n        /* \"#utility.yul\":14105:14992   */\n    tag_296:\n      pop\n        /* \"#utility.yul\":13695:14998   */\n      pop\n      pop\n      pop\n        /* \"#utility.yul\":13603:14998   */\n      pop\n      pop\n      jump\t// out\n        /* \"#utility.yul\":15004:15648   */\n    tag_56:\n        /* \"#utility.yul\":15201:15205   */\n      0x00\n        /* \"#utility.yul\":15239:15242   */\n      0x80\n        /* \"#utility.yul\":15228:15237   */\n      dup3\n        /* \"#utility.yul\":15224:15243   */\n      add\n        /* \"#utility.yul\":15216:15243   */\n      swap1\n      pop\n        /* \"#utility.yul\":15253:15324   */\n      tag_307\n        /* \"#utility.yul\":15321:15322   */\n      0x00\n        /* \"#utility.yul\":15310:15319   */\n      dup4\n        /* \"#utility.yul\":15306:15323   */\n      add\n        /* \"#utility.yul\":15297:15303   */\n      dup8\n        /* \"#utility.yul\":15253:15324   */\n      tag_101\n      jump\t// in\n    tag_307:\n        /* \"#utility.yul\":15371:15380   */\n      dup2\n        /* \"#utility.yul\":15365:15369   */\n      dup2\n        /* \"#utility.yul\":15361:15381   */\n      sub\n        /* \"#utility.yul\":15356:15358   */\n      0x20\n        /* \"#utility.yul\":15345:15354   */\n      dup4\n        /* \"#utility.yul\":15341:15359   */\n      add\n        /* \"#utility.yul\":15334:15382   */\n      mstore\n        /* \"#utility.yul\":15399:15477   */\n      tag_308\n        /* \"#utility.yul\":15472:15476   */\n      dup2\n        /* \"#utility.yul\":15463:15469   */\n      dup7\n        /* \"#utility.yul\":15399:15477   */\n      tag_114\n      jump\t// in\n    tag_308:\n        /* \"#utility.yul\":15391:15477   */\n      swap1\n      pop\n        /* \"#utility.yul\":15487:15559   */\n      tag_309\n        /* \"#utility.yul\":15555:15557   */\n      0x40\n        /* \"#utility.yul\":15544:15553   */\n      dup4\n        /* \"#utility.yul\":15540:15558   */\n      add\n        /* \"#utility.yul\":15531:15537   */\n      dup6\n        /* \"#utility.yul\":15487:15559   */\n      tag_101\n      jump\t// in\n    tag_309:\n        /* \"#utility.yul\":15569:15641   */\n      tag_310\n        /* \"#utility.yul\":15637:15639   */\n      0x60\n        /* \"#utility.yul\":15626:15635   */\n      dup4\n        /* \"#utility.yul\":15622:15640   */\n      add\n        /* \"#utility.yul\":15613:15619   */\n      dup5\n        /* \"#utility.yul\":15569:15641   */\n      tag_101\n      jump\t// in\n    tag_310:\n        /* \"#utility.yul\":15004:15648   */\n      swap6\n      swap5\n      pop\n      pop\n      pop\n      pop\n      pop\n      jump\t// out\n        /* \"#utility.yul\":15654:15848   */\n    tag_66:\n        /* \"#utility.yul\":15694:15698   */\n      0x00\n        /* \"#utility.yul\":15714:15734   */\n      tag_312\n        /* \"#utility.yul\":15732:15733   */\n      dup3\n        /* \"#utility.yul\":15714:15734   */\n      tag_93\n      jump\t// in\n    tag_312:\n        /* \"#utility.yul\":15709:15734   */\n      swap2\n      pop\n        /* \"#utility.yul\":15748:15768   */\n      tag_313\n        /* \"#utility.yul\":15766:15767   */\n      dup4\n        /* \"#utility.yul\":15748:15768   */\n      tag_93\n      jump\t// in\n    tag_313:\n        /* \"#utility.yul\":15743:15768   */\n      swap3\n      pop\n        /* \"#utility.yul\":15792:15793   */\n      dup3\n        /* \"#utility.yul\":15789:15790   */\n      dup3\n        /* \"#utility.yul\":15785:15794   */\n      sub\n        /* \"#utility.yul\":15777:15794   */\n      swap1\n      pop\n        /* \"#utility.yul\":15816:15817   */\n      dup2\n        /* \"#utility.yul\":15810:15814   */\n      dup2\n        /* \"#utility.yul\":15807:15818   */\n      gt\n        /* \"#utility.yul\":15804:15841   */\n      iszero\n      tag_314\n      jumpi\n        /* \"#utility.yul\":15821:15839   */\n      tag_315\n      tag_118\n      jump\t// in\n    tag_315:\n        /* \"#utility.yul\":15804:15841   */\n    tag_314:\n        /* \"#utility.yul\":15654:15848   */\n      swap3\n      swap2\n      pop\n      pop\n      jump\t// out\n        /* \"#utility.yul\":15854:16034   */\n    tag_69:\n        /* \"#utility.yul\":15902:15979   */\n      0x4e487b7100000000000000000000000000000000000000000000000000000000\n        /* \"#utility.yul\":15899:15900   */\n      0x00\n        /* \"#utility.yul\":15892:15980   */\n      mstore\n        /* \"#utility.yul\":15999:16003   */\n      0x32\n        /* \"#utility.yul\":15996:15997   */\n      0x04\n        /* \"#utility.yul\":15989:16004   */\n      mstore\n        /* \"#utility.yul\":16023:16027   */\n      0x24\n        /* \"#utility.yul\":16020:16021   */\n      0x00\n        /* \"#utility.yul\":16013:16028   */\n      revert\n        /* \"#utility.yul\":16040:16450   */\n    tag_78:\n        /* \"#utility.yul\":16080:16087   */\n      0x00\n        /* \"#utility.yul\":16103:16123   */\n      tag_318\n        /* \"#utility.yul\":16121:16122   */\n      dup3\n        /* \"#utility.yul\":16103:16123   */\n      tag_93\n      jump\t// in\n    tag_318:\n        /* \"#utility.yul\":16098:16123   */\n      swap2\n      pop\n        /* \"#utility.yul\":16137:16157   */\n      tag_319\n        /* \"#utility.yul\":16155:16156   */\n      dup4\n        /* \"#utility.yul\":16137:16157   */\n      tag_93\n      jump\t// in\n    tag_319:\n        /* \"#utility.yul\":16132:16157   */\n      swap3\n      pop\n        /* \"#utility.yul\":16192:16193   */\n      dup3\n        /* \"#utility.yul\":16189:16190   */\n      dup3\n        /* \"#utility.yul\":16185:16194   */\n      mul\n        /* \"#utility.yul\":16214:16244   */\n      tag_320\n        /* \"#utility.yul\":16232:16243   */\n      dup2\n        /* \"#utility.yul\":16214:16244   */\n      tag_93\n      jump\t// in\n    tag_320:\n        /* \"#utility.yul\":16203:16244   */\n      swap2\n      pop\n        /* \"#utility.yul\":16393:16394   */\n      dup3\n        /* \"#utility.yul\":16384:16391   */\n      dup3\n        /* \"#utility.yul\":16380:16395   */\n      div\n        /* \"#utility.yul\":16377:16378   */\n      dup5\n        /* \"#utility.yul\":16374:16396   */\n      eq\n        /* \"#utility.yul\":16354:16355   */\n      dup4\n        /* \"#utility.yul\":16347:16356   */\n      iszero\n        /* \"#utility.yul\":16327:16410   */\n      or\n        /* \"#utility.yul\":16304:16443   */\n      tag_321\n      jumpi\n        /* \"#utility.yul\":16423:16441   */\n      tag_322\n      tag_118\n      jump\t// in\n    tag_322:\n        /* \"#utility.yul\":16304:16443   */\n    tag_321:\n        /* \"#utility.yul\":16088:16450   */\n      pop\n        /* \"#utility.yul\":16040:16450   */\n      swap3\n      swap2\n      pop\n      pop\n      jump\t// out\n        /* \"#utility.yul\":16456:16788   */\n    tag_83:\n        /* \"#utility.yul\":16577:16581   */\n      0x00\n        /* \"#utility.yul\":16615:16617   */\n      0x40\n        /* \"#utility.yul\":16604:16613   */\n      dup3\n        /* \"#utility.yul\":16600:16618   */\n      add\n        /* \"#utility.yul\":16592:16618   */\n      swap1\n      pop\n        /* \"#utility.yul\":16628:16699   */\n      tag_324\n        /* \"#utility.yul\":16696:16697   */\n      0x00\n        /* \"#utility.yul\":16685:16694   */\n      dup4\n        /* \"#utility.yul\":16681:16698   */\n      add\n        /* \"#utility.yul\":16672:16678   */\n      dup6\n        /* \"#utility.yul\":16628:16699   */\n      tag_101\n      jump\t// in\n    tag_324:\n        /* \"#utility.yul\":16709:16781   */\n      tag_325\n        /* \"#utility.yul\":16777:16779   */\n      0x20\n        /* \"#utility.yul\":16766:16775   */\n      dup4\n        /* \"#utility.yul\":16762:16780   */\n      add\n        /* \"#utility.yul\":16753:16759   */\n      dup5\n        /* \"#utility.yul\":16709:16781   */\n      tag_101\n      jump\t// in\n    tag_325:\n        /* \"#utility.yul\":16456:16788   */\n      swap4\n      swap3\n      pop\n      pop\n      pop\n      jump\t// out\n\n    auxdata: 0xa264697066735822122042b2162a912f9ddfa31a7c981710b71c5c7af4091636f065a0d2968b065e14ae64736f6c63430008190033\n}\n",
				"bytecode": {
					"linkReferences": {},
					"object": "6080604052348015600e575f80fd5b506111488061001c5f395ff3fe608060405260043610610054575f3560e01c8063133499861461005857806351ed82881461009557806355a24d3b146100b15780639a5c57cd146100d9578063b256a1c414610101578063f7b108081461012b575b5f80fd5b348015610063575f80fd5b5061007e60048036038101906100799190610827565b610169565b60405161008c929190610883565b60405180910390f35b6100af60048036038101906100aa91906108aa565b6101b3565b005b3480156100bc575f80fd5b506100d760048036038101906100d29190610a11565b610351565b005b3480156100e4575f80fd5b506100ff60048036038101906100fa9190610a7d565b610404565b005b34801561010c575f80fd5b506101156106d8565b6040516101229190610abb565b60405180910390f35b348015610136575f80fd5b50610151600480360381019061014c91906108aa565b6106de565b60405161016093929190610b34565b60405180910390f35b6001602052815f5260405f20602052805f5260405f205f9150915050805f015f9054906101000a900473ffffffffffffffffffffffffffffffffffffffff16908060010154905082565b5f805f8381526020019081526020015f209050806002015434101561020d576040517f08c379a000000000000000000000000000000000000000000000000000000000815260040161020490610be0565b60405180910390fd5b5f81600201543461021e9190610c58565b90503360015f8581526020019081526020015f205f3373ffffffffffffffffffffffffffffffffffffffff1673ffffffffffffffffffffffffffffffffffffffff1681526020019081526020015f205f015f6101000a81548173ffffffffffffffffffffffffffffffffffffffff021916908373ffffffffffffffffffffffffffffffffffffffff1602179055508060015f8581526020019081526020015f205f3373ffffffffffffffffffffffffffffffffffffffff1673ffffffffffffffffffffffffffffffffffffffff1681526020019081526020015f206001015f82825461030a9190610c88565b925050819055507f6329e40c0365262ebbff5ca819385c2b9713dcaa050ed07866d72c441395699a83338360405161034493929190610cbb565b60405180910390a1505050565b60025f81548092919061036390610cf0565b91905055506040518060600160405280848152602001838152602001828152505f8060025481526020019081526020015f205f820151815f0190816103a89190610f31565b5060208201518160010155604082015181600201559050507f0619177337325f2035f1286340ae066d525900d5906cc94f895375afffa19da16002548484846040516103f79493929190611000565b60405180910390a1505050565b5f805f8481526020019081526020015f2090505f8060025467ffffffffffffffff811115610435576104346108ed565b5b6040519080825280602002602001820160405280156104635781602001602082028036833780820191505090505b5090505f600190505b60025481116105b1575f60015f8881526020019081526020015f205f3373ffffffffffffffffffffffffffffffffffffffff1673ffffffffffffffffffffffffffffffffffffffff1681526020019081526020015f205f015f9054906101000a900473ffffffffffffffffffffffffffffffffffffffff16905080836001846104f5919061104a565b815181106105065761050561107d565b5b602002602001019073ffffffffffffffffffffffffffffffffffffffff16908173ffffffffffffffffffffffffffffffffffffffff168152505060015f8881526020019081526020015f205f8273ffffffffffffffffffffffffffffffffffffffff1673ffffffffffffffffffffffffffffffffffffffff1681526020019081526020015f20600101548461059b9190610c88565b93505080806105a990610cf0565b91505061046c565b505f5b8151811015610697575f8282815181106105d1576105d061107d565b5b602002602001015190505f8460015f8a81526020019081526020015f205f8473ffffffffffffffffffffffffffffffffffffffff1673ffffffffffffffffffffffffffffffffffffffff1681526020019081526020015f20600101548861063891906110aa565b6106429190610c58565b90508173ffffffffffffffffffffffffffffffffffffffff166108fc8290811502906040515f60405180830381858888f19350505050158015610687573d5f803e3d5ffd5b50505080806001019150506105b4565b507fe119edd602f8057f976e78f3580fad7c24700f494e6ddca97279c332a213f38485856040516106c99291906110eb565b60405180910390a15050505050565b60025481565b5f602052805f5260405f205f91509050805f0180546106fc90610d64565b80601f016020809104026020016040519081016040528092919081815260200182805461072890610d64565b80156107735780601f1061074a57610100808354040283529160200191610773565b820191905f5260205f20905b81548152906001019060200180831161075657829003601f168201915b5050505050908060010154908060020154905083565b5f604051905090565b5f80fd5b5f80fd5b5f819050919050565b6107ac8161079a565b81146107b6575f80fd5b50565b5f813590506107c7816107a3565b92915050565b5f73ffffffffffffffffffffffffffffffffffffffff82169050919050565b5f6107f6826107cd565b9050919050565b610806816107ec565b8114610810575f80fd5b50565b5f81359050610821816107fd565b92915050565b5f806040838503121561083d5761083c610792565b5b5f61084a858286016107b9565b925050602061085b85828601610813565b9150509250929050565b61086e816107ec565b82525050565b61087d8161079a565b82525050565b5f6040820190506108965f830185610865565b6108a36020830184610874565b9392505050565b5f602082840312156108bf576108be610792565b5b5f6108cc848285016107b9565b91505092915050565b5f80fd5b5f80fd5b5f601f19601f8301169050919050565b7f4e487b71000000000000000000000000000000000000000000000000000000005f52604160045260245ffd5b610923826108dd565b810181811067ffffffffffffffff82111715610942576109416108ed565b5b80604052505050565b5f610954610789565b9050610960828261091a565b919050565b5f67ffffffffffffffff82111561097f5761097e6108ed565b5b610988826108dd565b9050602081019050919050565b828183375f83830152505050565b5f6109b56109b084610965565b61094b565b9050828152602081018484840111156109d1576109d06108d9565b5b6109dc848285610995565b509392505050565b5f82601f8301126109f8576109f76108d5565b5b8135610a088482602086016109a3565b91505092915050565b5f805f60608486031215610a2857610a27610792565b5b5f84013567ffffffffffffffff811115610a4557610a44610796565b5b610a51868287016109e4565b9350506020610a62868287016107b9565b9250506040610a73868287016107b9565b9150509250925092565b5f8060408385031215610a9357610a92610792565b5b5f610aa0858286016107b9565b9250506020610ab1858286016107b9565b9150509250929050565b5f602082019050610ace5f830184610874565b92915050565b5f81519050919050565b5f82825260208201905092915050565b8281835e5f83830152505050565b5f610b0682610ad4565b610b108185610ade565b9350610b20818560208601610aee565b610b29816108dd565b840191505092915050565b5f6060820190508181035f830152610b4c8186610afc565b9050610b5b6020830185610874565b610b686040830184610874565b949350505050565b7f496e73756666696369656e742066756e647320666f72204e46542070757263685f8201527f6173650000000000000000000000000000000000000000000000000000000000602082015250565b5f610bca602383610ade565b9150610bd582610b70565b604082019050919050565b5f6020820190508181035f830152610bf781610bbe565b9050919050565b7f4e487b71000000000000000000000000000000000000000000000000000000005f52601260045260245ffd5b7f4e487b71000000000000000000000000000000000000000000000000000000005f52601160045260245ffd5b5f610c628261079a565b9150610c6d8361079a565b925082610c7d57610c7c610bfe565b5b828204905092915050565b5f610c928261079a565b9150610c9d8361079a565b9250828201905080821115610cb557610cb4610c2b565b5b92915050565b5f606082019050610cce5f830186610874565b610cdb6020830185610865565b610ce86040830184610874565b949350505050565b5f610cfa8261079a565b91507fffffffffffffffffffffffffffffffffffffffffffffffffffffffffffffffff8203610d2c57610d2b610c2b565b5b600182019050919050565b7f4e487b71000000000000000000000000000000000000000000000000000000005f52602260045260245ffd5b5f6002820490506001821680610d7b57607f821691505b602082108103610d8e57610d8d610d37565b5b50919050565b5f819050815f5260205f209050919050565b5f6020601f8301049050919050565b5f82821b905092915050565b5f60088302610df07fffffffffffffffffffffffffffffffffffffffffffffffffffffffffffffffff82610db5565b610dfa8683610db5565b95508019841693508086168417925050509392505050565b5f819050919050565b5f610e35610e30610e2b8461079a565b610e12565b61079a565b9050919050565b5f819050919050565b610e4e83610e1b565b610e62610e5a82610e3c565b848454610dc1565b825550505050565b5f90565b610e76610e6a565b610e81818484610e45565b505050565b5b81811015610ea457610e995f82610e6e565b600181019050610e87565b5050565b601f821115610ee957610eba81610d94565b610ec384610da6565b81016020851015610ed2578190505b610ee6610ede85610da6565b830182610e86565b50505b505050565b5f82821c905092915050565b5f610f095f1984600802610eee565b1980831691505092915050565b5f610f218383610efa565b9150826002028217905092915050565b610f3a82610ad4565b67ffffffffffffffff811115610f5357610f526108ed565b5b610f5d8254610d64565b610f68828285610ea8565b5f60209050601f831160018114610f99575f8415610f87578287015190505b610f918582610f16565b865550610ff8565b601f198416610fa786610d94565b5f5b82811015610fce57848901518255600182019150602085019450602081019050610fa9565b86831015610feb5784890151610fe7601f891682610efa565b8355505b6001600288020188555050505b505050505050565b5f6080820190506110135f830187610874565b81810360208301526110258186610afc565b90506110346040830185610874565b6110416060830184610874565b95945050505050565b5f6110548261079a565b915061105f8361079a565b925082820390508181111561107757611076610c2b565b5b92915050565b7f4e487b71000000000000000000000000000000000000000000000000000000005f52603260045260245ffd5b5f6110b48261079a565b91506110bf8361079a565b92508282026110cd8161079a565b915082820484148315176110e4576110e3610c2b565b5b5092915050565b5f6040820190506110fe5f830185610874565b61110b6020830184610874565b939250505056fea264697066735822122042b2162a912f9ddfa31a7c981710b71c5c7af4091636f065a0d2968b065e14ae64736f6c63430008190033",
					"opcodes": "PUSH1 0x80 PUSH1 0x40 MSTORE CALLVALUE DUP1 ISZERO PUSH1 0xE JUMPI PUSH0 DUP1 REVERT JUMPDEST POP PUSH2 0x1148 DUP1 PUSH2 0x1C PUSH0 CODECOPY PUSH0 RETURN INVALID PUSH1 0x80 PUSH1 0x40 MSTORE PUSH1 0x4 CALLDATASIZE LT PUSH2 0x54 JUMPI PUSH0 CALLDATALOAD PUSH1 0xE0 SHR DUP1 PUSH4 0x13349986 EQ PUSH2 0x58 JUMPI DUP1 PUSH4 0x51ED8288 EQ PUSH2 0x95 JUMPI DUP1 PUSH4 0x55A24D3B EQ PUSH2 0xB1 JUMPI DUP1 PUSH4 0x9A5C57CD EQ PUSH2 0xD9 JUMPI DUP1 PUSH4 0xB256A1C4 EQ PUSH2 0x101 JUMPI DUP1 PUSH4 0xF7B10808 EQ PUSH2 0x12B JUMPI JUMPDEST PUSH0 DUP1 REVERT JUMPDEST CALLVALUE DUP1 ISZERO PUSH2 0x63 JUMPI PUSH0 DUP1 REVERT JUMPDEST POP PUSH2 0x7E PUSH1 0x4 DUP1 CALLDATASIZE SUB DUP2 ADD SWAP1 PUSH2 0x79 SWAP2 SWAP1 PUSH2 0x827 JUMP JUMPDEST PUSH2 0x169 JUMP JUMPDEST PUSH1 0x40 MLOAD PUSH2 0x8C SWAP3 SWAP2 SWAP1 PUSH2 0x883 JUMP JUMPDEST PUSH1 0x40 MLOAD DUP1 SWAP2 SUB SWAP1 RETURN JUMPDEST PUSH2 0xAF PUSH1 0x4 DUP1 CALLDATASIZE SUB DUP2 ADD SWAP1 PUSH2 0xAA SWAP2 SWAP1 PUSH2 0x8AA JUMP JUMPDEST PUSH2 0x1B3 JUMP JUMPDEST STOP JUMPDEST CALLVALUE DUP1 ISZERO PUSH2 0xBC JUMPI PUSH0 DUP1 REVERT JUMPDEST POP PUSH2 0xD7 PUSH1 0x4 DUP1 CALLDATASIZE SUB DUP2 ADD SWAP1 PUSH2 0xD2 SWAP2 SWAP1 PUSH2 0xA11 JUMP JUMPDEST PUSH2 0x351 JUMP JUMPDEST STOP JUMPDEST CALLVALUE DUP1 ISZERO PUSH2 0xE4 JUMPI PUSH0 DUP1 REVERT JUMPDEST POP PUSH2 0xFF PUSH1 0x4 DUP1 CALLDATASIZE SUB DUP2 ADD SWAP1 PUSH2 0xFA SWAP2 SWAP1 PUSH2 0xA7D JUMP JUMPDEST PUSH2 0x404 JUMP JUMPDEST STOP JUMPDEST CALLVALUE DUP1 ISZERO PUSH2 0x10C JUMPI PUSH0 DUP1 REVERT JUMPDEST POP PUSH2 0x115 PUSH2 0x6D8 JUMP JUMPDEST PUSH1 0x40 MLOAD PUSH2 0x122 SWAP2 SWAP1 PUSH2 0xABB JUMP JUMPDEST PUSH1 0x40 MLOAD DUP1 SWAP2 SUB SWAP1 RETURN JUMPDEST CALLVALUE DUP1 ISZERO PUSH2 0x136 JUMPI PUSH0 DUP1 REVERT JUMPDEST POP PUSH2 0x151 PUSH1 0x4 DUP1 CALLDATASIZE SUB DUP2 ADD SWAP1 PUSH2 0x14C SWAP2 SWAP1 PUSH2 0x8AA JUMP JUMPDEST PUSH2 0x6DE JUMP JUMPDEST PUSH1 0x40 MLOAD PUSH2 0x160 SWAP4 SWAP3 SWAP2 SWAP1 PUSH2 0xB34 JUMP JUMPDEST PUSH1 0x40 MLOAD DUP1 SWAP2 SUB SWAP1 RETURN JUMPDEST PUSH1 0x1 PUSH1 0x20 MSTORE DUP2 PUSH0 MSTORE PUSH1 0x40 PUSH0 KECCAK256 PUSH1 0x20 MSTORE DUP1 PUSH0 MSTORE PUSH1 0x40 PUSH0 KECCAK256 PUSH0 SWAP2 POP SWAP2 POP POP DUP1 PUSH0 ADD PUSH0 SWAP1 SLOAD SWAP1 PUSH2 0x100 EXP SWAP1 DIV PUSH20 0xFFFFFFFFFFFFFFFFFFFFFFFFFFFFFFFFFFFFFFFF AND SWAP1 DUP1 PUSH1 0x1 ADD SLOAD SWAP1 POP DUP3 JUMP JUMPDEST PUSH0 DUP1 PUSH0 DUP4 DUP2 MSTORE PUSH1 0x20 ADD SWAP1 DUP2 MSTORE PUSH1 0x20 ADD PUSH0 KECCAK256 SWAP1 POP DUP1 PUSH1 0x2 ADD SLOAD CALLVALUE LT ISZERO PUSH2 0x20D JUMPI PUSH1 0x40 MLOAD PUSH32 0x8C379A000000000000000000000000000000000000000000000000000000000 DUP2 MSTORE PUSH1 0x4 ADD PUSH2 0x204 SWAP1 PUSH2 0xBE0 JUMP JUMPDEST PUSH1 0x40 MLOAD DUP1 SWAP2 SUB SWAP1 REVERT JUMPDEST PUSH0 DUP2 PUSH1 0x2 ADD SLOAD CALLVALUE PUSH2 0x21E SWAP2 SWAP1 PUSH2 0xC58 JUMP JUMPDEST SWAP1 POP CALLER PUSH1 0x1 PUSH0 DUP6 DUP2 MSTORE PUSH1 0x20 ADD SWAP1 DUP2 MSTORE PUSH1 0x20 ADD PUSH0 KECCAK256 PUSH0 CALLER PUSH20 0xFFFFFFFFFFFFFFFFFFFFFFFFFFFFFFFFFFFFFFFF AND PUSH20 0xFFFFFFFFFFFFFFFFFFFFFFFFFFFFFFFFFFFFFFFF AND DUP2 MSTORE PUSH1 0x20 ADD SWAP1 DUP2 MSTORE PUSH1 0x20 ADD PUSH0 KECCAK256 PUSH0 ADD PUSH0 PUSH2 0x100 EXP DUP2 SLOAD DUP2 PUSH20 0xFFFFFFFFFFFFFFFFFFFFFFFFFFFFFFFFFFFFFFFF MUL NOT AND SWAP1 DUP4 PUSH20 0xFFFFFFFFFFFFFFFFFFFFFFFFFFFFFFFFFFFFFFFF AND MUL OR SWAP1 SSTORE POP DUP1 PUSH1 0x1 PUSH0 DUP6 DUP2 MSTORE PUSH1 0x20 ADD SWAP1 DUP2 MSTORE PUSH1 0x20 ADD PUSH0 KECCAK256 PUSH0 CALLER PUSH20 0xFFFFFFFFFFFFFFFFFFFFFFFFFFFFFFFFFFFFFFFF AND PUSH20 0xFFFFFFFFFFFFFFFFFFFFFFFFFFFFFFFFFFFFFFFF AND DUP2 MSTORE PUSH1 0x20 ADD SWAP1 DUP2 MSTORE PUSH1 0x20 ADD PUSH0 KECCAK256 PUSH1 0x1 ADD PUSH0 DUP3 DUP3 SLOAD PUSH2 0x30A SWAP2 SWAP1 PUSH2 0xC88 JUMP JUMPDEST SWAP3 POP POP DUP2 SWAP1 SSTORE POP PUSH32 0x6329E40C0365262EBBFF5CA819385C2B9713DCAA050ED07866D72C441395699A DUP4 CALLER DUP4 PUSH1 0x40 MLOAD PUSH2 0x344 SWAP4 SWAP3 SWAP2 SWAP1 PUSH2 0xCBB JUMP JUMPDEST PUSH1 0x40 MLOAD DUP1 SWAP2 SUB SWAP1 LOG1 POP POP POP JUMP JUMPDEST PUSH1 0x2 PUSH0 DUP2 SLOAD DUP1 SWAP3 SWAP2 SWAP1 PUSH2 0x363 SWAP1 PUSH2 0xCF0 JUMP JUMPDEST SWAP2 SWAP1 POP SSTORE POP PUSH1 0x40 MLOAD DUP1 PUSH1 0x60 ADD PUSH1 0x40 MSTORE DUP1 DUP5 DUP2 MSTORE PUSH1 0x20 ADD DUP4 DUP2 MSTORE PUSH1 0x20 ADD DUP3 DUP2 MSTORE POP PUSH0 DUP1 PUSH1 0x2 SLOAD DUP2 MSTORE PUSH1 0x20 ADD SWAP1 DUP2 MSTORE PUSH1 0x20 ADD PUSH0 KECCAK256 PUSH0 DUP3 ADD MLOAD DUP2 PUSH0 ADD SWAP1 DUP2 PUSH2 0x3A8 SWAP2 SWAP1 PUSH2 0xF31 JUMP JUMPDEST POP PUSH1 0x20 DUP3 ADD MLOAD DUP2 PUSH1 0x1 ADD SSTORE PUSH1 0x40 DUP3 ADD MLOAD DUP2 PUSH1 0x2 ADD SSTORE SWAP1 POP POP PUSH32 0x619177337325F2035F1286340AE066D525900D5906CC94F895375AFFFA19DA1 PUSH1 0x2 SLOAD DUP5 DUP5 DUP5 PUSH1 0x40 MLOAD PUSH2 0x3F7 SWAP5 SWAP4 SWAP3 SWAP2 SWAP1 PUSH2 0x1000 JUMP JUMPDEST PUSH1 0x40 MLOAD DUP1 SWAP2 SUB SWAP1 LOG1 POP POP POP JUMP JUMPDEST PUSH0 DUP1 PUSH0 DUP5 DUP2 MSTORE PUSH1 0x20 ADD SWAP1 DUP2 MSTORE PUSH1 0x20 ADD PUSH0 KECCAK256 SWAP1 POP PUSH0 DUP1 PUSH1 0x2 SLOAD PUSH8 0xFFFFFFFFFFFFFFFF DUP2 GT ISZERO PUSH2 0x435 JUMPI PUSH2 0x434 PUSH2 0x8ED JUMP JUMPDEST JUMPDEST PUSH1 0x40 MLOAD SWAP1 DUP1 DUP3 MSTORE DUP1 PUSH1 0x20 MUL PUSH1 0x20 ADD DUP3 ADD PUSH1 0x40 MSTORE DUP1 ISZERO PUSH2 0x463 JUMPI DUP2 PUSH1 0x20 ADD PUSH1 0x20 DUP3 MUL DUP1 CALLDATASIZE DUP4 CALLDATACOPY DUP1 DUP3 ADD SWAP2 POP POP SWAP1 POP JUMPDEST POP SWAP1 POP PUSH0 PUSH1 0x1 SWAP1 POP JUMPDEST PUSH1 0x2 SLOAD DUP2 GT PUSH2 0x5B1 JUMPI PUSH0 PUSH1 0x1 PUSH0 DUP9 DUP2 MSTORE PUSH1 0x20 ADD SWAP1 DUP2 MSTORE PUSH1 0x20 ADD PUSH0 KECCAK256 PUSH0 CALLER PUSH20 0xFFFFFFFFFFFFFFFFFFFFFFFFFFFFFFFFFFFFFFFF AND PUSH20 0xFFFFFFFFFFFFFFFFFFFFFFFFFFFFFFFFFFFFFFFF AND DUP2 MSTORE PUSH1 0x20 ADD SWAP1 DUP2 MSTORE PUSH1 0x20 ADD PUSH0 KECCAK256 PUSH0 ADD PUSH0 SWAP1 SLOAD SWAP1 PUSH2 0x100 EXP SWAP1 DIV PUSH20 0xFFFFFFFFFFFFFFFFFFFFFFFFFFFFFFFFFFFFFFFF AND SWAP1 POP DUP1 DUP4 PUSH1 0x1 DUP5 PUSH2 0x4F5 SWAP2 SWAP1 PUSH2 0x104A JUMP JUMPDEST DUP2 MLOAD DUP2 LT PUSH2 0x506 JUMPI PUSH2 0x505 PUSH2 0x107D JUMP JUMPDEST JUMPDEST PUSH1 0x20 MUL PUSH1 0x20 ADD ADD SWAP1 PUSH20 0xFFFFFFFFFFFFFFFFFFFFFFFFFFFFFFFFFFFFFFFF AND SWAP1 DUP2 PUSH20 0xFFFFFFFFFFFFFFFFFFFFFFFFFFFFFFFFFFFFFFFF AND DUP2 MSTORE POP POP PUSH1 0x1 PUSH0 DUP9 DUP2 MSTORE PUSH1 0x20 ADD SWAP1 DUP2 MSTORE PUSH1 0x20 ADD PUSH0 KECCAK256 PUSH0 DUP3 PUSH20 0xFFFFFFFFFFFFFFFFFFFFFFFFFFFFFFFFFFFFFFFF AND PUSH20 0xFFFFFFFFFFFFFFFFFFFFFFFFFFFFFFFFFFFFFFFF AND DUP2 MSTORE PUSH1 0x20 ADD SWAP1 DUP2 MSTORE PUSH1 0x20 ADD PUSH0 KECCAK256 PUSH1 0x1 ADD SLOAD DUP5 PUSH2 0x59B SWAP2 SWAP1 PUSH2 0xC88 JUMP JUMPDEST SWAP4 POP POP DUP1 DUP1 PUSH2 0x5A9 SWAP1 PUSH2 0xCF0 JUMP JUMPDEST SWAP2 POP POP PUSH2 0x46C JUMP JUMPDEST POP PUSH0 JUMPDEST DUP2 MLOAD DUP2 LT ISZERO PUSH2 0x697 JUMPI PUSH0 DUP3 DUP3 DUP2 MLOAD DUP2 LT PUSH2 0x5D1 JUMPI PUSH2 0x5D0 PUSH2 0x107D JUMP JUMPDEST JUMPDEST PUSH1 0x20 MUL PUSH1 0x20 ADD ADD MLOAD SWAP1 POP PUSH0 DUP5 PUSH1 0x1 PUSH0 DUP11 DUP2 MSTORE PUSH1 0x20 ADD SWAP1 DUP2 MSTORE PUSH1 0x20 ADD PUSH0 KECCAK256 PUSH0 DUP5 PUSH20 0xFFFFFFFFFFFFFFFFFFFFFFFFFFFFFFFFFFFFFFFF AND PUSH20 0xFFFFFFFFFFFFFFFFFFFFFFFFFFFFFFFFFFFFFFFF AND DUP2 MSTORE PUSH1 0x20 ADD SWAP1 DUP2 MSTORE PUSH1 0x20 ADD PUSH0 KECCAK256 PUSH1 0x1 ADD SLOAD DUP9 PUSH2 0x638 SWAP2 SWAP1 PUSH2 0x10AA JUMP JUMPDEST PUSH2 0x642 SWAP2 SWAP1 PUSH2 0xC58 JUMP JUMPDEST SWAP1 POP DUP2 PUSH20 0xFFFFFFFFFFFFFFFFFFFFFFFFFFFFFFFFFFFFFFFF AND PUSH2 0x8FC DUP3 SWAP1 DUP2 ISZERO MUL SWAP1 PUSH1 0x40 MLOAD PUSH0 PUSH1 0x40 MLOAD DUP1 DUP4 SUB DUP2 DUP6 DUP9 DUP9 CALL SWAP4 POP POP POP POP ISZERO DUP1 ISZERO PUSH2 0x687 JUMPI RETURNDATASIZE PUSH0 DUP1 RETURNDATACOPY RETURNDATASIZE PUSH0 REVERT JUMPDEST POP POP POP DUP1 DUP1 PUSH1 0x1 ADD SWAP2 POP POP PUSH2 0x5B4 JUMP JUMPDEST POP PUSH32 0xE119EDD602F8057F976E78F3580FAD7C24700F494E6DDCA97279C332A213F384 DUP6 DUP6 PUSH1 0x40 MLOAD PUSH2 0x6C9 SWAP3 SWAP2 SWAP1 PUSH2 0x10EB JUMP JUMPDEST PUSH1 0x40 MLOAD DUP1 SWAP2 SUB SWAP1 LOG1 POP POP POP POP POP JUMP JUMPDEST PUSH1 0x2 SLOAD DUP2 JUMP JUMPDEST PUSH0 PUSH1 0x20 MSTORE DUP1 PUSH0 MSTORE PUSH1 0x40 PUSH0 KECCAK256 PUSH0 SWAP2 POP SWAP1 POP DUP1 PUSH0 ADD DUP1 SLOAD PUSH2 0x6FC SWAP1 PUSH2 0xD64 JUMP JUMPDEST DUP1 PUSH1 0x1F ADD PUSH1 0x20 DUP1 SWAP2 DIV MUL PUSH1 0x20 ADD PUSH1 0x40 MLOAD SWAP1 DUP2 ADD PUSH1 0x40 MSTORE DUP1 SWAP3 SWAP2 SWAP1 DUP2 DUP2 MSTORE PUSH1 0x20 ADD DUP3 DUP1 SLOAD PUSH2 0x728 SWAP1 PUSH2 0xD64 JUMP JUMPDEST DUP1 ISZERO PUSH2 0x773 JUMPI DUP1 PUSH1 0x1F LT PUSH2 0x74A JUMPI PUSH2 0x100 DUP1 DUP4 SLOAD DIV MUL DUP4 MSTORE SWAP2 PUSH1 0x20 ADD SWAP2 PUSH2 0x773 JUMP JUMPDEST DUP3 ADD SWAP2 SWAP1 PUSH0 MSTORE PUSH1 0x20 PUSH0 KECCAK256 SWAP1 JUMPDEST DUP2 SLOAD DUP2 MSTORE SWAP1 PUSH1 0x1 ADD SWAP1 PUSH1 0x20 ADD DUP1 DUP4 GT PUSH2 0x756 JUMPI DUP3 SWAP1 SUB PUSH1 0x1F AND DUP3 ADD SWAP2 JUMPDEST POP POP POP POP POP SWAP1 DUP1 PUSH1 0x1 ADD SLOAD SWAP1 DUP1 PUSH1 0x2 ADD SLOAD SWAP1 POP DUP4 JUMP JUMPDEST PUSH0 PUSH1 0x40 MLOAD SWAP1 POP SWAP1 JUMP JUMPDEST PUSH0 DUP1 REVERT JUMPDEST PUSH0 DUP1 REVERT JUMPDEST PUSH0 DUP2 SWAP1 POP SWAP2 SWAP1 POP JUMP JUMPDEST PUSH2 0x7AC DUP2 PUSH2 0x79A JUMP JUMPDEST DUP2 EQ PUSH2 0x7B6 JUMPI PUSH0 DUP1 REVERT JUMPDEST POP JUMP JUMPDEST PUSH0 DUP2 CALLDATALOAD SWAP1 POP PUSH2 0x7C7 DUP2 PUSH2 0x7A3 JUMP JUMPDEST SWAP3 SWAP2 POP POP JUMP JUMPDEST PUSH0 PUSH20 0xFFFFFFFFFFFFFFFFFFFFFFFFFFFFFFFFFFFFFFFF DUP3 AND SWAP1 POP SWAP2 SWAP1 POP JUMP JUMPDEST PUSH0 PUSH2 0x7F6 DUP3 PUSH2 0x7CD JUMP JUMPDEST SWAP1 POP SWAP2 SWAP1 POP JUMP JUMPDEST PUSH2 0x806 DUP2 PUSH2 0x7EC JUMP JUMPDEST DUP2 EQ PUSH2 0x810 JUMPI PUSH0 DUP1 REVERT JUMPDEST POP JUMP JUMPDEST PUSH0 DUP2 CALLDATALOAD SWAP1 POP PUSH2 0x821 DUP2 PUSH2 0x7FD JUMP JUMPDEST SWAP3 SWAP2 POP POP JUMP JUMPDEST PUSH0 DUP1 PUSH1 0x40 DUP4 DUP6 SUB SLT ISZERO PUSH2 0x83D JUMPI PUSH2 0x83C PUSH2 0x792 JUMP JUMPDEST JUMPDEST PUSH0 PUSH2 0x84A DUP6 DUP3 DUP7 ADD PUSH2 0x7B9 JUMP JUMPDEST SWAP3 POP POP PUSH1 0x20 PUSH2 0x85B DUP6 DUP3 DUP7 ADD PUSH2 0x813 JUMP JUMPDEST SWAP2 POP POP SWAP3 POP SWAP3 SWAP1 POP JUMP JUMPDEST PUSH2 0x86E DUP2 PUSH2 0x7EC JUMP JUMPDEST DUP3 MSTORE POP POP JUMP JUMPDEST PUSH2 0x87D DUP2 PUSH2 0x79A JUMP JUMPDEST DUP3 MSTORE POP POP JUMP JUMPDEST PUSH0 PUSH1 0x40 DUP3 ADD SWAP1 POP PUSH2 0x896 PUSH0 DUP4 ADD DUP6 PUSH2 0x865 JUMP JUMPDEST PUSH2 0x8A3 PUSH1 0x20 DUP4 ADD DUP5 PUSH2 0x874 JUMP JUMPDEST SWAP4 SWAP3 POP POP POP JUMP JUMPDEST PUSH0 PUSH1 0x20 DUP3 DUP5 SUB SLT ISZERO PUSH2 0x8BF JUMPI PUSH2 0x8BE PUSH2 0x792 JUMP JUMPDEST JUMPDEST PUSH0 PUSH2 0x8CC DUP5 DUP3 DUP6 ADD PUSH2 0x7B9 JUMP JUMPDEST SWAP2 POP POP SWAP3 SWAP2 POP POP JUMP JUMPDEST PUSH0 DUP1 REVERT JUMPDEST PUSH0 DUP1 REVERT JUMPDEST PUSH0 PUSH1 0x1F NOT PUSH1 0x1F DUP4 ADD AND SWAP1 POP SWAP2 SWAP1 POP JUMP JUMPDEST PUSH32 0x4E487B7100000000000000000000000000000000000000000000000000000000 PUSH0 MSTORE PUSH1 0x41 PUSH1 0x4 MSTORE PUSH1 0x24 PUSH0 REVERT JUMPDEST PUSH2 0x923 DUP3 PUSH2 0x8DD JUMP JUMPDEST DUP2 ADD DUP2 DUP2 LT PUSH8 0xFFFFFFFFFFFFFFFF DUP3 GT OR ISZERO PUSH2 0x942 JUMPI PUSH2 0x941 PUSH2 0x8ED JUMP JUMPDEST JUMPDEST DUP1 PUSH1 0x40 MSTORE POP POP POP JUMP JUMPDEST PUSH0 PUSH2 0x954 PUSH2 0x789 JUMP JUMPDEST SWAP1 POP PUSH2 0x960 DUP3 DUP3 PUSH2 0x91A JUMP JUMPDEST SWAP2 SWAP1 POP JUMP JUMPDEST PUSH0 PUSH8 0xFFFFFFFFFFFFFFFF DUP3 GT ISZERO PUSH2 0x97F JUMPI PUSH2 0x97E PUSH2 0x8ED JUMP JUMPDEST JUMPDEST PUSH2 0x988 DUP3 PUSH2 0x8DD JUMP JUMPDEST SWAP1 POP PUSH1 0x20 DUP2 ADD SWAP1 POP SWAP2 SWAP1 POP JUMP JUMPDEST DUP3 DUP2 DUP4 CALLDATACOPY PUSH0 DUP4 DUP4 ADD MSTORE POP POP POP JUMP JUMPDEST PUSH0 PUSH2 0x9B5 PUSH2 0x9B0 DUP5 PUSH2 0x965 JUMP JUMPDEST PUSH2 0x94B JUMP JUMPDEST SWAP1 POP DUP3 DUP2 MSTORE PUSH1 0x20 DUP2 ADD DUP5 DUP5 DUP5 ADD GT ISZERO PUSH2 0x9D1 JUMPI PUSH2 0x9D0 PUSH2 0x8D9 JUMP JUMPDEST JUMPDEST PUSH2 0x9DC DUP5 DUP3 DUP6 PUSH2 0x995 JUMP JUMPDEST POP SWAP4 SWAP3 POP POP POP JUMP JUMPDEST PUSH0 DUP3 PUSH1 0x1F DUP4 ADD SLT PUSH2 0x9F8 JUMPI PUSH2 0x9F7 PUSH2 0x8D5 JUMP JUMPDEST JUMPDEST DUP2 CALLDATALOAD PUSH2 0xA08 DUP5 DUP3 PUSH1 0x20 DUP7 ADD PUSH2 0x9A3 JUMP JUMPDEST SWAP2 POP POP SWAP3 SWAP2 POP POP JUMP JUMPDEST PUSH0 DUP1 PUSH0 PUSH1 0x60 DUP5 DUP7 SUB SLT ISZERO PUSH2 0xA28 JUMPI PUSH2 0xA27 PUSH2 0x792 JUMP JUMPDEST JUMPDEST PUSH0 DUP5 ADD CALLDATALOAD PUSH8 0xFFFFFFFFFFFFFFFF DUP2 GT ISZERO PUSH2 0xA45 JUMPI PUSH2 0xA44 PUSH2 0x796 JUMP JUMPDEST JUMPDEST PUSH2 0xA51 DUP7 DUP3 DUP8 ADD PUSH2 0x9E4 JUMP JUMPDEST SWAP4 POP POP PUSH1 0x20 PUSH2 0xA62 DUP7 DUP3 DUP8 ADD PUSH2 0x7B9 JUMP JUMPDEST SWAP3 POP POP PUSH1 0x40 PUSH2 0xA73 DUP7 DUP3 DUP8 ADD PUSH2 0x7B9 JUMP JUMPDEST SWAP2 POP POP SWAP3 POP SWAP3 POP SWAP3 JUMP JUMPDEST PUSH0 DUP1 PUSH1 0x40 DUP4 DUP6 SUB SLT ISZERO PUSH2 0xA93 JUMPI PUSH2 0xA92 PUSH2 0x792 JUMP JUMPDEST JUMPDEST PUSH0 PUSH2 0xAA0 DUP6 DUP3 DUP7 ADD PUSH2 0x7B9 JUMP JUMPDEST SWAP3 POP POP PUSH1 0x20 PUSH2 0xAB1 DUP6 DUP3 DUP7 ADD PUSH2 0x7B9 JUMP JUMPDEST SWAP2 POP POP SWAP3 POP SWAP3 SWAP1 POP JUMP JUMPDEST PUSH0 PUSH1 0x20 DUP3 ADD SWAP1 POP PUSH2 0xACE PUSH0 DUP4 ADD DUP5 PUSH2 0x874 JUMP JUMPDEST SWAP3 SWAP2 POP POP JUMP JUMPDEST PUSH0 DUP2 MLOAD SWAP1 POP SWAP2 SWAP1 POP JUMP JUMPDEST PUSH0 DUP3 DUP3 MSTORE PUSH1 0x20 DUP3 ADD SWAP1 POP SWAP3 SWAP2 POP POP JUMP JUMPDEST DUP3 DUP2 DUP4 MCOPY PUSH0 DUP4 DUP4 ADD MSTORE POP POP POP JUMP JUMPDEST PUSH0 PUSH2 0xB06 DUP3 PUSH2 0xAD4 JUMP JUMPDEST PUSH2 0xB10 DUP2 DUP6 PUSH2 0xADE JUMP JUMPDEST SWAP4 POP PUSH2 0xB20 DUP2 DUP6 PUSH1 0x20 DUP7 ADD PUSH2 0xAEE JUMP JUMPDEST PUSH2 0xB29 DUP2 PUSH2 0x8DD JUMP JUMPDEST DUP5 ADD SWAP2 POP POP SWAP3 SWAP2 POP POP JUMP JUMPDEST PUSH0 PUSH1 0x60 DUP3 ADD SWAP1 POP DUP2 DUP2 SUB PUSH0 DUP4 ADD MSTORE PUSH2 0xB4C DUP2 DUP7 PUSH2 0xAFC JUMP JUMPDEST SWAP1 POP PUSH2 0xB5B PUSH1 0x20 DUP4 ADD DUP6 PUSH2 0x874 JUMP JUMPDEST PUSH2 0xB68 PUSH1 0x40 DUP4 ADD DUP5 PUSH2 0x874 JUMP JUMPDEST SWAP5 SWAP4 POP POP POP POP JUMP JUMPDEST PUSH32 0x496E73756666696369656E742066756E647320666F72204E4654207075726368 PUSH0 DUP3 ADD MSTORE PUSH32 0x6173650000000000000000000000000000000000000000000000000000000000 PUSH1 0x20 DUP3 ADD MSTORE POP JUMP JUMPDEST PUSH0 PUSH2 0xBCA PUSH1 0x23 DUP4 PUSH2 0xADE JUMP JUMPDEST SWAP2 POP PUSH2 0xBD5 DUP3 PUSH2 0xB70 JUMP JUMPDEST PUSH1 0x40 DUP3 ADD SWAP1 POP SWAP2 SWAP1 POP JUMP JUMPDEST PUSH0 PUSH1 0x20 DUP3 ADD SWAP1 POP DUP2 DUP2 SUB PUSH0 DUP4 ADD MSTORE PUSH2 0xBF7 DUP2 PUSH2 0xBBE JUMP JUMPDEST SWAP1 POP SWAP2 SWAP1 POP JUMP JUMPDEST PUSH32 0x4E487B7100000000000000000000000000000000000000000000000000000000 PUSH0 MSTORE PUSH1 0x12 PUSH1 0x4 MSTORE PUSH1 0x24 PUSH0 REVERT JUMPDEST PUSH32 0x4E487B7100000000000000000000000000000000000000000000000000000000 PUSH0 MSTORE PUSH1 0x11 PUSH1 0x4 MSTORE PUSH1 0x24 PUSH0 REVERT JUMPDEST PUSH0 PUSH2 0xC62 DUP3 PUSH2 0x79A JUMP JUMPDEST SWAP2 POP PUSH2 0xC6D DUP4 PUSH2 0x79A JUMP JUMPDEST SWAP3 POP DUP3 PUSH2 0xC7D JUMPI PUSH2 0xC7C PUSH2 0xBFE JUMP JUMPDEST JUMPDEST DUP3 DUP3 DIV SWAP1 POP SWAP3 SWAP2 POP POP JUMP JUMPDEST PUSH0 PUSH2 0xC92 DUP3 PUSH2 0x79A JUMP JUMPDEST SWAP2 POP PUSH2 0xC9D DUP4 PUSH2 0x79A JUMP JUMPDEST SWAP3 POP DUP3 DUP3 ADD SWAP1 POP DUP1 DUP3 GT ISZERO PUSH2 0xCB5 JUMPI PUSH2 0xCB4 PUSH2 0xC2B JUMP JUMPDEST JUMPDEST SWAP3 SWAP2 POP POP JUMP JUMPDEST PUSH0 PUSH1 0x60 DUP3 ADD SWAP1 POP PUSH2 0xCCE PUSH0 DUP4 ADD DUP7 PUSH2 0x874 JUMP JUMPDEST PUSH2 0xCDB PUSH1 0x20 DUP4 ADD DUP6 PUSH2 0x865 JUMP JUMPDEST PUSH2 0xCE8 PUSH1 0x40 DUP4 ADD DUP5 PUSH2 0x874 JUMP JUMPDEST SWAP5 SWAP4 POP POP POP POP JUMP JUMPDEST PUSH0 PUSH2 0xCFA DUP3 PUSH2 0x79A JUMP JUMPDEST SWAP2 POP PUSH32 0xFFFFFFFFFFFFFFFFFFFFFFFFFFFFFFFFFFFFFFFFFFFFFFFFFFFFFFFFFFFFFFFF DUP3 SUB PUSH2 0xD2C JUMPI PUSH2 0xD2B PUSH2 0xC2B JUMP JUMPDEST JUMPDEST PUSH1 0x1 DUP3 ADD SWAP1 POP SWAP2 SWAP1 POP JUMP JUMPDEST PUSH32 0x4E487B7100000000000000000000000000000000000000000000000000000000 PUSH0 MSTORE PUSH1 0x22 PUSH1 0x4 MSTORE PUSH1 0x24 PUSH0 REVERT JUMPDEST PUSH0 PUSH1 0x2 DUP3 DIV SWAP1 POP PUSH1 0x1 DUP3 AND DUP1 PUSH2 0xD7B JUMPI PUSH1 0x7F DUP3 AND SWAP2 POP JUMPDEST PUSH1 0x20 DUP3 LT DUP2 SUB PUSH2 0xD8E JUMPI PUSH2 0xD8D PUSH2 0xD37 JUMP JUMPDEST JUMPDEST POP SWAP2 SWAP1 POP JUMP JUMPDEST PUSH0 DUP2 SWAP1 POP DUP2 PUSH0 MSTORE PUSH1 0x20 PUSH0 KECCAK256 SWAP1 POP SWAP2 SWAP1 POP JUMP JUMPDEST PUSH0 PUSH1 0x20 PUSH1 0x1F DUP4 ADD DIV SWAP1 POP SWAP2 SWAP1 POP JUMP JUMPDEST PUSH0 DUP3 DUP3 SHL SWAP1 POP SWAP3 SWAP2 POP POP JUMP JUMPDEST PUSH0 PUSH1 0x8 DUP4 MUL PUSH2 0xDF0 PUSH32 0xFFFFFFFFFFFFFFFFFFFFFFFFFFFFFFFFFFFFFFFFFFFFFFFFFFFFFFFFFFFFFFFF DUP3 PUSH2 0xDB5 JUMP JUMPDEST PUSH2 0xDFA DUP7 DUP4 PUSH2 0xDB5 JUMP JUMPDEST SWAP6 POP DUP1 NOT DUP5 AND SWAP4 POP DUP1 DUP7 AND DUP5 OR SWAP3 POP POP POP SWAP4 SWAP3 POP POP POP JUMP JUMPDEST PUSH0 DUP2 SWAP1 POP SWAP2 SWAP1 POP JUMP JUMPDEST PUSH0 PUSH2 0xE35 PUSH2 0xE30 PUSH2 0xE2B DUP5 PUSH2 0x79A JUMP JUMPDEST PUSH2 0xE12 JUMP JUMPDEST PUSH2 0x79A JUMP JUMPDEST SWAP1 POP SWAP2 SWAP1 POP JUMP JUMPDEST PUSH0 DUP2 SWAP1 POP SWAP2 SWAP1 POP JUMP JUMPDEST PUSH2 0xE4E DUP4 PUSH2 0xE1B JUMP JUMPDEST PUSH2 0xE62 PUSH2 0xE5A DUP3 PUSH2 0xE3C JUMP JUMPDEST DUP5 DUP5 SLOAD PUSH2 0xDC1 JUMP JUMPDEST DUP3 SSTORE POP POP POP POP JUMP JUMPDEST PUSH0 SWAP1 JUMP JUMPDEST PUSH2 0xE76 PUSH2 0xE6A JUMP JUMPDEST PUSH2 0xE81 DUP2 DUP5 DUP5 PUSH2 0xE45 JUMP JUMPDEST POP POP POP JUMP JUMPDEST JUMPDEST DUP2 DUP2 LT ISZERO PUSH2 0xEA4 JUMPI PUSH2 0xE99 PUSH0 DUP3 PUSH2 0xE6E JUMP JUMPDEST PUSH1 0x1 DUP2 ADD SWAP1 POP PUSH2 0xE87 JUMP JUMPDEST POP POP JUMP JUMPDEST PUSH1 0x1F DUP3 GT ISZERO PUSH2 0xEE9 JUMPI PUSH2 0xEBA DUP2 PUSH2 0xD94 JUMP JUMPDEST PUSH2 0xEC3 DUP5 PUSH2 0xDA6 JUMP JUMPDEST DUP2 ADD PUSH1 0x20 DUP6 LT ISZERO PUSH2 0xED2 JUMPI DUP2 SWAP1 POP JUMPDEST PUSH2 0xEE6 PUSH2 0xEDE DUP6 PUSH2 0xDA6 JUMP JUMPDEST DUP4 ADD DUP3 PUSH2 0xE86 JUMP JUMPDEST POP POP JUMPDEST POP POP POP JUMP JUMPDEST PUSH0 DUP3 DUP3 SHR SWAP1 POP SWAP3 SWAP2 POP POP JUMP JUMPDEST PUSH0 PUSH2 0xF09 PUSH0 NOT DUP5 PUSH1 0x8 MUL PUSH2 0xEEE JUMP JUMPDEST NOT DUP1 DUP4 AND SWAP2 POP POP SWAP3 SWAP2 POP POP JUMP JUMPDEST PUSH0 PUSH2 0xF21 DUP4 DUP4 PUSH2 0xEFA JUMP JUMPDEST SWAP2 POP DUP3 PUSH1 0x2 MUL DUP3 OR SWAP1 POP SWAP3 SWAP2 POP POP JUMP JUMPDEST PUSH2 0xF3A DUP3 PUSH2 0xAD4 JUMP JUMPDEST PUSH8 0xFFFFFFFFFFFFFFFF DUP2 GT ISZERO PUSH2 0xF53 JUMPI PUSH2 0xF52 PUSH2 0x8ED JUMP JUMPDEST JUMPDEST PUSH2 0xF5D DUP3 SLOAD PUSH2 0xD64 JUMP JUMPDEST PUSH2 0xF68 DUP3 DUP3 DUP6 PUSH2 0xEA8 JUMP JUMPDEST PUSH0 PUSH1 0x20 SWAP1 POP PUSH1 0x1F DUP4 GT PUSH1 0x1 DUP2 EQ PUSH2 0xF99 JUMPI PUSH0 DUP5 ISZERO PUSH2 0xF87 JUMPI DUP3 DUP8 ADD MLOAD SWAP1 POP JUMPDEST PUSH2 0xF91 DUP6 DUP3 PUSH2 0xF16 JUMP JUMPDEST DUP7 SSTORE POP PUSH2 0xFF8 JUMP JUMPDEST PUSH1 0x1F NOT DUP5 AND PUSH2 0xFA7 DUP7 PUSH2 0xD94 JUMP JUMPDEST PUSH0 JUMPDEST DUP3 DUP2 LT ISZERO PUSH2 0xFCE JUMPI DUP5 DUP10 ADD MLOAD DUP3 SSTORE PUSH1 0x1 DUP3 ADD SWAP2 POP PUSH1 0x20 DUP6 ADD SWAP5 POP PUSH1 0x20 DUP2 ADD SWAP1 POP PUSH2 0xFA9 JUMP JUMPDEST DUP7 DUP4 LT ISZERO PUSH2 0xFEB JUMPI DUP5 DUP10 ADD MLOAD PUSH2 0xFE7 PUSH1 0x1F DUP10 AND DUP3 PUSH2 0xEFA JUMP JUMPDEST DUP4 SSTORE POP JUMPDEST PUSH1 0x1 PUSH1 0x2 DUP9 MUL ADD DUP9 SSTORE POP POP POP JUMPDEST POP POP POP POP POP POP JUMP JUMPDEST PUSH0 PUSH1 0x80 DUP3 ADD SWAP1 POP PUSH2 0x1013 PUSH0 DUP4 ADD DUP8 PUSH2 0x874 JUMP JUMPDEST DUP2 DUP2 SUB PUSH1 0x20 DUP4 ADD MSTORE PUSH2 0x1025 DUP2 DUP7 PUSH2 0xAFC JUMP JUMPDEST SWAP1 POP PUSH2 0x1034 PUSH1 0x40 DUP4 ADD DUP6 PUSH2 0x874 JUMP JUMPDEST PUSH2 0x1041 PUSH1 0x60 DUP4 ADD DUP5 PUSH2 0x874 JUMP JUMPDEST SWAP6 SWAP5 POP POP POP POP POP JUMP JUMPDEST PUSH0 PUSH2 0x1054 DUP3 PUSH2 0x79A JUMP JUMPDEST SWAP2 POP PUSH2 0x105F DUP4 PUSH2 0x79A JUMP JUMPDEST SWAP3 POP DUP3 DUP3 SUB SWAP1 POP DUP2 DUP2 GT ISZERO PUSH2 0x1077 JUMPI PUSH2 0x1076 PUSH2 0xC2B JUMP JUMPDEST JUMPDEST SWAP3 SWAP2 POP POP JUMP JUMPDEST PUSH32 0x4E487B7100000000000000000000000000000000000000000000000000000000 PUSH0 MSTORE PUSH1 0x32 PUSH1 0x4 MSTORE PUSH1 0x24 PUSH0 REVERT JUMPDEST PUSH0 PUSH2 0x10B4 DUP3 PUSH2 0x79A JUMP JUMPDEST SWAP2 POP PUSH2 0x10BF DUP4 PUSH2 0x79A JUMP JUMPDEST SWAP3 POP DUP3 DUP3 MUL PUSH2 0x10CD DUP2 PUSH2 0x79A JUMP JUMPDEST SWAP2 POP DUP3 DUP3 DIV DUP5 EQ DUP4 ISZERO OR PUSH2 0x10E4 JUMPI PUSH2 0x10E3 PUSH2 0xC2B JUMP JUMPDEST JUMPDEST POP SWAP3 SWAP2 POP POP JUMP JUMPDEST PUSH0 PUSH1 0x40 DUP3 ADD SWAP1 POP PUSH2 0x10FE PUSH0 DUP4 ADD DUP6 PUSH2 0x874 JUMP JUMPDEST PUSH2 0x110B PUSH1 0x20 DUP4 ADD DUP5 PUSH2 0x874 JUMP JUMPDEST SWAP4 SWAP3 POP POP POP JUMP INVALID LOG2 PUSH5 0x6970667358 0x22 SLT KECCAK256 TIMESTAMP 0xB2 AND 0x2A SWAP2 0x2F SWAP14 0xDF LOG3 BYTE PUSH29 0x981710B71C5C7AF4091636F065A0D2968B065E14AE64736F6C63430008 NOT STOP CALLER "
				},
				"gasEstimates": {
					"creation": {
						"codeDepositCost": "884800",
						"executionCost": "920",
						"totalCost": "885720"
					},
					"external": {
						"buyNFT(uint256)": "infinite",
						"distributeRent(uint256,uint256)": "infinite",
						"numProperties()": "2491",
						"ownershipData(uint256,address)": "infinite",
						"properties(uint256)": "infinite",
						"tokenizeProperty(string,uint256,uint256)": "infinite"
					}
				},
				"methodIdentifiers": {
					"buyNFT(uint256)": "51ed8288",
					"distributeRent(uint256,uint256)": "9a5c57cd",
					"numProperties()": "b256a1c4",
					"ownershipData(uint256,address)": "13349986",
					"properties(uint256)": "f7b10808",
					"tokenizeProperty(string,uint256,uint256)": "55a24d3b"
				}
			},
			"storageLayout": {
				"storage": [
					{
						"astId": 18,
						"contract": "NFT Tokens/TK2.sol:FractionalRealEstate",
						"label": "properties",
						"offset": 0,
						"slot": "0",
						"type": "t_mapping(t_uint256,t_struct(Property)8_storage)"
					},
					{
						"astId": 25,
						"contract": "NFT Tokens/TK2.sol:FractionalRealEstate",
						"label": "ownershipData",
						"offset": 0,
						"slot": "1",
						"type": "t_mapping(t_uint256,t_mapping(t_address,t_struct(Ownership)13_storage))"
					},
					{
						"astId": 27,
						"contract": "NFT Tokens/TK2.sol:FractionalRealEstate",
						"label": "numProperties",
						"offset": 0,
						"slot": "2",
						"type": "t_uint256"
					}
				],
				"types": {
					"t_address": {
						"encoding": "inplace",
						"label": "address",
						"numberOfBytes": "20"
					},
					"t_mapping(t_address,t_struct(Ownership)13_storage)": {
						"encoding": "mapping",
						"key": "t_address",
						"label": "mapping(address => struct FractionalRealEstate.Ownership)",
						"numberOfBytes": "32",
						"value": "t_struct(Ownership)13_storage"
					},
					"t_mapping(t_uint256,t_mapping(t_address,t_struct(Ownership)13_storage))": {
						"encoding": "mapping",
						"key": "t_uint256",
						"label": "mapping(uint256 => mapping(address => struct FractionalRealEstate.Ownership))",
						"numberOfBytes": "32",
						"value": "t_mapping(t_address,t_struct(Ownership)13_storage)"
					},
					"t_mapping(t_uint256,t_struct(Property)8_storage)": {
						"encoding": "mapping",
						"key": "t_uint256",
						"label": "mapping(uint256 => struct FractionalRealEstate.Property)",
						"numberOfBytes": "32",
						"value": "t_struct(Property)8_storage"
					},
					"t_string_storage": {
						"encoding": "bytes",
						"label": "string",
						"numberOfBytes": "32"
					},
					"t_struct(Ownership)13_storage": {
						"encoding": "inplace",
						"label": "struct FractionalRealEstate.Ownership",
						"members": [
							{
								"astId": 10,
								"contract": "NFT Tokens/TK2.sol:FractionalRealEstate",
								"label": "owner",
								"offset": 0,
								"slot": "0",
								"type": "t_address"
							},
							{
								"astId": 12,
								"contract": "NFT Tokens/TK2.sol:FractionalRealEstate",
								"label": "tokenOwned",
								"offset": 0,
								"slot": "1",
								"type": "t_uint256"
							}
						],
						"numberOfBytes": "64"
					},
					"t_struct(Property)8_storage": {
						"encoding": "inplace",
						"label": "struct FractionalRealEstate.Property",
						"members": [
							{
								"astId": 3,
								"contract": "NFT Tokens/TK2.sol:FractionalRealEstate",
								"label": "propertyAddress",
								"offset": 0,
								"slot": "0",
								"type": "t_string_storage"
							},
							{
								"astId": 5,
								"contract": "NFT Tokens/TK2.sol:FractionalRealEstate",
								"label": "totalArea",
								"offset": 0,
								"slot": "1",
								"type": "t_uint256"
							},
							{
								"astId": 7,
								"contract": "NFT Tokens/TK2.sol:FractionalRealEstate",
								"label": "tokenPrice",
								"offset": 0,
								"slot": "2",
								"type": "t_uint256"
							}
						],
						"numberOfBytes": "96"
					},
					"t_uint256": {
						"encoding": "inplace",
						"label": "uint256",
						"numberOfBytes": "32"
					}
				}
			},
			"userdoc": {
				"kind": "user",
				"methods": {},
				"version": 1
			}
		}
	}
}