{
	"data": {
		"bytecode": {
			"linkReferences": {},
			"object": "6080604052348015600e575f80fd5b50610bcd8061001c5f395ff3fe608060405234801561000f575f80fd5b506004361061003f575f3560e01c80637acc0b2014610043578063b53db1c714610077578063f20f8e4114610093575b5f80fd5b61005d600480360381019061005891906103fa565b6100af565b60405161006e9594939291906104e3565b60405180910390f35b610091600480360381019061008c919061053b565b610185565b005b6100ad60048036038101906100a891906106a5565b6102ac565b005b5f602052805f5260405f205f91509050805f0180546100cd9061073e565b80601f01602080910402602001604051908101604052809291908181526020018280546100f99061073e565b80156101445780601f1061011b57610100808354040283529160200191610144565b820191905f5260205f20905b81548152906001019060200180831161012757829003601f168201915b505050505090806001015490806002015490806003015f9054906101000a900473ffffffffffffffffffffffffffffffffffffffff16908060040154905085565b5f805f8481526020019081526020015f2090505f8160010154116101de576040517f08c379a00000000000000000000000000000000000000000000000000000000081526004016101d5906107b8565b60405180910390fd5b806005015f3373ffffffffffffffffffffffffffffffffffffffff1673ffffffffffffffffffffffffffffffffffffffff1681526020019081526020015f20604051806040016040528042815260200184815250908060018154018082558091505060019003905f5260205f2090600202015f909190919091505f820151815f01556020820151816001015550507f114a4c12d6a050ea7d6e3482e99a2eff1100458f67b21296784faee37f42dd8683338460405161029f939291906107d6565b60405180910390a1505050565b5f6102b5610378565b90505f805f8381526020019081526020015f20905084815f0190816102da91906109a8565b5081816001018190555083816002018190555033816003015f6101000a81548173ffffffffffffffffffffffffffffffffffffffff021916908373ffffffffffffffffffffffffffffffffffffffff1602179055508281600401819055507f73e014c0a076665d9511a27e878fadccb6d7171f5754ba1167a670023760b0158233604051610369929190610a77565b60405180910390a15050505050565b5f6001436103869190610acb565b4033604051602001610399929190610b6c565b604051602081830303815290604052805190602001205f1c905090565b5f604051905090565b5f80fd5b5f80fd5b5f819050919050565b6103d9816103c7565b81146103e3575f80fd5b50565b5f813590506103f4816103d0565b92915050565b5f6020828403121561040f5761040e6103bf565b5b5f61041c848285016103e6565b91505092915050565b5f81519050919050565b5f82825260208201905092915050565b8281835e5f83830152505050565b5f601f19601f8301169050919050565b5f61046782610425565b610471818561042f565b935061048181856020860161043f565b61048a8161044d565b840191505092915050565b61049e816103c7565b82525050565b5f73ffffffffffffffffffffffffffffffffffffffff82169050919050565b5f6104cd826104a4565b9050919050565b6104dd816104c3565b82525050565b5f60a0820190508181035f8301526104fb818861045d565b905061050a6020830187610495565b6105176040830186610495565b61052460608301856104d4565b6105316080830184610495565b9695505050505050565b5f8060408385031215610551576105506103bf565b5b5f61055e858286016103e6565b925050602061056f858286016103e6565b9150509250929050565b5f80fd5b5f80fd5b7f4e487b71000000000000000000000000000000000000000000000000000000005f52604160045260245ffd5b6105b78261044d565b810181811067ffffffffffffffff821117156105d6576105d5610581565b5b80604052505050565b5f6105e86103b6565b90506105f482826105ae565b919050565b5f67ffffffffffffffff82111561061357610612610581565b5b61061c8261044d565b9050602081019050919050565b828183375f83830152505050565b5f610649610644846105f9565b6105df565b9050828152602081018484840111156106655761066461057d565b5b610670848285610629565b509392505050565b5f82601f83011261068c5761068b610579565b5b813561069c848260208601610637565b91505092915050565b5f805f606084860312156106bc576106bb6103bf565b5b5f84013567ffffffffffffffff8111156106d9576106d86103c3565b5b6106e586828701610678565b93505060206106f6868287016103e6565b9250506040610707868287016103e6565b9150509250925092565b7f4e487b71000000000000000000000000000000000000000000000000000000005f52602260045260245ffd5b5f600282049050600182168061075557607f821691505b60208210810361076857610767610711565b5b50919050565b7f496e76616c69642070726f647563742073657269616c206e756d6265720000005f82015250565b5f6107a2601d8361042f565b91506107ad8261076e565b602082019050919050565b5f6020820190508181035f8301526107cf81610796565b9050919050565b5f6060820190506107e95f830186610495565b6107f660208301856104d4565b6108036040830184610495565b949350505050565b5f819050815f5260205f209050919050565b5f6020601f8301049050919050565b5f82821b905092915050565b5f600883026108677fffffffffffffffffffffffffffffffffffffffffffffffffffffffffffffffff8261082c565b610871868361082c565b95508019841693508086168417925050509392505050565b5f819050919050565b5f6108ac6108a76108a2846103c7565b610889565b6103c7565b9050919050565b5f819050919050565b6108c583610892565b6108d96108d1826108b3565b848454610838565b825550505050565b5f90565b6108ed6108e1565b6108f88184846108bc565b505050565b5b8181101561091b576109105f826108e5565b6001810190506108fe565b5050565b601f821115610960576109318161080b565b61093a8461081d565b81016020851015610949578190505b61095d6109558561081d565b8301826108fd565b50505b505050565b5f82821c905092915050565b5f6109805f1984600802610965565b1980831691505092915050565b5f6109988383610971565b9150826002028217905092915050565b6109b182610425565b67ffffffffffffffff8111156109ca576109c9610581565b5b6109d4825461073e565b6109df82828561091f565b5f60209050601f831160018114610a10575f84156109fe578287015190505b610a08858261098d565b865550610a6f565b601f198416610a1e8661080b565b5f5b82811015610a4557848901518255600182019150602085019450602081019050610a20565b86831015610a625784890151610a5e601f891682610971565b8355505b6001600288020188555050505b505050505050565b5f604082019050610a8a5f830185610495565b610a9760208301846104d4565b9392505050565b7f4e487b71000000000000000000000000000000000000000000000000000000005f52601160045260245ffd5b5f610ad5826103c7565b9150610ae0836103c7565b9250828203905081811115610af857610af7610a9e565b5b92915050565b5f819050919050565b5f819050919050565b610b21610b1c82610afe565b610b07565b82525050565b5f8160601b9050919050565b5f610b3d82610b27565b9050919050565b5f610b4e82610b33565b9050919050565b610b66610b61826104c3565b610b44565b82525050565b5f610b778285610b10565b602082019150610b878284610b55565b601482019150819050939250505056fea26469706673582212204771056f3e64ff27e721716ea538b2b9a43b0832d6b827b89a580b4031cc193764736f6c63430008190033",
			"opcodes": "PUSH1 0x80 PUSH1 0x40 MSTORE CALLVALUE DUP1 ISZERO PUSH1 0xE JUMPI PUSH0 DUP1 REVERT JUMPDEST POP PUSH2 0xBCD DUP1 PUSH2 0x1C PUSH0 CODECOPY PUSH0 RETURN INVALID PUSH1 0x80 PUSH1 0x40 MSTORE CALLVALUE DUP1 ISZERO PUSH2 0xF JUMPI PUSH0 DUP1 REVERT JUMPDEST POP PUSH1 0x4 CALLDATASIZE LT PUSH2 0x3F JUMPI PUSH0 CALLDATALOAD PUSH1 0xE0 SHR DUP1 PUSH4 0x7ACC0B20 EQ PUSH2 0x43 JUMPI DUP1 PUSH4 0xB53DB1C7 EQ PUSH2 0x77 JUMPI DUP1 PUSH4 0xF20F8E41 EQ PUSH2 0x93 JUMPI JUMPDEST PUSH0 DUP1 REVERT JUMPDEST PUSH2 0x5D PUSH1 0x4 DUP1 CALLDATASIZE SUB DUP2 ADD SWAP1 PUSH2 0x58 SWAP2 SWAP1 PUSH2 0x3FA JUMP JUMPDEST PUSH2 0xAF JUMP JUMPDEST PUSH1 0x40 MLOAD PUSH2 0x6E SWAP6 SWAP5 SWAP4 SWAP3 SWAP2 SWAP1 PUSH2 0x4E3 JUMP JUMPDEST PUSH1 0x40 MLOAD DUP1 SWAP2 SUB SWAP1 RETURN JUMPDEST PUSH2 0x91 PUSH1 0x4 DUP1 CALLDATASIZE SUB DUP2 ADD SWAP1 PUSH2 0x8C SWAP2 SWAP1 PUSH2 0x53B JUMP JUMPDEST PUSH2 0x185 JUMP JUMPDEST STOP JUMPDEST PUSH2 0xAD PUSH1 0x4 DUP1 CALLDATASIZE SUB DUP2 ADD SWAP1 PUSH2 0xA8 SWAP2 SWAP1 PUSH2 0x6A5 JUMP JUMPDEST PUSH2 0x2AC JUMP JUMPDEST STOP JUMPDEST PUSH0 PUSH1 0x20 MSTORE DUP1 PUSH0 MSTORE PUSH1 0x40 PUSH0 KECCAK256 PUSH0 SWAP2 POP SWAP1 POP DUP1 PUSH0 ADD DUP1 SLOAD PUSH2 0xCD SWAP1 PUSH2 0x73E JUMP JUMPDEST DUP1 PUSH1 0x1F ADD PUSH1 0x20 DUP1 SWAP2 DIV MUL PUSH1 0x20 ADD PUSH1 0x40 MLOAD SWAP1 DUP2 ADD PUSH1 0x40 MSTORE DUP1 SWAP3 SWAP2 SWAP1 DUP2 DUP2 MSTORE PUSH1 0x20 ADD DUP3 DUP1 SLOAD PUSH2 0xF9 SWAP1 PUSH2 0x73E JUMP JUMPDEST DUP1 ISZERO PUSH2 0x144 JUMPI DUP1 PUSH1 0x1F LT PUSH2 0x11B JUMPI PUSH2 0x100 DUP1 DUP4 SLOAD DIV MUL DUP4 MSTORE SWAP2 PUSH1 0x20 ADD SWAP2 PUSH2 0x144 JUMP JUMPDEST DUP3 ADD SWAP2 SWAP1 PUSH0 MSTORE PUSH1 0x20 PUSH0 KECCAK256 SWAP1 JUMPDEST DUP2 SLOAD DUP2 MSTORE SWAP1 PUSH1 0x1 ADD SWAP1 PUSH1 0x20 ADD DUP1 DUP4 GT PUSH2 0x127 JUMPI DUP3 SWAP1 SUB PUSH1 0x1F AND DUP3 ADD SWAP2 JUMPDEST POP POP POP POP POP SWAP1 DUP1 PUSH1 0x1 ADD SLOAD SWAP1 DUP1 PUSH1 0x2 ADD SLOAD SWAP1 DUP1 PUSH1 0x3 ADD PUSH0 SWAP1 SLOAD SWAP1 PUSH2 0x100 EXP SWAP1 DIV PUSH20 0xFFFFFFFFFFFFFFFFFFFFFFFFFFFFFFFFFFFFFFFF AND SWAP1 DUP1 PUSH1 0x4 ADD SLOAD SWAP1 POP DUP6 JUMP JUMPDEST PUSH0 DUP1 PUSH0 DUP5 DUP2 MSTORE PUSH1 0x20 ADD SWAP1 DUP2 MSTORE PUSH1 0x20 ADD PUSH0 KECCAK256 SWAP1 POP PUSH0 DUP2 PUSH1 0x1 ADD SLOAD GT PUSH2 0x1DE JUMPI PUSH1 0x40 MLOAD PUSH32 0x8C379A000000000000000000000000000000000000000000000000000000000 DUP2 MSTORE PUSH1 0x4 ADD PUSH2 0x1D5 SWAP1 PUSH2 0x7B8 JUMP JUMPDEST PUSH1 0x40 MLOAD DUP1 SWAP2 SUB SWAP1 REVERT JUMPDEST DUP1 PUSH1 0x5 ADD PUSH0 CALLER PUSH20 0xFFFFFFFFFFFFFFFFFFFFFFFFFFFFFFFFFFFFFFFF AND PUSH20 0xFFFFFFFFFFFFFFFFFFFFFFFFFFFFFFFFFFFFFFFF AND DUP2 MSTORE PUSH1 0x20 ADD SWAP1 DUP2 MSTORE PUSH1 0x20 ADD PUSH0 KECCAK256 PUSH1 0x40 MLOAD DUP1 PUSH1 0x40 ADD PUSH1 0x40 MSTORE DUP1 TIMESTAMP DUP2 MSTORE PUSH1 0x20 ADD DUP5 DUP2 MSTORE POP SWAP1 DUP1 PUSH1 0x1 DUP2 SLOAD ADD DUP1 DUP3 SSTORE DUP1 SWAP2 POP POP PUSH1 0x1 SWAP1 SUB SWAP1 PUSH0 MSTORE PUSH1 0x20 PUSH0 KECCAK256 SWAP1 PUSH1 0x2 MUL ADD PUSH0 SWAP1 SWAP2 SWAP1 SWAP2 SWAP1 SWAP2 POP PUSH0 DUP3 ADD MLOAD DUP2 PUSH0 ADD SSTORE PUSH1 0x20 DUP3 ADD MLOAD DUP2 PUSH1 0x1 ADD SSTORE POP POP PUSH32 0x114A4C12D6A050EA7D6E3482E99A2EFF1100458F67B21296784FAEE37F42DD86 DUP4 CALLER DUP5 PUSH1 0x40 MLOAD PUSH2 0x29F SWAP4 SWAP3 SWAP2 SWAP1 PUSH2 0x7D6 JUMP JUMPDEST PUSH1 0x40 MLOAD DUP1 SWAP2 SUB SWAP1 LOG1 POP POP POP JUMP JUMPDEST PUSH0 PUSH2 0x2B5 PUSH2 0x378 JUMP JUMPDEST SWAP1 POP PUSH0 DUP1 PUSH0 DUP4 DUP2 MSTORE PUSH1 0x20 ADD SWAP1 DUP2 MSTORE PUSH1 0x20 ADD PUSH0 KECCAK256 SWAP1 POP DUP5 DUP2 PUSH0 ADD SWAP1 DUP2 PUSH2 0x2DA SWAP2 SWAP1 PUSH2 0x9A8 JUMP JUMPDEST POP DUP2 DUP2 PUSH1 0x1 ADD DUP2 SWAP1 SSTORE POP DUP4 DUP2 PUSH1 0x2 ADD DUP2 SWAP1 SSTORE POP CALLER DUP2 PUSH1 0x3 ADD PUSH0 PUSH2 0x100 EXP DUP2 SLOAD DUP2 PUSH20 0xFFFFFFFFFFFFFFFFFFFFFFFFFFFFFFFFFFFFFFFF MUL NOT AND SWAP1 DUP4 PUSH20 0xFFFFFFFFFFFFFFFFFFFFFFFFFFFFFFFFFFFFFFFF AND MUL OR SWAP1 SSTORE POP DUP3 DUP2 PUSH1 0x4 ADD DUP2 SWAP1 SSTORE POP PUSH32 0x73E014C0A076665D9511A27E878FADCCB6D7171F5754BA1167A670023760B015 DUP3 CALLER PUSH1 0x40 MLOAD PUSH2 0x369 SWAP3 SWAP2 SWAP1 PUSH2 0xA77 JUMP JUMPDEST PUSH1 0x40 MLOAD DUP1 SWAP2 SUB SWAP1 LOG1 POP POP POP POP POP JUMP JUMPDEST PUSH0 PUSH1 0x1 NUMBER PUSH2 0x386 SWAP2 SWAP1 PUSH2 0xACB JUMP JUMPDEST BLOCKHASH CALLER PUSH1 0x40 MLOAD PUSH1 0x20 ADD PUSH2 0x399 SWAP3 SWAP2 SWAP1 PUSH2 0xB6C JUMP JUMPDEST PUSH1 0x40 MLOAD PUSH1 0x20 DUP2 DUP4 SUB SUB DUP2 MSTORE SWAP1 PUSH1 0x40 MSTORE DUP1 MLOAD SWAP1 PUSH1 0x20 ADD KECCAK256 PUSH0 SHR SWAP1 POP SWAP1 JUMP JUMPDEST PUSH0 PUSH1 0x40 MLOAD SWAP1 POP SWAP1 JUMP JUMPDEST PUSH0 DUP1 REVERT JUMPDEST PUSH0 DUP1 REVERT JUMPDEST PUSH0 DUP2 SWAP1 POP SWAP2 SWAP1 POP JUMP JUMPDEST PUSH2 0x3D9 DUP2 PUSH2 0x3C7 JUMP JUMPDEST DUP2 EQ PUSH2 0x3E3 JUMPI PUSH0 DUP1 REVERT JUMPDEST POP JUMP JUMPDEST PUSH0 DUP2 CALLDATALOAD SWAP1 POP PUSH2 0x3F4 DUP2 PUSH2 0x3D0 JUMP JUMPDEST SWAP3 SWAP2 POP POP JUMP JUMPDEST PUSH0 PUSH1 0x20 DUP3 DUP5 SUB SLT ISZERO PUSH2 0x40F JUMPI PUSH2 0x40E PUSH2 0x3BF JUMP JUMPDEST JUMPDEST PUSH0 PUSH2 0x41C DUP5 DUP3 DUP6 ADD PUSH2 0x3E6 JUMP JUMPDEST SWAP2 POP POP SWAP3 SWAP2 POP POP JUMP JUMPDEST PUSH0 DUP2 MLOAD SWAP1 POP SWAP2 SWAP1 POP JUMP JUMPDEST PUSH0 DUP3 DUP3 MSTORE PUSH1 0x20 DUP3 ADD SWAP1 POP SWAP3 SWAP2 POP POP JUMP JUMPDEST DUP3 DUP2 DUP4 MCOPY PUSH0 DUP4 DUP4 ADD MSTORE POP POP POP JUMP JUMPDEST PUSH0 PUSH1 0x1F NOT PUSH1 0x1F DUP4 ADD AND SWAP1 POP SWAP2 SWAP1 POP JUMP JUMPDEST PUSH0 PUSH2 0x467 DUP3 PUSH2 0x425 JUMP JUMPDEST PUSH2 0x471 DUP2 DUP6 PUSH2 0x42F JUMP JUMPDEST SWAP4 POP PUSH2 0x481 DUP2 DUP6 PUSH1 0x20 DUP7 ADD PUSH2 0x43F JUMP JUMPDEST PUSH2 0x48A DUP2 PUSH2 0x44D JUMP JUMPDEST DUP5 ADD SWAP2 POP POP SWAP3 SWAP2 POP POP JUMP JUMPDEST PUSH2 0x49E DUP2 PUSH2 0x3C7 JUMP JUMPDEST DUP3 MSTORE POP POP JUMP JUMPDEST PUSH0 PUSH20 0xFFFFFFFFFFFFFFFFFFFFFFFFFFFFFFFFFFFFFFFF DUP3 AND SWAP1 POP SWAP2 SWAP1 POP JUMP JUMPDEST PUSH0 PUSH2 0x4CD DUP3 PUSH2 0x4A4 JUMP JUMPDEST SWAP1 POP SWAP2 SWAP1 POP JUMP JUMPDEST PUSH2 0x4DD DUP2 PUSH2 0x4C3 JUMP JUMPDEST DUP3 MSTORE POP POP JUMP JUMPDEST PUSH0 PUSH1 0xA0 DUP3 ADD SWAP1 POP DUP2 DUP2 SUB PUSH0 DUP4 ADD MSTORE PUSH2 0x4FB DUP2 DUP9 PUSH2 0x45D JUMP JUMPDEST SWAP1 POP PUSH2 0x50A PUSH1 0x20 DUP4 ADD DUP8 PUSH2 0x495 JUMP JUMPDEST PUSH2 0x517 PUSH1 0x40 DUP4 ADD DUP7 PUSH2 0x495 JUMP JUMPDEST PUSH2 0x524 PUSH1 0x60 DUP4 ADD DUP6 PUSH2 0x4D4 JUMP JUMPDEST PUSH2 0x531 PUSH1 0x80 DUP4 ADD DUP5 PUSH2 0x495 JUMP JUMPDEST SWAP7 SWAP6 POP POP POP POP POP POP JUMP JUMPDEST PUSH0 DUP1 PUSH1 0x40 DUP4 DUP6 SUB SLT ISZERO PUSH2 0x551 JUMPI PUSH2 0x550 PUSH2 0x3BF JUMP JUMPDEST JUMPDEST PUSH0 PUSH2 0x55E DUP6 DUP3 DUP7 ADD PUSH2 0x3E6 JUMP JUMPDEST SWAP3 POP POP PUSH1 0x20 PUSH2 0x56F DUP6 DUP3 DUP7 ADD PUSH2 0x3E6 JUMP JUMPDEST SWAP2 POP POP SWAP3 POP SWAP3 SWAP1 POP JUMP JUMPDEST PUSH0 DUP1 REVERT JUMPDEST PUSH0 DUP1 REVERT JUMPDEST PUSH32 0x4E487B7100000000000000000000000000000000000000000000000000000000 PUSH0 MSTORE PUSH1 0x41 PUSH1 0x4 MSTORE PUSH1 0x24 PUSH0 REVERT JUMPDEST PUSH2 0x5B7 DUP3 PUSH2 0x44D JUMP JUMPDEST DUP2 ADD DUP2 DUP2 LT PUSH8 0xFFFFFFFFFFFFFFFF DUP3 GT OR ISZERO PUSH2 0x5D6 JUMPI PUSH2 0x5D5 PUSH2 0x581 JUMP JUMPDEST JUMPDEST DUP1 PUSH1 0x40 MSTORE POP POP POP JUMP JUMPDEST PUSH0 PUSH2 0x5E8 PUSH2 0x3B6 JUMP JUMPDEST SWAP1 POP PUSH2 0x5F4 DUP3 DUP3 PUSH2 0x5AE JUMP JUMPDEST SWAP2 SWAP1 POP JUMP JUMPDEST PUSH0 PUSH8 0xFFFFFFFFFFFFFFFF DUP3 GT ISZERO PUSH2 0x613 JUMPI PUSH2 0x612 PUSH2 0x581 JUMP JUMPDEST JUMPDEST PUSH2 0x61C DUP3 PUSH2 0x44D JUMP JUMPDEST SWAP1 POP PUSH1 0x20 DUP2 ADD SWAP1 POP SWAP2 SWAP1 POP JUMP JUMPDEST DUP3 DUP2 DUP4 CALLDATACOPY PUSH0 DUP4 DUP4 ADD MSTORE POP POP POP JUMP JUMPDEST PUSH0 PUSH2 0x649 PUSH2 0x644 DUP5 PUSH2 0x5F9 JUMP JUMPDEST PUSH2 0x5DF JUMP JUMPDEST SWAP1 POP DUP3 DUP2 MSTORE PUSH1 0x20 DUP2 ADD DUP5 DUP5 DUP5 ADD GT ISZERO PUSH2 0x665 JUMPI PUSH2 0x664 PUSH2 0x57D JUMP JUMPDEST JUMPDEST PUSH2 0x670 DUP5 DUP3 DUP6 PUSH2 0x629 JUMP JUMPDEST POP SWAP4 SWAP3 POP POP POP JUMP JUMPDEST PUSH0 DUP3 PUSH1 0x1F DUP4 ADD SLT PUSH2 0x68C JUMPI PUSH2 0x68B PUSH2 0x579 JUMP JUMPDEST JUMPDEST DUP2 CALLDATALOAD PUSH2 0x69C DUP5 DUP3 PUSH1 0x20 DUP7 ADD PUSH2 0x637 JUMP JUMPDEST SWAP2 POP POP SWAP3 SWAP2 POP POP JUMP JUMPDEST PUSH0 DUP1 PUSH0 PUSH1 0x60 DUP5 DUP7 SUB SLT ISZERO PUSH2 0x6BC JUMPI PUSH2 0x6BB PUSH2 0x3BF JUMP JUMPDEST JUMPDEST PUSH0 DUP5 ADD CALLDATALOAD PUSH8 0xFFFFFFFFFFFFFFFF DUP2 GT ISZERO PUSH2 0x6D9 JUMPI PUSH2 0x6D8 PUSH2 0x3C3 JUMP JUMPDEST JUMPDEST PUSH2 0x6E5 DUP7 DUP3 DUP8 ADD PUSH2 0x678 JUMP JUMPDEST SWAP4 POP POP PUSH1 0x20 PUSH2 0x6F6 DUP7 DUP3 DUP8 ADD PUSH2 0x3E6 JUMP JUMPDEST SWAP3 POP POP PUSH1 0x40 PUSH2 0x707 DUP7 DUP3 DUP8 ADD PUSH2 0x3E6 JUMP JUMPDEST SWAP2 POP POP SWAP3 POP SWAP3 POP SWAP3 JUMP JUMPDEST PUSH32 0x4E487B7100000000000000000000000000000000000000000000000000000000 PUSH0 MSTORE PUSH1 0x22 PUSH1 0x4 MSTORE PUSH1 0x24 PUSH0 REVERT JUMPDEST PUSH0 PUSH1 0x2 DUP3 DIV SWAP1 POP PUSH1 0x1 DUP3 AND DUP1 PUSH2 0x755 JUMPI PUSH1 0x7F DUP3 AND SWAP2 POP JUMPDEST PUSH1 0x20 DUP3 LT DUP2 SUB PUSH2 0x768 JUMPI PUSH2 0x767 PUSH2 0x711 JUMP JUMPDEST JUMPDEST POP SWAP2 SWAP1 POP JUMP JUMPDEST PUSH32 0x496E76616C69642070726F647563742073657269616C206E756D626572000000 PUSH0 DUP3 ADD MSTORE POP JUMP JUMPDEST PUSH0 PUSH2 0x7A2 PUSH1 0x1D DUP4 PUSH2 0x42F JUMP JUMPDEST SWAP2 POP PUSH2 0x7AD DUP3 PUSH2 0x76E JUMP JUMPDEST PUSH1 0x20 DUP3 ADD SWAP1 POP SWAP2 SWAP1 POP JUMP JUMPDEST PUSH0 PUSH1 0x20 DUP3 ADD SWAP1 POP DUP2 DUP2 SUB PUSH0 DUP4 ADD MSTORE PUSH2 0x7CF DUP2 PUSH2 0x796 JUMP JUMPDEST SWAP1 POP SWAP2 SWAP1 POP JUMP JUMPDEST PUSH0 PUSH1 0x60 DUP3 ADD SWAP1 POP PUSH2 0x7E9 PUSH0 DUP4 ADD DUP7 PUSH2 0x495 JUMP JUMPDEST PUSH2 0x7F6 PUSH1 0x20 DUP4 ADD DUP6 PUSH2 0x4D4 JUMP JUMPDEST PUSH2 0x803 PUSH1 0x40 DUP4 ADD DUP5 PUSH2 0x495 JUMP JUMPDEST SWAP5 SWAP4 POP POP POP POP JUMP JUMPDEST PUSH0 DUP2 SWAP1 POP DUP2 PUSH0 MSTORE PUSH1 0x20 PUSH0 KECCAK256 SWAP1 POP SWAP2 SWAP1 POP JUMP JUMPDEST PUSH0 PUSH1 0x20 PUSH1 0x1F DUP4 ADD DIV SWAP1 POP SWAP2 SWAP1 POP JUMP JUMPDEST PUSH0 DUP3 DUP3 SHL SWAP1 POP SWAP3 SWAP2 POP POP JUMP JUMPDEST PUSH0 PUSH1 0x8 DUP4 MUL PUSH2 0x867 PUSH32 0xFFFFFFFFFFFFFFFFFFFFFFFFFFFFFFFFFFFFFFFFFFFFFFFFFFFFFFFFFFFFFFFF DUP3 PUSH2 0x82C JUMP JUMPDEST PUSH2 0x871 DUP7 DUP4 PUSH2 0x82C JUMP JUMPDEST SWAP6 POP DUP1 NOT DUP5 AND SWAP4 POP DUP1 DUP7 AND DUP5 OR SWAP3 POP POP POP SWAP4 SWAP3 POP POP POP JUMP JUMPDEST PUSH0 DUP2 SWAP1 POP SWAP2 SWAP1 POP JUMP JUMPDEST PUSH0 PUSH2 0x8AC PUSH2 0x8A7 PUSH2 0x8A2 DUP5 PUSH2 0x3C7 JUMP JUMPDEST PUSH2 0x889 JUMP JUMPDEST PUSH2 0x3C7 JUMP JUMPDEST SWAP1 POP SWAP2 SWAP1 POP JUMP JUMPDEST PUSH0 DUP2 SWAP1 POP SWAP2 SWAP1 POP JUMP JUMPDEST PUSH2 0x8C5 DUP4 PUSH2 0x892 JUMP JUMPDEST PUSH2 0x8D9 PUSH2 0x8D1 DUP3 PUSH2 0x8B3 JUMP JUMPDEST DUP5 DUP5 SLOAD PUSH2 0x838 JUMP JUMPDEST DUP3 SSTORE POP POP POP POP JUMP JUMPDEST PUSH0 SWAP1 JUMP JUMPDEST PUSH2 0x8ED PUSH2 0x8E1 JUMP JUMPDEST PUSH2 0x8F8 DUP2 DUP5 DUP5 PUSH2 0x8BC JUMP JUMPDEST POP POP POP JUMP JUMPDEST JUMPDEST DUP2 DUP2 LT ISZERO PUSH2 0x91B JUMPI PUSH2 0x910 PUSH0 DUP3 PUSH2 0x8E5 JUMP JUMPDEST PUSH1 0x1 DUP2 ADD SWAP1 POP PUSH2 0x8FE JUMP JUMPDEST POP POP JUMP JUMPDEST PUSH1 0x1F DUP3 GT ISZERO PUSH2 0x960 JUMPI PUSH2 0x931 DUP2 PUSH2 0x80B JUMP JUMPDEST PUSH2 0x93A DUP5 PUSH2 0x81D JUMP JUMPDEST DUP2 ADD PUSH1 0x20 DUP6 LT ISZERO PUSH2 0x949 JUMPI DUP2 SWAP1 POP JUMPDEST PUSH2 0x95D PUSH2 0x955 DUP6 PUSH2 0x81D JUMP JUMPDEST DUP4 ADD DUP3 PUSH2 0x8FD JUMP JUMPDEST POP POP JUMPDEST POP POP POP JUMP JUMPDEST PUSH0 DUP3 DUP3 SHR SWAP1 POP SWAP3 SWAP2 POP POP JUMP JUMPDEST PUSH0 PUSH2 0x980 PUSH0 NOT DUP5 PUSH1 0x8 MUL PUSH2 0x965 JUMP JUMPDEST NOT DUP1 DUP4 AND SWAP2 POP POP SWAP3 SWAP2 POP POP JUMP JUMPDEST PUSH0 PUSH2 0x998 DUP4 DUP4 PUSH2 0x971 JUMP JUMPDEST SWAP2 POP DUP3 PUSH1 0x2 MUL DUP3 OR SWAP1 POP SWAP3 SWAP2 POP POP JUMP JUMPDEST PUSH2 0x9B1 DUP3 PUSH2 0x425 JUMP JUMPDEST PUSH8 0xFFFFFFFFFFFFFFFF DUP2 GT ISZERO PUSH2 0x9CA JUMPI PUSH2 0x9C9 PUSH2 0x581 JUMP JUMPDEST JUMPDEST PUSH2 0x9D4 DUP3 SLOAD PUSH2 0x73E JUMP JUMPDEST PUSH2 0x9DF DUP3 DUP3 DUP6 PUSH2 0x91F JUMP JUMPDEST PUSH0 PUSH1 0x20 SWAP1 POP PUSH1 0x1F DUP4 GT PUSH1 0x1 DUP2 EQ PUSH2 0xA10 JUMPI PUSH0 DUP5 ISZERO PUSH2 0x9FE JUMPI DUP3 DUP8 ADD MLOAD SWAP1 POP JUMPDEST PUSH2 0xA08 DUP6 DUP3 PUSH2 0x98D JUMP JUMPDEST DUP7 SSTORE POP PUSH2 0xA6F JUMP JUMPDEST PUSH1 0x1F NOT DUP5 AND PUSH2 0xA1E DUP7 PUSH2 0x80B JUMP JUMPDEST PUSH0 JUMPDEST DUP3 DUP2 LT ISZERO PUSH2 0xA45 JUMPI DUP5 DUP10 ADD MLOAD DUP3 SSTORE PUSH1 0x1 DUP3 ADD SWAP2 POP PUSH1 0x20 DUP6 ADD SWAP5 POP PUSH1 0x20 DUP2 ADD SWAP1 POP PUSH2 0xA20 JUMP JUMPDEST DUP7 DUP4 LT ISZERO PUSH2 0xA62 JUMPI DUP5 DUP10 ADD MLOAD PUSH2 0xA5E PUSH1 0x1F DUP10 AND DUP3 PUSH2 0x971 JUMP JUMPDEST DUP4 SSTORE POP JUMPDEST PUSH1 0x1 PUSH1 0x2 DUP9 MUL ADD DUP9 SSTORE POP POP POP JUMPDEST POP POP POP POP POP POP JUMP JUMPDEST PUSH0 PUSH1 0x40 DUP3 ADD SWAP1 POP PUSH2 0xA8A PUSH0 DUP4 ADD DUP6 PUSH2 0x495 JUMP JUMPDEST PUSH2 0xA97 PUSH1 0x20 DUP4 ADD DUP5 PUSH2 0x4D4 JUMP JUMPDEST SWAP4 SWAP3 POP POP POP JUMP JUMPDEST PUSH32 0x4E487B7100000000000000000000000000000000000000000000000000000000 PUSH0 MSTORE PUSH1 0x11 PUSH1 0x4 MSTORE PUSH1 0x24 PUSH0 REVERT JUMPDEST PUSH0 PUSH2 0xAD5 DUP3 PUSH2 0x3C7 JUMP JUMPDEST SWAP2 POP PUSH2 0xAE0 DUP4 PUSH2 0x3C7 JUMP JUMPDEST SWAP3 POP DUP3 DUP3 SUB SWAP1 POP DUP2 DUP2 GT ISZERO PUSH2 0xAF8 JUMPI PUSH2 0xAF7 PUSH2 0xA9E JUMP JUMPDEST JUMPDEST SWAP3 SWAP2 POP POP JUMP JUMPDEST PUSH0 DUP2 SWAP1 POP SWAP2 SWAP1 POP JUMP JUMPDEST PUSH0 DUP2 SWAP1 POP SWAP2 SWAP1 POP JUMP JUMPDEST PUSH2 0xB21 PUSH2 0xB1C DUP3 PUSH2 0xAFE JUMP JUMPDEST PUSH2 0xB07 JUMP JUMPDEST DUP3 MSTORE POP POP JUMP JUMPDEST PUSH0 DUP2 PUSH1 0x60 SHL SWAP1 POP SWAP2 SWAP1 POP JUMP JUMPDEST PUSH0 PUSH2 0xB3D DUP3 PUSH2 0xB27 JUMP JUMPDEST SWAP1 POP SWAP2 SWAP1 POP JUMP JUMPDEST PUSH0 PUSH2 0xB4E DUP3 PUSH2 0xB33 JUMP JUMPDEST SWAP1 POP SWAP2 SWAP1 POP JUMP JUMPDEST PUSH2 0xB66 PUSH2 0xB61 DUP3 PUSH2 0x4C3 JUMP JUMPDEST PUSH2 0xB44 JUMP JUMPDEST DUP3 MSTORE POP POP JUMP JUMPDEST PUSH0 PUSH2 0xB77 DUP3 DUP6 PUSH2 0xB10 JUMP JUMPDEST PUSH1 0x20 DUP3 ADD SWAP2 POP PUSH2 0xB87 DUP3 DUP5 PUSH2 0xB55 JUMP JUMPDEST PUSH1 0x14 DUP3 ADD SWAP2 POP DUP2 SWAP1 POP SWAP4 SWAP3 POP POP POP JUMP INVALID LOG2 PUSH5 0x6970667358 0x22 SLT KECCAK256 SELFBALANCE PUSH18 0x56F3E64FF27E721716EA538B2B9A43B0832 0xD6 0xB8 0x27 0xB8 SWAP11 PC SIGNEXTEND BLOCKHASH BALANCE 0xCC NOT CALLDATACOPY PUSH5 0x736F6C6343 STOP ADDMOD NOT STOP CALLER "
		},
		"gasEstimates": {
			"creation": {
				"codeDepositCost": "604200",
				"executionCost": "636",
				"totalCost": "604836"
			},
			"external": {
				"products(uint256)": "infinite",
				"recordTemperature(uint256,uint256)": "infinite",
				"registerProduct(string,uint256,uint256)": "infinite"
			},
			"internal": {
				"generateSerialNumber()": "infinite"
			}
		},
		"methodIdentifiers": {
			"products(uint256)": "7acc0b20",
			"recordTemperature(uint256,uint256)": "b53db1c7",
			"registerProduct(string,uint256,uint256)": "f20f8e41"
		}
	},
	"abi": [
		{
			"anonymous": false,
			"inputs": [
				{
					"indexed": false,
					"internalType": "uint256",
					"name": "serialNumber",
					"type": "uint256"
				},
				{
					"indexed": false,
					"internalType": "address",
					"name": "manufacturer",
					"type": "address"
				}
			],
			"name": "ProductRegistered",
			"type": "event"
		},
		{
			"anonymous": false,
			"inputs": [
				{
					"indexed": false,
					"internalType": "uint256",
					"name": "serialNumber",
					"type": "uint256"
				},
				{
					"indexed": false,
					"internalType": "address",
					"name": "location",
					"type": "address"
				},
				{
					"indexed": false,
					"internalType": "uint256",
					"name": "temperature",
					"type": "uint256"
				}
			],
			"name": "TemperatureRecorded",
			"type": "event"
		},
		{
			"inputs": [
				{
					"internalType": "uint256",
					"name": "",
					"type": "uint256"
				}
			],
			"name": "products",
			"outputs": [
				{
					"internalType": "string",
					"name": "name",
					"type": "string"
				},
				{
					"internalType": "uint256",
					"name": "serialNumber",
					"type": "uint256"
				},
				{
					"internalType": "uint256",
					"name": "batchId",
					"type": "uint256"
				},
				{
					"internalType": "address",
					"name": "manufacturer",
					"type": "address"
				},
				{
					"internalType": "uint256",
					"name": "expirationDate",
					"type": "uint256"
				}
			],
			"stateMutability": "view",
			"type": "function"
		},
		{
			"inputs": [
				{
					"internalType": "uint256",
					"name": "serialNumber",
					"type": "uint256"
				},
				{
					"internalType": "uint256",
					"name": "temperature",
					"type": "uint256"
				}
			],
			"name": "recordTemperature",
			"outputs": [],
			"stateMutability": "nonpayable",
			"type": "function"
		},
		{
			"inputs": [
				{
					"internalType": "string",
					"name": "name",
					"type": "string"
				},
				{
					"internalType": "uint256",
					"name": "batchID",
					"type": "uint256"
				},
				{
					"internalType": "uint256",
					"name": "expirationDate",
					"type": "uint256"
				}
			],
			"name": "registerProduct",
			"outputs": [],
			"stateMutability": "nonpayable",
			"type": "function"
		}
	]
}