{
	"Polygon/Game_NFT.sol": {
		"GameNFT": {
			"abi": [
				{
					"inputs": [],
					"stateMutability": "nonpayable",
					"type": "constructor"
				},
				{
					"inputs": [
						{
							"internalType": "address",
							"name": "sender",
							"type": "address"
						},
						{
							"internalType": "uint256",
							"name": "tokenId",
							"type": "uint256"
						},
						{
							"internalType": "address",
							"name": "owner",
							"type": "address"
						}
					],
					"name": "ERC721IncorrectOwner",
					"type": "error"
				},
				{
					"inputs": [
						{
							"internalType": "address",
							"name": "operator",
							"type": "address"
						},
						{
							"internalType": "uint256",
							"name": "tokenId",
							"type": "uint256"
						}
					],
					"name": "ERC721InsufficientApproval",
					"type": "error"
				},
				{
					"inputs": [
						{
							"internalType": "address",
							"name": "approver",
							"type": "address"
						}
					],
					"name": "ERC721InvalidApprover",
					"type": "error"
				},
				{
					"inputs": [
						{
							"internalType": "address",
							"name": "operator",
							"type": "address"
						}
					],
					"name": "ERC721InvalidOperator",
					"type": "error"
				},
				{
					"inputs": [
						{
							"internalType": "address",
							"name": "owner",
							"type": "address"
						}
					],
					"name": "ERC721InvalidOwner",
					"type": "error"
				},
				{
					"inputs": [
						{
							"internalType": "address",
							"name": "receiver",
							"type": "address"
						}
					],
					"name": "ERC721InvalidReceiver",
					"type": "error"
				},
				{
					"inputs": [
						{
							"internalType": "address",
							"name": "sender",
							"type": "address"
						}
					],
					"name": "ERC721InvalidSender",
					"type": "error"
				},
				{
					"inputs": [
						{
							"internalType": "uint256",
							"name": "tokenId",
							"type": "uint256"
						}
					],
					"name": "ERC721NonexistentToken",
					"type": "error"
				},
				{
					"anonymous": false,
					"inputs": [
						{
							"indexed": true,
							"internalType": "address",
							"name": "owner",
							"type": "address"
						},
						{
							"indexed": true,
							"internalType": "address",
							"name": "approved",
							"type": "address"
						},
						{
							"indexed": true,
							"internalType": "uint256",
							"name": "tokenId",
							"type": "uint256"
						}
					],
					"name": "Approval",
					"type": "event"
				},
				{
					"anonymous": false,
					"inputs": [
						{
							"indexed": true,
							"internalType": "address",
							"name": "owner",
							"type": "address"
						},
						{
							"indexed": true,
							"internalType": "address",
							"name": "operator",
							"type": "address"
						},
						{
							"indexed": false,
							"internalType": "bool",
							"name": "approved",
							"type": "bool"
						}
					],
					"name": "ApprovalForAll",
					"type": "event"
				},
				{
					"anonymous": false,
					"inputs": [
						{
							"indexed": true,
							"internalType": "address",
							"name": "from",
							"type": "address"
						},
						{
							"indexed": true,
							"internalType": "address",
							"name": "to",
							"type": "address"
						},
						{
							"indexed": true,
							"internalType": "uint256",
							"name": "tokenId",
							"type": "uint256"
						}
					],
					"name": "Transfer",
					"type": "event"
				},
				{
					"inputs": [
						{
							"internalType": "address",
							"name": "to",
							"type": "address"
						},
						{
							"internalType": "uint256",
							"name": "tokenId",
							"type": "uint256"
						}
					],
					"name": "approve",
					"outputs": [],
					"stateMutability": "nonpayable",
					"type": "function"
				},
				{
					"inputs": [
						{
							"internalType": "address",
							"name": "owner",
							"type": "address"
						}
					],
					"name": "balanceOf",
					"outputs": [
						{
							"internalType": "uint256",
							"name": "",
							"type": "uint256"
						}
					],
					"stateMutability": "view",
					"type": "function"
				},
				{
					"inputs": [
						{
							"internalType": "uint256",
							"name": "tokenId",
							"type": "uint256"
						}
					],
					"name": "getApproved",
					"outputs": [
						{
							"internalType": "address",
							"name": "",
							"type": "address"
						}
					],
					"stateMutability": "view",
					"type": "function"
				},
				{
					"inputs": [
						{
							"internalType": "address",
							"name": "owner",
							"type": "address"
						},
						{
							"internalType": "address",
							"name": "operator",
							"type": "address"
						}
					],
					"name": "isApprovedForAll",
					"outputs": [
						{
							"internalType": "bool",
							"name": "",
							"type": "bool"
						}
					],
					"stateMutability": "view",
					"type": "function"
				},
				{
					"inputs": [
						{
							"internalType": "address",
							"name": "recipient",
							"type": "address"
						},
						{
							"internalType": "string",
							"name": "data",
							"type": "string"
						}
					],
					"name": "mintNFT",
					"outputs": [],
					"stateMutability": "nonpayable",
					"type": "function"
				},
				{
					"inputs": [],
					"name": "name",
					"outputs": [
						{
							"internalType": "string",
							"name": "",
							"type": "string"
						}
					],
					"stateMutability": "view",
					"type": "function"
				},
				{
					"inputs": [
						{
							"internalType": "uint256",
							"name": "",
							"type": "uint256"
						}
					],
					"name": "nftData",
					"outputs": [
						{
							"internalType": "string",
							"name": "",
							"type": "string"
						}
					],
					"stateMutability": "view",
					"type": "function"
				},
				{
					"inputs": [
						{
							"internalType": "uint256",
							"name": "tokenId",
							"type": "uint256"
						}
					],
					"name": "ownerOf",
					"outputs": [
						{
							"internalType": "address",
							"name": "",
							"type": "address"
						}
					],
					"stateMutability": "view",
					"type": "function"
				},
				{
					"inputs": [
						{
							"internalType": "address",
							"name": "from",
							"type": "address"
						},
						{
							"internalType": "address",
							"name": "to",
							"type": "address"
						},
						{
							"internalType": "uint256",
							"name": "tokenId",
							"type": "uint256"
						}
					],
					"name": "safeTransferFrom",
					"outputs": [],
					"stateMutability": "nonpayable",
					"type": "function"
				},
				{
					"inputs": [
						{
							"internalType": "address",
							"name": "from",
							"type": "address"
						},
						{
							"internalType": "address",
							"name": "to",
							"type": "address"
						},
						{
							"internalType": "uint256",
							"name": "tokenId",
							"type": "uint256"
						},
						{
							"internalType": "bytes",
							"name": "data",
							"type": "bytes"
						}
					],
					"name": "safeTransferFrom",
					"outputs": [],
					"stateMutability": "nonpayable",
					"type": "function"
				},
				{
					"inputs": [
						{
							"internalType": "address",
							"name": "operator",
							"type": "address"
						},
						{
							"internalType": "bool",
							"name": "approved",
							"type": "bool"
						}
					],
					"name": "setApprovalForAll",
					"outputs": [],
					"stateMutability": "nonpayable",
					"type": "function"
				},
				{
					"inputs": [
						{
							"internalType": "bytes4",
							"name": "interfaceId",
							"type": "bytes4"
						}
					],
					"name": "supportsInterface",
					"outputs": [
						{
							"internalType": "bool",
							"name": "",
							"type": "bool"
						}
					],
					"stateMutability": "view",
					"type": "function"
				},
				{
					"inputs": [],
					"name": "symbol",
					"outputs": [
						{
							"internalType": "string",
							"name": "",
							"type": "string"
						}
					],
					"stateMutability": "view",
					"type": "function"
				},
				{
					"inputs": [
						{
							"internalType": "uint256",
							"name": "tokenId",
							"type": "uint256"
						}
					],
					"name": "tokenURI",
					"outputs": [
						{
							"internalType": "string",
							"name": "",
							"type": "string"
						}
					],
					"stateMutability": "view",
					"type": "function"
				},
				{
					"inputs": [],
					"name": "totalSupply",
					"outputs": [
						{
							"internalType": "uint256",
							"name": "",
							"type": "uint256"
						}
					],
					"stateMutability": "view",
					"type": "function"
				},
				{
					"inputs": [
						{
							"internalType": "address",
							"name": "from",
							"type": "address"
						},
						{
							"internalType": "address",
							"name": "to",
							"type": "address"
						},
						{
							"internalType": "uint256",
							"name": "tokenId",
							"type": "uint256"
						}
					],
					"name": "transferFrom",
					"outputs": [],
					"stateMutability": "nonpayable",
					"type": "function"
				},
				{
					"inputs": [
						{
							"internalType": "address",
							"name": "recipient",
							"type": "address"
						},
						{
							"internalType": "uint256",
							"name": "tokenId",
							"type": "uint256"
						}
					],
					"name": "transferNFT",
					"outputs": [],
					"stateMutability": "nonpayable",
					"type": "function"
				}
			],
			"devdoc": {
				"errors": {
					"ERC721IncorrectOwner(address,uint256,address)": [
						{
							"details": "Indicates an error related to the ownership over a particular token. Used in transfers.",
							"params": {
								"owner": "Address of the current owner of a token.",
								"sender": "Address whose tokens are being transferred.",
								"tokenId": "Identifier number of a token."
							}
						}
					],
					"ERC721InsufficientApproval(address,uint256)": [
						{
							"details": "Indicates a failure with the `operator`’s approval. Used in transfers.",
							"params": {
								"operator": "Address that may be allowed to operate on tokens without being their owner.",
								"tokenId": "Identifier number of a token."
							}
						}
					],
					"ERC721InvalidApprover(address)": [
						{
							"details": "Indicates a failure with the `approver` of a token to be approved. Used in approvals.",
							"params": {
								"approver": "Address initiating an approval operation."
							}
						}
					],
					"ERC721InvalidOperator(address)": [
						{
							"details": "Indicates a failure with the `operator` to be approved. Used in approvals.",
							"params": {
								"operator": "Address that may be allowed to operate on tokens without being their owner."
							}
						}
					],
					"ERC721InvalidOwner(address)": [
						{
							"details": "Indicates that an address can't be an owner. For example, `address(0)` is a forbidden owner in EIP-20. Used in balance queries.",
							"params": {
								"owner": "Address of the current owner of a token."
							}
						}
					],
					"ERC721InvalidReceiver(address)": [
						{
							"details": "Indicates a failure with the token `receiver`. Used in transfers.",
							"params": {
								"receiver": "Address to which tokens are being transferred."
							}
						}
					],
					"ERC721InvalidSender(address)": [
						{
							"details": "Indicates a failure with the token `sender`. Used in transfers.",
							"params": {
								"sender": "Address whose tokens are being transferred."
							}
						}
					],
					"ERC721NonexistentToken(uint256)": [
						{
							"details": "Indicates a `tokenId` whose `owner` is the zero address.",
							"params": {
								"tokenId": "Identifier number of a token."
							}
						}
					]
				},
				"events": {
					"Approval(address,address,uint256)": {
						"details": "Emitted when `owner` enables `approved` to manage the `tokenId` token."
					},
					"ApprovalForAll(address,address,bool)": {
						"details": "Emitted when `owner` enables or disables (`approved`) `operator` to manage all of its assets."
					},
					"Transfer(address,address,uint256)": {
						"details": "Emitted when `tokenId` token is transferred from `from` to `to`."
					}
				},
				"kind": "dev",
				"methods": {
					"approve(address,uint256)": {
						"details": "See {IERC721-approve}."
					},
					"balanceOf(address)": {
						"details": "See {IERC721-balanceOf}."
					},
					"getApproved(uint256)": {
						"details": "See {IERC721-getApproved}."
					},
					"isApprovedForAll(address,address)": {
						"details": "See {IERC721-isApprovedForAll}."
					},
					"name()": {
						"details": "See {IERC721Metadata-name}."
					},
					"ownerOf(uint256)": {
						"details": "See {IERC721-ownerOf}."
					},
					"safeTransferFrom(address,address,uint256)": {
						"details": "See {IERC721-safeTransferFrom}."
					},
					"safeTransferFrom(address,address,uint256,bytes)": {
						"details": "See {IERC721-safeTransferFrom}."
					},
					"setApprovalForAll(address,bool)": {
						"details": "See {IERC721-setApprovalForAll}."
					},
					"supportsInterface(bytes4)": {
						"details": "See {IERC165-supportsInterface}."
					},
					"symbol()": {
						"details": "See {IERC721Metadata-symbol}."
					},
					"tokenURI(uint256)": {
						"details": "See {IERC721Metadata-tokenURI}."
					},
					"transferFrom(address,address,uint256)": {
						"details": "See {IERC721-transferFrom}."
					}
				},
				"version": 1
			},
			"evm": {
				"assembly": "    /* \"Polygon/Game_NFT.sol\":117:698  contract GameNFT is ERC721 {... */\n  mstore(0x40, 0x80)\n    /* \"Polygon/Game_NFT.sol\":227:269  constructor() ERC721(\"GameNFT\", \"GNFT\") {} */\n  callvalue\n  dup1\n  iszero\n  tag_1\n  jumpi\n  0x00\n  dup1\n  revert\ntag_1:\n  pop\n    /* \"@openzeppelin/contracts/token/ERC721/ERC721.sol\":1381:1494  constructor(string memory name_, string memory symbol_) {... */\n  mload(0x40)\n  dup1\n  0x40\n  add\n  0x40\n  mstore\n  dup1\n  0x07\n  dup2\n  mstore\n  0x20\n  add\n  shl(0xca, 0x11d85b59539195)\n  dup2\n  mstore\n  pop\n  mload(0x40)\n  dup1\n  0x40\n  add\n  0x40\n  mstore\n  dup1\n  0x04\n  dup2\n  mstore\n  0x20\n  add\n  shl(0xe2, 0x11d39195)\n  dup2\n  mstore\n  pop\n    /* \"@openzeppelin/contracts/token/ERC721/ERC721.sol\":1455:1460  name_ */\n  dup2\n    /* \"@openzeppelin/contracts/token/ERC721/ERC721.sol\":1447:1452  _name */\n  0x00\n    /* \"@openzeppelin/contracts/token/ERC721/ERC721.sol\":1447:1460  _name = name_ */\n  swap1\n  dup2\n  tag_5\n  swap2\n  swap1\n  tag_6\n  jump\t// in\ntag_5:\n  pop\n    /* \"@openzeppelin/contracts/token/ERC721/ERC721.sol\":1470:1477  _symbol */\n  0x01\n    /* \"@openzeppelin/contracts/token/ERC721/ERC721.sol\":1470:1487  _symbol = symbol_ */\n  tag_7\n    /* \"@openzeppelin/contracts/token/ERC721/ERC721.sol\":1480:1487  symbol_ */\n  dup3\n    /* \"@openzeppelin/contracts/token/ERC721/ERC721.sol\":1470:1477  _symbol */\n  dup3\n    /* \"@openzeppelin/contracts/token/ERC721/ERC721.sol\":1470:1487  _symbol = symbol_ */\n  tag_6\n  jump\t// in\ntag_7:\n  pop\n    /* \"@openzeppelin/contracts/token/ERC721/ERC721.sol\":1381:1494  constructor(string memory name_, string memory symbol_) {... */\n  pop\n  pop\n    /* \"Polygon/Game_NFT.sol\":117:698  contract GameNFT is ERC721 {... */\n  jump(tag_15)\n    /* \"#utility.yul\":14:141   */\ntag_10:\n    /* \"#utility.yul\":75:85   */\n  0x4e487b71\n    /* \"#utility.yul\":70:73   */\n  0xe0\n    /* \"#utility.yul\":66:86   */\n  shl\n    /* \"#utility.yul\":63:64   */\n  0x00\n    /* \"#utility.yul\":56:87   */\n  mstore\n    /* \"#utility.yul\":106:110   */\n  0x41\n    /* \"#utility.yul\":103:104   */\n  0x04\n    /* \"#utility.yul\":96:111   */\n  mstore\n    /* \"#utility.yul\":130:134   */\n  0x24\n    /* \"#utility.yul\":127:128   */\n  0x00\n    /* \"#utility.yul\":120:135   */\n  revert\n    /* \"#utility.yul\":146:526   */\ntag_11:\n    /* \"#utility.yul\":225:226   */\n  0x01\n    /* \"#utility.yul\":221:233   */\n  dup2\n  dup2\n  shr\n  swap1\n    /* \"#utility.yul\":268:280   */\n  dup3\n  and\n  dup1\n    /* \"#utility.yul\":289:350   */\n  tag_18\n  jumpi\n    /* \"#utility.yul\":343:347   */\n  0x7f\n    /* \"#utility.yul\":335:341   */\n  dup3\n    /* \"#utility.yul\":331:348   */\n  and\n    /* \"#utility.yul\":321:348   */\n  swap2\n  pop\n    /* \"#utility.yul\":289:350   */\ntag_18:\n    /* \"#utility.yul\":396:398   */\n  0x20\n    /* \"#utility.yul\":388:394   */\n  dup3\n    /* \"#utility.yul\":385:399   */\n  lt\n    /* \"#utility.yul\":365:383   */\n  dup2\n    /* \"#utility.yul\":362:400   */\n  sub\n    /* \"#utility.yul\":359:520   */\n  tag_19\n  jumpi\n    /* \"#utility.yul\":442:452   */\n  0x4e487b71\n    /* \"#utility.yul\":437:440   */\n  0xe0\n    /* \"#utility.yul\":433:453   */\n  shl\n    /* \"#utility.yul\":430:431   */\n  0x00\n    /* \"#utility.yul\":423:454   */\n  mstore\n    /* \"#utility.yul\":477:481   */\n  0x22\n    /* \"#utility.yul\":474:475   */\n  0x04\n    /* \"#utility.yul\":467:482   */\n  mstore\n    /* \"#utility.yul\":505:509   */\n  0x24\n    /* \"#utility.yul\":502:503   */\n  0x00\n    /* \"#utility.yul\":495:510   */\n  revert\n    /* \"#utility.yul\":359:520   */\ntag_19:\n  pop\n    /* \"#utility.yul\":146:526   */\n  swap2\n  swap1\n  pop\n  jump\t// out\n    /* \"#utility.yul\":657:1175   */\ntag_13:\n    /* \"#utility.yul\":759:761   */\n  0x1f\n    /* \"#utility.yul\":754:757   */\n  dup3\n    /* \"#utility.yul\":751:762   */\n  gt\n    /* \"#utility.yul\":748:1169   */\n  iszero\n  tag_22\n  jumpi\n    /* \"#utility.yul\":795:800   */\n  dup1\n    /* \"#utility.yul\":792:793   */\n  0x00\n    /* \"#utility.yul\":785:801   */\n  mstore\n    /* \"#utility.yul\":839:843   */\n  0x20\n    /* \"#utility.yul\":836:837   */\n  0x00\n    /* \"#utility.yul\":826:844   */\n  keccak256\n    /* \"#utility.yul\":909:911   */\n  0x1f\n    /* \"#utility.yul\":897:907   */\n  dup5\n    /* \"#utility.yul\":893:912   */\n  add\n    /* \"#utility.yul\":890:891   */\n  0x05\n    /* \"#utility.yul\":886:913   */\n  shr\n    /* \"#utility.yul\":880:884   */\n  dup2\n    /* \"#utility.yul\":876:914   */\n  add\n    /* \"#utility.yul\":945:949   */\n  0x20\n    /* \"#utility.yul\":933:943   */\n  dup6\n    /* \"#utility.yul\":930:950   */\n  lt\n    /* \"#utility.yul\":927:974   */\n  iszero\n  tag_23\n  jumpi\n  pop\n    /* \"#utility.yul\":968:972   */\n  dup1\n    /* \"#utility.yul\":927:974   */\ntag_23:\n    /* \"#utility.yul\":1023:1025   */\n  0x1f\n    /* \"#utility.yul\":1018:1021   */\n  dup5\n    /* \"#utility.yul\":1014:1026   */\n  add\n    /* \"#utility.yul\":1011:1012   */\n  0x05\n    /* \"#utility.yul\":1007:1027   */\n  shr\n    /* \"#utility.yul\":1001:1005   */\n  dup3\n    /* \"#utility.yul\":997:1028   */\n  add\n    /* \"#utility.yul\":987:1028   */\n  swap2\n  pop\n    /* \"#utility.yul\":1078:1159   */\ntag_24:\n    /* \"#utility.yul\":1096:1098   */\n  dup2\n    /* \"#utility.yul\":1089:1094   */\n  dup2\n    /* \"#utility.yul\":1086:1099   */\n  lt\n    /* \"#utility.yul\":1078:1159   */\n  iszero\n  tag_26\n  jumpi\n    /* \"#utility.yul\":1155:1156   */\n  0x00\n    /* \"#utility.yul\":1141:1157   */\n  dup2\n  sstore\n    /* \"#utility.yul\":1122:1123   */\n  0x01\n    /* \"#utility.yul\":1111:1124   */\n  add\n    /* \"#utility.yul\":1078:1159   */\n  jump(tag_24)\ntag_26:\n    /* \"#utility.yul\":1082:1085   */\n  pop\n  pop\n    /* \"#utility.yul\":748:1169   */\ntag_22:\n    /* \"#utility.yul\":657:1175   */\n  pop\n  pop\n  pop\n  jump\t// out\n    /* \"#utility.yul\":1351:2650   */\ntag_6:\n    /* \"#utility.yul\":1471:1481   */\n  dup2\n  mload\n  sub(shl(0x40, 0x01), 0x01)\n    /* \"#utility.yul\":1493:1523   */\n  dup2\n  gt\n    /* \"#utility.yul\":1490:1546   */\n  iszero\n  tag_30\n  jumpi\n    /* \"#utility.yul\":1526:1544   */\n  tag_30\n  tag_10\n  jump\t// in\ntag_30:\n    /* \"#utility.yul\":1555:1652   */\n  tag_31\n    /* \"#utility.yul\":1645:1651   */\n  dup2\n    /* \"#utility.yul\":1605:1643   */\n  tag_32\n    /* \"#utility.yul\":1637:1641   */\n  dup5\n    /* \"#utility.yul\":1631:1642   */\n  sload\n    /* \"#utility.yul\":1605:1643   */\n  tag_11\n  jump\t// in\ntag_32:\n    /* \"#utility.yul\":1599:1603   */\n  dup5\n    /* \"#utility.yul\":1555:1652   */\n  tag_13\n  jump\t// in\ntag_31:\n    /* \"#utility.yul\":1701:1705   */\n  0x20\n    /* \"#utility.yul\":1732:1734   */\n  0x1f\n    /* \"#utility.yul\":1721:1735   */\n  dup3\n  gt\n    /* \"#utility.yul\":1749:1750   */\n  0x01\n    /* \"#utility.yul\":1744:2393   */\n  dup2\n  eq\n  tag_34\n  jumpi\n    /* \"#utility.yul\":2437:2438   */\n  0x00\n    /* \"#utility.yul\":2454:2460   */\n  dup4\n    /* \"#utility.yul\":2451:2540   */\n  iszero\n  tag_35\n  jumpi\n  pop\n    /* \"#utility.yul\":2506:2525   */\n  dup5\n  dup3\n  add\n    /* \"#utility.yul\":2500:2526   */\n  mload\n    /* \"#utility.yul\":2451:2540   */\ntag_35:\n  not(0x00)\n    /* \"#utility.yul\":1308:1309   */\n  0x03\n    /* \"#utility.yul\":1304:1315   */\n  dup6\n  swap1\n  shl\n    /* \"#utility.yul\":1300:1324   */\n  shr\n    /* \"#utility.yul\":1296:1325   */\n  not\n    /* \"#utility.yul\":1286:1326   */\n  and\n    /* \"#utility.yul\":1332:1333   */\n  0x01\n    /* \"#utility.yul\":1328:1339   */\n  dup5\n  swap1\n  shl\n    /* \"#utility.yul\":1283:1340   */\n  or\n    /* \"#utility.yul\":2553:2634   */\n  dup5\n  sstore\n    /* \"#utility.yul\":1714:2644   */\n  jump(tag_26)\n    /* \"#utility.yul\":1744:2393   */\ntag_34:\n    /* \"#utility.yul\":604:605   */\n  0x00\n    /* \"#utility.yul\":597:611   */\n  dup5\n  dup2\n  mstore\n    /* \"#utility.yul\":641:645   */\n  0x20\n    /* \"#utility.yul\":628:646   */\n  dup2\n  keccak256\n  not(0x1f)\n    /* \"#utility.yul\":1780:1800   */\n  dup6\n  and\n  swap2\n    /* \"#utility.yul\":1898:2120   */\ntag_38:\n    /* \"#utility.yul\":1912:1919   */\n  dup3\n    /* \"#utility.yul\":1909:1910   */\n  dup2\n    /* \"#utility.yul\":1906:1920   */\n  lt\n    /* \"#utility.yul\":1898:2120   */\n  iszero\n  tag_40\n  jumpi\n    /* \"#utility.yul\":1994:2013   */\n  dup8\n  dup6\n  add\n    /* \"#utility.yul\":1988:2014   */\n  mload\n    /* \"#utility.yul\":1973:2015   */\n  dup3\n  sstore\n    /* \"#utility.yul\":2101:2105   */\n  0x20\n    /* \"#utility.yul\":2086:2106   */\n  swap5\n  dup6\n  add\n  swap5\n    /* \"#utility.yul\":2054:2055   */\n  0x01\n    /* \"#utility.yul\":2042:2056   */\n  swap1\n  swap3\n  add\n  swap2\n    /* \"#utility.yul\":1928:1940   */\n  add\n    /* \"#utility.yul\":1898:2120   */\n  jump(tag_38)\ntag_40:\n    /* \"#utility.yul\":1902:1905   */\n  pop\n    /* \"#utility.yul\":2148:2154   */\n  dup5\n    /* \"#utility.yul\":2139:2146   */\n  dup3\n    /* \"#utility.yul\":2136:2155   */\n  lt\n    /* \"#utility.yul\":2133:2334   */\n  iszero\n  tag_41\n  jumpi\n    /* \"#utility.yul\":2209:2228   */\n  dup7\n  dup5\n  add\n    /* \"#utility.yul\":2203:2229   */\n  mload\n  not(0x00)\n    /* \"#utility.yul\":2292:2293   */\n  0x03\n    /* \"#utility.yul\":2288:2302   */\n  dup8\n  swap1\n  shl\n    /* \"#utility.yul\":2304:2307   */\n  0xf8\n    /* \"#utility.yul\":2284:2308   */\n  and\n    /* \"#utility.yul\":2280:2317   */\n  shr\n    /* \"#utility.yul\":2276:2318   */\n  not\n    /* \"#utility.yul\":2261:2319   */\n  and\n    /* \"#utility.yul\":2246:2320   */\n  dup2\n  sstore\n    /* \"#utility.yul\":2133:2334   */\ntag_41:\n  pop\n  pop\n  pop\n  pop\n    /* \"#utility.yul\":2380:2381   */\n  0x01\n    /* \"#utility.yul\":2364:2378   */\n  swap1\n  dup2\n  shl\n    /* \"#utility.yul\":2360:2382   */\n  add\n    /* \"#utility.yul\":2347:2383   */\n  swap1\n  sstore\n  pop\n    /* \"#utility.yul\":1351:2650   */\n  jump\t// out\ntag_15:\n    /* \"Polygon/Game_NFT.sol\":117:698  contract GameNFT is ERC721 {... */\n  dataSize(sub_0)\n  dup1\n  dataOffset(sub_0)\n  0x00\n  codecopy\n  0x00\n  return\nstop\n\nsub_0: assembly {\n        /* \"Polygon/Game_NFT.sol\":117:698  contract GameNFT is ERC721 {... */\n      mstore(0x40, 0x80)\n      callvalue\n      dup1\n      iszero\n      tag_1\n      jumpi\n      0x00\n      dup1\n      revert\n    tag_1:\n      pop\n      jumpi(tag_2, lt(calldatasize, 0x04))\n      shr(0xe0, calldataload(0x00))\n      dup1\n      0x70a08231\n      gt\n      tag_20\n      jumpi\n      dup1\n      0xa22cb465\n      gt\n      tag_21\n      jumpi\n      dup1\n      0xa22cb465\n      eq\n      tag_15\n      jumpi\n      dup1\n      0xb88d4fde\n      eq\n      tag_16\n      jumpi\n      dup1\n      0xc87b56dd\n      eq\n      tag_17\n      jumpi\n      dup1\n      0xe985e9c5\n      eq\n      tag_18\n      jumpi\n      dup1\n      0xeacabe14\n      eq\n      tag_19\n      jumpi\n      0x00\n      dup1\n      revert\n    tag_21:\n      dup1\n      0x70a08231\n      eq\n      tag_11\n      jumpi\n      dup1\n      0x8c210975\n      eq\n      tag_12\n      jumpi\n      dup1\n      0x94ab67fe\n      eq\n      tag_13\n      jumpi\n      dup1\n      0x95d89b41\n      eq\n      tag_14\n      jumpi\n      0x00\n      dup1\n      revert\n    tag_20:\n      dup1\n      0x18160ddd\n      gt\n      tag_22\n      jumpi\n      dup1\n      0x18160ddd\n      eq\n      tag_7\n      jumpi\n      dup1\n      0x23b872dd\n      eq\n      tag_8\n      jumpi\n      dup1\n      0x42842e0e\n      eq\n      tag_9\n      jumpi\n      dup1\n      0x6352211e\n      eq\n      tag_10\n      jumpi\n      0x00\n      dup1\n      revert\n    tag_22:\n      dup1\n      0x01ffc9a7\n      eq\n      tag_3\n      jumpi\n      dup1\n      0x06fdde03\n      eq\n      tag_4\n      jumpi\n      dup1\n      0x081812fc\n      eq\n      tag_5\n      jumpi\n      dup1\n      0x095ea7b3\n      eq\n      tag_6\n      jumpi\n    tag_2:\n      0x00\n      dup1\n      revert\n        /* \"@openzeppelin/contracts/token/ERC721/ERC721.sol\":1561:1861  function supportsInterface(bytes4 interfaceId) public view virtual override(ERC165, IERC165) returns (bool) {... */\n    tag_3:\n      tag_23\n      tag_24\n      calldatasize\n      0x04\n      tag_25\n      jump\t// in\n    tag_24:\n      tag_26\n      jump\t// in\n    tag_23:\n      mload(0x40)\n        /* \"#utility.yul\":565:579   */\n      swap1\n      iszero\n        /* \"#utility.yul\":558:580   */\n      iszero\n        /* \"#utility.yul\":540:581   */\n      dup2\n      mstore\n        /* \"#utility.yul\":528:530   */\n      0x20\n        /* \"#utility.yul\":513:531   */\n      add\n        /* \"@openzeppelin/contracts/token/ERC721/ERC721.sol\":1561:1861  function supportsInterface(bytes4 interfaceId) public view virtual override(ERC165, IERC165) returns (bool) {... */\n    tag_27:\n      mload(0x40)\n      dup1\n      swap2\n      sub\n      swap1\n      return\n        /* \"@openzeppelin/contracts/token/ERC721/ERC721.sol\":2365:2454  function name() public view virtual returns (string memory) {... */\n    tag_4:\n      tag_29\n      tag_30\n      jump\t// in\n    tag_29:\n      mload(0x40)\n      tag_27\n      swap2\n      swap1\n      tag_32\n      jump\t// in\n        /* \"@openzeppelin/contracts/token/ERC721/ERC721.sol\":3497:3651  function getApproved(uint256 tokenId) public view virtual returns (address) {... */\n    tag_5:\n      tag_33\n      tag_34\n      calldatasize\n      0x04\n      tag_35\n      jump\t// in\n    tag_34:\n      tag_36\n      jump\t// in\n    tag_33:\n      mload(0x40)\n      sub(shl(0xa0, 0x01), 0x01)\n        /* \"#utility.yul\":1528:1560   */\n      swap1\n      swap2\n      and\n        /* \"#utility.yul\":1510:1561   */\n      dup2\n      mstore\n        /* \"#utility.yul\":1498:1500   */\n      0x20\n        /* \"#utility.yul\":1483:1501   */\n      add\n        /* \"@openzeppelin/contracts/token/ERC721/ERC721.sol\":3497:3651  function getApproved(uint256 tokenId) public view virtual returns (address) {... */\n      tag_27\n        /* \"#utility.yul\":1364:1567   */\n      jump\n        /* \"@openzeppelin/contracts/token/ERC721/ERC721.sol\":3323:3436  function approve(address to, uint256 tokenId) public virtual {... */\n    tag_6:\n      tag_39\n      tag_40\n      calldatasize\n      0x04\n      tag_41\n      jump\t// in\n    tag_40:\n      tag_42\n      jump\t// in\n    tag_39:\n      stop\n        /* \"Polygon/Game_NFT.sol\":275:361  function totalSupply() public view returns (uint) {... */\n    tag_7:\n        /* \"Polygon/Game_NFT.sol\":342:354  _totalSupply */\n      sload(0x07)\n        /* \"Polygon/Game_NFT.sol\":275:361  function totalSupply() public view returns (uint) {... */\n    tag_43:\n      mload(0x40)\n        /* \"#utility.yul\":2201:2226   */\n      swap1\n      dup2\n      mstore\n        /* \"#utility.yul\":2189:2191   */\n      0x20\n        /* \"#utility.yul\":2174:2192   */\n      add\n        /* \"Polygon/Game_NFT.sol\":275:361  function totalSupply() public view returns (uint) {... */\n      tag_27\n        /* \"#utility.yul\":2055:2232   */\n      jump\n        /* \"@openzeppelin/contracts/token/ERC721/ERC721.sol\":4143:4721  function transferFrom(address from, address to, uint256 tokenId) public virtual {... */\n    tag_8:\n      tag_39\n      tag_48\n      calldatasize\n      0x04\n      tag_49\n      jump\t// in\n    tag_48:\n      tag_50\n      jump\t// in\n        /* \"@openzeppelin/contracts/token/ERC721/ERC721.sol\":4787:4919  function safeTransferFrom(address from, address to, uint256 tokenId) public {... */\n    tag_9:\n      tag_39\n      tag_52\n      calldatasize\n      0x04\n      tag_49\n      jump\t// in\n    tag_52:\n      tag_53\n      jump\t// in\n        /* \"@openzeppelin/contracts/token/ERC721/ERC721.sol\":2185:2303  function ownerOf(uint256 tokenId) public view virtual returns (address) {... */\n    tag_10:\n      tag_33\n      tag_55\n      calldatasize\n      0x04\n      tag_35\n      jump\t// in\n    tag_55:\n      tag_56\n      jump\t// in\n        /* \"@openzeppelin/contracts/token/ERC721/ERC721.sol\":1920:2128  function balanceOf(address owner) public view virtual returns (uint256) {... */\n    tag_11:\n      tag_43\n      tag_59\n      calldatasize\n      0x04\n      tag_60\n      jump\t// in\n    tag_59:\n      tag_61\n      jump\t// in\n        /* \"Polygon/Game_NFT.sol\":151:189  mapping(uint => string) public nftData */\n    tag_12:\n      tag_29\n      tag_64\n      calldatasize\n      0x04\n      tag_35\n      jump\t// in\n    tag_64:\n      tag_65\n      jump\t// in\n        /* \"Polygon/Game_NFT.sol\":576:695  function transferNFT(address recipient, uint tokenId) public {... */\n    tag_13:\n      tag_39\n      tag_68\n      calldatasize\n      0x04\n      tag_41\n      jump\t// in\n    tag_68:\n      tag_69\n      jump\t// in\n        /* \"@openzeppelin/contracts/token/ERC721/ERC721.sol\":2518:2611  function symbol() public view virtual returns (string memory) {... */\n    tag_14:\n      tag_29\n      tag_71\n      jump\t// in\n        /* \"@openzeppelin/contracts/token/ERC721/ERC721.sol\":3718:3862  function setApprovalForAll(address operator, bool approved) public virtual {... */\n    tag_15:\n      tag_39\n      tag_74\n      calldatasize\n      0x04\n      tag_75\n      jump\t// in\n    tag_74:\n      tag_76\n      jump\t// in\n        /* \"@openzeppelin/contracts/token/ERC721/ERC721.sol\":4985:5193  function safeTransferFrom(address from, address to, uint256 tokenId, bytes memory data) public virtual {... */\n    tag_16:\n      tag_39\n      tag_78\n      calldatasize\n      0x04\n      tag_79\n      jump\t// in\n    tag_78:\n      tag_80\n      jump\t// in\n        /* \"@openzeppelin/contracts/token/ERC721/ERC721.sol\":2677:2932  function tokenURI(uint256 tokenId) public view virtual returns (string memory) {... */\n    tag_17:\n      tag_29\n      tag_82\n      calldatasize\n      0x04\n      tag_35\n      jump\t// in\n    tag_82:\n      tag_83\n      jump\t// in\n        /* \"@openzeppelin/contracts/token/ERC721/ERC721.sol\":3928:4081  function isApprovedForAll(address owner, address operator) public view virtual returns (bool) {... */\n    tag_18:\n      tag_23\n      tag_86\n      calldatasize\n      0x04\n      tag_87\n      jump\t// in\n    tag_86:\n      tag_88\n      jump\t// in\n        /* \"Polygon/Game_NFT.sol\":367:570  function mintNFT(address recipient, string memory data) public {... */\n    tag_19:\n      tag_39\n      tag_91\n      calldatasize\n      0x04\n      tag_92\n      jump\t// in\n    tag_91:\n      tag_93\n      jump\t// in\n        /* \"@openzeppelin/contracts/token/ERC721/ERC721.sol\":1561:1861  function supportsInterface(bytes4 interfaceId) public view virtual override(ERC165, IERC165) returns (bool) {... */\n    tag_26:\n        /* \"@openzeppelin/contracts/token/ERC721/ERC721.sol\":1663:1667  bool */\n      0x00\n      not(sub(shl(0xe0, 0x01), 0x01))\n        /* \"@openzeppelin/contracts/token/ERC721/ERC721.sol\":1698:1738  interfaceId == type(IERC721).interfaceId */\n      dup3\n      and\n      shl(0xe0, 0x80ac58cd)\n      eq\n      dup1\n        /* \"@openzeppelin/contracts/token/ERC721/ERC721.sol\":1698:1802  interfaceId == type(IERC721).interfaceId ||... */\n      tag_95\n      jumpi\n      pop\n      not(sub(shl(0xe0, 0x01), 0x01))\n        /* \"@openzeppelin/contracts/token/ERC721/ERC721.sol\":1754:1802  interfaceId == type(IERC721Metadata).interfaceId */\n      dup3\n      and\n      shl(0xe0, 0x5b5e139f)\n      eq\n        /* \"@openzeppelin/contracts/token/ERC721/ERC721.sol\":1698:1802  interfaceId == type(IERC721).interfaceId ||... */\n    tag_95:\n        /* \"@openzeppelin/contracts/token/ERC721/ERC721.sol\":1698:1854  interfaceId == type(IERC721).interfaceId ||... */\n      dup1\n      tag_97\n      jumpi\n      pop\n      shl(0xe0, 0x01ffc9a7)\n      not(sub(shl(0xe0, 0x01), 0x01))\n        /* \"@openzeppelin/contracts/utils/introspection/ERC165.sol\":861:901  interfaceId == type(IERC165).interfaceId */\n      dup4\n      and\n      eq\n        /* \"@openzeppelin/contracts/token/ERC721/ERC721.sol\":1818:1854  super.supportsInterface(interfaceId) */\n    tag_97:\n        /* \"@openzeppelin/contracts/token/ERC721/ERC721.sol\":1679:1854  return... */\n      swap3\n        /* \"@openzeppelin/contracts/token/ERC721/ERC721.sol\":1561:1861  function supportsInterface(bytes4 interfaceId) public view virtual override(ERC165, IERC165) returns (bool) {... */\n      swap2\n      pop\n      pop\n      jump\t// out\n        /* \"@openzeppelin/contracts/token/ERC721/ERC721.sol\":2365:2454  function name() public view virtual returns (string memory) {... */\n    tag_30:\n        /* \"@openzeppelin/contracts/token/ERC721/ERC721.sol\":2410:2423  string memory */\n      0x60\n        /* \"@openzeppelin/contracts/token/ERC721/ERC721.sol\":2442:2447  _name */\n      0x00\n        /* \"@openzeppelin/contracts/token/ERC721/ERC721.sol\":2435:2447  return _name */\n      dup1\n      sload\n      tag_100\n      swap1\n      tag_101\n      jump\t// in\n    tag_100:\n      dup1\n      0x1f\n      add\n      0x20\n      dup1\n      swap2\n      div\n      mul\n      0x20\n      add\n      mload(0x40)\n      swap1\n      dup2\n      add\n      0x40\n      mstore\n      dup1\n      swap3\n      swap2\n      swap1\n      dup2\n      dup2\n      mstore\n      0x20\n      add\n      dup3\n      dup1\n      sload\n      tag_102\n      swap1\n      tag_101\n      jump\t// in\n    tag_102:\n      dup1\n      iszero\n      tag_103\n      jumpi\n      dup1\n      0x1f\n      lt\n      tag_104\n      jumpi\n      0x0100\n      dup1\n      dup4\n      sload\n      div\n      mul\n      dup4\n      mstore\n      swap2\n      0x20\n      add\n      swap2\n      jump(tag_103)\n    tag_104:\n      dup3\n      add\n      swap2\n      swap1\n      0x00\n      mstore\n      keccak256(0x00, 0x20)\n      swap1\n    tag_105:\n      dup2\n      sload\n      dup2\n      mstore\n      swap1\n      0x01\n      add\n      swap1\n      0x20\n      add\n      dup1\n      dup4\n      gt\n      tag_105\n      jumpi\n      dup3\n      swap1\n      sub\n      0x1f\n      and\n      dup3\n      add\n      swap2\n    tag_103:\n      pop\n      pop\n      pop\n      pop\n      pop\n      swap1\n      pop\n        /* \"@openzeppelin/contracts/token/ERC721/ERC721.sol\":2365:2454  function name() public view virtual returns (string memory) {... */\n      swap1\n      jump\t// out\n        /* \"@openzeppelin/contracts/token/ERC721/ERC721.sol\":3497:3651  function getApproved(uint256 tokenId) public view virtual returns (address) {... */\n    tag_36:\n        /* \"@openzeppelin/contracts/token/ERC721/ERC721.sol\":3564:3571  address */\n      0x00\n        /* \"@openzeppelin/contracts/token/ERC721/ERC721.sol\":3583:3605  _requireOwned(tokenId) */\n      tag_107\n        /* \"@openzeppelin/contracts/token/ERC721/ERC721.sol\":3597:3604  tokenId */\n      dup3\n        /* \"@openzeppelin/contracts/token/ERC721/ERC721.sol\":3583:3596  _requireOwned */\n      tag_108\n        /* \"@openzeppelin/contracts/token/ERC721/ERC721.sol\":3583:3605  _requireOwned(tokenId) */\n      jump\t// in\n    tag_107:\n      pop\n        /* \"@openzeppelin/contracts/token/ERC721/ERC721.sol\":6008:6015  address */\n      0x00\n        /* \"@openzeppelin/contracts/token/ERC721/ERC721.sol\":6034:6058  _tokenApprovals[tokenId] */\n      dup3\n      dup2\n      mstore\n        /* \"@openzeppelin/contracts/token/ERC721/ERC721.sol\":6034:6049  _tokenApprovals */\n      0x04\n        /* \"@openzeppelin/contracts/token/ERC721/ERC721.sol\":6034:6058  _tokenApprovals[tokenId] */\n      0x20\n      mstore\n      0x40\n      swap1\n      keccak256\n      sload\n      sub(shl(0xa0, 0x01), 0x01)\n      and\n        /* \"@openzeppelin/contracts/token/ERC721/ERC721.sol\":3623:3644  _getApproved(tokenId) */\n      tag_97\n        /* \"@openzeppelin/contracts/token/ERC721/ERC721.sol\":5938:6065  function _getApproved(uint256 tokenId) internal view virtual returns (address) {... */\n      jump\n        /* \"@openzeppelin/contracts/token/ERC721/ERC721.sol\":3323:3436  function approve(address to, uint256 tokenId) public virtual {... */\n    tag_42:\n        /* \"@openzeppelin/contracts/token/ERC721/ERC721.sol\":3394:3429  _approve(to, tokenId, _msgSender()) */\n      tag_112\n        /* \"@openzeppelin/contracts/token/ERC721/ERC721.sol\":3403:3405  to */\n      dup3\n        /* \"@openzeppelin/contracts/token/ERC721/ERC721.sol\":3407:3414  tokenId */\n      dup3\n        /* \"@openzeppelin/contracts/utils/Context.sol\":735:745  msg.sender */\n      caller\n        /* \"@openzeppelin/contracts/token/ERC721/ERC721.sol\":3394:3402  _approve */\n      tag_115\n        /* \"@openzeppelin/contracts/token/ERC721/ERC721.sol\":3394:3429  _approve(to, tokenId, _msgSender()) */\n      jump\t// in\n    tag_112:\n        /* \"@openzeppelin/contracts/token/ERC721/ERC721.sol\":3323:3436  function approve(address to, uint256 tokenId) public virtual {... */\n      pop\n      pop\n      jump\t// out\n        /* \"@openzeppelin/contracts/token/ERC721/ERC721.sol\":4143:4721  function transferFrom(address from, address to, uint256 tokenId) public virtual {... */\n    tag_50:\n      sub(shl(0xa0, 0x01), 0x01)\n        /* \"@openzeppelin/contracts/token/ERC721/ERC721.sol\":4237:4253  to == address(0) */\n      dup3\n      and\n        /* \"@openzeppelin/contracts/token/ERC721/ERC721.sol\":4233:4320  if (to == address(0)) {... */\n      tag_118\n      jumpi\n        /* \"@openzeppelin/contracts/token/ERC721/ERC721.sol\":4276:4309  ERC721InvalidReceiver(address(0)) */\n      mload(0x40)\n      shl(0xe1, 0x32505749)\n      dup2\n      mstore\n        /* \"@openzeppelin/contracts/token/ERC721/ERC721.sol\":4306:4307  0 */\n      0x00\n        /* \"@openzeppelin/contracts/token/ERC721/ERC721.sol\":4276:4309  ERC721InvalidReceiver(address(0)) */\n      0x04\n      dup3\n      add\n        /* \"#utility.yul\":1510:1561   */\n      mstore\n        /* \"#utility.yul\":1483:1501   */\n      0x24\n      add\n        /* \"@openzeppelin/contracts/token/ERC721/ERC721.sol\":4276:4309  ERC721InvalidReceiver(address(0)) */\n    tag_119:\n      mload(0x40)\n      dup1\n      swap2\n      sub\n      swap1\n      revert\n        /* \"@openzeppelin/contracts/token/ERC721/ERC721.sol\":4233:4320  if (to == address(0)) {... */\n    tag_118:\n        /* \"@openzeppelin/contracts/token/ERC721/ERC721.sol\":4538:4559  address previousOwner */\n      0x00\n        /* \"@openzeppelin/contracts/token/ERC721/ERC721.sol\":4562:4596  _update(to, tokenId, _msgSender()) */\n      tag_120\n        /* \"@openzeppelin/contracts/token/ERC721/ERC721.sol\":4570:4572  to */\n      dup4\n        /* \"@openzeppelin/contracts/token/ERC721/ERC721.sol\":4574:4581  tokenId */\n      dup4\n        /* \"@openzeppelin/contracts/utils/Context.sol\":735:745  msg.sender */\n      caller\n        /* \"@openzeppelin/contracts/token/ERC721/ERC721.sol\":4562:4569  _update */\n      tag_122\n        /* \"@openzeppelin/contracts/token/ERC721/ERC721.sol\":4562:4596  _update(to, tokenId, _msgSender()) */\n      jump\t// in\n    tag_120:\n        /* \"@openzeppelin/contracts/token/ERC721/ERC721.sol\":4538:4596  address previousOwner = _update(to, tokenId, _msgSender()) */\n      swap1\n      pop\n        /* \"@openzeppelin/contracts/token/ERC721/ERC721.sol\":4627:4631  from */\n      dup4\n      sub(shl(0xa0, 0x01), 0x01)\n        /* \"@openzeppelin/contracts/token/ERC721/ERC721.sol\":4610:4631  previousOwner != from */\n      and\n        /* \"@openzeppelin/contracts/token/ERC721/ERC721.sol\":4610:4623  previousOwner */\n      dup2\n      sub(shl(0xa0, 0x01), 0x01)\n        /* \"@openzeppelin/contracts/token/ERC721/ERC721.sol\":4610:4631  previousOwner != from */\n      and\n      eq\n        /* \"@openzeppelin/contracts/token/ERC721/ERC721.sol\":4606:4715  if (previousOwner != from) {... */\n      tag_123\n      jumpi\n        /* \"@openzeppelin/contracts/token/ERC721/ERC721.sol\":4654:4704  ERC721IncorrectOwner(from, tokenId, previousOwner) */\n      mload(0x40)\n      shl(0xe0, 0x64283d7b)\n      dup2\n      mstore\n      sub(shl(0xa0, 0x01), 0x01)\n        /* \"#utility.yul\":6127:6159   */\n      dup1\n      dup7\n      and\n        /* \"@openzeppelin/contracts/token/ERC721/ERC721.sol\":4654:4704  ERC721IncorrectOwner(from, tokenId, previousOwner) */\n      0x04\n      dup4\n      add\n        /* \"#utility.yul\":6109:6160   */\n      mstore\n        /* \"#utility.yul\":6176:6194   */\n      0x24\n      dup3\n      add\n        /* \"#utility.yul\":6169:6203   */\n      dup5\n      swap1\n      mstore\n        /* \"#utility.yul\":6239:6271   */\n      dup3\n      and\n        /* \"#utility.yul\":6219:6237   */\n      0x44\n      dup3\n      add\n        /* \"#utility.yul\":6212:6272   */\n      mstore\n        /* \"#utility.yul\":6082:6100   */\n      0x64\n      add\n        /* \"@openzeppelin/contracts/token/ERC721/ERC721.sol\":4654:4704  ERC721IncorrectOwner(from, tokenId, previousOwner) */\n      tag_119\n        /* \"#utility.yul\":5907:6278   */\n      jump\n        /* \"@openzeppelin/contracts/token/ERC721/ERC721.sol\":4606:4715  if (previousOwner != from) {... */\n    tag_123:\n        /* \"@openzeppelin/contracts/token/ERC721/ERC721.sol\":4223:4721  {... */\n      pop\n        /* \"@openzeppelin/contracts/token/ERC721/ERC721.sol\":4143:4721  function transferFrom(address from, address to, uint256 tokenId) public virtual {... */\n      pop\n      pop\n      pop\n      jump\t// out\n        /* \"@openzeppelin/contracts/token/ERC721/ERC721.sol\":4787:4919  function safeTransferFrom(address from, address to, uint256 tokenId) public {... */\n    tag_53:\n        /* \"@openzeppelin/contracts/token/ERC721/ERC721.sol\":4873:4912  safeTransferFrom(from, to, tokenId, \"\") */\n      tag_127\n        /* \"@openzeppelin/contracts/token/ERC721/ERC721.sol\":4890:4894  from */\n      dup4\n        /* \"@openzeppelin/contracts/token/ERC721/ERC721.sol\":4896:4898  to */\n      dup4\n        /* \"@openzeppelin/contracts/token/ERC721/ERC721.sol\":4900:4907  tokenId */\n      dup4\n        /* \"@openzeppelin/contracts/token/ERC721/ERC721.sol\":4873:4912  safeTransferFrom(from, to, tokenId, \"\") */\n      mload(0x40)\n      dup1\n      0x20\n      add\n      0x40\n      mstore\n      dup1\n      0x00\n      dup2\n      mstore\n      pop\n        /* \"@openzeppelin/contracts/token/ERC721/ERC721.sol\":4873:4889  safeTransferFrom */\n      tag_80\n        /* \"@openzeppelin/contracts/token/ERC721/ERC721.sol\":4873:4912  safeTransferFrom(from, to, tokenId, \"\") */\n      jump\t// in\n    tag_127:\n        /* \"@openzeppelin/contracts/token/ERC721/ERC721.sol\":4787:4919  function safeTransferFrom(address from, address to, uint256 tokenId) public {... */\n      pop\n      pop\n      pop\n      jump\t// out\n        /* \"@openzeppelin/contracts/token/ERC721/ERC721.sol\":2185:2303  function ownerOf(uint256 tokenId) public view virtual returns (address) {... */\n    tag_56:\n        /* \"@openzeppelin/contracts/token/ERC721/ERC721.sol\":2248:2255  address */\n      0x00\n        /* \"@openzeppelin/contracts/token/ERC721/ERC721.sol\":2274:2296  _requireOwned(tokenId) */\n      tag_97\n        /* \"@openzeppelin/contracts/token/ERC721/ERC721.sol\":2288:2295  tokenId */\n      dup3\n        /* \"@openzeppelin/contracts/token/ERC721/ERC721.sol\":2274:2287  _requireOwned */\n      tag_108\n        /* \"@openzeppelin/contracts/token/ERC721/ERC721.sol\":2274:2296  _requireOwned(tokenId) */\n      jump\t// in\n        /* \"@openzeppelin/contracts/token/ERC721/ERC721.sol\":1920:2128  function balanceOf(address owner) public view virtual returns (uint256) {... */\n    tag_61:\n        /* \"@openzeppelin/contracts/token/ERC721/ERC721.sol\":1983:1990  uint256 */\n      0x00\n      sub(shl(0xa0, 0x01), 0x01)\n        /* \"@openzeppelin/contracts/token/ERC721/ERC721.sol\":2006:2025  owner == address(0) */\n      dup3\n      and\n        /* \"@openzeppelin/contracts/token/ERC721/ERC721.sol\":2002:2089  if (owner == address(0)) {... */\n      tag_131\n      jumpi\n        /* \"@openzeppelin/contracts/token/ERC721/ERC721.sol\":2048:2078  ERC721InvalidOwner(address(0)) */\n      mload(0x40)\n      shl(0xe2, 0x22718ad9)\n      dup2\n      mstore\n        /* \"@openzeppelin/contracts/token/ERC721/ERC721.sol\":2075:2076  0 */\n      0x00\n        /* \"@openzeppelin/contracts/token/ERC721/ERC721.sol\":2048:2078  ERC721InvalidOwner(address(0)) */\n      0x04\n      dup3\n      add\n        /* \"#utility.yul\":1510:1561   */\n      mstore\n        /* \"#utility.yul\":1483:1501   */\n      0x24\n      add\n        /* \"@openzeppelin/contracts/token/ERC721/ERC721.sol\":2048:2078  ERC721InvalidOwner(address(0)) */\n      tag_119\n        /* \"#utility.yul\":1364:1567   */\n      jump\n        /* \"@openzeppelin/contracts/token/ERC721/ERC721.sol\":2002:2089  if (owner == address(0)) {... */\n    tag_131:\n      pop\n      sub(shl(0xa0, 0x01), 0x01)\n        /* \"@openzeppelin/contracts/token/ERC721/ERC721.sol\":2105:2121  _balances[owner] */\n      and\n      0x00\n      swap1\n      dup2\n      mstore\n        /* \"@openzeppelin/contracts/token/ERC721/ERC721.sol\":2105:2114  _balances */\n      0x03\n        /* \"@openzeppelin/contracts/token/ERC721/ERC721.sol\":2105:2121  _balances[owner] */\n      0x20\n      mstore\n      0x40\n      swap1\n      keccak256\n      sload\n      swap1\n        /* \"@openzeppelin/contracts/token/ERC721/ERC721.sol\":1920:2128  function balanceOf(address owner) public view virtual returns (uint256) {... */\n      jump\t// out\n        /* \"Polygon/Game_NFT.sol\":151:189  mapping(uint => string) public nftData */\n    tag_65:\n      mstore(0x20, 0x06)\n      0x00\n      swap1\n      dup2\n      mstore\n      0x40\n      swap1\n      keccak256\n      dup1\n      sload\n      tag_133\n      swap1\n      tag_101\n      jump\t// in\n    tag_133:\n      dup1\n      0x1f\n      add\n      0x20\n      dup1\n      swap2\n      div\n      mul\n      0x20\n      add\n      mload(0x40)\n      swap1\n      dup2\n      add\n      0x40\n      mstore\n      dup1\n      swap3\n      swap2\n      swap1\n      dup2\n      dup2\n      mstore\n      0x20\n      add\n      dup3\n      dup1\n      sload\n      tag_134\n      swap1\n      tag_101\n      jump\t// in\n    tag_134:\n      dup1\n      iszero\n      tag_135\n      jumpi\n      dup1\n      0x1f\n      lt\n      tag_136\n      jumpi\n      0x0100\n      dup1\n      dup4\n      sload\n      div\n      mul\n      dup4\n      mstore\n      swap2\n      0x20\n      add\n      swap2\n      jump(tag_135)\n    tag_136:\n      dup3\n      add\n      swap2\n      swap1\n      0x00\n      mstore\n      keccak256(0x00, 0x20)\n      swap1\n    tag_137:\n      dup2\n      sload\n      dup2\n      mstore\n      swap1\n      0x01\n      add\n      swap1\n      0x20\n      add\n      dup1\n      dup4\n      gt\n      tag_137\n      jumpi\n      dup3\n      swap1\n      sub\n      0x1f\n      and\n      dup3\n      add\n      swap2\n    tag_135:\n      pop\n      pop\n      pop\n      pop\n      pop\n      dup2\n      jump\t// out\n        /* \"Polygon/Game_NFT.sol\":576:695  function transferNFT(address recipient, uint tokenId) public {... */\n    tag_69:\n        /* \"Polygon/Game_NFT.sol\":647:688  _transfer(msg.sender, recipient, tokenId) */\n      tag_112\n        /* \"Polygon/Game_NFT.sol\":657:667  msg.sender */\n      caller\n        /* \"Polygon/Game_NFT.sol\":669:678  recipient */\n      dup4\n        /* \"Polygon/Game_NFT.sol\":680:687  tokenId */\n      dup4\n        /* \"Polygon/Game_NFT.sol\":647:656  _transfer */\n      tag_140\n        /* \"Polygon/Game_NFT.sol\":647:688  _transfer(msg.sender, recipient, tokenId) */\n      jump\t// in\n        /* \"@openzeppelin/contracts/token/ERC721/ERC721.sol\":2518:2611  function symbol() public view virtual returns (string memory) {... */\n    tag_71:\n        /* \"@openzeppelin/contracts/token/ERC721/ERC721.sol\":2565:2578  string memory */\n      0x60\n        /* \"@openzeppelin/contracts/token/ERC721/ERC721.sol\":2597:2604  _symbol */\n      0x01\n        /* \"@openzeppelin/contracts/token/ERC721/ERC721.sol\":2590:2604  return _symbol */\n      dup1\n      sload\n      tag_100\n      swap1\n      tag_101\n      jump\t// in\n        /* \"@openzeppelin/contracts/token/ERC721/ERC721.sol\":3718:3862  function setApprovalForAll(address operator, bool approved) public virtual {... */\n    tag_76:\n        /* \"@openzeppelin/contracts/token/ERC721/ERC721.sol\":3803:3855  _setApprovalForAll(_msgSender(), operator, approved) */\n      tag_112\n        /* \"@openzeppelin/contracts/utils/Context.sol\":735:745  msg.sender */\n      caller\n        /* \"@openzeppelin/contracts/token/ERC721/ERC721.sol\":3836:3844  operator */\n      dup4\n        /* \"@openzeppelin/contracts/token/ERC721/ERC721.sol\":3846:3854  approved */\n      dup4\n        /* \"@openzeppelin/contracts/token/ERC721/ERC721.sol\":3803:3821  _setApprovalForAll */\n      tag_150\n        /* \"@openzeppelin/contracts/token/ERC721/ERC721.sol\":3803:3855  _setApprovalForAll(_msgSender(), operator, approved) */\n      jump\t// in\n        /* \"@openzeppelin/contracts/token/ERC721/ERC721.sol\":4985:5193  function safeTransferFrom(address from, address to, uint256 tokenId, bytes memory data) public virtual {... */\n    tag_80:\n        /* \"@openzeppelin/contracts/token/ERC721/ERC721.sol\":5098:5129  transferFrom(from, to, tokenId) */\n      tag_152\n        /* \"@openzeppelin/contracts/token/ERC721/ERC721.sol\":5111:5115  from */\n      dup5\n        /* \"@openzeppelin/contracts/token/ERC721/ERC721.sol\":5117:5119  to */\n      dup5\n        /* \"@openzeppelin/contracts/token/ERC721/ERC721.sol\":5121:5128  tokenId */\n      dup5\n        /* \"@openzeppelin/contracts/token/ERC721/ERC721.sol\":5098:5110  transferFrom */\n      tag_50\n        /* \"@openzeppelin/contracts/token/ERC721/ERC721.sol\":5098:5129  transferFrom(from, to, tokenId) */\n      jump\t// in\n    tag_152:\n        /* \"@openzeppelin/contracts/token/ERC721/ERC721.sol\":5139:5186  _checkOnERC721Received(from, to, tokenId, data) */\n      tag_123\n        /* \"@openzeppelin/contracts/token/ERC721/ERC721.sol\":5162:5166  from */\n      dup5\n        /* \"@openzeppelin/contracts/token/ERC721/ERC721.sol\":5168:5170  to */\n      dup5\n        /* \"@openzeppelin/contracts/token/ERC721/ERC721.sol\":5172:5179  tokenId */\n      dup5\n        /* \"@openzeppelin/contracts/token/ERC721/ERC721.sol\":5181:5185  data */\n      dup5\n        /* \"@openzeppelin/contracts/token/ERC721/ERC721.sol\":5139:5161  _checkOnERC721Received */\n      tag_154\n        /* \"@openzeppelin/contracts/token/ERC721/ERC721.sol\":5139:5186  _checkOnERC721Received(from, to, tokenId, data) */\n      jump\t// in\n        /* \"@openzeppelin/contracts/token/ERC721/ERC721.sol\":2677:2932  function tokenURI(uint256 tokenId) public view virtual returns (string memory) {... */\n    tag_83:\n        /* \"@openzeppelin/contracts/token/ERC721/ERC721.sol\":2741:2754  string memory */\n      0x60\n        /* \"@openzeppelin/contracts/token/ERC721/ERC721.sol\":2766:2788  _requireOwned(tokenId) */\n      tag_156\n        /* \"@openzeppelin/contracts/token/ERC721/ERC721.sol\":2780:2787  tokenId */\n      dup3\n        /* \"@openzeppelin/contracts/token/ERC721/ERC721.sol\":2766:2779  _requireOwned */\n      tag_108\n        /* \"@openzeppelin/contracts/token/ERC721/ERC721.sol\":2766:2788  _requireOwned(tokenId) */\n      jump\t// in\n    tag_156:\n      pop\n        /* \"@openzeppelin/contracts/token/ERC721/ERC721.sol\":2799:2820  string memory baseURI */\n      0x00\n        /* \"@openzeppelin/contracts/token/ERC721/ERC721.sol\":2823:2833  _baseURI() */\n      tag_157\n        /* \"@openzeppelin/contracts/token/ERC721/ERC721.sol\":3250:3259  return \"\" */\n      0x40\n      dup1\n      mload\n      0x20\n      dup2\n      add\n      swap1\n      swap2\n      mstore\n      0x00\n      dup2\n      mstore\n      swap1\n        /* \"@openzeppelin/contracts/token/ERC721/ERC721.sol\":3174:3266  function _baseURI() internal view virtual returns (string memory) {... */\n      jump\n        /* \"@openzeppelin/contracts/token/ERC721/ERC721.sol\":2823:2833  _baseURI() */\n    tag_157:\n        /* \"@openzeppelin/contracts/token/ERC721/ERC721.sol\":2799:2833  string memory baseURI = _baseURI() */\n      swap1\n      pop\n        /* \"@openzeppelin/contracts/token/ERC721/ERC721.sol\":2874:2875  0 */\n      0x00\n        /* \"@openzeppelin/contracts/token/ERC721/ERC721.sol\":2856:2863  baseURI */\n      dup2\n        /* \"@openzeppelin/contracts/token/ERC721/ERC721.sol\":2850:2871  bytes(baseURI).length */\n      mload\n        /* \"@openzeppelin/contracts/token/ERC721/ERC721.sol\":2850:2875  bytes(baseURI).length > 0 */\n      gt\n        /* \"@openzeppelin/contracts/token/ERC721/ERC721.sol\":2850:2925  bytes(baseURI).length > 0 ? string.concat(baseURI, tokenId.toString()) : \"\" */\n      tag_159\n      jumpi\n      mload(0x40)\n      dup1\n      0x20\n      add\n      0x40\n      mstore\n      dup1\n      0x00\n      dup2\n      mstore\n      pop\n      jump(tag_160)\n    tag_159:\n        /* \"@openzeppelin/contracts/token/ERC721/ERC721.sol\":2892:2899  baseURI */\n      dup1\n        /* \"@openzeppelin/contracts/token/ERC721/ERC721.sol\":2901:2919  tokenId.toString() */\n      tag_161\n        /* \"@openzeppelin/contracts/token/ERC721/ERC721.sol\":2901:2908  tokenId */\n      dup5\n        /* \"@openzeppelin/contracts/token/ERC721/ERC721.sol\":2901:2917  tokenId.toString */\n      tag_162\n        /* \"@openzeppelin/contracts/token/ERC721/ERC721.sol\":2901:2919  tokenId.toString() */\n      jump\t// in\n    tag_161:\n        /* \"@openzeppelin/contracts/token/ERC721/ERC721.sol\":2878:2920  string.concat(baseURI, tokenId.toString()) */\n      add(0x20, mload(0x40))\n      tag_163\n      swap3\n      swap2\n      swap1\n      tag_164\n      jump\t// in\n    tag_163:\n      mload(0x40)\n      0x20\n      dup2\n      dup4\n      sub\n      sub\n      dup2\n      mstore\n      swap1\n      0x40\n      mstore\n        /* \"@openzeppelin/contracts/token/ERC721/ERC721.sol\":2850:2925  bytes(baseURI).length > 0 ? string.concat(baseURI, tokenId.toString()) : \"\" */\n    tag_160:\n        /* \"@openzeppelin/contracts/token/ERC721/ERC721.sol\":2843:2925  return bytes(baseURI).length > 0 ? string.concat(baseURI, tokenId.toString()) : \"\" */\n      swap4\n        /* \"@openzeppelin/contracts/token/ERC721/ERC721.sol\":2677:2932  function tokenURI(uint256 tokenId) public view virtual returns (string memory) {... */\n      swap3\n      pop\n      pop\n      pop\n      jump\t// out\n        /* \"@openzeppelin/contracts/token/ERC721/ERC721.sol\":3928:4081  function isApprovedForAll(address owner, address operator) public view virtual returns (bool) {... */\n    tag_88:\n      sub(shl(0xa0, 0x01), 0x01)\n        /* \"@openzeppelin/contracts/token/ERC721/ERC721.sol\":4039:4064  _operatorApprovals[owner] */\n      swap2\n      dup3\n      and\n        /* \"@openzeppelin/contracts/token/ERC721/ERC721.sol\":4016:4020  bool */\n      0x00\n        /* \"@openzeppelin/contracts/token/ERC721/ERC721.sol\":4039:4064  _operatorApprovals[owner] */\n      swap1\n      dup2\n      mstore\n        /* \"@openzeppelin/contracts/token/ERC721/ERC721.sol\":4039:4057  _operatorApprovals */\n      0x05\n        /* \"@openzeppelin/contracts/token/ERC721/ERC721.sol\":4039:4064  _operatorApprovals[owner] */\n      0x20\n      swap1\n      dup2\n      mstore\n      0x40\n      dup1\n      dup4\n      keccak256\n        /* \"@openzeppelin/contracts/token/ERC721/ERC721.sol\":4039:4074  _operatorApprovals[owner][operator] */\n      swap4\n      swap1\n      swap5\n      and\n      dup3\n      mstore\n      swap2\n      swap1\n      swap2\n      mstore\n      keccak256\n      sload\n      0xff\n      and\n      swap1\n        /* \"@openzeppelin/contracts/token/ERC721/ERC721.sol\":3928:4081  function isApprovedForAll(address owner, address operator) public view virtual returns (bool) {... */\n      jump\t// out\n        /* \"Polygon/Game_NFT.sol\":367:570  function mintNFT(address recipient, string memory data) public {... */\n    tag_93:\n        /* \"Polygon/Game_NFT.sol\":440:452  uint tokenId */\n      0x00\n        /* \"Polygon/Game_NFT.sol\":455:467  _totalSupply */\n      sload(0x07)\n        /* \"Polygon/Game_NFT.sol\":470:471  1 */\n      0x01\n        /* \"Polygon/Game_NFT.sol\":455:471  _totalSupply + 1 */\n      tag_167\n      swap2\n      swap1\n      tag_168\n      jump\t// in\n    tag_167:\n        /* \"Polygon/Game_NFT.sol\":440:471  uint tokenId = _totalSupply + 1 */\n      swap1\n      pop\n        /* \"Polygon/Game_NFT.sol\":481:506  _mint(recipient, tokenId) */\n      tag_169\n        /* \"Polygon/Game_NFT.sol\":487:496  recipient */\n      dup4\n        /* \"Polygon/Game_NFT.sol\":498:505  tokenId */\n      dup3\n        /* \"Polygon/Game_NFT.sol\":481:486  _mint */\n      tag_170\n        /* \"Polygon/Game_NFT.sol\":481:506  _mint(recipient, tokenId) */\n      jump\t// in\n    tag_169:\n        /* \"Polygon/Game_NFT.sol\":516:532  nftData[tokenId] */\n      0x00\n      dup2\n      dup2\n      mstore\n        /* \"Polygon/Game_NFT.sol\":516:523  nftData */\n      0x06\n        /* \"Polygon/Game_NFT.sol\":516:532  nftData[tokenId] */\n      0x20\n      mstore\n      0x40\n      swap1\n      keccak256\n        /* \"Polygon/Game_NFT.sol\":516:539  nftData[tokenId] = data */\n      tag_171\n        /* \"Polygon/Game_NFT.sol\":535:539  data */\n      dup4\n        /* \"Polygon/Game_NFT.sol\":516:532  nftData[tokenId] */\n      dup3\n        /* \"Polygon/Game_NFT.sol\":516:539  nftData[tokenId] = data */\n      tag_172\n      jump\t// in\n    tag_171:\n      pop\n        /* \"Polygon/Game_NFT.sol\":549:561  _totalSupply */\n      0x07\n        /* \"Polygon/Game_NFT.sol\":549:563  _totalSupply++ */\n      dup1\n      sload\n      swap1\n        /* \"Polygon/Game_NFT.sol\":549:561  _totalSupply */\n      0x00\n        /* \"Polygon/Game_NFT.sol\":549:563  _totalSupply++ */\n      tag_173\n      dup4\n      tag_174\n      jump\t// in\n    tag_173:\n      swap2\n      swap1\n      pop\n      sstore\n      pop\n        /* \"Polygon/Game_NFT.sol\":430:570  {... */\n      pop\n        /* \"Polygon/Game_NFT.sol\":367:570  function mintNFT(address recipient, string memory data) public {... */\n      pop\n      pop\n      jump\t// out\n        /* \"@openzeppelin/contracts/token/ERC721/ERC721.sol\":16138:16379  function _requireOwned(uint256 tokenId) internal view returns (address) {... */\n    tag_108:\n        /* \"@openzeppelin/contracts/token/ERC721/ERC721.sol\":16201:16208  address */\n      0x00\n        /* \"@openzeppelin/contracts/token/ERC721/ERC721.sol\":5799:5815  _owners[tokenId] */\n      dup2\n      dup2\n      mstore\n        /* \"@openzeppelin/contracts/token/ERC721/ERC721.sol\":5799:5806  _owners */\n      0x02\n        /* \"@openzeppelin/contracts/token/ERC721/ERC721.sol\":5799:5815  _owners[tokenId] */\n      0x20\n      mstore\n      0x40\n      dup2\n      keccak256\n      sload\n      sub(shl(0xa0, 0x01), 0x01)\n      and\n      dup1\n        /* \"@openzeppelin/contracts/token/ERC721/ERC721.sol\":16263:16351  if (owner == address(0)) {... */\n      tag_97\n      jumpi\n        /* \"@openzeppelin/contracts/token/ERC721/ERC721.sol\":16309:16340  ERC721NonexistentToken(tokenId) */\n      mload(0x40)\n      shl(0xe0, 0x7e273289)\n      dup2\n      mstore\n      0x04\n      dup2\n      add\n        /* \"#utility.yul\":2201:2226   */\n      dup5\n      swap1\n      mstore\n        /* \"#utility.yul\":2174:2192   */\n      0x24\n      add\n        /* \"@openzeppelin/contracts/token/ERC721/ERC721.sol\":16309:16340  ERC721NonexistentToken(tokenId) */\n      tag_119\n        /* \"#utility.yul\":2055:2232   */\n      jump\n        /* \"@openzeppelin/contracts/token/ERC721/ERC721.sol\":14418:14538  function _approve(address to, uint256 tokenId, address auth) internal {... */\n    tag_115:\n        /* \"@openzeppelin/contracts/token/ERC721/ERC721.sol\":14498:14531  _approve(to, tokenId, auth, true) */\n      tag_127\n        /* \"@openzeppelin/contracts/token/ERC721/ERC721.sol\":14507:14509  to */\n      dup4\n        /* \"@openzeppelin/contracts/token/ERC721/ERC721.sol\":14511:14518  tokenId */\n      dup4\n        /* \"@openzeppelin/contracts/token/ERC721/ERC721.sol\":14520:14524  auth */\n      dup4\n        /* \"@openzeppelin/contracts/token/ERC721/ERC721.sol\":14526:14530  true */\n      0x01\n        /* \"@openzeppelin/contracts/token/ERC721/ERC721.sol\":14498:14506  _approve */\n      tag_185\n        /* \"@openzeppelin/contracts/token/ERC721/ERC721.sol\":14498:14531  _approve(to, tokenId, auth, true) */\n      jump\t// in\n        /* \"@openzeppelin/contracts/token/ERC721/ERC721.sol\":8838:9633  function _update(address to, uint256 tokenId, address auth) internal virtual returns (address) {... */\n    tag_122:\n        /* \"@openzeppelin/contracts/token/ERC721/ERC721.sol\":8924:8931  address */\n      0x00\n        /* \"@openzeppelin/contracts/token/ERC721/ERC721.sol\":5799:5815  _owners[tokenId] */\n      dup3\n      dup2\n      mstore\n        /* \"@openzeppelin/contracts/token/ERC721/ERC721.sol\":5799:5806  _owners */\n      0x02\n        /* \"@openzeppelin/contracts/token/ERC721/ERC721.sol\":5799:5815  _owners[tokenId] */\n      0x20\n      mstore\n      0x40\n      dup2\n      keccak256\n      sload\n      sub(shl(0xa0, 0x01), 0x01)\n      swap1\n      dup2\n      and\n      swap1\n        /* \"@openzeppelin/contracts/token/ERC721/ERC721.sol\":9035:9053  auth != address(0) */\n      dup4\n      and\n      iszero\n        /* \"@openzeppelin/contracts/token/ERC721/ERC721.sol\":9031:9117  if (auth != address(0)) {... */\n      tag_189\n      jumpi\n        /* \"@openzeppelin/contracts/token/ERC721/ERC721.sol\":9069:9106  _checkAuthorized(from, auth, tokenId) */\n      tag_189\n        /* \"@openzeppelin/contracts/token/ERC721/ERC721.sol\":9086:9090  from */\n      dup2\n        /* \"@openzeppelin/contracts/token/ERC721/ERC721.sol\":9092:9096  auth */\n      dup5\n        /* \"@openzeppelin/contracts/token/ERC721/ERC721.sol\":9098:9105  tokenId */\n      dup7\n        /* \"@openzeppelin/contracts/token/ERC721/ERC721.sol\":9069:9085  _checkAuthorized */\n      tag_190\n        /* \"@openzeppelin/contracts/token/ERC721/ERC721.sol\":9069:9106  _checkAuthorized(from, auth, tokenId) */\n      jump\t// in\n    tag_189:\n      sub(shl(0xa0, 0x01), 0x01)\n        /* \"@openzeppelin/contracts/token/ERC721/ERC721.sol\":9161:9179  from != address(0) */\n      dup2\n      and\n      iszero\n        /* \"@openzeppelin/contracts/token/ERC721/ERC721.sol\":9157:9413  if (from != address(0)) {... */\n      tag_191\n      jumpi\n        /* \"@openzeppelin/contracts/token/ERC721/ERC721.sol\":9277:9325  _approve(address(0), tokenId, address(0), false) */\n      tag_192\n        /* \"@openzeppelin/contracts/token/ERC721/ERC721.sol\":9294:9295  0 */\n      0x00\n        /* \"@openzeppelin/contracts/token/ERC721/ERC721.sol\":9298:9305  tokenId */\n      dup6\n        /* \"@openzeppelin/contracts/token/ERC721/ERC721.sol\":9315:9316  0 */\n      0x00\n        /* \"@openzeppelin/contracts/token/ERC721/ERC721.sol\":9319:9324  false */\n      dup1\n        /* \"@openzeppelin/contracts/token/ERC721/ERC721.sol\":9277:9285  _approve */\n      tag_185\n        /* \"@openzeppelin/contracts/token/ERC721/ERC721.sol\":9277:9325  _approve(address(0), tokenId, address(0), false) */\n      jump\t// in\n    tag_192:\n      sub(shl(0xa0, 0x01), 0x01)\n        /* \"@openzeppelin/contracts/token/ERC721/ERC721.sol\":9368:9383  _balances[from] */\n      dup2\n      and\n      0x00\n      swap1\n      dup2\n      mstore\n        /* \"@openzeppelin/contracts/token/ERC721/ERC721.sol\":9368:9377  _balances */\n      0x03\n        /* \"@openzeppelin/contracts/token/ERC721/ERC721.sol\":9368:9383  _balances[from] */\n      0x20\n      mstore\n      0x40\n      swap1\n      keccak256\n        /* \"@openzeppelin/contracts/token/ERC721/ERC721.sol\":9368:9388  _balances[from] -= 1 */\n      dup1\n      sload\n      not(0x00)\n      add\n      swap1\n      sstore\n        /* \"@openzeppelin/contracts/token/ERC721/ERC721.sol\":9157:9413  if (from != address(0)) {... */\n    tag_191:\n      sub(shl(0xa0, 0x01), 0x01)\n        /* \"@openzeppelin/contracts/token/ERC721/ERC721.sol\":9427:9443  to != address(0) */\n      dup6\n      and\n      iszero\n        /* \"@openzeppelin/contracts/token/ERC721/ERC721.sol\":9423:9530  if (to != address(0)) {... */\n      tag_193\n      jumpi\n      sub(shl(0xa0, 0x01), 0x01)\n        /* \"@openzeppelin/contracts/token/ERC721/ERC721.sol\":9487:9500  _balances[to] */\n      dup6\n      and\n      0x00\n      swap1\n      dup2\n      mstore\n        /* \"@openzeppelin/contracts/token/ERC721/ERC721.sol\":9487:9496  _balances */\n      0x03\n        /* \"@openzeppelin/contracts/token/ERC721/ERC721.sol\":9487:9500  _balances[to] */\n      0x20\n      mstore\n      0x40\n      swap1\n      keccak256\n        /* \"@openzeppelin/contracts/token/ERC721/ERC721.sol\":9487:9505  _balances[to] += 1 */\n      dup1\n      sload\n        /* \"@openzeppelin/contracts/token/ERC721/ERC721.sol\":9504:9505  1 */\n      0x01\n        /* \"@openzeppelin/contracts/token/ERC721/ERC721.sol\":9487:9505  _balances[to] += 1 */\n      add\n      swap1\n      sstore\n        /* \"@openzeppelin/contracts/token/ERC721/ERC721.sol\":9423:9530  if (to != address(0)) {... */\n    tag_193:\n        /* \"@openzeppelin/contracts/token/ERC721/ERC721.sol\":9540:9556  _owners[tokenId] */\n      0x00\n      dup5\n      dup2\n      mstore\n        /* \"@openzeppelin/contracts/token/ERC721/ERC721.sol\":9540:9547  _owners */\n      0x02\n        /* \"@openzeppelin/contracts/token/ERC721/ERC721.sol\":9540:9556  _owners[tokenId] */\n      0x20\n      mstore\n      0x40\n      dup1\n      dup3\n      keccak256\n        /* \"@openzeppelin/contracts/token/ERC721/ERC721.sol\":9540:9561  _owners[tokenId] = to */\n      dup1\n      sload\n      not(sub(shl(0xa0, 0x01), 0x01))\n      and\n      sub(shl(0xa0, 0x01), 0x01)\n      dup10\n      dup2\n      and\n      swap2\n      dup3\n      or\n      swap1\n      swap3\n      sstore\n        /* \"@openzeppelin/contracts/token/ERC721/ERC721.sol\":9577:9604  Transfer(from, to, tokenId) */\n      swap2\n      mload\n        /* \"@openzeppelin/contracts/token/ERC721/ERC721.sol\":9540:9556  _owners[tokenId] */\n      dup8\n      swap4\n        /* \"@openzeppelin/contracts/token/ERC721/ERC721.sol\":9577:9604  Transfer(from, to, tokenId) */\n      swap2\n      dup6\n      and\n      swap2\n      0xddf252ad1be2c89b69c2b068fc378daa952ba7f163c4a11628f55a4df523b3ef\n      swap2\n      log4\n        /* \"@openzeppelin/contracts/token/ERC721/ERC721.sol\":9622:9626  from */\n      swap5\n        /* \"@openzeppelin/contracts/token/ERC721/ERC721.sol\":8838:9633  function _update(address to, uint256 tokenId, address auth) internal virtual returns (address) {... */\n      swap4\n      pop\n      pop\n      pop\n      pop\n      jump\t// out\n        /* \"@openzeppelin/contracts/token/ERC721/ERC721.sol\":12013:12473  function _transfer(address from, address to, uint256 tokenId) internal {... */\n    tag_140:\n      sub(shl(0xa0, 0x01), 0x01)\n        /* \"@openzeppelin/contracts/token/ERC721/ERC721.sol\":12098:12114  to == address(0) */\n      dup3\n      and\n        /* \"@openzeppelin/contracts/token/ERC721/ERC721.sol\":12094:12181  if (to == address(0)) {... */\n      tag_195\n      jumpi\n        /* \"@openzeppelin/contracts/token/ERC721/ERC721.sol\":12137:12170  ERC721InvalidReceiver(address(0)) */\n      mload(0x40)\n      shl(0xe1, 0x32505749)\n      dup2\n      mstore\n        /* \"@openzeppelin/contracts/token/ERC721/ERC721.sol\":12167:12168  0 */\n      0x00\n        /* \"@openzeppelin/contracts/token/ERC721/ERC721.sol\":12137:12170  ERC721InvalidReceiver(address(0)) */\n      0x04\n      dup3\n      add\n        /* \"#utility.yul\":1510:1561   */\n      mstore\n        /* \"#utility.yul\":1483:1501   */\n      0x24\n      add\n        /* \"@openzeppelin/contracts/token/ERC721/ERC721.sol\":12137:12170  ERC721InvalidReceiver(address(0)) */\n      tag_119\n        /* \"#utility.yul\":1364:1567   */\n      jump\n        /* \"@openzeppelin/contracts/token/ERC721/ERC721.sol\":12094:12181  if (to == address(0)) {... */\n    tag_195:\n        /* \"@openzeppelin/contracts/token/ERC721/ERC721.sol\":12190:12211  address previousOwner */\n      0x00\n        /* \"@openzeppelin/contracts/token/ERC721/ERC721.sol\":12214:12246  _update(to, tokenId, address(0)) */\n      tag_197\n        /* \"@openzeppelin/contracts/token/ERC721/ERC721.sol\":12222:12224  to */\n      dup4\n        /* \"@openzeppelin/contracts/token/ERC721/ERC721.sol\":12226:12233  tokenId */\n      dup4\n        /* \"@openzeppelin/contracts/token/ERC721/ERC721.sol\":12243:12244  0 */\n      0x00\n        /* \"@openzeppelin/contracts/token/ERC721/ERC721.sol\":12214:12221  _update */\n      tag_122\n        /* \"@openzeppelin/contracts/token/ERC721/ERC721.sol\":12214:12246  _update(to, tokenId, address(0)) */\n      jump\t// in\n    tag_197:\n        /* \"@openzeppelin/contracts/token/ERC721/ERC721.sol\":12190:12246  address previousOwner = _update(to, tokenId, address(0)) */\n      swap1\n      pop\n      sub(shl(0xa0, 0x01), 0x01)\n        /* \"@openzeppelin/contracts/token/ERC721/ERC721.sol\":12260:12287  previousOwner == address(0) */\n      dup2\n      and\n        /* \"@openzeppelin/contracts/token/ERC721/ERC721.sol\":12256:12467  if (previousOwner == address(0)) {... */\n      tag_198\n      jumpi\n        /* \"@openzeppelin/contracts/token/ERC721/ERC721.sol\":12310:12341  ERC721NonexistentToken(tokenId) */\n      mload(0x40)\n      shl(0xe0, 0x7e273289)\n      dup2\n      mstore\n      0x04\n      dup2\n      add\n        /* \"#utility.yul\":2201:2226   */\n      dup4\n      swap1\n      mstore\n        /* \"#utility.yul\":2174:2192   */\n      0x24\n      add\n        /* \"@openzeppelin/contracts/token/ERC721/ERC721.sol\":12310:12341  ERC721NonexistentToken(tokenId) */\n      tag_119\n        /* \"#utility.yul\":2055:2232   */\n      jump\n        /* \"@openzeppelin/contracts/token/ERC721/ERC721.sol\":12256:12467  if (previousOwner == address(0)) {... */\n    tag_198:\n        /* \"@openzeppelin/contracts/token/ERC721/ERC721.sol\":12379:12383  from */\n      dup4\n      sub(shl(0xa0, 0x01), 0x01)\n        /* \"@openzeppelin/contracts/token/ERC721/ERC721.sol\":12362:12383  previousOwner != from */\n      and\n        /* \"@openzeppelin/contracts/token/ERC721/ERC721.sol\":12362:12375  previousOwner */\n      dup2\n      sub(shl(0xa0, 0x01), 0x01)\n        /* \"@openzeppelin/contracts/token/ERC721/ERC721.sol\":12362:12383  previousOwner != from */\n      and\n      eq\n        /* \"@openzeppelin/contracts/token/ERC721/ERC721.sol\":12358:12467  if (previousOwner != from) {... */\n      tag_123\n      jumpi\n        /* \"@openzeppelin/contracts/token/ERC721/ERC721.sol\":12406:12456  ERC721IncorrectOwner(from, tokenId, previousOwner) */\n      mload(0x40)\n      shl(0xe0, 0x64283d7b)\n      dup2\n      mstore\n      sub(shl(0xa0, 0x01), 0x01)\n        /* \"#utility.yul\":6127:6159   */\n      dup1\n      dup7\n      and\n        /* \"@openzeppelin/contracts/token/ERC721/ERC721.sol\":12406:12456  ERC721IncorrectOwner(from, tokenId, previousOwner) */\n      0x04\n      dup4\n      add\n        /* \"#utility.yul\":6109:6160   */\n      mstore\n        /* \"#utility.yul\":6176:6194   */\n      0x24\n      dup3\n      add\n        /* \"#utility.yul\":6169:6203   */\n      dup5\n      swap1\n      mstore\n        /* \"#utility.yul\":6239:6271   */\n      dup3\n      and\n        /* \"#utility.yul\":6219:6237   */\n      0x44\n      dup3\n      add\n        /* \"#utility.yul\":6212:6272   */\n      mstore\n        /* \"#utility.yul\":6082:6100   */\n      0x64\n      add\n        /* \"@openzeppelin/contracts/token/ERC721/ERC721.sol\":12406:12456  ERC721IncorrectOwner(from, tokenId, previousOwner) */\n      tag_119\n        /* \"#utility.yul\":5907:6278   */\n      jump\n        /* \"@openzeppelin/contracts/token/ERC721/ERC721.sol\":15591:15903  function _setApprovalForAll(address owner, address operator, bool approved) internal virtual {... */\n    tag_150:\n      sub(shl(0xa0, 0x01), 0x01)\n        /* \"@openzeppelin/contracts/token/ERC721/ERC721.sol\":15698:15720  operator == address(0) */\n      dup3\n      and\n        /* \"@openzeppelin/contracts/token/ERC721/ERC721.sol\":15694:15785  if (operator == address(0)) {... */\n      tag_204\n      jumpi\n        /* \"@openzeppelin/contracts/token/ERC721/ERC721.sol\":15743:15774  ERC721InvalidOperator(operator) */\n      mload(0x40)\n      shl(0xe3, 0x0b611743)\n      dup2\n      mstore\n      sub(shl(0xa0, 0x01), 0x01)\n        /* \"#utility.yul\":1528:1560   */\n      dup4\n      and\n        /* \"@openzeppelin/contracts/token/ERC721/ERC721.sol\":15743:15774  ERC721InvalidOperator(operator) */\n      0x04\n      dup3\n      add\n        /* \"#utility.yul\":1510:1561   */\n      mstore\n        /* \"#utility.yul\":1483:1501   */\n      0x24\n      add\n        /* \"@openzeppelin/contracts/token/ERC721/ERC721.sol\":15743:15774  ERC721InvalidOperator(operator) */\n      tag_119\n        /* \"#utility.yul\":1364:1567   */\n      jump\n        /* \"@openzeppelin/contracts/token/ERC721/ERC721.sol\":15694:15785  if (operator == address(0)) {... */\n    tag_204:\n      sub(shl(0xa0, 0x01), 0x01)\n        /* \"@openzeppelin/contracts/token/ERC721/ERC721.sol\":15794:15819  _operatorApprovals[owner] */\n      dup4\n      dup2\n      and\n      0x00\n      dup2\n      dup2\n      mstore\n        /* \"@openzeppelin/contracts/token/ERC721/ERC721.sol\":15794:15812  _operatorApprovals */\n      0x05\n        /* \"@openzeppelin/contracts/token/ERC721/ERC721.sol\":15794:15819  _operatorApprovals[owner] */\n      0x20\n      swap1\n      dup2\n      mstore\n      0x40\n      dup1\n      dup4\n      keccak256\n        /* \"@openzeppelin/contracts/token/ERC721/ERC721.sol\":15794:15829  _operatorApprovals[owner][operator] */\n      swap5\n      dup8\n      and\n      dup1\n      dup5\n      mstore\n      swap5\n      dup3\n      mstore\n      swap2\n      dup3\n      swap1\n      keccak256\n        /* \"@openzeppelin/contracts/token/ERC721/ERC721.sol\":15794:15840  _operatorApprovals[owner][operator] = approved */\n      dup1\n      sload\n      not(0xff)\n      and\n      dup7\n      iszero\n      iszero\n      swap1\n      dup2\n      or\n      swap1\n      swap2\n      sstore\n        /* \"@openzeppelin/contracts/token/ERC721/ERC721.sol\":15855:15896  ApprovalForAll(owner, operator, approved) */\n      swap2\n      mload\n        /* \"#utility.yul\":540:581   */\n      swap2\n      dup3\n      mstore\n        /* \"@openzeppelin/contracts/token/ERC721/ERC721.sol\":15855:15896  ApprovalForAll(owner, operator, approved) */\n      0x17307eab39ab6107e8899845ad3d59bd9653f200f220920489ca2b5937696c31\n      swap2\n        /* \"#utility.yul\":513:531   */\n      add\n        /* \"@openzeppelin/contracts/token/ERC721/ERC721.sol\":15855:15896  ApprovalForAll(owner, operator, approved) */\n      mload(0x40)\n      dup1\n      swap2\n      sub\n      swap1\n      log3\n        /* \"@openzeppelin/contracts/token/ERC721/ERC721.sol\":15591:15903  function _setApprovalForAll(address owner, address operator, bool approved) internal virtual {... */\n      pop\n      pop\n      pop\n      jump\t// out\n        /* \"@openzeppelin/contracts/token/ERC721/ERC721.sol\":16918:17700  function _checkOnERC721Received(address from, address to, uint256 tokenId, bytes memory data) private {... */\n    tag_154:\n      sub(shl(0xa0, 0x01), 0x01)\n        /* \"@openzeppelin/contracts/token/ERC721/ERC721.sol\":17034:17048  to.code.length */\n      dup4\n      and\n      extcodesize\n        /* \"@openzeppelin/contracts/token/ERC721/ERC721.sol\":17034:17052  to.code.length > 0 */\n      iszero\n        /* \"@openzeppelin/contracts/token/ERC721/ERC721.sol\":17030:17694  if (to.code.length > 0) {... */\n      tag_123\n      jumpi\n        /* \"@openzeppelin/contracts/token/ERC721/ERC721.sol\":17072:17143  IERC721Receiver(to).onERC721Received(_msgSender(), from, tokenId, data) */\n      mload(0x40)\n      shl(0xe1, 0x0a85bd01)\n      dup2\n      mstore\n      sub(shl(0xa0, 0x01), 0x01)\n        /* \"@openzeppelin/contracts/token/ERC721/ERC721.sol\":17072:17108  IERC721Receiver(to).onERC721Received */\n      dup5\n      and\n      swap1\n      0x150b7a02\n      swap1\n        /* \"@openzeppelin/contracts/token/ERC721/ERC721.sol\":17072:17143  IERC721Receiver(to).onERC721Received(_msgSender(), from, tokenId, data) */\n      tag_210\n      swap1\n        /* \"@openzeppelin/contracts/utils/Context.sol\":735:745  msg.sender */\n      caller\n      swap1\n        /* \"@openzeppelin/contracts/token/ERC721/ERC721.sol\":17123:17127  from */\n      dup9\n      swap1\n        /* \"@openzeppelin/contracts/token/ERC721/ERC721.sol\":17129:17136  tokenId */\n      dup8\n      swap1\n        /* \"@openzeppelin/contracts/token/ERC721/ERC721.sol\":17138:17142  data */\n      dup8\n      swap1\n        /* \"@openzeppelin/contracts/token/ERC721/ERC721.sol\":17072:17143  IERC721Receiver(to).onERC721Received(_msgSender(), from, tokenId, data) */\n      0x04\n      add\n      tag_211\n      jump\t// in\n    tag_210:\n      0x20\n      mload(0x40)\n      dup1\n      dup4\n      sub\n      dup2\n      0x00\n      dup8\n      gas\n      call\n      swap3\n      pop\n      pop\n      pop\n      dup1\n      iszero\n      tag_212\n      jumpi\n      pop\n      0x40\n      dup1\n      mload\n      0x1f\n      returndatasize\n      swap1\n      dup2\n      add\n      not(0x1f)\n      and\n      dup3\n      add\n      swap1\n      swap3\n      mstore\n      tag_213\n      swap2\n      dup2\n      add\n      swap1\n      tag_214\n      jump\t// in\n    tag_213:\n      0x01\n    tag_212:\n        /* \"@openzeppelin/contracts/token/ERC721/ERC721.sol\":17068:17684  try IERC721Receiver(to).onERC721Received(_msgSender(), from, tokenId, data) returns (bytes4 retval) {... */\n      tag_215\n      jumpi\n      returndatasize\n      dup1\n      dup1\n      iszero\n      tag_220\n      jumpi\n      mload(0x40)\n      swap2\n      pop\n      and(add(returndatasize, 0x3f), not(0x1f))\n      dup3\n      add\n      0x40\n      mstore\n      returndatasize\n      dup3\n      mstore\n      returndatasize\n      0x00\n      0x20\n      dup5\n      add\n      returndatacopy\n      jump(tag_219)\n    tag_220:\n      0x60\n      swap2\n      pop\n    tag_219:\n      pop\n        /* \"@openzeppelin/contracts/token/ERC721/ERC721.sol\":17381:17387  reason */\n      dup1\n        /* \"@openzeppelin/contracts/token/ERC721/ERC721.sol\":17381:17394  reason.length */\n      mload\n        /* \"@openzeppelin/contracts/token/ERC721/ERC721.sol\":17398:17399  0 */\n      0x00\n        /* \"@openzeppelin/contracts/token/ERC721/ERC721.sol\":17381:17399  reason.length == 0 */\n      sub\n        /* \"@openzeppelin/contracts/token/ERC721/ERC721.sol\":17377:17670  if (reason.length == 0) {... */\n      tag_221\n      jumpi\n        /* \"@openzeppelin/contracts/token/ERC721/ERC721.sol\":17430:17455  ERC721InvalidReceiver(to) */\n      mload(0x40)\n      shl(0xe1, 0x32505749)\n      dup2\n      mstore\n      sub(shl(0xa0, 0x01), 0x01)\n        /* \"#utility.yul\":1528:1560   */\n      dup6\n      and\n        /* \"@openzeppelin/contracts/token/ERC721/ERC721.sol\":17430:17455  ERC721InvalidReceiver(to) */\n      0x04\n      dup3\n      add\n        /* \"#utility.yul\":1510:1561   */\n      mstore\n        /* \"#utility.yul\":1483:1501   */\n      0x24\n      add\n        /* \"@openzeppelin/contracts/token/ERC721/ERC721.sol\":17430:17455  ERC721InvalidReceiver(to) */\n      tag_119\n        /* \"#utility.yul\":1364:1567   */\n      jump\n        /* \"@openzeppelin/contracts/token/ERC721/ERC721.sol\":17377:17670  if (reason.length == 0) {... */\n    tag_221:\n        /* \"@openzeppelin/contracts/token/ERC721/ERC721.sol\":17622:17628  reason */\n      dup1\n        /* \"@openzeppelin/contracts/token/ERC721/ERC721.sol\":17616:17629  mload(reason) */\n      mload\n        /* \"@openzeppelin/contracts/token/ERC721/ERC721.sol\":17607:17613  reason */\n      dup2\n        /* \"@openzeppelin/contracts/token/ERC721/ERC721.sol\":17603:17605  32 */\n      0x20\n        /* \"@openzeppelin/contracts/token/ERC721/ERC721.sol\":17599:17614  add(32, reason) */\n      add\n        /* \"@openzeppelin/contracts/token/ERC721/ERC721.sol\":17592:17630  revert(add(32, reason), mload(reason)) */\n      revert\n        /* \"@openzeppelin/contracts/token/ERC721/ERC721.sol\":17068:17684  try IERC721Receiver(to).onERC721Received(_msgSender(), from, tokenId, data) returns (bytes4 retval) {... */\n    tag_215:\n      not(sub(shl(0xe0, 0x01), 0x01))\n        /* \"@openzeppelin/contracts/token/ERC721/ERC721.sol\":17190:17241  retval != IERC721Receiver.onERC721Received.selector */\n      dup2\n      and\n      shl(0xe1, 0x0a85bd01)\n      eq\n        /* \"@openzeppelin/contracts/token/ERC721/ERC721.sol\":17186:17316  if (retval != IERC721Receiver.onERC721Received.selector) {... */\n      tag_225\n      jumpi\n        /* \"@openzeppelin/contracts/token/ERC721/ERC721.sol\":17272:17297  ERC721InvalidReceiver(to) */\n      mload(0x40)\n      shl(0xe1, 0x32505749)\n      dup2\n      mstore\n      sub(shl(0xa0, 0x01), 0x01)\n        /* \"#utility.yul\":1528:1560   */\n      dup6\n      and\n        /* \"@openzeppelin/contracts/token/ERC721/ERC721.sol\":17272:17297  ERC721InvalidReceiver(to) */\n      0x04\n      dup3\n      add\n        /* \"#utility.yul\":1510:1561   */\n      mstore\n        /* \"#utility.yul\":1483:1501   */\n      0x24\n      add\n        /* \"@openzeppelin/contracts/token/ERC721/ERC721.sol\":17272:17297  ERC721InvalidReceiver(to) */\n      tag_119\n        /* \"#utility.yul\":1364:1567   */\n      jump\n        /* \"@openzeppelin/contracts/token/ERC721/ERC721.sol\":17186:17316  if (retval != IERC721Receiver.onERC721Received.selector) {... */\n    tag_225:\n        /* \"@openzeppelin/contracts/token/ERC721/ERC721.sol\":17144:17330  returns (bytes4 retval) {... */\n      pop\n        /* \"@openzeppelin/contracts/token/ERC721/ERC721.sol\":16918:17700  function _checkOnERC721Received(address from, address to, uint256 tokenId, bytes memory data) private {... */\n      pop\n      pop\n      pop\n      pop\n      jump\t// out\n        /* \"@openzeppelin/contracts/utils/Strings.sol\":637:1335  function toString(uint256 value) internal pure returns (string memory) {... */\n    tag_162:\n        /* \"@openzeppelin/contracts/utils/Strings.sol\":693:706  string memory */\n      0x60\n        /* \"@openzeppelin/contracts/utils/Strings.sol\":742:756  uint256 length */\n      0x00\n        /* \"@openzeppelin/contracts/utils/Strings.sol\":759:776  Math.log10(value) */\n      tag_229\n        /* \"@openzeppelin/contracts/utils/Strings.sol\":770:775  value */\n      dup4\n        /* \"@openzeppelin/contracts/utils/Strings.sol\":759:769  Math.log10 */\n      tag_230\n        /* \"@openzeppelin/contracts/utils/Strings.sol\":759:776  Math.log10(value) */\n      jump\t// in\n    tag_229:\n        /* \"@openzeppelin/contracts/utils/Strings.sol\":779:780  1 */\n      0x01\n        /* \"@openzeppelin/contracts/utils/Strings.sol\":759:780  Math.log10(value) + 1 */\n      add\n        /* \"@openzeppelin/contracts/utils/Strings.sol\":742:780  uint256 length = Math.log10(value) + 1 */\n      swap1\n      pop\n        /* \"@openzeppelin/contracts/utils/Strings.sol\":794:814  string memory buffer */\n      0x00\n        /* \"@openzeppelin/contracts/utils/Strings.sol\":828:834  length */\n      dup2\n        /* \"@openzeppelin/contracts/utils/Strings.sol\":817:835  new string(length) */\n      0xffffffffffffffff\n      dup2\n      gt\n      iszero\n      tag_232\n      jumpi\n      tag_232\n      tag_233\n      jump\t// in\n    tag_232:\n      mload(0x40)\n      swap1\n      dup1\n      dup3\n      mstore\n      dup1\n      0x1f\n      add\n      not(0x1f)\n      and\n      0x20\n      add\n      dup3\n      add\n      0x40\n      mstore\n      dup1\n      iszero\n      tag_234\n      jumpi\n      0x20\n      dup3\n      add\n      dup2\n      dup1\n      calldatasize\n      dup4\n      calldatacopy\n      add\n      swap1\n      pop\n    tag_234:\n      pop\n        /* \"@openzeppelin/contracts/utils/Strings.sol\":794:835  string memory buffer = new string(length) */\n      swap1\n      pop\n        /* \"@openzeppelin/contracts/utils/Strings.sol\":955:983  add(buffer, add(32, length)) */\n      dup2\n      dup2\n      add\n        /* \"@openzeppelin/contracts/utils/Strings.sol\":971:973  32 */\n      0x20\n        /* \"@openzeppelin/contracts/utils/Strings.sol\":955:983  add(buffer, add(32, length)) */\n      add\n        /* \"@openzeppelin/contracts/utils/Strings.sol\":1010:1292  while (true) {... */\n    tag_235:\n      not(0x00)\n        /* \"@openzeppelin/contracts/utils/Strings.sol\":1041:1046  ptr-- */\n      add\n      shl(0x81, 0x181899199a1a9b1b9c1cb0b131b232b3)\n        /* \"@openzeppelin/contracts/utils/Strings.sol\":1175:1177  10 */\n      0x0a\n        /* \"@openzeppelin/contracts/utils/Strings.sol\":1164:1178  mod(value, 10) */\n      dup7\n      mod\n        /* \"@openzeppelin/contracts/utils/Strings.sol\":1159:1191  byte(mod(value, 10), HEX_DIGITS) */\n      byte\n        /* \"@openzeppelin/contracts/utils/Strings.sol\":1041:1046  ptr-- */\n      dup2\n        /* \"@openzeppelin/contracts/utils/Strings.sol\":1146:1192  mstore8(ptr, byte(mod(value, 10), HEX_DIGITS)) */\n      mstore8\n        /* \"@openzeppelin/contracts/utils/Strings.sol\":1236:1238  10 */\n      0x0a\n        /* \"@openzeppelin/contracts/utils/Strings.sol\":1227:1238  value /= 10 */\n      dup6\n      div\n      swap5\n      pop\n        /* \"@openzeppelin/contracts/utils/Strings.sol\":1256:1277  if (value == 0) break */\n      dup5\n        /* \"@openzeppelin/contracts/utils/Strings.sol\":1010:1292  while (true) {... */\n      tag_235\n        /* \"@openzeppelin/contracts/utils/Strings.sol\":1256:1277  if (value == 0) break */\n      jumpi\n      pop\n        /* \"@openzeppelin/contracts/utils/Strings.sol\":1312:1318  buffer */\n      swap4\n        /* \"@openzeppelin/contracts/utils/Strings.sol\":637:1335  function toString(uint256 value) internal pure returns (string memory) {... */\n      swap3\n      pop\n      pop\n      pop\n      jump\t// out\n        /* \"@openzeppelin/contracts/token/ERC721/ERC721.sol\":9955:10282  function _mint(address to, uint256 tokenId) internal {... */\n    tag_170:\n      sub(shl(0xa0, 0x01), 0x01)\n        /* \"@openzeppelin/contracts/token/ERC721/ERC721.sol\":10022:10038  to == address(0) */\n      dup3\n      and\n        /* \"@openzeppelin/contracts/token/ERC721/ERC721.sol\":10018:10105  if (to == address(0)) {... */\n      tag_242\n      jumpi\n        /* \"@openzeppelin/contracts/token/ERC721/ERC721.sol\":10061:10094  ERC721InvalidReceiver(address(0)) */\n      mload(0x40)\n      shl(0xe1, 0x32505749)\n      dup2\n      mstore\n        /* \"@openzeppelin/contracts/token/ERC721/ERC721.sol\":10091:10092  0 */\n      0x00\n        /* \"@openzeppelin/contracts/token/ERC721/ERC721.sol\":10061:10094  ERC721InvalidReceiver(address(0)) */\n      0x04\n      dup3\n      add\n        /* \"#utility.yul\":1510:1561   */\n      mstore\n        /* \"#utility.yul\":1483:1501   */\n      0x24\n      add\n        /* \"@openzeppelin/contracts/token/ERC721/ERC721.sol\":10061:10094  ERC721InvalidReceiver(address(0)) */\n      tag_119\n        /* \"#utility.yul\":1364:1567   */\n      jump\n        /* \"@openzeppelin/contracts/token/ERC721/ERC721.sol\":10018:10105  if (to == address(0)) {... */\n    tag_242:\n        /* \"@openzeppelin/contracts/token/ERC721/ERC721.sol\":10114:10135  address previousOwner */\n      0x00\n        /* \"@openzeppelin/contracts/token/ERC721/ERC721.sol\":10138:10170  _update(to, tokenId, address(0)) */\n      tag_244\n        /* \"@openzeppelin/contracts/token/ERC721/ERC721.sol\":10146:10148  to */\n      dup4\n        /* \"@openzeppelin/contracts/token/ERC721/ERC721.sol\":10150:10157  tokenId */\n      dup4\n        /* \"@openzeppelin/contracts/token/ERC721/ERC721.sol\":10167:10168  0 */\n      0x00\n        /* \"@openzeppelin/contracts/token/ERC721/ERC721.sol\":10138:10145  _update */\n      tag_122\n        /* \"@openzeppelin/contracts/token/ERC721/ERC721.sol\":10138:10170  _update(to, tokenId, address(0)) */\n      jump\t// in\n    tag_244:\n        /* \"@openzeppelin/contracts/token/ERC721/ERC721.sol\":10114:10170  address previousOwner = _update(to, tokenId, address(0)) */\n      swap1\n      pop\n      sub(shl(0xa0, 0x01), 0x01)\n        /* \"@openzeppelin/contracts/token/ERC721/ERC721.sol\":10184:10211  previousOwner != address(0) */\n      dup2\n      and\n      iszero\n        /* \"@openzeppelin/contracts/token/ERC721/ERC721.sol\":10180:10276  if (previousOwner != address(0)) {... */\n      tag_127\n      jumpi\n        /* \"@openzeppelin/contracts/token/ERC721/ERC721.sol\":10234:10265  ERC721InvalidSender(address(0)) */\n      mload(0x40)\n      shl(0xe1, 0x39e35637)\n      dup2\n      mstore\n        /* \"@openzeppelin/contracts/token/ERC721/ERC721.sol\":10262:10263  0 */\n      0x00\n        /* \"@openzeppelin/contracts/token/ERC721/ERC721.sol\":10234:10265  ERC721InvalidSender(address(0)) */\n      0x04\n      dup3\n      add\n        /* \"#utility.yul\":1510:1561   */\n      mstore\n        /* \"#utility.yul\":1483:1501   */\n      0x24\n      add\n        /* \"@openzeppelin/contracts/token/ERC721/ERC721.sol\":10234:10265  ERC721InvalidSender(address(0)) */\n      tag_119\n        /* \"#utility.yul\":1364:1567   */\n      jump\n        /* \"@openzeppelin/contracts/token/ERC721/ERC721.sol\":14720:15382  function _approve(address to, uint256 tokenId, address auth, bool emitEvent) internal virtual {... */\n    tag_185:\n        /* \"@openzeppelin/contracts/token/ERC721/ERC721.sol\":14880:14889  emitEvent */\n      dup1\n        /* \"@openzeppelin/contracts/token/ERC721/ERC721.sol\":14880:14911  emitEvent || auth != address(0) */\n      dup1\n      tag_249\n      jumpi\n      pop\n      sub(shl(0xa0, 0x01), 0x01)\n        /* \"@openzeppelin/contracts/token/ERC721/ERC721.sol\":14893:14911  auth != address(0) */\n      dup3\n      and\n      iszero\n      iszero\n        /* \"@openzeppelin/contracts/token/ERC721/ERC721.sol\":14880:14911  emitEvent || auth != address(0) */\n    tag_249:\n        /* \"@openzeppelin/contracts/token/ERC721/ERC721.sol\":14876:15336  if (emitEvent || auth != address(0)) {... */\n      iszero\n      tag_250\n      jumpi\n        /* \"@openzeppelin/contracts/token/ERC721/ERC721.sol\":14927:14940  address owner */\n      0x00\n        /* \"@openzeppelin/contracts/token/ERC721/ERC721.sol\":14943:14965  _requireOwned(tokenId) */\n      tag_251\n        /* \"@openzeppelin/contracts/token/ERC721/ERC721.sol\":14957:14964  tokenId */\n      dup5\n        /* \"@openzeppelin/contracts/token/ERC721/ERC721.sol\":14943:14956  _requireOwned */\n      tag_108\n        /* \"@openzeppelin/contracts/token/ERC721/ERC721.sol\":14943:14965  _requireOwned(tokenId) */\n      jump\t// in\n    tag_251:\n        /* \"@openzeppelin/contracts/token/ERC721/ERC721.sol\":14927:14965  address owner = _requireOwned(tokenId) */\n      swap1\n      pop\n      sub(shl(0xa0, 0x01), 0x01)\n        /* \"@openzeppelin/contracts/token/ERC721/ERC721.sol\":15093:15111  auth != address(0) */\n      dup4\n      and\n      iszero\n      dup1\n      iszero\n      swap1\n        /* \"@openzeppelin/contracts/token/ERC721/ERC721.sol\":15093:15128  auth != address(0) && owner != auth */\n      tag_252\n      jumpi\n      pop\n        /* \"@openzeppelin/contracts/token/ERC721/ERC721.sol\":15124:15128  auth */\n      dup3\n      sub(shl(0xa0, 0x01), 0x01)\n        /* \"@openzeppelin/contracts/token/ERC721/ERC721.sol\":15115:15128  owner != auth */\n      and\n        /* \"@openzeppelin/contracts/token/ERC721/ERC721.sol\":15115:15120  owner */\n      dup2\n      sub(shl(0xa0, 0x01), 0x01)\n        /* \"@openzeppelin/contracts/token/ERC721/ERC721.sol\":15115:15128  owner != auth */\n      and\n      eq\n      iszero\n        /* \"@openzeppelin/contracts/token/ERC721/ERC721.sol\":15093:15128  auth != address(0) && owner != auth */\n    tag_252:\n        /* \"@openzeppelin/contracts/token/ERC721/ERC721.sol\":15093:15162  auth != address(0) && owner != auth && !isApprovedForAll(owner, auth) */\n      dup1\n      iszero\n      tag_253\n      jumpi\n      pop\n        /* \"@openzeppelin/contracts/token/ERC721/ERC721.sol\":15133:15162  isApprovedForAll(owner, auth) */\n      tag_254\n        /* \"@openzeppelin/contracts/token/ERC721/ERC721.sol\":15150:15155  owner */\n      dup2\n        /* \"@openzeppelin/contracts/token/ERC721/ERC721.sol\":15157:15161  auth */\n      dup5\n        /* \"@openzeppelin/contracts/token/ERC721/ERC721.sol\":15133:15149  isApprovedForAll */\n      tag_88\n        /* \"@openzeppelin/contracts/token/ERC721/ERC721.sol\":15133:15162  isApprovedForAll(owner, auth) */\n      jump\t// in\n    tag_254:\n        /* \"@openzeppelin/contracts/token/ERC721/ERC721.sol\":15132:15162  !isApprovedForAll(owner, auth) */\n      iszero\n        /* \"@openzeppelin/contracts/token/ERC721/ERC721.sol\":15093:15162  auth != address(0) && owner != auth && !isApprovedForAll(owner, auth) */\n    tag_253:\n        /* \"@openzeppelin/contracts/token/ERC721/ERC721.sol\":15089:15231  if (auth != address(0) && owner != auth && !isApprovedForAll(owner, auth)) {... */\n      iszero\n      tag_255\n      jumpi\n        /* \"@openzeppelin/contracts/token/ERC721/ERC721.sol\":15189:15216  ERC721InvalidApprover(auth) */\n      mload(0x40)\n      shl(0xe0, 0xa9fbf51f)\n      dup2\n      mstore\n      sub(shl(0xa0, 0x01), 0x01)\n        /* \"#utility.yul\":1528:1560   */\n      dup5\n      and\n        /* \"@openzeppelin/contracts/token/ERC721/ERC721.sol\":15189:15216  ERC721InvalidApprover(auth) */\n      0x04\n      dup3\n      add\n        /* \"#utility.yul\":1510:1561   */\n      mstore\n        /* \"#utility.yul\":1483:1501   */\n      0x24\n      add\n        /* \"@openzeppelin/contracts/token/ERC721/ERC721.sol\":15189:15216  ERC721InvalidApprover(auth) */\n      tag_119\n        /* \"#utility.yul\":1364:1567   */\n      jump\n        /* \"@openzeppelin/contracts/token/ERC721/ERC721.sol\":15089:15231  if (auth != address(0) && owner != auth && !isApprovedForAll(owner, auth)) {... */\n    tag_255:\n        /* \"@openzeppelin/contracts/token/ERC721/ERC721.sol\":15249:15258  emitEvent */\n      dup2\n        /* \"@openzeppelin/contracts/token/ERC721/ERC721.sol\":15245:15326  if (emitEvent) {... */\n      iszero\n      tag_257\n      jumpi\n        /* \"@openzeppelin/contracts/token/ERC721/ERC721.sol\":15303:15310  tokenId */\n      dup4\n        /* \"@openzeppelin/contracts/token/ERC721/ERC721.sol\":15299:15301  to */\n      dup6\n      sub(shl(0xa0, 0x01), 0x01)\n        /* \"@openzeppelin/contracts/token/ERC721/ERC721.sol\":15283:15311  Approval(owner, to, tokenId) */\n      and\n        /* \"@openzeppelin/contracts/token/ERC721/ERC721.sol\":15292:15297  owner */\n      dup3\n      sub(shl(0xa0, 0x01), 0x01)\n        /* \"@openzeppelin/contracts/token/ERC721/ERC721.sol\":15283:15311  Approval(owner, to, tokenId) */\n      and\n      0x8c5be1e5ebec7d5bd14f71427d1e84f3dd0314c0f7b2291e5b200ac8c7c3b925\n      mload(0x40)\n      mload(0x40)\n      dup1\n      swap2\n      sub\n      swap1\n      log4\n        /* \"@openzeppelin/contracts/token/ERC721/ERC721.sol\":15245:15326  if (emitEvent) {... */\n    tag_257:\n        /* \"@openzeppelin/contracts/token/ERC721/ERC721.sol\":14913:15336  {... */\n      pop\n        /* \"@openzeppelin/contracts/token/ERC721/ERC721.sol\":14876:15336  if (emitEvent || auth != address(0)) {... */\n    tag_250:\n      pop\n      pop\n        /* \"@openzeppelin/contracts/token/ERC721/ERC721.sol\":15346:15370  _tokenApprovals[tokenId] */\n      0x00\n      swap1\n      dup2\n      mstore\n        /* \"@openzeppelin/contracts/token/ERC721/ERC721.sol\":15346:15361  _tokenApprovals */\n      0x04\n        /* \"@openzeppelin/contracts/token/ERC721/ERC721.sol\":15346:15370  _tokenApprovals[tokenId] */\n      0x20\n      mstore\n      0x40\n      swap1\n      keccak256\n        /* \"@openzeppelin/contracts/token/ERC721/ERC721.sol\":15346:15375  _tokenApprovals[tokenId] = to */\n      dup1\n      sload\n      not(sub(shl(0xa0, 0x01), 0x01))\n      and\n      sub(shl(0xa0, 0x01), 0x01)\n      swap3\n      swap1\n      swap3\n      and\n      swap2\n      swap1\n      swap2\n      or\n      swap1\n      sstore\n        /* \"@openzeppelin/contracts/token/ERC721/ERC721.sol\":14720:15382  function _approve(address to, uint256 tokenId, address auth, bool emitEvent) internal virtual {... */\n      jump\t// out\n        /* \"@openzeppelin/contracts/token/ERC721/ERC721.sol\":7082:7450  function _checkAuthorized(address owner, address spender, uint256 tokenId) internal view virtual {... */\n    tag_190:\n        /* \"@openzeppelin/contracts/token/ERC721/ERC721.sol\":7194:7232  _isAuthorized(owner, spender, tokenId) */\n      tag_259\n        /* \"@openzeppelin/contracts/token/ERC721/ERC721.sol\":7208:7213  owner */\n      dup4\n        /* \"@openzeppelin/contracts/token/ERC721/ERC721.sol\":7215:7222  spender */\n      dup4\n        /* \"@openzeppelin/contracts/token/ERC721/ERC721.sol\":7224:7231  tokenId */\n      dup4\n        /* \"@openzeppelin/contracts/token/ERC721/ERC721.sol\":7194:7207  _isAuthorized */\n      tag_260\n        /* \"@openzeppelin/contracts/token/ERC721/ERC721.sol\":7194:7232  _isAuthorized(owner, spender, tokenId) */\n      jump\t// in\n    tag_259:\n        /* \"@openzeppelin/contracts/token/ERC721/ERC721.sol\":7189:7444  if (!_isAuthorized(owner, spender, tokenId)) {... */\n      tag_127\n      jumpi\n      sub(shl(0xa0, 0x01), 0x01)\n        /* \"@openzeppelin/contracts/token/ERC721/ERC721.sol\":7252:7271  owner == address(0) */\n      dup4\n      and\n        /* \"@openzeppelin/contracts/token/ERC721/ERC721.sol\":7248:7434  if (owner == address(0)) {... */\n      tag_262\n      jumpi\n        /* \"@openzeppelin/contracts/token/ERC721/ERC721.sol\":7298:7329  ERC721NonexistentToken(tokenId) */\n      mload(0x40)\n      shl(0xe0, 0x7e273289)\n      dup2\n      mstore\n      0x04\n      dup2\n      add\n        /* \"#utility.yul\":2201:2226   */\n      dup3\n      swap1\n      mstore\n        /* \"#utility.yul\":2174:2192   */\n      0x24\n      add\n        /* \"@openzeppelin/contracts/token/ERC721/ERC721.sol\":7298:7329  ERC721NonexistentToken(tokenId) */\n      tag_119\n        /* \"#utility.yul\":2055:2232   */\n      jump\n        /* \"@openzeppelin/contracts/token/ERC721/ERC721.sol\":7248:7434  if (owner == address(0)) {... */\n    tag_262:\n        /* \"@openzeppelin/contracts/token/ERC721/ERC721.sol\":7375:7419  ERC721InsufficientApproval(spender, tokenId) */\n      mload(0x40)\n      shl(0xe0, 0x177e802f)\n      dup2\n      mstore\n      sub(shl(0xa0, 0x01), 0x01)\n        /* \"#utility.yul\":10377:10409   */\n      dup4\n      and\n        /* \"@openzeppelin/contracts/token/ERC721/ERC721.sol\":7375:7419  ERC721InsufficientApproval(spender, tokenId) */\n      0x04\n      dup3\n      add\n        /* \"#utility.yul\":10359:10410   */\n      mstore\n        /* \"#utility.yul\":10426:10444   */\n      0x24\n      dup2\n      add\n        /* \"#utility.yul\":10419:10453   */\n      dup3\n      swap1\n      mstore\n        /* \"#utility.yul\":10332:10350   */\n      0x44\n      add\n        /* \"@openzeppelin/contracts/token/ERC721/ERC721.sol\":7375:7419  ERC721InsufficientApproval(spender, tokenId) */\n      tag_119\n        /* \"#utility.yul\":10185:10459   */\n      jump\n        /* \"@openzeppelin/contracts/utils/math/Math.sol\":12214:13130  function log10(uint256 value) internal pure returns (uint256) {... */\n    tag_230:\n        /* \"@openzeppelin/contracts/utils/math/Math.sol\":12267:12274  uint256 */\n      0x00\n      dup1\n      shl(0x40, 0x184f03e93ff9f4daa797ed6e38ed64bf6a1f01)\n        /* \"@openzeppelin/contracts/utils/math/Math.sol\":12342:12359  value >= 10 ** 64 */\n      dup4\n      lt\n        /* \"@openzeppelin/contracts/utils/math/Math.sol\":12338:12441  if (value >= 10 ** 64) {... */\n      tag_268\n      jumpi\n      shl(0x40, 0x184f03e93ff9f4daa797ed6e38ed64bf6a1f01)\n        /* \"@openzeppelin/contracts/utils/math/Math.sol\":12379:12396  value /= 10 ** 64 */\n      dup4\n      div\n      swap3\n      pop\n        /* \"@openzeppelin/contracts/utils/math/Math.sol\":12424:12426  64 */\n      0x40\n        /* \"@openzeppelin/contracts/utils/math/Math.sol\":12414:12426  result += 64 */\n      add\n        /* \"@openzeppelin/contracts/utils/math/Math.sol\":12338:12441  if (value >= 10 ** 64) {... */\n    tag_268:\n        /* \"@openzeppelin/contracts/utils/math/Math.sol\":12467:12475  10 ** 32 */\n      0x04ee2d6d415b85acef8100000000\n        /* \"@openzeppelin/contracts/utils/math/Math.sol\":12458:12463  value */\n      dup4\n        /* \"@openzeppelin/contracts/utils/math/Math.sol\":12458:12475  value >= 10 ** 32 */\n      lt\n        /* \"@openzeppelin/contracts/utils/math/Math.sol\":12454:12557  if (value >= 10 ** 32) {... */\n      tag_271\n      jumpi\n        /* \"@openzeppelin/contracts/utils/math/Math.sol\":12504:12512  10 ** 32 */\n      0x04ee2d6d415b85acef8100000000\n        /* \"@openzeppelin/contracts/utils/math/Math.sol\":12495:12512  value /= 10 ** 32 */\n      dup4\n      div\n      swap3\n      pop\n        /* \"@openzeppelin/contracts/utils/math/Math.sol\":12540:12542  32 */\n      0x20\n        /* \"@openzeppelin/contracts/utils/math/Math.sol\":12530:12542  result += 32 */\n      add\n        /* \"@openzeppelin/contracts/utils/math/Math.sol\":12454:12557  if (value >= 10 ** 32) {... */\n    tag_271:\n        /* \"@openzeppelin/contracts/utils/math/Math.sol\":12583:12591  10 ** 16 */\n      0x2386f26fc10000\n        /* \"@openzeppelin/contracts/utils/math/Math.sol\":12574:12579  value */\n      dup4\n        /* \"@openzeppelin/contracts/utils/math/Math.sol\":12574:12591  value >= 10 ** 16 */\n      lt\n        /* \"@openzeppelin/contracts/utils/math/Math.sol\":12570:12673  if (value >= 10 ** 16) {... */\n      tag_274\n      jumpi\n        /* \"@openzeppelin/contracts/utils/math/Math.sol\":12620:12628  10 ** 16 */\n      0x2386f26fc10000\n        /* \"@openzeppelin/contracts/utils/math/Math.sol\":12611:12628  value /= 10 ** 16 */\n      dup4\n      div\n      swap3\n      pop\n        /* \"@openzeppelin/contracts/utils/math/Math.sol\":12656:12658  16 */\n      0x10\n        /* \"@openzeppelin/contracts/utils/math/Math.sol\":12646:12658  result += 16 */\n      add\n        /* \"@openzeppelin/contracts/utils/math/Math.sol\":12570:12673  if (value >= 10 ** 16) {... */\n    tag_274:\n        /* \"@openzeppelin/contracts/utils/math/Math.sol\":12699:12706  10 ** 8 */\n      0x05f5e100\n        /* \"@openzeppelin/contracts/utils/math/Math.sol\":12690:12695  value */\n      dup4\n        /* \"@openzeppelin/contracts/utils/math/Math.sol\":12690:12706  value >= 10 ** 8 */\n      lt\n        /* \"@openzeppelin/contracts/utils/math/Math.sol\":12686:12786  if (value >= 10 ** 8) {... */\n      tag_277\n      jumpi\n        /* \"@openzeppelin/contracts/utils/math/Math.sol\":12735:12742  10 ** 8 */\n      0x05f5e100\n        /* \"@openzeppelin/contracts/utils/math/Math.sol\":12726:12742  value /= 10 ** 8 */\n      dup4\n      div\n      swap3\n      pop\n        /* \"@openzeppelin/contracts/utils/math/Math.sol\":12770:12771  8 */\n      0x08\n        /* \"@openzeppelin/contracts/utils/math/Math.sol\":12760:12771  result += 8 */\n      add\n        /* \"@openzeppelin/contracts/utils/math/Math.sol\":12686:12786  if (value >= 10 ** 8) {... */\n    tag_277:\n        /* \"@openzeppelin/contracts/utils/math/Math.sol\":12812:12819  10 ** 4 */\n      0x2710\n        /* \"@openzeppelin/contracts/utils/math/Math.sol\":12803:12808  value */\n      dup4\n        /* \"@openzeppelin/contracts/utils/math/Math.sol\":12803:12819  value >= 10 ** 4 */\n      lt\n        /* \"@openzeppelin/contracts/utils/math/Math.sol\":12799:12899  if (value >= 10 ** 4) {... */\n      tag_280\n      jumpi\n        /* \"@openzeppelin/contracts/utils/math/Math.sol\":12848:12855  10 ** 4 */\n      0x2710\n        /* \"@openzeppelin/contracts/utils/math/Math.sol\":12839:12855  value /= 10 ** 4 */\n      dup4\n      div\n      swap3\n      pop\n        /* \"@openzeppelin/contracts/utils/math/Math.sol\":12883:12884  4 */\n      0x04\n        /* \"@openzeppelin/contracts/utils/math/Math.sol\":12873:12884  result += 4 */\n      add\n        /* \"@openzeppelin/contracts/utils/math/Math.sol\":12799:12899  if (value >= 10 ** 4) {... */\n    tag_280:\n        /* \"@openzeppelin/contracts/utils/math/Math.sol\":12925:12932  10 ** 2 */\n      0x64\n        /* \"@openzeppelin/contracts/utils/math/Math.sol\":12916:12921  value */\n      dup4\n        /* \"@openzeppelin/contracts/utils/math/Math.sol\":12916:12932  value >= 10 ** 2 */\n      lt\n        /* \"@openzeppelin/contracts/utils/math/Math.sol\":12912:13012  if (value >= 10 ** 2) {... */\n      tag_283\n      jumpi\n        /* \"@openzeppelin/contracts/utils/math/Math.sol\":12961:12968  10 ** 2 */\n      0x64\n        /* \"@openzeppelin/contracts/utils/math/Math.sol\":12952:12968  value /= 10 ** 2 */\n      dup4\n      div\n      swap3\n      pop\n        /* \"@openzeppelin/contracts/utils/math/Math.sol\":12996:12997  2 */\n      0x02\n        /* \"@openzeppelin/contracts/utils/math/Math.sol\":12986:12997  result += 2 */\n      add\n        /* \"@openzeppelin/contracts/utils/math/Math.sol\":12912:13012  if (value >= 10 ** 2) {... */\n    tag_283:\n        /* \"@openzeppelin/contracts/utils/math/Math.sol\":13038:13045  10 ** 1 */\n      0x0a\n        /* \"@openzeppelin/contracts/utils/math/Math.sol\":13029:13034  value */\n      dup4\n        /* \"@openzeppelin/contracts/utils/math/Math.sol\":13029:13045  value >= 10 ** 1 */\n      lt\n        /* \"@openzeppelin/contracts/utils/math/Math.sol\":13025:13091  if (value >= 10 ** 1) {... */\n      tag_97\n      jumpi\n        /* \"@openzeppelin/contracts/utils/math/Math.sol\":13075:13076  1 */\n      0x01\n        /* \"@openzeppelin/contracts/utils/math/Math.sol\":13065:13076  result += 1 */\n      add\n        /* \"@openzeppelin/contracts/utils/math/Math.sol\":13117:13123  result */\n      swap3\n        /* \"@openzeppelin/contracts/utils/math/Math.sol\":12214:13130  function log10(uint256 value) internal pure returns (uint256) {... */\n      swap2\n      pop\n      pop\n      jump\t// out\n        /* \"@openzeppelin/contracts/token/ERC721/ERC721.sol\":6376:6648  function _isAuthorized(address owner, address spender, uint256 tokenId) internal view virtual returns (bool) {... */\n    tag_260:\n        /* \"@openzeppelin/contracts/token/ERC721/ERC721.sol\":6479:6483  bool */\n      0x00\n      sub(shl(0xa0, 0x01), 0x01)\n        /* \"@openzeppelin/contracts/token/ERC721/ERC721.sol\":6514:6535  spender != address(0) */\n      dup4\n      and\n      iszero\n      dup1\n      iszero\n      swap1\n        /* \"@openzeppelin/contracts/token/ERC721/ERC721.sol\":6514:6641  spender != address(0) &&... */\n      tag_291\n      jumpi\n      pop\n        /* \"@openzeppelin/contracts/token/ERC721/ERC721.sol\":6561:6568  spender */\n      dup3\n      sub(shl(0xa0, 0x01), 0x01)\n        /* \"@openzeppelin/contracts/token/ERC721/ERC721.sol\":6552:6568  owner == spender */\n      and\n        /* \"@openzeppelin/contracts/token/ERC721/ERC721.sol\":6552:6557  owner */\n      dup5\n      sub(shl(0xa0, 0x01), 0x01)\n        /* \"@openzeppelin/contracts/token/ERC721/ERC721.sol\":6552:6568  owner == spender */\n      and\n      eq\n        /* \"@openzeppelin/contracts/token/ERC721/ERC721.sol\":6552:6604  owner == spender || isApprovedForAll(owner, spender) */\n      dup1\n      tag_290\n      jumpi\n      pop\n        /* \"@openzeppelin/contracts/token/ERC721/ERC721.sol\":6572:6604  isApprovedForAll(owner, spender) */\n      tag_290\n        /* \"@openzeppelin/contracts/token/ERC721/ERC721.sol\":6589:6594  owner */\n      dup5\n        /* \"@openzeppelin/contracts/token/ERC721/ERC721.sol\":6596:6603  spender */\n      dup5\n        /* \"@openzeppelin/contracts/token/ERC721/ERC721.sol\":6572:6588  isApprovedForAll */\n      tag_88\n        /* \"@openzeppelin/contracts/token/ERC721/ERC721.sol\":6572:6604  isApprovedForAll(owner, spender) */\n      jump\t// in\n    tag_290:\n        /* \"@openzeppelin/contracts/token/ERC721/ERC721.sol\":6552:6640  owner == spender || isApprovedForAll(owner, spender) || _getApproved(tokenId) == spender */\n      dup1\n      tag_291\n      jumpi\n      pop\n        /* \"@openzeppelin/contracts/token/ERC721/ERC721.sol\":6008:6015  address */\n      0x00\n        /* \"@openzeppelin/contracts/token/ERC721/ERC721.sol\":6034:6058  _tokenApprovals[tokenId] */\n      dup3\n      dup2\n      mstore\n        /* \"@openzeppelin/contracts/token/ERC721/ERC721.sol\":6034:6049  _tokenApprovals */\n      0x04\n        /* \"@openzeppelin/contracts/token/ERC721/ERC721.sol\":6034:6058  _tokenApprovals[tokenId] */\n      0x20\n      mstore\n      0x40\n      swap1\n      keccak256\n      sload\n      sub(shl(0xa0, 0x01), 0x01)\n        /* \"@openzeppelin/contracts/token/ERC721/ERC721.sol\":6608:6640  _getApproved(tokenId) == spender */\n      dup5\n      dup2\n      and\n        /* \"@openzeppelin/contracts/token/ERC721/ERC721.sol\":6034:6058  _tokenApprovals[tokenId] */\n      swap2\n      and\n        /* \"@openzeppelin/contracts/token/ERC721/ERC721.sol\":6608:6640  _getApproved(tokenId) == spender */\n      eq\n        /* \"@openzeppelin/contracts/token/ERC721/ERC721.sol\":6552:6640  owner == spender || isApprovedForAll(owner, spender) || _getApproved(tokenId) == spender */\n    tag_291:\n        /* \"@openzeppelin/contracts/token/ERC721/ERC721.sol\":6495:6641  return... */\n      swap5\n        /* \"@openzeppelin/contracts/token/ERC721/ERC721.sol\":6376:6648  function _isAuthorized(address owner, address spender, uint256 tokenId) internal view virtual returns (bool) {... */\n      swap4\n      pop\n      pop\n      pop\n      pop\n      jump\t// out\n        /* \"#utility.yul\":14:145   */\n    tag_293:\n      not(sub(shl(0xe0, 0x01), 0x01))\n        /* \"#utility.yul\":88:120   */\n      dup2\n      and\n        /* \"#utility.yul\":78:121   */\n      dup2\n      eq\n        /* \"#utility.yul\":68:139   */\n      tag_304\n      jumpi\n        /* \"#utility.yul\":135:136   */\n      0x00\n        /* \"#utility.yul\":132:133   */\n      dup1\n        /* \"#utility.yul\":125:137   */\n      revert\n        /* \"#utility.yul\":68:139   */\n    tag_304:\n        /* \"#utility.yul\":14:145   */\n      pop\n      jump\t// out\n        /* \"#utility.yul\":150:395   */\n    tag_25:\n        /* \"#utility.yul\":208:214   */\n      0x00\n        /* \"#utility.yul\":261:263   */\n      0x20\n        /* \"#utility.yul\":249:258   */\n      dup3\n        /* \"#utility.yul\":240:247   */\n      dup5\n        /* \"#utility.yul\":236:259   */\n      sub\n        /* \"#utility.yul\":232:264   */\n      slt\n        /* \"#utility.yul\":229:281   */\n      iszero\n      tag_306\n      jumpi\n        /* \"#utility.yul\":277:278   */\n      0x00\n        /* \"#utility.yul\":274:275   */\n      dup1\n        /* \"#utility.yul\":267:279   */\n      revert\n        /* \"#utility.yul\":229:281   */\n    tag_306:\n        /* \"#utility.yul\":316:325   */\n      dup2\n        /* \"#utility.yul\":303:326   */\n      calldataload\n        /* \"#utility.yul\":335:365   */\n      tag_160\n        /* \"#utility.yul\":359:364   */\n      dup2\n        /* \"#utility.yul\":335:365   */\n      tag_293\n      jump\t// in\n        /* \"#utility.yul\":592:892   */\n    tag_294:\n        /* \"#utility.yul\":645:648   */\n      0x00\n        /* \"#utility.yul\":683:688   */\n      dup2\n        /* \"#utility.yul\":677:689   */\n      mload\n        /* \"#utility.yul\":710:716   */\n      dup1\n        /* \"#utility.yul\":705:708   */\n      dup5\n        /* \"#utility.yul\":698:717   */\n      mstore\n        /* \"#utility.yul\":766:772   */\n      dup1\n        /* \"#utility.yul\":759:763   */\n      0x20\n        /* \"#utility.yul\":752:757   */\n      dup5\n        /* \"#utility.yul\":748:764   */\n      add\n        /* \"#utility.yul\":741:745   */\n      0x20\n        /* \"#utility.yul\":736:739   */\n      dup7\n        /* \"#utility.yul\":732:746   */\n      add\n        /* \"#utility.yul\":726:773   */\n      mcopy\n        /* \"#utility.yul\":818:819   */\n      0x00\n        /* \"#utility.yul\":811:815   */\n      0x20\n        /* \"#utility.yul\":802:808   */\n      dup3\n        /* \"#utility.yul\":797:800   */\n      dup7\n        /* \"#utility.yul\":793:809   */\n      add\n        /* \"#utility.yul\":789:816   */\n      add\n        /* \"#utility.yul\":782:820   */\n      mstore\n        /* \"#utility.yul\":881:885   */\n      0x20\n        /* \"#utility.yul\":874:876   */\n      0x1f\n        /* \"#utility.yul\":870:877   */\n      not\n        /* \"#utility.yul\":865:867   */\n      0x1f\n        /* \"#utility.yul\":857:863   */\n      dup4\n        /* \"#utility.yul\":853:868   */\n      add\n        /* \"#utility.yul\":849:878   */\n      and\n        /* \"#utility.yul\":844:847   */\n      dup6\n        /* \"#utility.yul\":840:879   */\n      add\n        /* \"#utility.yul\":836:886   */\n      add\n        /* \"#utility.yul\":829:886   */\n      swap2\n      pop\n      pop\n        /* \"#utility.yul\":592:892   */\n      swap3\n      swap2\n      pop\n      pop\n      jump\t// out\n        /* \"#utility.yul\":897:1128   */\n    tag_32:\n        /* \"#utility.yul\":1046:1048   */\n      0x20\n        /* \"#utility.yul\":1035:1044   */\n      dup2\n        /* \"#utility.yul\":1028:1049   */\n      mstore\n        /* \"#utility.yul\":1009:1013   */\n      0x00\n        /* \"#utility.yul\":1066:1122   */\n      tag_160\n        /* \"#utility.yul\":1118:1120   */\n      0x20\n        /* \"#utility.yul\":1107:1116   */\n      dup4\n        /* \"#utility.yul\":1103:1121   */\n      add\n        /* \"#utility.yul\":1095:1101   */\n      dup5\n        /* \"#utility.yul\":1066:1122   */\n      tag_294\n      jump\t// in\n        /* \"#utility.yul\":1133:1359   */\n    tag_35:\n        /* \"#utility.yul\":1192:1198   */\n      0x00\n        /* \"#utility.yul\":1245:1247   */\n      0x20\n        /* \"#utility.yul\":1233:1242   */\n      dup3\n        /* \"#utility.yul\":1224:1231   */\n      dup5\n        /* \"#utility.yul\":1220:1243   */\n      sub\n        /* \"#utility.yul\":1216:1248   */\n      slt\n        /* \"#utility.yul\":1213:1265   */\n      iszero\n      tag_313\n      jumpi\n        /* \"#utility.yul\":1261:1262   */\n      0x00\n        /* \"#utility.yul\":1258:1259   */\n      dup1\n        /* \"#utility.yul\":1251:1263   */\n      revert\n        /* \"#utility.yul\":1213:1265   */\n    tag_313:\n      pop\n        /* \"#utility.yul\":1306:1329   */\n      calldataload\n      swap2\n        /* \"#utility.yul\":1133:1359   */\n      swap1\n      pop\n      jump\t// out\n        /* \"#utility.yul\":1572:1745   */\n    tag_295:\n        /* \"#utility.yul\":1640:1660   */\n      dup1\n      calldataload\n      sub(shl(0xa0, 0x01), 0x01)\n        /* \"#utility.yul\":1689:1720   */\n      dup2\n      and\n        /* \"#utility.yul\":1679:1721   */\n      dup2\n      eq\n        /* \"#utility.yul\":1669:1739   */\n      tag_316\n      jumpi\n        /* \"#utility.yul\":1735:1736   */\n      0x00\n        /* \"#utility.yul\":1732:1733   */\n      dup1\n        /* \"#utility.yul\":1725:1737   */\n      revert\n        /* \"#utility.yul\":1669:1739   */\n    tag_316:\n        /* \"#utility.yul\":1572:1745   */\n      swap2\n      swap1\n      pop\n      jump\t// out\n        /* \"#utility.yul\":1750:2050   */\n    tag_41:\n        /* \"#utility.yul\":1818:1824   */\n      0x00\n        /* \"#utility.yul\":1826:1832   */\n      dup1\n        /* \"#utility.yul\":1879:1881   */\n      0x40\n        /* \"#utility.yul\":1867:1876   */\n      dup4\n        /* \"#utility.yul\":1858:1865   */\n      dup6\n        /* \"#utility.yul\":1854:1877   */\n      sub\n        /* \"#utility.yul\":1850:1882   */\n      slt\n        /* \"#utility.yul\":1847:1899   */\n      iszero\n      tag_318\n      jumpi\n        /* \"#utility.yul\":1895:1896   */\n      0x00\n        /* \"#utility.yul\":1892:1893   */\n      dup1\n        /* \"#utility.yul\":1885:1897   */\n      revert\n        /* \"#utility.yul\":1847:1899   */\n    tag_318:\n        /* \"#utility.yul\":1918:1947   */\n      tag_319\n        /* \"#utility.yul\":1937:1946   */\n      dup4\n        /* \"#utility.yul\":1918:1947   */\n      tag_295\n      jump\t// in\n    tag_319:\n        /* \"#utility.yul\":1908:1947   */\n      swap5\n        /* \"#utility.yul\":2016:2018   */\n      0x20\n        /* \"#utility.yul\":2001:2019   */\n      swap4\n      swap1\n      swap4\n      add\n        /* \"#utility.yul\":1988:2020   */\n      calldataload\n      swap4\n      pop\n      pop\n      pop\n        /* \"#utility.yul\":1750:2050   */\n      jump\t// out\n        /* \"#utility.yul\":2237:2611   */\n    tag_49:\n        /* \"#utility.yul\":2314:2320   */\n      0x00\n        /* \"#utility.yul\":2322:2328   */\n      dup1\n        /* \"#utility.yul\":2330:2336   */\n      0x00\n        /* \"#utility.yul\":2383:2385   */\n      0x60\n        /* \"#utility.yul\":2371:2380   */\n      dup5\n        /* \"#utility.yul\":2362:2369   */\n      dup7\n        /* \"#utility.yul\":2358:2381   */\n      sub\n        /* \"#utility.yul\":2354:2386   */\n      slt\n        /* \"#utility.yul\":2351:2403   */\n      iszero\n      tag_322\n      jumpi\n        /* \"#utility.yul\":2399:2400   */\n      0x00\n        /* \"#utility.yul\":2396:2397   */\n      dup1\n        /* \"#utility.yul\":2389:2401   */\n      revert\n        /* \"#utility.yul\":2351:2403   */\n    tag_322:\n        /* \"#utility.yul\":2422:2451   */\n      tag_323\n        /* \"#utility.yul\":2441:2450   */\n      dup5\n        /* \"#utility.yul\":2422:2451   */\n      tag_295\n      jump\t// in\n    tag_323:\n        /* \"#utility.yul\":2412:2451   */\n      swap3\n      pop\n        /* \"#utility.yul\":2470:2508   */\n      tag_324\n        /* \"#utility.yul\":2504:2506   */\n      0x20\n        /* \"#utility.yul\":2493:2502   */\n      dup6\n        /* \"#utility.yul\":2489:2507   */\n      add\n        /* \"#utility.yul\":2470:2508   */\n      tag_295\n      jump\t// in\n    tag_324:\n        /* \"#utility.yul\":2237:2611   */\n      swap3\n      swap6\n        /* \"#utility.yul\":2460:2508   */\n      swap3\n      swap5\n      pop\n      pop\n      pop\n        /* \"#utility.yul\":2577:2579   */\n      0x40\n        /* \"#utility.yul\":2562:2580   */\n      swap2\n      swap1\n      swap2\n      add\n        /* \"#utility.yul\":2549:2581   */\n      calldataload\n      swap1\n        /* \"#utility.yul\":2237:2611   */\n      jump\t// out\n        /* \"#utility.yul\":2616:2802   */\n    tag_60:\n        /* \"#utility.yul\":2675:2681   */\n      0x00\n        /* \"#utility.yul\":2728:2730   */\n      0x20\n        /* \"#utility.yul\":2716:2725   */\n      dup3\n        /* \"#utility.yul\":2707:2714   */\n      dup5\n        /* \"#utility.yul\":2703:2726   */\n      sub\n        /* \"#utility.yul\":2699:2731   */\n      slt\n        /* \"#utility.yul\":2696:2748   */\n      iszero\n      tag_326\n      jumpi\n        /* \"#utility.yul\":2744:2745   */\n      0x00\n        /* \"#utility.yul\":2741:2742   */\n      dup1\n        /* \"#utility.yul\":2734:2746   */\n      revert\n        /* \"#utility.yul\":2696:2748   */\n    tag_326:\n        /* \"#utility.yul\":2767:2796   */\n      tag_160\n        /* \"#utility.yul\":2786:2795   */\n      dup3\n        /* \"#utility.yul\":2767:2796   */\n      tag_295\n      jump\t// in\n        /* \"#utility.yul\":2807:3154   */\n    tag_75:\n        /* \"#utility.yul\":2872:2878   */\n      0x00\n        /* \"#utility.yul\":2880:2886   */\n      dup1\n        /* \"#utility.yul\":2933:2935   */\n      0x40\n        /* \"#utility.yul\":2921:2930   */\n      dup4\n        /* \"#utility.yul\":2912:2919   */\n      dup6\n        /* \"#utility.yul\":2908:2931   */\n      sub\n        /* \"#utility.yul\":2904:2936   */\n      slt\n        /* \"#utility.yul\":2901:2953   */\n      iszero\n      tag_329\n      jumpi\n        /* \"#utility.yul\":2949:2950   */\n      0x00\n        /* \"#utility.yul\":2946:2947   */\n      dup1\n        /* \"#utility.yul\":2939:2951   */\n      revert\n        /* \"#utility.yul\":2901:2953   */\n    tag_329:\n        /* \"#utility.yul\":2972:3001   */\n      tag_330\n        /* \"#utility.yul\":2991:3000   */\n      dup4\n        /* \"#utility.yul\":2972:3001   */\n      tag_295\n      jump\t// in\n    tag_330:\n        /* \"#utility.yul\":2962:3001   */\n      swap2\n      pop\n        /* \"#utility.yul\":3051:3053   */\n      0x20\n        /* \"#utility.yul\":3040:3049   */\n      dup4\n        /* \"#utility.yul\":3036:3054   */\n      add\n        /* \"#utility.yul\":3023:3055   */\n      calldataload\n        /* \"#utility.yul\":3098:3103   */\n      dup1\n        /* \"#utility.yul\":3091:3104   */\n      iszero\n        /* \"#utility.yul\":3084:3105   */\n      iszero\n        /* \"#utility.yul\":3077:3082   */\n      dup2\n        /* \"#utility.yul\":3074:3106   */\n      eq\n        /* \"#utility.yul\":3064:3124   */\n      tag_331\n      jumpi\n        /* \"#utility.yul\":3120:3121   */\n      0x00\n        /* \"#utility.yul\":3117:3118   */\n      dup1\n        /* \"#utility.yul\":3110:3122   */\n      revert\n        /* \"#utility.yul\":3064:3124   */\n    tag_331:\n        /* \"#utility.yul\":3143:3148   */\n      dup1\n        /* \"#utility.yul\":3133:3148   */\n      swap2\n      pop\n      pop\n        /* \"#utility.yul\":2807:3154   */\n      swap3\n      pop\n      swap3\n      swap1\n      pop\n      jump\t// out\n        /* \"#utility.yul\":3159:3286   */\n    tag_233:\n        /* \"#utility.yul\":3220:3230   */\n      0x4e487b71\n        /* \"#utility.yul\":3215:3218   */\n      0xe0\n        /* \"#utility.yul\":3211:3231   */\n      shl\n        /* \"#utility.yul\":3208:3209   */\n      0x00\n        /* \"#utility.yul\":3201:3232   */\n      mstore\n        /* \"#utility.yul\":3251:3255   */\n      0x41\n        /* \"#utility.yul\":3248:3249   */\n      0x04\n        /* \"#utility.yul\":3241:3256   */\n      mstore\n        /* \"#utility.yul\":3275:3279   */\n      0x24\n        /* \"#utility.yul\":3272:3273   */\n      0x00\n        /* \"#utility.yul\":3265:3280   */\n      revert\n        /* \"#utility.yul\":3291:4006   */\n    tag_296:\n        /* \"#utility.yul\":3355:3360   */\n      0x00\n        /* \"#utility.yul\":3387:3388   */\n      dup1\n        /* \"#utility.yul\":3411:3429   */\n      0xffffffffffffffff\n        /* \"#utility.yul\":3403:3409   */\n      dup5\n        /* \"#utility.yul\":3400:3430   */\n      gt\n        /* \"#utility.yul\":3397:3453   */\n      iszero\n      tag_335\n      jumpi\n        /* \"#utility.yul\":3433:3451   */\n      tag_335\n      tag_233\n      jump\t// in\n    tag_335:\n      pop\n        /* \"#utility.yul\":3588:3590   */\n      0x40\n        /* \"#utility.yul\":3582:3591   */\n      mload\n      not(0x1f)\n        /* \"#utility.yul\":3501:3503   */\n      0x1f\n        /* \"#utility.yul\":3480:3495   */\n      dup6\n      add\n        /* \"#utility.yul\":3476:3505   */\n      dup2\n      and\n        /* \"#utility.yul\":3646:3648   */\n      0x3f\n        /* \"#utility.yul\":3634:3649   */\n      add\n        /* \"#utility.yul\":3630:3659   */\n      and\n        /* \"#utility.yul\":3618:3660   */\n      dup2\n      add\n        /* \"#utility.yul\":3711:3733   */\n      dup2\n      dup2\n      lt\n        /* \"#utility.yul\":3690:3708   */\n      0xffffffffffffffff\n        /* \"#utility.yul\":3675:3709   */\n      dup3\n      gt\n        /* \"#utility.yul\":3672:3734   */\n      or\n        /* \"#utility.yul\":3669:3757   */\n      iszero\n      tag_337\n      jumpi\n        /* \"#utility.yul\":3737:3755   */\n      tag_337\n      tag_233\n      jump\t// in\n    tag_337:\n        /* \"#utility.yul\":3773:3775   */\n      0x40\n        /* \"#utility.yul\":3766:3788   */\n      mstore\n        /* \"#utility.yul\":3821:3843   */\n      dup4\n      dup2\n      mstore\n        /* \"#utility.yul\":3806:3812   */\n      swap1\n      pop\n      dup1\n        /* \"#utility.yul\":3858:3874   */\n      dup3\n      dup5\n      add\n        /* \"#utility.yul\":3855:3880   */\n      dup6\n      lt\n        /* \"#utility.yul\":3852:3897   */\n      iszero\n      tag_338\n      jumpi\n        /* \"#utility.yul\":3893:3894   */\n      0x00\n        /* \"#utility.yul\":3890:3891   */\n      dup1\n        /* \"#utility.yul\":3883:3895   */\n      revert\n        /* \"#utility.yul\":3852:3897   */\n    tag_338:\n        /* \"#utility.yul\":3943:3949   */\n      dup4\n        /* \"#utility.yul\":3938:3941   */\n      dup4\n        /* \"#utility.yul\":3931:3935   */\n      0x20\n        /* \"#utility.yul\":3923:3929   */\n      dup4\n        /* \"#utility.yul\":3919:3936   */\n      add\n        /* \"#utility.yul\":3906:3950   */\n      calldatacopy\n        /* \"#utility.yul\":3998:3999   */\n      0x00\n        /* \"#utility.yul\":3991:3995   */\n      0x20\n        /* \"#utility.yul\":3982:3988   */\n      dup6\n        /* \"#utility.yul\":3974:3980   */\n      dup4\n        /* \"#utility.yul\":3970:3989   */\n      add\n        /* \"#utility.yul\":3966:3996   */\n      add\n        /* \"#utility.yul\":3959:4000   */\n      mstore\n      pop\n        /* \"#utility.yul\":3291:4006   */\n      swap4\n      swap3\n      pop\n      pop\n      pop\n      jump\t// out\n        /* \"#utility.yul\":4011:4723   */\n    tag_79:\n        /* \"#utility.yul\":4106:4112   */\n      0x00\n        /* \"#utility.yul\":4114:4120   */\n      dup1\n        /* \"#utility.yul\":4122:4128   */\n      0x00\n        /* \"#utility.yul\":4130:4136   */\n      dup1\n        /* \"#utility.yul\":4183:4186   */\n      0x80\n        /* \"#utility.yul\":4171:4180   */\n      dup6\n        /* \"#utility.yul\":4162:4169   */\n      dup8\n        /* \"#utility.yul\":4158:4181   */\n      sub\n        /* \"#utility.yul\":4154:4187   */\n      slt\n        /* \"#utility.yul\":4151:4204   */\n      iszero\n      tag_340\n      jumpi\n        /* \"#utility.yul\":4200:4201   */\n      0x00\n        /* \"#utility.yul\":4197:4198   */\n      dup1\n        /* \"#utility.yul\":4190:4202   */\n      revert\n        /* \"#utility.yul\":4151:4204   */\n    tag_340:\n        /* \"#utility.yul\":4223:4252   */\n      tag_341\n        /* \"#utility.yul\":4242:4251   */\n      dup6\n        /* \"#utility.yul\":4223:4252   */\n      tag_295\n      jump\t// in\n    tag_341:\n        /* \"#utility.yul\":4213:4252   */\n      swap4\n      pop\n        /* \"#utility.yul\":4271:4309   */\n      tag_342\n        /* \"#utility.yul\":4305:4307   */\n      0x20\n        /* \"#utility.yul\":4294:4303   */\n      dup7\n        /* \"#utility.yul\":4290:4308   */\n      add\n        /* \"#utility.yul\":4271:4309   */\n      tag_295\n      jump\t// in\n    tag_342:\n        /* \"#utility.yul\":4261:4309   */\n      swap3\n      pop\n        /* \"#utility.yul\":4378:4380   */\n      0x40\n        /* \"#utility.yul\":4363:4381   */\n      dup6\n      add\n        /* \"#utility.yul\":4350:4382   */\n      calldataload\n      swap2\n      pop\n        /* \"#utility.yul\":4457:4459   */\n      0x60\n        /* \"#utility.yul\":4442:4460   */\n      dup6\n      add\n        /* \"#utility.yul\":4429:4461   */\n      calldataload\n        /* \"#utility.yul\":4484:4502   */\n      0xffffffffffffffff\n        /* \"#utility.yul\":4473:4503   */\n      dup2\n      gt\n        /* \"#utility.yul\":4470:4520   */\n      iszero\n      tag_343\n      jumpi\n        /* \"#utility.yul\":4516:4517   */\n      0x00\n        /* \"#utility.yul\":4513:4514   */\n      dup1\n        /* \"#utility.yul\":4506:4518   */\n      revert\n        /* \"#utility.yul\":4470:4520   */\n    tag_343:\n        /* \"#utility.yul\":4539:4561   */\n      dup6\n      add\n        /* \"#utility.yul\":4592:4596   */\n      0x1f\n        /* \"#utility.yul\":4584:4597   */\n      dup2\n      add\n        /* \"#utility.yul\":4580:4607   */\n      dup8\n      sgt\n        /* \"#utility.yul\":4570:4625   */\n      tag_344\n      jumpi\n        /* \"#utility.yul\":4621:4622   */\n      0x00\n        /* \"#utility.yul\":4618:4619   */\n      dup1\n        /* \"#utility.yul\":4611:4623   */\n      revert\n        /* \"#utility.yul\":4570:4625   */\n    tag_344:\n        /* \"#utility.yul\":4644:4717   */\n      tag_345\n        /* \"#utility.yul\":4709:4716   */\n      dup8\n        /* \"#utility.yul\":4704:4706   */\n      dup3\n        /* \"#utility.yul\":4691:4707   */\n      calldataload\n        /* \"#utility.yul\":4686:4688   */\n      0x20\n        /* \"#utility.yul\":4682:4684   */\n      dup5\n        /* \"#utility.yul\":4678:4689   */\n      add\n        /* \"#utility.yul\":4644:4717   */\n      tag_296\n      jump\t// in\n    tag_345:\n        /* \"#utility.yul\":4634:4717   */\n      swap2\n      pop\n      pop\n        /* \"#utility.yul\":4011:4723   */\n      swap3\n      swap6\n      swap2\n      swap5\n      pop\n      swap3\n      pop\n      jump\t// out\n        /* \"#utility.yul\":4728:4988   */\n    tag_87:\n        /* \"#utility.yul\":4796:4802   */\n      0x00\n        /* \"#utility.yul\":4804:4810   */\n      dup1\n        /* \"#utility.yul\":4857:4859   */\n      0x40\n        /* \"#utility.yul\":4845:4854   */\n      dup4\n        /* \"#utility.yul\":4836:4843   */\n      dup6\n        /* \"#utility.yul\":4832:4855   */\n      sub\n        /* \"#utility.yul\":4828:4860   */\n      slt\n        /* \"#utility.yul\":4825:4877   */\n      iszero\n      tag_347\n      jumpi\n        /* \"#utility.yul\":4873:4874   */\n      0x00\n        /* \"#utility.yul\":4870:4871   */\n      dup1\n        /* \"#utility.yul\":4863:4875   */\n      revert\n        /* \"#utility.yul\":4825:4877   */\n    tag_347:\n        /* \"#utility.yul\":4896:4925   */\n      tag_348\n        /* \"#utility.yul\":4915:4924   */\n      dup4\n        /* \"#utility.yul\":4896:4925   */\n      tag_295\n      jump\t// in\n    tag_348:\n        /* \"#utility.yul\":4886:4925   */\n      swap2\n      pop\n        /* \"#utility.yul\":4944:4982   */\n      tag_349\n        /* \"#utility.yul\":4978:4980   */\n      0x20\n        /* \"#utility.yul\":4967:4976   */\n      dup5\n        /* \"#utility.yul\":4963:4981   */\n      add\n        /* \"#utility.yul\":4944:4982   */\n      tag_295\n      jump\t// in\n    tag_349:\n        /* \"#utility.yul\":4934:4982   */\n      swap1\n      pop\n        /* \"#utility.yul\":4728:4988   */\n      swap3\n      pop\n      swap3\n      swap1\n      pop\n      jump\t// out\n        /* \"#utility.yul\":4993:5517   */\n    tag_92:\n        /* \"#utility.yul\":5071:5077   */\n      0x00\n        /* \"#utility.yul\":5079:5085   */\n      dup1\n        /* \"#utility.yul\":5132:5134   */\n      0x40\n        /* \"#utility.yul\":5120:5129   */\n      dup4\n        /* \"#utility.yul\":5111:5118   */\n      dup6\n        /* \"#utility.yul\":5107:5130   */\n      sub\n        /* \"#utility.yul\":5103:5135   */\n      slt\n        /* \"#utility.yul\":5100:5152   */\n      iszero\n      tag_351\n      jumpi\n        /* \"#utility.yul\":5148:5149   */\n      0x00\n        /* \"#utility.yul\":5145:5146   */\n      dup1\n        /* \"#utility.yul\":5138:5150   */\n      revert\n        /* \"#utility.yul\":5100:5152   */\n    tag_351:\n        /* \"#utility.yul\":5171:5200   */\n      tag_352\n        /* \"#utility.yul\":5190:5199   */\n      dup4\n        /* \"#utility.yul\":5171:5200   */\n      tag_295\n      jump\t// in\n    tag_352:\n        /* \"#utility.yul\":5161:5200   */\n      swap2\n      pop\n        /* \"#utility.yul\":5251:5253   */\n      0x20\n        /* \"#utility.yul\":5240:5249   */\n      dup4\n        /* \"#utility.yul\":5236:5254   */\n      add\n        /* \"#utility.yul\":5223:5255   */\n      calldataload\n        /* \"#utility.yul\":5278:5296   */\n      0xffffffffffffffff\n        /* \"#utility.yul\":5270:5276   */\n      dup2\n        /* \"#utility.yul\":5267:5297   */\n      gt\n        /* \"#utility.yul\":5264:5314   */\n      iszero\n      tag_353\n      jumpi\n        /* \"#utility.yul\":5310:5311   */\n      0x00\n        /* \"#utility.yul\":5307:5308   */\n      dup1\n        /* \"#utility.yul\":5300:5312   */\n      revert\n        /* \"#utility.yul\":5264:5314   */\n    tag_353:\n        /* \"#utility.yul\":5333:5355   */\n      dup4\n      add\n        /* \"#utility.yul\":5386:5390   */\n      0x1f\n        /* \"#utility.yul\":5378:5391   */\n      dup2\n      add\n        /* \"#utility.yul\":5374:5401   */\n      dup6\n      sgt\n        /* \"#utility.yul\":5364:5419   */\n      tag_354\n      jumpi\n        /* \"#utility.yul\":5415:5416   */\n      0x00\n        /* \"#utility.yul\":5412:5413   */\n      dup1\n        /* \"#utility.yul\":5405:5417   */\n      revert\n        /* \"#utility.yul\":5364:5419   */\n    tag_354:\n        /* \"#utility.yul\":5438:5511   */\n      tag_355\n        /* \"#utility.yul\":5503:5510   */\n      dup6\n        /* \"#utility.yul\":5498:5500   */\n      dup3\n        /* \"#utility.yul\":5485:5501   */\n      calldataload\n        /* \"#utility.yul\":5480:5482   */\n      0x20\n        /* \"#utility.yul\":5476:5478   */\n      dup5\n        /* \"#utility.yul\":5472:5483   */\n      add\n        /* \"#utility.yul\":5438:5511   */\n      tag_296\n      jump\t// in\n    tag_355:\n        /* \"#utility.yul\":5428:5511   */\n      swap2\n      pop\n      pop\n        /* \"#utility.yul\":4993:5517   */\n      swap3\n      pop\n      swap3\n      swap1\n      pop\n      jump\t// out\n        /* \"#utility.yul\":5522:5902   */\n    tag_101:\n        /* \"#utility.yul\":5601:5602   */\n      0x01\n        /* \"#utility.yul\":5597:5609   */\n      dup2\n      dup2\n      shr\n      swap1\n        /* \"#utility.yul\":5644:5656   */\n      dup3\n      and\n      dup1\n        /* \"#utility.yul\":5665:5726   */\n      tag_357\n      jumpi\n        /* \"#utility.yul\":5719:5723   */\n      0x7f\n        /* \"#utility.yul\":5711:5717   */\n      dup3\n        /* \"#utility.yul\":5707:5724   */\n      and\n        /* \"#utility.yul\":5697:5724   */\n      swap2\n      pop\n        /* \"#utility.yul\":5665:5726   */\n    tag_357:\n        /* \"#utility.yul\":5772:5774   */\n      0x20\n        /* \"#utility.yul\":5764:5770   */\n      dup3\n        /* \"#utility.yul\":5761:5775   */\n      lt\n        /* \"#utility.yul\":5741:5759   */\n      dup2\n        /* \"#utility.yul\":5738:5776   */\n      sub\n        /* \"#utility.yul\":5735:5896   */\n      tag_358\n      jumpi\n        /* \"#utility.yul\":5818:5828   */\n      0x4e487b71\n        /* \"#utility.yul\":5813:5816   */\n      0xe0\n        /* \"#utility.yul\":5809:5829   */\n      shl\n        /* \"#utility.yul\":5806:5807   */\n      0x00\n        /* \"#utility.yul\":5799:5830   */\n      mstore\n        /* \"#utility.yul\":5853:5857   */\n      0x22\n        /* \"#utility.yul\":5850:5851   */\n      0x04\n        /* \"#utility.yul\":5843:5858   */\n      mstore\n        /* \"#utility.yul\":5881:5885   */\n      0x24\n        /* \"#utility.yul\":5878:5879   */\n      0x00\n        /* \"#utility.yul\":5871:5886   */\n      revert\n        /* \"#utility.yul\":5735:5896   */\n    tag_358:\n      pop\n        /* \"#utility.yul\":5522:5902   */\n      swap2\n      swap1\n      pop\n      jump\t// out\n        /* \"#utility.yul\":6283:6495   */\n    tag_297:\n        /* \"#utility.yul\":6325:6328   */\n      0x00\n        /* \"#utility.yul\":6363:6368   */\n      dup2\n        /* \"#utility.yul\":6357:6369   */\n      mload\n        /* \"#utility.yul\":6407:6413   */\n      dup1\n        /* \"#utility.yul\":6400:6404   */\n      0x20\n        /* \"#utility.yul\":6393:6398   */\n      dup5\n        /* \"#utility.yul\":6389:6405   */\n      add\n        /* \"#utility.yul\":6384:6387   */\n      dup6\n        /* \"#utility.yul\":6378:6414   */\n      mcopy\n        /* \"#utility.yul\":6469:6470   */\n      0x00\n        /* \"#utility.yul\":6433:6449   */\n      swap4\n      add\n        /* \"#utility.yul\":6458:6471   */\n      swap3\n      dup4\n      mstore\n      pop\n        /* \"#utility.yul\":6433:6449   */\n      swap1\n      swap2\n        /* \"#utility.yul\":6283:6495   */\n      swap1\n      pop\n      jump\t// out\n        /* \"#utility.yul\":6500:6767   */\n    tag_164:\n        /* \"#utility.yul\":6679:6682   */\n      0x00\n        /* \"#utility.yul\":6704:6761   */\n      tag_291\n        /* \"#utility.yul\":6730:6760   */\n      tag_363\n        /* \"#utility.yul\":6756:6759   */\n      dup4\n        /* \"#utility.yul\":6748:6754   */\n      dup7\n        /* \"#utility.yul\":6730:6760   */\n      tag_297\n      jump\t// in\n    tag_363:\n        /* \"#utility.yul\":6722:6728   */\n      dup5\n        /* \"#utility.yul\":6704:6761   */\n      tag_297\n      jump\t// in\n        /* \"#utility.yul\":6772:6899   */\n    tag_298:\n        /* \"#utility.yul\":6833:6843   */\n      0x4e487b71\n        /* \"#utility.yul\":6828:6831   */\n      0xe0\n        /* \"#utility.yul\":6824:6844   */\n      shl\n        /* \"#utility.yul\":6821:6822   */\n      0x00\n        /* \"#utility.yul\":6814:6845   */\n      mstore\n        /* \"#utility.yul\":6864:6868   */\n      0x11\n        /* \"#utility.yul\":6861:6862   */\n      0x04\n        /* \"#utility.yul\":6854:6869   */\n      mstore\n        /* \"#utility.yul\":6888:6892   */\n      0x24\n        /* \"#utility.yul\":6885:6886   */\n      0x00\n        /* \"#utility.yul\":6878:6893   */\n      revert\n        /* \"#utility.yul\":6904:7029   */\n    tag_168:\n        /* \"#utility.yul\":6969:6978   */\n      dup1\n      dup3\n      add\n        /* \"#utility.yul\":6990:7000   */\n      dup1\n      dup3\n      gt\n        /* \"#utility.yul\":6987:7023   */\n      iszero\n      tag_97\n      jumpi\n        /* \"#utility.yul\":7003:7021   */\n      tag_97\n      tag_298\n      jump\t// in\n        /* \"#utility.yul\":7160:7678   */\n    tag_300:\n        /* \"#utility.yul\":7262:7264   */\n      0x1f\n        /* \"#utility.yul\":7257:7260   */\n      dup3\n        /* \"#utility.yul\":7254:7265   */\n      gt\n        /* \"#utility.yul\":7251:7672   */\n      iszero\n      tag_127\n      jumpi\n        /* \"#utility.yul\":7298:7303   */\n      dup1\n        /* \"#utility.yul\":7295:7296   */\n      0x00\n        /* \"#utility.yul\":7288:7304   */\n      mstore\n        /* \"#utility.yul\":7342:7346   */\n      0x20\n        /* \"#utility.yul\":7339:7340   */\n      0x00\n        /* \"#utility.yul\":7329:7347   */\n      keccak256\n        /* \"#utility.yul\":7412:7414   */\n      0x1f\n        /* \"#utility.yul\":7400:7410   */\n      dup5\n        /* \"#utility.yul\":7396:7415   */\n      add\n        /* \"#utility.yul\":7393:7394   */\n      0x05\n        /* \"#utility.yul\":7389:7416   */\n      shr\n        /* \"#utility.yul\":7383:7387   */\n      dup2\n        /* \"#utility.yul\":7379:7417   */\n      add\n        /* \"#utility.yul\":7448:7452   */\n      0x20\n        /* \"#utility.yul\":7436:7446   */\n      dup6\n        /* \"#utility.yul\":7433:7453   */\n      lt\n        /* \"#utility.yul\":7430:7477   */\n      iszero\n      tag_371\n      jumpi\n      pop\n        /* \"#utility.yul\":7471:7475   */\n      dup1\n        /* \"#utility.yul\":7430:7477   */\n    tag_371:\n        /* \"#utility.yul\":7526:7528   */\n      0x1f\n        /* \"#utility.yul\":7521:7524   */\n      dup5\n        /* \"#utility.yul\":7517:7529   */\n      add\n        /* \"#utility.yul\":7514:7515   */\n      0x05\n        /* \"#utility.yul\":7510:7530   */\n      shr\n        /* \"#utility.yul\":7504:7508   */\n      dup3\n        /* \"#utility.yul\":7500:7531   */\n      add\n        /* \"#utility.yul\":7490:7531   */\n      swap2\n      pop\n        /* \"#utility.yul\":7581:7662   */\n    tag_372:\n        /* \"#utility.yul\":7599:7601   */\n      dup2\n        /* \"#utility.yul\":7592:7597   */\n      dup2\n        /* \"#utility.yul\":7589:7602   */\n      lt\n        /* \"#utility.yul\":7581:7662   */\n      iszero\n      tag_225\n      jumpi\n        /* \"#utility.yul\":7658:7659   */\n      0x00\n        /* \"#utility.yul\":7644:7660   */\n      dup2\n      sstore\n        /* \"#utility.yul\":7625:7626   */\n      0x01\n        /* \"#utility.yul\":7614:7627   */\n      add\n        /* \"#utility.yul\":7581:7662   */\n      jump(tag_372)\n        /* \"#utility.yul\":7854:9153   */\n    tag_172:\n        /* \"#utility.yul\":7980:7983   */\n      dup2\n        /* \"#utility.yul\":7974:7984   */\n      mload\n        /* \"#utility.yul\":8007:8025   */\n      0xffffffffffffffff\n        /* \"#utility.yul\":7999:8005   */\n      dup2\n        /* \"#utility.yul\":7996:8026   */\n      gt\n        /* \"#utility.yul\":7993:8049   */\n      iszero\n      tag_378\n      jumpi\n        /* \"#utility.yul\":8029:8047   */\n      tag_378\n      tag_233\n      jump\t// in\n    tag_378:\n        /* \"#utility.yul\":8058:8155   */\n      tag_379\n        /* \"#utility.yul\":8148:8154   */\n      dup2\n        /* \"#utility.yul\":8108:8146   */\n      tag_380\n        /* \"#utility.yul\":8140:8144   */\n      dup5\n        /* \"#utility.yul\":8134:8145   */\n      sload\n        /* \"#utility.yul\":8108:8146   */\n      tag_101\n      jump\t// in\n    tag_380:\n        /* \"#utility.yul\":8102:8106   */\n      dup5\n        /* \"#utility.yul\":8058:8155   */\n      tag_300\n      jump\t// in\n    tag_379:\n        /* \"#utility.yul\":8204:8208   */\n      0x20\n        /* \"#utility.yul\":8235:8237   */\n      0x1f\n        /* \"#utility.yul\":8224:8238   */\n      dup3\n      gt\n        /* \"#utility.yul\":8252:8253   */\n      0x01\n        /* \"#utility.yul\":8247:8896   */\n      dup2\n      eq\n      tag_382\n      jumpi\n        /* \"#utility.yul\":8940:8941   */\n      0x00\n        /* \"#utility.yul\":8957:8963   */\n      dup4\n        /* \"#utility.yul\":8954:9043   */\n      iszero\n      tag_383\n      jumpi\n      pop\n        /* \"#utility.yul\":9009:9028   */\n      dup5\n      dup3\n      add\n        /* \"#utility.yul\":9003:9029   */\n      mload\n        /* \"#utility.yul\":8954:9043   */\n    tag_383:\n      not(0x00)\n        /* \"#utility.yul\":7811:7812   */\n      0x03\n        /* \"#utility.yul\":7807:7818   */\n      dup6\n      swap1\n      shl\n        /* \"#utility.yul\":7803:7827   */\n      shr\n        /* \"#utility.yul\":7799:7828   */\n      not\n        /* \"#utility.yul\":7789:7829   */\n      and\n        /* \"#utility.yul\":7835:7836   */\n      0x01\n        /* \"#utility.yul\":7831:7842   */\n      dup5\n      swap1\n      shl\n        /* \"#utility.yul\":7786:7843   */\n      or\n        /* \"#utility.yul\":9056:9137   */\n      dup5\n      sstore\n        /* \"#utility.yul\":8217:9147   */\n      jump(tag_225)\n        /* \"#utility.yul\":8247:8896   */\n    tag_382:\n        /* \"#utility.yul\":7107:7108   */\n      0x00\n        /* \"#utility.yul\":7100:7114   */\n      dup5\n      dup2\n      mstore\n        /* \"#utility.yul\":7144:7148   */\n      0x20\n        /* \"#utility.yul\":7131:7149   */\n      dup2\n      keccak256\n      not(0x1f)\n        /* \"#utility.yul\":8283:8303   */\n      dup6\n      and\n      swap2\n        /* \"#utility.yul\":8401:8623   */\n    tag_386:\n        /* \"#utility.yul\":8415:8422   */\n      dup3\n        /* \"#utility.yul\":8412:8413   */\n      dup2\n        /* \"#utility.yul\":8409:8423   */\n      lt\n        /* \"#utility.yul\":8401:8623   */\n      iszero\n      tag_388\n      jumpi\n        /* \"#utility.yul\":8497:8516   */\n      dup8\n      dup6\n      add\n        /* \"#utility.yul\":8491:8517   */\n      mload\n        /* \"#utility.yul\":8476:8518   */\n      dup3\n      sstore\n        /* \"#utility.yul\":8604:8608   */\n      0x20\n        /* \"#utility.yul\":8589:8609   */\n      swap5\n      dup6\n      add\n      swap5\n        /* \"#utility.yul\":8557:8558   */\n      0x01\n        /* \"#utility.yul\":8545:8559   */\n      swap1\n      swap3\n      add\n      swap2\n        /* \"#utility.yul\":8431:8443   */\n      add\n        /* \"#utility.yul\":8401:8623   */\n      jump(tag_386)\n    tag_388:\n        /* \"#utility.yul\":8405:8408   */\n      pop\n        /* \"#utility.yul\":8651:8657   */\n      dup5\n        /* \"#utility.yul\":8642:8649   */\n      dup3\n        /* \"#utility.yul\":8639:8658   */\n      lt\n        /* \"#utility.yul\":8636:8837   */\n      iszero\n      tag_389\n      jumpi\n        /* \"#utility.yul\":8712:8731   */\n      dup7\n      dup5\n      add\n        /* \"#utility.yul\":8706:8732   */\n      mload\n      not(0x00)\n        /* \"#utility.yul\":8795:8796   */\n      0x03\n        /* \"#utility.yul\":8791:8805   */\n      dup8\n      swap1\n      shl\n        /* \"#utility.yul\":8807:8810   */\n      0xf8\n        /* \"#utility.yul\":8787:8811   */\n      and\n        /* \"#utility.yul\":8783:8820   */\n      shr\n        /* \"#utility.yul\":8779:8821   */\n      not\n        /* \"#utility.yul\":8764:8822   */\n      and\n        /* \"#utility.yul\":8749:8823   */\n      dup2\n      sstore\n        /* \"#utility.yul\":8636:8837   */\n    tag_389:\n      pop\n      pop\n      pop\n      pop\n        /* \"#utility.yul\":8883:8884   */\n      0x01\n        /* \"#utility.yul\":8867:8881   */\n      swap1\n      dup2\n      shl\n        /* \"#utility.yul\":8863:8885   */\n      add\n        /* \"#utility.yul\":8850:8886   */\n      swap1\n      sstore\n      pop\n        /* \"#utility.yul\":7854:9153   */\n      jump\t// out\n        /* \"#utility.yul\":9158:9293   */\n    tag_174:\n        /* \"#utility.yul\":9197:9200   */\n      0x00\n        /* \"#utility.yul\":9218:9235   */\n      0x01\n      dup3\n      add\n        /* \"#utility.yul\":9215:9258   */\n      tag_392\n      jumpi\n        /* \"#utility.yul\":9238:9256   */\n      tag_392\n      tag_298\n      jump\t// in\n    tag_392:\n      pop\n        /* \"#utility.yul\":9285:9286   */\n      0x01\n        /* \"#utility.yul\":9274:9287   */\n      add\n      swap1\n        /* \"#utility.yul\":9158:9293   */\n      jump\t// out\n        /* \"#utility.yul\":9298:9794   */\n    tag_211:\n      sub(shl(0xa0, 0x01), 0x01)\n        /* \"#utility.yul\":9529:9561   */\n      dup6\n      dup2\n      and\n        /* \"#utility.yul\":9511:9562   */\n      dup3\n      mstore\n        /* \"#utility.yul\":9598:9630   */\n      dup5\n      and\n        /* \"#utility.yul\":9593:9595   */\n      0x20\n        /* \"#utility.yul\":9578:9596   */\n      dup3\n      add\n        /* \"#utility.yul\":9571:9631   */\n      mstore\n        /* \"#utility.yul\":9662:9664   */\n      0x40\n        /* \"#utility.yul\":9647:9665   */\n      dup2\n      add\n        /* \"#utility.yul\":9640:9674   */\n      dup4\n      swap1\n      mstore\n        /* \"#utility.yul\":9710:9713   */\n      0x80\n        /* \"#utility.yul\":9705:9707   */\n      0x60\n        /* \"#utility.yul\":9690:9708   */\n      dup3\n      add\n        /* \"#utility.yul\":9683:9714   */\n      dup2\n      swap1\n      mstore\n      0x00\n      swap1\n        /* \"#utility.yul\":9731:9788   */\n      tag_394\n      swap1\n        /* \"#utility.yul\":9768:9787   */\n      dup4\n      add\n        /* \"#utility.yul\":9760:9766   */\n      dup5\n        /* \"#utility.yul\":9731:9788   */\n      tag_294\n      jump\t// in\n    tag_394:\n        /* \"#utility.yul\":9723:9788   */\n      swap7\n        /* \"#utility.yul\":9298:9794   */\n      swap6\n      pop\n      pop\n      pop\n      pop\n      pop\n      pop\n      jump\t// out\n        /* \"#utility.yul\":9799:10048   */\n    tag_214:\n        /* \"#utility.yul\":9868:9874   */\n      0x00\n        /* \"#utility.yul\":9921:9923   */\n      0x20\n        /* \"#utility.yul\":9909:9918   */\n      dup3\n        /* \"#utility.yul\":9900:9907   */\n      dup5\n        /* \"#utility.yul\":9896:9919   */\n      sub\n        /* \"#utility.yul\":9892:9924   */\n      slt\n        /* \"#utility.yul\":9889:9941   */\n      iszero\n      tag_396\n      jumpi\n        /* \"#utility.yul\":9937:9938   */\n      0x00\n        /* \"#utility.yul\":9934:9935   */\n      dup1\n        /* \"#utility.yul\":9927:9939   */\n      revert\n        /* \"#utility.yul\":9889:9941   */\n    tag_396:\n        /* \"#utility.yul\":9969:9978   */\n      dup2\n        /* \"#utility.yul\":9963:9979   */\n      mload\n        /* \"#utility.yul\":9988:10018   */\n      tag_160\n        /* \"#utility.yul\":10012:10017   */\n      dup2\n        /* \"#utility.yul\":9988:10018   */\n      tag_293\n      jump\t// in\n\n    auxdata: 0xa26469706673582212204bb73d12ad8fce44d518127cef8ec458468f835a430da4c7fda6d3adb6ce61c564736f6c634300081a0033\n}\n",
				"bytecode": {
					"linkReferences": {},
					"object": "608060405234801561000f575f80fd5b506040518060400160405280600781526020016611d85b5953919560ca1b8152506040518060400160405280600481526020016311d3919560e21b815250815f908161005b9190610108565b5060016100688282610108565b5050506101c2565b634e487b7160e01b5f52604160045260245ffd5b600181811c9082168061009857607f821691505b6020821081036100b657634e487b7160e01b5f52602260045260245ffd5b50919050565b601f82111561010357805f5260205f20601f840160051c810160208510156100e15750805b601f840160051c820191505b81811015610100575f81556001016100ed565b50505b505050565b81516001600160401b0381111561012157610121610070565b6101358161012f8454610084565b846100bc565b6020601f821160018114610167575f83156101505750848201515b5f19600385901b1c1916600184901b178455610100565b5f84815260208120601f198516915b828110156101965787850151825560209485019460019092019101610176565b50848210156101b357868401515f19600387901b60f8161c191681555b50505050600190811b01905550565b611296806101cf5f395ff3fe608060405234801561000f575f80fd5b5060043610610106575f3560e01c806370a082311161009e578063a22cb4651161006e578063a22cb46514610213578063b88d4fde14610226578063c87b56dd14610239578063e985e9c51461024c578063eacabe141461025f575f80fd5b806370a08231146101d25780638c210975146101e557806394ab67fe146101f857806395d89b411461020b575f80fd5b806318160ddd116100d957806318160ddd1461018757806323b872dd1461019957806342842e0e146101ac5780636352211e146101bf575f80fd5b806301ffc9a71461010a57806306fdde0314610132578063081812fc14610147578063095ea7b314610172575b5f80fd5b61011d610118366004610d96565b610272565b60405190151581526020015b60405180910390f35b61013a6102c3565b6040516101299190610ddf565b61015a610155366004610df1565b610352565b6040516001600160a01b039091168152602001610129565b610185610180366004610e23565b610379565b005b6007545b604051908152602001610129565b6101856101a7366004610e4b565b610388565b6101856101ba366004610e4b565b610416565b61015a6101cd366004610df1565b610435565b61018b6101e0366004610e85565b61043f565b61013a6101f3366004610df1565b610484565b610185610206366004610e23565b61051b565b61013a610526565b610185610221366004610e9e565b610535565b610185610234366004610f62565b610540565b61013a610247366004610df1565b610557565b61011d61025a366004610fd9565b6105c8565b61018561026d36600461100a565b6105f5565b5f6001600160e01b031982166380ac58cd60e01b14806102a257506001600160e01b03198216635b5e139f60e01b145b806102bd57506301ffc9a760e01b6001600160e01b03198316145b92915050565b60605f80546102d190611068565b80601f01602080910402602001604051908101604052809291908181526020018280546102fd90611068565b80156103485780601f1061031f57610100808354040283529160200191610348565b820191905f5260205f20905b81548152906001019060200180831161032b57829003601f168201915b5050505050905090565b5f61035c82610642565b505f828152600460205260409020546001600160a01b03166102bd565b61038482823361067a565b5050565b6001600160a01b0382166103b657604051633250574960e11b81525f60048201526024015b60405180910390fd5b5f6103c2838333610687565b9050836001600160a01b0316816001600160a01b031614610410576040516364283d7b60e01b81526001600160a01b03808616600483015260248201849052821660448201526064016103ad565b50505050565b61043083838360405180602001604052805f815250610540565b505050565b5f6102bd82610642565b5f6001600160a01b038216610469576040516322718ad960e21b81525f60048201526024016103ad565b506001600160a01b03165f9081526003602052604090205490565b60066020525f90815260409020805461049c90611068565b80601f01602080910402602001604051908101604052809291908181526020018280546104c890611068565b80156105135780601f106104ea57610100808354040283529160200191610513565b820191905f5260205f20905b8154815290600101906020018083116104f657829003601f168201915b505050505081565b610384338383610779565b6060600180546102d190611068565b610384338383610826565b61054b848484610388565b610410848484846108c4565b606061056282610642565b505f61057860408051602081019091525f815290565b90505f8151116105965760405180602001604052805f8152506105c1565b806105a0846109ea565b6040516020016105b19291906110b7565b6040516020818303038152906040525b9392505050565b6001600160a01b039182165f90815260056020908152604080832093909416825291909152205460ff1690565b5f600754600161060591906110df565b90506106118382610a7a565b5f8181526006602052604090206106288382611136565b5060078054905f610638836111f1565b9190505550505050565b5f818152600260205260408120546001600160a01b0316806102bd57604051637e27328960e01b8152600481018490526024016103ad565b6104308383836001610adb565b5f828152600260205260408120546001600160a01b03908116908316156106b3576106b3818486610bdf565b6001600160a01b038116156106ed576106ce5f855f80610adb565b6001600160a01b0381165f90815260036020526040902080545f190190555b6001600160a01b0385161561071b576001600160a01b0385165f908152600360205260409020805460010190555b5f8481526002602052604080822080546001600160a01b0319166001600160a01b0389811691821790925591518793918516917fddf252ad1be2c89b69c2b068fc378daa952ba7f163c4a11628f55a4df523b3ef91a4949350505050565b6001600160a01b0382166107a257604051633250574960e11b81525f60048201526024016103ad565b5f6107ae83835f610687565b90506001600160a01b0381166107da57604051637e27328960e01b8152600481018390526024016103ad565b836001600160a01b0316816001600160a01b031614610410576040516364283d7b60e01b81526001600160a01b03808616600483015260248201849052821660448201526064016103ad565b6001600160a01b03821661085857604051630b61174360e31b81526001600160a01b03831660048201526024016103ad565b6001600160a01b038381165f81815260056020908152604080832094871680845294825291829020805460ff191686151590811790915591519182527f17307eab39ab6107e8899845ad3d59bd9653f200f220920489ca2b5937696c31910160405180910390a3505050565b6001600160a01b0383163b1561041057604051630a85bd0160e11b81526001600160a01b0384169063150b7a0290610906903390889087908790600401611209565b6020604051808303815f875af1925050508015610940575060408051601f3d908101601f1916820190925261093d91810190611245565b60015b6109a7573d80801561096d576040519150601f19603f3d011682016040523d82523d5f602084013e610972565b606091505b5080515f0361099f57604051633250574960e11b81526001600160a01b03851660048201526024016103ad565b805181602001fd5b6001600160e01b03198116630a85bd0160e11b146109e357604051633250574960e11b81526001600160a01b03851660048201526024016103ad565b5050505050565b60605f6109f683610c43565b60010190505f8167ffffffffffffffff811115610a1557610a15610ed7565b6040519080825280601f01601f191660200182016040528015610a3f576020820181803683370190505b5090508181016020015b5f19016f181899199a1a9b1b9c1cb0b131b232b360811b600a86061a8153600a8504945084610a4957509392505050565b6001600160a01b038216610aa357604051633250574960e11b81525f60048201526024016103ad565b5f610aaf83835f610687565b90506001600160a01b03811615610430576040516339e3563760e11b81525f60048201526024016103ad565b8080610aef57506001600160a01b03821615155b15610bb0575f610afe84610642565b90506001600160a01b03831615801590610b2a5750826001600160a01b0316816001600160a01b031614155b8015610b3d5750610b3b81846105c8565b155b15610b665760405163a9fbf51f60e01b81526001600160a01b03841660048201526024016103ad565b8115610bae5783856001600160a01b0316826001600160a01b03167f8c5be1e5ebec7d5bd14f71427d1e84f3dd0314c0f7b2291e5b200ac8c7c3b92560405160405180910390a45b505b50505f90815260046020526040902080546001600160a01b0319166001600160a01b0392909216919091179055565b610bea838383610d1a565b610430576001600160a01b038316610c1857604051637e27328960e01b8152600481018290526024016103ad565b60405163177e802f60e01b81526001600160a01b0383166004820152602481018290526044016103ad565b5f8072184f03e93ff9f4daa797ed6e38ed64bf6a1f0160401b8310610c815772184f03e93ff9f4daa797ed6e38ed64bf6a1f0160401b830492506040015b6d04ee2d6d415b85acef81000000008310610cad576d04ee2d6d415b85acef8100000000830492506020015b662386f26fc100008310610ccb57662386f26fc10000830492506010015b6305f5e1008310610ce3576305f5e100830492506008015b6127108310610cf757612710830492506004015b60648310610d09576064830492506002015b600a83106102bd5760010192915050565b5f6001600160a01b03831615801590610d765750826001600160a01b0316846001600160a01b03161480610d535750610d5384846105c8565b80610d7657505f828152600460205260409020546001600160a01b038481169116145b949350505050565b6001600160e01b031981168114610d93575f80fd5b50565b5f60208284031215610da6575f80fd5b81356105c181610d7e565b5f81518084528060208401602086015e5f602082860101526020601f19601f83011685010191505092915050565b602081525f6105c16020830184610db1565b5f60208284031215610e01575f80fd5b5035919050565b80356001600160a01b0381168114610e1e575f80fd5b919050565b5f8060408385031215610e34575f80fd5b610e3d83610e08565b946020939093013593505050565b5f805f60608486031215610e5d575f80fd5b610e6684610e08565b9250610e7460208501610e08565b929592945050506040919091013590565b5f60208284031215610e95575f80fd5b6105c182610e08565b5f8060408385031215610eaf575f80fd5b610eb883610e08565b915060208301358015158114610ecc575f80fd5b809150509250929050565b634e487b7160e01b5f52604160045260245ffd5b5f8067ffffffffffffffff841115610f0557610f05610ed7565b50604051601f19601f85018116603f0116810181811067ffffffffffffffff82111715610f3457610f34610ed7565b604052838152905080828401851015610f4b575f80fd5b838360208301375f60208583010152509392505050565b5f805f8060808587031215610f75575f80fd5b610f7e85610e08565b9350610f8c60208601610e08565b925060408501359150606085013567ffffffffffffffff811115610fae575f80fd5b8501601f81018713610fbe575f80fd5b610fcd87823560208401610eeb565b91505092959194509250565b5f8060408385031215610fea575f80fd5b610ff383610e08565b915061100160208401610e08565b90509250929050565b5f806040838503121561101b575f80fd5b61102483610e08565b9150602083013567ffffffffffffffff81111561103f575f80fd5b8301601f8101851361104f575f80fd5b61105e85823560208401610eeb565b9150509250929050565b600181811c9082168061107c57607f821691505b60208210810361109a57634e487b7160e01b5f52602260045260245ffd5b50919050565b5f81518060208401855e5f93019283525090919050565b5f610d766110c583866110a0565b846110a0565b634e487b7160e01b5f52601160045260245ffd5b808201808211156102bd576102bd6110cb565b601f82111561043057805f5260205f20601f840160051c810160208510156111175750805b601f840160051c820191505b818110156109e3575f8155600101611123565b815167ffffffffffffffff81111561115057611150610ed7565b6111648161115e8454611068565b846110f2565b6020601f821160018114611196575f831561117f5750848201515b5f19600385901b1c1916600184901b1784556109e3565b5f84815260208120601f198516915b828110156111c557878501518255602094850194600190920191016111a5565b50848210156111e257868401515f19600387901b60f8161c191681555b50505050600190811b01905550565b5f60018201611202576112026110cb565b5060010190565b6001600160a01b03858116825284166020820152604081018390526080606082018190525f9061123b90830184610db1565b9695505050505050565b5f60208284031215611255575f80fd5b81516105c181610d7e56fea26469706673582212204bb73d12ad8fce44d518127cef8ec458468f835a430da4c7fda6d3adb6ce61c564736f6c634300081a0033",
					"opcodes": "PUSH1 0x80 PUSH1 0x40 MSTORE CALLVALUE DUP1 ISZERO PUSH2 0xF JUMPI PUSH0 DUP1 REVERT JUMPDEST POP PUSH1 0x40 MLOAD DUP1 PUSH1 0x40 ADD PUSH1 0x40 MSTORE DUP1 PUSH1 0x7 DUP2 MSTORE PUSH1 0x20 ADD PUSH7 0x11D85B59539195 PUSH1 0xCA SHL DUP2 MSTORE POP PUSH1 0x40 MLOAD DUP1 PUSH1 0x40 ADD PUSH1 0x40 MSTORE DUP1 PUSH1 0x4 DUP2 MSTORE PUSH1 0x20 ADD PUSH4 0x11D39195 PUSH1 0xE2 SHL DUP2 MSTORE POP DUP2 PUSH0 SWAP1 DUP2 PUSH2 0x5B SWAP2 SWAP1 PUSH2 0x108 JUMP JUMPDEST POP PUSH1 0x1 PUSH2 0x68 DUP3 DUP3 PUSH2 0x108 JUMP JUMPDEST POP POP POP PUSH2 0x1C2 JUMP JUMPDEST PUSH4 0x4E487B71 PUSH1 0xE0 SHL PUSH0 MSTORE PUSH1 0x41 PUSH1 0x4 MSTORE PUSH1 0x24 PUSH0 REVERT JUMPDEST PUSH1 0x1 DUP2 DUP2 SHR SWAP1 DUP3 AND DUP1 PUSH2 0x98 JUMPI PUSH1 0x7F DUP3 AND SWAP2 POP JUMPDEST PUSH1 0x20 DUP3 LT DUP2 SUB PUSH2 0xB6 JUMPI PUSH4 0x4E487B71 PUSH1 0xE0 SHL PUSH0 MSTORE PUSH1 0x22 PUSH1 0x4 MSTORE PUSH1 0x24 PUSH0 REVERT JUMPDEST POP SWAP2 SWAP1 POP JUMP JUMPDEST PUSH1 0x1F DUP3 GT ISZERO PUSH2 0x103 JUMPI DUP1 PUSH0 MSTORE PUSH1 0x20 PUSH0 KECCAK256 PUSH1 0x1F DUP5 ADD PUSH1 0x5 SHR DUP2 ADD PUSH1 0x20 DUP6 LT ISZERO PUSH2 0xE1 JUMPI POP DUP1 JUMPDEST PUSH1 0x1F DUP5 ADD PUSH1 0x5 SHR DUP3 ADD SWAP2 POP JUMPDEST DUP2 DUP2 LT ISZERO PUSH2 0x100 JUMPI PUSH0 DUP2 SSTORE PUSH1 0x1 ADD PUSH2 0xED JUMP JUMPDEST POP POP JUMPDEST POP POP POP JUMP JUMPDEST DUP2 MLOAD PUSH1 0x1 PUSH1 0x1 PUSH1 0x40 SHL SUB DUP2 GT ISZERO PUSH2 0x121 JUMPI PUSH2 0x121 PUSH2 0x70 JUMP JUMPDEST PUSH2 0x135 DUP2 PUSH2 0x12F DUP5 SLOAD PUSH2 0x84 JUMP JUMPDEST DUP5 PUSH2 0xBC JUMP JUMPDEST PUSH1 0x20 PUSH1 0x1F DUP3 GT PUSH1 0x1 DUP2 EQ PUSH2 0x167 JUMPI PUSH0 DUP4 ISZERO PUSH2 0x150 JUMPI POP DUP5 DUP3 ADD MLOAD JUMPDEST PUSH0 NOT PUSH1 0x3 DUP6 SWAP1 SHL SHR NOT AND PUSH1 0x1 DUP5 SWAP1 SHL OR DUP5 SSTORE PUSH2 0x100 JUMP JUMPDEST PUSH0 DUP5 DUP2 MSTORE PUSH1 0x20 DUP2 KECCAK256 PUSH1 0x1F NOT DUP6 AND SWAP2 JUMPDEST DUP3 DUP2 LT ISZERO PUSH2 0x196 JUMPI DUP8 DUP6 ADD MLOAD DUP3 SSTORE PUSH1 0x20 SWAP5 DUP6 ADD SWAP5 PUSH1 0x1 SWAP1 SWAP3 ADD SWAP2 ADD PUSH2 0x176 JUMP JUMPDEST POP DUP5 DUP3 LT ISZERO PUSH2 0x1B3 JUMPI DUP7 DUP5 ADD MLOAD PUSH0 NOT PUSH1 0x3 DUP8 SWAP1 SHL PUSH1 0xF8 AND SHR NOT AND DUP2 SSTORE JUMPDEST POP POP POP POP PUSH1 0x1 SWAP1 DUP2 SHL ADD SWAP1 SSTORE POP JUMP JUMPDEST PUSH2 0x1296 DUP1 PUSH2 0x1CF PUSH0 CODECOPY PUSH0 RETURN INVALID PUSH1 0x80 PUSH1 0x40 MSTORE CALLVALUE DUP1 ISZERO PUSH2 0xF JUMPI PUSH0 DUP1 REVERT JUMPDEST POP PUSH1 0x4 CALLDATASIZE LT PUSH2 0x106 JUMPI PUSH0 CALLDATALOAD PUSH1 0xE0 SHR DUP1 PUSH4 0x70A08231 GT PUSH2 0x9E JUMPI DUP1 PUSH4 0xA22CB465 GT PUSH2 0x6E JUMPI DUP1 PUSH4 0xA22CB465 EQ PUSH2 0x213 JUMPI DUP1 PUSH4 0xB88D4FDE EQ PUSH2 0x226 JUMPI DUP1 PUSH4 0xC87B56DD EQ PUSH2 0x239 JUMPI DUP1 PUSH4 0xE985E9C5 EQ PUSH2 0x24C JUMPI DUP1 PUSH4 0xEACABE14 EQ PUSH2 0x25F JUMPI PUSH0 DUP1 REVERT JUMPDEST DUP1 PUSH4 0x70A08231 EQ PUSH2 0x1D2 JUMPI DUP1 PUSH4 0x8C210975 EQ PUSH2 0x1E5 JUMPI DUP1 PUSH4 0x94AB67FE EQ PUSH2 0x1F8 JUMPI DUP1 PUSH4 0x95D89B41 EQ PUSH2 0x20B JUMPI PUSH0 DUP1 REVERT JUMPDEST DUP1 PUSH4 0x18160DDD GT PUSH2 0xD9 JUMPI DUP1 PUSH4 0x18160DDD EQ PUSH2 0x187 JUMPI DUP1 PUSH4 0x23B872DD EQ PUSH2 0x199 JUMPI DUP1 PUSH4 0x42842E0E EQ PUSH2 0x1AC JUMPI DUP1 PUSH4 0x6352211E EQ PUSH2 0x1BF JUMPI PUSH0 DUP1 REVERT JUMPDEST DUP1 PUSH4 0x1FFC9A7 EQ PUSH2 0x10A JUMPI DUP1 PUSH4 0x6FDDE03 EQ PUSH2 0x132 JUMPI DUP1 PUSH4 0x81812FC EQ PUSH2 0x147 JUMPI DUP1 PUSH4 0x95EA7B3 EQ PUSH2 0x172 JUMPI JUMPDEST PUSH0 DUP1 REVERT JUMPDEST PUSH2 0x11D PUSH2 0x118 CALLDATASIZE PUSH1 0x4 PUSH2 0xD96 JUMP JUMPDEST PUSH2 0x272 JUMP JUMPDEST PUSH1 0x40 MLOAD SWAP1 ISZERO ISZERO DUP2 MSTORE PUSH1 0x20 ADD JUMPDEST PUSH1 0x40 MLOAD DUP1 SWAP2 SUB SWAP1 RETURN JUMPDEST PUSH2 0x13A PUSH2 0x2C3 JUMP JUMPDEST PUSH1 0x40 MLOAD PUSH2 0x129 SWAP2 SWAP1 PUSH2 0xDDF JUMP JUMPDEST PUSH2 0x15A PUSH2 0x155 CALLDATASIZE PUSH1 0x4 PUSH2 0xDF1 JUMP JUMPDEST PUSH2 0x352 JUMP JUMPDEST PUSH1 0x40 MLOAD PUSH1 0x1 PUSH1 0x1 PUSH1 0xA0 SHL SUB SWAP1 SWAP2 AND DUP2 MSTORE PUSH1 0x20 ADD PUSH2 0x129 JUMP JUMPDEST PUSH2 0x185 PUSH2 0x180 CALLDATASIZE PUSH1 0x4 PUSH2 0xE23 JUMP JUMPDEST PUSH2 0x379 JUMP JUMPDEST STOP JUMPDEST PUSH1 0x7 SLOAD JUMPDEST PUSH1 0x40 MLOAD SWAP1 DUP2 MSTORE PUSH1 0x20 ADD PUSH2 0x129 JUMP JUMPDEST PUSH2 0x185 PUSH2 0x1A7 CALLDATASIZE PUSH1 0x4 PUSH2 0xE4B JUMP JUMPDEST PUSH2 0x388 JUMP JUMPDEST PUSH2 0x185 PUSH2 0x1BA CALLDATASIZE PUSH1 0x4 PUSH2 0xE4B JUMP JUMPDEST PUSH2 0x416 JUMP JUMPDEST PUSH2 0x15A PUSH2 0x1CD CALLDATASIZE PUSH1 0x4 PUSH2 0xDF1 JUMP JUMPDEST PUSH2 0x435 JUMP JUMPDEST PUSH2 0x18B PUSH2 0x1E0 CALLDATASIZE PUSH1 0x4 PUSH2 0xE85 JUMP JUMPDEST PUSH2 0x43F JUMP JUMPDEST PUSH2 0x13A PUSH2 0x1F3 CALLDATASIZE PUSH1 0x4 PUSH2 0xDF1 JUMP JUMPDEST PUSH2 0x484 JUMP JUMPDEST PUSH2 0x185 PUSH2 0x206 CALLDATASIZE PUSH1 0x4 PUSH2 0xE23 JUMP JUMPDEST PUSH2 0x51B JUMP JUMPDEST PUSH2 0x13A PUSH2 0x526 JUMP JUMPDEST PUSH2 0x185 PUSH2 0x221 CALLDATASIZE PUSH1 0x4 PUSH2 0xE9E JUMP JUMPDEST PUSH2 0x535 JUMP JUMPDEST PUSH2 0x185 PUSH2 0x234 CALLDATASIZE PUSH1 0x4 PUSH2 0xF62 JUMP JUMPDEST PUSH2 0x540 JUMP JUMPDEST PUSH2 0x13A PUSH2 0x247 CALLDATASIZE PUSH1 0x4 PUSH2 0xDF1 JUMP JUMPDEST PUSH2 0x557 JUMP JUMPDEST PUSH2 0x11D PUSH2 0x25A CALLDATASIZE PUSH1 0x4 PUSH2 0xFD9 JUMP JUMPDEST PUSH2 0x5C8 JUMP JUMPDEST PUSH2 0x185 PUSH2 0x26D CALLDATASIZE PUSH1 0x4 PUSH2 0x100A JUMP JUMPDEST PUSH2 0x5F5 JUMP JUMPDEST PUSH0 PUSH1 0x1 PUSH1 0x1 PUSH1 0xE0 SHL SUB NOT DUP3 AND PUSH4 0x80AC58CD PUSH1 0xE0 SHL EQ DUP1 PUSH2 0x2A2 JUMPI POP PUSH1 0x1 PUSH1 0x1 PUSH1 0xE0 SHL SUB NOT DUP3 AND PUSH4 0x5B5E139F PUSH1 0xE0 SHL EQ JUMPDEST DUP1 PUSH2 0x2BD JUMPI POP PUSH4 0x1FFC9A7 PUSH1 0xE0 SHL PUSH1 0x1 PUSH1 0x1 PUSH1 0xE0 SHL SUB NOT DUP4 AND EQ JUMPDEST SWAP3 SWAP2 POP POP JUMP JUMPDEST PUSH1 0x60 PUSH0 DUP1 SLOAD PUSH2 0x2D1 SWAP1 PUSH2 0x1068 JUMP JUMPDEST DUP1 PUSH1 0x1F ADD PUSH1 0x20 DUP1 SWAP2 DIV MUL PUSH1 0x20 ADD PUSH1 0x40 MLOAD SWAP1 DUP2 ADD PUSH1 0x40 MSTORE DUP1 SWAP3 SWAP2 SWAP1 DUP2 DUP2 MSTORE PUSH1 0x20 ADD DUP3 DUP1 SLOAD PUSH2 0x2FD SWAP1 PUSH2 0x1068 JUMP JUMPDEST DUP1 ISZERO PUSH2 0x348 JUMPI DUP1 PUSH1 0x1F LT PUSH2 0x31F JUMPI PUSH2 0x100 DUP1 DUP4 SLOAD DIV MUL DUP4 MSTORE SWAP2 PUSH1 0x20 ADD SWAP2 PUSH2 0x348 JUMP JUMPDEST DUP3 ADD SWAP2 SWAP1 PUSH0 MSTORE PUSH1 0x20 PUSH0 KECCAK256 SWAP1 JUMPDEST DUP2 SLOAD DUP2 MSTORE SWAP1 PUSH1 0x1 ADD SWAP1 PUSH1 0x20 ADD DUP1 DUP4 GT PUSH2 0x32B JUMPI DUP3 SWAP1 SUB PUSH1 0x1F AND DUP3 ADD SWAP2 JUMPDEST POP POP POP POP POP SWAP1 POP SWAP1 JUMP JUMPDEST PUSH0 PUSH2 0x35C DUP3 PUSH2 0x642 JUMP JUMPDEST POP PUSH0 DUP3 DUP2 MSTORE PUSH1 0x4 PUSH1 0x20 MSTORE PUSH1 0x40 SWAP1 KECCAK256 SLOAD PUSH1 0x1 PUSH1 0x1 PUSH1 0xA0 SHL SUB AND PUSH2 0x2BD JUMP JUMPDEST PUSH2 0x384 DUP3 DUP3 CALLER PUSH2 0x67A JUMP JUMPDEST POP POP JUMP JUMPDEST PUSH1 0x1 PUSH1 0x1 PUSH1 0xA0 SHL SUB DUP3 AND PUSH2 0x3B6 JUMPI PUSH1 0x40 MLOAD PUSH4 0x32505749 PUSH1 0xE1 SHL DUP2 MSTORE PUSH0 PUSH1 0x4 DUP3 ADD MSTORE PUSH1 0x24 ADD JUMPDEST PUSH1 0x40 MLOAD DUP1 SWAP2 SUB SWAP1 REVERT JUMPDEST PUSH0 PUSH2 0x3C2 DUP4 DUP4 CALLER PUSH2 0x687 JUMP JUMPDEST SWAP1 POP DUP4 PUSH1 0x1 PUSH1 0x1 PUSH1 0xA0 SHL SUB AND DUP2 PUSH1 0x1 PUSH1 0x1 PUSH1 0xA0 SHL SUB AND EQ PUSH2 0x410 JUMPI PUSH1 0x40 MLOAD PUSH4 0x64283D7B PUSH1 0xE0 SHL DUP2 MSTORE PUSH1 0x1 PUSH1 0x1 PUSH1 0xA0 SHL SUB DUP1 DUP7 AND PUSH1 0x4 DUP4 ADD MSTORE PUSH1 0x24 DUP3 ADD DUP5 SWAP1 MSTORE DUP3 AND PUSH1 0x44 DUP3 ADD MSTORE PUSH1 0x64 ADD PUSH2 0x3AD JUMP JUMPDEST POP POP POP POP JUMP JUMPDEST PUSH2 0x430 DUP4 DUP4 DUP4 PUSH1 0x40 MLOAD DUP1 PUSH1 0x20 ADD PUSH1 0x40 MSTORE DUP1 PUSH0 DUP2 MSTORE POP PUSH2 0x540 JUMP JUMPDEST POP POP POP JUMP JUMPDEST PUSH0 PUSH2 0x2BD DUP3 PUSH2 0x642 JUMP JUMPDEST PUSH0 PUSH1 0x1 PUSH1 0x1 PUSH1 0xA0 SHL SUB DUP3 AND PUSH2 0x469 JUMPI PUSH1 0x40 MLOAD PUSH4 0x22718AD9 PUSH1 0xE2 SHL DUP2 MSTORE PUSH0 PUSH1 0x4 DUP3 ADD MSTORE PUSH1 0x24 ADD PUSH2 0x3AD JUMP JUMPDEST POP PUSH1 0x1 PUSH1 0x1 PUSH1 0xA0 SHL SUB AND PUSH0 SWAP1 DUP2 MSTORE PUSH1 0x3 PUSH1 0x20 MSTORE PUSH1 0x40 SWAP1 KECCAK256 SLOAD SWAP1 JUMP JUMPDEST PUSH1 0x6 PUSH1 0x20 MSTORE PUSH0 SWAP1 DUP2 MSTORE PUSH1 0x40 SWAP1 KECCAK256 DUP1 SLOAD PUSH2 0x49C SWAP1 PUSH2 0x1068 JUMP JUMPDEST DUP1 PUSH1 0x1F ADD PUSH1 0x20 DUP1 SWAP2 DIV MUL PUSH1 0x20 ADD PUSH1 0x40 MLOAD SWAP1 DUP2 ADD PUSH1 0x40 MSTORE DUP1 SWAP3 SWAP2 SWAP1 DUP2 DUP2 MSTORE PUSH1 0x20 ADD DUP3 DUP1 SLOAD PUSH2 0x4C8 SWAP1 PUSH2 0x1068 JUMP JUMPDEST DUP1 ISZERO PUSH2 0x513 JUMPI DUP1 PUSH1 0x1F LT PUSH2 0x4EA JUMPI PUSH2 0x100 DUP1 DUP4 SLOAD DIV MUL DUP4 MSTORE SWAP2 PUSH1 0x20 ADD SWAP2 PUSH2 0x513 JUMP JUMPDEST DUP3 ADD SWAP2 SWAP1 PUSH0 MSTORE PUSH1 0x20 PUSH0 KECCAK256 SWAP1 JUMPDEST DUP2 SLOAD DUP2 MSTORE SWAP1 PUSH1 0x1 ADD SWAP1 PUSH1 0x20 ADD DUP1 DUP4 GT PUSH2 0x4F6 JUMPI DUP3 SWAP1 SUB PUSH1 0x1F AND DUP3 ADD SWAP2 JUMPDEST POP POP POP POP POP DUP2 JUMP JUMPDEST PUSH2 0x384 CALLER DUP4 DUP4 PUSH2 0x779 JUMP JUMPDEST PUSH1 0x60 PUSH1 0x1 DUP1 SLOAD PUSH2 0x2D1 SWAP1 PUSH2 0x1068 JUMP JUMPDEST PUSH2 0x384 CALLER DUP4 DUP4 PUSH2 0x826 JUMP JUMPDEST PUSH2 0x54B DUP5 DUP5 DUP5 PUSH2 0x388 JUMP JUMPDEST PUSH2 0x410 DUP5 DUP5 DUP5 DUP5 PUSH2 0x8C4 JUMP JUMPDEST PUSH1 0x60 PUSH2 0x562 DUP3 PUSH2 0x642 JUMP JUMPDEST POP PUSH0 PUSH2 0x578 PUSH1 0x40 DUP1 MLOAD PUSH1 0x20 DUP2 ADD SWAP1 SWAP2 MSTORE PUSH0 DUP2 MSTORE SWAP1 JUMP JUMPDEST SWAP1 POP PUSH0 DUP2 MLOAD GT PUSH2 0x596 JUMPI PUSH1 0x40 MLOAD DUP1 PUSH1 0x20 ADD PUSH1 0x40 MSTORE DUP1 PUSH0 DUP2 MSTORE POP PUSH2 0x5C1 JUMP JUMPDEST DUP1 PUSH2 0x5A0 DUP5 PUSH2 0x9EA JUMP JUMPDEST PUSH1 0x40 MLOAD PUSH1 0x20 ADD PUSH2 0x5B1 SWAP3 SWAP2 SWAP1 PUSH2 0x10B7 JUMP JUMPDEST PUSH1 0x40 MLOAD PUSH1 0x20 DUP2 DUP4 SUB SUB DUP2 MSTORE SWAP1 PUSH1 0x40 MSTORE JUMPDEST SWAP4 SWAP3 POP POP POP JUMP JUMPDEST PUSH1 0x1 PUSH1 0x1 PUSH1 0xA0 SHL SUB SWAP2 DUP3 AND PUSH0 SWAP1 DUP2 MSTORE PUSH1 0x5 PUSH1 0x20 SWAP1 DUP2 MSTORE PUSH1 0x40 DUP1 DUP4 KECCAK256 SWAP4 SWAP1 SWAP5 AND DUP3 MSTORE SWAP2 SWAP1 SWAP2 MSTORE KECCAK256 SLOAD PUSH1 0xFF AND SWAP1 JUMP JUMPDEST PUSH0 PUSH1 0x7 SLOAD PUSH1 0x1 PUSH2 0x605 SWAP2 SWAP1 PUSH2 0x10DF JUMP JUMPDEST SWAP1 POP PUSH2 0x611 DUP4 DUP3 PUSH2 0xA7A JUMP JUMPDEST PUSH0 DUP2 DUP2 MSTORE PUSH1 0x6 PUSH1 0x20 MSTORE PUSH1 0x40 SWAP1 KECCAK256 PUSH2 0x628 DUP4 DUP3 PUSH2 0x1136 JUMP JUMPDEST POP PUSH1 0x7 DUP1 SLOAD SWAP1 PUSH0 PUSH2 0x638 DUP4 PUSH2 0x11F1 JUMP JUMPDEST SWAP2 SWAP1 POP SSTORE POP POP POP POP JUMP JUMPDEST PUSH0 DUP2 DUP2 MSTORE PUSH1 0x2 PUSH1 0x20 MSTORE PUSH1 0x40 DUP2 KECCAK256 SLOAD PUSH1 0x1 PUSH1 0x1 PUSH1 0xA0 SHL SUB AND DUP1 PUSH2 0x2BD JUMPI PUSH1 0x40 MLOAD PUSH4 0x7E273289 PUSH1 0xE0 SHL DUP2 MSTORE PUSH1 0x4 DUP2 ADD DUP5 SWAP1 MSTORE PUSH1 0x24 ADD PUSH2 0x3AD JUMP JUMPDEST PUSH2 0x430 DUP4 DUP4 DUP4 PUSH1 0x1 PUSH2 0xADB JUMP JUMPDEST PUSH0 DUP3 DUP2 MSTORE PUSH1 0x2 PUSH1 0x20 MSTORE PUSH1 0x40 DUP2 KECCAK256 SLOAD PUSH1 0x1 PUSH1 0x1 PUSH1 0xA0 SHL SUB SWAP1 DUP2 AND SWAP1 DUP4 AND ISZERO PUSH2 0x6B3 JUMPI PUSH2 0x6B3 DUP2 DUP5 DUP7 PUSH2 0xBDF JUMP JUMPDEST PUSH1 0x1 PUSH1 0x1 PUSH1 0xA0 SHL SUB DUP2 AND ISZERO PUSH2 0x6ED JUMPI PUSH2 0x6CE PUSH0 DUP6 PUSH0 DUP1 PUSH2 0xADB JUMP JUMPDEST PUSH1 0x1 PUSH1 0x1 PUSH1 0xA0 SHL SUB DUP2 AND PUSH0 SWAP1 DUP2 MSTORE PUSH1 0x3 PUSH1 0x20 MSTORE PUSH1 0x40 SWAP1 KECCAK256 DUP1 SLOAD PUSH0 NOT ADD SWAP1 SSTORE JUMPDEST PUSH1 0x1 PUSH1 0x1 PUSH1 0xA0 SHL SUB DUP6 AND ISZERO PUSH2 0x71B JUMPI PUSH1 0x1 PUSH1 0x1 PUSH1 0xA0 SHL SUB DUP6 AND PUSH0 SWAP1 DUP2 MSTORE PUSH1 0x3 PUSH1 0x20 MSTORE PUSH1 0x40 SWAP1 KECCAK256 DUP1 SLOAD PUSH1 0x1 ADD SWAP1 SSTORE JUMPDEST PUSH0 DUP5 DUP2 MSTORE PUSH1 0x2 PUSH1 0x20 MSTORE PUSH1 0x40 DUP1 DUP3 KECCAK256 DUP1 SLOAD PUSH1 0x1 PUSH1 0x1 PUSH1 0xA0 SHL SUB NOT AND PUSH1 0x1 PUSH1 0x1 PUSH1 0xA0 SHL SUB DUP10 DUP2 AND SWAP2 DUP3 OR SWAP1 SWAP3 SSTORE SWAP2 MLOAD DUP8 SWAP4 SWAP2 DUP6 AND SWAP2 PUSH32 0xDDF252AD1BE2C89B69C2B068FC378DAA952BA7F163C4A11628F55A4DF523B3EF SWAP2 LOG4 SWAP5 SWAP4 POP POP POP POP JUMP JUMPDEST PUSH1 0x1 PUSH1 0x1 PUSH1 0xA0 SHL SUB DUP3 AND PUSH2 0x7A2 JUMPI PUSH1 0x40 MLOAD PUSH4 0x32505749 PUSH1 0xE1 SHL DUP2 MSTORE PUSH0 PUSH1 0x4 DUP3 ADD MSTORE PUSH1 0x24 ADD PUSH2 0x3AD JUMP JUMPDEST PUSH0 PUSH2 0x7AE DUP4 DUP4 PUSH0 PUSH2 0x687 JUMP JUMPDEST SWAP1 POP PUSH1 0x1 PUSH1 0x1 PUSH1 0xA0 SHL SUB DUP2 AND PUSH2 0x7DA JUMPI PUSH1 0x40 MLOAD PUSH4 0x7E273289 PUSH1 0xE0 SHL DUP2 MSTORE PUSH1 0x4 DUP2 ADD DUP4 SWAP1 MSTORE PUSH1 0x24 ADD PUSH2 0x3AD JUMP JUMPDEST DUP4 PUSH1 0x1 PUSH1 0x1 PUSH1 0xA0 SHL SUB AND DUP2 PUSH1 0x1 PUSH1 0x1 PUSH1 0xA0 SHL SUB AND EQ PUSH2 0x410 JUMPI PUSH1 0x40 MLOAD PUSH4 0x64283D7B PUSH1 0xE0 SHL DUP2 MSTORE PUSH1 0x1 PUSH1 0x1 PUSH1 0xA0 SHL SUB DUP1 DUP7 AND PUSH1 0x4 DUP4 ADD MSTORE PUSH1 0x24 DUP3 ADD DUP5 SWAP1 MSTORE DUP3 AND PUSH1 0x44 DUP3 ADD MSTORE PUSH1 0x64 ADD PUSH2 0x3AD JUMP JUMPDEST PUSH1 0x1 PUSH1 0x1 PUSH1 0xA0 SHL SUB DUP3 AND PUSH2 0x858 JUMPI PUSH1 0x40 MLOAD PUSH4 0xB611743 PUSH1 0xE3 SHL DUP2 MSTORE PUSH1 0x1 PUSH1 0x1 PUSH1 0xA0 SHL SUB DUP4 AND PUSH1 0x4 DUP3 ADD MSTORE PUSH1 0x24 ADD PUSH2 0x3AD JUMP JUMPDEST PUSH1 0x1 PUSH1 0x1 PUSH1 0xA0 SHL SUB DUP4 DUP2 AND PUSH0 DUP2 DUP2 MSTORE PUSH1 0x5 PUSH1 0x20 SWAP1 DUP2 MSTORE PUSH1 0x40 DUP1 DUP4 KECCAK256 SWAP5 DUP8 AND DUP1 DUP5 MSTORE SWAP5 DUP3 MSTORE SWAP2 DUP3 SWAP1 KECCAK256 DUP1 SLOAD PUSH1 0xFF NOT AND DUP7 ISZERO ISZERO SWAP1 DUP2 OR SWAP1 SWAP2 SSTORE SWAP2 MLOAD SWAP2 DUP3 MSTORE PUSH32 0x17307EAB39AB6107E8899845AD3D59BD9653F200F220920489CA2B5937696C31 SWAP2 ADD PUSH1 0x40 MLOAD DUP1 SWAP2 SUB SWAP1 LOG3 POP POP POP JUMP JUMPDEST PUSH1 0x1 PUSH1 0x1 PUSH1 0xA0 SHL SUB DUP4 AND EXTCODESIZE ISZERO PUSH2 0x410 JUMPI PUSH1 0x40 MLOAD PUSH4 0xA85BD01 PUSH1 0xE1 SHL DUP2 MSTORE PUSH1 0x1 PUSH1 0x1 PUSH1 0xA0 SHL SUB DUP5 AND SWAP1 PUSH4 0x150B7A02 SWAP1 PUSH2 0x906 SWAP1 CALLER SWAP1 DUP9 SWAP1 DUP8 SWAP1 DUP8 SWAP1 PUSH1 0x4 ADD PUSH2 0x1209 JUMP JUMPDEST PUSH1 0x20 PUSH1 0x40 MLOAD DUP1 DUP4 SUB DUP2 PUSH0 DUP8 GAS CALL SWAP3 POP POP POP DUP1 ISZERO PUSH2 0x940 JUMPI POP PUSH1 0x40 DUP1 MLOAD PUSH1 0x1F RETURNDATASIZE SWAP1 DUP2 ADD PUSH1 0x1F NOT AND DUP3 ADD SWAP1 SWAP3 MSTORE PUSH2 0x93D SWAP2 DUP2 ADD SWAP1 PUSH2 0x1245 JUMP JUMPDEST PUSH1 0x1 JUMPDEST PUSH2 0x9A7 JUMPI RETURNDATASIZE DUP1 DUP1 ISZERO PUSH2 0x96D JUMPI PUSH1 0x40 MLOAD SWAP2 POP PUSH1 0x1F NOT PUSH1 0x3F RETURNDATASIZE ADD AND DUP3 ADD PUSH1 0x40 MSTORE RETURNDATASIZE DUP3 MSTORE RETURNDATASIZE PUSH0 PUSH1 0x20 DUP5 ADD RETURNDATACOPY PUSH2 0x972 JUMP JUMPDEST PUSH1 0x60 SWAP2 POP JUMPDEST POP DUP1 MLOAD PUSH0 SUB PUSH2 0x99F JUMPI PUSH1 0x40 MLOAD PUSH4 0x32505749 PUSH1 0xE1 SHL DUP2 MSTORE PUSH1 0x1 PUSH1 0x1 PUSH1 0xA0 SHL SUB DUP6 AND PUSH1 0x4 DUP3 ADD MSTORE PUSH1 0x24 ADD PUSH2 0x3AD JUMP JUMPDEST DUP1 MLOAD DUP2 PUSH1 0x20 ADD REVERT JUMPDEST PUSH1 0x1 PUSH1 0x1 PUSH1 0xE0 SHL SUB NOT DUP2 AND PUSH4 0xA85BD01 PUSH1 0xE1 SHL EQ PUSH2 0x9E3 JUMPI PUSH1 0x40 MLOAD PUSH4 0x32505749 PUSH1 0xE1 SHL DUP2 MSTORE PUSH1 0x1 PUSH1 0x1 PUSH1 0xA0 SHL SUB DUP6 AND PUSH1 0x4 DUP3 ADD MSTORE PUSH1 0x24 ADD PUSH2 0x3AD JUMP JUMPDEST POP POP POP POP POP JUMP JUMPDEST PUSH1 0x60 PUSH0 PUSH2 0x9F6 DUP4 PUSH2 0xC43 JUMP JUMPDEST PUSH1 0x1 ADD SWAP1 POP PUSH0 DUP2 PUSH8 0xFFFFFFFFFFFFFFFF DUP2 GT ISZERO PUSH2 0xA15 JUMPI PUSH2 0xA15 PUSH2 0xED7 JUMP JUMPDEST PUSH1 0x40 MLOAD SWAP1 DUP1 DUP3 MSTORE DUP1 PUSH1 0x1F ADD PUSH1 0x1F NOT AND PUSH1 0x20 ADD DUP3 ADD PUSH1 0x40 MSTORE DUP1 ISZERO PUSH2 0xA3F JUMPI PUSH1 0x20 DUP3 ADD DUP2 DUP1 CALLDATASIZE DUP4 CALLDATACOPY ADD SWAP1 POP JUMPDEST POP SWAP1 POP DUP2 DUP2 ADD PUSH1 0x20 ADD JUMPDEST PUSH0 NOT ADD PUSH16 0x181899199A1A9B1B9C1CB0B131B232B3 PUSH1 0x81 SHL PUSH1 0xA DUP7 MOD BYTE DUP2 MSTORE8 PUSH1 0xA DUP6 DIV SWAP5 POP DUP5 PUSH2 0xA49 JUMPI POP SWAP4 SWAP3 POP POP POP JUMP JUMPDEST PUSH1 0x1 PUSH1 0x1 PUSH1 0xA0 SHL SUB DUP3 AND PUSH2 0xAA3 JUMPI PUSH1 0x40 MLOAD PUSH4 0x32505749 PUSH1 0xE1 SHL DUP2 MSTORE PUSH0 PUSH1 0x4 DUP3 ADD MSTORE PUSH1 0x24 ADD PUSH2 0x3AD JUMP JUMPDEST PUSH0 PUSH2 0xAAF DUP4 DUP4 PUSH0 PUSH2 0x687 JUMP JUMPDEST SWAP1 POP PUSH1 0x1 PUSH1 0x1 PUSH1 0xA0 SHL SUB DUP2 AND ISZERO PUSH2 0x430 JUMPI PUSH1 0x40 MLOAD PUSH4 0x39E35637 PUSH1 0xE1 SHL DUP2 MSTORE PUSH0 PUSH1 0x4 DUP3 ADD MSTORE PUSH1 0x24 ADD PUSH2 0x3AD JUMP JUMPDEST DUP1 DUP1 PUSH2 0xAEF JUMPI POP PUSH1 0x1 PUSH1 0x1 PUSH1 0xA0 SHL SUB DUP3 AND ISZERO ISZERO JUMPDEST ISZERO PUSH2 0xBB0 JUMPI PUSH0 PUSH2 0xAFE DUP5 PUSH2 0x642 JUMP JUMPDEST SWAP1 POP PUSH1 0x1 PUSH1 0x1 PUSH1 0xA0 SHL SUB DUP4 AND ISZERO DUP1 ISZERO SWAP1 PUSH2 0xB2A JUMPI POP DUP3 PUSH1 0x1 PUSH1 0x1 PUSH1 0xA0 SHL SUB AND DUP2 PUSH1 0x1 PUSH1 0x1 PUSH1 0xA0 SHL SUB AND EQ ISZERO JUMPDEST DUP1 ISZERO PUSH2 0xB3D JUMPI POP PUSH2 0xB3B DUP2 DUP5 PUSH2 0x5C8 JUMP JUMPDEST ISZERO JUMPDEST ISZERO PUSH2 0xB66 JUMPI PUSH1 0x40 MLOAD PUSH4 0xA9FBF51F PUSH1 0xE0 SHL DUP2 MSTORE PUSH1 0x1 PUSH1 0x1 PUSH1 0xA0 SHL SUB DUP5 AND PUSH1 0x4 DUP3 ADD MSTORE PUSH1 0x24 ADD PUSH2 0x3AD JUMP JUMPDEST DUP2 ISZERO PUSH2 0xBAE JUMPI DUP4 DUP6 PUSH1 0x1 PUSH1 0x1 PUSH1 0xA0 SHL SUB AND DUP3 PUSH1 0x1 PUSH1 0x1 PUSH1 0xA0 SHL SUB AND PUSH32 0x8C5BE1E5EBEC7D5BD14F71427D1E84F3DD0314C0F7B2291E5B200AC8C7C3B925 PUSH1 0x40 MLOAD PUSH1 0x40 MLOAD DUP1 SWAP2 SUB SWAP1 LOG4 JUMPDEST POP JUMPDEST POP POP PUSH0 SWAP1 DUP2 MSTORE PUSH1 0x4 PUSH1 0x20 MSTORE PUSH1 0x40 SWAP1 KECCAK256 DUP1 SLOAD PUSH1 0x1 PUSH1 0x1 PUSH1 0xA0 SHL SUB NOT AND PUSH1 0x1 PUSH1 0x1 PUSH1 0xA0 SHL SUB SWAP3 SWAP1 SWAP3 AND SWAP2 SWAP1 SWAP2 OR SWAP1 SSTORE JUMP JUMPDEST PUSH2 0xBEA DUP4 DUP4 DUP4 PUSH2 0xD1A JUMP JUMPDEST PUSH2 0x430 JUMPI PUSH1 0x1 PUSH1 0x1 PUSH1 0xA0 SHL SUB DUP4 AND PUSH2 0xC18 JUMPI PUSH1 0x40 MLOAD PUSH4 0x7E273289 PUSH1 0xE0 SHL DUP2 MSTORE PUSH1 0x4 DUP2 ADD DUP3 SWAP1 MSTORE PUSH1 0x24 ADD PUSH2 0x3AD JUMP JUMPDEST PUSH1 0x40 MLOAD PUSH4 0x177E802F PUSH1 0xE0 SHL DUP2 MSTORE PUSH1 0x1 PUSH1 0x1 PUSH1 0xA0 SHL SUB DUP4 AND PUSH1 0x4 DUP3 ADD MSTORE PUSH1 0x24 DUP2 ADD DUP3 SWAP1 MSTORE PUSH1 0x44 ADD PUSH2 0x3AD JUMP JUMPDEST PUSH0 DUP1 PUSH19 0x184F03E93FF9F4DAA797ED6E38ED64BF6A1F01 PUSH1 0x40 SHL DUP4 LT PUSH2 0xC81 JUMPI PUSH19 0x184F03E93FF9F4DAA797ED6E38ED64BF6A1F01 PUSH1 0x40 SHL DUP4 DIV SWAP3 POP PUSH1 0x40 ADD JUMPDEST PUSH14 0x4EE2D6D415B85ACEF8100000000 DUP4 LT PUSH2 0xCAD JUMPI PUSH14 0x4EE2D6D415B85ACEF8100000000 DUP4 DIV SWAP3 POP PUSH1 0x20 ADD JUMPDEST PUSH7 0x2386F26FC10000 DUP4 LT PUSH2 0xCCB JUMPI PUSH7 0x2386F26FC10000 DUP4 DIV SWAP3 POP PUSH1 0x10 ADD JUMPDEST PUSH4 0x5F5E100 DUP4 LT PUSH2 0xCE3 JUMPI PUSH4 0x5F5E100 DUP4 DIV SWAP3 POP PUSH1 0x8 ADD JUMPDEST PUSH2 0x2710 DUP4 LT PUSH2 0xCF7 JUMPI PUSH2 0x2710 DUP4 DIV SWAP3 POP PUSH1 0x4 ADD JUMPDEST PUSH1 0x64 DUP4 LT PUSH2 0xD09 JUMPI PUSH1 0x64 DUP4 DIV SWAP3 POP PUSH1 0x2 ADD JUMPDEST PUSH1 0xA DUP4 LT PUSH2 0x2BD JUMPI PUSH1 0x1 ADD SWAP3 SWAP2 POP POP JUMP JUMPDEST PUSH0 PUSH1 0x1 PUSH1 0x1 PUSH1 0xA0 SHL SUB DUP4 AND ISZERO DUP1 ISZERO SWAP1 PUSH2 0xD76 JUMPI POP DUP3 PUSH1 0x1 PUSH1 0x1 PUSH1 0xA0 SHL SUB AND DUP5 PUSH1 0x1 PUSH1 0x1 PUSH1 0xA0 SHL SUB AND EQ DUP1 PUSH2 0xD53 JUMPI POP PUSH2 0xD53 DUP5 DUP5 PUSH2 0x5C8 JUMP JUMPDEST DUP1 PUSH2 0xD76 JUMPI POP PUSH0 DUP3 DUP2 MSTORE PUSH1 0x4 PUSH1 0x20 MSTORE PUSH1 0x40 SWAP1 KECCAK256 SLOAD PUSH1 0x1 PUSH1 0x1 PUSH1 0xA0 SHL SUB DUP5 DUP2 AND SWAP2 AND EQ JUMPDEST SWAP5 SWAP4 POP POP POP POP JUMP JUMPDEST PUSH1 0x1 PUSH1 0x1 PUSH1 0xE0 SHL SUB NOT DUP2 AND DUP2 EQ PUSH2 0xD93 JUMPI PUSH0 DUP1 REVERT JUMPDEST POP JUMP JUMPDEST PUSH0 PUSH1 0x20 DUP3 DUP5 SUB SLT ISZERO PUSH2 0xDA6 JUMPI PUSH0 DUP1 REVERT JUMPDEST DUP2 CALLDATALOAD PUSH2 0x5C1 DUP2 PUSH2 0xD7E JUMP JUMPDEST PUSH0 DUP2 MLOAD DUP1 DUP5 MSTORE DUP1 PUSH1 0x20 DUP5 ADD PUSH1 0x20 DUP7 ADD MCOPY PUSH0 PUSH1 0x20 DUP3 DUP7 ADD ADD MSTORE PUSH1 0x20 PUSH1 0x1F NOT PUSH1 0x1F DUP4 ADD AND DUP6 ADD ADD SWAP2 POP POP SWAP3 SWAP2 POP POP JUMP JUMPDEST PUSH1 0x20 DUP2 MSTORE PUSH0 PUSH2 0x5C1 PUSH1 0x20 DUP4 ADD DUP5 PUSH2 0xDB1 JUMP JUMPDEST PUSH0 PUSH1 0x20 DUP3 DUP5 SUB SLT ISZERO PUSH2 0xE01 JUMPI PUSH0 DUP1 REVERT JUMPDEST POP CALLDATALOAD SWAP2 SWAP1 POP JUMP JUMPDEST DUP1 CALLDATALOAD PUSH1 0x1 PUSH1 0x1 PUSH1 0xA0 SHL SUB DUP2 AND DUP2 EQ PUSH2 0xE1E JUMPI PUSH0 DUP1 REVERT JUMPDEST SWAP2 SWAP1 POP JUMP JUMPDEST PUSH0 DUP1 PUSH1 0x40 DUP4 DUP6 SUB SLT ISZERO PUSH2 0xE34 JUMPI PUSH0 DUP1 REVERT JUMPDEST PUSH2 0xE3D DUP4 PUSH2 0xE08 JUMP JUMPDEST SWAP5 PUSH1 0x20 SWAP4 SWAP1 SWAP4 ADD CALLDATALOAD SWAP4 POP POP POP JUMP JUMPDEST PUSH0 DUP1 PUSH0 PUSH1 0x60 DUP5 DUP7 SUB SLT ISZERO PUSH2 0xE5D JUMPI PUSH0 DUP1 REVERT JUMPDEST PUSH2 0xE66 DUP5 PUSH2 0xE08 JUMP JUMPDEST SWAP3 POP PUSH2 0xE74 PUSH1 0x20 DUP6 ADD PUSH2 0xE08 JUMP JUMPDEST SWAP3 SWAP6 SWAP3 SWAP5 POP POP POP PUSH1 0x40 SWAP2 SWAP1 SWAP2 ADD CALLDATALOAD SWAP1 JUMP JUMPDEST PUSH0 PUSH1 0x20 DUP3 DUP5 SUB SLT ISZERO PUSH2 0xE95 JUMPI PUSH0 DUP1 REVERT JUMPDEST PUSH2 0x5C1 DUP3 PUSH2 0xE08 JUMP JUMPDEST PUSH0 DUP1 PUSH1 0x40 DUP4 DUP6 SUB SLT ISZERO PUSH2 0xEAF JUMPI PUSH0 DUP1 REVERT JUMPDEST PUSH2 0xEB8 DUP4 PUSH2 0xE08 JUMP JUMPDEST SWAP2 POP PUSH1 0x20 DUP4 ADD CALLDATALOAD DUP1 ISZERO ISZERO DUP2 EQ PUSH2 0xECC JUMPI PUSH0 DUP1 REVERT JUMPDEST DUP1 SWAP2 POP POP SWAP3 POP SWAP3 SWAP1 POP JUMP JUMPDEST PUSH4 0x4E487B71 PUSH1 0xE0 SHL PUSH0 MSTORE PUSH1 0x41 PUSH1 0x4 MSTORE PUSH1 0x24 PUSH0 REVERT JUMPDEST PUSH0 DUP1 PUSH8 0xFFFFFFFFFFFFFFFF DUP5 GT ISZERO PUSH2 0xF05 JUMPI PUSH2 0xF05 PUSH2 0xED7 JUMP JUMPDEST POP PUSH1 0x40 MLOAD PUSH1 0x1F NOT PUSH1 0x1F DUP6 ADD DUP2 AND PUSH1 0x3F ADD AND DUP2 ADD DUP2 DUP2 LT PUSH8 0xFFFFFFFFFFFFFFFF DUP3 GT OR ISZERO PUSH2 0xF34 JUMPI PUSH2 0xF34 PUSH2 0xED7 JUMP JUMPDEST PUSH1 0x40 MSTORE DUP4 DUP2 MSTORE SWAP1 POP DUP1 DUP3 DUP5 ADD DUP6 LT ISZERO PUSH2 0xF4B JUMPI PUSH0 DUP1 REVERT JUMPDEST DUP4 DUP4 PUSH1 0x20 DUP4 ADD CALLDATACOPY PUSH0 PUSH1 0x20 DUP6 DUP4 ADD ADD MSTORE POP SWAP4 SWAP3 POP POP POP JUMP JUMPDEST PUSH0 DUP1 PUSH0 DUP1 PUSH1 0x80 DUP6 DUP8 SUB SLT ISZERO PUSH2 0xF75 JUMPI PUSH0 DUP1 REVERT JUMPDEST PUSH2 0xF7E DUP6 PUSH2 0xE08 JUMP JUMPDEST SWAP4 POP PUSH2 0xF8C PUSH1 0x20 DUP7 ADD PUSH2 0xE08 JUMP JUMPDEST SWAP3 POP PUSH1 0x40 DUP6 ADD CALLDATALOAD SWAP2 POP PUSH1 0x60 DUP6 ADD CALLDATALOAD PUSH8 0xFFFFFFFFFFFFFFFF DUP2 GT ISZERO PUSH2 0xFAE JUMPI PUSH0 DUP1 REVERT JUMPDEST DUP6 ADD PUSH1 0x1F DUP2 ADD DUP8 SGT PUSH2 0xFBE JUMPI PUSH0 DUP1 REVERT JUMPDEST PUSH2 0xFCD DUP8 DUP3 CALLDATALOAD PUSH1 0x20 DUP5 ADD PUSH2 0xEEB JUMP JUMPDEST SWAP2 POP POP SWAP3 SWAP6 SWAP2 SWAP5 POP SWAP3 POP JUMP JUMPDEST PUSH0 DUP1 PUSH1 0x40 DUP4 DUP6 SUB SLT ISZERO PUSH2 0xFEA JUMPI PUSH0 DUP1 REVERT JUMPDEST PUSH2 0xFF3 DUP4 PUSH2 0xE08 JUMP JUMPDEST SWAP2 POP PUSH2 0x1001 PUSH1 0x20 DUP5 ADD PUSH2 0xE08 JUMP JUMPDEST SWAP1 POP SWAP3 POP SWAP3 SWAP1 POP JUMP JUMPDEST PUSH0 DUP1 PUSH1 0x40 DUP4 DUP6 SUB SLT ISZERO PUSH2 0x101B JUMPI PUSH0 DUP1 REVERT JUMPDEST PUSH2 0x1024 DUP4 PUSH2 0xE08 JUMP JUMPDEST SWAP2 POP PUSH1 0x20 DUP4 ADD CALLDATALOAD PUSH8 0xFFFFFFFFFFFFFFFF DUP2 GT ISZERO PUSH2 0x103F JUMPI PUSH0 DUP1 REVERT JUMPDEST DUP4 ADD PUSH1 0x1F DUP2 ADD DUP6 SGT PUSH2 0x104F JUMPI PUSH0 DUP1 REVERT JUMPDEST PUSH2 0x105E DUP6 DUP3 CALLDATALOAD PUSH1 0x20 DUP5 ADD PUSH2 0xEEB JUMP JUMPDEST SWAP2 POP POP SWAP3 POP SWAP3 SWAP1 POP JUMP JUMPDEST PUSH1 0x1 DUP2 DUP2 SHR SWAP1 DUP3 AND DUP1 PUSH2 0x107C JUMPI PUSH1 0x7F DUP3 AND SWAP2 POP JUMPDEST PUSH1 0x20 DUP3 LT DUP2 SUB PUSH2 0x109A JUMPI PUSH4 0x4E487B71 PUSH1 0xE0 SHL PUSH0 MSTORE PUSH1 0x22 PUSH1 0x4 MSTORE PUSH1 0x24 PUSH0 REVERT JUMPDEST POP SWAP2 SWAP1 POP JUMP JUMPDEST PUSH0 DUP2 MLOAD DUP1 PUSH1 0x20 DUP5 ADD DUP6 MCOPY PUSH0 SWAP4 ADD SWAP3 DUP4 MSTORE POP SWAP1 SWAP2 SWAP1 POP JUMP JUMPDEST PUSH0 PUSH2 0xD76 PUSH2 0x10C5 DUP4 DUP7 PUSH2 0x10A0 JUMP JUMPDEST DUP5 PUSH2 0x10A0 JUMP JUMPDEST PUSH4 0x4E487B71 PUSH1 0xE0 SHL PUSH0 MSTORE PUSH1 0x11 PUSH1 0x4 MSTORE PUSH1 0x24 PUSH0 REVERT JUMPDEST DUP1 DUP3 ADD DUP1 DUP3 GT ISZERO PUSH2 0x2BD JUMPI PUSH2 0x2BD PUSH2 0x10CB JUMP JUMPDEST PUSH1 0x1F DUP3 GT ISZERO PUSH2 0x430 JUMPI DUP1 PUSH0 MSTORE PUSH1 0x20 PUSH0 KECCAK256 PUSH1 0x1F DUP5 ADD PUSH1 0x5 SHR DUP2 ADD PUSH1 0x20 DUP6 LT ISZERO PUSH2 0x1117 JUMPI POP DUP1 JUMPDEST PUSH1 0x1F DUP5 ADD PUSH1 0x5 SHR DUP3 ADD SWAP2 POP JUMPDEST DUP2 DUP2 LT ISZERO PUSH2 0x9E3 JUMPI PUSH0 DUP2 SSTORE PUSH1 0x1 ADD PUSH2 0x1123 JUMP JUMPDEST DUP2 MLOAD PUSH8 0xFFFFFFFFFFFFFFFF DUP2 GT ISZERO PUSH2 0x1150 JUMPI PUSH2 0x1150 PUSH2 0xED7 JUMP JUMPDEST PUSH2 0x1164 DUP2 PUSH2 0x115E DUP5 SLOAD PUSH2 0x1068 JUMP JUMPDEST DUP5 PUSH2 0x10F2 JUMP JUMPDEST PUSH1 0x20 PUSH1 0x1F DUP3 GT PUSH1 0x1 DUP2 EQ PUSH2 0x1196 JUMPI PUSH0 DUP4 ISZERO PUSH2 0x117F JUMPI POP DUP5 DUP3 ADD MLOAD JUMPDEST PUSH0 NOT PUSH1 0x3 DUP6 SWAP1 SHL SHR NOT AND PUSH1 0x1 DUP5 SWAP1 SHL OR DUP5 SSTORE PUSH2 0x9E3 JUMP JUMPDEST PUSH0 DUP5 DUP2 MSTORE PUSH1 0x20 DUP2 KECCAK256 PUSH1 0x1F NOT DUP6 AND SWAP2 JUMPDEST DUP3 DUP2 LT ISZERO PUSH2 0x11C5 JUMPI DUP8 DUP6 ADD MLOAD DUP3 SSTORE PUSH1 0x20 SWAP5 DUP6 ADD SWAP5 PUSH1 0x1 SWAP1 SWAP3 ADD SWAP2 ADD PUSH2 0x11A5 JUMP JUMPDEST POP DUP5 DUP3 LT ISZERO PUSH2 0x11E2 JUMPI DUP7 DUP5 ADD MLOAD PUSH0 NOT PUSH1 0x3 DUP8 SWAP1 SHL PUSH1 0xF8 AND SHR NOT AND DUP2 SSTORE JUMPDEST POP POP POP POP PUSH1 0x1 SWAP1 DUP2 SHL ADD SWAP1 SSTORE POP JUMP JUMPDEST PUSH0 PUSH1 0x1 DUP3 ADD PUSH2 0x1202 JUMPI PUSH2 0x1202 PUSH2 0x10CB JUMP JUMPDEST POP PUSH1 0x1 ADD SWAP1 JUMP JUMPDEST PUSH1 0x1 PUSH1 0x1 PUSH1 0xA0 SHL SUB DUP6 DUP2 AND DUP3 MSTORE DUP5 AND PUSH1 0x20 DUP3 ADD MSTORE PUSH1 0x40 DUP2 ADD DUP4 SWAP1 MSTORE PUSH1 0x80 PUSH1 0x60 DUP3 ADD DUP2 SWAP1 MSTORE PUSH0 SWAP1 PUSH2 0x123B SWAP1 DUP4 ADD DUP5 PUSH2 0xDB1 JUMP JUMPDEST SWAP7 SWAP6 POP POP POP POP POP POP JUMP JUMPDEST PUSH0 PUSH1 0x20 DUP3 DUP5 SUB SLT ISZERO PUSH2 0x1255 JUMPI PUSH0 DUP1 REVERT JUMPDEST DUP2 MLOAD PUSH2 0x5C1 DUP2 PUSH2 0xD7E JUMP INVALID LOG2 PUSH5 0x6970667358 0x22 SLT KECCAK256 0x4B 0xB7 RETURNDATASIZE SLT 0xAD DUP16 0xCE PREVRANDAO 0xD5 XOR SLT PUSH29 0xEF8EC458468F835A430DA4C7FDA6D3ADB6CE61C564736F6C634300081A STOP CALLER "
				},
				"gasEstimates": {
					"creation": {
						"codeDepositCost": "951600",
						"executionCost": "infinite",
						"totalCost": "infinite"
					},
					"external": {
						"approve(address,uint256)": "31531",
						"balanceOf(address)": "2608",
						"getApproved(uint256)": "infinite",
						"isApprovedForAll(address,address)": "infinite",
						"mintNFT(address,string)": "infinite",
						"name()": "infinite",
						"nftData(uint256)": "infinite",
						"ownerOf(uint256)": "infinite",
						"safeTransferFrom(address,address,uint256)": "infinite",
						"safeTransferFrom(address,address,uint256,bytes)": "infinite",
						"setApprovalForAll(address,bool)": "26678",
						"supportsInterface(bytes4)": "531",
						"symbol()": "infinite",
						"tokenURI(uint256)": "infinite",
						"totalSupply()": "2303",
						"transferFrom(address,address,uint256)": "infinite",
						"transferNFT(address,uint256)": "102302"
					}
				},
				"methodIdentifiers": {
					"approve(address,uint256)": "095ea7b3",
					"balanceOf(address)": "70a08231",
					"getApproved(uint256)": "081812fc",
					"isApprovedForAll(address,address)": "e985e9c5",
					"mintNFT(address,string)": "eacabe14",
					"name()": "06fdde03",
					"nftData(uint256)": "8c210975",
					"ownerOf(uint256)": "6352211e",
					"safeTransferFrom(address,address,uint256)": "42842e0e",
					"safeTransferFrom(address,address,uint256,bytes)": "b88d4fde",
					"setApprovalForAll(address,bool)": "a22cb465",
					"supportsInterface(bytes4)": "01ffc9a7",
					"symbol()": "95d89b41",
					"tokenURI(uint256)": "c87b56dd",
					"totalSupply()": "18160ddd",
					"transferFrom(address,address,uint256)": "23b872dd",
					"transferNFT(address,uint256)": "94ab67fe"
				}
			},
			"storageLayout": {
				"storage": [
					{
						"astId": 169,
						"contract": "Polygon/Game_NFT.sol:GameNFT",
						"label": "_name",
						"offset": 0,
						"slot": "0",
						"type": "t_string_storage"
					},
					{
						"astId": 171,
						"contract": "Polygon/Game_NFT.sol:GameNFT",
						"label": "_symbol",
						"offset": 0,
						"slot": "1",
						"type": "t_string_storage"
					},
					{
						"astId": 175,
						"contract": "Polygon/Game_NFT.sol:GameNFT",
						"label": "_owners",
						"offset": 0,
						"slot": "2",
						"type": "t_mapping(t_uint256,t_address)"
					},
					{
						"astId": 179,
						"contract": "Polygon/Game_NFT.sol:GameNFT",
						"label": "_balances",
						"offset": 0,
						"slot": "3",
						"type": "t_mapping(t_address,t_uint256)"
					},
					{
						"astId": 183,
						"contract": "Polygon/Game_NFT.sol:GameNFT",
						"label": "_tokenApprovals",
						"offset": 0,
						"slot": "4",
						"type": "t_mapping(t_uint256,t_address)"
					},
					{
						"astId": 189,
						"contract": "Polygon/Game_NFT.sol:GameNFT",
						"label": "_operatorApprovals",
						"offset": 0,
						"slot": "5",
						"type": "t_mapping(t_address,t_mapping(t_address,t_bool))"
					},
					{
						"astId": 2797,
						"contract": "Polygon/Game_NFT.sol:GameNFT",
						"label": "nftData",
						"offset": 0,
						"slot": "6",
						"type": "t_mapping(t_uint256,t_string_storage)"
					},
					{
						"astId": 2799,
						"contract": "Polygon/Game_NFT.sol:GameNFT",
						"label": "_totalSupply",
						"offset": 0,
						"slot": "7",
						"type": "t_uint256"
					}
				],
				"types": {
					"t_address": {
						"encoding": "inplace",
						"label": "address",
						"numberOfBytes": "20"
					},
					"t_bool": {
						"encoding": "inplace",
						"label": "bool",
						"numberOfBytes": "1"
					},
					"t_mapping(t_address,t_bool)": {
						"encoding": "mapping",
						"key": "t_address",
						"label": "mapping(address => bool)",
						"numberOfBytes": "32",
						"value": "t_bool"
					},
					"t_mapping(t_address,t_mapping(t_address,t_bool))": {
						"encoding": "mapping",
						"key": "t_address",
						"label": "mapping(address => mapping(address => bool))",
						"numberOfBytes": "32",
						"value": "t_mapping(t_address,t_bool)"
					},
					"t_mapping(t_address,t_uint256)": {
						"encoding": "mapping",
						"key": "t_address",
						"label": "mapping(address => uint256)",
						"numberOfBytes": "32",
						"value": "t_uint256"
					},
					"t_mapping(t_uint256,t_address)": {
						"encoding": "mapping",
						"key": "t_uint256",
						"label": "mapping(uint256 => address)",
						"numberOfBytes": "32",
						"value": "t_address"
					},
					"t_mapping(t_uint256,t_string_storage)": {
						"encoding": "mapping",
						"key": "t_uint256",
						"label": "mapping(uint256 => string)",
						"numberOfBytes": "32",
						"value": "t_string_storage"
					},
					"t_string_storage": {
						"encoding": "bytes",
						"label": "string",
						"numberOfBytes": "32"
					},
					"t_uint256": {
						"encoding": "inplace",
						"label": "uint256",
						"numberOfBytes": "32"
					}
				}
			},
			"userdoc": {
				"kind": "user",
				"methods": {},
				"version": 1
			}
		}
	}
}