{
	"data": {
		"bytecode": {
			"linkReferences": {},
			"object": "6101606040526103e8600955348015610016575f80fd5b50604051611c07380380611c07833981016040819052610035916104c7565b604051806040016040528060078152602001662a37b6b1b7b4b760c91b81525080604051806040016040528060018152602001603160f81b815250838686816003908161008291906105d0565b50600461008f82826105d0565b5050506001600160a01b0381166100c057604051631e4fbdf760e01b81525f60048201526024015b60405180910390fd5b6100c9816101ab565b506100d58260066101fc565b610120526100e48160076101fc565b61014052815160208084019190912060e052815190820120610100524660a05261017060e05161010051604080517f8b73c3c69bb8fe3d512ecc4cf759cc79239f7b179b0ffacaa9a75d522b39400f60208201529081019290925260608201524660808201523060a08201525f9060c00160405160208183030381529060405280519060200120905090565b60805250503060c052505f600b5561018d336429e8d6080061022e565b610198336001610266565b6101a3306001610266565b505050610701565b600580546001600160a01b038381166001600160a01b0319831681179093556040519116919082907f8be0079c531659141344cd1fd0a4f28419497f9722a3daafe3b4186f6b6457e0905f90a35050565b5f6020835110156102175761021083610298565b9050610228565b8161022284826105d0565b5060ff90505b92915050565b6001600160a01b0382166102575760405163ec442f0560e01b81525f60048201526024016100b7565b6102625f83836102d5565b5050565b61026e6103fb565b6001600160a01b03919091165f908152600a60205260409020805460ff1916911515919091179055565b5f80829050601f815111156102c2578260405163305a27a960e01b81526004016100b7919061068a565b80516102cd826106bf565b179392505050565b6001600160a01b0383166102ff578060025f8282546102f491906106e2565b9091555061036f9050565b6001600160a01b0383165f90815260208190526040902054818110156103515760405163391434e360e21b81526001600160a01b038516600482015260248101829052604481018390526064016100b7565b6001600160a01b0384165f9081526020819052604090209082900390555b6001600160a01b03821661038b576002805482900390556103a9565b6001600160a01b0382165f9081526020819052604090208054820190555b816001600160a01b0316836001600160a01b03167fddf252ad1be2c89b69c2b068fc378daa952ba7f163c4a11628f55a4df523b3ef836040516103ee91815260200190565b60405180910390a3505050565b6005546001600160a01b031633146104285760405163118cdaa760e01b81523360048201526024016100b7565b565b634e487b7160e01b5f52604160045260245ffd5b5f82601f83011261044d575f80fd5b81516001600160401b038111156104665761046661042a565b604051601f8201601f19908116603f011681016001600160401b03811182821017156104945761049461042a565b6040528181528382016020018510156104ab575f80fd5b8160208501602083015e5f918101602001919091529392505050565b5f805f606084860312156104d9575f80fd5b83516001600160401b038111156104ee575f80fd5b6104fa8682870161043e565b602086015190945090506001600160401b03811115610517575f80fd5b6105238682870161043e565b604086015190935090506001600160a01b0381168114610541575f80fd5b809150509250925092565b600181811c9082168061056057607f821691505b60208210810361057e57634e487b7160e01b5f52602260045260245ffd5b50919050565b601f8211156105cb57805f5260205f20601f840160051c810160208510156105a95750805b601f840160051c820191505b818110156105c8575f81556001016105b5565b50505b505050565b81516001600160401b038111156105e9576105e961042a565b6105fd816105f7845461054c565b84610584565b6020601f82116001811461062f575f83156106185750848201515b5f19600385901b1c1916600184901b1784556105c8565b5f84815260208120601f198516915b8281101561065e578785015182556020948501946001909201910161063e565b508482101561067b57868401515f19600387901b60f8161c191681555b50505050600190811b01905550565b602081525f82518060208401528060208501604085015e5f604082850101526040601f19601f83011684010191505092915050565b8051602080830151919081101561057e575f1960209190910360031b1b16919050565b8082018082111561022857634e487b7160e01b5f52601160045260245ffd5b60805160a05160c05160e0516101005161012051610140516114b56107525f395f610c6501525f610c3801525f610b5801525f610b3001525f610a8b01525f610ab501525f610adf01526114b55ff3fe608060405234801561000f575f80fd5b50600436106101bb575f3560e01c8063715018a6116100f3578063ae7b6d1611610093578063d505accf1161006e578063d505accf14610394578063dd62ed3e146103a7578063f2fde38b146103df578063f8b2cb4f146103f2575f80fd5b8063ae7b6d1614610361578063c4e41b221461036a578063d1ecfc6814610372575f80fd5b80638da5cb5b116100ce5780638da5cb5b1461031857806395d89b41146103335780639dc29fac1461033b578063a9059cbb1461034e575f80fd5b8063715018a6146102e25780637ecebe00146102ea57806384b0196e146102fd575f80fd5b80633644e5151161015e57806340c10f191161013957806340c10f191461028c57806341550f2e1461029f578063699abb3c146102a757806370a08231146102ba575f80fd5b80633644e515146102685780633bfaa4ee146102705780633eaaf86b14610283575f80fd5b80631dc61040116101995780631dc610401461021257806323b872dd1461022757806327e235e31461023a578063313ce56714610259575f80fd5b806306fdde03146101bf578063095ea7b3146101dd57806318160ddd14610200575b5f80fd5b6101c761041a565b6040516101d49190611197565b60405180910390f35b6101f06101eb3660046111c4565b6104aa565b60405190151581526020016101d4565b6002545b6040519081526020016101d4565b6102256102203660046111ec565b6104c3565b005b6101f0610235366004611225565b6104f5565b61020461024836600461125f565b600c6020525f908152604090205481565b604051601281526020016101d4565b61020461059f565b61022561027e366004611278565b6105ad565b610204600b5481565b61022561029a3660046111c4565b6105c3565b600954610204565b6102256102b5366004611278565b610625565b6102046102c836600461125f565b6001600160a01b03165f9081526020819052604090205490565b610225610673565b6102046102f836600461125f565b610686565b6103056106a3565b6040516101d4979695949392919061128f565b6005546040516001600160a01b0390911681526020016101d4565b6101c76106e5565b6102256103493660046111c4565b6106f4565b6101f061035c3660046111c4565b6107d9565b61020460095481565b600b54610204565b6101f061038036600461125f565b600a6020525f908152604090205460ff1681565b6102256103a2366004611325565b610873565b6102046103b5366004611392565b6001600160a01b039182165f90815260016020908152604080832093909416825291909152205490565b6102256103ed36600461125f565b6109a9565b61020461040036600461125f565b6001600160a01b03165f908152600c602052604090205490565b606060038054610429906113c3565b80601f0160208091040260200160405190810160405280929190818152602001828054610455906113c3565b80156104a05780601f10610477576101008083540402835291602001916104a0565b820191905f5260205f20905b81548152906001019060200180831161048357829003601f168201915b5050505050905090565b5f336104b78185856109e3565b60019150505b92915050565b6104cb6109f5565b6001600160a01b03919091165f908152600a60205260409020805460ff1916911515919091179055565b6001600160a01b0383165f908152600a6020526040812054849060ff168061053457506001600160a01b0384165f908152600a602052604090205460ff165b1561054e57610544818585610a22565b6001915050610598565b5f61271060095485610560919061140f565b61056a9190611426565b9050610580828661057b8488611445565b610a22565b801561059157610591823083610a22565b6001925050505b9392505050565b5f6105a8610a7f565b905090565b6105b56109f5565b6105c0303383610a22565b50565b6105cb6109f5565b6105d58282610ba8565b80600b5f8282546105e69190611458565b909155505060405181815233907f28d583d62d8606a5e633032567c9051a7f6cd23ec72e29ed02f099b8da9b337f906020015b60405180910390a25050565b61062d6109f5565b6103e881111561066e5760405162461bcd60e51b81526020600482015260076024820152666d61782031302560c81b60448201526064015b60405180910390fd5b600955565b61067b6109f5565b6106845f610be0565b565b6001600160a01b0381165f908152600860205260408120546104bd565b5f6060805f805f60606106b4610c31565b6106bc610c5e565b604080515f80825260208201909252600f60f81b9b939a50919850469750309650945092509050565b606060048054610429906113c3565b6106fc6109f5565b6001600160a01b0382165f908152600c602052604090205481111561075a5760405162461bcd60e51b8152602060048201526014602482015273496e73756666696369656e742062616c616e636560601b6044820152606401610665565b6001600160a01b0382165f908152600c602052604081208054839290610781908490611445565b9250508190555080600b5f8282546107999190611445565b90915550506040518181526001600160a01b038316907fbe029b0b49e71f9c2f53474d8f605b5bcbfd4ca63361a4de4b71a765716f6f6990602001610619565b335f818152600a602052604081205490919060ff168061081057506001600160a01b0384165f908152600a602052604090205460ff165b1561082a57610820818585610a22565b60019150506104bd565b5f6127106009548561083c919061140f565b6108469190611426565b9050610857828661057b8488611445565b801561086857610868823083610a22565b506001949350505050565b834211156108975760405163313c898160e11b815260048101859052602401610665565b5f7f6e71edae12b1b97f4d1f60370fef10105fa2faae0126114a169c64845d6126c98888886108e28c6001600160a01b03165f90815260086020526040902080546001810190915590565b6040805160208101969096526001600160a01b0394851690860152929091166060840152608083015260a082015260c0810186905260e0016040516020818303038152906040528051906020012090505f61093c82610c8b565b90505f61094b82878787610cb7565b9050896001600160a01b0316816001600160a01b031614610992576040516325c0072360e11b81526001600160a01b0380831660048301528b166024820152604401610665565b61099d8a8a8a6109e3565b50505050505050505050565b6109b16109f5565b6001600160a01b0381166109da57604051631e4fbdf760e01b81525f6004820152602401610665565b6105c081610be0565b6109f08383836001610ce3565b505050565b6005546001600160a01b031633146106845760405163118cdaa760e01b8152336004820152602401610665565b6001600160a01b038316610a4b57604051634b637e8f60e11b81525f6004820152602401610665565b6001600160a01b038216610a745760405163ec442f0560e01b81525f6004820152602401610665565b6109f0838383610db6565b5f306001600160a01b037f000000000000000000000000000000000000000000000000000000000000000016148015610ad757507f000000000000000000000000000000000000000000000000000000000000000046145b15610b0157507f000000000000000000000000000000000000000000000000000000000000000090565b6105a8604080517f8b73c3c69bb8fe3d512ecc4cf759cc79239f7b179b0ffacaa9a75d522b39400f60208201527f0000000000000000000000000000000000000000000000000000000000000000918101919091527f000000000000000000000000000000000000000000000000000000000000000060608201524660808201523060a08201525f9060c00160405160208183030381529060405280519060200120905090565b6001600160a01b038216610bd15760405163ec442f0560e01b81525f6004820152602401610665565b610bdc5f8383610db6565b5050565b600580546001600160a01b038381166001600160a01b0319831681179093556040519116919082907f8be0079c531659141344cd1fd0a4f28419497f9722a3daafe3b4186f6b6457e0905f90a35050565b60606105a87f00000000000000000000000000000000000000000000000000000000000000006006610edc565b60606105a87f00000000000000000000000000000000000000000000000000000000000000006007610edc565b5f6104bd610c97610a7f565b8360405161190160f01b8152600281019290925260228201526042902090565b5f805f80610cc788888888610f85565b925092509250610cd7828261104d565b50909695505050505050565b6001600160a01b038416610d0c5760405163e602df0560e01b81525f6004820152602401610665565b6001600160a01b038316610d3557604051634a1406b160e11b81525f6004820152602401610665565b6001600160a01b038085165f9081526001602090815260408083209387168352929052208290558015610db057826001600160a01b0316846001600160a01b03167f8c5be1e5ebec7d5bd14f71427d1e84f3dd0314c0f7b2291e5b200ac8c7c3b92584604051610da791815260200190565b60405180910390a35b50505050565b6001600160a01b038316610de0578060025f828254610dd59190611458565b90915550610e509050565b6001600160a01b0383165f9081526020819052604090205481811015610e325760405163391434e360e21b81526001600160a01b03851660048201526024810182905260448101839052606401610665565b6001600160a01b0384165f9081526020819052604090209082900390555b6001600160a01b038216610e6c57600280548290039055610e8a565b6001600160a01b0382165f9081526020819052604090208054820190555b816001600160a01b0316836001600160a01b03167fddf252ad1be2c89b69c2b068fc378daa952ba7f163c4a11628f55a4df523b3ef83604051610ecf91815260200190565b60405180910390a3505050565b606060ff8314610ef657610eef83611105565b90506104bd565b818054610f02906113c3565b80601f0160208091040260200160405190810160405280929190818152602001828054610f2e906113c3565b8015610f795780601f10610f5057610100808354040283529160200191610f79565b820191905f5260205f20905b815481529060010190602001808311610f5c57829003601f168201915b505050505090506104bd565b5f80807f7fffffffffffffffffffffffffffffff5d576e7357a4501ddfe92f46681b20a0841115610fbe57505f91506003905082611043565b604080515f808252602082018084528a905260ff891692820192909252606081018790526080810186905260019060a0016020604051602081039080840390855afa15801561100f573d5f803e3d5ffd5b5050604051601f1901519150506001600160a01b03811661103a57505f925060019150829050611043565b92505f91508190505b9450945094915050565b5f8260038111156110605761106061146b565b03611069575050565b600182600381111561107d5761107d61146b565b0361109b5760405163f645eedf60e01b815260040160405180910390fd5b60028260038111156110af576110af61146b565b036110d05760405163fce698f760e01b815260048101829052602401610665565b60038260038111156110e4576110e461146b565b03610bdc576040516335e2f38360e21b815260048101829052602401610665565b60605f61111183611142565b6040805160208082528183019092529192505f91906020820181803683375050509182525060208101929092525090565b5f60ff8216601f8111156104bd57604051632cd44ac360e21b815260040160405180910390fd5b5f81518084528060208401602086015e5f602082860101526020601f19601f83011685010191505092915050565b602081525f6105986020830184611169565b80356001600160a01b03811681146111bf575f80fd5b919050565b5f80604083850312156111d5575f80fd5b6111de836111a9565b946020939093013593505050565b5f80604083850312156111fd575f80fd5b611206836111a9565b91506020830135801515811461121a575f80fd5b809150509250929050565b5f805f60608486031215611237575f80fd5b611240846111a9565b925061124e602085016111a9565b929592945050506040919091013590565b5f6020828403121561126f575f80fd5b610598826111a9565b5f60208284031215611288575f80fd5b5035919050565b60ff60f81b8816815260e060208201525f6112ad60e0830189611169565b82810360408401526112bf8189611169565b606084018890526001600160a01b038716608085015260a0840186905283810360c0850152845180825260208087019350909101905f5b818110156113145783518352602093840193909201916001016112f6565b50909b9a5050505050505050505050565b5f805f805f805f60e0888a03121561133b575f80fd5b611344886111a9565b9650611352602089016111a9565b95506040880135945060608801359350608088013560ff81168114611375575f80fd5b9699959850939692959460a0840135945060c09093013592915050565b5f80604083850312156113a3575f80fd5b6113ac836111a9565b91506113ba602084016111a9565b90509250929050565b600181811c908216806113d757607f821691505b6020821081036113f557634e487b7160e01b5f52602260045260245ffd5b50919050565b634e487b7160e01b5f52601160045260245ffd5b80820281158282048414176104bd576104bd6113fb565b5f8261144057634e487b7160e01b5f52601260045260245ffd5b500490565b818103818111156104bd576104bd6113fb565b808201808211156104bd576104bd6113fb565b634e487b7160e01b5f52602160045260245ffdfea2646970667358221220dc09f6e85351f60c1b59ba2ce37ba31fc5554745909a055eb049e85e4157271464736f6c634300081a0033",
			"opcodes": "PUSH2 0x160 PUSH1 0x40 MSTORE PUSH2 0x3E8 PUSH1 0x9 SSTORE CALLVALUE DUP1 ISZERO PUSH2 0x16 JUMPI PUSH0 DUP1 REVERT JUMPDEST POP PUSH1 0x40 MLOAD PUSH2 0x1C07 CODESIZE SUB DUP1 PUSH2 0x1C07 DUP4 CODECOPY DUP2 ADD PUSH1 0x40 DUP2 SWAP1 MSTORE PUSH2 0x35 SWAP2 PUSH2 0x4C7 JUMP JUMPDEST PUSH1 0x40 MLOAD DUP1 PUSH1 0x40 ADD PUSH1 0x40 MSTORE DUP1 PUSH1 0x7 DUP2 MSTORE PUSH1 0x20 ADD PUSH7 0x2A37B6B1B7B4B7 PUSH1 0xC9 SHL DUP2 MSTORE POP DUP1 PUSH1 0x40 MLOAD DUP1 PUSH1 0x40 ADD PUSH1 0x40 MSTORE DUP1 PUSH1 0x1 DUP2 MSTORE PUSH1 0x20 ADD PUSH1 0x31 PUSH1 0xF8 SHL DUP2 MSTORE POP DUP4 DUP7 DUP7 DUP2 PUSH1 0x3 SWAP1 DUP2 PUSH2 0x82 SWAP2 SWAP1 PUSH2 0x5D0 JUMP JUMPDEST POP PUSH1 0x4 PUSH2 0x8F DUP3 DUP3 PUSH2 0x5D0 JUMP JUMPDEST POP POP POP PUSH1 0x1 PUSH1 0x1 PUSH1 0xA0 SHL SUB DUP2 AND PUSH2 0xC0 JUMPI PUSH1 0x40 MLOAD PUSH4 0x1E4FBDF7 PUSH1 0xE0 SHL DUP2 MSTORE PUSH0 PUSH1 0x4 DUP3 ADD MSTORE PUSH1 0x24 ADD JUMPDEST PUSH1 0x40 MLOAD DUP1 SWAP2 SUB SWAP1 REVERT JUMPDEST PUSH2 0xC9 DUP2 PUSH2 0x1AB JUMP JUMPDEST POP PUSH2 0xD5 DUP3 PUSH1 0x6 PUSH2 0x1FC JUMP JUMPDEST PUSH2 0x120 MSTORE PUSH2 0xE4 DUP2 PUSH1 0x7 PUSH2 0x1FC JUMP JUMPDEST PUSH2 0x140 MSTORE DUP2 MLOAD PUSH1 0x20 DUP1 DUP5 ADD SWAP2 SWAP1 SWAP2 KECCAK256 PUSH1 0xE0 MSTORE DUP2 MLOAD SWAP1 DUP3 ADD KECCAK256 PUSH2 0x100 MSTORE CHAINID PUSH1 0xA0 MSTORE PUSH2 0x170 PUSH1 0xE0 MLOAD PUSH2 0x100 MLOAD PUSH1 0x40 DUP1 MLOAD PUSH32 0x8B73C3C69BB8FE3D512ECC4CF759CC79239F7B179B0FFACAA9A75D522B39400F PUSH1 0x20 DUP3 ADD MSTORE SWAP1 DUP2 ADD SWAP3 SWAP1 SWAP3 MSTORE PUSH1 0x60 DUP3 ADD MSTORE CHAINID PUSH1 0x80 DUP3 ADD MSTORE ADDRESS PUSH1 0xA0 DUP3 ADD MSTORE PUSH0 SWAP1 PUSH1 0xC0 ADD PUSH1 0x40 MLOAD PUSH1 0x20 DUP2 DUP4 SUB SUB DUP2 MSTORE SWAP1 PUSH1 0x40 MSTORE DUP1 MLOAD SWAP1 PUSH1 0x20 ADD KECCAK256 SWAP1 POP SWAP1 JUMP JUMPDEST PUSH1 0x80 MSTORE POP POP ADDRESS PUSH1 0xC0 MSTORE POP PUSH0 PUSH1 0xB SSTORE PUSH2 0x18D CALLER PUSH5 0x29E8D60800 PUSH2 0x22E JUMP JUMPDEST PUSH2 0x198 CALLER PUSH1 0x1 PUSH2 0x266 JUMP JUMPDEST PUSH2 0x1A3 ADDRESS PUSH1 0x1 PUSH2 0x266 JUMP JUMPDEST POP POP POP PUSH2 0x701 JUMP JUMPDEST PUSH1 0x5 DUP1 SLOAD PUSH1 0x1 PUSH1 0x1 PUSH1 0xA0 SHL SUB DUP4 DUP2 AND PUSH1 0x1 PUSH1 0x1 PUSH1 0xA0 SHL SUB NOT DUP4 AND DUP2 OR SWAP1 SWAP4 SSTORE PUSH1 0x40 MLOAD SWAP2 AND SWAP2 SWAP1 DUP3 SWAP1 PUSH32 0x8BE0079C531659141344CD1FD0A4F28419497F9722A3DAAFE3B4186F6B6457E0 SWAP1 PUSH0 SWAP1 LOG3 POP POP JUMP JUMPDEST PUSH0 PUSH1 0x20 DUP4 MLOAD LT ISZERO PUSH2 0x217 JUMPI PUSH2 0x210 DUP4 PUSH2 0x298 JUMP JUMPDEST SWAP1 POP PUSH2 0x228 JUMP JUMPDEST DUP2 PUSH2 0x222 DUP5 DUP3 PUSH2 0x5D0 JUMP JUMPDEST POP PUSH1 0xFF SWAP1 POP JUMPDEST SWAP3 SWAP2 POP POP JUMP JUMPDEST PUSH1 0x1 PUSH1 0x1 PUSH1 0xA0 SHL SUB DUP3 AND PUSH2 0x257 JUMPI PUSH1 0x40 MLOAD PUSH4 0xEC442F05 PUSH1 0xE0 SHL DUP2 MSTORE PUSH0 PUSH1 0x4 DUP3 ADD MSTORE PUSH1 0x24 ADD PUSH2 0xB7 JUMP JUMPDEST PUSH2 0x262 PUSH0 DUP4 DUP4 PUSH2 0x2D5 JUMP JUMPDEST POP POP JUMP JUMPDEST PUSH2 0x26E PUSH2 0x3FB JUMP JUMPDEST PUSH1 0x1 PUSH1 0x1 PUSH1 0xA0 SHL SUB SWAP2 SWAP1 SWAP2 AND PUSH0 SWAP1 DUP2 MSTORE PUSH1 0xA PUSH1 0x20 MSTORE PUSH1 0x40 SWAP1 KECCAK256 DUP1 SLOAD PUSH1 0xFF NOT AND SWAP2 ISZERO ISZERO SWAP2 SWAP1 SWAP2 OR SWAP1 SSTORE JUMP JUMPDEST PUSH0 DUP1 DUP3 SWAP1 POP PUSH1 0x1F DUP2 MLOAD GT ISZERO PUSH2 0x2C2 JUMPI DUP3 PUSH1 0x40 MLOAD PUSH4 0x305A27A9 PUSH1 0xE0 SHL DUP2 MSTORE PUSH1 0x4 ADD PUSH2 0xB7 SWAP2 SWAP1 PUSH2 0x68A JUMP JUMPDEST DUP1 MLOAD PUSH2 0x2CD DUP3 PUSH2 0x6BF JUMP JUMPDEST OR SWAP4 SWAP3 POP POP POP JUMP JUMPDEST PUSH1 0x1 PUSH1 0x1 PUSH1 0xA0 SHL SUB DUP4 AND PUSH2 0x2FF JUMPI DUP1 PUSH1 0x2 PUSH0 DUP3 DUP3 SLOAD PUSH2 0x2F4 SWAP2 SWAP1 PUSH2 0x6E2 JUMP JUMPDEST SWAP1 SWAP2 SSTORE POP PUSH2 0x36F SWAP1 POP JUMP JUMPDEST PUSH1 0x1 PUSH1 0x1 PUSH1 0xA0 SHL SUB DUP4 AND PUSH0 SWAP1 DUP2 MSTORE PUSH1 0x20 DUP2 SWAP1 MSTORE PUSH1 0x40 SWAP1 KECCAK256 SLOAD DUP2 DUP2 LT ISZERO PUSH2 0x351 JUMPI PUSH1 0x40 MLOAD PUSH4 0x391434E3 PUSH1 0xE2 SHL DUP2 MSTORE PUSH1 0x1 PUSH1 0x1 PUSH1 0xA0 SHL SUB DUP6 AND PUSH1 0x4 DUP3 ADD MSTORE PUSH1 0x24 DUP2 ADD DUP3 SWAP1 MSTORE PUSH1 0x44 DUP2 ADD DUP4 SWAP1 MSTORE PUSH1 0x64 ADD PUSH2 0xB7 JUMP JUMPDEST PUSH1 0x1 PUSH1 0x1 PUSH1 0xA0 SHL SUB DUP5 AND PUSH0 SWAP1 DUP2 MSTORE PUSH1 0x20 DUP2 SWAP1 MSTORE PUSH1 0x40 SWAP1 KECCAK256 SWAP1 DUP3 SWAP1 SUB SWAP1 SSTORE JUMPDEST PUSH1 0x1 PUSH1 0x1 PUSH1 0xA0 SHL SUB DUP3 AND PUSH2 0x38B JUMPI PUSH1 0x2 DUP1 SLOAD DUP3 SWAP1 SUB SWAP1 SSTORE PUSH2 0x3A9 JUMP JUMPDEST PUSH1 0x1 PUSH1 0x1 PUSH1 0xA0 SHL SUB DUP3 AND PUSH0 SWAP1 DUP2 MSTORE PUSH1 0x20 DUP2 SWAP1 MSTORE PUSH1 0x40 SWAP1 KECCAK256 DUP1 SLOAD DUP3 ADD SWAP1 SSTORE JUMPDEST DUP2 PUSH1 0x1 PUSH1 0x1 PUSH1 0xA0 SHL SUB AND DUP4 PUSH1 0x1 PUSH1 0x1 PUSH1 0xA0 SHL SUB AND PUSH32 0xDDF252AD1BE2C89B69C2B068FC378DAA952BA7F163C4A11628F55A4DF523B3EF DUP4 PUSH1 0x40 MLOAD PUSH2 0x3EE SWAP2 DUP2 MSTORE PUSH1 0x20 ADD SWAP1 JUMP JUMPDEST PUSH1 0x40 MLOAD DUP1 SWAP2 SUB SWAP1 LOG3 POP POP POP JUMP JUMPDEST PUSH1 0x5 SLOAD PUSH1 0x1 PUSH1 0x1 PUSH1 0xA0 SHL SUB AND CALLER EQ PUSH2 0x428 JUMPI PUSH1 0x40 MLOAD PUSH4 0x118CDAA7 PUSH1 0xE0 SHL DUP2 MSTORE CALLER PUSH1 0x4 DUP3 ADD MSTORE PUSH1 0x24 ADD PUSH2 0xB7 JUMP JUMPDEST JUMP JUMPDEST PUSH4 0x4E487B71 PUSH1 0xE0 SHL PUSH0 MSTORE PUSH1 0x41 PUSH1 0x4 MSTORE PUSH1 0x24 PUSH0 REVERT JUMPDEST PUSH0 DUP3 PUSH1 0x1F DUP4 ADD SLT PUSH2 0x44D JUMPI PUSH0 DUP1 REVERT JUMPDEST DUP2 MLOAD PUSH1 0x1 PUSH1 0x1 PUSH1 0x40 SHL SUB DUP2 GT ISZERO PUSH2 0x466 JUMPI PUSH2 0x466 PUSH2 0x42A JUMP JUMPDEST PUSH1 0x40 MLOAD PUSH1 0x1F DUP3 ADD PUSH1 0x1F NOT SWAP1 DUP2 AND PUSH1 0x3F ADD AND DUP2 ADD PUSH1 0x1 PUSH1 0x1 PUSH1 0x40 SHL SUB DUP2 GT DUP3 DUP3 LT OR ISZERO PUSH2 0x494 JUMPI PUSH2 0x494 PUSH2 0x42A JUMP JUMPDEST PUSH1 0x40 MSTORE DUP2 DUP2 MSTORE DUP4 DUP3 ADD PUSH1 0x20 ADD DUP6 LT ISZERO PUSH2 0x4AB JUMPI PUSH0 DUP1 REVERT JUMPDEST DUP2 PUSH1 0x20 DUP6 ADD PUSH1 0x20 DUP4 ADD MCOPY PUSH0 SWAP2 DUP2 ADD PUSH1 0x20 ADD SWAP2 SWAP1 SWAP2 MSTORE SWAP4 SWAP3 POP POP POP JUMP JUMPDEST PUSH0 DUP1 PUSH0 PUSH1 0x60 DUP5 DUP7 SUB SLT ISZERO PUSH2 0x4D9 JUMPI PUSH0 DUP1 REVERT JUMPDEST DUP4 MLOAD PUSH1 0x1 PUSH1 0x1 PUSH1 0x40 SHL SUB DUP2 GT ISZERO PUSH2 0x4EE JUMPI PUSH0 DUP1 REVERT JUMPDEST PUSH2 0x4FA DUP7 DUP3 DUP8 ADD PUSH2 0x43E JUMP JUMPDEST PUSH1 0x20 DUP7 ADD MLOAD SWAP1 SWAP5 POP SWAP1 POP PUSH1 0x1 PUSH1 0x1 PUSH1 0x40 SHL SUB DUP2 GT ISZERO PUSH2 0x517 JUMPI PUSH0 DUP1 REVERT JUMPDEST PUSH2 0x523 DUP7 DUP3 DUP8 ADD PUSH2 0x43E JUMP JUMPDEST PUSH1 0x40 DUP7 ADD MLOAD SWAP1 SWAP4 POP SWAP1 POP PUSH1 0x1 PUSH1 0x1 PUSH1 0xA0 SHL SUB DUP2 AND DUP2 EQ PUSH2 0x541 JUMPI PUSH0 DUP1 REVERT JUMPDEST DUP1 SWAP2 POP POP SWAP3 POP SWAP3 POP SWAP3 JUMP JUMPDEST PUSH1 0x1 DUP2 DUP2 SHR SWAP1 DUP3 AND DUP1 PUSH2 0x560 JUMPI PUSH1 0x7F DUP3 AND SWAP2 POP JUMPDEST PUSH1 0x20 DUP3 LT DUP2 SUB PUSH2 0x57E JUMPI PUSH4 0x4E487B71 PUSH1 0xE0 SHL PUSH0 MSTORE PUSH1 0x22 PUSH1 0x4 MSTORE PUSH1 0x24 PUSH0 REVERT JUMPDEST POP SWAP2 SWAP1 POP JUMP JUMPDEST PUSH1 0x1F DUP3 GT ISZERO PUSH2 0x5CB JUMPI DUP1 PUSH0 MSTORE PUSH1 0x20 PUSH0 KECCAK256 PUSH1 0x1F DUP5 ADD PUSH1 0x5 SHR DUP2 ADD PUSH1 0x20 DUP6 LT ISZERO PUSH2 0x5A9 JUMPI POP DUP1 JUMPDEST PUSH1 0x1F DUP5 ADD PUSH1 0x5 SHR DUP3 ADD SWAP2 POP JUMPDEST DUP2 DUP2 LT ISZERO PUSH2 0x5C8 JUMPI PUSH0 DUP2 SSTORE PUSH1 0x1 ADD PUSH2 0x5B5 JUMP JUMPDEST POP POP JUMPDEST POP POP POP JUMP JUMPDEST DUP2 MLOAD PUSH1 0x1 PUSH1 0x1 PUSH1 0x40 SHL SUB DUP2 GT ISZERO PUSH2 0x5E9 JUMPI PUSH2 0x5E9 PUSH2 0x42A JUMP JUMPDEST PUSH2 0x5FD DUP2 PUSH2 0x5F7 DUP5 SLOAD PUSH2 0x54C JUMP JUMPDEST DUP5 PUSH2 0x584 JUMP JUMPDEST PUSH1 0x20 PUSH1 0x1F DUP3 GT PUSH1 0x1 DUP2 EQ PUSH2 0x62F JUMPI PUSH0 DUP4 ISZERO PUSH2 0x618 JUMPI POP DUP5 DUP3 ADD MLOAD JUMPDEST PUSH0 NOT PUSH1 0x3 DUP6 SWAP1 SHL SHR NOT AND PUSH1 0x1 DUP5 SWAP1 SHL OR DUP5 SSTORE PUSH2 0x5C8 JUMP JUMPDEST PUSH0 DUP5 DUP2 MSTORE PUSH1 0x20 DUP2 KECCAK256 PUSH1 0x1F NOT DUP6 AND SWAP2 JUMPDEST DUP3 DUP2 LT ISZERO PUSH2 0x65E JUMPI DUP8 DUP6 ADD MLOAD DUP3 SSTORE PUSH1 0x20 SWAP5 DUP6 ADD SWAP5 PUSH1 0x1 SWAP1 SWAP3 ADD SWAP2 ADD PUSH2 0x63E JUMP JUMPDEST POP DUP5 DUP3 LT ISZERO PUSH2 0x67B JUMPI DUP7 DUP5 ADD MLOAD PUSH0 NOT PUSH1 0x3 DUP8 SWAP1 SHL PUSH1 0xF8 AND SHR NOT AND DUP2 SSTORE JUMPDEST POP POP POP POP PUSH1 0x1 SWAP1 DUP2 SHL ADD SWAP1 SSTORE POP JUMP JUMPDEST PUSH1 0x20 DUP2 MSTORE PUSH0 DUP3 MLOAD DUP1 PUSH1 0x20 DUP5 ADD MSTORE DUP1 PUSH1 0x20 DUP6 ADD PUSH1 0x40 DUP6 ADD MCOPY PUSH0 PUSH1 0x40 DUP3 DUP6 ADD ADD MSTORE PUSH1 0x40 PUSH1 0x1F NOT PUSH1 0x1F DUP4 ADD AND DUP5 ADD ADD SWAP2 POP POP SWAP3 SWAP2 POP POP JUMP JUMPDEST DUP1 MLOAD PUSH1 0x20 DUP1 DUP4 ADD MLOAD SWAP2 SWAP1 DUP2 LT ISZERO PUSH2 0x57E JUMPI PUSH0 NOT PUSH1 0x20 SWAP2 SWAP1 SWAP2 SUB PUSH1 0x3 SHL SHL AND SWAP2 SWAP1 POP JUMP JUMPDEST DUP1 DUP3 ADD DUP1 DUP3 GT ISZERO PUSH2 0x228 JUMPI PUSH4 0x4E487B71 PUSH1 0xE0 SHL PUSH0 MSTORE PUSH1 0x11 PUSH1 0x4 MSTORE PUSH1 0x24 PUSH0 REVERT JUMPDEST PUSH1 0x80 MLOAD PUSH1 0xA0 MLOAD PUSH1 0xC0 MLOAD PUSH1 0xE0 MLOAD PUSH2 0x100 MLOAD PUSH2 0x120 MLOAD PUSH2 0x140 MLOAD PUSH2 0x14B5 PUSH2 0x752 PUSH0 CODECOPY PUSH0 PUSH2 0xC65 ADD MSTORE PUSH0 PUSH2 0xC38 ADD MSTORE PUSH0 PUSH2 0xB58 ADD MSTORE PUSH0 PUSH2 0xB30 ADD MSTORE PUSH0 PUSH2 0xA8B ADD MSTORE PUSH0 PUSH2 0xAB5 ADD MSTORE PUSH0 PUSH2 0xADF ADD MSTORE PUSH2 0x14B5 PUSH0 RETURN INVALID PUSH1 0x80 PUSH1 0x40 MSTORE CALLVALUE DUP1 ISZERO PUSH2 0xF JUMPI PUSH0 DUP1 REVERT JUMPDEST POP PUSH1 0x4 CALLDATASIZE LT PUSH2 0x1BB JUMPI PUSH0 CALLDATALOAD PUSH1 0xE0 SHR DUP1 PUSH4 0x715018A6 GT PUSH2 0xF3 JUMPI DUP1 PUSH4 0xAE7B6D16 GT PUSH2 0x93 JUMPI DUP1 PUSH4 0xD505ACCF GT PUSH2 0x6E JUMPI DUP1 PUSH4 0xD505ACCF EQ PUSH2 0x394 JUMPI DUP1 PUSH4 0xDD62ED3E EQ PUSH2 0x3A7 JUMPI DUP1 PUSH4 0xF2FDE38B EQ PUSH2 0x3DF JUMPI DUP1 PUSH4 0xF8B2CB4F EQ PUSH2 0x3F2 JUMPI PUSH0 DUP1 REVERT JUMPDEST DUP1 PUSH4 0xAE7B6D16 EQ PUSH2 0x361 JUMPI DUP1 PUSH4 0xC4E41B22 EQ PUSH2 0x36A JUMPI DUP1 PUSH4 0xD1ECFC68 EQ PUSH2 0x372 JUMPI PUSH0 DUP1 REVERT JUMPDEST DUP1 PUSH4 0x8DA5CB5B GT PUSH2 0xCE JUMPI DUP1 PUSH4 0x8DA5CB5B EQ PUSH2 0x318 JUMPI DUP1 PUSH4 0x95D89B41 EQ PUSH2 0x333 JUMPI DUP1 PUSH4 0x9DC29FAC EQ PUSH2 0x33B JUMPI DUP1 PUSH4 0xA9059CBB EQ PUSH2 0x34E JUMPI PUSH0 DUP1 REVERT JUMPDEST DUP1 PUSH4 0x715018A6 EQ PUSH2 0x2E2 JUMPI DUP1 PUSH4 0x7ECEBE00 EQ PUSH2 0x2EA JUMPI DUP1 PUSH4 0x84B0196E EQ PUSH2 0x2FD JUMPI PUSH0 DUP1 REVERT JUMPDEST DUP1 PUSH4 0x3644E515 GT PUSH2 0x15E JUMPI DUP1 PUSH4 0x40C10F19 GT PUSH2 0x139 JUMPI DUP1 PUSH4 0x40C10F19 EQ PUSH2 0x28C JUMPI DUP1 PUSH4 0x41550F2E EQ PUSH2 0x29F JUMPI DUP1 PUSH4 0x699ABB3C EQ PUSH2 0x2A7 JUMPI DUP1 PUSH4 0x70A08231 EQ PUSH2 0x2BA JUMPI PUSH0 DUP1 REVERT JUMPDEST DUP1 PUSH4 0x3644E515 EQ PUSH2 0x268 JUMPI DUP1 PUSH4 0x3BFAA4EE EQ PUSH2 0x270 JUMPI DUP1 PUSH4 0x3EAAF86B EQ PUSH2 0x283 JUMPI PUSH0 DUP1 REVERT JUMPDEST DUP1 PUSH4 0x1DC61040 GT PUSH2 0x199 JUMPI DUP1 PUSH4 0x1DC61040 EQ PUSH2 0x212 JUMPI DUP1 PUSH4 0x23B872DD EQ PUSH2 0x227 JUMPI DUP1 PUSH4 0x27E235E3 EQ PUSH2 0x23A JUMPI DUP1 PUSH4 0x313CE567 EQ PUSH2 0x259 JUMPI PUSH0 DUP1 REVERT JUMPDEST DUP1 PUSH4 0x6FDDE03 EQ PUSH2 0x1BF JUMPI DUP1 PUSH4 0x95EA7B3 EQ PUSH2 0x1DD JUMPI DUP1 PUSH4 0x18160DDD EQ PUSH2 0x200 JUMPI JUMPDEST PUSH0 DUP1 REVERT JUMPDEST PUSH2 0x1C7 PUSH2 0x41A JUMP JUMPDEST PUSH1 0x40 MLOAD PUSH2 0x1D4 SWAP2 SWAP1 PUSH2 0x1197 JUMP JUMPDEST PUSH1 0x40 MLOAD DUP1 SWAP2 SUB SWAP1 RETURN JUMPDEST PUSH2 0x1F0 PUSH2 0x1EB CALLDATASIZE PUSH1 0x4 PUSH2 0x11C4 JUMP JUMPDEST PUSH2 0x4AA JUMP JUMPDEST PUSH1 0x40 MLOAD SWAP1 ISZERO ISZERO DUP2 MSTORE PUSH1 0x20 ADD PUSH2 0x1D4 JUMP JUMPDEST PUSH1 0x2 SLOAD JUMPDEST PUSH1 0x40 MLOAD SWAP1 DUP2 MSTORE PUSH1 0x20 ADD PUSH2 0x1D4 JUMP JUMPDEST PUSH2 0x225 PUSH2 0x220 CALLDATASIZE PUSH1 0x4 PUSH2 0x11EC JUMP JUMPDEST PUSH2 0x4C3 JUMP JUMPDEST STOP JUMPDEST PUSH2 0x1F0 PUSH2 0x235 CALLDATASIZE PUSH1 0x4 PUSH2 0x1225 JUMP JUMPDEST PUSH2 0x4F5 JUMP JUMPDEST PUSH2 0x204 PUSH2 0x248 CALLDATASIZE PUSH1 0x4 PUSH2 0x125F JUMP JUMPDEST PUSH1 0xC PUSH1 0x20 MSTORE PUSH0 SWAP1 DUP2 MSTORE PUSH1 0x40 SWAP1 KECCAK256 SLOAD DUP2 JUMP JUMPDEST PUSH1 0x40 MLOAD PUSH1 0x12 DUP2 MSTORE PUSH1 0x20 ADD PUSH2 0x1D4 JUMP JUMPDEST PUSH2 0x204 PUSH2 0x59F JUMP JUMPDEST PUSH2 0x225 PUSH2 0x27E CALLDATASIZE PUSH1 0x4 PUSH2 0x1278 JUMP JUMPDEST PUSH2 0x5AD JUMP JUMPDEST PUSH2 0x204 PUSH1 0xB SLOAD DUP2 JUMP JUMPDEST PUSH2 0x225 PUSH2 0x29A CALLDATASIZE PUSH1 0x4 PUSH2 0x11C4 JUMP JUMPDEST PUSH2 0x5C3 JUMP JUMPDEST PUSH1 0x9 SLOAD PUSH2 0x204 JUMP JUMPDEST PUSH2 0x225 PUSH2 0x2B5 CALLDATASIZE PUSH1 0x4 PUSH2 0x1278 JUMP JUMPDEST PUSH2 0x625 JUMP JUMPDEST PUSH2 0x204 PUSH2 0x2C8 CALLDATASIZE PUSH1 0x4 PUSH2 0x125F JUMP JUMPDEST PUSH1 0x1 PUSH1 0x1 PUSH1 0xA0 SHL SUB AND PUSH0 SWAP1 DUP2 MSTORE PUSH1 0x20 DUP2 SWAP1 MSTORE PUSH1 0x40 SWAP1 KECCAK256 SLOAD SWAP1 JUMP JUMPDEST PUSH2 0x225 PUSH2 0x673 JUMP JUMPDEST PUSH2 0x204 PUSH2 0x2F8 CALLDATASIZE PUSH1 0x4 PUSH2 0x125F JUMP JUMPDEST PUSH2 0x686 JUMP JUMPDEST PUSH2 0x305 PUSH2 0x6A3 JUMP JUMPDEST PUSH1 0x40 MLOAD PUSH2 0x1D4 SWAP8 SWAP7 SWAP6 SWAP5 SWAP4 SWAP3 SWAP2 SWAP1 PUSH2 0x128F JUMP JUMPDEST PUSH1 0x5 SLOAD PUSH1 0x40 MLOAD PUSH1 0x1 PUSH1 0x1 PUSH1 0xA0 SHL SUB SWAP1 SWAP2 AND DUP2 MSTORE PUSH1 0x20 ADD PUSH2 0x1D4 JUMP JUMPDEST PUSH2 0x1C7 PUSH2 0x6E5 JUMP JUMPDEST PUSH2 0x225 PUSH2 0x349 CALLDATASIZE PUSH1 0x4 PUSH2 0x11C4 JUMP JUMPDEST PUSH2 0x6F4 JUMP JUMPDEST PUSH2 0x1F0 PUSH2 0x35C CALLDATASIZE PUSH1 0x4 PUSH2 0x11C4 JUMP JUMPDEST PUSH2 0x7D9 JUMP JUMPDEST PUSH2 0x204 PUSH1 0x9 SLOAD DUP2 JUMP JUMPDEST PUSH1 0xB SLOAD PUSH2 0x204 JUMP JUMPDEST PUSH2 0x1F0 PUSH2 0x380 CALLDATASIZE PUSH1 0x4 PUSH2 0x125F JUMP JUMPDEST PUSH1 0xA PUSH1 0x20 MSTORE PUSH0 SWAP1 DUP2 MSTORE PUSH1 0x40 SWAP1 KECCAK256 SLOAD PUSH1 0xFF AND DUP2 JUMP JUMPDEST PUSH2 0x225 PUSH2 0x3A2 CALLDATASIZE PUSH1 0x4 PUSH2 0x1325 JUMP JUMPDEST PUSH2 0x873 JUMP JUMPDEST PUSH2 0x204 PUSH2 0x3B5 CALLDATASIZE PUSH1 0x4 PUSH2 0x1392 JUMP JUMPDEST PUSH1 0x1 PUSH1 0x1 PUSH1 0xA0 SHL SUB SWAP2 DUP3 AND PUSH0 SWAP1 DUP2 MSTORE PUSH1 0x1 PUSH1 0x20 SWAP1 DUP2 MSTORE PUSH1 0x40 DUP1 DUP4 KECCAK256 SWAP4 SWAP1 SWAP5 AND DUP3 MSTORE SWAP2 SWAP1 SWAP2 MSTORE KECCAK256 SLOAD SWAP1 JUMP JUMPDEST PUSH2 0x225 PUSH2 0x3ED CALLDATASIZE PUSH1 0x4 PUSH2 0x125F JUMP JUMPDEST PUSH2 0x9A9 JUMP JUMPDEST PUSH2 0x204 PUSH2 0x400 CALLDATASIZE PUSH1 0x4 PUSH2 0x125F JUMP JUMPDEST PUSH1 0x1 PUSH1 0x1 PUSH1 0xA0 SHL SUB AND PUSH0 SWAP1 DUP2 MSTORE PUSH1 0xC PUSH1 0x20 MSTORE PUSH1 0x40 SWAP1 KECCAK256 SLOAD SWAP1 JUMP JUMPDEST PUSH1 0x60 PUSH1 0x3 DUP1 SLOAD PUSH2 0x429 SWAP1 PUSH2 0x13C3 JUMP JUMPDEST DUP1 PUSH1 0x1F ADD PUSH1 0x20 DUP1 SWAP2 DIV MUL PUSH1 0x20 ADD PUSH1 0x40 MLOAD SWAP1 DUP2 ADD PUSH1 0x40 MSTORE DUP1 SWAP3 SWAP2 SWAP1 DUP2 DUP2 MSTORE PUSH1 0x20 ADD DUP3 DUP1 SLOAD PUSH2 0x455 SWAP1 PUSH2 0x13C3 JUMP JUMPDEST DUP1 ISZERO PUSH2 0x4A0 JUMPI DUP1 PUSH1 0x1F LT PUSH2 0x477 JUMPI PUSH2 0x100 DUP1 DUP4 SLOAD DIV MUL DUP4 MSTORE SWAP2 PUSH1 0x20 ADD SWAP2 PUSH2 0x4A0 JUMP JUMPDEST DUP3 ADD SWAP2 SWAP1 PUSH0 MSTORE PUSH1 0x20 PUSH0 KECCAK256 SWAP1 JUMPDEST DUP2 SLOAD DUP2 MSTORE SWAP1 PUSH1 0x1 ADD SWAP1 PUSH1 0x20 ADD DUP1 DUP4 GT PUSH2 0x483 JUMPI DUP3 SWAP1 SUB PUSH1 0x1F AND DUP3 ADD SWAP2 JUMPDEST POP POP POP POP POP SWAP1 POP SWAP1 JUMP JUMPDEST PUSH0 CALLER PUSH2 0x4B7 DUP2 DUP6 DUP6 PUSH2 0x9E3 JUMP JUMPDEST PUSH1 0x1 SWAP2 POP POP JUMPDEST SWAP3 SWAP2 POP POP JUMP JUMPDEST PUSH2 0x4CB PUSH2 0x9F5 JUMP JUMPDEST PUSH1 0x1 PUSH1 0x1 PUSH1 0xA0 SHL SUB SWAP2 SWAP1 SWAP2 AND PUSH0 SWAP1 DUP2 MSTORE PUSH1 0xA PUSH1 0x20 MSTORE PUSH1 0x40 SWAP1 KECCAK256 DUP1 SLOAD PUSH1 0xFF NOT AND SWAP2 ISZERO ISZERO SWAP2 SWAP1 SWAP2 OR SWAP1 SSTORE JUMP JUMPDEST PUSH1 0x1 PUSH1 0x1 PUSH1 0xA0 SHL SUB DUP4 AND PUSH0 SWAP1 DUP2 MSTORE PUSH1 0xA PUSH1 0x20 MSTORE PUSH1 0x40 DUP2 KECCAK256 SLOAD DUP5 SWAP1 PUSH1 0xFF AND DUP1 PUSH2 0x534 JUMPI POP PUSH1 0x1 PUSH1 0x1 PUSH1 0xA0 SHL SUB DUP5 AND PUSH0 SWAP1 DUP2 MSTORE PUSH1 0xA PUSH1 0x20 MSTORE PUSH1 0x40 SWAP1 KECCAK256 SLOAD PUSH1 0xFF AND JUMPDEST ISZERO PUSH2 0x54E JUMPI PUSH2 0x544 DUP2 DUP6 DUP6 PUSH2 0xA22 JUMP JUMPDEST PUSH1 0x1 SWAP2 POP POP PUSH2 0x598 JUMP JUMPDEST PUSH0 PUSH2 0x2710 PUSH1 0x9 SLOAD DUP6 PUSH2 0x560 SWAP2 SWAP1 PUSH2 0x140F JUMP JUMPDEST PUSH2 0x56A SWAP2 SWAP1 PUSH2 0x1426 JUMP JUMPDEST SWAP1 POP PUSH2 0x580 DUP3 DUP7 PUSH2 0x57B DUP5 DUP9 PUSH2 0x1445 JUMP JUMPDEST PUSH2 0xA22 JUMP JUMPDEST DUP1 ISZERO PUSH2 0x591 JUMPI PUSH2 0x591 DUP3 ADDRESS DUP4 PUSH2 0xA22 JUMP JUMPDEST PUSH1 0x1 SWAP3 POP POP POP JUMPDEST SWAP4 SWAP3 POP POP POP JUMP JUMPDEST PUSH0 PUSH2 0x5A8 PUSH2 0xA7F JUMP JUMPDEST SWAP1 POP SWAP1 JUMP JUMPDEST PUSH2 0x5B5 PUSH2 0x9F5 JUMP JUMPDEST PUSH2 0x5C0 ADDRESS CALLER DUP4 PUSH2 0xA22 JUMP JUMPDEST POP JUMP JUMPDEST PUSH2 0x5CB PUSH2 0x9F5 JUMP JUMPDEST PUSH2 0x5D5 DUP3 DUP3 PUSH2 0xBA8 JUMP JUMPDEST DUP1 PUSH1 0xB PUSH0 DUP3 DUP3 SLOAD PUSH2 0x5E6 SWAP2 SWAP1 PUSH2 0x1458 JUMP JUMPDEST SWAP1 SWAP2 SSTORE POP POP PUSH1 0x40 MLOAD DUP2 DUP2 MSTORE CALLER SWAP1 PUSH32 0x28D583D62D8606A5E633032567C9051A7F6CD23EC72E29ED02F099B8DA9B337F SWAP1 PUSH1 0x20 ADD JUMPDEST PUSH1 0x40 MLOAD DUP1 SWAP2 SUB SWAP1 LOG2 POP POP JUMP JUMPDEST PUSH2 0x62D PUSH2 0x9F5 JUMP JUMPDEST PUSH2 0x3E8 DUP2 GT ISZERO PUSH2 0x66E JUMPI PUSH1 0x40 MLOAD PUSH3 0x461BCD PUSH1 0xE5 SHL DUP2 MSTORE PUSH1 0x20 PUSH1 0x4 DUP3 ADD MSTORE PUSH1 0x7 PUSH1 0x24 DUP3 ADD MSTORE PUSH7 0x6D617820313025 PUSH1 0xC8 SHL PUSH1 0x44 DUP3 ADD MSTORE PUSH1 0x64 ADD JUMPDEST PUSH1 0x40 MLOAD DUP1 SWAP2 SUB SWAP1 REVERT JUMPDEST PUSH1 0x9 SSTORE JUMP JUMPDEST PUSH2 0x67B PUSH2 0x9F5 JUMP JUMPDEST PUSH2 0x684 PUSH0 PUSH2 0xBE0 JUMP JUMPDEST JUMP JUMPDEST PUSH1 0x1 PUSH1 0x1 PUSH1 0xA0 SHL SUB DUP2 AND PUSH0 SWAP1 DUP2 MSTORE PUSH1 0x8 PUSH1 0x20 MSTORE PUSH1 0x40 DUP2 KECCAK256 SLOAD PUSH2 0x4BD JUMP JUMPDEST PUSH0 PUSH1 0x60 DUP1 PUSH0 DUP1 PUSH0 PUSH1 0x60 PUSH2 0x6B4 PUSH2 0xC31 JUMP JUMPDEST PUSH2 0x6BC PUSH2 0xC5E JUMP JUMPDEST PUSH1 0x40 DUP1 MLOAD PUSH0 DUP1 DUP3 MSTORE PUSH1 0x20 DUP3 ADD SWAP1 SWAP3 MSTORE PUSH1 0xF PUSH1 0xF8 SHL SWAP12 SWAP4 SWAP11 POP SWAP2 SWAP9 POP CHAINID SWAP8 POP ADDRESS SWAP7 POP SWAP5 POP SWAP3 POP SWAP1 POP JUMP JUMPDEST PUSH1 0x60 PUSH1 0x4 DUP1 SLOAD PUSH2 0x429 SWAP1 PUSH2 0x13C3 JUMP JUMPDEST PUSH2 0x6FC PUSH2 0x9F5 JUMP JUMPDEST PUSH1 0x1 PUSH1 0x1 PUSH1 0xA0 SHL SUB DUP3 AND PUSH0 SWAP1 DUP2 MSTORE PUSH1 0xC PUSH1 0x20 MSTORE PUSH1 0x40 SWAP1 KECCAK256 SLOAD DUP2 GT ISZERO PUSH2 0x75A JUMPI PUSH1 0x40 MLOAD PUSH3 0x461BCD PUSH1 0xE5 SHL DUP2 MSTORE PUSH1 0x20 PUSH1 0x4 DUP3 ADD MSTORE PUSH1 0x14 PUSH1 0x24 DUP3 ADD MSTORE PUSH20 0x496E73756666696369656E742062616C616E6365 PUSH1 0x60 SHL PUSH1 0x44 DUP3 ADD MSTORE PUSH1 0x64 ADD PUSH2 0x665 JUMP JUMPDEST PUSH1 0x1 PUSH1 0x1 PUSH1 0xA0 SHL SUB DUP3 AND PUSH0 SWAP1 DUP2 MSTORE PUSH1 0xC PUSH1 0x20 MSTORE PUSH1 0x40 DUP2 KECCAK256 DUP1 SLOAD DUP4 SWAP3 SWAP1 PUSH2 0x781 SWAP1 DUP5 SWAP1 PUSH2 0x1445 JUMP JUMPDEST SWAP3 POP POP DUP2 SWAP1 SSTORE POP DUP1 PUSH1 0xB PUSH0 DUP3 DUP3 SLOAD PUSH2 0x799 SWAP2 SWAP1 PUSH2 0x1445 JUMP JUMPDEST SWAP1 SWAP2 SSTORE POP POP PUSH1 0x40 MLOAD DUP2 DUP2 MSTORE PUSH1 0x1 PUSH1 0x1 PUSH1 0xA0 SHL SUB DUP4 AND SWAP1 PUSH32 0xBE029B0B49E71F9C2F53474D8F605B5BCBFD4CA63361A4DE4B71A765716F6F69 SWAP1 PUSH1 0x20 ADD PUSH2 0x619 JUMP JUMPDEST CALLER PUSH0 DUP2 DUP2 MSTORE PUSH1 0xA PUSH1 0x20 MSTORE PUSH1 0x40 DUP2 KECCAK256 SLOAD SWAP1 SWAP2 SWAP1 PUSH1 0xFF AND DUP1 PUSH2 0x810 JUMPI POP PUSH1 0x1 PUSH1 0x1 PUSH1 0xA0 SHL SUB DUP5 AND PUSH0 SWAP1 DUP2 MSTORE PUSH1 0xA PUSH1 0x20 MSTORE PUSH1 0x40 SWAP1 KECCAK256 SLOAD PUSH1 0xFF AND JUMPDEST ISZERO PUSH2 0x82A JUMPI PUSH2 0x820 DUP2 DUP6 DUP6 PUSH2 0xA22 JUMP JUMPDEST PUSH1 0x1 SWAP2 POP POP PUSH2 0x4BD JUMP JUMPDEST PUSH0 PUSH2 0x2710 PUSH1 0x9 SLOAD DUP6 PUSH2 0x83C SWAP2 SWAP1 PUSH2 0x140F JUMP JUMPDEST PUSH2 0x846 SWAP2 SWAP1 PUSH2 0x1426 JUMP JUMPDEST SWAP1 POP PUSH2 0x857 DUP3 DUP7 PUSH2 0x57B DUP5 DUP9 PUSH2 0x1445 JUMP JUMPDEST DUP1 ISZERO PUSH2 0x868 JUMPI PUSH2 0x868 DUP3 ADDRESS DUP4 PUSH2 0xA22 JUMP JUMPDEST POP PUSH1 0x1 SWAP5 SWAP4 POP POP POP POP JUMP JUMPDEST DUP4 TIMESTAMP GT ISZERO PUSH2 0x897 JUMPI PUSH1 0x40 MLOAD PUSH4 0x313C8981 PUSH1 0xE1 SHL DUP2 MSTORE PUSH1 0x4 DUP2 ADD DUP6 SWAP1 MSTORE PUSH1 0x24 ADD PUSH2 0x665 JUMP JUMPDEST PUSH0 PUSH32 0x6E71EDAE12B1B97F4D1F60370FEF10105FA2FAAE0126114A169C64845D6126C9 DUP9 DUP9 DUP9 PUSH2 0x8E2 DUP13 PUSH1 0x1 PUSH1 0x1 PUSH1 0xA0 SHL SUB AND PUSH0 SWAP1 DUP2 MSTORE PUSH1 0x8 PUSH1 0x20 MSTORE PUSH1 0x40 SWAP1 KECCAK256 DUP1 SLOAD PUSH1 0x1 DUP2 ADD SWAP1 SWAP2 SSTORE SWAP1 JUMP JUMPDEST PUSH1 0x40 DUP1 MLOAD PUSH1 0x20 DUP2 ADD SWAP7 SWAP1 SWAP7 MSTORE PUSH1 0x1 PUSH1 0x1 PUSH1 0xA0 SHL SUB SWAP5 DUP6 AND SWAP1 DUP7 ADD MSTORE SWAP3 SWAP1 SWAP2 AND PUSH1 0x60 DUP5 ADD MSTORE PUSH1 0x80 DUP4 ADD MSTORE PUSH1 0xA0 DUP3 ADD MSTORE PUSH1 0xC0 DUP2 ADD DUP7 SWAP1 MSTORE PUSH1 0xE0 ADD PUSH1 0x40 MLOAD PUSH1 0x20 DUP2 DUP4 SUB SUB DUP2 MSTORE SWAP1 PUSH1 0x40 MSTORE DUP1 MLOAD SWAP1 PUSH1 0x20 ADD KECCAK256 SWAP1 POP PUSH0 PUSH2 0x93C DUP3 PUSH2 0xC8B JUMP JUMPDEST SWAP1 POP PUSH0 PUSH2 0x94B DUP3 DUP8 DUP8 DUP8 PUSH2 0xCB7 JUMP JUMPDEST SWAP1 POP DUP10 PUSH1 0x1 PUSH1 0x1 PUSH1 0xA0 SHL SUB AND DUP2 PUSH1 0x1 PUSH1 0x1 PUSH1 0xA0 SHL SUB AND EQ PUSH2 0x992 JUMPI PUSH1 0x40 MLOAD PUSH4 0x25C00723 PUSH1 0xE1 SHL DUP2 MSTORE PUSH1 0x1 PUSH1 0x1 PUSH1 0xA0 SHL SUB DUP1 DUP4 AND PUSH1 0x4 DUP4 ADD MSTORE DUP12 AND PUSH1 0x24 DUP3 ADD MSTORE PUSH1 0x44 ADD PUSH2 0x665 JUMP JUMPDEST PUSH2 0x99D DUP11 DUP11 DUP11 PUSH2 0x9E3 JUMP JUMPDEST POP POP POP POP POP POP POP POP POP POP JUMP JUMPDEST PUSH2 0x9B1 PUSH2 0x9F5 JUMP JUMPDEST PUSH1 0x1 PUSH1 0x1 PUSH1 0xA0 SHL SUB DUP2 AND PUSH2 0x9DA JUMPI PUSH1 0x40 MLOAD PUSH4 0x1E4FBDF7 PUSH1 0xE0 SHL DUP2 MSTORE PUSH0 PUSH1 0x4 DUP3 ADD MSTORE PUSH1 0x24 ADD PUSH2 0x665 JUMP JUMPDEST PUSH2 0x5C0 DUP2 PUSH2 0xBE0 JUMP JUMPDEST PUSH2 0x9F0 DUP4 DUP4 DUP4 PUSH1 0x1 PUSH2 0xCE3 JUMP JUMPDEST POP POP POP JUMP JUMPDEST PUSH1 0x5 SLOAD PUSH1 0x1 PUSH1 0x1 PUSH1 0xA0 SHL SUB AND CALLER EQ PUSH2 0x684 JUMPI PUSH1 0x40 MLOAD PUSH4 0x118CDAA7 PUSH1 0xE0 SHL DUP2 MSTORE CALLER PUSH1 0x4 DUP3 ADD MSTORE PUSH1 0x24 ADD PUSH2 0x665 JUMP JUMPDEST PUSH1 0x1 PUSH1 0x1 PUSH1 0xA0 SHL SUB DUP4 AND PUSH2 0xA4B JUMPI PUSH1 0x40 MLOAD PUSH4 0x4B637E8F PUSH1 0xE1 SHL DUP2 MSTORE PUSH0 PUSH1 0x4 DUP3 ADD MSTORE PUSH1 0x24 ADD PUSH2 0x665 JUMP JUMPDEST PUSH1 0x1 PUSH1 0x1 PUSH1 0xA0 SHL SUB DUP3 AND PUSH2 0xA74 JUMPI PUSH1 0x40 MLOAD PUSH4 0xEC442F05 PUSH1 0xE0 SHL DUP2 MSTORE PUSH0 PUSH1 0x4 DUP3 ADD MSTORE PUSH1 0x24 ADD PUSH2 0x665 JUMP JUMPDEST PUSH2 0x9F0 DUP4 DUP4 DUP4 PUSH2 0xDB6 JUMP JUMPDEST PUSH0 ADDRESS PUSH1 0x1 PUSH1 0x1 PUSH1 0xA0 SHL SUB PUSH32 0x0 AND EQ DUP1 ISZERO PUSH2 0xAD7 JUMPI POP PUSH32 0x0 CHAINID EQ JUMPDEST ISZERO PUSH2 0xB01 JUMPI POP PUSH32 0x0 SWAP1 JUMP JUMPDEST PUSH2 0x5A8 PUSH1 0x40 DUP1 MLOAD PUSH32 0x8B73C3C69BB8FE3D512ECC4CF759CC79239F7B179B0FFACAA9A75D522B39400F PUSH1 0x20 DUP3 ADD MSTORE PUSH32 0x0 SWAP2 DUP2 ADD SWAP2 SWAP1 SWAP2 MSTORE PUSH32 0x0 PUSH1 0x60 DUP3 ADD MSTORE CHAINID PUSH1 0x80 DUP3 ADD MSTORE ADDRESS PUSH1 0xA0 DUP3 ADD MSTORE PUSH0 SWAP1 PUSH1 0xC0 ADD PUSH1 0x40 MLOAD PUSH1 0x20 DUP2 DUP4 SUB SUB DUP2 MSTORE SWAP1 PUSH1 0x40 MSTORE DUP1 MLOAD SWAP1 PUSH1 0x20 ADD KECCAK256 SWAP1 POP SWAP1 JUMP JUMPDEST PUSH1 0x1 PUSH1 0x1 PUSH1 0xA0 SHL SUB DUP3 AND PUSH2 0xBD1 JUMPI PUSH1 0x40 MLOAD PUSH4 0xEC442F05 PUSH1 0xE0 SHL DUP2 MSTORE PUSH0 PUSH1 0x4 DUP3 ADD MSTORE PUSH1 0x24 ADD PUSH2 0x665 JUMP JUMPDEST PUSH2 0xBDC PUSH0 DUP4 DUP4 PUSH2 0xDB6 JUMP JUMPDEST POP POP JUMP JUMPDEST PUSH1 0x5 DUP1 SLOAD PUSH1 0x1 PUSH1 0x1 PUSH1 0xA0 SHL SUB DUP4 DUP2 AND PUSH1 0x1 PUSH1 0x1 PUSH1 0xA0 SHL SUB NOT DUP4 AND DUP2 OR SWAP1 SWAP4 SSTORE PUSH1 0x40 MLOAD SWAP2 AND SWAP2 SWAP1 DUP3 SWAP1 PUSH32 0x8BE0079C531659141344CD1FD0A4F28419497F9722A3DAAFE3B4186F6B6457E0 SWAP1 PUSH0 SWAP1 LOG3 POP POP JUMP JUMPDEST PUSH1 0x60 PUSH2 0x5A8 PUSH32 0x0 PUSH1 0x6 PUSH2 0xEDC JUMP JUMPDEST PUSH1 0x60 PUSH2 0x5A8 PUSH32 0x0 PUSH1 0x7 PUSH2 0xEDC JUMP JUMPDEST PUSH0 PUSH2 0x4BD PUSH2 0xC97 PUSH2 0xA7F JUMP JUMPDEST DUP4 PUSH1 0x40 MLOAD PUSH2 0x1901 PUSH1 0xF0 SHL DUP2 MSTORE PUSH1 0x2 DUP2 ADD SWAP3 SWAP1 SWAP3 MSTORE PUSH1 0x22 DUP3 ADD MSTORE PUSH1 0x42 SWAP1 KECCAK256 SWAP1 JUMP JUMPDEST PUSH0 DUP1 PUSH0 DUP1 PUSH2 0xCC7 DUP9 DUP9 DUP9 DUP9 PUSH2 0xF85 JUMP JUMPDEST SWAP3 POP SWAP3 POP SWAP3 POP PUSH2 0xCD7 DUP3 DUP3 PUSH2 0x104D JUMP JUMPDEST POP SWAP1 SWAP7 SWAP6 POP POP POP POP POP POP JUMP JUMPDEST PUSH1 0x1 PUSH1 0x1 PUSH1 0xA0 SHL SUB DUP5 AND PUSH2 0xD0C JUMPI PUSH1 0x40 MLOAD PUSH4 0xE602DF05 PUSH1 0xE0 SHL DUP2 MSTORE PUSH0 PUSH1 0x4 DUP3 ADD MSTORE PUSH1 0x24 ADD PUSH2 0x665 JUMP JUMPDEST PUSH1 0x1 PUSH1 0x1 PUSH1 0xA0 SHL SUB DUP4 AND PUSH2 0xD35 JUMPI PUSH1 0x40 MLOAD PUSH4 0x4A1406B1 PUSH1 0xE1 SHL DUP2 MSTORE PUSH0 PUSH1 0x4 DUP3 ADD MSTORE PUSH1 0x24 ADD PUSH2 0x665 JUMP JUMPDEST PUSH1 0x1 PUSH1 0x1 PUSH1 0xA0 SHL SUB DUP1 DUP6 AND PUSH0 SWAP1 DUP2 MSTORE PUSH1 0x1 PUSH1 0x20 SWAP1 DUP2 MSTORE PUSH1 0x40 DUP1 DUP4 KECCAK256 SWAP4 DUP8 AND DUP4 MSTORE SWAP3 SWAP1 MSTORE KECCAK256 DUP3 SWAP1 SSTORE DUP1 ISZERO PUSH2 0xDB0 JUMPI DUP3 PUSH1 0x1 PUSH1 0x1 PUSH1 0xA0 SHL SUB AND DUP5 PUSH1 0x1 PUSH1 0x1 PUSH1 0xA0 SHL SUB AND PUSH32 0x8C5BE1E5EBEC7D5BD14F71427D1E84F3DD0314C0F7B2291E5B200AC8C7C3B925 DUP5 PUSH1 0x40 MLOAD PUSH2 0xDA7 SWAP2 DUP2 MSTORE PUSH1 0x20 ADD SWAP1 JUMP JUMPDEST PUSH1 0x40 MLOAD DUP1 SWAP2 SUB SWAP1 LOG3 JUMPDEST POP POP POP POP JUMP JUMPDEST PUSH1 0x1 PUSH1 0x1 PUSH1 0xA0 SHL SUB DUP4 AND PUSH2 0xDE0 JUMPI DUP1 PUSH1 0x2 PUSH0 DUP3 DUP3 SLOAD PUSH2 0xDD5 SWAP2 SWAP1 PUSH2 0x1458 JUMP JUMPDEST SWAP1 SWAP2 SSTORE POP PUSH2 0xE50 SWAP1 POP JUMP JUMPDEST PUSH1 0x1 PUSH1 0x1 PUSH1 0xA0 SHL SUB DUP4 AND PUSH0 SWAP1 DUP2 MSTORE PUSH1 0x20 DUP2 SWAP1 MSTORE PUSH1 0x40 SWAP1 KECCAK256 SLOAD DUP2 DUP2 LT ISZERO PUSH2 0xE32 JUMPI PUSH1 0x40 MLOAD PUSH4 0x391434E3 PUSH1 0xE2 SHL DUP2 MSTORE PUSH1 0x1 PUSH1 0x1 PUSH1 0xA0 SHL SUB DUP6 AND PUSH1 0x4 DUP3 ADD MSTORE PUSH1 0x24 DUP2 ADD DUP3 SWAP1 MSTORE PUSH1 0x44 DUP2 ADD DUP4 SWAP1 MSTORE PUSH1 0x64 ADD PUSH2 0x665 JUMP JUMPDEST PUSH1 0x1 PUSH1 0x1 PUSH1 0xA0 SHL SUB DUP5 AND PUSH0 SWAP1 DUP2 MSTORE PUSH1 0x20 DUP2 SWAP1 MSTORE PUSH1 0x40 SWAP1 KECCAK256 SWAP1 DUP3 SWAP1 SUB SWAP1 SSTORE JUMPDEST PUSH1 0x1 PUSH1 0x1 PUSH1 0xA0 SHL SUB DUP3 AND PUSH2 0xE6C JUMPI PUSH1 0x2 DUP1 SLOAD DUP3 SWAP1 SUB SWAP1 SSTORE PUSH2 0xE8A JUMP JUMPDEST PUSH1 0x1 PUSH1 0x1 PUSH1 0xA0 SHL SUB DUP3 AND PUSH0 SWAP1 DUP2 MSTORE PUSH1 0x20 DUP2 SWAP1 MSTORE PUSH1 0x40 SWAP1 KECCAK256 DUP1 SLOAD DUP3 ADD SWAP1 SSTORE JUMPDEST DUP2 PUSH1 0x1 PUSH1 0x1 PUSH1 0xA0 SHL SUB AND DUP4 PUSH1 0x1 PUSH1 0x1 PUSH1 0xA0 SHL SUB AND PUSH32 0xDDF252AD1BE2C89B69C2B068FC378DAA952BA7F163C4A11628F55A4DF523B3EF DUP4 PUSH1 0x40 MLOAD PUSH2 0xECF SWAP2 DUP2 MSTORE PUSH1 0x20 ADD SWAP1 JUMP JUMPDEST PUSH1 0x40 MLOAD DUP1 SWAP2 SUB SWAP1 LOG3 POP POP POP JUMP JUMPDEST PUSH1 0x60 PUSH1 0xFF DUP4 EQ PUSH2 0xEF6 JUMPI PUSH2 0xEEF DUP4 PUSH2 0x1105 JUMP JUMPDEST SWAP1 POP PUSH2 0x4BD JUMP JUMPDEST DUP2 DUP1 SLOAD PUSH2 0xF02 SWAP1 PUSH2 0x13C3 JUMP JUMPDEST DUP1 PUSH1 0x1F ADD PUSH1 0x20 DUP1 SWAP2 DIV MUL PUSH1 0x20 ADD PUSH1 0x40 MLOAD SWAP1 DUP2 ADD PUSH1 0x40 MSTORE DUP1 SWAP3 SWAP2 SWAP1 DUP2 DUP2 MSTORE PUSH1 0x20 ADD DUP3 DUP1 SLOAD PUSH2 0xF2E SWAP1 PUSH2 0x13C3 JUMP JUMPDEST DUP1 ISZERO PUSH2 0xF79 JUMPI DUP1 PUSH1 0x1F LT PUSH2 0xF50 JUMPI PUSH2 0x100 DUP1 DUP4 SLOAD DIV MUL DUP4 MSTORE SWAP2 PUSH1 0x20 ADD SWAP2 PUSH2 0xF79 JUMP JUMPDEST DUP3 ADD SWAP2 SWAP1 PUSH0 MSTORE PUSH1 0x20 PUSH0 KECCAK256 SWAP1 JUMPDEST DUP2 SLOAD DUP2 MSTORE SWAP1 PUSH1 0x1 ADD SWAP1 PUSH1 0x20 ADD DUP1 DUP4 GT PUSH2 0xF5C JUMPI DUP3 SWAP1 SUB PUSH1 0x1F AND DUP3 ADD SWAP2 JUMPDEST POP POP POP POP POP SWAP1 POP PUSH2 0x4BD JUMP JUMPDEST PUSH0 DUP1 DUP1 PUSH32 0x7FFFFFFFFFFFFFFFFFFFFFFFFFFFFFFF5D576E7357A4501DDFE92F46681B20A0 DUP5 GT ISZERO PUSH2 0xFBE JUMPI POP PUSH0 SWAP2 POP PUSH1 0x3 SWAP1 POP DUP3 PUSH2 0x1043 JUMP JUMPDEST PUSH1 0x40 DUP1 MLOAD PUSH0 DUP1 DUP3 MSTORE PUSH1 0x20 DUP3 ADD DUP1 DUP5 MSTORE DUP11 SWAP1 MSTORE PUSH1 0xFF DUP10 AND SWAP3 DUP3 ADD SWAP3 SWAP1 SWAP3 MSTORE PUSH1 0x60 DUP2 ADD DUP8 SWAP1 MSTORE PUSH1 0x80 DUP2 ADD DUP7 SWAP1 MSTORE PUSH1 0x1 SWAP1 PUSH1 0xA0 ADD PUSH1 0x20 PUSH1 0x40 MLOAD PUSH1 0x20 DUP2 SUB SWAP1 DUP1 DUP5 SUB SWAP1 DUP6 GAS STATICCALL ISZERO DUP1 ISZERO PUSH2 0x100F JUMPI RETURNDATASIZE PUSH0 DUP1 RETURNDATACOPY RETURNDATASIZE PUSH0 REVERT JUMPDEST POP POP PUSH1 0x40 MLOAD PUSH1 0x1F NOT ADD MLOAD SWAP2 POP POP PUSH1 0x1 PUSH1 0x1 PUSH1 0xA0 SHL SUB DUP2 AND PUSH2 0x103A JUMPI POP PUSH0 SWAP3 POP PUSH1 0x1 SWAP2 POP DUP3 SWAP1 POP PUSH2 0x1043 JUMP JUMPDEST SWAP3 POP PUSH0 SWAP2 POP DUP2 SWAP1 POP JUMPDEST SWAP5 POP SWAP5 POP SWAP5 SWAP2 POP POP JUMP JUMPDEST PUSH0 DUP3 PUSH1 0x3 DUP2 GT ISZERO PUSH2 0x1060 JUMPI PUSH2 0x1060 PUSH2 0x146B JUMP JUMPDEST SUB PUSH2 0x1069 JUMPI POP POP JUMP JUMPDEST PUSH1 0x1 DUP3 PUSH1 0x3 DUP2 GT ISZERO PUSH2 0x107D JUMPI PUSH2 0x107D PUSH2 0x146B JUMP JUMPDEST SUB PUSH2 0x109B JUMPI PUSH1 0x40 MLOAD PUSH4 0xF645EEDF PUSH1 0xE0 SHL DUP2 MSTORE PUSH1 0x4 ADD PUSH1 0x40 MLOAD DUP1 SWAP2 SUB SWAP1 REVERT JUMPDEST PUSH1 0x2 DUP3 PUSH1 0x3 DUP2 GT ISZERO PUSH2 0x10AF JUMPI PUSH2 0x10AF PUSH2 0x146B JUMP JUMPDEST SUB PUSH2 0x10D0 JUMPI PUSH1 0x40 MLOAD PUSH4 0xFCE698F7 PUSH1 0xE0 SHL DUP2 MSTORE PUSH1 0x4 DUP2 ADD DUP3 SWAP1 MSTORE PUSH1 0x24 ADD PUSH2 0x665 JUMP JUMPDEST PUSH1 0x3 DUP3 PUSH1 0x3 DUP2 GT ISZERO PUSH2 0x10E4 JUMPI PUSH2 0x10E4 PUSH2 0x146B JUMP JUMPDEST SUB PUSH2 0xBDC JUMPI PUSH1 0x40 MLOAD PUSH4 0x35E2F383 PUSH1 0xE2 SHL DUP2 MSTORE PUSH1 0x4 DUP2 ADD DUP3 SWAP1 MSTORE PUSH1 0x24 ADD PUSH2 0x665 JUMP JUMPDEST PUSH1 0x60 PUSH0 PUSH2 0x1111 DUP4 PUSH2 0x1142 JUMP JUMPDEST PUSH1 0x40 DUP1 MLOAD PUSH1 0x20 DUP1 DUP3 MSTORE DUP2 DUP4 ADD SWAP1 SWAP3 MSTORE SWAP2 SWAP3 POP PUSH0 SWAP2 SWAP1 PUSH1 0x20 DUP3 ADD DUP2 DUP1 CALLDATASIZE DUP4 CALLDATACOPY POP POP POP SWAP2 DUP3 MSTORE POP PUSH1 0x20 DUP2 ADD SWAP3 SWAP1 SWAP3 MSTORE POP SWAP1 JUMP JUMPDEST PUSH0 PUSH1 0xFF DUP3 AND PUSH1 0x1F DUP2 GT ISZERO PUSH2 0x4BD JUMPI PUSH1 0x40 MLOAD PUSH4 0x2CD44AC3 PUSH1 0xE2 SHL DUP2 MSTORE PUSH1 0x4 ADD PUSH1 0x40 MLOAD DUP1 SWAP2 SUB SWAP1 REVERT JUMPDEST PUSH0 DUP2 MLOAD DUP1 DUP5 MSTORE DUP1 PUSH1 0x20 DUP5 ADD PUSH1 0x20 DUP7 ADD MCOPY PUSH0 PUSH1 0x20 DUP3 DUP7 ADD ADD MSTORE PUSH1 0x20 PUSH1 0x1F NOT PUSH1 0x1F DUP4 ADD AND DUP6 ADD ADD SWAP2 POP POP SWAP3 SWAP2 POP POP JUMP JUMPDEST PUSH1 0x20 DUP2 MSTORE PUSH0 PUSH2 0x598 PUSH1 0x20 DUP4 ADD DUP5 PUSH2 0x1169 JUMP JUMPDEST DUP1 CALLDATALOAD PUSH1 0x1 PUSH1 0x1 PUSH1 0xA0 SHL SUB DUP2 AND DUP2 EQ PUSH2 0x11BF JUMPI PUSH0 DUP1 REVERT JUMPDEST SWAP2 SWAP1 POP JUMP JUMPDEST PUSH0 DUP1 PUSH1 0x40 DUP4 DUP6 SUB SLT ISZERO PUSH2 0x11D5 JUMPI PUSH0 DUP1 REVERT JUMPDEST PUSH2 0x11DE DUP4 PUSH2 0x11A9 JUMP JUMPDEST SWAP5 PUSH1 0x20 SWAP4 SWAP1 SWAP4 ADD CALLDATALOAD SWAP4 POP POP POP JUMP JUMPDEST PUSH0 DUP1 PUSH1 0x40 DUP4 DUP6 SUB SLT ISZERO PUSH2 0x11FD JUMPI PUSH0 DUP1 REVERT JUMPDEST PUSH2 0x1206 DUP4 PUSH2 0x11A9 JUMP JUMPDEST SWAP2 POP PUSH1 0x20 DUP4 ADD CALLDATALOAD DUP1 ISZERO ISZERO DUP2 EQ PUSH2 0x121A JUMPI PUSH0 DUP1 REVERT JUMPDEST DUP1 SWAP2 POP POP SWAP3 POP SWAP3 SWAP1 POP JUMP JUMPDEST PUSH0 DUP1 PUSH0 PUSH1 0x60 DUP5 DUP7 SUB SLT ISZERO PUSH2 0x1237 JUMPI PUSH0 DUP1 REVERT JUMPDEST PUSH2 0x1240 DUP5 PUSH2 0x11A9 JUMP JUMPDEST SWAP3 POP PUSH2 0x124E PUSH1 0x20 DUP6 ADD PUSH2 0x11A9 JUMP JUMPDEST SWAP3 SWAP6 SWAP3 SWAP5 POP POP POP PUSH1 0x40 SWAP2 SWAP1 SWAP2 ADD CALLDATALOAD SWAP1 JUMP JUMPDEST PUSH0 PUSH1 0x20 DUP3 DUP5 SUB SLT ISZERO PUSH2 0x126F JUMPI PUSH0 DUP1 REVERT JUMPDEST PUSH2 0x598 DUP3 PUSH2 0x11A9 JUMP JUMPDEST PUSH0 PUSH1 0x20 DUP3 DUP5 SUB SLT ISZERO PUSH2 0x1288 JUMPI PUSH0 DUP1 REVERT JUMPDEST POP CALLDATALOAD SWAP2 SWAP1 POP JUMP JUMPDEST PUSH1 0xFF PUSH1 0xF8 SHL DUP9 AND DUP2 MSTORE PUSH1 0xE0 PUSH1 0x20 DUP3 ADD MSTORE PUSH0 PUSH2 0x12AD PUSH1 0xE0 DUP4 ADD DUP10 PUSH2 0x1169 JUMP JUMPDEST DUP3 DUP2 SUB PUSH1 0x40 DUP5 ADD MSTORE PUSH2 0x12BF DUP2 DUP10 PUSH2 0x1169 JUMP JUMPDEST PUSH1 0x60 DUP5 ADD DUP9 SWAP1 MSTORE PUSH1 0x1 PUSH1 0x1 PUSH1 0xA0 SHL SUB DUP8 AND PUSH1 0x80 DUP6 ADD MSTORE PUSH1 0xA0 DUP5 ADD DUP7 SWAP1 MSTORE DUP4 DUP2 SUB PUSH1 0xC0 DUP6 ADD MSTORE DUP5 MLOAD DUP1 DUP3 MSTORE PUSH1 0x20 DUP1 DUP8 ADD SWAP4 POP SWAP1 SWAP2 ADD SWAP1 PUSH0 JUMPDEST DUP2 DUP2 LT ISZERO PUSH2 0x1314 JUMPI DUP4 MLOAD DUP4 MSTORE PUSH1 0x20 SWAP4 DUP5 ADD SWAP4 SWAP1 SWAP3 ADD SWAP2 PUSH1 0x1 ADD PUSH2 0x12F6 JUMP JUMPDEST POP SWAP1 SWAP12 SWAP11 POP POP POP POP POP POP POP POP POP POP POP JUMP JUMPDEST PUSH0 DUP1 PUSH0 DUP1 PUSH0 DUP1 PUSH0 PUSH1 0xE0 DUP9 DUP11 SUB SLT ISZERO PUSH2 0x133B JUMPI PUSH0 DUP1 REVERT JUMPDEST PUSH2 0x1344 DUP9 PUSH2 0x11A9 JUMP JUMPDEST SWAP7 POP PUSH2 0x1352 PUSH1 0x20 DUP10 ADD PUSH2 0x11A9 JUMP JUMPDEST SWAP6 POP PUSH1 0x40 DUP9 ADD CALLDATALOAD SWAP5 POP PUSH1 0x60 DUP9 ADD CALLDATALOAD SWAP4 POP PUSH1 0x80 DUP9 ADD CALLDATALOAD PUSH1 0xFF DUP2 AND DUP2 EQ PUSH2 0x1375 JUMPI PUSH0 DUP1 REVERT JUMPDEST SWAP7 SWAP10 SWAP6 SWAP9 POP SWAP4 SWAP7 SWAP3 SWAP6 SWAP5 PUSH1 0xA0 DUP5 ADD CALLDATALOAD SWAP5 POP PUSH1 0xC0 SWAP1 SWAP4 ADD CALLDATALOAD SWAP3 SWAP2 POP POP JUMP JUMPDEST PUSH0 DUP1 PUSH1 0x40 DUP4 DUP6 SUB SLT ISZERO PUSH2 0x13A3 JUMPI PUSH0 DUP1 REVERT JUMPDEST PUSH2 0x13AC DUP4 PUSH2 0x11A9 JUMP JUMPDEST SWAP2 POP PUSH2 0x13BA PUSH1 0x20 DUP5 ADD PUSH2 0x11A9 JUMP JUMPDEST SWAP1 POP SWAP3 POP SWAP3 SWAP1 POP JUMP JUMPDEST PUSH1 0x1 DUP2 DUP2 SHR SWAP1 DUP3 AND DUP1 PUSH2 0x13D7 JUMPI PUSH1 0x7F DUP3 AND SWAP2 POP JUMPDEST PUSH1 0x20 DUP3 LT DUP2 SUB PUSH2 0x13F5 JUMPI PUSH4 0x4E487B71 PUSH1 0xE0 SHL PUSH0 MSTORE PUSH1 0x22 PUSH1 0x4 MSTORE PUSH1 0x24 PUSH0 REVERT JUMPDEST POP SWAP2 SWAP1 POP JUMP JUMPDEST PUSH4 0x4E487B71 PUSH1 0xE0 SHL PUSH0 MSTORE PUSH1 0x11 PUSH1 0x4 MSTORE PUSH1 0x24 PUSH0 REVERT JUMPDEST DUP1 DUP3 MUL DUP2 ISZERO DUP3 DUP3 DIV DUP5 EQ OR PUSH2 0x4BD JUMPI PUSH2 0x4BD PUSH2 0x13FB JUMP JUMPDEST PUSH0 DUP3 PUSH2 0x1440 JUMPI PUSH4 0x4E487B71 PUSH1 0xE0 SHL PUSH0 MSTORE PUSH1 0x12 PUSH1 0x4 MSTORE PUSH1 0x24 PUSH0 REVERT JUMPDEST POP DIV SWAP1 JUMP JUMPDEST DUP2 DUP2 SUB DUP2 DUP2 GT ISZERO PUSH2 0x4BD JUMPI PUSH2 0x4BD PUSH2 0x13FB JUMP JUMPDEST DUP1 DUP3 ADD DUP1 DUP3 GT ISZERO PUSH2 0x4BD JUMPI PUSH2 0x4BD PUSH2 0x13FB JUMP JUMPDEST PUSH4 0x4E487B71 PUSH1 0xE0 SHL PUSH0 MSTORE PUSH1 0x21 PUSH1 0x4 MSTORE PUSH1 0x24 PUSH0 REVERT INVALID LOG2 PUSH5 0x6970667358 0x22 SLT KECCAK256 0xDC MULMOD 0xF6 0xE8 MSTORE8 MLOAD 0xF6 0xC SHL MSIZE 0xBA 0x2C 0xE3 PUSH28 0xA31FC5554745909A055EB049E85E4157271464736F6C634300081A00 CALLER "
		},
		"gasEstimates": {
			"creation": {
				"codeDepositCost": "1060200",
				"executionCost": "infinite",
				"totalCost": "infinite"
			},
			"external": {
				"DOMAIN_SEPARATOR()": "infinite",
				"_totalSupply()": "2384",
				"allowance(address,address)": "infinite",
				"approve(address,uint256)": "24782",
				"balanceOf(address)": "2648",
				"balances(address)": "2606",
				"burn(address,uint256)": "infinite",
				"decimals()": "288",
				"eip712Domain()": "infinite",
				"getBalance(address)": "2644",
				"getTaxPercentage()": "2358",
				"getTotalSupply()": "2358",
				"mint(address,uint256)": "infinite",
				"name()": "infinite",
				"nonces(address)": "2636",
				"owner()": "2345",
				"permit(address,address,uint256,uint256,uint8,bytes32,bytes32)": "infinite",
				"renounceOwnership()": "infinite",
				"setTaxExempt(address,bool)": "26901",
				"setTaxPercentage(uint256)": "24601",
				"symbol()": "infinite",
				"taxExempt(address)": "2617",
				"taxPercentage()": "2339",
				"totalSupply()": "2371",
				"transfer(address,uint256)": "55749",
				"transferFrom(address,address,uint256)": "infinite",
				"transferOwnership(address)": "28421",
				"withdrawTaxes(uint256)": "53264"
			}
		},
		"methodIdentifiers": {
			"DOMAIN_SEPARATOR()": "3644e515",
			"_totalSupply()": "3eaaf86b",
			"allowance(address,address)": "dd62ed3e",
			"approve(address,uint256)": "095ea7b3",
			"balanceOf(address)": "70a08231",
			"balances(address)": "27e235e3",
			"burn(address,uint256)": "9dc29fac",
			"decimals()": "313ce567",
			"eip712Domain()": "84b0196e",
			"getBalance(address)": "f8b2cb4f",
			"getTaxPercentage()": "41550f2e",
			"getTotalSupply()": "c4e41b22",
			"mint(address,uint256)": "40c10f19",
			"name()": "06fdde03",
			"nonces(address)": "7ecebe00",
			"owner()": "8da5cb5b",
			"permit(address,address,uint256,uint256,uint8,bytes32,bytes32)": "d505accf",
			"renounceOwnership()": "715018a6",
			"setTaxExempt(address,bool)": "1dc61040",
			"setTaxPercentage(uint256)": "699abb3c",
			"symbol()": "95d89b41",
			"taxExempt(address)": "d1ecfc68",
			"taxPercentage()": "ae7b6d16",
			"totalSupply()": "18160ddd",
			"transfer(address,uint256)": "a9059cbb",
			"transferFrom(address,address,uint256)": "23b872dd",
			"transferOwnership(address)": "f2fde38b",
			"withdrawTaxes(uint256)": "3bfaa4ee"
		}
	},
	"abi": [
		{
			"inputs": [
				{
					"internalType": "string",
					"name": "_name",
					"type": "string"
				},
				{
					"internalType": "string",
					"name": "_symbol",
					"type": "string"
				},
				{
					"internalType": "address",
					"name": "_initialOwner",
					"type": "address"
				}
			],
			"stateMutability": "nonpayable",
			"type": "constructor"
		},
		{
			"inputs": [],
			"name": "ECDSAInvalidSignature",
			"type": "error"
		},
		{
			"inputs": [
				{
					"internalType": "uint256",
					"name": "length",
					"type": "uint256"
				}
			],
			"name": "ECDSAInvalidSignatureLength",
			"type": "error"
		},
		{
			"inputs": [
				{
					"internalType": "bytes32",
					"name": "s",
					"type": "bytes32"
				}
			],
			"name": "ECDSAInvalidSignatureS",
			"type": "error"
		},
		{
			"inputs": [
				{
					"internalType": "address",
					"name": "spender",
					"type": "address"
				},
				{
					"internalType": "uint256",
					"name": "allowance",
					"type": "uint256"
				},
				{
					"internalType": "uint256",
					"name": "needed",
					"type": "uint256"
				}
			],
			"name": "ERC20InsufficientAllowance",
			"type": "error"
		},
		{
			"inputs": [
				{
					"internalType": "address",
					"name": "sender",
					"type": "address"
				},
				{
					"internalType": "uint256",
					"name": "balance",
					"type": "uint256"
				},
				{
					"internalType": "uint256",
					"name": "needed",
					"type": "uint256"
				}
			],
			"name": "ERC20InsufficientBalance",
			"type": "error"
		},
		{
			"inputs": [
				{
					"internalType": "address",
					"name": "approver",
					"type": "address"
				}
			],
			"name": "ERC20InvalidApprover",
			"type": "error"
		},
		{
			"inputs": [
				{
					"internalType": "address",
					"name": "receiver",
					"type": "address"
				}
			],
			"name": "ERC20InvalidReceiver",
			"type": "error"
		},
		{
			"inputs": [
				{
					"internalType": "address",
					"name": "sender",
					"type": "address"
				}
			],
			"name": "ERC20InvalidSender",
			"type": "error"
		},
		{
			"inputs": [
				{
					"internalType": "address",
					"name": "spender",
					"type": "address"
				}
			],
			"name": "ERC20InvalidSpender",
			"type": "error"
		},
		{
			"inputs": [
				{
					"internalType": "uint256",
					"name": "deadline",
					"type": "uint256"
				}
			],
			"name": "ERC2612ExpiredSignature",
			"type": "error"
		},
		{
			"inputs": [
				{
					"internalType": "address",
					"name": "signer",
					"type": "address"
				},
				{
					"internalType": "address",
					"name": "owner",
					"type": "address"
				}
			],
			"name": "ERC2612InvalidSigner",
			"type": "error"
		},
		{
			"inputs": [
				{
					"internalType": "address",
					"name": "account",
					"type": "address"
				},
				{
					"internalType": "uint256",
					"name": "currentNonce",
					"type": "uint256"
				}
			],
			"name": "InvalidAccountNonce",
			"type": "error"
		},
		{
			"inputs": [],
			"name": "InvalidShortString",
			"type": "error"
		},
		{
			"inputs": [
				{
					"internalType": "address",
					"name": "owner",
					"type": "address"
				}
			],
			"name": "OwnableInvalidOwner",
			"type": "error"
		},
		{
			"inputs": [
				{
					"internalType": "address",
					"name": "account",
					"type": "address"
				}
			],
			"name": "OwnableUnauthorizedAccount",
			"type": "error"
		},
		{
			"inputs": [
				{
					"internalType": "string",
					"name": "str",
					"type": "string"
				}
			],
			"name": "StringTooLong",
			"type": "error"
		},
		{
			"anonymous": false,
			"inputs": [
				{
					"indexed": true,
					"internalType": "address",
					"name": "owner",
					"type": "address"
				},
				{
					"indexed": true,
					"internalType": "address",
					"name": "spender",
					"type": "address"
				},
				{
					"indexed": false,
					"internalType": "uint256",
					"name": "value",
					"type": "uint256"
				}
			],
			"name": "Approval",
			"type": "event"
		},
		{
			"anonymous": false,
			"inputs": [],
			"name": "EIP712DomainChanged",
			"type": "event"
		},
		{
			"anonymous": false,
			"inputs": [
				{
					"indexed": true,
					"internalType": "address",
					"name": "previousOwner",
					"type": "address"
				},
				{
					"indexed": true,
					"internalType": "address",
					"name": "newOwner",
					"type": "address"
				}
			],
			"name": "MyOwnershipTransferredEvent",
			"type": "event"
		},
		{
			"anonymous": false,
			"inputs": [
				{
					"indexed": true,
					"internalType": "address",
					"name": "previousOwner",
					"type": "address"
				},
				{
					"indexed": true,
					"internalType": "address",
					"name": "newOwner",
					"type": "address"
				}
			],
			"name": "OwnershipTransferred",
			"type": "event"
		},
		{
			"anonymous": false,
			"inputs": [
				{
					"indexed": true,
					"internalType": "address",
					"name": "burner",
					"type": "address"
				},
				{
					"indexed": false,
					"internalType": "uint256",
					"name": "amount",
					"type": "uint256"
				}
			],
			"name": "TomcoinBurned",
			"type": "event"
		},
		{
			"anonymous": false,
			"inputs": [
				{
					"indexed": true,
					"internalType": "address",
					"name": "minter",
					"type": "address"
				},
				{
					"indexed": false,
					"internalType": "uint256",
					"name": "amount",
					"type": "uint256"
				}
			],
			"name": "TomcoinMinted",
			"type": "event"
		},
		{
			"anonymous": false,
			"inputs": [
				{
					"indexed": true,
					"internalType": "address",
					"name": "from",
					"type": "address"
				},
				{
					"indexed": true,
					"internalType": "address",
					"name": "to",
					"type": "address"
				},
				{
					"indexed": false,
					"internalType": "uint256",
					"name": "amount",
					"type": "uint256"
				}
			],
			"name": "TomcoinTransferred",
			"type": "event"
		},
		{
			"anonymous": false,
			"inputs": [
				{
					"indexed": true,
					"internalType": "address",
					"name": "from",
					"type": "address"
				},
				{
					"indexed": true,
					"internalType": "address",
					"name": "to",
					"type": "address"
				},
				{
					"indexed": false,
					"internalType": "uint256",
					"name": "value",
					"type": "uint256"
				}
			],
			"name": "Transfer",
			"type": "event"
		},
		{
			"inputs": [],
			"name": "DOMAIN_SEPARATOR",
			"outputs": [
				{
					"internalType": "bytes32",
					"name": "",
					"type": "bytes32"
				}
			],
			"stateMutability": "view",
			"type": "function"
		},
		{
			"inputs": [],
			"name": "_totalSupply",
			"outputs": [
				{
					"internalType": "uint256",
					"name": "",
					"type": "uint256"
				}
			],
			"stateMutability": "view",
			"type": "function"
		},
		{
			"inputs": [
				{
					"internalType": "address",
					"name": "owner",
					"type": "address"
				},
				{
					"internalType": "address",
					"name": "spender",
					"type": "address"
				}
			],
			"name": "allowance",
			"outputs": [
				{
					"internalType": "uint256",
					"name": "",
					"type": "uint256"
				}
			],
			"stateMutability": "view",
			"type": "function"
		},
		{
			"inputs": [
				{
					"internalType": "address",
					"name": "spender",
					"type": "address"
				},
				{
					"internalType": "uint256",
					"name": "value",
					"type": "uint256"
				}
			],
			"name": "approve",
			"outputs": [
				{
					"internalType": "bool",
					"name": "",
					"type": "bool"
				}
			],
			"stateMutability": "nonpayable",
			"type": "function"
		},
		{
			"inputs": [
				{
					"internalType": "address",
					"name": "account",
					"type": "address"
				}
			],
			"name": "balanceOf",
			"outputs": [
				{
					"internalType": "uint256",
					"name": "",
					"type": "uint256"
				}
			],
			"stateMutability": "view",
			"type": "function"
		},
		{
			"inputs": [
				{
					"internalType": "address",
					"name": "",
					"type": "address"
				}
			],
			"name": "balances",
			"outputs": [
				{
					"internalType": "uint256",
					"name": "",
					"type": "uint256"
				}
			],
			"stateMutability": "view",
			"type": "function"
		},
		{
			"inputs": [
				{
					"internalType": "address",
					"name": "from",
					"type": "address"
				},
				{
					"internalType": "uint256",
					"name": "amount",
					"type": "uint256"
				}
			],
			"name": "burn",
			"outputs": [],
			"stateMutability": "nonpayable",
			"type": "function"
		},
		{
			"inputs": [],
			"name": "decimals",
			"outputs": [
				{
					"internalType": "uint8",
					"name": "",
					"type": "uint8"
				}
			],
			"stateMutability": "view",
			"type": "function"
		},
		{
			"inputs": [],
			"name": "eip712Domain",
			"outputs": [
				{
					"internalType": "bytes1",
					"name": "fields",
					"type": "bytes1"
				},
				{
					"internalType": "string",
					"name": "name",
					"type": "string"
				},
				{
					"internalType": "string",
					"name": "version",
					"type": "string"
				},
				{
					"internalType": "uint256",
					"name": "chainId",
					"type": "uint256"
				},
				{
					"internalType": "address",
					"name": "verifyingContract",
					"type": "address"
				},
				{
					"internalType": "bytes32",
					"name": "salt",
					"type": "bytes32"
				},
				{
					"internalType": "uint256[]",
					"name": "extensions",
					"type": "uint256[]"
				}
			],
			"stateMutability": "view",
			"type": "function"
		},
		{
			"inputs": [
				{
					"internalType": "address",
					"name": "account",
					"type": "address"
				}
			],
			"name": "getBalance",
			"outputs": [
				{
					"internalType": "uint256",
					"name": "",
					"type": "uint256"
				}
			],
			"stateMutability": "view",
			"type": "function"
		},
		{
			"inputs": [],
			"name": "getTaxPercentage",
			"outputs": [
				{
					"internalType": "uint256",
					"name": "",
					"type": "uint256"
				}
			],
			"stateMutability": "view",
			"type": "function"
		},
		{
			"inputs": [],
			"name": "getTotalSupply",
			"outputs": [
				{
					"internalType": "uint256",
					"name": "",
					"type": "uint256"
				}
			],
			"stateMutability": "view",
			"type": "function"
		},
		{
			"inputs": [
				{
					"internalType": "address",
					"name": "to",
					"type": "address"
				},
				{
					"internalType": "uint256",
					"name": "amount",
					"type": "uint256"
				}
			],
			"name": "mint",
			"outputs": [],
			"stateMutability": "nonpayable",
			"type": "function"
		},
		{
			"inputs": [],
			"name": "name",
			"outputs": [
				{
					"internalType": "string",
					"name": "",
					"type": "string"
				}
			],
			"stateMutability": "view",
			"type": "function"
		},
		{
			"inputs": [
				{
					"internalType": "address",
					"name": "owner",
					"type": "address"
				}
			],
			"name": "nonces",
			"outputs": [
				{
					"internalType": "uint256",
					"name": "",
					"type": "uint256"
				}
			],
			"stateMutability": "view",
			"type": "function"
		},
		{
			"inputs": [],
			"name": "owner",
			"outputs": [
				{
					"internalType": "address",
					"name": "",
					"type": "address"
				}
			],
			"stateMutability": "view",
			"type": "function"
		},
		{
			"inputs": [
				{
					"internalType": "address",
					"name": "owner",
					"type": "address"
				},
				{
					"internalType": "address",
					"name": "spender",
					"type": "address"
				},
				{
					"internalType": "uint256",
					"name": "value",
					"type": "uint256"
				},
				{
					"internalType": "uint256",
					"name": "deadline",
					"type": "uint256"
				},
				{
					"internalType": "uint8",
					"name": "v",
					"type": "uint8"
				},
				{
					"internalType": "bytes32",
					"name": "r",
					"type": "bytes32"
				},
				{
					"internalType": "bytes32",
					"name": "s",
					"type": "bytes32"
				}
			],
			"name": "permit",
			"outputs": [],
			"stateMutability": "nonpayable",
			"type": "function"
		},
		{
			"inputs": [],
			"name": "renounceOwnership",
			"outputs": [],
			"stateMutability": "nonpayable",
			"type": "function"
		},
		{
			"inputs": [
				{
					"internalType": "address",
					"name": "forAddress",
					"type": "address"
				},
				{
					"internalType": "bool",
					"name": "isTaxExempt",
					"type": "bool"
				}
			],
			"name": "setTaxExempt",
			"outputs": [],
			"stateMutability": "nonpayable",
			"type": "function"
		},
		{
			"inputs": [
				{
					"internalType": "uint256",
					"name": "_newTax",
					"type": "uint256"
				}
			],
			"name": "setTaxPercentage",
			"outputs": [],
			"stateMutability": "nonpayable",
			"type": "function"
		},
		{
			"inputs": [],
			"name": "symbol",
			"outputs": [
				{
					"internalType": "string",
					"name": "",
					"type": "string"
				}
			],
			"stateMutability": "view",
			"type": "function"
		},
		{
			"inputs": [
				{
					"internalType": "address",
					"name": "",
					"type": "address"
				}
			],
			"name": "taxExempt",
			"outputs": [
				{
					"internalType": "bool",
					"name": "",
					"type": "bool"
				}
			],
			"stateMutability": "view",
			"type": "function"
		},
		{
			"inputs": [],
			"name": "taxPercentage",
			"outputs": [
				{
					"internalType": "uint256",
					"name": "",
					"type": "uint256"
				}
			],
			"stateMutability": "view",
			"type": "function"
		},
		{
			"inputs": [],
			"name": "totalSupply",
			"outputs": [
				{
					"internalType": "uint256",
					"name": "",
					"type": "uint256"
				}
			],
			"stateMutability": "view",
			"type": "function"
		},
		{
			"inputs": [
				{
					"internalType": "address",
					"name": "to",
					"type": "address"
				},
				{
					"internalType": "uint256",
					"name": "value",
					"type": "uint256"
				}
			],
			"name": "transfer",
			"outputs": [
				{
					"internalType": "bool",
					"name": "",
					"type": "bool"
				}
			],
			"stateMutability": "nonpayable",
			"type": "function"
		},
		{
			"inputs": [
				{
					"internalType": "address",
					"name": "from",
					"type": "address"
				},
				{
					"internalType": "address",
					"name": "to",
					"type": "address"
				},
				{
					"internalType": "uint256",
					"name": "value",
					"type": "uint256"
				}
			],
			"name": "transferFrom",
			"outputs": [
				{
					"internalType": "bool",
					"name": "",
					"type": "bool"
				}
			],
			"stateMutability": "nonpayable",
			"type": "function"
		},
		{
			"inputs": [
				{
					"internalType": "address",
					"name": "newOwner",
					"type": "address"
				}
			],
			"name": "transferOwnership",
			"outputs": [],
			"stateMutability": "nonpayable",
			"type": "function"
		},
		{
			"inputs": [
				{
					"internalType": "uint256",
					"name": "amount",
					"type": "uint256"
				}
			],
			"name": "withdrawTaxes",
			"outputs": [],
			"stateMutability": "nonpayable",
			"type": "function"
		}
	]
}