{
	"Smart contracts/SC4.sol": {
		"RenewableEnergy": {
			"abi": [
				{
					"anonymous": false,
					"inputs": [
						{
							"indexed": true,
							"internalType": "address",
							"name": "resident",
							"type": "address"
						},
						{
							"indexed": false,
							"internalType": "uint256",
							"name": "amount",
							"type": "uint256"
						}
					],
					"name": "EnergyGenerated",
					"type": "event"
				},
				{
					"anonymous": false,
					"inputs": [
						{
							"indexed": true,
							"internalType": "address",
							"name": "resident",
							"type": "address"
						},
						{
							"indexed": false,
							"internalType": "uint256",
							"name": "amount",
							"type": "uint256"
						}
					],
					"name": "PaymentMade",
					"type": "event"
				},
				{
					"inputs": [],
					"name": "depositFunds",
					"outputs": [],
					"stateMutability": "payable",
					"type": "function"
				},
				{
					"inputs": [],
					"name": "pricePerUnit",
					"outputs": [
						{
							"internalType": "uint256",
							"name": "",
							"type": "uint256"
						}
					],
					"stateMutability": "view",
					"type": "function"
				},
				{
					"inputs": [
						{
							"internalType": "address",
							"name": "",
							"type": "address"
						}
					],
					"name": "residentEnergy",
					"outputs": [
						{
							"internalType": "uint256",
							"name": "",
							"type": "uint256"
						}
					],
					"stateMutability": "view",
					"type": "function"
				},
				{
					"inputs": [
						{
							"internalType": "uint256",
							"name": "_initialPrice",
							"type": "uint256"
						},
						{
							"internalType": "address payable",
							"name": "_company",
							"type": "address"
						}
					],
					"name": "setInitialValues",
					"outputs": [],
					"stateMutability": "nonpayable",
					"type": "function"
				},
				{
					"inputs": [],
					"name": "utilityCompany",
					"outputs": [
						{
							"internalType": "address payable",
							"name": "",
							"type": "address"
						}
					],
					"stateMutability": "view",
					"type": "function"
				},
				{
					"inputs": [],
					"name": "withdrawPayment",
					"outputs": [],
					"stateMutability": "nonpayable",
					"type": "function"
				}
			],
			"devdoc": {
				"kind": "dev",
				"methods": {},
				"version": 1
			},
			"evm": {
				"assembly": "    /* \"Smart contracts/SC4.sol\":59:1017  contract RenewableEnergy {... */\n  mstore(0x40, 0x80)\n  callvalue\n  dup1\n  iszero\n  tag_1\n  jumpi\n  0x00\n  dup1\n  revert\ntag_1:\n  pop\n  dataSize(sub_0)\n  dup1\n  dataOffset(sub_0)\n  0x00\n  codecopy\n  0x00\n  return\nstop\n\nsub_0: assembly {\n        /* \"Smart contracts/SC4.sol\":59:1017  contract RenewableEnergy {... */\n      mstore(0x40, 0x80)\n      jumpi(tag_1, lt(calldatasize, 0x04))\n      shr(0xe0, calldataload(0x00))\n      dup1\n      0x20f12c09\n      eq\n      tag_2\n      jumpi\n      dup1\n      0xa118babd\n      eq\n      tag_3\n      jumpi\n      dup1\n      0xcb3e965a\n      eq\n      tag_4\n      jumpi\n      dup1\n      0xe19db6a6\n      eq\n      tag_5\n      jumpi\n      dup1\n      0xe2c41dbc\n      eq\n      tag_6\n      jumpi\n      dup1\n      0xe66825c3\n      eq\n      tag_7\n      jumpi\n    tag_1:\n      0x00\n      dup1\n      revert\n        /* \"Smart contracts/SC4.sol\":347:572  function setInitialValues(uint _initialPrice, address payable _company) public {... */\n    tag_2:\n      callvalue\n      dup1\n      iszero\n      tag_8\n      jumpi\n      0x00\n      dup1\n      revert\n    tag_8:\n      pop\n      tag_9\n      0x04\n      dup1\n      calldatasize\n      sub\n      dup2\n      add\n      swap1\n      tag_10\n      swap2\n      swap1\n      tag_11\n      jump\t// in\n    tag_10:\n      tag_12\n      jump\t// in\n    tag_9:\n      stop\n        /* \"Smart contracts/SC4.sol\":719:1015  function withdrawPayment() public {... */\n    tag_3:\n      callvalue\n      dup1\n      iszero\n      tag_13\n      jumpi\n      0x00\n      dup1\n      revert\n    tag_13:\n      pop\n      tag_14\n      tag_15\n      jump\t// in\n    tag_14:\n      stop\n        /* \"Smart contracts/SC4.sol\":173:210  address payable public utilityCompany */\n    tag_4:\n      callvalue\n      dup1\n      iszero\n      tag_16\n      jumpi\n      0x00\n      dup1\n      revert\n    tag_16:\n      pop\n      tag_17\n      tag_18\n      jump\t// in\n    tag_17:\n      mload(0x40)\n      tag_19\n      swap2\n      swap1\n      tag_20\n      jump\t// in\n    tag_19:\n      mload(0x40)\n      dup1\n      swap2\n      sub\n      swap1\n      return\n        /* \"Smart contracts/SC4.sol\":91:137  mapping(address => uint) public residentEnergy */\n    tag_5:\n      callvalue\n      dup1\n      iszero\n      tag_21\n      jumpi\n      0x00\n      dup1\n      revert\n    tag_21:\n      pop\n      tag_22\n      0x04\n      dup1\n      calldatasize\n      sub\n      dup2\n      add\n      swap1\n      tag_23\n      swap2\n      swap1\n      tag_24\n      jump\t// in\n    tag_23:\n      tag_25\n      jump\t// in\n    tag_22:\n      mload(0x40)\n      tag_26\n      swap2\n      swap1\n      tag_27\n      jump\t// in\n    tag_26:\n      mload(0x40)\n      dup1\n      swap2\n      sub\n      swap1\n      return\n        /* \"Smart contracts/SC4.sol\":578:713  function depositFunds() public payable {... */\n    tag_6:\n      tag_28\n      tag_29\n      jump\t// in\n    tag_28:\n      stop\n        /* \"Smart contracts/SC4.sol\":143:167  uint public pricePerUnit */\n    tag_7:\n      callvalue\n      dup1\n      iszero\n      tag_30\n      jumpi\n      0x00\n      dup1\n      revert\n    tag_30:\n      pop\n      tag_31\n      tag_32\n      jump\t// in\n    tag_31:\n      mload(0x40)\n      tag_33\n      swap2\n      swap1\n      tag_27\n      jump\t// in\n    tag_33:\n      mload(0x40)\n      dup1\n      swap2\n      sub\n      swap1\n      return\n        /* \"Smart contracts/SC4.sol\":347:572  function setInitialValues(uint _initialPrice, address payable _company) public {... */\n    tag_12:\n        /* \"Smart contracts/SC4.sol\":460:461  0 */\n      0x00\n        /* \"Smart contracts/SC4.sol\":444:456  pricePerUnit */\n      sload(0x01)\n        /* \"Smart contracts/SC4.sol\":444:461  pricePerUnit == 0 */\n      eq\n        /* \"Smart contracts/SC4.sol\":436:492  require(pricePerUnit == 0, \"Initial values already set\") */\n      tag_35\n      jumpi\n      mload(0x40)\n      0x08c379a000000000000000000000000000000000000000000000000000000000\n      dup2\n      mstore\n      0x04\n      add\n      tag_36\n      swap1\n      tag_37\n      jump\t// in\n    tag_36:\n      mload(0x40)\n      dup1\n      swap2\n      sub\n      swap1\n      revert\n    tag_35:\n        /* \"Smart contracts/SC4.sol\":517:530  _initialPrice */\n      dup2\n        /* \"Smart contracts/SC4.sol\":502:514  pricePerUnit */\n      0x01\n        /* \"Smart contracts/SC4.sol\":502:530  pricePerUnit = _initialPrice */\n      dup2\n      swap1\n      sstore\n      pop\n        /* \"Smart contracts/SC4.sol\":557:565  _company */\n      dup1\n        /* \"Smart contracts/SC4.sol\":540:554  utilityCompany */\n      0x02\n      0x00\n        /* \"Smart contracts/SC4.sol\":540:565  utilityCompany = _company */\n      0x0100\n      exp\n      dup2\n      sload\n      dup2\n      0xffffffffffffffffffffffffffffffffffffffff\n      mul\n      not\n      and\n      swap1\n      dup4\n      0xffffffffffffffffffffffffffffffffffffffff\n      and\n      mul\n      or\n      swap1\n      sstore\n      pop\n        /* \"Smart contracts/SC4.sol\":347:572  function setInitialValues(uint _initialPrice, address payable _company) public {... */\n      pop\n      pop\n      jump\t// out\n        /* \"Smart contracts/SC4.sol\":719:1015  function withdrawPayment() public {... */\n    tag_15:\n        /* \"Smart contracts/SC4.sol\":763:774  uint amount */\n      0x00\n        /* \"Smart contracts/SC4.sol\":806:818  pricePerUnit */\n      sload(0x01)\n        /* \"Smart contracts/SC4.sol\":777:791  residentEnergy */\n      0x00\n        /* \"Smart contracts/SC4.sol\":777:803  residentEnergy[msg.sender] */\n      dup1\n        /* \"Smart contracts/SC4.sol\":792:802  msg.sender */\n      caller\n        /* \"Smart contracts/SC4.sol\":777:803  residentEnergy[msg.sender] */\n      0xffffffffffffffffffffffffffffffffffffffff\n      and\n      0xffffffffffffffffffffffffffffffffffffffff\n      and\n      dup2\n      mstore\n      0x20\n      add\n      swap1\n      dup2\n      mstore\n      0x20\n      add\n      0x00\n      keccak256\n      sload\n        /* \"Smart contracts/SC4.sol\":777:818  residentEnergy[msg.sender] * pricePerUnit */\n      tag_39\n      swap2\n      swap1\n      tag_40\n      jump\t// in\n    tag_39:\n        /* \"Smart contracts/SC4.sol\":763:818  uint amount = residentEnergy[msg.sender] * pricePerUnit */\n      swap1\n      pop\n        /* \"Smart contracts/SC4.sol\":845:846  0 */\n      0x00\n        /* \"Smart contracts/SC4.sol\":836:842  amount */\n      dup2\n        /* \"Smart contracts/SC4.sol\":836:846  amount > 0 */\n      gt\n        /* \"Smart contracts/SC4.sol\":828:881  require(amount > 0, \"No earned payments to withdraw\") */\n      tag_41\n      jumpi\n      mload(0x40)\n      0x08c379a000000000000000000000000000000000000000000000000000000000\n      dup2\n      mstore\n      0x04\n      add\n      tag_42\n      swap1\n      tag_43\n      jump\t// in\n    tag_42:\n      mload(0x40)\n      dup1\n      swap2\n      sub\n      swap1\n      revert\n    tag_41:\n        /* \"Smart contracts/SC4.sol\":920:921  0 */\n      0x00\n        /* \"Smart contracts/SC4.sol\":891:905  residentEnergy */\n      dup1\n        /* \"Smart contracts/SC4.sol\":891:917  residentEnergy[msg.sender] */\n      0x00\n        /* \"Smart contracts/SC4.sol\":906:916  msg.sender */\n      caller\n        /* \"Smart contracts/SC4.sol\":891:917  residentEnergy[msg.sender] */\n      0xffffffffffffffffffffffffffffffffffffffff\n      and\n      0xffffffffffffffffffffffffffffffffffffffff\n      and\n      dup2\n      mstore\n      0x20\n      add\n      swap1\n      dup2\n      mstore\n      0x20\n      add\n      0x00\n      keccak256\n        /* \"Smart contracts/SC4.sol\":891:921  residentEnergy[msg.sender] = 0 */\n      dup2\n      swap1\n      sstore\n      pop\n        /* \"Smart contracts/SC4.sol\":931:945  utilityCompany */\n      0x02\n      0x00\n      swap1\n      sload\n      swap1\n      0x0100\n      exp\n      swap1\n      div\n      0xffffffffffffffffffffffffffffffffffffffff\n      and\n        /* \"Smart contracts/SC4.sol\":931:954  utilityCompany.transfer */\n      0xffffffffffffffffffffffffffffffffffffffff\n      and\n        /* \"Smart contracts/SC4.sol\":931:962  utilityCompany.transfer(amount) */\n      0x08fc\n        /* \"Smart contracts/SC4.sol\":955:961  amount */\n      dup3\n        /* \"Smart contracts/SC4.sol\":931:962  utilityCompany.transfer(amount) */\n      swap1\n      dup2\n      iszero\n      mul\n      swap1\n      mload(0x40)\n      0x00\n      mload(0x40)\n      dup1\n      dup4\n      sub\n      dup2\n      dup6\n      dup9\n      dup9\n      call\n      swap4\n      pop\n      pop\n      pop\n      pop\n      iszero\n      dup1\n      iszero\n      tag_45\n      jumpi\n      returndatasize\n      0x00\n      dup1\n      returndatacopy\n      revert(0x00, returndatasize)\n    tag_45:\n      pop\n        /* \"Smart contracts/SC4.sol\":989:999  msg.sender */\n      caller\n        /* \"Smart contracts/SC4.sol\":977:1008  PaymentMade(msg.sender, amount) */\n      0xffffffffffffffffffffffffffffffffffffffff\n      and\n      0x3a2d0e41c506b136330c6e5e0295ccbf0966daece99bfe7c89020cc01dbfb8d6\n        /* \"Smart contracts/SC4.sol\":1001:1007  amount */\n      dup3\n        /* \"Smart contracts/SC4.sol\":977:1008  PaymentMade(msg.sender, amount) */\n      mload(0x40)\n      tag_46\n      swap2\n      swap1\n      tag_27\n      jump\t// in\n    tag_46:\n      mload(0x40)\n      dup1\n      swap2\n      sub\n      swap1\n      log2\n        /* \"Smart contracts/SC4.sol\":753:1015  {... */\n      pop\n        /* \"Smart contracts/SC4.sol\":719:1015  function withdrawPayment() public {... */\n      jump\t// out\n        /* \"Smart contracts/SC4.sol\":173:210  address payable public utilityCompany */\n    tag_18:\n      0x02\n      0x00\n      swap1\n      sload\n      swap1\n      0x0100\n      exp\n      swap1\n      div\n      0xffffffffffffffffffffffffffffffffffffffff\n      and\n      dup2\n      jump\t// out\n        /* \"Smart contracts/SC4.sol\":91:137  mapping(address => uint) public residentEnergy */\n    tag_25:\n      mstore(0x20, 0x00)\n      dup1\n      0x00\n      mstore\n      keccak256(0x00, 0x40)\n      0x00\n      swap2\n      pop\n      swap1\n      pop\n      sload\n      dup2\n      jump\t// out\n        /* \"Smart contracts/SC4.sol\":578:713  function depositFunds() public payable {... */\n    tag_29:\n        /* \"Smart contracts/SC4.sol\":649:663  utilityCompany */\n      0x02\n      0x00\n      swap1\n      sload\n      swap1\n      0x0100\n      exp\n      swap1\n      div\n      0xffffffffffffffffffffffffffffffffffffffff\n      and\n        /* \"Smart contracts/SC4.sol\":635:663  msg.sender == utilityCompany */\n      0xffffffffffffffffffffffffffffffffffffffff\n      and\n        /* \"Smart contracts/SC4.sol\":635:645  msg.sender */\n      caller\n        /* \"Smart contracts/SC4.sol\":635:663  msg.sender == utilityCompany */\n      0xffffffffffffffffffffffffffffffffffffffff\n      and\n      eq\n        /* \"Smart contracts/SC4.sol\":627:706  require(msg.sender == utilityCompany, \"Only utility company can deposit funds\") */\n      tag_48\n      jumpi\n      mload(0x40)\n      0x08c379a000000000000000000000000000000000000000000000000000000000\n      dup2\n      mstore\n      0x04\n      add\n      tag_49\n      swap1\n      tag_50\n      jump\t// in\n    tag_49:\n      mload(0x40)\n      dup1\n      swap2\n      sub\n      swap1\n      revert\n    tag_48:\n        /* \"Smart contracts/SC4.sol\":578:713  function depositFunds() public payable {... */\n      jump\t// out\n        /* \"Smart contracts/SC4.sol\":143:167  uint public pricePerUnit */\n    tag_32:\n      sload(0x01)\n      dup2\n      jump\t// out\n        /* \"#utility.yul\":88:205   */\n    tag_52:\n        /* \"#utility.yul\":197:198   */\n      0x00\n        /* \"#utility.yul\":194:195   */\n      dup1\n        /* \"#utility.yul\":187:199   */\n      revert\n        /* \"#utility.yul\":334:411   */\n    tag_54:\n        /* \"#utility.yul\":371:378   */\n      0x00\n        /* \"#utility.yul\":400:405   */\n      dup2\n        /* \"#utility.yul\":389:405   */\n      swap1\n      pop\n        /* \"#utility.yul\":334:411   */\n      swap2\n      swap1\n      pop\n      jump\t// out\n        /* \"#utility.yul\":417:539   */\n    tag_55:\n        /* \"#utility.yul\":490:514   */\n      tag_80\n        /* \"#utility.yul\":508:513   */\n      dup2\n        /* \"#utility.yul\":490:514   */\n      tag_54\n      jump\t// in\n    tag_80:\n        /* \"#utility.yul\":483:488   */\n      dup2\n        /* \"#utility.yul\":480:515   */\n      eq\n        /* \"#utility.yul\":470:533   */\n      tag_81\n      jumpi\n        /* \"#utility.yul\":529:530   */\n      0x00\n        /* \"#utility.yul\":526:527   */\n      dup1\n        /* \"#utility.yul\":519:531   */\n      revert\n        /* \"#utility.yul\":470:533   */\n    tag_81:\n        /* \"#utility.yul\":417:539   */\n      pop\n      jump\t// out\n        /* \"#utility.yul\":545:684   */\n    tag_56:\n        /* \"#utility.yul\":591:596   */\n      0x00\n        /* \"#utility.yul\":629:635   */\n      dup2\n        /* \"#utility.yul\":616:636   */\n      calldataload\n        /* \"#utility.yul\":607:636   */\n      swap1\n      pop\n        /* \"#utility.yul\":645:678   */\n      tag_83\n        /* \"#utility.yul\":672:677   */\n      dup2\n        /* \"#utility.yul\":645:678   */\n      tag_55\n      jump\t// in\n    tag_83:\n        /* \"#utility.yul\":545:684   */\n      swap3\n      swap2\n      pop\n      pop\n      jump\t// out\n        /* \"#utility.yul\":690:816   */\n    tag_57:\n        /* \"#utility.yul\":727:734   */\n      0x00\n        /* \"#utility.yul\":767:809   */\n      0xffffffffffffffffffffffffffffffffffffffff\n        /* \"#utility.yul\":760:765   */\n      dup3\n        /* \"#utility.yul\":756:810   */\n      and\n        /* \"#utility.yul\":745:810   */\n      swap1\n      pop\n        /* \"#utility.yul\":690:816   */\n      swap2\n      swap1\n      pop\n      jump\t// out\n        /* \"#utility.yul\":822:926   */\n    tag_58:\n        /* \"#utility.yul\":867:874   */\n      0x00\n        /* \"#utility.yul\":896:920   */\n      tag_86\n        /* \"#utility.yul\":914:919   */\n      dup3\n        /* \"#utility.yul\":896:920   */\n      tag_57\n      jump\t// in\n    tag_86:\n        /* \"#utility.yul\":885:920   */\n      swap1\n      pop\n        /* \"#utility.yul\":822:926   */\n      swap2\n      swap1\n      pop\n      jump\t// out\n        /* \"#utility.yul\":932:1070   */\n    tag_59:\n        /* \"#utility.yul\":1013:1045   */\n      tag_88\n        /* \"#utility.yul\":1039:1044   */\n      dup2\n        /* \"#utility.yul\":1013:1045   */\n      tag_58\n      jump\t// in\n    tag_88:\n        /* \"#utility.yul\":1006:1011   */\n      dup2\n        /* \"#utility.yul\":1003:1046   */\n      eq\n        /* \"#utility.yul\":993:1064   */\n      tag_89\n      jumpi\n        /* \"#utility.yul\":1060:1061   */\n      0x00\n        /* \"#utility.yul\":1057:1058   */\n      dup1\n        /* \"#utility.yul\":1050:1062   */\n      revert\n        /* \"#utility.yul\":993:1064   */\n    tag_89:\n        /* \"#utility.yul\":932:1070   */\n      pop\n      jump\t// out\n        /* \"#utility.yul\":1076:1231   */\n    tag_60:\n        /* \"#utility.yul\":1130:1135   */\n      0x00\n        /* \"#utility.yul\":1168:1174   */\n      dup2\n        /* \"#utility.yul\":1155:1175   */\n      calldataload\n        /* \"#utility.yul\":1146:1175   */\n      swap1\n      pop\n        /* \"#utility.yul\":1184:1225   */\n      tag_91\n        /* \"#utility.yul\":1219:1224   */\n      dup2\n        /* \"#utility.yul\":1184:1225   */\n      tag_59\n      jump\t// in\n    tag_91:\n        /* \"#utility.yul\":1076:1231   */\n      swap3\n      swap2\n      pop\n      pop\n      jump\t// out\n        /* \"#utility.yul\":1237:1727   */\n    tag_11:\n        /* \"#utility.yul\":1313:1319   */\n      0x00\n        /* \"#utility.yul\":1321:1327   */\n      dup1\n        /* \"#utility.yul\":1370:1372   */\n      0x40\n        /* \"#utility.yul\":1358:1367   */\n      dup4\n        /* \"#utility.yul\":1349:1356   */\n      dup6\n        /* \"#utility.yul\":1345:1368   */\n      sub\n        /* \"#utility.yul\":1341:1373   */\n      slt\n        /* \"#utility.yul\":1338:1457   */\n      iszero\n      tag_93\n      jumpi\n        /* \"#utility.yul\":1376:1455   */\n      tag_94\n      tag_52\n      jump\t// in\n    tag_94:\n        /* \"#utility.yul\":1338:1457   */\n    tag_93:\n        /* \"#utility.yul\":1496:1497   */\n      0x00\n        /* \"#utility.yul\":1521:1574   */\n      tag_95\n        /* \"#utility.yul\":1566:1573   */\n      dup6\n        /* \"#utility.yul\":1557:1563   */\n      dup3\n        /* \"#utility.yul\":1546:1555   */\n      dup7\n        /* \"#utility.yul\":1542:1564   */\n      add\n        /* \"#utility.yul\":1521:1574   */\n      tag_56\n      jump\t// in\n    tag_95:\n        /* \"#utility.yul\":1511:1574   */\n      swap3\n      pop\n        /* \"#utility.yul\":1467:1584   */\n      pop\n        /* \"#utility.yul\":1623:1625   */\n      0x20\n        /* \"#utility.yul\":1649:1710   */\n      tag_96\n        /* \"#utility.yul\":1702:1709   */\n      dup6\n        /* \"#utility.yul\":1693:1699   */\n      dup3\n        /* \"#utility.yul\":1682:1691   */\n      dup7\n        /* \"#utility.yul\":1678:1700   */\n      add\n        /* \"#utility.yul\":1649:1710   */\n      tag_60\n      jump\t// in\n    tag_96:\n        /* \"#utility.yul\":1639:1710   */\n      swap2\n      pop\n        /* \"#utility.yul\":1594:1720   */\n      pop\n        /* \"#utility.yul\":1237:1727   */\n      swap3\n      pop\n      swap3\n      swap1\n      pop\n      jump\t// out\n        /* \"#utility.yul\":1733:1875   */\n    tag_61:\n        /* \"#utility.yul\":1836:1868   */\n      tag_98\n        /* \"#utility.yul\":1862:1867   */\n      dup2\n        /* \"#utility.yul\":1836:1868   */\n      tag_58\n      jump\t// in\n    tag_98:\n        /* \"#utility.yul\":1831:1834   */\n      dup3\n        /* \"#utility.yul\":1824:1869   */\n      mstore\n        /* \"#utility.yul\":1733:1875   */\n      pop\n      pop\n      jump\t// out\n        /* \"#utility.yul\":1881:2135   */\n    tag_20:\n        /* \"#utility.yul\":1990:1994   */\n      0x00\n        /* \"#utility.yul\":2028:2030   */\n      0x20\n        /* \"#utility.yul\":2017:2026   */\n      dup3\n        /* \"#utility.yul\":2013:2031   */\n      add\n        /* \"#utility.yul\":2005:2031   */\n      swap1\n      pop\n        /* \"#utility.yul\":2041:2128   */\n      tag_100\n        /* \"#utility.yul\":2125:2126   */\n      0x00\n        /* \"#utility.yul\":2114:2123   */\n      dup4\n        /* \"#utility.yul\":2110:2127   */\n      add\n        /* \"#utility.yul\":2101:2107   */\n      dup5\n        /* \"#utility.yul\":2041:2128   */\n      tag_61\n      jump\t// in\n    tag_100:\n        /* \"#utility.yul\":1881:2135   */\n      swap3\n      swap2\n      pop\n      pop\n      jump\t// out\n        /* \"#utility.yul\":2141:2237   */\n    tag_62:\n        /* \"#utility.yul\":2178:2185   */\n      0x00\n        /* \"#utility.yul\":2207:2231   */\n      tag_102\n        /* \"#utility.yul\":2225:2230   */\n      dup3\n        /* \"#utility.yul\":2207:2231   */\n      tag_57\n      jump\t// in\n    tag_102:\n        /* \"#utility.yul\":2196:2231   */\n      swap1\n      pop\n        /* \"#utility.yul\":2141:2237   */\n      swap2\n      swap1\n      pop\n      jump\t// out\n        /* \"#utility.yul\":2243:2365   */\n    tag_63:\n        /* \"#utility.yul\":2316:2340   */\n      tag_104\n        /* \"#utility.yul\":2334:2339   */\n      dup2\n        /* \"#utility.yul\":2316:2340   */\n      tag_62\n      jump\t// in\n    tag_104:\n        /* \"#utility.yul\":2309:2314   */\n      dup2\n        /* \"#utility.yul\":2306:2341   */\n      eq\n        /* \"#utility.yul\":2296:2359   */\n      tag_105\n      jumpi\n        /* \"#utility.yul\":2355:2356   */\n      0x00\n        /* \"#utility.yul\":2352:2353   */\n      dup1\n        /* \"#utility.yul\":2345:2357   */\n      revert\n        /* \"#utility.yul\":2296:2359   */\n    tag_105:\n        /* \"#utility.yul\":2243:2365   */\n      pop\n      jump\t// out\n        /* \"#utility.yul\":2371:2510   */\n    tag_64:\n        /* \"#utility.yul\":2417:2422   */\n      0x00\n        /* \"#utility.yul\":2455:2461   */\n      dup2\n        /* \"#utility.yul\":2442:2462   */\n      calldataload\n        /* \"#utility.yul\":2433:2462   */\n      swap1\n      pop\n        /* \"#utility.yul\":2471:2504   */\n      tag_107\n        /* \"#utility.yul\":2498:2503   */\n      dup2\n        /* \"#utility.yul\":2471:2504   */\n      tag_63\n      jump\t// in\n    tag_107:\n        /* \"#utility.yul\":2371:2510   */\n      swap3\n      swap2\n      pop\n      pop\n      jump\t// out\n        /* \"#utility.yul\":2516:2845   */\n    tag_24:\n        /* \"#utility.yul\":2575:2581   */\n      0x00\n        /* \"#utility.yul\":2624:2626   */\n      0x20\n        /* \"#utility.yul\":2612:2621   */\n      dup3\n        /* \"#utility.yul\":2603:2610   */\n      dup5\n        /* \"#utility.yul\":2599:2622   */\n      sub\n        /* \"#utility.yul\":2595:2627   */\n      slt\n        /* \"#utility.yul\":2592:2711   */\n      iszero\n      tag_109\n      jumpi\n        /* \"#utility.yul\":2630:2709   */\n      tag_110\n      tag_52\n      jump\t// in\n    tag_110:\n        /* \"#utility.yul\":2592:2711   */\n    tag_109:\n        /* \"#utility.yul\":2750:2751   */\n      0x00\n        /* \"#utility.yul\":2775:2828   */\n      tag_111\n        /* \"#utility.yul\":2820:2827   */\n      dup5\n        /* \"#utility.yul\":2811:2817   */\n      dup3\n        /* \"#utility.yul\":2800:2809   */\n      dup6\n        /* \"#utility.yul\":2796:2818   */\n      add\n        /* \"#utility.yul\":2775:2828   */\n      tag_64\n      jump\t// in\n    tag_111:\n        /* \"#utility.yul\":2765:2828   */\n      swap2\n      pop\n        /* \"#utility.yul\":2721:2838   */\n      pop\n        /* \"#utility.yul\":2516:2845   */\n      swap3\n      swap2\n      pop\n      pop\n      jump\t// out\n        /* \"#utility.yul\":2851:2969   */\n    tag_65:\n        /* \"#utility.yul\":2938:2962   */\n      tag_113\n        /* \"#utility.yul\":2956:2961   */\n      dup2\n        /* \"#utility.yul\":2938:2962   */\n      tag_54\n      jump\t// in\n    tag_113:\n        /* \"#utility.yul\":2933:2936   */\n      dup3\n        /* \"#utility.yul\":2926:2963   */\n      mstore\n        /* \"#utility.yul\":2851:2969   */\n      pop\n      pop\n      jump\t// out\n        /* \"#utility.yul\":2975:3197   */\n    tag_27:\n        /* \"#utility.yul\":3068:3072   */\n      0x00\n        /* \"#utility.yul\":3106:3108   */\n      0x20\n        /* \"#utility.yul\":3095:3104   */\n      dup3\n        /* \"#utility.yul\":3091:3109   */\n      add\n        /* \"#utility.yul\":3083:3109   */\n      swap1\n      pop\n        /* \"#utility.yul\":3119:3190   */\n      tag_115\n        /* \"#utility.yul\":3187:3188   */\n      0x00\n        /* \"#utility.yul\":3176:3185   */\n      dup4\n        /* \"#utility.yul\":3172:3189   */\n      add\n        /* \"#utility.yul\":3163:3169   */\n      dup5\n        /* \"#utility.yul\":3119:3190   */\n      tag_65\n      jump\t// in\n    tag_115:\n        /* \"#utility.yul\":2975:3197   */\n      swap3\n      swap2\n      pop\n      pop\n      jump\t// out\n        /* \"#utility.yul\":3203:3372   */\n    tag_66:\n        /* \"#utility.yul\":3287:3298   */\n      0x00\n        /* \"#utility.yul\":3321:3327   */\n      dup3\n        /* \"#utility.yul\":3316:3319   */\n      dup3\n        /* \"#utility.yul\":3309:3328   */\n      mstore\n        /* \"#utility.yul\":3361:3365   */\n      0x20\n        /* \"#utility.yul\":3356:3359   */\n      dup3\n        /* \"#utility.yul\":3352:3366   */\n      add\n        /* \"#utility.yul\":3337:3366   */\n      swap1\n      pop\n        /* \"#utility.yul\":3203:3372   */\n      swap3\n      swap2\n      pop\n      pop\n      jump\t// out\n        /* \"#utility.yul\":3378:3554   */\n    tag_67:\n        /* \"#utility.yul\":3518:3546   */\n      0x496e697469616c2076616c75657320616c726561647920736574000000000000\n        /* \"#utility.yul\":3514:3515   */\n      0x00\n        /* \"#utility.yul\":3506:3512   */\n      dup3\n        /* \"#utility.yul\":3502:3516   */\n      add\n        /* \"#utility.yul\":3495:3547   */\n      mstore\n        /* \"#utility.yul\":3378:3554   */\n      pop\n      jump\t// out\n        /* \"#utility.yul\":3560:3926   */\n    tag_68:\n        /* \"#utility.yul\":3702:3705   */\n      0x00\n        /* \"#utility.yul\":3723:3790   */\n      tag_119\n        /* \"#utility.yul\":3787:3789   */\n      0x1a\n        /* \"#utility.yul\":3782:3785   */\n      dup4\n        /* \"#utility.yul\":3723:3790   */\n      tag_66\n      jump\t// in\n    tag_119:\n        /* \"#utility.yul\":3716:3790   */\n      swap2\n      pop\n        /* \"#utility.yul\":3799:3892   */\n      tag_120\n        /* \"#utility.yul\":3888:3891   */\n      dup3\n        /* \"#utility.yul\":3799:3892   */\n      tag_67\n      jump\t// in\n    tag_120:\n        /* \"#utility.yul\":3917:3919   */\n      0x20\n        /* \"#utility.yul\":3912:3915   */\n      dup3\n        /* \"#utility.yul\":3908:3920   */\n      add\n        /* \"#utility.yul\":3901:3920   */\n      swap1\n      pop\n        /* \"#utility.yul\":3560:3926   */\n      swap2\n      swap1\n      pop\n      jump\t// out\n        /* \"#utility.yul\":3932:4351   */\n    tag_37:\n        /* \"#utility.yul\":4098:4102   */\n      0x00\n        /* \"#utility.yul\":4136:4138   */\n      0x20\n        /* \"#utility.yul\":4125:4134   */\n      dup3\n        /* \"#utility.yul\":4121:4139   */\n      add\n        /* \"#utility.yul\":4113:4139   */\n      swap1\n      pop\n        /* \"#utility.yul\":4185:4194   */\n      dup2\n        /* \"#utility.yul\":4179:4183   */\n      dup2\n        /* \"#utility.yul\":4175:4195   */\n      sub\n        /* \"#utility.yul\":4171:4172   */\n      0x00\n        /* \"#utility.yul\":4160:4169   */\n      dup4\n        /* \"#utility.yul\":4156:4173   */\n      add\n        /* \"#utility.yul\":4149:4196   */\n      mstore\n        /* \"#utility.yul\":4213:4344   */\n      tag_122\n        /* \"#utility.yul\":4339:4343   */\n      dup2\n        /* \"#utility.yul\":4213:4344   */\n      tag_68\n      jump\t// in\n    tag_122:\n        /* \"#utility.yul\":4205:4344   */\n      swap1\n      pop\n        /* \"#utility.yul\":3932:4351   */\n      swap2\n      swap1\n      pop\n      jump\t// out\n        /* \"#utility.yul\":4357:4537   */\n    tag_69:\n        /* \"#utility.yul\":4405:4482   */\n      0x4e487b7100000000000000000000000000000000000000000000000000000000\n        /* \"#utility.yul\":4402:4403   */\n      0x00\n        /* \"#utility.yul\":4395:4483   */\n      mstore\n        /* \"#utility.yul\":4502:4506   */\n      0x11\n        /* \"#utility.yul\":4499:4500   */\n      0x04\n        /* \"#utility.yul\":4492:4507   */\n      mstore\n        /* \"#utility.yul\":4526:4530   */\n      0x24\n        /* \"#utility.yul\":4523:4524   */\n      0x00\n        /* \"#utility.yul\":4516:4531   */\n      revert\n        /* \"#utility.yul\":4543:4953   */\n    tag_40:\n        /* \"#utility.yul\":4583:4590   */\n      0x00\n        /* \"#utility.yul\":4606:4626   */\n      tag_125\n        /* \"#utility.yul\":4624:4625   */\n      dup3\n        /* \"#utility.yul\":4606:4626   */\n      tag_54\n      jump\t// in\n    tag_125:\n        /* \"#utility.yul\":4601:4626   */\n      swap2\n      pop\n        /* \"#utility.yul\":4640:4660   */\n      tag_126\n        /* \"#utility.yul\":4658:4659   */\n      dup4\n        /* \"#utility.yul\":4640:4660   */\n      tag_54\n      jump\t// in\n    tag_126:\n        /* \"#utility.yul\":4635:4660   */\n      swap3\n      pop\n        /* \"#utility.yul\":4695:4696   */\n      dup3\n        /* \"#utility.yul\":4692:4693   */\n      dup3\n        /* \"#utility.yul\":4688:4697   */\n      mul\n        /* \"#utility.yul\":4717:4747   */\n      tag_127\n        /* \"#utility.yul\":4735:4746   */\n      dup2\n        /* \"#utility.yul\":4717:4747   */\n      tag_54\n      jump\t// in\n    tag_127:\n        /* \"#utility.yul\":4706:4747   */\n      swap2\n      pop\n        /* \"#utility.yul\":4896:4897   */\n      dup3\n        /* \"#utility.yul\":4887:4894   */\n      dup3\n        /* \"#utility.yul\":4883:4898   */\n      div\n        /* \"#utility.yul\":4880:4881   */\n      dup5\n        /* \"#utility.yul\":4877:4899   */\n      eq\n        /* \"#utility.yul\":4857:4858   */\n      dup4\n        /* \"#utility.yul\":4850:4859   */\n      iszero\n        /* \"#utility.yul\":4830:4913   */\n      or\n        /* \"#utility.yul\":4807:4946   */\n      tag_128\n      jumpi\n        /* \"#utility.yul\":4926:4944   */\n      tag_129\n      tag_69\n      jump\t// in\n    tag_129:\n        /* \"#utility.yul\":4807:4946   */\n    tag_128:\n        /* \"#utility.yul\":4591:4953   */\n      pop\n        /* \"#utility.yul\":4543:4953   */\n      swap3\n      swap2\n      pop\n      pop\n      jump\t// out\n        /* \"#utility.yul\":4959:5139   */\n    tag_70:\n        /* \"#utility.yul\":5099:5131   */\n      0x4e6f206561726e6564207061796d656e747320746f2077697468647261770000\n        /* \"#utility.yul\":5095:5096   */\n      0x00\n        /* \"#utility.yul\":5087:5093   */\n      dup3\n        /* \"#utility.yul\":5083:5097   */\n      add\n        /* \"#utility.yul\":5076:5132   */\n      mstore\n        /* \"#utility.yul\":4959:5139   */\n      pop\n      jump\t// out\n        /* \"#utility.yul\":5145:5511   */\n    tag_71:\n        /* \"#utility.yul\":5287:5290   */\n      0x00\n        /* \"#utility.yul\":5308:5375   */\n      tag_132\n        /* \"#utility.yul\":5372:5374   */\n      0x1e\n        /* \"#utility.yul\":5367:5370   */\n      dup4\n        /* \"#utility.yul\":5308:5375   */\n      tag_66\n      jump\t// in\n    tag_132:\n        /* \"#utility.yul\":5301:5375   */\n      swap2\n      pop\n        /* \"#utility.yul\":5384:5477   */\n      tag_133\n        /* \"#utility.yul\":5473:5476   */\n      dup3\n        /* \"#utility.yul\":5384:5477   */\n      tag_70\n      jump\t// in\n    tag_133:\n        /* \"#utility.yul\":5502:5504   */\n      0x20\n        /* \"#utility.yul\":5497:5500   */\n      dup3\n        /* \"#utility.yul\":5493:5505   */\n      add\n        /* \"#utility.yul\":5486:5505   */\n      swap1\n      pop\n        /* \"#utility.yul\":5145:5511   */\n      swap2\n      swap1\n      pop\n      jump\t// out\n        /* \"#utility.yul\":5517:5936   */\n    tag_43:\n        /* \"#utility.yul\":5683:5687   */\n      0x00\n        /* \"#utility.yul\":5721:5723   */\n      0x20\n        /* \"#utility.yul\":5710:5719   */\n      dup3\n        /* \"#utility.yul\":5706:5724   */\n      add\n        /* \"#utility.yul\":5698:5724   */\n      swap1\n      pop\n        /* \"#utility.yul\":5770:5779   */\n      dup2\n        /* \"#utility.yul\":5764:5768   */\n      dup2\n        /* \"#utility.yul\":5760:5780   */\n      sub\n        /* \"#utility.yul\":5756:5757   */\n      0x00\n        /* \"#utility.yul\":5745:5754   */\n      dup4\n        /* \"#utility.yul\":5741:5758   */\n      add\n        /* \"#utility.yul\":5734:5781   */\n      mstore\n        /* \"#utility.yul\":5798:5929   */\n      tag_135\n        /* \"#utility.yul\":5924:5928   */\n      dup2\n        /* \"#utility.yul\":5798:5929   */\n      tag_71\n      jump\t// in\n    tag_135:\n        /* \"#utility.yul\":5790:5929   */\n      swap1\n      pop\n        /* \"#utility.yul\":5517:5936   */\n      swap2\n      swap1\n      pop\n      jump\t// out\n        /* \"#utility.yul\":5942:6167   */\n    tag_72:\n        /* \"#utility.yul\":6082:6116   */\n      0x4f6e6c79207574696c69747920636f6d70616e792063616e206465706f736974\n        /* \"#utility.yul\":6078:6079   */\n      0x00\n        /* \"#utility.yul\":6070:6076   */\n      dup3\n        /* \"#utility.yul\":6066:6080   */\n      add\n        /* \"#utility.yul\":6059:6117   */\n      mstore\n        /* \"#utility.yul\":6151:6159   */\n      0x2066756e64730000000000000000000000000000000000000000000000000000\n        /* \"#utility.yul\":6146:6148   */\n      0x20\n        /* \"#utility.yul\":6138:6144   */\n      dup3\n        /* \"#utility.yul\":6134:6149   */\n      add\n        /* \"#utility.yul\":6127:6160   */\n      mstore\n        /* \"#utility.yul\":5942:6167   */\n      pop\n      jump\t// out\n        /* \"#utility.yul\":6173:6539   */\n    tag_73:\n        /* \"#utility.yul\":6315:6318   */\n      0x00\n        /* \"#utility.yul\":6336:6403   */\n      tag_138\n        /* \"#utility.yul\":6400:6402   */\n      0x26\n        /* \"#utility.yul\":6395:6398   */\n      dup4\n        /* \"#utility.yul\":6336:6403   */\n      tag_66\n      jump\t// in\n    tag_138:\n        /* \"#utility.yul\":6329:6403   */\n      swap2\n      pop\n        /* \"#utility.yul\":6412:6505   */\n      tag_139\n        /* \"#utility.yul\":6501:6504   */\n      dup3\n        /* \"#utility.yul\":6412:6505   */\n      tag_72\n      jump\t// in\n    tag_139:\n        /* \"#utility.yul\":6530:6532   */\n      0x40\n        /* \"#utility.yul\":6525:6528   */\n      dup3\n        /* \"#utility.yul\":6521:6533   */\n      add\n        /* \"#utility.yul\":6514:6533   */\n      swap1\n      pop\n        /* \"#utility.yul\":6173:6539   */\n      swap2\n      swap1\n      pop\n      jump\t// out\n        /* \"#utility.yul\":6545:6964   */\n    tag_50:\n        /* \"#utility.yul\":6711:6715   */\n      0x00\n        /* \"#utility.yul\":6749:6751   */\n      0x20\n        /* \"#utility.yul\":6738:6747   */\n      dup3\n        /* \"#utility.yul\":6734:6752   */\n      add\n        /* \"#utility.yul\":6726:6752   */\n      swap1\n      pop\n        /* \"#utility.yul\":6798:6807   */\n      dup2\n        /* \"#utility.yul\":6792:6796   */\n      dup2\n        /* \"#utility.yul\":6788:6808   */\n      sub\n        /* \"#utility.yul\":6784:6785   */\n      0x00\n        /* \"#utility.yul\":6773:6782   */\n      dup4\n        /* \"#utility.yul\":6769:6786   */\n      add\n        /* \"#utility.yul\":6762:6809   */\n      mstore\n        /* \"#utility.yul\":6826:6957   */\n      tag_141\n        /* \"#utility.yul\":6952:6956   */\n      dup2\n        /* \"#utility.yul\":6826:6957   */\n      tag_73\n      jump\t// in\n    tag_141:\n        /* \"#utility.yul\":6818:6957   */\n      swap1\n      pop\n        /* \"#utility.yul\":6545:6964   */\n      swap2\n      swap1\n      pop\n      jump\t// out\n\n    auxdata: 0xa2646970667358221220ddeee07ef9435412d9c264fb206f16346085d43c7dd578d3866daa679396774364736f6c63430008190033\n}\n",
				"bytecode": {
					"linkReferences": {},
					"object": "6080604052348015600e575f80fd5b506107ac8061001c5f395ff3fe608060405260043610610054575f3560e01c806320f12c0914610058578063a118babd14610080578063cb3e965a14610096578063e19db6a6146100c0578063e2c41dbc146100fc578063e66825c314610106575b5f80fd5b348015610063575f80fd5b5061007e600480360381019061007991906104a6565b610130565b005b34801561008b575f80fd5b506100946101bf565b005b3480156100a1575f80fd5b506100aa610345565b6040516100b791906104f3565b60405180910390f35b3480156100cb575f80fd5b506100e660048036038101906100e19190610547565b61036a565b6040516100f39190610581565b60405180910390f35b61010461037e565b005b348015610111575f80fd5b5061011a61040f565b6040516101279190610581565b60405180910390f35b5f60015414610174576040517f08c379a000000000000000000000000000000000000000000000000000000000815260040161016b906105f4565b60405180910390fd5b816001819055508060025f6101000a81548173ffffffffffffffffffffffffffffffffffffffff021916908373ffffffffffffffffffffffffffffffffffffffff1602179055505050565b5f6001545f803373ffffffffffffffffffffffffffffffffffffffff1673ffffffffffffffffffffffffffffffffffffffff1681526020019081526020015f205461020a919061063f565b90505f811161024e576040517f08c379a0000000000000000000000000000000000000000000000000000000008152600401610245906106ca565b60405180910390fd5b5f805f3373ffffffffffffffffffffffffffffffffffffffff1673ffffffffffffffffffffffffffffffffffffffff1681526020019081526020015f208190555060025f9054906101000a900473ffffffffffffffffffffffffffffffffffffffff1673ffffffffffffffffffffffffffffffffffffffff166108fc8290811502906040515f60405180830381858888f193505050501580156102f3573d5f803e3d5ffd5b503373ffffffffffffffffffffffffffffffffffffffff167f3a2d0e41c506b136330c6e5e0295ccbf0966daece99bfe7c89020cc01dbfb8d68260405161033a9190610581565b60405180910390a250565b60025f9054906101000a900473ffffffffffffffffffffffffffffffffffffffff1681565b5f602052805f5260405f205f915090505481565b60025f9054906101000a900473ffffffffffffffffffffffffffffffffffffffff1673ffffffffffffffffffffffffffffffffffffffff163373ffffffffffffffffffffffffffffffffffffffff161461040d576040517f08c379a000000000000000000000000000000000000000000000000000000000815260040161040490610758565b60405180910390fd5b565b60015481565b5f80fd5b5f819050919050565b61042b81610419565b8114610435575f80fd5b50565b5f8135905061044681610422565b92915050565b5f73ffffffffffffffffffffffffffffffffffffffff82169050919050565b5f6104758261044c565b9050919050565b6104858161046b565b811461048f575f80fd5b50565b5f813590506104a08161047c565b92915050565b5f80604083850312156104bc576104bb610415565b5b5f6104c985828601610438565b92505060206104da85828601610492565b9150509250929050565b6104ed8161046b565b82525050565b5f6020820190506105065f8301846104e4565b92915050565b5f6105168261044c565b9050919050565b6105268161050c565b8114610530575f80fd5b50565b5f813590506105418161051d565b92915050565b5f6020828403121561055c5761055b610415565b5b5f61056984828501610533565b91505092915050565b61057b81610419565b82525050565b5f6020820190506105945f830184610572565b92915050565b5f82825260208201905092915050565b7f496e697469616c2076616c75657320616c7265616479207365740000000000005f82015250565b5f6105de601a8361059a565b91506105e9826105aa565b602082019050919050565b5f6020820190508181035f83015261060b816105d2565b9050919050565b7f4e487b71000000000000000000000000000000000000000000000000000000005f52601160045260245ffd5b5f61064982610419565b915061065483610419565b925082820261066281610419565b9150828204841483151761067957610678610612565b5b5092915050565b7f4e6f206561726e6564207061796d656e747320746f20776974686472617700005f82015250565b5f6106b4601e8361059a565b91506106bf82610680565b602082019050919050565b5f6020820190508181035f8301526106e1816106a8565b9050919050565b7f4f6e6c79207574696c69747920636f6d70616e792063616e206465706f7369745f8201527f2066756e64730000000000000000000000000000000000000000000000000000602082015250565b5f61074260268361059a565b915061074d826106e8565b604082019050919050565b5f6020820190508181035f83015261076f81610736565b905091905056fea2646970667358221220ddeee07ef9435412d9c264fb206f16346085d43c7dd578d3866daa679396774364736f6c63430008190033",
					"opcodes": "PUSH1 0x80 PUSH1 0x40 MSTORE CALLVALUE DUP1 ISZERO PUSH1 0xE JUMPI PUSH0 DUP1 REVERT JUMPDEST POP PUSH2 0x7AC DUP1 PUSH2 0x1C PUSH0 CODECOPY PUSH0 RETURN INVALID PUSH1 0x80 PUSH1 0x40 MSTORE PUSH1 0x4 CALLDATASIZE LT PUSH2 0x54 JUMPI PUSH0 CALLDATALOAD PUSH1 0xE0 SHR DUP1 PUSH4 0x20F12C09 EQ PUSH2 0x58 JUMPI DUP1 PUSH4 0xA118BABD EQ PUSH2 0x80 JUMPI DUP1 PUSH4 0xCB3E965A EQ PUSH2 0x96 JUMPI DUP1 PUSH4 0xE19DB6A6 EQ PUSH2 0xC0 JUMPI DUP1 PUSH4 0xE2C41DBC EQ PUSH2 0xFC JUMPI DUP1 PUSH4 0xE66825C3 EQ PUSH2 0x106 JUMPI JUMPDEST PUSH0 DUP1 REVERT JUMPDEST CALLVALUE DUP1 ISZERO PUSH2 0x63 JUMPI PUSH0 DUP1 REVERT JUMPDEST POP PUSH2 0x7E PUSH1 0x4 DUP1 CALLDATASIZE SUB DUP2 ADD SWAP1 PUSH2 0x79 SWAP2 SWAP1 PUSH2 0x4A6 JUMP JUMPDEST PUSH2 0x130 JUMP JUMPDEST STOP JUMPDEST CALLVALUE DUP1 ISZERO PUSH2 0x8B JUMPI PUSH0 DUP1 REVERT JUMPDEST POP PUSH2 0x94 PUSH2 0x1BF JUMP JUMPDEST STOP JUMPDEST CALLVALUE DUP1 ISZERO PUSH2 0xA1 JUMPI PUSH0 DUP1 REVERT JUMPDEST POP PUSH2 0xAA PUSH2 0x345 JUMP JUMPDEST PUSH1 0x40 MLOAD PUSH2 0xB7 SWAP2 SWAP1 PUSH2 0x4F3 JUMP JUMPDEST PUSH1 0x40 MLOAD DUP1 SWAP2 SUB SWAP1 RETURN JUMPDEST CALLVALUE DUP1 ISZERO PUSH2 0xCB JUMPI PUSH0 DUP1 REVERT JUMPDEST POP PUSH2 0xE6 PUSH1 0x4 DUP1 CALLDATASIZE SUB DUP2 ADD SWAP1 PUSH2 0xE1 SWAP2 SWAP1 PUSH2 0x547 JUMP JUMPDEST PUSH2 0x36A JUMP JUMPDEST PUSH1 0x40 MLOAD PUSH2 0xF3 SWAP2 SWAP1 PUSH2 0x581 JUMP JUMPDEST PUSH1 0x40 MLOAD DUP1 SWAP2 SUB SWAP1 RETURN JUMPDEST PUSH2 0x104 PUSH2 0x37E JUMP JUMPDEST STOP JUMPDEST CALLVALUE DUP1 ISZERO PUSH2 0x111 JUMPI PUSH0 DUP1 REVERT JUMPDEST POP PUSH2 0x11A PUSH2 0x40F JUMP JUMPDEST PUSH1 0x40 MLOAD PUSH2 0x127 SWAP2 SWAP1 PUSH2 0x581 JUMP JUMPDEST PUSH1 0x40 MLOAD DUP1 SWAP2 SUB SWAP1 RETURN JUMPDEST PUSH0 PUSH1 0x1 SLOAD EQ PUSH2 0x174 JUMPI PUSH1 0x40 MLOAD PUSH32 0x8C379A000000000000000000000000000000000000000000000000000000000 DUP2 MSTORE PUSH1 0x4 ADD PUSH2 0x16B SWAP1 PUSH2 0x5F4 JUMP JUMPDEST PUSH1 0x40 MLOAD DUP1 SWAP2 SUB SWAP1 REVERT JUMPDEST DUP2 PUSH1 0x1 DUP2 SWAP1 SSTORE POP DUP1 PUSH1 0x2 PUSH0 PUSH2 0x100 EXP DUP2 SLOAD DUP2 PUSH20 0xFFFFFFFFFFFFFFFFFFFFFFFFFFFFFFFFFFFFFFFF MUL NOT AND SWAP1 DUP4 PUSH20 0xFFFFFFFFFFFFFFFFFFFFFFFFFFFFFFFFFFFFFFFF AND MUL OR SWAP1 SSTORE POP POP POP JUMP JUMPDEST PUSH0 PUSH1 0x1 SLOAD PUSH0 DUP1 CALLER PUSH20 0xFFFFFFFFFFFFFFFFFFFFFFFFFFFFFFFFFFFFFFFF AND PUSH20 0xFFFFFFFFFFFFFFFFFFFFFFFFFFFFFFFFFFFFFFFF AND DUP2 MSTORE PUSH1 0x20 ADD SWAP1 DUP2 MSTORE PUSH1 0x20 ADD PUSH0 KECCAK256 SLOAD PUSH2 0x20A SWAP2 SWAP1 PUSH2 0x63F JUMP JUMPDEST SWAP1 POP PUSH0 DUP2 GT PUSH2 0x24E JUMPI PUSH1 0x40 MLOAD PUSH32 0x8C379A000000000000000000000000000000000000000000000000000000000 DUP2 MSTORE PUSH1 0x4 ADD PUSH2 0x245 SWAP1 PUSH2 0x6CA JUMP JUMPDEST PUSH1 0x40 MLOAD DUP1 SWAP2 SUB SWAP1 REVERT JUMPDEST PUSH0 DUP1 PUSH0 CALLER PUSH20 0xFFFFFFFFFFFFFFFFFFFFFFFFFFFFFFFFFFFFFFFF AND PUSH20 0xFFFFFFFFFFFFFFFFFFFFFFFFFFFFFFFFFFFFFFFF AND DUP2 MSTORE PUSH1 0x20 ADD SWAP1 DUP2 MSTORE PUSH1 0x20 ADD PUSH0 KECCAK256 DUP2 SWAP1 SSTORE POP PUSH1 0x2 PUSH0 SWAP1 SLOAD SWAP1 PUSH2 0x100 EXP SWAP1 DIV PUSH20 0xFFFFFFFFFFFFFFFFFFFFFFFFFFFFFFFFFFFFFFFF AND PUSH20 0xFFFFFFFFFFFFFFFFFFFFFFFFFFFFFFFFFFFFFFFF AND PUSH2 0x8FC DUP3 SWAP1 DUP2 ISZERO MUL SWAP1 PUSH1 0x40 MLOAD PUSH0 PUSH1 0x40 MLOAD DUP1 DUP4 SUB DUP2 DUP6 DUP9 DUP9 CALL SWAP4 POP POP POP POP ISZERO DUP1 ISZERO PUSH2 0x2F3 JUMPI RETURNDATASIZE PUSH0 DUP1 RETURNDATACOPY RETURNDATASIZE PUSH0 REVERT JUMPDEST POP CALLER PUSH20 0xFFFFFFFFFFFFFFFFFFFFFFFFFFFFFFFFFFFFFFFF AND PUSH32 0x3A2D0E41C506B136330C6E5E0295CCBF0966DAECE99BFE7C89020CC01DBFB8D6 DUP3 PUSH1 0x40 MLOAD PUSH2 0x33A SWAP2 SWAP1 PUSH2 0x581 JUMP JUMPDEST PUSH1 0x40 MLOAD DUP1 SWAP2 SUB SWAP1 LOG2 POP JUMP JUMPDEST PUSH1 0x2 PUSH0 SWAP1 SLOAD SWAP1 PUSH2 0x100 EXP SWAP1 DIV PUSH20 0xFFFFFFFFFFFFFFFFFFFFFFFFFFFFFFFFFFFFFFFF AND DUP2 JUMP JUMPDEST PUSH0 PUSH1 0x20 MSTORE DUP1 PUSH0 MSTORE PUSH1 0x40 PUSH0 KECCAK256 PUSH0 SWAP2 POP SWAP1 POP SLOAD DUP2 JUMP JUMPDEST PUSH1 0x2 PUSH0 SWAP1 SLOAD SWAP1 PUSH2 0x100 EXP SWAP1 DIV PUSH20 0xFFFFFFFFFFFFFFFFFFFFFFFFFFFFFFFFFFFFFFFF AND PUSH20 0xFFFFFFFFFFFFFFFFFFFFFFFFFFFFFFFFFFFFFFFF AND CALLER PUSH20 0xFFFFFFFFFFFFFFFFFFFFFFFFFFFFFFFFFFFFFFFF AND EQ PUSH2 0x40D JUMPI PUSH1 0x40 MLOAD PUSH32 0x8C379A000000000000000000000000000000000000000000000000000000000 DUP2 MSTORE PUSH1 0x4 ADD PUSH2 0x404 SWAP1 PUSH2 0x758 JUMP JUMPDEST PUSH1 0x40 MLOAD DUP1 SWAP2 SUB SWAP1 REVERT JUMPDEST JUMP JUMPDEST PUSH1 0x1 SLOAD DUP2 JUMP JUMPDEST PUSH0 DUP1 REVERT JUMPDEST PUSH0 DUP2 SWAP1 POP SWAP2 SWAP1 POP JUMP JUMPDEST PUSH2 0x42B DUP2 PUSH2 0x419 JUMP JUMPDEST DUP2 EQ PUSH2 0x435 JUMPI PUSH0 DUP1 REVERT JUMPDEST POP JUMP JUMPDEST PUSH0 DUP2 CALLDATALOAD SWAP1 POP PUSH2 0x446 DUP2 PUSH2 0x422 JUMP JUMPDEST SWAP3 SWAP2 POP POP JUMP JUMPDEST PUSH0 PUSH20 0xFFFFFFFFFFFFFFFFFFFFFFFFFFFFFFFFFFFFFFFF DUP3 AND SWAP1 POP SWAP2 SWAP1 POP JUMP JUMPDEST PUSH0 PUSH2 0x475 DUP3 PUSH2 0x44C JUMP JUMPDEST SWAP1 POP SWAP2 SWAP1 POP JUMP JUMPDEST PUSH2 0x485 DUP2 PUSH2 0x46B JUMP JUMPDEST DUP2 EQ PUSH2 0x48F JUMPI PUSH0 DUP1 REVERT JUMPDEST POP JUMP JUMPDEST PUSH0 DUP2 CALLDATALOAD SWAP1 POP PUSH2 0x4A0 DUP2 PUSH2 0x47C JUMP JUMPDEST SWAP3 SWAP2 POP POP JUMP JUMPDEST PUSH0 DUP1 PUSH1 0x40 DUP4 DUP6 SUB SLT ISZERO PUSH2 0x4BC JUMPI PUSH2 0x4BB PUSH2 0x415 JUMP JUMPDEST JUMPDEST PUSH0 PUSH2 0x4C9 DUP6 DUP3 DUP7 ADD PUSH2 0x438 JUMP JUMPDEST SWAP3 POP POP PUSH1 0x20 PUSH2 0x4DA DUP6 DUP3 DUP7 ADD PUSH2 0x492 JUMP JUMPDEST SWAP2 POP POP SWAP3 POP SWAP3 SWAP1 POP JUMP JUMPDEST PUSH2 0x4ED DUP2 PUSH2 0x46B JUMP JUMPDEST DUP3 MSTORE POP POP JUMP JUMPDEST PUSH0 PUSH1 0x20 DUP3 ADD SWAP1 POP PUSH2 0x506 PUSH0 DUP4 ADD DUP5 PUSH2 0x4E4 JUMP JUMPDEST SWAP3 SWAP2 POP POP JUMP JUMPDEST PUSH0 PUSH2 0x516 DUP3 PUSH2 0x44C JUMP JUMPDEST SWAP1 POP SWAP2 SWAP1 POP JUMP JUMPDEST PUSH2 0x526 DUP2 PUSH2 0x50C JUMP JUMPDEST DUP2 EQ PUSH2 0x530 JUMPI PUSH0 DUP1 REVERT JUMPDEST POP JUMP JUMPDEST PUSH0 DUP2 CALLDATALOAD SWAP1 POP PUSH2 0x541 DUP2 PUSH2 0x51D JUMP JUMPDEST SWAP3 SWAP2 POP POP JUMP JUMPDEST PUSH0 PUSH1 0x20 DUP3 DUP5 SUB SLT ISZERO PUSH2 0x55C JUMPI PUSH2 0x55B PUSH2 0x415 JUMP JUMPDEST JUMPDEST PUSH0 PUSH2 0x569 DUP5 DUP3 DUP6 ADD PUSH2 0x533 JUMP JUMPDEST SWAP2 POP POP SWAP3 SWAP2 POP POP JUMP JUMPDEST PUSH2 0x57B DUP2 PUSH2 0x419 JUMP JUMPDEST DUP3 MSTORE POP POP JUMP JUMPDEST PUSH0 PUSH1 0x20 DUP3 ADD SWAP1 POP PUSH2 0x594 PUSH0 DUP4 ADD DUP5 PUSH2 0x572 JUMP JUMPDEST SWAP3 SWAP2 POP POP JUMP JUMPDEST PUSH0 DUP3 DUP3 MSTORE PUSH1 0x20 DUP3 ADD SWAP1 POP SWAP3 SWAP2 POP POP JUMP JUMPDEST PUSH32 0x496E697469616C2076616C75657320616C726561647920736574000000000000 PUSH0 DUP3 ADD MSTORE POP JUMP JUMPDEST PUSH0 PUSH2 0x5DE PUSH1 0x1A DUP4 PUSH2 0x59A JUMP JUMPDEST SWAP2 POP PUSH2 0x5E9 DUP3 PUSH2 0x5AA JUMP JUMPDEST PUSH1 0x20 DUP3 ADD SWAP1 POP SWAP2 SWAP1 POP JUMP JUMPDEST PUSH0 PUSH1 0x20 DUP3 ADD SWAP1 POP DUP2 DUP2 SUB PUSH0 DUP4 ADD MSTORE PUSH2 0x60B DUP2 PUSH2 0x5D2 JUMP JUMPDEST SWAP1 POP SWAP2 SWAP1 POP JUMP JUMPDEST PUSH32 0x4E487B7100000000000000000000000000000000000000000000000000000000 PUSH0 MSTORE PUSH1 0x11 PUSH1 0x4 MSTORE PUSH1 0x24 PUSH0 REVERT JUMPDEST PUSH0 PUSH2 0x649 DUP3 PUSH2 0x419 JUMP JUMPDEST SWAP2 POP PUSH2 0x654 DUP4 PUSH2 0x419 JUMP JUMPDEST SWAP3 POP DUP3 DUP3 MUL PUSH2 0x662 DUP2 PUSH2 0x419 JUMP JUMPDEST SWAP2 POP DUP3 DUP3 DIV DUP5 EQ DUP4 ISZERO OR PUSH2 0x679 JUMPI PUSH2 0x678 PUSH2 0x612 JUMP JUMPDEST JUMPDEST POP SWAP3 SWAP2 POP POP JUMP JUMPDEST PUSH32 0x4E6F206561726E6564207061796D656E747320746F2077697468647261770000 PUSH0 DUP3 ADD MSTORE POP JUMP JUMPDEST PUSH0 PUSH2 0x6B4 PUSH1 0x1E DUP4 PUSH2 0x59A JUMP JUMPDEST SWAP2 POP PUSH2 0x6BF DUP3 PUSH2 0x680 JUMP JUMPDEST PUSH1 0x20 DUP3 ADD SWAP1 POP SWAP2 SWAP1 POP JUMP JUMPDEST PUSH0 PUSH1 0x20 DUP3 ADD SWAP1 POP DUP2 DUP2 SUB PUSH0 DUP4 ADD MSTORE PUSH2 0x6E1 DUP2 PUSH2 0x6A8 JUMP JUMPDEST SWAP1 POP SWAP2 SWAP1 POP JUMP JUMPDEST PUSH32 0x4F6E6C79207574696C69747920636F6D70616E792063616E206465706F736974 PUSH0 DUP3 ADD MSTORE PUSH32 0x2066756E64730000000000000000000000000000000000000000000000000000 PUSH1 0x20 DUP3 ADD MSTORE POP JUMP JUMPDEST PUSH0 PUSH2 0x742 PUSH1 0x26 DUP4 PUSH2 0x59A JUMP JUMPDEST SWAP2 POP PUSH2 0x74D DUP3 PUSH2 0x6E8 JUMP JUMPDEST PUSH1 0x40 DUP3 ADD SWAP1 POP SWAP2 SWAP1 POP JUMP JUMPDEST PUSH0 PUSH1 0x20 DUP3 ADD SWAP1 POP DUP2 DUP2 SUB PUSH0 DUP4 ADD MSTORE PUSH2 0x76F DUP2 PUSH2 0x736 JUMP JUMPDEST SWAP1 POP SWAP2 SWAP1 POP JUMP INVALID LOG2 PUSH5 0x6970667358 0x22 SLT KECCAK256 0xDD 0xEE 0xE0 PUSH31 0xF9435412D9C264FB206F16346085D43C7DD578D3866DAA679396774364736F PUSH13 0x63430008190033000000000000 "
				},
				"gasEstimates": {
					"creation": {
						"codeDepositCost": "392800",
						"executionCost": "428",
						"totalCost": "393228"
					},
					"external": {
						"depositFunds()": "2656",
						"pricePerUnit()": "2513",
						"residentEnergy(address)": "2845",
						"setInitialValues(uint256,address)": "49100",
						"utilityCompany()": "2530",
						"withdrawPayment()": "infinite"
					}
				},
				"methodIdentifiers": {
					"depositFunds()": "e2c41dbc",
					"pricePerUnit()": "e66825c3",
					"residentEnergy(address)": "e19db6a6",
					"setInitialValues(uint256,address)": "20f12c09",
					"utilityCompany()": "cb3e965a",
					"withdrawPayment()": "a118babd"
				}
			},
			"storageLayout": {
				"storage": [
					{
						"astId": 5,
						"contract": "Smart contracts/SC4.sol:RenewableEnergy",
						"label": "residentEnergy",
						"offset": 0,
						"slot": "0",
						"type": "t_mapping(t_address,t_uint256)"
					},
					{
						"astId": 7,
						"contract": "Smart contracts/SC4.sol:RenewableEnergy",
						"label": "pricePerUnit",
						"offset": 0,
						"slot": "1",
						"type": "t_uint256"
					},
					{
						"astId": 9,
						"contract": "Smart contracts/SC4.sol:RenewableEnergy",
						"label": "utilityCompany",
						"offset": 0,
						"slot": "2",
						"type": "t_address_payable"
					}
				],
				"types": {
					"t_address": {
						"encoding": "inplace",
						"label": "address",
						"numberOfBytes": "20"
					},
					"t_address_payable": {
						"encoding": "inplace",
						"label": "address payable",
						"numberOfBytes": "20"
					},
					"t_mapping(t_address,t_uint256)": {
						"encoding": "mapping",
						"key": "t_address",
						"label": "mapping(address => uint256)",
						"numberOfBytes": "32",
						"value": "t_uint256"
					},
					"t_uint256": {
						"encoding": "inplace",
						"label": "uint256",
						"numberOfBytes": "32"
					}
				}
			},
			"userdoc": {
				"kind": "user",
				"methods": {},
				"version": 1
			}
		}
	}
}