{
	"Smart contracts/SC1.sol": {
		"FreelanceMarketplace": {
			"abi": [
				{
					"anonymous": false,
					"inputs": [
						{
							"indexed": false,
							"internalType": "uint256",
							"name": "projectId",
							"type": "uint256"
						},
						{
							"indexed": false,
							"internalType": "address",
							"name": "client",
							"type": "address"
						},
						{
							"indexed": false,
							"internalType": "address",
							"name": "freelancer",
							"type": "address"
						},
						{
							"indexed": false,
							"internalType": "string",
							"name": "description",
							"type": "string"
						},
						{
							"indexed": false,
							"internalType": "uint256",
							"name": "budget",
							"type": "uint256"
						},
						{
							"indexed": false,
							"internalType": "uint256",
							"name": "deadline",
							"type": "uint256"
						}
					],
					"name": "ProjectCreated",
					"type": "event"
				},
				{
					"inputs": [
						{
							"internalType": "uint256",
							"name": "_projectId",
							"type": "uint256"
						}
					],
					"name": "applyForProject",
					"outputs": [],
					"stateMutability": "nonpayable",
					"type": "function"
				},
				{
					"inputs": [
						{
							"internalType": "uint256",
							"name": "_projectId",
							"type": "uint256"
						}
					],
					"name": "completeProject",
					"outputs": [],
					"stateMutability": "nonpayable",
					"type": "function"
				},
				{
					"inputs": [
						{
							"internalType": "string",
							"name": "_description",
							"type": "string"
						},
						{
							"internalType": "uint256",
							"name": "_deadline",
							"type": "uint256"
						}
					],
					"name": "createProject",
					"outputs": [],
					"stateMutability": "payable",
					"type": "function"
				},
				{
					"inputs": [
						{
							"internalType": "uint256",
							"name": "",
							"type": "uint256"
						}
					],
					"name": "projects",
					"outputs": [
						{
							"internalType": "uint256",
							"name": "projectId",
							"type": "uint256"
						},
						{
							"internalType": "address",
							"name": "client",
							"type": "address"
						},
						{
							"internalType": "address payable",
							"name": "freelancer",
							"type": "address"
						},
						{
							"internalType": "string",
							"name": "description",
							"type": "string"
						},
						{
							"internalType": "uint256",
							"name": "budget",
							"type": "uint256"
						},
						{
							"internalType": "uint256",
							"name": "deadline",
							"type": "uint256"
						},
						{
							"internalType": "bool",
							"name": "completed",
							"type": "bool"
						}
					],
					"stateMutability": "view",
					"type": "function"
				}
			],
			"devdoc": {
				"kind": "dev",
				"methods": {},
				"version": 1
			},
			"evm": {
				"assembly": "    /* \"Smart contracts/SC1.sol\":62:1897  contract FreelanceMarketplace {... */\n  mstore(0x40, 0x80)\n  callvalue\n  dup1\n  iszero\n  tag_1\n  jumpi\n  0x00\n  dup1\n  revert\ntag_1:\n  pop\n  dataSize(sub_0)\n  dup1\n  dataOffset(sub_0)\n  0x00\n  codecopy\n  0x00\n  return\nstop\n\nsub_0: assembly {\n        /* \"Smart contracts/SC1.sol\":62:1897  contract FreelanceMarketplace {... */\n      mstore(0x40, 0x80)\n      jumpi(tag_1, lt(calldatasize, 0x04))\n      shr(0xe0, calldataload(0x00))\n      dup1\n      0x107046bd\n      eq\n      tag_2\n      jumpi\n      dup1\n      0x2245f152\n      eq\n      tag_3\n      jumpi\n      dup1\n      0x7e020e06\n      eq\n      tag_4\n      jumpi\n      dup1\n      0x91754a5d\n      eq\n      tag_5\n      jumpi\n    tag_1:\n      0x00\n      dup1\n      revert\n        /* \"Smart contracts/SC1.sol\":347:387  mapping(uint => Project) public projects */\n    tag_2:\n      callvalue\n      dup1\n      iszero\n      tag_6\n      jumpi\n      0x00\n      dup1\n      revert\n    tag_6:\n      pop\n      tag_7\n      0x04\n      dup1\n      calldatasize\n      sub\n      dup2\n      add\n      swap1\n      tag_8\n      swap2\n      swap1\n      tag_9\n      jump\t// in\n    tag_8:\n      tag_10\n      jump\t// in\n    tag_7:\n      mload(0x40)\n      tag_11\n      swap8\n      swap7\n      swap6\n      swap5\n      swap4\n      swap3\n      swap2\n      swap1\n      tag_12\n      jump\t// in\n    tag_11:\n      mload(0x40)\n      dup1\n      swap2\n      sub\n      swap1\n      return\n        /* \"Smart contracts/SC1.sol\":1435:1890  function completeProject(uint _projectId) public {... */\n    tag_3:\n      callvalue\n      dup1\n      iszero\n      tag_13\n      jumpi\n      0x00\n      dup1\n      revert\n    tag_13:\n      pop\n      tag_14\n      0x04\n      dup1\n      calldatasize\n      sub\n      dup2\n      add\n      swap1\n      tag_15\n      swap2\n      swap1\n      tag_9\n      jump\t// in\n    tag_15:\n      tag_16\n      jump\t// in\n    tag_14:\n      stop\n        /* \"Smart contracts/SC1.sol\":1084:1425  function applyForProject(uint _projectId) public {... */\n    tag_4:\n      callvalue\n      dup1\n      iszero\n      tag_17\n      jumpi\n      0x00\n      dup1\n      revert\n    tag_17:\n      pop\n      tag_18\n      0x04\n      dup1\n      calldatasize\n      sub\n      dup2\n      add\n      swap1\n      tag_19\n      swap2\n      swap1\n      tag_9\n      jump\t// in\n    tag_19:\n      tag_20\n      jump\t// in\n    tag_18:\n      stop\n        /* \"Smart contracts/SC1.sol\":540:1073  function createProject(string memory _description, uint _deadline) public payable {... */\n    tag_5:\n      tag_21\n      0x04\n      dup1\n      calldatasize\n      sub\n      dup2\n      add\n      swap1\n      tag_22\n      swap2\n      swap1\n      tag_23\n      jump\t// in\n    tag_22:\n      tag_24\n      jump\t// in\n    tag_21:\n      stop\n        /* \"Smart contracts/SC1.sol\":347:387  mapping(uint => Project) public projects */\n    tag_10:\n      mstore(0x20, 0x00)\n      dup1\n      0x00\n      mstore\n      keccak256(0x00, 0x40)\n      0x00\n      swap2\n      pop\n      swap1\n      pop\n      dup1\n      0x00\n      add\n      sload\n      swap1\n      dup1\n      0x01\n      add\n      0x00\n      swap1\n      sload\n      swap1\n      0x0100\n      exp\n      swap1\n      div\n      0xffffffffffffffffffffffffffffffffffffffff\n      and\n      swap1\n      dup1\n      0x02\n      add\n      0x00\n      swap1\n      sload\n      swap1\n      0x0100\n      exp\n      swap1\n      div\n      0xffffffffffffffffffffffffffffffffffffffff\n      and\n      swap1\n      dup1\n      0x03\n      add\n      dup1\n      sload\n      tag_25\n      swap1\n      tag_26\n      jump\t// in\n    tag_25:\n      dup1\n      0x1f\n      add\n      0x20\n      dup1\n      swap2\n      div\n      mul\n      0x20\n      add\n      mload(0x40)\n      swap1\n      dup2\n      add\n      0x40\n      mstore\n      dup1\n      swap3\n      swap2\n      swap1\n      dup2\n      dup2\n      mstore\n      0x20\n      add\n      dup3\n      dup1\n      sload\n      tag_27\n      swap1\n      tag_26\n      jump\t// in\n    tag_27:\n      dup1\n      iszero\n      tag_28\n      jumpi\n      dup1\n      0x1f\n      lt\n      tag_29\n      jumpi\n      0x0100\n      dup1\n      dup4\n      sload\n      div\n      mul\n      dup4\n      mstore\n      swap2\n      0x20\n      add\n      swap2\n      jump(tag_28)\n    tag_29:\n      dup3\n      add\n      swap2\n      swap1\n      0x00\n      mstore\n      keccak256(0x00, 0x20)\n      swap1\n    tag_30:\n      dup2\n      sload\n      dup2\n      mstore\n      swap1\n      0x01\n      add\n      swap1\n      0x20\n      add\n      dup1\n      dup4\n      gt\n      tag_30\n      jumpi\n      dup3\n      swap1\n      sub\n      0x1f\n      and\n      dup3\n      add\n      swap2\n    tag_28:\n      pop\n      pop\n      pop\n      pop\n      pop\n      swap1\n      dup1\n      0x04\n      add\n      sload\n      swap1\n      dup1\n      0x05\n      add\n      sload\n      swap1\n      dup1\n      0x06\n      add\n      0x00\n      swap1\n      sload\n      swap1\n      0x0100\n      exp\n      swap1\n      div\n      0xff\n      and\n      swap1\n      pop\n      dup8\n      jump\t// out\n        /* \"Smart contracts/SC1.sol\":1435:1890  function completeProject(uint _projectId) public {... */\n    tag_16:\n        /* \"Smart contracts/SC1.sol\":1494:1517  Project storage project */\n      0x00\n        /* \"Smart contracts/SC1.sol\":1520:1528  projects */\n      dup1\n        /* \"Smart contracts/SC1.sol\":1520:1540  projects[_projectId] */\n      0x00\n        /* \"Smart contracts/SC1.sol\":1529:1539  _projectId */\n      dup4\n        /* \"Smart contracts/SC1.sol\":1520:1540  projects[_projectId] */\n      dup2\n      mstore\n      0x20\n      add\n      swap1\n      dup2\n      mstore\n      0x20\n      add\n      0x00\n      keccak256\n        /* \"Smart contracts/SC1.sol\":1494:1540  Project storage project = projects[_projectId] */\n      swap1\n      pop\n        /* \"Smart contracts/SC1.sol\":1576:1586  msg.sender */\n      caller\n        /* \"Smart contracts/SC1.sol\":1558:1586  project.client == msg.sender */\n      0xffffffffffffffffffffffffffffffffffffffff\n      and\n        /* \"Smart contracts/SC1.sol\":1558:1565  project */\n      dup2\n        /* \"Smart contracts/SC1.sol\":1558:1572  project.client */\n      0x01\n      add\n      0x00\n      swap1\n      sload\n      swap1\n      0x0100\n      exp\n      swap1\n      div\n      0xffffffffffffffffffffffffffffffffffffffff\n      and\n        /* \"Smart contracts/SC1.sol\":1558:1586  project.client == msg.sender */\n      0xffffffffffffffffffffffffffffffffffffffff\n      and\n      eq\n        /* \"Smart contracts/SC1.sol\":1550:1628  require(project.client == msg.sender, \"Only client can mark project complete\") */\n      tag_32\n      jumpi\n      mload(0x40)\n      0x08c379a000000000000000000000000000000000000000000000000000000000\n      dup2\n      mstore\n      0x04\n      add\n      tag_33\n      swap1\n      tag_34\n      jump\t// in\n    tag_33:\n      mload(0x40)\n      dup1\n      swap2\n      sub\n      swap1\n      revert\n    tag_32:\n        /* \"Smart contracts/SC1.sol\":1685:1686  0 */\n      0x00\n        /* \"Smart contracts/SC1.sol\":1647:1688  project.freelancer != payable(address(0)) */\n      0xffffffffffffffffffffffffffffffffffffffff\n      and\n        /* \"Smart contracts/SC1.sol\":1647:1654  project */\n      dup2\n        /* \"Smart contracts/SC1.sol\":1647:1665  project.freelancer */\n      0x02\n      add\n      0x00\n      swap1\n      sload\n      swap1\n      0x0100\n      exp\n      swap1\n      div\n      0xffffffffffffffffffffffffffffffffffffffff\n      and\n        /* \"Smart contracts/SC1.sol\":1647:1688  project.freelancer != payable(address(0)) */\n      0xffffffffffffffffffffffffffffffffffffffff\n      and\n      sub\n        /* \"Smart contracts/SC1.sol\":1639:1715  require(project.freelancer != payable(address(0)), \"No freelancer assigned\") */\n      tag_35\n      jumpi\n      mload(0x40)\n      0x08c379a000000000000000000000000000000000000000000000000000000000\n      dup2\n      mstore\n      0x04\n      add\n      tag_36\n      swap1\n      tag_37\n      jump\t// in\n    tag_36:\n      mload(0x40)\n      dup1\n      swap2\n      sub\n      swap1\n      revert\n    tag_35:\n        /* \"Smart contracts/SC1.sol\":1734:1741  project */\n      dup1\n        /* \"Smart contracts/SC1.sol\":1734:1751  project.completed */\n      0x06\n      add\n      0x00\n      swap1\n      sload\n      swap1\n      0x0100\n      exp\n      swap1\n      div\n      0xff\n      and\n        /* \"Smart contracts/SC1.sol\":1733:1751  !project.completed */\n      iszero\n        /* \"Smart contracts/SC1.sol\":1725:1781  require(!project.completed, \"Project already completed\") */\n      tag_38\n      jumpi\n      mload(0x40)\n      0x08c379a000000000000000000000000000000000000000000000000000000000\n      dup2\n      mstore\n      0x04\n      add\n      tag_39\n      swap1\n      tag_40\n      jump\t// in\n    tag_39:\n      mload(0x40)\n      dup1\n      swap2\n      sub\n      swap1\n      revert\n    tag_38:\n        /* \"Smart contracts/SC1.sol\":1812:1816  true */\n      0x01\n        /* \"Smart contracts/SC1.sol\":1792:1799  project */\n      dup2\n        /* \"Smart contracts/SC1.sol\":1792:1809  project.completed */\n      0x06\n      add\n      0x00\n        /* \"Smart contracts/SC1.sol\":1792:1816  project.completed = true */\n      0x0100\n      exp\n      dup2\n      sload\n      dup2\n      0xff\n      mul\n      not\n      and\n      swap1\n      dup4\n      iszero\n      iszero\n      mul\n      or\n      swap1\n      sstore\n      pop\n        /* \"Smart contracts/SC1.sol\":1835:1842  project */\n      dup1\n        /* \"Smart contracts/SC1.sol\":1835:1853  project.freelancer */\n      0x02\n      add\n      0x00\n      swap1\n      sload\n      swap1\n      0x0100\n      exp\n      swap1\n      div\n      0xffffffffffffffffffffffffffffffffffffffff\n      and\n        /* \"Smart contracts/SC1.sol\":1827:1863  payable(project.freelancer).transfer */\n      0xffffffffffffffffffffffffffffffffffffffff\n      and\n        /* \"Smart contracts/SC1.sol\":1827:1879  payable(project.freelancer).transfer(project.budget) */\n      0x08fc\n        /* \"Smart contracts/SC1.sol\":1864:1871  project */\n      dup3\n        /* \"Smart contracts/SC1.sol\":1864:1878  project.budget */\n      0x04\n      add\n      sload\n        /* \"Smart contracts/SC1.sol\":1827:1879  payable(project.freelancer).transfer(project.budget) */\n      swap1\n      dup2\n      iszero\n      mul\n      swap1\n      mload(0x40)\n      0x00\n      mload(0x40)\n      dup1\n      dup4\n      sub\n      dup2\n      dup6\n      dup9\n      dup9\n      call\n      swap4\n      pop\n      pop\n      pop\n      pop\n      iszero\n      dup1\n      iszero\n      tag_42\n      jumpi\n      returndatasize\n      0x00\n      dup1\n      returndatacopy\n      revert(0x00, returndatasize)\n    tag_42:\n      pop\n        /* \"Smart contracts/SC1.sol\":1484:1890  {... */\n      pop\n        /* \"Smart contracts/SC1.sol\":1435:1890  function completeProject(uint _projectId) public {... */\n      pop\n      jump\t// out\n        /* \"Smart contracts/SC1.sol\":1084:1425  function applyForProject(uint _projectId) public {... */\n    tag_20:\n        /* \"Smart contracts/SC1.sol\":1147:1170  Project storage project */\n      0x00\n        /* \"Smart contracts/SC1.sol\":1173:1181  projects */\n      dup1\n        /* \"Smart contracts/SC1.sol\":1173:1193  projects[_projectId] */\n      0x00\n        /* \"Smart contracts/SC1.sol\":1182:1192  _projectId */\n      dup4\n        /* \"Smart contracts/SC1.sol\":1173:1193  projects[_projectId] */\n      dup2\n      mstore\n      0x20\n      add\n      swap1\n      dup2\n      mstore\n      0x20\n      add\n      0x00\n      keccak256\n        /* \"Smart contracts/SC1.sol\":1147:1193  Project storage project = projects[_projectId] */\n      swap1\n      pop\n        /* \"Smart contracts/SC1.sol\":1216:1223  project */\n      dup1\n        /* \"Smart contracts/SC1.sol\":1216:1233  project.completed */\n      0x06\n      add\n      0x00\n      swap1\n      sload\n      swap1\n      0x0100\n      exp\n      swap1\n      div\n      0xff\n      and\n        /* \"Smart contracts/SC1.sol\":1215:1233  !project.completed */\n      iszero\n        /* \"Smart contracts/SC1.sol\":1207:1263  require(!project.completed, \"Project already completed\") */\n      tag_44\n      jumpi\n      mload(0x40)\n      0x08c379a000000000000000000000000000000000000000000000000000000000\n      dup2\n      mstore\n      0x04\n      add\n      tag_45\n      swap1\n      tag_40\n      jump\t// in\n    tag_45:\n      mload(0x40)\n      dup1\n      swap2\n      sub\n      swap1\n      revert\n    tag_44:\n        /* \"Smart contracts/SC1.sol\":1324:1325  0 */\n      0x00\n        /* \"Smart contracts/SC1.sol\":1286:1327  project.freelancer == payable(address(0)) */\n      0xffffffffffffffffffffffffffffffffffffffff\n      and\n        /* \"Smart contracts/SC1.sol\":1286:1293  project */\n      dup2\n        /* \"Smart contracts/SC1.sol\":1286:1304  project.freelancer */\n      0x02\n      add\n      0x00\n      swap1\n      sload\n      swap1\n      0x0100\n      exp\n      swap1\n      div\n      0xffffffffffffffffffffffffffffffffffffffff\n      and\n        /* \"Smart contracts/SC1.sol\":1286:1327  project.freelancer == payable(address(0)) */\n      0xffffffffffffffffffffffffffffffffffffffff\n      and\n      eq\n        /* \"Smart contracts/SC1.sol\":1278:1359  require(project.freelancer == payable(address(0)), \"Freelancer already assigned\") */\n      tag_46\n      jumpi\n      mload(0x40)\n      0x08c379a000000000000000000000000000000000000000000000000000000000\n      dup2\n      mstore\n      0x04\n      add\n      tag_47\n      swap1\n      tag_48\n      jump\t// in\n    tag_47:\n      mload(0x40)\n      dup1\n      swap2\n      sub\n      swap1\n      revert\n    tag_46:\n        /* \"Smart contracts/SC1.sol\":1403:1413  msg.sender */\n      caller\n        /* \"Smart contracts/SC1.sol\":1374:1381  project */\n      dup2\n        /* \"Smart contracts/SC1.sol\":1374:1392  project.freelancer */\n      0x02\n      add\n      0x00\n        /* \"Smart contracts/SC1.sol\":1374:1414  project.freelancer = payable(msg.sender) */\n      0x0100\n      exp\n      dup2\n      sload\n      dup2\n      0xffffffffffffffffffffffffffffffffffffffff\n      mul\n      not\n      and\n      swap1\n      dup4\n      0xffffffffffffffffffffffffffffffffffffffff\n      and\n      mul\n      or\n      swap1\n      sstore\n      pop\n        /* \"Smart contracts/SC1.sol\":1133:1425  {... */\n      pop\n        /* \"Smart contracts/SC1.sol\":1084:1425  function applyForProject(uint _projectId) public {... */\n      pop\n      jump\t// out\n        /* \"Smart contracts/SC1.sol\":540:1073  function createProject(string memory _description, uint _deadline) public payable {... */\n    tag_24:\n        /* \"Smart contracts/SC1.sol\":641:655  uint projectId */\n      0x00\n        /* \"Smart contracts/SC1.sol\":658:659  1 */\n      0x01\n        /* \"Smart contracts/SC1.sol\":641:659  uint projectId = 1 */\n      swap1\n      pop\n        /* \"Smart contracts/SC1.sol\":695:919  Project(... */\n      mload(0x40)\n      dup1\n      0xe0\n      add\n      0x40\n      mstore\n      dup1\n        /* \"Smart contracts/SC1.sol\":720:729  projectId */\n      dup3\n        /* \"Smart contracts/SC1.sol\":695:919  Project(... */\n      dup2\n      mstore\n      0x20\n      add\n        /* \"Smart contracts/SC1.sol\":747:757  msg.sender */\n      caller\n        /* \"Smart contracts/SC1.sol\":695:919  Project(... */\n      0xffffffffffffffffffffffffffffffffffffffff\n      and\n      dup2\n      mstore\n      0x20\n      add\n        /* \"Smart contracts/SC1.sol\":791:792  0 */\n      0x00\n        /* \"Smart contracts/SC1.sol\":695:919  Project(... */\n      0xffffffffffffffffffffffffffffffffffffffff\n      and\n      dup2\n      mstore\n      0x20\n      add\n        /* \"Smart contracts/SC1.sol\":812:824  _description */\n      dup5\n        /* \"Smart contracts/SC1.sol\":695:919  Project(... */\n      dup2\n      mstore\n      0x20\n      add\n        /* \"Smart contracts/SC1.sol\":842:851  msg.value */\n      callvalue\n        /* \"Smart contracts/SC1.sol\":695:919  Project(... */\n      dup2\n      mstore\n      0x20\n      add\n        /* \"Smart contracts/SC1.sol\":869:878  _deadline */\n      dup4\n        /* \"Smart contracts/SC1.sol\":695:919  Project(... */\n      dup2\n      mstore\n      0x20\n      add\n        /* \"Smart contracts/SC1.sol\":896:901  false */\n      0x00\n        /* \"Smart contracts/SC1.sol\":695:919  Project(... */\n      iszero\n      iszero\n      dup2\n      mstore\n      pop\n        /* \"Smart contracts/SC1.sol\":673:681  projects */\n      0x00\n        /* \"Smart contracts/SC1.sol\":673:692  projects[projectId] */\n      dup1\n        /* \"Smart contracts/SC1.sol\":682:691  projectId */\n      dup4\n        /* \"Smart contracts/SC1.sol\":673:692  projects[projectId] */\n      dup2\n      mstore\n      0x20\n      add\n      swap1\n      dup2\n      mstore\n      0x20\n      add\n      0x00\n      keccak256\n        /* \"Smart contracts/SC1.sol\":673:919  projects[projectId] = Project(... */\n      0x00\n      dup3\n      add\n      mload\n      dup2\n      0x00\n      add\n      sstore\n      0x20\n      dup3\n      add\n      mload\n      dup2\n      0x01\n      add\n      exp(0x0100, 0x00)\n      dup2\n      sload\n      dup2\n      0xffffffffffffffffffffffffffffffffffffffff\n      mul\n      not\n      and\n      swap1\n      dup4\n      0xffffffffffffffffffffffffffffffffffffffff\n      and\n      mul\n      or\n      swap1\n      sstore\n      pop\n      0x40\n      dup3\n      add\n      mload\n      dup2\n      0x02\n      add\n      exp(0x0100, 0x00)\n      dup2\n      sload\n      dup2\n      0xffffffffffffffffffffffffffffffffffffffff\n      mul\n      not\n      and\n      swap1\n      dup4\n      0xffffffffffffffffffffffffffffffffffffffff\n      and\n      mul\n      or\n      swap1\n      sstore\n      pop\n      0x60\n      dup3\n      add\n      mload\n      dup2\n      0x03\n      add\n      swap1\n      dup2\n      tag_50\n      swap2\n      swap1\n      tag_51\n      jump\t// in\n    tag_50:\n      pop\n      0x80\n      dup3\n      add\n      mload\n      dup2\n      0x04\n      add\n      sstore\n      0xa0\n      dup3\n      add\n      mload\n      dup2\n      0x05\n      add\n      sstore\n      0xc0\n      dup3\n      add\n      mload\n      dup2\n      0x06\n      add\n      exp(0x0100, 0x00)\n      dup2\n      sload\n      dup2\n      0xff\n      mul\n      not\n      and\n      swap1\n      dup4\n      iszero\n      iszero\n      mul\n      or\n      swap1\n      sstore\n      pop\n      swap1\n      pop\n      pop\n        /* \"Smart contracts/SC1.sol\":934:945  projectId++ */\n      dup1\n      dup1\n      tag_52\n      swap1\n      tag_53\n      jump\t// in\n    tag_52:\n      swap2\n      pop\n      pop\n        /* \"Smart contracts/SC1.sol\":965:1059  ProjectCreated(projectId, msg.sender, payable(address(0)), _description, msg.value, _deadline) */\n      0x49a3f53cddf4d3883291c8aed22f133a1a2e56aefa286170b9bde9796d9ac7f9\n        /* \"Smart contracts/SC1.sol\":980:989  projectId */\n      dup2\n        /* \"Smart contracts/SC1.sol\":991:1001  msg.sender */\n      caller\n        /* \"Smart contracts/SC1.sol\":1019:1020  0 */\n      0x00\n        /* \"Smart contracts/SC1.sol\":1024:1036  _description */\n      dup7\n        /* \"Smart contracts/SC1.sol\":1038:1047  msg.value */\n      callvalue\n        /* \"Smart contracts/SC1.sol\":1049:1058  _deadline */\n      dup8\n        /* \"Smart contracts/SC1.sol\":965:1059  ProjectCreated(projectId, msg.sender, payable(address(0)), _description, msg.value, _deadline) */\n      mload(0x40)\n      tag_54\n      swap7\n      swap6\n      swap5\n      swap4\n      swap3\n      swap2\n      swap1\n      tag_55\n      jump\t// in\n    tag_54:\n      mload(0x40)\n      dup1\n      swap2\n      sub\n      swap1\n      log1\n        /* \"Smart contracts/SC1.sol\":622:1073  {... */\n      pop\n        /* \"Smart contracts/SC1.sol\":540:1073  function createProject(string memory _description, uint _deadline) public payable {... */\n      pop\n      pop\n      jump\t// out\n        /* \"#utility.yul\":7:82   */\n    tag_56:\n        /* \"#utility.yul\":40:46   */\n      0x00\n        /* \"#utility.yul\":73:75   */\n      0x40\n        /* \"#utility.yul\":67:76   */\n      mload\n        /* \"#utility.yul\":57:76   */\n      swap1\n      pop\n        /* \"#utility.yul\":7:82   */\n      swap1\n      jump\t// out\n        /* \"#utility.yul\":88:205   */\n    tag_57:\n        /* \"#utility.yul\":197:198   */\n      0x00\n        /* \"#utility.yul\":194:195   */\n      dup1\n        /* \"#utility.yul\":187:199   */\n      revert\n        /* \"#utility.yul\":211:328   */\n    tag_58:\n        /* \"#utility.yul\":320:321   */\n      0x00\n        /* \"#utility.yul\":317:318   */\n      dup1\n        /* \"#utility.yul\":310:322   */\n      revert\n        /* \"#utility.yul\":334:411   */\n    tag_59:\n        /* \"#utility.yul\":371:378   */\n      0x00\n        /* \"#utility.yul\":400:405   */\n      dup2\n        /* \"#utility.yul\":389:405   */\n      swap1\n      pop\n        /* \"#utility.yul\":334:411   */\n      swap2\n      swap1\n      pop\n      jump\t// out\n        /* \"#utility.yul\":417:539   */\n    tag_60:\n        /* \"#utility.yul\":490:514   */\n      tag_119\n        /* \"#utility.yul\":508:513   */\n      dup2\n        /* \"#utility.yul\":490:514   */\n      tag_59\n      jump\t// in\n    tag_119:\n        /* \"#utility.yul\":483:488   */\n      dup2\n        /* \"#utility.yul\":480:515   */\n      eq\n        /* \"#utility.yul\":470:533   */\n      tag_120\n      jumpi\n        /* \"#utility.yul\":529:530   */\n      0x00\n        /* \"#utility.yul\":526:527   */\n      dup1\n        /* \"#utility.yul\":519:531   */\n      revert\n        /* \"#utility.yul\":470:533   */\n    tag_120:\n        /* \"#utility.yul\":417:539   */\n      pop\n      jump\t// out\n        /* \"#utility.yul\":545:684   */\n    tag_61:\n        /* \"#utility.yul\":591:596   */\n      0x00\n        /* \"#utility.yul\":629:635   */\n      dup2\n        /* \"#utility.yul\":616:636   */\n      calldataload\n        /* \"#utility.yul\":607:636   */\n      swap1\n      pop\n        /* \"#utility.yul\":645:678   */\n      tag_122\n        /* \"#utility.yul\":672:677   */\n      dup2\n        /* \"#utility.yul\":645:678   */\n      tag_60\n      jump\t// in\n    tag_122:\n        /* \"#utility.yul\":545:684   */\n      swap3\n      swap2\n      pop\n      pop\n      jump\t// out\n        /* \"#utility.yul\":690:1019   */\n    tag_9:\n        /* \"#utility.yul\":749:755   */\n      0x00\n        /* \"#utility.yul\":798:800   */\n      0x20\n        /* \"#utility.yul\":786:795   */\n      dup3\n        /* \"#utility.yul\":777:784   */\n      dup5\n        /* \"#utility.yul\":773:796   */\n      sub\n        /* \"#utility.yul\":769:801   */\n      slt\n        /* \"#utility.yul\":766:885   */\n      iszero\n      tag_124\n      jumpi\n        /* \"#utility.yul\":804:883   */\n      tag_125\n      tag_57\n      jump\t// in\n    tag_125:\n        /* \"#utility.yul\":766:885   */\n    tag_124:\n        /* \"#utility.yul\":924:925   */\n      0x00\n        /* \"#utility.yul\":949:1002   */\n      tag_126\n        /* \"#utility.yul\":994:1001   */\n      dup5\n        /* \"#utility.yul\":985:991   */\n      dup3\n        /* \"#utility.yul\":974:983   */\n      dup6\n        /* \"#utility.yul\":970:992   */\n      add\n        /* \"#utility.yul\":949:1002   */\n      tag_61\n      jump\t// in\n    tag_126:\n        /* \"#utility.yul\":939:1002   */\n      swap2\n      pop\n        /* \"#utility.yul\":895:1012   */\n      pop\n        /* \"#utility.yul\":690:1019   */\n      swap3\n      swap2\n      pop\n      pop\n      jump\t// out\n        /* \"#utility.yul\":1025:1143   */\n    tag_62:\n        /* \"#utility.yul\":1112:1136   */\n      tag_128\n        /* \"#utility.yul\":1130:1135   */\n      dup2\n        /* \"#utility.yul\":1112:1136   */\n      tag_59\n      jump\t// in\n    tag_128:\n        /* \"#utility.yul\":1107:1110   */\n      dup3\n        /* \"#utility.yul\":1100:1137   */\n      mstore\n        /* \"#utility.yul\":1025:1143   */\n      pop\n      pop\n      jump\t// out\n        /* \"#utility.yul\":1149:1275   */\n    tag_63:\n        /* \"#utility.yul\":1186:1193   */\n      0x00\n        /* \"#utility.yul\":1226:1268   */\n      0xffffffffffffffffffffffffffffffffffffffff\n        /* \"#utility.yul\":1219:1224   */\n      dup3\n        /* \"#utility.yul\":1215:1269   */\n      and\n        /* \"#utility.yul\":1204:1269   */\n      swap1\n      pop\n        /* \"#utility.yul\":1149:1275   */\n      swap2\n      swap1\n      pop\n      jump\t// out\n        /* \"#utility.yul\":1281:1377   */\n    tag_64:\n        /* \"#utility.yul\":1318:1325   */\n      0x00\n        /* \"#utility.yul\":1347:1371   */\n      tag_131\n        /* \"#utility.yul\":1365:1370   */\n      dup3\n        /* \"#utility.yul\":1347:1371   */\n      tag_63\n      jump\t// in\n    tag_131:\n        /* \"#utility.yul\":1336:1371   */\n      swap1\n      pop\n        /* \"#utility.yul\":1281:1377   */\n      swap2\n      swap1\n      pop\n      jump\t// out\n        /* \"#utility.yul\":1383:1501   */\n    tag_65:\n        /* \"#utility.yul\":1470:1494   */\n      tag_133\n        /* \"#utility.yul\":1488:1493   */\n      dup2\n        /* \"#utility.yul\":1470:1494   */\n      tag_64\n      jump\t// in\n    tag_133:\n        /* \"#utility.yul\":1465:1468   */\n      dup3\n        /* \"#utility.yul\":1458:1495   */\n      mstore\n        /* \"#utility.yul\":1383:1501   */\n      pop\n      pop\n      jump\t// out\n        /* \"#utility.yul\":1507:1611   */\n    tag_66:\n        /* \"#utility.yul\":1552:1559   */\n      0x00\n        /* \"#utility.yul\":1581:1605   */\n      tag_135\n        /* \"#utility.yul\":1599:1604   */\n      dup3\n        /* \"#utility.yul\":1581:1605   */\n      tag_63\n      jump\t// in\n    tag_135:\n        /* \"#utility.yul\":1570:1605   */\n      swap1\n      pop\n        /* \"#utility.yul\":1507:1611   */\n      swap2\n      swap1\n      pop\n      jump\t// out\n        /* \"#utility.yul\":1617:1759   */\n    tag_67:\n        /* \"#utility.yul\":1720:1752   */\n      tag_137\n        /* \"#utility.yul\":1746:1751   */\n      dup2\n        /* \"#utility.yul\":1720:1752   */\n      tag_66\n      jump\t// in\n    tag_137:\n        /* \"#utility.yul\":1715:1718   */\n      dup3\n        /* \"#utility.yul\":1708:1753   */\n      mstore\n        /* \"#utility.yul\":1617:1759   */\n      pop\n      pop\n      jump\t// out\n        /* \"#utility.yul\":1765:1864   */\n    tag_68:\n        /* \"#utility.yul\":1817:1823   */\n      0x00\n        /* \"#utility.yul\":1851:1856   */\n      dup2\n        /* \"#utility.yul\":1845:1857   */\n      mload\n        /* \"#utility.yul\":1835:1857   */\n      swap1\n      pop\n        /* \"#utility.yul\":1765:1864   */\n      swap2\n      swap1\n      pop\n      jump\t// out\n        /* \"#utility.yul\":1870:2039   */\n    tag_69:\n        /* \"#utility.yul\":1954:1965   */\n      0x00\n        /* \"#utility.yul\":1988:1994   */\n      dup3\n        /* \"#utility.yul\":1983:1986   */\n      dup3\n        /* \"#utility.yul\":1976:1995   */\n      mstore\n        /* \"#utility.yul\":2028:2032   */\n      0x20\n        /* \"#utility.yul\":2023:2026   */\n      dup3\n        /* \"#utility.yul\":2019:2033   */\n      add\n        /* \"#utility.yul\":2004:2033   */\n      swap1\n      pop\n        /* \"#utility.yul\":1870:2039   */\n      swap3\n      swap2\n      pop\n      pop\n      jump\t// out\n        /* \"#utility.yul\":2045:2184   */\n    tag_70:\n        /* \"#utility.yul\":2134:2140   */\n      dup3\n        /* \"#utility.yul\":2129:2132   */\n      dup2\n        /* \"#utility.yul\":2124:2127   */\n      dup4\n        /* \"#utility.yul\":2118:2141   */\n      mcopy\n        /* \"#utility.yul\":2175:2176   */\n      0x00\n        /* \"#utility.yul\":2166:2172   */\n      dup4\n        /* \"#utility.yul\":2161:2164   */\n      dup4\n        /* \"#utility.yul\":2157:2173   */\n      add\n        /* \"#utility.yul\":2150:2177   */\n      mstore\n        /* \"#utility.yul\":2045:2184   */\n      pop\n      pop\n      pop\n      jump\t// out\n        /* \"#utility.yul\":2190:2292   */\n    tag_71:\n        /* \"#utility.yul\":2231:2237   */\n      0x00\n        /* \"#utility.yul\":2282:2284   */\n      0x1f\n        /* \"#utility.yul\":2278:2285   */\n      not\n        /* \"#utility.yul\":2273:2275   */\n      0x1f\n        /* \"#utility.yul\":2266:2271   */\n      dup4\n        /* \"#utility.yul\":2262:2276   */\n      add\n        /* \"#utility.yul\":2258:2286   */\n      and\n        /* \"#utility.yul\":2248:2286   */\n      swap1\n      pop\n        /* \"#utility.yul\":2190:2292   */\n      swap2\n      swap1\n      pop\n      jump\t// out\n        /* \"#utility.yul\":2298:2675   */\n    tag_72:\n        /* \"#utility.yul\":2386:2389   */\n      0x00\n        /* \"#utility.yul\":2414:2453   */\n      tag_143\n        /* \"#utility.yul\":2447:2452   */\n      dup3\n        /* \"#utility.yul\":2414:2453   */\n      tag_68\n      jump\t// in\n    tag_143:\n        /* \"#utility.yul\":2469:2540   */\n      tag_144\n        /* \"#utility.yul\":2533:2539   */\n      dup2\n        /* \"#utility.yul\":2528:2531   */\n      dup6\n        /* \"#utility.yul\":2469:2540   */\n      tag_69\n      jump\t// in\n    tag_144:\n        /* \"#utility.yul\":2462:2540   */\n      swap4\n      pop\n        /* \"#utility.yul\":2549:2614   */\n      tag_145\n        /* \"#utility.yul\":2607:2613   */\n      dup2\n        /* \"#utility.yul\":2602:2605   */\n      dup6\n        /* \"#utility.yul\":2595:2599   */\n      0x20\n        /* \"#utility.yul\":2588:2593   */\n      dup7\n        /* \"#utility.yul\":2584:2600   */\n      add\n        /* \"#utility.yul\":2549:2614   */\n      tag_70\n      jump\t// in\n    tag_145:\n        /* \"#utility.yul\":2639:2668   */\n      tag_146\n        /* \"#utility.yul\":2661:2667   */\n      dup2\n        /* \"#utility.yul\":2639:2668   */\n      tag_71\n      jump\t// in\n    tag_146:\n        /* \"#utility.yul\":2634:2637   */\n      dup5\n        /* \"#utility.yul\":2630:2669   */\n      add\n        /* \"#utility.yul\":2623:2669   */\n      swap2\n      pop\n        /* \"#utility.yul\":2390:2675   */\n      pop\n        /* \"#utility.yul\":2298:2675   */\n      swap3\n      swap2\n      pop\n      pop\n      jump\t// out\n        /* \"#utility.yul\":2681:2771   */\n    tag_73:\n        /* \"#utility.yul\":2715:2722   */\n      0x00\n        /* \"#utility.yul\":2758:2763   */\n      dup2\n        /* \"#utility.yul\":2751:2764   */\n      iszero\n        /* \"#utility.yul\":2744:2765   */\n      iszero\n        /* \"#utility.yul\":2733:2765   */\n      swap1\n      pop\n        /* \"#utility.yul\":2681:2771   */\n      swap2\n      swap1\n      pop\n      jump\t// out\n        /* \"#utility.yul\":2777:2886   */\n    tag_74:\n        /* \"#utility.yul\":2858:2879   */\n      tag_149\n        /* \"#utility.yul\":2873:2878   */\n      dup2\n        /* \"#utility.yul\":2858:2879   */\n      tag_73\n      jump\t// in\n    tag_149:\n        /* \"#utility.yul\":2853:2856   */\n      dup3\n        /* \"#utility.yul\":2846:2880   */\n      mstore\n        /* \"#utility.yul\":2777:2886   */\n      pop\n      pop\n      jump\t// out\n        /* \"#utility.yul\":2892:3889   */\n    tag_12:\n        /* \"#utility.yul\":3183:3187   */\n      0x00\n        /* \"#utility.yul\":3221:3224   */\n      0xe0\n        /* \"#utility.yul\":3210:3219   */\n      dup3\n        /* \"#utility.yul\":3206:3225   */\n      add\n        /* \"#utility.yul\":3198:3225   */\n      swap1\n      pop\n        /* \"#utility.yul\":3235:3306   */\n      tag_151\n        /* \"#utility.yul\":3303:3304   */\n      0x00\n        /* \"#utility.yul\":3292:3301   */\n      dup4\n        /* \"#utility.yul\":3288:3305   */\n      add\n        /* \"#utility.yul\":3279:3285   */\n      dup11\n        /* \"#utility.yul\":3235:3306   */\n      tag_62\n      jump\t// in\n    tag_151:\n        /* \"#utility.yul\":3316:3388   */\n      tag_152\n        /* \"#utility.yul\":3384:3386   */\n      0x20\n        /* \"#utility.yul\":3373:3382   */\n      dup4\n        /* \"#utility.yul\":3369:3387   */\n      add\n        /* \"#utility.yul\":3360:3366   */\n      dup10\n        /* \"#utility.yul\":3316:3388   */\n      tag_65\n      jump\t// in\n    tag_152:\n        /* \"#utility.yul\":3398:3486   */\n      tag_153\n        /* \"#utility.yul\":3482:3484   */\n      0x40\n        /* \"#utility.yul\":3471:3480   */\n      dup4\n        /* \"#utility.yul\":3467:3485   */\n      add\n        /* \"#utility.yul\":3458:3464   */\n      dup9\n        /* \"#utility.yul\":3398:3486   */\n      tag_67\n      jump\t// in\n    tag_153:\n        /* \"#utility.yul\":3533:3542   */\n      dup2\n        /* \"#utility.yul\":3527:3531   */\n      dup2\n        /* \"#utility.yul\":3523:3543   */\n      sub\n        /* \"#utility.yul\":3518:3520   */\n      0x60\n        /* \"#utility.yul\":3507:3516   */\n      dup4\n        /* \"#utility.yul\":3503:3521   */\n      add\n        /* \"#utility.yul\":3496:3544   */\n      mstore\n        /* \"#utility.yul\":3561:3639   */\n      tag_154\n        /* \"#utility.yul\":3634:3638   */\n      dup2\n        /* \"#utility.yul\":3625:3631   */\n      dup8\n        /* \"#utility.yul\":3561:3639   */\n      tag_72\n      jump\t// in\n    tag_154:\n        /* \"#utility.yul\":3553:3639   */\n      swap1\n      pop\n        /* \"#utility.yul\":3649:3722   */\n      tag_155\n        /* \"#utility.yul\":3717:3720   */\n      0x80\n        /* \"#utility.yul\":3706:3715   */\n      dup4\n        /* \"#utility.yul\":3702:3721   */\n      add\n        /* \"#utility.yul\":3693:3699   */\n      dup7\n        /* \"#utility.yul\":3649:3722   */\n      tag_62\n      jump\t// in\n    tag_155:\n        /* \"#utility.yul\":3732:3805   */\n      tag_156\n        /* \"#utility.yul\":3800:3803   */\n      0xa0\n        /* \"#utility.yul\":3789:3798   */\n      dup4\n        /* \"#utility.yul\":3785:3804   */\n      add\n        /* \"#utility.yul\":3776:3782   */\n      dup6\n        /* \"#utility.yul\":3732:3805   */\n      tag_62\n      jump\t// in\n    tag_156:\n        /* \"#utility.yul\":3815:3882   */\n      tag_157\n        /* \"#utility.yul\":3877:3880   */\n      0xc0\n        /* \"#utility.yul\":3866:3875   */\n      dup4\n        /* \"#utility.yul\":3862:3881   */\n      add\n        /* \"#utility.yul\":3853:3859   */\n      dup5\n        /* \"#utility.yul\":3815:3882   */\n      tag_74\n      jump\t// in\n    tag_157:\n        /* \"#utility.yul\":2892:3889   */\n      swap9\n      swap8\n      pop\n      pop\n      pop\n      pop\n      pop\n      pop\n      pop\n      pop\n      jump\t// out\n        /* \"#utility.yul\":3895:4012   */\n    tag_75:\n        /* \"#utility.yul\":4004:4005   */\n      0x00\n        /* \"#utility.yul\":4001:4002   */\n      dup1\n        /* \"#utility.yul\":3994:4006   */\n      revert\n        /* \"#utility.yul\":4018:4135   */\n    tag_76:\n        /* \"#utility.yul\":4127:4128   */\n      0x00\n        /* \"#utility.yul\":4124:4125   */\n      dup1\n        /* \"#utility.yul\":4117:4129   */\n      revert\n        /* \"#utility.yul\":4141:4321   */\n    tag_77:\n        /* \"#utility.yul\":4189:4266   */\n      0x4e487b7100000000000000000000000000000000000000000000000000000000\n        /* \"#utility.yul\":4186:4187   */\n      0x00\n        /* \"#utility.yul\":4179:4267   */\n      mstore\n        /* \"#utility.yul\":4286:4290   */\n      0x41\n        /* \"#utility.yul\":4283:4284   */\n      0x04\n        /* \"#utility.yul\":4276:4291   */\n      mstore\n        /* \"#utility.yul\":4310:4314   */\n      0x24\n        /* \"#utility.yul\":4307:4308   */\n      0x00\n        /* \"#utility.yul\":4300:4315   */\n      revert\n        /* \"#utility.yul\":4327:4608   */\n    tag_78:\n        /* \"#utility.yul\":4410:4437   */\n      tag_162\n        /* \"#utility.yul\":4432:4436   */\n      dup3\n        /* \"#utility.yul\":4410:4437   */\n      tag_71\n      jump\t// in\n    tag_162:\n        /* \"#utility.yul\":4402:4408   */\n      dup2\n        /* \"#utility.yul\":4398:4438   */\n      add\n        /* \"#utility.yul\":4540:4546   */\n      dup2\n        /* \"#utility.yul\":4528:4538   */\n      dup2\n        /* \"#utility.yul\":4525:4547   */\n      lt\n        /* \"#utility.yul\":4504:4522   */\n      0xffffffffffffffff\n        /* \"#utility.yul\":4492:4502   */\n      dup3\n        /* \"#utility.yul\":4489:4523   */\n      gt\n        /* \"#utility.yul\":4486:4548   */\n      or\n        /* \"#utility.yul\":4483:4571   */\n      iszero\n      tag_163\n      jumpi\n        /* \"#utility.yul\":4551:4569   */\n      tag_164\n      tag_77\n      jump\t// in\n    tag_164:\n        /* \"#utility.yul\":4483:4571   */\n    tag_163:\n        /* \"#utility.yul\":4591:4601   */\n      dup1\n        /* \"#utility.yul\":4587:4589   */\n      0x40\n        /* \"#utility.yul\":4580:4602   */\n      mstore\n        /* \"#utility.yul\":4370:4608   */\n      pop\n        /* \"#utility.yul\":4327:4608   */\n      pop\n      pop\n      jump\t// out\n        /* \"#utility.yul\":4614:4743   */\n    tag_79:\n        /* \"#utility.yul\":4648:4654   */\n      0x00\n        /* \"#utility.yul\":4675:4695   */\n      tag_166\n      tag_56\n      jump\t// in\n    tag_166:\n        /* \"#utility.yul\":4665:4695   */\n      swap1\n      pop\n        /* \"#utility.yul\":4704:4737   */\n      tag_167\n        /* \"#utility.yul\":4732:4736   */\n      dup3\n        /* \"#utility.yul\":4724:4730   */\n      dup3\n        /* \"#utility.yul\":4704:4737   */\n      tag_78\n      jump\t// in\n    tag_167:\n        /* \"#utility.yul\":4614:4743   */\n      swap2\n      swap1\n      pop\n      jump\t// out\n        /* \"#utility.yul\":4749:5057   */\n    tag_80:\n        /* \"#utility.yul\":4811:4815   */\n      0x00\n        /* \"#utility.yul\":4901:4919   */\n      0xffffffffffffffff\n        /* \"#utility.yul\":4893:4899   */\n      dup3\n        /* \"#utility.yul\":4890:4920   */\n      gt\n        /* \"#utility.yul\":4887:4943   */\n      iszero\n      tag_169\n      jumpi\n        /* \"#utility.yul\":4923:4941   */\n      tag_170\n      tag_77\n      jump\t// in\n    tag_170:\n        /* \"#utility.yul\":4887:4943   */\n    tag_169:\n        /* \"#utility.yul\":4961:4990   */\n      tag_171\n        /* \"#utility.yul\":4983:4989   */\n      dup3\n        /* \"#utility.yul\":4961:4990   */\n      tag_71\n      jump\t// in\n    tag_171:\n        /* \"#utility.yul\":4953:4990   */\n      swap1\n      pop\n        /* \"#utility.yul\":5045:5049   */\n      0x20\n        /* \"#utility.yul\":5039:5043   */\n      dup2\n        /* \"#utility.yul\":5035:5050   */\n      add\n        /* \"#utility.yul\":5027:5050   */\n      swap1\n      pop\n        /* \"#utility.yul\":4749:5057   */\n      swap2\n      swap1\n      pop\n      jump\t// out\n        /* \"#utility.yul\":5063:5211   */\n    tag_81:\n        /* \"#utility.yul\":5161:5167   */\n      dup3\n        /* \"#utility.yul\":5156:5159   */\n      dup2\n        /* \"#utility.yul\":5151:5154   */\n      dup4\n        /* \"#utility.yul\":5138:5168   */\n      calldatacopy\n        /* \"#utility.yul\":5202:5203   */\n      0x00\n        /* \"#utility.yul\":5193:5199   */\n      dup4\n        /* \"#utility.yul\":5188:5191   */\n      dup4\n        /* \"#utility.yul\":5184:5200   */\n      add\n        /* \"#utility.yul\":5177:5204   */\n      mstore\n        /* \"#utility.yul\":5063:5211   */\n      pop\n      pop\n      pop\n      jump\t// out\n        /* \"#utility.yul\":5217:5642   */\n    tag_82:\n        /* \"#utility.yul\":5295:5300   */\n      0x00\n        /* \"#utility.yul\":5320:5386   */\n      tag_174\n        /* \"#utility.yul\":5336:5385   */\n      tag_175\n        /* \"#utility.yul\":5378:5384   */\n      dup5\n        /* \"#utility.yul\":5336:5385   */\n      tag_80\n      jump\t// in\n    tag_175:\n        /* \"#utility.yul\":5320:5386   */\n      tag_79\n      jump\t// in\n    tag_174:\n        /* \"#utility.yul\":5311:5386   */\n      swap1\n      pop\n        /* \"#utility.yul\":5409:5415   */\n      dup3\n        /* \"#utility.yul\":5402:5407   */\n      dup2\n        /* \"#utility.yul\":5395:5416   */\n      mstore\n        /* \"#utility.yul\":5447:5451   */\n      0x20\n        /* \"#utility.yul\":5440:5445   */\n      dup2\n        /* \"#utility.yul\":5436:5452   */\n      add\n        /* \"#utility.yul\":5485:5488   */\n      dup5\n        /* \"#utility.yul\":5476:5482   */\n      dup5\n        /* \"#utility.yul\":5471:5474   */\n      dup5\n        /* \"#utility.yul\":5467:5483   */\n      add\n        /* \"#utility.yul\":5464:5489   */\n      gt\n        /* \"#utility.yul\":5461:5573   */\n      iszero\n      tag_176\n      jumpi\n        /* \"#utility.yul\":5492:5571   */\n      tag_177\n      tag_76\n      jump\t// in\n    tag_177:\n        /* \"#utility.yul\":5461:5573   */\n    tag_176:\n        /* \"#utility.yul\":5582:5636   */\n      tag_178\n        /* \"#utility.yul\":5629:5635   */\n      dup5\n        /* \"#utility.yul\":5624:5627   */\n      dup3\n        /* \"#utility.yul\":5619:5622   */\n      dup6\n        /* \"#utility.yul\":5582:5636   */\n      tag_81\n      jump\t// in\n    tag_178:\n        /* \"#utility.yul\":5301:5642   */\n      pop\n        /* \"#utility.yul\":5217:5642   */\n      swap4\n      swap3\n      pop\n      pop\n      pop\n      jump\t// out\n        /* \"#utility.yul\":5662:6002   */\n    tag_83:\n        /* \"#utility.yul\":5718:5723   */\n      0x00\n        /* \"#utility.yul\":5767:5770   */\n      dup3\n        /* \"#utility.yul\":5760:5764   */\n      0x1f\n        /* \"#utility.yul\":5752:5758   */\n      dup4\n        /* \"#utility.yul\":5748:5765   */\n      add\n        /* \"#utility.yul\":5744:5771   */\n      slt\n        /* \"#utility.yul\":5734:5856   */\n      tag_180\n      jumpi\n        /* \"#utility.yul\":5775:5854   */\n      tag_181\n      tag_75\n      jump\t// in\n    tag_181:\n        /* \"#utility.yul\":5734:5856   */\n    tag_180:\n        /* \"#utility.yul\":5892:5898   */\n      dup2\n        /* \"#utility.yul\":5879:5899   */\n      calldataload\n        /* \"#utility.yul\":5917:5996   */\n      tag_182\n        /* \"#utility.yul\":5992:5995   */\n      dup5\n        /* \"#utility.yul\":5984:5990   */\n      dup3\n        /* \"#utility.yul\":5977:5981   */\n      0x20\n        /* \"#utility.yul\":5969:5975   */\n      dup7\n        /* \"#utility.yul\":5965:5982   */\n      add\n        /* \"#utility.yul\":5917:5996   */\n      tag_82\n      jump\t// in\n    tag_182:\n        /* \"#utility.yul\":5908:5996   */\n      swap2\n      pop\n        /* \"#utility.yul\":5724:6002   */\n      pop\n        /* \"#utility.yul\":5662:6002   */\n      swap3\n      swap2\n      pop\n      pop\n      jump\t// out\n        /* \"#utility.yul\":6008:6662   */\n    tag_23:\n        /* \"#utility.yul\":6086:6092   */\n      0x00\n        /* \"#utility.yul\":6094:6100   */\n      dup1\n        /* \"#utility.yul\":6143:6145   */\n      0x40\n        /* \"#utility.yul\":6131:6140   */\n      dup4\n        /* \"#utility.yul\":6122:6129   */\n      dup6\n        /* \"#utility.yul\":6118:6141   */\n      sub\n        /* \"#utility.yul\":6114:6146   */\n      slt\n        /* \"#utility.yul\":6111:6230   */\n      iszero\n      tag_184\n      jumpi\n        /* \"#utility.yul\":6149:6228   */\n      tag_185\n      tag_57\n      jump\t// in\n    tag_185:\n        /* \"#utility.yul\":6111:6230   */\n    tag_184:\n        /* \"#utility.yul\":6297:6298   */\n      0x00\n        /* \"#utility.yul\":6286:6295   */\n      dup4\n        /* \"#utility.yul\":6282:6299   */\n      add\n        /* \"#utility.yul\":6269:6300   */\n      calldataload\n        /* \"#utility.yul\":6327:6345   */\n      0xffffffffffffffff\n        /* \"#utility.yul\":6319:6325   */\n      dup2\n        /* \"#utility.yul\":6316:6346   */\n      gt\n        /* \"#utility.yul\":6313:6430   */\n      iszero\n      tag_186\n      jumpi\n        /* \"#utility.yul\":6349:6428   */\n      tag_187\n      tag_58\n      jump\t// in\n    tag_187:\n        /* \"#utility.yul\":6313:6430   */\n    tag_186:\n        /* \"#utility.yul\":6454:6517   */\n      tag_188\n        /* \"#utility.yul\":6509:6516   */\n      dup6\n        /* \"#utility.yul\":6500:6506   */\n      dup3\n        /* \"#utility.yul\":6489:6498   */\n      dup7\n        /* \"#utility.yul\":6485:6507   */\n      add\n        /* \"#utility.yul\":6454:6517   */\n      tag_83\n      jump\t// in\n    tag_188:\n        /* \"#utility.yul\":6444:6517   */\n      swap3\n      pop\n        /* \"#utility.yul\":6240:6527   */\n      pop\n        /* \"#utility.yul\":6566:6568   */\n      0x20\n        /* \"#utility.yul\":6592:6645   */\n      tag_189\n        /* \"#utility.yul\":6637:6644   */\n      dup6\n        /* \"#utility.yul\":6628:6634   */\n      dup3\n        /* \"#utility.yul\":6617:6626   */\n      dup7\n        /* \"#utility.yul\":6613:6635   */\n      add\n        /* \"#utility.yul\":6592:6645   */\n      tag_61\n      jump\t// in\n    tag_189:\n        /* \"#utility.yul\":6582:6645   */\n      swap2\n      pop\n        /* \"#utility.yul\":6537:6655   */\n      pop\n        /* \"#utility.yul\":6008:6662   */\n      swap3\n      pop\n      swap3\n      swap1\n      pop\n      jump\t// out\n        /* \"#utility.yul\":6668:6848   */\n    tag_84:\n        /* \"#utility.yul\":6716:6793   */\n      0x4e487b7100000000000000000000000000000000000000000000000000000000\n        /* \"#utility.yul\":6713:6714   */\n      0x00\n        /* \"#utility.yul\":6706:6794   */\n      mstore\n        /* \"#utility.yul\":6813:6817   */\n      0x22\n        /* \"#utility.yul\":6810:6811   */\n      0x04\n        /* \"#utility.yul\":6803:6818   */\n      mstore\n        /* \"#utility.yul\":6837:6841   */\n      0x24\n        /* \"#utility.yul\":6834:6835   */\n      0x00\n        /* \"#utility.yul\":6827:6842   */\n      revert\n        /* \"#utility.yul\":6854:7174   */\n    tag_26:\n        /* \"#utility.yul\":6898:6904   */\n      0x00\n        /* \"#utility.yul\":6935:6936   */\n      0x02\n        /* \"#utility.yul\":6929:6933   */\n      dup3\n        /* \"#utility.yul\":6925:6937   */\n      div\n        /* \"#utility.yul\":6915:6937   */\n      swap1\n      pop\n        /* \"#utility.yul\":6982:6983   */\n      0x01\n        /* \"#utility.yul\":6976:6980   */\n      dup3\n        /* \"#utility.yul\":6972:6984   */\n      and\n        /* \"#utility.yul\":7003:7021   */\n      dup1\n        /* \"#utility.yul\":6993:7074   */\n      tag_192\n      jumpi\n        /* \"#utility.yul\":7059:7063   */\n      0x7f\n        /* \"#utility.yul\":7051:7057   */\n      dup3\n        /* \"#utility.yul\":7047:7064   */\n      and\n        /* \"#utility.yul\":7037:7064   */\n      swap2\n      pop\n        /* \"#utility.yul\":6993:7074   */\n    tag_192:\n        /* \"#utility.yul\":7121:7123   */\n      0x20\n        /* \"#utility.yul\":7113:7119   */\n      dup3\n        /* \"#utility.yul\":7110:7124   */\n      lt\n        /* \"#utility.yul\":7090:7108   */\n      dup2\n        /* \"#utility.yul\":7087:7125   */\n      sub\n        /* \"#utility.yul\":7084:7168   */\n      tag_193\n      jumpi\n        /* \"#utility.yul\":7140:7158   */\n      tag_194\n      tag_84\n      jump\t// in\n    tag_194:\n        /* \"#utility.yul\":7084:7168   */\n    tag_193:\n        /* \"#utility.yul\":6905:7174   */\n      pop\n        /* \"#utility.yul\":6854:7174   */\n      swap2\n      swap1\n      pop\n      jump\t// out\n        /* \"#utility.yul\":7180:7404   */\n    tag_85:\n        /* \"#utility.yul\":7320:7354   */\n      0x4f6e6c7920636c69656e742063616e206d61726b2070726f6a65637420636f6d\n        /* \"#utility.yul\":7316:7317   */\n      0x00\n        /* \"#utility.yul\":7308:7314   */\n      dup3\n        /* \"#utility.yul\":7304:7318   */\n      add\n        /* \"#utility.yul\":7297:7355   */\n      mstore\n        /* \"#utility.yul\":7389:7396   */\n      0x706c657465000000000000000000000000000000000000000000000000000000\n        /* \"#utility.yul\":7384:7386   */\n      0x20\n        /* \"#utility.yul\":7376:7382   */\n      dup3\n        /* \"#utility.yul\":7372:7387   */\n      add\n        /* \"#utility.yul\":7365:7397   */\n      mstore\n        /* \"#utility.yul\":7180:7404   */\n      pop\n      jump\t// out\n        /* \"#utility.yul\":7410:7776   */\n    tag_86:\n        /* \"#utility.yul\":7552:7555   */\n      0x00\n        /* \"#utility.yul\":7573:7640   */\n      tag_197\n        /* \"#utility.yul\":7637:7639   */\n      0x25\n        /* \"#utility.yul\":7632:7635   */\n      dup4\n        /* \"#utility.yul\":7573:7640   */\n      tag_69\n      jump\t// in\n    tag_197:\n        /* \"#utility.yul\":7566:7640   */\n      swap2\n      pop\n        /* \"#utility.yul\":7649:7742   */\n      tag_198\n        /* \"#utility.yul\":7738:7741   */\n      dup3\n        /* \"#utility.yul\":7649:7742   */\n      tag_85\n      jump\t// in\n    tag_198:\n        /* \"#utility.yul\":7767:7769   */\n      0x40\n        /* \"#utility.yul\":7762:7765   */\n      dup3\n        /* \"#utility.yul\":7758:7770   */\n      add\n        /* \"#utility.yul\":7751:7770   */\n      swap1\n      pop\n        /* \"#utility.yul\":7410:7776   */\n      swap2\n      swap1\n      pop\n      jump\t// out\n        /* \"#utility.yul\":7782:8201   */\n    tag_34:\n        /* \"#utility.yul\":7948:7952   */\n      0x00\n        /* \"#utility.yul\":7986:7988   */\n      0x20\n        /* \"#utility.yul\":7975:7984   */\n      dup3\n        /* \"#utility.yul\":7971:7989   */\n      add\n        /* \"#utility.yul\":7963:7989   */\n      swap1\n      pop\n        /* \"#utility.yul\":8035:8044   */\n      dup2\n        /* \"#utility.yul\":8029:8033   */\n      dup2\n        /* \"#utility.yul\":8025:8045   */\n      sub\n        /* \"#utility.yul\":8021:8022   */\n      0x00\n        /* \"#utility.yul\":8010:8019   */\n      dup4\n        /* \"#utility.yul\":8006:8023   */\n      add\n        /* \"#utility.yul\":7999:8046   */\n      mstore\n        /* \"#utility.yul\":8063:8194   */\n      tag_200\n        /* \"#utility.yul\":8189:8193   */\n      dup2\n        /* \"#utility.yul\":8063:8194   */\n      tag_86\n      jump\t// in\n    tag_200:\n        /* \"#utility.yul\":8055:8194   */\n      swap1\n      pop\n        /* \"#utility.yul\":7782:8201   */\n      swap2\n      swap1\n      pop\n      jump\t// out\n        /* \"#utility.yul\":8207:8379   */\n    tag_87:\n        /* \"#utility.yul\":8347:8371   */\n      0x4e6f20667265656c616e6365722061737369676e656400000000000000000000\n        /* \"#utility.yul\":8343:8344   */\n      0x00\n        /* \"#utility.yul\":8335:8341   */\n      dup3\n        /* \"#utility.yul\":8331:8345   */\n      add\n        /* \"#utility.yul\":8324:8372   */\n      mstore\n        /* \"#utility.yul\":8207:8379   */\n      pop\n      jump\t// out\n        /* \"#utility.yul\":8385:8751   */\n    tag_88:\n        /* \"#utility.yul\":8527:8530   */\n      0x00\n        /* \"#utility.yul\":8548:8615   */\n      tag_203\n        /* \"#utility.yul\":8612:8614   */\n      0x16\n        /* \"#utility.yul\":8607:8610   */\n      dup4\n        /* \"#utility.yul\":8548:8615   */\n      tag_69\n      jump\t// in\n    tag_203:\n        /* \"#utility.yul\":8541:8615   */\n      swap2\n      pop\n        /* \"#utility.yul\":8624:8717   */\n      tag_204\n        /* \"#utility.yul\":8713:8716   */\n      dup3\n        /* \"#utility.yul\":8624:8717   */\n      tag_87\n      jump\t// in\n    tag_204:\n        /* \"#utility.yul\":8742:8744   */\n      0x20\n        /* \"#utility.yul\":8737:8740   */\n      dup3\n        /* \"#utility.yul\":8733:8745   */\n      add\n        /* \"#utility.yul\":8726:8745   */\n      swap1\n      pop\n        /* \"#utility.yul\":8385:8751   */\n      swap2\n      swap1\n      pop\n      jump\t// out\n        /* \"#utility.yul\":8757:9176   */\n    tag_37:\n        /* \"#utility.yul\":8923:8927   */\n      0x00\n        /* \"#utility.yul\":8961:8963   */\n      0x20\n        /* \"#utility.yul\":8950:8959   */\n      dup3\n        /* \"#utility.yul\":8946:8964   */\n      add\n        /* \"#utility.yul\":8938:8964   */\n      swap1\n      pop\n        /* \"#utility.yul\":9010:9019   */\n      dup2\n        /* \"#utility.yul\":9004:9008   */\n      dup2\n        /* \"#utility.yul\":9000:9020   */\n      sub\n        /* \"#utility.yul\":8996:8997   */\n      0x00\n        /* \"#utility.yul\":8985:8994   */\n      dup4\n        /* \"#utility.yul\":8981:8998   */\n      add\n        /* \"#utility.yul\":8974:9021   */\n      mstore\n        /* \"#utility.yul\":9038:9169   */\n      tag_206\n        /* \"#utility.yul\":9164:9168   */\n      dup2\n        /* \"#utility.yul\":9038:9169   */\n      tag_88\n      jump\t// in\n    tag_206:\n        /* \"#utility.yul\":9030:9169   */\n      swap1\n      pop\n        /* \"#utility.yul\":8757:9176   */\n      swap2\n      swap1\n      pop\n      jump\t// out\n        /* \"#utility.yul\":9182:9357   */\n    tag_89:\n        /* \"#utility.yul\":9322:9349   */\n      0x50726f6a65637420616c726561647920636f6d706c6574656400000000000000\n        /* \"#utility.yul\":9318:9319   */\n      0x00\n        /* \"#utility.yul\":9310:9316   */\n      dup3\n        /* \"#utility.yul\":9306:9320   */\n      add\n        /* \"#utility.yul\":9299:9350   */\n      mstore\n        /* \"#utility.yul\":9182:9357   */\n      pop\n      jump\t// out\n        /* \"#utility.yul\":9363:9729   */\n    tag_90:\n        /* \"#utility.yul\":9505:9508   */\n      0x00\n        /* \"#utility.yul\":9526:9593   */\n      tag_209\n        /* \"#utility.yul\":9590:9592   */\n      0x19\n        /* \"#utility.yul\":9585:9588   */\n      dup4\n        /* \"#utility.yul\":9526:9593   */\n      tag_69\n      jump\t// in\n    tag_209:\n        /* \"#utility.yul\":9519:9593   */\n      swap2\n      pop\n        /* \"#utility.yul\":9602:9695   */\n      tag_210\n        /* \"#utility.yul\":9691:9694   */\n      dup3\n        /* \"#utility.yul\":9602:9695   */\n      tag_89\n      jump\t// in\n    tag_210:\n        /* \"#utility.yul\":9720:9722   */\n      0x20\n        /* \"#utility.yul\":9715:9718   */\n      dup3\n        /* \"#utility.yul\":9711:9723   */\n      add\n        /* \"#utility.yul\":9704:9723   */\n      swap1\n      pop\n        /* \"#utility.yul\":9363:9729   */\n      swap2\n      swap1\n      pop\n      jump\t// out\n        /* \"#utility.yul\":9735:10154   */\n    tag_40:\n        /* \"#utility.yul\":9901:9905   */\n      0x00\n        /* \"#utility.yul\":9939:9941   */\n      0x20\n        /* \"#utility.yul\":9928:9937   */\n      dup3\n        /* \"#utility.yul\":9924:9942   */\n      add\n        /* \"#utility.yul\":9916:9942   */\n      swap1\n      pop\n        /* \"#utility.yul\":9988:9997   */\n      dup2\n        /* \"#utility.yul\":9982:9986   */\n      dup2\n        /* \"#utility.yul\":9978:9998   */\n      sub\n        /* \"#utility.yul\":9974:9975   */\n      0x00\n        /* \"#utility.yul\":9963:9972   */\n      dup4\n        /* \"#utility.yul\":9959:9976   */\n      add\n        /* \"#utility.yul\":9952:9999   */\n      mstore\n        /* \"#utility.yul\":10016:10147   */\n      tag_212\n        /* \"#utility.yul\":10142:10146   */\n      dup2\n        /* \"#utility.yul\":10016:10147   */\n      tag_90\n      jump\t// in\n    tag_212:\n        /* \"#utility.yul\":10008:10147   */\n      swap1\n      pop\n        /* \"#utility.yul\":9735:10154   */\n      swap2\n      swap1\n      pop\n      jump\t// out\n        /* \"#utility.yul\":10160:10337   */\n    tag_91:\n        /* \"#utility.yul\":10300:10329   */\n      0x467265656c616e63657220616c72656164792061737369676e65640000000000\n        /* \"#utility.yul\":10296:10297   */\n      0x00\n        /* \"#utility.yul\":10288:10294   */\n      dup3\n        /* \"#utility.yul\":10284:10298   */\n      add\n        /* \"#utility.yul\":10277:10330   */\n      mstore\n        /* \"#utility.yul\":10160:10337   */\n      pop\n      jump\t// out\n        /* \"#utility.yul\":10343:10709   */\n    tag_92:\n        /* \"#utility.yul\":10485:10488   */\n      0x00\n        /* \"#utility.yul\":10506:10573   */\n      tag_215\n        /* \"#utility.yul\":10570:10572   */\n      0x1b\n        /* \"#utility.yul\":10565:10568   */\n      dup4\n        /* \"#utility.yul\":10506:10573   */\n      tag_69\n      jump\t// in\n    tag_215:\n        /* \"#utility.yul\":10499:10573   */\n      swap2\n      pop\n        /* \"#utility.yul\":10582:10675   */\n      tag_216\n        /* \"#utility.yul\":10671:10674   */\n      dup3\n        /* \"#utility.yul\":10582:10675   */\n      tag_91\n      jump\t// in\n    tag_216:\n        /* \"#utility.yul\":10700:10702   */\n      0x20\n        /* \"#utility.yul\":10695:10698   */\n      dup3\n        /* \"#utility.yul\":10691:10703   */\n      add\n        /* \"#utility.yul\":10684:10703   */\n      swap1\n      pop\n        /* \"#utility.yul\":10343:10709   */\n      swap2\n      swap1\n      pop\n      jump\t// out\n        /* \"#utility.yul\":10715:11134   */\n    tag_48:\n        /* \"#utility.yul\":10881:10885   */\n      0x00\n        /* \"#utility.yul\":10919:10921   */\n      0x20\n        /* \"#utility.yul\":10908:10917   */\n      dup3\n        /* \"#utility.yul\":10904:10922   */\n      add\n        /* \"#utility.yul\":10896:10922   */\n      swap1\n      pop\n        /* \"#utility.yul\":10968:10977   */\n      dup2\n        /* \"#utility.yul\":10962:10966   */\n      dup2\n        /* \"#utility.yul\":10958:10978   */\n      sub\n        /* \"#utility.yul\":10954:10955   */\n      0x00\n        /* \"#utility.yul\":10943:10952   */\n      dup4\n        /* \"#utility.yul\":10939:10956   */\n      add\n        /* \"#utility.yul\":10932:10979   */\n      mstore\n        /* \"#utility.yul\":10996:11127   */\n      tag_218\n        /* \"#utility.yul\":11122:11126   */\n      dup2\n        /* \"#utility.yul\":10996:11127   */\n      tag_92\n      jump\t// in\n    tag_218:\n        /* \"#utility.yul\":10988:11127   */\n      swap1\n      pop\n        /* \"#utility.yul\":10715:11134   */\n      swap2\n      swap1\n      pop\n      jump\t// out\n        /* \"#utility.yul\":11140:11281   */\n    tag_93:\n        /* \"#utility.yul\":11189:11193   */\n      0x00\n        /* \"#utility.yul\":11212:11215   */\n      dup2\n        /* \"#utility.yul\":11204:11215   */\n      swap1\n      pop\n        /* \"#utility.yul\":11235:11238   */\n      dup2\n        /* \"#utility.yul\":11232:11233   */\n      0x00\n        /* \"#utility.yul\":11225:11239   */\n      mstore\n        /* \"#utility.yul\":11269:11273   */\n      0x20\n        /* \"#utility.yul\":11266:11267   */\n      0x00\n        /* \"#utility.yul\":11256:11274   */\n      keccak256\n        /* \"#utility.yul\":11248:11274   */\n      swap1\n      pop\n        /* \"#utility.yul\":11140:11281   */\n      swap2\n      swap1\n      pop\n      jump\t// out\n        /* \"#utility.yul\":11287:11380   */\n    tag_94:\n        /* \"#utility.yul\":11324:11330   */\n      0x00\n        /* \"#utility.yul\":11371:11373   */\n      0x20\n        /* \"#utility.yul\":11366:11368   */\n      0x1f\n        /* \"#utility.yul\":11359:11364   */\n      dup4\n        /* \"#utility.yul\":11355:11369   */\n      add\n        /* \"#utility.yul\":11351:11374   */\n      div\n        /* \"#utility.yul\":11341:11374   */\n      swap1\n      pop\n        /* \"#utility.yul\":11287:11380   */\n      swap2\n      swap1\n      pop\n      jump\t// out\n        /* \"#utility.yul\":11386:11493   */\n    tag_95:\n        /* \"#utility.yul\":11430:11438   */\n      0x00\n        /* \"#utility.yul\":11480:11485   */\n      dup3\n        /* \"#utility.yul\":11474:11478   */\n      dup3\n        /* \"#utility.yul\":11470:11486   */\n      shl\n        /* \"#utility.yul\":11449:11486   */\n      swap1\n      pop\n        /* \"#utility.yul\":11386:11493   */\n      swap3\n      swap2\n      pop\n      pop\n      jump\t// out\n        /* \"#utility.yul\":11499:11892   */\n    tag_96:\n        /* \"#utility.yul\":11568:11574   */\n      0x00\n        /* \"#utility.yul\":11618:11619   */\n      0x08\n        /* \"#utility.yul\":11606:11616   */\n      dup4\n        /* \"#utility.yul\":11602:11620   */\n      mul\n        /* \"#utility.yul\":11641:11738   */\n      tag_223\n        /* \"#utility.yul\":11671:11737   */\n      0xffffffffffffffffffffffffffffffffffffffffffffffffffffffffffffffff\n        /* \"#utility.yul\":11660:11669   */\n      dup3\n        /* \"#utility.yul\":11641:11738   */\n      tag_95\n      jump\t// in\n    tag_223:\n        /* \"#utility.yul\":11759:11798   */\n      tag_224\n        /* \"#utility.yul\":11789:11797   */\n      dup7\n        /* \"#utility.yul\":11778:11787   */\n      dup4\n        /* \"#utility.yul\":11759:11798   */\n      tag_95\n      jump\t// in\n    tag_224:\n        /* \"#utility.yul\":11747:11798   */\n      swap6\n      pop\n        /* \"#utility.yul\":11831:11835   */\n      dup1\n        /* \"#utility.yul\":11827:11836   */\n      not\n        /* \"#utility.yul\":11820:11825   */\n      dup5\n        /* \"#utility.yul\":11816:11837   */\n      and\n        /* \"#utility.yul\":11807:11837   */\n      swap4\n      pop\n        /* \"#utility.yul\":11880:11884   */\n      dup1\n        /* \"#utility.yul\":11870:11878   */\n      dup7\n        /* \"#utility.yul\":11866:11885   */\n      and\n        /* \"#utility.yul\":11859:11864   */\n      dup5\n        /* \"#utility.yul\":11856:11886   */\n      or\n        /* \"#utility.yul\":11846:11886   */\n      swap3\n      pop\n        /* \"#utility.yul\":11575:11892   */\n      pop\n      pop\n        /* \"#utility.yul\":11499:11892   */\n      swap4\n      swap3\n      pop\n      pop\n      pop\n      jump\t// out\n        /* \"#utility.yul\":11898:11958   */\n    tag_97:\n        /* \"#utility.yul\":11926:11929   */\n      0x00\n        /* \"#utility.yul\":11947:11952   */\n      dup2\n        /* \"#utility.yul\":11940:11952   */\n      swap1\n      pop\n        /* \"#utility.yul\":11898:11958   */\n      swap2\n      swap1\n      pop\n      jump\t// out\n        /* \"#utility.yul\":11964:12106   */\n    tag_98:\n        /* \"#utility.yul\":12014:12023   */\n      0x00\n        /* \"#utility.yul\":12047:12100   */\n      tag_227\n        /* \"#utility.yul\":12065:12099   */\n      tag_228\n        /* \"#utility.yul\":12074:12098   */\n      tag_229\n        /* \"#utility.yul\":12092:12097   */\n      dup5\n        /* \"#utility.yul\":12074:12098   */\n      tag_59\n      jump\t// in\n    tag_229:\n        /* \"#utility.yul\":12065:12099   */\n      tag_97\n      jump\t// in\n    tag_228:\n        /* \"#utility.yul\":12047:12100   */\n      tag_59\n      jump\t// in\n    tag_227:\n        /* \"#utility.yul\":12034:12100   */\n      swap1\n      pop\n        /* \"#utility.yul\":11964:12106   */\n      swap2\n      swap1\n      pop\n      jump\t// out\n        /* \"#utility.yul\":12112:12187   */\n    tag_99:\n        /* \"#utility.yul\":12155:12158   */\n      0x00\n        /* \"#utility.yul\":12176:12181   */\n      dup2\n        /* \"#utility.yul\":12169:12181   */\n      swap1\n      pop\n        /* \"#utility.yul\":12112:12187   */\n      swap2\n      swap1\n      pop\n      jump\t// out\n        /* \"#utility.yul\":12193:12462   */\n    tag_100:\n        /* \"#utility.yul\":12303:12342   */\n      tag_232\n        /* \"#utility.yul\":12334:12341   */\n      dup4\n        /* \"#utility.yul\":12303:12342   */\n      tag_98\n      jump\t// in\n    tag_232:\n        /* \"#utility.yul\":12364:12455   */\n      tag_233\n        /* \"#utility.yul\":12413:12454   */\n      tag_234\n        /* \"#utility.yul\":12437:12453   */\n      dup3\n        /* \"#utility.yul\":12413:12454   */\n      tag_99\n      jump\t// in\n    tag_234:\n        /* \"#utility.yul\":12405:12411   */\n      dup5\n        /* \"#utility.yul\":12398:12402   */\n      dup5\n        /* \"#utility.yul\":12392:12403   */\n      sload\n        /* \"#utility.yul\":12364:12455   */\n      tag_96\n      jump\t// in\n    tag_233:\n        /* \"#utility.yul\":12358:12362   */\n      dup3\n        /* \"#utility.yul\":12351:12456   */\n      sstore\n        /* \"#utility.yul\":12269:12462   */\n      pop\n        /* \"#utility.yul\":12193:12462   */\n      pop\n      pop\n      pop\n      jump\t// out\n        /* \"#utility.yul\":12468:12541   */\n    tag_101:\n        /* \"#utility.yul\":12513:12516   */\n      0x00\n        /* \"#utility.yul\":12468:12541   */\n      swap1\n      jump\t// out\n        /* \"#utility.yul\":12547:12736   */\n    tag_102:\n        /* \"#utility.yul\":12624:12656   */\n      tag_237\n      tag_101\n      jump\t// in\n    tag_237:\n        /* \"#utility.yul\":12665:12730   */\n      tag_238\n        /* \"#utility.yul\":12723:12729   */\n      dup2\n        /* \"#utility.yul\":12715:12721   */\n      dup5\n        /* \"#utility.yul\":12709:12713   */\n      dup5\n        /* \"#utility.yul\":12665:12730   */\n      tag_100\n      jump\t// in\n    tag_238:\n        /* \"#utility.yul\":12600:12736   */\n      pop\n        /* \"#utility.yul\":12547:12736   */\n      pop\n      pop\n      jump\t// out\n        /* \"#utility.yul\":12742:12928   */\n    tag_103:\n        /* \"#utility.yul\":12802:12922   */\n    tag_240:\n        /* \"#utility.yul\":12819:12822   */\n      dup2\n        /* \"#utility.yul\":12812:12817   */\n      dup2\n        /* \"#utility.yul\":12809:12823   */\n      lt\n        /* \"#utility.yul\":12802:12922   */\n      iszero\n      tag_242\n      jumpi\n        /* \"#utility.yul\":12873:12912   */\n      tag_243\n        /* \"#utility.yul\":12910:12911   */\n      0x00\n        /* \"#utility.yul\":12903:12908   */\n      dup3\n        /* \"#utility.yul\":12873:12912   */\n      tag_102\n      jump\t// in\n    tag_243:\n        /* \"#utility.yul\":12846:12847   */\n      0x01\n        /* \"#utility.yul\":12839:12844   */\n      dup2\n        /* \"#utility.yul\":12835:12848   */\n      add\n        /* \"#utility.yul\":12826:12848   */\n      swap1\n      pop\n        /* \"#utility.yul\":12802:12922   */\n      jump(tag_240)\n    tag_242:\n        /* \"#utility.yul\":12742:12928   */\n      pop\n      pop\n      jump\t// out\n        /* \"#utility.yul\":12934:13477   */\n    tag_104:\n        /* \"#utility.yul\":13035:13037   */\n      0x1f\n        /* \"#utility.yul\":13030:13033   */\n      dup3\n        /* \"#utility.yul\":13027:13038   */\n      gt\n        /* \"#utility.yul\":13024:13470   */\n      iszero\n      tag_245\n      jumpi\n        /* \"#utility.yul\":13069:13107   */\n      tag_246\n        /* \"#utility.yul\":13101:13106   */\n      dup2\n        /* \"#utility.yul\":13069:13107   */\n      tag_93\n      jump\t// in\n    tag_246:\n        /* \"#utility.yul\":13153:13182   */\n      tag_247\n        /* \"#utility.yul\":13171:13181   */\n      dup5\n        /* \"#utility.yul\":13153:13182   */\n      tag_94\n      jump\t// in\n    tag_247:\n        /* \"#utility.yul\":13143:13151   */\n      dup2\n        /* \"#utility.yul\":13139:13183   */\n      add\n        /* \"#utility.yul\":13336:13338   */\n      0x20\n        /* \"#utility.yul\":13324:13334   */\n      dup6\n        /* \"#utility.yul\":13321:13339   */\n      lt\n        /* \"#utility.yul\":13318:13367   */\n      iszero\n      tag_248\n      jumpi\n        /* \"#utility.yul\":13357:13365   */\n      dup2\n        /* \"#utility.yul\":13342:13365   */\n      swap1\n      pop\n        /* \"#utility.yul\":13318:13367   */\n    tag_248:\n        /* \"#utility.yul\":13380:13460   */\n      tag_249\n        /* \"#utility.yul\":13436:13458   */\n      tag_250\n        /* \"#utility.yul\":13454:13457   */\n      dup6\n        /* \"#utility.yul\":13436:13458   */\n      tag_94\n      jump\t// in\n    tag_250:\n        /* \"#utility.yul\":13426:13434   */\n      dup4\n        /* \"#utility.yul\":13422:13459   */\n      add\n        /* \"#utility.yul\":13409:13420   */\n      dup3\n        /* \"#utility.yul\":13380:13460   */\n      tag_103\n      jump\t// in\n    tag_249:\n        /* \"#utility.yul\":13039:13470   */\n      pop\n      pop\n        /* \"#utility.yul\":13024:13470   */\n    tag_245:\n        /* \"#utility.yul\":12934:13477   */\n      pop\n      pop\n      pop\n      jump\t// out\n        /* \"#utility.yul\":13483:13600   */\n    tag_105:\n        /* \"#utility.yul\":13537:13545   */\n      0x00\n        /* \"#utility.yul\":13587:13592   */\n      dup3\n        /* \"#utility.yul\":13581:13585   */\n      dup3\n        /* \"#utility.yul\":13577:13593   */\n      shr\n        /* \"#utility.yul\":13556:13593   */\n      swap1\n      pop\n        /* \"#utility.yul\":13483:13600   */\n      swap3\n      swap2\n      pop\n      pop\n      jump\t// out\n        /* \"#utility.yul\":13606:13775   */\n    tag_106:\n        /* \"#utility.yul\":13650:13656   */\n      0x00\n        /* \"#utility.yul\":13683:13734   */\n      tag_253\n        /* \"#utility.yul\":13731:13732   */\n      0x00\n        /* \"#utility.yul\":13727:13733   */\n      not\n        /* \"#utility.yul\":13719:13724   */\n      dup5\n        /* \"#utility.yul\":13716:13717   */\n      0x08\n        /* \"#utility.yul\":13712:13725   */\n      mul\n        /* \"#utility.yul\":13683:13734   */\n      tag_105\n      jump\t// in\n    tag_253:\n        /* \"#utility.yul\":13679:13735   */\n      not\n        /* \"#utility.yul\":13764:13768   */\n      dup1\n        /* \"#utility.yul\":13758:13762   */\n      dup4\n        /* \"#utility.yul\":13754:13769   */\n      and\n        /* \"#utility.yul\":13744:13769   */\n      swap2\n      pop\n        /* \"#utility.yul\":13657:13775   */\n      pop\n        /* \"#utility.yul\":13606:13775   */\n      swap3\n      swap2\n      pop\n      pop\n      jump\t// out\n        /* \"#utility.yul\":13780:14075   */\n    tag_107:\n        /* \"#utility.yul\":13856:13860   */\n      0x00\n        /* \"#utility.yul\":14002:14031   */\n      tag_255\n        /* \"#utility.yul\":14027:14030   */\n      dup4\n        /* \"#utility.yul\":14021:14025   */\n      dup4\n        /* \"#utility.yul\":14002:14031   */\n      tag_106\n      jump\t// in\n    tag_255:\n        /* \"#utility.yul\":13994:14031   */\n      swap2\n      pop\n        /* \"#utility.yul\":14064:14067   */\n      dup3\n        /* \"#utility.yul\":14061:14062   */\n      0x02\n        /* \"#utility.yul\":14057:14068   */\n      mul\n        /* \"#utility.yul\":14051:14055   */\n      dup3\n        /* \"#utility.yul\":14048:14069   */\n      or\n        /* \"#utility.yul\":14040:14069   */\n      swap1\n      pop\n        /* \"#utility.yul\":13780:14075   */\n      swap3\n      swap2\n      pop\n      pop\n      jump\t// out\n        /* \"#utility.yul\":14080:15475   */\n    tag_51:\n        /* \"#utility.yul\":14197:14234   */\n      tag_257\n        /* \"#utility.yul\":14230:14233   */\n      dup3\n        /* \"#utility.yul\":14197:14234   */\n      tag_68\n      jump\t// in\n    tag_257:\n        /* \"#utility.yul\":14299:14317   */\n      0xffffffffffffffff\n        /* \"#utility.yul\":14291:14297   */\n      dup2\n        /* \"#utility.yul\":14288:14318   */\n      gt\n        /* \"#utility.yul\":14285:14341   */\n      iszero\n      tag_258\n      jumpi\n        /* \"#utility.yul\":14321:14339   */\n      tag_259\n      tag_77\n      jump\t// in\n    tag_259:\n        /* \"#utility.yul\":14285:14341   */\n    tag_258:\n        /* \"#utility.yul\":14365:14403   */\n      tag_260\n        /* \"#utility.yul\":14397:14401   */\n      dup3\n        /* \"#utility.yul\":14391:14402   */\n      sload\n        /* \"#utility.yul\":14365:14403   */\n      tag_26\n      jump\t// in\n    tag_260:\n        /* \"#utility.yul\":14450:14517   */\n      tag_261\n        /* \"#utility.yul\":14510:14516   */\n      dup3\n        /* \"#utility.yul\":14502:14508   */\n      dup3\n        /* \"#utility.yul\":14496:14500   */\n      dup6\n        /* \"#utility.yul\":14450:14517   */\n      tag_104\n      jump\t// in\n    tag_261:\n        /* \"#utility.yul\":14544:14545   */\n      0x00\n        /* \"#utility.yul\":14568:14572   */\n      0x20\n        /* \"#utility.yul\":14555:14572   */\n      swap1\n      pop\n        /* \"#utility.yul\":14600:14602   */\n      0x1f\n        /* \"#utility.yul\":14592:14598   */\n      dup4\n        /* \"#utility.yul\":14589:14603   */\n      gt\n        /* \"#utility.yul\":14617:14618   */\n      0x01\n        /* \"#utility.yul\":14612:15230   */\n      dup2\n      eq\n      tag_263\n      jumpi\n        /* \"#utility.yul\":15274:15275   */\n      0x00\n        /* \"#utility.yul\":15291:15297   */\n      dup5\n        /* \"#utility.yul\":15288:15365   */\n      iszero\n      tag_264\n      jumpi\n        /* \"#utility.yul\":15340:15349   */\n      dup3\n        /* \"#utility.yul\":15335:15338   */\n      dup8\n        /* \"#utility.yul\":15331:15350   */\n      add\n        /* \"#utility.yul\":15325:15351   */\n      mload\n        /* \"#utility.yul\":15316:15351   */\n      swap1\n      pop\n        /* \"#utility.yul\":15288:15365   */\n    tag_264:\n        /* \"#utility.yul\":15391:15458   */\n      tag_265\n        /* \"#utility.yul\":15451:15457   */\n      dup6\n        /* \"#utility.yul\":15444:15449   */\n      dup3\n        /* \"#utility.yul\":15391:15458   */\n      tag_107\n      jump\t// in\n    tag_265:\n        /* \"#utility.yul\":15385:15389   */\n      dup7\n        /* \"#utility.yul\":15378:15459   */\n      sstore\n        /* \"#utility.yul\":15247:15469   */\n      pop\n        /* \"#utility.yul\":14582:15469   */\n      jump(tag_262)\n        /* \"#utility.yul\":14612:15230   */\n    tag_263:\n        /* \"#utility.yul\":14664:14668   */\n      0x1f\n        /* \"#utility.yul\":14660:14669   */\n      not\n        /* \"#utility.yul\":14652:14658   */\n      dup5\n        /* \"#utility.yul\":14648:14670   */\n      and\n        /* \"#utility.yul\":14698:14735   */\n      tag_266\n        /* \"#utility.yul\":14730:14734   */\n      dup7\n        /* \"#utility.yul\":14698:14735   */\n      tag_93\n      jump\t// in\n    tag_266:\n        /* \"#utility.yul\":14757:14758   */\n      0x00\n        /* \"#utility.yul\":14771:14979   */\n    tag_267:\n        /* \"#utility.yul\":14785:14792   */\n      dup3\n        /* \"#utility.yul\":14782:14783   */\n      dup2\n        /* \"#utility.yul\":14779:14793   */\n      lt\n        /* \"#utility.yul\":14771:14979   */\n      iszero\n      tag_269\n      jumpi\n        /* \"#utility.yul\":14864:14873   */\n      dup5\n        /* \"#utility.yul\":14859:14862   */\n      dup10\n        /* \"#utility.yul\":14855:14874   */\n      add\n        /* \"#utility.yul\":14849:14875   */\n      mload\n        /* \"#utility.yul\":14841:14847   */\n      dup3\n        /* \"#utility.yul\":14834:14876   */\n      sstore\n        /* \"#utility.yul\":14915:14916   */\n      0x01\n        /* \"#utility.yul\":14907:14913   */\n      dup3\n        /* \"#utility.yul\":14903:14917   */\n      add\n        /* \"#utility.yul\":14893:14917   */\n      swap2\n      pop\n        /* \"#utility.yul\":14962:14964   */\n      0x20\n        /* \"#utility.yul\":14951:14960   */\n      dup6\n        /* \"#utility.yul\":14947:14965   */\n      add\n        /* \"#utility.yul\":14934:14965   */\n      swap5\n      pop\n        /* \"#utility.yul\":14808:14812   */\n      0x20\n        /* \"#utility.yul\":14805:14806   */\n      dup2\n        /* \"#utility.yul\":14801:14813   */\n      add\n        /* \"#utility.yul\":14796:14813   */\n      swap1\n      pop\n        /* \"#utility.yul\":14771:14979   */\n      jump(tag_267)\n    tag_269:\n        /* \"#utility.yul\":15007:15013   */\n      dup7\n        /* \"#utility.yul\":14998:15005   */\n      dup4\n        /* \"#utility.yul\":14995:15014   */\n      lt\n        /* \"#utility.yul\":14992:15171   */\n      iszero\n      tag_270\n      jumpi\n        /* \"#utility.yul\":15065:15074   */\n      dup5\n        /* \"#utility.yul\":15060:15063   */\n      dup10\n        /* \"#utility.yul\":15056:15075   */\n      add\n        /* \"#utility.yul\":15050:15076   */\n      mload\n        /* \"#utility.yul\":15108:15156   */\n      tag_271\n        /* \"#utility.yul\":15150:15154   */\n      0x1f\n        /* \"#utility.yul\":15142:15148   */\n      dup10\n        /* \"#utility.yul\":15138:15155   */\n      and\n        /* \"#utility.yul\":15127:15136   */\n      dup3\n        /* \"#utility.yul\":15108:15156   */\n      tag_106\n      jump\t// in\n    tag_271:\n        /* \"#utility.yul\":15100:15106   */\n      dup4\n        /* \"#utility.yul\":15093:15157   */\n      sstore\n        /* \"#utility.yul\":15015:15171   */\n      pop\n        /* \"#utility.yul\":14992:15171   */\n    tag_270:\n        /* \"#utility.yul\":15217:15218   */\n      0x01\n        /* \"#utility.yul\":15213:15214   */\n      0x02\n        /* \"#utility.yul\":15205:15211   */\n      dup9\n        /* \"#utility.yul\":15201:15215   */\n      mul\n        /* \"#utility.yul\":15197:15219   */\n      add\n        /* \"#utility.yul\":15191:15195   */\n      dup9\n        /* \"#utility.yul\":15184:15220   */\n      sstore\n        /* \"#utility.yul\":14619:15230   */\n      pop\n      pop\n      pop\n        /* \"#utility.yul\":14582:15469   */\n    tag_262:\n      pop\n        /* \"#utility.yul\":14172:15475   */\n      pop\n      pop\n      pop\n        /* \"#utility.yul\":14080:15475   */\n      pop\n      pop\n      jump\t// out\n        /* \"#utility.yul\":15481:15661   */\n    tag_108:\n        /* \"#utility.yul\":15529:15606   */\n      0x4e487b7100000000000000000000000000000000000000000000000000000000\n        /* \"#utility.yul\":15526:15527   */\n      0x00\n        /* \"#utility.yul\":15519:15607   */\n      mstore\n        /* \"#utility.yul\":15626:15630   */\n      0x11\n        /* \"#utility.yul\":15623:15624   */\n      0x04\n        /* \"#utility.yul\":15616:15631   */\n      mstore\n        /* \"#utility.yul\":15650:15654   */\n      0x24\n        /* \"#utility.yul\":15647:15648   */\n      0x00\n        /* \"#utility.yul\":15640:15655   */\n      revert\n        /* \"#utility.yul\":15667:15900   */\n    tag_53:\n        /* \"#utility.yul\":15706:15709   */\n      0x00\n        /* \"#utility.yul\":15729:15753   */\n      tag_274\n        /* \"#utility.yul\":15747:15752   */\n      dup3\n        /* \"#utility.yul\":15729:15753   */\n      tag_59\n      jump\t// in\n    tag_274:\n        /* \"#utility.yul\":15720:15753   */\n      swap2\n      pop\n        /* \"#utility.yul\":15775:15841   */\n      0xffffffffffffffffffffffffffffffffffffffffffffffffffffffffffffffff\n        /* \"#utility.yul\":15768:15773   */\n      dup3\n        /* \"#utility.yul\":15765:15842   */\n      sub\n        /* \"#utility.yul\":15762:15865   */\n      tag_275\n      jumpi\n        /* \"#utility.yul\":15845:15863   */\n      tag_276\n      tag_108\n      jump\t// in\n    tag_276:\n        /* \"#utility.yul\":15762:15865   */\n    tag_275:\n        /* \"#utility.yul\":15892:15893   */\n      0x01\n        /* \"#utility.yul\":15885:15890   */\n      dup3\n        /* \"#utility.yul\":15881:15894   */\n      add\n        /* \"#utility.yul\":15874:15894   */\n      swap1\n      pop\n        /* \"#utility.yul\":15667:15900   */\n      swap2\n      swap1\n      pop\n      jump\t// out\n        /* \"#utility.yul\":15906:16048   */\n    tag_109:\n        /* \"#utility.yul\":15956:15965   */\n      0x00\n        /* \"#utility.yul\":15989:16042   */\n      tag_278\n        /* \"#utility.yul\":16007:16041   */\n      tag_279\n        /* \"#utility.yul\":16016:16040   */\n      tag_280\n        /* \"#utility.yul\":16034:16039   */\n      dup5\n        /* \"#utility.yul\":16016:16040   */\n      tag_63\n      jump\t// in\n    tag_280:\n        /* \"#utility.yul\":16007:16041   */\n      tag_97\n      jump\t// in\n    tag_279:\n        /* \"#utility.yul\":15989:16042   */\n      tag_63\n      jump\t// in\n    tag_278:\n        /* \"#utility.yul\":15976:16042   */\n      swap1\n      pop\n        /* \"#utility.yul\":15906:16048   */\n      swap2\n      swap1\n      pop\n      jump\t// out\n        /* \"#utility.yul\":16054:16180   */\n    tag_110:\n        /* \"#utility.yul\":16104:16113   */\n      0x00\n        /* \"#utility.yul\":16137:16174   */\n      tag_282\n        /* \"#utility.yul\":16168:16173   */\n      dup3\n        /* \"#utility.yul\":16137:16174   */\n      tag_109\n      jump\t// in\n    tag_282:\n        /* \"#utility.yul\":16124:16174   */\n      swap1\n      pop\n        /* \"#utility.yul\":16054:16180   */\n      swap2\n      swap1\n      pop\n      jump\t// out\n        /* \"#utility.yul\":16186:16320   */\n    tag_111:\n        /* \"#utility.yul\":16244:16253   */\n      0x00\n        /* \"#utility.yul\":16277:16314   */\n      tag_284\n        /* \"#utility.yul\":16308:16313   */\n      dup3\n        /* \"#utility.yul\":16277:16314   */\n      tag_110\n      jump\t// in\n    tag_284:\n        /* \"#utility.yul\":16264:16314   */\n      swap1\n      pop\n        /* \"#utility.yul\":16186:16320   */\n      swap2\n      swap1\n      pop\n      jump\t// out\n        /* \"#utility.yul\":16326:16473   */\n    tag_112:\n        /* \"#utility.yul\":16421:16466   */\n      tag_286\n        /* \"#utility.yul\":16460:16465   */\n      dup2\n        /* \"#utility.yul\":16421:16466   */\n      tag_111\n      jump\t// in\n    tag_286:\n        /* \"#utility.yul\":16416:16419   */\n      dup3\n        /* \"#utility.yul\":16409:16467   */\n      mstore\n        /* \"#utility.yul\":16326:16473   */\n      pop\n      pop\n      jump\t// out\n        /* \"#utility.yul\":16479:17361   */\n    tag_55:\n        /* \"#utility.yul\":16740:16744   */\n      0x00\n        /* \"#utility.yul\":16778:16781   */\n      0xc0\n        /* \"#utility.yul\":16767:16776   */\n      dup3\n        /* \"#utility.yul\":16763:16782   */\n      add\n        /* \"#utility.yul\":16755:16782   */\n      swap1\n      pop\n        /* \"#utility.yul\":16792:16863   */\n      tag_288\n        /* \"#utility.yul\":16860:16861   */\n      0x00\n        /* \"#utility.yul\":16849:16858   */\n      dup4\n        /* \"#utility.yul\":16845:16862   */\n      add\n        /* \"#utility.yul\":16836:16842   */\n      dup10\n        /* \"#utility.yul\":16792:16863   */\n      tag_62\n      jump\t// in\n    tag_288:\n        /* \"#utility.yul\":16873:16945   */\n      tag_289\n        /* \"#utility.yul\":16941:16943   */\n      0x20\n        /* \"#utility.yul\":16930:16939   */\n      dup4\n        /* \"#utility.yul\":16926:16944   */\n      add\n        /* \"#utility.yul\":16917:16923   */\n      dup9\n        /* \"#utility.yul\":16873:16945   */\n      tag_65\n      jump\t// in\n    tag_289:\n        /* \"#utility.yul\":16955:17035   */\n      tag_290\n        /* \"#utility.yul\":17031:17033   */\n      0x40\n        /* \"#utility.yul\":17020:17029   */\n      dup4\n        /* \"#utility.yul\":17016:17034   */\n      add\n        /* \"#utility.yul\":17007:17013   */\n      dup8\n        /* \"#utility.yul\":16955:17035   */\n      tag_112\n      jump\t// in\n    tag_290:\n        /* \"#utility.yul\":17082:17091   */\n      dup2\n        /* \"#utility.yul\":17076:17080   */\n      dup2\n        /* \"#utility.yul\":17072:17092   */\n      sub\n        /* \"#utility.yul\":17067:17069   */\n      0x60\n        /* \"#utility.yul\":17056:17065   */\n      dup4\n        /* \"#utility.yul\":17052:17070   */\n      add\n        /* \"#utility.yul\":17045:17093   */\n      mstore\n        /* \"#utility.yul\":17110:17188   */\n      tag_291\n        /* \"#utility.yul\":17183:17187   */\n      dup2\n        /* \"#utility.yul\":17174:17180   */\n      dup7\n        /* \"#utility.yul\":17110:17188   */\n      tag_72\n      jump\t// in\n    tag_291:\n        /* \"#utility.yul\":17102:17188   */\n      swap1\n      pop\n        /* \"#utility.yul\":17198:17271   */\n      tag_292\n        /* \"#utility.yul\":17266:17269   */\n      0x80\n        /* \"#utility.yul\":17255:17264   */\n      dup4\n        /* \"#utility.yul\":17251:17270   */\n      add\n        /* \"#utility.yul\":17242:17248   */\n      dup6\n        /* \"#utility.yul\":17198:17271   */\n      tag_62\n      jump\t// in\n    tag_292:\n        /* \"#utility.yul\":17281:17354   */\n      tag_293\n        /* \"#utility.yul\":17349:17352   */\n      0xa0\n        /* \"#utility.yul\":17338:17347   */\n      dup4\n        /* \"#utility.yul\":17334:17353   */\n      add\n        /* \"#utility.yul\":17325:17331   */\n      dup5\n        /* \"#utility.yul\":17281:17354   */\n      tag_62\n      jump\t// in\n    tag_293:\n        /* \"#utility.yul\":16479:17361   */\n      swap8\n      swap7\n      pop\n      pop\n      pop\n      pop\n      pop\n      pop\n      pop\n      jump\t// out\n\n    auxdata: 0xa264697066735822122043ca035ae5427286df22feb9a11c1bf9f05cbbb13b9fe7a0c47a88f2185f380064736f6c63430008190033\n}\n",
				"bytecode": {
					"linkReferences": {},
					"object": "6080604052348015600e575f80fd5b506110458061001c5f395ff3fe60806040526004361061003e575f3560e01c8063107046bd146100425780632245f152146100845780637e020e06146100ac57806391754a5d146100d4575b5f80fd5b34801561004d575f80fd5b5061006860048036038101906100639190610737565b6100f0565b60405161007b979695949392919061085a565b60405180910390f35b34801561008f575f80fd5b506100aa60048036038101906100a59190610737565b6101fd565b005b3480156100b7575f80fd5b506100d260048036038101906100cd9190610737565b61040e565b005b6100ee60048036038101906100e991906109fa565b610549565b005b5f602052805f5260405f205f91509050805f015490806001015f9054906101000a900473ffffffffffffffffffffffffffffffffffffffff1690806002015f9054906101000a900473ffffffffffffffffffffffffffffffffffffffff169080600301805461015e90610a81565b80601f016020809104026020016040519081016040528092919081815260200182805461018a90610a81565b80156101d55780601f106101ac576101008083540402835291602001916101d5565b820191905f5260205f20905b8154815290600101906020018083116101b857829003601f168201915b505050505090806004015490806005015490806006015f9054906101000a900460ff16905087565b5f805f8381526020019081526020015f2090503373ffffffffffffffffffffffffffffffffffffffff16816001015f9054906101000a900473ffffffffffffffffffffffffffffffffffffffff1673ffffffffffffffffffffffffffffffffffffffff16146102a1576040517f08c379a000000000000000000000000000000000000000000000000000000000815260040161029890610b21565b60405180910390fd5b5f73ffffffffffffffffffffffffffffffffffffffff16816002015f9054906101000a900473ffffffffffffffffffffffffffffffffffffffff1673ffffffffffffffffffffffffffffffffffffffff1603610332576040517f08c379a000000000000000000000000000000000000000000000000000000000815260040161032990610b89565b60405180910390fd5b806006015f9054906101000a900460ff1615610383576040517f08c379a000000000000000000000000000000000000000000000000000000000815260040161037a90610bf1565b60405180910390fd5b6001816006015f6101000a81548160ff021916908315150217905550806002015f9054906101000a900473ffffffffffffffffffffffffffffffffffffffff1673ffffffffffffffffffffffffffffffffffffffff166108fc826004015490811502906040515f60405180830381858888f19350505050158015610409573d5f803e3d5ffd5b505050565b5f805f8381526020019081526020015f209050806006015f9054906101000a900460ff1615610472576040517f08c379a000000000000000000000000000000000000000000000000000000000815260040161046990610bf1565b60405180910390fd5b5f73ffffffffffffffffffffffffffffffffffffffff16816002015f9054906101000a900473ffffffffffffffffffffffffffffffffffffffff1673ffffffffffffffffffffffffffffffffffffffff1614610503576040517f08c379a00000000000000000000000000000000000000000000000000000000081526004016104fa90610c59565b60405180910390fd5b33816002015f6101000a81548173ffffffffffffffffffffffffffffffffffffffff021916908373ffffffffffffffffffffffffffffffffffffffff1602179055505050565b5f600190506040518060e001604052808281526020013373ffffffffffffffffffffffffffffffffffffffff1681526020015f73ffffffffffffffffffffffffffffffffffffffff1681526020018481526020013481526020018381526020015f15158152505f808381526020019081526020015f205f820151815f01556020820151816001015f6101000a81548173ffffffffffffffffffffffffffffffffffffffff021916908373ffffffffffffffffffffffffffffffffffffffff1602179055506040820151816002015f6101000a81548173ffffffffffffffffffffffffffffffffffffffff021916908373ffffffffffffffffffffffffffffffffffffffff16021790555060608201518160030190816106689190610e14565b506080820151816004015560a0820151816005015560c0820151816006015f6101000a81548160ff02191690831515021790555090505080806106aa90610f10565b9150507f49a3f53cddf4d3883291c8aed22f133a1a2e56aefa286170b9bde9796d9ac7f981335f8634876040516106e696959493929190610fa9565b60405180910390a1505050565b5f604051905090565b5f80fd5b5f80fd5b5f819050919050565b61071681610704565b8114610720575f80fd5b50565b5f813590506107318161070d565b92915050565b5f6020828403121561074c5761074b6106fc565b5b5f61075984828501610723565b91505092915050565b61076b81610704565b82525050565b5f73ffffffffffffffffffffffffffffffffffffffff82169050919050565b5f61079a82610771565b9050919050565b6107aa81610790565b82525050565b5f6107ba82610771565b9050919050565b6107ca816107b0565b82525050565b5f81519050919050565b5f82825260208201905092915050565b8281835e5f83830152505050565b5f601f19601f8301169050919050565b5f610812826107d0565b61081c81856107da565b935061082c8185602086016107ea565b610835816107f8565b840191505092915050565b5f8115159050919050565b61085481610840565b82525050565b5f60e08201905061086d5f83018a610762565b61087a60208301896107a1565b61088760408301886107c1565b81810360608301526108998187610808565b90506108a86080830186610762565b6108b560a0830185610762565b6108c260c083018461084b565b98975050505050505050565b5f80fd5b5f80fd5b7f4e487b71000000000000000000000000000000000000000000000000000000005f52604160045260245ffd5b61090c826107f8565b810181811067ffffffffffffffff8211171561092b5761092a6108d6565b5b80604052505050565b5f61093d6106f3565b90506109498282610903565b919050565b5f67ffffffffffffffff821115610968576109676108d6565b5b610971826107f8565b9050602081019050919050565b828183375f83830152505050565b5f61099e6109998461094e565b610934565b9050828152602081018484840111156109ba576109b96108d2565b5b6109c584828561097e565b509392505050565b5f82601f8301126109e1576109e06108ce565b5b81356109f184826020860161098c565b91505092915050565b5f8060408385031215610a1057610a0f6106fc565b5b5f83013567ffffffffffffffff811115610a2d57610a2c610700565b5b610a39858286016109cd565b9250506020610a4a85828601610723565b9150509250929050565b7f4e487b71000000000000000000000000000000000000000000000000000000005f52602260045260245ffd5b5f6002820490506001821680610a9857607f821691505b602082108103610aab57610aaa610a54565b5b50919050565b7f4f6e6c7920636c69656e742063616e206d61726b2070726f6a65637420636f6d5f8201527f706c657465000000000000000000000000000000000000000000000000000000602082015250565b5f610b0b6025836107da565b9150610b1682610ab1565b604082019050919050565b5f6020820190508181035f830152610b3881610aff565b9050919050565b7f4e6f20667265656c616e6365722061737369676e6564000000000000000000005f82015250565b5f610b736016836107da565b9150610b7e82610b3f565b602082019050919050565b5f6020820190508181035f830152610ba081610b67565b9050919050565b7f50726f6a65637420616c726561647920636f6d706c65746564000000000000005f82015250565b5f610bdb6019836107da565b9150610be682610ba7565b602082019050919050565b5f6020820190508181035f830152610c0881610bcf565b9050919050565b7f467265656c616e63657220616c72656164792061737369676e656400000000005f82015250565b5f610c43601b836107da565b9150610c4e82610c0f565b602082019050919050565b5f6020820190508181035f830152610c7081610c37565b9050919050565b5f819050815f5260205f209050919050565b5f6020601f8301049050919050565b5f82821b905092915050565b5f60088302610cd37fffffffffffffffffffffffffffffffffffffffffffffffffffffffffffffffff82610c98565b610cdd8683610c98565b95508019841693508086168417925050509392505050565b5f819050919050565b5f610d18610d13610d0e84610704565b610cf5565b610704565b9050919050565b5f819050919050565b610d3183610cfe565b610d45610d3d82610d1f565b848454610ca4565b825550505050565b5f90565b610d59610d4d565b610d64818484610d28565b505050565b5b81811015610d8757610d7c5f82610d51565b600181019050610d6a565b5050565b601f821115610dcc57610d9d81610c77565b610da684610c89565b81016020851015610db5578190505b610dc9610dc185610c89565b830182610d69565b50505b505050565b5f82821c905092915050565b5f610dec5f1984600802610dd1565b1980831691505092915050565b5f610e048383610ddd565b9150826002028217905092915050565b610e1d826107d0565b67ffffffffffffffff811115610e3657610e356108d6565b5b610e408254610a81565b610e4b828285610d8b565b5f60209050601f831160018114610e7c575f8415610e6a578287015190505b610e748582610df9565b865550610edb565b601f198416610e8a86610c77565b5f5b82811015610eb157848901518255600182019150602085019450602081019050610e8c565b86831015610ece5784890151610eca601f891682610ddd565b8355505b6001600288020188555050505b505050505050565b7f4e487b71000000000000000000000000000000000000000000000000000000005f52601160045260245ffd5b5f610f1a82610704565b91507fffffffffffffffffffffffffffffffffffffffffffffffffffffffffffffffff8203610f4c57610f4b610ee3565b5b600182019050919050565b5f610f71610f6c610f6784610771565b610cf5565b610771565b9050919050565b5f610f8282610f57565b9050919050565b5f610f9382610f78565b9050919050565b610fa381610f89565b82525050565b5f60c082019050610fbc5f830189610762565b610fc960208301886107a1565b610fd66040830187610f9a565b8181036060830152610fe88186610808565b9050610ff76080830185610762565b61100460a0830184610762565b97965050505050505056fea264697066735822122043ca035ae5427286df22feb9a11c1bf9f05cbbb13b9fe7a0c47a88f2185f380064736f6c63430008190033",
					"opcodes": "PUSH1 0x80 PUSH1 0x40 MSTORE CALLVALUE DUP1 ISZERO PUSH1 0xE JUMPI PUSH0 DUP1 REVERT JUMPDEST POP PUSH2 0x1045 DUP1 PUSH2 0x1C PUSH0 CODECOPY PUSH0 RETURN INVALID PUSH1 0x80 PUSH1 0x40 MSTORE PUSH1 0x4 CALLDATASIZE LT PUSH2 0x3E JUMPI PUSH0 CALLDATALOAD PUSH1 0xE0 SHR DUP1 PUSH4 0x107046BD EQ PUSH2 0x42 JUMPI DUP1 PUSH4 0x2245F152 EQ PUSH2 0x84 JUMPI DUP1 PUSH4 0x7E020E06 EQ PUSH2 0xAC JUMPI DUP1 PUSH4 0x91754A5D EQ PUSH2 0xD4 JUMPI JUMPDEST PUSH0 DUP1 REVERT JUMPDEST CALLVALUE DUP1 ISZERO PUSH2 0x4D JUMPI PUSH0 DUP1 REVERT JUMPDEST POP PUSH2 0x68 PUSH1 0x4 DUP1 CALLDATASIZE SUB DUP2 ADD SWAP1 PUSH2 0x63 SWAP2 SWAP1 PUSH2 0x737 JUMP JUMPDEST PUSH2 0xF0 JUMP JUMPDEST PUSH1 0x40 MLOAD PUSH2 0x7B SWAP8 SWAP7 SWAP6 SWAP5 SWAP4 SWAP3 SWAP2 SWAP1 PUSH2 0x85A JUMP JUMPDEST PUSH1 0x40 MLOAD DUP1 SWAP2 SUB SWAP1 RETURN JUMPDEST CALLVALUE DUP1 ISZERO PUSH2 0x8F JUMPI PUSH0 DUP1 REVERT JUMPDEST POP PUSH2 0xAA PUSH1 0x4 DUP1 CALLDATASIZE SUB DUP2 ADD SWAP1 PUSH2 0xA5 SWAP2 SWAP1 PUSH2 0x737 JUMP JUMPDEST PUSH2 0x1FD JUMP JUMPDEST STOP JUMPDEST CALLVALUE DUP1 ISZERO PUSH2 0xB7 JUMPI PUSH0 DUP1 REVERT JUMPDEST POP PUSH2 0xD2 PUSH1 0x4 DUP1 CALLDATASIZE SUB DUP2 ADD SWAP1 PUSH2 0xCD SWAP2 SWAP1 PUSH2 0x737 JUMP JUMPDEST PUSH2 0x40E JUMP JUMPDEST STOP JUMPDEST PUSH2 0xEE PUSH1 0x4 DUP1 CALLDATASIZE SUB DUP2 ADD SWAP1 PUSH2 0xE9 SWAP2 SWAP1 PUSH2 0x9FA JUMP JUMPDEST PUSH2 0x549 JUMP JUMPDEST STOP JUMPDEST PUSH0 PUSH1 0x20 MSTORE DUP1 PUSH0 MSTORE PUSH1 0x40 PUSH0 KECCAK256 PUSH0 SWAP2 POP SWAP1 POP DUP1 PUSH0 ADD SLOAD SWAP1 DUP1 PUSH1 0x1 ADD PUSH0 SWAP1 SLOAD SWAP1 PUSH2 0x100 EXP SWAP1 DIV PUSH20 0xFFFFFFFFFFFFFFFFFFFFFFFFFFFFFFFFFFFFFFFF AND SWAP1 DUP1 PUSH1 0x2 ADD PUSH0 SWAP1 SLOAD SWAP1 PUSH2 0x100 EXP SWAP1 DIV PUSH20 0xFFFFFFFFFFFFFFFFFFFFFFFFFFFFFFFFFFFFFFFF AND SWAP1 DUP1 PUSH1 0x3 ADD DUP1 SLOAD PUSH2 0x15E SWAP1 PUSH2 0xA81 JUMP JUMPDEST DUP1 PUSH1 0x1F ADD PUSH1 0x20 DUP1 SWAP2 DIV MUL PUSH1 0x20 ADD PUSH1 0x40 MLOAD SWAP1 DUP2 ADD PUSH1 0x40 MSTORE DUP1 SWAP3 SWAP2 SWAP1 DUP2 DUP2 MSTORE PUSH1 0x20 ADD DUP3 DUP1 SLOAD PUSH2 0x18A SWAP1 PUSH2 0xA81 JUMP JUMPDEST DUP1 ISZERO PUSH2 0x1D5 JUMPI DUP1 PUSH1 0x1F LT PUSH2 0x1AC JUMPI PUSH2 0x100 DUP1 DUP4 SLOAD DIV MUL DUP4 MSTORE SWAP2 PUSH1 0x20 ADD SWAP2 PUSH2 0x1D5 JUMP JUMPDEST DUP3 ADD SWAP2 SWAP1 PUSH0 MSTORE PUSH1 0x20 PUSH0 KECCAK256 SWAP1 JUMPDEST DUP2 SLOAD DUP2 MSTORE SWAP1 PUSH1 0x1 ADD SWAP1 PUSH1 0x20 ADD DUP1 DUP4 GT PUSH2 0x1B8 JUMPI DUP3 SWAP1 SUB PUSH1 0x1F AND DUP3 ADD SWAP2 JUMPDEST POP POP POP POP POP SWAP1 DUP1 PUSH1 0x4 ADD SLOAD SWAP1 DUP1 PUSH1 0x5 ADD SLOAD SWAP1 DUP1 PUSH1 0x6 ADD PUSH0 SWAP1 SLOAD SWAP1 PUSH2 0x100 EXP SWAP1 DIV PUSH1 0xFF AND SWAP1 POP DUP8 JUMP JUMPDEST PUSH0 DUP1 PUSH0 DUP4 DUP2 MSTORE PUSH1 0x20 ADD SWAP1 DUP2 MSTORE PUSH1 0x20 ADD PUSH0 KECCAK256 SWAP1 POP CALLER PUSH20 0xFFFFFFFFFFFFFFFFFFFFFFFFFFFFFFFFFFFFFFFF AND DUP2 PUSH1 0x1 ADD PUSH0 SWAP1 SLOAD SWAP1 PUSH2 0x100 EXP SWAP1 DIV PUSH20 0xFFFFFFFFFFFFFFFFFFFFFFFFFFFFFFFFFFFFFFFF AND PUSH20 0xFFFFFFFFFFFFFFFFFFFFFFFFFFFFFFFFFFFFFFFF AND EQ PUSH2 0x2A1 JUMPI PUSH1 0x40 MLOAD PUSH32 0x8C379A000000000000000000000000000000000000000000000000000000000 DUP2 MSTORE PUSH1 0x4 ADD PUSH2 0x298 SWAP1 PUSH2 0xB21 JUMP JUMPDEST PUSH1 0x40 MLOAD DUP1 SWAP2 SUB SWAP1 REVERT JUMPDEST PUSH0 PUSH20 0xFFFFFFFFFFFFFFFFFFFFFFFFFFFFFFFFFFFFFFFF AND DUP2 PUSH1 0x2 ADD PUSH0 SWAP1 SLOAD SWAP1 PUSH2 0x100 EXP SWAP1 DIV PUSH20 0xFFFFFFFFFFFFFFFFFFFFFFFFFFFFFFFFFFFFFFFF AND PUSH20 0xFFFFFFFFFFFFFFFFFFFFFFFFFFFFFFFFFFFFFFFF AND SUB PUSH2 0x332 JUMPI PUSH1 0x40 MLOAD PUSH32 0x8C379A000000000000000000000000000000000000000000000000000000000 DUP2 MSTORE PUSH1 0x4 ADD PUSH2 0x329 SWAP1 PUSH2 0xB89 JUMP JUMPDEST PUSH1 0x40 MLOAD DUP1 SWAP2 SUB SWAP1 REVERT JUMPDEST DUP1 PUSH1 0x6 ADD PUSH0 SWAP1 SLOAD SWAP1 PUSH2 0x100 EXP SWAP1 DIV PUSH1 0xFF AND ISZERO PUSH2 0x383 JUMPI PUSH1 0x40 MLOAD PUSH32 0x8C379A000000000000000000000000000000000000000000000000000000000 DUP2 MSTORE PUSH1 0x4 ADD PUSH2 0x37A SWAP1 PUSH2 0xBF1 JUMP JUMPDEST PUSH1 0x40 MLOAD DUP1 SWAP2 SUB SWAP1 REVERT JUMPDEST PUSH1 0x1 DUP2 PUSH1 0x6 ADD PUSH0 PUSH2 0x100 EXP DUP2 SLOAD DUP2 PUSH1 0xFF MUL NOT AND SWAP1 DUP4 ISZERO ISZERO MUL OR SWAP1 SSTORE POP DUP1 PUSH1 0x2 ADD PUSH0 SWAP1 SLOAD SWAP1 PUSH2 0x100 EXP SWAP1 DIV PUSH20 0xFFFFFFFFFFFFFFFFFFFFFFFFFFFFFFFFFFFFFFFF AND PUSH20 0xFFFFFFFFFFFFFFFFFFFFFFFFFFFFFFFFFFFFFFFF AND PUSH2 0x8FC DUP3 PUSH1 0x4 ADD SLOAD SWAP1 DUP2 ISZERO MUL SWAP1 PUSH1 0x40 MLOAD PUSH0 PUSH1 0x40 MLOAD DUP1 DUP4 SUB DUP2 DUP6 DUP9 DUP9 CALL SWAP4 POP POP POP POP ISZERO DUP1 ISZERO PUSH2 0x409 JUMPI RETURNDATASIZE PUSH0 DUP1 RETURNDATACOPY RETURNDATASIZE PUSH0 REVERT JUMPDEST POP POP POP JUMP JUMPDEST PUSH0 DUP1 PUSH0 DUP4 DUP2 MSTORE PUSH1 0x20 ADD SWAP1 DUP2 MSTORE PUSH1 0x20 ADD PUSH0 KECCAK256 SWAP1 POP DUP1 PUSH1 0x6 ADD PUSH0 SWAP1 SLOAD SWAP1 PUSH2 0x100 EXP SWAP1 DIV PUSH1 0xFF AND ISZERO PUSH2 0x472 JUMPI PUSH1 0x40 MLOAD PUSH32 0x8C379A000000000000000000000000000000000000000000000000000000000 DUP2 MSTORE PUSH1 0x4 ADD PUSH2 0x469 SWAP1 PUSH2 0xBF1 JUMP JUMPDEST PUSH1 0x40 MLOAD DUP1 SWAP2 SUB SWAP1 REVERT JUMPDEST PUSH0 PUSH20 0xFFFFFFFFFFFFFFFFFFFFFFFFFFFFFFFFFFFFFFFF AND DUP2 PUSH1 0x2 ADD PUSH0 SWAP1 SLOAD SWAP1 PUSH2 0x100 EXP SWAP1 DIV PUSH20 0xFFFFFFFFFFFFFFFFFFFFFFFFFFFFFFFFFFFFFFFF AND PUSH20 0xFFFFFFFFFFFFFFFFFFFFFFFFFFFFFFFFFFFFFFFF AND EQ PUSH2 0x503 JUMPI PUSH1 0x40 MLOAD PUSH32 0x8C379A000000000000000000000000000000000000000000000000000000000 DUP2 MSTORE PUSH1 0x4 ADD PUSH2 0x4FA SWAP1 PUSH2 0xC59 JUMP JUMPDEST PUSH1 0x40 MLOAD DUP1 SWAP2 SUB SWAP1 REVERT JUMPDEST CALLER DUP2 PUSH1 0x2 ADD PUSH0 PUSH2 0x100 EXP DUP2 SLOAD DUP2 PUSH20 0xFFFFFFFFFFFFFFFFFFFFFFFFFFFFFFFFFFFFFFFF MUL NOT AND SWAP1 DUP4 PUSH20 0xFFFFFFFFFFFFFFFFFFFFFFFFFFFFFFFFFFFFFFFF AND MUL OR SWAP1 SSTORE POP POP POP JUMP JUMPDEST PUSH0 PUSH1 0x1 SWAP1 POP PUSH1 0x40 MLOAD DUP1 PUSH1 0xE0 ADD PUSH1 0x40 MSTORE DUP1 DUP3 DUP2 MSTORE PUSH1 0x20 ADD CALLER PUSH20 0xFFFFFFFFFFFFFFFFFFFFFFFFFFFFFFFFFFFFFFFF AND DUP2 MSTORE PUSH1 0x20 ADD PUSH0 PUSH20 0xFFFFFFFFFFFFFFFFFFFFFFFFFFFFFFFFFFFFFFFF AND DUP2 MSTORE PUSH1 0x20 ADD DUP5 DUP2 MSTORE PUSH1 0x20 ADD CALLVALUE DUP2 MSTORE PUSH1 0x20 ADD DUP4 DUP2 MSTORE PUSH1 0x20 ADD PUSH0 ISZERO ISZERO DUP2 MSTORE POP PUSH0 DUP1 DUP4 DUP2 MSTORE PUSH1 0x20 ADD SWAP1 DUP2 MSTORE PUSH1 0x20 ADD PUSH0 KECCAK256 PUSH0 DUP3 ADD MLOAD DUP2 PUSH0 ADD SSTORE PUSH1 0x20 DUP3 ADD MLOAD DUP2 PUSH1 0x1 ADD PUSH0 PUSH2 0x100 EXP DUP2 SLOAD DUP2 PUSH20 0xFFFFFFFFFFFFFFFFFFFFFFFFFFFFFFFFFFFFFFFF MUL NOT AND SWAP1 DUP4 PUSH20 0xFFFFFFFFFFFFFFFFFFFFFFFFFFFFFFFFFFFFFFFF AND MUL OR SWAP1 SSTORE POP PUSH1 0x40 DUP3 ADD MLOAD DUP2 PUSH1 0x2 ADD PUSH0 PUSH2 0x100 EXP DUP2 SLOAD DUP2 PUSH20 0xFFFFFFFFFFFFFFFFFFFFFFFFFFFFFFFFFFFFFFFF MUL NOT AND SWAP1 DUP4 PUSH20 0xFFFFFFFFFFFFFFFFFFFFFFFFFFFFFFFFFFFFFFFF AND MUL OR SWAP1 SSTORE POP PUSH1 0x60 DUP3 ADD MLOAD DUP2 PUSH1 0x3 ADD SWAP1 DUP2 PUSH2 0x668 SWAP2 SWAP1 PUSH2 0xE14 JUMP JUMPDEST POP PUSH1 0x80 DUP3 ADD MLOAD DUP2 PUSH1 0x4 ADD SSTORE PUSH1 0xA0 DUP3 ADD MLOAD DUP2 PUSH1 0x5 ADD SSTORE PUSH1 0xC0 DUP3 ADD MLOAD DUP2 PUSH1 0x6 ADD PUSH0 PUSH2 0x100 EXP DUP2 SLOAD DUP2 PUSH1 0xFF MUL NOT AND SWAP1 DUP4 ISZERO ISZERO MUL OR SWAP1 SSTORE POP SWAP1 POP POP DUP1 DUP1 PUSH2 0x6AA SWAP1 PUSH2 0xF10 JUMP JUMPDEST SWAP2 POP POP PUSH32 0x49A3F53CDDF4D3883291C8AED22F133A1A2E56AEFA286170B9BDE9796D9AC7F9 DUP2 CALLER PUSH0 DUP7 CALLVALUE DUP8 PUSH1 0x40 MLOAD PUSH2 0x6E6 SWAP7 SWAP6 SWAP5 SWAP4 SWAP3 SWAP2 SWAP1 PUSH2 0xFA9 JUMP JUMPDEST PUSH1 0x40 MLOAD DUP1 SWAP2 SUB SWAP1 LOG1 POP POP POP JUMP JUMPDEST PUSH0 PUSH1 0x40 MLOAD SWAP1 POP SWAP1 JUMP JUMPDEST PUSH0 DUP1 REVERT JUMPDEST PUSH0 DUP1 REVERT JUMPDEST PUSH0 DUP2 SWAP1 POP SWAP2 SWAP1 POP JUMP JUMPDEST PUSH2 0x716 DUP2 PUSH2 0x704 JUMP JUMPDEST DUP2 EQ PUSH2 0x720 JUMPI PUSH0 DUP1 REVERT JUMPDEST POP JUMP JUMPDEST PUSH0 DUP2 CALLDATALOAD SWAP1 POP PUSH2 0x731 DUP2 PUSH2 0x70D JUMP JUMPDEST SWAP3 SWAP2 POP POP JUMP JUMPDEST PUSH0 PUSH1 0x20 DUP3 DUP5 SUB SLT ISZERO PUSH2 0x74C JUMPI PUSH2 0x74B PUSH2 0x6FC JUMP JUMPDEST JUMPDEST PUSH0 PUSH2 0x759 DUP5 DUP3 DUP6 ADD PUSH2 0x723 JUMP JUMPDEST SWAP2 POP POP SWAP3 SWAP2 POP POP JUMP JUMPDEST PUSH2 0x76B DUP2 PUSH2 0x704 JUMP JUMPDEST DUP3 MSTORE POP POP JUMP JUMPDEST PUSH0 PUSH20 0xFFFFFFFFFFFFFFFFFFFFFFFFFFFFFFFFFFFFFFFF DUP3 AND SWAP1 POP SWAP2 SWAP1 POP JUMP JUMPDEST PUSH0 PUSH2 0x79A DUP3 PUSH2 0x771 JUMP JUMPDEST SWAP1 POP SWAP2 SWAP1 POP JUMP JUMPDEST PUSH2 0x7AA DUP2 PUSH2 0x790 JUMP JUMPDEST DUP3 MSTORE POP POP JUMP JUMPDEST PUSH0 PUSH2 0x7BA DUP3 PUSH2 0x771 JUMP JUMPDEST SWAP1 POP SWAP2 SWAP1 POP JUMP JUMPDEST PUSH2 0x7CA DUP2 PUSH2 0x7B0 JUMP JUMPDEST DUP3 MSTORE POP POP JUMP JUMPDEST PUSH0 DUP2 MLOAD SWAP1 POP SWAP2 SWAP1 POP JUMP JUMPDEST PUSH0 DUP3 DUP3 MSTORE PUSH1 0x20 DUP3 ADD SWAP1 POP SWAP3 SWAP2 POP POP JUMP JUMPDEST DUP3 DUP2 DUP4 MCOPY PUSH0 DUP4 DUP4 ADD MSTORE POP POP POP JUMP JUMPDEST PUSH0 PUSH1 0x1F NOT PUSH1 0x1F DUP4 ADD AND SWAP1 POP SWAP2 SWAP1 POP JUMP JUMPDEST PUSH0 PUSH2 0x812 DUP3 PUSH2 0x7D0 JUMP JUMPDEST PUSH2 0x81C DUP2 DUP6 PUSH2 0x7DA JUMP JUMPDEST SWAP4 POP PUSH2 0x82C DUP2 DUP6 PUSH1 0x20 DUP7 ADD PUSH2 0x7EA JUMP JUMPDEST PUSH2 0x835 DUP2 PUSH2 0x7F8 JUMP JUMPDEST DUP5 ADD SWAP2 POP POP SWAP3 SWAP2 POP POP JUMP JUMPDEST PUSH0 DUP2 ISZERO ISZERO SWAP1 POP SWAP2 SWAP1 POP JUMP JUMPDEST PUSH2 0x854 DUP2 PUSH2 0x840 JUMP JUMPDEST DUP3 MSTORE POP POP JUMP JUMPDEST PUSH0 PUSH1 0xE0 DUP3 ADD SWAP1 POP PUSH2 0x86D PUSH0 DUP4 ADD DUP11 PUSH2 0x762 JUMP JUMPDEST PUSH2 0x87A PUSH1 0x20 DUP4 ADD DUP10 PUSH2 0x7A1 JUMP JUMPDEST PUSH2 0x887 PUSH1 0x40 DUP4 ADD DUP9 PUSH2 0x7C1 JUMP JUMPDEST DUP2 DUP2 SUB PUSH1 0x60 DUP4 ADD MSTORE PUSH2 0x899 DUP2 DUP8 PUSH2 0x808 JUMP JUMPDEST SWAP1 POP PUSH2 0x8A8 PUSH1 0x80 DUP4 ADD DUP7 PUSH2 0x762 JUMP JUMPDEST PUSH2 0x8B5 PUSH1 0xA0 DUP4 ADD DUP6 PUSH2 0x762 JUMP JUMPDEST PUSH2 0x8C2 PUSH1 0xC0 DUP4 ADD DUP5 PUSH2 0x84B JUMP JUMPDEST SWAP9 SWAP8 POP POP POP POP POP POP POP POP JUMP JUMPDEST PUSH0 DUP1 REVERT JUMPDEST PUSH0 DUP1 REVERT JUMPDEST PUSH32 0x4E487B7100000000000000000000000000000000000000000000000000000000 PUSH0 MSTORE PUSH1 0x41 PUSH1 0x4 MSTORE PUSH1 0x24 PUSH0 REVERT JUMPDEST PUSH2 0x90C DUP3 PUSH2 0x7F8 JUMP JUMPDEST DUP2 ADD DUP2 DUP2 LT PUSH8 0xFFFFFFFFFFFFFFFF DUP3 GT OR ISZERO PUSH2 0x92B JUMPI PUSH2 0x92A PUSH2 0x8D6 JUMP JUMPDEST JUMPDEST DUP1 PUSH1 0x40 MSTORE POP POP POP JUMP JUMPDEST PUSH0 PUSH2 0x93D PUSH2 0x6F3 JUMP JUMPDEST SWAP1 POP PUSH2 0x949 DUP3 DUP3 PUSH2 0x903 JUMP JUMPDEST SWAP2 SWAP1 POP JUMP JUMPDEST PUSH0 PUSH8 0xFFFFFFFFFFFFFFFF DUP3 GT ISZERO PUSH2 0x968 JUMPI PUSH2 0x967 PUSH2 0x8D6 JUMP JUMPDEST JUMPDEST PUSH2 0x971 DUP3 PUSH2 0x7F8 JUMP JUMPDEST SWAP1 POP PUSH1 0x20 DUP2 ADD SWAP1 POP SWAP2 SWAP1 POP JUMP JUMPDEST DUP3 DUP2 DUP4 CALLDATACOPY PUSH0 DUP4 DUP4 ADD MSTORE POP POP POP JUMP JUMPDEST PUSH0 PUSH2 0x99E PUSH2 0x999 DUP5 PUSH2 0x94E JUMP JUMPDEST PUSH2 0x934 JUMP JUMPDEST SWAP1 POP DUP3 DUP2 MSTORE PUSH1 0x20 DUP2 ADD DUP5 DUP5 DUP5 ADD GT ISZERO PUSH2 0x9BA JUMPI PUSH2 0x9B9 PUSH2 0x8D2 JUMP JUMPDEST JUMPDEST PUSH2 0x9C5 DUP5 DUP3 DUP6 PUSH2 0x97E JUMP JUMPDEST POP SWAP4 SWAP3 POP POP POP JUMP JUMPDEST PUSH0 DUP3 PUSH1 0x1F DUP4 ADD SLT PUSH2 0x9E1 JUMPI PUSH2 0x9E0 PUSH2 0x8CE JUMP JUMPDEST JUMPDEST DUP2 CALLDATALOAD PUSH2 0x9F1 DUP5 DUP3 PUSH1 0x20 DUP7 ADD PUSH2 0x98C JUMP JUMPDEST SWAP2 POP POP SWAP3 SWAP2 POP POP JUMP JUMPDEST PUSH0 DUP1 PUSH1 0x40 DUP4 DUP6 SUB SLT ISZERO PUSH2 0xA10 JUMPI PUSH2 0xA0F PUSH2 0x6FC JUMP JUMPDEST JUMPDEST PUSH0 DUP4 ADD CALLDATALOAD PUSH8 0xFFFFFFFFFFFFFFFF DUP2 GT ISZERO PUSH2 0xA2D JUMPI PUSH2 0xA2C PUSH2 0x700 JUMP JUMPDEST JUMPDEST PUSH2 0xA39 DUP6 DUP3 DUP7 ADD PUSH2 0x9CD JUMP JUMPDEST SWAP3 POP POP PUSH1 0x20 PUSH2 0xA4A DUP6 DUP3 DUP7 ADD PUSH2 0x723 JUMP JUMPDEST SWAP2 POP POP SWAP3 POP SWAP3 SWAP1 POP JUMP JUMPDEST PUSH32 0x4E487B7100000000000000000000000000000000000000000000000000000000 PUSH0 MSTORE PUSH1 0x22 PUSH1 0x4 MSTORE PUSH1 0x24 PUSH0 REVERT JUMPDEST PUSH0 PUSH1 0x2 DUP3 DIV SWAP1 POP PUSH1 0x1 DUP3 AND DUP1 PUSH2 0xA98 JUMPI PUSH1 0x7F DUP3 AND SWAP2 POP JUMPDEST PUSH1 0x20 DUP3 LT DUP2 SUB PUSH2 0xAAB JUMPI PUSH2 0xAAA PUSH2 0xA54 JUMP JUMPDEST JUMPDEST POP SWAP2 SWAP1 POP JUMP JUMPDEST PUSH32 0x4F6E6C7920636C69656E742063616E206D61726B2070726F6A65637420636F6D PUSH0 DUP3 ADD MSTORE PUSH32 0x706C657465000000000000000000000000000000000000000000000000000000 PUSH1 0x20 DUP3 ADD MSTORE POP JUMP JUMPDEST PUSH0 PUSH2 0xB0B PUSH1 0x25 DUP4 PUSH2 0x7DA JUMP JUMPDEST SWAP2 POP PUSH2 0xB16 DUP3 PUSH2 0xAB1 JUMP JUMPDEST PUSH1 0x40 DUP3 ADD SWAP1 POP SWAP2 SWAP1 POP JUMP JUMPDEST PUSH0 PUSH1 0x20 DUP3 ADD SWAP1 POP DUP2 DUP2 SUB PUSH0 DUP4 ADD MSTORE PUSH2 0xB38 DUP2 PUSH2 0xAFF JUMP JUMPDEST SWAP1 POP SWAP2 SWAP1 POP JUMP JUMPDEST PUSH32 0x4E6F20667265656C616E6365722061737369676E656400000000000000000000 PUSH0 DUP3 ADD MSTORE POP JUMP JUMPDEST PUSH0 PUSH2 0xB73 PUSH1 0x16 DUP4 PUSH2 0x7DA JUMP JUMPDEST SWAP2 POP PUSH2 0xB7E DUP3 PUSH2 0xB3F JUMP JUMPDEST PUSH1 0x20 DUP3 ADD SWAP1 POP SWAP2 SWAP1 POP JUMP JUMPDEST PUSH0 PUSH1 0x20 DUP3 ADD SWAP1 POP DUP2 DUP2 SUB PUSH0 DUP4 ADD MSTORE PUSH2 0xBA0 DUP2 PUSH2 0xB67 JUMP JUMPDEST SWAP1 POP SWAP2 SWAP1 POP JUMP JUMPDEST PUSH32 0x50726F6A65637420616C726561647920636F6D706C6574656400000000000000 PUSH0 DUP3 ADD MSTORE POP JUMP JUMPDEST PUSH0 PUSH2 0xBDB PUSH1 0x19 DUP4 PUSH2 0x7DA JUMP JUMPDEST SWAP2 POP PUSH2 0xBE6 DUP3 PUSH2 0xBA7 JUMP JUMPDEST PUSH1 0x20 DUP3 ADD SWAP1 POP SWAP2 SWAP1 POP JUMP JUMPDEST PUSH0 PUSH1 0x20 DUP3 ADD SWAP1 POP DUP2 DUP2 SUB PUSH0 DUP4 ADD MSTORE PUSH2 0xC08 DUP2 PUSH2 0xBCF JUMP JUMPDEST SWAP1 POP SWAP2 SWAP1 POP JUMP JUMPDEST PUSH32 0x467265656C616E63657220616C72656164792061737369676E65640000000000 PUSH0 DUP3 ADD MSTORE POP JUMP JUMPDEST PUSH0 PUSH2 0xC43 PUSH1 0x1B DUP4 PUSH2 0x7DA JUMP JUMPDEST SWAP2 POP PUSH2 0xC4E DUP3 PUSH2 0xC0F JUMP JUMPDEST PUSH1 0x20 DUP3 ADD SWAP1 POP SWAP2 SWAP1 POP JUMP JUMPDEST PUSH0 PUSH1 0x20 DUP3 ADD SWAP1 POP DUP2 DUP2 SUB PUSH0 DUP4 ADD MSTORE PUSH2 0xC70 DUP2 PUSH2 0xC37 JUMP JUMPDEST SWAP1 POP SWAP2 SWAP1 POP JUMP JUMPDEST PUSH0 DUP2 SWAP1 POP DUP2 PUSH0 MSTORE PUSH1 0x20 PUSH0 KECCAK256 SWAP1 POP SWAP2 SWAP1 POP JUMP JUMPDEST PUSH0 PUSH1 0x20 PUSH1 0x1F DUP4 ADD DIV SWAP1 POP SWAP2 SWAP1 POP JUMP JUMPDEST PUSH0 DUP3 DUP3 SHL SWAP1 POP SWAP3 SWAP2 POP POP JUMP JUMPDEST PUSH0 PUSH1 0x8 DUP4 MUL PUSH2 0xCD3 PUSH32 0xFFFFFFFFFFFFFFFFFFFFFFFFFFFFFFFFFFFFFFFFFFFFFFFFFFFFFFFFFFFFFFFF DUP3 PUSH2 0xC98 JUMP JUMPDEST PUSH2 0xCDD DUP7 DUP4 PUSH2 0xC98 JUMP JUMPDEST SWAP6 POP DUP1 NOT DUP5 AND SWAP4 POP DUP1 DUP7 AND DUP5 OR SWAP3 POP POP POP SWAP4 SWAP3 POP POP POP JUMP JUMPDEST PUSH0 DUP2 SWAP1 POP SWAP2 SWAP1 POP JUMP JUMPDEST PUSH0 PUSH2 0xD18 PUSH2 0xD13 PUSH2 0xD0E DUP5 PUSH2 0x704 JUMP JUMPDEST PUSH2 0xCF5 JUMP JUMPDEST PUSH2 0x704 JUMP JUMPDEST SWAP1 POP SWAP2 SWAP1 POP JUMP JUMPDEST PUSH0 DUP2 SWAP1 POP SWAP2 SWAP1 POP JUMP JUMPDEST PUSH2 0xD31 DUP4 PUSH2 0xCFE JUMP JUMPDEST PUSH2 0xD45 PUSH2 0xD3D DUP3 PUSH2 0xD1F JUMP JUMPDEST DUP5 DUP5 SLOAD PUSH2 0xCA4 JUMP JUMPDEST DUP3 SSTORE POP POP POP POP JUMP JUMPDEST PUSH0 SWAP1 JUMP JUMPDEST PUSH2 0xD59 PUSH2 0xD4D JUMP JUMPDEST PUSH2 0xD64 DUP2 DUP5 DUP5 PUSH2 0xD28 JUMP JUMPDEST POP POP POP JUMP JUMPDEST JUMPDEST DUP2 DUP2 LT ISZERO PUSH2 0xD87 JUMPI PUSH2 0xD7C PUSH0 DUP3 PUSH2 0xD51 JUMP JUMPDEST PUSH1 0x1 DUP2 ADD SWAP1 POP PUSH2 0xD6A JUMP JUMPDEST POP POP JUMP JUMPDEST PUSH1 0x1F DUP3 GT ISZERO PUSH2 0xDCC JUMPI PUSH2 0xD9D DUP2 PUSH2 0xC77 JUMP JUMPDEST PUSH2 0xDA6 DUP5 PUSH2 0xC89 JUMP JUMPDEST DUP2 ADD PUSH1 0x20 DUP6 LT ISZERO PUSH2 0xDB5 JUMPI DUP2 SWAP1 POP JUMPDEST PUSH2 0xDC9 PUSH2 0xDC1 DUP6 PUSH2 0xC89 JUMP JUMPDEST DUP4 ADD DUP3 PUSH2 0xD69 JUMP JUMPDEST POP POP JUMPDEST POP POP POP JUMP JUMPDEST PUSH0 DUP3 DUP3 SHR SWAP1 POP SWAP3 SWAP2 POP POP JUMP JUMPDEST PUSH0 PUSH2 0xDEC PUSH0 NOT DUP5 PUSH1 0x8 MUL PUSH2 0xDD1 JUMP JUMPDEST NOT DUP1 DUP4 AND SWAP2 POP POP SWAP3 SWAP2 POP POP JUMP JUMPDEST PUSH0 PUSH2 0xE04 DUP4 DUP4 PUSH2 0xDDD JUMP JUMPDEST SWAP2 POP DUP3 PUSH1 0x2 MUL DUP3 OR SWAP1 POP SWAP3 SWAP2 POP POP JUMP JUMPDEST PUSH2 0xE1D DUP3 PUSH2 0x7D0 JUMP JUMPDEST PUSH8 0xFFFFFFFFFFFFFFFF DUP2 GT ISZERO PUSH2 0xE36 JUMPI PUSH2 0xE35 PUSH2 0x8D6 JUMP JUMPDEST JUMPDEST PUSH2 0xE40 DUP3 SLOAD PUSH2 0xA81 JUMP JUMPDEST PUSH2 0xE4B DUP3 DUP3 DUP6 PUSH2 0xD8B JUMP JUMPDEST PUSH0 PUSH1 0x20 SWAP1 POP PUSH1 0x1F DUP4 GT PUSH1 0x1 DUP2 EQ PUSH2 0xE7C JUMPI PUSH0 DUP5 ISZERO PUSH2 0xE6A JUMPI DUP3 DUP8 ADD MLOAD SWAP1 POP JUMPDEST PUSH2 0xE74 DUP6 DUP3 PUSH2 0xDF9 JUMP JUMPDEST DUP7 SSTORE POP PUSH2 0xEDB JUMP JUMPDEST PUSH1 0x1F NOT DUP5 AND PUSH2 0xE8A DUP7 PUSH2 0xC77 JUMP JUMPDEST PUSH0 JUMPDEST DUP3 DUP2 LT ISZERO PUSH2 0xEB1 JUMPI DUP5 DUP10 ADD MLOAD DUP3 SSTORE PUSH1 0x1 DUP3 ADD SWAP2 POP PUSH1 0x20 DUP6 ADD SWAP5 POP PUSH1 0x20 DUP2 ADD SWAP1 POP PUSH2 0xE8C JUMP JUMPDEST DUP7 DUP4 LT ISZERO PUSH2 0xECE JUMPI DUP5 DUP10 ADD MLOAD PUSH2 0xECA PUSH1 0x1F DUP10 AND DUP3 PUSH2 0xDDD JUMP JUMPDEST DUP4 SSTORE POP JUMPDEST PUSH1 0x1 PUSH1 0x2 DUP9 MUL ADD DUP9 SSTORE POP POP POP JUMPDEST POP POP POP POP POP POP JUMP JUMPDEST PUSH32 0x4E487B7100000000000000000000000000000000000000000000000000000000 PUSH0 MSTORE PUSH1 0x11 PUSH1 0x4 MSTORE PUSH1 0x24 PUSH0 REVERT JUMPDEST PUSH0 PUSH2 0xF1A DUP3 PUSH2 0x704 JUMP JUMPDEST SWAP2 POP PUSH32 0xFFFFFFFFFFFFFFFFFFFFFFFFFFFFFFFFFFFFFFFFFFFFFFFFFFFFFFFFFFFFFFFF DUP3 SUB PUSH2 0xF4C JUMPI PUSH2 0xF4B PUSH2 0xEE3 JUMP JUMPDEST JUMPDEST PUSH1 0x1 DUP3 ADD SWAP1 POP SWAP2 SWAP1 POP JUMP JUMPDEST PUSH0 PUSH2 0xF71 PUSH2 0xF6C PUSH2 0xF67 DUP5 PUSH2 0x771 JUMP JUMPDEST PUSH2 0xCF5 JUMP JUMPDEST PUSH2 0x771 JUMP JUMPDEST SWAP1 POP SWAP2 SWAP1 POP JUMP JUMPDEST PUSH0 PUSH2 0xF82 DUP3 PUSH2 0xF57 JUMP JUMPDEST SWAP1 POP SWAP2 SWAP1 POP JUMP JUMPDEST PUSH0 PUSH2 0xF93 DUP3 PUSH2 0xF78 JUMP JUMPDEST SWAP1 POP SWAP2 SWAP1 POP JUMP JUMPDEST PUSH2 0xFA3 DUP2 PUSH2 0xF89 JUMP JUMPDEST DUP3 MSTORE POP POP JUMP JUMPDEST PUSH0 PUSH1 0xC0 DUP3 ADD SWAP1 POP PUSH2 0xFBC PUSH0 DUP4 ADD DUP10 PUSH2 0x762 JUMP JUMPDEST PUSH2 0xFC9 PUSH1 0x20 DUP4 ADD DUP9 PUSH2 0x7A1 JUMP JUMPDEST PUSH2 0xFD6 PUSH1 0x40 DUP4 ADD DUP8 PUSH2 0xF9A JUMP JUMPDEST DUP2 DUP2 SUB PUSH1 0x60 DUP4 ADD MSTORE PUSH2 0xFE8 DUP2 DUP7 PUSH2 0x808 JUMP JUMPDEST SWAP1 POP PUSH2 0xFF7 PUSH1 0x80 DUP4 ADD DUP6 PUSH2 0x762 JUMP JUMPDEST PUSH2 0x1004 PUSH1 0xA0 DUP4 ADD DUP5 PUSH2 0x762 JUMP JUMPDEST SWAP8 SWAP7 POP POP POP POP POP POP POP JUMP INVALID LOG2 PUSH5 0x6970667358 0x22 SLT KECCAK256 NUMBER 0xCA SUB GAS 0xE5 TIMESTAMP PUSH19 0x86DF22FEB9A11C1BF9F05CBBB13B9FE7A0C47A DUP9 CALLCODE XOR PUSH0 CODESIZE STOP PUSH5 0x736F6C6343 STOP ADDMOD NOT STOP CALLER "
				},
				"gasEstimates": {
					"creation": {
						"codeDepositCost": "833000",
						"executionCost": "868",
						"totalCost": "833868"
					},
					"external": {
						"applyForProject(uint256)": "29118",
						"completeProject(uint256)": "infinite",
						"createProject(string,uint256)": "infinite",
						"projects(uint256)": "infinite"
					}
				},
				"methodIdentifiers": {
					"applyForProject(uint256)": "7e020e06",
					"completeProject(uint256)": "2245f152",
					"createProject(string,uint256)": "91754a5d",
					"projects(uint256)": "107046bd"
				}
			},
			"storageLayout": {
				"storage": [
					{
						"astId": 21,
						"contract": "Smart contracts/SC1.sol:FreelanceMarketplace",
						"label": "projects",
						"offset": 0,
						"slot": "0",
						"type": "t_mapping(t_uint256,t_struct(Project)16_storage)"
					}
				],
				"types": {
					"t_address": {
						"encoding": "inplace",
						"label": "address",
						"numberOfBytes": "20"
					},
					"t_address_payable": {
						"encoding": "inplace",
						"label": "address payable",
						"numberOfBytes": "20"
					},
					"t_bool": {
						"encoding": "inplace",
						"label": "bool",
						"numberOfBytes": "1"
					},
					"t_mapping(t_uint256,t_struct(Project)16_storage)": {
						"encoding": "mapping",
						"key": "t_uint256",
						"label": "mapping(uint256 => struct FreelanceMarketplace.Project)",
						"numberOfBytes": "32",
						"value": "t_struct(Project)16_storage"
					},
					"t_string_storage": {
						"encoding": "bytes",
						"label": "string",
						"numberOfBytes": "32"
					},
					"t_struct(Project)16_storage": {
						"encoding": "inplace",
						"label": "struct FreelanceMarketplace.Project",
						"members": [
							{
								"astId": 3,
								"contract": "Smart contracts/SC1.sol:FreelanceMarketplace",
								"label": "projectId",
								"offset": 0,
								"slot": "0",
								"type": "t_uint256"
							},
							{
								"astId": 5,
								"contract": "Smart contracts/SC1.sol:FreelanceMarketplace",
								"label": "client",
								"offset": 0,
								"slot": "1",
								"type": "t_address"
							},
							{
								"astId": 7,
								"contract": "Smart contracts/SC1.sol:FreelanceMarketplace",
								"label": "freelancer",
								"offset": 0,
								"slot": "2",
								"type": "t_address_payable"
							},
							{
								"astId": 9,
								"contract": "Smart contracts/SC1.sol:FreelanceMarketplace",
								"label": "description",
								"offset": 0,
								"slot": "3",
								"type": "t_string_storage"
							},
							{
								"astId": 11,
								"contract": "Smart contracts/SC1.sol:FreelanceMarketplace",
								"label": "budget",
								"offset": 0,
								"slot": "4",
								"type": "t_uint256"
							},
							{
								"astId": 13,
								"contract": "Smart contracts/SC1.sol:FreelanceMarketplace",
								"label": "deadline",
								"offset": 0,
								"slot": "5",
								"type": "t_uint256"
							},
							{
								"astId": 15,
								"contract": "Smart contracts/SC1.sol:FreelanceMarketplace",
								"label": "completed",
								"offset": 0,
								"slot": "6",
								"type": "t_bool"
							}
						],
						"numberOfBytes": "224"
					},
					"t_uint256": {
						"encoding": "inplace",
						"label": "uint256",
						"numberOfBytes": "32"
					}
				}
			},
			"userdoc": {
				"kind": "user",
				"methods": {},
				"version": 1
			}
		}
	}
}