{
	"Smart contracts/SC3.sol": {
		"HouseEscrow": {
			"abi": [
				{
					"inputs": [],
					"name": "buyer",
					"outputs": [
						{
							"internalType": "address payable",
							"name": "",
							"type": "address"
						}
					],
					"stateMutability": "view",
					"type": "function"
				},
				{
					"inputs": [],
					"name": "depositFunds",
					"outputs": [],
					"stateMutability": "payable",
					"type": "function"
				},
				{
					"inputs": [],
					"name": "fundsReleased",
					"outputs": [
						{
							"internalType": "bool",
							"name": "",
							"type": "bool"
						}
					],
					"stateMutability": "view",
					"type": "function"
				},
				{
					"inputs": [],
					"name": "purchasePrice",
					"outputs": [
						{
							"internalType": "uint256",
							"name": "",
							"type": "uint256"
						}
					],
					"stateMutability": "view",
					"type": "function"
				},
				{
					"inputs": [
						{
							"internalType": "address payable",
							"name": "_newOwner",
							"type": "address"
						}
					],
					"name": "releaseFunds",
					"outputs": [],
					"stateMutability": "nonpayable",
					"type": "function"
				},
				{
					"inputs": [],
					"name": "seller",
					"outputs": [
						{
							"internalType": "address payable",
							"name": "",
							"type": "address"
						}
					],
					"stateMutability": "view",
					"type": "function"
				},
				{
					"inputs": [
						{
							"internalType": "address payable",
							"name": "_buyer",
							"type": "address"
						}
					],
					"name": "setBuyer",
					"outputs": [],
					"stateMutability": "nonpayable",
					"type": "function"
				},
				{
					"inputs": [
						{
							"internalType": "uint256",
							"name": "_purchasePrice",
							"type": "uint256"
						}
					],
					"name": "setPurchasePrice",
					"outputs": [],
					"stateMutability": "nonpayable",
					"type": "function"
				},
				{
					"inputs": [
						{
							"internalType": "address payable",
							"name": "_seller",
							"type": "address"
						}
					],
					"name": "setSeller",
					"outputs": [],
					"stateMutability": "nonpayable",
					"type": "function"
				}
			],
			"devdoc": {
				"kind": "dev",
				"methods": {},
				"version": 1
			},
			"evm": {
				"assembly": "    /* \"Smart contracts/SC3.sol\":59:1024  contract HouseEscrow {... */\n  mstore(0x40, 0x80)\n  callvalue\n  dup1\n  iszero\n  tag_1\n  jumpi\n  0x00\n  dup1\n  revert\ntag_1:\n  pop\n  dataSize(sub_0)\n  dup1\n  dataOffset(sub_0)\n  0x00\n  codecopy\n  0x00\n  return\nstop\n\nsub_0: assembly {\n        /* \"Smart contracts/SC3.sol\":59:1024  contract HouseEscrow {... */\n      mstore(0x40, 0x80)\n      jumpi(tag_1, lt(calldatasize, 0x04))\n      shr(0xe0, calldataload(0x00))\n      dup1\n      0xb564e926\n      gt\n      tag_11\n      jumpi\n      dup1\n      0xb564e926\n      eq\n      tag_6\n      jumpi\n      dup1\n      0xd7296662\n      eq\n      tag_7\n      jumpi\n      dup1\n      0xdefd6c5f\n      eq\n      tag_8\n      jumpi\n      dup1\n      0xe2c41dbc\n      eq\n      tag_9\n      jumpi\n      dup1\n      0xe99d2866\n      eq\n      tag_10\n      jumpi\n      jump(tag_1)\n    tag_11:\n      dup1\n      0x08551a53\n      eq\n      tag_2\n      jumpi\n      dup1\n      0x192e7a7b\n      eq\n      tag_3\n      jumpi\n      dup1\n      0x7150d8ae\n      eq\n      tag_4\n      jumpi\n      dup1\n      0xa3f09ad6\n      eq\n      tag_5\n      jumpi\n    tag_1:\n      0x00\n      dup1\n      revert\n        /* \"Smart contracts/SC3.sol\":120:149  address payable public seller */\n    tag_2:\n      callvalue\n      dup1\n      iszero\n      tag_12\n      jumpi\n      0x00\n      dup1\n      revert\n    tag_12:\n      pop\n      tag_13\n      tag_14\n      jump\t// in\n    tag_13:\n      mload(0x40)\n      tag_15\n      swap2\n      swap1\n      tag_16\n      jump\t// in\n    tag_15:\n      mload(0x40)\n      dup1\n      swap2\n      sub\n      swap1\n      return\n        /* \"Smart contracts/SC3.sol\":666:1022  function releaseFunds(address payable _newOwner) public {... */\n    tag_3:\n      callvalue\n      dup1\n      iszero\n      tag_17\n      jumpi\n      0x00\n      dup1\n      revert\n    tag_17:\n      pop\n      tag_18\n      0x04\n      dup1\n      calldatasize\n      sub\n      dup2\n      add\n      swap1\n      tag_19\n      swap2\n      swap1\n      tag_20\n      jump\t// in\n    tag_19:\n      tag_21\n      jump\t// in\n    tag_18:\n      stop\n        /* \"Smart contracts/SC3.sol\":86:114  address payable public buyer */\n    tag_4:\n      callvalue\n      dup1\n      iszero\n      tag_22\n      jumpi\n      0x00\n      dup1\n      revert\n    tag_22:\n      pop\n      tag_23\n      tag_24\n      jump\t// in\n    tag_23:\n      mload(0x40)\n      tag_25\n      swap2\n      swap1\n      tag_16\n      jump\t// in\n    tag_25:\n      mload(0x40)\n      dup1\n      swap2\n      sub\n      swap1\n      return\n        /* \"Smart contracts/SC3.sol\":218:298  function setBuyer(address payable _buyer) public {... */\n    tag_5:\n      callvalue\n      dup1\n      iszero\n      tag_26\n      jumpi\n      0x00\n      dup1\n      revert\n    tag_26:\n      pop\n      tag_27\n      0x04\n      dup1\n      calldatasize\n      sub\n      dup2\n      add\n      swap1\n      tag_28\n      swap2\n      swap1\n      tag_20\n      jump\t// in\n    tag_28:\n      tag_29\n      jump\t// in\n    tag_27:\n      stop\n        /* \"Smart contracts/SC3.sol\":186:211  bool public fundsReleased */\n    tag_6:\n      callvalue\n      dup1\n      iszero\n      tag_30\n      jumpi\n      0x00\n      dup1\n      revert\n    tag_30:\n      pop\n      tag_31\n      tag_32\n      jump\t// in\n    tag_31:\n      mload(0x40)\n      tag_33\n      swap2\n      swap1\n      tag_34\n      jump\t// in\n    tag_33:\n      mload(0x40)\n      dup1\n      swap2\n      sub\n      swap1\n      return\n        /* \"Smart contracts/SC3.sol\":394:495  function setPurchasePrice(uint _purchasePrice) public {... */\n    tag_7:\n      callvalue\n      dup1\n      iszero\n      tag_35\n      jumpi\n      0x00\n      dup1\n      revert\n    tag_35:\n      pop\n      tag_36\n      0x04\n      dup1\n      calldatasize\n      sub\n      dup2\n      add\n      swap1\n      tag_37\n      swap2\n      swap1\n      tag_38\n      jump\t// in\n    tag_37:\n      tag_39\n      jump\t// in\n    tag_36:\n      stop\n        /* \"Smart contracts/SC3.sol\":155:180  uint public purchasePrice */\n    tag_8:\n      callvalue\n      dup1\n      iszero\n      tag_40\n      jumpi\n      0x00\n      dup1\n      revert\n    tag_40:\n      pop\n      tag_41\n      tag_42\n      jump\t// in\n    tag_41:\n      mload(0x40)\n      tag_43\n      swap2\n      swap1\n      tag_44\n      jump\t// in\n    tag_43:\n      mload(0x40)\n      dup1\n      swap2\n      sub\n      swap1\n      return\n        /* \"Smart contracts/SC3.sol\":501:660  function depositFunds() public payable {... */\n    tag_9:\n      tag_45\n      tag_46\n      jump\t// in\n    tag_45:\n      stop\n        /* \"Smart contracts/SC3.sol\":304:388  function setSeller(address payable _seller) public {... */\n    tag_10:\n      callvalue\n      dup1\n      iszero\n      tag_47\n      jumpi\n      0x00\n      dup1\n      revert\n    tag_47:\n      pop\n      tag_48\n      0x04\n      dup1\n      calldatasize\n      sub\n      dup2\n      add\n      swap1\n      tag_49\n      swap2\n      swap1\n      tag_20\n      jump\t// in\n    tag_49:\n      tag_50\n      jump\t// in\n    tag_48:\n      stop\n        /* \"Smart contracts/SC3.sol\":120:149  address payable public seller */\n    tag_14:\n      0x01\n      0x00\n      swap1\n      sload\n      swap1\n      0x0100\n      exp\n      swap1\n      div\n      0xffffffffffffffffffffffffffffffffffffffff\n      and\n      dup2\n      jump\t// out\n        /* \"Smart contracts/SC3.sol\":666:1022  function releaseFunds(address payable _newOwner) public {... */\n    tag_21:\n        /* \"Smart contracts/SC3.sol\":754:760  seller */\n      0x01\n      0x00\n      swap1\n      sload\n      swap1\n      0x0100\n      exp\n      swap1\n      div\n      0xffffffffffffffffffffffffffffffffffffffff\n      and\n        /* \"Smart contracts/SC3.sol\":740:760  msg.sender == seller */\n      0xffffffffffffffffffffffffffffffffffffffff\n      and\n        /* \"Smart contracts/SC3.sol\":740:750  msg.sender */\n      caller\n        /* \"Smart contracts/SC3.sol\":740:760  msg.sender == seller */\n      0xffffffffffffffffffffffffffffffffffffffff\n      and\n      eq\n        /* \"Smart contracts/SC3.sol\":732:799  require(msg.sender == seller, \"Only seller can call this function\") */\n      tag_52\n      jumpi\n      mload(0x40)\n      0x08c379a000000000000000000000000000000000000000000000000000000000\n      dup2\n      mstore\n      0x04\n      add\n      tag_53\n      swap1\n      tag_54\n      jump\t// in\n    tag_53:\n      mload(0x40)\n      dup1\n      swap2\n      sub\n      swap1\n      revert\n    tag_52:\n        /* \"Smart contracts/SC3.sol\":818:831  fundsReleased */\n      0x03\n      0x00\n      swap1\n      sload\n      swap1\n      0x0100\n      exp\n      swap1\n      div\n      0xff\n      and\n        /* \"Smart contracts/SC3.sol\":817:831  !fundsReleased */\n      iszero\n        /* \"Smart contracts/SC3.sol\":809:858  require(!fundsReleased, \"Funds already released\") */\n      tag_55\n      jumpi\n      mload(0x40)\n      0x08c379a000000000000000000000000000000000000000000000000000000000\n      dup2\n      mstore\n      0x04\n      add\n      tag_56\n      swap1\n      tag_57\n      jump\t// in\n    tag_56:\n      mload(0x40)\n      dup1\n      swap2\n      sub\n      swap1\n      revert\n    tag_55:\n        /* \"Smart contracts/SC3.sol\":889:894  buyer */\n      0x00\n      dup1\n      sload\n      swap1\n      0x0100\n      exp\n      swap1\n      div\n      0xffffffffffffffffffffffffffffffffffffffff\n      and\n        /* \"Smart contracts/SC3.sol\":876:894  _newOwner == buyer */\n      0xffffffffffffffffffffffffffffffffffffffff\n      and\n        /* \"Smart contracts/SC3.sol\":876:885  _newOwner */\n      dup2\n        /* \"Smart contracts/SC3.sol\":876:894  _newOwner == buyer */\n      0xffffffffffffffffffffffffffffffffffffffff\n      and\n      eq\n        /* \"Smart contracts/SC3.sol\":868:937  require(_newOwner == buyer, \"Ownership must be transferred to buyer\") */\n      tag_58\n      jumpi\n      mload(0x40)\n      0x08c379a000000000000000000000000000000000000000000000000000000000\n      dup2\n      mstore\n      0x04\n      add\n      tag_59\n      swap1\n      tag_60\n      jump\t// in\n    tag_59:\n      mload(0x40)\n      dup1\n      swap2\n      sub\n      swap1\n      revert\n    tag_58:\n        /* \"Smart contracts/SC3.sol\":947:953  seller */\n      0x01\n      0x00\n      swap1\n      sload\n      swap1\n      0x0100\n      exp\n      swap1\n      div\n      0xffffffffffffffffffffffffffffffffffffffff\n      and\n        /* \"Smart contracts/SC3.sol\":947:962  seller.transfer */\n      0xffffffffffffffffffffffffffffffffffffffff\n      and\n        /* \"Smart contracts/SC3.sol\":947:985  seller.transfer(address(this).balance) */\n      0x08fc\n        /* \"Smart contracts/SC3.sol\":963:984  address(this).balance */\n      selfbalance\n        /* \"Smart contracts/SC3.sol\":947:985  seller.transfer(address(this).balance) */\n      swap1\n      dup2\n      iszero\n      mul\n      swap1\n      mload(0x40)\n      0x00\n      mload(0x40)\n      dup1\n      dup4\n      sub\n      dup2\n      dup6\n      dup9\n      dup9\n      call\n      swap4\n      pop\n      pop\n      pop\n      pop\n      iszero\n      dup1\n      iszero\n      tag_62\n      jumpi\n      returndatasize\n      0x00\n      dup1\n      returndatacopy\n      revert(0x00, returndatasize)\n    tag_62:\n      pop\n        /* \"Smart contracts/SC3.sol\":1011:1015  true */\n      0x01\n        /* \"Smart contracts/SC3.sol\":995:1008  fundsReleased */\n      0x03\n      0x00\n        /* \"Smart contracts/SC3.sol\":995:1015  fundsReleased = true */\n      0x0100\n      exp\n      dup2\n      sload\n      dup2\n      0xff\n      mul\n      not\n      and\n      swap1\n      dup4\n      iszero\n      iszero\n      mul\n      or\n      swap1\n      sstore\n      pop\n        /* \"Smart contracts/SC3.sol\":666:1022  function releaseFunds(address payable _newOwner) public {... */\n      pop\n      jump\t// out\n        /* \"Smart contracts/SC3.sol\":86:114  address payable public buyer */\n    tag_24:\n      0x00\n      dup1\n      sload\n      swap1\n      0x0100\n      exp\n      swap1\n      div\n      0xffffffffffffffffffffffffffffffffffffffff\n      and\n      dup2\n      jump\t// out\n        /* \"Smart contracts/SC3.sol\":218:298  function setBuyer(address payable _buyer) public {... */\n    tag_29:\n        /* \"Smart contracts/SC3.sol\":285:291  _buyer */\n      dup1\n        /* \"Smart contracts/SC3.sol\":277:282  buyer */\n      0x00\n      dup1\n        /* \"Smart contracts/SC3.sol\":277:291  buyer = _buyer */\n      0x0100\n      exp\n      dup2\n      sload\n      dup2\n      0xffffffffffffffffffffffffffffffffffffffff\n      mul\n      not\n      and\n      swap1\n      dup4\n      0xffffffffffffffffffffffffffffffffffffffff\n      and\n      mul\n      or\n      swap1\n      sstore\n      pop\n        /* \"Smart contracts/SC3.sol\":218:298  function setBuyer(address payable _buyer) public {... */\n      pop\n      jump\t// out\n        /* \"Smart contracts/SC3.sol\":186:211  bool public fundsReleased */\n    tag_32:\n      0x03\n      0x00\n      swap1\n      sload\n      swap1\n      0x0100\n      exp\n      swap1\n      div\n      0xff\n      and\n      dup2\n      jump\t// out\n        /* \"Smart contracts/SC3.sol\":394:495  function setPurchasePrice(uint _purchasePrice) public {... */\n    tag_39:\n        /* \"Smart contracts/SC3.sol\":474:488  _purchasePrice */\n      dup1\n        /* \"Smart contracts/SC3.sol\":458:471  purchasePrice */\n      0x02\n        /* \"Smart contracts/SC3.sol\":458:488  purchasePrice = _purchasePrice */\n      dup2\n      swap1\n      sstore\n      pop\n        /* \"Smart contracts/SC3.sol\":394:495  function setPurchasePrice(uint _purchasePrice) public {... */\n      pop\n      jump\t// out\n        /* \"Smart contracts/SC3.sol\":155:180  uint public purchasePrice */\n    tag_42:\n      sload(0x02)\n      dup2\n      jump\t// out\n        /* \"Smart contracts/SC3.sol\":501:660  function depositFunds() public payable {... */\n    tag_46:\n        /* \"Smart contracts/SC3.sol\":571:584  purchasePrice */\n      sload(0x02)\n        /* \"Smart contracts/SC3.sol\":558:567  msg.value */\n      callvalue\n        /* \"Smart contracts/SC3.sol\":558:584  msg.value == purchasePrice */\n      eq\n        /* \"Smart contracts/SC3.sol\":550:622  require(msg.value == purchasePrice, \"Deposit must match purchase price\") */\n      tag_66\n      jumpi\n      mload(0x40)\n      0x08c379a000000000000000000000000000000000000000000000000000000000\n      dup2\n      mstore\n      0x04\n      add\n      tag_67\n      swap1\n      tag_68\n      jump\t// in\n    tag_67:\n      mload(0x40)\n      dup1\n      swap2\n      sub\n      swap1\n      revert\n    tag_66:\n        /* \"Smart contracts/SC3.sol\":648:653  false */\n      0x00\n        /* \"Smart contracts/SC3.sol\":632:645  fundsReleased */\n      0x03\n      0x00\n        /* \"Smart contracts/SC3.sol\":632:653  fundsReleased = false */\n      0x0100\n      exp\n      dup2\n      sload\n      dup2\n      0xff\n      mul\n      not\n      and\n      swap1\n      dup4\n      iszero\n      iszero\n      mul\n      or\n      swap1\n      sstore\n      pop\n        /* \"Smart contracts/SC3.sol\":501:660  function depositFunds() public payable {... */\n      jump\t// out\n        /* \"Smart contracts/SC3.sol\":304:388  function setSeller(address payable _seller) public {... */\n    tag_50:\n        /* \"Smart contracts/SC3.sol\":374:381  _seller */\n      dup1\n        /* \"Smart contracts/SC3.sol\":365:371  seller */\n      0x01\n      0x00\n        /* \"Smart contracts/SC3.sol\":365:381  seller = _seller */\n      0x0100\n      exp\n      dup2\n      sload\n      dup2\n      0xffffffffffffffffffffffffffffffffffffffff\n      mul\n      not\n      and\n      swap1\n      dup4\n      0xffffffffffffffffffffffffffffffffffffffff\n      and\n      mul\n      or\n      swap1\n      sstore\n      pop\n        /* \"Smart contracts/SC3.sol\":304:388  function setSeller(address payable _seller) public {... */\n      pop\n      jump\t// out\n        /* \"#utility.yul\":7:133   */\n    tag_70:\n        /* \"#utility.yul\":44:51   */\n      0x00\n        /* \"#utility.yul\":84:126   */\n      0xffffffffffffffffffffffffffffffffffffffff\n        /* \"#utility.yul\":77:82   */\n      dup3\n        /* \"#utility.yul\":73:127   */\n      and\n        /* \"#utility.yul\":62:127   */\n      swap1\n      pop\n        /* \"#utility.yul\":7:133   */\n      swap2\n      swap1\n      pop\n      jump\t// out\n        /* \"#utility.yul\":139:243   */\n    tag_71:\n        /* \"#utility.yul\":184:191   */\n      0x00\n        /* \"#utility.yul\":213:237   */\n      tag_96\n        /* \"#utility.yul\":231:236   */\n      dup3\n        /* \"#utility.yul\":213:237   */\n      tag_70\n      jump\t// in\n    tag_96:\n        /* \"#utility.yul\":202:237   */\n      swap1\n      pop\n        /* \"#utility.yul\":139:243   */\n      swap2\n      swap1\n      pop\n      jump\t// out\n        /* \"#utility.yul\":249:391   */\n    tag_72:\n        /* \"#utility.yul\":352:384   */\n      tag_98\n        /* \"#utility.yul\":378:383   */\n      dup2\n        /* \"#utility.yul\":352:384   */\n      tag_71\n      jump\t// in\n    tag_98:\n        /* \"#utility.yul\":347:350   */\n      dup3\n        /* \"#utility.yul\":340:385   */\n      mstore\n        /* \"#utility.yul\":249:391   */\n      pop\n      pop\n      jump\t// out\n        /* \"#utility.yul\":397:651   */\n    tag_16:\n        /* \"#utility.yul\":506:510   */\n      0x00\n        /* \"#utility.yul\":544:546   */\n      0x20\n        /* \"#utility.yul\":533:542   */\n      dup3\n        /* \"#utility.yul\":529:547   */\n      add\n        /* \"#utility.yul\":521:547   */\n      swap1\n      pop\n        /* \"#utility.yul\":557:644   */\n      tag_100\n        /* \"#utility.yul\":641:642   */\n      0x00\n        /* \"#utility.yul\":630:639   */\n      dup4\n        /* \"#utility.yul\":626:643   */\n      add\n        /* \"#utility.yul\":617:623   */\n      dup5\n        /* \"#utility.yul\":557:644   */\n      tag_72\n      jump\t// in\n    tag_100:\n        /* \"#utility.yul\":397:651   */\n      swap3\n      swap2\n      pop\n      pop\n      jump\t// out\n        /* \"#utility.yul\":738:855   */\n    tag_74:\n        /* \"#utility.yul\":847:848   */\n      0x00\n        /* \"#utility.yul\":844:845   */\n      dup1\n        /* \"#utility.yul\":837:849   */\n      revert\n        /* \"#utility.yul\":984:1122   */\n    tag_76:\n        /* \"#utility.yul\":1065:1097   */\n      tag_105\n        /* \"#utility.yul\":1091:1096   */\n      dup2\n        /* \"#utility.yul\":1065:1097   */\n      tag_71\n      jump\t// in\n    tag_105:\n        /* \"#utility.yul\":1058:1063   */\n      dup2\n        /* \"#utility.yul\":1055:1098   */\n      eq\n        /* \"#utility.yul\":1045:1116   */\n      tag_106\n      jumpi\n        /* \"#utility.yul\":1112:1113   */\n      0x00\n        /* \"#utility.yul\":1109:1110   */\n      dup1\n        /* \"#utility.yul\":1102:1114   */\n      revert\n        /* \"#utility.yul\":1045:1116   */\n    tag_106:\n        /* \"#utility.yul\":984:1122   */\n      pop\n      jump\t// out\n        /* \"#utility.yul\":1128:1283   */\n    tag_77:\n        /* \"#utility.yul\":1182:1187   */\n      0x00\n        /* \"#utility.yul\":1220:1226   */\n      dup2\n        /* \"#utility.yul\":1207:1227   */\n      calldataload\n        /* \"#utility.yul\":1198:1227   */\n      swap1\n      pop\n        /* \"#utility.yul\":1236:1277   */\n      tag_108\n        /* \"#utility.yul\":1271:1276   */\n      dup2\n        /* \"#utility.yul\":1236:1277   */\n      tag_76\n      jump\t// in\n    tag_108:\n        /* \"#utility.yul\":1128:1283   */\n      swap3\n      swap2\n      pop\n      pop\n      jump\t// out\n        /* \"#utility.yul\":1289:1634   */\n    tag_20:\n        /* \"#utility.yul\":1356:1362   */\n      0x00\n        /* \"#utility.yul\":1405:1407   */\n      0x20\n        /* \"#utility.yul\":1393:1402   */\n      dup3\n        /* \"#utility.yul\":1384:1391   */\n      dup5\n        /* \"#utility.yul\":1380:1403   */\n      sub\n        /* \"#utility.yul\":1376:1408   */\n      slt\n        /* \"#utility.yul\":1373:1492   */\n      iszero\n      tag_110\n      jumpi\n        /* \"#utility.yul\":1411:1490   */\n      tag_111\n      tag_74\n      jump\t// in\n    tag_111:\n        /* \"#utility.yul\":1373:1492   */\n    tag_110:\n        /* \"#utility.yul\":1531:1532   */\n      0x00\n        /* \"#utility.yul\":1556:1617   */\n      tag_112\n        /* \"#utility.yul\":1609:1616   */\n      dup5\n        /* \"#utility.yul\":1600:1606   */\n      dup3\n        /* \"#utility.yul\":1589:1598   */\n      dup6\n        /* \"#utility.yul\":1585:1607   */\n      add\n        /* \"#utility.yul\":1556:1617   */\n      tag_77\n      jump\t// in\n    tag_112:\n        /* \"#utility.yul\":1546:1617   */\n      swap2\n      pop\n        /* \"#utility.yul\":1502:1627   */\n      pop\n        /* \"#utility.yul\":1289:1634   */\n      swap3\n      swap2\n      pop\n      pop\n      jump\t// out\n        /* \"#utility.yul\":1640:1730   */\n    tag_78:\n        /* \"#utility.yul\":1674:1681   */\n      0x00\n        /* \"#utility.yul\":1717:1722   */\n      dup2\n        /* \"#utility.yul\":1710:1723   */\n      iszero\n        /* \"#utility.yul\":1703:1724   */\n      iszero\n        /* \"#utility.yul\":1692:1724   */\n      swap1\n      pop\n        /* \"#utility.yul\":1640:1730   */\n      swap2\n      swap1\n      pop\n      jump\t// out\n        /* \"#utility.yul\":1736:1845   */\n    tag_79:\n        /* \"#utility.yul\":1817:1838   */\n      tag_115\n        /* \"#utility.yul\":1832:1837   */\n      dup2\n        /* \"#utility.yul\":1817:1838   */\n      tag_78\n      jump\t// in\n    tag_115:\n        /* \"#utility.yul\":1812:1815   */\n      dup3\n        /* \"#utility.yul\":1805:1839   */\n      mstore\n        /* \"#utility.yul\":1736:1845   */\n      pop\n      pop\n      jump\t// out\n        /* \"#utility.yul\":1851:2061   */\n    tag_34:\n        /* \"#utility.yul\":1938:1942   */\n      0x00\n        /* \"#utility.yul\":1976:1978   */\n      0x20\n        /* \"#utility.yul\":1965:1974   */\n      dup3\n        /* \"#utility.yul\":1961:1979   */\n      add\n        /* \"#utility.yul\":1953:1979   */\n      swap1\n      pop\n        /* \"#utility.yul\":1989:2054   */\n      tag_117\n        /* \"#utility.yul\":2051:2052   */\n      0x00\n        /* \"#utility.yul\":2040:2049   */\n      dup4\n        /* \"#utility.yul\":2036:2053   */\n      add\n        /* \"#utility.yul\":2027:2033   */\n      dup5\n        /* \"#utility.yul\":1989:2054   */\n      tag_79\n      jump\t// in\n    tag_117:\n        /* \"#utility.yul\":1851:2061   */\n      swap3\n      swap2\n      pop\n      pop\n      jump\t// out\n        /* \"#utility.yul\":2067:2144   */\n    tag_80:\n        /* \"#utility.yul\":2104:2111   */\n      0x00\n        /* \"#utility.yul\":2133:2138   */\n      dup2\n        /* \"#utility.yul\":2122:2138   */\n      swap1\n      pop\n        /* \"#utility.yul\":2067:2144   */\n      swap2\n      swap1\n      pop\n      jump\t// out\n        /* \"#utility.yul\":2150:2272   */\n    tag_81:\n        /* \"#utility.yul\":2223:2247   */\n      tag_120\n        /* \"#utility.yul\":2241:2246   */\n      dup2\n        /* \"#utility.yul\":2223:2247   */\n      tag_80\n      jump\t// in\n    tag_120:\n        /* \"#utility.yul\":2216:2221   */\n      dup2\n        /* \"#utility.yul\":2213:2248   */\n      eq\n        /* \"#utility.yul\":2203:2266   */\n      tag_121\n      jumpi\n        /* \"#utility.yul\":2262:2263   */\n      0x00\n        /* \"#utility.yul\":2259:2260   */\n      dup1\n        /* \"#utility.yul\":2252:2264   */\n      revert\n        /* \"#utility.yul\":2203:2266   */\n    tag_121:\n        /* \"#utility.yul\":2150:2272   */\n      pop\n      jump\t// out\n        /* \"#utility.yul\":2278:2417   */\n    tag_82:\n        /* \"#utility.yul\":2324:2329   */\n      0x00\n        /* \"#utility.yul\":2362:2368   */\n      dup2\n        /* \"#utility.yul\":2349:2369   */\n      calldataload\n        /* \"#utility.yul\":2340:2369   */\n      swap1\n      pop\n        /* \"#utility.yul\":2378:2411   */\n      tag_123\n        /* \"#utility.yul\":2405:2410   */\n      dup2\n        /* \"#utility.yul\":2378:2411   */\n      tag_81\n      jump\t// in\n    tag_123:\n        /* \"#utility.yul\":2278:2417   */\n      swap3\n      swap2\n      pop\n      pop\n      jump\t// out\n        /* \"#utility.yul\":2423:2752   */\n    tag_38:\n        /* \"#utility.yul\":2482:2488   */\n      0x00\n        /* \"#utility.yul\":2531:2533   */\n      0x20\n        /* \"#utility.yul\":2519:2528   */\n      dup3\n        /* \"#utility.yul\":2510:2517   */\n      dup5\n        /* \"#utility.yul\":2506:2529   */\n      sub\n        /* \"#utility.yul\":2502:2534   */\n      slt\n        /* \"#utility.yul\":2499:2618   */\n      iszero\n      tag_125\n      jumpi\n        /* \"#utility.yul\":2537:2616   */\n      tag_126\n      tag_74\n      jump\t// in\n    tag_126:\n        /* \"#utility.yul\":2499:2618   */\n    tag_125:\n        /* \"#utility.yul\":2657:2658   */\n      0x00\n        /* \"#utility.yul\":2682:2735   */\n      tag_127\n        /* \"#utility.yul\":2727:2734   */\n      dup5\n        /* \"#utility.yul\":2718:2724   */\n      dup3\n        /* \"#utility.yul\":2707:2716   */\n      dup6\n        /* \"#utility.yul\":2703:2725   */\n      add\n        /* \"#utility.yul\":2682:2735   */\n      tag_82\n      jump\t// in\n    tag_127:\n        /* \"#utility.yul\":2672:2735   */\n      swap2\n      pop\n        /* \"#utility.yul\":2628:2745   */\n      pop\n        /* \"#utility.yul\":2423:2752   */\n      swap3\n      swap2\n      pop\n      pop\n      jump\t// out\n        /* \"#utility.yul\":2758:2876   */\n    tag_83:\n        /* \"#utility.yul\":2845:2869   */\n      tag_129\n        /* \"#utility.yul\":2863:2868   */\n      dup2\n        /* \"#utility.yul\":2845:2869   */\n      tag_80\n      jump\t// in\n    tag_129:\n        /* \"#utility.yul\":2840:2843   */\n      dup3\n        /* \"#utility.yul\":2833:2870   */\n      mstore\n        /* \"#utility.yul\":2758:2876   */\n      pop\n      pop\n      jump\t// out\n        /* \"#utility.yul\":2882:3104   */\n    tag_44:\n        /* \"#utility.yul\":2975:2979   */\n      0x00\n        /* \"#utility.yul\":3013:3015   */\n      0x20\n        /* \"#utility.yul\":3002:3011   */\n      dup3\n        /* \"#utility.yul\":2998:3016   */\n      add\n        /* \"#utility.yul\":2990:3016   */\n      swap1\n      pop\n        /* \"#utility.yul\":3026:3097   */\n      tag_131\n        /* \"#utility.yul\":3094:3095   */\n      0x00\n        /* \"#utility.yul\":3083:3092   */\n      dup4\n        /* \"#utility.yul\":3079:3096   */\n      add\n        /* \"#utility.yul\":3070:3076   */\n      dup5\n        /* \"#utility.yul\":3026:3097   */\n      tag_83\n      jump\t// in\n    tag_131:\n        /* \"#utility.yul\":2882:3104   */\n      swap3\n      swap2\n      pop\n      pop\n      jump\t// out\n        /* \"#utility.yul\":3110:3279   */\n    tag_84:\n        /* \"#utility.yul\":3194:3205   */\n      0x00\n        /* \"#utility.yul\":3228:3234   */\n      dup3\n        /* \"#utility.yul\":3223:3226   */\n      dup3\n        /* \"#utility.yul\":3216:3235   */\n      mstore\n        /* \"#utility.yul\":3268:3272   */\n      0x20\n        /* \"#utility.yul\":3263:3266   */\n      dup3\n        /* \"#utility.yul\":3259:3273   */\n      add\n        /* \"#utility.yul\":3244:3273   */\n      swap1\n      pop\n        /* \"#utility.yul\":3110:3279   */\n      swap3\n      swap2\n      pop\n      pop\n      jump\t// out\n        /* \"#utility.yul\":3285:3506   */\n    tag_85:\n        /* \"#utility.yul\":3425:3459   */\n      0x4f6e6c792073656c6c65722063616e2063616c6c20746869732066756e637469\n        /* \"#utility.yul\":3421:3422   */\n      0x00\n        /* \"#utility.yul\":3413:3419   */\n      dup3\n        /* \"#utility.yul\":3409:3423   */\n      add\n        /* \"#utility.yul\":3402:3460   */\n      mstore\n        /* \"#utility.yul\":3494:3498   */\n      0x6f6e000000000000000000000000000000000000000000000000000000000000\n        /* \"#utility.yul\":3489:3491   */\n      0x20\n        /* \"#utility.yul\":3481:3487   */\n      dup3\n        /* \"#utility.yul\":3477:3492   */\n      add\n        /* \"#utility.yul\":3470:3499   */\n      mstore\n        /* \"#utility.yul\":3285:3506   */\n      pop\n      jump\t// out\n        /* \"#utility.yul\":3512:3878   */\n    tag_86:\n        /* \"#utility.yul\":3654:3657   */\n      0x00\n        /* \"#utility.yul\":3675:3742   */\n      tag_135\n        /* \"#utility.yul\":3739:3741   */\n      0x22\n        /* \"#utility.yul\":3734:3737   */\n      dup4\n        /* \"#utility.yul\":3675:3742   */\n      tag_84\n      jump\t// in\n    tag_135:\n        /* \"#utility.yul\":3668:3742   */\n      swap2\n      pop\n        /* \"#utility.yul\":3751:3844   */\n      tag_136\n        /* \"#utility.yul\":3840:3843   */\n      dup3\n        /* \"#utility.yul\":3751:3844   */\n      tag_85\n      jump\t// in\n    tag_136:\n        /* \"#utility.yul\":3869:3871   */\n      0x40\n        /* \"#utility.yul\":3864:3867   */\n      dup3\n        /* \"#utility.yul\":3860:3872   */\n      add\n        /* \"#utility.yul\":3853:3872   */\n      swap1\n      pop\n        /* \"#utility.yul\":3512:3878   */\n      swap2\n      swap1\n      pop\n      jump\t// out\n        /* \"#utility.yul\":3884:4303   */\n    tag_54:\n        /* \"#utility.yul\":4050:4054   */\n      0x00\n        /* \"#utility.yul\":4088:4090   */\n      0x20\n        /* \"#utility.yul\":4077:4086   */\n      dup3\n        /* \"#utility.yul\":4073:4091   */\n      add\n        /* \"#utility.yul\":4065:4091   */\n      swap1\n      pop\n        /* \"#utility.yul\":4137:4146   */\n      dup2\n        /* \"#utility.yul\":4131:4135   */\n      dup2\n        /* \"#utility.yul\":4127:4147   */\n      sub\n        /* \"#utility.yul\":4123:4124   */\n      0x00\n        /* \"#utility.yul\":4112:4121   */\n      dup4\n        /* \"#utility.yul\":4108:4125   */\n      add\n        /* \"#utility.yul\":4101:4148   */\n      mstore\n        /* \"#utility.yul\":4165:4296   */\n      tag_138\n        /* \"#utility.yul\":4291:4295   */\n      dup2\n        /* \"#utility.yul\":4165:4296   */\n      tag_86\n      jump\t// in\n    tag_138:\n        /* \"#utility.yul\":4157:4296   */\n      swap1\n      pop\n        /* \"#utility.yul\":3884:4303   */\n      swap2\n      swap1\n      pop\n      jump\t// out\n        /* \"#utility.yul\":4309:4481   */\n    tag_87:\n        /* \"#utility.yul\":4449:4473   */\n      0x46756e647320616c72656164792072656c656173656400000000000000000000\n        /* \"#utility.yul\":4445:4446   */\n      0x00\n        /* \"#utility.yul\":4437:4443   */\n      dup3\n        /* \"#utility.yul\":4433:4447   */\n      add\n        /* \"#utility.yul\":4426:4474   */\n      mstore\n        /* \"#utility.yul\":4309:4481   */\n      pop\n      jump\t// out\n        /* \"#utility.yul\":4487:4853   */\n    tag_88:\n        /* \"#utility.yul\":4629:4632   */\n      0x00\n        /* \"#utility.yul\":4650:4717   */\n      tag_141\n        /* \"#utility.yul\":4714:4716   */\n      0x16\n        /* \"#utility.yul\":4709:4712   */\n      dup4\n        /* \"#utility.yul\":4650:4717   */\n      tag_84\n      jump\t// in\n    tag_141:\n        /* \"#utility.yul\":4643:4717   */\n      swap2\n      pop\n        /* \"#utility.yul\":4726:4819   */\n      tag_142\n        /* \"#utility.yul\":4815:4818   */\n      dup3\n        /* \"#utility.yul\":4726:4819   */\n      tag_87\n      jump\t// in\n    tag_142:\n        /* \"#utility.yul\":4844:4846   */\n      0x20\n        /* \"#utility.yul\":4839:4842   */\n      dup3\n        /* \"#utility.yul\":4835:4847   */\n      add\n        /* \"#utility.yul\":4828:4847   */\n      swap1\n      pop\n        /* \"#utility.yul\":4487:4853   */\n      swap2\n      swap1\n      pop\n      jump\t// out\n        /* \"#utility.yul\":4859:5278   */\n    tag_57:\n        /* \"#utility.yul\":5025:5029   */\n      0x00\n        /* \"#utility.yul\":5063:5065   */\n      0x20\n        /* \"#utility.yul\":5052:5061   */\n      dup3\n        /* \"#utility.yul\":5048:5066   */\n      add\n        /* \"#utility.yul\":5040:5066   */\n      swap1\n      pop\n        /* \"#utility.yul\":5112:5121   */\n      dup2\n        /* \"#utility.yul\":5106:5110   */\n      dup2\n        /* \"#utility.yul\":5102:5122   */\n      sub\n        /* \"#utility.yul\":5098:5099   */\n      0x00\n        /* \"#utility.yul\":5087:5096   */\n      dup4\n        /* \"#utility.yul\":5083:5100   */\n      add\n        /* \"#utility.yul\":5076:5123   */\n      mstore\n        /* \"#utility.yul\":5140:5271   */\n      tag_144\n        /* \"#utility.yul\":5266:5270   */\n      dup2\n        /* \"#utility.yul\":5140:5271   */\n      tag_88\n      jump\t// in\n    tag_144:\n        /* \"#utility.yul\":5132:5271   */\n      swap1\n      pop\n        /* \"#utility.yul\":4859:5278   */\n      swap2\n      swap1\n      pop\n      jump\t// out\n        /* \"#utility.yul\":5284:5509   */\n    tag_89:\n        /* \"#utility.yul\":5424:5458   */\n      0x4f776e657273686970206d757374206265207472616e7366657272656420746f\n        /* \"#utility.yul\":5420:5421   */\n      0x00\n        /* \"#utility.yul\":5412:5418   */\n      dup3\n        /* \"#utility.yul\":5408:5422   */\n      add\n        /* \"#utility.yul\":5401:5459   */\n      mstore\n        /* \"#utility.yul\":5493:5501   */\n      0x2062757965720000000000000000000000000000000000000000000000000000\n        /* \"#utility.yul\":5488:5490   */\n      0x20\n        /* \"#utility.yul\":5480:5486   */\n      dup3\n        /* \"#utility.yul\":5476:5491   */\n      add\n        /* \"#utility.yul\":5469:5502   */\n      mstore\n        /* \"#utility.yul\":5284:5509   */\n      pop\n      jump\t// out\n        /* \"#utility.yul\":5515:5881   */\n    tag_90:\n        /* \"#utility.yul\":5657:5660   */\n      0x00\n        /* \"#utility.yul\":5678:5745   */\n      tag_147\n        /* \"#utility.yul\":5742:5744   */\n      0x26\n        /* \"#utility.yul\":5737:5740   */\n      dup4\n        /* \"#utility.yul\":5678:5745   */\n      tag_84\n      jump\t// in\n    tag_147:\n        /* \"#utility.yul\":5671:5745   */\n      swap2\n      pop\n        /* \"#utility.yul\":5754:5847   */\n      tag_148\n        /* \"#utility.yul\":5843:5846   */\n      dup3\n        /* \"#utility.yul\":5754:5847   */\n      tag_89\n      jump\t// in\n    tag_148:\n        /* \"#utility.yul\":5872:5874   */\n      0x40\n        /* \"#utility.yul\":5867:5870   */\n      dup3\n        /* \"#utility.yul\":5863:5875   */\n      add\n        /* \"#utility.yul\":5856:5875   */\n      swap1\n      pop\n        /* \"#utility.yul\":5515:5881   */\n      swap2\n      swap1\n      pop\n      jump\t// out\n        /* \"#utility.yul\":5887:6306   */\n    tag_60:\n        /* \"#utility.yul\":6053:6057   */\n      0x00\n        /* \"#utility.yul\":6091:6093   */\n      0x20\n        /* \"#utility.yul\":6080:6089   */\n      dup3\n        /* \"#utility.yul\":6076:6094   */\n      add\n        /* \"#utility.yul\":6068:6094   */\n      swap1\n      pop\n        /* \"#utility.yul\":6140:6149   */\n      dup2\n        /* \"#utility.yul\":6134:6138   */\n      dup2\n        /* \"#utility.yul\":6130:6150   */\n      sub\n        /* \"#utility.yul\":6126:6127   */\n      0x00\n        /* \"#utility.yul\":6115:6124   */\n      dup4\n        /* \"#utility.yul\":6111:6128   */\n      add\n        /* \"#utility.yul\":6104:6151   */\n      mstore\n        /* \"#utility.yul\":6168:6299   */\n      tag_150\n        /* \"#utility.yul\":6294:6298   */\n      dup2\n        /* \"#utility.yul\":6168:6299   */\n      tag_90\n      jump\t// in\n    tag_150:\n        /* \"#utility.yul\":6160:6299   */\n      swap1\n      pop\n        /* \"#utility.yul\":5887:6306   */\n      swap2\n      swap1\n      pop\n      jump\t// out\n        /* \"#utility.yul\":6312:6532   */\n    tag_91:\n        /* \"#utility.yul\":6452:6486   */\n      0x4465706f736974206d757374206d617463682070757263686173652070726963\n        /* \"#utility.yul\":6448:6449   */\n      0x00\n        /* \"#utility.yul\":6440:6446   */\n      dup3\n        /* \"#utility.yul\":6436:6450   */\n      add\n        /* \"#utility.yul\":6429:6487   */\n      mstore\n        /* \"#utility.yul\":6521:6524   */\n      0x6500000000000000000000000000000000000000000000000000000000000000\n        /* \"#utility.yul\":6516:6518   */\n      0x20\n        /* \"#utility.yul\":6508:6514   */\n      dup3\n        /* \"#utility.yul\":6504:6519   */\n      add\n        /* \"#utility.yul\":6497:6525   */\n      mstore\n        /* \"#utility.yul\":6312:6532   */\n      pop\n      jump\t// out\n        /* \"#utility.yul\":6538:6904   */\n    tag_92:\n        /* \"#utility.yul\":6680:6683   */\n      0x00\n        /* \"#utility.yul\":6701:6768   */\n      tag_153\n        /* \"#utility.yul\":6765:6767   */\n      0x21\n        /* \"#utility.yul\":6760:6763   */\n      dup4\n        /* \"#utility.yul\":6701:6768   */\n      tag_84\n      jump\t// in\n    tag_153:\n        /* \"#utility.yul\":6694:6768   */\n      swap2\n      pop\n        /* \"#utility.yul\":6777:6870   */\n      tag_154\n        /* \"#utility.yul\":6866:6869   */\n      dup3\n        /* \"#utility.yul\":6777:6870   */\n      tag_91\n      jump\t// in\n    tag_154:\n        /* \"#utility.yul\":6895:6897   */\n      0x40\n        /* \"#utility.yul\":6890:6893   */\n      dup3\n        /* \"#utility.yul\":6886:6898   */\n      add\n        /* \"#utility.yul\":6879:6898   */\n      swap1\n      pop\n        /* \"#utility.yul\":6538:6904   */\n      swap2\n      swap1\n      pop\n      jump\t// out\n        /* \"#utility.yul\":6910:7329   */\n    tag_68:\n        /* \"#utility.yul\":7076:7080   */\n      0x00\n        /* \"#utility.yul\":7114:7116   */\n      0x20\n        /* \"#utility.yul\":7103:7112   */\n      dup3\n        /* \"#utility.yul\":7099:7117   */\n      add\n        /* \"#utility.yul\":7091:7117   */\n      swap1\n      pop\n        /* \"#utility.yul\":7163:7172   */\n      dup2\n        /* \"#utility.yul\":7157:7161   */\n      dup2\n        /* \"#utility.yul\":7153:7173   */\n      sub\n        /* \"#utility.yul\":7149:7150   */\n      0x00\n        /* \"#utility.yul\":7138:7147   */\n      dup4\n        /* \"#utility.yul\":7134:7151   */\n      add\n        /* \"#utility.yul\":7127:7174   */\n      mstore\n        /* \"#utility.yul\":7191:7322   */\n      tag_156\n        /* \"#utility.yul\":7317:7321   */\n      dup2\n        /* \"#utility.yul\":7191:7322   */\n      tag_92\n      jump\t// in\n    tag_156:\n        /* \"#utility.yul\":7183:7322   */\n      swap1\n      pop\n        /* \"#utility.yul\":6910:7329   */\n      swap2\n      swap1\n      pop\n      jump\t// out\n\n    auxdata: 0xa2646970667358221220965677eaf952bea10619fb42e1348a4c658689b455ebba8c849a7471f6ea3c5764736f6c63430008190033\n}\n",
				"bytecode": {
					"linkReferences": {},
					"object": "6080604052348015600e575f80fd5b506108d88061001c5f395ff3fe608060405260043610610085575f3560e01c8063b564e92611610058578063b564e9261461012d578063d729666214610157578063defd6c5f1461017f578063e2c41dbc146101a9578063e99d2866146101b357610085565b806308551a5314610089578063192e7a7b146100b35780637150d8ae146100db578063a3f09ad614610105575b5f80fd5b348015610094575f80fd5b5061009d6101db565b6040516100aa9190610555565b60405180910390f35b3480156100be575f80fd5b506100d960048036038101906100d4919061059c565b610200565b005b3480156100e6575f80fd5b506100ef6103ed565b6040516100fc9190610555565b60405180910390f35b348015610110575f80fd5b5061012b6004803603810190610126919061059c565b610410565b005b348015610138575f80fd5b50610141610452565b60405161014e91906105e1565b60405180910390f35b348015610162575f80fd5b5061017d6004803603810190610178919061062d565b610464565b005b34801561018a575f80fd5b5061019361046e565b6040516101a09190610667565b60405180910390f35b6101b1610474565b005b3480156101be575f80fd5b506101d960048036038101906101d4919061059c565b6104d3565b005b60015f9054906101000a900473ffffffffffffffffffffffffffffffffffffffff1681565b60015f9054906101000a900473ffffffffffffffffffffffffffffffffffffffff1673ffffffffffffffffffffffffffffffffffffffff163373ffffffffffffffffffffffffffffffffffffffff161461028f576040517f08c379a000000000000000000000000000000000000000000000000000000000815260040161028690610700565b60405180910390fd5b60035f9054906101000a900460ff16156102de576040517f08c379a00000000000000000000000000000000000000000000000000000000081526004016102d590610768565b60405180910390fd5b5f8054906101000a900473ffffffffffffffffffffffffffffffffffffffff1673ffffffffffffffffffffffffffffffffffffffff168173ffffffffffffffffffffffffffffffffffffffff161461036b576040517f08c379a0000000000000000000000000000000000000000000000000000000008152600401610362906107f6565b60405180910390fd5b60015f9054906101000a900473ffffffffffffffffffffffffffffffffffffffff1673ffffffffffffffffffffffffffffffffffffffff166108fc4790811502906040515f60405180830381858888f193505050501580156103cf573d5f803e3d5ffd5b50600160035f6101000a81548160ff02191690831515021790555050565b5f8054906101000a900473ffffffffffffffffffffffffffffffffffffffff1681565b805f806101000a81548173ffffffffffffffffffffffffffffffffffffffff021916908373ffffffffffffffffffffffffffffffffffffffff16021790555050565b60035f9054906101000a900460ff1681565b8060028190555050565b60025481565b60025434146104b8576040517f08c379a00000000000000000000000000000000000000000000000000000000081526004016104af90610884565b60405180910390fd5b5f60035f6101000a81548160ff021916908315150217905550565b8060015f6101000a81548173ffffffffffffffffffffffffffffffffffffffff021916908373ffffffffffffffffffffffffffffffffffffffff16021790555050565b5f73ffffffffffffffffffffffffffffffffffffffff82169050919050565b5f61053f82610516565b9050919050565b61054f81610535565b82525050565b5f6020820190506105685f830184610546565b92915050565b5f80fd5b61057b81610535565b8114610585575f80fd5b50565b5f8135905061059681610572565b92915050565b5f602082840312156105b1576105b061056e565b5b5f6105be84828501610588565b91505092915050565b5f8115159050919050565b6105db816105c7565b82525050565b5f6020820190506105f45f8301846105d2565b92915050565b5f819050919050565b61060c816105fa565b8114610616575f80fd5b50565b5f8135905061062781610603565b92915050565b5f602082840312156106425761064161056e565b5b5f61064f84828501610619565b91505092915050565b610661816105fa565b82525050565b5f60208201905061067a5f830184610658565b92915050565b5f82825260208201905092915050565b7f4f6e6c792073656c6c65722063616e2063616c6c20746869732066756e6374695f8201527f6f6e000000000000000000000000000000000000000000000000000000000000602082015250565b5f6106ea602283610680565b91506106f582610690565b604082019050919050565b5f6020820190508181035f830152610717816106de565b9050919050565b7f46756e647320616c72656164792072656c6561736564000000000000000000005f82015250565b5f610752601683610680565b915061075d8261071e565b602082019050919050565b5f6020820190508181035f83015261077f81610746565b9050919050565b7f4f776e657273686970206d757374206265207472616e7366657272656420746f5f8201527f2062757965720000000000000000000000000000000000000000000000000000602082015250565b5f6107e0602683610680565b91506107eb82610786565b604082019050919050565b5f6020820190508181035f83015261080d816107d4565b9050919050565b7f4465706f736974206d757374206d6174636820707572636861736520707269635f8201527f6500000000000000000000000000000000000000000000000000000000000000602082015250565b5f61086e602183610680565b915061087982610814565b604082019050919050565b5f6020820190508181035f83015261089b81610862565b905091905056fea2646970667358221220965677eaf952bea10619fb42e1348a4c658689b455ebba8c849a7471f6ea3c5764736f6c63430008190033",
					"opcodes": "PUSH1 0x80 PUSH1 0x40 MSTORE CALLVALUE DUP1 ISZERO PUSH1 0xE JUMPI PUSH0 DUP1 REVERT JUMPDEST POP PUSH2 0x8D8 DUP1 PUSH2 0x1C PUSH0 CODECOPY PUSH0 RETURN INVALID PUSH1 0x80 PUSH1 0x40 MSTORE PUSH1 0x4 CALLDATASIZE LT PUSH2 0x85 JUMPI PUSH0 CALLDATALOAD PUSH1 0xE0 SHR DUP1 PUSH4 0xB564E926 GT PUSH2 0x58 JUMPI DUP1 PUSH4 0xB564E926 EQ PUSH2 0x12D JUMPI DUP1 PUSH4 0xD7296662 EQ PUSH2 0x157 JUMPI DUP1 PUSH4 0xDEFD6C5F EQ PUSH2 0x17F JUMPI DUP1 PUSH4 0xE2C41DBC EQ PUSH2 0x1A9 JUMPI DUP1 PUSH4 0xE99D2866 EQ PUSH2 0x1B3 JUMPI PUSH2 0x85 JUMP JUMPDEST DUP1 PUSH4 0x8551A53 EQ PUSH2 0x89 JUMPI DUP1 PUSH4 0x192E7A7B EQ PUSH2 0xB3 JUMPI DUP1 PUSH4 0x7150D8AE EQ PUSH2 0xDB JUMPI DUP1 PUSH4 0xA3F09AD6 EQ PUSH2 0x105 JUMPI JUMPDEST PUSH0 DUP1 REVERT JUMPDEST CALLVALUE DUP1 ISZERO PUSH2 0x94 JUMPI PUSH0 DUP1 REVERT JUMPDEST POP PUSH2 0x9D PUSH2 0x1DB JUMP JUMPDEST PUSH1 0x40 MLOAD PUSH2 0xAA SWAP2 SWAP1 PUSH2 0x555 JUMP JUMPDEST PUSH1 0x40 MLOAD DUP1 SWAP2 SUB SWAP1 RETURN JUMPDEST CALLVALUE DUP1 ISZERO PUSH2 0xBE JUMPI PUSH0 DUP1 REVERT JUMPDEST POP PUSH2 0xD9 PUSH1 0x4 DUP1 CALLDATASIZE SUB DUP2 ADD SWAP1 PUSH2 0xD4 SWAP2 SWAP1 PUSH2 0x59C JUMP JUMPDEST PUSH2 0x200 JUMP JUMPDEST STOP JUMPDEST CALLVALUE DUP1 ISZERO PUSH2 0xE6 JUMPI PUSH0 DUP1 REVERT JUMPDEST POP PUSH2 0xEF PUSH2 0x3ED JUMP JUMPDEST PUSH1 0x40 MLOAD PUSH2 0xFC SWAP2 SWAP1 PUSH2 0x555 JUMP JUMPDEST PUSH1 0x40 MLOAD DUP1 SWAP2 SUB SWAP1 RETURN JUMPDEST CALLVALUE DUP1 ISZERO PUSH2 0x110 JUMPI PUSH0 DUP1 REVERT JUMPDEST POP PUSH2 0x12B PUSH1 0x4 DUP1 CALLDATASIZE SUB DUP2 ADD SWAP1 PUSH2 0x126 SWAP2 SWAP1 PUSH2 0x59C JUMP JUMPDEST PUSH2 0x410 JUMP JUMPDEST STOP JUMPDEST CALLVALUE DUP1 ISZERO PUSH2 0x138 JUMPI PUSH0 DUP1 REVERT JUMPDEST POP PUSH2 0x141 PUSH2 0x452 JUMP JUMPDEST PUSH1 0x40 MLOAD PUSH2 0x14E SWAP2 SWAP1 PUSH2 0x5E1 JUMP JUMPDEST PUSH1 0x40 MLOAD DUP1 SWAP2 SUB SWAP1 RETURN JUMPDEST CALLVALUE DUP1 ISZERO PUSH2 0x162 JUMPI PUSH0 DUP1 REVERT JUMPDEST POP PUSH2 0x17D PUSH1 0x4 DUP1 CALLDATASIZE SUB DUP2 ADD SWAP1 PUSH2 0x178 SWAP2 SWAP1 PUSH2 0x62D JUMP JUMPDEST PUSH2 0x464 JUMP JUMPDEST STOP JUMPDEST CALLVALUE DUP1 ISZERO PUSH2 0x18A JUMPI PUSH0 DUP1 REVERT JUMPDEST POP PUSH2 0x193 PUSH2 0x46E JUMP JUMPDEST PUSH1 0x40 MLOAD PUSH2 0x1A0 SWAP2 SWAP1 PUSH2 0x667 JUMP JUMPDEST PUSH1 0x40 MLOAD DUP1 SWAP2 SUB SWAP1 RETURN JUMPDEST PUSH2 0x1B1 PUSH2 0x474 JUMP JUMPDEST STOP JUMPDEST CALLVALUE DUP1 ISZERO PUSH2 0x1BE JUMPI PUSH0 DUP1 REVERT JUMPDEST POP PUSH2 0x1D9 PUSH1 0x4 DUP1 CALLDATASIZE SUB DUP2 ADD SWAP1 PUSH2 0x1D4 SWAP2 SWAP1 PUSH2 0x59C JUMP JUMPDEST PUSH2 0x4D3 JUMP JUMPDEST STOP JUMPDEST PUSH1 0x1 PUSH0 SWAP1 SLOAD SWAP1 PUSH2 0x100 EXP SWAP1 DIV PUSH20 0xFFFFFFFFFFFFFFFFFFFFFFFFFFFFFFFFFFFFFFFF AND DUP2 JUMP JUMPDEST PUSH1 0x1 PUSH0 SWAP1 SLOAD SWAP1 PUSH2 0x100 EXP SWAP1 DIV PUSH20 0xFFFFFFFFFFFFFFFFFFFFFFFFFFFFFFFFFFFFFFFF AND PUSH20 0xFFFFFFFFFFFFFFFFFFFFFFFFFFFFFFFFFFFFFFFF AND CALLER PUSH20 0xFFFFFFFFFFFFFFFFFFFFFFFFFFFFFFFFFFFFFFFF AND EQ PUSH2 0x28F JUMPI PUSH1 0x40 MLOAD PUSH32 0x8C379A000000000000000000000000000000000000000000000000000000000 DUP2 MSTORE PUSH1 0x4 ADD PUSH2 0x286 SWAP1 PUSH2 0x700 JUMP JUMPDEST PUSH1 0x40 MLOAD DUP1 SWAP2 SUB SWAP1 REVERT JUMPDEST PUSH1 0x3 PUSH0 SWAP1 SLOAD SWAP1 PUSH2 0x100 EXP SWAP1 DIV PUSH1 0xFF AND ISZERO PUSH2 0x2DE JUMPI PUSH1 0x40 MLOAD PUSH32 0x8C379A000000000000000000000000000000000000000000000000000000000 DUP2 MSTORE PUSH1 0x4 ADD PUSH2 0x2D5 SWAP1 PUSH2 0x768 JUMP JUMPDEST PUSH1 0x40 MLOAD DUP1 SWAP2 SUB SWAP1 REVERT JUMPDEST PUSH0 DUP1 SLOAD SWAP1 PUSH2 0x100 EXP SWAP1 DIV PUSH20 0xFFFFFFFFFFFFFFFFFFFFFFFFFFFFFFFFFFFFFFFF AND PUSH20 0xFFFFFFFFFFFFFFFFFFFFFFFFFFFFFFFFFFFFFFFF AND DUP2 PUSH20 0xFFFFFFFFFFFFFFFFFFFFFFFFFFFFFFFFFFFFFFFF AND EQ PUSH2 0x36B JUMPI PUSH1 0x40 MLOAD PUSH32 0x8C379A000000000000000000000000000000000000000000000000000000000 DUP2 MSTORE PUSH1 0x4 ADD PUSH2 0x362 SWAP1 PUSH2 0x7F6 JUMP JUMPDEST PUSH1 0x40 MLOAD DUP1 SWAP2 SUB SWAP1 REVERT JUMPDEST PUSH1 0x1 PUSH0 SWAP1 SLOAD SWAP1 PUSH2 0x100 EXP SWAP1 DIV PUSH20 0xFFFFFFFFFFFFFFFFFFFFFFFFFFFFFFFFFFFFFFFF AND PUSH20 0xFFFFFFFFFFFFFFFFFFFFFFFFFFFFFFFFFFFFFFFF AND PUSH2 0x8FC SELFBALANCE SWAP1 DUP2 ISZERO MUL SWAP1 PUSH1 0x40 MLOAD PUSH0 PUSH1 0x40 MLOAD DUP1 DUP4 SUB DUP2 DUP6 DUP9 DUP9 CALL SWAP4 POP POP POP POP ISZERO DUP1 ISZERO PUSH2 0x3CF JUMPI RETURNDATASIZE PUSH0 DUP1 RETURNDATACOPY RETURNDATASIZE PUSH0 REVERT JUMPDEST POP PUSH1 0x1 PUSH1 0x3 PUSH0 PUSH2 0x100 EXP DUP2 SLOAD DUP2 PUSH1 0xFF MUL NOT AND SWAP1 DUP4 ISZERO ISZERO MUL OR SWAP1 SSTORE POP POP JUMP JUMPDEST PUSH0 DUP1 SLOAD SWAP1 PUSH2 0x100 EXP SWAP1 DIV PUSH20 0xFFFFFFFFFFFFFFFFFFFFFFFFFFFFFFFFFFFFFFFF AND DUP2 JUMP JUMPDEST DUP1 PUSH0 DUP1 PUSH2 0x100 EXP DUP2 SLOAD DUP2 PUSH20 0xFFFFFFFFFFFFFFFFFFFFFFFFFFFFFFFFFFFFFFFF MUL NOT AND SWAP1 DUP4 PUSH20 0xFFFFFFFFFFFFFFFFFFFFFFFFFFFFFFFFFFFFFFFF AND MUL OR SWAP1 SSTORE POP POP JUMP JUMPDEST PUSH1 0x3 PUSH0 SWAP1 SLOAD SWAP1 PUSH2 0x100 EXP SWAP1 DIV PUSH1 0xFF AND DUP2 JUMP JUMPDEST DUP1 PUSH1 0x2 DUP2 SWAP1 SSTORE POP POP JUMP JUMPDEST PUSH1 0x2 SLOAD DUP2 JUMP JUMPDEST PUSH1 0x2 SLOAD CALLVALUE EQ PUSH2 0x4B8 JUMPI PUSH1 0x40 MLOAD PUSH32 0x8C379A000000000000000000000000000000000000000000000000000000000 DUP2 MSTORE PUSH1 0x4 ADD PUSH2 0x4AF SWAP1 PUSH2 0x884 JUMP JUMPDEST PUSH1 0x40 MLOAD DUP1 SWAP2 SUB SWAP1 REVERT JUMPDEST PUSH0 PUSH1 0x3 PUSH0 PUSH2 0x100 EXP DUP2 SLOAD DUP2 PUSH1 0xFF MUL NOT AND SWAP1 DUP4 ISZERO ISZERO MUL OR SWAP1 SSTORE POP JUMP JUMPDEST DUP1 PUSH1 0x1 PUSH0 PUSH2 0x100 EXP DUP2 SLOAD DUP2 PUSH20 0xFFFFFFFFFFFFFFFFFFFFFFFFFFFFFFFFFFFFFFFF MUL NOT AND SWAP1 DUP4 PUSH20 0xFFFFFFFFFFFFFFFFFFFFFFFFFFFFFFFFFFFFFFFF AND MUL OR SWAP1 SSTORE POP POP JUMP JUMPDEST PUSH0 PUSH20 0xFFFFFFFFFFFFFFFFFFFFFFFFFFFFFFFFFFFFFFFF DUP3 AND SWAP1 POP SWAP2 SWAP1 POP JUMP JUMPDEST PUSH0 PUSH2 0x53F DUP3 PUSH2 0x516 JUMP JUMPDEST SWAP1 POP SWAP2 SWAP1 POP JUMP JUMPDEST PUSH2 0x54F DUP2 PUSH2 0x535 JUMP JUMPDEST DUP3 MSTORE POP POP JUMP JUMPDEST PUSH0 PUSH1 0x20 DUP3 ADD SWAP1 POP PUSH2 0x568 PUSH0 DUP4 ADD DUP5 PUSH2 0x546 JUMP JUMPDEST SWAP3 SWAP2 POP POP JUMP JUMPDEST PUSH0 DUP1 REVERT JUMPDEST PUSH2 0x57B DUP2 PUSH2 0x535 JUMP JUMPDEST DUP2 EQ PUSH2 0x585 JUMPI PUSH0 DUP1 REVERT JUMPDEST POP JUMP JUMPDEST PUSH0 DUP2 CALLDATALOAD SWAP1 POP PUSH2 0x596 DUP2 PUSH2 0x572 JUMP JUMPDEST SWAP3 SWAP2 POP POP JUMP JUMPDEST PUSH0 PUSH1 0x20 DUP3 DUP5 SUB SLT ISZERO PUSH2 0x5B1 JUMPI PUSH2 0x5B0 PUSH2 0x56E JUMP JUMPDEST JUMPDEST PUSH0 PUSH2 0x5BE DUP5 DUP3 DUP6 ADD PUSH2 0x588 JUMP JUMPDEST SWAP2 POP POP SWAP3 SWAP2 POP POP JUMP JUMPDEST PUSH0 DUP2 ISZERO ISZERO SWAP1 POP SWAP2 SWAP1 POP JUMP JUMPDEST PUSH2 0x5DB DUP2 PUSH2 0x5C7 JUMP JUMPDEST DUP3 MSTORE POP POP JUMP JUMPDEST PUSH0 PUSH1 0x20 DUP3 ADD SWAP1 POP PUSH2 0x5F4 PUSH0 DUP4 ADD DUP5 PUSH2 0x5D2 JUMP JUMPDEST SWAP3 SWAP2 POP POP JUMP JUMPDEST PUSH0 DUP2 SWAP1 POP SWAP2 SWAP1 POP JUMP JUMPDEST PUSH2 0x60C DUP2 PUSH2 0x5FA JUMP JUMPDEST DUP2 EQ PUSH2 0x616 JUMPI PUSH0 DUP1 REVERT JUMPDEST POP JUMP JUMPDEST PUSH0 DUP2 CALLDATALOAD SWAP1 POP PUSH2 0x627 DUP2 PUSH2 0x603 JUMP JUMPDEST SWAP3 SWAP2 POP POP JUMP JUMPDEST PUSH0 PUSH1 0x20 DUP3 DUP5 SUB SLT ISZERO PUSH2 0x642 JUMPI PUSH2 0x641 PUSH2 0x56E JUMP JUMPDEST JUMPDEST PUSH0 PUSH2 0x64F DUP5 DUP3 DUP6 ADD PUSH2 0x619 JUMP JUMPDEST SWAP2 POP POP SWAP3 SWAP2 POP POP JUMP JUMPDEST PUSH2 0x661 DUP2 PUSH2 0x5FA JUMP JUMPDEST DUP3 MSTORE POP POP JUMP JUMPDEST PUSH0 PUSH1 0x20 DUP3 ADD SWAP1 POP PUSH2 0x67A PUSH0 DUP4 ADD DUP5 PUSH2 0x658 JUMP JUMPDEST SWAP3 SWAP2 POP POP JUMP JUMPDEST PUSH0 DUP3 DUP3 MSTORE PUSH1 0x20 DUP3 ADD SWAP1 POP SWAP3 SWAP2 POP POP JUMP JUMPDEST PUSH32 0x4F6E6C792073656C6C65722063616E2063616C6C20746869732066756E637469 PUSH0 DUP3 ADD MSTORE PUSH32 0x6F6E000000000000000000000000000000000000000000000000000000000000 PUSH1 0x20 DUP3 ADD MSTORE POP JUMP JUMPDEST PUSH0 PUSH2 0x6EA PUSH1 0x22 DUP4 PUSH2 0x680 JUMP JUMPDEST SWAP2 POP PUSH2 0x6F5 DUP3 PUSH2 0x690 JUMP JUMPDEST PUSH1 0x40 DUP3 ADD SWAP1 POP SWAP2 SWAP1 POP JUMP JUMPDEST PUSH0 PUSH1 0x20 DUP3 ADD SWAP1 POP DUP2 DUP2 SUB PUSH0 DUP4 ADD MSTORE PUSH2 0x717 DUP2 PUSH2 0x6DE JUMP JUMPDEST SWAP1 POP SWAP2 SWAP1 POP JUMP JUMPDEST PUSH32 0x46756E647320616C72656164792072656C656173656400000000000000000000 PUSH0 DUP3 ADD MSTORE POP JUMP JUMPDEST PUSH0 PUSH2 0x752 PUSH1 0x16 DUP4 PUSH2 0x680 JUMP JUMPDEST SWAP2 POP PUSH2 0x75D DUP3 PUSH2 0x71E JUMP JUMPDEST PUSH1 0x20 DUP3 ADD SWAP1 POP SWAP2 SWAP1 POP JUMP JUMPDEST PUSH0 PUSH1 0x20 DUP3 ADD SWAP1 POP DUP2 DUP2 SUB PUSH0 DUP4 ADD MSTORE PUSH2 0x77F DUP2 PUSH2 0x746 JUMP JUMPDEST SWAP1 POP SWAP2 SWAP1 POP JUMP JUMPDEST PUSH32 0x4F776E657273686970206D757374206265207472616E7366657272656420746F PUSH0 DUP3 ADD MSTORE PUSH32 0x2062757965720000000000000000000000000000000000000000000000000000 PUSH1 0x20 DUP3 ADD MSTORE POP JUMP JUMPDEST PUSH0 PUSH2 0x7E0 PUSH1 0x26 DUP4 PUSH2 0x680 JUMP JUMPDEST SWAP2 POP PUSH2 0x7EB DUP3 PUSH2 0x786 JUMP JUMPDEST PUSH1 0x40 DUP3 ADD SWAP1 POP SWAP2 SWAP1 POP JUMP JUMPDEST PUSH0 PUSH1 0x20 DUP3 ADD SWAP1 POP DUP2 DUP2 SUB PUSH0 DUP4 ADD MSTORE PUSH2 0x80D DUP2 PUSH2 0x7D4 JUMP JUMPDEST SWAP1 POP SWAP2 SWAP1 POP JUMP JUMPDEST PUSH32 0x4465706F736974206D757374206D617463682070757263686173652070726963 PUSH0 DUP3 ADD MSTORE PUSH32 0x6500000000000000000000000000000000000000000000000000000000000000 PUSH1 0x20 DUP3 ADD MSTORE POP JUMP JUMPDEST PUSH0 PUSH2 0x86E PUSH1 0x21 DUP4 PUSH2 0x680 JUMP JUMPDEST SWAP2 POP PUSH2 0x879 DUP3 PUSH2 0x814 JUMP JUMPDEST PUSH1 0x40 DUP3 ADD SWAP1 POP SWAP2 SWAP1 POP JUMP JUMPDEST PUSH0 PUSH1 0x20 DUP3 ADD SWAP1 POP DUP2 DUP2 SUB PUSH0 DUP4 ADD MSTORE PUSH2 0x89B DUP2 PUSH2 0x862 JUMP JUMPDEST SWAP1 POP SWAP2 SWAP1 POP JUMP INVALID LOG2 PUSH5 0x6970667358 0x22 SLT KECCAK256 SWAP7 JUMP PUSH24 0xEAF952BEA10619FB42E1348A4C658689B455EBBA8C849A74 PUSH18 0xF6EA3C5764736F6C63430008190033000000 "
				},
				"gasEstimates": {
					"creation": {
						"codeDepositCost": "452800",
						"executionCost": "484",
						"totalCost": "453284"
					},
					"external": {
						"buyer()": "2550",
						"depositFunds()": "26572",
						"fundsReleased()": "2466",
						"purchasePrice()": "2469",
						"releaseFunds(address)": "infinite",
						"seller()": "2509",
						"setBuyer(address)": "24782",
						"setPurchasePrice(uint256)": "22537",
						"setSeller(address)": "24803"
					}
				},
				"methodIdentifiers": {
					"buyer()": "7150d8ae",
					"depositFunds()": "e2c41dbc",
					"fundsReleased()": "b564e926",
					"purchasePrice()": "defd6c5f",
					"releaseFunds(address)": "192e7a7b",
					"seller()": "08551a53",
					"setBuyer(address)": "a3f09ad6",
					"setPurchasePrice(uint256)": "d7296662",
					"setSeller(address)": "e99d2866"
				}
			},
			"storageLayout": {
				"storage": [
					{
						"astId": 3,
						"contract": "Smart contracts/SC3.sol:HouseEscrow",
						"label": "buyer",
						"offset": 0,
						"slot": "0",
						"type": "t_address_payable"
					},
					{
						"astId": 5,
						"contract": "Smart contracts/SC3.sol:HouseEscrow",
						"label": "seller",
						"offset": 0,
						"slot": "1",
						"type": "t_address_payable"
					},
					{
						"astId": 7,
						"contract": "Smart contracts/SC3.sol:HouseEscrow",
						"label": "purchasePrice",
						"offset": 0,
						"slot": "2",
						"type": "t_uint256"
					},
					{
						"astId": 9,
						"contract": "Smart contracts/SC3.sol:HouseEscrow",
						"label": "fundsReleased",
						"offset": 0,
						"slot": "3",
						"type": "t_bool"
					}
				],
				"types": {
					"t_address_payable": {
						"encoding": "inplace",
						"label": "address payable",
						"numberOfBytes": "20"
					},
					"t_bool": {
						"encoding": "inplace",
						"label": "bool",
						"numberOfBytes": "1"
					},
					"t_uint256": {
						"encoding": "inplace",
						"label": "uint256",
						"numberOfBytes": "32"
					}
				}
			},
			"userdoc": {
				"kind": "user",
				"methods": {},
				"version": 1
			}
		}
	}
}