{
	"Smart contracts/SC2.sol": {
		"SupplyChain": {
			"abi": [
				{
					"anonymous": false,
					"inputs": [
						{
							"indexed": false,
							"internalType": "uint256",
							"name": "productId",
							"type": "uint256"
						},
						{
							"indexed": false,
							"internalType": "address",
							"name": "owner",
							"type": "address"
						}
					],
					"name": "ProductRegistered",
					"type": "event"
				},
				{
					"inputs": [
						{
							"internalType": "uint256",
							"name": "",
							"type": "uint256"
						}
					],
					"name": "products",
					"outputs": [
						{
							"internalType": "uint256",
							"name": "productId",
							"type": "uint256"
						},
						{
							"internalType": "address payable",
							"name": "owner",
							"type": "address"
						},
						{
							"internalType": "enum SupplyChain.Stage",
							"name": "currentStage",
							"type": "uint8"
						}
					],
					"stateMutability": "view",
					"type": "function"
				},
				{
					"inputs": [
						{
							"internalType": "bytes32[]",
							"name": "_iniData",
							"type": "bytes32[]"
						}
					],
					"name": "registerProduct",
					"outputs": [],
					"stateMutability": "nonpayable",
					"type": "function"
				},
				{
					"inputs": [
						{
							"internalType": "uint256",
							"name": "_productId",
							"type": "uint256"
						},
						{
							"internalType": "address payable",
							"name": "_newOwner",
							"type": "address"
						}
					],
					"name": "transferOwnership",
					"outputs": [],
					"stateMutability": "nonpayable",
					"type": "function"
				},
				{
					"inputs": [
						{
							"internalType": "uint256",
							"name": "_productId",
							"type": "uint256"
						},
						{
							"internalType": "enum SupplyChain.Stage",
							"name": "_stage",
							"type": "uint8"
						},
						{
							"internalType": "bytes32",
							"name": "_data",
							"type": "bytes32"
						}
					],
					"name": "updateProductData",
					"outputs": [],
					"stateMutability": "nonpayable",
					"type": "function"
				}
			],
			"devdoc": {
				"kind": "dev",
				"methods": {},
				"version": 1
			},
			"evm": {
				"assembly": "    /* \"Smart contracts/SC2.sol\":59:1634  contract SupplyChain {... */\n  mstore(0x40, 0x80)\n  callvalue\n  dup1\n  iszero\n  tag_1\n  jumpi\n  0x00\n  dup1\n  revert\ntag_1:\n  pop\n  dataSize(sub_0)\n  dup1\n  dataOffset(sub_0)\n  0x00\n  codecopy\n  0x00\n  return\nstop\n\nsub_0: assembly {\n        /* \"Smart contracts/SC2.sol\":59:1634  contract SupplyChain {... */\n      mstore(0x40, 0x80)\n      callvalue\n      dup1\n      iszero\n      tag_1\n      jumpi\n      0x00\n      dup1\n      revert\n    tag_1:\n      pop\n      jumpi(tag_2, lt(calldatasize, 0x04))\n      shr(0xe0, calldataload(0x00))\n      dup1\n      0x29507f73\n      eq\n      tag_3\n      jumpi\n      dup1\n      0x7acc0b20\n      eq\n      tag_4\n      jumpi\n      dup1\n      0xdad14530\n      eq\n      tag_5\n      jumpi\n      dup1\n      0xdc23fb5d\n      eq\n      tag_6\n      jumpi\n    tag_2:\n      0x00\n      dup1\n      revert\n        /* \"Smart contracts/SC2.sol\":1370:1632  function transferOwnership(uint256 _productId, address payable _newOwner) public {... */\n    tag_3:\n      tag_7\n      0x04\n      dup1\n      calldatasize\n      sub\n      dup2\n      add\n      swap1\n      tag_8\n      swap2\n      swap1\n      tag_9\n      jump\t// in\n    tag_8:\n      tag_10\n      jump\t// in\n    tag_7:\n      stop\n        /* \"Smart contracts/SC2.sol\":317:360  mapping(uint256 => Product) public products */\n    tag_4:\n      tag_11\n      0x04\n      dup1\n      calldatasize\n      sub\n      dup2\n      add\n      swap1\n      tag_12\n      swap2\n      swap1\n      tag_13\n      jump\t// in\n    tag_12:\n      tag_14\n      jump\t// in\n    tag_11:\n      mload(0x40)\n      tag_15\n      swap4\n      swap3\n      swap2\n      swap1\n      tag_16\n      jump\t// in\n    tag_15:\n      mload(0x40)\n      dup1\n      swap2\n      sub\n      swap1\n      return\n        /* \"Smart contracts/SC2.sol\":431:958  function registerProduct(bytes32[] memory _iniData) public {... */\n    tag_5:\n      tag_17\n      0x04\n      dup1\n      calldatasize\n      sub\n      dup2\n      add\n      swap1\n      tag_18\n      swap2\n      swap1\n      tag_19\n      jump\t// in\n    tag_18:\n      tag_20\n      jump\t// in\n    tag_17:\n      stop\n        /* \"Smart contracts/SC2.sol\":964:1364  function updateProductData(uint256 _productId, Stage _stage, bytes32 _data) public {... */\n    tag_6:\n      tag_21\n      0x04\n      dup1\n      calldatasize\n      sub\n      dup2\n      add\n      swap1\n      tag_22\n      swap2\n      swap1\n      tag_23\n      jump\t// in\n    tag_22:\n      tag_24\n      jump\t// in\n    tag_21:\n      stop\n        /* \"Smart contracts/SC2.sol\":1370:1632  function transferOwnership(uint256 _productId, address payable _newOwner) public {... */\n    tag_10:\n        /* \"Smart contracts/SC2.sol\":1461:1484  Product storage product */\n      0x00\n        /* \"Smart contracts/SC2.sol\":1487:1495  products */\n      dup1\n        /* \"Smart contracts/SC2.sol\":1487:1507  products[_productId] */\n      0x00\n        /* \"Smart contracts/SC2.sol\":1496:1506  _productId */\n      dup5\n        /* \"Smart contracts/SC2.sol\":1487:1507  products[_productId] */\n      dup2\n      mstore\n      0x20\n      add\n      swap1\n      dup2\n      mstore\n      0x20\n      add\n      0x00\n      keccak256\n        /* \"Smart contracts/SC2.sol\":1461:1507  Product storage product = products[_productId] */\n      swap1\n      pop\n        /* \"Smart contracts/SC2.sol\":1542:1552  msg.sender */\n      caller\n        /* \"Smart contracts/SC2.sol\":1525:1552  product.owner == msg.sender */\n      0xffffffffffffffffffffffffffffffffffffffff\n      and\n        /* \"Smart contracts/SC2.sol\":1525:1532  product */\n      dup2\n        /* \"Smart contracts/SC2.sol\":1525:1538  product.owner */\n      0x01\n      add\n      0x00\n      swap1\n      sload\n      swap1\n      0x0100\n      exp\n      swap1\n      div\n      0xffffffffffffffffffffffffffffffffffffffff\n      and\n        /* \"Smart contracts/SC2.sol\":1525:1552  product.owner == msg.sender */\n      0xffffffffffffffffffffffffffffffffffffffff\n      and\n      eq\n        /* \"Smart contracts/SC2.sol\":1517:1590  require(product.owner == msg.sender, \"Only owner can transfer ownership\") */\n      tag_26\n      jumpi\n      mload(0x40)\n      0x08c379a000000000000000000000000000000000000000000000000000000000\n      dup2\n      mstore\n      0x04\n      add\n      tag_27\n      swap1\n      tag_28\n      jump\t// in\n    tag_27:\n      mload(0x40)\n      dup1\n      swap2\n      sub\n      swap1\n      revert\n    tag_26:\n        /* \"Smart contracts/SC2.sol\":1616:1625  _newOwner */\n      dup2\n        /* \"Smart contracts/SC2.sol\":1600:1607  product */\n      dup2\n        /* \"Smart contracts/SC2.sol\":1600:1613  product.owner */\n      0x01\n      add\n      0x00\n        /* \"Smart contracts/SC2.sol\":1600:1625  product.owner = _newOwner */\n      0x0100\n      exp\n      dup2\n      sload\n      dup2\n      0xffffffffffffffffffffffffffffffffffffffff\n      mul\n      not\n      and\n      swap1\n      dup4\n      0xffffffffffffffffffffffffffffffffffffffff\n      and\n      mul\n      or\n      swap1\n      sstore\n      pop\n        /* \"Smart contracts/SC2.sol\":1451:1632  {... */\n      pop\n        /* \"Smart contracts/SC2.sol\":1370:1632  function transferOwnership(uint256 _productId, address payable _newOwner) public {... */\n      pop\n      pop\n      jump\t// out\n        /* \"Smart contracts/SC2.sol\":317:360  mapping(uint256 => Product) public products */\n    tag_14:\n      mstore(0x20, 0x00)\n      dup1\n      0x00\n      mstore\n      keccak256(0x00, 0x40)\n      0x00\n      swap2\n      pop\n      swap1\n      pop\n      dup1\n      0x00\n      add\n      sload\n      swap1\n      dup1\n      0x01\n      add\n      0x00\n      swap1\n      sload\n      swap1\n      0x0100\n      exp\n      swap1\n      div\n      0xffffffffffffffffffffffffffffffffffffffff\n      and\n      swap1\n      dup1\n      0x01\n      add\n      0x14\n      swap1\n      sload\n      swap1\n      0x0100\n      exp\n      swap1\n      div\n      0xff\n      and\n      swap1\n      pop\n      dup4\n      jump\t// out\n        /* \"Smart contracts/SC2.sol\":431:958  function registerProduct(bytes32[] memory _iniData) public {... */\n    tag_20:\n        /* \"Smart contracts/SC2.sol\":500:517  uint256 productId */\n      0x00\n        /* \"Smart contracts/SC2.sol\":555:570  block.timestamp */\n      timestamp\n        /* \"Smart contracts/SC2.sol\":572:582  msg.sender */\n      caller\n        /* \"Smart contracts/SC2.sol\":584:592  _iniData */\n      dup4\n        /* \"Smart contracts/SC2.sol\":538:593  abi.encodePacked(block.timestamp, msg.sender, _iniData) */\n      add(0x20, mload(0x40))\n      tag_30\n      swap4\n      swap3\n      swap2\n      swap1\n      tag_31\n      jump\t// in\n    tag_30:\n      mload(0x40)\n      0x20\n      dup2\n      dup4\n      sub\n      sub\n      dup2\n      mstore\n      swap1\n      0x40\n      mstore\n        /* \"Smart contracts/SC2.sol\":528:594  keccak256(abi.encodePacked(block.timestamp, msg.sender, _iniData)) */\n      dup1\n      mload\n      swap1\n      0x20\n      add\n      keccak256\n        /* \"Smart contracts/SC2.sol\":520:595  uint256(keccak256(abi.encodePacked(block.timestamp, msg.sender, _iniData))) */\n      0x00\n      shr\n        /* \"Smart contracts/SC2.sol\":500:595  uint256 productId = uint256(keccak256(abi.encodePacked(block.timestamp, msg.sender, _iniData))) */\n      swap1\n      pop\n        /* \"Smart contracts/SC2.sol\":605:628  Product storage product */\n      0x00\n        /* \"Smart contracts/SC2.sol\":631:639  products */\n      dup1\n        /* \"Smart contracts/SC2.sol\":631:650  products[productId] */\n      0x00\n        /* \"Smart contracts/SC2.sol\":640:649  productId */\n      dup4\n        /* \"Smart contracts/SC2.sol\":631:650  products[productId] */\n      dup2\n      mstore\n      0x20\n      add\n      swap1\n      dup2\n      mstore\n      0x20\n      add\n      0x00\n      keccak256\n        /* \"Smart contracts/SC2.sol\":605:650  Product storage product = products[productId] */\n      swap1\n      pop\n        /* \"Smart contracts/SC2.sol\":680:689  productId */\n      dup2\n        /* \"Smart contracts/SC2.sol\":660:667  product */\n      dup2\n        /* \"Smart contracts/SC2.sol\":660:677  product.productId */\n      0x00\n      add\n        /* \"Smart contracts/SC2.sol\":660:689  product.productId = productId */\n      dup2\n      swap1\n      sstore\n      pop\n        /* \"Smart contracts/SC2.sol\":723:733  msg.sender */\n      caller\n        /* \"Smart contracts/SC2.sol\":699:706  product */\n      dup2\n        /* \"Smart contracts/SC2.sol\":699:712  product.owner */\n      0x01\n      add\n      0x00\n        /* \"Smart contracts/SC2.sol\":699:734  product.owner = payable(msg.sender) */\n      0x0100\n      exp\n      dup2\n      sload\n      dup2\n      0xffffffffffffffffffffffffffffffffffffffff\n      mul\n      not\n      and\n      swap1\n      dup4\n      0xffffffffffffffffffffffffffffffffffffffff\n      and\n      mul\n      or\n      swap1\n      sstore\n      pop\n        /* \"Smart contracts/SC2.sol\":767:782  Stage.Harvested */\n      0x00\n        /* \"Smart contracts/SC2.sol\":744:751  product */\n      dup2\n        /* \"Smart contracts/SC2.sol\":744:764  product.currentStage */\n      0x01\n      add\n      0x14\n        /* \"Smart contracts/SC2.sol\":744:782  product.currentStage = Stage.Harvested */\n      0x0100\n      exp\n      dup2\n      sload\n      dup2\n      0xff\n      mul\n      not\n      and\n      swap1\n      dup4\n      0x04\n      dup2\n      gt\n      iszero\n      tag_32\n      jumpi\n      tag_33\n      tag_34\n      jump\t// in\n    tag_33:\n    tag_32:\n      mul\n      or\n      swap1\n      sstore\n      pop\n        /* \"Smart contracts/SC2.sol\":797:804  uint8 i */\n      0x00\n        /* \"Smart contracts/SC2.sol\":792:897  for (uint8 i = 0; i < uint8(_iniData.length); i++) {... */\n    tag_35:\n        /* \"Smart contracts/SC2.sol\":820:828  _iniData */\n      dup4\n        /* \"Smart contracts/SC2.sol\":820:835  _iniData.length */\n      mload\n        /* \"Smart contracts/SC2.sol\":810:836  i < uint8(_iniData.length) */\n      0xff\n      and\n        /* \"Smart contracts/SC2.sol\":810:811  i */\n      dup2\n        /* \"Smart contracts/SC2.sol\":810:836  i < uint8(_iniData.length) */\n      0xff\n      and\n      lt\n        /* \"Smart contracts/SC2.sol\":792:897  for (uint8 i = 0; i < uint8(_iniData.length); i++) {... */\n      iszero\n      tag_36\n      jumpi\n        /* \"Smart contracts/SC2.sol\":875:883  _iniData */\n      dup4\n        /* \"Smart contracts/SC2.sol\":884:885  i */\n      dup2\n        /* \"Smart contracts/SC2.sol\":875:886  _iniData[i] */\n      0xff\n      and\n      dup2\n      mload\n      dup2\n      lt\n      tag_38\n      jumpi\n      tag_39\n      tag_40\n      jump\t// in\n    tag_39:\n    tag_38:\n      0x20\n      mul\n      0x20\n      add\n      add\n      mload\n        /* \"Smart contracts/SC2.sol\":857:864  product */\n      dup3\n        /* \"Smart contracts/SC2.sol\":857:869  product.data */\n      0x02\n      add\n        /* \"Smart contracts/SC2.sol\":857:872  product.data[i] */\n      0x00\n        /* \"Smart contracts/SC2.sol\":870:871  i */\n      dup4\n        /* \"Smart contracts/SC2.sol\":857:872  product.data[i] */\n      0xff\n      and\n      0xff\n      and\n      dup2\n      mstore\n      0x20\n      add\n      swap1\n      dup2\n      mstore\n      0x20\n      add\n      0x00\n      keccak256\n        /* \"Smart contracts/SC2.sol\":857:886  product.data[i] = _iniData[i] */\n      dup2\n      swap1\n      sstore\n      pop\n        /* \"Smart contracts/SC2.sol\":838:841  i++ */\n      dup1\n      dup1\n      0x01\n      add\n      swap2\n      pop\n      pop\n        /* \"Smart contracts/SC2.sol\":792:897  for (uint8 i = 0; i < uint8(_iniData.length); i++) {... */\n      jump(tag_35)\n    tag_36:\n      pop\n        /* \"Smart contracts/SC2.sol\":911:951  ProductRegistered(productId, msg.sender) */\n      0x73e014c0a076665d9511a27e878fadccb6d7171f5754ba1167a670023760b015\n        /* \"Smart contracts/SC2.sol\":929:938  productId */\n      dup3\n        /* \"Smart contracts/SC2.sol\":940:950  msg.sender */\n      caller\n        /* \"Smart contracts/SC2.sol\":911:951  ProductRegistered(productId, msg.sender) */\n      mload(0x40)\n      tag_41\n      swap3\n      swap2\n      swap1\n      tag_42\n      jump\t// in\n    tag_41:\n      mload(0x40)\n      dup1\n      swap2\n      sub\n      swap1\n      log1\n        /* \"Smart contracts/SC2.sol\":490:958  {... */\n      pop\n      pop\n        /* \"Smart contracts/SC2.sol\":431:958  function registerProduct(bytes32[] memory _iniData) public {... */\n      pop\n      jump\t// out\n        /* \"Smart contracts/SC2.sol\":964:1364  function updateProductData(uint256 _productId, Stage _stage, bytes32 _data) public {... */\n    tag_24:\n        /* \"Smart contracts/SC2.sol\":1057:1080  Product storage product */\n      0x00\n        /* \"Smart contracts/SC2.sol\":1083:1091  products */\n      dup1\n        /* \"Smart contracts/SC2.sol\":1083:1103  products[_productId] */\n      0x00\n        /* \"Smart contracts/SC2.sol\":1092:1102  _productId */\n      dup6\n        /* \"Smart contracts/SC2.sol\":1083:1103  products[_productId] */\n      dup2\n      mstore\n      0x20\n      add\n      swap1\n      dup2\n      mstore\n      0x20\n      add\n      0x00\n      keccak256\n        /* \"Smart contracts/SC2.sol\":1057:1103  Product storage product = products[_productId] */\n      swap1\n      pop\n        /* \"Smart contracts/SC2.sol\":1138:1148  msg.sender */\n      caller\n        /* \"Smart contracts/SC2.sol\":1121:1148  product.owner == msg.sender */\n      0xffffffffffffffffffffffffffffffffffffffff\n      and\n        /* \"Smart contracts/SC2.sol\":1121:1128  product */\n      dup2\n        /* \"Smart contracts/SC2.sol\":1121:1134  product.owner */\n      0x01\n      add\n      0x00\n      swap1\n      sload\n      swap1\n      0x0100\n      exp\n      swap1\n      div\n      0xffffffffffffffffffffffffffffffffffffffff\n      and\n        /* \"Smart contracts/SC2.sol\":1121:1148  product.owner == msg.sender */\n      0xffffffffffffffffffffffffffffffffffffffff\n      and\n      eq\n        /* \"Smart contracts/SC2.sol\":1113:1179  require(product.owner == msg.sender, \"Only owner can update data\") */\n      tag_44\n      jumpi\n      mload(0x40)\n      0x08c379a000000000000000000000000000000000000000000000000000000000\n      dup2\n      mstore\n      0x04\n      add\n      tag_45\n      swap1\n      tag_46\n      jump\t// in\n    tag_45:\n      mload(0x40)\n      dup1\n      swap2\n      sub\n      swap1\n      revert\n    tag_44:\n        /* \"Smart contracts/SC2.sol\":1237:1243  _stage */\n      dup3\n        /* \"Smart contracts/SC2.sol\":1229:1244  uint256(_stage) */\n      0x04\n      dup2\n      gt\n      iszero\n      tag_47\n      jumpi\n      tag_48\n      tag_34\n      jump\t// in\n    tag_48:\n    tag_47:\n        /* \"Smart contracts/SC2.sol\":1205:1212  product */\n      dup2\n        /* \"Smart contracts/SC2.sol\":1205:1225  product.currentStage */\n      0x01\n      add\n      0x14\n      swap1\n      sload\n      swap1\n      0x0100\n      exp\n      swap1\n      div\n      0xff\n      and\n        /* \"Smart contracts/SC2.sol\":1197:1226  uint256(product.currentStage) */\n      0x04\n      dup2\n      gt\n      iszero\n      tag_49\n      jumpi\n      tag_50\n      tag_34\n      jump\t// in\n    tag_50:\n    tag_49:\n        /* \"Smart contracts/SC2.sol\":1197:1244  uint256(product.currentStage) < uint256(_stage) */\n      lt\n        /* \"Smart contracts/SC2.sol\":1189:1273  require(uint256(product.currentStage) < uint256(_stage), \"Invalid stage transition\") */\n      tag_51\n      jumpi\n      mload(0x40)\n      0x08c379a000000000000000000000000000000000000000000000000000000000\n      dup2\n      mstore\n      0x04\n      add\n      tag_52\n      swap1\n      tag_53\n      jump\t// in\n    tag_52:\n      mload(0x40)\n      dup1\n      swap2\n      sub\n      swap1\n      revert\n    tag_51:\n        /* \"Smart contracts/SC2.sol\":1313:1318  _data */\n      dup2\n        /* \"Smart contracts/SC2.sol\":1283:1290  product */\n      dup2\n        /* \"Smart contracts/SC2.sol\":1283:1295  product.data */\n      0x02\n      add\n        /* \"Smart contracts/SC2.sol\":1283:1310  product.data[uint8(_stage)] */\n      0x00\n        /* \"Smart contracts/SC2.sol\":1302:1308  _stage */\n      dup6\n        /* \"Smart contracts/SC2.sol\":1296:1309  uint8(_stage) */\n      0x04\n      dup2\n      gt\n      iszero\n      tag_54\n      jumpi\n      tag_55\n      tag_34\n      jump\t// in\n    tag_55:\n    tag_54:\n        /* \"Smart contracts/SC2.sol\":1283:1310  product.data[uint8(_stage)] */\n      0xff\n      and\n      0xff\n      and\n      dup2\n      mstore\n      0x20\n      add\n      swap1\n      dup2\n      mstore\n      0x20\n      add\n      0x00\n      keccak256\n        /* \"Smart contracts/SC2.sol\":1283:1318  product.data[uint8(_stage)] = _data */\n      dup2\n      swap1\n      sstore\n      pop\n        /* \"Smart contracts/SC2.sol\":1351:1357  _stage */\n      dup3\n        /* \"Smart contracts/SC2.sol\":1328:1335  product */\n      dup2\n        /* \"Smart contracts/SC2.sol\":1328:1348  product.currentStage */\n      0x01\n      add\n      0x14\n        /* \"Smart contracts/SC2.sol\":1328:1357  product.currentStage = _stage */\n      0x0100\n      exp\n      dup2\n      sload\n      dup2\n      0xff\n      mul\n      not\n      and\n      swap1\n      dup4\n      0x04\n      dup2\n      gt\n      iszero\n      tag_56\n      jumpi\n      tag_57\n      tag_34\n      jump\t// in\n    tag_57:\n    tag_56:\n      mul\n      or\n      swap1\n      sstore\n      pop\n        /* \"Smart contracts/SC2.sol\":1047:1364  {... */\n      pop\n        /* \"Smart contracts/SC2.sol\":964:1364  function updateProductData(uint256 _productId, Stage _stage, bytes32 _data) public {... */\n      pop\n      pop\n      pop\n      jump\t// out\n        /* \"#utility.yul\":7:82   */\n    tag_58:\n        /* \"#utility.yul\":40:46   */\n      0x00\n        /* \"#utility.yul\":73:75   */\n      0x40\n        /* \"#utility.yul\":67:76   */\n      mload\n        /* \"#utility.yul\":57:76   */\n      swap1\n      pop\n        /* \"#utility.yul\":7:82   */\n      swap1\n      jump\t// out\n        /* \"#utility.yul\":88:205   */\n    tag_59:\n        /* \"#utility.yul\":197:198   */\n      0x00\n        /* \"#utility.yul\":194:195   */\n      dup1\n        /* \"#utility.yul\":187:199   */\n      revert\n        /* \"#utility.yul\":211:328   */\n    tag_60:\n        /* \"#utility.yul\":320:321   */\n      0x00\n        /* \"#utility.yul\":317:318   */\n      dup1\n        /* \"#utility.yul\":310:322   */\n      revert\n        /* \"#utility.yul\":334:411   */\n    tag_61:\n        /* \"#utility.yul\":371:378   */\n      0x00\n        /* \"#utility.yul\":400:405   */\n      dup2\n        /* \"#utility.yul\":389:405   */\n      swap1\n      pop\n        /* \"#utility.yul\":334:411   */\n      swap2\n      swap1\n      pop\n      jump\t// out\n        /* \"#utility.yul\":417:539   */\n    tag_62:\n        /* \"#utility.yul\":490:514   */\n      tag_116\n        /* \"#utility.yul\":508:513   */\n      dup2\n        /* \"#utility.yul\":490:514   */\n      tag_61\n      jump\t// in\n    tag_116:\n        /* \"#utility.yul\":483:488   */\n      dup2\n        /* \"#utility.yul\":480:515   */\n      eq\n        /* \"#utility.yul\":470:533   */\n      tag_117\n      jumpi\n        /* \"#utility.yul\":529:530   */\n      0x00\n        /* \"#utility.yul\":526:527   */\n      dup1\n        /* \"#utility.yul\":519:531   */\n      revert\n        /* \"#utility.yul\":470:533   */\n    tag_117:\n        /* \"#utility.yul\":417:539   */\n      pop\n      jump\t// out\n        /* \"#utility.yul\":545:684   */\n    tag_63:\n        /* \"#utility.yul\":591:596   */\n      0x00\n        /* \"#utility.yul\":629:635   */\n      dup2\n        /* \"#utility.yul\":616:636   */\n      calldataload\n        /* \"#utility.yul\":607:636   */\n      swap1\n      pop\n        /* \"#utility.yul\":645:678   */\n      tag_119\n        /* \"#utility.yul\":672:677   */\n      dup2\n        /* \"#utility.yul\":645:678   */\n      tag_62\n      jump\t// in\n    tag_119:\n        /* \"#utility.yul\":545:684   */\n      swap3\n      swap2\n      pop\n      pop\n      jump\t// out\n        /* \"#utility.yul\":690:816   */\n    tag_64:\n        /* \"#utility.yul\":727:734   */\n      0x00\n        /* \"#utility.yul\":767:809   */\n      0xffffffffffffffffffffffffffffffffffffffff\n        /* \"#utility.yul\":760:765   */\n      dup3\n        /* \"#utility.yul\":756:810   */\n      and\n        /* \"#utility.yul\":745:810   */\n      swap1\n      pop\n        /* \"#utility.yul\":690:816   */\n      swap2\n      swap1\n      pop\n      jump\t// out\n        /* \"#utility.yul\":822:926   */\n    tag_65:\n        /* \"#utility.yul\":867:874   */\n      0x00\n        /* \"#utility.yul\":896:920   */\n      tag_122\n        /* \"#utility.yul\":914:919   */\n      dup3\n        /* \"#utility.yul\":896:920   */\n      tag_64\n      jump\t// in\n    tag_122:\n        /* \"#utility.yul\":885:920   */\n      swap1\n      pop\n        /* \"#utility.yul\":822:926   */\n      swap2\n      swap1\n      pop\n      jump\t// out\n        /* \"#utility.yul\":932:1070   */\n    tag_66:\n        /* \"#utility.yul\":1013:1045   */\n      tag_124\n        /* \"#utility.yul\":1039:1044   */\n      dup2\n        /* \"#utility.yul\":1013:1045   */\n      tag_65\n      jump\t// in\n    tag_124:\n        /* \"#utility.yul\":1006:1011   */\n      dup2\n        /* \"#utility.yul\":1003:1046   */\n      eq\n        /* \"#utility.yul\":993:1064   */\n      tag_125\n      jumpi\n        /* \"#utility.yul\":1060:1061   */\n      0x00\n        /* \"#utility.yul\":1057:1058   */\n      dup1\n        /* \"#utility.yul\":1050:1062   */\n      revert\n        /* \"#utility.yul\":993:1064   */\n    tag_125:\n        /* \"#utility.yul\":932:1070   */\n      pop\n      jump\t// out\n        /* \"#utility.yul\":1076:1231   */\n    tag_67:\n        /* \"#utility.yul\":1130:1135   */\n      0x00\n        /* \"#utility.yul\":1168:1174   */\n      dup2\n        /* \"#utility.yul\":1155:1175   */\n      calldataload\n        /* \"#utility.yul\":1146:1175   */\n      swap1\n      pop\n        /* \"#utility.yul\":1184:1225   */\n      tag_127\n        /* \"#utility.yul\":1219:1224   */\n      dup2\n        /* \"#utility.yul\":1184:1225   */\n      tag_66\n      jump\t// in\n    tag_127:\n        /* \"#utility.yul\":1076:1231   */\n      swap3\n      swap2\n      pop\n      pop\n      jump\t// out\n        /* \"#utility.yul\":1237:1727   */\n    tag_9:\n        /* \"#utility.yul\":1313:1319   */\n      0x00\n        /* \"#utility.yul\":1321:1327   */\n      dup1\n        /* \"#utility.yul\":1370:1372   */\n      0x40\n        /* \"#utility.yul\":1358:1367   */\n      dup4\n        /* \"#utility.yul\":1349:1356   */\n      dup6\n        /* \"#utility.yul\":1345:1368   */\n      sub\n        /* \"#utility.yul\":1341:1373   */\n      slt\n        /* \"#utility.yul\":1338:1457   */\n      iszero\n      tag_129\n      jumpi\n        /* \"#utility.yul\":1376:1455   */\n      tag_130\n      tag_59\n      jump\t// in\n    tag_130:\n        /* \"#utility.yul\":1338:1457   */\n    tag_129:\n        /* \"#utility.yul\":1496:1497   */\n      0x00\n        /* \"#utility.yul\":1521:1574   */\n      tag_131\n        /* \"#utility.yul\":1566:1573   */\n      dup6\n        /* \"#utility.yul\":1557:1563   */\n      dup3\n        /* \"#utility.yul\":1546:1555   */\n      dup7\n        /* \"#utility.yul\":1542:1564   */\n      add\n        /* \"#utility.yul\":1521:1574   */\n      tag_63\n      jump\t// in\n    tag_131:\n        /* \"#utility.yul\":1511:1574   */\n      swap3\n      pop\n        /* \"#utility.yul\":1467:1584   */\n      pop\n        /* \"#utility.yul\":1623:1625   */\n      0x20\n        /* \"#utility.yul\":1649:1710   */\n      tag_132\n        /* \"#utility.yul\":1702:1709   */\n      dup6\n        /* \"#utility.yul\":1693:1699   */\n      dup3\n        /* \"#utility.yul\":1682:1691   */\n      dup7\n        /* \"#utility.yul\":1678:1700   */\n      add\n        /* \"#utility.yul\":1649:1710   */\n      tag_67\n      jump\t// in\n    tag_132:\n        /* \"#utility.yul\":1639:1710   */\n      swap2\n      pop\n        /* \"#utility.yul\":1594:1720   */\n      pop\n        /* \"#utility.yul\":1237:1727   */\n      swap3\n      pop\n      swap3\n      swap1\n      pop\n      jump\t// out\n        /* \"#utility.yul\":1733:2062   */\n    tag_13:\n        /* \"#utility.yul\":1792:1798   */\n      0x00\n        /* \"#utility.yul\":1841:1843   */\n      0x20\n        /* \"#utility.yul\":1829:1838   */\n      dup3\n        /* \"#utility.yul\":1820:1827   */\n      dup5\n        /* \"#utility.yul\":1816:1839   */\n      sub\n        /* \"#utility.yul\":1812:1844   */\n      slt\n        /* \"#utility.yul\":1809:1928   */\n      iszero\n      tag_134\n      jumpi\n        /* \"#utility.yul\":1847:1926   */\n      tag_135\n      tag_59\n      jump\t// in\n    tag_135:\n        /* \"#utility.yul\":1809:1928   */\n    tag_134:\n        /* \"#utility.yul\":1967:1968   */\n      0x00\n        /* \"#utility.yul\":1992:2045   */\n      tag_136\n        /* \"#utility.yul\":2037:2044   */\n      dup5\n        /* \"#utility.yul\":2028:2034   */\n      dup3\n        /* \"#utility.yul\":2017:2026   */\n      dup6\n        /* \"#utility.yul\":2013:2035   */\n      add\n        /* \"#utility.yul\":1992:2045   */\n      tag_63\n      jump\t// in\n    tag_136:\n        /* \"#utility.yul\":1982:2045   */\n      swap2\n      pop\n        /* \"#utility.yul\":1938:2055   */\n      pop\n        /* \"#utility.yul\":1733:2062   */\n      swap3\n      swap2\n      pop\n      pop\n      jump\t// out\n        /* \"#utility.yul\":2068:2186   */\n    tag_68:\n        /* \"#utility.yul\":2155:2179   */\n      tag_138\n        /* \"#utility.yul\":2173:2178   */\n      dup2\n        /* \"#utility.yul\":2155:2179   */\n      tag_61\n      jump\t// in\n    tag_138:\n        /* \"#utility.yul\":2150:2153   */\n      dup3\n        /* \"#utility.yul\":2143:2180   */\n      mstore\n        /* \"#utility.yul\":2068:2186   */\n      pop\n      pop\n      jump\t// out\n        /* \"#utility.yul\":2192:2334   */\n    tag_69:\n        /* \"#utility.yul\":2295:2327   */\n      tag_140\n        /* \"#utility.yul\":2321:2326   */\n      dup2\n        /* \"#utility.yul\":2295:2327   */\n      tag_65\n      jump\t// in\n    tag_140:\n        /* \"#utility.yul\":2290:2293   */\n      dup3\n        /* \"#utility.yul\":2283:2328   */\n      mstore\n        /* \"#utility.yul\":2192:2334   */\n      pop\n      pop\n      jump\t// out\n        /* \"#utility.yul\":2340:2520   */\n    tag_34:\n        /* \"#utility.yul\":2388:2465   */\n      0x4e487b7100000000000000000000000000000000000000000000000000000000\n        /* \"#utility.yul\":2385:2386   */\n      0x00\n        /* \"#utility.yul\":2378:2466   */\n      mstore\n        /* \"#utility.yul\":2485:2489   */\n      0x21\n        /* \"#utility.yul\":2482:2483   */\n      0x04\n        /* \"#utility.yul\":2475:2490   */\n      mstore\n        /* \"#utility.yul\":2509:2513   */\n      0x24\n        /* \"#utility.yul\":2506:2507   */\n      0x00\n        /* \"#utility.yul\":2499:2514   */\n      revert\n        /* \"#utility.yul\":2526:2638   */\n    tag_70:\n        /* \"#utility.yul\":2606:2607   */\n      0x05\n        /* \"#utility.yul\":2599:2604   */\n      dup2\n        /* \"#utility.yul\":2596:2608   */\n      lt\n        /* \"#utility.yul\":2586:2632   */\n      tag_143\n      jumpi\n        /* \"#utility.yul\":2612:2630   */\n      tag_144\n      tag_34\n      jump\t// in\n    tag_144:\n        /* \"#utility.yul\":2586:2632   */\n    tag_143:\n        /* \"#utility.yul\":2526:2638   */\n      pop\n      jump\t// out\n        /* \"#utility.yul\":2644:2769   */\n    tag_71:\n        /* \"#utility.yul\":2688:2695   */\n      0x00\n        /* \"#utility.yul\":2717:2722   */\n      dup2\n        /* \"#utility.yul\":2706:2722   */\n      swap1\n      pop\n        /* \"#utility.yul\":2723:2763   */\n      tag_146\n        /* \"#utility.yul\":2757:2762   */\n      dup3\n        /* \"#utility.yul\":2723:2763   */\n      tag_70\n      jump\t// in\n    tag_146:\n        /* \"#utility.yul\":2644:2769   */\n      swap2\n      swap1\n      pop\n      jump\t// out\n        /* \"#utility.yul\":2775:2900   */\n    tag_72:\n        /* \"#utility.yul\":2830:2839   */\n      0x00\n        /* \"#utility.yul\":2863:2894   */\n      tag_148\n        /* \"#utility.yul\":2888:2893   */\n      dup3\n        /* \"#utility.yul\":2863:2894   */\n      tag_71\n      jump\t// in\n    tag_148:\n        /* \"#utility.yul\":2850:2894   */\n      swap1\n      pop\n        /* \"#utility.yul\":2775:2900   */\n      swap2\n      swap1\n      pop\n      jump\t// out\n        /* \"#utility.yul\":2906:3047   */\n    tag_73:\n        /* \"#utility.yul\":2998:3040   */\n      tag_150\n        /* \"#utility.yul\":3034:3039   */\n      dup2\n        /* \"#utility.yul\":2998:3040   */\n      tag_72\n      jump\t// in\n    tag_150:\n        /* \"#utility.yul\":2993:2996   */\n      dup3\n        /* \"#utility.yul\":2986:3041   */\n      mstore\n        /* \"#utility.yul\":2906:3047   */\n      pop\n      pop\n      jump\t// out\n        /* \"#utility.yul\":3053:3537   */\n    tag_16:\n        /* \"#utility.yul\":3223:3227   */\n      0x00\n        /* \"#utility.yul\":3261:3263   */\n      0x60\n        /* \"#utility.yul\":3250:3259   */\n      dup3\n        /* \"#utility.yul\":3246:3264   */\n      add\n        /* \"#utility.yul\":3238:3264   */\n      swap1\n      pop\n        /* \"#utility.yul\":3274:3345   */\n      tag_152\n        /* \"#utility.yul\":3342:3343   */\n      0x00\n        /* \"#utility.yul\":3331:3340   */\n      dup4\n        /* \"#utility.yul\":3327:3344   */\n      add\n        /* \"#utility.yul\":3318:3324   */\n      dup7\n        /* \"#utility.yul\":3274:3345   */\n      tag_68\n      jump\t// in\n    tag_152:\n        /* \"#utility.yul\":3355:3443   */\n      tag_153\n        /* \"#utility.yul\":3439:3441   */\n      0x20\n        /* \"#utility.yul\":3428:3437   */\n      dup4\n        /* \"#utility.yul\":3424:3442   */\n      add\n        /* \"#utility.yul\":3415:3421   */\n      dup6\n        /* \"#utility.yul\":3355:3443   */\n      tag_69\n      jump\t// in\n    tag_153:\n        /* \"#utility.yul\":3453:3530   */\n      tag_154\n        /* \"#utility.yul\":3526:3528   */\n      0x40\n        /* \"#utility.yul\":3515:3524   */\n      dup4\n        /* \"#utility.yul\":3511:3529   */\n      add\n        /* \"#utility.yul\":3502:3508   */\n      dup5\n        /* \"#utility.yul\":3453:3530   */\n      tag_73\n      jump\t// in\n    tag_154:\n        /* \"#utility.yul\":3053:3537   */\n      swap5\n      swap4\n      pop\n      pop\n      pop\n      pop\n      jump\t// out\n        /* \"#utility.yul\":3543:3660   */\n    tag_74:\n        /* \"#utility.yul\":3652:3653   */\n      0x00\n        /* \"#utility.yul\":3649:3650   */\n      dup1\n        /* \"#utility.yul\":3642:3654   */\n      revert\n        /* \"#utility.yul\":3666:3768   */\n    tag_75:\n        /* \"#utility.yul\":3707:3713   */\n      0x00\n        /* \"#utility.yul\":3758:3760   */\n      0x1f\n        /* \"#utility.yul\":3754:3761   */\n      not\n        /* \"#utility.yul\":3749:3751   */\n      0x1f\n        /* \"#utility.yul\":3742:3747   */\n      dup4\n        /* \"#utility.yul\":3738:3752   */\n      add\n        /* \"#utility.yul\":3734:3762   */\n      and\n        /* \"#utility.yul\":3724:3762   */\n      swap1\n      pop\n        /* \"#utility.yul\":3666:3768   */\n      swap2\n      swap1\n      pop\n      jump\t// out\n        /* \"#utility.yul\":3774:3954   */\n    tag_76:\n        /* \"#utility.yul\":3822:3899   */\n      0x4e487b7100000000000000000000000000000000000000000000000000000000\n        /* \"#utility.yul\":3819:3820   */\n      0x00\n        /* \"#utility.yul\":3812:3900   */\n      mstore\n        /* \"#utility.yul\":3919:3923   */\n      0x41\n        /* \"#utility.yul\":3916:3917   */\n      0x04\n        /* \"#utility.yul\":3909:3924   */\n      mstore\n        /* \"#utility.yul\":3943:3947   */\n      0x24\n        /* \"#utility.yul\":3940:3941   */\n      0x00\n        /* \"#utility.yul\":3933:3948   */\n      revert\n        /* \"#utility.yul\":3960:4241   */\n    tag_77:\n        /* \"#utility.yul\":4043:4070   */\n      tag_159\n        /* \"#utility.yul\":4065:4069   */\n      dup3\n        /* \"#utility.yul\":4043:4070   */\n      tag_75\n      jump\t// in\n    tag_159:\n        /* \"#utility.yul\":4035:4041   */\n      dup2\n        /* \"#utility.yul\":4031:4071   */\n      add\n        /* \"#utility.yul\":4173:4179   */\n      dup2\n        /* \"#utility.yul\":4161:4171   */\n      dup2\n        /* \"#utility.yul\":4158:4180   */\n      lt\n        /* \"#utility.yul\":4137:4155   */\n      0xffffffffffffffff\n        /* \"#utility.yul\":4125:4135   */\n      dup3\n        /* \"#utility.yul\":4122:4156   */\n      gt\n        /* \"#utility.yul\":4119:4181   */\n      or\n        /* \"#utility.yul\":4116:4204   */\n      iszero\n      tag_160\n      jumpi\n        /* \"#utility.yul\":4184:4202   */\n      tag_161\n      tag_76\n      jump\t// in\n    tag_161:\n        /* \"#utility.yul\":4116:4204   */\n    tag_160:\n        /* \"#utility.yul\":4224:4234   */\n      dup1\n        /* \"#utility.yul\":4220:4222   */\n      0x40\n        /* \"#utility.yul\":4213:4235   */\n      mstore\n        /* \"#utility.yul\":4003:4241   */\n      pop\n        /* \"#utility.yul\":3960:4241   */\n      pop\n      pop\n      jump\t// out\n        /* \"#utility.yul\":4247:4376   */\n    tag_78:\n        /* \"#utility.yul\":4281:4287   */\n      0x00\n        /* \"#utility.yul\":4308:4328   */\n      tag_163\n      tag_58\n      jump\t// in\n    tag_163:\n        /* \"#utility.yul\":4298:4328   */\n      swap1\n      pop\n        /* \"#utility.yul\":4337:4370   */\n      tag_164\n        /* \"#utility.yul\":4365:4369   */\n      dup3\n        /* \"#utility.yul\":4357:4363   */\n      dup3\n        /* \"#utility.yul\":4337:4370   */\n      tag_77\n      jump\t// in\n    tag_164:\n        /* \"#utility.yul\":4247:4376   */\n      swap2\n      swap1\n      pop\n      jump\t// out\n        /* \"#utility.yul\":4382:4693   */\n    tag_79:\n        /* \"#utility.yul\":4459:4463   */\n      0x00\n        /* \"#utility.yul\":4549:4567   */\n      0xffffffffffffffff\n        /* \"#utility.yul\":4541:4547   */\n      dup3\n        /* \"#utility.yul\":4538:4568   */\n      gt\n        /* \"#utility.yul\":4535:4591   */\n      iszero\n      tag_166\n      jumpi\n        /* \"#utility.yul\":4571:4589   */\n      tag_167\n      tag_76\n      jump\t// in\n    tag_167:\n        /* \"#utility.yul\":4535:4591   */\n    tag_166:\n        /* \"#utility.yul\":4621:4625   */\n      0x20\n        /* \"#utility.yul\":4613:4619   */\n      dup3\n        /* \"#utility.yul\":4609:4626   */\n      mul\n        /* \"#utility.yul\":4601:4626   */\n      swap1\n      pop\n        /* \"#utility.yul\":4681:4685   */\n      0x20\n        /* \"#utility.yul\":4675:4679   */\n      dup2\n        /* \"#utility.yul\":4671:4686   */\n      add\n        /* \"#utility.yul\":4663:4686   */\n      swap1\n      pop\n        /* \"#utility.yul\":4382:4693   */\n      swap2\n      swap1\n      pop\n      jump\t// out\n        /* \"#utility.yul\":4699:4816   */\n    tag_80:\n        /* \"#utility.yul\":4808:4809   */\n      0x00\n        /* \"#utility.yul\":4805:4806   */\n      dup1\n        /* \"#utility.yul\":4798:4810   */\n      revert\n        /* \"#utility.yul\":4822:4899   */\n    tag_81:\n        /* \"#utility.yul\":4859:4866   */\n      0x00\n        /* \"#utility.yul\":4888:4893   */\n      dup2\n        /* \"#utility.yul\":4877:4893   */\n      swap1\n      pop\n        /* \"#utility.yul\":4822:4899   */\n      swap2\n      swap1\n      pop\n      jump\t// out\n        /* \"#utility.yul\":4905:5027   */\n    tag_82:\n        /* \"#utility.yul\":4978:5002   */\n      tag_171\n        /* \"#utility.yul\":4996:5001   */\n      dup2\n        /* \"#utility.yul\":4978:5002   */\n      tag_81\n      jump\t// in\n    tag_171:\n        /* \"#utility.yul\":4971:4976   */\n      dup2\n        /* \"#utility.yul\":4968:5003   */\n      eq\n        /* \"#utility.yul\":4958:5021   */\n      tag_172\n      jumpi\n        /* \"#utility.yul\":5017:5018   */\n      0x00\n        /* \"#utility.yul\":5014:5015   */\n      dup1\n        /* \"#utility.yul\":5007:5019   */\n      revert\n        /* \"#utility.yul\":4958:5021   */\n    tag_172:\n        /* \"#utility.yul\":4905:5027   */\n      pop\n      jump\t// out\n        /* \"#utility.yul\":5033:5172   */\n    tag_83:\n        /* \"#utility.yul\":5079:5084   */\n      0x00\n        /* \"#utility.yul\":5117:5123   */\n      dup2\n        /* \"#utility.yul\":5104:5124   */\n      calldataload\n        /* \"#utility.yul\":5095:5124   */\n      swap1\n      pop\n        /* \"#utility.yul\":5133:5166   */\n      tag_174\n        /* \"#utility.yul\":5160:5165   */\n      dup2\n        /* \"#utility.yul\":5133:5166   */\n      tag_82\n      jump\t// in\n    tag_174:\n        /* \"#utility.yul\":5033:5172   */\n      swap3\n      swap2\n      pop\n      pop\n      jump\t// out\n        /* \"#utility.yul\":5195:5905   */\n    tag_84:\n        /* \"#utility.yul\":5291:5296   */\n      0x00\n        /* \"#utility.yul\":5316:5397   */\n      tag_176\n        /* \"#utility.yul\":5332:5396   */\n      tag_177\n        /* \"#utility.yul\":5389:5395   */\n      dup5\n        /* \"#utility.yul\":5332:5396   */\n      tag_79\n      jump\t// in\n    tag_177:\n        /* \"#utility.yul\":5316:5397   */\n      tag_78\n      jump\t// in\n    tag_176:\n        /* \"#utility.yul\":5307:5397   */\n      swap1\n      pop\n        /* \"#utility.yul\":5417:5422   */\n      dup1\n        /* \"#utility.yul\":5446:5452   */\n      dup4\n        /* \"#utility.yul\":5439:5444   */\n      dup3\n        /* \"#utility.yul\":5432:5453   */\n      mstore\n        /* \"#utility.yul\":5480:5484   */\n      0x20\n        /* \"#utility.yul\":5473:5478   */\n      dup3\n        /* \"#utility.yul\":5469:5485   */\n      add\n        /* \"#utility.yul\":5462:5485   */\n      swap1\n      pop\n        /* \"#utility.yul\":5533:5537   */\n      0x20\n        /* \"#utility.yul\":5525:5531   */\n      dup5\n        /* \"#utility.yul\":5521:5538   */\n      mul\n        /* \"#utility.yul\":5513:5519   */\n      dup4\n        /* \"#utility.yul\":5509:5539   */\n      add\n        /* \"#utility.yul\":5562:5565   */\n      dup6\n        /* \"#utility.yul\":5554:5560   */\n      dup2\n        /* \"#utility.yul\":5551:5566   */\n      gt\n        /* \"#utility.yul\":5548:5670   */\n      iszero\n      tag_178\n      jumpi\n        /* \"#utility.yul\":5581:5660   */\n      tag_179\n      tag_80\n      jump\t// in\n    tag_179:\n        /* \"#utility.yul\":5548:5670   */\n    tag_178:\n        /* \"#utility.yul\":5696:5702   */\n      dup4\n        /* \"#utility.yul\":5679:5899   */\n    tag_180:\n        /* \"#utility.yul\":5713:5719   */\n      dup2\n        /* \"#utility.yul\":5708:5711   */\n      dup2\n        /* \"#utility.yul\":5705:5720   */\n      lt\n        /* \"#utility.yul\":5679:5899   */\n      iszero\n      tag_182\n      jumpi\n        /* \"#utility.yul\":5788:5791   */\n      dup1\n        /* \"#utility.yul\":5817:5854   */\n      tag_183\n        /* \"#utility.yul\":5850:5853   */\n      dup9\n        /* \"#utility.yul\":5838:5848   */\n      dup3\n        /* \"#utility.yul\":5817:5854   */\n      tag_83\n      jump\t// in\n    tag_183:\n        /* \"#utility.yul\":5812:5815   */\n      dup5\n        /* \"#utility.yul\":5805:5855   */\n      mstore\n        /* \"#utility.yul\":5884:5888   */\n      0x20\n        /* \"#utility.yul\":5879:5882   */\n      dup5\n        /* \"#utility.yul\":5875:5889   */\n      add\n        /* \"#utility.yul\":5868:5889   */\n      swap4\n      pop\n        /* \"#utility.yul\":5755:5899   */\n      pop\n        /* \"#utility.yul\":5739:5743   */\n      0x20\n        /* \"#utility.yul\":5734:5737   */\n      dup2\n        /* \"#utility.yul\":5730:5744   */\n      add\n        /* \"#utility.yul\":5723:5744   */\n      swap1\n      pop\n        /* \"#utility.yul\":5679:5899   */\n      jump(tag_180)\n    tag_182:\n        /* \"#utility.yul\":5683:5704   */\n      pop\n        /* \"#utility.yul\":5297:5905   */\n      pop\n      pop\n        /* \"#utility.yul\":5195:5905   */\n      swap4\n      swap3\n      pop\n      pop\n      pop\n      jump\t// out\n        /* \"#utility.yul\":5928:6298   */\n    tag_85:\n        /* \"#utility.yul\":5999:6004   */\n      0x00\n        /* \"#utility.yul\":6048:6051   */\n      dup3\n        /* \"#utility.yul\":6041:6045   */\n      0x1f\n        /* \"#utility.yul\":6033:6039   */\n      dup4\n        /* \"#utility.yul\":6029:6046   */\n      add\n        /* \"#utility.yul\":6025:6052   */\n      slt\n        /* \"#utility.yul\":6015:6137   */\n      tag_185\n      jumpi\n        /* \"#utility.yul\":6056:6135   */\n      tag_186\n      tag_74\n      jump\t// in\n    tag_186:\n        /* \"#utility.yul\":6015:6137   */\n    tag_185:\n        /* \"#utility.yul\":6173:6179   */\n      dup2\n        /* \"#utility.yul\":6160:6180   */\n      calldataload\n        /* \"#utility.yul\":6198:6292   */\n      tag_187\n        /* \"#utility.yul\":6288:6291   */\n      dup5\n        /* \"#utility.yul\":6280:6286   */\n      dup3\n        /* \"#utility.yul\":6273:6277   */\n      0x20\n        /* \"#utility.yul\":6265:6271   */\n      dup7\n        /* \"#utility.yul\":6261:6278   */\n      add\n        /* \"#utility.yul\":6198:6292   */\n      tag_84\n      jump\t// in\n    tag_187:\n        /* \"#utility.yul\":6189:6292   */\n      swap2\n      pop\n        /* \"#utility.yul\":6005:6298   */\n      pop\n        /* \"#utility.yul\":5928:6298   */\n      swap3\n      swap2\n      pop\n      pop\n      jump\t// out\n        /* \"#utility.yul\":6304:6843   */\n    tag_19:\n        /* \"#utility.yul\":6388:6394   */\n      0x00\n        /* \"#utility.yul\":6437:6439   */\n      0x20\n        /* \"#utility.yul\":6425:6434   */\n      dup3\n        /* \"#utility.yul\":6416:6423   */\n      dup5\n        /* \"#utility.yul\":6412:6435   */\n      sub\n        /* \"#utility.yul\":6408:6440   */\n      slt\n        /* \"#utility.yul\":6405:6524   */\n      iszero\n      tag_189\n      jumpi\n        /* \"#utility.yul\":6443:6522   */\n      tag_190\n      tag_59\n      jump\t// in\n    tag_190:\n        /* \"#utility.yul\":6405:6524   */\n    tag_189:\n        /* \"#utility.yul\":6591:6592   */\n      0x00\n        /* \"#utility.yul\":6580:6589   */\n      dup3\n        /* \"#utility.yul\":6576:6593   */\n      add\n        /* \"#utility.yul\":6563:6594   */\n      calldataload\n        /* \"#utility.yul\":6621:6639   */\n      0xffffffffffffffff\n        /* \"#utility.yul\":6613:6619   */\n      dup2\n        /* \"#utility.yul\":6610:6640   */\n      gt\n        /* \"#utility.yul\":6607:6724   */\n      iszero\n      tag_191\n      jumpi\n        /* \"#utility.yul\":6643:6722   */\n      tag_192\n      tag_60\n      jump\t// in\n    tag_192:\n        /* \"#utility.yul\":6607:6724   */\n    tag_191:\n        /* \"#utility.yul\":6748:6826   */\n      tag_193\n        /* \"#utility.yul\":6818:6825   */\n      dup5\n        /* \"#utility.yul\":6809:6815   */\n      dup3\n        /* \"#utility.yul\":6798:6807   */\n      dup6\n        /* \"#utility.yul\":6794:6816   */\n      add\n        /* \"#utility.yul\":6748:6826   */\n      tag_85\n      jump\t// in\n    tag_193:\n        /* \"#utility.yul\":6738:6826   */\n      swap2\n      pop\n        /* \"#utility.yul\":6534:6836   */\n      pop\n        /* \"#utility.yul\":6304:6843   */\n      swap3\n      swap2\n      pop\n      pop\n      jump\t// out\n        /* \"#utility.yul\":6849:6955   */\n    tag_86:\n        /* \"#utility.yul\":6929:6930   */\n      0x05\n        /* \"#utility.yul\":6922:6927   */\n      dup2\n        /* \"#utility.yul\":6919:6931   */\n      lt\n        /* \"#utility.yul\":6909:6949   */\n      tag_195\n      jumpi\n        /* \"#utility.yul\":6945:6946   */\n      0x00\n        /* \"#utility.yul\":6942:6943   */\n      dup1\n        /* \"#utility.yul\":6935:6947   */\n      revert\n        /* \"#utility.yul\":6909:6949   */\n    tag_195:\n        /* \"#utility.yul\":6849:6955   */\n      pop\n      jump\t// out\n        /* \"#utility.yul\":6961:7114   */\n    tag_87:\n        /* \"#utility.yul\":7014:7019   */\n      0x00\n        /* \"#utility.yul\":7052:7058   */\n      dup2\n        /* \"#utility.yul\":7039:7059   */\n      calldataload\n        /* \"#utility.yul\":7030:7059   */\n      swap1\n      pop\n        /* \"#utility.yul\":7068:7108   */\n      tag_197\n        /* \"#utility.yul\":7102:7107   */\n      dup2\n        /* \"#utility.yul\":7068:7108   */\n      tag_86\n      jump\t// in\n    tag_197:\n        /* \"#utility.yul\":6961:7114   */\n      swap3\n      swap2\n      pop\n      pop\n      jump\t// out\n        /* \"#utility.yul\":7120:7753   */\n    tag_23:\n        /* \"#utility.yul\":7204:7210   */\n      0x00\n        /* \"#utility.yul\":7212:7218   */\n      dup1\n        /* \"#utility.yul\":7220:7226   */\n      0x00\n        /* \"#utility.yul\":7269:7271   */\n      0x60\n        /* \"#utility.yul\":7257:7266   */\n      dup5\n        /* \"#utility.yul\":7248:7255   */\n      dup7\n        /* \"#utility.yul\":7244:7267   */\n      sub\n        /* \"#utility.yul\":7240:7272   */\n      slt\n        /* \"#utility.yul\":7237:7356   */\n      iszero\n      tag_199\n      jumpi\n        /* \"#utility.yul\":7275:7354   */\n      tag_200\n      tag_59\n      jump\t// in\n    tag_200:\n        /* \"#utility.yul\":7237:7356   */\n    tag_199:\n        /* \"#utility.yul\":7395:7396   */\n      0x00\n        /* \"#utility.yul\":7420:7473   */\n      tag_201\n        /* \"#utility.yul\":7465:7472   */\n      dup7\n        /* \"#utility.yul\":7456:7462   */\n      dup3\n        /* \"#utility.yul\":7445:7454   */\n      dup8\n        /* \"#utility.yul\":7441:7463   */\n      add\n        /* \"#utility.yul\":7420:7473   */\n      tag_63\n      jump\t// in\n    tag_201:\n        /* \"#utility.yul\":7410:7473   */\n      swap4\n      pop\n        /* \"#utility.yul\":7366:7483   */\n      pop\n        /* \"#utility.yul\":7522:7524   */\n      0x20\n        /* \"#utility.yul\":7548:7608   */\n      tag_202\n        /* \"#utility.yul\":7600:7607   */\n      dup7\n        /* \"#utility.yul\":7591:7597   */\n      dup3\n        /* \"#utility.yul\":7580:7589   */\n      dup8\n        /* \"#utility.yul\":7576:7598   */\n      add\n        /* \"#utility.yul\":7548:7608   */\n      tag_87\n      jump\t// in\n    tag_202:\n        /* \"#utility.yul\":7538:7608   */\n      swap3\n      pop\n        /* \"#utility.yul\":7493:7618   */\n      pop\n        /* \"#utility.yul\":7657:7659   */\n      0x40\n        /* \"#utility.yul\":7683:7736   */\n      tag_203\n        /* \"#utility.yul\":7728:7735   */\n      dup7\n        /* \"#utility.yul\":7719:7725   */\n      dup3\n        /* \"#utility.yul\":7708:7717   */\n      dup8\n        /* \"#utility.yul\":7704:7726   */\n      add\n        /* \"#utility.yul\":7683:7736   */\n      tag_83\n      jump\t// in\n    tag_203:\n        /* \"#utility.yul\":7673:7736   */\n      swap2\n      pop\n        /* \"#utility.yul\":7628:7746   */\n      pop\n        /* \"#utility.yul\":7120:7753   */\n      swap3\n      pop\n      swap3\n      pop\n      swap3\n      jump\t// out\n        /* \"#utility.yul\":7759:7928   */\n    tag_88:\n        /* \"#utility.yul\":7843:7854   */\n      0x00\n        /* \"#utility.yul\":7877:7883   */\n      dup3\n        /* \"#utility.yul\":7872:7875   */\n      dup3\n        /* \"#utility.yul\":7865:7884   */\n      mstore\n        /* \"#utility.yul\":7917:7921   */\n      0x20\n        /* \"#utility.yul\":7912:7915   */\n      dup3\n        /* \"#utility.yul\":7908:7922   */\n      add\n        /* \"#utility.yul\":7893:7922   */\n      swap1\n      pop\n        /* \"#utility.yul\":7759:7928   */\n      swap3\n      swap2\n      pop\n      pop\n      jump\t// out\n        /* \"#utility.yul\":7934:8154   */\n    tag_89:\n        /* \"#utility.yul\":8074:8108   */\n      0x4f6e6c79206f776e65722063616e207472616e73666572206f776e6572736869\n        /* \"#utility.yul\":8070:8071   */\n      0x00\n        /* \"#utility.yul\":8062:8068   */\n      dup3\n        /* \"#utility.yul\":8058:8072   */\n      add\n        /* \"#utility.yul\":8051:8109   */\n      mstore\n        /* \"#utility.yul\":8143:8146   */\n      0x7000000000000000000000000000000000000000000000000000000000000000\n        /* \"#utility.yul\":8138:8140   */\n      0x20\n        /* \"#utility.yul\":8130:8136   */\n      dup3\n        /* \"#utility.yul\":8126:8141   */\n      add\n        /* \"#utility.yul\":8119:8147   */\n      mstore\n        /* \"#utility.yul\":7934:8154   */\n      pop\n      jump\t// out\n        /* \"#utility.yul\":8160:8526   */\n    tag_90:\n        /* \"#utility.yul\":8302:8305   */\n      0x00\n        /* \"#utility.yul\":8323:8390   */\n      tag_207\n        /* \"#utility.yul\":8387:8389   */\n      0x21\n        /* \"#utility.yul\":8382:8385   */\n      dup4\n        /* \"#utility.yul\":8323:8390   */\n      tag_88\n      jump\t// in\n    tag_207:\n        /* \"#utility.yul\":8316:8390   */\n      swap2\n      pop\n        /* \"#utility.yul\":8399:8492   */\n      tag_208\n        /* \"#utility.yul\":8488:8491   */\n      dup3\n        /* \"#utility.yul\":8399:8492   */\n      tag_89\n      jump\t// in\n    tag_208:\n        /* \"#utility.yul\":8517:8519   */\n      0x40\n        /* \"#utility.yul\":8512:8515   */\n      dup3\n        /* \"#utility.yul\":8508:8520   */\n      add\n        /* \"#utility.yul\":8501:8520   */\n      swap1\n      pop\n        /* \"#utility.yul\":8160:8526   */\n      swap2\n      swap1\n      pop\n      jump\t// out\n        /* \"#utility.yul\":8532:8951   */\n    tag_28:\n        /* \"#utility.yul\":8698:8702   */\n      0x00\n        /* \"#utility.yul\":8736:8738   */\n      0x20\n        /* \"#utility.yul\":8725:8734   */\n      dup3\n        /* \"#utility.yul\":8721:8739   */\n      add\n        /* \"#utility.yul\":8713:8739   */\n      swap1\n      pop\n        /* \"#utility.yul\":8785:8794   */\n      dup2\n        /* \"#utility.yul\":8779:8783   */\n      dup2\n        /* \"#utility.yul\":8775:8795   */\n      sub\n        /* \"#utility.yul\":8771:8772   */\n      0x00\n        /* \"#utility.yul\":8760:8769   */\n      dup4\n        /* \"#utility.yul\":8756:8773   */\n      add\n        /* \"#utility.yul\":8749:8796   */\n      mstore\n        /* \"#utility.yul\":8813:8944   */\n      tag_210\n        /* \"#utility.yul\":8939:8943   */\n      dup2\n        /* \"#utility.yul\":8813:8944   */\n      tag_90\n      jump\t// in\n    tag_210:\n        /* \"#utility.yul\":8805:8944   */\n      swap1\n      pop\n        /* \"#utility.yul\":8532:8951   */\n      swap2\n      swap1\n      pop\n      jump\t// out\n        /* \"#utility.yul\":8957:9036   */\n    tag_91:\n        /* \"#utility.yul\":8996:9003   */\n      0x00\n        /* \"#utility.yul\":9025:9030   */\n      dup2\n        /* \"#utility.yul\":9014:9030   */\n      swap1\n      pop\n        /* \"#utility.yul\":8957:9036   */\n      swap2\n      swap1\n      pop\n      jump\t// out\n        /* \"#utility.yul\":9042:9199   */\n    tag_92:\n        /* \"#utility.yul\":9147:9192   */\n      tag_213\n        /* \"#utility.yul\":9167:9191   */\n      tag_214\n        /* \"#utility.yul\":9185:9190   */\n      dup3\n        /* \"#utility.yul\":9167:9191   */\n      tag_61\n      jump\t// in\n    tag_214:\n        /* \"#utility.yul\":9147:9192   */\n      tag_91\n      jump\t// in\n    tag_213:\n        /* \"#utility.yul\":9142:9145   */\n      dup3\n        /* \"#utility.yul\":9135:9193   */\n      mstore\n        /* \"#utility.yul\":9042:9199   */\n      pop\n      pop\n      jump\t// out\n        /* \"#utility.yul\":9205:9301   */\n    tag_93:\n        /* \"#utility.yul\":9242:9249   */\n      0x00\n        /* \"#utility.yul\":9271:9295   */\n      tag_216\n        /* \"#utility.yul\":9289:9294   */\n      dup3\n        /* \"#utility.yul\":9271:9295   */\n      tag_64\n      jump\t// in\n    tag_216:\n        /* \"#utility.yul\":9260:9295   */\n      swap1\n      pop\n        /* \"#utility.yul\":9205:9301   */\n      swap2\n      swap1\n      pop\n      jump\t// out\n        /* \"#utility.yul\":9307:9401   */\n    tag_94:\n        /* \"#utility.yul\":9340:9348   */\n      0x00\n        /* \"#utility.yul\":9388:9393   */\n      dup2\n        /* \"#utility.yul\":9384:9386   */\n      0x60\n        /* \"#utility.yul\":9380:9394   */\n      shl\n        /* \"#utility.yul\":9359:9394   */\n      swap1\n      pop\n        /* \"#utility.yul\":9307:9401   */\n      swap2\n      swap1\n      pop\n      jump\t// out\n        /* \"#utility.yul\":9407:9501   */\n    tag_95:\n        /* \"#utility.yul\":9446:9453   */\n      0x00\n        /* \"#utility.yul\":9475:9495   */\n      tag_219\n        /* \"#utility.yul\":9489:9494   */\n      dup3\n        /* \"#utility.yul\":9475:9495   */\n      tag_94\n      jump\t// in\n    tag_219:\n        /* \"#utility.yul\":9464:9495   */\n      swap1\n      pop\n        /* \"#utility.yul\":9407:9501   */\n      swap2\n      swap1\n      pop\n      jump\t// out\n        /* \"#utility.yul\":9507:9607   */\n    tag_96:\n        /* \"#utility.yul\":9546:9553   */\n      0x00\n        /* \"#utility.yul\":9575:9601   */\n      tag_221\n        /* \"#utility.yul\":9595:9600   */\n      dup3\n        /* \"#utility.yul\":9575:9601   */\n      tag_95\n      jump\t// in\n    tag_221:\n        /* \"#utility.yul\":9564:9601   */\n      swap1\n      pop\n        /* \"#utility.yul\":9507:9607   */\n      swap2\n      swap1\n      pop\n      jump\t// out\n        /* \"#utility.yul\":9613:9770   */\n    tag_97:\n        /* \"#utility.yul\":9718:9763   */\n      tag_223\n        /* \"#utility.yul\":9738:9762   */\n      tag_224\n        /* \"#utility.yul\":9756:9761   */\n      dup3\n        /* \"#utility.yul\":9738:9762   */\n      tag_93\n      jump\t// in\n    tag_224:\n        /* \"#utility.yul\":9718:9763   */\n      tag_96\n      jump\t// in\n    tag_223:\n        /* \"#utility.yul\":9713:9716   */\n      dup3\n        /* \"#utility.yul\":9706:9764   */\n      mstore\n        /* \"#utility.yul\":9613:9770   */\n      pop\n      pop\n      jump\t// out\n        /* \"#utility.yul\":9776:9890   */\n    tag_98:\n        /* \"#utility.yul\":9843:9849   */\n      0x00\n        /* \"#utility.yul\":9877:9882   */\n      dup2\n        /* \"#utility.yul\":9871:9883   */\n      mload\n        /* \"#utility.yul\":9861:9883   */\n      swap1\n      pop\n        /* \"#utility.yul\":9776:9890   */\n      swap2\n      swap1\n      pop\n      jump\t// out\n        /* \"#utility.yul\":9896:10059   */\n    tag_99:\n        /* \"#utility.yul\":10013:10024   */\n      0x00\n        /* \"#utility.yul\":10050:10053   */\n      dup2\n        /* \"#utility.yul\":10035:10053   */\n      swap1\n      pop\n        /* \"#utility.yul\":9896:10059   */\n      swap3\n      swap2\n      pop\n      pop\n      jump\t// out\n        /* \"#utility.yul\":10065:10197   */\n    tag_100:\n        /* \"#utility.yul\":10132:10136   */\n      0x00\n        /* \"#utility.yul\":10155:10158   */\n      dup2\n        /* \"#utility.yul\":10147:10158   */\n      swap1\n      pop\n        /* \"#utility.yul\":10185:10189   */\n      0x20\n        /* \"#utility.yul\":10180:10183   */\n      dup3\n        /* \"#utility.yul\":10176:10190   */\n      add\n        /* \"#utility.yul\":10168:10190   */\n      swap1\n      pop\n        /* \"#utility.yul\":10065:10197   */\n      swap2\n      swap1\n      pop\n      jump\t// out\n        /* \"#utility.yul\":10203:10319   */\n    tag_101:\n        /* \"#utility.yul\":10288:10312   */\n      tag_229\n        /* \"#utility.yul\":10306:10311   */\n      dup2\n        /* \"#utility.yul\":10288:10312   */\n      tag_81\n      jump\t// in\n    tag_229:\n        /* \"#utility.yul\":10283:10286   */\n      dup3\n        /* \"#utility.yul\":10276:10313   */\n      mstore\n        /* \"#utility.yul\":10203:10319   */\n      pop\n      pop\n      jump\t// out\n        /* \"#utility.yul\":10325:10520   */\n    tag_102:\n        /* \"#utility.yul\":10402:10412   */\n      0x00\n        /* \"#utility.yul\":10423:10477   */\n      tag_231\n        /* \"#utility.yul\":10473:10476   */\n      dup4\n        /* \"#utility.yul\":10465:10471   */\n      dup4\n        /* \"#utility.yul\":10423:10477   */\n      tag_101\n      jump\t// in\n    tag_231:\n        /* \"#utility.yul\":10509:10513   */\n      0x20\n        /* \"#utility.yul\":10504:10507   */\n      dup4\n        /* \"#utility.yul\":10500:10514   */\n      add\n        /* \"#utility.yul\":10486:10514   */\n      swap1\n      pop\n        /* \"#utility.yul\":10325:10520   */\n      swap3\n      swap2\n      pop\n      pop\n      jump\t// out\n        /* \"#utility.yul\":10526:10639   */\n    tag_103:\n        /* \"#utility.yul\":10596:10600   */\n      0x00\n        /* \"#utility.yul\":10628:10632   */\n      0x20\n        /* \"#utility.yul\":10623:10626   */\n      dup3\n        /* \"#utility.yul\":10619:10633   */\n      add\n        /* \"#utility.yul\":10611:10633   */\n      swap1\n      pop\n        /* \"#utility.yul\":10526:10639   */\n      swap2\n      swap1\n      pop\n      jump\t// out\n        /* \"#utility.yul\":10675:11451   */\n    tag_104:\n        /* \"#utility.yul\":10812:10815   */\n      0x00\n        /* \"#utility.yul\":10841:10895   */\n      tag_234\n        /* \"#utility.yul\":10889:10894   */\n      dup3\n        /* \"#utility.yul\":10841:10895   */\n      tag_98\n      jump\t// in\n    tag_234:\n        /* \"#utility.yul\":10911:11015   */\n      tag_235\n        /* \"#utility.yul\":11008:11014   */\n      dup2\n        /* \"#utility.yul\":11003:11006   */\n      dup6\n        /* \"#utility.yul\":10911:11015   */\n      tag_99\n      jump\t// in\n    tag_235:\n        /* \"#utility.yul\":10904:11015   */\n      swap4\n      pop\n        /* \"#utility.yul\":11039:11095   */\n      tag_236\n        /* \"#utility.yul\":11089:11094   */\n      dup4\n        /* \"#utility.yul\":11039:11095   */\n      tag_100\n      jump\t// in\n    tag_236:\n        /* \"#utility.yul\":11118:11125   */\n      dup1\n        /* \"#utility.yul\":11149:11150   */\n      0x00\n        /* \"#utility.yul\":11134:11426   */\n    tag_237:\n        /* \"#utility.yul\":11159:11165   */\n      dup4\n        /* \"#utility.yul\":11156:11157   */\n      dup2\n        /* \"#utility.yul\":11153:11166   */\n      lt\n        /* \"#utility.yul\":11134:11426   */\n      iszero\n      tag_239\n      jumpi\n        /* \"#utility.yul\":11235:11241   */\n      dup2\n        /* \"#utility.yul\":11229:11242   */\n      mload\n        /* \"#utility.yul\":11262:11333   */\n      tag_240\n        /* \"#utility.yul\":11329:11332   */\n      dup9\n        /* \"#utility.yul\":11314:11327   */\n      dup3\n        /* \"#utility.yul\":11262:11333   */\n      tag_102\n      jump\t// in\n    tag_240:\n        /* \"#utility.yul\":11255:11333   */\n      swap8\n      pop\n        /* \"#utility.yul\":11356:11416   */\n      tag_241\n        /* \"#utility.yul\":11409:11415   */\n      dup4\n        /* \"#utility.yul\":11356:11416   */\n      tag_103\n      jump\t// in\n    tag_241:\n        /* \"#utility.yul\":11346:11416   */\n      swap3\n      pop\n        /* \"#utility.yul\":11194:11426   */\n      pop\n        /* \"#utility.yul\":11181:11182   */\n      0x01\n        /* \"#utility.yul\":11178:11179   */\n      dup2\n        /* \"#utility.yul\":11174:11183   */\n      add\n        /* \"#utility.yul\":11169:11183   */\n      swap1\n      pop\n        /* \"#utility.yul\":11134:11426   */\n      jump(tag_237)\n    tag_239:\n        /* \"#utility.yul\":11138:11152   */\n      pop\n        /* \"#utility.yul\":11442:11445   */\n      dup6\n        /* \"#utility.yul\":11435:11445   */\n      swap4\n      pop\n        /* \"#utility.yul\":10817:11451   */\n      pop\n      pop\n      pop\n        /* \"#utility.yul\":10675:11451   */\n      swap3\n      swap2\n      pop\n      pop\n      jump\t// out\n        /* \"#utility.yul\":11457:12074   */\n    tag_31:\n        /* \"#utility.yul\":11675:11678   */\n      0x00\n        /* \"#utility.yul\":11690:11765   */\n      tag_243\n        /* \"#utility.yul\":11761:11764   */\n      dup3\n        /* \"#utility.yul\":11752:11758   */\n      dup7\n        /* \"#utility.yul\":11690:11765   */\n      tag_92\n      jump\t// in\n    tag_243:\n        /* \"#utility.yul\":11790:11792   */\n      0x20\n        /* \"#utility.yul\":11785:11788   */\n      dup3\n        /* \"#utility.yul\":11781:11793   */\n      add\n        /* \"#utility.yul\":11774:11793   */\n      swap2\n      pop\n        /* \"#utility.yul\":11803:11878   */\n      tag_244\n        /* \"#utility.yul\":11874:11877   */\n      dup3\n        /* \"#utility.yul\":11865:11871   */\n      dup6\n        /* \"#utility.yul\":11803:11878   */\n      tag_97\n      jump\t// in\n    tag_244:\n        /* \"#utility.yul\":11903:11905   */\n      0x14\n        /* \"#utility.yul\":11898:11901   */\n      dup3\n        /* \"#utility.yul\":11894:11906   */\n      add\n        /* \"#utility.yul\":11887:11906   */\n      swap2\n      pop\n        /* \"#utility.yul\":11923:12048   */\n      tag_245\n        /* \"#utility.yul\":12044:12047   */\n      dup3\n        /* \"#utility.yul\":12035:12041   */\n      dup5\n        /* \"#utility.yul\":11923:12048   */\n      tag_104\n      jump\t// in\n    tag_245:\n        /* \"#utility.yul\":11916:12048   */\n      swap2\n      pop\n        /* \"#utility.yul\":12065:12068   */\n      dup2\n        /* \"#utility.yul\":12058:12068   */\n      swap1\n      pop\n        /* \"#utility.yul\":11457:12074   */\n      swap5\n      swap4\n      pop\n      pop\n      pop\n      pop\n      jump\t// out\n        /* \"#utility.yul\":12080:12260   */\n    tag_40:\n        /* \"#utility.yul\":12128:12205   */\n      0x4e487b7100000000000000000000000000000000000000000000000000000000\n        /* \"#utility.yul\":12125:12126   */\n      0x00\n        /* \"#utility.yul\":12118:12206   */\n      mstore\n        /* \"#utility.yul\":12225:12229   */\n      0x32\n        /* \"#utility.yul\":12222:12223   */\n      0x04\n        /* \"#utility.yul\":12215:12230   */\n      mstore\n        /* \"#utility.yul\":12249:12253   */\n      0x24\n        /* \"#utility.yul\":12246:12247   */\n      0x00\n        /* \"#utility.yul\":12239:12254   */\n      revert\n        /* \"#utility.yul\":12266:12384   */\n    tag_105:\n        /* \"#utility.yul\":12353:12377   */\n      tag_248\n        /* \"#utility.yul\":12371:12376   */\n      dup2\n        /* \"#utility.yul\":12353:12377   */\n      tag_93\n      jump\t// in\n    tag_248:\n        /* \"#utility.yul\":12348:12351   */\n      dup3\n        /* \"#utility.yul\":12341:12378   */\n      mstore\n        /* \"#utility.yul\":12266:12384   */\n      pop\n      pop\n      jump\t// out\n        /* \"#utility.yul\":12390:12722   */\n    tag_42:\n        /* \"#utility.yul\":12511:12515   */\n      0x00\n        /* \"#utility.yul\":12549:12551   */\n      0x40\n        /* \"#utility.yul\":12538:12547   */\n      dup3\n        /* \"#utility.yul\":12534:12552   */\n      add\n        /* \"#utility.yul\":12526:12552   */\n      swap1\n      pop\n        /* \"#utility.yul\":12562:12633   */\n      tag_250\n        /* \"#utility.yul\":12630:12631   */\n      0x00\n        /* \"#utility.yul\":12619:12628   */\n      dup4\n        /* \"#utility.yul\":12615:12632   */\n      add\n        /* \"#utility.yul\":12606:12612   */\n      dup6\n        /* \"#utility.yul\":12562:12633   */\n      tag_68\n      jump\t// in\n    tag_250:\n        /* \"#utility.yul\":12643:12715   */\n      tag_251\n        /* \"#utility.yul\":12711:12713   */\n      0x20\n        /* \"#utility.yul\":12700:12709   */\n      dup4\n        /* \"#utility.yul\":12696:12714   */\n      add\n        /* \"#utility.yul\":12687:12693   */\n      dup5\n        /* \"#utility.yul\":12643:12715   */\n      tag_105\n      jump\t// in\n    tag_251:\n        /* \"#utility.yul\":12390:12722   */\n      swap4\n      swap3\n      pop\n      pop\n      pop\n      jump\t// out\n        /* \"#utility.yul\":12728:12904   */\n    tag_106:\n        /* \"#utility.yul\":12868:12896   */\n      0x4f6e6c79206f776e65722063616e207570646174652064617461000000000000\n        /* \"#utility.yul\":12864:12865   */\n      0x00\n        /* \"#utility.yul\":12856:12862   */\n      dup3\n        /* \"#utility.yul\":12852:12866   */\n      add\n        /* \"#utility.yul\":12845:12897   */\n      mstore\n        /* \"#utility.yul\":12728:12904   */\n      pop\n      jump\t// out\n        /* \"#utility.yul\":12910:13276   */\n    tag_107:\n        /* \"#utility.yul\":13052:13055   */\n      0x00\n        /* \"#utility.yul\":13073:13140   */\n      tag_254\n        /* \"#utility.yul\":13137:13139   */\n      0x1a\n        /* \"#utility.yul\":13132:13135   */\n      dup4\n        /* \"#utility.yul\":13073:13140   */\n      tag_88\n      jump\t// in\n    tag_254:\n        /* \"#utility.yul\":13066:13140   */\n      swap2\n      pop\n        /* \"#utility.yul\":13149:13242   */\n      tag_255\n        /* \"#utility.yul\":13238:13241   */\n      dup3\n        /* \"#utility.yul\":13149:13242   */\n      tag_106\n      jump\t// in\n    tag_255:\n        /* \"#utility.yul\":13267:13269   */\n      0x20\n        /* \"#utility.yul\":13262:13265   */\n      dup3\n        /* \"#utility.yul\":13258:13270   */\n      add\n        /* \"#utility.yul\":13251:13270   */\n      swap1\n      pop\n        /* \"#utility.yul\":12910:13276   */\n      swap2\n      swap1\n      pop\n      jump\t// out\n        /* \"#utility.yul\":13282:13701   */\n    tag_46:\n        /* \"#utility.yul\":13448:13452   */\n      0x00\n        /* \"#utility.yul\":13486:13488   */\n      0x20\n        /* \"#utility.yul\":13475:13484   */\n      dup3\n        /* \"#utility.yul\":13471:13489   */\n      add\n        /* \"#utility.yul\":13463:13489   */\n      swap1\n      pop\n        /* \"#utility.yul\":13535:13544   */\n      dup2\n        /* \"#utility.yul\":13529:13533   */\n      dup2\n        /* \"#utility.yul\":13525:13545   */\n      sub\n        /* \"#utility.yul\":13521:13522   */\n      0x00\n        /* \"#utility.yul\":13510:13519   */\n      dup4\n        /* \"#utility.yul\":13506:13523   */\n      add\n        /* \"#utility.yul\":13499:13546   */\n      mstore\n        /* \"#utility.yul\":13563:13694   */\n      tag_257\n        /* \"#utility.yul\":13689:13693   */\n      dup2\n        /* \"#utility.yul\":13563:13694   */\n      tag_107\n      jump\t// in\n    tag_257:\n        /* \"#utility.yul\":13555:13694   */\n      swap1\n      pop\n        /* \"#utility.yul\":13282:13701   */\n      swap2\n      swap1\n      pop\n      jump\t// out\n        /* \"#utility.yul\":13707:13881   */\n    tag_108:\n        /* \"#utility.yul\":13847:13873   */\n      0x496e76616c6964207374616765207472616e736974696f6e0000000000000000\n        /* \"#utility.yul\":13843:13844   */\n      0x00\n        /* \"#utility.yul\":13835:13841   */\n      dup3\n        /* \"#utility.yul\":13831:13845   */\n      add\n        /* \"#utility.yul\":13824:13874   */\n      mstore\n        /* \"#utility.yul\":13707:13881   */\n      pop\n      jump\t// out\n        /* \"#utility.yul\":13887:14253   */\n    tag_109:\n        /* \"#utility.yul\":14029:14032   */\n      0x00\n        /* \"#utility.yul\":14050:14117   */\n      tag_260\n        /* \"#utility.yul\":14114:14116   */\n      0x18\n        /* \"#utility.yul\":14109:14112   */\n      dup4\n        /* \"#utility.yul\":14050:14117   */\n      tag_88\n      jump\t// in\n    tag_260:\n        /* \"#utility.yul\":14043:14117   */\n      swap2\n      pop\n        /* \"#utility.yul\":14126:14219   */\n      tag_261\n        /* \"#utility.yul\":14215:14218   */\n      dup3\n        /* \"#utility.yul\":14126:14219   */\n      tag_108\n      jump\t// in\n    tag_261:\n        /* \"#utility.yul\":14244:14246   */\n      0x20\n        /* \"#utility.yul\":14239:14242   */\n      dup3\n        /* \"#utility.yul\":14235:14247   */\n      add\n        /* \"#utility.yul\":14228:14247   */\n      swap1\n      pop\n        /* \"#utility.yul\":13887:14253   */\n      swap2\n      swap1\n      pop\n      jump\t// out\n        /* \"#utility.yul\":14259:14678   */\n    tag_53:\n        /* \"#utility.yul\":14425:14429   */\n      0x00\n        /* \"#utility.yul\":14463:14465   */\n      0x20\n        /* \"#utility.yul\":14452:14461   */\n      dup3\n        /* \"#utility.yul\":14448:14466   */\n      add\n        /* \"#utility.yul\":14440:14466   */\n      swap1\n      pop\n        /* \"#utility.yul\":14512:14521   */\n      dup2\n        /* \"#utility.yul\":14506:14510   */\n      dup2\n        /* \"#utility.yul\":14502:14522   */\n      sub\n        /* \"#utility.yul\":14498:14499   */\n      0x00\n        /* \"#utility.yul\":14487:14496   */\n      dup4\n        /* \"#utility.yul\":14483:14500   */\n      add\n        /* \"#utility.yul\":14476:14523   */\n      mstore\n        /* \"#utility.yul\":14540:14671   */\n      tag_263\n        /* \"#utility.yul\":14666:14670   */\n      dup2\n        /* \"#utility.yul\":14540:14671   */\n      tag_109\n      jump\t// in\n    tag_263:\n        /* \"#utility.yul\":14532:14671   */\n      swap1\n      pop\n        /* \"#utility.yul\":14259:14678   */\n      swap2\n      swap1\n      pop\n      jump\t// out\n\n    auxdata: 0xa264697066735822122013f9f36a8618c9c4b55ff201c9261274238bf398896ec44b0ffe29d4407aed7a64736f6c63430008190033\n}\n",
				"bytecode": {
					"linkReferences": {},
					"object": "6080604052348015600e575f80fd5b50610c4e8061001c5f395ff3fe608060405234801561000f575f80fd5b506004361061004a575f3560e01c806329507f731461004e5780637acc0b201461006a578063dad145301461009c578063dc23fb5d146100b8575b5f80fd5b6100686004803603810190610063919061057c565b6100d4565b005b610084600480360381019061007f91906105ba565b6101bf565b60405161009393929190610676565b60405180910390f35b6100b660048036038101906100b1919061082e565b610210565b005b6100d260048036038101906100cd9190610898565b610361565b005b5f805f8481526020019081526020015f2090503373ffffffffffffffffffffffffffffffffffffffff16816001015f9054906101000a900473ffffffffffffffffffffffffffffffffffffffff1673ffffffffffffffffffffffffffffffffffffffff1614610178576040517f08c379a000000000000000000000000000000000000000000000000000000000815260040161016f90610968565b60405180910390fd5b81816001015f6101000a81548173ffffffffffffffffffffffffffffffffffffffff021916908373ffffffffffffffffffffffffffffffffffffffff160217905550505050565b5f602052805f5260405f205f91509050805f015490806001015f9054906101000a900473ffffffffffffffffffffffffffffffffffffffff16908060010160149054906101000a900460ff16905083565b5f42338360405160200161022693929190610aad565b604051602081830303815290604052805190602001205f1c90505f805f8381526020019081526020015f20905081815f018190555033816001015f6101000a81548173ffffffffffffffffffffffffffffffffffffffff021916908373ffffffffffffffffffffffffffffffffffffffff1602179055505f8160010160146101000a81548160ff021916908360048111156102c4576102c3610603565b5b02179055505f5b835160ff168160ff16101561032257838160ff16815181106102f0576102ef610ae5565b5b6020026020010151826002015f8360ff1660ff1681526020019081526020015f208190555080806001019150506102cb565b507f73e014c0a076665d9511a27e878fadccb6d7171f5754ba1167a670023760b0158233604051610354929190610b21565b60405180910390a1505050565b5f805f8581526020019081526020015f2090503373ffffffffffffffffffffffffffffffffffffffff16816001015f9054906101000a900473ffffffffffffffffffffffffffffffffffffffff1673ffffffffffffffffffffffffffffffffffffffff1614610405576040517f08c379a00000000000000000000000000000000000000000000000000000000081526004016103fc90610b92565b60405180910390fd5b82600481111561041857610417610603565b5b8160010160149054906101000a900460ff16600481111561043c5761043b610603565b5b1061047c576040517f08c379a000000000000000000000000000000000000000000000000000000000815260040161047390610bfa565b60405180910390fd5b81816002015f85600481111561049557610494610603565b5b60ff1660ff1681526020019081526020015f2081905550828160010160146101000a81548160ff021916908360048111156104d3576104d2610603565b5b021790555050505050565b5f604051905090565b5f80fd5b5f80fd5b5f819050919050565b610501816104ef565b811461050b575f80fd5b50565b5f8135905061051c816104f8565b92915050565b5f73ffffffffffffffffffffffffffffffffffffffff82169050919050565b5f61054b82610522565b9050919050565b61055b81610541565b8114610565575f80fd5b50565b5f8135905061057681610552565b92915050565b5f8060408385031215610592576105916104e7565b5b5f61059f8582860161050e565b92505060206105b085828601610568565b9150509250929050565b5f602082840312156105cf576105ce6104e7565b5b5f6105dc8482850161050e565b91505092915050565b6105ee816104ef565b82525050565b6105fd81610541565b82525050565b7f4e487b71000000000000000000000000000000000000000000000000000000005f52602160045260245ffd5b6005811061064157610640610603565b5b50565b5f81905061065182610630565b919050565b5f61066082610644565b9050919050565b61067081610656565b82525050565b5f6060820190506106895f8301866105e5565b61069660208301856105f4565b6106a36040830184610667565b949350505050565b5f80fd5b5f601f19601f8301169050919050565b7f4e487b71000000000000000000000000000000000000000000000000000000005f52604160045260245ffd5b6106f5826106af565b810181811067ffffffffffffffff82111715610714576107136106bf565b5b80604052505050565b5f6107266104de565b905061073282826106ec565b919050565b5f67ffffffffffffffff821115610751576107506106bf565b5b602082029050602081019050919050565b5f80fd5b5f819050919050565b61077881610766565b8114610782575f80fd5b50565b5f813590506107938161076f565b92915050565b5f6107ab6107a684610737565b61071d565b905080838252602082019050602084028301858111156107ce576107cd610762565b5b835b818110156107f757806107e38882610785565b8452602084019350506020810190506107d0565b5050509392505050565b5f82601f830112610815576108146106ab565b5b8135610825848260208601610799565b91505092915050565b5f60208284031215610843576108426104e7565b5b5f82013567ffffffffffffffff8111156108605761085f6104eb565b5b61086c84828501610801565b91505092915050565b60058110610881575f80fd5b50565b5f8135905061089281610875565b92915050565b5f805f606084860312156108af576108ae6104e7565b5b5f6108bc8682870161050e565b93505060206108cd86828701610884565b92505060406108de86828701610785565b9150509250925092565b5f82825260208201905092915050565b7f4f6e6c79206f776e65722063616e207472616e73666572206f776e65727368695f8201527f7000000000000000000000000000000000000000000000000000000000000000602082015250565b5f6109526021836108e8565b915061095d826108f8565b604082019050919050565b5f6020820190508181035f83015261097f81610946565b9050919050565b5f819050919050565b6109a061099b826104ef565b610986565b82525050565b5f6109b082610522565b9050919050565b5f8160601b9050919050565b5f6109cd826109b7565b9050919050565b5f6109de826109c3565b9050919050565b6109f66109f1826109a6565b6109d4565b82525050565b5f81519050919050565b5f81905092915050565b5f819050602082019050919050565b610a2881610766565b82525050565b5f610a398383610a1f565b60208301905092915050565b5f602082019050919050565b5f610a5b826109fc565b610a658185610a06565b9350610a7083610a10565b805f5b83811015610aa0578151610a878882610a2e565b9750610a9283610a45565b925050600181019050610a73565b5085935050505092915050565b5f610ab8828661098f565b602082019150610ac882856109e5565b601482019150610ad88284610a51565b9150819050949350505050565b7f4e487b71000000000000000000000000000000000000000000000000000000005f52603260045260245ffd5b610b1b816109a6565b82525050565b5f604082019050610b345f8301856105e5565b610b416020830184610b12565b9392505050565b7f4f6e6c79206f776e65722063616e2075706461746520646174610000000000005f82015250565b5f610b7c601a836108e8565b9150610b8782610b48565b602082019050919050565b5f6020820190508181035f830152610ba981610b70565b9050919050565b7f496e76616c6964207374616765207472616e736974696f6e00000000000000005f82015250565b5f610be46018836108e8565b9150610bef82610bb0565b602082019050919050565b5f6020820190508181035f830152610c1181610bd8565b905091905056fea264697066735822122013f9f36a8618c9c4b55ff201c9261274238bf398896ec44b0ffe29d4407aed7a64736f6c63430008190033",
					"opcodes": "PUSH1 0x80 PUSH1 0x40 MSTORE CALLVALUE DUP1 ISZERO PUSH1 0xE JUMPI PUSH0 DUP1 REVERT JUMPDEST POP PUSH2 0xC4E DUP1 PUSH2 0x1C PUSH0 CODECOPY PUSH0 RETURN INVALID PUSH1 0x80 PUSH1 0x40 MSTORE CALLVALUE DUP1 ISZERO PUSH2 0xF JUMPI PUSH0 DUP1 REVERT JUMPDEST POP PUSH1 0x4 CALLDATASIZE LT PUSH2 0x4A JUMPI PUSH0 CALLDATALOAD PUSH1 0xE0 SHR DUP1 PUSH4 0x29507F73 EQ PUSH2 0x4E JUMPI DUP1 PUSH4 0x7ACC0B20 EQ PUSH2 0x6A JUMPI DUP1 PUSH4 0xDAD14530 EQ PUSH2 0x9C JUMPI DUP1 PUSH4 0xDC23FB5D EQ PUSH2 0xB8 JUMPI JUMPDEST PUSH0 DUP1 REVERT JUMPDEST PUSH2 0x68 PUSH1 0x4 DUP1 CALLDATASIZE SUB DUP2 ADD SWAP1 PUSH2 0x63 SWAP2 SWAP1 PUSH2 0x57C JUMP JUMPDEST PUSH2 0xD4 JUMP JUMPDEST STOP JUMPDEST PUSH2 0x84 PUSH1 0x4 DUP1 CALLDATASIZE SUB DUP2 ADD SWAP1 PUSH2 0x7F SWAP2 SWAP1 PUSH2 0x5BA JUMP JUMPDEST PUSH2 0x1BF JUMP JUMPDEST PUSH1 0x40 MLOAD PUSH2 0x93 SWAP4 SWAP3 SWAP2 SWAP1 PUSH2 0x676 JUMP JUMPDEST PUSH1 0x40 MLOAD DUP1 SWAP2 SUB SWAP1 RETURN JUMPDEST PUSH2 0xB6 PUSH1 0x4 DUP1 CALLDATASIZE SUB DUP2 ADD SWAP1 PUSH2 0xB1 SWAP2 SWAP1 PUSH2 0x82E JUMP JUMPDEST PUSH2 0x210 JUMP JUMPDEST STOP JUMPDEST PUSH2 0xD2 PUSH1 0x4 DUP1 CALLDATASIZE SUB DUP2 ADD SWAP1 PUSH2 0xCD SWAP2 SWAP1 PUSH2 0x898 JUMP JUMPDEST PUSH2 0x361 JUMP JUMPDEST STOP JUMPDEST PUSH0 DUP1 PUSH0 DUP5 DUP2 MSTORE PUSH1 0x20 ADD SWAP1 DUP2 MSTORE PUSH1 0x20 ADD PUSH0 KECCAK256 SWAP1 POP CALLER PUSH20 0xFFFFFFFFFFFFFFFFFFFFFFFFFFFFFFFFFFFFFFFF AND DUP2 PUSH1 0x1 ADD PUSH0 SWAP1 SLOAD SWAP1 PUSH2 0x100 EXP SWAP1 DIV PUSH20 0xFFFFFFFFFFFFFFFFFFFFFFFFFFFFFFFFFFFFFFFF AND PUSH20 0xFFFFFFFFFFFFFFFFFFFFFFFFFFFFFFFFFFFFFFFF AND EQ PUSH2 0x178 JUMPI PUSH1 0x40 MLOAD PUSH32 0x8C379A000000000000000000000000000000000000000000000000000000000 DUP2 MSTORE PUSH1 0x4 ADD PUSH2 0x16F SWAP1 PUSH2 0x968 JUMP JUMPDEST PUSH1 0x40 MLOAD DUP1 SWAP2 SUB SWAP1 REVERT JUMPDEST DUP2 DUP2 PUSH1 0x1 ADD PUSH0 PUSH2 0x100 EXP DUP2 SLOAD DUP2 PUSH20 0xFFFFFFFFFFFFFFFFFFFFFFFFFFFFFFFFFFFFFFFF MUL NOT AND SWAP1 DUP4 PUSH20 0xFFFFFFFFFFFFFFFFFFFFFFFFFFFFFFFFFFFFFFFF AND MUL OR SWAP1 SSTORE POP POP POP POP JUMP JUMPDEST PUSH0 PUSH1 0x20 MSTORE DUP1 PUSH0 MSTORE PUSH1 0x40 PUSH0 KECCAK256 PUSH0 SWAP2 POP SWAP1 POP DUP1 PUSH0 ADD SLOAD SWAP1 DUP1 PUSH1 0x1 ADD PUSH0 SWAP1 SLOAD SWAP1 PUSH2 0x100 EXP SWAP1 DIV PUSH20 0xFFFFFFFFFFFFFFFFFFFFFFFFFFFFFFFFFFFFFFFF AND SWAP1 DUP1 PUSH1 0x1 ADD PUSH1 0x14 SWAP1 SLOAD SWAP1 PUSH2 0x100 EXP SWAP1 DIV PUSH1 0xFF AND SWAP1 POP DUP4 JUMP JUMPDEST PUSH0 TIMESTAMP CALLER DUP4 PUSH1 0x40 MLOAD PUSH1 0x20 ADD PUSH2 0x226 SWAP4 SWAP3 SWAP2 SWAP1 PUSH2 0xAAD JUMP JUMPDEST PUSH1 0x40 MLOAD PUSH1 0x20 DUP2 DUP4 SUB SUB DUP2 MSTORE SWAP1 PUSH1 0x40 MSTORE DUP1 MLOAD SWAP1 PUSH1 0x20 ADD KECCAK256 PUSH0 SHR SWAP1 POP PUSH0 DUP1 PUSH0 DUP4 DUP2 MSTORE PUSH1 0x20 ADD SWAP1 DUP2 MSTORE PUSH1 0x20 ADD PUSH0 KECCAK256 SWAP1 POP DUP2 DUP2 PUSH0 ADD DUP2 SWAP1 SSTORE POP CALLER DUP2 PUSH1 0x1 ADD PUSH0 PUSH2 0x100 EXP DUP2 SLOAD DUP2 PUSH20 0xFFFFFFFFFFFFFFFFFFFFFFFFFFFFFFFFFFFFFFFF MUL NOT AND SWAP1 DUP4 PUSH20 0xFFFFFFFFFFFFFFFFFFFFFFFFFFFFFFFFFFFFFFFF AND MUL OR SWAP1 SSTORE POP PUSH0 DUP2 PUSH1 0x1 ADD PUSH1 0x14 PUSH2 0x100 EXP DUP2 SLOAD DUP2 PUSH1 0xFF MUL NOT AND SWAP1 DUP4 PUSH1 0x4 DUP2 GT ISZERO PUSH2 0x2C4 JUMPI PUSH2 0x2C3 PUSH2 0x603 JUMP JUMPDEST JUMPDEST MUL OR SWAP1 SSTORE POP PUSH0 JUMPDEST DUP4 MLOAD PUSH1 0xFF AND DUP2 PUSH1 0xFF AND LT ISZERO PUSH2 0x322 JUMPI DUP4 DUP2 PUSH1 0xFF AND DUP2 MLOAD DUP2 LT PUSH2 0x2F0 JUMPI PUSH2 0x2EF PUSH2 0xAE5 JUMP JUMPDEST JUMPDEST PUSH1 0x20 MUL PUSH1 0x20 ADD ADD MLOAD DUP3 PUSH1 0x2 ADD PUSH0 DUP4 PUSH1 0xFF AND PUSH1 0xFF AND DUP2 MSTORE PUSH1 0x20 ADD SWAP1 DUP2 MSTORE PUSH1 0x20 ADD PUSH0 KECCAK256 DUP2 SWAP1 SSTORE POP DUP1 DUP1 PUSH1 0x1 ADD SWAP2 POP POP PUSH2 0x2CB JUMP JUMPDEST POP PUSH32 0x73E014C0A076665D9511A27E878FADCCB6D7171F5754BA1167A670023760B015 DUP3 CALLER PUSH1 0x40 MLOAD PUSH2 0x354 SWAP3 SWAP2 SWAP1 PUSH2 0xB21 JUMP JUMPDEST PUSH1 0x40 MLOAD DUP1 SWAP2 SUB SWAP1 LOG1 POP POP POP JUMP JUMPDEST PUSH0 DUP1 PUSH0 DUP6 DUP2 MSTORE PUSH1 0x20 ADD SWAP1 DUP2 MSTORE PUSH1 0x20 ADD PUSH0 KECCAK256 SWAP1 POP CALLER PUSH20 0xFFFFFFFFFFFFFFFFFFFFFFFFFFFFFFFFFFFFFFFF AND DUP2 PUSH1 0x1 ADD PUSH0 SWAP1 SLOAD SWAP1 PUSH2 0x100 EXP SWAP1 DIV PUSH20 0xFFFFFFFFFFFFFFFFFFFFFFFFFFFFFFFFFFFFFFFF AND PUSH20 0xFFFFFFFFFFFFFFFFFFFFFFFFFFFFFFFFFFFFFFFF AND EQ PUSH2 0x405 JUMPI PUSH1 0x40 MLOAD PUSH32 0x8C379A000000000000000000000000000000000000000000000000000000000 DUP2 MSTORE PUSH1 0x4 ADD PUSH2 0x3FC SWAP1 PUSH2 0xB92 JUMP JUMPDEST PUSH1 0x40 MLOAD DUP1 SWAP2 SUB SWAP1 REVERT JUMPDEST DUP3 PUSH1 0x4 DUP2 GT ISZERO PUSH2 0x418 JUMPI PUSH2 0x417 PUSH2 0x603 JUMP JUMPDEST JUMPDEST DUP2 PUSH1 0x1 ADD PUSH1 0x14 SWAP1 SLOAD SWAP1 PUSH2 0x100 EXP SWAP1 DIV PUSH1 0xFF AND PUSH1 0x4 DUP2 GT ISZERO PUSH2 0x43C JUMPI PUSH2 0x43B PUSH2 0x603 JUMP JUMPDEST JUMPDEST LT PUSH2 0x47C JUMPI PUSH1 0x40 MLOAD PUSH32 0x8C379A000000000000000000000000000000000000000000000000000000000 DUP2 MSTORE PUSH1 0x4 ADD PUSH2 0x473 SWAP1 PUSH2 0xBFA JUMP JUMPDEST PUSH1 0x40 MLOAD DUP1 SWAP2 SUB SWAP1 REVERT JUMPDEST DUP2 DUP2 PUSH1 0x2 ADD PUSH0 DUP6 PUSH1 0x4 DUP2 GT ISZERO PUSH2 0x495 JUMPI PUSH2 0x494 PUSH2 0x603 JUMP JUMPDEST JUMPDEST PUSH1 0xFF AND PUSH1 0xFF AND DUP2 MSTORE PUSH1 0x20 ADD SWAP1 DUP2 MSTORE PUSH1 0x20 ADD PUSH0 KECCAK256 DUP2 SWAP1 SSTORE POP DUP3 DUP2 PUSH1 0x1 ADD PUSH1 0x14 PUSH2 0x100 EXP DUP2 SLOAD DUP2 PUSH1 0xFF MUL NOT AND SWAP1 DUP4 PUSH1 0x4 DUP2 GT ISZERO PUSH2 0x4D3 JUMPI PUSH2 0x4D2 PUSH2 0x603 JUMP JUMPDEST JUMPDEST MUL OR SWAP1 SSTORE POP POP POP POP POP JUMP JUMPDEST PUSH0 PUSH1 0x40 MLOAD SWAP1 POP SWAP1 JUMP JUMPDEST PUSH0 DUP1 REVERT JUMPDEST PUSH0 DUP1 REVERT JUMPDEST PUSH0 DUP2 SWAP1 POP SWAP2 SWAP1 POP JUMP JUMPDEST PUSH2 0x501 DUP2 PUSH2 0x4EF JUMP JUMPDEST DUP2 EQ PUSH2 0x50B JUMPI PUSH0 DUP1 REVERT JUMPDEST POP JUMP JUMPDEST PUSH0 DUP2 CALLDATALOAD SWAP1 POP PUSH2 0x51C DUP2 PUSH2 0x4F8 JUMP JUMPDEST SWAP3 SWAP2 POP POP JUMP JUMPDEST PUSH0 PUSH20 0xFFFFFFFFFFFFFFFFFFFFFFFFFFFFFFFFFFFFFFFF DUP3 AND SWAP1 POP SWAP2 SWAP1 POP JUMP JUMPDEST PUSH0 PUSH2 0x54B DUP3 PUSH2 0x522 JUMP JUMPDEST SWAP1 POP SWAP2 SWAP1 POP JUMP JUMPDEST PUSH2 0x55B DUP2 PUSH2 0x541 JUMP JUMPDEST DUP2 EQ PUSH2 0x565 JUMPI PUSH0 DUP1 REVERT JUMPDEST POP JUMP JUMPDEST PUSH0 DUP2 CALLDATALOAD SWAP1 POP PUSH2 0x576 DUP2 PUSH2 0x552 JUMP JUMPDEST SWAP3 SWAP2 POP POP JUMP JUMPDEST PUSH0 DUP1 PUSH1 0x40 DUP4 DUP6 SUB SLT ISZERO PUSH2 0x592 JUMPI PUSH2 0x591 PUSH2 0x4E7 JUMP JUMPDEST JUMPDEST PUSH0 PUSH2 0x59F DUP6 DUP3 DUP7 ADD PUSH2 0x50E JUMP JUMPDEST SWAP3 POP POP PUSH1 0x20 PUSH2 0x5B0 DUP6 DUP3 DUP7 ADD PUSH2 0x568 JUMP JUMPDEST SWAP2 POP POP SWAP3 POP SWAP3 SWAP1 POP JUMP JUMPDEST PUSH0 PUSH1 0x20 DUP3 DUP5 SUB SLT ISZERO PUSH2 0x5CF JUMPI PUSH2 0x5CE PUSH2 0x4E7 JUMP JUMPDEST JUMPDEST PUSH0 PUSH2 0x5DC DUP5 DUP3 DUP6 ADD PUSH2 0x50E JUMP JUMPDEST SWAP2 POP POP SWAP3 SWAP2 POP POP JUMP JUMPDEST PUSH2 0x5EE DUP2 PUSH2 0x4EF JUMP JUMPDEST DUP3 MSTORE POP POP JUMP JUMPDEST PUSH2 0x5FD DUP2 PUSH2 0x541 JUMP JUMPDEST DUP3 MSTORE POP POP JUMP JUMPDEST PUSH32 0x4E487B7100000000000000000000000000000000000000000000000000000000 PUSH0 MSTORE PUSH1 0x21 PUSH1 0x4 MSTORE PUSH1 0x24 PUSH0 REVERT JUMPDEST PUSH1 0x5 DUP2 LT PUSH2 0x641 JUMPI PUSH2 0x640 PUSH2 0x603 JUMP JUMPDEST JUMPDEST POP JUMP JUMPDEST PUSH0 DUP2 SWAP1 POP PUSH2 0x651 DUP3 PUSH2 0x630 JUMP JUMPDEST SWAP2 SWAP1 POP JUMP JUMPDEST PUSH0 PUSH2 0x660 DUP3 PUSH2 0x644 JUMP JUMPDEST SWAP1 POP SWAP2 SWAP1 POP JUMP JUMPDEST PUSH2 0x670 DUP2 PUSH2 0x656 JUMP JUMPDEST DUP3 MSTORE POP POP JUMP JUMPDEST PUSH0 PUSH1 0x60 DUP3 ADD SWAP1 POP PUSH2 0x689 PUSH0 DUP4 ADD DUP7 PUSH2 0x5E5 JUMP JUMPDEST PUSH2 0x696 PUSH1 0x20 DUP4 ADD DUP6 PUSH2 0x5F4 JUMP JUMPDEST PUSH2 0x6A3 PUSH1 0x40 DUP4 ADD DUP5 PUSH2 0x667 JUMP JUMPDEST SWAP5 SWAP4 POP POP POP POP JUMP JUMPDEST PUSH0 DUP1 REVERT JUMPDEST PUSH0 PUSH1 0x1F NOT PUSH1 0x1F DUP4 ADD AND SWAP1 POP SWAP2 SWAP1 POP JUMP JUMPDEST PUSH32 0x4E487B7100000000000000000000000000000000000000000000000000000000 PUSH0 MSTORE PUSH1 0x41 PUSH1 0x4 MSTORE PUSH1 0x24 PUSH0 REVERT JUMPDEST PUSH2 0x6F5 DUP3 PUSH2 0x6AF JUMP JUMPDEST DUP2 ADD DUP2 DUP2 LT PUSH8 0xFFFFFFFFFFFFFFFF DUP3 GT OR ISZERO PUSH2 0x714 JUMPI PUSH2 0x713 PUSH2 0x6BF JUMP JUMPDEST JUMPDEST DUP1 PUSH1 0x40 MSTORE POP POP POP JUMP JUMPDEST PUSH0 PUSH2 0x726 PUSH2 0x4DE JUMP JUMPDEST SWAP1 POP PUSH2 0x732 DUP3 DUP3 PUSH2 0x6EC JUMP JUMPDEST SWAP2 SWAP1 POP JUMP JUMPDEST PUSH0 PUSH8 0xFFFFFFFFFFFFFFFF DUP3 GT ISZERO PUSH2 0x751 JUMPI PUSH2 0x750 PUSH2 0x6BF JUMP JUMPDEST JUMPDEST PUSH1 0x20 DUP3 MUL SWAP1 POP PUSH1 0x20 DUP2 ADD SWAP1 POP SWAP2 SWAP1 POP JUMP JUMPDEST PUSH0 DUP1 REVERT JUMPDEST PUSH0 DUP2 SWAP1 POP SWAP2 SWAP1 POP JUMP JUMPDEST PUSH2 0x778 DUP2 PUSH2 0x766 JUMP JUMPDEST DUP2 EQ PUSH2 0x782 JUMPI PUSH0 DUP1 REVERT JUMPDEST POP JUMP JUMPDEST PUSH0 DUP2 CALLDATALOAD SWAP1 POP PUSH2 0x793 DUP2 PUSH2 0x76F JUMP JUMPDEST SWAP3 SWAP2 POP POP JUMP JUMPDEST PUSH0 PUSH2 0x7AB PUSH2 0x7A6 DUP5 PUSH2 0x737 JUMP JUMPDEST PUSH2 0x71D JUMP JUMPDEST SWAP1 POP DUP1 DUP4 DUP3 MSTORE PUSH1 0x20 DUP3 ADD SWAP1 POP PUSH1 0x20 DUP5 MUL DUP4 ADD DUP6 DUP2 GT ISZERO PUSH2 0x7CE JUMPI PUSH2 0x7CD PUSH2 0x762 JUMP JUMPDEST JUMPDEST DUP4 JUMPDEST DUP2 DUP2 LT ISZERO PUSH2 0x7F7 JUMPI DUP1 PUSH2 0x7E3 DUP9 DUP3 PUSH2 0x785 JUMP JUMPDEST DUP5 MSTORE PUSH1 0x20 DUP5 ADD SWAP4 POP POP PUSH1 0x20 DUP2 ADD SWAP1 POP PUSH2 0x7D0 JUMP JUMPDEST POP POP POP SWAP4 SWAP3 POP POP POP JUMP JUMPDEST PUSH0 DUP3 PUSH1 0x1F DUP4 ADD SLT PUSH2 0x815 JUMPI PUSH2 0x814 PUSH2 0x6AB JUMP JUMPDEST JUMPDEST DUP2 CALLDATALOAD PUSH2 0x825 DUP5 DUP3 PUSH1 0x20 DUP7 ADD PUSH2 0x799 JUMP JUMPDEST SWAP2 POP POP SWAP3 SWAP2 POP POP JUMP JUMPDEST PUSH0 PUSH1 0x20 DUP3 DUP5 SUB SLT ISZERO PUSH2 0x843 JUMPI PUSH2 0x842 PUSH2 0x4E7 JUMP JUMPDEST JUMPDEST PUSH0 DUP3 ADD CALLDATALOAD PUSH8 0xFFFFFFFFFFFFFFFF DUP2 GT ISZERO PUSH2 0x860 JUMPI PUSH2 0x85F PUSH2 0x4EB JUMP JUMPDEST JUMPDEST PUSH2 0x86C DUP5 DUP3 DUP6 ADD PUSH2 0x801 JUMP JUMPDEST SWAP2 POP POP SWAP3 SWAP2 POP POP JUMP JUMPDEST PUSH1 0x5 DUP2 LT PUSH2 0x881 JUMPI PUSH0 DUP1 REVERT JUMPDEST POP JUMP JUMPDEST PUSH0 DUP2 CALLDATALOAD SWAP1 POP PUSH2 0x892 DUP2 PUSH2 0x875 JUMP JUMPDEST SWAP3 SWAP2 POP POP JUMP JUMPDEST PUSH0 DUP1 PUSH0 PUSH1 0x60 DUP5 DUP7 SUB SLT ISZERO PUSH2 0x8AF JUMPI PUSH2 0x8AE PUSH2 0x4E7 JUMP JUMPDEST JUMPDEST PUSH0 PUSH2 0x8BC DUP7 DUP3 DUP8 ADD PUSH2 0x50E JUMP JUMPDEST SWAP4 POP POP PUSH1 0x20 PUSH2 0x8CD DUP7 DUP3 DUP8 ADD PUSH2 0x884 JUMP JUMPDEST SWAP3 POP POP PUSH1 0x40 PUSH2 0x8DE DUP7 DUP3 DUP8 ADD PUSH2 0x785 JUMP JUMPDEST SWAP2 POP POP SWAP3 POP SWAP3 POP SWAP3 JUMP JUMPDEST PUSH0 DUP3 DUP3 MSTORE PUSH1 0x20 DUP3 ADD SWAP1 POP SWAP3 SWAP2 POP POP JUMP JUMPDEST PUSH32 0x4F6E6C79206F776E65722063616E207472616E73666572206F776E6572736869 PUSH0 DUP3 ADD MSTORE PUSH32 0x7000000000000000000000000000000000000000000000000000000000000000 PUSH1 0x20 DUP3 ADD MSTORE POP JUMP JUMPDEST PUSH0 PUSH2 0x952 PUSH1 0x21 DUP4 PUSH2 0x8E8 JUMP JUMPDEST SWAP2 POP PUSH2 0x95D DUP3 PUSH2 0x8F8 JUMP JUMPDEST PUSH1 0x40 DUP3 ADD SWAP1 POP SWAP2 SWAP1 POP JUMP JUMPDEST PUSH0 PUSH1 0x20 DUP3 ADD SWAP1 POP DUP2 DUP2 SUB PUSH0 DUP4 ADD MSTORE PUSH2 0x97F DUP2 PUSH2 0x946 JUMP JUMPDEST SWAP1 POP SWAP2 SWAP1 POP JUMP JUMPDEST PUSH0 DUP2 SWAP1 POP SWAP2 SWAP1 POP JUMP JUMPDEST PUSH2 0x9A0 PUSH2 0x99B DUP3 PUSH2 0x4EF JUMP JUMPDEST PUSH2 0x986 JUMP JUMPDEST DUP3 MSTORE POP POP JUMP JUMPDEST PUSH0 PUSH2 0x9B0 DUP3 PUSH2 0x522 JUMP JUMPDEST SWAP1 POP SWAP2 SWAP1 POP JUMP JUMPDEST PUSH0 DUP2 PUSH1 0x60 SHL SWAP1 POP SWAP2 SWAP1 POP JUMP JUMPDEST PUSH0 PUSH2 0x9CD DUP3 PUSH2 0x9B7 JUMP JUMPDEST SWAP1 POP SWAP2 SWAP1 POP JUMP JUMPDEST PUSH0 PUSH2 0x9DE DUP3 PUSH2 0x9C3 JUMP JUMPDEST SWAP1 POP SWAP2 SWAP1 POP JUMP JUMPDEST PUSH2 0x9F6 PUSH2 0x9F1 DUP3 PUSH2 0x9A6 JUMP JUMPDEST PUSH2 0x9D4 JUMP JUMPDEST DUP3 MSTORE POP POP JUMP JUMPDEST PUSH0 DUP2 MLOAD SWAP1 POP SWAP2 SWAP1 POP JUMP JUMPDEST PUSH0 DUP2 SWAP1 POP SWAP3 SWAP2 POP POP JUMP JUMPDEST PUSH0 DUP2 SWAP1 POP PUSH1 0x20 DUP3 ADD SWAP1 POP SWAP2 SWAP1 POP JUMP JUMPDEST PUSH2 0xA28 DUP2 PUSH2 0x766 JUMP JUMPDEST DUP3 MSTORE POP POP JUMP JUMPDEST PUSH0 PUSH2 0xA39 DUP4 DUP4 PUSH2 0xA1F JUMP JUMPDEST PUSH1 0x20 DUP4 ADD SWAP1 POP SWAP3 SWAP2 POP POP JUMP JUMPDEST PUSH0 PUSH1 0x20 DUP3 ADD SWAP1 POP SWAP2 SWAP1 POP JUMP JUMPDEST PUSH0 PUSH2 0xA5B DUP3 PUSH2 0x9FC JUMP JUMPDEST PUSH2 0xA65 DUP2 DUP6 PUSH2 0xA06 JUMP JUMPDEST SWAP4 POP PUSH2 0xA70 DUP4 PUSH2 0xA10 JUMP JUMPDEST DUP1 PUSH0 JUMPDEST DUP4 DUP2 LT ISZERO PUSH2 0xAA0 JUMPI DUP2 MLOAD PUSH2 0xA87 DUP9 DUP3 PUSH2 0xA2E JUMP JUMPDEST SWAP8 POP PUSH2 0xA92 DUP4 PUSH2 0xA45 JUMP JUMPDEST SWAP3 POP POP PUSH1 0x1 DUP2 ADD SWAP1 POP PUSH2 0xA73 JUMP JUMPDEST POP DUP6 SWAP4 POP POP POP POP SWAP3 SWAP2 POP POP JUMP JUMPDEST PUSH0 PUSH2 0xAB8 DUP3 DUP7 PUSH2 0x98F JUMP JUMPDEST PUSH1 0x20 DUP3 ADD SWAP2 POP PUSH2 0xAC8 DUP3 DUP6 PUSH2 0x9E5 JUMP JUMPDEST PUSH1 0x14 DUP3 ADD SWAP2 POP PUSH2 0xAD8 DUP3 DUP5 PUSH2 0xA51 JUMP JUMPDEST SWAP2 POP DUP2 SWAP1 POP SWAP5 SWAP4 POP POP POP POP JUMP JUMPDEST PUSH32 0x4E487B7100000000000000000000000000000000000000000000000000000000 PUSH0 MSTORE PUSH1 0x32 PUSH1 0x4 MSTORE PUSH1 0x24 PUSH0 REVERT JUMPDEST PUSH2 0xB1B DUP2 PUSH2 0x9A6 JUMP JUMPDEST DUP3 MSTORE POP POP JUMP JUMPDEST PUSH0 PUSH1 0x40 DUP3 ADD SWAP1 POP PUSH2 0xB34 PUSH0 DUP4 ADD DUP6 PUSH2 0x5E5 JUMP JUMPDEST PUSH2 0xB41 PUSH1 0x20 DUP4 ADD DUP5 PUSH2 0xB12 JUMP JUMPDEST SWAP4 SWAP3 POP POP POP JUMP JUMPDEST PUSH32 0x4F6E6C79206F776E65722063616E207570646174652064617461000000000000 PUSH0 DUP3 ADD MSTORE POP JUMP JUMPDEST PUSH0 PUSH2 0xB7C PUSH1 0x1A DUP4 PUSH2 0x8E8 JUMP JUMPDEST SWAP2 POP PUSH2 0xB87 DUP3 PUSH2 0xB48 JUMP JUMPDEST PUSH1 0x20 DUP3 ADD SWAP1 POP SWAP2 SWAP1 POP JUMP JUMPDEST PUSH0 PUSH1 0x20 DUP3 ADD SWAP1 POP DUP2 DUP2 SUB PUSH0 DUP4 ADD MSTORE PUSH2 0xBA9 DUP2 PUSH2 0xB70 JUMP JUMPDEST SWAP1 POP SWAP2 SWAP1 POP JUMP JUMPDEST PUSH32 0x496E76616C6964207374616765207472616E736974696F6E0000000000000000 PUSH0 DUP3 ADD MSTORE POP JUMP JUMPDEST PUSH0 PUSH2 0xBE4 PUSH1 0x18 DUP4 PUSH2 0x8E8 JUMP JUMPDEST SWAP2 POP PUSH2 0xBEF DUP3 PUSH2 0xBB0 JUMP JUMPDEST PUSH1 0x20 DUP3 ADD SWAP1 POP SWAP2 SWAP1 POP JUMP JUMPDEST PUSH0 PUSH1 0x20 DUP3 ADD SWAP1 POP DUP2 DUP2 SUB PUSH0 DUP4 ADD MSTORE PUSH2 0xC11 DUP2 PUSH2 0xBD8 JUMP JUMPDEST SWAP1 POP SWAP2 SWAP1 POP JUMP INVALID LOG2 PUSH5 0x6970667358 0x22 SLT KECCAK256 SGT 0xF9 RETURN PUSH11 0x8618C9C4B55FF201C92612 PUSH21 0x238BF398896EC44B0FFE29D4407AED7A64736F6C63 NUMBER STOP ADDMOD NOT STOP CALLER "
				},
				"gasEstimates": {
					"creation": {
						"codeDepositCost": "630000",
						"executionCost": "662",
						"totalCost": "630662"
					},
					"external": {
						"products(uint256)": "infinite",
						"registerProduct(bytes32[])": "infinite",
						"transferOwnership(uint256,address)": "27133",
						"updateProductData(uint256,uint8,bytes32)": "51848"
					}
				},
				"methodIdentifiers": {
					"products(uint256)": "7acc0b20",
					"registerProduct(bytes32[])": "dad14530",
					"transferOwnership(uint256,address)": "29507f73",
					"updateProductData(uint256,uint8,bytes32)": "dc23fb5d"
				}
			},
			"storageLayout": {
				"storage": [
					{
						"astId": 24,
						"contract": "Smart contracts/SC2.sol:SupplyChain",
						"label": "products",
						"offset": 0,
						"slot": "0",
						"type": "t_mapping(t_uint256,t_struct(Product)19_storage)"
					}
				],
				"types": {
					"t_address_payable": {
						"encoding": "inplace",
						"label": "address payable",
						"numberOfBytes": "20"
					},
					"t_bytes32": {
						"encoding": "inplace",
						"label": "bytes32",
						"numberOfBytes": "32"
					},
					"t_enum(Stage)7": {
						"encoding": "inplace",
						"label": "enum SupplyChain.Stage",
						"numberOfBytes": "1"
					},
					"t_mapping(t_uint256,t_struct(Product)19_storage)": {
						"encoding": "mapping",
						"key": "t_uint256",
						"label": "mapping(uint256 => struct SupplyChain.Product)",
						"numberOfBytes": "32",
						"value": "t_struct(Product)19_storage"
					},
					"t_mapping(t_uint8,t_bytes32)": {
						"encoding": "mapping",
						"key": "t_uint8",
						"label": "mapping(uint8 => bytes32)",
						"numberOfBytes": "32",
						"value": "t_bytes32"
					},
					"t_struct(Product)19_storage": {
						"encoding": "inplace",
						"label": "struct SupplyChain.Product",
						"members": [
							{
								"astId": 9,
								"contract": "Smart contracts/SC2.sol:SupplyChain",
								"label": "productId",
								"offset": 0,
								"slot": "0",
								"type": "t_uint256"
							},
							{
								"astId": 11,
								"contract": "Smart contracts/SC2.sol:SupplyChain",
								"label": "owner",
								"offset": 0,
								"slot": "1",
								"type": "t_address_payable"
							},
							{
								"astId": 14,
								"contract": "Smart contracts/SC2.sol:SupplyChain",
								"label": "currentStage",
								"offset": 20,
								"slot": "1",
								"type": "t_enum(Stage)7"
							},
							{
								"astId": 18,
								"contract": "Smart contracts/SC2.sol:SupplyChain",
								"label": "data",
								"offset": 0,
								"slot": "2",
								"type": "t_mapping(t_uint8,t_bytes32)"
							}
						],
						"numberOfBytes": "96"
					},
					"t_uint256": {
						"encoding": "inplace",
						"label": "uint256",
						"numberOfBytes": "32"
					},
					"t_uint8": {
						"encoding": "inplace",
						"label": "uint8",
						"numberOfBytes": "1"
					}
				}
			},
			"userdoc": {
				"kind": "user",
				"methods": {},
				"version": 1
			}
		}
	}
}