{
	"Smart contracts/SC6.sol": {
		"TradeFinance": {
			"abi": [
				{
					"anonymous": false,
					"inputs": [
						{
							"indexed": false,
							"internalType": "uint256",
							"name": "agreementId",
							"type": "uint256"
						},
						{
							"indexed": true,
							"internalType": "address",
							"name": "importer",
							"type": "address"
						},
						{
							"indexed": true,
							"internalType": "address",
							"name": "exporter",
							"type": "address"
						}
					],
					"name": "AgreementCreated",
					"type": "event"
				},
				{
					"anonymous": false,
					"inputs": [
						{
							"indexed": false,
							"internalType": "uint256",
							"name": "agreementId",
							"type": "uint256"
						}
					],
					"name": "ShipmentMarked",
					"type": "event"
				},
				{
					"anonymous": false,
					"inputs": [
						{
							"indexed": false,
							"internalType": "uint256",
							"name": "agreementId",
							"type": "uint256"
						}
					],
					"name": "TradeCompleted",
					"type": "event"
				},
				{
					"inputs": [],
					"name": "agreementCount",
					"outputs": [
						{
							"internalType": "uint256",
							"name": "",
							"type": "uint256"
						}
					],
					"stateMutability": "view",
					"type": "function"
				},
				{
					"inputs": [
						{
							"internalType": "uint256",
							"name": "",
							"type": "uint256"
						}
					],
					"name": "agreements",
					"outputs": [
						{
							"internalType": "address payable",
							"name": "importer",
							"type": "address"
						},
						{
							"internalType": "address payable",
							"name": "exporter",
							"type": "address"
						},
						{
							"internalType": "string",
							"name": "productDescription",
							"type": "string"
						},
						{
							"internalType": "uint256",
							"name": "amount",
							"type": "uint256"
						},
						{
							"internalType": "uint256",
							"name": "releaseDate",
							"type": "uint256"
						},
						{
							"internalType": "enum TradeFinance.State",
							"name": "state",
							"type": "uint8"
						}
					],
					"stateMutability": "view",
					"type": "function"
				},
				{
					"inputs": [
						{
							"internalType": "address payable",
							"name": "exporter",
							"type": "address"
						},
						{
							"internalType": "string",
							"name": "productDescription",
							"type": "string"
						},
						{
							"internalType": "uint256",
							"name": "amount",
							"type": "uint256"
						},
						{
							"internalType": "uint256",
							"name": "deliveryDays",
							"type": "uint256"
						}
					],
					"name": "createAgreement",
					"outputs": [],
					"stateMutability": "payable",
					"type": "function"
				},
				{
					"inputs": [
						{
							"internalType": "uint256",
							"name": "agreementId",
							"type": "uint256"
						}
					],
					"name": "markShipment",
					"outputs": [],
					"stateMutability": "nonpayable",
					"type": "function"
				},
				{
					"inputs": [
						{
							"internalType": "uint256",
							"name": "agreementId",
							"type": "uint256"
						}
					],
					"name": "releasePayment",
					"outputs": [],
					"stateMutability": "nonpayable",
					"type": "function"
				}
			],
			"devdoc": {
				"kind": "dev",
				"methods": {},
				"version": 1
			},
			"evm": {
				"assembly": "    /* \"Smart contracts/SC6.sol\":58:2316  contract TradeFinance {... */\n  mstore(0x40, 0x80)\n  callvalue\n  dup1\n  iszero\n  tag_1\n  jumpi\n  0x00\n  dup1\n  revert\ntag_1:\n  pop\n  dataSize(sub_0)\n  dup1\n  dataOffset(sub_0)\n  0x00\n  codecopy\n  0x00\n  return\nstop\n\nsub_0: assembly {\n        /* \"Smart contracts/SC6.sol\":58:2316  contract TradeFinance {... */\n      mstore(0x40, 0x80)\n      jumpi(tag_1, lt(calldatasize, 0x04))\n      shr(0xe0, calldataload(0x00))\n      dup1\n      0x836a8ed0\n      eq\n      tag_2\n      jumpi\n      dup1\n      0x88685cd9\n      eq\n      tag_3\n      jumpi\n      dup1\n      0x8c990f51\n      eq\n      tag_4\n      jumpi\n      dup1\n      0xbb7bb278\n      eq\n      tag_5\n      jumpi\n      dup1\n      0xbd14de96\n      eq\n      tag_6\n      jumpi\n    tag_1:\n      0x00\n      dup1\n      revert\n        /* \"Smart contracts/SC6.sol\":1186:1579  function markShipment(uint agreementId) public {... */\n    tag_2:\n      callvalue\n      dup1\n      iszero\n      tag_7\n      jumpi\n      0x00\n      dup1\n      revert\n    tag_7:\n      pop\n      tag_8\n      0x04\n      dup1\n      calldatasize\n      sub\n      dup2\n      add\n      swap1\n      tag_9\n      swap2\n      swap1\n      tag_10\n      jump\t// in\n    tag_9:\n      tag_11\n      jump\t// in\n    tag_8:\n      stop\n        /* \"Smart contracts/SC6.sol\":1585:2207  function releasePayment(uint agreementId) public {... */\n    tag_3:\n      callvalue\n      dup1\n      iszero\n      tag_12\n      jumpi\n      0x00\n      dup1\n      revert\n    tag_12:\n      pop\n      tag_13\n      0x04\n      dup1\n      calldatasize\n      sub\n      dup2\n      add\n      swap1\n      tag_14\n      swap2\n      swap1\n      tag_10\n      jump\t// in\n    tag_14:\n      tag_15\n      jump\t// in\n    tag_13:\n      stop\n        /* \"Smart contracts/SC6.sol\":629:1180  function createAgreement(address payable exporter, string memory productDescription, uint amount, uint deliveryDays) public payable {... */\n    tag_4:\n      tag_16\n      0x04\n      dup1\n      calldatasize\n      sub\n      dup2\n      add\n      swap1\n      tag_17\n      swap2\n      swap1\n      tag_18\n      jump\t// in\n    tag_17:\n      tag_19\n      jump\t// in\n    tag_16:\n      stop\n        /* \"Smart contracts/SC6.sol\":409:435  uint public agreementCount */\n    tag_5:\n      callvalue\n      dup1\n      iszero\n      tag_20\n      jumpi\n      0x00\n      dup1\n      revert\n    tag_20:\n      pop\n      tag_21\n      tag_22\n      jump\t// in\n    tag_21:\n      mload(0x40)\n      tag_23\n      swap2\n      swap1\n      tag_24\n      jump\t// in\n    tag_23:\n      mload(0x40)\n      dup1\n      swap2\n      sub\n      swap1\n      return\n        /* \"Smart contracts/SC6.sol\":354:403  mapping(uint => TradeAgreement) public agreements */\n    tag_6:\n      callvalue\n      dup1\n      iszero\n      tag_25\n      jumpi\n      0x00\n      dup1\n      revert\n    tag_25:\n      pop\n      tag_26\n      0x04\n      dup1\n      calldatasize\n      sub\n      dup2\n      add\n      swap1\n      tag_27\n      swap2\n      swap1\n      tag_10\n      jump\t// in\n    tag_27:\n      tag_28\n      jump\t// in\n    tag_26:\n      mload(0x40)\n      tag_29\n      swap7\n      swap6\n      swap5\n      swap4\n      swap3\n      swap2\n      swap1\n      tag_30\n      jump\t// in\n    tag_29:\n      mload(0x40)\n      dup1\n      swap2\n      sub\n      swap1\n      return\n        /* \"Smart contracts/SC6.sol\":1186:1579  function markShipment(uint agreementId) public {... */\n    tag_11:\n        /* \"Smart contracts/SC6.sol\":1243:1275  TradeAgreement storage agreement */\n      0x00\n        /* \"Smart contracts/SC6.sol\":1278:1288  agreements */\n      dup1\n        /* \"Smart contracts/SC6.sol\":1278:1301  agreements[agreementId] */\n      0x00\n        /* \"Smart contracts/SC6.sol\":1289:1300  agreementId */\n      dup4\n        /* \"Smart contracts/SC6.sol\":1278:1301  agreements[agreementId] */\n      dup2\n      mstore\n      0x20\n      add\n      swap1\n      dup2\n      mstore\n      0x20\n      add\n      0x00\n      keccak256\n        /* \"Smart contracts/SC6.sol\":1243:1301  TradeAgreement storage agreement = agreements[agreementId] */\n      swap1\n      pop\n        /* \"Smart contracts/SC6.sol\":1341:1351  msg.sender */\n      caller\n        /* \"Smart contracts/SC6.sol\":1319:1351  agreement.importer == msg.sender */\n      0xffffffffffffffffffffffffffffffffffffffff\n      and\n        /* \"Smart contracts/SC6.sol\":1319:1328  agreement */\n      dup2\n        /* \"Smart contracts/SC6.sol\":1319:1337  agreement.importer */\n      0x00\n      add\n      0x00\n      swap1\n      sload\n      swap1\n      0x0100\n      exp\n      swap1\n      div\n      0xffffffffffffffffffffffffffffffffffffffff\n      and\n        /* \"Smart contracts/SC6.sol\":1319:1351  agreement.importer == msg.sender */\n      0xffffffffffffffffffffffffffffffffffffffff\n      and\n      eq\n        /* \"Smart contracts/SC6.sol\":1311:1387  require(agreement.importer == msg.sender, \"Only importer can mark shipment\") */\n      tag_32\n      jumpi\n      mload(0x40)\n      0x08c379a000000000000000000000000000000000000000000000000000000000\n      dup2\n      mstore\n      0x04\n      add\n      tag_33\n      swap1\n      tag_34\n      jump\t// in\n    tag_33:\n      mload(0x40)\n      dup1\n      swap2\n      sub\n      swap1\n      revert\n    tag_32:\n        /* \"Smart contracts/SC6.sol\":1424:1437  State.CREATED */\n      0x00\n        /* \"Smart contracts/SC6.sol\":1405:1437  agreement.state == State.CREATED */\n      0x03\n      dup2\n      gt\n      iszero\n      tag_35\n      jumpi\n      tag_36\n      tag_37\n      jump\t// in\n    tag_36:\n    tag_35:\n        /* \"Smart contracts/SC6.sol\":1405:1414  agreement */\n      dup2\n        /* \"Smart contracts/SC6.sol\":1405:1420  agreement.state */\n      0x05\n      add\n      0x00\n      swap1\n      sload\n      swap1\n      0x0100\n      exp\n      swap1\n      div\n      0xff\n      and\n        /* \"Smart contracts/SC6.sol\":1405:1437  agreement.state == State.CREATED */\n      0x03\n      dup2\n      gt\n      iszero\n      tag_38\n      jumpi\n      tag_39\n      tag_37\n      jump\t// in\n    tag_39:\n    tag_38:\n      eq\n        /* \"Smart contracts/SC6.sol\":1397:1489  require(agreement.state == State.CREATED, \"Agreement not in correct state to mark shipment\") */\n      tag_40\n      jumpi\n      mload(0x40)\n      0x08c379a000000000000000000000000000000000000000000000000000000000\n      dup2\n      mstore\n      0x04\n      add\n      tag_41\n      swap1\n      tag_42\n      jump\t// in\n    tag_41:\n      mload(0x40)\n      dup1\n      swap2\n      sub\n      swap1\n      revert\n    tag_40:\n        /* \"Smart contracts/SC6.sol\":1517:1530  State.SHIPPED */\n      0x01\n        /* \"Smart contracts/SC6.sol\":1499:1508  agreement */\n      dup2\n        /* \"Smart contracts/SC6.sol\":1499:1514  agreement.state */\n      0x05\n      add\n      0x00\n        /* \"Smart contracts/SC6.sol\":1499:1530  agreement.state = State.SHIPPED */\n      0x0100\n      exp\n      dup2\n      sload\n      dup2\n      0xff\n      mul\n      not\n      and\n      swap1\n      dup4\n      0x03\n      dup2\n      gt\n      iszero\n      tag_43\n      jumpi\n      tag_44\n      tag_37\n      jump\t// in\n    tag_44:\n    tag_43:\n      mul\n      or\n      swap1\n      sstore\n      pop\n        /* \"Smart contracts/SC6.sol\":1545:1572  ShipmentMarked(agreementId) */\n      0x389f16c4810d66b04486eb4e6c741cac88531524f402ffc0fae20d950d179641\n        /* \"Smart contracts/SC6.sol\":1560:1571  agreementId */\n      dup3\n        /* \"Smart contracts/SC6.sol\":1545:1572  ShipmentMarked(agreementId) */\n      mload(0x40)\n      tag_45\n      swap2\n      swap1\n      tag_24\n      jump\t// in\n    tag_45:\n      mload(0x40)\n      dup1\n      swap2\n      sub\n      swap1\n      log1\n        /* \"Smart contracts/SC6.sol\":1233:1579  {... */\n      pop\n        /* \"Smart contracts/SC6.sol\":1186:1579  function markShipment(uint agreementId) public {... */\n      pop\n      jump\t// out\n        /* \"Smart contracts/SC6.sol\":1585:2207  function releasePayment(uint agreementId) public {... */\n    tag_15:\n        /* \"Smart contracts/SC6.sol\":1644:1676  TradeAgreement storage agreement */\n      0x00\n        /* \"Smart contracts/SC6.sol\":1679:1689  agreements */\n      dup1\n        /* \"Smart contracts/SC6.sol\":1679:1702  agreements[agreementId] */\n      0x00\n        /* \"Smart contracts/SC6.sol\":1690:1701  agreementId */\n      dup4\n        /* \"Smart contracts/SC6.sol\":1679:1702  agreements[agreementId] */\n      dup2\n      mstore\n      0x20\n      add\n      swap1\n      dup2\n      mstore\n      0x20\n      add\n      0x00\n      keccak256\n        /* \"Smart contracts/SC6.sol\":1644:1702  TradeAgreement storage agreement = agreements[agreementId] */\n      swap1\n      pop\n        /* \"Smart contracts/SC6.sol\":1739:1748  agreement */\n      dup1\n        /* \"Smart contracts/SC6.sol\":1739:1760  agreement.releaseDate */\n      0x04\n      add\n      sload\n        /* \"Smart contracts/SC6.sol\":1720:1735  block.timestamp */\n      timestamp\n        /* \"Smart contracts/SC6.sol\":1720:1760  block.timestamp >= agreement.releaseDate */\n      lt\n      iszero\n        /* \"Smart contracts/SC6.sol\":1712:1801  require(block.timestamp >= agreement.releaseDate, \"Payment release date not reached yet\") */\n      tag_47\n      jumpi\n      mload(0x40)\n      0x08c379a000000000000000000000000000000000000000000000000000000000\n      dup2\n      mstore\n      0x04\n      add\n      tag_48\n      swap1\n      tag_49\n      jump\t// in\n    tag_48:\n      mload(0x40)\n      dup1\n      swap2\n      sub\n      swap1\n      revert\n    tag_47:\n        /* \"Smart contracts/SC6.sol\":1838:1851  State.SHIPPED */\n      0x01\n        /* \"Smart contracts/SC6.sol\":1819:1851  agreement.state == State.SHIPPED */\n      0x03\n      dup2\n      gt\n      iszero\n      tag_50\n      jumpi\n      tag_51\n      tag_37\n      jump\t// in\n    tag_51:\n    tag_50:\n        /* \"Smart contracts/SC6.sol\":1819:1828  agreement */\n      dup2\n        /* \"Smart contracts/SC6.sol\":1819:1834  agreement.state */\n      0x05\n      add\n      0x00\n      swap1\n      sload\n      swap1\n      0x0100\n      exp\n      swap1\n      div\n      0xff\n      and\n        /* \"Smart contracts/SC6.sol\":1819:1851  agreement.state == State.SHIPPED */\n      0x03\n      dup2\n      gt\n      iszero\n      tag_52\n      jumpi\n      tag_53\n      tag_37\n      jump\t// in\n    tag_53:\n    tag_52:\n      eq\n        /* \"Smart contracts/SC6.sol\":1811:1879  require(agreement.state == State.SHIPPED, \"Shipment not yet marked\") */\n      tag_54\n      jumpi\n      mload(0x40)\n      0x08c379a000000000000000000000000000000000000000000000000000000000\n      dup2\n      mstore\n      0x04\n      add\n      tag_55\n      swap1\n      tag_56\n      jump\t// in\n    tag_55:\n      mload(0x40)\n      dup1\n      swap2\n      sub\n      swap1\n      revert\n    tag_54:\n        /* \"Smart contracts/SC6.sol\":1922:1931  agreement */\n      dup1\n        /* \"Smart contracts/SC6.sol\":1922:1938  agreement.amount */\n      0x03\n      add\n      sload\n        /* \"Smart contracts/SC6.sol\":1897:1918  address(this).balance */\n      selfbalance\n        /* \"Smart contracts/SC6.sol\":1897:1938  address(this).balance >= agreement.amount */\n      lt\n      iszero\n        /* \"Smart contracts/SC6.sol\":1889:1972  require(address(this).balance >= agreement.amount, \"Insufficient contract balance\") */\n      tag_57\n      jumpi\n      mload(0x40)\n      0x08c379a000000000000000000000000000000000000000000000000000000000\n      dup2\n      mstore\n      0x04\n      add\n      tag_58\n      swap1\n      tag_59\n      jump\t// in\n    tag_58:\n      mload(0x40)\n      dup1\n      swap2\n      sub\n      swap1\n      revert\n    tag_57:\n        /* \"Smart contracts/SC6.sol\":1983:1995  bool success */\n      0x00\n        /* \"Smart contracts/SC6.sol\":2001:2010  agreement */\n      dup2\n        /* \"Smart contracts/SC6.sol\":2001:2019  agreement.exporter */\n      0x01\n      add\n      0x00\n      swap1\n      sload\n      swap1\n      0x0100\n      exp\n      swap1\n      div\n      0xffffffffffffffffffffffffffffffffffffffff\n      and\n        /* \"Smart contracts/SC6.sol\":2001:2024  agreement.exporter.call */\n      0xffffffffffffffffffffffffffffffffffffffff\n      and\n        /* \"Smart contracts/SC6.sol\":2032:2041  agreement */\n      dup3\n        /* \"Smart contracts/SC6.sol\":2032:2048  agreement.amount */\n      0x03\n      add\n      sload\n        /* \"Smart contracts/SC6.sol\":2001:2053  agreement.exporter.call{value: agreement.amount}(\"\") */\n      mload(0x40)\n      tag_60\n      swap1\n      tag_61\n      jump\t// in\n    tag_60:\n      0x00\n      mload(0x40)\n      dup1\n      dup4\n      sub\n      dup2\n      dup6\n      dup8\n      gas\n      call\n      swap3\n      pop\n      pop\n      pop\n      returndatasize\n      dup1\n      0x00\n      dup2\n      eq\n      tag_64\n      jumpi\n      mload(0x40)\n      swap2\n      pop\n      and(add(returndatasize, 0x3f), not(0x1f))\n      dup3\n      add\n      0x40\n      mstore\n      returndatasize\n      dup3\n      mstore\n      returndatasize\n      0x00\n      0x20\n      dup5\n      add\n      returndatacopy\n      jump(tag_63)\n    tag_64:\n      0x60\n      swap2\n      pop\n    tag_63:\n      pop\n        /* \"Smart contracts/SC6.sol\":1982:2053  (bool success, ) = agreement.exporter.call{value: agreement.amount}(\"\") */\n      pop\n      swap1\n      pop\n        /* \"Smart contracts/SC6.sol\":2071:2078  success */\n      dup1\n        /* \"Smart contracts/SC6.sol\":2063:2106  require(success, \"Payment transfer failed\") */\n      tag_65\n      jumpi\n      mload(0x40)\n      0x08c379a000000000000000000000000000000000000000000000000000000000\n      dup2\n      mstore\n      0x04\n      add\n      tag_66\n      swap1\n      tag_67\n      jump\t// in\n    tag_66:\n      mload(0x40)\n      dup1\n      swap2\n      sub\n      swap1\n      revert\n    tag_65:\n        /* \"Smart contracts/SC6.sol\":2143:2158  State.COMPLETED */\n      0x02\n        /* \"Smart contracts/SC6.sol\":2125:2134  agreement */\n      dup3\n        /* \"Smart contracts/SC6.sol\":2125:2140  agreement.state */\n      0x05\n      add\n      0x00\n        /* \"Smart contracts/SC6.sol\":2125:2158  agreement.state = State.COMPLETED */\n      0x0100\n      exp\n      dup2\n      sload\n      dup2\n      0xff\n      mul\n      not\n      and\n      swap1\n      dup4\n      0x03\n      dup2\n      gt\n      iszero\n      tag_68\n      jumpi\n      tag_69\n      tag_37\n      jump\t// in\n    tag_69:\n    tag_68:\n      mul\n      or\n      swap1\n      sstore\n      pop\n        /* \"Smart contracts/SC6.sol\":2173:2200  TradeCompleted(agreementId) */\n      0x60f91a26281f20fb528663f4da55773c83e2ee8a7a5dddb6d1753749e81dc49b\n        /* \"Smart contracts/SC6.sol\":2188:2199  agreementId */\n      dup4\n        /* \"Smart contracts/SC6.sol\":2173:2200  TradeCompleted(agreementId) */\n      mload(0x40)\n      tag_70\n      swap2\n      swap1\n      tag_24\n      jump\t// in\n    tag_70:\n      mload(0x40)\n      dup1\n      swap2\n      sub\n      swap1\n      log1\n        /* \"Smart contracts/SC6.sol\":1634:2207  {... */\n      pop\n      pop\n        /* \"Smart contracts/SC6.sol\":1585:2207  function releasePayment(uint agreementId) public {... */\n      pop\n      jump\t// out\n        /* \"Smart contracts/SC6.sol\":629:1180  function createAgreement(address payable exporter, string memory productDescription, uint amount, uint deliveryDays) public payable {... */\n    tag_19:\n        /* \"Smart contracts/SC6.sol\":792:798  amount */\n      dup2\n        /* \"Smart contracts/SC6.sol\":779:788  msg.value */\n      callvalue\n        /* \"Smart contracts/SC6.sol\":779:798  msg.value == amount */\n      eq\n        /* \"Smart contracts/SC6.sol\":771:827  require(msg.value == amount, \"Incorrect deposit amount\") */\n      tag_72\n      jumpi\n      mload(0x40)\n      0x08c379a000000000000000000000000000000000000000000000000000000000\n      dup2\n      mstore\n      0x04\n      add\n      tag_73\n      swap1\n      tag_74\n      jump\t// in\n    tag_73:\n      mload(0x40)\n      dup1\n      swap2\n      sub\n      swap1\n      revert\n    tag_72:\n        /* \"Smart contracts/SC6.sol\":837:868  address payable importerPayable */\n      0x00\n        /* \"Smart contracts/SC6.sol\":879:889  msg.sender */\n      caller\n        /* \"Smart contracts/SC6.sol\":837:890  address payable importerPayable = payable(msg.sender) */\n      swap1\n      pop\n        /* \"Smart contracts/SC6.sol\":900:916  uint agreementId */\n      0x00\n        /* \"Smart contracts/SC6.sol\":919:933  agreementCount */\n      0x01\n      0x00\n        /* \"Smart contracts/SC6.sol\":919:935  agreementCount++ */\n      dup2\n      sload\n      dup1\n      swap3\n      swap2\n      swap1\n      tag_75\n      swap1\n      tag_76\n      jump\t// in\n    tag_75:\n      swap2\n      swap1\n      pop\n      sstore\n        /* \"Smart contracts/SC6.sol\":900:935  uint agreementId = agreementCount++ */\n      swap1\n      pop\n        /* \"Smart contracts/SC6.sol\":971:1102  TradeAgreement(importerPayable, exporter, productDescription, amount, block.timestamp + daysToSeconds(deliveryDays), State.CREATED) */\n      mload(0x40)\n      dup1\n      0xc0\n      add\n      0x40\n      mstore\n      dup1\n        /* \"Smart contracts/SC6.sol\":986:1001  importerPayable */\n      dup4\n        /* \"Smart contracts/SC6.sol\":971:1102  TradeAgreement(importerPayable, exporter, productDescription, amount, block.timestamp + daysToSeconds(deliveryDays), State.CREATED) */\n      0xffffffffffffffffffffffffffffffffffffffff\n      and\n      dup2\n      mstore\n      0x20\n      add\n        /* \"Smart contracts/SC6.sol\":1003:1011  exporter */\n      dup8\n        /* \"Smart contracts/SC6.sol\":971:1102  TradeAgreement(importerPayable, exporter, productDescription, amount, block.timestamp + daysToSeconds(deliveryDays), State.CREATED) */\n      0xffffffffffffffffffffffffffffffffffffffff\n      and\n      dup2\n      mstore\n      0x20\n      add\n        /* \"Smart contracts/SC6.sol\":1013:1031  productDescription */\n      dup7\n        /* \"Smart contracts/SC6.sol\":971:1102  TradeAgreement(importerPayable, exporter, productDescription, amount, block.timestamp + daysToSeconds(deliveryDays), State.CREATED) */\n      dup2\n      mstore\n      0x20\n      add\n        /* \"Smart contracts/SC6.sol\":1033:1039  amount */\n      dup6\n        /* \"Smart contracts/SC6.sol\":971:1102  TradeAgreement(importerPayable, exporter, productDescription, amount, block.timestamp + daysToSeconds(deliveryDays), State.CREATED) */\n      dup2\n      mstore\n      0x20\n      add\n        /* \"Smart contracts/SC6.sol\":1059:1086  daysToSeconds(deliveryDays) */\n      tag_77\n        /* \"Smart contracts/SC6.sol\":1073:1085  deliveryDays */\n      dup6\n        /* \"Smart contracts/SC6.sol\":1059:1072  daysToSeconds */\n      tag_78\n        /* \"Smart contracts/SC6.sol\":1059:1086  daysToSeconds(deliveryDays) */\n      jump\t// in\n    tag_77:\n        /* \"Smart contracts/SC6.sol\":1041:1056  block.timestamp */\n      timestamp\n        /* \"Smart contracts/SC6.sol\":1041:1086  block.timestamp + daysToSeconds(deliveryDays) */\n      tag_79\n      swap2\n      swap1\n      tag_80\n      jump\t// in\n    tag_79:\n        /* \"Smart contracts/SC6.sol\":971:1102  TradeAgreement(importerPayable, exporter, productDescription, amount, block.timestamp + daysToSeconds(deliveryDays), State.CREATED) */\n      dup2\n      mstore\n      0x20\n      add\n        /* \"Smart contracts/SC6.sol\":1088:1101  State.CREATED */\n      0x00\n        /* \"Smart contracts/SC6.sol\":971:1102  TradeAgreement(importerPayable, exporter, productDescription, amount, block.timestamp + daysToSeconds(deliveryDays), State.CREATED) */\n      0x03\n      dup2\n      gt\n      iszero\n      tag_81\n      jumpi\n      tag_82\n      tag_37\n      jump\t// in\n    tag_82:\n    tag_81:\n      dup2\n      mstore\n      pop\n        /* \"Smart contracts/SC6.sol\":945:955  agreements */\n      0x00\n        /* \"Smart contracts/SC6.sol\":945:968  agreements[agreementId] */\n      dup1\n        /* \"Smart contracts/SC6.sol\":956:967  agreementId */\n      dup4\n        /* \"Smart contracts/SC6.sol\":945:968  agreements[agreementId] */\n      dup2\n      mstore\n      0x20\n      add\n      swap1\n      dup2\n      mstore\n      0x20\n      add\n      0x00\n      keccak256\n        /* \"Smart contracts/SC6.sol\":945:1102  agreements[agreementId] = TradeAgreement(importerPayable, exporter, productDescription, amount, block.timestamp + daysToSeconds(deliveryDays), State.CREATED) */\n      0x00\n      dup3\n      add\n      mload\n      dup2\n      0x00\n      add\n      exp(0x0100, 0x00)\n      dup2\n      sload\n      dup2\n      0xffffffffffffffffffffffffffffffffffffffff\n      mul\n      not\n      and\n      swap1\n      dup4\n      0xffffffffffffffffffffffffffffffffffffffff\n      and\n      mul\n      or\n      swap1\n      sstore\n      pop\n      0x20\n      dup3\n      add\n      mload\n      dup2\n      0x01\n      add\n      exp(0x0100, 0x00)\n      dup2\n      sload\n      dup2\n      0xffffffffffffffffffffffffffffffffffffffff\n      mul\n      not\n      and\n      swap1\n      dup4\n      0xffffffffffffffffffffffffffffffffffffffff\n      and\n      mul\n      or\n      swap1\n      sstore\n      pop\n      0x40\n      dup3\n      add\n      mload\n      dup2\n      0x02\n      add\n      swap1\n      dup2\n      tag_83\n      swap2\n      swap1\n      tag_84\n      jump\t// in\n    tag_83:\n      pop\n      0x60\n      dup3\n      add\n      mload\n      dup2\n      0x03\n      add\n      sstore\n      0x80\n      dup3\n      add\n      mload\n      dup2\n      0x04\n      add\n      sstore\n      0xa0\n      dup3\n      add\n      mload\n      dup2\n      0x05\n      add\n      exp(0x0100, 0x00)\n      dup2\n      sload\n      dup2\n      0xff\n      mul\n      not\n      and\n      swap1\n      dup4\n      0x03\n      dup2\n      gt\n      iszero\n      tag_85\n      jumpi\n      tag_86\n      tag_37\n      jump\t// in\n    tag_86:\n    tag_85:\n      mul\n      or\n      swap1\n      sstore\n      pop\n      swap1\n      pop\n      pop\n        /* \"Smart contracts/SC6.sol\":1164:1172  exporter */\n      dup6\n        /* \"Smart contracts/SC6.sol\":1117:1173  AgreementCreated(agreementId, importerPayable, exporter) */\n      0xffffffffffffffffffffffffffffffffffffffff\n      and\n        /* \"Smart contracts/SC6.sol\":1147:1162  importerPayable */\n      dup3\n        /* \"Smart contracts/SC6.sol\":1117:1173  AgreementCreated(agreementId, importerPayable, exporter) */\n      0xffffffffffffffffffffffffffffffffffffffff\n      and\n      0xe037ec30313eecdd927ffae3beed86a87b82f7bb794966ec08d75cf1a6e82686\n        /* \"Smart contracts/SC6.sol\":1134:1145  agreementId */\n      dup4\n        /* \"Smart contracts/SC6.sol\":1117:1173  AgreementCreated(agreementId, importerPayable, exporter) */\n      mload(0x40)\n      tag_87\n      swap2\n      swap1\n      tag_24\n      jump\t// in\n    tag_87:\n      mload(0x40)\n      dup1\n      swap2\n      sub\n      swap1\n      log3\n        /* \"Smart contracts/SC6.sol\":761:1180  {... */\n      pop\n      pop\n        /* \"Smart contracts/SC6.sol\":629:1180  function createAgreement(address payable exporter, string memory productDescription, uint amount, uint deliveryDays) public payable {... */\n      pop\n      pop\n      pop\n      pop\n      jump\t// out\n        /* \"Smart contracts/SC6.sol\":409:435  uint public agreementCount */\n    tag_22:\n      sload(0x01)\n      dup2\n      jump\t// out\n        /* \"Smart contracts/SC6.sol\":354:403  mapping(uint => TradeAgreement) public agreements */\n    tag_28:\n      mstore(0x20, 0x00)\n      dup1\n      0x00\n      mstore\n      keccak256(0x00, 0x40)\n      0x00\n      swap2\n      pop\n      swap1\n      pop\n      dup1\n      0x00\n      add\n      0x00\n      swap1\n      sload\n      swap1\n      0x0100\n      exp\n      swap1\n      div\n      0xffffffffffffffffffffffffffffffffffffffff\n      and\n      swap1\n      dup1\n      0x01\n      add\n      0x00\n      swap1\n      sload\n      swap1\n      0x0100\n      exp\n      swap1\n      div\n      0xffffffffffffffffffffffffffffffffffffffff\n      and\n      swap1\n      dup1\n      0x02\n      add\n      dup1\n      sload\n      tag_88\n      swap1\n      tag_89\n      jump\t// in\n    tag_88:\n      dup1\n      0x1f\n      add\n      0x20\n      dup1\n      swap2\n      div\n      mul\n      0x20\n      add\n      mload(0x40)\n      swap1\n      dup2\n      add\n      0x40\n      mstore\n      dup1\n      swap3\n      swap2\n      swap1\n      dup2\n      dup2\n      mstore\n      0x20\n      add\n      dup3\n      dup1\n      sload\n      tag_90\n      swap1\n      tag_89\n      jump\t// in\n    tag_90:\n      dup1\n      iszero\n      tag_91\n      jumpi\n      dup1\n      0x1f\n      lt\n      tag_92\n      jumpi\n      0x0100\n      dup1\n      dup4\n      sload\n      div\n      mul\n      dup4\n      mstore\n      swap2\n      0x20\n      add\n      swap2\n      jump(tag_91)\n    tag_92:\n      dup3\n      add\n      swap2\n      swap1\n      0x00\n      mstore\n      keccak256(0x00, 0x20)\n      swap1\n    tag_93:\n      dup2\n      sload\n      dup2\n      mstore\n      swap1\n      0x01\n      add\n      swap1\n      0x20\n      add\n      dup1\n      dup4\n      gt\n      tag_93\n      jumpi\n      dup3\n      swap1\n      sub\n      0x1f\n      and\n      dup3\n      add\n      swap2\n    tag_91:\n      pop\n      pop\n      pop\n      pop\n      pop\n      swap1\n      dup1\n      0x03\n      add\n      sload\n      swap1\n      dup1\n      0x04\n      add\n      sload\n      swap1\n      dup1\n      0x05\n      add\n      0x00\n      swap1\n      sload\n      swap1\n      0x0100\n      exp\n      swap1\n      div\n      0xff\n      and\n      swap1\n      pop\n      dup7\n      jump\t// out\n        /* \"Smart contracts/SC6.sol\":2213:2314  function daysToSeconds(uint _days) private pure returns (uint) {... */\n    tag_78:\n        /* \"Smart contracts/SC6.sol\":2270:2274  uint */\n      0x00\n        /* \"Smart contracts/SC6.sol\":2301:2307  1 days */\n      0x015180\n        /* \"Smart contracts/SC6.sol\":2293:2298  _days */\n      dup3\n        /* \"Smart contracts/SC6.sol\":2293:2307  _days * 1 days */\n      tag_95\n      swap2\n      swap1\n      tag_96\n      jump\t// in\n    tag_95:\n        /* \"Smart contracts/SC6.sol\":2286:2307  return _days * 1 days */\n      swap1\n      pop\n        /* \"Smart contracts/SC6.sol\":2213:2314  function daysToSeconds(uint _days) private pure returns (uint) {... */\n      swap2\n      swap1\n      pop\n      jump\t// out\n        /* \"#utility.yul\":7:82   */\n    tag_97:\n        /* \"#utility.yul\":40:46   */\n      0x00\n        /* \"#utility.yul\":73:75   */\n      0x40\n        /* \"#utility.yul\":67:76   */\n      mload\n        /* \"#utility.yul\":57:76   */\n      swap1\n      pop\n        /* \"#utility.yul\":7:82   */\n      swap1\n      jump\t// out\n        /* \"#utility.yul\":88:205   */\n    tag_98:\n        /* \"#utility.yul\":197:198   */\n      0x00\n        /* \"#utility.yul\":194:195   */\n      dup1\n        /* \"#utility.yul\":187:199   */\n      revert\n        /* \"#utility.yul\":211:328   */\n    tag_99:\n        /* \"#utility.yul\":320:321   */\n      0x00\n        /* \"#utility.yul\":317:318   */\n      dup1\n        /* \"#utility.yul\":310:322   */\n      revert\n        /* \"#utility.yul\":334:411   */\n    tag_100:\n        /* \"#utility.yul\":371:378   */\n      0x00\n        /* \"#utility.yul\":400:405   */\n      dup2\n        /* \"#utility.yul\":389:405   */\n      swap1\n      pop\n        /* \"#utility.yul\":334:411   */\n      swap2\n      swap1\n      pop\n      jump\t// out\n        /* \"#utility.yul\":417:539   */\n    tag_101:\n        /* \"#utility.yul\":490:514   */\n      tag_167\n        /* \"#utility.yul\":508:513   */\n      dup2\n        /* \"#utility.yul\":490:514   */\n      tag_100\n      jump\t// in\n    tag_167:\n        /* \"#utility.yul\":483:488   */\n      dup2\n        /* \"#utility.yul\":480:515   */\n      eq\n        /* \"#utility.yul\":470:533   */\n      tag_168\n      jumpi\n        /* \"#utility.yul\":529:530   */\n      0x00\n        /* \"#utility.yul\":526:527   */\n      dup1\n        /* \"#utility.yul\":519:531   */\n      revert\n        /* \"#utility.yul\":470:533   */\n    tag_168:\n        /* \"#utility.yul\":417:539   */\n      pop\n      jump\t// out\n        /* \"#utility.yul\":545:684   */\n    tag_102:\n        /* \"#utility.yul\":591:596   */\n      0x00\n        /* \"#utility.yul\":629:635   */\n      dup2\n        /* \"#utility.yul\":616:636   */\n      calldataload\n        /* \"#utility.yul\":607:636   */\n      swap1\n      pop\n        /* \"#utility.yul\":645:678   */\n      tag_170\n        /* \"#utility.yul\":672:677   */\n      dup2\n        /* \"#utility.yul\":645:678   */\n      tag_101\n      jump\t// in\n    tag_170:\n        /* \"#utility.yul\":545:684   */\n      swap3\n      swap2\n      pop\n      pop\n      jump\t// out\n        /* \"#utility.yul\":690:1019   */\n    tag_10:\n        /* \"#utility.yul\":749:755   */\n      0x00\n        /* \"#utility.yul\":798:800   */\n      0x20\n        /* \"#utility.yul\":786:795   */\n      dup3\n        /* \"#utility.yul\":777:784   */\n      dup5\n        /* \"#utility.yul\":773:796   */\n      sub\n        /* \"#utility.yul\":769:801   */\n      slt\n        /* \"#utility.yul\":766:885   */\n      iszero\n      tag_172\n      jumpi\n        /* \"#utility.yul\":804:883   */\n      tag_173\n      tag_98\n      jump\t// in\n    tag_173:\n        /* \"#utility.yul\":766:885   */\n    tag_172:\n        /* \"#utility.yul\":924:925   */\n      0x00\n        /* \"#utility.yul\":949:1002   */\n      tag_174\n        /* \"#utility.yul\":994:1001   */\n      dup5\n        /* \"#utility.yul\":985:991   */\n      dup3\n        /* \"#utility.yul\":974:983   */\n      dup6\n        /* \"#utility.yul\":970:992   */\n      add\n        /* \"#utility.yul\":949:1002   */\n      tag_102\n      jump\t// in\n    tag_174:\n        /* \"#utility.yul\":939:1002   */\n      swap2\n      pop\n        /* \"#utility.yul\":895:1012   */\n      pop\n        /* \"#utility.yul\":690:1019   */\n      swap3\n      swap2\n      pop\n      pop\n      jump\t// out\n        /* \"#utility.yul\":1025:1151   */\n    tag_103:\n        /* \"#utility.yul\":1062:1069   */\n      0x00\n        /* \"#utility.yul\":1102:1144   */\n      0xffffffffffffffffffffffffffffffffffffffff\n        /* \"#utility.yul\":1095:1100   */\n      dup3\n        /* \"#utility.yul\":1091:1145   */\n      and\n        /* \"#utility.yul\":1080:1145   */\n      swap1\n      pop\n        /* \"#utility.yul\":1025:1151   */\n      swap2\n      swap1\n      pop\n      jump\t// out\n        /* \"#utility.yul\":1157:1261   */\n    tag_104:\n        /* \"#utility.yul\":1202:1209   */\n      0x00\n        /* \"#utility.yul\":1231:1255   */\n      tag_177\n        /* \"#utility.yul\":1249:1254   */\n      dup3\n        /* \"#utility.yul\":1231:1255   */\n      tag_103\n      jump\t// in\n    tag_177:\n        /* \"#utility.yul\":1220:1255   */\n      swap1\n      pop\n        /* \"#utility.yul\":1157:1261   */\n      swap2\n      swap1\n      pop\n      jump\t// out\n        /* \"#utility.yul\":1267:1405   */\n    tag_105:\n        /* \"#utility.yul\":1348:1380   */\n      tag_179\n        /* \"#utility.yul\":1374:1379   */\n      dup2\n        /* \"#utility.yul\":1348:1380   */\n      tag_104\n      jump\t// in\n    tag_179:\n        /* \"#utility.yul\":1341:1346   */\n      dup2\n        /* \"#utility.yul\":1338:1381   */\n      eq\n        /* \"#utility.yul\":1328:1399   */\n      tag_180\n      jumpi\n        /* \"#utility.yul\":1395:1396   */\n      0x00\n        /* \"#utility.yul\":1392:1393   */\n      dup1\n        /* \"#utility.yul\":1385:1397   */\n      revert\n        /* \"#utility.yul\":1328:1399   */\n    tag_180:\n        /* \"#utility.yul\":1267:1405   */\n      pop\n      jump\t// out\n        /* \"#utility.yul\":1411:1566   */\n    tag_106:\n        /* \"#utility.yul\":1465:1470   */\n      0x00\n        /* \"#utility.yul\":1503:1509   */\n      dup2\n        /* \"#utility.yul\":1490:1510   */\n      calldataload\n        /* \"#utility.yul\":1481:1510   */\n      swap1\n      pop\n        /* \"#utility.yul\":1519:1560   */\n      tag_182\n        /* \"#utility.yul\":1554:1559   */\n      dup2\n        /* \"#utility.yul\":1519:1560   */\n      tag_105\n      jump\t// in\n    tag_182:\n        /* \"#utility.yul\":1411:1566   */\n      swap3\n      swap2\n      pop\n      pop\n      jump\t// out\n        /* \"#utility.yul\":1572:1689   */\n    tag_107:\n        /* \"#utility.yul\":1681:1682   */\n      0x00\n        /* \"#utility.yul\":1678:1679   */\n      dup1\n        /* \"#utility.yul\":1671:1683   */\n      revert\n        /* \"#utility.yul\":1695:1812   */\n    tag_108:\n        /* \"#utility.yul\":1804:1805   */\n      0x00\n        /* \"#utility.yul\":1801:1802   */\n      dup1\n        /* \"#utility.yul\":1794:1806   */\n      revert\n        /* \"#utility.yul\":1818:1920   */\n    tag_109:\n        /* \"#utility.yul\":1859:1865   */\n      0x00\n        /* \"#utility.yul\":1910:1912   */\n      0x1f\n        /* \"#utility.yul\":1906:1913   */\n      not\n        /* \"#utility.yul\":1901:1903   */\n      0x1f\n        /* \"#utility.yul\":1894:1899   */\n      dup4\n        /* \"#utility.yul\":1890:1904   */\n      add\n        /* \"#utility.yul\":1886:1914   */\n      and\n        /* \"#utility.yul\":1876:1914   */\n      swap1\n      pop\n        /* \"#utility.yul\":1818:1920   */\n      swap2\n      swap1\n      pop\n      jump\t// out\n        /* \"#utility.yul\":1926:2106   */\n    tag_110:\n        /* \"#utility.yul\":1974:2051   */\n      0x4e487b7100000000000000000000000000000000000000000000000000000000\n        /* \"#utility.yul\":1971:1972   */\n      0x00\n        /* \"#utility.yul\":1964:2052   */\n      mstore\n        /* \"#utility.yul\":2071:2075   */\n      0x41\n        /* \"#utility.yul\":2068:2069   */\n      0x04\n        /* \"#utility.yul\":2061:2076   */\n      mstore\n        /* \"#utility.yul\":2095:2099   */\n      0x24\n        /* \"#utility.yul\":2092:2093   */\n      0x00\n        /* \"#utility.yul\":2085:2100   */\n      revert\n        /* \"#utility.yul\":2112:2393   */\n    tag_111:\n        /* \"#utility.yul\":2195:2222   */\n      tag_188\n        /* \"#utility.yul\":2217:2221   */\n      dup3\n        /* \"#utility.yul\":2195:2222   */\n      tag_109\n      jump\t// in\n    tag_188:\n        /* \"#utility.yul\":2187:2193   */\n      dup2\n        /* \"#utility.yul\":2183:2223   */\n      add\n        /* \"#utility.yul\":2325:2331   */\n      dup2\n        /* \"#utility.yul\":2313:2323   */\n      dup2\n        /* \"#utility.yul\":2310:2332   */\n      lt\n        /* \"#utility.yul\":2289:2307   */\n      0xffffffffffffffff\n        /* \"#utility.yul\":2277:2287   */\n      dup3\n        /* \"#utility.yul\":2274:2308   */\n      gt\n        /* \"#utility.yul\":2271:2333   */\n      or\n        /* \"#utility.yul\":2268:2356   */\n      iszero\n      tag_189\n      jumpi\n        /* \"#utility.yul\":2336:2354   */\n      tag_190\n      tag_110\n      jump\t// in\n    tag_190:\n        /* \"#utility.yul\":2268:2356   */\n    tag_189:\n        /* \"#utility.yul\":2376:2386   */\n      dup1\n        /* \"#utility.yul\":2372:2374   */\n      0x40\n        /* \"#utility.yul\":2365:2387   */\n      mstore\n        /* \"#utility.yul\":2155:2393   */\n      pop\n        /* \"#utility.yul\":2112:2393   */\n      pop\n      pop\n      jump\t// out\n        /* \"#utility.yul\":2399:2528   */\n    tag_112:\n        /* \"#utility.yul\":2433:2439   */\n      0x00\n        /* \"#utility.yul\":2460:2480   */\n      tag_192\n      tag_97\n      jump\t// in\n    tag_192:\n        /* \"#utility.yul\":2450:2480   */\n      swap1\n      pop\n        /* \"#utility.yul\":2489:2522   */\n      tag_193\n        /* \"#utility.yul\":2517:2521   */\n      dup3\n        /* \"#utility.yul\":2509:2515   */\n      dup3\n        /* \"#utility.yul\":2489:2522   */\n      tag_111\n      jump\t// in\n    tag_193:\n        /* \"#utility.yul\":2399:2528   */\n      swap2\n      swap1\n      pop\n      jump\t// out\n        /* \"#utility.yul\":2534:2842   */\n    tag_113:\n        /* \"#utility.yul\":2596:2600   */\n      0x00\n        /* \"#utility.yul\":2686:2704   */\n      0xffffffffffffffff\n        /* \"#utility.yul\":2678:2684   */\n      dup3\n        /* \"#utility.yul\":2675:2705   */\n      gt\n        /* \"#utility.yul\":2672:2728   */\n      iszero\n      tag_195\n      jumpi\n        /* \"#utility.yul\":2708:2726   */\n      tag_196\n      tag_110\n      jump\t// in\n    tag_196:\n        /* \"#utility.yul\":2672:2728   */\n    tag_195:\n        /* \"#utility.yul\":2746:2775   */\n      tag_197\n        /* \"#utility.yul\":2768:2774   */\n      dup3\n        /* \"#utility.yul\":2746:2775   */\n      tag_109\n      jump\t// in\n    tag_197:\n        /* \"#utility.yul\":2738:2775   */\n      swap1\n      pop\n        /* \"#utility.yul\":2830:2834   */\n      0x20\n        /* \"#utility.yul\":2824:2828   */\n      dup2\n        /* \"#utility.yul\":2820:2835   */\n      add\n        /* \"#utility.yul\":2812:2835   */\n      swap1\n      pop\n        /* \"#utility.yul\":2534:2842   */\n      swap2\n      swap1\n      pop\n      jump\t// out\n        /* \"#utility.yul\":2848:2996   */\n    tag_114:\n        /* \"#utility.yul\":2946:2952   */\n      dup3\n        /* \"#utility.yul\":2941:2944   */\n      dup2\n        /* \"#utility.yul\":2936:2939   */\n      dup4\n        /* \"#utility.yul\":2923:2953   */\n      calldatacopy\n        /* \"#utility.yul\":2987:2988   */\n      0x00\n        /* \"#utility.yul\":2978:2984   */\n      dup4\n        /* \"#utility.yul\":2973:2976   */\n      dup4\n        /* \"#utility.yul\":2969:2985   */\n      add\n        /* \"#utility.yul\":2962:2989   */\n      mstore\n        /* \"#utility.yul\":2848:2996   */\n      pop\n      pop\n      pop\n      jump\t// out\n        /* \"#utility.yul\":3002:3427   */\n    tag_115:\n        /* \"#utility.yul\":3080:3085   */\n      0x00\n        /* \"#utility.yul\":3105:3171   */\n      tag_200\n        /* \"#utility.yul\":3121:3170   */\n      tag_201\n        /* \"#utility.yul\":3163:3169   */\n      dup5\n        /* \"#utility.yul\":3121:3170   */\n      tag_113\n      jump\t// in\n    tag_201:\n        /* \"#utility.yul\":3105:3171   */\n      tag_112\n      jump\t// in\n    tag_200:\n        /* \"#utility.yul\":3096:3171   */\n      swap1\n      pop\n        /* \"#utility.yul\":3194:3200   */\n      dup3\n        /* \"#utility.yul\":3187:3192   */\n      dup2\n        /* \"#utility.yul\":3180:3201   */\n      mstore\n        /* \"#utility.yul\":3232:3236   */\n      0x20\n        /* \"#utility.yul\":3225:3230   */\n      dup2\n        /* \"#utility.yul\":3221:3237   */\n      add\n        /* \"#utility.yul\":3270:3273   */\n      dup5\n        /* \"#utility.yul\":3261:3267   */\n      dup5\n        /* \"#utility.yul\":3256:3259   */\n      dup5\n        /* \"#utility.yul\":3252:3268   */\n      add\n        /* \"#utility.yul\":3249:3274   */\n      gt\n        /* \"#utility.yul\":3246:3358   */\n      iszero\n      tag_202\n      jumpi\n        /* \"#utility.yul\":3277:3356   */\n      tag_203\n      tag_108\n      jump\t// in\n    tag_203:\n        /* \"#utility.yul\":3246:3358   */\n    tag_202:\n        /* \"#utility.yul\":3367:3421   */\n      tag_204\n        /* \"#utility.yul\":3414:3420   */\n      dup5\n        /* \"#utility.yul\":3409:3412   */\n      dup3\n        /* \"#utility.yul\":3404:3407   */\n      dup6\n        /* \"#utility.yul\":3367:3421   */\n      tag_114\n      jump\t// in\n    tag_204:\n        /* \"#utility.yul\":3086:3427   */\n      pop\n        /* \"#utility.yul\":3002:3427   */\n      swap4\n      swap3\n      pop\n      pop\n      pop\n      jump\t// out\n        /* \"#utility.yul\":3447:3787   */\n    tag_116:\n        /* \"#utility.yul\":3503:3508   */\n      0x00\n        /* \"#utility.yul\":3552:3555   */\n      dup3\n        /* \"#utility.yul\":3545:3549   */\n      0x1f\n        /* \"#utility.yul\":3537:3543   */\n      dup4\n        /* \"#utility.yul\":3533:3550   */\n      add\n        /* \"#utility.yul\":3529:3556   */\n      slt\n        /* \"#utility.yul\":3519:3641   */\n      tag_206\n      jumpi\n        /* \"#utility.yul\":3560:3639   */\n      tag_207\n      tag_107\n      jump\t// in\n    tag_207:\n        /* \"#utility.yul\":3519:3641   */\n    tag_206:\n        /* \"#utility.yul\":3677:3683   */\n      dup2\n        /* \"#utility.yul\":3664:3684   */\n      calldataload\n        /* \"#utility.yul\":3702:3781   */\n      tag_208\n        /* \"#utility.yul\":3777:3780   */\n      dup5\n        /* \"#utility.yul\":3769:3775   */\n      dup3\n        /* \"#utility.yul\":3762:3766   */\n      0x20\n        /* \"#utility.yul\":3754:3760   */\n      dup7\n        /* \"#utility.yul\":3750:3767   */\n      add\n        /* \"#utility.yul\":3702:3781   */\n      tag_115\n      jump\t// in\n    tag_208:\n        /* \"#utility.yul\":3693:3781   */\n      swap2\n      pop\n        /* \"#utility.yul\":3509:3787   */\n      pop\n        /* \"#utility.yul\":3447:3787   */\n      swap3\n      swap2\n      pop\n      pop\n      jump\t// out\n        /* \"#utility.yul\":3793:4754   */\n    tag_18:\n        /* \"#utility.yul\":3897:3903   */\n      0x00\n        /* \"#utility.yul\":3905:3911   */\n      dup1\n        /* \"#utility.yul\":3913:3919   */\n      0x00\n        /* \"#utility.yul\":3921:3927   */\n      dup1\n        /* \"#utility.yul\":3970:3973   */\n      0x80\n        /* \"#utility.yul\":3958:3967   */\n      dup6\n        /* \"#utility.yul\":3949:3956   */\n      dup8\n        /* \"#utility.yul\":3945:3968   */\n      sub\n        /* \"#utility.yul\":3941:3974   */\n      slt\n        /* \"#utility.yul\":3938:4058   */\n      iszero\n      tag_210\n      jumpi\n        /* \"#utility.yul\":3977:4056   */\n      tag_211\n      tag_98\n      jump\t// in\n    tag_211:\n        /* \"#utility.yul\":3938:4058   */\n    tag_210:\n        /* \"#utility.yul\":4097:4098   */\n      0x00\n        /* \"#utility.yul\":4122:4183   */\n      tag_212\n        /* \"#utility.yul\":4175:4182   */\n      dup8\n        /* \"#utility.yul\":4166:4172   */\n      dup3\n        /* \"#utility.yul\":4155:4164   */\n      dup9\n        /* \"#utility.yul\":4151:4173   */\n      add\n        /* \"#utility.yul\":4122:4183   */\n      tag_106\n      jump\t// in\n    tag_212:\n        /* \"#utility.yul\":4112:4183   */\n      swap5\n      pop\n        /* \"#utility.yul\":4068:4193   */\n      pop\n        /* \"#utility.yul\":4260:4262   */\n      0x20\n        /* \"#utility.yul\":4249:4258   */\n      dup6\n        /* \"#utility.yul\":4245:4263   */\n      add\n        /* \"#utility.yul\":4232:4264   */\n      calldataload\n        /* \"#utility.yul\":4291:4309   */\n      0xffffffffffffffff\n        /* \"#utility.yul\":4283:4289   */\n      dup2\n        /* \"#utility.yul\":4280:4310   */\n      gt\n        /* \"#utility.yul\":4277:4394   */\n      iszero\n      tag_213\n      jumpi\n        /* \"#utility.yul\":4313:4392   */\n      tag_214\n      tag_99\n      jump\t// in\n    tag_214:\n        /* \"#utility.yul\":4277:4394   */\n    tag_213:\n        /* \"#utility.yul\":4418:4481   */\n      tag_215\n        /* \"#utility.yul\":4473:4480   */\n      dup8\n        /* \"#utility.yul\":4464:4470   */\n      dup3\n        /* \"#utility.yul\":4453:4462   */\n      dup9\n        /* \"#utility.yul\":4449:4471   */\n      add\n        /* \"#utility.yul\":4418:4481   */\n      tag_116\n      jump\t// in\n    tag_215:\n        /* \"#utility.yul\":4408:4481   */\n      swap4\n      pop\n        /* \"#utility.yul\":4203:4491   */\n      pop\n        /* \"#utility.yul\":4530:4532   */\n      0x40\n        /* \"#utility.yul\":4556:4609   */\n      tag_216\n        /* \"#utility.yul\":4601:4608   */\n      dup8\n        /* \"#utility.yul\":4592:4598   */\n      dup3\n        /* \"#utility.yul\":4581:4590   */\n      dup9\n        /* \"#utility.yul\":4577:4599   */\n      add\n        /* \"#utility.yul\":4556:4609   */\n      tag_102\n      jump\t// in\n    tag_216:\n        /* \"#utility.yul\":4546:4609   */\n      swap3\n      pop\n        /* \"#utility.yul\":4501:4619   */\n      pop\n        /* \"#utility.yul\":4658:4660   */\n      0x60\n        /* \"#utility.yul\":4684:4737   */\n      tag_217\n        /* \"#utility.yul\":4729:4736   */\n      dup8\n        /* \"#utility.yul\":4720:4726   */\n      dup3\n        /* \"#utility.yul\":4709:4718   */\n      dup9\n        /* \"#utility.yul\":4705:4727   */\n      add\n        /* \"#utility.yul\":4684:4737   */\n      tag_102\n      jump\t// in\n    tag_217:\n        /* \"#utility.yul\":4674:4737   */\n      swap2\n      pop\n        /* \"#utility.yul\":4629:4747   */\n      pop\n        /* \"#utility.yul\":3793:4754   */\n      swap3\n      swap6\n      swap2\n      swap5\n      pop\n      swap3\n      pop\n      jump\t// out\n        /* \"#utility.yul\":4760:4878   */\n    tag_117:\n        /* \"#utility.yul\":4847:4871   */\n      tag_219\n        /* \"#utility.yul\":4865:4870   */\n      dup2\n        /* \"#utility.yul\":4847:4871   */\n      tag_100\n      jump\t// in\n    tag_219:\n        /* \"#utility.yul\":4842:4845   */\n      dup3\n        /* \"#utility.yul\":4835:4872   */\n      mstore\n        /* \"#utility.yul\":4760:4878   */\n      pop\n      pop\n      jump\t// out\n        /* \"#utility.yul\":4884:5106   */\n    tag_24:\n        /* \"#utility.yul\":4977:4981   */\n      0x00\n        /* \"#utility.yul\":5015:5017   */\n      0x20\n        /* \"#utility.yul\":5004:5013   */\n      dup3\n        /* \"#utility.yul\":5000:5018   */\n      add\n        /* \"#utility.yul\":4992:5018   */\n      swap1\n      pop\n        /* \"#utility.yul\":5028:5099   */\n      tag_221\n        /* \"#utility.yul\":5096:5097   */\n      0x00\n        /* \"#utility.yul\":5085:5094   */\n      dup4\n        /* \"#utility.yul\":5081:5098   */\n      add\n        /* \"#utility.yul\":5072:5078   */\n      dup5\n        /* \"#utility.yul\":5028:5099   */\n      tag_117\n      jump\t// in\n    tag_221:\n        /* \"#utility.yul\":4884:5106   */\n      swap3\n      swap2\n      pop\n      pop\n      jump\t// out\n        /* \"#utility.yul\":5112:5254   */\n    tag_118:\n        /* \"#utility.yul\":5215:5247   */\n      tag_223\n        /* \"#utility.yul\":5241:5246   */\n      dup2\n        /* \"#utility.yul\":5215:5247   */\n      tag_104\n      jump\t// in\n    tag_223:\n        /* \"#utility.yul\":5210:5213   */\n      dup3\n        /* \"#utility.yul\":5203:5248   */\n      mstore\n        /* \"#utility.yul\":5112:5254   */\n      pop\n      pop\n      jump\t// out\n        /* \"#utility.yul\":5260:5359   */\n    tag_119:\n        /* \"#utility.yul\":5312:5318   */\n      0x00\n        /* \"#utility.yul\":5346:5351   */\n      dup2\n        /* \"#utility.yul\":5340:5352   */\n      mload\n        /* \"#utility.yul\":5330:5352   */\n      swap1\n      pop\n        /* \"#utility.yul\":5260:5359   */\n      swap2\n      swap1\n      pop\n      jump\t// out\n        /* \"#utility.yul\":5365:5534   */\n    tag_120:\n        /* \"#utility.yul\":5449:5460   */\n      0x00\n        /* \"#utility.yul\":5483:5489   */\n      dup3\n        /* \"#utility.yul\":5478:5481   */\n      dup3\n        /* \"#utility.yul\":5471:5490   */\n      mstore\n        /* \"#utility.yul\":5523:5527   */\n      0x20\n        /* \"#utility.yul\":5518:5521   */\n      dup3\n        /* \"#utility.yul\":5514:5528   */\n      add\n        /* \"#utility.yul\":5499:5528   */\n      swap1\n      pop\n        /* \"#utility.yul\":5365:5534   */\n      swap3\n      swap2\n      pop\n      pop\n      jump\t// out\n        /* \"#utility.yul\":5540:5679   */\n    tag_121:\n        /* \"#utility.yul\":5629:5635   */\n      dup3\n        /* \"#utility.yul\":5624:5627   */\n      dup2\n        /* \"#utility.yul\":5619:5622   */\n      dup4\n        /* \"#utility.yul\":5613:5636   */\n      mcopy\n        /* \"#utility.yul\":5670:5671   */\n      0x00\n        /* \"#utility.yul\":5661:5667   */\n      dup4\n        /* \"#utility.yul\":5656:5659   */\n      dup4\n        /* \"#utility.yul\":5652:5668   */\n      add\n        /* \"#utility.yul\":5645:5672   */\n      mstore\n        /* \"#utility.yul\":5540:5679   */\n      pop\n      pop\n      pop\n      jump\t// out\n        /* \"#utility.yul\":5685:6062   */\n    tag_122:\n        /* \"#utility.yul\":5773:5776   */\n      0x00\n        /* \"#utility.yul\":5801:5840   */\n      tag_228\n        /* \"#utility.yul\":5834:5839   */\n      dup3\n        /* \"#utility.yul\":5801:5840   */\n      tag_119\n      jump\t// in\n    tag_228:\n        /* \"#utility.yul\":5856:5927   */\n      tag_229\n        /* \"#utility.yul\":5920:5926   */\n      dup2\n        /* \"#utility.yul\":5915:5918   */\n      dup6\n        /* \"#utility.yul\":5856:5927   */\n      tag_120\n      jump\t// in\n    tag_229:\n        /* \"#utility.yul\":5849:5927   */\n      swap4\n      pop\n        /* \"#utility.yul\":5936:6001   */\n      tag_230\n        /* \"#utility.yul\":5994:6000   */\n      dup2\n        /* \"#utility.yul\":5989:5992   */\n      dup6\n        /* \"#utility.yul\":5982:5986   */\n      0x20\n        /* \"#utility.yul\":5975:5980   */\n      dup7\n        /* \"#utility.yul\":5971:5987   */\n      add\n        /* \"#utility.yul\":5936:6001   */\n      tag_121\n      jump\t// in\n    tag_230:\n        /* \"#utility.yul\":6026:6055   */\n      tag_231\n        /* \"#utility.yul\":6048:6054   */\n      dup2\n        /* \"#utility.yul\":6026:6055   */\n      tag_109\n      jump\t// in\n    tag_231:\n        /* \"#utility.yul\":6021:6024   */\n      dup5\n        /* \"#utility.yul\":6017:6056   */\n      add\n        /* \"#utility.yul\":6010:6056   */\n      swap2\n      pop\n        /* \"#utility.yul\":5777:6062   */\n      pop\n        /* \"#utility.yul\":5685:6062   */\n      swap3\n      swap2\n      pop\n      pop\n      jump\t// out\n        /* \"#utility.yul\":6068:6248   */\n    tag_37:\n        /* \"#utility.yul\":6116:6193   */\n      0x4e487b7100000000000000000000000000000000000000000000000000000000\n        /* \"#utility.yul\":6113:6114   */\n      0x00\n        /* \"#utility.yul\":6106:6194   */\n      mstore\n        /* \"#utility.yul\":6213:6217   */\n      0x21\n        /* \"#utility.yul\":6210:6211   */\n      0x04\n        /* \"#utility.yul\":6203:6218   */\n      mstore\n        /* \"#utility.yul\":6237:6241   */\n      0x24\n        /* \"#utility.yul\":6234:6235   */\n      0x00\n        /* \"#utility.yul\":6227:6242   */\n      revert\n        /* \"#utility.yul\":6254:6366   */\n    tag_123:\n        /* \"#utility.yul\":6334:6335   */\n      0x04\n        /* \"#utility.yul\":6327:6332   */\n      dup2\n        /* \"#utility.yul\":6324:6336   */\n      lt\n        /* \"#utility.yul\":6314:6360   */\n      tag_234\n      jumpi\n        /* \"#utility.yul\":6340:6358   */\n      tag_235\n      tag_37\n      jump\t// in\n    tag_235:\n        /* \"#utility.yul\":6314:6360   */\n    tag_234:\n        /* \"#utility.yul\":6254:6366   */\n      pop\n      jump\t// out\n        /* \"#utility.yul\":6372:6497   */\n    tag_124:\n        /* \"#utility.yul\":6416:6423   */\n      0x00\n        /* \"#utility.yul\":6445:6450   */\n      dup2\n        /* \"#utility.yul\":6434:6450   */\n      swap1\n      pop\n        /* \"#utility.yul\":6451:6491   */\n      tag_237\n        /* \"#utility.yul\":6485:6490   */\n      dup3\n        /* \"#utility.yul\":6451:6491   */\n      tag_123\n      jump\t// in\n    tag_237:\n        /* \"#utility.yul\":6372:6497   */\n      swap2\n      swap1\n      pop\n      jump\t// out\n        /* \"#utility.yul\":6503:6628   */\n    tag_125:\n        /* \"#utility.yul\":6558:6567   */\n      0x00\n        /* \"#utility.yul\":6591:6622   */\n      tag_239\n        /* \"#utility.yul\":6616:6621   */\n      dup3\n        /* \"#utility.yul\":6591:6622   */\n      tag_124\n      jump\t// in\n    tag_239:\n        /* \"#utility.yul\":6578:6622   */\n      swap1\n      pop\n        /* \"#utility.yul\":6503:6628   */\n      swap2\n      swap1\n      pop\n      jump\t// out\n        /* \"#utility.yul\":6634:6775   */\n    tag_126:\n        /* \"#utility.yul\":6726:6768   */\n      tag_241\n        /* \"#utility.yul\":6762:6767   */\n      dup2\n        /* \"#utility.yul\":6726:6768   */\n      tag_125\n      jump\t// in\n    tag_241:\n        /* \"#utility.yul\":6721:6724   */\n      dup3\n        /* \"#utility.yul\":6714:6769   */\n      mstore\n        /* \"#utility.yul\":6634:6775   */\n      pop\n      pop\n      jump\t// out\n        /* \"#utility.yul\":6781:7721   */\n    tag_30:\n        /* \"#utility.yul\":7071:7075   */\n      0x00\n        /* \"#utility.yul\":7109:7112   */\n      0xc0\n        /* \"#utility.yul\":7098:7107   */\n      dup3\n        /* \"#utility.yul\":7094:7113   */\n      add\n        /* \"#utility.yul\":7086:7113   */\n      swap1\n      pop\n        /* \"#utility.yul\":7123:7210   */\n      tag_243\n        /* \"#utility.yul\":7207:7208   */\n      0x00\n        /* \"#utility.yul\":7196:7205   */\n      dup4\n        /* \"#utility.yul\":7192:7209   */\n      add\n        /* \"#utility.yul\":7183:7189   */\n      dup10\n        /* \"#utility.yul\":7123:7210   */\n      tag_118\n      jump\t// in\n    tag_243:\n        /* \"#utility.yul\":7220:7308   */\n      tag_244\n        /* \"#utility.yul\":7304:7306   */\n      0x20\n        /* \"#utility.yul\":7293:7302   */\n      dup4\n        /* \"#utility.yul\":7289:7307   */\n      add\n        /* \"#utility.yul\":7280:7286   */\n      dup9\n        /* \"#utility.yul\":7220:7308   */\n      tag_118\n      jump\t// in\n    tag_244:\n        /* \"#utility.yul\":7355:7364   */\n      dup2\n        /* \"#utility.yul\":7349:7353   */\n      dup2\n        /* \"#utility.yul\":7345:7365   */\n      sub\n        /* \"#utility.yul\":7340:7342   */\n      0x40\n        /* \"#utility.yul\":7329:7338   */\n      dup4\n        /* \"#utility.yul\":7325:7343   */\n      add\n        /* \"#utility.yul\":7318:7366   */\n      mstore\n        /* \"#utility.yul\":7383:7461   */\n      tag_245\n        /* \"#utility.yul\":7456:7460   */\n      dup2\n        /* \"#utility.yul\":7447:7453   */\n      dup8\n        /* \"#utility.yul\":7383:7461   */\n      tag_122\n      jump\t// in\n    tag_245:\n        /* \"#utility.yul\":7375:7461   */\n      swap1\n      pop\n        /* \"#utility.yul\":7471:7543   */\n      tag_246\n        /* \"#utility.yul\":7539:7541   */\n      0x60\n        /* \"#utility.yul\":7528:7537   */\n      dup4\n        /* \"#utility.yul\":7524:7542   */\n      add\n        /* \"#utility.yul\":7515:7521   */\n      dup7\n        /* \"#utility.yul\":7471:7543   */\n      tag_117\n      jump\t// in\n    tag_246:\n        /* \"#utility.yul\":7553:7626   */\n      tag_247\n        /* \"#utility.yul\":7621:7624   */\n      0x80\n        /* \"#utility.yul\":7610:7619   */\n      dup4\n        /* \"#utility.yul\":7606:7625   */\n      add\n        /* \"#utility.yul\":7597:7603   */\n      dup6\n        /* \"#utility.yul\":7553:7626   */\n      tag_117\n      jump\t// in\n    tag_247:\n        /* \"#utility.yul\":7636:7714   */\n      tag_248\n        /* \"#utility.yul\":7709:7712   */\n      0xa0\n        /* \"#utility.yul\":7698:7707   */\n      dup4\n        /* \"#utility.yul\":7694:7713   */\n      add\n        /* \"#utility.yul\":7685:7691   */\n      dup5\n        /* \"#utility.yul\":7636:7714   */\n      tag_126\n      jump\t// in\n    tag_248:\n        /* \"#utility.yul\":6781:7721   */\n      swap8\n      swap7\n      pop\n      pop\n      pop\n      pop\n      pop\n      pop\n      pop\n      jump\t// out\n        /* \"#utility.yul\":7727:7908   */\n    tag_127:\n        /* \"#utility.yul\":7867:7900   */\n      0x4f6e6c7920696d706f727465722063616e206d61726b20736869706d656e7400\n        /* \"#utility.yul\":7863:7864   */\n      0x00\n        /* \"#utility.yul\":7855:7861   */\n      dup3\n        /* \"#utility.yul\":7851:7865   */\n      add\n        /* \"#utility.yul\":7844:7901   */\n      mstore\n        /* \"#utility.yul\":7727:7908   */\n      pop\n      jump\t// out\n        /* \"#utility.yul\":7914:8280   */\n    tag_128:\n        /* \"#utility.yul\":8056:8059   */\n      0x00\n        /* \"#utility.yul\":8077:8144   */\n      tag_251\n        /* \"#utility.yul\":8141:8143   */\n      0x1f\n        /* \"#utility.yul\":8136:8139   */\n      dup4\n        /* \"#utility.yul\":8077:8144   */\n      tag_120\n      jump\t// in\n    tag_251:\n        /* \"#utility.yul\":8070:8144   */\n      swap2\n      pop\n        /* \"#utility.yul\":8153:8246   */\n      tag_252\n        /* \"#utility.yul\":8242:8245   */\n      dup3\n        /* \"#utility.yul\":8153:8246   */\n      tag_127\n      jump\t// in\n    tag_252:\n        /* \"#utility.yul\":8271:8273   */\n      0x20\n        /* \"#utility.yul\":8266:8269   */\n      dup3\n        /* \"#utility.yul\":8262:8274   */\n      add\n        /* \"#utility.yul\":8255:8274   */\n      swap1\n      pop\n        /* \"#utility.yul\":7914:8280   */\n      swap2\n      swap1\n      pop\n      jump\t// out\n        /* \"#utility.yul\":8286:8705   */\n    tag_34:\n        /* \"#utility.yul\":8452:8456   */\n      0x00\n        /* \"#utility.yul\":8490:8492   */\n      0x20\n        /* \"#utility.yul\":8479:8488   */\n      dup3\n        /* \"#utility.yul\":8475:8493   */\n      add\n        /* \"#utility.yul\":8467:8493   */\n      swap1\n      pop\n        /* \"#utility.yul\":8539:8548   */\n      dup2\n        /* \"#utility.yul\":8533:8537   */\n      dup2\n        /* \"#utility.yul\":8529:8549   */\n      sub\n        /* \"#utility.yul\":8525:8526   */\n      0x00\n        /* \"#utility.yul\":8514:8523   */\n      dup4\n        /* \"#utility.yul\":8510:8527   */\n      add\n        /* \"#utility.yul\":8503:8550   */\n      mstore\n        /* \"#utility.yul\":8567:8698   */\n      tag_254\n        /* \"#utility.yul\":8693:8697   */\n      dup2\n        /* \"#utility.yul\":8567:8698   */\n      tag_128\n      jump\t// in\n    tag_254:\n        /* \"#utility.yul\":8559:8698   */\n      swap1\n      pop\n        /* \"#utility.yul\":8286:8705   */\n      swap2\n      swap1\n      pop\n      jump\t// out\n        /* \"#utility.yul\":8711:8945   */\n    tag_129:\n        /* \"#utility.yul\":8851:8885   */\n      0x41677265656d656e74206e6f7420696e20636f72726563742073746174652074\n        /* \"#utility.yul\":8847:8848   */\n      0x00\n        /* \"#utility.yul\":8839:8845   */\n      dup3\n        /* \"#utility.yul\":8835:8849   */\n      add\n        /* \"#utility.yul\":8828:8886   */\n      mstore\n        /* \"#utility.yul\":8920:8937   */\n      0x6f206d61726b20736869706d656e740000000000000000000000000000000000\n        /* \"#utility.yul\":8915:8917   */\n      0x20\n        /* \"#utility.yul\":8907:8913   */\n      dup3\n        /* \"#utility.yul\":8903:8918   */\n      add\n        /* \"#utility.yul\":8896:8938   */\n      mstore\n        /* \"#utility.yul\":8711:8945   */\n      pop\n      jump\t// out\n        /* \"#utility.yul\":8951:9317   */\n    tag_130:\n        /* \"#utility.yul\":9093:9096   */\n      0x00\n        /* \"#utility.yul\":9114:9181   */\n      tag_257\n        /* \"#utility.yul\":9178:9180   */\n      0x2f\n        /* \"#utility.yul\":9173:9176   */\n      dup4\n        /* \"#utility.yul\":9114:9181   */\n      tag_120\n      jump\t// in\n    tag_257:\n        /* \"#utility.yul\":9107:9181   */\n      swap2\n      pop\n        /* \"#utility.yul\":9190:9283   */\n      tag_258\n        /* \"#utility.yul\":9279:9282   */\n      dup3\n        /* \"#utility.yul\":9190:9283   */\n      tag_129\n      jump\t// in\n    tag_258:\n        /* \"#utility.yul\":9308:9310   */\n      0x40\n        /* \"#utility.yul\":9303:9306   */\n      dup3\n        /* \"#utility.yul\":9299:9311   */\n      add\n        /* \"#utility.yul\":9292:9311   */\n      swap1\n      pop\n        /* \"#utility.yul\":8951:9317   */\n      swap2\n      swap1\n      pop\n      jump\t// out\n        /* \"#utility.yul\":9323:9742   */\n    tag_42:\n        /* \"#utility.yul\":9489:9493   */\n      0x00\n        /* \"#utility.yul\":9527:9529   */\n      0x20\n        /* \"#utility.yul\":9516:9525   */\n      dup3\n        /* \"#utility.yul\":9512:9530   */\n      add\n        /* \"#utility.yul\":9504:9530   */\n      swap1\n      pop\n        /* \"#utility.yul\":9576:9585   */\n      dup2\n        /* \"#utility.yul\":9570:9574   */\n      dup2\n        /* \"#utility.yul\":9566:9586   */\n      sub\n        /* \"#utility.yul\":9562:9563   */\n      0x00\n        /* \"#utility.yul\":9551:9560   */\n      dup4\n        /* \"#utility.yul\":9547:9564   */\n      add\n        /* \"#utility.yul\":9540:9587   */\n      mstore\n        /* \"#utility.yul\":9604:9735   */\n      tag_260\n        /* \"#utility.yul\":9730:9734   */\n      dup2\n        /* \"#utility.yul\":9604:9735   */\n      tag_130\n      jump\t// in\n    tag_260:\n        /* \"#utility.yul\":9596:9735   */\n      swap1\n      pop\n        /* \"#utility.yul\":9323:9742   */\n      swap2\n      swap1\n      pop\n      jump\t// out\n        /* \"#utility.yul\":9748:9971   */\n    tag_131:\n        /* \"#utility.yul\":9888:9922   */\n      0x5061796d656e742072656c656173652064617465206e6f742072656163686564\n        /* \"#utility.yul\":9884:9885   */\n      0x00\n        /* \"#utility.yul\":9876:9882   */\n      dup3\n        /* \"#utility.yul\":9872:9886   */\n      add\n        /* \"#utility.yul\":9865:9923   */\n      mstore\n        /* \"#utility.yul\":9957:9963   */\n      0x2079657400000000000000000000000000000000000000000000000000000000\n        /* \"#utility.yul\":9952:9954   */\n      0x20\n        /* \"#utility.yul\":9944:9950   */\n      dup3\n        /* \"#utility.yul\":9940:9955   */\n      add\n        /* \"#utility.yul\":9933:9964   */\n      mstore\n        /* \"#utility.yul\":9748:9971   */\n      pop\n      jump\t// out\n        /* \"#utility.yul\":9977:10343   */\n    tag_132:\n        /* \"#utility.yul\":10119:10122   */\n      0x00\n        /* \"#utility.yul\":10140:10207   */\n      tag_263\n        /* \"#utility.yul\":10204:10206   */\n      0x24\n        /* \"#utility.yul\":10199:10202   */\n      dup4\n        /* \"#utility.yul\":10140:10207   */\n      tag_120\n      jump\t// in\n    tag_263:\n        /* \"#utility.yul\":10133:10207   */\n      swap2\n      pop\n        /* \"#utility.yul\":10216:10309   */\n      tag_264\n        /* \"#utility.yul\":10305:10308   */\n      dup3\n        /* \"#utility.yul\":10216:10309   */\n      tag_131\n      jump\t// in\n    tag_264:\n        /* \"#utility.yul\":10334:10336   */\n      0x40\n        /* \"#utility.yul\":10329:10332   */\n      dup3\n        /* \"#utility.yul\":10325:10337   */\n      add\n        /* \"#utility.yul\":10318:10337   */\n      swap1\n      pop\n        /* \"#utility.yul\":9977:10343   */\n      swap2\n      swap1\n      pop\n      jump\t// out\n        /* \"#utility.yul\":10349:10768   */\n    tag_49:\n        /* \"#utility.yul\":10515:10519   */\n      0x00\n        /* \"#utility.yul\":10553:10555   */\n      0x20\n        /* \"#utility.yul\":10542:10551   */\n      dup3\n        /* \"#utility.yul\":10538:10556   */\n      add\n        /* \"#utility.yul\":10530:10556   */\n      swap1\n      pop\n        /* \"#utility.yul\":10602:10611   */\n      dup2\n        /* \"#utility.yul\":10596:10600   */\n      dup2\n        /* \"#utility.yul\":10592:10612   */\n      sub\n        /* \"#utility.yul\":10588:10589   */\n      0x00\n        /* \"#utility.yul\":10577:10586   */\n      dup4\n        /* \"#utility.yul\":10573:10590   */\n      add\n        /* \"#utility.yul\":10566:10613   */\n      mstore\n        /* \"#utility.yul\":10630:10761   */\n      tag_266\n        /* \"#utility.yul\":10756:10760   */\n      dup2\n        /* \"#utility.yul\":10630:10761   */\n      tag_132\n      jump\t// in\n    tag_266:\n        /* \"#utility.yul\":10622:10761   */\n      swap1\n      pop\n        /* \"#utility.yul\":10349:10768   */\n      swap2\n      swap1\n      pop\n      jump\t// out\n        /* \"#utility.yul\":10774:10947   */\n    tag_133:\n        /* \"#utility.yul\":10914:10939   */\n      0x536869706d656e74206e6f7420796574206d61726b6564000000000000000000\n        /* \"#utility.yul\":10910:10911   */\n      0x00\n        /* \"#utility.yul\":10902:10908   */\n      dup3\n        /* \"#utility.yul\":10898:10912   */\n      add\n        /* \"#utility.yul\":10891:10940   */\n      mstore\n        /* \"#utility.yul\":10774:10947   */\n      pop\n      jump\t// out\n        /* \"#utility.yul\":10953:11319   */\n    tag_134:\n        /* \"#utility.yul\":11095:11098   */\n      0x00\n        /* \"#utility.yul\":11116:11183   */\n      tag_269\n        /* \"#utility.yul\":11180:11182   */\n      0x17\n        /* \"#utility.yul\":11175:11178   */\n      dup4\n        /* \"#utility.yul\":11116:11183   */\n      tag_120\n      jump\t// in\n    tag_269:\n        /* \"#utility.yul\":11109:11183   */\n      swap2\n      pop\n        /* \"#utility.yul\":11192:11285   */\n      tag_270\n        /* \"#utility.yul\":11281:11284   */\n      dup3\n        /* \"#utility.yul\":11192:11285   */\n      tag_133\n      jump\t// in\n    tag_270:\n        /* \"#utility.yul\":11310:11312   */\n      0x20\n        /* \"#utility.yul\":11305:11308   */\n      dup3\n        /* \"#utility.yul\":11301:11313   */\n      add\n        /* \"#utility.yul\":11294:11313   */\n      swap1\n      pop\n        /* \"#utility.yul\":10953:11319   */\n      swap2\n      swap1\n      pop\n      jump\t// out\n        /* \"#utility.yul\":11325:11744   */\n    tag_56:\n        /* \"#utility.yul\":11491:11495   */\n      0x00\n        /* \"#utility.yul\":11529:11531   */\n      0x20\n        /* \"#utility.yul\":11518:11527   */\n      dup3\n        /* \"#utility.yul\":11514:11532   */\n      add\n        /* \"#utility.yul\":11506:11532   */\n      swap1\n      pop\n        /* \"#utility.yul\":11578:11587   */\n      dup2\n        /* \"#utility.yul\":11572:11576   */\n      dup2\n        /* \"#utility.yul\":11568:11588   */\n      sub\n        /* \"#utility.yul\":11564:11565   */\n      0x00\n        /* \"#utility.yul\":11553:11562   */\n      dup4\n        /* \"#utility.yul\":11549:11566   */\n      add\n        /* \"#utility.yul\":11542:11589   */\n      mstore\n        /* \"#utility.yul\":11606:11737   */\n      tag_272\n        /* \"#utility.yul\":11732:11736   */\n      dup2\n        /* \"#utility.yul\":11606:11737   */\n      tag_134\n      jump\t// in\n    tag_272:\n        /* \"#utility.yul\":11598:11737   */\n      swap1\n      pop\n        /* \"#utility.yul\":11325:11744   */\n      swap2\n      swap1\n      pop\n      jump\t// out\n        /* \"#utility.yul\":11750:11929   */\n    tag_135:\n        /* \"#utility.yul\":11890:11921   */\n      0x496e73756666696369656e7420636f6e74726163742062616c616e6365000000\n        /* \"#utility.yul\":11886:11887   */\n      0x00\n        /* \"#utility.yul\":11878:11884   */\n      dup3\n        /* \"#utility.yul\":11874:11888   */\n      add\n        /* \"#utility.yul\":11867:11922   */\n      mstore\n        /* \"#utility.yul\":11750:11929   */\n      pop\n      jump\t// out\n        /* \"#utility.yul\":11935:12301   */\n    tag_136:\n        /* \"#utility.yul\":12077:12080   */\n      0x00\n        /* \"#utility.yul\":12098:12165   */\n      tag_275\n        /* \"#utility.yul\":12162:12164   */\n      0x1d\n        /* \"#utility.yul\":12157:12160   */\n      dup4\n        /* \"#utility.yul\":12098:12165   */\n      tag_120\n      jump\t// in\n    tag_275:\n        /* \"#utility.yul\":12091:12165   */\n      swap2\n      pop\n        /* \"#utility.yul\":12174:12267   */\n      tag_276\n        /* \"#utility.yul\":12263:12266   */\n      dup3\n        /* \"#utility.yul\":12174:12267   */\n      tag_135\n      jump\t// in\n    tag_276:\n        /* \"#utility.yul\":12292:12294   */\n      0x20\n        /* \"#utility.yul\":12287:12290   */\n      dup3\n        /* \"#utility.yul\":12283:12295   */\n      add\n        /* \"#utility.yul\":12276:12295   */\n      swap1\n      pop\n        /* \"#utility.yul\":11935:12301   */\n      swap2\n      swap1\n      pop\n      jump\t// out\n        /* \"#utility.yul\":12307:12726   */\n    tag_59:\n        /* \"#utility.yul\":12473:12477   */\n      0x00\n        /* \"#utility.yul\":12511:12513   */\n      0x20\n        /* \"#utility.yul\":12500:12509   */\n      dup3\n        /* \"#utility.yul\":12496:12514   */\n      add\n        /* \"#utility.yul\":12488:12514   */\n      swap1\n      pop\n        /* \"#utility.yul\":12560:12569   */\n      dup2\n        /* \"#utility.yul\":12554:12558   */\n      dup2\n        /* \"#utility.yul\":12550:12570   */\n      sub\n        /* \"#utility.yul\":12546:12547   */\n      0x00\n        /* \"#utility.yul\":12535:12544   */\n      dup4\n        /* \"#utility.yul\":12531:12548   */\n      add\n        /* \"#utility.yul\":12524:12571   */\n      mstore\n        /* \"#utility.yul\":12588:12719   */\n      tag_278\n        /* \"#utility.yul\":12714:12718   */\n      dup2\n        /* \"#utility.yul\":12588:12719   */\n      tag_136\n      jump\t// in\n    tag_278:\n        /* \"#utility.yul\":12580:12719   */\n      swap1\n      pop\n        /* \"#utility.yul\":12307:12726   */\n      swap2\n      swap1\n      pop\n      jump\t// out\n        /* \"#utility.yul\":12732:12879   */\n    tag_137:\n        /* \"#utility.yul\":12833:12844   */\n      0x00\n        /* \"#utility.yul\":12870:12873   */\n      dup2\n        /* \"#utility.yul\":12855:12873   */\n      swap1\n      pop\n        /* \"#utility.yul\":12732:12879   */\n      swap3\n      swap2\n      pop\n      pop\n      jump\t// out\n        /* \"#utility.yul\":12885:12999   */\n    tag_138:\n      pop\n      jump\t// out\n        /* \"#utility.yul\":13005:13403   */\n    tag_139:\n        /* \"#utility.yul\":13164:13167   */\n      0x00\n        /* \"#utility.yul\":13185:13268   */\n      tag_282\n        /* \"#utility.yul\":13266:13267   */\n      0x00\n        /* \"#utility.yul\":13261:13264   */\n      dup4\n        /* \"#utility.yul\":13185:13268   */\n      tag_137\n      jump\t// in\n    tag_282:\n        /* \"#utility.yul\":13178:13268   */\n      swap2\n      pop\n        /* \"#utility.yul\":13277:13370   */\n      tag_283\n        /* \"#utility.yul\":13366:13369   */\n      dup3\n        /* \"#utility.yul\":13277:13370   */\n      tag_138\n      jump\t// in\n    tag_283:\n        /* \"#utility.yul\":13395:13396   */\n      0x00\n        /* \"#utility.yul\":13390:13393   */\n      dup3\n        /* \"#utility.yul\":13386:13397   */\n      add\n        /* \"#utility.yul\":13379:13397   */\n      swap1\n      pop\n        /* \"#utility.yul\":13005:13403   */\n      swap2\n      swap1\n      pop\n      jump\t// out\n        /* \"#utility.yul\":13409:13788   */\n    tag_61:\n        /* \"#utility.yul\":13593:13596   */\n      0x00\n        /* \"#utility.yul\":13615:13762   */\n      tag_285\n        /* \"#utility.yul\":13758:13761   */\n      dup3\n        /* \"#utility.yul\":13615:13762   */\n      tag_139\n      jump\t// in\n    tag_285:\n        /* \"#utility.yul\":13608:13762   */\n      swap2\n      pop\n        /* \"#utility.yul\":13779:13782   */\n      dup2\n        /* \"#utility.yul\":13772:13782   */\n      swap1\n      pop\n        /* \"#utility.yul\":13409:13788   */\n      swap2\n      swap1\n      pop\n      jump\t// out\n        /* \"#utility.yul\":13794:13967   */\n    tag_140:\n        /* \"#utility.yul\":13934:13959   */\n      0x5061796d656e74207472616e73666572206661696c6564000000000000000000\n        /* \"#utility.yul\":13930:13931   */\n      0x00\n        /* \"#utility.yul\":13922:13928   */\n      dup3\n        /* \"#utility.yul\":13918:13932   */\n      add\n        /* \"#utility.yul\":13911:13960   */\n      mstore\n        /* \"#utility.yul\":13794:13967   */\n      pop\n      jump\t// out\n        /* \"#utility.yul\":13973:14339   */\n    tag_141:\n        /* \"#utility.yul\":14115:14118   */\n      0x00\n        /* \"#utility.yul\":14136:14203   */\n      tag_288\n        /* \"#utility.yul\":14200:14202   */\n      0x17\n        /* \"#utility.yul\":14195:14198   */\n      dup4\n        /* \"#utility.yul\":14136:14203   */\n      tag_120\n      jump\t// in\n    tag_288:\n        /* \"#utility.yul\":14129:14203   */\n      swap2\n      pop\n        /* \"#utility.yul\":14212:14305   */\n      tag_289\n        /* \"#utility.yul\":14301:14304   */\n      dup3\n        /* \"#utility.yul\":14212:14305   */\n      tag_140\n      jump\t// in\n    tag_289:\n        /* \"#utility.yul\":14330:14332   */\n      0x20\n        /* \"#utility.yul\":14325:14328   */\n      dup3\n        /* \"#utility.yul\":14321:14333   */\n      add\n        /* \"#utility.yul\":14314:14333   */\n      swap1\n      pop\n        /* \"#utility.yul\":13973:14339   */\n      swap2\n      swap1\n      pop\n      jump\t// out\n        /* \"#utility.yul\":14345:14764   */\n    tag_67:\n        /* \"#utility.yul\":14511:14515   */\n      0x00\n        /* \"#utility.yul\":14549:14551   */\n      0x20\n        /* \"#utility.yul\":14538:14547   */\n      dup3\n        /* \"#utility.yul\":14534:14552   */\n      add\n        /* \"#utility.yul\":14526:14552   */\n      swap1\n      pop\n        /* \"#utility.yul\":14598:14607   */\n      dup2\n        /* \"#utility.yul\":14592:14596   */\n      dup2\n        /* \"#utility.yul\":14588:14608   */\n      sub\n        /* \"#utility.yul\":14584:14585   */\n      0x00\n        /* \"#utility.yul\":14573:14582   */\n      dup4\n        /* \"#utility.yul\":14569:14586   */\n      add\n        /* \"#utility.yul\":14562:14609   */\n      mstore\n        /* \"#utility.yul\":14626:14757   */\n      tag_291\n        /* \"#utility.yul\":14752:14756   */\n      dup2\n        /* \"#utility.yul\":14626:14757   */\n      tag_141\n      jump\t// in\n    tag_291:\n        /* \"#utility.yul\":14618:14757   */\n      swap1\n      pop\n        /* \"#utility.yul\":14345:14764   */\n      swap2\n      swap1\n      pop\n      jump\t// out\n        /* \"#utility.yul\":14770:14944   */\n    tag_142:\n        /* \"#utility.yul\":14910:14936   */\n      0x496e636f7272656374206465706f73697420616d6f756e740000000000000000\n        /* \"#utility.yul\":14906:14907   */\n      0x00\n        /* \"#utility.yul\":14898:14904   */\n      dup3\n        /* \"#utility.yul\":14894:14908   */\n      add\n        /* \"#utility.yul\":14887:14937   */\n      mstore\n        /* \"#utility.yul\":14770:14944   */\n      pop\n      jump\t// out\n        /* \"#utility.yul\":14950:15316   */\n    tag_143:\n        /* \"#utility.yul\":15092:15095   */\n      0x00\n        /* \"#utility.yul\":15113:15180   */\n      tag_294\n        /* \"#utility.yul\":15177:15179   */\n      0x18\n        /* \"#utility.yul\":15172:15175   */\n      dup4\n        /* \"#utility.yul\":15113:15180   */\n      tag_120\n      jump\t// in\n    tag_294:\n        /* \"#utility.yul\":15106:15180   */\n      swap2\n      pop\n        /* \"#utility.yul\":15189:15282   */\n      tag_295\n        /* \"#utility.yul\":15278:15281   */\n      dup3\n        /* \"#utility.yul\":15189:15282   */\n      tag_142\n      jump\t// in\n    tag_295:\n        /* \"#utility.yul\":15307:15309   */\n      0x20\n        /* \"#utility.yul\":15302:15305   */\n      dup3\n        /* \"#utility.yul\":15298:15310   */\n      add\n        /* \"#utility.yul\":15291:15310   */\n      swap1\n      pop\n        /* \"#utility.yul\":14950:15316   */\n      swap2\n      swap1\n      pop\n      jump\t// out\n        /* \"#utility.yul\":15322:15741   */\n    tag_74:\n        /* \"#utility.yul\":15488:15492   */\n      0x00\n        /* \"#utility.yul\":15526:15528   */\n      0x20\n        /* \"#utility.yul\":15515:15524   */\n      dup3\n        /* \"#utility.yul\":15511:15529   */\n      add\n        /* \"#utility.yul\":15503:15529   */\n      swap1\n      pop\n        /* \"#utility.yul\":15575:15584   */\n      dup2\n        /* \"#utility.yul\":15569:15573   */\n      dup2\n        /* \"#utility.yul\":15565:15585   */\n      sub\n        /* \"#utility.yul\":15561:15562   */\n      0x00\n        /* \"#utility.yul\":15550:15559   */\n      dup4\n        /* \"#utility.yul\":15546:15563   */\n      add\n        /* \"#utility.yul\":15539:15586   */\n      mstore\n        /* \"#utility.yul\":15603:15734   */\n      tag_297\n        /* \"#utility.yul\":15729:15733   */\n      dup2\n        /* \"#utility.yul\":15603:15734   */\n      tag_143\n      jump\t// in\n    tag_297:\n        /* \"#utility.yul\":15595:15734   */\n      swap1\n      pop\n        /* \"#utility.yul\":15322:15741   */\n      swap2\n      swap1\n      pop\n      jump\t// out\n        /* \"#utility.yul\":15747:15927   */\n    tag_144:\n        /* \"#utility.yul\":15795:15872   */\n      0x4e487b7100000000000000000000000000000000000000000000000000000000\n        /* \"#utility.yul\":15792:15793   */\n      0x00\n        /* \"#utility.yul\":15785:15873   */\n      mstore\n        /* \"#utility.yul\":15892:15896   */\n      0x11\n        /* \"#utility.yul\":15889:15890   */\n      0x04\n        /* \"#utility.yul\":15882:15897   */\n      mstore\n        /* \"#utility.yul\":15916:15920   */\n      0x24\n        /* \"#utility.yul\":15913:15914   */\n      0x00\n        /* \"#utility.yul\":15906:15921   */\n      revert\n        /* \"#utility.yul\":15933:16166   */\n    tag_76:\n        /* \"#utility.yul\":15972:15975   */\n      0x00\n        /* \"#utility.yul\":15995:16019   */\n      tag_300\n        /* \"#utility.yul\":16013:16018   */\n      dup3\n        /* \"#utility.yul\":15995:16019   */\n      tag_100\n      jump\t// in\n    tag_300:\n        /* \"#utility.yul\":15986:16019   */\n      swap2\n      pop\n        /* \"#utility.yul\":16041:16107   */\n      0xffffffffffffffffffffffffffffffffffffffffffffffffffffffffffffffff\n        /* \"#utility.yul\":16034:16039   */\n      dup3\n        /* \"#utility.yul\":16031:16108   */\n      sub\n        /* \"#utility.yul\":16028:16131   */\n      tag_301\n      jumpi\n        /* \"#utility.yul\":16111:16129   */\n      tag_302\n      tag_144\n      jump\t// in\n    tag_302:\n        /* \"#utility.yul\":16028:16131   */\n    tag_301:\n        /* \"#utility.yul\":16158:16159   */\n      0x01\n        /* \"#utility.yul\":16151:16156   */\n      dup3\n        /* \"#utility.yul\":16147:16160   */\n      add\n        /* \"#utility.yul\":16140:16160   */\n      swap1\n      pop\n        /* \"#utility.yul\":15933:16166   */\n      swap2\n      swap1\n      pop\n      jump\t// out\n        /* \"#utility.yul\":16172:16363   */\n    tag_80:\n        /* \"#utility.yul\":16212:16215   */\n      0x00\n        /* \"#utility.yul\":16231:16251   */\n      tag_304\n        /* \"#utility.yul\":16249:16250   */\n      dup3\n        /* \"#utility.yul\":16231:16251   */\n      tag_100\n      jump\t// in\n    tag_304:\n        /* \"#utility.yul\":16226:16251   */\n      swap2\n      pop\n        /* \"#utility.yul\":16265:16285   */\n      tag_305\n        /* \"#utility.yul\":16283:16284   */\n      dup4\n        /* \"#utility.yul\":16265:16285   */\n      tag_100\n      jump\t// in\n    tag_305:\n        /* \"#utility.yul\":16260:16285   */\n      swap3\n      pop\n        /* \"#utility.yul\":16308:16309   */\n      dup3\n        /* \"#utility.yul\":16305:16306   */\n      dup3\n        /* \"#utility.yul\":16301:16310   */\n      add\n        /* \"#utility.yul\":16294:16310   */\n      swap1\n      pop\n        /* \"#utility.yul\":16329:16332   */\n      dup1\n        /* \"#utility.yul\":16326:16327   */\n      dup3\n        /* \"#utility.yul\":16323:16333   */\n      gt\n        /* \"#utility.yul\":16320:16356   */\n      iszero\n      tag_306\n      jumpi\n        /* \"#utility.yul\":16336:16354   */\n      tag_307\n      tag_144\n      jump\t// in\n    tag_307:\n        /* \"#utility.yul\":16320:16356   */\n    tag_306:\n        /* \"#utility.yul\":16172:16363   */\n      swap3\n      swap2\n      pop\n      pop\n      jump\t// out\n        /* \"#utility.yul\":16369:16549   */\n    tag_145:\n        /* \"#utility.yul\":16417:16494   */\n      0x4e487b7100000000000000000000000000000000000000000000000000000000\n        /* \"#utility.yul\":16414:16415   */\n      0x00\n        /* \"#utility.yul\":16407:16495   */\n      mstore\n        /* \"#utility.yul\":16514:16518   */\n      0x22\n        /* \"#utility.yul\":16511:16512   */\n      0x04\n        /* \"#utility.yul\":16504:16519   */\n      mstore\n        /* \"#utility.yul\":16538:16542   */\n      0x24\n        /* \"#utility.yul\":16535:16536   */\n      0x00\n        /* \"#utility.yul\":16528:16543   */\n      revert\n        /* \"#utility.yul\":16555:16875   */\n    tag_89:\n        /* \"#utility.yul\":16599:16605   */\n      0x00\n        /* \"#utility.yul\":16636:16637   */\n      0x02\n        /* \"#utility.yul\":16630:16634   */\n      dup3\n        /* \"#utility.yul\":16626:16638   */\n      div\n        /* \"#utility.yul\":16616:16638   */\n      swap1\n      pop\n        /* \"#utility.yul\":16683:16684   */\n      0x01\n        /* \"#utility.yul\":16677:16681   */\n      dup3\n        /* \"#utility.yul\":16673:16685   */\n      and\n        /* \"#utility.yul\":16704:16722   */\n      dup1\n        /* \"#utility.yul\":16694:16775   */\n      tag_310\n      jumpi\n        /* \"#utility.yul\":16760:16764   */\n      0x7f\n        /* \"#utility.yul\":16752:16758   */\n      dup3\n        /* \"#utility.yul\":16748:16765   */\n      and\n        /* \"#utility.yul\":16738:16765   */\n      swap2\n      pop\n        /* \"#utility.yul\":16694:16775   */\n    tag_310:\n        /* \"#utility.yul\":16822:16824   */\n      0x20\n        /* \"#utility.yul\":16814:16820   */\n      dup3\n        /* \"#utility.yul\":16811:16825   */\n      lt\n        /* \"#utility.yul\":16791:16809   */\n      dup2\n        /* \"#utility.yul\":16788:16826   */\n      sub\n        /* \"#utility.yul\":16785:16869   */\n      tag_311\n      jumpi\n        /* \"#utility.yul\":16841:16859   */\n      tag_312\n      tag_145\n      jump\t// in\n    tag_312:\n        /* \"#utility.yul\":16785:16869   */\n    tag_311:\n        /* \"#utility.yul\":16606:16875   */\n      pop\n        /* \"#utility.yul\":16555:16875   */\n      swap2\n      swap1\n      pop\n      jump\t// out\n        /* \"#utility.yul\":16881:17022   */\n    tag_146:\n        /* \"#utility.yul\":16930:16934   */\n      0x00\n        /* \"#utility.yul\":16953:16956   */\n      dup2\n        /* \"#utility.yul\":16945:16956   */\n      swap1\n      pop\n        /* \"#utility.yul\":16976:16979   */\n      dup2\n        /* \"#utility.yul\":16973:16974   */\n      0x00\n        /* \"#utility.yul\":16966:16980   */\n      mstore\n        /* \"#utility.yul\":17010:17014   */\n      0x20\n        /* \"#utility.yul\":17007:17008   */\n      0x00\n        /* \"#utility.yul\":16997:17015   */\n      keccak256\n        /* \"#utility.yul\":16989:17015   */\n      swap1\n      pop\n        /* \"#utility.yul\":16881:17022   */\n      swap2\n      swap1\n      pop\n      jump\t// out\n        /* \"#utility.yul\":17028:17121   */\n    tag_147:\n        /* \"#utility.yul\":17065:17071   */\n      0x00\n        /* \"#utility.yul\":17112:17114   */\n      0x20\n        /* \"#utility.yul\":17107:17109   */\n      0x1f\n        /* \"#utility.yul\":17100:17105   */\n      dup4\n        /* \"#utility.yul\":17096:17110   */\n      add\n        /* \"#utility.yul\":17092:17115   */\n      div\n        /* \"#utility.yul\":17082:17115   */\n      swap1\n      pop\n        /* \"#utility.yul\":17028:17121   */\n      swap2\n      swap1\n      pop\n      jump\t// out\n        /* \"#utility.yul\":17127:17234   */\n    tag_148:\n        /* \"#utility.yul\":17171:17179   */\n      0x00\n        /* \"#utility.yul\":17221:17226   */\n      dup3\n        /* \"#utility.yul\":17215:17219   */\n      dup3\n        /* \"#utility.yul\":17211:17227   */\n      shl\n        /* \"#utility.yul\":17190:17227   */\n      swap1\n      pop\n        /* \"#utility.yul\":17127:17234   */\n      swap3\n      swap2\n      pop\n      pop\n      jump\t// out\n        /* \"#utility.yul\":17240:17633   */\n    tag_149:\n        /* \"#utility.yul\":17309:17315   */\n      0x00\n        /* \"#utility.yul\":17359:17360   */\n      0x08\n        /* \"#utility.yul\":17347:17357   */\n      dup4\n        /* \"#utility.yul\":17343:17361   */\n      mul\n        /* \"#utility.yul\":17382:17479   */\n      tag_317\n        /* \"#utility.yul\":17412:17478   */\n      0xffffffffffffffffffffffffffffffffffffffffffffffffffffffffffffffff\n        /* \"#utility.yul\":17401:17410   */\n      dup3\n        /* \"#utility.yul\":17382:17479   */\n      tag_148\n      jump\t// in\n    tag_317:\n        /* \"#utility.yul\":17500:17539   */\n      tag_318\n        /* \"#utility.yul\":17530:17538   */\n      dup7\n        /* \"#utility.yul\":17519:17528   */\n      dup4\n        /* \"#utility.yul\":17500:17539   */\n      tag_148\n      jump\t// in\n    tag_318:\n        /* \"#utility.yul\":17488:17539   */\n      swap6\n      pop\n        /* \"#utility.yul\":17572:17576   */\n      dup1\n        /* \"#utility.yul\":17568:17577   */\n      not\n        /* \"#utility.yul\":17561:17566   */\n      dup5\n        /* \"#utility.yul\":17557:17578   */\n      and\n        /* \"#utility.yul\":17548:17578   */\n      swap4\n      pop\n        /* \"#utility.yul\":17621:17625   */\n      dup1\n        /* \"#utility.yul\":17611:17619   */\n      dup7\n        /* \"#utility.yul\":17607:17626   */\n      and\n        /* \"#utility.yul\":17600:17605   */\n      dup5\n        /* \"#utility.yul\":17597:17627   */\n      or\n        /* \"#utility.yul\":17587:17627   */\n      swap3\n      pop\n        /* \"#utility.yul\":17316:17633   */\n      pop\n      pop\n        /* \"#utility.yul\":17240:17633   */\n      swap4\n      swap3\n      pop\n      pop\n      pop\n      jump\t// out\n        /* \"#utility.yul\":17639:17699   */\n    tag_150:\n        /* \"#utility.yul\":17667:17670   */\n      0x00\n        /* \"#utility.yul\":17688:17693   */\n      dup2\n        /* \"#utility.yul\":17681:17693   */\n      swap1\n      pop\n        /* \"#utility.yul\":17639:17699   */\n      swap2\n      swap1\n      pop\n      jump\t// out\n        /* \"#utility.yul\":17705:17847   */\n    tag_151:\n        /* \"#utility.yul\":17755:17764   */\n      0x00\n        /* \"#utility.yul\":17788:17841   */\n      tag_321\n        /* \"#utility.yul\":17806:17840   */\n      tag_322\n        /* \"#utility.yul\":17815:17839   */\n      tag_323\n        /* \"#utility.yul\":17833:17838   */\n      dup5\n        /* \"#utility.yul\":17815:17839   */\n      tag_100\n      jump\t// in\n    tag_323:\n        /* \"#utility.yul\":17806:17840   */\n      tag_150\n      jump\t// in\n    tag_322:\n        /* \"#utility.yul\":17788:17841   */\n      tag_100\n      jump\t// in\n    tag_321:\n        /* \"#utility.yul\":17775:17841   */\n      swap1\n      pop\n        /* \"#utility.yul\":17705:17847   */\n      swap2\n      swap1\n      pop\n      jump\t// out\n        /* \"#utility.yul\":17853:17928   */\n    tag_152:\n        /* \"#utility.yul\":17896:17899   */\n      0x00\n        /* \"#utility.yul\":17917:17922   */\n      dup2\n        /* \"#utility.yul\":17910:17922   */\n      swap1\n      pop\n        /* \"#utility.yul\":17853:17928   */\n      swap2\n      swap1\n      pop\n      jump\t// out\n        /* \"#utility.yul\":17934:18203   */\n    tag_153:\n        /* \"#utility.yul\":18044:18083   */\n      tag_326\n        /* \"#utility.yul\":18075:18082   */\n      dup4\n        /* \"#utility.yul\":18044:18083   */\n      tag_151\n      jump\t// in\n    tag_326:\n        /* \"#utility.yul\":18105:18196   */\n      tag_327\n        /* \"#utility.yul\":18154:18195   */\n      tag_328\n        /* \"#utility.yul\":18178:18194   */\n      dup3\n        /* \"#utility.yul\":18154:18195   */\n      tag_152\n      jump\t// in\n    tag_328:\n        /* \"#utility.yul\":18146:18152   */\n      dup5\n        /* \"#utility.yul\":18139:18143   */\n      dup5\n        /* \"#utility.yul\":18133:18144   */\n      sload\n        /* \"#utility.yul\":18105:18196   */\n      tag_149\n      jump\t// in\n    tag_327:\n        /* \"#utility.yul\":18099:18103   */\n      dup3\n        /* \"#utility.yul\":18092:18197   */\n      sstore\n        /* \"#utility.yul\":18010:18203   */\n      pop\n        /* \"#utility.yul\":17934:18203   */\n      pop\n      pop\n      pop\n      jump\t// out\n        /* \"#utility.yul\":18209:18282   */\n    tag_154:\n        /* \"#utility.yul\":18254:18257   */\n      0x00\n        /* \"#utility.yul\":18209:18282   */\n      swap1\n      jump\t// out\n        /* \"#utility.yul\":18288:18477   */\n    tag_155:\n        /* \"#utility.yul\":18365:18397   */\n      tag_331\n      tag_154\n      jump\t// in\n    tag_331:\n        /* \"#utility.yul\":18406:18471   */\n      tag_332\n        /* \"#utility.yul\":18464:18470   */\n      dup2\n        /* \"#utility.yul\":18456:18462   */\n      dup5\n        /* \"#utility.yul\":18450:18454   */\n      dup5\n        /* \"#utility.yul\":18406:18471   */\n      tag_153\n      jump\t// in\n    tag_332:\n        /* \"#utility.yul\":18341:18477   */\n      pop\n        /* \"#utility.yul\":18288:18477   */\n      pop\n      pop\n      jump\t// out\n        /* \"#utility.yul\":18483:18669   */\n    tag_156:\n        /* \"#utility.yul\":18543:18663   */\n    tag_334:\n        /* \"#utility.yul\":18560:18563   */\n      dup2\n        /* \"#utility.yul\":18553:18558   */\n      dup2\n        /* \"#utility.yul\":18550:18564   */\n      lt\n        /* \"#utility.yul\":18543:18663   */\n      iszero\n      tag_336\n      jumpi\n        /* \"#utility.yul\":18614:18653   */\n      tag_337\n        /* \"#utility.yul\":18651:18652   */\n      0x00\n        /* \"#utility.yul\":18644:18649   */\n      dup3\n        /* \"#utility.yul\":18614:18653   */\n      tag_155\n      jump\t// in\n    tag_337:\n        /* \"#utility.yul\":18587:18588   */\n      0x01\n        /* \"#utility.yul\":18580:18585   */\n      dup2\n        /* \"#utility.yul\":18576:18589   */\n      add\n        /* \"#utility.yul\":18567:18589   */\n      swap1\n      pop\n        /* \"#utility.yul\":18543:18663   */\n      jump(tag_334)\n    tag_336:\n        /* \"#utility.yul\":18483:18669   */\n      pop\n      pop\n      jump\t// out\n        /* \"#utility.yul\":18675:19218   */\n    tag_157:\n        /* \"#utility.yul\":18776:18778   */\n      0x1f\n        /* \"#utility.yul\":18771:18774   */\n      dup3\n        /* \"#utility.yul\":18768:18779   */\n      gt\n        /* \"#utility.yul\":18765:19211   */\n      iszero\n      tag_339\n      jumpi\n        /* \"#utility.yul\":18810:18848   */\n      tag_340\n        /* \"#utility.yul\":18842:18847   */\n      dup2\n        /* \"#utility.yul\":18810:18848   */\n      tag_146\n      jump\t// in\n    tag_340:\n        /* \"#utility.yul\":18894:18923   */\n      tag_341\n        /* \"#utility.yul\":18912:18922   */\n      dup5\n        /* \"#utility.yul\":18894:18923   */\n      tag_147\n      jump\t// in\n    tag_341:\n        /* \"#utility.yul\":18884:18892   */\n      dup2\n        /* \"#utility.yul\":18880:18924   */\n      add\n        /* \"#utility.yul\":19077:19079   */\n      0x20\n        /* \"#utility.yul\":19065:19075   */\n      dup6\n        /* \"#utility.yul\":19062:19080   */\n      lt\n        /* \"#utility.yul\":19059:19108   */\n      iszero\n      tag_342\n      jumpi\n        /* \"#utility.yul\":19098:19106   */\n      dup2\n        /* \"#utility.yul\":19083:19106   */\n      swap1\n      pop\n        /* \"#utility.yul\":19059:19108   */\n    tag_342:\n        /* \"#utility.yul\":19121:19201   */\n      tag_343\n        /* \"#utility.yul\":19177:19199   */\n      tag_344\n        /* \"#utility.yul\":19195:19198   */\n      dup6\n        /* \"#utility.yul\":19177:19199   */\n      tag_147\n      jump\t// in\n    tag_344:\n        /* \"#utility.yul\":19167:19175   */\n      dup4\n        /* \"#utility.yul\":19163:19200   */\n      add\n        /* \"#utility.yul\":19150:19161   */\n      dup3\n        /* \"#utility.yul\":19121:19201   */\n      tag_156\n      jump\t// in\n    tag_343:\n        /* \"#utility.yul\":18780:19211   */\n      pop\n      pop\n        /* \"#utility.yul\":18765:19211   */\n    tag_339:\n        /* \"#utility.yul\":18675:19218   */\n      pop\n      pop\n      pop\n      jump\t// out\n        /* \"#utility.yul\":19224:19341   */\n    tag_158:\n        /* \"#utility.yul\":19278:19286   */\n      0x00\n        /* \"#utility.yul\":19328:19333   */\n      dup3\n        /* \"#utility.yul\":19322:19326   */\n      dup3\n        /* \"#utility.yul\":19318:19334   */\n      shr\n        /* \"#utility.yul\":19297:19334   */\n      swap1\n      pop\n        /* \"#utility.yul\":19224:19341   */\n      swap3\n      swap2\n      pop\n      pop\n      jump\t// out\n        /* \"#utility.yul\":19347:19516   */\n    tag_159:\n        /* \"#utility.yul\":19391:19397   */\n      0x00\n        /* \"#utility.yul\":19424:19475   */\n      tag_347\n        /* \"#utility.yul\":19472:19473   */\n      0x00\n        /* \"#utility.yul\":19468:19474   */\n      not\n        /* \"#utility.yul\":19460:19465   */\n      dup5\n        /* \"#utility.yul\":19457:19458   */\n      0x08\n        /* \"#utility.yul\":19453:19466   */\n      mul\n        /* \"#utility.yul\":19424:19475   */\n      tag_158\n      jump\t// in\n    tag_347:\n        /* \"#utility.yul\":19420:19476   */\n      not\n        /* \"#utility.yul\":19505:19509   */\n      dup1\n        /* \"#utility.yul\":19499:19503   */\n      dup4\n        /* \"#utility.yul\":19495:19510   */\n      and\n        /* \"#utility.yul\":19485:19510   */\n      swap2\n      pop\n        /* \"#utility.yul\":19398:19516   */\n      pop\n        /* \"#utility.yul\":19347:19516   */\n      swap3\n      swap2\n      pop\n      pop\n      jump\t// out\n        /* \"#utility.yul\":19521:19816   */\n    tag_160:\n        /* \"#utility.yul\":19597:19601   */\n      0x00\n        /* \"#utility.yul\":19743:19772   */\n      tag_349\n        /* \"#utility.yul\":19768:19771   */\n      dup4\n        /* \"#utility.yul\":19762:19766   */\n      dup4\n        /* \"#utility.yul\":19743:19772   */\n      tag_159\n      jump\t// in\n    tag_349:\n        /* \"#utility.yul\":19735:19772   */\n      swap2\n      pop\n        /* \"#utility.yul\":19805:19808   */\n      dup3\n        /* \"#utility.yul\":19802:19803   */\n      0x02\n        /* \"#utility.yul\":19798:19809   */\n      mul\n        /* \"#utility.yul\":19792:19796   */\n      dup3\n        /* \"#utility.yul\":19789:19810   */\n      or\n        /* \"#utility.yul\":19781:19810   */\n      swap1\n      pop\n        /* \"#utility.yul\":19521:19816   */\n      swap3\n      swap2\n      pop\n      pop\n      jump\t// out\n        /* \"#utility.yul\":19821:21216   */\n    tag_84:\n        /* \"#utility.yul\":19938:19975   */\n      tag_351\n        /* \"#utility.yul\":19971:19974   */\n      dup3\n        /* \"#utility.yul\":19938:19975   */\n      tag_119\n      jump\t// in\n    tag_351:\n        /* \"#utility.yul\":20040:20058   */\n      0xffffffffffffffff\n        /* \"#utility.yul\":20032:20038   */\n      dup2\n        /* \"#utility.yul\":20029:20059   */\n      gt\n        /* \"#utility.yul\":20026:20082   */\n      iszero\n      tag_352\n      jumpi\n        /* \"#utility.yul\":20062:20080   */\n      tag_353\n      tag_110\n      jump\t// in\n    tag_353:\n        /* \"#utility.yul\":20026:20082   */\n    tag_352:\n        /* \"#utility.yul\":20106:20144   */\n      tag_354\n        /* \"#utility.yul\":20138:20142   */\n      dup3\n        /* \"#utility.yul\":20132:20143   */\n      sload\n        /* \"#utility.yul\":20106:20144   */\n      tag_89\n      jump\t// in\n    tag_354:\n        /* \"#utility.yul\":20191:20258   */\n      tag_355\n        /* \"#utility.yul\":20251:20257   */\n      dup3\n        /* \"#utility.yul\":20243:20249   */\n      dup3\n        /* \"#utility.yul\":20237:20241   */\n      dup6\n        /* \"#utility.yul\":20191:20258   */\n      tag_157\n      jump\t// in\n    tag_355:\n        /* \"#utility.yul\":20285:20286   */\n      0x00\n        /* \"#utility.yul\":20309:20313   */\n      0x20\n        /* \"#utility.yul\":20296:20313   */\n      swap1\n      pop\n        /* \"#utility.yul\":20341:20343   */\n      0x1f\n        /* \"#utility.yul\":20333:20339   */\n      dup4\n        /* \"#utility.yul\":20330:20344   */\n      gt\n        /* \"#utility.yul\":20358:20359   */\n      0x01\n        /* \"#utility.yul\":20353:20971   */\n      dup2\n      eq\n      tag_357\n      jumpi\n        /* \"#utility.yul\":21015:21016   */\n      0x00\n        /* \"#utility.yul\":21032:21038   */\n      dup5\n        /* \"#utility.yul\":21029:21106   */\n      iszero\n      tag_358\n      jumpi\n        /* \"#utility.yul\":21081:21090   */\n      dup3\n        /* \"#utility.yul\":21076:21079   */\n      dup8\n        /* \"#utility.yul\":21072:21091   */\n      add\n        /* \"#utility.yul\":21066:21092   */\n      mload\n        /* \"#utility.yul\":21057:21092   */\n      swap1\n      pop\n        /* \"#utility.yul\":21029:21106   */\n    tag_358:\n        /* \"#utility.yul\":21132:21199   */\n      tag_359\n        /* \"#utility.yul\":21192:21198   */\n      dup6\n        /* \"#utility.yul\":21185:21190   */\n      dup3\n        /* \"#utility.yul\":21132:21199   */\n      tag_160\n      jump\t// in\n    tag_359:\n        /* \"#utility.yul\":21126:21130   */\n      dup7\n        /* \"#utility.yul\":21119:21200   */\n      sstore\n        /* \"#utility.yul\":20988:21210   */\n      pop\n        /* \"#utility.yul\":20323:21210   */\n      jump(tag_356)\n        /* \"#utility.yul\":20353:20971   */\n    tag_357:\n        /* \"#utility.yul\":20405:20409   */\n      0x1f\n        /* \"#utility.yul\":20401:20410   */\n      not\n        /* \"#utility.yul\":20393:20399   */\n      dup5\n        /* \"#utility.yul\":20389:20411   */\n      and\n        /* \"#utility.yul\":20439:20476   */\n      tag_360\n        /* \"#utility.yul\":20471:20475   */\n      dup7\n        /* \"#utility.yul\":20439:20476   */\n      tag_146\n      jump\t// in\n    tag_360:\n        /* \"#utility.yul\":20498:20499   */\n      0x00\n        /* \"#utility.yul\":20512:20720   */\n    tag_361:\n        /* \"#utility.yul\":20526:20533   */\n      dup3\n        /* \"#utility.yul\":20523:20524   */\n      dup2\n        /* \"#utility.yul\":20520:20534   */\n      lt\n        /* \"#utility.yul\":20512:20720   */\n      iszero\n      tag_363\n      jumpi\n        /* \"#utility.yul\":20605:20614   */\n      dup5\n        /* \"#utility.yul\":20600:20603   */\n      dup10\n        /* \"#utility.yul\":20596:20615   */\n      add\n        /* \"#utility.yul\":20590:20616   */\n      mload\n        /* \"#utility.yul\":20582:20588   */\n      dup3\n        /* \"#utility.yul\":20575:20617   */\n      sstore\n        /* \"#utility.yul\":20656:20657   */\n      0x01\n        /* \"#utility.yul\":20648:20654   */\n      dup3\n        /* \"#utility.yul\":20644:20658   */\n      add\n        /* \"#utility.yul\":20634:20658   */\n      swap2\n      pop\n        /* \"#utility.yul\":20703:20705   */\n      0x20\n        /* \"#utility.yul\":20692:20701   */\n      dup6\n        /* \"#utility.yul\":20688:20706   */\n      add\n        /* \"#utility.yul\":20675:20706   */\n      swap5\n      pop\n        /* \"#utility.yul\":20549:20553   */\n      0x20\n        /* \"#utility.yul\":20546:20547   */\n      dup2\n        /* \"#utility.yul\":20542:20554   */\n      add\n        /* \"#utility.yul\":20537:20554   */\n      swap1\n      pop\n        /* \"#utility.yul\":20512:20720   */\n      jump(tag_361)\n    tag_363:\n        /* \"#utility.yul\":20748:20754   */\n      dup7\n        /* \"#utility.yul\":20739:20746   */\n      dup4\n        /* \"#utility.yul\":20736:20755   */\n      lt\n        /* \"#utility.yul\":20733:20912   */\n      iszero\n      tag_364\n      jumpi\n        /* \"#utility.yul\":20806:20815   */\n      dup5\n        /* \"#utility.yul\":20801:20804   */\n      dup10\n        /* \"#utility.yul\":20797:20816   */\n      add\n        /* \"#utility.yul\":20791:20817   */\n      mload\n        /* \"#utility.yul\":20849:20897   */\n      tag_365\n        /* \"#utility.yul\":20891:20895   */\n      0x1f\n        /* \"#utility.yul\":20883:20889   */\n      dup10\n        /* \"#utility.yul\":20879:20896   */\n      and\n        /* \"#utility.yul\":20868:20877   */\n      dup3\n        /* \"#utility.yul\":20849:20897   */\n      tag_159\n      jump\t// in\n    tag_365:\n        /* \"#utility.yul\":20841:20847   */\n      dup4\n        /* \"#utility.yul\":20834:20898   */\n      sstore\n        /* \"#utility.yul\":20756:20912   */\n      pop\n        /* \"#utility.yul\":20733:20912   */\n    tag_364:\n        /* \"#utility.yul\":20958:20959   */\n      0x01\n        /* \"#utility.yul\":20954:20955   */\n      0x02\n        /* \"#utility.yul\":20946:20952   */\n      dup9\n        /* \"#utility.yul\":20942:20956   */\n      mul\n        /* \"#utility.yul\":20938:20960   */\n      add\n        /* \"#utility.yul\":20932:20936   */\n      dup9\n        /* \"#utility.yul\":20925:20961   */\n      sstore\n        /* \"#utility.yul\":20360:20971   */\n      pop\n      pop\n      pop\n        /* \"#utility.yul\":20323:21210   */\n    tag_356:\n      pop\n        /* \"#utility.yul\":19913:21216   */\n      pop\n      pop\n      pop\n        /* \"#utility.yul\":19821:21216   */\n      pop\n      pop\n      jump\t// out\n        /* \"#utility.yul\":21222:21632   */\n    tag_96:\n        /* \"#utility.yul\":21262:21269   */\n      0x00\n        /* \"#utility.yul\":21285:21305   */\n      tag_367\n        /* \"#utility.yul\":21303:21304   */\n      dup3\n        /* \"#utility.yul\":21285:21305   */\n      tag_100\n      jump\t// in\n    tag_367:\n        /* \"#utility.yul\":21280:21305   */\n      swap2\n      pop\n        /* \"#utility.yul\":21319:21339   */\n      tag_368\n        /* \"#utility.yul\":21337:21338   */\n      dup4\n        /* \"#utility.yul\":21319:21339   */\n      tag_100\n      jump\t// in\n    tag_368:\n        /* \"#utility.yul\":21314:21339   */\n      swap3\n      pop\n        /* \"#utility.yul\":21374:21375   */\n      dup3\n        /* \"#utility.yul\":21371:21372   */\n      dup3\n        /* \"#utility.yul\":21367:21376   */\n      mul\n        /* \"#utility.yul\":21396:21426   */\n      tag_369\n        /* \"#utility.yul\":21414:21425   */\n      dup2\n        /* \"#utility.yul\":21396:21426   */\n      tag_100\n      jump\t// in\n    tag_369:\n        /* \"#utility.yul\":21385:21426   */\n      swap2\n      pop\n        /* \"#utility.yul\":21575:21576   */\n      dup3\n        /* \"#utility.yul\":21566:21573   */\n      dup3\n        /* \"#utility.yul\":21562:21577   */\n      div\n        /* \"#utility.yul\":21559:21560   */\n      dup5\n        /* \"#utility.yul\":21556:21578   */\n      eq\n        /* \"#utility.yul\":21536:21537   */\n      dup4\n        /* \"#utility.yul\":21529:21538   */\n      iszero\n        /* \"#utility.yul\":21509:21592   */\n      or\n        /* \"#utility.yul\":21486:21625   */\n      tag_370\n      jumpi\n        /* \"#utility.yul\":21605:21623   */\n      tag_371\n      tag_144\n      jump\t// in\n    tag_371:\n        /* \"#utility.yul\":21486:21625   */\n    tag_370:\n        /* \"#utility.yul\":21270:21632   */\n      pop\n        /* \"#utility.yul\":21222:21632   */\n      swap3\n      swap2\n      pop\n      pop\n      jump\t// out\n\n    auxdata: 0xa26469706673582212203be5a47c7c75ceca22c8ba1e70fb9c8d6a73c9a869135da0df82faac40dfc65b64736f6c63430008190033\n}\n",
				"bytecode": {
					"linkReferences": {},
					"object": "6080604052348015600e575f80fd5b506113988061001c5f395ff3fe608060405260043610610049575f3560e01c8063836a8ed01461004d57806388685cd9146100755780638c990f511461009d578063bb7bb278146100b9578063bd14de96146100e3575b5f80fd5b348015610058575f80fd5b50610073600480360381019061006e919061089b565b610124565b005b348015610080575f80fd5b5061009b6004803603810190610096919061089b565b6102a4565b005b6100b760048036038101906100b29190610a5c565b6104f3565b005b3480156100c4575f80fd5b506100cd610733565b6040516100da9190610aeb565b60405180910390f35b3480156100ee575f80fd5b506101096004803603810190610104919061089b565b610739565b60405161011b96959493929190610be6565b60405180910390f35b5f805f8381526020019081526020015f2090503373ffffffffffffffffffffffffffffffffffffffff16815f015f9054906101000a900473ffffffffffffffffffffffffffffffffffffffff1673ffffffffffffffffffffffffffffffffffffffff16146101c7576040517f08c379a00000000000000000000000000000000000000000000000000000000081526004016101be90610c96565b60405180910390fd5b5f60038111156101da576101d9610b73565b5b816005015f9054906101000a900460ff1660038111156101fd576101fc610b73565b5b1461023d576040517f08c379a000000000000000000000000000000000000000000000000000000000815260040161023490610d24565b60405180910390fd5b6001816005015f6101000a81548160ff0219169083600381111561026457610263610b73565b5b02179055507f389f16c4810d66b04486eb4e6c741cac88531524f402ffc0fae20d950d179641826040516102989190610aeb565b60405180910390a15050565b5f805f8381526020019081526020015f20905080600401544210156102fe576040517f08c379a00000000000000000000000000000000000000000000000000000000081526004016102f590610db2565b60405180910390fd5b6001600381111561031257610311610b73565b5b816005015f9054906101000a900460ff16600381111561033557610334610b73565b5b14610375576040517f08c379a000000000000000000000000000000000000000000000000000000000815260040161036c90610e1a565b60405180910390fd5b80600301544710156103bc576040517f08c379a00000000000000000000000000000000000000000000000000000000081526004016103b390610e82565b60405180910390fd5b5f816001015f9054906101000a900473ffffffffffffffffffffffffffffffffffffffff1673ffffffffffffffffffffffffffffffffffffffff16826003015460405161040890610ecd565b5f6040518083038185875af1925050503d805f8114610442576040519150601f19603f3d011682016040523d82523d5f602084013e610447565b606091505b505090508061048b576040517f08c379a000000000000000000000000000000000000000000000000000000000815260040161048290610f2b565b60405180910390fd5b6002826005015f6101000a81548160ff021916908360038111156104b2576104b1610b73565b5b02179055507f60f91a26281f20fb528663f4da55773c83e2ee8a7a5dddb6d1753749e81dc49b836040516104e69190610aeb565b60405180910390a1505050565b813414610535576040517f08c379a000000000000000000000000000000000000000000000000000000000815260040161052c90610f93565b60405180910390fd5b5f3390505f60015f81548092919061054c90610fde565b9190505590506040518060c001604052808373ffffffffffffffffffffffffffffffffffffffff1681526020018773ffffffffffffffffffffffffffffffffffffffff1681526020018681526020018581526020016105aa85610840565b426105b59190611025565b81526020015f60038111156105cd576105cc610b73565b5b8152505f808381526020019081526020015f205f820151815f015f6101000a81548173ffffffffffffffffffffffffffffffffffffffff021916908373ffffffffffffffffffffffffffffffffffffffff1602179055506020820151816001015f6101000a81548173ffffffffffffffffffffffffffffffffffffffff021916908373ffffffffffffffffffffffffffffffffffffffff160217905550604082015181600201908161067f9190611252565b50606082015181600301556080820151816004015560a0820151816005015f6101000a81548160ff021916908360038111156106be576106bd610b73565b5b02179055509050508573ffffffffffffffffffffffffffffffffffffffff168273ffffffffffffffffffffffffffffffffffffffff167fe037ec30313eecdd927ffae3beed86a87b82f7bb794966ec08d75cf1a6e82686836040516107239190610aeb565b60405180910390a3505050505050565b60015481565b5f602052805f5260405f205f91509050805f015f9054906101000a900473ffffffffffffffffffffffffffffffffffffffff1690806001015f9054906101000a900473ffffffffffffffffffffffffffffffffffffffff16908060020180546107a190611085565b80601f01602080910402602001604051908101604052809291908181526020018280546107cd90611085565b80156108185780601f106107ef57610100808354040283529160200191610818565b820191905f5260205f20905b8154815290600101906020018083116107fb57829003601f168201915b505050505090806003015490806004015490806005015f9054906101000a900460ff16905086565b5f62015180826108509190611321565b9050919050565b5f604051905090565b5f80fd5b5f80fd5b5f819050919050565b61087a81610868565b8114610884575f80fd5b50565b5f8135905061089581610871565b92915050565b5f602082840312156108b0576108af610860565b5b5f6108bd84828501610887565b91505092915050565b5f73ffffffffffffffffffffffffffffffffffffffff82169050919050565b5f6108ef826108c6565b9050919050565b6108ff816108e5565b8114610909575f80fd5b50565b5f8135905061091a816108f6565b92915050565b5f80fd5b5f80fd5b5f601f19601f8301169050919050565b7f4e487b71000000000000000000000000000000000000000000000000000000005f52604160045260245ffd5b61096e82610928565b810181811067ffffffffffffffff8211171561098d5761098c610938565b5b80604052505050565b5f61099f610857565b90506109ab8282610965565b919050565b5f67ffffffffffffffff8211156109ca576109c9610938565b5b6109d382610928565b9050602081019050919050565b828183375f83830152505050565b5f610a006109fb846109b0565b610996565b905082815260208101848484011115610a1c57610a1b610924565b5b610a278482856109e0565b509392505050565b5f82601f830112610a4357610a42610920565b5b8135610a538482602086016109ee565b91505092915050565b5f805f8060808587031215610a7457610a73610860565b5b5f610a818782880161090c565b945050602085013567ffffffffffffffff811115610aa257610aa1610864565b5b610aae87828801610a2f565b9350506040610abf87828801610887565b9250506060610ad087828801610887565b91505092959194509250565b610ae581610868565b82525050565b5f602082019050610afe5f830184610adc565b92915050565b610b0d816108e5565b82525050565b5f81519050919050565b5f82825260208201905092915050565b8281835e5f83830152505050565b5f610b4582610b13565b610b4f8185610b1d565b9350610b5f818560208601610b2d565b610b6881610928565b840191505092915050565b7f4e487b71000000000000000000000000000000000000000000000000000000005f52602160045260245ffd5b60048110610bb157610bb0610b73565b5b50565b5f819050610bc182610ba0565b919050565b5f610bd082610bb4565b9050919050565b610be081610bc6565b82525050565b5f60c082019050610bf95f830189610b04565b610c066020830188610b04565b8181036040830152610c188187610b3b565b9050610c276060830186610adc565b610c346080830185610adc565b610c4160a0830184610bd7565b979650505050505050565b7f4f6e6c7920696d706f727465722063616e206d61726b20736869706d656e74005f82015250565b5f610c80601f83610b1d565b9150610c8b82610c4c565b602082019050919050565b5f6020820190508181035f830152610cad81610c74565b9050919050565b7f41677265656d656e74206e6f7420696e20636f727265637420737461746520745f8201527f6f206d61726b20736869706d656e740000000000000000000000000000000000602082015250565b5f610d0e602f83610b1d565b9150610d1982610cb4565b604082019050919050565b5f6020820190508181035f830152610d3b81610d02565b9050919050565b7f5061796d656e742072656c656173652064617465206e6f7420726561636865645f8201527f2079657400000000000000000000000000000000000000000000000000000000602082015250565b5f610d9c602483610b1d565b9150610da782610d42565b604082019050919050565b5f6020820190508181035f830152610dc981610d90565b9050919050565b7f536869706d656e74206e6f7420796574206d61726b65640000000000000000005f82015250565b5f610e04601783610b1d565b9150610e0f82610dd0565b602082019050919050565b5f6020820190508181035f830152610e3181610df8565b9050919050565b7f496e73756666696369656e7420636f6e74726163742062616c616e63650000005f82015250565b5f610e6c601d83610b1d565b9150610e7782610e38565b602082019050919050565b5f6020820190508181035f830152610e9981610e60565b9050919050565b5f81905092915050565b50565b5f610eb85f83610ea0565b9150610ec382610eaa565b5f82019050919050565b5f610ed782610ead565b9150819050919050565b7f5061796d656e74207472616e73666572206661696c65640000000000000000005f82015250565b5f610f15601783610b1d565b9150610f2082610ee1565b602082019050919050565b5f6020820190508181035f830152610f4281610f09565b9050919050565b7f496e636f7272656374206465706f73697420616d6f756e7400000000000000005f82015250565b5f610f7d601883610b1d565b9150610f8882610f49565b602082019050919050565b5f6020820190508181035f830152610faa81610f71565b9050919050565b7f4e487b71000000000000000000000000000000000000000000000000000000005f52601160045260245ffd5b5f610fe882610868565b91507fffffffffffffffffffffffffffffffffffffffffffffffffffffffffffffffff820361101a57611019610fb1565b5b600182019050919050565b5f61102f82610868565b915061103a83610868565b925082820190508082111561105257611051610fb1565b5b92915050565b7f4e487b71000000000000000000000000000000000000000000000000000000005f52602260045260245ffd5b5f600282049050600182168061109c57607f821691505b6020821081036110af576110ae611058565b5b50919050565b5f819050815f5260205f209050919050565b5f6020601f8301049050919050565b5f82821b905092915050565b5f600883026111117fffffffffffffffffffffffffffffffffffffffffffffffffffffffffffffffff826110d6565b61111b86836110d6565b95508019841693508086168417925050509392505050565b5f819050919050565b5f61115661115161114c84610868565b611133565b610868565b9050919050565b5f819050919050565b61116f8361113c565b61118361117b8261115d565b8484546110e2565b825550505050565b5f90565b61119761118b565b6111a2818484611166565b505050565b5b818110156111c5576111ba5f8261118f565b6001810190506111a8565b5050565b601f82111561120a576111db816110b5565b6111e4846110c7565b810160208510156111f3578190505b6112076111ff856110c7565b8301826111a7565b50505b505050565b5f82821c905092915050565b5f61122a5f198460080261120f565b1980831691505092915050565b5f611242838361121b565b9150826002028217905092915050565b61125b82610b13565b67ffffffffffffffff81111561127457611273610938565b5b61127e8254611085565b6112898282856111c9565b5f60209050601f8311600181146112ba575f84156112a8578287015190505b6112b28582611237565b865550611319565b601f1984166112c8866110b5565b5f5b828110156112ef578489015182556001820191506020850194506020810190506112ca565b8683101561130c5784890151611308601f89168261121b565b8355505b6001600288020188555050505b505050505050565b5f61132b82610868565b915061133683610868565b925082820261134481610868565b9150828204841483151761135b5761135a610fb1565b5b509291505056fea26469706673582212203be5a47c7c75ceca22c8ba1e70fb9c8d6a73c9a869135da0df82faac40dfc65b64736f6c63430008190033",
					"opcodes": "PUSH1 0x80 PUSH1 0x40 MSTORE CALLVALUE DUP1 ISZERO PUSH1 0xE JUMPI PUSH0 DUP1 REVERT JUMPDEST POP PUSH2 0x1398 DUP1 PUSH2 0x1C PUSH0 CODECOPY PUSH0 RETURN INVALID PUSH1 0x80 PUSH1 0x40 MSTORE PUSH1 0x4 CALLDATASIZE LT PUSH2 0x49 JUMPI PUSH0 CALLDATALOAD PUSH1 0xE0 SHR DUP1 PUSH4 0x836A8ED0 EQ PUSH2 0x4D JUMPI DUP1 PUSH4 0x88685CD9 EQ PUSH2 0x75 JUMPI DUP1 PUSH4 0x8C990F51 EQ PUSH2 0x9D JUMPI DUP1 PUSH4 0xBB7BB278 EQ PUSH2 0xB9 JUMPI DUP1 PUSH4 0xBD14DE96 EQ PUSH2 0xE3 JUMPI JUMPDEST PUSH0 DUP1 REVERT JUMPDEST CALLVALUE DUP1 ISZERO PUSH2 0x58 JUMPI PUSH0 DUP1 REVERT JUMPDEST POP PUSH2 0x73 PUSH1 0x4 DUP1 CALLDATASIZE SUB DUP2 ADD SWAP1 PUSH2 0x6E SWAP2 SWAP1 PUSH2 0x89B JUMP JUMPDEST PUSH2 0x124 JUMP JUMPDEST STOP JUMPDEST CALLVALUE DUP1 ISZERO PUSH2 0x80 JUMPI PUSH0 DUP1 REVERT JUMPDEST POP PUSH2 0x9B PUSH1 0x4 DUP1 CALLDATASIZE SUB DUP2 ADD SWAP1 PUSH2 0x96 SWAP2 SWAP1 PUSH2 0x89B JUMP JUMPDEST PUSH2 0x2A4 JUMP JUMPDEST STOP JUMPDEST PUSH2 0xB7 PUSH1 0x4 DUP1 CALLDATASIZE SUB DUP2 ADD SWAP1 PUSH2 0xB2 SWAP2 SWAP1 PUSH2 0xA5C JUMP JUMPDEST PUSH2 0x4F3 JUMP JUMPDEST STOP JUMPDEST CALLVALUE DUP1 ISZERO PUSH2 0xC4 JUMPI PUSH0 DUP1 REVERT JUMPDEST POP PUSH2 0xCD PUSH2 0x733 JUMP JUMPDEST PUSH1 0x40 MLOAD PUSH2 0xDA SWAP2 SWAP1 PUSH2 0xAEB JUMP JUMPDEST PUSH1 0x40 MLOAD DUP1 SWAP2 SUB SWAP1 RETURN JUMPDEST CALLVALUE DUP1 ISZERO PUSH2 0xEE JUMPI PUSH0 DUP1 REVERT JUMPDEST POP PUSH2 0x109 PUSH1 0x4 DUP1 CALLDATASIZE SUB DUP2 ADD SWAP1 PUSH2 0x104 SWAP2 SWAP1 PUSH2 0x89B JUMP JUMPDEST PUSH2 0x739 JUMP JUMPDEST PUSH1 0x40 MLOAD PUSH2 0x11B SWAP7 SWAP6 SWAP5 SWAP4 SWAP3 SWAP2 SWAP1 PUSH2 0xBE6 JUMP JUMPDEST PUSH1 0x40 MLOAD DUP1 SWAP2 SUB SWAP1 RETURN JUMPDEST PUSH0 DUP1 PUSH0 DUP4 DUP2 MSTORE PUSH1 0x20 ADD SWAP1 DUP2 MSTORE PUSH1 0x20 ADD PUSH0 KECCAK256 SWAP1 POP CALLER PUSH20 0xFFFFFFFFFFFFFFFFFFFFFFFFFFFFFFFFFFFFFFFF AND DUP2 PUSH0 ADD PUSH0 SWAP1 SLOAD SWAP1 PUSH2 0x100 EXP SWAP1 DIV PUSH20 0xFFFFFFFFFFFFFFFFFFFFFFFFFFFFFFFFFFFFFFFF AND PUSH20 0xFFFFFFFFFFFFFFFFFFFFFFFFFFFFFFFFFFFFFFFF AND EQ PUSH2 0x1C7 JUMPI PUSH1 0x40 MLOAD PUSH32 0x8C379A000000000000000000000000000000000000000000000000000000000 DUP2 MSTORE PUSH1 0x4 ADD PUSH2 0x1BE SWAP1 PUSH2 0xC96 JUMP JUMPDEST PUSH1 0x40 MLOAD DUP1 SWAP2 SUB SWAP1 REVERT JUMPDEST PUSH0 PUSH1 0x3 DUP2 GT ISZERO PUSH2 0x1DA JUMPI PUSH2 0x1D9 PUSH2 0xB73 JUMP JUMPDEST JUMPDEST DUP2 PUSH1 0x5 ADD PUSH0 SWAP1 SLOAD SWAP1 PUSH2 0x100 EXP SWAP1 DIV PUSH1 0xFF AND PUSH1 0x3 DUP2 GT ISZERO PUSH2 0x1FD JUMPI PUSH2 0x1FC PUSH2 0xB73 JUMP JUMPDEST JUMPDEST EQ PUSH2 0x23D JUMPI PUSH1 0x40 MLOAD PUSH32 0x8C379A000000000000000000000000000000000000000000000000000000000 DUP2 MSTORE PUSH1 0x4 ADD PUSH2 0x234 SWAP1 PUSH2 0xD24 JUMP JUMPDEST PUSH1 0x40 MLOAD DUP1 SWAP2 SUB SWAP1 REVERT JUMPDEST PUSH1 0x1 DUP2 PUSH1 0x5 ADD PUSH0 PUSH2 0x100 EXP DUP2 SLOAD DUP2 PUSH1 0xFF MUL NOT AND SWAP1 DUP4 PUSH1 0x3 DUP2 GT ISZERO PUSH2 0x264 JUMPI PUSH2 0x263 PUSH2 0xB73 JUMP JUMPDEST JUMPDEST MUL OR SWAP1 SSTORE POP PUSH32 0x389F16C4810D66B04486EB4E6C741CAC88531524F402FFC0FAE20D950D179641 DUP3 PUSH1 0x40 MLOAD PUSH2 0x298 SWAP2 SWAP1 PUSH2 0xAEB JUMP JUMPDEST PUSH1 0x40 MLOAD DUP1 SWAP2 SUB SWAP1 LOG1 POP POP JUMP JUMPDEST PUSH0 DUP1 PUSH0 DUP4 DUP2 MSTORE PUSH1 0x20 ADD SWAP1 DUP2 MSTORE PUSH1 0x20 ADD PUSH0 KECCAK256 SWAP1 POP DUP1 PUSH1 0x4 ADD SLOAD TIMESTAMP LT ISZERO PUSH2 0x2FE JUMPI PUSH1 0x40 MLOAD PUSH32 0x8C379A000000000000000000000000000000000000000000000000000000000 DUP2 MSTORE PUSH1 0x4 ADD PUSH2 0x2F5 SWAP1 PUSH2 0xDB2 JUMP JUMPDEST PUSH1 0x40 MLOAD DUP1 SWAP2 SUB SWAP1 REVERT JUMPDEST PUSH1 0x1 PUSH1 0x3 DUP2 GT ISZERO PUSH2 0x312 JUMPI PUSH2 0x311 PUSH2 0xB73 JUMP JUMPDEST JUMPDEST DUP2 PUSH1 0x5 ADD PUSH0 SWAP1 SLOAD SWAP1 PUSH2 0x100 EXP SWAP1 DIV PUSH1 0xFF AND PUSH1 0x3 DUP2 GT ISZERO PUSH2 0x335 JUMPI PUSH2 0x334 PUSH2 0xB73 JUMP JUMPDEST JUMPDEST EQ PUSH2 0x375 JUMPI PUSH1 0x40 MLOAD PUSH32 0x8C379A000000000000000000000000000000000000000000000000000000000 DUP2 MSTORE PUSH1 0x4 ADD PUSH2 0x36C SWAP1 PUSH2 0xE1A JUMP JUMPDEST PUSH1 0x40 MLOAD DUP1 SWAP2 SUB SWAP1 REVERT JUMPDEST DUP1 PUSH1 0x3 ADD SLOAD SELFBALANCE LT ISZERO PUSH2 0x3BC JUMPI PUSH1 0x40 MLOAD PUSH32 0x8C379A000000000000000000000000000000000000000000000000000000000 DUP2 MSTORE PUSH1 0x4 ADD PUSH2 0x3B3 SWAP1 PUSH2 0xE82 JUMP JUMPDEST PUSH1 0x40 MLOAD DUP1 SWAP2 SUB SWAP1 REVERT JUMPDEST PUSH0 DUP2 PUSH1 0x1 ADD PUSH0 SWAP1 SLOAD SWAP1 PUSH2 0x100 EXP SWAP1 DIV PUSH20 0xFFFFFFFFFFFFFFFFFFFFFFFFFFFFFFFFFFFFFFFF AND PUSH20 0xFFFFFFFFFFFFFFFFFFFFFFFFFFFFFFFFFFFFFFFF AND DUP3 PUSH1 0x3 ADD SLOAD PUSH1 0x40 MLOAD PUSH2 0x408 SWAP1 PUSH2 0xECD JUMP JUMPDEST PUSH0 PUSH1 0x40 MLOAD DUP1 DUP4 SUB DUP2 DUP6 DUP8 GAS CALL SWAP3 POP POP POP RETURNDATASIZE DUP1 PUSH0 DUP2 EQ PUSH2 0x442 JUMPI PUSH1 0x40 MLOAD SWAP2 POP PUSH1 0x1F NOT PUSH1 0x3F RETURNDATASIZE ADD AND DUP3 ADD PUSH1 0x40 MSTORE RETURNDATASIZE DUP3 MSTORE RETURNDATASIZE PUSH0 PUSH1 0x20 DUP5 ADD RETURNDATACOPY PUSH2 0x447 JUMP JUMPDEST PUSH1 0x60 SWAP2 POP JUMPDEST POP POP SWAP1 POP DUP1 PUSH2 0x48B JUMPI PUSH1 0x40 MLOAD PUSH32 0x8C379A000000000000000000000000000000000000000000000000000000000 DUP2 MSTORE PUSH1 0x4 ADD PUSH2 0x482 SWAP1 PUSH2 0xF2B JUMP JUMPDEST PUSH1 0x40 MLOAD DUP1 SWAP2 SUB SWAP1 REVERT JUMPDEST PUSH1 0x2 DUP3 PUSH1 0x5 ADD PUSH0 PUSH2 0x100 EXP DUP2 SLOAD DUP2 PUSH1 0xFF MUL NOT AND SWAP1 DUP4 PUSH1 0x3 DUP2 GT ISZERO PUSH2 0x4B2 JUMPI PUSH2 0x4B1 PUSH2 0xB73 JUMP JUMPDEST JUMPDEST MUL OR SWAP1 SSTORE POP PUSH32 0x60F91A26281F20FB528663F4DA55773C83E2EE8A7A5DDDB6D1753749E81DC49B DUP4 PUSH1 0x40 MLOAD PUSH2 0x4E6 SWAP2 SWAP1 PUSH2 0xAEB JUMP JUMPDEST PUSH1 0x40 MLOAD DUP1 SWAP2 SUB SWAP1 LOG1 POP POP POP JUMP JUMPDEST DUP2 CALLVALUE EQ PUSH2 0x535 JUMPI PUSH1 0x40 MLOAD PUSH32 0x8C379A000000000000000000000000000000000000000000000000000000000 DUP2 MSTORE PUSH1 0x4 ADD PUSH2 0x52C SWAP1 PUSH2 0xF93 JUMP JUMPDEST PUSH1 0x40 MLOAD DUP1 SWAP2 SUB SWAP1 REVERT JUMPDEST PUSH0 CALLER SWAP1 POP PUSH0 PUSH1 0x1 PUSH0 DUP2 SLOAD DUP1 SWAP3 SWAP2 SWAP1 PUSH2 0x54C SWAP1 PUSH2 0xFDE JUMP JUMPDEST SWAP2 SWAP1 POP SSTORE SWAP1 POP PUSH1 0x40 MLOAD DUP1 PUSH1 0xC0 ADD PUSH1 0x40 MSTORE DUP1 DUP4 PUSH20 0xFFFFFFFFFFFFFFFFFFFFFFFFFFFFFFFFFFFFFFFF AND DUP2 MSTORE PUSH1 0x20 ADD DUP8 PUSH20 0xFFFFFFFFFFFFFFFFFFFFFFFFFFFFFFFFFFFFFFFF AND DUP2 MSTORE PUSH1 0x20 ADD DUP7 DUP2 MSTORE PUSH1 0x20 ADD DUP6 DUP2 MSTORE PUSH1 0x20 ADD PUSH2 0x5AA DUP6 PUSH2 0x840 JUMP JUMPDEST TIMESTAMP PUSH2 0x5B5 SWAP2 SWAP1 PUSH2 0x1025 JUMP JUMPDEST DUP2 MSTORE PUSH1 0x20 ADD PUSH0 PUSH1 0x3 DUP2 GT ISZERO PUSH2 0x5CD JUMPI PUSH2 0x5CC PUSH2 0xB73 JUMP JUMPDEST JUMPDEST DUP2 MSTORE POP PUSH0 DUP1 DUP4 DUP2 MSTORE PUSH1 0x20 ADD SWAP1 DUP2 MSTORE PUSH1 0x20 ADD PUSH0 KECCAK256 PUSH0 DUP3 ADD MLOAD DUP2 PUSH0 ADD PUSH0 PUSH2 0x100 EXP DUP2 SLOAD DUP2 PUSH20 0xFFFFFFFFFFFFFFFFFFFFFFFFFFFFFFFFFFFFFFFF MUL NOT AND SWAP1 DUP4 PUSH20 0xFFFFFFFFFFFFFFFFFFFFFFFFFFFFFFFFFFFFFFFF AND MUL OR SWAP1 SSTORE POP PUSH1 0x20 DUP3 ADD MLOAD DUP2 PUSH1 0x1 ADD PUSH0 PUSH2 0x100 EXP DUP2 SLOAD DUP2 PUSH20 0xFFFFFFFFFFFFFFFFFFFFFFFFFFFFFFFFFFFFFFFF MUL NOT AND SWAP1 DUP4 PUSH20 0xFFFFFFFFFFFFFFFFFFFFFFFFFFFFFFFFFFFFFFFF AND MUL OR SWAP1 SSTORE POP PUSH1 0x40 DUP3 ADD MLOAD DUP2 PUSH1 0x2 ADD SWAP1 DUP2 PUSH2 0x67F SWAP2 SWAP1 PUSH2 0x1252 JUMP JUMPDEST POP PUSH1 0x60 DUP3 ADD MLOAD DUP2 PUSH1 0x3 ADD SSTORE PUSH1 0x80 DUP3 ADD MLOAD DUP2 PUSH1 0x4 ADD SSTORE PUSH1 0xA0 DUP3 ADD MLOAD DUP2 PUSH1 0x5 ADD PUSH0 PUSH2 0x100 EXP DUP2 SLOAD DUP2 PUSH1 0xFF MUL NOT AND SWAP1 DUP4 PUSH1 0x3 DUP2 GT ISZERO PUSH2 0x6BE JUMPI PUSH2 0x6BD PUSH2 0xB73 JUMP JUMPDEST JUMPDEST MUL OR SWAP1 SSTORE POP SWAP1 POP POP DUP6 PUSH20 0xFFFFFFFFFFFFFFFFFFFFFFFFFFFFFFFFFFFFFFFF AND DUP3 PUSH20 0xFFFFFFFFFFFFFFFFFFFFFFFFFFFFFFFFFFFFFFFF AND PUSH32 0xE037EC30313EECDD927FFAE3BEED86A87B82F7BB794966EC08D75CF1A6E82686 DUP4 PUSH1 0x40 MLOAD PUSH2 0x723 SWAP2 SWAP1 PUSH2 0xAEB JUMP JUMPDEST PUSH1 0x40 MLOAD DUP1 SWAP2 SUB SWAP1 LOG3 POP POP POP POP POP POP JUMP JUMPDEST PUSH1 0x1 SLOAD DUP2 JUMP JUMPDEST PUSH0 PUSH1 0x20 MSTORE DUP1 PUSH0 MSTORE PUSH1 0x40 PUSH0 KECCAK256 PUSH0 SWAP2 POP SWAP1 POP DUP1 PUSH0 ADD PUSH0 SWAP1 SLOAD SWAP1 PUSH2 0x100 EXP SWAP1 DIV PUSH20 0xFFFFFFFFFFFFFFFFFFFFFFFFFFFFFFFFFFFFFFFF AND SWAP1 DUP1 PUSH1 0x1 ADD PUSH0 SWAP1 SLOAD SWAP1 PUSH2 0x100 EXP SWAP1 DIV PUSH20 0xFFFFFFFFFFFFFFFFFFFFFFFFFFFFFFFFFFFFFFFF AND SWAP1 DUP1 PUSH1 0x2 ADD DUP1 SLOAD PUSH2 0x7A1 SWAP1 PUSH2 0x1085 JUMP JUMPDEST DUP1 PUSH1 0x1F ADD PUSH1 0x20 DUP1 SWAP2 DIV MUL PUSH1 0x20 ADD PUSH1 0x40 MLOAD SWAP1 DUP2 ADD PUSH1 0x40 MSTORE DUP1 SWAP3 SWAP2 SWAP1 DUP2 DUP2 MSTORE PUSH1 0x20 ADD DUP3 DUP1 SLOAD PUSH2 0x7CD SWAP1 PUSH2 0x1085 JUMP JUMPDEST DUP1 ISZERO PUSH2 0x818 JUMPI DUP1 PUSH1 0x1F LT PUSH2 0x7EF JUMPI PUSH2 0x100 DUP1 DUP4 SLOAD DIV MUL DUP4 MSTORE SWAP2 PUSH1 0x20 ADD SWAP2 PUSH2 0x818 JUMP JUMPDEST DUP3 ADD SWAP2 SWAP1 PUSH0 MSTORE PUSH1 0x20 PUSH0 KECCAK256 SWAP1 JUMPDEST DUP2 SLOAD DUP2 MSTORE SWAP1 PUSH1 0x1 ADD SWAP1 PUSH1 0x20 ADD DUP1 DUP4 GT PUSH2 0x7FB JUMPI DUP3 SWAP1 SUB PUSH1 0x1F AND DUP3 ADD SWAP2 JUMPDEST POP POP POP POP POP SWAP1 DUP1 PUSH1 0x3 ADD SLOAD SWAP1 DUP1 PUSH1 0x4 ADD SLOAD SWAP1 DUP1 PUSH1 0x5 ADD PUSH0 SWAP1 SLOAD SWAP1 PUSH2 0x100 EXP SWAP1 DIV PUSH1 0xFF AND SWAP1 POP DUP7 JUMP JUMPDEST PUSH0 PUSH3 0x15180 DUP3 PUSH2 0x850 SWAP2 SWAP1 PUSH2 0x1321 JUMP JUMPDEST SWAP1 POP SWAP2 SWAP1 POP JUMP JUMPDEST PUSH0 PUSH1 0x40 MLOAD SWAP1 POP SWAP1 JUMP JUMPDEST PUSH0 DUP1 REVERT JUMPDEST PUSH0 DUP1 REVERT JUMPDEST PUSH0 DUP2 SWAP1 POP SWAP2 SWAP1 POP JUMP JUMPDEST PUSH2 0x87A DUP2 PUSH2 0x868 JUMP JUMPDEST DUP2 EQ PUSH2 0x884 JUMPI PUSH0 DUP1 REVERT JUMPDEST POP JUMP JUMPDEST PUSH0 DUP2 CALLDATALOAD SWAP1 POP PUSH2 0x895 DUP2 PUSH2 0x871 JUMP JUMPDEST SWAP3 SWAP2 POP POP JUMP JUMPDEST PUSH0 PUSH1 0x20 DUP3 DUP5 SUB SLT ISZERO PUSH2 0x8B0 JUMPI PUSH2 0x8AF PUSH2 0x860 JUMP JUMPDEST JUMPDEST PUSH0 PUSH2 0x8BD DUP5 DUP3 DUP6 ADD PUSH2 0x887 JUMP JUMPDEST SWAP2 POP POP SWAP3 SWAP2 POP POP JUMP JUMPDEST PUSH0 PUSH20 0xFFFFFFFFFFFFFFFFFFFFFFFFFFFFFFFFFFFFFFFF DUP3 AND SWAP1 POP SWAP2 SWAP1 POP JUMP JUMPDEST PUSH0 PUSH2 0x8EF DUP3 PUSH2 0x8C6 JUMP JUMPDEST SWAP1 POP SWAP2 SWAP1 POP JUMP JUMPDEST PUSH2 0x8FF DUP2 PUSH2 0x8E5 JUMP JUMPDEST DUP2 EQ PUSH2 0x909 JUMPI PUSH0 DUP1 REVERT JUMPDEST POP JUMP JUMPDEST PUSH0 DUP2 CALLDATALOAD SWAP1 POP PUSH2 0x91A DUP2 PUSH2 0x8F6 JUMP JUMPDEST SWAP3 SWAP2 POP POP JUMP JUMPDEST PUSH0 DUP1 REVERT JUMPDEST PUSH0 DUP1 REVERT JUMPDEST PUSH0 PUSH1 0x1F NOT PUSH1 0x1F DUP4 ADD AND SWAP1 POP SWAP2 SWAP1 POP JUMP JUMPDEST PUSH32 0x4E487B7100000000000000000000000000000000000000000000000000000000 PUSH0 MSTORE PUSH1 0x41 PUSH1 0x4 MSTORE PUSH1 0x24 PUSH0 REVERT JUMPDEST PUSH2 0x96E DUP3 PUSH2 0x928 JUMP JUMPDEST DUP2 ADD DUP2 DUP2 LT PUSH8 0xFFFFFFFFFFFFFFFF DUP3 GT OR ISZERO PUSH2 0x98D JUMPI PUSH2 0x98C PUSH2 0x938 JUMP JUMPDEST JUMPDEST DUP1 PUSH1 0x40 MSTORE POP POP POP JUMP JUMPDEST PUSH0 PUSH2 0x99F PUSH2 0x857 JUMP JUMPDEST SWAP1 POP PUSH2 0x9AB DUP3 DUP3 PUSH2 0x965 JUMP JUMPDEST SWAP2 SWAP1 POP JUMP JUMPDEST PUSH0 PUSH8 0xFFFFFFFFFFFFFFFF DUP3 GT ISZERO PUSH2 0x9CA JUMPI PUSH2 0x9C9 PUSH2 0x938 JUMP JUMPDEST JUMPDEST PUSH2 0x9D3 DUP3 PUSH2 0x928 JUMP JUMPDEST SWAP1 POP PUSH1 0x20 DUP2 ADD SWAP1 POP SWAP2 SWAP1 POP JUMP JUMPDEST DUP3 DUP2 DUP4 CALLDATACOPY PUSH0 DUP4 DUP4 ADD MSTORE POP POP POP JUMP JUMPDEST PUSH0 PUSH2 0xA00 PUSH2 0x9FB DUP5 PUSH2 0x9B0 JUMP JUMPDEST PUSH2 0x996 JUMP JUMPDEST SWAP1 POP DUP3 DUP2 MSTORE PUSH1 0x20 DUP2 ADD DUP5 DUP5 DUP5 ADD GT ISZERO PUSH2 0xA1C JUMPI PUSH2 0xA1B PUSH2 0x924 JUMP JUMPDEST JUMPDEST PUSH2 0xA27 DUP5 DUP3 DUP6 PUSH2 0x9E0 JUMP JUMPDEST POP SWAP4 SWAP3 POP POP POP JUMP JUMPDEST PUSH0 DUP3 PUSH1 0x1F DUP4 ADD SLT PUSH2 0xA43 JUMPI PUSH2 0xA42 PUSH2 0x920 JUMP JUMPDEST JUMPDEST DUP2 CALLDATALOAD PUSH2 0xA53 DUP5 DUP3 PUSH1 0x20 DUP7 ADD PUSH2 0x9EE JUMP JUMPDEST SWAP2 POP POP SWAP3 SWAP2 POP POP JUMP JUMPDEST PUSH0 DUP1 PUSH0 DUP1 PUSH1 0x80 DUP6 DUP8 SUB SLT ISZERO PUSH2 0xA74 JUMPI PUSH2 0xA73 PUSH2 0x860 JUMP JUMPDEST JUMPDEST PUSH0 PUSH2 0xA81 DUP8 DUP3 DUP9 ADD PUSH2 0x90C JUMP JUMPDEST SWAP5 POP POP PUSH1 0x20 DUP6 ADD CALLDATALOAD PUSH8 0xFFFFFFFFFFFFFFFF DUP2 GT ISZERO PUSH2 0xAA2 JUMPI PUSH2 0xAA1 PUSH2 0x864 JUMP JUMPDEST JUMPDEST PUSH2 0xAAE DUP8 DUP3 DUP9 ADD PUSH2 0xA2F JUMP JUMPDEST SWAP4 POP POP PUSH1 0x40 PUSH2 0xABF DUP8 DUP3 DUP9 ADD PUSH2 0x887 JUMP JUMPDEST SWAP3 POP POP PUSH1 0x60 PUSH2 0xAD0 DUP8 DUP3 DUP9 ADD PUSH2 0x887 JUMP JUMPDEST SWAP2 POP POP SWAP3 SWAP6 SWAP2 SWAP5 POP SWAP3 POP JUMP JUMPDEST PUSH2 0xAE5 DUP2 PUSH2 0x868 JUMP JUMPDEST DUP3 MSTORE POP POP JUMP JUMPDEST PUSH0 PUSH1 0x20 DUP3 ADD SWAP1 POP PUSH2 0xAFE PUSH0 DUP4 ADD DUP5 PUSH2 0xADC JUMP JUMPDEST SWAP3 SWAP2 POP POP JUMP JUMPDEST PUSH2 0xB0D DUP2 PUSH2 0x8E5 JUMP JUMPDEST DUP3 MSTORE POP POP JUMP JUMPDEST PUSH0 DUP2 MLOAD SWAP1 POP SWAP2 SWAP1 POP JUMP JUMPDEST PUSH0 DUP3 DUP3 MSTORE PUSH1 0x20 DUP3 ADD SWAP1 POP SWAP3 SWAP2 POP POP JUMP JUMPDEST DUP3 DUP2 DUP4 MCOPY PUSH0 DUP4 DUP4 ADD MSTORE POP POP POP JUMP JUMPDEST PUSH0 PUSH2 0xB45 DUP3 PUSH2 0xB13 JUMP JUMPDEST PUSH2 0xB4F DUP2 DUP6 PUSH2 0xB1D JUMP JUMPDEST SWAP4 POP PUSH2 0xB5F DUP2 DUP6 PUSH1 0x20 DUP7 ADD PUSH2 0xB2D JUMP JUMPDEST PUSH2 0xB68 DUP2 PUSH2 0x928 JUMP JUMPDEST DUP5 ADD SWAP2 POP POP SWAP3 SWAP2 POP POP JUMP JUMPDEST PUSH32 0x4E487B7100000000000000000000000000000000000000000000000000000000 PUSH0 MSTORE PUSH1 0x21 PUSH1 0x4 MSTORE PUSH1 0x24 PUSH0 REVERT JUMPDEST PUSH1 0x4 DUP2 LT PUSH2 0xBB1 JUMPI PUSH2 0xBB0 PUSH2 0xB73 JUMP JUMPDEST JUMPDEST POP JUMP JUMPDEST PUSH0 DUP2 SWAP1 POP PUSH2 0xBC1 DUP3 PUSH2 0xBA0 JUMP JUMPDEST SWAP2 SWAP1 POP JUMP JUMPDEST PUSH0 PUSH2 0xBD0 DUP3 PUSH2 0xBB4 JUMP JUMPDEST SWAP1 POP SWAP2 SWAP1 POP JUMP JUMPDEST PUSH2 0xBE0 DUP2 PUSH2 0xBC6 JUMP JUMPDEST DUP3 MSTORE POP POP JUMP JUMPDEST PUSH0 PUSH1 0xC0 DUP3 ADD SWAP1 POP PUSH2 0xBF9 PUSH0 DUP4 ADD DUP10 PUSH2 0xB04 JUMP JUMPDEST PUSH2 0xC06 PUSH1 0x20 DUP4 ADD DUP9 PUSH2 0xB04 JUMP JUMPDEST DUP2 DUP2 SUB PUSH1 0x40 DUP4 ADD MSTORE PUSH2 0xC18 DUP2 DUP8 PUSH2 0xB3B JUMP JUMPDEST SWAP1 POP PUSH2 0xC27 PUSH1 0x60 DUP4 ADD DUP7 PUSH2 0xADC JUMP JUMPDEST PUSH2 0xC34 PUSH1 0x80 DUP4 ADD DUP6 PUSH2 0xADC JUMP JUMPDEST PUSH2 0xC41 PUSH1 0xA0 DUP4 ADD DUP5 PUSH2 0xBD7 JUMP JUMPDEST SWAP8 SWAP7 POP POP POP POP POP POP POP JUMP JUMPDEST PUSH32 0x4F6E6C7920696D706F727465722063616E206D61726B20736869706D656E7400 PUSH0 DUP3 ADD MSTORE POP JUMP JUMPDEST PUSH0 PUSH2 0xC80 PUSH1 0x1F DUP4 PUSH2 0xB1D JUMP JUMPDEST SWAP2 POP PUSH2 0xC8B DUP3 PUSH2 0xC4C JUMP JUMPDEST PUSH1 0x20 DUP3 ADD SWAP1 POP SWAP2 SWAP1 POP JUMP JUMPDEST PUSH0 PUSH1 0x20 DUP3 ADD SWAP1 POP DUP2 DUP2 SUB PUSH0 DUP4 ADD MSTORE PUSH2 0xCAD DUP2 PUSH2 0xC74 JUMP JUMPDEST SWAP1 POP SWAP2 SWAP1 POP JUMP JUMPDEST PUSH32 0x41677265656D656E74206E6F7420696E20636F72726563742073746174652074 PUSH0 DUP3 ADD MSTORE PUSH32 0x6F206D61726B20736869706D656E740000000000000000000000000000000000 PUSH1 0x20 DUP3 ADD MSTORE POP JUMP JUMPDEST PUSH0 PUSH2 0xD0E PUSH1 0x2F DUP4 PUSH2 0xB1D JUMP JUMPDEST SWAP2 POP PUSH2 0xD19 DUP3 PUSH2 0xCB4 JUMP JUMPDEST PUSH1 0x40 DUP3 ADD SWAP1 POP SWAP2 SWAP1 POP JUMP JUMPDEST PUSH0 PUSH1 0x20 DUP3 ADD SWAP1 POP DUP2 DUP2 SUB PUSH0 DUP4 ADD MSTORE PUSH2 0xD3B DUP2 PUSH2 0xD02 JUMP JUMPDEST SWAP1 POP SWAP2 SWAP1 POP JUMP JUMPDEST PUSH32 0x5061796D656E742072656C656173652064617465206E6F742072656163686564 PUSH0 DUP3 ADD MSTORE PUSH32 0x2079657400000000000000000000000000000000000000000000000000000000 PUSH1 0x20 DUP3 ADD MSTORE POP JUMP JUMPDEST PUSH0 PUSH2 0xD9C PUSH1 0x24 DUP4 PUSH2 0xB1D JUMP JUMPDEST SWAP2 POP PUSH2 0xDA7 DUP3 PUSH2 0xD42 JUMP JUMPDEST PUSH1 0x40 DUP3 ADD SWAP1 POP SWAP2 SWAP1 POP JUMP JUMPDEST PUSH0 PUSH1 0x20 DUP3 ADD SWAP1 POP DUP2 DUP2 SUB PUSH0 DUP4 ADD MSTORE PUSH2 0xDC9 DUP2 PUSH2 0xD90 JUMP JUMPDEST SWAP1 POP SWAP2 SWAP1 POP JUMP JUMPDEST PUSH32 0x536869706D656E74206E6F7420796574206D61726B6564000000000000000000 PUSH0 DUP3 ADD MSTORE POP JUMP JUMPDEST PUSH0 PUSH2 0xE04 PUSH1 0x17 DUP4 PUSH2 0xB1D JUMP JUMPDEST SWAP2 POP PUSH2 0xE0F DUP3 PUSH2 0xDD0 JUMP JUMPDEST PUSH1 0x20 DUP3 ADD SWAP1 POP SWAP2 SWAP1 POP JUMP JUMPDEST PUSH0 PUSH1 0x20 DUP3 ADD SWAP1 POP DUP2 DUP2 SUB PUSH0 DUP4 ADD MSTORE PUSH2 0xE31 DUP2 PUSH2 0xDF8 JUMP JUMPDEST SWAP1 POP SWAP2 SWAP1 POP JUMP JUMPDEST PUSH32 0x496E73756666696369656E7420636F6E74726163742062616C616E6365000000 PUSH0 DUP3 ADD MSTORE POP JUMP JUMPDEST PUSH0 PUSH2 0xE6C PUSH1 0x1D DUP4 PUSH2 0xB1D JUMP JUMPDEST SWAP2 POP PUSH2 0xE77 DUP3 PUSH2 0xE38 JUMP JUMPDEST PUSH1 0x20 DUP3 ADD SWAP1 POP SWAP2 SWAP1 POP JUMP JUMPDEST PUSH0 PUSH1 0x20 DUP3 ADD SWAP1 POP DUP2 DUP2 SUB PUSH0 DUP4 ADD MSTORE PUSH2 0xE99 DUP2 PUSH2 0xE60 JUMP JUMPDEST SWAP1 POP SWAP2 SWAP1 POP JUMP JUMPDEST PUSH0 DUP2 SWAP1 POP SWAP3 SWAP2 POP POP JUMP JUMPDEST POP JUMP JUMPDEST PUSH0 PUSH2 0xEB8 PUSH0 DUP4 PUSH2 0xEA0 JUMP JUMPDEST SWAP2 POP PUSH2 0xEC3 DUP3 PUSH2 0xEAA JUMP JUMPDEST PUSH0 DUP3 ADD SWAP1 POP SWAP2 SWAP1 POP JUMP JUMPDEST PUSH0 PUSH2 0xED7 DUP3 PUSH2 0xEAD JUMP JUMPDEST SWAP2 POP DUP2 SWAP1 POP SWAP2 SWAP1 POP JUMP JUMPDEST PUSH32 0x5061796D656E74207472616E73666572206661696C6564000000000000000000 PUSH0 DUP3 ADD MSTORE POP JUMP JUMPDEST PUSH0 PUSH2 0xF15 PUSH1 0x17 DUP4 PUSH2 0xB1D JUMP JUMPDEST SWAP2 POP PUSH2 0xF20 DUP3 PUSH2 0xEE1 JUMP JUMPDEST PUSH1 0x20 DUP3 ADD SWAP1 POP SWAP2 SWAP1 POP JUMP JUMPDEST PUSH0 PUSH1 0x20 DUP3 ADD SWAP1 POP DUP2 DUP2 SUB PUSH0 DUP4 ADD MSTORE PUSH2 0xF42 DUP2 PUSH2 0xF09 JUMP JUMPDEST SWAP1 POP SWAP2 SWAP1 POP JUMP JUMPDEST PUSH32 0x496E636F7272656374206465706F73697420616D6F756E740000000000000000 PUSH0 DUP3 ADD MSTORE POP JUMP JUMPDEST PUSH0 PUSH2 0xF7D PUSH1 0x18 DUP4 PUSH2 0xB1D JUMP JUMPDEST SWAP2 POP PUSH2 0xF88 DUP3 PUSH2 0xF49 JUMP JUMPDEST PUSH1 0x20 DUP3 ADD SWAP1 POP SWAP2 SWAP1 POP JUMP JUMPDEST PUSH0 PUSH1 0x20 DUP3 ADD SWAP1 POP DUP2 DUP2 SUB PUSH0 DUP4 ADD MSTORE PUSH2 0xFAA DUP2 PUSH2 0xF71 JUMP JUMPDEST SWAP1 POP SWAP2 SWAP1 POP JUMP JUMPDEST PUSH32 0x4E487B7100000000000000000000000000000000000000000000000000000000 PUSH0 MSTORE PUSH1 0x11 PUSH1 0x4 MSTORE PUSH1 0x24 PUSH0 REVERT JUMPDEST PUSH0 PUSH2 0xFE8 DUP3 PUSH2 0x868 JUMP JUMPDEST SWAP2 POP PUSH32 0xFFFFFFFFFFFFFFFFFFFFFFFFFFFFFFFFFFFFFFFFFFFFFFFFFFFFFFFFFFFFFFFF DUP3 SUB PUSH2 0x101A JUMPI PUSH2 0x1019 PUSH2 0xFB1 JUMP JUMPDEST JUMPDEST PUSH1 0x1 DUP3 ADD SWAP1 POP SWAP2 SWAP1 POP JUMP JUMPDEST PUSH0 PUSH2 0x102F DUP3 PUSH2 0x868 JUMP JUMPDEST SWAP2 POP PUSH2 0x103A DUP4 PUSH2 0x868 JUMP JUMPDEST SWAP3 POP DUP3 DUP3 ADD SWAP1 POP DUP1 DUP3 GT ISZERO PUSH2 0x1052 JUMPI PUSH2 0x1051 PUSH2 0xFB1 JUMP JUMPDEST JUMPDEST SWAP3 SWAP2 POP POP JUMP JUMPDEST PUSH32 0x4E487B7100000000000000000000000000000000000000000000000000000000 PUSH0 MSTORE PUSH1 0x22 PUSH1 0x4 MSTORE PUSH1 0x24 PUSH0 REVERT JUMPDEST PUSH0 PUSH1 0x2 DUP3 DIV SWAP1 POP PUSH1 0x1 DUP3 AND DUP1 PUSH2 0x109C JUMPI PUSH1 0x7F DUP3 AND SWAP2 POP JUMPDEST PUSH1 0x20 DUP3 LT DUP2 SUB PUSH2 0x10AF JUMPI PUSH2 0x10AE PUSH2 0x1058 JUMP JUMPDEST JUMPDEST POP SWAP2 SWAP1 POP JUMP JUMPDEST PUSH0 DUP2 SWAP1 POP DUP2 PUSH0 MSTORE PUSH1 0x20 PUSH0 KECCAK256 SWAP1 POP SWAP2 SWAP1 POP JUMP JUMPDEST PUSH0 PUSH1 0x20 PUSH1 0x1F DUP4 ADD DIV SWAP1 POP SWAP2 SWAP1 POP JUMP JUMPDEST PUSH0 DUP3 DUP3 SHL SWAP1 POP SWAP3 SWAP2 POP POP JUMP JUMPDEST PUSH0 PUSH1 0x8 DUP4 MUL PUSH2 0x1111 PUSH32 0xFFFFFFFFFFFFFFFFFFFFFFFFFFFFFFFFFFFFFFFFFFFFFFFFFFFFFFFFFFFFFFFF DUP3 PUSH2 0x10D6 JUMP JUMPDEST PUSH2 0x111B DUP7 DUP4 PUSH2 0x10D6 JUMP JUMPDEST SWAP6 POP DUP1 NOT DUP5 AND SWAP4 POP DUP1 DUP7 AND DUP5 OR SWAP3 POP POP POP SWAP4 SWAP3 POP POP POP JUMP JUMPDEST PUSH0 DUP2 SWAP1 POP SWAP2 SWAP1 POP JUMP JUMPDEST PUSH0 PUSH2 0x1156 PUSH2 0x1151 PUSH2 0x114C DUP5 PUSH2 0x868 JUMP JUMPDEST PUSH2 0x1133 JUMP JUMPDEST PUSH2 0x868 JUMP JUMPDEST SWAP1 POP SWAP2 SWAP1 POP JUMP JUMPDEST PUSH0 DUP2 SWAP1 POP SWAP2 SWAP1 POP JUMP JUMPDEST PUSH2 0x116F DUP4 PUSH2 0x113C JUMP JUMPDEST PUSH2 0x1183 PUSH2 0x117B DUP3 PUSH2 0x115D JUMP JUMPDEST DUP5 DUP5 SLOAD PUSH2 0x10E2 JUMP JUMPDEST DUP3 SSTORE POP POP POP POP JUMP JUMPDEST PUSH0 SWAP1 JUMP JUMPDEST PUSH2 0x1197 PUSH2 0x118B JUMP JUMPDEST PUSH2 0x11A2 DUP2 DUP5 DUP5 PUSH2 0x1166 JUMP JUMPDEST POP POP POP JUMP JUMPDEST JUMPDEST DUP2 DUP2 LT ISZERO PUSH2 0x11C5 JUMPI PUSH2 0x11BA PUSH0 DUP3 PUSH2 0x118F JUMP JUMPDEST PUSH1 0x1 DUP2 ADD SWAP1 POP PUSH2 0x11A8 JUMP JUMPDEST POP POP JUMP JUMPDEST PUSH1 0x1F DUP3 GT ISZERO PUSH2 0x120A JUMPI PUSH2 0x11DB DUP2 PUSH2 0x10B5 JUMP JUMPDEST PUSH2 0x11E4 DUP5 PUSH2 0x10C7 JUMP JUMPDEST DUP2 ADD PUSH1 0x20 DUP6 LT ISZERO PUSH2 0x11F3 JUMPI DUP2 SWAP1 POP JUMPDEST PUSH2 0x1207 PUSH2 0x11FF DUP6 PUSH2 0x10C7 JUMP JUMPDEST DUP4 ADD DUP3 PUSH2 0x11A7 JUMP JUMPDEST POP POP JUMPDEST POP POP POP JUMP JUMPDEST PUSH0 DUP3 DUP3 SHR SWAP1 POP SWAP3 SWAP2 POP POP JUMP JUMPDEST PUSH0 PUSH2 0x122A PUSH0 NOT DUP5 PUSH1 0x8 MUL PUSH2 0x120F JUMP JUMPDEST NOT DUP1 DUP4 AND SWAP2 POP POP SWAP3 SWAP2 POP POP JUMP JUMPDEST PUSH0 PUSH2 0x1242 DUP4 DUP4 PUSH2 0x121B JUMP JUMPDEST SWAP2 POP DUP3 PUSH1 0x2 MUL DUP3 OR SWAP1 POP SWAP3 SWAP2 POP POP JUMP JUMPDEST PUSH2 0x125B DUP3 PUSH2 0xB13 JUMP JUMPDEST PUSH8 0xFFFFFFFFFFFFFFFF DUP2 GT ISZERO PUSH2 0x1274 JUMPI PUSH2 0x1273 PUSH2 0x938 JUMP JUMPDEST JUMPDEST PUSH2 0x127E DUP3 SLOAD PUSH2 0x1085 JUMP JUMPDEST PUSH2 0x1289 DUP3 DUP3 DUP6 PUSH2 0x11C9 JUMP JUMPDEST PUSH0 PUSH1 0x20 SWAP1 POP PUSH1 0x1F DUP4 GT PUSH1 0x1 DUP2 EQ PUSH2 0x12BA JUMPI PUSH0 DUP5 ISZERO PUSH2 0x12A8 JUMPI DUP3 DUP8 ADD MLOAD SWAP1 POP JUMPDEST PUSH2 0x12B2 DUP6 DUP3 PUSH2 0x1237 JUMP JUMPDEST DUP7 SSTORE POP PUSH2 0x1319 JUMP JUMPDEST PUSH1 0x1F NOT DUP5 AND PUSH2 0x12C8 DUP7 PUSH2 0x10B5 JUMP JUMPDEST PUSH0 JUMPDEST DUP3 DUP2 LT ISZERO PUSH2 0x12EF JUMPI DUP5 DUP10 ADD MLOAD DUP3 SSTORE PUSH1 0x1 DUP3 ADD SWAP2 POP PUSH1 0x20 DUP6 ADD SWAP5 POP PUSH1 0x20 DUP2 ADD SWAP1 POP PUSH2 0x12CA JUMP JUMPDEST DUP7 DUP4 LT ISZERO PUSH2 0x130C JUMPI DUP5 DUP10 ADD MLOAD PUSH2 0x1308 PUSH1 0x1F DUP10 AND DUP3 PUSH2 0x121B JUMP JUMPDEST DUP4 SSTORE POP JUMPDEST PUSH1 0x1 PUSH1 0x2 DUP9 MUL ADD DUP9 SSTORE POP POP POP JUMPDEST POP POP POP POP POP POP JUMP JUMPDEST PUSH0 PUSH2 0x132B DUP3 PUSH2 0x868 JUMP JUMPDEST SWAP2 POP PUSH2 0x1336 DUP4 PUSH2 0x868 JUMP JUMPDEST SWAP3 POP DUP3 DUP3 MUL PUSH2 0x1344 DUP2 PUSH2 0x868 JUMP JUMPDEST SWAP2 POP DUP3 DUP3 DIV DUP5 EQ DUP4 ISZERO OR PUSH2 0x135B JUMPI PUSH2 0x135A PUSH2 0xFB1 JUMP JUMPDEST JUMPDEST POP SWAP3 SWAP2 POP POP JUMP INVALID LOG2 PUSH5 0x6970667358 0x22 SLT KECCAK256 EXTCODESIZE 0xE5 LOG4 PUSH29 0x7C75CECA22C8BA1E70FB9C8D6A73C9A869135DA0DF82FAAC40DFC65B64 PUSH20 0x6F6C634300081900330000000000000000000000 "
				},
				"gasEstimates": {
					"creation": {
						"codeDepositCost": "1003200",
						"executionCost": "1039",
						"totalCost": "1004239"
					},
					"external": {
						"agreementCount()": "2469",
						"agreements(uint256)": "infinite",
						"createAgreement(address,string,uint256,uint256)": "infinite",
						"markShipment(uint256)": "infinite",
						"releasePayment(uint256)": "infinite"
					},
					"internal": {
						"daysToSeconds(uint256)": "infinite"
					}
				},
				"methodIdentifiers": {
					"agreementCount()": "bb7bb278",
					"agreements(uint256)": "bd14de96",
					"createAgreement(address,string,uint256,uint256)": "8c990f51",
					"markShipment(uint256)": "836a8ed0",
					"releasePayment(uint256)": "88685cd9"
				}
			},
			"storageLayout": {
				"storage": [
					{
						"astId": 25,
						"contract": "Smart contracts/SC6.sol:TradeFinance",
						"label": "agreements",
						"offset": 0,
						"slot": "0",
						"type": "t_mapping(t_uint256,t_struct(TradeAgreement)20_storage)"
					},
					{
						"astId": 27,
						"contract": "Smart contracts/SC6.sol:TradeFinance",
						"label": "agreementCount",
						"offset": 0,
						"slot": "1",
						"type": "t_uint256"
					}
				],
				"types": {
					"t_address_payable": {
						"encoding": "inplace",
						"label": "address payable",
						"numberOfBytes": "20"
					},
					"t_enum(State)6": {
						"encoding": "inplace",
						"label": "enum TradeFinance.State",
						"numberOfBytes": "1"
					},
					"t_mapping(t_uint256,t_struct(TradeAgreement)20_storage)": {
						"encoding": "mapping",
						"key": "t_uint256",
						"label": "mapping(uint256 => struct TradeFinance.TradeAgreement)",
						"numberOfBytes": "32",
						"value": "t_struct(TradeAgreement)20_storage"
					},
					"t_string_storage": {
						"encoding": "bytes",
						"label": "string",
						"numberOfBytes": "32"
					},
					"t_struct(TradeAgreement)20_storage": {
						"encoding": "inplace",
						"label": "struct TradeFinance.TradeAgreement",
						"members": [
							{
								"astId": 8,
								"contract": "Smart contracts/SC6.sol:TradeFinance",
								"label": "importer",
								"offset": 0,
								"slot": "0",
								"type": "t_address_payable"
							},
							{
								"astId": 10,
								"contract": "Smart contracts/SC6.sol:TradeFinance",
								"label": "exporter",
								"offset": 0,
								"slot": "1",
								"type": "t_address_payable"
							},
							{
								"astId": 12,
								"contract": "Smart contracts/SC6.sol:TradeFinance",
								"label": "productDescription",
								"offset": 0,
								"slot": "2",
								"type": "t_string_storage"
							},
							{
								"astId": 14,
								"contract": "Smart contracts/SC6.sol:TradeFinance",
								"label": "amount",
								"offset": 0,
								"slot": "3",
								"type": "t_uint256"
							},
							{
								"astId": 16,
								"contract": "Smart contracts/SC6.sol:TradeFinance",
								"label": "releaseDate",
								"offset": 0,
								"slot": "4",
								"type": "t_uint256"
							},
							{
								"astId": 19,
								"contract": "Smart contracts/SC6.sol:TradeFinance",
								"label": "state",
								"offset": 0,
								"slot": "5",
								"type": "t_enum(State)6"
							}
						],
						"numberOfBytes": "192"
					},
					"t_uint256": {
						"encoding": "inplace",
						"label": "uint256",
						"numberOfBytes": "32"
					}
				}
			},
			"userdoc": {
				"kind": "user",
				"methods": {},
				"version": 1
			}
		}
	}
}